{
	"data": {
		"bytecode": {
			"linkReferences": {},
			"object": "60806040526001600d5534801561001557600080fd5b50614d73806100256000396000f3fe608060405234801561001057600080fd5b506004361061021c5760003560e01c80637da0a87711610125578063b227f3be116100ad578063ca15c8731161007c578063ca15c87314610666578063d547741f14610696578063ddca3f43146106b2578063ef378f62146106d0578063f36c8f5c146107045761021c565b8063b227f3be146105f2578063b69ef8a81461060e578063c2939d971461062c578063c2fb85231461064a5761021c565b806390e9ca7f116100f457806390e9ca7f1461054e57806391d148541461056a578063a217fddf1461059a578063ab1d3c5a146105b8578063acab1aca146105d45761021c565b80637da0a877146104d85780637dc0d1d0146104f6578063851b16f5146105145780639010d07c1461051e5761021c565b8063486ff0cd116101a857806368acdcdf1161017757806368acdcdf146104105780636cbff42a1461042c57806373d160a21461045c5780637400f4cc1461048c5780637adbf973146104bc5761021c565b8063486ff0cd1461037157806348dec2a71461038f578063508954f8146103c4578063572b6c05146103e05761021c565b80632f2ff15d116101ef5780632f2ff15d146102cd5780632fdf15d5146102e957806336568abe146103195780633d14319d146103355780634665096d146103535761021c565b80630cdcefb614610221578063152c1f0214610251578063248a9ca314610281578063297a3e57146102b1575b600080fd5b61023b6004803603810190610236919061438c565b610722565b6040516102489190614733565b60405180910390f35b61026b6004803603810190610266919061428c565b61075f565b6040516102789190614733565b60405180910390f35b61029b6004803603810190610296919061414e565b6107a9565b6040516102a89190614792565b60405180910390f35b6102cb60048036038101906102c691906140ae565b6107c9565b005b6102e760048036038101906102e29190614177565b6109b7565b005b61030360048036038101906102fe919061414e565b610a41565b6040516103109190614733565b60405180910390f35b610333600480360381019061032e9190614177565b610a74565b005b61033d610b0d565b60405161034a9190614792565b60405180910390f35b61035b610b14565b6040516103689190614a0f565b60405180910390f35b610379610b1a565b604051610386919061485b565b60405180910390f35b6103a960048036038101906103a49190614049565b610b57565b6040516103bb9695949392919061487d565b60405180910390f35b6103de60048036038101906103d9919061414e565b610e92565b005b6103fa60048036038101906103f59190614049565b610f0e565b6040516104079190614777565b60405180910390f35b61042a60048036038101906104259190614072565b610f67565b005b61044660048036038101906104419190614247565b611137565b6040516104539190614792565b60405180910390f35b6104766004803603810190610471919061414e565b61159c565b6040516104839190614733565b60405180910390f35b6104a660048036038101906104a1919061428c565b6115cf565b6040516104b39190614792565b60405180910390f35b6104d660048036038101906104d19190614049565b6115ff565b005b6104e061167d565b6040516104ed9190614733565b60405180910390f35b6104fe6116a1565b60405161050b9190614733565b60405180910390f35b61051c6116c7565b005b6105386004803603810190610533919061420b565b611945565b6040516105459190614733565b60405180910390f35b61056860048036038101906105639190614049565b611977565b005b610584600480360381019061057f9190614177565b611b4d565b6040516105919190614777565b60405180910390f35b6105a2611b7f565b6040516105af9190614792565b60405180910390f35b6105d260048036038101906105cd9190614049565b611b86565b005b6105dc611c04565b6040516105e99190614839565b60405180910390f35b61060c60048036038101906106079190614049565b611d73565b005b610616611e76565b6040516106239190614a0f565b60405180910390f35b610634611f85565b6040516106419190614792565b60405180910390f35b610664600480360381019061065f91906141b3565b611f8b565b005b610680600480360381019061067b919061414e565b6122d4565b60405161068d9190614a0f565b60405180910390f35b6106b060048036038101906106ab9190614177565b6122fb565b005b6106ba612385565b6040516106c79190614a0f565b60405180910390f35b6106ea60048036038101906106e59190614049565b61238b565b6040516106fb9594939291906147ad565b60405180910390f35b61070c612596565b6040516107199190614792565b60405180910390f35b60006008600083815260200190815260200160002060009054906101000a900473ffffffffffffffffffffffffffffffffffffffff169050919050565b60008061076b836115cf565b90506007600082815260200190815260200160002060009054906101000a900473ffffffffffffffffffffffffffffffffffffffff16915050919050565b600060416000838152602001908152602001600020600201549050919050565b600960019054906101000a900460ff16806107e857506107e76125ba565b5b806108005750600960009054906101000a900460ff16155b610855576040517f08c379a000000000000000000000000000000000000000000000000000000000815260040180806020018281038252602e815260200180614cb9602e913960400191505060405180910390fd5b6000600960019054906101000a900460ff1615905080156108a7576001600960016101000a81548160ff0219169083151502179055506001600960006101000a81548160ff0219169083151502179055505b6108b0836125cb565b6108b98561260f565b81600281905550662386f26fc100006003819055506103844201600481905550836000806101000a81548173ffffffffffffffffffffffffffffffffffffffff021916908373ffffffffffffffffffffffffffffffffffffffff160217905550610921612653565b610929612756565b6109366000801b87612859565b6109607f35a7846a2a701fff6f9d61a46ebff5da578c5dcee8bdf361c569f9ea4ee6477187612859565b61098d7f35a7846a2a701fff6f9d61a46ebff5da578c5dcee8bdf361c569f9ea4ee647716000801b612867565b80156109af576000600960016101000a81548160ff0219169083151502179055505b505050505050565b6109de60416000848152602001908152602001600020600201546109d96128cb565b611b4d565b610a33576040517f08c379a000000000000000000000000000000000000000000000000000000000815260040180806020018281038252602f815260200180614c37602f913960400191505060405180910390fd5b610a3d82826128da565b5050565b60076020528060005260406000206000915054906101000a900473ffffffffffffffffffffffffffffffffffffffff1681565b610a7c6128cb565b73ffffffffffffffffffffffffffffffffffffffff168173ffffffffffffffffffffffffffffffffffffffff1614610aff576040517f08c379a000000000000000000000000000000000000000000000000000000000815260040180806020018281038252602f815260200180614d0f602f913960400191505060405180910390fd5b610b09828261296e565b5050565b6000801b81565b60045481565b60606040518060400160405280600181526020017f3100000000000000000000000000000000000000000000000000000000000000815250905090565b6060806060806000806000600560008973ffffffffffffffffffffffffffffffffffffffff1673ffffffffffffffffffffffffffffffffffffffff1681526020019081526020016000206040518060a001604052908160008201548152602001600182018054600181600116156101000203166002900480601f016020809104026020016040519081016040528092919081815260200182805460018160011615610100020316600290048015610c4f5780601f10610c2457610100808354040283529160200191610c4f565b820191906000526020600020905b815481529060010190602001808311610c3257829003601f168201915b50505050508152602001600282018054600181600116156101000203166002900480601f016020809104026020016040519081016040528092919081815260200182805460018160011615610100020316600290048015610cf15780601f10610cc657610100808354040283529160200191610cf1565b820191906000526020600020905b815481529060010190602001808311610cd457829003601f168201915b505050505081526020016003820160009054906101000a900460ff16151515158152602001600482018054600181600116156101000203166002900480601f016020809104026020016040519081016040528092919081815260200182805460018160011615610100020316600290048015610dae5780601f10610d8357610100808354040283529160200191610dae565b820191906000526020600020905b815481529060010190602001808311610d9157829003601f168201915b505050505081525050905060008160800151511415610e02576040517f08c379a0000000000000000000000000000000000000000000000000000000008152600401610df99061498f565b60405180910390fd5b610e0f8160000151612a02565b610e4e576040517f08c379a0000000000000000000000000000000000000000000000000000000008152600401610e45906149cf565b60405180910390fd5b600080600080610e618560800151612ae4565b94509450945094505084602001518560400151858585859a509a509a509a509a509a50505050505091939550919395565b7f35a7846a2a701fff6f9d61a46ebff5da578c5dcee8bdf361c569f9ea4ee64771610ec481610ebf6128cb565b611b4d565b610f03576040517f08c379a0000000000000000000000000000000000000000000000000000000008152600401610efa9061496f565b60405180910390fd5b816002819055505050565b60008060009054906101000a900473ffffffffffffffffffffffffffffffffffffffff1673ffffffffffffffffffffffffffffffffffffffff168273ffffffffffffffffffffffffffffffffffffffff16149050919050565b7f35a7846a2a701fff6f9d61a46ebff5da578c5dcee8bdf361c569f9ea4ee64771610f9981610f946128cb565b611b4d565b610fd8576040517f08c379a0000000000000000000000000000000000000000000000000000000008152600401610fcf9061496f565b60405180910390fd5b60008390508073ffffffffffffffffffffffffffffffffffffffff1663a9059cbb848373ffffffffffffffffffffffffffffffffffffffff166370a08231306040518263ffffffff1660e01b81526004016110339190614733565b60206040518083038186803b15801561104b57600080fd5b505afa15801561105f573d6000803e3d6000fd5b505050506040513d601f19601f8201168201806040525081019061108391906143b5565b6040518363ffffffff1660e01b81526004016110a092919061474e565b602060405180830381600087803b1580156110ba57600080fd5b505af11580156110ce573d6000803e3d6000fd5b505050506040513d601f19601f820116820180604052508101906110f29190614125565b611131576040517f08c379a0000000000000000000000000000000000000000000000000000000008152600401611128906149ef565b60405180910390fd5b50505050565b6000801515600560006111486128cb565b73ffffffffffffffffffffffffffffffffffffffff1673ffffffffffffffffffffffffffffffffffffffff16815260200190815260200160002060030160009054906101000a900460ff161515146111d5576040517f08c379a00000000000000000000000000000000000000000000000000000000081526004016111cc9061494f565b60405180910390fd5b82828080601f016020809104026020016040519081016040528093929190818152602001838380828437600081840152601f19601f82011690508083019250505050505050600061122582612b2f565b90506000611232826115cf565b9050600073ffffffffffffffffffffffffffffffffffffffff166007600083815260200190815260200160002060009054906101000a900473ffffffffffffffffffffffffffffffffffffffff1673ffffffffffffffffffffffffffffffffffffffff16146112d6576040517f08c379a00000000000000000000000000000000000000000000000000000000081526004016112cd906149af565b60405180910390fd5b60006112ec6002543063c2fb852360e01b612bb3565b9050600061133d88888080601f016020809104026020016040519081016040528093929190818152602001838380828437600081840152601f19601f82011690508083019250505050505050612b2f565b90506113896040518060400160405280601081526020017f747769747465725f757365726e616d65000000000000000000000000000000008152508284612be49092919063ffffffff16565b6113f96040518060400160405280600d81526020017f616464726573735f6279746573000000000000000000000000000000000000008152506113ca6128cb565b6040516020016113da9190614701565b60405160208183030381529060405284612c179092919063ffffffff16565b6114786040518060400160405280600481526020017f70617468000000000000000000000000000000000000000000000000000000008152506040518060400160405280600681526020017f726573756c74000000000000000000000000000000000000000000000000000081525084612be49092919063ffffffff16565b600061148683600354612c4a565b905080600560006114956128cb565b73ffffffffffffffffffffffffffffffffffffffff1673ffffffffffffffffffffffffffffffffffffffff1681526020019081526020016000206000018190555081600560006114e36128cb565b73ffffffffffffffffffffffffffffffffffffffff1673ffffffffffffffffffffffffffffffffffffffff1681526020019081526020016000206001019080519060200190611533929190613c2c565b5061153c6128cb565b6006600083815260200190815260200160002060006101000a81548173ffffffffffffffffffffffffffffffffffffffff021916908373ffffffffffffffffffffffffffffffffffffffff16021790555080965050505050505092915050565b60066020528060005260406000206000915054906101000a900473ffffffffffffffffffffffffffffffffffffffff1681565b6000816040516020016115e2919061471c565b604051602081830303815290604052805190602001209050919050565b7f35a7846a2a701fff6f9d61a46ebff5da578c5dcee8bdf361c569f9ea4ee647716116318161162c6128cb565b611b4d565b611670576040517f08c379a00000000000000000000000000000000000000000000000000000000081526004016116679061496f565b60405180910390fd5b6116798261260f565b5050565b60008054906101000a900473ffffffffffffffffffffffffffffffffffffffff1681565b600160009054906101000a900473ffffffffffffffffffffffffffffffffffffffff1681565b6000600560006116d56128cb565b73ffffffffffffffffffffffffffffffffffffffff1673ffffffffffffffffffffffffffffffffffffffff1681526020019081526020016000206040518060a001604052908160008201548152602001600182018054600181600116156101000203166002900480601f0160208091040260200160405190810160405280929190818152602001828054600181600116156101000203166002900480156117bd5780601f10611792576101008083540402835291602001916117bd565b820191906000526020600020905b8154815290600101906020018083116117a057829003601f168201915b50505050508152602001600282018054600181600116156101000203166002900480601f01602080910402602001604051908101604052809291908181526020018280546001816001161561010002031660029004801561185f5780601f106118345761010080835404028352916020019161185f565b820191906000526020600020905b81548152906001019060200180831161184257829003601f168201915b505050505081526020016003820160009054906101000a900460ff16151515158152602001600482018054600181600116156101000203166002900480601f01602080910402602001604051908101604052809291908181526020018280546001816001161561010002031660029004801561191c5780601f106118f15761010080835404028352916020019161191c565b820191906000526020600020905b8154815290600101906020018083116118ff57829003601f168201915b5050505050815250509050611942816000015160035463c2fb852360e01b600454612c81565b50565b600061196f8260416000868152602001908152602001600020600001612dc590919063ffffffff16565b905092915050565b7f35a7846a2a701fff6f9d61a46ebff5da578c5dcee8bdf361c569f9ea4ee647716119a9816119a46128cb565b611b4d565b6119e8576040517f08c379a00000000000000000000000000000000000000000000000000000000081526004016119df9061496f565b60405180910390fd5b60006119f2612ddf565b90508073ffffffffffffffffffffffffffffffffffffffff1663a9059cbb848373ffffffffffffffffffffffffffffffffffffffff166370a08231306040518263ffffffff1660e01b8152600401611a4a9190614733565b60206040518083038186803b158015611a6257600080fd5b505afa158015611a76573d6000803e3d6000fd5b505050506040513d601f19601f82011682018060405250810190611a9a91906143b5565b6040518363ffffffff1660e01b8152600401611ab792919061474e565b602060405180830381600087803b158015611ad157600080fd5b505af1158015611ae5573d6000803e3d6000fd5b505050506040513d601f19601f82011682018060405250810190611b099190614125565b611b48576040517f08c379a0000000000000000000000000000000000000000000000000000000008152600401611b3f906149ef565b60405180910390fd5b505050565b6000611b778260416000868152602001908152602001600020600001612e0990919063ffffffff16565b905092915050565b6000801b81565b7f35a7846a2a701fff6f9d61a46ebff5da578c5dcee8bdf361c569f9ea4ee64771611bb881611bb36128cb565b611b4d565b611bf7576040517f08c379a0000000000000000000000000000000000000000000000000000000008152600401611bee9061496f565b60405180910390fd5b611c00826125cb565b5050565b6060600060056000611c146128cb565b73ffffffffffffffffffffffffffffffffffffffff1673ffffffffffffffffffffffffffffffffffffffff168152602001908152602001600020600001549050611c5d81612e39565b60011515611c6a82612a02565b15151415611d5c5760056000611c7e6128cb565b73ffffffffffffffffffffffffffffffffffffffff1673ffffffffffffffffffffffffffffffffffffffff1681526020019081526020016000206004018054600181600116156101000203166002900480601f016020809104026020016040519081016040528092919081815260200182805460018160011615610100020316600290048015611d4f5780601f10611d2457610100808354040283529160200191611d4f565b820191906000526020600020905b815481529060010190602001808311611d3257829003601f168201915b5050505050915050611d70565b604051806020016040528060008152509150505b90565b7f35a7846a2a701fff6f9d61a46ebff5da578c5dcee8bdf361c569f9ea4ee64771611da581611da06128cb565b611b4d565b611de4576040517f08c379a0000000000000000000000000000000000000000000000000000000008152600401611ddb9061496f565b60405180910390fd5b600560008373ffffffffffffffffffffffffffffffffffffffff1673ffffffffffffffffffffffffffffffffffffffff168152602001908152602001600020600080820160009055600182016000611e3c9190613cba565b600282016000611e4c9190613cba565b6003820160006101000a81549060ff0219169055600482016000611e709190613d02565b50505050565b60007f35a7846a2a701fff6f9d61a46ebff5da578c5dcee8bdf361c569f9ea4ee64771611eaa81611ea56128cb565b611b4d565b611ee9576040517f08c379a0000000000000000000000000000000000000000000000000000000008152600401611ee09061496f565b60405180910390fd5b6000611ef3612ddf565b90508073ffffffffffffffffffffffffffffffffffffffff166370a08231306040518263ffffffff1660e01b8152600401611f2e9190614733565b60206040518083038186803b158015611f4657600080fd5b505afa158015611f5a573d6000803e3d6000fd5b505050506040513d601f19601f82011682018060405250810190611f7e91906143b5565b9250505090565b60025481565b82600e600082815260200190815260200160002060009054906101000a900473ffffffffffffffffffffffffffffffffffffffff1673ffffffffffffffffffffffffffffffffffffffff163373ffffffffffffffffffffffffffffffffffffffff1614612043576040517f08c379a0000000000000000000000000000000000000000000000000000000008152600401808060200182810382526028815260200180614ce76028913960400191505060405180910390fd5b600e600082815260200190815260200160002060006101000a81549073ffffffffffffffffffffffffffffffffffffffff0219169055807f7cc135e0cebb02c3480ae5d74d377283180a2601f8f644edf7987b009316c63a60405160405180910390a260006006600086815260200190815260200160002060009054906101000a900473ffffffffffffffffffffffffffffffffffffffff169050606484849050111561222e576001600560008373ffffffffffffffffffffffffffffffffffffffff1673ffffffffffffffffffffffffffffffffffffffff16815260200190815260200160002060030160006101000a81548160ff0219169083151502179055508383600560008473ffffffffffffffffffffffffffffffffffffffff1673ffffffffffffffffffffffffffffffffffffffff1681526020019081526020016000206004019190612196929190613d4a565b506121a2818585612e82565b6006600086815260200190815260200160002060006101000a81549073ffffffffffffffffffffffffffffffffffffffff02191690558073ffffffffffffffffffffffffffffffffffffffff167f5558dd1c153e0c1f8c80798aeed4e67944c9f61b4b21fc582570130a778a964a8585604051612220929190614815565b60405180910390a2506122ce565b600560008273ffffffffffffffffffffffffffffffffffffffff1673ffffffffffffffffffffffffffffffffffffffff168152602001908152602001600020600101600061227c9190613cba565b8073ffffffffffffffffffffffffffffffffffffffff167f365b5ceb998ce6cd2a94807ad133912878efb4835f3fa8ae003bf75529c7af3b85856040516122c4929190614815565b60405180910390a2505b50505050565b60006122f460416000848152602001908152602001600020600001612fe5565b9050919050565b612322604160008481526020019081526020016000206002015461231d6128cb565b611b4d565b612377576040517f08c379a0000000000000000000000000000000000000000000000000000000008152600401808060200182810382526030815260200180614c896030913960400191505060405180910390fd5b612381828261296e565b5050565b60035481565b6005602052806000526040600020600091509050806000015490806001018054600181600116156101000203166002900480601f01602080910402602001604051908101604052809291908181526020018280546001816001161561010002031660029004801561243d5780601f106124125761010080835404028352916020019161243d565b820191906000526020600020905b81548152906001019060200180831161242057829003601f168201915b505050505090806002018054600181600116156101000203166002900480601f0160208091040260200160405190810160405280929190818152602001828054600181600116156101000203166002900480156124db5780601f106124b0576101008083540402835291602001916124db565b820191906000526020600020905b8154815290600101906020018083116124be57829003601f168201915b5050505050908060030160009054906101000a900460ff1690806004018054600181600116156101000203166002900480601f01602080910402602001604051908101604052809291908181526020018280546001816001161561010002031660029004801561258c5780601f106125615761010080835404028352916020019161258c565b820191906000526020600020905b81548152906001019060200180831161256f57829003601f168201915b5050505050905085565b7f35a7846a2a701fff6f9d61a46ebff5da578c5dcee8bdf361c569f9ea4ee6477181565b60006125c530612ffa565b15905090565b80600b60006101000a81548173ffffffffffffffffffffffffffffffffffffffff021916908373ffffffffffffffffffffffffffffffffffffffff16021790555050565b80600c60006101000a81548173ffffffffffffffffffffffffffffffffffffffff021916908373ffffffffffffffffffffffffffffffffffffffff16021790555050565b600960019054906101000a900460ff168061267257506126716125ba565b5b8061268a5750600960009054906101000a900460ff16155b6126df576040517f08c379a000000000000000000000000000000000000000000000000000000000815260040180806020018281038252602e815260200180614cb9602e913960400191505060405180910390fd5b6000600960019054906101000a900460ff161590508015612731576001600960016101000a81548160ff0219169083151502179055506001600960006101000a81548160ff0219169083151502179055505b8015612753576000600960016101000a81548160ff0219169083151502179055505b50565b600960019054906101000a900460ff168061277557506127746125ba565b5b8061278d5750600960009054906101000a900460ff16155b6127e2576040517f08c379a000000000000000000000000000000000000000000000000000000000815260040180806020018281038252602e815260200180614cb9602e913960400191505060405180910390fd5b6000600960019054906101000a900460ff161590508015612834576001600960016101000a81548160ff0219169083151502179055506001600960006101000a81548160ff0219169083151502179055505b8015612856576000600960016101000a81548160ff0219169083151502179055505b50565b61286382826128da565b5050565b806041600084815260200190815260200160002060020154837fbd79b86ffe0ab8e8776151514217cd7cacd52c909f66475c3af44e129f0b00ff60405160405180910390a48060416000848152602001908152602001600020600201819055505050565b60006128d561300d565b905090565b612902816041600085815260200190815260200160002060000161304990919063ffffffff16565b1561296a5761290f6128cb565b73ffffffffffffffffffffffffffffffffffffffff168173ffffffffffffffffffffffffffffffffffffffff16837f2f8788117e7eff1d82e926ec794901d17c78024a50270940304540a733656f0d60405160405180910390a45b5050565b612996816041600085815260200190815260200160002060000161307990919063ffffffff16565b156129fe576129a36128cb565b73ffffffffffffffffffffffffffffffffffffffff168173ffffffffffffffffffffffffffffffffffffffff16837ff6391f5c32d9c69d2a47ea670b442974b53935d1edc7fd64eb21e047a839171b60405160405180910390a45b5050565b600081600073ffffffffffffffffffffffffffffffffffffffff16600e600083815260200190815260200160002060009054906101000a900473ffffffffffffffffffffffffffffffffffffffff1673ffffffffffffffffffffffffffffffffffffffff1614612ada576040517f08c379a000000000000000000000000000000000000000000000000000000000815260040180806020018281038252601a8152602001807f5265717565737420697320616c72656164792070656e64696e6700000000000081525060200191505060405180910390fd5b6001915050919050565b606080606060008060008060008060008a806020019051810190612b0891906142cd565b94509450945094509450848484848499509950995099509950505050505091939590929450565b6060600082905060005b8151811015612ba957612b61828281518110612b5157fe5b602001015160f81c60f81b6130a9565b828281518110612b6d57fe5b60200101907effffffffffffffffffffffffffffffffffffffffffffffffffffffffffffff1916908160001a9053508080600101915050612b39565b5080915050919050565b612bbb613dd8565b612bc3613dd8565b612bda85858584613126909392919063ffffffff16565b9150509392505050565b612bfb8284608001516131d690919063ffffffff16565b612c128184608001516131d690919063ffffffff16565b505050565b612c2e8284608001516131d690919063ffffffff16565b612c458184608001516131fb90919063ffffffff16565b505050565b6000612c79600c60009054906101000a900473ffffffffffffffffffffffffffffffffffffffff168484613220565b905092915050565b6000600e600086815260200190815260200160002060009054906101000a900473ffffffffffffffffffffffffffffffffffffffff169050600e600086815260200190815260200160002060006101000a81549073ffffffffffffffffffffffffffffffffffffffff0219169055847fe1fe3afa0f7f761ff0a8b89086790efd5140d2907ebd5b7ff6bfcb5e075fd4c560405160405180910390a28073ffffffffffffffffffffffffffffffffffffffff16636ee4d553868686866040518563ffffffff1660e01b815260040180858152602001848152602001837bffffffffffffffffffffffffffffffffffffffffffffffffffffffff19168152602001828152602001945050505050600060405180830381600087803b158015612da657600080fd5b505af1158015612dba573d6000803e3d6000fd5b505050505050505050565b6000612dd48360000183613240565b60001c905092915050565b6000600b60009054906101000a900473ffffffffffffffffffffffffffffffffffffffff16905090565b6000612e31836000018373ffffffffffffffffffffffffffffffffffffffff1660001b6132c3565b905092915050565b6000801b811415612e7f576040517f08c379a0000000000000000000000000000000000000000000000000000000008152600401612e769061492f565b60405180910390fd5b50565b600080612ed284848080601f016020809104026020016040519081016040528093929190818152602001838380828437600081840152601f19601f82011690508083019250505050505050612ae4565b509350505091506000612ee4836115cf565b9050856007600083815260200190815260200160002060006101000a81548173ffffffffffffffffffffffffffffffffffffffff021916908373ffffffffffffffffffffffffffffffffffffffff160217905550856008600084815260200190815260200160002060006101000a81548173ffffffffffffffffffffffffffffffffffffffff021916908373ffffffffffffffffffffffffffffffffffffffff160217905550816000801b8773ffffffffffffffffffffffffffffffffffffffff167f874a2ec5722cd7eda7de89cd030f58c969310542d551b540230f17bf599d3fd886604051612fd591906148fa565b60405180910390a4505050505050565b6000612ff3826000016132e6565b9050919050565b600080823b905060008111915050919050565b60006014600036905010158015613029575061302833610f0e565b5b1561303d57601436033560601c9050613045565b339050613046565b5b90565b6000613071836000018373ffffffffffffffffffffffffffffffffffffffff1660001b6132f7565b905092915050565b60006130a1836000018373ffffffffffffffffffffffffffffffffffffffff1660001b613367565b905092915050565b6000604160f81b827effffffffffffffffffffffffffffffffffffffffffffffffffffffffffffff1916101580156131075750605a60f81b827effffffffffffffffffffffffffffffffffffffffffffffffffffffffffffff191611155b1561311d5760208260f81c0160f81b9050613121565b8190505b919050565b61312e613dd8565b61313e856080015161010061344f565b508385600001818152505082856020019073ffffffffffffffffffffffffffffffffffffffff16908173ffffffffffffffffffffffffffffffffffffffff16815250508185604001907bffffffffffffffffffffffffffffffffffffffffffffffffffffffff191690817bffffffffffffffffffffffffffffffffffffffffffffffffffffffff191681525050849050949350505050565b6131e382600383516134a3565b6131f6818361362890919063ffffffff16565b505050565b61320882600283516134a3565b61321b818361362890919063ffffffff16565b505050565b60006132378484846002636de879d660e01b61364a565b90509392505050565b6000818360000180549050116132a1576040517f08c379a0000000000000000000000000000000000000000000000000000000008152600401808060200182810382526022815260200180614c156022913960400191505060405180910390fd5b8260000182815481106132b057fe5b9060005260206000200154905092915050565b600080836001016000848152602001908152602001600020541415905092915050565b600081600001805490509050919050565b600061330383836132c3565b61335c578260000182908060018154018082558091505060019003906000526020600020016000909190919091505582600001805490508360010160008481526020019081526020016000208190555060019050613361565b600090505b92915050565b6000808360010160008481526020019081526020016000205490506000811461344357600060018203905060006001866000018054905003905060008660000182815481106133b257fe5b90600052602060002001549050808760000184815481106133cf57fe5b906000526020600020018190555060018301876001016000838152602001908152602001600020819055508660000180548061340757fe5b60019003818190600052602060002001600090559055866001016000878152602001908152602001600020600090556001945050505050613449565b60009150505b92915050565b613457613e45565b60006020838161346357fe5b061461347c576020828161347357fe5b06602003820191505b81836020018181525050604051808452600081528281016020016040525082905092915050565b60178167ffffffffffffffff16116134da576134d48160058460ff16901b60ff161784613a4290919063ffffffff16565b50613623565b60ff8167ffffffffffffffff161161353057613509601860058460ff16901b1784613a4290919063ffffffff16565b5061352a8167ffffffffffffffff16600185613a629092919063ffffffff16565b50613622565b61ffff8167ffffffffffffffff161161358757613560601960058460ff16901b1784613a4290919063ffffffff16565b506135818167ffffffffffffffff16600285613a629092919063ffffffff16565b50613621565b63ffffffff8167ffffffffffffffff16116135e0576135b9601a60058460ff16901b1784613a4290919063ffffffff16565b506135da8167ffffffffffffffff16600485613a629092919063ffffffff16565b50613620565b6135fd601b60058460ff16901b1784613a4290919063ffffffff16565b5061361e8167ffffffffffffffff16600885613a629092919063ffffffff16565b505b5b5b5b505050565b613630613e45565b61364283846000015151848551613a84565b905092915050565b600030600d54604051602001808373ffffffffffffffffffffffffffffffffffffffff1660601b815260140182815260200192505050604051602081830303815290604052805190602001209050600d5485606001818152505085600e600083815260200190815260200160002060006101000a81548173ffffffffffffffffffffffffffffffffffffffff021916908373ffffffffffffffffffffffffffffffffffffffff160217905550807fb5e6e01e79f91267dc17b4e6314d5d4d03593d2ceee0fbb452b750bd70ea5af960405160405180910390a2600082600080886000015189602001518a604001518b606001518a8d6080015160000151604051602401808973ffffffffffffffffffffffffffffffffffffffff1681526020018881526020018781526020018673ffffffffffffffffffffffffffffffffffffffff168152602001857bffffffffffffffffffffffffffffffffffffffffffffffffffffffff1916815260200184815260200183815260200180602001828103825283818151815260200191508051906020019080838360005b838110156137ff5780820151818401526020810190506137e4565b50505050905090810190601f16801561382c5780820380516001836020036101000a031916815260200191505b509950505050505050505050604051602081830303815290604052907bffffffffffffffffffffffffffffffffffffffffffffffffffffffff19166020820180517bffffffffffffffffffffffffffffffffffffffffffffffffffffffff83818316178352505050509050600b60009054906101000a900473ffffffffffffffffffffffffffffffffffffffff1673ffffffffffffffffffffffffffffffffffffffff16634000aea08887846040518463ffffffff1660e01b8152600401808473ffffffffffffffffffffffffffffffffffffffff16815260200183815260200180602001828103825283818151815260200191508051906020019080838360005b8381101561394957808201518184015260208101905061392e565b50505050905090810190601f1680156139765780820380516001836020036101000a031916815260200191505b50945050505050602060405180830381600087803b15801561399757600080fd5b505af11580156139ab573d6000803e3d6000fd5b505050506040513d60208110156139c157600080fd5b8101908080519060200190929190505050613a27576040517f08c379a0000000000000000000000000000000000000000000000000000000008152600401808060200182810382526023815260200180614c666023913960400191505060405180910390fd5b6001600d600082825401925050819055505095945050505050565b613a4a613e45565b613a5a8384600001515184613b3d565b905092915050565b613a6a613e45565b613a7b848560000151518585613b8b565b90509392505050565b613a8c613e45565b8251821115613a9a57600080fd5b84602001518285011115613ac557613ac4856002613abe8860200151888701613bec565b02613c08565b5b600080865180518760208301019350808887011115613ae45787860182525b60208701925050505b60208410613b105780518252602082019150602081019050602084039350613aed565b60006001856020036101000a03905080198251168184511681811785525050879350505050949350505050565b613b45613e45565b83602001518310613b6257613b61846002866020015102613c08565b5b8351805160208583010184815381861415613b7e576001820183525b5050508390509392505050565b613b93613e45565b84602001518483011115613bb157613bb085600286850102613c08565b5b60006001836101000a0390508551838682010185831982511617815281518588011115613bde5784870182525b505085915050949350505050565b600081831115613bfe57829050613c02565b8190505b92915050565b600082600001519050613c1b838361344f565b50613c268382613628565b50505050565b828054600181600116156101000203166002900490600052602060002090601f016020900481019282613c625760008555613ca9565b82601f10613c7b57805160ff1916838001178555613ca9565b82800160010185558215613ca9579182015b82811115613ca8578251825591602001919060010190613c8d565b5b509050613cb69190613e5f565b5090565b50805460018160011615610100020316600290046000825580601f10613ce05750613cff565b601f016020900490600052602060002090810190613cfe9190613e5f565b5b50565b50805460018160011615610100020316600290046000825580601f10613d285750613d47565b601f016020900490600052602060002090810190613d469190613e5f565b5b50565b828054600181600116156101000203166002900490600052602060002090601f016020900481019282613d805760008555613dc7565b82601f10613d9957803560ff1916838001178555613dc7565b82800160010185558215613dc7579182015b82811115613dc6578235825591602001919060010190613dab565b5b509050613dd49190613e5f565b5090565b6040518060a0016040528060008019168152602001600073ffffffffffffffffffffffffffffffffffffffff16815260200160007bffffffffffffffffffffffffffffffffffffffffffffffffffffffff1916815260200160008152602001613e3f613e45565b81525090565b604051806040016040528060608152602001600081525090565b5b80821115613e78576000816000905550600101613e60565b5090565b6000613e8f613e8a84614a5b565b614a2a565b905082815260208101848484011115613ea757600080fd5b613eb2848285614b32565b509392505050565b6000613ecd613ec884614a5b565b614a2a565b905082815260208101848484011115613ee557600080fd5b613ef0848285614b41565b509392505050565b600081359050613f0781614bb8565b92915050565b600081519050613f1c81614bcf565b92915050565b600081359050613f3181614be6565b92915050565b60008083601f840112613f4957600080fd5b8235905067ffffffffffffffff811115613f6257600080fd5b602083019150836001820283011115613f7a57600080fd5b9250929050565b60008083601f840112613f9357600080fd5b8235905067ffffffffffffffff811115613fac57600080fd5b602083019150836001820283011115613fc457600080fd5b9250929050565b600082601f830112613fdc57600080fd5b8135613fec848260208601613e7c565b91505092915050565b600082601f83011261400657600080fd5b8151614016848260208601613eba565b91505092915050565b60008135905061402e81614bfd565b92915050565b60008151905061404381614bfd565b92915050565b60006020828403121561405b57600080fd5b600061406984828501613ef8565b91505092915050565b6000806040838503121561408557600080fd5b600061409385828601613ef8565b92505060206140a485828601613ef8565b9150509250929050565b600080600080600060a086880312156140c657600080fd5b60006140d488828901613ef8565b95505060206140e588828901613ef8565b94505060406140f688828901613ef8565b935050606061410788828901613ef8565b925050608061411888828901613f22565b9150509295509295909350565b60006020828403121561413757600080fd5b600061414584828501613f0d565b91505092915050565b60006020828403121561416057600080fd5b600061416e84828501613f22565b91505092915050565b6000806040838503121561418a57600080fd5b600061419885828601613f22565b92505060206141a985828601613ef8565b9150509250929050565b6000806000604084860312156141c857600080fd5b60006141d686828701613f22565b935050602084013567ffffffffffffffff8111156141f357600080fd5b6141ff86828701613f37565b92509250509250925092565b6000806040838503121561421e57600080fd5b600061422c85828601613f22565b925050602061423d8582860161401f565b9150509250929050565b6000806020838503121561425a57600080fd5b600083013567ffffffffffffffff81111561427457600080fd5b61428085828601613f81565b92509250509250929050565b60006020828403121561429e57600080fd5b600082013567ffffffffffffffff8111156142b857600080fd5b6142c484828501613fcb565b91505092915050565b600080600080600060a086880312156142e557600080fd5b600086015167ffffffffffffffff8111156142ff57600080fd5b61430b88828901613ff5565b955050602086015167ffffffffffffffff81111561432857600080fd5b61433488828901613ff5565b945050604086015167ffffffffffffffff81111561435157600080fd5b61435d88828901613ff5565b935050606061436e88828901614034565b925050608061437f88828901613f0d565b9150509295509295909350565b60006020828403121561439e57600080fd5b60006143ac8482850161401f565b91505092915050565b6000602082840312156143c757600080fd5b60006143d584828501614034565b91505092915050565b6143ef6143ea82614ae0565b614b74565b82525050565b6143fe81614ace565b82525050565b61440d81614af2565b82525050565b61441c81614afe565b82525050565b600061442e8385614aa1565b935061443b838584614b32565b61444483614b9a565b840190509392505050565b600061445a82614a8b565b6144648185614aa1565b9350614474818560208601614b41565b61447d81614b9a565b840191505092915050565b600061449382614a96565b61449d8185614ab2565b93506144ad818560208601614b41565b6144b681614b9a565b840191505092915050565b60006144cc82614a96565b6144d68185614ac3565b93506144e6818560208601614b41565b80840191505092915050565b60006144ff601a83614ab2565b91507f564552494649434154494f4e5f4841534e545f535441525445440000000000006000830152602082019050919050565b600061453f601883614ab2565b91507f414444524553535f414c52454144595f564552494649454400000000000000006000830152602082019050919050565b600061457f600c83614ab2565b91507f4d495353494e475f524f4c4500000000000000000000000000000000000000006000830152602082019050919050565b60006145bf602183614ab2565b91507f416d61434c436c69656e743a205265717565737420566572696669636174696f60008301527f6e000000000000000000000000000000000000000000000000000000000000006020830152604082019050919050565b6000614625602083614ab2565b91507f545749545445525f555345524e414d455f414c52454144595f434c41494d45446000830152602082019050919050565b6000614665601583614ab2565b91507f506c6561736520636c61696d537562446f6d61696e00000000000000000000006000830152602082019050919050565b60006146a5601283614ab2565b91507f554e41424c455f544f5f5452414e5346455200000000000000000000000000006000830152602082019050919050565b60006146e5600083614ab2565b9150600082019050919050565b6146fb81614b28565b82525050565b600061470d82846143de565b60148201915081905092915050565b600061472882846144c1565b915081905092915050565b600060208201905061474860008301846143f5565b92915050565b600060408201905061476360008301856143f5565b61477060208301846146f2565b9392505050565b600060208201905061478c6000830184614404565b92915050565b60006020820190506147a76000830184614413565b92915050565b600060a0820190506147c26000830188614413565b81810360208301526147d48187614488565b905081810360408301526147e88186614488565b90506147f76060830185614404565b8181036080830152614809818461444f565b90509695505050505050565b60006020820190508181036000830152614830818486614422565b90509392505050565b60006020820190508181036000830152614853818461444f565b905092915050565b600060208201905081810360008301526148758184614488565b905092915050565b600060c08201905081810360008301526148978189614488565b905081810360208301526148ab8188614488565b905081810360408301526148bf8187614488565b905081810360608301526148d38186614488565b90506148e260808301856146f2565b6148ef60a0830184614404565b979650505050505050565b600060408201905081810360008301526149148184614488565b90508181036020830152614927816146d8565b905092915050565b60006020820190508181036000830152614948816144f2565b9050919050565b6000602082019050818103600083015261496881614532565b9050919050565b6000602082019050818103600083015261498881614572565b9050919050565b600060208201905081810360008301526149a8816145b2565b9050919050565b600060208201905081810360008301526149c881614618565b9050919050565b600060208201905081810360008301526149e881614658565b9050919050565b60006020820190508181036000830152614a0881614698565b9050919050565b6000602082019050614a2460008301846146f2565b92915050565b6000604051905081810181811067ffffffffffffffff82111715614a5157614a50614b98565b5b8060405250919050565b600067ffffffffffffffff821115614a7657614a75614b98565b5b601f19601f8301169050602081019050919050565b600081519050919050565b600081519050919050565b600082825260208201905092915050565b600082825260208201905092915050565b600081905092915050565b6000614ad982614b08565b9050919050565b6000614aeb82614b08565b9050919050565b60008115159050919050565b6000819050919050565b600073ffffffffffffffffffffffffffffffffffffffff82169050919050565b6000819050919050565b82818337600083830152505050565b60005b83811015614b5f578082015181840152602081019050614b44565b83811115614b6e576000848401525b50505050565b6000614b7f82614b86565b9050919050565b6000614b9182614bab565b9050919050565bfe5b6000601f19601f8301169050919050565b60008160601b9050919050565b614bc181614ace565b8114614bcc57600080fd5b50565b614bd881614af2565b8114614be357600080fd5b50565b614bef81614afe565b8114614bfa57600080fd5b50565b614c0681614b28565b8114614c1157600080fd5b5056fe456e756d657261626c655365743a20696e646578206f7574206f6620626f756e6473416363657373436f6e74726f6c3a2073656e646572206d75737420626520616e2061646d696e20746f206772616e74756e61626c6520746f207472616e73666572416e6443616c6c20746f206f7261636c65416363657373436f6e74726f6c3a2073656e646572206d75737420626520616e2061646d696e20746f207265766f6b65496e697469616c697a61626c653a20636f6e747261637420697320616c726561647920696e697469616c697a6564536f75726365206d75737420626520746865206f7261636c65206f66207468652072657175657374416363657373436f6e74726f6c3a2063616e206f6e6c792072656e6f756e636520726f6c657320666f722073656c66a26469706673582212208161e55bfe2d4084f51c7738689b42d29cfc786df9f935806daf418495f7fd4a64736f6c63430007060033",
			"opcodes": "PUSH1 0x80 PUSH1 0x40 MSTORE PUSH1 0x1 PUSH1 0xD SSTORE CALLVALUE DUP1 ISZERO PUSH2 0x15 JUMPI PUSH1 0x0 DUP1 REVERT JUMPDEST POP PUSH2 0x4D73 DUP1 PUSH2 0x25 PUSH1 0x0 CODECOPY PUSH1 0x0 RETURN INVALID PUSH1 0x80 PUSH1 0x40 MSTORE CALLVALUE DUP1 ISZERO PUSH2 0x10 JUMPI PUSH1 0x0 DUP1 REVERT JUMPDEST POP PUSH1 0x4 CALLDATASIZE LT PUSH2 0x21C JUMPI PUSH1 0x0 CALLDATALOAD PUSH1 0xE0 SHR DUP1 PUSH4 0x7DA0A877 GT PUSH2 0x125 JUMPI DUP1 PUSH4 0xB227F3BE GT PUSH2 0xAD JUMPI DUP1 PUSH4 0xCA15C873 GT PUSH2 0x7C JUMPI DUP1 PUSH4 0xCA15C873 EQ PUSH2 0x666 JUMPI DUP1 PUSH4 0xD547741F EQ PUSH2 0x696 JUMPI DUP1 PUSH4 0xDDCA3F43 EQ PUSH2 0x6B2 JUMPI DUP1 PUSH4 0xEF378F62 EQ PUSH2 0x6D0 JUMPI DUP1 PUSH4 0xF36C8F5C EQ PUSH2 0x704 JUMPI PUSH2 0x21C JUMP JUMPDEST DUP1 PUSH4 0xB227F3BE EQ PUSH2 0x5F2 JUMPI DUP1 PUSH4 0xB69EF8A8 EQ PUSH2 0x60E JUMPI DUP1 PUSH4 0xC2939D97 EQ PUSH2 0x62C JUMPI DUP1 PUSH4 0xC2FB8523 EQ PUSH2 0x64A JUMPI PUSH2 0x21C JUMP JUMPDEST DUP1 PUSH4 0x90E9CA7F GT PUSH2 0xF4 JUMPI DUP1 PUSH4 0x90E9CA7F EQ PUSH2 0x54E JUMPI DUP1 PUSH4 0x91D14854 EQ PUSH2 0x56A JUMPI DUP1 PUSH4 0xA217FDDF EQ PUSH2 0x59A JUMPI DUP1 PUSH4 0xAB1D3C5A EQ PUSH2 0x5B8 JUMPI DUP1 PUSH4 0xACAB1ACA EQ PUSH2 0x5D4 JUMPI PUSH2 0x21C JUMP JUMPDEST DUP1 PUSH4 0x7DA0A877 EQ PUSH2 0x4D8 JUMPI DUP1 PUSH4 0x7DC0D1D0 EQ PUSH2 0x4F6 JUMPI DUP1 PUSH4 0x851B16F5 EQ PUSH2 0x514 JUMPI DUP1 PUSH4 0x9010D07C EQ PUSH2 0x51E JUMPI PUSH2 0x21C JUMP JUMPDEST DUP1 PUSH4 0x486FF0CD GT PUSH2 0x1A8 JUMPI DUP1 PUSH4 0x68ACDCDF GT PUSH2 0x177 JUMPI DUP1 PUSH4 0x68ACDCDF EQ PUSH2 0x410 JUMPI DUP1 PUSH4 0x6CBFF42A EQ PUSH2 0x42C JUMPI DUP1 PUSH4 0x73D160A2 EQ PUSH2 0x45C JUMPI DUP1 PUSH4 0x7400F4CC EQ PUSH2 0x48C JUMPI DUP1 PUSH4 0x7ADBF973 EQ PUSH2 0x4BC JUMPI PUSH2 0x21C JUMP JUMPDEST DUP1 PUSH4 0x486FF0CD EQ PUSH2 0x371 JUMPI DUP1 PUSH4 0x48DEC2A7 EQ PUSH2 0x38F JUMPI DUP1 PUSH4 0x508954F8 EQ PUSH2 0x3C4 JUMPI DUP1 PUSH4 0x572B6C05 EQ PUSH2 0x3E0 JUMPI PUSH2 0x21C JUMP JUMPDEST DUP1 PUSH4 0x2F2FF15D GT PUSH2 0x1EF JUMPI DUP1 PUSH4 0x2F2FF15D EQ PUSH2 0x2CD JUMPI DUP1 PUSH4 0x2FDF15D5 EQ PUSH2 0x2E9 JUMPI DUP1 PUSH4 0x36568ABE EQ PUSH2 0x319 JUMPI DUP1 PUSH4 0x3D14319D EQ PUSH2 0x335 JUMPI DUP1 PUSH4 0x4665096D EQ PUSH2 0x353 JUMPI PUSH2 0x21C JUMP JUMPDEST DUP1 PUSH4 0xCDCEFB6 EQ PUSH2 0x221 JUMPI DUP1 PUSH4 0x152C1F02 EQ PUSH2 0x251 JUMPI DUP1 PUSH4 0x248A9CA3 EQ PUSH2 0x281 JUMPI DUP1 PUSH4 0x297A3E57 EQ PUSH2 0x2B1 JUMPI JUMPDEST PUSH1 0x0 DUP1 REVERT JUMPDEST PUSH2 0x23B PUSH1 0x4 DUP1 CALLDATASIZE SUB DUP2 ADD SWAP1 PUSH2 0x236 SWAP2 SWAP1 PUSH2 0x438C JUMP JUMPDEST PUSH2 0x722 JUMP JUMPDEST PUSH1 0x40 MLOAD PUSH2 0x248 SWAP2 SWAP1 PUSH2 0x4733 JUMP JUMPDEST PUSH1 0x40 MLOAD DUP1 SWAP2 SUB SWAP1 RETURN JUMPDEST PUSH2 0x26B PUSH1 0x4 DUP1 CALLDATASIZE SUB DUP2 ADD SWAP1 PUSH2 0x266 SWAP2 SWAP1 PUSH2 0x428C JUMP JUMPDEST PUSH2 0x75F JUMP JUMPDEST PUSH1 0x40 MLOAD PUSH2 0x278 SWAP2 SWAP1 PUSH2 0x4733 JUMP JUMPDEST PUSH1 0x40 MLOAD DUP1 SWAP2 SUB SWAP1 RETURN JUMPDEST PUSH2 0x29B PUSH1 0x4 DUP1 CALLDATASIZE SUB DUP2 ADD SWAP1 PUSH2 0x296 SWAP2 SWAP1 PUSH2 0x414E JUMP JUMPDEST PUSH2 0x7A9 JUMP JUMPDEST PUSH1 0x40 MLOAD PUSH2 0x2A8 SWAP2 SWAP1 PUSH2 0x4792 JUMP JUMPDEST PUSH1 0x40 MLOAD DUP1 SWAP2 SUB SWAP1 RETURN JUMPDEST PUSH2 0x2CB PUSH1 0x4 DUP1 CALLDATASIZE SUB DUP2 ADD SWAP1 PUSH2 0x2C6 SWAP2 SWAP1 PUSH2 0x40AE JUMP JUMPDEST PUSH2 0x7C9 JUMP JUMPDEST STOP JUMPDEST PUSH2 0x2E7 PUSH1 0x4 DUP1 CALLDATASIZE SUB DUP2 ADD SWAP1 PUSH2 0x2E2 SWAP2 SWAP1 PUSH2 0x4177 JUMP JUMPDEST PUSH2 0x9B7 JUMP JUMPDEST STOP JUMPDEST PUSH2 0x303 PUSH1 0x4 DUP1 CALLDATASIZE SUB DUP2 ADD SWAP1 PUSH2 0x2FE SWAP2 SWAP1 PUSH2 0x414E JUMP JUMPDEST PUSH2 0xA41 JUMP JUMPDEST PUSH1 0x40 MLOAD PUSH2 0x310 SWAP2 SWAP1 PUSH2 0x4733 JUMP JUMPDEST PUSH1 0x40 MLOAD DUP1 SWAP2 SUB SWAP1 RETURN JUMPDEST PUSH2 0x333 PUSH1 0x4 DUP1 CALLDATASIZE SUB DUP2 ADD SWAP1 PUSH2 0x32E SWAP2 SWAP1 PUSH2 0x4177 JUMP JUMPDEST PUSH2 0xA74 JUMP JUMPDEST STOP JUMPDEST PUSH2 0x33D PUSH2 0xB0D JUMP JUMPDEST PUSH1 0x40 MLOAD PUSH2 0x34A SWAP2 SWAP1 PUSH2 0x4792 JUMP JUMPDEST PUSH1 0x40 MLOAD DUP1 SWAP2 SUB SWAP1 RETURN JUMPDEST PUSH2 0x35B PUSH2 0xB14 JUMP JUMPDEST PUSH1 0x40 MLOAD PUSH2 0x368 SWAP2 SWAP1 PUSH2 0x4A0F JUMP JUMPDEST PUSH1 0x40 MLOAD DUP1 SWAP2 SUB SWAP1 RETURN JUMPDEST PUSH2 0x379 PUSH2 0xB1A JUMP JUMPDEST PUSH1 0x40 MLOAD PUSH2 0x386 SWAP2 SWAP1 PUSH2 0x485B JUMP JUMPDEST PUSH1 0x40 MLOAD DUP1 SWAP2 SUB SWAP1 RETURN JUMPDEST PUSH2 0x3A9 PUSH1 0x4 DUP1 CALLDATASIZE SUB DUP2 ADD SWAP1 PUSH2 0x3A4 SWAP2 SWAP1 PUSH2 0x4049 JUMP JUMPDEST PUSH2 0xB57 JUMP JUMPDEST PUSH1 0x40 MLOAD PUSH2 0x3BB SWAP7 SWAP6 SWAP5 SWAP4 SWAP3 SWAP2 SWAP1 PUSH2 0x487D JUMP JUMPDEST PUSH1 0x40 MLOAD DUP1 SWAP2 SUB SWAP1 RETURN JUMPDEST PUSH2 0x3DE PUSH1 0x4 DUP1 CALLDATASIZE SUB DUP2 ADD SWAP1 PUSH2 0x3D9 SWAP2 SWAP1 PUSH2 0x414E JUMP JUMPDEST PUSH2 0xE92 JUMP JUMPDEST STOP JUMPDEST PUSH2 0x3FA PUSH1 0x4 DUP1 CALLDATASIZE SUB DUP2 ADD SWAP1 PUSH2 0x3F5 SWAP2 SWAP1 PUSH2 0x4049 JUMP JUMPDEST PUSH2 0xF0E JUMP JUMPDEST PUSH1 0x40 MLOAD PUSH2 0x407 SWAP2 SWAP1 PUSH2 0x4777 JUMP JUMPDEST PUSH1 0x40 MLOAD DUP1 SWAP2 SUB SWAP1 RETURN JUMPDEST PUSH2 0x42A PUSH1 0x4 DUP1 CALLDATASIZE SUB DUP2 ADD SWAP1 PUSH2 0x425 SWAP2 SWAP1 PUSH2 0x4072 JUMP JUMPDEST PUSH2 0xF67 JUMP JUMPDEST STOP JUMPDEST PUSH2 0x446 PUSH1 0x4 DUP1 CALLDATASIZE SUB DUP2 ADD SWAP1 PUSH2 0x441 SWAP2 SWAP1 PUSH2 0x4247 JUMP JUMPDEST PUSH2 0x1137 JUMP JUMPDEST PUSH1 0x40 MLOAD PUSH2 0x453 SWAP2 SWAP1 PUSH2 0x4792 JUMP JUMPDEST PUSH1 0x40 MLOAD DUP1 SWAP2 SUB SWAP1 RETURN JUMPDEST PUSH2 0x476 PUSH1 0x4 DUP1 CALLDATASIZE SUB DUP2 ADD SWAP1 PUSH2 0x471 SWAP2 SWAP1 PUSH2 0x414E JUMP JUMPDEST PUSH2 0x159C JUMP JUMPDEST PUSH1 0x40 MLOAD PUSH2 0x483 SWAP2 SWAP1 PUSH2 0x4733 JUMP JUMPDEST PUSH1 0x40 MLOAD DUP1 SWAP2 SUB SWAP1 RETURN JUMPDEST PUSH2 0x4A6 PUSH1 0x4 DUP1 CALLDATASIZE SUB DUP2 ADD SWAP1 PUSH2 0x4A1 SWAP2 SWAP1 PUSH2 0x428C JUMP JUMPDEST PUSH2 0x15CF JUMP JUMPDEST PUSH1 0x40 MLOAD PUSH2 0x4B3 SWAP2 SWAP1 PUSH2 0x4792 JUMP JUMPDEST PUSH1 0x40 MLOAD DUP1 SWAP2 SUB SWAP1 RETURN JUMPDEST PUSH2 0x4D6 PUSH1 0x4 DUP1 CALLDATASIZE SUB DUP2 ADD SWAP1 PUSH2 0x4D1 SWAP2 SWAP1 PUSH2 0x4049 JUMP JUMPDEST PUSH2 0x15FF JUMP JUMPDEST STOP JUMPDEST PUSH2 0x4E0 PUSH2 0x167D JUMP JUMPDEST PUSH1 0x40 MLOAD PUSH2 0x4ED SWAP2 SWAP1 PUSH2 0x4733 JUMP JUMPDEST PUSH1 0x40 MLOAD DUP1 SWAP2 SUB SWAP1 RETURN JUMPDEST PUSH2 0x4FE PUSH2 0x16A1 JUMP JUMPDEST PUSH1 0x40 MLOAD PUSH2 0x50B SWAP2 SWAP1 PUSH2 0x4733 JUMP JUMPDEST PUSH1 0x40 MLOAD DUP1 SWAP2 SUB SWAP1 RETURN JUMPDEST PUSH2 0x51C PUSH2 0x16C7 JUMP JUMPDEST STOP JUMPDEST PUSH2 0x538 PUSH1 0x4 DUP1 CALLDATASIZE SUB DUP2 ADD SWAP1 PUSH2 0x533 SWAP2 SWAP1 PUSH2 0x420B JUMP JUMPDEST PUSH2 0x1945 JUMP JUMPDEST PUSH1 0x40 MLOAD PUSH2 0x545 SWAP2 SWAP1 PUSH2 0x4733 JUMP JUMPDEST PUSH1 0x40 MLOAD DUP1 SWAP2 SUB SWAP1 RETURN JUMPDEST PUSH2 0x568 PUSH1 0x4 DUP1 CALLDATASIZE SUB DUP2 ADD SWAP1 PUSH2 0x563 SWAP2 SWAP1 PUSH2 0x4049 JUMP JUMPDEST PUSH2 0x1977 JUMP JUMPDEST STOP JUMPDEST PUSH2 0x584 PUSH1 0x4 DUP1 CALLDATASIZE SUB DUP2 ADD SWAP1 PUSH2 0x57F SWAP2 SWAP1 PUSH2 0x4177 JUMP JUMPDEST PUSH2 0x1B4D JUMP JUMPDEST PUSH1 0x40 MLOAD PUSH2 0x591 SWAP2 SWAP1 PUSH2 0x4777 JUMP JUMPDEST PUSH1 0x40 MLOAD DUP1 SWAP2 SUB SWAP1 RETURN JUMPDEST PUSH2 0x5A2 PUSH2 0x1B7F JUMP JUMPDEST PUSH1 0x40 MLOAD PUSH2 0x5AF SWAP2 SWAP1 PUSH2 0x4792 JUMP JUMPDEST PUSH1 0x40 MLOAD DUP1 SWAP2 SUB SWAP1 RETURN JUMPDEST PUSH2 0x5D2 PUSH1 0x4 DUP1 CALLDATASIZE SUB DUP2 ADD SWAP1 PUSH2 0x5CD SWAP2 SWAP1 PUSH2 0x4049 JUMP JUMPDEST PUSH2 0x1B86 JUMP JUMPDEST STOP JUMPDEST PUSH2 0x5DC PUSH2 0x1C04 JUMP JUMPDEST PUSH1 0x40 MLOAD PUSH2 0x5E9 SWAP2 SWAP1 PUSH2 0x4839 JUMP JUMPDEST PUSH1 0x40 MLOAD DUP1 SWAP2 SUB SWAP1 RETURN JUMPDEST PUSH2 0x60C PUSH1 0x4 DUP1 CALLDATASIZE SUB DUP2 ADD SWAP1 PUSH2 0x607 SWAP2 SWAP1 PUSH2 0x4049 JUMP JUMPDEST PUSH2 0x1D73 JUMP JUMPDEST STOP JUMPDEST PUSH2 0x616 PUSH2 0x1E76 JUMP JUMPDEST PUSH1 0x40 MLOAD PUSH2 0x623 SWAP2 SWAP1 PUSH2 0x4A0F JUMP JUMPDEST PUSH1 0x40 MLOAD DUP1 SWAP2 SUB SWAP1 RETURN JUMPDEST PUSH2 0x634 PUSH2 0x1F85 JUMP JUMPDEST PUSH1 0x40 MLOAD PUSH2 0x641 SWAP2 SWAP1 PUSH2 0x4792 JUMP JUMPDEST PUSH1 0x40 MLOAD DUP1 SWAP2 SUB SWAP1 RETURN JUMPDEST PUSH2 0x664 PUSH1 0x4 DUP1 CALLDATASIZE SUB DUP2 ADD SWAP1 PUSH2 0x65F SWAP2 SWAP1 PUSH2 0x41B3 JUMP JUMPDEST PUSH2 0x1F8B JUMP JUMPDEST STOP JUMPDEST PUSH2 0x680 PUSH1 0x4 DUP1 CALLDATASIZE SUB DUP2 ADD SWAP1 PUSH2 0x67B SWAP2 SWAP1 PUSH2 0x414E JUMP JUMPDEST PUSH2 0x22D4 JUMP JUMPDEST PUSH1 0x40 MLOAD PUSH2 0x68D SWAP2 SWAP1 PUSH2 0x4A0F JUMP JUMPDEST PUSH1 0x40 MLOAD DUP1 SWAP2 SUB SWAP1 RETURN JUMPDEST PUSH2 0x6B0 PUSH1 0x4 DUP1 CALLDATASIZE SUB DUP2 ADD SWAP1 PUSH2 0x6AB SWAP2 SWAP1 PUSH2 0x4177 JUMP JUMPDEST PUSH2 0x22FB JUMP JUMPDEST STOP JUMPDEST PUSH2 0x6BA PUSH2 0x2385 JUMP JUMPDEST PUSH1 0x40 MLOAD PUSH2 0x6C7 SWAP2 SWAP1 PUSH2 0x4A0F JUMP JUMPDEST PUSH1 0x40 MLOAD DUP1 SWAP2 SUB SWAP1 RETURN JUMPDEST PUSH2 0x6EA PUSH1 0x4 DUP1 CALLDATASIZE SUB DUP2 ADD SWAP1 PUSH2 0x6E5 SWAP2 SWAP1 PUSH2 0x4049 JUMP JUMPDEST PUSH2 0x238B JUMP JUMPDEST PUSH1 0x40 MLOAD PUSH2 0x6FB SWAP6 SWAP5 SWAP4 SWAP3 SWAP2 SWAP1 PUSH2 0x47AD JUMP JUMPDEST PUSH1 0x40 MLOAD DUP1 SWAP2 SUB SWAP1 RETURN JUMPDEST PUSH2 0x70C PUSH2 0x2596 JUMP JUMPDEST PUSH1 0x40 MLOAD PUSH2 0x719 SWAP2 SWAP1 PUSH2 0x4792 JUMP JUMPDEST PUSH1 0x40 MLOAD DUP1 SWAP2 SUB SWAP1 RETURN JUMPDEST PUSH1 0x0 PUSH1 0x8 PUSH1 0x0 DUP4 DUP2 MSTORE PUSH1 0x20 ADD SWAP1 DUP2 MSTORE PUSH1 0x20 ADD PUSH1 0x0 KECCAK256 PUSH1 0x0 SWAP1 SLOAD SWAP1 PUSH2 0x100 EXP SWAP1 DIV PUSH20 0xFFFFFFFFFFFFFFFFFFFFFFFFFFFFFFFFFFFFFFFF AND SWAP1 POP SWAP2 SWAP1 POP JUMP JUMPDEST PUSH1 0x0 DUP1 PUSH2 0x76B DUP4 PUSH2 0x15CF JUMP JUMPDEST SWAP1 POP PUSH1 0x7 PUSH1 0x0 DUP3 DUP2 MSTORE PUSH1 0x20 ADD SWAP1 DUP2 MSTORE PUSH1 0x20 ADD PUSH1 0x0 KECCAK256 PUSH1 0x0 SWAP1 SLOAD SWAP1 PUSH2 0x100 EXP SWAP1 DIV PUSH20 0xFFFFFFFFFFFFFFFFFFFFFFFFFFFFFFFFFFFFFFFF AND SWAP2 POP POP SWAP2 SWAP1 POP JUMP JUMPDEST PUSH1 0x0 PUSH1 0x41 PUSH1 0x0 DUP4 DUP2 MSTORE PUSH1 0x20 ADD SWAP1 DUP2 MSTORE PUSH1 0x20 ADD PUSH1 0x0 KECCAK256 PUSH1 0x2 ADD SLOAD SWAP1 POP SWAP2 SWAP1 POP JUMP JUMPDEST PUSH1 0x9 PUSH1 0x1 SWAP1 SLOAD SWAP1 PUSH2 0x100 EXP SWAP1 DIV PUSH1 0xFF AND DUP1 PUSH2 0x7E8 JUMPI POP PUSH2 0x7E7 PUSH2 0x25BA JUMP JUMPDEST JUMPDEST DUP1 PUSH2 0x800 JUMPI POP PUSH1 0x9 PUSH1 0x0 SWAP1 SLOAD SWAP1 PUSH2 0x100 EXP SWAP1 DIV PUSH1 0xFF AND ISZERO JUMPDEST PUSH2 0x855 JUMPI PUSH1 0x40 MLOAD PUSH32 0x8C379A000000000000000000000000000000000000000000000000000000000 DUP2 MSTORE PUSH1 0x4 ADD DUP1 DUP1 PUSH1 0x20 ADD DUP3 DUP2 SUB DUP3 MSTORE PUSH1 0x2E DUP2 MSTORE PUSH1 0x20 ADD DUP1 PUSH2 0x4CB9 PUSH1 0x2E SWAP2 CODECOPY PUSH1 0x40 ADD SWAP2 POP POP PUSH1 0x40 MLOAD DUP1 SWAP2 SUB SWAP1 REVERT JUMPDEST PUSH1 0x0 PUSH1 0x9 PUSH1 0x1 SWAP1 SLOAD SWAP1 PUSH2 0x100 EXP SWAP1 DIV PUSH1 0xFF AND ISZERO SWAP1 POP DUP1 ISZERO PUSH2 0x8A7 JUMPI PUSH1 0x1 PUSH1 0x9 PUSH1 0x1 PUSH2 0x100 EXP DUP2 SLOAD DUP2 PUSH1 0xFF MUL NOT AND SWAP1 DUP4 ISZERO ISZERO MUL OR SWAP1 SSTORE POP PUSH1 0x1 PUSH1 0x9 PUSH1 0x0 PUSH2 0x100 EXP DUP2 SLOAD DUP2 PUSH1 0xFF MUL NOT AND SWAP1 DUP4 ISZERO ISZERO MUL OR SWAP1 SSTORE POP JUMPDEST PUSH2 0x8B0 DUP4 PUSH2 0x25CB JUMP JUMPDEST PUSH2 0x8B9 DUP6 PUSH2 0x260F JUMP JUMPDEST DUP2 PUSH1 0x2 DUP2 SWAP1 SSTORE POP PUSH7 0x2386F26FC10000 PUSH1 0x3 DUP2 SWAP1 SSTORE POP PUSH2 0x384 TIMESTAMP ADD PUSH1 0x4 DUP2 SWAP1 SSTORE POP DUP4 PUSH1 0x0 DUP1 PUSH2 0x100 EXP DUP2 SLOAD DUP2 PUSH20 0xFFFFFFFFFFFFFFFFFFFFFFFFFFFFFFFFFFFFFFFF MUL NOT AND SWAP1 DUP4 PUSH20 0xFFFFFFFFFFFFFFFFFFFFFFFFFFFFFFFFFFFFFFFF AND MUL OR SWAP1 SSTORE POP PUSH2 0x921 PUSH2 0x2653 JUMP JUMPDEST PUSH2 0x929 PUSH2 0x2756 JUMP JUMPDEST PUSH2 0x936 PUSH1 0x0 DUP1 SHL DUP8 PUSH2 0x2859 JUMP JUMPDEST PUSH2 0x960 PUSH32 0x35A7846A2A701FFF6F9D61A46EBFF5DA578C5DCEE8BDF361C569F9EA4EE64771 DUP8 PUSH2 0x2859 JUMP JUMPDEST PUSH2 0x98D PUSH32 0x35A7846A2A701FFF6F9D61A46EBFF5DA578C5DCEE8BDF361C569F9EA4EE64771 PUSH1 0x0 DUP1 SHL PUSH2 0x2867 JUMP JUMPDEST DUP1 ISZERO PUSH2 0x9AF JUMPI PUSH1 0x0 PUSH1 0x9 PUSH1 0x1 PUSH2 0x100 EXP DUP2 SLOAD DUP2 PUSH1 0xFF MUL NOT AND SWAP1 DUP4 ISZERO ISZERO MUL OR SWAP1 SSTORE POP JUMPDEST POP POP POP POP POP POP JUMP JUMPDEST PUSH2 0x9DE PUSH1 0x41 PUSH1 0x0 DUP5 DUP2 MSTORE PUSH1 0x20 ADD SWAP1 DUP2 MSTORE PUSH1 0x20 ADD PUSH1 0x0 KECCAK256 PUSH1 0x2 ADD SLOAD PUSH2 0x9D9 PUSH2 0x28CB JUMP JUMPDEST PUSH2 0x1B4D JUMP JUMPDEST PUSH2 0xA33 JUMPI PUSH1 0x40 MLOAD PUSH32 0x8C379A000000000000000000000000000000000000000000000000000000000 DUP2 MSTORE PUSH1 0x4 ADD DUP1 DUP1 PUSH1 0x20 ADD DUP3 DUP2 SUB DUP3 MSTORE PUSH1 0x2F DUP2 MSTORE PUSH1 0x20 ADD DUP1 PUSH2 0x4C37 PUSH1 0x2F SWAP2 CODECOPY PUSH1 0x40 ADD SWAP2 POP POP PUSH1 0x40 MLOAD DUP1 SWAP2 SUB SWAP1 REVERT JUMPDEST PUSH2 0xA3D DUP3 DUP3 PUSH2 0x28DA JUMP JUMPDEST POP POP JUMP JUMPDEST PUSH1 0x7 PUSH1 0x20 MSTORE DUP1 PUSH1 0x0 MSTORE PUSH1 0x40 PUSH1 0x0 KECCAK256 PUSH1 0x0 SWAP2 POP SLOAD SWAP1 PUSH2 0x100 EXP SWAP1 DIV PUSH20 0xFFFFFFFFFFFFFFFFFFFFFFFFFFFFFFFFFFFFFFFF AND DUP2 JUMP JUMPDEST PUSH2 0xA7C PUSH2 0x28CB JUMP JUMPDEST PUSH20 0xFFFFFFFFFFFFFFFFFFFFFFFFFFFFFFFFFFFFFFFF AND DUP2 PUSH20 0xFFFFFFFFFFFFFFFFFFFFFFFFFFFFFFFFFFFFFFFF AND EQ PUSH2 0xAFF JUMPI PUSH1 0x40 MLOAD PUSH32 0x8C379A000000000000000000000000000000000000000000000000000000000 DUP2 MSTORE PUSH1 0x4 ADD DUP1 DUP1 PUSH1 0x20 ADD DUP3 DUP2 SUB DUP3 MSTORE PUSH1 0x2F DUP2 MSTORE PUSH1 0x20 ADD DUP1 PUSH2 0x4D0F PUSH1 0x2F SWAP2 CODECOPY PUSH1 0x40 ADD SWAP2 POP POP PUSH1 0x40 MLOAD DUP1 SWAP2 SUB SWAP1 REVERT JUMPDEST PUSH2 0xB09 DUP3 DUP3 PUSH2 0x296E JUMP JUMPDEST POP POP JUMP JUMPDEST PUSH1 0x0 DUP1 SHL DUP2 JUMP JUMPDEST PUSH1 0x4 SLOAD DUP2 JUMP JUMPDEST PUSH1 0x60 PUSH1 0x40 MLOAD DUP1 PUSH1 0x40 ADD PUSH1 0x40 MSTORE DUP1 PUSH1 0x1 DUP2 MSTORE PUSH1 0x20 ADD PUSH32 0x3100000000000000000000000000000000000000000000000000000000000000 DUP2 MSTORE POP SWAP1 POP SWAP1 JUMP JUMPDEST PUSH1 0x60 DUP1 PUSH1 0x60 DUP1 PUSH1 0x0 DUP1 PUSH1 0x0 PUSH1 0x5 PUSH1 0x0 DUP10 PUSH20 0xFFFFFFFFFFFFFFFFFFFFFFFFFFFFFFFFFFFFFFFF AND PUSH20 0xFFFFFFFFFFFFFFFFFFFFFFFFFFFFFFFFFFFFFFFF AND DUP2 MSTORE PUSH1 0x20 ADD SWAP1 DUP2 MSTORE PUSH1 0x20 ADD PUSH1 0x0 KECCAK256 PUSH1 0x40 MLOAD DUP1 PUSH1 0xA0 ADD PUSH1 0x40 MSTORE SWAP1 DUP2 PUSH1 0x0 DUP3 ADD SLOAD DUP2 MSTORE PUSH1 0x20 ADD PUSH1 0x1 DUP3 ADD DUP1 SLOAD PUSH1 0x1 DUP2 PUSH1 0x1 AND ISZERO PUSH2 0x100 MUL SUB AND PUSH1 0x2 SWAP1 DIV DUP1 PUSH1 0x1F ADD PUSH1 0x20 DUP1 SWAP2 DIV MUL PUSH1 0x20 ADD PUSH1 0x40 MLOAD SWAP1 DUP2 ADD PUSH1 0x40 MSTORE DUP1 SWAP3 SWAP2 SWAP1 DUP2 DUP2 MSTORE PUSH1 0x20 ADD DUP3 DUP1 SLOAD PUSH1 0x1 DUP2 PUSH1 0x1 AND ISZERO PUSH2 0x100 MUL SUB AND PUSH1 0x2 SWAP1 DIV DUP1 ISZERO PUSH2 0xC4F JUMPI DUP1 PUSH1 0x1F LT PUSH2 0xC24 JUMPI PUSH2 0x100 DUP1 DUP4 SLOAD DIV MUL DUP4 MSTORE SWAP2 PUSH1 0x20 ADD SWAP2 PUSH2 0xC4F JUMP JUMPDEST DUP3 ADD SWAP2 SWAP1 PUSH1 0x0 MSTORE PUSH1 0x20 PUSH1 0x0 KECCAK256 SWAP1 JUMPDEST DUP2 SLOAD DUP2 MSTORE SWAP1 PUSH1 0x1 ADD SWAP1 PUSH1 0x20 ADD DUP1 DUP4 GT PUSH2 0xC32 JUMPI DUP3 SWAP1 SUB PUSH1 0x1F AND DUP3 ADD SWAP2 JUMPDEST POP POP POP POP POP DUP2 MSTORE PUSH1 0x20 ADD PUSH1 0x2 DUP3 ADD DUP1 SLOAD PUSH1 0x1 DUP2 PUSH1 0x1 AND ISZERO PUSH2 0x100 MUL SUB AND PUSH1 0x2 SWAP1 DIV DUP1 PUSH1 0x1F ADD PUSH1 0x20 DUP1 SWAP2 DIV MUL PUSH1 0x20 ADD PUSH1 0x40 MLOAD SWAP1 DUP2 ADD PUSH1 0x40 MSTORE DUP1 SWAP3 SWAP2 SWAP1 DUP2 DUP2 MSTORE PUSH1 0x20 ADD DUP3 DUP1 SLOAD PUSH1 0x1 DUP2 PUSH1 0x1 AND ISZERO PUSH2 0x100 MUL SUB AND PUSH1 0x2 SWAP1 DIV DUP1 ISZERO PUSH2 0xCF1 JUMPI DUP1 PUSH1 0x1F LT PUSH2 0xCC6 JUMPI PUSH2 0x100 DUP1 DUP4 SLOAD DIV MUL DUP4 MSTORE SWAP2 PUSH1 0x20 ADD SWAP2 PUSH2 0xCF1 JUMP JUMPDEST DUP3 ADD SWAP2 SWAP1 PUSH1 0x0 MSTORE PUSH1 0x20 PUSH1 0x0 KECCAK256 SWAP1 JUMPDEST DUP2 SLOAD DUP2 MSTORE SWAP1 PUSH1 0x1 ADD SWAP1 PUSH1 0x20 ADD DUP1 DUP4 GT PUSH2 0xCD4 JUMPI DUP3 SWAP1 SUB PUSH1 0x1F AND DUP3 ADD SWAP2 JUMPDEST POP POP POP POP POP DUP2 MSTORE PUSH1 0x20 ADD PUSH1 0x3 DUP3 ADD PUSH1 0x0 SWAP1 SLOAD SWAP1 PUSH2 0x100 EXP SWAP1 DIV PUSH1 0xFF AND ISZERO ISZERO ISZERO ISZERO DUP2 MSTORE PUSH1 0x20 ADD PUSH1 0x4 DUP3 ADD DUP1 SLOAD PUSH1 0x1 DUP2 PUSH1 0x1 AND ISZERO PUSH2 0x100 MUL SUB AND PUSH1 0x2 SWAP1 DIV DUP1 PUSH1 0x1F ADD PUSH1 0x20 DUP1 SWAP2 DIV MUL PUSH1 0x20 ADD PUSH1 0x40 MLOAD SWAP1 DUP2 ADD PUSH1 0x40 MSTORE DUP1 SWAP3 SWAP2 SWAP1 DUP2 DUP2 MSTORE PUSH1 0x20 ADD DUP3 DUP1 SLOAD PUSH1 0x1 DUP2 PUSH1 0x1 AND ISZERO PUSH2 0x100 MUL SUB AND PUSH1 0x2 SWAP1 DIV DUP1 ISZERO PUSH2 0xDAE JUMPI DUP1 PUSH1 0x1F LT PUSH2 0xD83 JUMPI PUSH2 0x100 DUP1 DUP4 SLOAD DIV MUL DUP4 MSTORE SWAP2 PUSH1 0x20 ADD SWAP2 PUSH2 0xDAE JUMP JUMPDEST DUP3 ADD SWAP2 SWAP1 PUSH1 0x0 MSTORE PUSH1 0x20 PUSH1 0x0 KECCAK256 SWAP1 JUMPDEST DUP2 SLOAD DUP2 MSTORE SWAP1 PUSH1 0x1 ADD SWAP1 PUSH1 0x20 ADD DUP1 DUP4 GT PUSH2 0xD91 JUMPI DUP3 SWAP1 SUB PUSH1 0x1F AND DUP3 ADD SWAP2 JUMPDEST POP POP POP POP POP DUP2 MSTORE POP POP SWAP1 POP PUSH1 0x0 DUP2 PUSH1 0x80 ADD MLOAD MLOAD EQ ISZERO PUSH2 0xE02 JUMPI PUSH1 0x40 MLOAD PUSH32 0x8C379A000000000000000000000000000000000000000000000000000000000 DUP2 MSTORE PUSH1 0x4 ADD PUSH2 0xDF9 SWAP1 PUSH2 0x498F JUMP JUMPDEST PUSH1 0x40 MLOAD DUP1 SWAP2 SUB SWAP1 REVERT JUMPDEST PUSH2 0xE0F DUP2 PUSH1 0x0 ADD MLOAD PUSH2 0x2A02 JUMP JUMPDEST PUSH2 0xE4E JUMPI PUSH1 0x40 MLOAD PUSH32 0x8C379A000000000000000000000000000000000000000000000000000000000 DUP2 MSTORE PUSH1 0x4 ADD PUSH2 0xE45 SWAP1 PUSH2 0x49CF JUMP JUMPDEST PUSH1 0x40 MLOAD DUP1 SWAP2 SUB SWAP1 REVERT JUMPDEST PUSH1 0x0 DUP1 PUSH1 0x0 DUP1 PUSH2 0xE61 DUP6 PUSH1 0x80 ADD MLOAD PUSH2 0x2AE4 JUMP JUMPDEST SWAP5 POP SWAP5 POP SWAP5 POP SWAP5 POP POP DUP5 PUSH1 0x20 ADD MLOAD DUP6 PUSH1 0x40 ADD MLOAD DUP6 DUP6 DUP6 DUP6 SWAP11 POP SWAP11 POP SWAP11 POP SWAP11 POP SWAP11 POP SWAP11 POP POP POP POP POP POP SWAP2 SWAP4 SWAP6 POP SWAP2 SWAP4 SWAP6 JUMP JUMPDEST PUSH32 0x35A7846A2A701FFF6F9D61A46EBFF5DA578C5DCEE8BDF361C569F9EA4EE64771 PUSH2 0xEC4 DUP2 PUSH2 0xEBF PUSH2 0x28CB JUMP JUMPDEST PUSH2 0x1B4D JUMP JUMPDEST PUSH2 0xF03 JUMPI PUSH1 0x40 MLOAD PUSH32 0x8C379A000000000000000000000000000000000000000000000000000000000 DUP2 MSTORE PUSH1 0x4 ADD PUSH2 0xEFA SWAP1 PUSH2 0x496F JUMP JUMPDEST PUSH1 0x40 MLOAD DUP1 SWAP2 SUB SWAP1 REVERT JUMPDEST DUP2 PUSH1 0x2 DUP2 SWAP1 SSTORE POP POP POP JUMP JUMPDEST PUSH1 0x0 DUP1 PUSH1 0x0 SWAP1 SLOAD SWAP1 PUSH2 0x100 EXP SWAP1 DIV PUSH20 0xFFFFFFFFFFFFFFFFFFFFFFFFFFFFFFFFFFFFFFFF AND PUSH20 0xFFFFFFFFFFFFFFFFFFFFFFFFFFFFFFFFFFFFFFFF AND DUP3 PUSH20 0xFFFFFFFFFFFFFFFFFFFFFFFFFFFFFFFFFFFFFFFF AND EQ SWAP1 POP SWAP2 SWAP1 POP JUMP JUMPDEST PUSH32 0x35A7846A2A701FFF6F9D61A46EBFF5DA578C5DCEE8BDF361C569F9EA4EE64771 PUSH2 0xF99 DUP2 PUSH2 0xF94 PUSH2 0x28CB JUMP JUMPDEST PUSH2 0x1B4D JUMP JUMPDEST PUSH2 0xFD8 JUMPI PUSH1 0x40 MLOAD PUSH32 0x8C379A000000000000000000000000000000000000000000000000000000000 DUP2 MSTORE PUSH1 0x4 ADD PUSH2 0xFCF SWAP1 PUSH2 0x496F JUMP JUMPDEST PUSH1 0x40 MLOAD DUP1 SWAP2 SUB SWAP1 REVERT JUMPDEST PUSH1 0x0 DUP4 SWAP1 POP DUP1 PUSH20 0xFFFFFFFFFFFFFFFFFFFFFFFFFFFFFFFFFFFFFFFF AND PUSH4 0xA9059CBB DUP5 DUP4 PUSH20 0xFFFFFFFFFFFFFFFFFFFFFFFFFFFFFFFFFFFFFFFF AND PUSH4 0x70A08231 ADDRESS PUSH1 0x40 MLOAD DUP3 PUSH4 0xFFFFFFFF AND PUSH1 0xE0 SHL DUP2 MSTORE PUSH1 0x4 ADD PUSH2 0x1033 SWAP2 SWAP1 PUSH2 0x4733 JUMP JUMPDEST PUSH1 0x20 PUSH1 0x40 MLOAD DUP1 DUP4 SUB DUP2 DUP7 DUP1 EXTCODESIZE ISZERO DUP1 ISZERO PUSH2 0x104B JUMPI PUSH1 0x0 DUP1 REVERT JUMPDEST POP GAS STATICCALL ISZERO DUP1 ISZERO PUSH2 0x105F JUMPI RETURNDATASIZE PUSH1 0x0 DUP1 RETURNDATACOPY RETURNDATASIZE PUSH1 0x0 REVERT JUMPDEST POP POP POP POP PUSH1 0x40 MLOAD RETURNDATASIZE PUSH1 0x1F NOT PUSH1 0x1F DUP3 ADD AND DUP3 ADD DUP1 PUSH1 0x40 MSTORE POP DUP2 ADD SWAP1 PUSH2 0x1083 SWAP2 SWAP1 PUSH2 0x43B5 JUMP JUMPDEST PUSH1 0x40 MLOAD DUP4 PUSH4 0xFFFFFFFF AND PUSH1 0xE0 SHL DUP2 MSTORE PUSH1 0x4 ADD PUSH2 0x10A0 SWAP3 SWAP2 SWAP1 PUSH2 0x474E JUMP JUMPDEST PUSH1 0x20 PUSH1 0x40 MLOAD DUP1 DUP4 SUB DUP2 PUSH1 0x0 DUP8 DUP1 EXTCODESIZE ISZERO DUP1 ISZERO PUSH2 0x10BA JUMPI PUSH1 0x0 DUP1 REVERT JUMPDEST POP GAS CALL ISZERO DUP1 ISZERO PUSH2 0x10CE JUMPI RETURNDATASIZE PUSH1 0x0 DUP1 RETURNDATACOPY RETURNDATASIZE PUSH1 0x0 REVERT JUMPDEST POP POP POP POP PUSH1 0x40 MLOAD RETURNDATASIZE PUSH1 0x1F NOT PUSH1 0x1F DUP3 ADD AND DUP3 ADD DUP1 PUSH1 0x40 MSTORE POP DUP2 ADD SWAP1 PUSH2 0x10F2 SWAP2 SWAP1 PUSH2 0x4125 JUMP JUMPDEST PUSH2 0x1131 JUMPI PUSH1 0x40 MLOAD PUSH32 0x8C379A000000000000000000000000000000000000000000000000000000000 DUP2 MSTORE PUSH1 0x4 ADD PUSH2 0x1128 SWAP1 PUSH2 0x49EF JUMP JUMPDEST PUSH1 0x40 MLOAD DUP1 SWAP2 SUB SWAP1 REVERT JUMPDEST POP POP POP POP JUMP JUMPDEST PUSH1 0x0 DUP1 ISZERO ISZERO PUSH1 0x5 PUSH1 0x0 PUSH2 0x1148 PUSH2 0x28CB JUMP JUMPDEST PUSH20 0xFFFFFFFFFFFFFFFFFFFFFFFFFFFFFFFFFFFFFFFF AND PUSH20 0xFFFFFFFFFFFFFFFFFFFFFFFFFFFFFFFFFFFFFFFF AND DUP2 MSTORE PUSH1 0x20 ADD SWAP1 DUP2 MSTORE PUSH1 0x20 ADD PUSH1 0x0 KECCAK256 PUSH1 0x3 ADD PUSH1 0x0 SWAP1 SLOAD SWAP1 PUSH2 0x100 EXP SWAP1 DIV PUSH1 0xFF AND ISZERO ISZERO EQ PUSH2 0x11D5 JUMPI PUSH1 0x40 MLOAD PUSH32 0x8C379A000000000000000000000000000000000000000000000000000000000 DUP2 MSTORE PUSH1 0x4 ADD PUSH2 0x11CC SWAP1 PUSH2 0x494F JUMP JUMPDEST PUSH1 0x40 MLOAD DUP1 SWAP2 SUB SWAP1 REVERT JUMPDEST DUP3 DUP3 DUP1 DUP1 PUSH1 0x1F ADD PUSH1 0x20 DUP1 SWAP2 DIV MUL PUSH1 0x20 ADD PUSH1 0x40 MLOAD SWAP1 DUP2 ADD PUSH1 0x40 MSTORE DUP1 SWAP4 SWAP3 SWAP2 SWAP1 DUP2 DUP2 MSTORE PUSH1 0x20 ADD DUP4 DUP4 DUP1 DUP3 DUP5 CALLDATACOPY PUSH1 0x0 DUP2 DUP5 ADD MSTORE PUSH1 0x1F NOT PUSH1 0x1F DUP3 ADD AND SWAP1 POP DUP1 DUP4 ADD SWAP3 POP POP POP POP POP POP POP PUSH1 0x0 PUSH2 0x1225 DUP3 PUSH2 0x2B2F JUMP JUMPDEST SWAP1 POP PUSH1 0x0 PUSH2 0x1232 DUP3 PUSH2 0x15CF JUMP JUMPDEST SWAP1 POP PUSH1 0x0 PUSH20 0xFFFFFFFFFFFFFFFFFFFFFFFFFFFFFFFFFFFFFFFF AND PUSH1 0x7 PUSH1 0x0 DUP4 DUP2 MSTORE PUSH1 0x20 ADD SWAP1 DUP2 MSTORE PUSH1 0x20 ADD PUSH1 0x0 KECCAK256 PUSH1 0x0 SWAP1 SLOAD SWAP1 PUSH2 0x100 EXP SWAP1 DIV PUSH20 0xFFFFFFFFFFFFFFFFFFFFFFFFFFFFFFFFFFFFFFFF AND PUSH20 0xFFFFFFFFFFFFFFFFFFFFFFFFFFFFFFFFFFFFFFFF AND EQ PUSH2 0x12D6 JUMPI PUSH1 0x40 MLOAD PUSH32 0x8C379A000000000000000000000000000000000000000000000000000000000 DUP2 MSTORE PUSH1 0x4 ADD PUSH2 0x12CD SWAP1 PUSH2 0x49AF JUMP JUMPDEST PUSH1 0x40 MLOAD DUP1 SWAP2 SUB SWAP1 REVERT JUMPDEST PUSH1 0x0 PUSH2 0x12EC PUSH1 0x2 SLOAD ADDRESS PUSH4 0xC2FB8523 PUSH1 0xE0 SHL PUSH2 0x2BB3 JUMP JUMPDEST SWAP1 POP PUSH1 0x0 PUSH2 0x133D DUP9 DUP9 DUP1 DUP1 PUSH1 0x1F ADD PUSH1 0x20 DUP1 SWAP2 DIV MUL PUSH1 0x20 ADD PUSH1 0x40 MLOAD SWAP1 DUP2 ADD PUSH1 0x40 MSTORE DUP1 SWAP4 SWAP3 SWAP2 SWAP1 DUP2 DUP2 MSTORE PUSH1 0x20 ADD DUP4 DUP4 DUP1 DUP3 DUP5 CALLDATACOPY PUSH1 0x0 DUP2 DUP5 ADD MSTORE PUSH1 0x1F NOT PUSH1 0x1F DUP3 ADD AND SWAP1 POP DUP1 DUP4 ADD SWAP3 POP POP POP POP POP POP POP PUSH2 0x2B2F JUMP JUMPDEST SWAP1 POP PUSH2 0x1389 PUSH1 0x40 MLOAD DUP1 PUSH1 0x40 ADD PUSH1 0x40 MSTORE DUP1 PUSH1 0x10 DUP2 MSTORE PUSH1 0x20 ADD PUSH32 0x747769747465725F757365726E616D6500000000000000000000000000000000 DUP2 MSTORE POP DUP3 DUP5 PUSH2 0x2BE4 SWAP1 SWAP3 SWAP2 SWAP1 PUSH4 0xFFFFFFFF AND JUMP JUMPDEST PUSH2 0x13F9 PUSH1 0x40 MLOAD DUP1 PUSH1 0x40 ADD PUSH1 0x40 MSTORE DUP1 PUSH1 0xD DUP2 MSTORE PUSH1 0x20 ADD PUSH32 0x616464726573735F627974657300000000000000000000000000000000000000 DUP2 MSTORE POP PUSH2 0x13CA PUSH2 0x28CB JUMP JUMPDEST PUSH1 0x40 MLOAD PUSH1 0x20 ADD PUSH2 0x13DA SWAP2 SWAP1 PUSH2 0x4701 JUMP JUMPDEST PUSH1 0x40 MLOAD PUSH1 0x20 DUP2 DUP4 SUB SUB DUP2 MSTORE SWAP1 PUSH1 0x40 MSTORE DUP5 PUSH2 0x2C17 SWAP1 SWAP3 SWAP2 SWAP1 PUSH4 0xFFFFFFFF AND JUMP JUMPDEST PUSH2 0x1478 PUSH1 0x40 MLOAD DUP1 PUSH1 0x40 ADD PUSH1 0x40 MSTORE DUP1 PUSH1 0x4 DUP2 MSTORE PUSH1 0x20 ADD PUSH32 0x7061746800000000000000000000000000000000000000000000000000000000 DUP2 MSTORE POP PUSH1 0x40 MLOAD DUP1 PUSH1 0x40 ADD PUSH1 0x40 MSTORE DUP1 PUSH1 0x6 DUP2 MSTORE PUSH1 0x20 ADD PUSH32 0x726573756C740000000000000000000000000000000000000000000000000000 DUP2 MSTORE POP DUP5 PUSH2 0x2BE4 SWAP1 SWAP3 SWAP2 SWAP1 PUSH4 0xFFFFFFFF AND JUMP JUMPDEST PUSH1 0x0 PUSH2 0x1486 DUP4 PUSH1 0x3 SLOAD PUSH2 0x2C4A JUMP JUMPDEST SWAP1 POP DUP1 PUSH1 0x5 PUSH1 0x0 PUSH2 0x1495 PUSH2 0x28CB JUMP JUMPDEST PUSH20 0xFFFFFFFFFFFFFFFFFFFFFFFFFFFFFFFFFFFFFFFF AND PUSH20 0xFFFFFFFFFFFFFFFFFFFFFFFFFFFFFFFFFFFFFFFF AND DUP2 MSTORE PUSH1 0x20 ADD SWAP1 DUP2 MSTORE PUSH1 0x20 ADD PUSH1 0x0 KECCAK256 PUSH1 0x0 ADD DUP2 SWAP1 SSTORE POP DUP2 PUSH1 0x5 PUSH1 0x0 PUSH2 0x14E3 PUSH2 0x28CB JUMP JUMPDEST PUSH20 0xFFFFFFFFFFFFFFFFFFFFFFFFFFFFFFFFFFFFFFFF AND PUSH20 0xFFFFFFFFFFFFFFFFFFFFFFFFFFFFFFFFFFFFFFFF AND DUP2 MSTORE PUSH1 0x20 ADD SWAP1 DUP2 MSTORE PUSH1 0x20 ADD PUSH1 0x0 KECCAK256 PUSH1 0x1 ADD SWAP1 DUP1 MLOAD SWAP1 PUSH1 0x20 ADD SWAP1 PUSH2 0x1533 SWAP3 SWAP2 SWAP1 PUSH2 0x3C2C JUMP JUMPDEST POP PUSH2 0x153C PUSH2 0x28CB JUMP JUMPDEST PUSH1 0x6 PUSH1 0x0 DUP4 DUP2 MSTORE PUSH1 0x20 ADD SWAP1 DUP2 MSTORE PUSH1 0x20 ADD PUSH1 0x0 KECCAK256 PUSH1 0x0 PUSH2 0x100 EXP DUP2 SLOAD DUP2 PUSH20 0xFFFFFFFFFFFFFFFFFFFFFFFFFFFFFFFFFFFFFFFF MUL NOT AND SWAP1 DUP4 PUSH20 0xFFFFFFFFFFFFFFFFFFFFFFFFFFFFFFFFFFFFFFFF AND MUL OR SWAP1 SSTORE POP DUP1 SWAP7 POP POP POP POP POP POP POP SWAP3 SWAP2 POP POP JUMP JUMPDEST PUSH1 0x6 PUSH1 0x20 MSTORE DUP1 PUSH1 0x0 MSTORE PUSH1 0x40 PUSH1 0x0 KECCAK256 PUSH1 0x0 SWAP2 POP SLOAD SWAP1 PUSH2 0x100 EXP SWAP1 DIV PUSH20 0xFFFFFFFFFFFFFFFFFFFFFFFFFFFFFFFFFFFFFFFF AND DUP2 JUMP JUMPDEST PUSH1 0x0 DUP2 PUSH1 0x40 MLOAD PUSH1 0x20 ADD PUSH2 0x15E2 SWAP2 SWAP1 PUSH2 0x471C JUMP JUMPDEST PUSH1 0x40 MLOAD PUSH1 0x20 DUP2 DUP4 SUB SUB DUP2 MSTORE SWAP1 PUSH1 0x40 MSTORE DUP1 MLOAD SWAP1 PUSH1 0x20 ADD KECCAK256 SWAP1 POP SWAP2 SWAP1 POP JUMP JUMPDEST PUSH32 0x35A7846A2A701FFF6F9D61A46EBFF5DA578C5DCEE8BDF361C569F9EA4EE64771 PUSH2 0x1631 DUP2 PUSH2 0x162C PUSH2 0x28CB JUMP JUMPDEST PUSH2 0x1B4D JUMP JUMPDEST PUSH2 0x1670 JUMPI PUSH1 0x40 MLOAD PUSH32 0x8C379A000000000000000000000000000000000000000000000000000000000 DUP2 MSTORE PUSH1 0x4 ADD PUSH2 0x1667 SWAP1 PUSH2 0x496F JUMP JUMPDEST PUSH1 0x40 MLOAD DUP1 SWAP2 SUB SWAP1 REVERT JUMPDEST PUSH2 0x1679 DUP3 PUSH2 0x260F JUMP JUMPDEST POP POP JUMP JUMPDEST PUSH1 0x0 DUP1 SLOAD SWAP1 PUSH2 0x100 EXP SWAP1 DIV PUSH20 0xFFFFFFFFFFFFFFFFFFFFFFFFFFFFFFFFFFFFFFFF AND DUP2 JUMP JUMPDEST PUSH1 0x1 PUSH1 0x0 SWAP1 SLOAD SWAP1 PUSH2 0x100 EXP SWAP1 DIV PUSH20 0xFFFFFFFFFFFFFFFFFFFFFFFFFFFFFFFFFFFFFFFF AND DUP2 JUMP JUMPDEST PUSH1 0x0 PUSH1 0x5 PUSH1 0x0 PUSH2 0x16D5 PUSH2 0x28CB JUMP JUMPDEST PUSH20 0xFFFFFFFFFFFFFFFFFFFFFFFFFFFFFFFFFFFFFFFF AND PUSH20 0xFFFFFFFFFFFFFFFFFFFFFFFFFFFFFFFFFFFFFFFF AND DUP2 MSTORE PUSH1 0x20 ADD SWAP1 DUP2 MSTORE PUSH1 0x20 ADD PUSH1 0x0 KECCAK256 PUSH1 0x40 MLOAD DUP1 PUSH1 0xA0 ADD PUSH1 0x40 MSTORE SWAP1 DUP2 PUSH1 0x0 DUP3 ADD SLOAD DUP2 MSTORE PUSH1 0x20 ADD PUSH1 0x1 DUP3 ADD DUP1 SLOAD PUSH1 0x1 DUP2 PUSH1 0x1 AND ISZERO PUSH2 0x100 MUL SUB AND PUSH1 0x2 SWAP1 DIV DUP1 PUSH1 0x1F ADD PUSH1 0x20 DUP1 SWAP2 DIV MUL PUSH1 0x20 ADD PUSH1 0x40 MLOAD SWAP1 DUP2 ADD PUSH1 0x40 MSTORE DUP1 SWAP3 SWAP2 SWAP1 DUP2 DUP2 MSTORE PUSH1 0x20 ADD DUP3 DUP1 SLOAD PUSH1 0x1 DUP2 PUSH1 0x1 AND ISZERO PUSH2 0x100 MUL SUB AND PUSH1 0x2 SWAP1 DIV DUP1 ISZERO PUSH2 0x17BD JUMPI DUP1 PUSH1 0x1F LT PUSH2 0x1792 JUMPI PUSH2 0x100 DUP1 DUP4 SLOAD DIV MUL DUP4 MSTORE SWAP2 PUSH1 0x20 ADD SWAP2 PUSH2 0x17BD JUMP JUMPDEST DUP3 ADD SWAP2 SWAP1 PUSH1 0x0 MSTORE PUSH1 0x20 PUSH1 0x0 KECCAK256 SWAP1 JUMPDEST DUP2 SLOAD DUP2 MSTORE SWAP1 PUSH1 0x1 ADD SWAP1 PUSH1 0x20 ADD DUP1 DUP4 GT PUSH2 0x17A0 JUMPI DUP3 SWAP1 SUB PUSH1 0x1F AND DUP3 ADD SWAP2 JUMPDEST POP POP POP POP POP DUP2 MSTORE PUSH1 0x20 ADD PUSH1 0x2 DUP3 ADD DUP1 SLOAD PUSH1 0x1 DUP2 PUSH1 0x1 AND ISZERO PUSH2 0x100 MUL SUB AND PUSH1 0x2 SWAP1 DIV DUP1 PUSH1 0x1F ADD PUSH1 0x20 DUP1 SWAP2 DIV MUL PUSH1 0x20 ADD PUSH1 0x40 MLOAD SWAP1 DUP2 ADD PUSH1 0x40 MSTORE DUP1 SWAP3 SWAP2 SWAP1 DUP2 DUP2 MSTORE PUSH1 0x20 ADD DUP3 DUP1 SLOAD PUSH1 0x1 DUP2 PUSH1 0x1 AND ISZERO PUSH2 0x100 MUL SUB AND PUSH1 0x2 SWAP1 DIV DUP1 ISZERO PUSH2 0x185F JUMPI DUP1 PUSH1 0x1F LT PUSH2 0x1834 JUMPI PUSH2 0x100 DUP1 DUP4 SLOAD DIV MUL DUP4 MSTORE SWAP2 PUSH1 0x20 ADD SWAP2 PUSH2 0x185F JUMP JUMPDEST DUP3 ADD SWAP2 SWAP1 PUSH1 0x0 MSTORE PUSH1 0x20 PUSH1 0x0 KECCAK256 SWAP1 JUMPDEST DUP2 SLOAD DUP2 MSTORE SWAP1 PUSH1 0x1 ADD SWAP1 PUSH1 0x20 ADD DUP1 DUP4 GT PUSH2 0x1842 JUMPI DUP3 SWAP1 SUB PUSH1 0x1F AND DUP3 ADD SWAP2 JUMPDEST POP POP POP POP POP DUP2 MSTORE PUSH1 0x20 ADD PUSH1 0x3 DUP3 ADD PUSH1 0x0 SWAP1 SLOAD SWAP1 PUSH2 0x100 EXP SWAP1 DIV PUSH1 0xFF AND ISZERO ISZERO ISZERO ISZERO DUP2 MSTORE PUSH1 0x20 ADD PUSH1 0x4 DUP3 ADD DUP1 SLOAD PUSH1 0x1 DUP2 PUSH1 0x1 AND ISZERO PUSH2 0x100 MUL SUB AND PUSH1 0x2 SWAP1 DIV DUP1 PUSH1 0x1F ADD PUSH1 0x20 DUP1 SWAP2 DIV MUL PUSH1 0x20 ADD PUSH1 0x40 MLOAD SWAP1 DUP2 ADD PUSH1 0x40 MSTORE DUP1 SWAP3 SWAP2 SWAP1 DUP2 DUP2 MSTORE PUSH1 0x20 ADD DUP3 DUP1 SLOAD PUSH1 0x1 DUP2 PUSH1 0x1 AND ISZERO PUSH2 0x100 MUL SUB AND PUSH1 0x2 SWAP1 DIV DUP1 ISZERO PUSH2 0x191C JUMPI DUP1 PUSH1 0x1F LT PUSH2 0x18F1 JUMPI PUSH2 0x100 DUP1 DUP4 SLOAD DIV MUL DUP4 MSTORE SWAP2 PUSH1 0x20 ADD SWAP2 PUSH2 0x191C JUMP JUMPDEST DUP3 ADD SWAP2 SWAP1 PUSH1 0x0 MSTORE PUSH1 0x20 PUSH1 0x0 KECCAK256 SWAP1 JUMPDEST DUP2 SLOAD DUP2 MSTORE SWAP1 PUSH1 0x1 ADD SWAP1 PUSH1 0x20 ADD DUP1 DUP4 GT PUSH2 0x18FF JUMPI DUP3 SWAP1 SUB PUSH1 0x1F AND DUP3 ADD SWAP2 JUMPDEST POP POP POP POP POP DUP2 MSTORE POP POP SWAP1 POP PUSH2 0x1942 DUP2 PUSH1 0x0 ADD MLOAD PUSH1 0x3 SLOAD PUSH4 0xC2FB8523 PUSH1 0xE0 SHL PUSH1 0x4 SLOAD PUSH2 0x2C81 JUMP JUMPDEST POP JUMP JUMPDEST PUSH1 0x0 PUSH2 0x196F DUP3 PUSH1 0x41 PUSH1 0x0 DUP7 DUP2 MSTORE PUSH1 0x20 ADD SWAP1 DUP2 MSTORE PUSH1 0x20 ADD PUSH1 0x0 KECCAK256 PUSH1 0x0 ADD PUSH2 0x2DC5 SWAP1 SWAP2 SWAP1 PUSH4 0xFFFFFFFF AND JUMP JUMPDEST SWAP1 POP SWAP3 SWAP2 POP POP JUMP JUMPDEST PUSH32 0x35A7846A2A701FFF6F9D61A46EBFF5DA578C5DCEE8BDF361C569F9EA4EE64771 PUSH2 0x19A9 DUP2 PUSH2 0x19A4 PUSH2 0x28CB JUMP JUMPDEST PUSH2 0x1B4D JUMP JUMPDEST PUSH2 0x19E8 JUMPI PUSH1 0x40 MLOAD PUSH32 0x8C379A000000000000000000000000000000000000000000000000000000000 DUP2 MSTORE PUSH1 0x4 ADD PUSH2 0x19DF SWAP1 PUSH2 0x496F JUMP JUMPDEST PUSH1 0x40 MLOAD DUP1 SWAP2 SUB SWAP1 REVERT JUMPDEST PUSH1 0x0 PUSH2 0x19F2 PUSH2 0x2DDF JUMP JUMPDEST SWAP1 POP DUP1 PUSH20 0xFFFFFFFFFFFFFFFFFFFFFFFFFFFFFFFFFFFFFFFF AND PUSH4 0xA9059CBB DUP5 DUP4 PUSH20 0xFFFFFFFFFFFFFFFFFFFFFFFFFFFFFFFFFFFFFFFF AND PUSH4 0x70A08231 ADDRESS PUSH1 0x40 MLOAD DUP3 PUSH4 0xFFFFFFFF AND PUSH1 0xE0 SHL DUP2 MSTORE PUSH1 0x4 ADD PUSH2 0x1A4A SWAP2 SWAP1 PUSH2 0x4733 JUMP JUMPDEST PUSH1 0x20 PUSH1 0x40 MLOAD DUP1 DUP4 SUB DUP2 DUP7 DUP1 EXTCODESIZE ISZERO DUP1 ISZERO PUSH2 0x1A62 JUMPI PUSH1 0x0 DUP1 REVERT JUMPDEST POP GAS STATICCALL ISZERO DUP1 ISZERO PUSH2 0x1A76 JUMPI RETURNDATASIZE PUSH1 0x0 DUP1 RETURNDATACOPY RETURNDATASIZE PUSH1 0x0 REVERT JUMPDEST POP POP POP POP PUSH1 0x40 MLOAD RETURNDATASIZE PUSH1 0x1F NOT PUSH1 0x1F DUP3 ADD AND DUP3 ADD DUP1 PUSH1 0x40 MSTORE POP DUP2 ADD SWAP1 PUSH2 0x1A9A SWAP2 SWAP1 PUSH2 0x43B5 JUMP JUMPDEST PUSH1 0x40 MLOAD DUP4 PUSH4 0xFFFFFFFF AND PUSH1 0xE0 SHL DUP2 MSTORE PUSH1 0x4 ADD PUSH2 0x1AB7 SWAP3 SWAP2 SWAP1 PUSH2 0x474E JUMP JUMPDEST PUSH1 0x20 PUSH1 0x40 MLOAD DUP1 DUP4 SUB DUP2 PUSH1 0x0 DUP8 DUP1 EXTCODESIZE ISZERO DUP1 ISZERO PUSH2 0x1AD1 JUMPI PUSH1 0x0 DUP1 REVERT JUMPDEST POP GAS CALL ISZERO DUP1 ISZERO PUSH2 0x1AE5 JUMPI RETURNDATASIZE PUSH1 0x0 DUP1 RETURNDATACOPY RETURNDATASIZE PUSH1 0x0 REVERT JUMPDEST POP POP POP POP PUSH1 0x40 MLOAD RETURNDATASIZE PUSH1 0x1F NOT PUSH1 0x1F DUP3 ADD AND DUP3 ADD DUP1 PUSH1 0x40 MSTORE POP DUP2 ADD SWAP1 PUSH2 0x1B09 SWAP2 SWAP1 PUSH2 0x4125 JUMP JUMPDEST PUSH2 0x1B48 JUMPI PUSH1 0x40 MLOAD PUSH32 0x8C379A000000000000000000000000000000000000000000000000000000000 DUP2 MSTORE PUSH1 0x4 ADD PUSH2 0x1B3F SWAP1 PUSH2 0x49EF JUMP JUMPDEST PUSH1 0x40 MLOAD DUP1 SWAP2 SUB SWAP1 REVERT JUMPDEST POP POP POP JUMP JUMPDEST PUSH1 0x0 PUSH2 0x1B77 DUP3 PUSH1 0x41 PUSH1 0x0 DUP7 DUP2 MSTORE PUSH1 0x20 ADD SWAP1 DUP2 MSTORE PUSH1 0x20 ADD PUSH1 0x0 KECCAK256 PUSH1 0x0 ADD PUSH2 0x2E09 SWAP1 SWAP2 SWAP1 PUSH4 0xFFFFFFFF AND JUMP JUMPDEST SWAP1 POP SWAP3 SWAP2 POP POP JUMP JUMPDEST PUSH1 0x0 DUP1 SHL DUP2 JUMP JUMPDEST PUSH32 0x35A7846A2A701FFF6F9D61A46EBFF5DA578C5DCEE8BDF361C569F9EA4EE64771 PUSH2 0x1BB8 DUP2 PUSH2 0x1BB3 PUSH2 0x28CB JUMP JUMPDEST PUSH2 0x1B4D JUMP JUMPDEST PUSH2 0x1BF7 JUMPI PUSH1 0x40 MLOAD PUSH32 0x8C379A000000000000000000000000000000000000000000000000000000000 DUP2 MSTORE PUSH1 0x4 ADD PUSH2 0x1BEE SWAP1 PUSH2 0x496F JUMP JUMPDEST PUSH1 0x40 MLOAD DUP1 SWAP2 SUB SWAP1 REVERT JUMPDEST PUSH2 0x1C00 DUP3 PUSH2 0x25CB JUMP JUMPDEST POP POP JUMP JUMPDEST PUSH1 0x60 PUSH1 0x0 PUSH1 0x5 PUSH1 0x0 PUSH2 0x1C14 PUSH2 0x28CB JUMP JUMPDEST PUSH20 0xFFFFFFFFFFFFFFFFFFFFFFFFFFFFFFFFFFFFFFFF AND PUSH20 0xFFFFFFFFFFFFFFFFFFFFFFFFFFFFFFFFFFFFFFFF AND DUP2 MSTORE PUSH1 0x20 ADD SWAP1 DUP2 MSTORE PUSH1 0x20 ADD PUSH1 0x0 KECCAK256 PUSH1 0x0 ADD SLOAD SWAP1 POP PUSH2 0x1C5D DUP2 PUSH2 0x2E39 JUMP JUMPDEST PUSH1 0x1 ISZERO ISZERO PUSH2 0x1C6A DUP3 PUSH2 0x2A02 JUMP JUMPDEST ISZERO ISZERO EQ ISZERO PUSH2 0x1D5C JUMPI PUSH1 0x5 PUSH1 0x0 PUSH2 0x1C7E PUSH2 0x28CB JUMP JUMPDEST PUSH20 0xFFFFFFFFFFFFFFFFFFFFFFFFFFFFFFFFFFFFFFFF AND PUSH20 0xFFFFFFFFFFFFFFFFFFFFFFFFFFFFFFFFFFFFFFFF AND DUP2 MSTORE PUSH1 0x20 ADD SWAP1 DUP2 MSTORE PUSH1 0x20 ADD PUSH1 0x0 KECCAK256 PUSH1 0x4 ADD DUP1 SLOAD PUSH1 0x1 DUP2 PUSH1 0x1 AND ISZERO PUSH2 0x100 MUL SUB AND PUSH1 0x2 SWAP1 DIV DUP1 PUSH1 0x1F ADD PUSH1 0x20 DUP1 SWAP2 DIV MUL PUSH1 0x20 ADD PUSH1 0x40 MLOAD SWAP1 DUP2 ADD PUSH1 0x40 MSTORE DUP1 SWAP3 SWAP2 SWAP1 DUP2 DUP2 MSTORE PUSH1 0x20 ADD DUP3 DUP1 SLOAD PUSH1 0x1 DUP2 PUSH1 0x1 AND ISZERO PUSH2 0x100 MUL SUB AND PUSH1 0x2 SWAP1 DIV DUP1 ISZERO PUSH2 0x1D4F JUMPI DUP1 PUSH1 0x1F LT PUSH2 0x1D24 JUMPI PUSH2 0x100 DUP1 DUP4 SLOAD DIV MUL DUP4 MSTORE SWAP2 PUSH1 0x20 ADD SWAP2 PUSH2 0x1D4F JUMP JUMPDEST DUP3 ADD SWAP2 SWAP1 PUSH1 0x0 MSTORE PUSH1 0x20 PUSH1 0x0 KECCAK256 SWAP1 JUMPDEST DUP2 SLOAD DUP2 MSTORE SWAP1 PUSH1 0x1 ADD SWAP1 PUSH1 0x20 ADD DUP1 DUP4 GT PUSH2 0x1D32 JUMPI DUP3 SWAP1 SUB PUSH1 0x1F AND DUP3 ADD SWAP2 JUMPDEST POP POP POP POP POP SWAP2 POP POP PUSH2 0x1D70 JUMP JUMPDEST PUSH1 0x40 MLOAD DUP1 PUSH1 0x20 ADD PUSH1 0x40 MSTORE DUP1 PUSH1 0x0 DUP2 MSTORE POP SWAP2 POP POP JUMPDEST SWAP1 JUMP JUMPDEST PUSH32 0x35A7846A2A701FFF6F9D61A46EBFF5DA578C5DCEE8BDF361C569F9EA4EE64771 PUSH2 0x1DA5 DUP2 PUSH2 0x1DA0 PUSH2 0x28CB JUMP JUMPDEST PUSH2 0x1B4D JUMP JUMPDEST PUSH2 0x1DE4 JUMPI PUSH1 0x40 MLOAD PUSH32 0x8C379A000000000000000000000000000000000000000000000000000000000 DUP2 MSTORE PUSH1 0x4 ADD PUSH2 0x1DDB SWAP1 PUSH2 0x496F JUMP JUMPDEST PUSH1 0x40 MLOAD DUP1 SWAP2 SUB SWAP1 REVERT JUMPDEST PUSH1 0x5 PUSH1 0x0 DUP4 PUSH20 0xFFFFFFFFFFFFFFFFFFFFFFFFFFFFFFFFFFFFFFFF AND PUSH20 0xFFFFFFFFFFFFFFFFFFFFFFFFFFFFFFFFFFFFFFFF AND DUP2 MSTORE PUSH1 0x20 ADD SWAP1 DUP2 MSTORE PUSH1 0x20 ADD PUSH1 0x0 KECCAK256 PUSH1 0x0 DUP1 DUP3 ADD PUSH1 0x0 SWAP1 SSTORE PUSH1 0x1 DUP3 ADD PUSH1 0x0 PUSH2 0x1E3C SWAP2 SWAP1 PUSH2 0x3CBA JUMP JUMPDEST PUSH1 0x2 DUP3 ADD PUSH1 0x0 PUSH2 0x1E4C SWAP2 SWAP1 PUSH2 0x3CBA JUMP JUMPDEST PUSH1 0x3 DUP3 ADD PUSH1 0x0 PUSH2 0x100 EXP DUP2 SLOAD SWAP1 PUSH1 0xFF MUL NOT AND SWAP1 SSTORE PUSH1 0x4 DUP3 ADD PUSH1 0x0 PUSH2 0x1E70 SWAP2 SWAP1 PUSH2 0x3D02 JUMP JUMPDEST POP POP POP POP JUMP JUMPDEST PUSH1 0x0 PUSH32 0x35A7846A2A701FFF6F9D61A46EBFF5DA578C5DCEE8BDF361C569F9EA4EE64771 PUSH2 0x1EAA DUP2 PUSH2 0x1EA5 PUSH2 0x28CB JUMP JUMPDEST PUSH2 0x1B4D JUMP JUMPDEST PUSH2 0x1EE9 JUMPI PUSH1 0x40 MLOAD PUSH32 0x8C379A000000000000000000000000000000000000000000000000000000000 DUP2 MSTORE PUSH1 0x4 ADD PUSH2 0x1EE0 SWAP1 PUSH2 0x496F JUMP JUMPDEST PUSH1 0x40 MLOAD DUP1 SWAP2 SUB SWAP1 REVERT JUMPDEST PUSH1 0x0 PUSH2 0x1EF3 PUSH2 0x2DDF JUMP JUMPDEST SWAP1 POP DUP1 PUSH20 0xFFFFFFFFFFFFFFFFFFFFFFFFFFFFFFFFFFFFFFFF AND PUSH4 0x70A08231 ADDRESS PUSH1 0x40 MLOAD DUP3 PUSH4 0xFFFFFFFF AND PUSH1 0xE0 SHL DUP2 MSTORE PUSH1 0x4 ADD PUSH2 0x1F2E SWAP2 SWAP1 PUSH2 0x4733 JUMP JUMPDEST PUSH1 0x20 PUSH1 0x40 MLOAD DUP1 DUP4 SUB DUP2 DUP7 DUP1 EXTCODESIZE ISZERO DUP1 ISZERO PUSH2 0x1F46 JUMPI PUSH1 0x0 DUP1 REVERT JUMPDEST POP GAS STATICCALL ISZERO DUP1 ISZERO PUSH2 0x1F5A JUMPI RETURNDATASIZE PUSH1 0x0 DUP1 RETURNDATACOPY RETURNDATASIZE PUSH1 0x0 REVERT JUMPDEST POP POP POP POP PUSH1 0x40 MLOAD RETURNDATASIZE PUSH1 0x1F NOT PUSH1 0x1F DUP3 ADD AND DUP3 ADD DUP1 PUSH1 0x40 MSTORE POP DUP2 ADD SWAP1 PUSH2 0x1F7E SWAP2 SWAP1 PUSH2 0x43B5 JUMP JUMPDEST SWAP3 POP POP POP SWAP1 JUMP JUMPDEST PUSH1 0x2 SLOAD DUP2 JUMP JUMPDEST DUP3 PUSH1 0xE PUSH1 0x0 DUP3 DUP2 MSTORE PUSH1 0x20 ADD SWAP1 DUP2 MSTORE PUSH1 0x20 ADD PUSH1 0x0 KECCAK256 PUSH1 0x0 SWAP1 SLOAD SWAP1 PUSH2 0x100 EXP SWAP1 DIV PUSH20 0xFFFFFFFFFFFFFFFFFFFFFFFFFFFFFFFFFFFFFFFF AND PUSH20 0xFFFFFFFFFFFFFFFFFFFFFFFFFFFFFFFFFFFFFFFF AND CALLER PUSH20 0xFFFFFFFFFFFFFFFFFFFFFFFFFFFFFFFFFFFFFFFF AND EQ PUSH2 0x2043 JUMPI PUSH1 0x40 MLOAD PUSH32 0x8C379A000000000000000000000000000000000000000000000000000000000 DUP2 MSTORE PUSH1 0x4 ADD DUP1 DUP1 PUSH1 0x20 ADD DUP3 DUP2 SUB DUP3 MSTORE PUSH1 0x28 DUP2 MSTORE PUSH1 0x20 ADD DUP1 PUSH2 0x4CE7 PUSH1 0x28 SWAP2 CODECOPY PUSH1 0x40 ADD SWAP2 POP POP PUSH1 0x40 MLOAD DUP1 SWAP2 SUB SWAP1 REVERT JUMPDEST PUSH1 0xE PUSH1 0x0 DUP3 DUP2 MSTORE PUSH1 0x20 ADD SWAP1 DUP2 MSTORE PUSH1 0x20 ADD PUSH1 0x0 KECCAK256 PUSH1 0x0 PUSH2 0x100 EXP DUP2 SLOAD SWAP1 PUSH20 0xFFFFFFFFFFFFFFFFFFFFFFFFFFFFFFFFFFFFFFFF MUL NOT AND SWAP1 SSTORE DUP1 PUSH32 0x7CC135E0CEBB02C3480AE5D74D377283180A2601F8F644EDF7987B009316C63A PUSH1 0x40 MLOAD PUSH1 0x40 MLOAD DUP1 SWAP2 SUB SWAP1 LOG2 PUSH1 0x0 PUSH1 0x6 PUSH1 0x0 DUP7 DUP2 MSTORE PUSH1 0x20 ADD SWAP1 DUP2 MSTORE PUSH1 0x20 ADD PUSH1 0x0 KECCAK256 PUSH1 0x0 SWAP1 SLOAD SWAP1 PUSH2 0x100 EXP SWAP1 DIV PUSH20 0xFFFFFFFFFFFFFFFFFFFFFFFFFFFFFFFFFFFFFFFF AND SWAP1 POP PUSH1 0x64 DUP5 DUP5 SWAP1 POP GT ISZERO PUSH2 0x222E JUMPI PUSH1 0x1 PUSH1 0x5 PUSH1 0x0 DUP4 PUSH20 0xFFFFFFFFFFFFFFFFFFFFFFFFFFFFFFFFFFFFFFFF AND PUSH20 0xFFFFFFFFFFFFFFFFFFFFFFFFFFFFFFFFFFFFFFFF AND DUP2 MSTORE PUSH1 0x20 ADD SWAP1 DUP2 MSTORE PUSH1 0x20 ADD PUSH1 0x0 KECCAK256 PUSH1 0x3 ADD PUSH1 0x0 PUSH2 0x100 EXP DUP2 SLOAD DUP2 PUSH1 0xFF MUL NOT AND SWAP1 DUP4 ISZERO ISZERO MUL OR SWAP1 SSTORE POP DUP4 DUP4 PUSH1 0x5 PUSH1 0x0 DUP5 PUSH20 0xFFFFFFFFFFFFFFFFFFFFFFFFFFFFFFFFFFFFFFFF AND PUSH20 0xFFFFFFFFFFFFFFFFFFFFFFFFFFFFFFFFFFFFFFFF AND DUP2 MSTORE PUSH1 0x20 ADD SWAP1 DUP2 MSTORE PUSH1 0x20 ADD PUSH1 0x0 KECCAK256 PUSH1 0x4 ADD SWAP2 SWAP1 PUSH2 0x2196 SWAP3 SWAP2 SWAP1 PUSH2 0x3D4A JUMP JUMPDEST POP PUSH2 0x21A2 DUP2 DUP6 DUP6 PUSH2 0x2E82 JUMP JUMPDEST PUSH1 0x6 PUSH1 0x0 DUP7 DUP2 MSTORE PUSH1 0x20 ADD SWAP1 DUP2 MSTORE PUSH1 0x20 ADD PUSH1 0x0 KECCAK256 PUSH1 0x0 PUSH2 0x100 EXP DUP2 SLOAD SWAP1 PUSH20 0xFFFFFFFFFFFFFFFFFFFFFFFFFFFFFFFFFFFFFFFF MUL NOT AND SWAP1 SSTORE DUP1 PUSH20 0xFFFFFFFFFFFFFFFFFFFFFFFFFFFFFFFFFFFFFFFF AND PUSH32 0x5558DD1C153E0C1F8C80798AEED4E67944C9F61B4B21FC582570130A778A964A DUP6 DUP6 PUSH1 0x40 MLOAD PUSH2 0x2220 SWAP3 SWAP2 SWAP1 PUSH2 0x4815 JUMP JUMPDEST PUSH1 0x40 MLOAD DUP1 SWAP2 SUB SWAP1 LOG2 POP PUSH2 0x22CE JUMP JUMPDEST PUSH1 0x5 PUSH1 0x0 DUP3 PUSH20 0xFFFFFFFFFFFFFFFFFFFFFFFFFFFFFFFFFFFFFFFF AND PUSH20 0xFFFFFFFFFFFFFFFFFFFFFFFFFFFFFFFFFFFFFFFF AND DUP2 MSTORE PUSH1 0x20 ADD SWAP1 DUP2 MSTORE PUSH1 0x20 ADD PUSH1 0x0 KECCAK256 PUSH1 0x1 ADD PUSH1 0x0 PUSH2 0x227C SWAP2 SWAP1 PUSH2 0x3CBA JUMP JUMPDEST DUP1 PUSH20 0xFFFFFFFFFFFFFFFFFFFFFFFFFFFFFFFFFFFFFFFF AND PUSH32 0x365B5CEB998CE6CD2A94807AD133912878EFB4835F3FA8AE003BF75529C7AF3B DUP6 DUP6 PUSH1 0x40 MLOAD PUSH2 0x22C4 SWAP3 SWAP2 SWAP1 PUSH2 0x4815 JUMP JUMPDEST PUSH1 0x40 MLOAD DUP1 SWAP2 SUB SWAP1 LOG2 POP JUMPDEST POP POP POP POP JUMP JUMPDEST PUSH1 0x0 PUSH2 0x22F4 PUSH1 0x41 PUSH1 0x0 DUP5 DUP2 MSTORE PUSH1 0x20 ADD SWAP1 DUP2 MSTORE PUSH1 0x20 ADD PUSH1 0x0 KECCAK256 PUSH1 0x0 ADD PUSH2 0x2FE5 JUMP JUMPDEST SWAP1 POP SWAP2 SWAP1 POP JUMP JUMPDEST PUSH2 0x2322 PUSH1 0x41 PUSH1 0x0 DUP5 DUP2 MSTORE PUSH1 0x20 ADD SWAP1 DUP2 MSTORE PUSH1 0x20 ADD PUSH1 0x0 KECCAK256 PUSH1 0x2 ADD SLOAD PUSH2 0x231D PUSH2 0x28CB JUMP JUMPDEST PUSH2 0x1B4D JUMP JUMPDEST PUSH2 0x2377 JUMPI PUSH1 0x40 MLOAD PUSH32 0x8C379A000000000000000000000000000000000000000000000000000000000 DUP2 MSTORE PUSH1 0x4 ADD DUP1 DUP1 PUSH1 0x20 ADD DUP3 DUP2 SUB DUP3 MSTORE PUSH1 0x30 DUP2 MSTORE PUSH1 0x20 ADD DUP1 PUSH2 0x4C89 PUSH1 0x30 SWAP2 CODECOPY PUSH1 0x40 ADD SWAP2 POP POP PUSH1 0x40 MLOAD DUP1 SWAP2 SUB SWAP1 REVERT JUMPDEST PUSH2 0x2381 DUP3 DUP3 PUSH2 0x296E JUMP JUMPDEST POP POP JUMP JUMPDEST PUSH1 0x3 SLOAD DUP2 JUMP JUMPDEST PUSH1 0x5 PUSH1 0x20 MSTORE DUP1 PUSH1 0x0 MSTORE PUSH1 0x40 PUSH1 0x0 KECCAK256 PUSH1 0x0 SWAP2 POP SWAP1 POP DUP1 PUSH1 0x0 ADD SLOAD SWAP1 DUP1 PUSH1 0x1 ADD DUP1 SLOAD PUSH1 0x1 DUP2 PUSH1 0x1 AND ISZERO PUSH2 0x100 MUL SUB AND PUSH1 0x2 SWAP1 DIV DUP1 PUSH1 0x1F ADD PUSH1 0x20 DUP1 SWAP2 DIV MUL PUSH1 0x20 ADD PUSH1 0x40 MLOAD SWAP1 DUP2 ADD PUSH1 0x40 MSTORE DUP1 SWAP3 SWAP2 SWAP1 DUP2 DUP2 MSTORE PUSH1 0x20 ADD DUP3 DUP1 SLOAD PUSH1 0x1 DUP2 PUSH1 0x1 AND ISZERO PUSH2 0x100 MUL SUB AND PUSH1 0x2 SWAP1 DIV DUP1 ISZERO PUSH2 0x243D JUMPI DUP1 PUSH1 0x1F LT PUSH2 0x2412 JUMPI PUSH2 0x100 DUP1 DUP4 SLOAD DIV MUL DUP4 MSTORE SWAP2 PUSH1 0x20 ADD SWAP2 PUSH2 0x243D JUMP JUMPDEST DUP3 ADD SWAP2 SWAP1 PUSH1 0x0 MSTORE PUSH1 0x20 PUSH1 0x0 KECCAK256 SWAP1 JUMPDEST DUP2 SLOAD DUP2 MSTORE SWAP1 PUSH1 0x1 ADD SWAP1 PUSH1 0x20 ADD DUP1 DUP4 GT PUSH2 0x2420 JUMPI DUP3 SWAP1 SUB PUSH1 0x1F AND DUP3 ADD SWAP2 JUMPDEST POP POP POP POP POP SWAP1 DUP1 PUSH1 0x2 ADD DUP1 SLOAD PUSH1 0x1 DUP2 PUSH1 0x1 AND ISZERO PUSH2 0x100 MUL SUB AND PUSH1 0x2 SWAP1 DIV DUP1 PUSH1 0x1F ADD PUSH1 0x20 DUP1 SWAP2 DIV MUL PUSH1 0x20 ADD PUSH1 0x40 MLOAD SWAP1 DUP2 ADD PUSH1 0x40 MSTORE DUP1 SWAP3 SWAP2 SWAP1 DUP2 DUP2 MSTORE PUSH1 0x20 ADD DUP3 DUP1 SLOAD PUSH1 0x1 DUP2 PUSH1 0x1 AND ISZERO PUSH2 0x100 MUL SUB AND PUSH1 0x2 SWAP1 DIV DUP1 ISZERO PUSH2 0x24DB JUMPI DUP1 PUSH1 0x1F LT PUSH2 0x24B0 JUMPI PUSH2 0x100 DUP1 DUP4 SLOAD DIV MUL DUP4 MSTORE SWAP2 PUSH1 0x20 ADD SWAP2 PUSH2 0x24DB JUMP JUMPDEST DUP3 ADD SWAP2 SWAP1 PUSH1 0x0 MSTORE PUSH1 0x20 PUSH1 0x0 KECCAK256 SWAP1 JUMPDEST DUP2 SLOAD DUP2 MSTORE SWAP1 PUSH1 0x1 ADD SWAP1 PUSH1 0x20 ADD DUP1 DUP4 GT PUSH2 0x24BE JUMPI DUP3 SWAP1 SUB PUSH1 0x1F AND DUP3 ADD SWAP2 JUMPDEST POP POP POP POP POP SWAP1 DUP1 PUSH1 0x3 ADD PUSH1 0x0 SWAP1 SLOAD SWAP1 PUSH2 0x100 EXP SWAP1 DIV PUSH1 0xFF AND SWAP1 DUP1 PUSH1 0x4 ADD DUP1 SLOAD PUSH1 0x1 DUP2 PUSH1 0x1 AND ISZERO PUSH2 0x100 MUL SUB AND PUSH1 0x2 SWAP1 DIV DUP1 PUSH1 0x1F ADD PUSH1 0x20 DUP1 SWAP2 DIV MUL PUSH1 0x20 ADD PUSH1 0x40 MLOAD SWAP1 DUP2 ADD PUSH1 0x40 MSTORE DUP1 SWAP3 SWAP2 SWAP1 DUP2 DUP2 MSTORE PUSH1 0x20 ADD DUP3 DUP1 SLOAD PUSH1 0x1 DUP2 PUSH1 0x1 AND ISZERO PUSH2 0x100 MUL SUB AND PUSH1 0x2 SWAP1 DIV DUP1 ISZERO PUSH2 0x258C JUMPI DUP1 PUSH1 0x1F LT PUSH2 0x2561 JUMPI PUSH2 0x100 DUP1 DUP4 SLOAD DIV MUL DUP4 MSTORE SWAP2 PUSH1 0x20 ADD SWAP2 PUSH2 0x258C JUMP JUMPDEST DUP3 ADD SWAP2 SWAP1 PUSH1 0x0 MSTORE PUSH1 0x20 PUSH1 0x0 KECCAK256 SWAP1 JUMPDEST DUP2 SLOAD DUP2 MSTORE SWAP1 PUSH1 0x1 ADD SWAP1 PUSH1 0x20 ADD DUP1 DUP4 GT PUSH2 0x256F JUMPI DUP3 SWAP1 SUB PUSH1 0x1F AND DUP3 ADD SWAP2 JUMPDEST POP POP POP POP POP SWAP1 POP DUP6 JUMP JUMPDEST PUSH32 0x35A7846A2A701FFF6F9D61A46EBFF5DA578C5DCEE8BDF361C569F9EA4EE64771 DUP2 JUMP JUMPDEST PUSH1 0x0 PUSH2 0x25C5 ADDRESS PUSH2 0x2FFA JUMP JUMPDEST ISZERO SWAP1 POP SWAP1 JUMP JUMPDEST DUP1 PUSH1 0xB PUSH1 0x0 PUSH2 0x100 EXP DUP2 SLOAD DUP2 PUSH20 0xFFFFFFFFFFFFFFFFFFFFFFFFFFFFFFFFFFFFFFFF MUL NOT AND SWAP1 DUP4 PUSH20 0xFFFFFFFFFFFFFFFFFFFFFFFFFFFFFFFFFFFFFFFF AND MUL OR SWAP1 SSTORE POP POP JUMP JUMPDEST DUP1 PUSH1 0xC PUSH1 0x0 PUSH2 0x100 EXP DUP2 SLOAD DUP2 PUSH20 0xFFFFFFFFFFFFFFFFFFFFFFFFFFFFFFFFFFFFFFFF MUL NOT AND SWAP1 DUP4 PUSH20 0xFFFFFFFFFFFFFFFFFFFFFFFFFFFFFFFFFFFFFFFF AND MUL OR SWAP1 SSTORE POP POP JUMP JUMPDEST PUSH1 0x9 PUSH1 0x1 SWAP1 SLOAD SWAP1 PUSH2 0x100 EXP SWAP1 DIV PUSH1 0xFF AND DUP1 PUSH2 0x2672 JUMPI POP PUSH2 0x2671 PUSH2 0x25BA JUMP JUMPDEST JUMPDEST DUP1 PUSH2 0x268A JUMPI POP PUSH1 0x9 PUSH1 0x0 SWAP1 SLOAD SWAP1 PUSH2 0x100 EXP SWAP1 DIV PUSH1 0xFF AND ISZERO JUMPDEST PUSH2 0x26DF JUMPI PUSH1 0x40 MLOAD PUSH32 0x8C379A000000000000000000000000000000000000000000000000000000000 DUP2 MSTORE PUSH1 0x4 ADD DUP1 DUP1 PUSH1 0x20 ADD DUP3 DUP2 SUB DUP3 MSTORE PUSH1 0x2E DUP2 MSTORE PUSH1 0x20 ADD DUP1 PUSH2 0x4CB9 PUSH1 0x2E SWAP2 CODECOPY PUSH1 0x40 ADD SWAP2 POP POP PUSH1 0x40 MLOAD DUP1 SWAP2 SUB SWAP1 REVERT JUMPDEST PUSH1 0x0 PUSH1 0x9 PUSH1 0x1 SWAP1 SLOAD SWAP1 PUSH2 0x100 EXP SWAP1 DIV PUSH1 0xFF AND ISZERO SWAP1 POP DUP1 ISZERO PUSH2 0x2731 JUMPI PUSH1 0x1 PUSH1 0x9 PUSH1 0x1 PUSH2 0x100 EXP DUP2 SLOAD DUP2 PUSH1 0xFF MUL NOT AND SWAP1 DUP4 ISZERO ISZERO MUL OR SWAP1 SSTORE POP PUSH1 0x1 PUSH1 0x9 PUSH1 0x0 PUSH2 0x100 EXP DUP2 SLOAD DUP2 PUSH1 0xFF MUL NOT AND SWAP1 DUP4 ISZERO ISZERO MUL OR SWAP1 SSTORE POP JUMPDEST DUP1 ISZERO PUSH2 0x2753 JUMPI PUSH1 0x0 PUSH1 0x9 PUSH1 0x1 PUSH2 0x100 EXP DUP2 SLOAD DUP2 PUSH1 0xFF MUL NOT AND SWAP1 DUP4 ISZERO ISZERO MUL OR SWAP1 SSTORE POP JUMPDEST POP JUMP JUMPDEST PUSH1 0x9 PUSH1 0x1 SWAP1 SLOAD SWAP1 PUSH2 0x100 EXP SWAP1 DIV PUSH1 0xFF AND DUP1 PUSH2 0x2775 JUMPI POP PUSH2 0x2774 PUSH2 0x25BA JUMP JUMPDEST JUMPDEST DUP1 PUSH2 0x278D JUMPI POP PUSH1 0x9 PUSH1 0x0 SWAP1 SLOAD SWAP1 PUSH2 0x100 EXP SWAP1 DIV PUSH1 0xFF AND ISZERO JUMPDEST PUSH2 0x27E2 JUMPI PUSH1 0x40 MLOAD PUSH32 0x8C379A000000000000000000000000000000000000000000000000000000000 DUP2 MSTORE PUSH1 0x4 ADD DUP1 DUP1 PUSH1 0x20 ADD DUP3 DUP2 SUB DUP3 MSTORE PUSH1 0x2E DUP2 MSTORE PUSH1 0x20 ADD DUP1 PUSH2 0x4CB9 PUSH1 0x2E SWAP2 CODECOPY PUSH1 0x40 ADD SWAP2 POP POP PUSH1 0x40 MLOAD DUP1 SWAP2 SUB SWAP1 REVERT JUMPDEST PUSH1 0x0 PUSH1 0x9 PUSH1 0x1 SWAP1 SLOAD SWAP1 PUSH2 0x100 EXP SWAP1 DIV PUSH1 0xFF AND ISZERO SWAP1 POP DUP1 ISZERO PUSH2 0x2834 JUMPI PUSH1 0x1 PUSH1 0x9 PUSH1 0x1 PUSH2 0x100 EXP DUP2 SLOAD DUP2 PUSH1 0xFF MUL NOT AND SWAP1 DUP4 ISZERO ISZERO MUL OR SWAP1 SSTORE POP PUSH1 0x1 PUSH1 0x9 PUSH1 0x0 PUSH2 0x100 EXP DUP2 SLOAD DUP2 PUSH1 0xFF MUL NOT AND SWAP1 DUP4 ISZERO ISZERO MUL OR SWAP1 SSTORE POP JUMPDEST DUP1 ISZERO PUSH2 0x2856 JUMPI PUSH1 0x0 PUSH1 0x9 PUSH1 0x1 PUSH2 0x100 EXP DUP2 SLOAD DUP2 PUSH1 0xFF MUL NOT AND SWAP1 DUP4 ISZERO ISZERO MUL OR SWAP1 SSTORE POP JUMPDEST POP JUMP JUMPDEST PUSH2 0x2863 DUP3 DUP3 PUSH2 0x28DA JUMP JUMPDEST POP POP JUMP JUMPDEST DUP1 PUSH1 0x41 PUSH1 0x0 DUP5 DUP2 MSTORE PUSH1 0x20 ADD SWAP1 DUP2 MSTORE PUSH1 0x20 ADD PUSH1 0x0 KECCAK256 PUSH1 0x2 ADD SLOAD DUP4 PUSH32 0xBD79B86FFE0AB8E8776151514217CD7CACD52C909F66475C3AF44E129F0B00FF PUSH1 0x40 MLOAD PUSH1 0x40 MLOAD DUP1 SWAP2 SUB SWAP1 LOG4 DUP1 PUSH1 0x41 PUSH1 0x0 DUP5 DUP2 MSTORE PUSH1 0x20 ADD SWAP1 DUP2 MSTORE PUSH1 0x20 ADD PUSH1 0x0 KECCAK256 PUSH1 0x2 ADD DUP2 SWAP1 SSTORE POP POP POP JUMP JUMPDEST PUSH1 0x0 PUSH2 0x28D5 PUSH2 0x300D JUMP JUMPDEST SWAP1 POP SWAP1 JUMP JUMPDEST PUSH2 0x2902 DUP2 PUSH1 0x41 PUSH1 0x0 DUP6 DUP2 MSTORE PUSH1 0x20 ADD SWAP1 DUP2 MSTORE PUSH1 0x20 ADD PUSH1 0x0 KECCAK256 PUSH1 0x0 ADD PUSH2 0x3049 SWAP1 SWAP2 SWAP1 PUSH4 0xFFFFFFFF AND JUMP JUMPDEST ISZERO PUSH2 0x296A JUMPI PUSH2 0x290F PUSH2 0x28CB JUMP JUMPDEST PUSH20 0xFFFFFFFFFFFFFFFFFFFFFFFFFFFFFFFFFFFFFFFF AND DUP2 PUSH20 0xFFFFFFFFFFFFFFFFFFFFFFFFFFFFFFFFFFFFFFFF AND DUP4 PUSH32 0x2F8788117E7EFF1D82E926EC794901D17C78024A50270940304540A733656F0D PUSH1 0x40 MLOAD PUSH1 0x40 MLOAD DUP1 SWAP2 SUB SWAP1 LOG4 JUMPDEST POP POP JUMP JUMPDEST PUSH2 0x2996 DUP2 PUSH1 0x41 PUSH1 0x0 DUP6 DUP2 MSTORE PUSH1 0x20 ADD SWAP1 DUP2 MSTORE PUSH1 0x20 ADD PUSH1 0x0 KECCAK256 PUSH1 0x0 ADD PUSH2 0x3079 SWAP1 SWAP2 SWAP1 PUSH4 0xFFFFFFFF AND JUMP JUMPDEST ISZERO PUSH2 0x29FE JUMPI PUSH2 0x29A3 PUSH2 0x28CB JUMP JUMPDEST PUSH20 0xFFFFFFFFFFFFFFFFFFFFFFFFFFFFFFFFFFFFFFFF AND DUP2 PUSH20 0xFFFFFFFFFFFFFFFFFFFFFFFFFFFFFFFFFFFFFFFF AND DUP4 PUSH32 0xF6391F5C32D9C69D2A47EA670B442974B53935D1EDC7FD64EB21E047A839171B PUSH1 0x40 MLOAD PUSH1 0x40 MLOAD DUP1 SWAP2 SUB SWAP1 LOG4 JUMPDEST POP POP JUMP JUMPDEST PUSH1 0x0 DUP2 PUSH1 0x0 PUSH20 0xFFFFFFFFFFFFFFFFFFFFFFFFFFFFFFFFFFFFFFFF AND PUSH1 0xE PUSH1 0x0 DUP4 DUP2 MSTORE PUSH1 0x20 ADD SWAP1 DUP2 MSTORE PUSH1 0x20 ADD PUSH1 0x0 KECCAK256 PUSH1 0x0 SWAP1 SLOAD SWAP1 PUSH2 0x100 EXP SWAP1 DIV PUSH20 0xFFFFFFFFFFFFFFFFFFFFFFFFFFFFFFFFFFFFFFFF AND PUSH20 0xFFFFFFFFFFFFFFFFFFFFFFFFFFFFFFFFFFFFFFFF AND EQ PUSH2 0x2ADA JUMPI PUSH1 0x40 MLOAD PUSH32 0x8C379A000000000000000000000000000000000000000000000000000000000 DUP2 MSTORE PUSH1 0x4 ADD DUP1 DUP1 PUSH1 0x20 ADD DUP3 DUP2 SUB DUP3 MSTORE PUSH1 0x1A DUP2 MSTORE PUSH1 0x20 ADD DUP1 PUSH32 0x5265717565737420697320616C72656164792070656E64696E67000000000000 DUP2 MSTORE POP PUSH1 0x20 ADD SWAP2 POP POP PUSH1 0x40 MLOAD DUP1 SWAP2 SUB SWAP1 REVERT JUMPDEST PUSH1 0x1 SWAP2 POP POP SWAP2 SWAP1 POP JUMP JUMPDEST PUSH1 0x60 DUP1 PUSH1 0x60 PUSH1 0x0 DUP1 PUSH1 0x0 DUP1 PUSH1 0x0 DUP1 PUSH1 0x0 DUP11 DUP1 PUSH1 0x20 ADD SWAP1 MLOAD DUP2 ADD SWAP1 PUSH2 0x2B08 SWAP2 SWAP1 PUSH2 0x42CD JUMP JUMPDEST SWAP5 POP SWAP5 POP SWAP5 POP SWAP5 POP SWAP5 POP DUP5 DUP5 DUP5 DUP5 DUP5 SWAP10 POP SWAP10 POP SWAP10 POP SWAP10 POP SWAP10 POP POP POP POP POP POP SWAP2 SWAP4 SWAP6 SWAP1 SWAP3 SWAP5 POP JUMP JUMPDEST PUSH1 0x60 PUSH1 0x0 DUP3 SWAP1 POP PUSH1 0x0 JUMPDEST DUP2 MLOAD DUP2 LT ISZERO PUSH2 0x2BA9 JUMPI PUSH2 0x2B61 DUP3 DUP3 DUP2 MLOAD DUP2 LT PUSH2 0x2B51 JUMPI INVALID JUMPDEST PUSH1 0x20 ADD ADD MLOAD PUSH1 0xF8 SHR PUSH1 0xF8 SHL PUSH2 0x30A9 JUMP JUMPDEST DUP3 DUP3 DUP2 MLOAD DUP2 LT PUSH2 0x2B6D JUMPI INVALID JUMPDEST PUSH1 0x20 ADD ADD SWAP1 PUSH31 0xFFFFFFFFFFFFFFFFFFFFFFFFFFFFFFFFFFFFFFFFFFFFFFFFFFFFFFFFFFFFFF NOT AND SWAP1 DUP2 PUSH1 0x0 BYTE SWAP1 MSTORE8 POP DUP1 DUP1 PUSH1 0x1 ADD SWAP2 POP POP PUSH2 0x2B39 JUMP JUMPDEST POP DUP1 SWAP2 POP POP SWAP2 SWAP1 POP JUMP JUMPDEST PUSH2 0x2BBB PUSH2 0x3DD8 JUMP JUMPDEST PUSH2 0x2BC3 PUSH2 0x3DD8 JUMP JUMPDEST PUSH2 0x2BDA DUP6 DUP6 DUP6 DUP5 PUSH2 0x3126 SWAP1 SWAP4 SWAP3 SWAP2 SWAP1 PUSH4 0xFFFFFFFF AND JUMP JUMPDEST SWAP2 POP POP SWAP4 SWAP3 POP POP POP JUMP JUMPDEST PUSH2 0x2BFB DUP3 DUP5 PUSH1 0x80 ADD MLOAD PUSH2 0x31D6 SWAP1 SWAP2 SWAP1 PUSH4 0xFFFFFFFF AND JUMP JUMPDEST PUSH2 0x2C12 DUP2 DUP5 PUSH1 0x80 ADD MLOAD PUSH2 0x31D6 SWAP1 SWAP2 SWAP1 PUSH4 0xFFFFFFFF AND JUMP JUMPDEST POP POP POP JUMP JUMPDEST PUSH2 0x2C2E DUP3 DUP5 PUSH1 0x80 ADD MLOAD PUSH2 0x31D6 SWAP1 SWAP2 SWAP1 PUSH4 0xFFFFFFFF AND JUMP JUMPDEST PUSH2 0x2C45 DUP2 DUP5 PUSH1 0x80 ADD MLOAD PUSH2 0x31FB SWAP1 SWAP2 SWAP1 PUSH4 0xFFFFFFFF AND JUMP JUMPDEST POP POP POP JUMP JUMPDEST PUSH1 0x0 PUSH2 0x2C79 PUSH1 0xC PUSH1 0x0 SWAP1 SLOAD SWAP1 PUSH2 0x100 EXP SWAP1 DIV PUSH20 0xFFFFFFFFFFFFFFFFFFFFFFFFFFFFFFFFFFFFFFFF AND DUP5 DUP5 PUSH2 0x3220 JUMP JUMPDEST SWAP1 POP SWAP3 SWAP2 POP POP JUMP JUMPDEST PUSH1 0x0 PUSH1 0xE PUSH1 0x0 DUP7 DUP2 MSTORE PUSH1 0x20 ADD SWAP1 DUP2 MSTORE PUSH1 0x20 ADD PUSH1 0x0 KECCAK256 PUSH1 0x0 SWAP1 SLOAD SWAP1 PUSH2 0x100 EXP SWAP1 DIV PUSH20 0xFFFFFFFFFFFFFFFFFFFFFFFFFFFFFFFFFFFFFFFF AND SWAP1 POP PUSH1 0xE PUSH1 0x0 DUP7 DUP2 MSTORE PUSH1 0x20 ADD SWAP1 DUP2 MSTORE PUSH1 0x20 ADD PUSH1 0x0 KECCAK256 PUSH1 0x0 PUSH2 0x100 EXP DUP2 SLOAD SWAP1 PUSH20 0xFFFFFFFFFFFFFFFFFFFFFFFFFFFFFFFFFFFFFFFF MUL NOT AND SWAP1 SSTORE DUP5 PUSH32 0xE1FE3AFA0F7F761FF0A8B89086790EFD5140D2907EBD5B7FF6BFCB5E075FD4C5 PUSH1 0x40 MLOAD PUSH1 0x40 MLOAD DUP1 SWAP2 SUB SWAP1 LOG2 DUP1 PUSH20 0xFFFFFFFFFFFFFFFFFFFFFFFFFFFFFFFFFFFFFFFF AND PUSH4 0x6EE4D553 DUP7 DUP7 DUP7 DUP7 PUSH1 0x40 MLOAD DUP6 PUSH4 0xFFFFFFFF AND PUSH1 0xE0 SHL DUP2 MSTORE PUSH1 0x4 ADD DUP1 DUP6 DUP2 MSTORE PUSH1 0x20 ADD DUP5 DUP2 MSTORE PUSH1 0x20 ADD DUP4 PUSH28 0xFFFFFFFFFFFFFFFFFFFFFFFFFFFFFFFFFFFFFFFFFFFFFFFFFFFFFFFF NOT AND DUP2 MSTORE PUSH1 0x20 ADD DUP3 DUP2 MSTORE PUSH1 0x20 ADD SWAP5 POP POP POP POP POP PUSH1 0x0 PUSH1 0x40 MLOAD DUP1 DUP4 SUB DUP2 PUSH1 0x0 DUP8 DUP1 EXTCODESIZE ISZERO DUP1 ISZERO PUSH2 0x2DA6 JUMPI PUSH1 0x0 DUP1 REVERT JUMPDEST POP GAS CALL ISZERO DUP1 ISZERO PUSH2 0x2DBA JUMPI RETURNDATASIZE PUSH1 0x0 DUP1 RETURNDATACOPY RETURNDATASIZE PUSH1 0x0 REVERT JUMPDEST POP POP POP POP POP POP POP POP POP JUMP JUMPDEST PUSH1 0x0 PUSH2 0x2DD4 DUP4 PUSH1 0x0 ADD DUP4 PUSH2 0x3240 JUMP JUMPDEST PUSH1 0x0 SHR SWAP1 POP SWAP3 SWAP2 POP POP JUMP JUMPDEST PUSH1 0x0 PUSH1 0xB PUSH1 0x0 SWAP1 SLOAD SWAP1 PUSH2 0x100 EXP SWAP1 DIV PUSH20 0xFFFFFFFFFFFFFFFFFFFFFFFFFFFFFFFFFFFFFFFF AND SWAP1 POP SWAP1 JUMP JUMPDEST PUSH1 0x0 PUSH2 0x2E31 DUP4 PUSH1 0x0 ADD DUP4 PUSH20 0xFFFFFFFFFFFFFFFFFFFFFFFFFFFFFFFFFFFFFFFF AND PUSH1 0x0 SHL PUSH2 0x32C3 JUMP JUMPDEST SWAP1 POP SWAP3 SWAP2 POP POP JUMP JUMPDEST PUSH1 0x0 DUP1 SHL DUP2 EQ ISZERO PUSH2 0x2E7F JUMPI PUSH1 0x40 MLOAD PUSH32 0x8C379A000000000000000000000000000000000000000000000000000000000 DUP2 MSTORE PUSH1 0x4 ADD PUSH2 0x2E76 SWAP1 PUSH2 0x492F JUMP JUMPDEST PUSH1 0x40 MLOAD DUP1 SWAP2 SUB SWAP1 REVERT JUMPDEST POP JUMP JUMPDEST PUSH1 0x0 DUP1 PUSH2 0x2ED2 DUP5 DUP5 DUP1 DUP1 PUSH1 0x1F ADD PUSH1 0x20 DUP1 SWAP2 DIV MUL PUSH1 0x20 ADD PUSH1 0x40 MLOAD SWAP1 DUP2 ADD PUSH1 0x40 MSTORE DUP1 SWAP4 SWAP3 SWAP2 SWAP1 DUP2 DUP2 MSTORE PUSH1 0x20 ADD DUP4 DUP4 DUP1 DUP3 DUP5 CALLDATACOPY PUSH1 0x0 DUP2 DUP5 ADD MSTORE PUSH1 0x1F NOT PUSH1 0x1F DUP3 ADD AND SWAP1 POP DUP1 DUP4 ADD SWAP3 POP POP POP POP POP POP POP PUSH2 0x2AE4 JUMP JUMPDEST POP SWAP4 POP POP POP SWAP2 POP PUSH1 0x0 PUSH2 0x2EE4 DUP4 PUSH2 0x15CF JUMP JUMPDEST SWAP1 POP DUP6 PUSH1 0x7 PUSH1 0x0 DUP4 DUP2 MSTORE PUSH1 0x20 ADD SWAP1 DUP2 MSTORE PUSH1 0x20 ADD PUSH1 0x0 KECCAK256 PUSH1 0x0 PUSH2 0x100 EXP DUP2 SLOAD DUP2 PUSH20 0xFFFFFFFFFFFFFFFFFFFFFFFFFFFFFFFFFFFFFFFF MUL NOT AND SWAP1 DUP4 PUSH20 0xFFFFFFFFFFFFFFFFFFFFFFFFFFFFFFFFFFFFFFFF AND MUL OR SWAP1 SSTORE POP DUP6 PUSH1 0x8 PUSH1 0x0 DUP5 DUP2 MSTORE PUSH1 0x20 ADD SWAP1 DUP2 MSTORE PUSH1 0x20 ADD PUSH1 0x0 KECCAK256 PUSH1 0x0 PUSH2 0x100 EXP DUP2 SLOAD DUP2 PUSH20 0xFFFFFFFFFFFFFFFFFFFFFFFFFFFFFFFFFFFFFFFF MUL NOT AND SWAP1 DUP4 PUSH20 0xFFFFFFFFFFFFFFFFFFFFFFFFFFFFFFFFFFFFFFFF AND MUL OR SWAP1 SSTORE POP DUP2 PUSH1 0x0 DUP1 SHL DUP8 PUSH20 0xFFFFFFFFFFFFFFFFFFFFFFFFFFFFFFFFFFFFFFFF AND PUSH32 0x874A2EC5722CD7EDA7DE89CD030F58C969310542D551B540230F17BF599D3FD8 DUP7 PUSH1 0x40 MLOAD PUSH2 0x2FD5 SWAP2 SWAP1 PUSH2 0x48FA JUMP JUMPDEST PUSH1 0x40 MLOAD DUP1 SWAP2 SUB SWAP1 LOG4 POP POP POP POP POP POP JUMP JUMPDEST PUSH1 0x0 PUSH2 0x2FF3 DUP3 PUSH1 0x0 ADD PUSH2 0x32E6 JUMP JUMPDEST SWAP1 POP SWAP2 SWAP1 POP JUMP JUMPDEST PUSH1 0x0 DUP1 DUP3 EXTCODESIZE SWAP1 POP PUSH1 0x0 DUP2 GT SWAP2 POP POP SWAP2 SWAP1 POP JUMP JUMPDEST PUSH1 0x0 PUSH1 0x14 PUSH1 0x0 CALLDATASIZE SWAP1 POP LT ISZERO DUP1 ISZERO PUSH2 0x3029 JUMPI POP PUSH2 0x3028 CALLER PUSH2 0xF0E JUMP JUMPDEST JUMPDEST ISZERO PUSH2 0x303D JUMPI PUSH1 0x14 CALLDATASIZE SUB CALLDATALOAD PUSH1 0x60 SHR SWAP1 POP PUSH2 0x3045 JUMP JUMPDEST CALLER SWAP1 POP PUSH2 0x3046 JUMP JUMPDEST JUMPDEST SWAP1 JUMP JUMPDEST PUSH1 0x0 PUSH2 0x3071 DUP4 PUSH1 0x0 ADD DUP4 PUSH20 0xFFFFFFFFFFFFFFFFFFFFFFFFFFFFFFFFFFFFFFFF AND PUSH1 0x0 SHL PUSH2 0x32F7 JUMP JUMPDEST SWAP1 POP SWAP3 SWAP2 POP POP JUMP JUMPDEST PUSH1 0x0 PUSH2 0x30A1 DUP4 PUSH1 0x0 ADD DUP4 PUSH20 0xFFFFFFFFFFFFFFFFFFFFFFFFFFFFFFFFFFFFFFFF AND PUSH1 0x0 SHL PUSH2 0x3367 JUMP JUMPDEST SWAP1 POP SWAP3 SWAP2 POP POP JUMP JUMPDEST PUSH1 0x0 PUSH1 0x41 PUSH1 0xF8 SHL DUP3 PUSH31 0xFFFFFFFFFFFFFFFFFFFFFFFFFFFFFFFFFFFFFFFFFFFFFFFFFFFFFFFFFFFFFF NOT AND LT ISZERO DUP1 ISZERO PUSH2 0x3107 JUMPI POP PUSH1 0x5A PUSH1 0xF8 SHL DUP3 PUSH31 0xFFFFFFFFFFFFFFFFFFFFFFFFFFFFFFFFFFFFFFFFFFFFFFFFFFFFFFFFFFFFFF NOT AND GT ISZERO JUMPDEST ISZERO PUSH2 0x311D JUMPI PUSH1 0x20 DUP3 PUSH1 0xF8 SHR ADD PUSH1 0xF8 SHL SWAP1 POP PUSH2 0x3121 JUMP JUMPDEST DUP2 SWAP1 POP JUMPDEST SWAP2 SWAP1 POP JUMP JUMPDEST PUSH2 0x312E PUSH2 0x3DD8 JUMP JUMPDEST PUSH2 0x313E DUP6 PUSH1 0x80 ADD MLOAD PUSH2 0x100 PUSH2 0x344F JUMP JUMPDEST POP DUP4 DUP6 PUSH1 0x0 ADD DUP2 DUP2 MSTORE POP POP DUP3 DUP6 PUSH1 0x20 ADD SWAP1 PUSH20 0xFFFFFFFFFFFFFFFFFFFFFFFFFFFFFFFFFFFFFFFF AND SWAP1 DUP2 PUSH20 0xFFFFFFFFFFFFFFFFFFFFFFFFFFFFFFFFFFFFFFFF AND DUP2 MSTORE POP POP DUP2 DUP6 PUSH1 0x40 ADD SWAP1 PUSH28 0xFFFFFFFFFFFFFFFFFFFFFFFFFFFFFFFFFFFFFFFFFFFFFFFFFFFFFFFF NOT AND SWAP1 DUP2 PUSH28 0xFFFFFFFFFFFFFFFFFFFFFFFFFFFFFFFFFFFFFFFFFFFFFFFFFFFFFFFF NOT AND DUP2 MSTORE POP POP DUP5 SWAP1 POP SWAP5 SWAP4 POP POP POP POP JUMP JUMPDEST PUSH2 0x31E3 DUP3 PUSH1 0x3 DUP4 MLOAD PUSH2 0x34A3 JUMP JUMPDEST PUSH2 0x31F6 DUP2 DUP4 PUSH2 0x3628 SWAP1 SWAP2 SWAP1 PUSH4 0xFFFFFFFF AND JUMP JUMPDEST POP POP POP JUMP JUMPDEST PUSH2 0x3208 DUP3 PUSH1 0x2 DUP4 MLOAD PUSH2 0x34A3 JUMP JUMPDEST PUSH2 0x321B DUP2 DUP4 PUSH2 0x3628 SWAP1 SWAP2 SWAP1 PUSH4 0xFFFFFFFF AND JUMP JUMPDEST POP POP POP JUMP JUMPDEST PUSH1 0x0 PUSH2 0x3237 DUP5 DUP5 DUP5 PUSH1 0x2 PUSH4 0x6DE879D6 PUSH1 0xE0 SHL PUSH2 0x364A JUMP JUMPDEST SWAP1 POP SWAP4 SWAP3 POP POP POP JUMP JUMPDEST PUSH1 0x0 DUP2 DUP4 PUSH1 0x0 ADD DUP1 SLOAD SWAP1 POP GT PUSH2 0x32A1 JUMPI PUSH1 0x40 MLOAD PUSH32 0x8C379A000000000000000000000000000000000000000000000000000000000 DUP2 MSTORE PUSH1 0x4 ADD DUP1 DUP1 PUSH1 0x20 ADD DUP3 DUP2 SUB DUP3 MSTORE PUSH1 0x22 DUP2 MSTORE PUSH1 0x20 ADD DUP1 PUSH2 0x4C15 PUSH1 0x22 SWAP2 CODECOPY PUSH1 0x40 ADD SWAP2 POP POP PUSH1 0x40 MLOAD DUP1 SWAP2 SUB SWAP1 REVERT JUMPDEST DUP3 PUSH1 0x0 ADD DUP3 DUP2 SLOAD DUP2 LT PUSH2 0x32B0 JUMPI INVALID JUMPDEST SWAP1 PUSH1 0x0 MSTORE PUSH1 0x20 PUSH1 0x0 KECCAK256 ADD SLOAD SWAP1 POP SWAP3 SWAP2 POP POP JUMP JUMPDEST PUSH1 0x0 DUP1 DUP4 PUSH1 0x1 ADD PUSH1 0x0 DUP5 DUP2 MSTORE PUSH1 0x20 ADD SWAP1 DUP2 MSTORE PUSH1 0x20 ADD PUSH1 0x0 KECCAK256 SLOAD EQ ISZERO SWAP1 POP SWAP3 SWAP2 POP POP JUMP JUMPDEST PUSH1 0x0 DUP2 PUSH1 0x0 ADD DUP1 SLOAD SWAP1 POP SWAP1 POP SWAP2 SWAP1 POP JUMP JUMPDEST PUSH1 0x0 PUSH2 0x3303 DUP4 DUP4 PUSH2 0x32C3 JUMP JUMPDEST PUSH2 0x335C JUMPI DUP3 PUSH1 0x0 ADD DUP3 SWAP1 DUP1 PUSH1 0x1 DUP2 SLOAD ADD DUP1 DUP3 SSTORE DUP1 SWAP2 POP POP PUSH1 0x1 SWAP1 SUB SWAP1 PUSH1 0x0 MSTORE PUSH1 0x20 PUSH1 0x0 KECCAK256 ADD PUSH1 0x0 SWAP1 SWAP2 SWAP1 SWAP2 SWAP1 SWAP2 POP SSTORE DUP3 PUSH1 0x0 ADD DUP1 SLOAD SWAP1 POP DUP4 PUSH1 0x1 ADD PUSH1 0x0 DUP5 DUP2 MSTORE PUSH1 0x20 ADD SWAP1 DUP2 MSTORE PUSH1 0x20 ADD PUSH1 0x0 KECCAK256 DUP2 SWAP1 SSTORE POP PUSH1 0x1 SWAP1 POP PUSH2 0x3361 JUMP JUMPDEST PUSH1 0x0 SWAP1 POP JUMPDEST SWAP3 SWAP2 POP POP JUMP JUMPDEST PUSH1 0x0 DUP1 DUP4 PUSH1 0x1 ADD PUSH1 0x0 DUP5 DUP2 MSTORE PUSH1 0x20 ADD SWAP1 DUP2 MSTORE PUSH1 0x20 ADD PUSH1 0x0 KECCAK256 SLOAD SWAP1 POP PUSH1 0x0 DUP2 EQ PUSH2 0x3443 JUMPI PUSH1 0x0 PUSH1 0x1 DUP3 SUB SWAP1 POP PUSH1 0x0 PUSH1 0x1 DUP7 PUSH1 0x0 ADD DUP1 SLOAD SWAP1 POP SUB SWAP1 POP PUSH1 0x0 DUP7 PUSH1 0x0 ADD DUP3 DUP2 SLOAD DUP2 LT PUSH2 0x33B2 JUMPI INVALID JUMPDEST SWAP1 PUSH1 0x0 MSTORE PUSH1 0x20 PUSH1 0x0 KECCAK256 ADD SLOAD SWAP1 POP DUP1 DUP8 PUSH1 0x0 ADD DUP5 DUP2 SLOAD DUP2 LT PUSH2 0x33CF JUMPI INVALID JUMPDEST SWAP1 PUSH1 0x0 MSTORE PUSH1 0x20 PUSH1 0x0 KECCAK256 ADD DUP2 SWAP1 SSTORE POP PUSH1 0x1 DUP4 ADD DUP8 PUSH1 0x1 ADD PUSH1 0x0 DUP4 DUP2 MSTORE PUSH1 0x20 ADD SWAP1 DUP2 MSTORE PUSH1 0x20 ADD PUSH1 0x0 KECCAK256 DUP2 SWAP1 SSTORE POP DUP7 PUSH1 0x0 ADD DUP1 SLOAD DUP1 PUSH2 0x3407 JUMPI INVALID JUMPDEST PUSH1 0x1 SWAP1 SUB DUP2 DUP2 SWAP1 PUSH1 0x0 MSTORE PUSH1 0x20 PUSH1 0x0 KECCAK256 ADD PUSH1 0x0 SWAP1 SSTORE SWAP1 SSTORE DUP7 PUSH1 0x1 ADD PUSH1 0x0 DUP8 DUP2 MSTORE PUSH1 0x20 ADD SWAP1 DUP2 MSTORE PUSH1 0x20 ADD PUSH1 0x0 KECCAK256 PUSH1 0x0 SWAP1 SSTORE PUSH1 0x1 SWAP5 POP POP POP POP POP PUSH2 0x3449 JUMP JUMPDEST PUSH1 0x0 SWAP2 POP POP JUMPDEST SWAP3 SWAP2 POP POP JUMP JUMPDEST PUSH2 0x3457 PUSH2 0x3E45 JUMP JUMPDEST PUSH1 0x0 PUSH1 0x20 DUP4 DUP2 PUSH2 0x3463 JUMPI INVALID JUMPDEST MOD EQ PUSH2 0x347C JUMPI PUSH1 0x20 DUP3 DUP2 PUSH2 0x3473 JUMPI INVALID JUMPDEST MOD PUSH1 0x20 SUB DUP3 ADD SWAP2 POP JUMPDEST DUP2 DUP4 PUSH1 0x20 ADD DUP2 DUP2 MSTORE POP POP PUSH1 0x40 MLOAD DUP1 DUP5 MSTORE PUSH1 0x0 DUP2 MSTORE DUP3 DUP2 ADD PUSH1 0x20 ADD PUSH1 0x40 MSTORE POP DUP3 SWAP1 POP SWAP3 SWAP2 POP POP JUMP JUMPDEST PUSH1 0x17 DUP2 PUSH8 0xFFFFFFFFFFFFFFFF AND GT PUSH2 0x34DA JUMPI PUSH2 0x34D4 DUP2 PUSH1 0x5 DUP5 PUSH1 0xFF AND SWAP1 SHL PUSH1 0xFF AND OR DUP5 PUSH2 0x3A42 SWAP1 SWAP2 SWAP1 PUSH4 0xFFFFFFFF AND JUMP JUMPDEST POP PUSH2 0x3623 JUMP JUMPDEST PUSH1 0xFF DUP2 PUSH8 0xFFFFFFFFFFFFFFFF AND GT PUSH2 0x3530 JUMPI PUSH2 0x3509 PUSH1 0x18 PUSH1 0x5 DUP5 PUSH1 0xFF AND SWAP1 SHL OR DUP5 PUSH2 0x3A42 SWAP1 SWAP2 SWAP1 PUSH4 0xFFFFFFFF AND JUMP JUMPDEST POP PUSH2 0x352A DUP2 PUSH8 0xFFFFFFFFFFFFFFFF AND PUSH1 0x1 DUP6 PUSH2 0x3A62 SWAP1 SWAP3 SWAP2 SWAP1 PUSH4 0xFFFFFFFF AND JUMP JUMPDEST POP PUSH2 0x3622 JUMP JUMPDEST PUSH2 0xFFFF DUP2 PUSH8 0xFFFFFFFFFFFFFFFF AND GT PUSH2 0x3587 JUMPI PUSH2 0x3560 PUSH1 0x19 PUSH1 0x5 DUP5 PUSH1 0xFF AND SWAP1 SHL OR DUP5 PUSH2 0x3A42 SWAP1 SWAP2 SWAP1 PUSH4 0xFFFFFFFF AND JUMP JUMPDEST POP PUSH2 0x3581 DUP2 PUSH8 0xFFFFFFFFFFFFFFFF AND PUSH1 0x2 DUP6 PUSH2 0x3A62 SWAP1 SWAP3 SWAP2 SWAP1 PUSH4 0xFFFFFFFF AND JUMP JUMPDEST POP PUSH2 0x3621 JUMP JUMPDEST PUSH4 0xFFFFFFFF DUP2 PUSH8 0xFFFFFFFFFFFFFFFF AND GT PUSH2 0x35E0 JUMPI PUSH2 0x35B9 PUSH1 0x1A PUSH1 0x5 DUP5 PUSH1 0xFF AND SWAP1 SHL OR DUP5 PUSH2 0x3A42 SWAP1 SWAP2 SWAP1 PUSH4 0xFFFFFFFF AND JUMP JUMPDEST POP PUSH2 0x35DA DUP2 PUSH8 0xFFFFFFFFFFFFFFFF AND PUSH1 0x4 DUP6 PUSH2 0x3A62 SWAP1 SWAP3 SWAP2 SWAP1 PUSH4 0xFFFFFFFF AND JUMP JUMPDEST POP PUSH2 0x3620 JUMP JUMPDEST PUSH2 0x35FD PUSH1 0x1B PUSH1 0x5 DUP5 PUSH1 0xFF AND SWAP1 SHL OR DUP5 PUSH2 0x3A42 SWAP1 SWAP2 SWAP1 PUSH4 0xFFFFFFFF AND JUMP JUMPDEST POP PUSH2 0x361E DUP2 PUSH8 0xFFFFFFFFFFFFFFFF AND PUSH1 0x8 DUP6 PUSH2 0x3A62 SWAP1 SWAP3 SWAP2 SWAP1 PUSH4 0xFFFFFFFF AND JUMP JUMPDEST POP JUMPDEST JUMPDEST JUMPDEST JUMPDEST POP POP POP JUMP JUMPDEST PUSH2 0x3630 PUSH2 0x3E45 JUMP JUMPDEST PUSH2 0x3642 DUP4 DUP5 PUSH1 0x0 ADD MLOAD MLOAD DUP5 DUP6 MLOAD PUSH2 0x3A84 JUMP JUMPDEST SWAP1 POP SWAP3 SWAP2 POP POP JUMP JUMPDEST PUSH1 0x0 ADDRESS PUSH1 0xD SLOAD PUSH1 0x40 MLOAD PUSH1 0x20 ADD DUP1 DUP4 PUSH20 0xFFFFFFFFFFFFFFFFFFFFFFFFFFFFFFFFFFFFFFFF AND PUSH1 0x60 SHL DUP2 MSTORE PUSH1 0x14 ADD DUP3 DUP2 MSTORE PUSH1 0x20 ADD SWAP3 POP POP POP PUSH1 0x40 MLOAD PUSH1 0x20 DUP2 DUP4 SUB SUB DUP2 MSTORE SWAP1 PUSH1 0x40 MSTORE DUP1 MLOAD SWAP1 PUSH1 0x20 ADD KECCAK256 SWAP1 POP PUSH1 0xD SLOAD DUP6 PUSH1 0x60 ADD DUP2 DUP2 MSTORE POP POP DUP6 PUSH1 0xE PUSH1 0x0 DUP4 DUP2 MSTORE PUSH1 0x20 ADD SWAP1 DUP2 MSTORE PUSH1 0x20 ADD PUSH1 0x0 KECCAK256 PUSH1 0x0 PUSH2 0x100 EXP DUP2 SLOAD DUP2 PUSH20 0xFFFFFFFFFFFFFFFFFFFFFFFFFFFFFFFFFFFFFFFF MUL NOT AND SWAP1 DUP4 PUSH20 0xFFFFFFFFFFFFFFFFFFFFFFFFFFFFFFFFFFFFFFFF AND MUL OR SWAP1 SSTORE POP DUP1 PUSH32 0xB5E6E01E79F91267DC17B4E6314D5D4D03593D2CEEE0FBB452B750BD70EA5AF9 PUSH1 0x40 MLOAD PUSH1 0x40 MLOAD DUP1 SWAP2 SUB SWAP1 LOG2 PUSH1 0x0 DUP3 PUSH1 0x0 DUP1 DUP9 PUSH1 0x0 ADD MLOAD DUP10 PUSH1 0x20 ADD MLOAD DUP11 PUSH1 0x40 ADD MLOAD DUP12 PUSH1 0x60 ADD MLOAD DUP11 DUP14 PUSH1 0x80 ADD MLOAD PUSH1 0x0 ADD MLOAD PUSH1 0x40 MLOAD PUSH1 0x24 ADD DUP1 DUP10 PUSH20 0xFFFFFFFFFFFFFFFFFFFFFFFFFFFFFFFFFFFFFFFF AND DUP2 MSTORE PUSH1 0x20 ADD DUP9 DUP2 MSTORE PUSH1 0x20 ADD DUP8 DUP2 MSTORE PUSH1 0x20 ADD DUP7 PUSH20 0xFFFFFFFFFFFFFFFFFFFFFFFFFFFFFFFFFFFFFFFF AND DUP2 MSTORE PUSH1 0x20 ADD DUP6 PUSH28 0xFFFFFFFFFFFFFFFFFFFFFFFFFFFFFFFFFFFFFFFFFFFFFFFFFFFFFFFF NOT AND DUP2 MSTORE PUSH1 0x20 ADD DUP5 DUP2 MSTORE PUSH1 0x20 ADD DUP4 DUP2 MSTORE PUSH1 0x20 ADD DUP1 PUSH1 0x20 ADD DUP3 DUP2 SUB DUP3 MSTORE DUP4 DUP2 DUP2 MLOAD DUP2 MSTORE PUSH1 0x20 ADD SWAP2 POP DUP1 MLOAD SWAP1 PUSH1 0x20 ADD SWAP1 DUP1 DUP4 DUP4 PUSH1 0x0 JUMPDEST DUP4 DUP2 LT ISZERO PUSH2 0x37FF JUMPI DUP1 DUP3 ADD MLOAD DUP2 DUP5 ADD MSTORE PUSH1 0x20 DUP2 ADD SWAP1 POP PUSH2 0x37E4 JUMP JUMPDEST POP POP POP POP SWAP1 POP SWAP1 DUP2 ADD SWAP1 PUSH1 0x1F AND DUP1 ISZERO PUSH2 0x382C JUMPI DUP1 DUP3 SUB DUP1 MLOAD PUSH1 0x1 DUP4 PUSH1 0x20 SUB PUSH2 0x100 EXP SUB NOT AND DUP2 MSTORE PUSH1 0x20 ADD SWAP2 POP JUMPDEST POP SWAP10 POP POP POP POP POP POP POP POP POP POP PUSH1 0x40 MLOAD PUSH1 0x20 DUP2 DUP4 SUB SUB DUP2 MSTORE SWAP1 PUSH1 0x40 MSTORE SWAP1 PUSH28 0xFFFFFFFFFFFFFFFFFFFFFFFFFFFFFFFFFFFFFFFFFFFFFFFFFFFFFFFF NOT AND PUSH1 0x20 DUP3 ADD DUP1 MLOAD PUSH28 0xFFFFFFFFFFFFFFFFFFFFFFFFFFFFFFFFFFFFFFFFFFFFFFFFFFFFFFFF DUP4 DUP2 DUP4 AND OR DUP4 MSTORE POP POP POP POP SWAP1 POP PUSH1 0xB PUSH1 0x0 SWAP1 SLOAD SWAP1 PUSH2 0x100 EXP SWAP1 DIV PUSH20 0xFFFFFFFFFFFFFFFFFFFFFFFFFFFFFFFFFFFFFFFF AND PUSH20 0xFFFFFFFFFFFFFFFFFFFFFFFFFFFFFFFFFFFFFFFF AND PUSH4 0x4000AEA0 DUP9 DUP8 DUP5 PUSH1 0x40 MLOAD DUP5 PUSH4 0xFFFFFFFF AND PUSH1 0xE0 SHL DUP2 MSTORE PUSH1 0x4 ADD DUP1 DUP5 PUSH20 0xFFFFFFFFFFFFFFFFFFFFFFFFFFFFFFFFFFFFFFFF AND DUP2 MSTORE PUSH1 0x20 ADD DUP4 DUP2 MSTORE PUSH1 0x20 ADD DUP1 PUSH1 0x20 ADD DUP3 DUP2 SUB DUP3 MSTORE DUP4 DUP2 DUP2 MLOAD DUP2 MSTORE PUSH1 0x20 ADD SWAP2 POP DUP1 MLOAD SWAP1 PUSH1 0x20 ADD SWAP1 DUP1 DUP4 DUP4 PUSH1 0x0 JUMPDEST DUP4 DUP2 LT ISZERO PUSH2 0x3949 JUMPI DUP1 DUP3 ADD MLOAD DUP2 DUP5 ADD MSTORE PUSH1 0x20 DUP2 ADD SWAP1 POP PUSH2 0x392E JUMP JUMPDEST POP POP POP POP SWAP1 POP SWAP1 DUP2 ADD SWAP1 PUSH1 0x1F AND DUP1 ISZERO PUSH2 0x3976 JUMPI DUP1 DUP3 SUB DUP1 MLOAD PUSH1 0x1 DUP4 PUSH1 0x20 SUB PUSH2 0x100 EXP SUB NOT AND DUP2 MSTORE PUSH1 0x20 ADD SWAP2 POP JUMPDEST POP SWAP5 POP POP POP POP POP PUSH1 0x20 PUSH1 0x40 MLOAD DUP1 DUP4 SUB DUP2 PUSH1 0x0 DUP8 DUP1 EXTCODESIZE ISZERO DUP1 ISZERO PUSH2 0x3997 JUMPI PUSH1 0x0 DUP1 REVERT JUMPDEST POP GAS CALL ISZERO DUP1 ISZERO PUSH2 0x39AB JUMPI RETURNDATASIZE PUSH1 0x0 DUP1 RETURNDATACOPY RETURNDATASIZE PUSH1 0x0 REVERT JUMPDEST POP POP POP POP PUSH1 0x40 MLOAD RETURNDATASIZE PUSH1 0x20 DUP2 LT ISZERO PUSH2 0x39C1 JUMPI PUSH1 0x0 DUP1 REVERT JUMPDEST DUP2 ADD SWAP1 DUP1 DUP1 MLOAD SWAP1 PUSH1 0x20 ADD SWAP1 SWAP3 SWAP2 SWAP1 POP POP POP PUSH2 0x3A27 JUMPI PUSH1 0x40 MLOAD PUSH32 0x8C379A000000000000000000000000000000000000000000000000000000000 DUP2 MSTORE PUSH1 0x4 ADD DUP1 DUP1 PUSH1 0x20 ADD DUP3 DUP2 SUB DUP3 MSTORE PUSH1 0x23 DUP2 MSTORE PUSH1 0x20 ADD DUP1 PUSH2 0x4C66 PUSH1 0x23 SWAP2 CODECOPY PUSH1 0x40 ADD SWAP2 POP POP PUSH1 0x40 MLOAD DUP1 SWAP2 SUB SWAP1 REVERT JUMPDEST PUSH1 0x1 PUSH1 0xD PUSH1 0x0 DUP3 DUP3 SLOAD ADD SWAP3 POP POP DUP2 SWAP1 SSTORE POP POP SWAP6 SWAP5 POP POP POP POP POP JUMP JUMPDEST PUSH2 0x3A4A PUSH2 0x3E45 JUMP JUMPDEST PUSH2 0x3A5A DUP4 DUP5 PUSH1 0x0 ADD MLOAD MLOAD DUP5 PUSH2 0x3B3D JUMP JUMPDEST SWAP1 POP SWAP3 SWAP2 POP POP JUMP JUMPDEST PUSH2 0x3A6A PUSH2 0x3E45 JUMP JUMPDEST PUSH2 0x3A7B DUP5 DUP6 PUSH1 0x0 ADD MLOAD MLOAD DUP6 DUP6 PUSH2 0x3B8B JUMP JUMPDEST SWAP1 POP SWAP4 SWAP3 POP POP POP JUMP JUMPDEST PUSH2 0x3A8C PUSH2 0x3E45 JUMP JUMPDEST DUP3 MLOAD DUP3 GT ISZERO PUSH2 0x3A9A JUMPI PUSH1 0x0 DUP1 REVERT JUMPDEST DUP5 PUSH1 0x20 ADD MLOAD DUP3 DUP6 ADD GT ISZERO PUSH2 0x3AC5 JUMPI PUSH2 0x3AC4 DUP6 PUSH1 0x2 PUSH2 0x3ABE DUP9 PUSH1 0x20 ADD MLOAD DUP9 DUP8 ADD PUSH2 0x3BEC JUMP JUMPDEST MUL PUSH2 0x3C08 JUMP JUMPDEST JUMPDEST PUSH1 0x0 DUP1 DUP7 MLOAD DUP1 MLOAD DUP8 PUSH1 0x20 DUP4 ADD ADD SWAP4 POP DUP1 DUP9 DUP8 ADD GT ISZERO PUSH2 0x3AE4 JUMPI DUP8 DUP7 ADD DUP3 MSTORE JUMPDEST PUSH1 0x20 DUP8 ADD SWAP3 POP POP POP JUMPDEST PUSH1 0x20 DUP5 LT PUSH2 0x3B10 JUMPI DUP1 MLOAD DUP3 MSTORE PUSH1 0x20 DUP3 ADD SWAP2 POP PUSH1 0x20 DUP2 ADD SWAP1 POP PUSH1 0x20 DUP5 SUB SWAP4 POP PUSH2 0x3AED JUMP JUMPDEST PUSH1 0x0 PUSH1 0x1 DUP6 PUSH1 0x20 SUB PUSH2 0x100 EXP SUB SWAP1 POP DUP1 NOT DUP3 MLOAD AND DUP2 DUP5 MLOAD AND DUP2 DUP2 OR DUP6 MSTORE POP POP DUP8 SWAP4 POP POP POP POP SWAP5 SWAP4 POP POP POP POP JUMP JUMPDEST PUSH2 0x3B45 PUSH2 0x3E45 JUMP JUMPDEST DUP4 PUSH1 0x20 ADD MLOAD DUP4 LT PUSH2 0x3B62 JUMPI PUSH2 0x3B61 DUP5 PUSH1 0x2 DUP7 PUSH1 0x20 ADD MLOAD MUL PUSH2 0x3C08 JUMP JUMPDEST JUMPDEST DUP4 MLOAD DUP1 MLOAD PUSH1 0x20 DUP6 DUP4 ADD ADD DUP5 DUP2 MSTORE8 DUP2 DUP7 EQ ISZERO PUSH2 0x3B7E JUMPI PUSH1 0x1 DUP3 ADD DUP4 MSTORE JUMPDEST POP POP POP DUP4 SWAP1 POP SWAP4 SWAP3 POP POP POP JUMP JUMPDEST PUSH2 0x3B93 PUSH2 0x3E45 JUMP JUMPDEST DUP5 PUSH1 0x20 ADD MLOAD DUP5 DUP4 ADD GT ISZERO PUSH2 0x3BB1 JUMPI PUSH2 0x3BB0 DUP6 PUSH1 0x2 DUP7 DUP6 ADD MUL PUSH2 0x3C08 JUMP JUMPDEST JUMPDEST PUSH1 0x0 PUSH1 0x1 DUP4 PUSH2 0x100 EXP SUB SWAP1 POP DUP6 MLOAD DUP4 DUP7 DUP3 ADD ADD DUP6 DUP4 NOT DUP3 MLOAD AND OR DUP2 MSTORE DUP2 MLOAD DUP6 DUP9 ADD GT ISZERO PUSH2 0x3BDE JUMPI DUP5 DUP8 ADD DUP3 MSTORE JUMPDEST POP POP DUP6 SWAP2 POP POP SWAP5 SWAP4 POP POP POP POP JUMP JUMPDEST PUSH1 0x0 DUP2 DUP4 GT ISZERO PUSH2 0x3BFE JUMPI DUP3 SWAP1 POP PUSH2 0x3C02 JUMP JUMPDEST DUP2 SWAP1 POP JUMPDEST SWAP3 SWAP2 POP POP JUMP JUMPDEST PUSH1 0x0 DUP3 PUSH1 0x0 ADD MLOAD SWAP1 POP PUSH2 0x3C1B DUP4 DUP4 PUSH2 0x344F JUMP JUMPDEST POP PUSH2 0x3C26 DUP4 DUP3 PUSH2 0x3628 JUMP JUMPDEST POP POP POP POP JUMP JUMPDEST DUP3 DUP1 SLOAD PUSH1 0x1 DUP2 PUSH1 0x1 AND ISZERO PUSH2 0x100 MUL SUB AND PUSH1 0x2 SWAP1 DIV SWAP1 PUSH1 0x0 MSTORE PUSH1 0x20 PUSH1 0x0 KECCAK256 SWAP1 PUSH1 0x1F ADD PUSH1 0x20 SWAP1 DIV DUP2 ADD SWAP3 DUP3 PUSH2 0x3C62 JUMPI PUSH1 0x0 DUP6 SSTORE PUSH2 0x3CA9 JUMP JUMPDEST DUP3 PUSH1 0x1F LT PUSH2 0x3C7B JUMPI DUP1 MLOAD PUSH1 0xFF NOT AND DUP4 DUP1 ADD OR DUP6 SSTORE PUSH2 0x3CA9 JUMP JUMPDEST DUP3 DUP1 ADD PUSH1 0x1 ADD DUP6 SSTORE DUP3 ISZERO PUSH2 0x3CA9 JUMPI SWAP2 DUP3 ADD JUMPDEST DUP3 DUP2 GT ISZERO PUSH2 0x3CA8 JUMPI DUP3 MLOAD DUP3 SSTORE SWAP2 PUSH1 0x20 ADD SWAP2 SWAP1 PUSH1 0x1 ADD SWAP1 PUSH2 0x3C8D JUMP JUMPDEST JUMPDEST POP SWAP1 POP PUSH2 0x3CB6 SWAP2 SWAP1 PUSH2 0x3E5F JUMP JUMPDEST POP SWAP1 JUMP JUMPDEST POP DUP1 SLOAD PUSH1 0x1 DUP2 PUSH1 0x1 AND ISZERO PUSH2 0x100 MUL SUB AND PUSH1 0x2 SWAP1 DIV PUSH1 0x0 DUP3 SSTORE DUP1 PUSH1 0x1F LT PUSH2 0x3CE0 JUMPI POP PUSH2 0x3CFF JUMP JUMPDEST PUSH1 0x1F ADD PUSH1 0x20 SWAP1 DIV SWAP1 PUSH1 0x0 MSTORE PUSH1 0x20 PUSH1 0x0 KECCAK256 SWAP1 DUP2 ADD SWAP1 PUSH2 0x3CFE SWAP2 SWAP1 PUSH2 0x3E5F JUMP JUMPDEST JUMPDEST POP JUMP JUMPDEST POP DUP1 SLOAD PUSH1 0x1 DUP2 PUSH1 0x1 AND ISZERO PUSH2 0x100 MUL SUB AND PUSH1 0x2 SWAP1 DIV PUSH1 0x0 DUP3 SSTORE DUP1 PUSH1 0x1F LT PUSH2 0x3D28 JUMPI POP PUSH2 0x3D47 JUMP JUMPDEST PUSH1 0x1F ADD PUSH1 0x20 SWAP1 DIV SWAP1 PUSH1 0x0 MSTORE PUSH1 0x20 PUSH1 0x0 KECCAK256 SWAP1 DUP2 ADD SWAP1 PUSH2 0x3D46 SWAP2 SWAP1 PUSH2 0x3E5F JUMP JUMPDEST JUMPDEST POP JUMP JUMPDEST DUP3 DUP1 SLOAD PUSH1 0x1 DUP2 PUSH1 0x1 AND ISZERO PUSH2 0x100 MUL SUB AND PUSH1 0x2 SWAP1 DIV SWAP1 PUSH1 0x0 MSTORE PUSH1 0x20 PUSH1 0x0 KECCAK256 SWAP1 PUSH1 0x1F ADD PUSH1 0x20 SWAP1 DIV DUP2 ADD SWAP3 DUP3 PUSH2 0x3D80 JUMPI PUSH1 0x0 DUP6 SSTORE PUSH2 0x3DC7 JUMP JUMPDEST DUP3 PUSH1 0x1F LT PUSH2 0x3D99 JUMPI DUP1 CALLDATALOAD PUSH1 0xFF NOT AND DUP4 DUP1 ADD OR DUP6 SSTORE PUSH2 0x3DC7 JUMP JUMPDEST DUP3 DUP1 ADD PUSH1 0x1 ADD DUP6 SSTORE DUP3 ISZERO PUSH2 0x3DC7 JUMPI SWAP2 DUP3 ADD JUMPDEST DUP3 DUP2 GT ISZERO PUSH2 0x3DC6 JUMPI DUP3 CALLDATALOAD DUP3 SSTORE SWAP2 PUSH1 0x20 ADD SWAP2 SWAP1 PUSH1 0x1 ADD SWAP1 PUSH2 0x3DAB JUMP JUMPDEST JUMPDEST POP SWAP1 POP PUSH2 0x3DD4 SWAP2 SWAP1 PUSH2 0x3E5F JUMP JUMPDEST POP SWAP1 JUMP JUMPDEST PUSH1 0x40 MLOAD DUP1 PUSH1 0xA0 ADD PUSH1 0x40 MSTORE DUP1 PUSH1 0x0 DUP1 NOT AND DUP2 MSTORE PUSH1 0x20 ADD PUSH1 0x0 PUSH20 0xFFFFFFFFFFFFFFFFFFFFFFFFFFFFFFFFFFFFFFFF AND DUP2 MSTORE PUSH1 0x20 ADD PUSH1 0x0 PUSH28 0xFFFFFFFFFFFFFFFFFFFFFFFFFFFFFFFFFFFFFFFFFFFFFFFFFFFFFFFF NOT AND DUP2 MSTORE PUSH1 0x20 ADD PUSH1 0x0 DUP2 MSTORE PUSH1 0x20 ADD PUSH2 0x3E3F PUSH2 0x3E45 JUMP JUMPDEST DUP2 MSTORE POP SWAP1 JUMP JUMPDEST PUSH1 0x40 MLOAD DUP1 PUSH1 0x40 ADD PUSH1 0x40 MSTORE DUP1 PUSH1 0x60 DUP2 MSTORE PUSH1 0x20 ADD PUSH1 0x0 DUP2 MSTORE POP SWAP1 JUMP JUMPDEST JUMPDEST DUP1 DUP3 GT ISZERO PUSH2 0x3E78 JUMPI PUSH1 0x0 DUP2 PUSH1 0x0 SWAP1 SSTORE POP PUSH1 0x1 ADD PUSH2 0x3E60 JUMP JUMPDEST POP SWAP1 JUMP JUMPDEST PUSH1 0x0 PUSH2 0x3E8F PUSH2 0x3E8A DUP5 PUSH2 0x4A5B JUMP JUMPDEST PUSH2 0x4A2A JUMP JUMPDEST SWAP1 POP DUP3 DUP2 MSTORE PUSH1 0x20 DUP2 ADD DUP5 DUP5 DUP5 ADD GT ISZERO PUSH2 0x3EA7 JUMPI PUSH1 0x0 DUP1 REVERT JUMPDEST PUSH2 0x3EB2 DUP5 DUP3 DUP6 PUSH2 0x4B32 JUMP JUMPDEST POP SWAP4 SWAP3 POP POP POP JUMP JUMPDEST PUSH1 0x0 PUSH2 0x3ECD PUSH2 0x3EC8 DUP5 PUSH2 0x4A5B JUMP JUMPDEST PUSH2 0x4A2A JUMP JUMPDEST SWAP1 POP DUP3 DUP2 MSTORE PUSH1 0x20 DUP2 ADD DUP5 DUP5 DUP5 ADD GT ISZERO PUSH2 0x3EE5 JUMPI PUSH1 0x0 DUP1 REVERT JUMPDEST PUSH2 0x3EF0 DUP5 DUP3 DUP6 PUSH2 0x4B41 JUMP JUMPDEST POP SWAP4 SWAP3 POP POP POP JUMP JUMPDEST PUSH1 0x0 DUP2 CALLDATALOAD SWAP1 POP PUSH2 0x3F07 DUP2 PUSH2 0x4BB8 JUMP JUMPDEST SWAP3 SWAP2 POP POP JUMP JUMPDEST PUSH1 0x0 DUP2 MLOAD SWAP1 POP PUSH2 0x3F1C DUP2 PUSH2 0x4BCF JUMP JUMPDEST SWAP3 SWAP2 POP POP JUMP JUMPDEST PUSH1 0x0 DUP2 CALLDATALOAD SWAP1 POP PUSH2 0x3F31 DUP2 PUSH2 0x4BE6 JUMP JUMPDEST SWAP3 SWAP2 POP POP JUMP JUMPDEST PUSH1 0x0 DUP1 DUP4 PUSH1 0x1F DUP5 ADD SLT PUSH2 0x3F49 JUMPI PUSH1 0x0 DUP1 REVERT JUMPDEST DUP3 CALLDATALOAD SWAP1 POP PUSH8 0xFFFFFFFFFFFFFFFF DUP2 GT ISZERO PUSH2 0x3F62 JUMPI PUSH1 0x0 DUP1 REVERT JUMPDEST PUSH1 0x20 DUP4 ADD SWAP2 POP DUP4 PUSH1 0x1 DUP3 MUL DUP4 ADD GT ISZERO PUSH2 0x3F7A JUMPI PUSH1 0x0 DUP1 REVERT JUMPDEST SWAP3 POP SWAP3 SWAP1 POP JUMP JUMPDEST PUSH1 0x0 DUP1 DUP4 PUSH1 0x1F DUP5 ADD SLT PUSH2 0x3F93 JUMPI PUSH1 0x0 DUP1 REVERT JUMPDEST DUP3 CALLDATALOAD SWAP1 POP PUSH8 0xFFFFFFFFFFFFFFFF DUP2 GT ISZERO PUSH2 0x3FAC JUMPI PUSH1 0x0 DUP1 REVERT JUMPDEST PUSH1 0x20 DUP4 ADD SWAP2 POP DUP4 PUSH1 0x1 DUP3 MUL DUP4 ADD GT ISZERO PUSH2 0x3FC4 JUMPI PUSH1 0x0 DUP1 REVERT JUMPDEST SWAP3 POP SWAP3 SWAP1 POP JUMP JUMPDEST PUSH1 0x0 DUP3 PUSH1 0x1F DUP4 ADD SLT PUSH2 0x3FDC JUMPI PUSH1 0x0 DUP1 REVERT JUMPDEST DUP2 CALLDATALOAD PUSH2 0x3FEC DUP5 DUP3 PUSH1 0x20 DUP7 ADD PUSH2 0x3E7C JUMP JUMPDEST SWAP2 POP POP SWAP3 SWAP2 POP POP JUMP JUMPDEST PUSH1 0x0 DUP3 PUSH1 0x1F DUP4 ADD SLT PUSH2 0x4006 JUMPI PUSH1 0x0 DUP1 REVERT JUMPDEST DUP2 MLOAD PUSH2 0x4016 DUP5 DUP3 PUSH1 0x20 DUP7 ADD PUSH2 0x3EBA JUMP JUMPDEST SWAP2 POP POP SWAP3 SWAP2 POP POP JUMP JUMPDEST PUSH1 0x0 DUP2 CALLDATALOAD SWAP1 POP PUSH2 0x402E DUP2 PUSH2 0x4BFD JUMP JUMPDEST SWAP3 SWAP2 POP POP JUMP JUMPDEST PUSH1 0x0 DUP2 MLOAD SWAP1 POP PUSH2 0x4043 DUP2 PUSH2 0x4BFD JUMP JUMPDEST SWAP3 SWAP2 POP POP JUMP JUMPDEST PUSH1 0x0 PUSH1 0x20 DUP3 DUP5 SUB SLT ISZERO PUSH2 0x405B JUMPI PUSH1 0x0 DUP1 REVERT JUMPDEST PUSH1 0x0 PUSH2 0x4069 DUP5 DUP3 DUP6 ADD PUSH2 0x3EF8 JUMP JUMPDEST SWAP2 POP POP SWAP3 SWAP2 POP POP JUMP JUMPDEST PUSH1 0x0 DUP1 PUSH1 0x40 DUP4 DUP6 SUB SLT ISZERO PUSH2 0x4085 JUMPI PUSH1 0x0 DUP1 REVERT JUMPDEST PUSH1 0x0 PUSH2 0x4093 DUP6 DUP3 DUP7 ADD PUSH2 0x3EF8 JUMP JUMPDEST SWAP3 POP POP PUSH1 0x20 PUSH2 0x40A4 DUP6 DUP3 DUP7 ADD PUSH2 0x3EF8 JUMP JUMPDEST SWAP2 POP POP SWAP3 POP SWAP3 SWAP1 POP JUMP JUMPDEST PUSH1 0x0 DUP1 PUSH1 0x0 DUP1 PUSH1 0x0 PUSH1 0xA0 DUP7 DUP9 SUB SLT ISZERO PUSH2 0x40C6 JUMPI PUSH1 0x0 DUP1 REVERT JUMPDEST PUSH1 0x0 PUSH2 0x40D4 DUP9 DUP3 DUP10 ADD PUSH2 0x3EF8 JUMP JUMPDEST SWAP6 POP POP PUSH1 0x20 PUSH2 0x40E5 DUP9 DUP3 DUP10 ADD PUSH2 0x3EF8 JUMP JUMPDEST SWAP5 POP POP PUSH1 0x40 PUSH2 0x40F6 DUP9 DUP3 DUP10 ADD PUSH2 0x3EF8 JUMP JUMPDEST SWAP4 POP POP PUSH1 0x60 PUSH2 0x4107 DUP9 DUP3 DUP10 ADD PUSH2 0x3EF8 JUMP JUMPDEST SWAP3 POP POP PUSH1 0x80 PUSH2 0x4118 DUP9 DUP3 DUP10 ADD PUSH2 0x3F22 JUMP JUMPDEST SWAP2 POP POP SWAP3 SWAP6 POP SWAP3 SWAP6 SWAP1 SWAP4 POP JUMP JUMPDEST PUSH1 0x0 PUSH1 0x20 DUP3 DUP5 SUB SLT ISZERO PUSH2 0x4137 JUMPI PUSH1 0x0 DUP1 REVERT JUMPDEST PUSH1 0x0 PUSH2 0x4145 DUP5 DUP3 DUP6 ADD PUSH2 0x3F0D JUMP JUMPDEST SWAP2 POP POP SWAP3 SWAP2 POP POP JUMP JUMPDEST PUSH1 0x0 PUSH1 0x20 DUP3 DUP5 SUB SLT ISZERO PUSH2 0x4160 JUMPI PUSH1 0x0 DUP1 REVERT JUMPDEST PUSH1 0x0 PUSH2 0x416E DUP5 DUP3 DUP6 ADD PUSH2 0x3F22 JUMP JUMPDEST SWAP2 POP POP SWAP3 SWAP2 POP POP JUMP JUMPDEST PUSH1 0x0 DUP1 PUSH1 0x40 DUP4 DUP6 SUB SLT ISZERO PUSH2 0x418A JUMPI PUSH1 0x0 DUP1 REVERT JUMPDEST PUSH1 0x0 PUSH2 0x4198 DUP6 DUP3 DUP7 ADD PUSH2 0x3F22 JUMP JUMPDEST SWAP3 POP POP PUSH1 0x20 PUSH2 0x41A9 DUP6 DUP3 DUP7 ADD PUSH2 0x3EF8 JUMP JUMPDEST SWAP2 POP POP SWAP3 POP SWAP3 SWAP1 POP JUMP JUMPDEST PUSH1 0x0 DUP1 PUSH1 0x0 PUSH1 0x40 DUP5 DUP7 SUB SLT ISZERO PUSH2 0x41C8 JUMPI PUSH1 0x0 DUP1 REVERT JUMPDEST PUSH1 0x0 PUSH2 0x41D6 DUP7 DUP3 DUP8 ADD PUSH2 0x3F22 JUMP JUMPDEST SWAP4 POP POP PUSH1 0x20 DUP5 ADD CALLDATALOAD PUSH8 0xFFFFFFFFFFFFFFFF DUP2 GT ISZERO PUSH2 0x41F3 JUMPI PUSH1 0x0 DUP1 REVERT JUMPDEST PUSH2 0x41FF DUP7 DUP3 DUP8 ADD PUSH2 0x3F37 JUMP JUMPDEST SWAP3 POP SWAP3 POP POP SWAP3 POP SWAP3 POP SWAP3 JUMP JUMPDEST PUSH1 0x0 DUP1 PUSH1 0x40 DUP4 DUP6 SUB SLT ISZERO PUSH2 0x421E JUMPI PUSH1 0x0 DUP1 REVERT JUMPDEST PUSH1 0x0 PUSH2 0x422C DUP6 DUP3 DUP7 ADD PUSH2 0x3F22 JUMP JUMPDEST SWAP3 POP POP PUSH1 0x20 PUSH2 0x423D DUP6 DUP3 DUP7 ADD PUSH2 0x401F JUMP JUMPDEST SWAP2 POP POP SWAP3 POP SWAP3 SWAP1 POP JUMP JUMPDEST PUSH1 0x0 DUP1 PUSH1 0x20 DUP4 DUP6 SUB SLT ISZERO PUSH2 0x425A JUMPI PUSH1 0x0 DUP1 REVERT JUMPDEST PUSH1 0x0 DUP4 ADD CALLDATALOAD PUSH8 0xFFFFFFFFFFFFFFFF DUP2 GT ISZERO PUSH2 0x4274 JUMPI PUSH1 0x0 DUP1 REVERT JUMPDEST PUSH2 0x4280 DUP6 DUP3 DUP7 ADD PUSH2 0x3F81 JUMP JUMPDEST SWAP3 POP SWAP3 POP POP SWAP3 POP SWAP3 SWAP1 POP JUMP JUMPDEST PUSH1 0x0 PUSH1 0x20 DUP3 DUP5 SUB SLT ISZERO PUSH2 0x429E JUMPI PUSH1 0x0 DUP1 REVERT JUMPDEST PUSH1 0x0 DUP3 ADD CALLDATALOAD PUSH8 0xFFFFFFFFFFFFFFFF DUP2 GT ISZERO PUSH2 0x42B8 JUMPI PUSH1 0x0 DUP1 REVERT JUMPDEST PUSH2 0x42C4 DUP5 DUP3 DUP6 ADD PUSH2 0x3FCB JUMP JUMPDEST SWAP2 POP POP SWAP3 SWAP2 POP POP JUMP JUMPDEST PUSH1 0x0 DUP1 PUSH1 0x0 DUP1 PUSH1 0x0 PUSH1 0xA0 DUP7 DUP9 SUB SLT ISZERO PUSH2 0x42E5 JUMPI PUSH1 0x0 DUP1 REVERT JUMPDEST PUSH1 0x0 DUP7 ADD MLOAD PUSH8 0xFFFFFFFFFFFFFFFF DUP2 GT ISZERO PUSH2 0x42FF JUMPI PUSH1 0x0 DUP1 REVERT JUMPDEST PUSH2 0x430B DUP9 DUP3 DUP10 ADD PUSH2 0x3FF5 JUMP JUMPDEST SWAP6 POP POP PUSH1 0x20 DUP7 ADD MLOAD PUSH8 0xFFFFFFFFFFFFFFFF DUP2 GT ISZERO PUSH2 0x4328 JUMPI PUSH1 0x0 DUP1 REVERT JUMPDEST PUSH2 0x4334 DUP9 DUP3 DUP10 ADD PUSH2 0x3FF5 JUMP JUMPDEST SWAP5 POP POP PUSH1 0x40 DUP7 ADD MLOAD PUSH8 0xFFFFFFFFFFFFFFFF DUP2 GT ISZERO PUSH2 0x4351 JUMPI PUSH1 0x0 DUP1 REVERT JUMPDEST PUSH2 0x435D DUP9 DUP3 DUP10 ADD PUSH2 0x3FF5 JUMP JUMPDEST SWAP4 POP POP PUSH1 0x60 PUSH2 0x436E DUP9 DUP3 DUP10 ADD PUSH2 0x4034 JUMP JUMPDEST SWAP3 POP POP PUSH1 0x80 PUSH2 0x437F DUP9 DUP3 DUP10 ADD PUSH2 0x3F0D JUMP JUMPDEST SWAP2 POP POP SWAP3 SWAP6 POP SWAP3 SWAP6 SWAP1 SWAP4 POP JUMP JUMPDEST PUSH1 0x0 PUSH1 0x20 DUP3 DUP5 SUB SLT ISZERO PUSH2 0x439E JUMPI PUSH1 0x0 DUP1 REVERT JUMPDEST PUSH1 0x0 PUSH2 0x43AC DUP5 DUP3 DUP6 ADD PUSH2 0x401F JUMP JUMPDEST SWAP2 POP POP SWAP3 SWAP2 POP POP JUMP JUMPDEST PUSH1 0x0 PUSH1 0x20 DUP3 DUP5 SUB SLT ISZERO PUSH2 0x43C7 JUMPI PUSH1 0x0 DUP1 REVERT JUMPDEST PUSH1 0x0 PUSH2 0x43D5 DUP5 DUP3 DUP6 ADD PUSH2 0x4034 JUMP JUMPDEST SWAP2 POP POP SWAP3 SWAP2 POP POP JUMP JUMPDEST PUSH2 0x43EF PUSH2 0x43EA DUP3 PUSH2 0x4AE0 JUMP JUMPDEST PUSH2 0x4B74 JUMP JUMPDEST DUP3 MSTORE POP POP JUMP JUMPDEST PUSH2 0x43FE DUP2 PUSH2 0x4ACE JUMP JUMPDEST DUP3 MSTORE POP POP JUMP JUMPDEST PUSH2 0x440D DUP2 PUSH2 0x4AF2 JUMP JUMPDEST DUP3 MSTORE POP POP JUMP JUMPDEST PUSH2 0x441C DUP2 PUSH2 0x4AFE JUMP JUMPDEST DUP3 MSTORE POP POP JUMP JUMPDEST PUSH1 0x0 PUSH2 0x442E DUP4 DUP6 PUSH2 0x4AA1 JUMP JUMPDEST SWAP4 POP PUSH2 0x443B DUP4 DUP6 DUP5 PUSH2 0x4B32 JUMP JUMPDEST PUSH2 0x4444 DUP4 PUSH2 0x4B9A JUMP JUMPDEST DUP5 ADD SWAP1 POP SWAP4 SWAP3 POP POP POP JUMP JUMPDEST PUSH1 0x0 PUSH2 0x445A DUP3 PUSH2 0x4A8B JUMP JUMPDEST PUSH2 0x4464 DUP2 DUP6 PUSH2 0x4AA1 JUMP JUMPDEST SWAP4 POP PUSH2 0x4474 DUP2 DUP6 PUSH1 0x20 DUP7 ADD PUSH2 0x4B41 JUMP JUMPDEST PUSH2 0x447D DUP2 PUSH2 0x4B9A JUMP JUMPDEST DUP5 ADD SWAP2 POP POP SWAP3 SWAP2 POP POP JUMP JUMPDEST PUSH1 0x0 PUSH2 0x4493 DUP3 PUSH2 0x4A96 JUMP JUMPDEST PUSH2 0x449D DUP2 DUP6 PUSH2 0x4AB2 JUMP JUMPDEST SWAP4 POP PUSH2 0x44AD DUP2 DUP6 PUSH1 0x20 DUP7 ADD PUSH2 0x4B41 JUMP JUMPDEST PUSH2 0x44B6 DUP2 PUSH2 0x4B9A JUMP JUMPDEST DUP5 ADD SWAP2 POP POP SWAP3 SWAP2 POP POP JUMP JUMPDEST PUSH1 0x0 PUSH2 0x44CC DUP3 PUSH2 0x4A96 JUMP JUMPDEST PUSH2 0x44D6 DUP2 DUP6 PUSH2 0x4AC3 JUMP JUMPDEST SWAP4 POP PUSH2 0x44E6 DUP2 DUP6 PUSH1 0x20 DUP7 ADD PUSH2 0x4B41 JUMP JUMPDEST DUP1 DUP5 ADD SWAP2 POP POP SWAP3 SWAP2 POP POP JUMP JUMPDEST PUSH1 0x0 PUSH2 0x44FF PUSH1 0x1A DUP4 PUSH2 0x4AB2 JUMP JUMPDEST SWAP2 POP PUSH32 0x564552494649434154494F4E5F4841534E545F53544152544544000000000000 PUSH1 0x0 DUP4 ADD MSTORE PUSH1 0x20 DUP3 ADD SWAP1 POP SWAP2 SWAP1 POP JUMP JUMPDEST PUSH1 0x0 PUSH2 0x453F PUSH1 0x18 DUP4 PUSH2 0x4AB2 JUMP JUMPDEST SWAP2 POP PUSH32 0x414444524553535F414C52454144595F56455249464945440000000000000000 PUSH1 0x0 DUP4 ADD MSTORE PUSH1 0x20 DUP3 ADD SWAP1 POP SWAP2 SWAP1 POP JUMP JUMPDEST PUSH1 0x0 PUSH2 0x457F PUSH1 0xC DUP4 PUSH2 0x4AB2 JUMP JUMPDEST SWAP2 POP PUSH32 0x4D495353494E475F524F4C450000000000000000000000000000000000000000 PUSH1 0x0 DUP4 ADD MSTORE PUSH1 0x20 DUP3 ADD SWAP1 POP SWAP2 SWAP1 POP JUMP JUMPDEST PUSH1 0x0 PUSH2 0x45BF PUSH1 0x21 DUP4 PUSH2 0x4AB2 JUMP JUMPDEST SWAP2 POP PUSH32 0x416D61434C436C69656E743A205265717565737420566572696669636174696F PUSH1 0x0 DUP4 ADD MSTORE PUSH32 0x6E00000000000000000000000000000000000000000000000000000000000000 PUSH1 0x20 DUP4 ADD MSTORE PUSH1 0x40 DUP3 ADD SWAP1 POP SWAP2 SWAP1 POP JUMP JUMPDEST PUSH1 0x0 PUSH2 0x4625 PUSH1 0x20 DUP4 PUSH2 0x4AB2 JUMP JUMPDEST SWAP2 POP PUSH32 0x545749545445525F555345524E414D455F414C52454144595F434C41494D4544 PUSH1 0x0 DUP4 ADD MSTORE PUSH1 0x20 DUP3 ADD SWAP1 POP SWAP2 SWAP1 POP JUMP JUMPDEST PUSH1 0x0 PUSH2 0x4665 PUSH1 0x15 DUP4 PUSH2 0x4AB2 JUMP JUMPDEST SWAP2 POP PUSH32 0x506C6561736520636C61696D537562446F6D61696E0000000000000000000000 PUSH1 0x0 DUP4 ADD MSTORE PUSH1 0x20 DUP3 ADD SWAP1 POP SWAP2 SWAP1 POP JUMP JUMPDEST PUSH1 0x0 PUSH2 0x46A5 PUSH1 0x12 DUP4 PUSH2 0x4AB2 JUMP JUMPDEST SWAP2 POP PUSH32 0x554E41424C455F544F5F5452414E534645520000000000000000000000000000 PUSH1 0x0 DUP4 ADD MSTORE PUSH1 0x20 DUP3 ADD SWAP1 POP SWAP2 SWAP1 POP JUMP JUMPDEST PUSH1 0x0 PUSH2 0x46E5 PUSH1 0x0 DUP4 PUSH2 0x4AB2 JUMP JUMPDEST SWAP2 POP PUSH1 0x0 DUP3 ADD SWAP1 POP SWAP2 SWAP1 POP JUMP JUMPDEST PUSH2 0x46FB DUP2 PUSH2 0x4B28 JUMP JUMPDEST DUP3 MSTORE POP POP JUMP JUMPDEST PUSH1 0x0 PUSH2 0x470D DUP3 DUP5 PUSH2 0x43DE JUMP JUMPDEST PUSH1 0x14 DUP3 ADD SWAP2 POP DUP2 SWAP1 POP SWAP3 SWAP2 POP POP JUMP JUMPDEST PUSH1 0x0 PUSH2 0x4728 DUP3 DUP5 PUSH2 0x44C1 JUMP JUMPDEST SWAP2 POP DUP2 SWAP1 POP SWAP3 SWAP2 POP POP JUMP JUMPDEST PUSH1 0x0 PUSH1 0x20 DUP3 ADD SWAP1 POP PUSH2 0x4748 PUSH1 0x0 DUP4 ADD DUP5 PUSH2 0x43F5 JUMP JUMPDEST SWAP3 SWAP2 POP POP JUMP JUMPDEST PUSH1 0x0 PUSH1 0x40 DUP3 ADD SWAP1 POP PUSH2 0x4763 PUSH1 0x0 DUP4 ADD DUP6 PUSH2 0x43F5 JUMP JUMPDEST PUSH2 0x4770 PUSH1 0x20 DUP4 ADD DUP5 PUSH2 0x46F2 JUMP JUMPDEST SWAP4 SWAP3 POP POP POP JUMP JUMPDEST PUSH1 0x0 PUSH1 0x20 DUP3 ADD SWAP1 POP PUSH2 0x478C PUSH1 0x0 DUP4 ADD DUP5 PUSH2 0x4404 JUMP JUMPDEST SWAP3 SWAP2 POP POP JUMP JUMPDEST PUSH1 0x0 PUSH1 0x20 DUP3 ADD SWAP1 POP PUSH2 0x47A7 PUSH1 0x0 DUP4 ADD DUP5 PUSH2 0x4413 JUMP JUMPDEST SWAP3 SWAP2 POP POP JUMP JUMPDEST PUSH1 0x0 PUSH1 0xA0 DUP3 ADD SWAP1 POP PUSH2 0x47C2 PUSH1 0x0 DUP4 ADD DUP9 PUSH2 0x4413 JUMP JUMPDEST DUP2 DUP2 SUB PUSH1 0x20 DUP4 ADD MSTORE PUSH2 0x47D4 DUP2 DUP8 PUSH2 0x4488 JUMP JUMPDEST SWAP1 POP DUP2 DUP2 SUB PUSH1 0x40 DUP4 ADD MSTORE PUSH2 0x47E8 DUP2 DUP7 PUSH2 0x4488 JUMP JUMPDEST SWAP1 POP PUSH2 0x47F7 PUSH1 0x60 DUP4 ADD DUP6 PUSH2 0x4404 JUMP JUMPDEST DUP2 DUP2 SUB PUSH1 0x80 DUP4 ADD MSTORE PUSH2 0x4809 DUP2 DUP5 PUSH2 0x444F JUMP JUMPDEST SWAP1 POP SWAP7 SWAP6 POP POP POP POP POP POP JUMP JUMPDEST PUSH1 0x0 PUSH1 0x20 DUP3 ADD SWAP1 POP DUP2 DUP2 SUB PUSH1 0x0 DUP4 ADD MSTORE PUSH2 0x4830 DUP2 DUP5 DUP7 PUSH2 0x4422 JUMP JUMPDEST SWAP1 POP SWAP4 SWAP3 POP POP POP JUMP JUMPDEST PUSH1 0x0 PUSH1 0x20 DUP3 ADD SWAP1 POP DUP2 DUP2 SUB PUSH1 0x0 DUP4 ADD MSTORE PUSH2 0x4853 DUP2 DUP5 PUSH2 0x444F JUMP JUMPDEST SWAP1 POP SWAP3 SWAP2 POP POP JUMP JUMPDEST PUSH1 0x0 PUSH1 0x20 DUP3 ADD SWAP1 POP DUP2 DUP2 SUB PUSH1 0x0 DUP4 ADD MSTORE PUSH2 0x4875 DUP2 DUP5 PUSH2 0x4488 JUMP JUMPDEST SWAP1 POP SWAP3 SWAP2 POP POP JUMP JUMPDEST PUSH1 0x0 PUSH1 0xC0 DUP3 ADD SWAP1 POP DUP2 DUP2 SUB PUSH1 0x0 DUP4 ADD MSTORE PUSH2 0x4897 DUP2 DUP10 PUSH2 0x4488 JUMP JUMPDEST SWAP1 POP DUP2 DUP2 SUB PUSH1 0x20 DUP4 ADD MSTORE PUSH2 0x48AB DUP2 DUP9 PUSH2 0x4488 JUMP JUMPDEST SWAP1 POP DUP2 DUP2 SUB PUSH1 0x40 DUP4 ADD MSTORE PUSH2 0x48BF DUP2 DUP8 PUSH2 0x4488 JUMP JUMPDEST SWAP1 POP DUP2 DUP2 SUB PUSH1 0x60 DUP4 ADD MSTORE PUSH2 0x48D3 DUP2 DUP7 PUSH2 0x4488 JUMP JUMPDEST SWAP1 POP PUSH2 0x48E2 PUSH1 0x80 DUP4 ADD DUP6 PUSH2 0x46F2 JUMP JUMPDEST PUSH2 0x48EF PUSH1 0xA0 DUP4 ADD DUP5 PUSH2 0x4404 JUMP JUMPDEST SWAP8 SWAP7 POP POP POP POP POP POP POP JUMP JUMPDEST PUSH1 0x0 PUSH1 0x40 DUP3 ADD SWAP1 POP DUP2 DUP2 SUB PUSH1 0x0 DUP4 ADD MSTORE PUSH2 0x4914 DUP2 DUP5 PUSH2 0x4488 JUMP JUMPDEST SWAP1 POP DUP2 DUP2 SUB PUSH1 0x20 DUP4 ADD MSTORE PUSH2 0x4927 DUP2 PUSH2 0x46D8 JUMP JUMPDEST SWAP1 POP SWAP3 SWAP2 POP POP JUMP JUMPDEST PUSH1 0x0 PUSH1 0x20 DUP3 ADD SWAP1 POP DUP2 DUP2 SUB PUSH1 0x0 DUP4 ADD MSTORE PUSH2 0x4948 DUP2 PUSH2 0x44F2 JUMP JUMPDEST SWAP1 POP SWAP2 SWAP1 POP JUMP JUMPDEST PUSH1 0x0 PUSH1 0x20 DUP3 ADD SWAP1 POP DUP2 DUP2 SUB PUSH1 0x0 DUP4 ADD MSTORE PUSH2 0x4968 DUP2 PUSH2 0x4532 JUMP JUMPDEST SWAP1 POP SWAP2 SWAP1 POP JUMP JUMPDEST PUSH1 0x0 PUSH1 0x20 DUP3 ADD SWAP1 POP DUP2 DUP2 SUB PUSH1 0x0 DUP4 ADD MSTORE PUSH2 0x4988 DUP2 PUSH2 0x4572 JUMP JUMPDEST SWAP1 POP SWAP2 SWAP1 POP JUMP JUMPDEST PUSH1 0x0 PUSH1 0x20 DUP3 ADD SWAP1 POP DUP2 DUP2 SUB PUSH1 0x0 DUP4 ADD MSTORE PUSH2 0x49A8 DUP2 PUSH2 0x45B2 JUMP JUMPDEST SWAP1 POP SWAP2 SWAP1 POP JUMP JUMPDEST PUSH1 0x0 PUSH1 0x20 DUP3 ADD SWAP1 POP DUP2 DUP2 SUB PUSH1 0x0 DUP4 ADD MSTORE PUSH2 0x49C8 DUP2 PUSH2 0x4618 JUMP JUMPDEST SWAP1 POP SWAP2 SWAP1 POP JUMP JUMPDEST PUSH1 0x0 PUSH1 0x20 DUP3 ADD SWAP1 POP DUP2 DUP2 SUB PUSH1 0x0 DUP4 ADD MSTORE PUSH2 0x49E8 DUP2 PUSH2 0x4658 JUMP JUMPDEST SWAP1 POP SWAP2 SWAP1 POP JUMP JUMPDEST PUSH1 0x0 PUSH1 0x20 DUP3 ADD SWAP1 POP DUP2 DUP2 SUB PUSH1 0x0 DUP4 ADD MSTORE PUSH2 0x4A08 DUP2 PUSH2 0x4698 JUMP JUMPDEST SWAP1 POP SWAP2 SWAP1 POP JUMP JUMPDEST PUSH1 0x0 PUSH1 0x20 DUP3 ADD SWAP1 POP PUSH2 0x4A24 PUSH1 0x0 DUP4 ADD DUP5 PUSH2 0x46F2 JUMP JUMPDEST SWAP3 SWAP2 POP POP JUMP JUMPDEST PUSH1 0x0 PUSH1 0x40 MLOAD SWAP1 POP DUP2 DUP2 ADD DUP2 DUP2 LT PUSH8 0xFFFFFFFFFFFFFFFF DUP3 GT OR ISZERO PUSH2 0x4A51 JUMPI PUSH2 0x4A50 PUSH2 0x4B98 JUMP JUMPDEST JUMPDEST DUP1 PUSH1 0x40 MSTORE POP SWAP2 SWAP1 POP JUMP JUMPDEST PUSH1 0x0 PUSH8 0xFFFFFFFFFFFFFFFF DUP3 GT ISZERO PUSH2 0x4A76 JUMPI PUSH2 0x4A75 PUSH2 0x4B98 JUMP JUMPDEST JUMPDEST PUSH1 0x1F NOT PUSH1 0x1F DUP4 ADD AND SWAP1 POP PUSH1 0x20 DUP2 ADD SWAP1 POP SWAP2 SWAP1 POP JUMP JUMPDEST PUSH1 0x0 DUP2 MLOAD SWAP1 POP SWAP2 SWAP1 POP JUMP JUMPDEST PUSH1 0x0 DUP2 MLOAD SWAP1 POP SWAP2 SWAP1 POP JUMP JUMPDEST PUSH1 0x0 DUP3 DUP3 MSTORE PUSH1 0x20 DUP3 ADD SWAP1 POP SWAP3 SWAP2 POP POP JUMP JUMPDEST PUSH1 0x0 DUP3 DUP3 MSTORE PUSH1 0x20 DUP3 ADD SWAP1 POP SWAP3 SWAP2 POP POP JUMP JUMPDEST PUSH1 0x0 DUP2 SWAP1 POP SWAP3 SWAP2 POP POP JUMP JUMPDEST PUSH1 0x0 PUSH2 0x4AD9 DUP3 PUSH2 0x4B08 JUMP JUMPDEST SWAP1 POP SWAP2 SWAP1 POP JUMP JUMPDEST PUSH1 0x0 PUSH2 0x4AEB DUP3 PUSH2 0x4B08 JUMP JUMPDEST SWAP1 POP SWAP2 SWAP1 POP JUMP JUMPDEST PUSH1 0x0 DUP2 ISZERO ISZERO SWAP1 POP SWAP2 SWAP1 POP JUMP JUMPDEST PUSH1 0x0 DUP2 SWAP1 POP SWAP2 SWAP1 POP JUMP JUMPDEST PUSH1 0x0 PUSH20 0xFFFFFFFFFFFFFFFFFFFFFFFFFFFFFFFFFFFFFFFF DUP3 AND SWAP1 POP SWAP2 SWAP1 POP JUMP JUMPDEST PUSH1 0x0 DUP2 SWAP1 POP SWAP2 SWAP1 POP JUMP JUMPDEST DUP3 DUP2 DUP4 CALLDATACOPY PUSH1 0x0 DUP4 DUP4 ADD MSTORE POP POP POP JUMP JUMPDEST PUSH1 0x0 JUMPDEST DUP4 DUP2 LT ISZERO PUSH2 0x4B5F JUMPI DUP1 DUP3 ADD MLOAD DUP2 DUP5 ADD MSTORE PUSH1 0x20 DUP2 ADD SWAP1 POP PUSH2 0x4B44 JUMP JUMPDEST DUP4 DUP2 GT ISZERO PUSH2 0x4B6E JUMPI PUSH1 0x0 DUP5 DUP5 ADD MSTORE JUMPDEST POP POP POP POP JUMP JUMPDEST PUSH1 0x0 PUSH2 0x4B7F DUP3 PUSH2 0x4B86 JUMP JUMPDEST SWAP1 POP SWAP2 SWAP1 POP JUMP JUMPDEST PUSH1 0x0 PUSH2 0x4B91 DUP3 PUSH2 0x4BAB JUMP JUMPDEST SWAP1 POP SWAP2 SWAP1 POP JUMP JUMPDEST INVALID JUMPDEST PUSH1 0x0 PUSH1 0x1F NOT PUSH1 0x1F DUP4 ADD AND SWAP1 POP SWAP2 SWAP1 POP JUMP JUMPDEST PUSH1 0x0 DUP2 PUSH1 0x60 SHL SWAP1 POP SWAP2 SWAP1 POP JUMP JUMPDEST PUSH2 0x4BC1 DUP2 PUSH2 0x4ACE JUMP JUMPDEST DUP2 EQ PUSH2 0x4BCC JUMPI PUSH1 0x0 DUP1 REVERT JUMPDEST POP JUMP JUMPDEST PUSH2 0x4BD8 DUP2 PUSH2 0x4AF2 JUMP JUMPDEST DUP2 EQ PUSH2 0x4BE3 JUMPI PUSH1 0x0 DUP1 REVERT JUMPDEST POP JUMP JUMPDEST PUSH2 0x4BEF DUP2 PUSH2 0x4AFE JUMP JUMPDEST DUP2 EQ PUSH2 0x4BFA JUMPI PUSH1 0x0 DUP1 REVERT JUMPDEST POP JUMP JUMPDEST PUSH2 0x4C06 DUP2 PUSH2 0x4B28 JUMP JUMPDEST DUP2 EQ PUSH2 0x4C11 JUMPI PUSH1 0x0 DUP1 REVERT JUMPDEST POP JUMP INVALID GASLIMIT PUSH15 0x756D657261626C655365743A20696E PUSH5 0x6578206F75 PUSH21 0x206F6620626F756E6473416363657373436F6E7472 PUSH16 0x6C3A2073656E646572206D7573742062 PUSH6 0x20616E206164 PUSH14 0x696E20746F206772616E74756E61 PUSH3 0x6C6520 PUSH21 0x6F207472616E73666572416E6443616C6C20746F20 PUSH16 0x7261636C65416363657373436F6E7472 PUSH16 0x6C3A2073656E646572206D7573742062 PUSH6 0x20616E206164 PUSH14 0x696E20746F207265766F6B65496E PUSH10 0x7469616C697A61626C65 GASPRICE KECCAK256 PUSH4 0x6F6E7472 PUSH2 0x6374 KECCAK256 PUSH10 0x7320616C726561647920 PUSH10 0x6E697469616C697A6564 MSTORE8 PUSH16 0x75726365206D75737420626520746865 KECCAK256 PUSH16 0x7261636C65206F662074686520726571 PUSH22 0x657374416363657373436F6E74726F6C3A2063616E20 PUSH16 0x6E6C792072656E6F756E636520726F6C PUSH6 0x7320666F7220 PUSH20 0x656C66A26469706673582212208161E55BFE2D40 DUP5 CREATE2 SHR PUSH24 0x38689B42D29CFC786DF9F935806DAF418495F7FD4A64736F PUSH13 0x63430007060033000000000000 "
		},
		"gasEstimates": {
			"creation": {
				"codeDepositCost": "3965400",
				"executionCost": "24527",
				"totalCost": "3989927"
			},
			"external": {
				"DEFAULT_ADMIN_ROLE()": "424",
				"EMPTY_BYTES32()": "447",
				"GOVERNANCE_ROLE()": "461",
				"addressRequestIDs(bytes32)": "1628",
				"balance()": "infinite",
				"cancelRequest()": "infinite",
				"deleteVerification(address)": "infinite",
				"expiration()": "1263",
				"fee()": "1217",
				"fulfillBytes(bytes32,bytes)": "infinite",
				"getEncodedData()": "infinite",
				"getRoleAdmin(bytes32)": "infinite",
				"getRoleMember(bytes32,uint256)": "infinite",
				"getRoleMemberCount(bytes32)": "1636",
				"getSocialIdToAddress(uint256)": "1612",
				"getUsernameToAddress(string)": "infinite",
				"grantRole(bytes32,address)": "infinite",
				"hasRole(bytes32,address)": "infinite",
				"initialize(address,address,address,address,bytes32)": "infinite",
				"isTrustedForwarder(address)": "1623",
				"jobId()": "1218",
				"keccakHash(string)": "infinite",
				"oracle()": "1282",
				"renounceRole(bytes32,address)": "infinite",
				"requestVerification(string)": "infinite",
				"results(address)": "infinite",
				"revokeRole(bytes32,address)": "infinite",
				"setJobId(bytes32)": "infinite",
				"setOracle(address)": "infinite",
				"trustedForwarder()": "1257",
				"updateChainlinkAddress(address)": "infinite",
				"userDetails(address)": "infinite",
				"usernameToAddress(bytes32)": "1607",
				"versionRecipient()": "infinite",
				"withdrawLink(address)": "infinite",
				"withdrawLinkWithAddress(address,address)": "infinite"
			},
			"internal": {
				"_afterVerification(address,bytes calldata)": "infinite",
				"_msgData()": "infinite",
				"_msgSender()": "1041",
				"_verificationStarted(bytes32)": "infinite",
				"decodeData(bytes memory)": "infinite",
				"isPending(bytes32)": "infinite"
			}
		},
		"methodIdentifiers": {
			"DEFAULT_ADMIN_ROLE()": "a217fddf",
			"EMPTY_BYTES32()": "3d14319d",
			"GOVERNANCE_ROLE()": "f36c8f5c",
			"addressRequestIDs(bytes32)": "73d160a2",
			"balance()": "b69ef8a8",
			"cancelRequest()": "851b16f5",
			"deleteVerification(address)": "b227f3be",
			"expiration()": "4665096d",
			"fee()": "ddca3f43",
			"fulfillBytes(bytes32,bytes)": "c2fb8523",
			"getEncodedData()": "acab1aca",
			"getRoleAdmin(bytes32)": "248a9ca3",
			"getRoleMember(bytes32,uint256)": "9010d07c",
			"getRoleMemberCount(bytes32)": "ca15c873",
			"getSocialIdToAddress(uint256)": "0cdcefb6",
			"getUsernameToAddress(string)": "152c1f02",
			"grantRole(bytes32,address)": "2f2ff15d",
			"hasRole(bytes32,address)": "91d14854",
			"initialize(address,address,address,address,bytes32)": "297a3e57",
			"isTrustedForwarder(address)": "572b6c05",
			"jobId()": "c2939d97",
			"keccakHash(string)": "7400f4cc",
			"oracle()": "7dc0d1d0",
			"renounceRole(bytes32,address)": "36568abe",
			"requestVerification(string)": "6cbff42a",
			"results(address)": "ef378f62",
			"revokeRole(bytes32,address)": "d547741f",
			"setJobId(bytes32)": "508954f8",
			"setOracle(address)": "7adbf973",
			"trustedForwarder()": "7da0a877",
			"updateChainlinkAddress(address)": "ab1d3c5a",
			"userDetails(address)": "48dec2a7",
			"usernameToAddress(bytes32)": "2fdf15d5",
			"versionRecipient()": "486ff0cd",
			"withdrawLink(address)": "90e9ca7f",
			"withdrawLinkWithAddress(address,address)": "68acdcdf"
		}
	},
	"abi": [
		{
			"anonymous": false,
			"inputs": [
				{
					"indexed": true,
					"internalType": "bytes32",
					"name": "id",
					"type": "bytes32"
				}
			],
			"name": "ChainlinkCancelled",
			"type": "event"
		},
		{
			"anonymous": false,
			"inputs": [
				{
					"indexed": true,
					"internalType": "bytes32",
					"name": "id",
					"type": "bytes32"
				}
			],
			"name": "ChainlinkFulfilled",
			"type": "event"
		},
		{
			"anonymous": false,
			"inputs": [
				{
					"indexed": true,
					"internalType": "bytes32",
					"name": "id",
					"type": "bytes32"
				}
			],
			"name": "ChainlinkRequested",
			"type": "event"
		},
		{
			"anonymous": false,
			"inputs": [
				{
					"indexed": true,
					"internalType": "address",
					"name": "_address",
					"type": "address"
				}
			],
			"name": "DifferentSubDomainAllowed",
			"type": "event"
		},
		{
			"anonymous": false,
			"inputs": [
				{
					"indexed": true,
					"internalType": "address",
					"name": "useraddress",
					"type": "address"
				},
				{
					"indexed": true,
					"internalType": "bytes32",
					"name": "nodehash",
					"type": "bytes32"
				},
				{
					"indexed": true,
					"internalType": "uint256",
					"name": "twitterId",
					"type": "uint256"
				},
				{
					"indexed": false,
					"internalType": "string",
					"name": "twitterUsername",
					"type": "string"
				},
				{
					"indexed": false,
					"internalType": "string",
					"name": "label",
					"type": "string"
				}
			],
			"name": "DomainRegistered",
			"type": "event"
		},
		{
			"anonymous": false,
			"inputs": [
				{
					"indexed": true,
					"internalType": "address",
					"name": "useraddress",
					"type": "address"
				},
				{
					"indexed": false,
					"internalType": "bytes",
					"name": "data",
					"type": "bytes"
				}
			],
			"name": "RequestErrored",
			"type": "event"
		},
		{
			"anonymous": false,
			"inputs": [
				{
					"indexed": true,
					"internalType": "address",
					"name": "useraddress",
					"type": "address"
				},
				{
					"indexed": false,
					"internalType": "bytes",
					"name": "data",
					"type": "bytes"
				}
			],
			"name": "RequestFulfilled",
			"type": "event"
		},
		{
			"anonymous": false,
			"inputs": [
				{
					"indexed": true,
					"internalType": "bytes32",
					"name": "role",
					"type": "bytes32"
				},
				{
					"indexed": true,
					"internalType": "bytes32",
					"name": "previousAdminRole",
					"type": "bytes32"
				},
				{
					"indexed": true,
					"internalType": "bytes32",
					"name": "newAdminRole",
					"type": "bytes32"
				}
			],
			"name": "RoleAdminChanged",
			"type": "event"
		},
		{
			"anonymous": false,
			"inputs": [
				{
					"indexed": true,
					"internalType": "bytes32",
					"name": "role",
					"type": "bytes32"
				},
				{
					"indexed": true,
					"internalType": "address",
					"name": "account",
					"type": "address"
				},
				{
					"indexed": true,
					"internalType": "address",
					"name": "sender",
					"type": "address"
				}
			],
			"name": "RoleGranted",
			"type": "event"
		},
		{
			"anonymous": false,
			"inputs": [
				{
					"indexed": true,
					"internalType": "bytes32",
					"name": "role",
					"type": "bytes32"
				},
				{
					"indexed": true,
					"internalType": "address",
					"name": "account",
					"type": "address"
				},
				{
					"indexed": true,
					"internalType": "address",
					"name": "sender",
					"type": "address"
				}
			],
			"name": "RoleRevoked",
			"type": "event"
		},
		{
			"inputs": [],
			"name": "DEFAULT_ADMIN_ROLE",
			"outputs": [
				{
					"internalType": "bytes32",
					"name": "",
					"type": "bytes32"
				}
			],
			"stateMutability": "view",
			"type": "function"
		},
		{
			"inputs": [],
			"name": "EMPTY_BYTES32",
			"outputs": [
				{
					"internalType": "bytes32",
					"name": "",
					"type": "bytes32"
				}
			],
			"stateMutability": "view",
			"type": "function"
		},
		{
			"inputs": [],
			"name": "GOVERNANCE_ROLE",
			"outputs": [
				{
					"internalType": "bytes32",
					"name": "",
					"type": "bytes32"
				}
			],
			"stateMutability": "view",
			"type": "function"
		},
		{
			"inputs": [
				{
					"internalType": "bytes32",
					"name": "",
					"type": "bytes32"
				}
			],
			"name": "addressRequestIDs",
			"outputs": [
				{
					"internalType": "address",
					"name": "",
					"type": "address"
				}
			],
			"stateMutability": "view",
			"type": "function"
		},
		{
			"inputs": [],
			"name": "balance",
			"outputs": [
				{
					"internalType": "uint256",
					"name": "",
					"type": "uint256"
				}
			],
			"stateMutability": "view",
			"type": "function"
		},
		{
			"inputs": [],
			"name": "cancelRequest",
			"outputs": [],
			"stateMutability": "nonpayable",
			"type": "function"
		},
		{
			"inputs": [
				{
					"internalType": "address",
					"name": "_ethaddress",
					"type": "address"
				}
			],
			"name": "deleteVerification",
			"outputs": [],
			"stateMutability": "nonpayable",
			"type": "function"
		},
		{
			"inputs": [],
			"name": "expiration",
			"outputs": [
				{
					"internalType": "uint256",
					"name": "",
					"type": "uint256"
				}
			],
			"stateMutability": "view",
			"type": "function"
		},
		{
			"inputs": [],
			"name": "fee",
			"outputs": [
				{
					"internalType": "uint256",
					"name": "",
					"type": "uint256"
				}
			],
			"stateMutability": "view",
			"type": "function"
		},
		{
			"inputs": [
				{
					"internalType": "bytes32",
					"name": "_requestId",
					"type": "bytes32"
				},
				{
					"internalType": "bytes",
					"name": "bytesData",
					"type": "bytes"
				}
			],
			"name": "fulfillBytes",
			"outputs": [],
			"stateMutability": "nonpayable",
			"type": "function"
		},
		{
			"inputs": [],
			"name": "getEncodedData",
			"outputs": [
				{
					"internalType": "bytes",
					"name": "",
					"type": "bytes"
				}
			],
			"stateMutability": "view",
			"type": "function"
		},
		{
			"inputs": [
				{
					"internalType": "bytes32",
					"name": "role",
					"type": "bytes32"
				}
			],
			"name": "getRoleAdmin",
			"outputs": [
				{
					"internalType": "bytes32",
					"name": "",
					"type": "bytes32"
				}
			],
			"stateMutability": "view",
			"type": "function"
		},
		{
			"inputs": [
				{
					"internalType": "bytes32",
					"name": "role",
					"type": "bytes32"
				},
				{
					"internalType": "uint256",
					"name": "index",
					"type": "uint256"
				}
			],
			"name": "getRoleMember",
			"outputs": [
				{
					"internalType": "address",
					"name": "",
					"type": "address"
				}
			],
			"stateMutability": "view",
			"type": "function"
		},
		{
			"inputs": [
				{
					"internalType": "bytes32",
					"name": "role",
					"type": "bytes32"
				}
			],
			"name": "getRoleMemberCount",
			"outputs": [
				{
					"internalType": "uint256",
					"name": "",
					"type": "uint256"
				}
			],
			"stateMutability": "view",
			"type": "function"
		},
		{
			"inputs": [
				{
					"internalType": "uint256",
					"name": "socialId",
					"type": "uint256"
				}
			],
			"name": "getSocialIdToAddress",
			"outputs": [
				{
					"internalType": "address",
					"name": "",
					"type": "address"
				}
			],
			"stateMutability": "view",
			"type": "function"
		},
		{
			"inputs": [
				{
					"internalType": "string",
					"name": "_username",
					"type": "string"
				}
			],
			"name": "getUsernameToAddress",
			"outputs": [
				{
					"internalType": "address",
					"name": "",
					"type": "address"
				}
			],
			"stateMutability": "view",
			"type": "function"
		},
		{
			"inputs": [
				{
					"internalType": "bytes32",
					"name": "role",
					"type": "bytes32"
				},
				{
					"internalType": "address",
					"name": "account",
					"type": "address"
				}
			],
			"name": "grantRole",
			"outputs": [],
			"stateMutability": "nonpayable",
			"type": "function"
		},
		{
			"inputs": [
				{
					"internalType": "bytes32",
					"name": "role",
					"type": "bytes32"
				},
				{
					"internalType": "address",
					"name": "account",
					"type": "address"
				}
			],
			"name": "hasRole",
			"outputs": [
				{
					"internalType": "bool",
					"name": "",
					"type": "bool"
				}
			],
			"stateMutability": "view",
			"type": "function"
		},
		{
			"inputs": [
				{
					"internalType": "address",
					"name": "_owner",
					"type": "address"
				},
				{
					"internalType": "address",
					"name": "_oracle",
					"type": "address"
				},
				{
					"internalType": "address",
					"name": "_trustedForwarder",
					"type": "address"
				},
				{
					"internalType": "address",
					"name": "_chainlinkTokenAddress",
					"type": "address"
				},
				{
					"internalType": "bytes32",
					"name": "_jobId",
					"type": "bytes32"
				}
			],
			"name": "initialize",
			"outputs": [],
			"stateMutability": "nonpayable",
			"type": "function"
		},
		{
			"inputs": [
				{
					"internalType": "address",
					"name": "forwarder",
					"type": "address"
				}
			],
			"name": "isTrustedForwarder",
			"outputs": [
				{
					"internalType": "bool",
					"name": "",
					"type": "bool"
				}
			],
			"stateMutability": "view",
			"type": "function"
		},
		{
			"inputs": [],
			"name": "jobId",
			"outputs": [
				{
					"internalType": "bytes32",
					"name": "",
					"type": "bytes32"
				}
			],
			"stateMutability": "view",
			"type": "function"
		},
		{
			"inputs": [
				{
					"internalType": "string",
					"name": "_string",
					"type": "string"
				}
			],
			"name": "keccakHash",
			"outputs": [
				{
					"internalType": "bytes32",
					"name": "",
					"type": "bytes32"
				}
			],
			"stateMutability": "pure",
			"type": "function"
		},
		{
			"inputs": [],
			"name": "oracle",
			"outputs": [
				{
					"internalType": "address",
					"name": "",
					"type": "address"
				}
			],
			"stateMutability": "view",
			"type": "function"
		},
		{
			"inputs": [
				{
					"internalType": "bytes32",
					"name": "role",
					"type": "bytes32"
				},
				{
					"internalType": "address",
					"name": "account",
					"type": "address"
				}
			],
			"name": "renounceRole",
			"outputs": [],
			"stateMutability": "nonpayable",
			"type": "function"
		},
		{
			"inputs": [
				{
					"internalType": "string",
					"name": "_username",
					"type": "string"
				}
			],
			"name": "requestVerification",
			"outputs": [
				{
					"internalType": "bytes32",
					"name": "",
					"type": "bytes32"
				}
			],
			"stateMutability": "nonpayable",
			"type": "function"
		},
		{
			"inputs": [
				{
					"internalType": "address",
					"name": "",
					"type": "address"
				}
			],
			"name": "results",
			"outputs": [
				{
					"internalType": "bytes32",
					"name": "reqID",
					"type": "bytes32"
				},
				{
					"internalType": "string",
					"name": "username",
					"type": "string"
				},
				{
					"internalType": "string",
					"name": "label",
					"type": "string"
				},
				{
					"internalType": "bool",
					"name": "verifiedOnChain",
					"type": "bool"
				},
				{
					"internalType": "bytes",
					"name": "data",
					"type": "bytes"
				}
			],
			"stateMutability": "view",
			"type": "function"
		},
		{
			"inputs": [
				{
					"internalType": "bytes32",
					"name": "role",
					"type": "bytes32"
				},
				{
					"internalType": "address",
					"name": "account",
					"type": "address"
				}
			],
			"name": "revokeRole",
			"outputs": [],
			"stateMutability": "nonpayable",
			"type": "function"
		},
		{
			"inputs": [
				{
					"internalType": "bytes32",
					"name": "_jobId",
					"type": "bytes32"
				}
			],
			"name": "setJobId",
			"outputs": [],
			"stateMutability": "nonpayable",
			"type": "function"
		},
		{
			"inputs": [
				{
					"internalType": "address",
					"name": "_address",
					"type": "address"
				}
			],
			"name": "setOracle",
			"outputs": [],
			"stateMutability": "nonpayable",
			"type": "function"
		},
		{
			"inputs": [],
			"name": "trustedForwarder",
			"outputs": [
				{
					"internalType": "address",
					"name": "",
					"type": "address"
				}
			],
			"stateMutability": "view",
			"type": "function"
		},
		{
			"inputs": [
				{
					"internalType": "address",
					"name": "_chainlinkTokenAddress",
					"type": "address"
				}
			],
			"name": "updateChainlinkAddress",
			"outputs": [],
			"stateMutability": "nonpayable",
			"type": "function"
		},
		{
			"inputs": [
				{
					"internalType": "address",
					"name": "_address",
					"type": "address"
				}
			],
			"name": "userDetails",
			"outputs": [
				{
					"internalType": "string",
					"name": "",
					"type": "string"
				},
				{
					"internalType": "string",
					"name": "",
					"type": "string"
				},
				{
					"internalType": "string",
					"name": "",
					"type": "string"
				},
				{
					"internalType": "string",
					"name": "",
					"type": "string"
				},
				{
					"internalType": "uint256",
					"name": "",
					"type": "uint256"
				},
				{
					"internalType": "bool",
					"name": "",
					"type": "bool"
				}
			],
			"stateMutability": "view",
			"type": "function"
		},
		{
			"inputs": [
				{
					"internalType": "bytes32",
					"name": "",
					"type": "bytes32"
				}
			],
			"name": "usernameToAddress",
			"outputs": [
				{
					"internalType": "address",
					"name": "",
					"type": "address"
				}
			],
			"stateMutability": "view",
			"type": "function"
		},
		{
			"inputs": [],
			"name": "versionRecipient",
			"outputs": [
				{
					"internalType": "string",
					"name": "",
					"type": "string"
				}
			],
			"stateMutability": "pure",
			"type": "function"
		},
		{
			"inputs": [
				{
					"internalType": "address",
					"name": "_address",
					"type": "address"
				}
			],
			"name": "withdrawLink",
			"outputs": [],
			"stateMutability": "nonpayable",
			"type": "function"
		},
		{
			"inputs": [
				{
					"internalType": "address",
					"name": "linkTokenAddress",
					"type": "address"
				},
				{
					"internalType": "address",
					"name": "_address",
					"type": "address"
				}
			],
			"name": "withdrawLinkWithAddress",
			"outputs": [],
			"stateMutability": "nonpayable",
			"type": "function"
		}
	]
}