{
	"data": {
		"bytecode": {
			"linkReferences": {
				"AmaFansLib.sol": {
					"AmaFansLib": [
						{
							"length": 20,
							"start": 3312
						},
						{
							"length": 20,
							"start": 9184
						},
						{
							"length": 20,
							"start": 9331
						},
						{
							"length": 20,
							"start": 9544
						},
						{
							"length": 20,
							"start": 9694
						},
						{
							"length": 20,
							"start": 10744
						},
						{
							"length": 20,
							"start": 12048
						},
						{
							"length": 20,
							"start": 12786
						},
						{
							"length": 20,
							"start": 12928
						}
					]
				}
			},
			"object": "608060405234801561001057600080fd5b50614540806100206000396000f3fe60806040526004361061036f5760003560e01c806386495b04116101c6578063c415b95c116100f7578063dc1a091111610095578063e86dea4a1161006f578063e86dea4a14610aa9578063f107cfcb14610ac0578063f224aa4f14610ae0578063f36c8f5c14610b0057600080fd5b8063dc1a091114610a13578063e567521914610a33578063e83d6f0714610a6d57600080fd5b8063d3a86386116100d1578063d3a863861461099b578063d547741f146109b2578063d56d229d146109d2578063da742228146109f357600080fd5b8063c415b95c14610943578063ca15c87314610964578063d00a818f1461098457600080fd5b8063a70806f711610164578063b69ef8a81161013e578063b69ef8a8146108e2578063be841e02146108f7578063bf15276514610917578063c0ef21ee1461092c57600080fd5b8063a70806f714610898578063a740d68e146108b8578063aafa3061146108cb57600080fd5b806391d14854116101a057806391d148541461082a57806395addb901461084a57806399496e2a14610881578063a217fddf1461042a57600080fd5b806386495b04146107b25780638cc1af13146107d25780639010d07c146107f257600080fd5b806336568abe116102a05780635c975abb1161023e578063662d2a6611610218578063662d2a661461074a5780636c3fa8991461075d5780637908bbe11461077d5780638456cb591461079d57600080fd5b80635c975abb14610686578063602bf2271461069e57806365f898e11461072a57600080fd5b80634a4c560d1161027a5780634a4c560d146105e95780634b8e7a341461060957806350b240ba14610629578063572b6c051461065757600080fd5b806336568abe146105945780633da01325146105b45780633f4ba83a146105d457600080fd5b806321e470491161030d5780632c8d6fd6116102e75780632c8d6fd6146105145780632e1a7d4d146105345780632f2ff15d14610554578063320ed9571461057457600080fd5b806321e47049146104a4578063248a9ca3146104c457806327528350146104f457600080fd5b8063069321b011610349578063069321b01461042a57806310e51e141461044d578063190c69a21461046d5780631cf28a361461048d57600080fd5b806301ffc9a7146103b3578063049c067a146103e8578063067f661d1461040a57600080fd5b366103ae5761037c610b22565b6001600160a01b03166000805160206144eb833981519152346040516103a491815260200190565b60405180910390a2005b600080fd5b3480156103bf57600080fd5b506103d36103ce366004613f30565b610b31565b60405190151581526020015b60405180910390f35b3480156103f457600080fd5b50610408610403366004613e2a565b610b5c565b005b34801561041657600080fd5b50610408610425366004613e2a565b610bbe565b34801561043657600080fd5b5061043f600081565b6040519081526020016103df565b34801561045957600080fd5b50610408610468366004613f5a565b610df5565b34801561047957600080fd5b50610408610488366004613d52565b610fe7565b34801561049957600080fd5b5061043f6101605481565b3480156104b057600080fd5b506104086104bf366004613e2a565b61108e565b3480156104d057600080fd5b5061043f6104df366004613e2a565b600090815260c9602052604090206001015490565b34801561050057600080fd5b5061043f61050f366004613d6d565b6110fe565b34801561052057600080fd5b506103d361052f366004613d6d565b61115e565b34801561054057600080fd5b5061040861054f366004613e2a565b6111aa565b34801561056057600080fd5b5061040861056f366004613e5c565b61133d565b34801561058057600080fd5b5061040861058f366004613e2a565b61136a565b3480156105a057600080fd5b506104086105af366004613e5c565b611501565b3480156105c057600080fd5b506104086105cf366004613d52565b61158f565b3480156105e057600080fd5b50610408611691565b3480156105f557600080fd5b50610408610604366004613d52565b611709565b34801561061557600080fd5b50610408610624366004613e2a565b611843565b34801561063557600080fd5b50610649610644366004613df7565b6118a6565b6040516103df92919061408d565b34801561066357600080fd5b506103d3610672366004613d52565b6065546001600160a01b0391821691161490565b34801561069257600080fd5b5060335460ff166103d3565b3480156106aa57600080fd5b506106f66106b9366004613e2a565b61016960205260009081526040902080546001820154600283015460038401546004909401546001600160a01b0390931693919290919060ff1685565b604080516001600160a01b03909616865260208601949094529284019190915260608301521515608082015260a0016103df565b34801561073657600080fd5b50610408610745366004613d52565b6119dc565b61043f610758366004613da0565b611b15565b34801561076957600080fd5b50610408610778366004613e7f565b611d2c565b34801561078957600080fd5b50610408610798366004613e2a565b611e78565b3480156107a957600080fd5b50610408611e9a565b3480156107be57600080fd5b506104086107cd366004613e2a565b611f0e565b3480156107de57600080fd5b506106496107ed366004613f04565b611f7a565b3480156107fe57600080fd5b5061081261080d366004613ee2565b6120f0565b6040516001600160a01b0390911681526020016103df565b34801561083657600080fd5b506103d3610845366004613e5c565b61210f565b34801561085657600080fd5b5061086a610865366004613e2a565b61213a565b6040516103df9b9a99989796959493929190614112565b34801561088d57600080fd5b5061043f6101625481565b3480156108a457600080fd5b506104086108b3366004613d52565b6122b3565b6104086108c6366004613e2a565b61233c565b3480156108d757600080fd5b5061043f6101675481565b3480156108ee57600080fd5b5061043f61265e565b34801561090357600080fd5b50610649610912366004613df7565b612675565b34801561092357600080fd5b5061043f612793565b34801561093857600080fd5b5061043f6101665481565b34801561094f57600080fd5b5061015f54610812906001600160a01b031681565b34801561097057600080fd5b5061043f61097f366004613e2a565b6127c8565b34801561099057600080fd5b5061043f6101655481565b3480156109a757600080fd5b5061043f6101615481565b3480156109be57600080fd5b506104086109cd366004613e5c565b6127df565b3480156109de57600080fd5b5061016454610812906001600160a01b031681565b3480156109ff57600080fd5b50610408610a0e366004613d52565b612807565b348015610a1f57600080fd5b506103d3610a2e366004613d6d565b61281e565b348015610a3f57600080fd5b5061043f610a4e366004613d52565b6001600160a01b0316600090815261016a602052604090206001015490565b348015610a7957600080fd5b506103d3610a88366004613d6d565b61016c60209081526000928352604080842090915290825290205460ff1681565b348015610ab557600080fd5b5061043f6101635481565b348015610acc57600080fd5b50610408610adb366004613d52565b612827565b348015610aec57600080fd5b50610408610afb366004613e2a565b6128b0565b348015610b0c57600080fd5b5061043f6000805160206144cb83398151915281565b6000610b2c612af4565b905090565b60006001600160e01b03198216635a05180f60e01b1480610b565750610b5682612b1f565b92915050565b6000610b6f81610b6a610b22565b612b54565b60408051808201909152600681526506060726060760d31b602082015260018311610bb65760405162461bcd60e51b8152600401610bad91906140d5565b60405180910390fd5b505061016755565b60335460ff1615610be15760405162461bcd60e51b8152600401610bad906141e0565b60008181526101686020908152604091829020600401548251808401909352600683526530303230303360d01b918301919091528291906001600160a01b0316610c3e5760405162461bcd60e51b8152600401610bad91906140d5565b5081610c48610b22565b60008281526101686020908152604091829020600401548251808401909352600683526518181918181960d11b9183019190915290916001600160a01b03918216911614610ca95760405162461bcd60e51b8152600401610bad91906140d5565b50600083815261016860205260409081902090516312c0728160e31b81526004810182905273__$9449e77bcfc6c744eba20e6cac20521bf9$__9063960394089060240160006040518083038186803b158015610d0557600080fd5b505af4158015610d19573d6000803e3d6000fd5b50505050806002015461016b6000610d2f610b22565b6001600160a01b03166001600160a01b031681526020019081526020016000206000828254610d5e919061427d565b90915550610d6c9050610b22565b6001600160a01b03166000805160206144eb8339815191528260020154604051610d9891815260200190565b60405180910390a2610da8610b22565b6001600160a01b0316847fb663b69fb317fe5ec731ce5c4e0cc9531c066c8abb2f241f3928087f4cd2153c8360020154604051610de791815260200190565b60405180910390a350505050565b600054610100900460ff16610e105760005460ff1615610e14565b303b155b610e775760405162461bcd60e51b815260206004820152602e60248201527f496e697469616c697a61626c653a20636f6e747261637420697320616c72656160448201526d191e481a5b9a5d1a585b1a5e995960921b6064820152608401610bad565b600054610100900460ff16158015610e99576000805461ffff19166101011790555b612710861115610efe5760405162461bcd60e51b815260206004820152602a60248201527f455243323938313a20726f79616c7479206665652077696c6c206578636565646044820152692073616c65507269636560b01b6064820152608401610bad565b610f09600488614295565b61016655610f15612bb8565b610f1d612bff565b610f25612c2e565b610f2e82612c65565b610161879055610163869055610164805461015f80546001600160a01b0319166001600160a01b038881169190911790915562015180610162556103846101655587166001600160a81b031990911617905560036101675561016d80546001019055610f9b600084612ca0565b610fb36000805160206144cb83398151915284612ca0565b610fcc6000805160206144cb8339815191526000612caa565b8015610fde576000805461ff00191690555b50505050505050565b600061016a6000610ff6610b22565b6001600160a01b03908116825260208083019390935260409182016000908120918616815260069091019092529020805460ff1916600183600281111561103f5761103f6143cd565b0217905550806001600160a01b0316611056610b22565b6001600160a01b03167fdc9ec6c8ca20e67e0cbecb5536d5c021046dd6a9a43b1b03d2b10235767d450260405160405180910390a350565b610161548110156040518060400160405280600681526020016530303930303360d01b815250906110d25760405162461bcd60e51b8152600401610bad91906140d5565b508061016a60006110e1610b22565b6001600160a01b0316815260208101919091526040016000205550565b600061110a838361281e565b1561111757506000610b56565b6001600160a01b038216600090815261016a602052604090205461113f575061016154610b56565b506001600160a01b0316600090815261016a6020526040902054919050565b600060015b6001600160a01b03808416600090815261016a60209081526040808320938816835260069093019052205460ff1660028111156111a2576111a26143cd565b149392505050565b60335460ff16156111cd5760405162461bcd60e51b8152600401610bad906141e0565b600261012d5414156112215760405162461bcd60e51b815260206004820152601f60248201527f5265656e7472616e637947756172643a207265656e7472616e742063616c6c006044820152606401610bad565b600261012d5561016b6000611234610b22565b6001600160a01b03166001600160a01b03168152602001908152602001600020548111156040518060400160405280600681526020016530303930303160d01b815250906112955760405162461bcd60e51b8152600401610bad91906140d5565b508061016b60006112a4610b22565b6001600160a01b03166001600160a01b0316815260200190815260200160002060008282546112d391906142d6565b909155506112ea90506112e4610b22565b82612cf5565b6112f2610b22565b6001600160a01b03167f884edad9ce6fa2440d8a54cc123490eb96d2768479d49ff9c7366125a94243648260405161132c91815260200190565b60405180910390a250600161012d55565b600082815260c9602052604090206001015461135b81610b6a610b22565b6113658383612e0e565b505050565b60008181526101686020908152604091829020600401548251808401909352600683526530303230303360d01b918301919091528291906001600160a01b03166113c75760405162461bcd60e51b8152600401610bad91906140d5565b506113d0610b22565b60008381526101686020908152604091829020600401548251808401909352600683526518181918181960d11b9183019190915290916001600160a01b039182169116146114315760405162461bcd60e51b8152600401610bad91906140d5565b5060036000838152610168602052604090206009015460ff16600381111561145b5761145b6143cd565b146040518060400160405280600681526020016530303230303960d01b815250906114995760405162461bcd60e51b8152600401610bad91906140d5565b5060008281526101686020526040808220600b8101805460ff19166001179055600581015460049091015491516001600160a01b0391821693929091169185917fe7517190a8eab1d92cbe89214c9cc1e5b0896d93c91bc93bf4c836cb8110b1839190a45050565b611509610b22565b6001600160a01b0316816001600160a01b0316146115815760405162461bcd60e51b815260206004820152602f60248201527f416363657373436f6e74726f6c3a2063616e206f6e6c792072656e6f756e636560448201526e103937b632b9903337b91039b2b63360891b6064820152608401610bad565b61158b8282612e30565b5050565b806001600160a01b03166115a1610b22565b6001600160a01b031614156040518060400160405280600681526020016503030393031360d41b815250906115e95760405162461bcd60e51b8152600401610bad91906140d5565b50600161016a60006115f9610b22565b6001600160a01b03908116825260208083019390935260409182016000908120918616815260069091019092529020805460ff19166001836002811115611642576116426143cd565b0217905550806001600160a01b0316611659610b22565b6001600160a01b03167fc931b7e6f18c2a39bcd066690c46c7ba85186501c524faa844ac2c7213d1732560405160405180910390a350565b61169e6000610845610b22565b6116ff5760405162461bcd60e51b815260206004820152602c60248201527f4d75737420686176652044454641554c545f41444d494e5f524f4c4520726f6c60448201526b6520746f20756e706175736560a01b6064820152608401610bad565b611707612e52565b565b600161016a6000611718610b22565b6001600160a01b039081168252602080830193909352604091820160009081209186168152600690910190925290205460ff16600281111561175c5761175c6143cd565b14156040518060400160405280600681526020016518181c98181b60d11b8152509061179b5760405162461bcd60e51b8152600401610bad91906140d5565b50600261016a60006117ab610b22565b6001600160a01b03908116825260208083019390935260409182016000908120918616815260069091019092529020805460ff191660018360028111156117f4576117f46143cd565b0217905550806001600160a01b031661180b610b22565b6001600160a01b03167f6661a7108aecd07864384529117d96c319c1163e3010c01390f6b704726e07de60405160405180910390a350565b600061185181610b6a610b22565b61185c8260046142b7565b61016154116040518060400160405280600681526020016530303930303760d01b8152509061189e5760405162461bcd60e51b8152600401610bad91906140d5565b505061016655565b6001600160a01b038316600090815261016a6020526040812060010154606091906118d29085906142d6565b831115611904576001600160a01b038516600090815261016a60205260409020600101546119019085906142d6565b92505b8267ffffffffffffffff81111561191d5761191d61440f565b604051908082528060200260200182016040528015611946578160200160208202803683370190505b50915060005b838110156119c4576001600160a01b038616600090815261016a6020526040902060010161197a828761427d565b8154811061198a5761198a6143f9565b90600052602060002001548382815181106119a7576119a76143f9565b6020908102919091010152806119bc8161439c565b91505061194c565b50816119d0848661427d565b91509150935093915050565b600161016a60006119eb610b22565b6001600160a01b039081168252602080830193909352604091820160009081209186168152600690910190925290205460ff166002811115611a2f57611a2f6143cd565b146040518060400160405280600681526020016530303930313160d01b81525090611a6d5760405162461bcd60e51b8152600401610bad91906140d5565b50600061016a6000611a7d610b22565b6001600160a01b03908116825260208083019390935260409182016000908120918616815260069091019092529020805460ff19166001836002811115611ac657611ac66143cd565b0217905550806001600160a01b0316611add610b22565b6001600160a01b03167f35672c674c91f8b0025681a1c8d11a4ca6583e909553290ecfb3d6578faa8bce60405160405180910390a350565b600082610165548110156040518060400160405280600681526020016530303230303760d01b81525090611b5c5760405162461bcd60e51b8152600401610bad91906140d5565b5060335460ff1615611b805760405162461bcd60e51b8152600401610bad906141e0565b600261012d541415611bd45760405162461bcd60e51b815260206004820152601f60248201527f5265656e7472616e637947756172643a207265656e7472616e742063616c6c006044820152606401610bad565b600261012d556001600160a01b038516600090815261016a60205260408120819060060181611c01610b22565b6001600160a01b0316815260208101919091526040016000205460ff1690506001816002811115611c3457611c346143cd565b14156040518060400160405280600681526020016518181c98181b60d11b81525090611c735760405162461bcd60e51b8152600401610bad91906140d5565b506002816002811115611c8857611c886143cd565b14611cf05734611c9f611c99610b22565b896110fe565b11156040518060400160405280600681526020016503030313031360d41b81525090611cde5760405162461bcd60e51b8152600401610bad91906140d5565b5061016654611ced90346142d6565b91505b6000611d06611cfd610b22565b89858a8a612eeb565b90508215611d1b57611d1b8861016654612cf5565b600161012d55979650505050505050565b60008381526101686020908152604091829020600401548251808401909352600683526530303230303360d01b918301919091528491906001600160a01b0316611d895760405162461bcd60e51b8152600401610bad91906140d5565b50611d92610b22565b60008581526101686020908152604091829020600501548251808401909352600683526518181918181960d11b9183019190915290916001600160a01b03918216911614611df35760405162461bcd60e51b8152600401610bad91906140d5565b50600080611e028686866131aa565b91509150611e0e610b22565b60008781526101686020526040908190206004015490516001600160a01b03928316929091169088907f82a1ce9f78e8fba2349a66e92e4634a9981acdc4ee9d07cbeaf73af38ec190e790611e68908a90889088906141bb565b60405180910390a4505050505050565b6000805160206144cb833981519152611e9381610b6a610b22565b5061016255565b611ea76000610845610b22565b611f065760405162461bcd60e51b815260206004820152602a60248201527f4d75737420686176652044454641554c545f41444d494e5f524f4c4520726f6c6044820152696520746f20706175736560b01b6064820152608401610bad565b6117076134cc565b6000611f1c81610b6a610b22565b610166548210156040518060400160405280600681526020016530303930303360d01b81525090611f605760405162461bcd60e51b8152600401610bad91906140d5565b50610161829055611f72600483614295565b610166555050565b600083815261016860209081526040808320600401548151808301909252600682526530303230303360d01b92820192909252606092918691906001600160a01b0316611fda5760405162461bcd60e51b8152600401610bad91906140d5565b5060008681526101686020526040902060060154611ff99086906142d6565b841115612021576000868152610168602052604090206006015461201e9086906142d6565b93505b8367ffffffffffffffff81111561203a5761203a61440f565b604051908082528060200260200182016040528015612063578160200160208202803683370190505b50925060005b848110156120d75760008781526101686020526040902060060161208d828861427d565b8154811061209d5761209d6143f9565b90600052602060002001548482815181106120ba576120ba6143f9565b6020908102919091010152806120cf8161439c565b915050612069565b50826120e3858761427d565b9250925050935093915050565b600082815260fb602052604081206121089083613525565b9392505050565b600091825260c9602090815260408084206001600160a01b0393909316845291905290205460ff1690565b6101686020526000908152604090208054819061215690614334565b80601f016020809104026020016040519081016040528092919081815260200182805461218290614334565b80156121cf5780601f106121a4576101008083540402835291602001916121cf565b820191906000526020600020905b8154815290600101906020018083116121b257829003601f168201915b5050505050908060010180546121e490614334565b80601f016020809104026020016040519081016040528092919081815260200182805461221090614334565b801561225d5780601f106122325761010080835404028352916020019161225d565b820191906000526020600020905b81548152906001019060200180831161224057829003601f168201915b50505060028401546003850154600486015460058701546007880154600889015460098a0154600a8b0154600b909b0154999a96999598506001600160a01b0394851697509290931694909360ff92831692168b565b600161016a60006122c2610b22565b6001600160a01b03908116825260208083019390935260409182016000908120918616815260059091019092529020556122fa610b22565b6001600160a01b0316816001600160a01b03167fbccc71dc7842b86291138666aa18e133ee6d41aa71e6d7c650debad1a057663560405160405180910390a350565b60008181526101686020908152604091829020600401548251808401909352600683526530303230303360d01b918301919091528291906001600160a01b03166123995760405162461bcd60e51b8152600401610bad91906140d5565b506000828152610168602052604090819020905163d82bb12b60e01b81526004810182905273__$9449e77bcfc6c744eba20e6cac20521bf9$__9063d82bb12b9060240160006040518083038186803b1580156123f557600080fd5b505af4158015612409573d6000803e3d6000fd5b50505050600034116040518060400160405280600681526020016530303330303560d01b8152509061244e5760405162461bcd60e51b8152600401610bad91906140d5565b50600073__$9449e77bcfc6c744eba20e6cac20521bf9$__63feac0f7061016986612477610b22565b6040516001600160e01b031960e086901b168152600481019390935260248301919091526001600160a01b0316604482015234606482015260840160206040518083038186803b1580156124ca57600080fd5b505af41580156124de573d6000803e3d6000fd5b505050506040513d601f19601f820116820180604052508101906125029190613e43565b604051630221998560e21b8152600481018490526024810182905234604482015290915073__$9449e77bcfc6c744eba20e6cac20521bf9$__9063088666149060640160006040518083038186803b15801561255d57600080fd5b505af4158015612571573d6000803e3d6000fd5b50505050600061016a6000612584610b22565b6001600160a01b03168152602081019190915260409081016000209051631bebc41b60e01b8152600481018290526024810184905290915073__$9449e77bcfc6c744eba20e6cac20521bf9$__90631bebc41b9060440160006040518083038186803b1580156125f357600080fd5b505af4158015612607573d6000803e3d6000fd5b50505050612613610b22565b6001600160a01b031682867fb8a61f3258608a2f1af184e4640b08e6cd69126e3c563d30b6348ebfb51558843460405161264f91815260200190565b60405180910390a45050505050565b60008061266d81610b6a610b22565b4791505b5090565b6001600160a01b038316600090815261016a6020526040812060020154606091906126a19085906142d6565b8311156126d3576001600160a01b038516600090815261016a60205260409020600201546126d09085906142d6565b92505b8267ffffffffffffffff8111156126ec576126ec61440f565b604051908082528060200260200182016040528015612715578160200160208202803683370190505b50915060005b838110156119c4576001600160a01b038616600090815261016a60205260409020600201612749828761427d565b81548110612759576127596143f9565b9060005260206000200154838281518110612776576127766143f9565b60209081029190910101528061278b8161439c565b91505061271b565b600061016b60006127a2610b22565b6001600160a01b03166001600160a01b0316815260200190815260200160002054905090565b600081815260fb60205260408120610b5690613531565b600082815260c960205260409020600101546127fd81610b6a610b22565b6113658383612e30565b600061281581610b6a610b22565b61158b8261353b565b60006002611163565b600061016a6000612836610b22565b6001600160a01b039081168252602080830193909352604091820160009081209186168152600590910190925290205561286e610b22565b6001600160a01b0316816001600160a01b03167fe5dcccfe8e7890c6d4aa94d44c3b409fb6f023337f29c3308077c0c4068192c460405160405180910390a350565b60335460ff16156128d35760405162461bcd60e51b8152600401610bad906141e0565b60008181526101696020908152604091829020548251808401909352600683526530303330303360d01b918301919091528291906001600160a01b031661292d5760405162461bcd60e51b8152600401610bad91906140d5565b5081612937610b22565b60008281526101696020908152604091829020548251808401909352600683526518181998181960d11b9183019190915290916001600160a01b039182169116146129955760405162461bcd60e51b8152600401610bad91906140d5565b5060008381526101696020908152604080832060038101548452610168909252918290209151632b2e747760e01b8152600481018290526024810183905290919073__$9449e77bcfc6c744eba20e6cac20521bf9$__90632b2e74779060440160006040518083038186803b158015612a0d57600080fd5b505af4158015612a21573d6000803e3d6000fd5b50505050816001015461016b6000612a37610b22565b6001600160a01b03166001600160a01b031681526020019081526020016000206000828254612a66919061427d565b90915550612a749050610b22565b6001600160a01b03166000805160206144eb8339815191528360010154604051612aa091815260200190565b60405180910390a2612ab0610b22565b6001600160a01b03168583600301547f8827140ed7e0aee657f6d8ab3d65b02d30022ed333e284958313db49217e7c3e856001015460405161264f91815260200190565b6065546000906001600160a01b0316331415612b17575060131936013560601c90565b503390565b90565b60006001600160e01b03198216637965db0b60e01b1480610b5657506301ffc9a760e01b6001600160e01b0319831614610b56565b612b5e828261210f565b61158b57612b76816001600160a01b03166014613584565b612b81836020613584565b604051602001612b92929190613fec565b60408051601f198184030181529082905262461bcd60e51b8252610bad916004016140d5565b600054610100900460ff16612bdf5760405162461bcd60e51b8152600401610bad9061420a565b612be7613720565b612bef613720565b612bf7613720565b611707613720565b600054610100900460ff16612c265760405162461bcd60e51b8152600401610bad9061420a565b611707613747565b600054610100900460ff16612c555760405162461bcd60e51b8152600401610bad9061420a565b612c5d613720565b611707613776565b600054610100900460ff16612c8c5760405162461bcd60e51b8152600401610bad9061420a565b612c94613720565b612c9d8161353b565b50565b61158b8282612e0e565b600082815260c96020526040808220600101805490849055905190918391839186917fbd79b86ffe0ab8e8776151514217cd7cacd52c909f66475c3af44e129f0b00ff9190a4505050565b80471015612d455760405162461bcd60e51b815260206004820152601d60248201527f416464726573733a20696e73756666696369656e742062616c616e63650000006044820152606401610bad565b6000826001600160a01b03168260405160006040518083038185875af1925050503d8060008114612d92576040519150601f19603f3d011682016040523d82523d6000602084013e612d97565b606091505b50509050806113655760405162461bcd60e51b815260206004820152603a60248201527f416464726573733a20756e61626c6520746f2073656e642076616c75652c207260448201527f6563697069656e74206d617920686176652072657665727465640000000000006064820152608401610bad565b612e1882826137a9565b600082815260fb602052604090206113659082613830565b612e3a8282613845565b600082815260fb6020526040902061136590826138ca565b60335460ff16612e9b5760405162461bcd60e51b815260206004820152601460248201527314185d5cd8589b194e881b9bdd081c185d5cd95960621b6044820152606401610bad565b6033805460ff191690557f5db9ee0a495bf2e6ff9c91a7834c1ba4fdd244a5e8aa4e537bd38aeae4b073aa612ece610b22565b6040516001600160a01b03909116815260200160405180910390a1565b60008073__$9449e77bcfc6c744eba20e6cac20521bf9$__63f19191d984896040518363ffffffff1660e01b8152600401612f279291906140e8565b60206040518083038186803b158015612f3f57600080fd5b505af4158015612f53573d6000803e3d6000fd5b505050506040513d601f19601f82011682018060405250810190612f779190613e43565b60408051600080825260208201909252919250612f94864261427d565b90506040518061018001604052808681526020016040518060200160405280600081525081526020018881526020018881526020018a6001600160a01b03168152602001896001600160a01b031681526020018381526020014281526020018281526020016000600381111561300c5761300c6143cd565b8152600060208083018290526040928301829052868252610168815291902082518051919261304092849290910190613bf3565b5060208281015180516130599260018501920190613bf3565b50604082015160028201556060820151600382015560808201516004820180546001600160a01b039283166001600160a01b03199182161790915560a084015160058401805491909316911617905560c082015180516130c3916006840191602090910190613c73565b5060e08201516007820155610100820151600882015561012082015160098201805460ff191660018360038111156130fd576130fd6143cd565b0217905550610140820151600a82015561016090910151600b909101805460ff19169115159190911790556001600160a01b03898116600081815261016a60209081526040808320600190810180549182018155845291909220018690555190918591908b16907f3b68ba1e6ac39f1579fd32b30daa1b9f575dc2d1105a95f1bb114484003070ff90613195908c9087908c90614255565b60405180910390a45090979650505050505050565b60008381526101686020526040808220905163387f9fc360e01b81526004810182905282919073__$9449e77bcfc6c744eba20e6cac20521bf9$__9063387f9fc39060240160006040518083038186803b15801561320757600080fd5b505af415801561321b573d6000803e3d6000fd5b50506101645460009250600160a01b900460ff1615905061325157600482015461324e906001600160a01b0316866138df565b90505b60405163ae93940d60e01b815273__$9449e77bcfc6c744eba20e6cac20521bf9$__9063ae93940d9061328c90859085908b90600401614255565b60006040518083038186803b1580156132a457600080fd5b505af41580156132b8573d6000803e3d6000fd5b505050506000806132d1846002015485600301546139b6565b915091508360020154600014158015613324575060048401546132ff906001600160a01b031661050f610b22565b6101675461330d91906142b7565b8460020154856003015461332191906142d6565b10155b15613429576000613336600284614295565b9050613342828261427d565b61016b600061334f610b22565b6001600160a01b03166001600160a01b03168152602001908152602001600020600082825461337e919061427d565b909155505060048501546001600160a01b0316600090815261016b6020526040812080548392906133b090849061427d565b909155506133be9050610b22565b6001600160a01b03166000805160206144eb8339815191526133e0848461427d565b60405190815260200160405180910390a260048501546040518281526001600160a01b03909116906000805160206144eb8339815191529060200160405180910390a2506134b1565b613433818361427d565b61016b6000613440610b22565b6001600160a01b03166001600160a01b03168152602001908152602001600020600082825461346f919061427d565b9091555061347d9050610b22565b6001600160a01b03166000805160206144eb83398151915261349f838561427d565b60405190815260200160405180910390a25b826134bc828461427d565b9550955050505050935093915050565b60335460ff16156134ef5760405162461bcd60e51b8152600401610bad906141e0565b6033805460ff191660011790557f62e78cea01bee320cd4e420270b5ea74000d11b0c9f74754ebdbfc544b05a258612ece610b22565b60006121088383613a87565b6000610b56825490565b600054610100900460ff166135625760405162461bcd60e51b8152600401610bad9061420a565b606580546001600160a01b0319166001600160a01b0392909216919091179055565b606060006135938360026142b7565b61359e90600261427d565b67ffffffffffffffff8111156135b6576135b661440f565b6040519080825280601f01601f1916602001820160405280156135e0576020820181803683370190505b509050600360fc1b816000815181106135fb576135fb6143f9565b60200101906001600160f81b031916908160001a905350600f60fb1b8160018151811061362a5761362a6143f9565b60200101906001600160f81b031916908160001a905350600061364e8460026142b7565b61365990600161427d565b90505b60018111156136d1576f181899199a1a9b1b9c1cb0b131b232b360811b85600f166010811061368d5761368d6143f9565b1a60f81b8282815181106136a3576136a36143f9565b60200101906001600160f81b031916908160001a90535060049490941c936136ca8161431d565b905061365c565b5083156121085760405162461bcd60e51b815260206004820181905260248201527f537472696e67733a20686578206c656e67746820696e73756666696369656e746044820152606401610bad565b600054610100900460ff166117075760405162461bcd60e51b8152600401610bad9061420a565b600054610100900460ff1661376e5760405162461bcd60e51b8152600401610bad9061420a565b600161012d55565b600054610100900460ff1661379d5760405162461bcd60e51b8152600401610bad9061420a565b6033805460ff19169055565b6137b3828261210f565b61158b57600082815260c9602090815260408083206001600160a01b03851684529091529020805460ff191660011790556137ec610b22565b6001600160a01b0316816001600160a01b0316837f2f8788117e7eff1d82e926ec794901d17c78024a50270940304540a733656f0d60405160405180910390a45050565b6000612108836001600160a01b038416613ab1565b61384f828261210f565b1561158b57600082815260c9602090815260408083206001600160a01b03851684529091529020805460ff19169055613886610b22565b6001600160a01b0316816001600160a01b0316837ff6391f5c32d9c69d2a47ea670b442974b53935d1edc7fd64eb21e047a839171b60405160405180910390a45050565b6000612108836001600160a01b038416613b00565b6101645460405163d0def52160e01b81526000916001600160a01b03169063d0def521906139139086908690600401614061565b602060405180830381600087803b15801561392d57600080fd5b505af192505050801561395d575060408051601f3d908101601f1916820190925261395a91810190613e43565b60015b6139af57613969614425565b806308c379a014156139a3575061397e614440565b8061398957506139a5565b8060405162461bcd60e51b8152600401610bad91906140d5565b505b3d6000803e3d6000fd5b9050610b56565b600080806127106bffffffffffffffffffffffff166101635486866139db91906142d6565b6139e591906142b7565b6139ef9190614295565b905060006127106bffffffffffffffffffffffff166101635487613a1391906142b7565b613a1d9190614295565b9050613a29818361427d565b61015f546001600160a01b0316600090815261016b602052604081208054909190613a5590849061427d565b90915550829050613a6687876142d6565b613a7091906142d6565b613a7a82886142d6565b9350935050509250929050565b6000826000018281548110613a9e57613a9e6143f9565b9060005260206000200154905092915050565b6000818152600183016020526040812054613af857508154600181810184556000848152602080822090930184905584548482528286019093526040902091909155610b56565b506000610b56565b60008181526001830160205260408120548015613be9576000613b246001836142d6565b8554909150600090613b38906001906142d6565b9050818114613b9d576000866000018281548110613b5857613b586143f9565b9060005260206000200154905080876000018481548110613b7b57613b7b6143f9565b6000918252602080832090910192909255918252600188019052604090208390555b8554869080613bae57613bae6143e3565b600190038181906000526020600020016000905590558560010160008681526020019081526020016000206000905560019350505050610b56565b6000915050610b56565b828054613bff90614334565b90600052602060002090601f016020900481019282613c215760008555613c67565b82601f10613c3a57805160ff1916838001178555613c67565b82800160010185558215613c67579182015b82811115613c67578251825591602001919060010190613c4c565b50612671929150613cad565b828054828255906000526020600020908101928215613c675791602002820182811115613c67578251825591602001919060010190613c4c565b5b808211156126715760008155600101613cae565b80356001600160a01b0381168114613cd957600080fd5b919050565b600082601f830112613cef57600080fd5b813567ffffffffffffffff811115613d0957613d0961440f565b604051613d20601f8301601f19166020018261436f565b818152846020838601011115613d3557600080fd5b816020850160208301376000918101602001919091529392505050565b600060208284031215613d6457600080fd5b61210882613cc2565b60008060408385031215613d8057600080fd5b613d8983613cc2565b9150613d9760208401613cc2565b90509250929050565b600080600060608486031215613db557600080fd5b613dbe84613cc2565b925060208401359150604084013567ffffffffffffffff811115613de157600080fd5b613ded86828701613cde565b9150509250925092565b600080600060608486031215613e0c57600080fd5b613e1584613cc2565b95602085013595506040909401359392505050565b600060208284031215613e3c57600080fd5b5035919050565b600060208284031215613e5557600080fd5b5051919050565b60008060408385031215613e6f57600080fd5b82359150613d9760208401613cc2565b600080600060608486031215613e9457600080fd5b83359250602084013567ffffffffffffffff80821115613eb357600080fd5b613ebf87838801613cde565b93506040860135915080821115613ed557600080fd5b50613ded86828701613cde565b60008060408385031215613ef557600080fd5b50508035926020909101359150565b600080600060608486031215613f1957600080fd5b505081359360208301359350604090920135919050565b600060208284031215613f4257600080fd5b81356001600160e01b03198116811461210857600080fd5b60008060008060008060c08789031215613f7357600080fd5b8635955060208701359450613f8a60408801613cc2565b9350613f9860608801613cc2565b9250613fa660808801613cc2565b9150613fb460a08801613cc2565b90509295509295509295565b60008151808452613fd88160208601602086016142ed565b601f01601f19169290920160200192915050565b7f416363657373436f6e74726f6c3a206163636f756e74200000000000000000008152600083516140248160178501602088016142ed565b7001034b99036b4b9b9b4b733903937b6329607d1b60179184019182015283516140558160288401602088016142ed565b01602801949350505050565b6001600160a01b038316815260406020820181905260009061408590830184613fc0565b949350505050565b604080825283519082018190526000906020906060840190828701845b828110156140c6578151845292840192908401906001016140aa565b50505092019290925292915050565b6020815260006121086020830184613fc0565b6040815260006140fb6040830185613fc0565b905060018060a01b03831660208301529392505050565b60006101608083526141268184018f613fc0565b9050828103602084015261413a818e613fc0565b604084018d9052606084018c90526001600160a01b038b811660808601528a1660a085015260c0840189905260e084018890529150506004851061418e57634e487b7160e01b600052602160045260246000fd5b84610100830152836101208301526141ab61014083018415159052565b9c9b505050505050505050505050565b6060815260006141ce6060830186613fc0565b60208301949094525060400152919050565b60208082526010908201526f14185d5cd8589b194e881c185d5cd95960821b604082015260600190565b6020808252602b908201527f496e697469616c697a61626c653a20636f6e7472616374206973206e6f74206960408201526a6e697469616c697a696e6760a81b606082015260800190565b8381528260208201526060604082015260006142746060830184613fc0565b95945050505050565b60008219821115614290576142906143b7565b500190565b6000826142b257634e487b7160e01b600052601260045260246000fd5b500490565b60008160001904831182151516156142d1576142d16143b7565b500290565b6000828210156142e8576142e86143b7565b500390565b60005b838110156143085781810151838201526020016142f0565b83811115614317576000848401525b50505050565b60008161432c5761432c6143b7565b506000190190565b600181811c9082168061434857607f821691505b6020821081141561436957634e487b7160e01b600052602260045260246000fd5b50919050565b601f8201601f1916810167ffffffffffffffff811182821017156143955761439561440f565b6040525050565b60006000198214156143b0576143b06143b7565b5060010190565b634e487b7160e01b600052601160045260246000fd5b634e487b7160e01b600052602160045260246000fd5b634e487b7160e01b600052603160045260246000fd5b634e487b7160e01b600052603260045260246000fd5b634e487b7160e01b600052604160045260246000fd5b600060033d1115612b1c5760046000803e5060005160e01c90565b600060443d101561444e5790565b6040516003193d81016004833e81513d67ffffffffffffffff816024840111818411171561447e57505050505090565b82850191508151818111156144965750505050505090565b843d87010160208285010111156144b05750505050505090565b6144bf6020828601018761436f565b50909594505050505056fe35a7846a2a701fff6f9d61a46ebff5da578c5dcee8bdf361c569f9ea4ee647710036624afd4ac14e2ebe9b68a6ec0c6e4f6bf5bde2999a61e1fec085ca86697da264697066735822122036bb05863e94c38abf0863a450a043ba4df9c35c7b41168461332faaf8be16be64736f6c63430008070033",
			"opcodes": "PUSH1 0x80 PUSH1 0x40 MSTORE CALLVALUE DUP1 ISZERO PUSH2 0x10 JUMPI PUSH1 0x0 DUP1 REVERT JUMPDEST POP PUSH2 0x4540 DUP1 PUSH2 0x20 PUSH1 0x0 CODECOPY PUSH1 0x0 RETURN INVALID PUSH1 0x80 PUSH1 0x40 MSTORE PUSH1 0x4 CALLDATASIZE LT PUSH2 0x36F JUMPI PUSH1 0x0 CALLDATALOAD PUSH1 0xE0 SHR DUP1 PUSH4 0x86495B04 GT PUSH2 0x1C6 JUMPI DUP1 PUSH4 0xC415B95C GT PUSH2 0xF7 JUMPI DUP1 PUSH4 0xDC1A0911 GT PUSH2 0x95 JUMPI DUP1 PUSH4 0xE86DEA4A GT PUSH2 0x6F JUMPI DUP1 PUSH4 0xE86DEA4A EQ PUSH2 0xAA9 JUMPI DUP1 PUSH4 0xF107CFCB EQ PUSH2 0xAC0 JUMPI DUP1 PUSH4 0xF224AA4F EQ PUSH2 0xAE0 JUMPI DUP1 PUSH4 0xF36C8F5C EQ PUSH2 0xB00 JUMPI PUSH1 0x0 DUP1 REVERT JUMPDEST DUP1 PUSH4 0xDC1A0911 EQ PUSH2 0xA13 JUMPI DUP1 PUSH4 0xE5675219 EQ PUSH2 0xA33 JUMPI DUP1 PUSH4 0xE83D6F07 EQ PUSH2 0xA6D JUMPI PUSH1 0x0 DUP1 REVERT JUMPDEST DUP1 PUSH4 0xD3A86386 GT PUSH2 0xD1 JUMPI DUP1 PUSH4 0xD3A86386 EQ PUSH2 0x99B JUMPI DUP1 PUSH4 0xD547741F EQ PUSH2 0x9B2 JUMPI DUP1 PUSH4 0xD56D229D EQ PUSH2 0x9D2 JUMPI DUP1 PUSH4 0xDA742228 EQ PUSH2 0x9F3 JUMPI PUSH1 0x0 DUP1 REVERT JUMPDEST DUP1 PUSH4 0xC415B95C EQ PUSH2 0x943 JUMPI DUP1 PUSH4 0xCA15C873 EQ PUSH2 0x964 JUMPI DUP1 PUSH4 0xD00A818F EQ PUSH2 0x984 JUMPI PUSH1 0x0 DUP1 REVERT JUMPDEST DUP1 PUSH4 0xA70806F7 GT PUSH2 0x164 JUMPI DUP1 PUSH4 0xB69EF8A8 GT PUSH2 0x13E JUMPI DUP1 PUSH4 0xB69EF8A8 EQ PUSH2 0x8E2 JUMPI DUP1 PUSH4 0xBE841E02 EQ PUSH2 0x8F7 JUMPI DUP1 PUSH4 0xBF152765 EQ PUSH2 0x917 JUMPI DUP1 PUSH4 0xC0EF21EE EQ PUSH2 0x92C JUMPI PUSH1 0x0 DUP1 REVERT JUMPDEST DUP1 PUSH4 0xA70806F7 EQ PUSH2 0x898 JUMPI DUP1 PUSH4 0xA740D68E EQ PUSH2 0x8B8 JUMPI DUP1 PUSH4 0xAAFA3061 EQ PUSH2 0x8CB JUMPI PUSH1 0x0 DUP1 REVERT JUMPDEST DUP1 PUSH4 0x91D14854 GT PUSH2 0x1A0 JUMPI DUP1 PUSH4 0x91D14854 EQ PUSH2 0x82A JUMPI DUP1 PUSH4 0x95ADDB90 EQ PUSH2 0x84A JUMPI DUP1 PUSH4 0x99496E2A EQ PUSH2 0x881 JUMPI DUP1 PUSH4 0xA217FDDF EQ PUSH2 0x42A JUMPI PUSH1 0x0 DUP1 REVERT JUMPDEST DUP1 PUSH4 0x86495B04 EQ PUSH2 0x7B2 JUMPI DUP1 PUSH4 0x8CC1AF13 EQ PUSH2 0x7D2 JUMPI DUP1 PUSH4 0x9010D07C EQ PUSH2 0x7F2 JUMPI PUSH1 0x0 DUP1 REVERT JUMPDEST DUP1 PUSH4 0x36568ABE GT PUSH2 0x2A0 JUMPI DUP1 PUSH4 0x5C975ABB GT PUSH2 0x23E JUMPI DUP1 PUSH4 0x662D2A66 GT PUSH2 0x218 JUMPI DUP1 PUSH4 0x662D2A66 EQ PUSH2 0x74A JUMPI DUP1 PUSH4 0x6C3FA899 EQ PUSH2 0x75D JUMPI DUP1 PUSH4 0x7908BBE1 EQ PUSH2 0x77D JUMPI DUP1 PUSH4 0x8456CB59 EQ PUSH2 0x79D JUMPI PUSH1 0x0 DUP1 REVERT JUMPDEST DUP1 PUSH4 0x5C975ABB EQ PUSH2 0x686 JUMPI DUP1 PUSH4 0x602BF227 EQ PUSH2 0x69E JUMPI DUP1 PUSH4 0x65F898E1 EQ PUSH2 0x72A JUMPI PUSH1 0x0 DUP1 REVERT JUMPDEST DUP1 PUSH4 0x4A4C560D GT PUSH2 0x27A JUMPI DUP1 PUSH4 0x4A4C560D EQ PUSH2 0x5E9 JUMPI DUP1 PUSH4 0x4B8E7A34 EQ PUSH2 0x609 JUMPI DUP1 PUSH4 0x50B240BA EQ PUSH2 0x629 JUMPI DUP1 PUSH4 0x572B6C05 EQ PUSH2 0x657 JUMPI PUSH1 0x0 DUP1 REVERT JUMPDEST DUP1 PUSH4 0x36568ABE EQ PUSH2 0x594 JUMPI DUP1 PUSH4 0x3DA01325 EQ PUSH2 0x5B4 JUMPI DUP1 PUSH4 0x3F4BA83A EQ PUSH2 0x5D4 JUMPI PUSH1 0x0 DUP1 REVERT JUMPDEST DUP1 PUSH4 0x21E47049 GT PUSH2 0x30D JUMPI DUP1 PUSH4 0x2C8D6FD6 GT PUSH2 0x2E7 JUMPI DUP1 PUSH4 0x2C8D6FD6 EQ PUSH2 0x514 JUMPI DUP1 PUSH4 0x2E1A7D4D EQ PUSH2 0x534 JUMPI DUP1 PUSH4 0x2F2FF15D EQ PUSH2 0x554 JUMPI DUP1 PUSH4 0x320ED957 EQ PUSH2 0x574 JUMPI PUSH1 0x0 DUP1 REVERT JUMPDEST DUP1 PUSH4 0x21E47049 EQ PUSH2 0x4A4 JUMPI DUP1 PUSH4 0x248A9CA3 EQ PUSH2 0x4C4 JUMPI DUP1 PUSH4 0x27528350 EQ PUSH2 0x4F4 JUMPI PUSH1 0x0 DUP1 REVERT JUMPDEST DUP1 PUSH4 0x69321B0 GT PUSH2 0x349 JUMPI DUP1 PUSH4 0x69321B0 EQ PUSH2 0x42A JUMPI DUP1 PUSH4 0x10E51E14 EQ PUSH2 0x44D JUMPI DUP1 PUSH4 0x190C69A2 EQ PUSH2 0x46D JUMPI DUP1 PUSH4 0x1CF28A36 EQ PUSH2 0x48D JUMPI PUSH1 0x0 DUP1 REVERT JUMPDEST DUP1 PUSH4 0x1FFC9A7 EQ PUSH2 0x3B3 JUMPI DUP1 PUSH4 0x49C067A EQ PUSH2 0x3E8 JUMPI DUP1 PUSH4 0x67F661D EQ PUSH2 0x40A JUMPI PUSH1 0x0 DUP1 REVERT JUMPDEST CALLDATASIZE PUSH2 0x3AE JUMPI PUSH2 0x37C PUSH2 0xB22 JUMP JUMPDEST PUSH1 0x1 PUSH1 0x1 PUSH1 0xA0 SHL SUB AND PUSH1 0x0 DUP1 MLOAD PUSH1 0x20 PUSH2 0x44EB DUP4 CODECOPY DUP2 MLOAD SWAP2 MSTORE CALLVALUE PUSH1 0x40 MLOAD PUSH2 0x3A4 SWAP2 DUP2 MSTORE PUSH1 0x20 ADD SWAP1 JUMP JUMPDEST PUSH1 0x40 MLOAD DUP1 SWAP2 SUB SWAP1 LOG2 STOP JUMPDEST PUSH1 0x0 DUP1 REVERT JUMPDEST CALLVALUE DUP1 ISZERO PUSH2 0x3BF JUMPI PUSH1 0x0 DUP1 REVERT JUMPDEST POP PUSH2 0x3D3 PUSH2 0x3CE CALLDATASIZE PUSH1 0x4 PUSH2 0x3F30 JUMP JUMPDEST PUSH2 0xB31 JUMP JUMPDEST PUSH1 0x40 MLOAD SWAP1 ISZERO ISZERO DUP2 MSTORE PUSH1 0x20 ADD JUMPDEST PUSH1 0x40 MLOAD DUP1 SWAP2 SUB SWAP1 RETURN JUMPDEST CALLVALUE DUP1 ISZERO PUSH2 0x3F4 JUMPI PUSH1 0x0 DUP1 REVERT JUMPDEST POP PUSH2 0x408 PUSH2 0x403 CALLDATASIZE PUSH1 0x4 PUSH2 0x3E2A JUMP JUMPDEST PUSH2 0xB5C JUMP JUMPDEST STOP JUMPDEST CALLVALUE DUP1 ISZERO PUSH2 0x416 JUMPI PUSH1 0x0 DUP1 REVERT JUMPDEST POP PUSH2 0x408 PUSH2 0x425 CALLDATASIZE PUSH1 0x4 PUSH2 0x3E2A JUMP JUMPDEST PUSH2 0xBBE JUMP JUMPDEST CALLVALUE DUP1 ISZERO PUSH2 0x436 JUMPI PUSH1 0x0 DUP1 REVERT JUMPDEST POP PUSH2 0x43F PUSH1 0x0 DUP2 JUMP JUMPDEST PUSH1 0x40 MLOAD SWAP1 DUP2 MSTORE PUSH1 0x20 ADD PUSH2 0x3DF JUMP JUMPDEST CALLVALUE DUP1 ISZERO PUSH2 0x459 JUMPI PUSH1 0x0 DUP1 REVERT JUMPDEST POP PUSH2 0x408 PUSH2 0x468 CALLDATASIZE PUSH1 0x4 PUSH2 0x3F5A JUMP JUMPDEST PUSH2 0xDF5 JUMP JUMPDEST CALLVALUE DUP1 ISZERO PUSH2 0x479 JUMPI PUSH1 0x0 DUP1 REVERT JUMPDEST POP PUSH2 0x408 PUSH2 0x488 CALLDATASIZE PUSH1 0x4 PUSH2 0x3D52 JUMP JUMPDEST PUSH2 0xFE7 JUMP JUMPDEST CALLVALUE DUP1 ISZERO PUSH2 0x499 JUMPI PUSH1 0x0 DUP1 REVERT JUMPDEST POP PUSH2 0x43F PUSH2 0x160 SLOAD DUP2 JUMP JUMPDEST CALLVALUE DUP1 ISZERO PUSH2 0x4B0 JUMPI PUSH1 0x0 DUP1 REVERT JUMPDEST POP PUSH2 0x408 PUSH2 0x4BF CALLDATASIZE PUSH1 0x4 PUSH2 0x3E2A JUMP JUMPDEST PUSH2 0x108E JUMP JUMPDEST CALLVALUE DUP1 ISZERO PUSH2 0x4D0 JUMPI PUSH1 0x0 DUP1 REVERT JUMPDEST POP PUSH2 0x43F PUSH2 0x4DF CALLDATASIZE PUSH1 0x4 PUSH2 0x3E2A JUMP JUMPDEST PUSH1 0x0 SWAP1 DUP2 MSTORE PUSH1 0xC9 PUSH1 0x20 MSTORE PUSH1 0x40 SWAP1 KECCAK256 PUSH1 0x1 ADD SLOAD SWAP1 JUMP JUMPDEST CALLVALUE DUP1 ISZERO PUSH2 0x500 JUMPI PUSH1 0x0 DUP1 REVERT JUMPDEST POP PUSH2 0x43F PUSH2 0x50F CALLDATASIZE PUSH1 0x4 PUSH2 0x3D6D JUMP JUMPDEST PUSH2 0x10FE JUMP JUMPDEST CALLVALUE DUP1 ISZERO PUSH2 0x520 JUMPI PUSH1 0x0 DUP1 REVERT JUMPDEST POP PUSH2 0x3D3 PUSH2 0x52F CALLDATASIZE PUSH1 0x4 PUSH2 0x3D6D JUMP JUMPDEST PUSH2 0x115E JUMP JUMPDEST CALLVALUE DUP1 ISZERO PUSH2 0x540 JUMPI PUSH1 0x0 DUP1 REVERT JUMPDEST POP PUSH2 0x408 PUSH2 0x54F CALLDATASIZE PUSH1 0x4 PUSH2 0x3E2A JUMP JUMPDEST PUSH2 0x11AA JUMP JUMPDEST CALLVALUE DUP1 ISZERO PUSH2 0x560 JUMPI PUSH1 0x0 DUP1 REVERT JUMPDEST POP PUSH2 0x408 PUSH2 0x56F CALLDATASIZE PUSH1 0x4 PUSH2 0x3E5C JUMP JUMPDEST PUSH2 0x133D JUMP JUMPDEST CALLVALUE DUP1 ISZERO PUSH2 0x580 JUMPI PUSH1 0x0 DUP1 REVERT JUMPDEST POP PUSH2 0x408 PUSH2 0x58F CALLDATASIZE PUSH1 0x4 PUSH2 0x3E2A JUMP JUMPDEST PUSH2 0x136A JUMP JUMPDEST CALLVALUE DUP1 ISZERO PUSH2 0x5A0 JUMPI PUSH1 0x0 DUP1 REVERT JUMPDEST POP PUSH2 0x408 PUSH2 0x5AF CALLDATASIZE PUSH1 0x4 PUSH2 0x3E5C JUMP JUMPDEST PUSH2 0x1501 JUMP JUMPDEST CALLVALUE DUP1 ISZERO PUSH2 0x5C0 JUMPI PUSH1 0x0 DUP1 REVERT JUMPDEST POP PUSH2 0x408 PUSH2 0x5CF CALLDATASIZE PUSH1 0x4 PUSH2 0x3D52 JUMP JUMPDEST PUSH2 0x158F JUMP JUMPDEST CALLVALUE DUP1 ISZERO PUSH2 0x5E0 JUMPI PUSH1 0x0 DUP1 REVERT JUMPDEST POP PUSH2 0x408 PUSH2 0x1691 JUMP JUMPDEST CALLVALUE DUP1 ISZERO PUSH2 0x5F5 JUMPI PUSH1 0x0 DUP1 REVERT JUMPDEST POP PUSH2 0x408 PUSH2 0x604 CALLDATASIZE PUSH1 0x4 PUSH2 0x3D52 JUMP JUMPDEST PUSH2 0x1709 JUMP JUMPDEST CALLVALUE DUP1 ISZERO PUSH2 0x615 JUMPI PUSH1 0x0 DUP1 REVERT JUMPDEST POP PUSH2 0x408 PUSH2 0x624 CALLDATASIZE PUSH1 0x4 PUSH2 0x3E2A JUMP JUMPDEST PUSH2 0x1843 JUMP JUMPDEST CALLVALUE DUP1 ISZERO PUSH2 0x635 JUMPI PUSH1 0x0 DUP1 REVERT JUMPDEST POP PUSH2 0x649 PUSH2 0x644 CALLDATASIZE PUSH1 0x4 PUSH2 0x3DF7 JUMP JUMPDEST PUSH2 0x18A6 JUMP JUMPDEST PUSH1 0x40 MLOAD PUSH2 0x3DF SWAP3 SWAP2 SWAP1 PUSH2 0x408D JUMP JUMPDEST CALLVALUE DUP1 ISZERO PUSH2 0x663 JUMPI PUSH1 0x0 DUP1 REVERT JUMPDEST POP PUSH2 0x3D3 PUSH2 0x672 CALLDATASIZE PUSH1 0x4 PUSH2 0x3D52 JUMP JUMPDEST PUSH1 0x65 SLOAD PUSH1 0x1 PUSH1 0x1 PUSH1 0xA0 SHL SUB SWAP2 DUP3 AND SWAP2 AND EQ SWAP1 JUMP JUMPDEST CALLVALUE DUP1 ISZERO PUSH2 0x692 JUMPI PUSH1 0x0 DUP1 REVERT JUMPDEST POP PUSH1 0x33 SLOAD PUSH1 0xFF AND PUSH2 0x3D3 JUMP JUMPDEST CALLVALUE DUP1 ISZERO PUSH2 0x6AA JUMPI PUSH1 0x0 DUP1 REVERT JUMPDEST POP PUSH2 0x6F6 PUSH2 0x6B9 CALLDATASIZE PUSH1 0x4 PUSH2 0x3E2A JUMP JUMPDEST PUSH2 0x169 PUSH1 0x20 MSTORE PUSH1 0x0 SWAP1 DUP2 MSTORE PUSH1 0x40 SWAP1 KECCAK256 DUP1 SLOAD PUSH1 0x1 DUP3 ADD SLOAD PUSH1 0x2 DUP4 ADD SLOAD PUSH1 0x3 DUP5 ADD SLOAD PUSH1 0x4 SWAP1 SWAP5 ADD SLOAD PUSH1 0x1 PUSH1 0x1 PUSH1 0xA0 SHL SUB SWAP1 SWAP4 AND SWAP4 SWAP2 SWAP3 SWAP1 SWAP2 SWAP1 PUSH1 0xFF AND DUP6 JUMP JUMPDEST PUSH1 0x40 DUP1 MLOAD PUSH1 0x1 PUSH1 0x1 PUSH1 0xA0 SHL SUB SWAP1 SWAP7 AND DUP7 MSTORE PUSH1 0x20 DUP7 ADD SWAP5 SWAP1 SWAP5 MSTORE SWAP3 DUP5 ADD SWAP2 SWAP1 SWAP2 MSTORE PUSH1 0x60 DUP4 ADD MSTORE ISZERO ISZERO PUSH1 0x80 DUP3 ADD MSTORE PUSH1 0xA0 ADD PUSH2 0x3DF JUMP JUMPDEST CALLVALUE DUP1 ISZERO PUSH2 0x736 JUMPI PUSH1 0x0 DUP1 REVERT JUMPDEST POP PUSH2 0x408 PUSH2 0x745 CALLDATASIZE PUSH1 0x4 PUSH2 0x3D52 JUMP JUMPDEST PUSH2 0x19DC JUMP JUMPDEST PUSH2 0x43F PUSH2 0x758 CALLDATASIZE PUSH1 0x4 PUSH2 0x3DA0 JUMP JUMPDEST PUSH2 0x1B15 JUMP JUMPDEST CALLVALUE DUP1 ISZERO PUSH2 0x769 JUMPI PUSH1 0x0 DUP1 REVERT JUMPDEST POP PUSH2 0x408 PUSH2 0x778 CALLDATASIZE PUSH1 0x4 PUSH2 0x3E7F JUMP JUMPDEST PUSH2 0x1D2C JUMP JUMPDEST CALLVALUE DUP1 ISZERO PUSH2 0x789 JUMPI PUSH1 0x0 DUP1 REVERT JUMPDEST POP PUSH2 0x408 PUSH2 0x798 CALLDATASIZE PUSH1 0x4 PUSH2 0x3E2A JUMP JUMPDEST PUSH2 0x1E78 JUMP JUMPDEST CALLVALUE DUP1 ISZERO PUSH2 0x7A9 JUMPI PUSH1 0x0 DUP1 REVERT JUMPDEST POP PUSH2 0x408 PUSH2 0x1E9A JUMP JUMPDEST CALLVALUE DUP1 ISZERO PUSH2 0x7BE JUMPI PUSH1 0x0 DUP1 REVERT JUMPDEST POP PUSH2 0x408 PUSH2 0x7CD CALLDATASIZE PUSH1 0x4 PUSH2 0x3E2A JUMP JUMPDEST PUSH2 0x1F0E JUMP JUMPDEST CALLVALUE DUP1 ISZERO PUSH2 0x7DE JUMPI PUSH1 0x0 DUP1 REVERT JUMPDEST POP PUSH2 0x649 PUSH2 0x7ED CALLDATASIZE PUSH1 0x4 PUSH2 0x3F04 JUMP JUMPDEST PUSH2 0x1F7A JUMP JUMPDEST CALLVALUE DUP1 ISZERO PUSH2 0x7FE JUMPI PUSH1 0x0 DUP1 REVERT JUMPDEST POP PUSH2 0x812 PUSH2 0x80D CALLDATASIZE PUSH1 0x4 PUSH2 0x3EE2 JUMP JUMPDEST PUSH2 0x20F0 JUMP JUMPDEST PUSH1 0x40 MLOAD PUSH1 0x1 PUSH1 0x1 PUSH1 0xA0 SHL SUB SWAP1 SWAP2 AND DUP2 MSTORE PUSH1 0x20 ADD PUSH2 0x3DF JUMP JUMPDEST CALLVALUE DUP1 ISZERO PUSH2 0x836 JUMPI PUSH1 0x0 DUP1 REVERT JUMPDEST POP PUSH2 0x3D3 PUSH2 0x845 CALLDATASIZE PUSH1 0x4 PUSH2 0x3E5C JUMP JUMPDEST PUSH2 0x210F JUMP JUMPDEST CALLVALUE DUP1 ISZERO PUSH2 0x856 JUMPI PUSH1 0x0 DUP1 REVERT JUMPDEST POP PUSH2 0x86A PUSH2 0x865 CALLDATASIZE PUSH1 0x4 PUSH2 0x3E2A JUMP JUMPDEST PUSH2 0x213A JUMP JUMPDEST PUSH1 0x40 MLOAD PUSH2 0x3DF SWAP12 SWAP11 SWAP10 SWAP9 SWAP8 SWAP7 SWAP6 SWAP5 SWAP4 SWAP3 SWAP2 SWAP1 PUSH2 0x4112 JUMP JUMPDEST CALLVALUE DUP1 ISZERO PUSH2 0x88D JUMPI PUSH1 0x0 DUP1 REVERT JUMPDEST POP PUSH2 0x43F PUSH2 0x162 SLOAD DUP2 JUMP JUMPDEST CALLVALUE DUP1 ISZERO PUSH2 0x8A4 JUMPI PUSH1 0x0 DUP1 REVERT JUMPDEST POP PUSH2 0x408 PUSH2 0x8B3 CALLDATASIZE PUSH1 0x4 PUSH2 0x3D52 JUMP JUMPDEST PUSH2 0x22B3 JUMP JUMPDEST PUSH2 0x408 PUSH2 0x8C6 CALLDATASIZE PUSH1 0x4 PUSH2 0x3E2A JUMP JUMPDEST PUSH2 0x233C JUMP JUMPDEST CALLVALUE DUP1 ISZERO PUSH2 0x8D7 JUMPI PUSH1 0x0 DUP1 REVERT JUMPDEST POP PUSH2 0x43F PUSH2 0x167 SLOAD DUP2 JUMP JUMPDEST CALLVALUE DUP1 ISZERO PUSH2 0x8EE JUMPI PUSH1 0x0 DUP1 REVERT JUMPDEST POP PUSH2 0x43F PUSH2 0x265E JUMP JUMPDEST CALLVALUE DUP1 ISZERO PUSH2 0x903 JUMPI PUSH1 0x0 DUP1 REVERT JUMPDEST POP PUSH2 0x649 PUSH2 0x912 CALLDATASIZE PUSH1 0x4 PUSH2 0x3DF7 JUMP JUMPDEST PUSH2 0x2675 JUMP JUMPDEST CALLVALUE DUP1 ISZERO PUSH2 0x923 JUMPI PUSH1 0x0 DUP1 REVERT JUMPDEST POP PUSH2 0x43F PUSH2 0x2793 JUMP JUMPDEST CALLVALUE DUP1 ISZERO PUSH2 0x938 JUMPI PUSH1 0x0 DUP1 REVERT JUMPDEST POP PUSH2 0x43F PUSH2 0x166 SLOAD DUP2 JUMP JUMPDEST CALLVALUE DUP1 ISZERO PUSH2 0x94F JUMPI PUSH1 0x0 DUP1 REVERT JUMPDEST POP PUSH2 0x15F SLOAD PUSH2 0x812 SWAP1 PUSH1 0x1 PUSH1 0x1 PUSH1 0xA0 SHL SUB AND DUP2 JUMP JUMPDEST CALLVALUE DUP1 ISZERO PUSH2 0x970 JUMPI PUSH1 0x0 DUP1 REVERT JUMPDEST POP PUSH2 0x43F PUSH2 0x97F CALLDATASIZE PUSH1 0x4 PUSH2 0x3E2A JUMP JUMPDEST PUSH2 0x27C8 JUMP JUMPDEST CALLVALUE DUP1 ISZERO PUSH2 0x990 JUMPI PUSH1 0x0 DUP1 REVERT JUMPDEST POP PUSH2 0x43F PUSH2 0x165 SLOAD DUP2 JUMP JUMPDEST CALLVALUE DUP1 ISZERO PUSH2 0x9A7 JUMPI PUSH1 0x0 DUP1 REVERT JUMPDEST POP PUSH2 0x43F PUSH2 0x161 SLOAD DUP2 JUMP JUMPDEST CALLVALUE DUP1 ISZERO PUSH2 0x9BE JUMPI PUSH1 0x0 DUP1 REVERT JUMPDEST POP PUSH2 0x408 PUSH2 0x9CD CALLDATASIZE PUSH1 0x4 PUSH2 0x3E5C JUMP JUMPDEST PUSH2 0x27DF JUMP JUMPDEST CALLVALUE DUP1 ISZERO PUSH2 0x9DE JUMPI PUSH1 0x0 DUP1 REVERT JUMPDEST POP PUSH2 0x164 SLOAD PUSH2 0x812 SWAP1 PUSH1 0x1 PUSH1 0x1 PUSH1 0xA0 SHL SUB AND DUP2 JUMP JUMPDEST CALLVALUE DUP1 ISZERO PUSH2 0x9FF JUMPI PUSH1 0x0 DUP1 REVERT JUMPDEST POP PUSH2 0x408 PUSH2 0xA0E CALLDATASIZE PUSH1 0x4 PUSH2 0x3D52 JUMP JUMPDEST PUSH2 0x2807 JUMP JUMPDEST CALLVALUE DUP1 ISZERO PUSH2 0xA1F JUMPI PUSH1 0x0 DUP1 REVERT JUMPDEST POP PUSH2 0x3D3 PUSH2 0xA2E CALLDATASIZE PUSH1 0x4 PUSH2 0x3D6D JUMP JUMPDEST PUSH2 0x281E JUMP JUMPDEST CALLVALUE DUP1 ISZERO PUSH2 0xA3F JUMPI PUSH1 0x0 DUP1 REVERT JUMPDEST POP PUSH2 0x43F PUSH2 0xA4E CALLDATASIZE PUSH1 0x4 PUSH2 0x3D52 JUMP JUMPDEST PUSH1 0x1 PUSH1 0x1 PUSH1 0xA0 SHL SUB AND PUSH1 0x0 SWAP1 DUP2 MSTORE PUSH2 0x16A PUSH1 0x20 MSTORE PUSH1 0x40 SWAP1 KECCAK256 PUSH1 0x1 ADD SLOAD SWAP1 JUMP JUMPDEST CALLVALUE DUP1 ISZERO PUSH2 0xA79 JUMPI PUSH1 0x0 DUP1 REVERT JUMPDEST POP PUSH2 0x3D3 PUSH2 0xA88 CALLDATASIZE PUSH1 0x4 PUSH2 0x3D6D JUMP JUMPDEST PUSH2 0x16C PUSH1 0x20 SWAP1 DUP2 MSTORE PUSH1 0x0 SWAP3 DUP4 MSTORE PUSH1 0x40 DUP1 DUP5 KECCAK256 SWAP1 SWAP2 MSTORE SWAP1 DUP3 MSTORE SWAP1 KECCAK256 SLOAD PUSH1 0xFF AND DUP2 JUMP JUMPDEST CALLVALUE DUP1 ISZERO PUSH2 0xAB5 JUMPI PUSH1 0x0 DUP1 REVERT JUMPDEST POP PUSH2 0x43F PUSH2 0x163 SLOAD DUP2 JUMP JUMPDEST CALLVALUE DUP1 ISZERO PUSH2 0xACC JUMPI PUSH1 0x0 DUP1 REVERT JUMPDEST POP PUSH2 0x408 PUSH2 0xADB CALLDATASIZE PUSH1 0x4 PUSH2 0x3D52 JUMP JUMPDEST PUSH2 0x2827 JUMP JUMPDEST CALLVALUE DUP1 ISZERO PUSH2 0xAEC JUMPI PUSH1 0x0 DUP1 REVERT JUMPDEST POP PUSH2 0x408 PUSH2 0xAFB CALLDATASIZE PUSH1 0x4 PUSH2 0x3E2A JUMP JUMPDEST PUSH2 0x28B0 JUMP JUMPDEST CALLVALUE DUP1 ISZERO PUSH2 0xB0C JUMPI PUSH1 0x0 DUP1 REVERT JUMPDEST POP PUSH2 0x43F PUSH1 0x0 DUP1 MLOAD PUSH1 0x20 PUSH2 0x44CB DUP4 CODECOPY DUP2 MLOAD SWAP2 MSTORE DUP2 JUMP JUMPDEST PUSH1 0x0 PUSH2 0xB2C PUSH2 0x2AF4 JUMP JUMPDEST SWAP1 POP SWAP1 JUMP JUMPDEST PUSH1 0x0 PUSH1 0x1 PUSH1 0x1 PUSH1 0xE0 SHL SUB NOT DUP3 AND PUSH4 0x5A05180F PUSH1 0xE0 SHL EQ DUP1 PUSH2 0xB56 JUMPI POP PUSH2 0xB56 DUP3 PUSH2 0x2B1F JUMP JUMPDEST SWAP3 SWAP2 POP POP JUMP JUMPDEST PUSH1 0x0 PUSH2 0xB6F DUP2 PUSH2 0xB6A PUSH2 0xB22 JUMP JUMPDEST PUSH2 0x2B54 JUMP JUMPDEST PUSH1 0x40 DUP1 MLOAD DUP1 DUP3 ADD SWAP1 SWAP2 MSTORE PUSH1 0x6 DUP2 MSTORE PUSH6 0x60607260607 PUSH1 0xD3 SHL PUSH1 0x20 DUP3 ADD MSTORE PUSH1 0x1 DUP4 GT PUSH2 0xBB6 JUMPI PUSH1 0x40 MLOAD PUSH3 0x461BCD PUSH1 0xE5 SHL DUP2 MSTORE PUSH1 0x4 ADD PUSH2 0xBAD SWAP2 SWAP1 PUSH2 0x40D5 JUMP JUMPDEST PUSH1 0x40 MLOAD DUP1 SWAP2 SUB SWAP1 REVERT JUMPDEST POP POP PUSH2 0x167 SSTORE JUMP JUMPDEST PUSH1 0x33 SLOAD PUSH1 0xFF AND ISZERO PUSH2 0xBE1 JUMPI PUSH1 0x40 MLOAD PUSH3 0x461BCD PUSH1 0xE5 SHL DUP2 MSTORE PUSH1 0x4 ADD PUSH2 0xBAD SWAP1 PUSH2 0x41E0 JUMP JUMPDEST PUSH1 0x0 DUP2 DUP2 MSTORE PUSH2 0x168 PUSH1 0x20 SWAP1 DUP2 MSTORE PUSH1 0x40 SWAP2 DUP3 SWAP1 KECCAK256 PUSH1 0x4 ADD SLOAD DUP3 MLOAD DUP1 DUP5 ADD SWAP1 SWAP4 MSTORE PUSH1 0x6 DUP4 MSTORE PUSH6 0x303032303033 PUSH1 0xD0 SHL SWAP2 DUP4 ADD SWAP2 SWAP1 SWAP2 MSTORE DUP3 SWAP2 SWAP1 PUSH1 0x1 PUSH1 0x1 PUSH1 0xA0 SHL SUB AND PUSH2 0xC3E JUMPI PUSH1 0x40 MLOAD PUSH3 0x461BCD PUSH1 0xE5 SHL DUP2 MSTORE PUSH1 0x4 ADD PUSH2 0xBAD SWAP2 SWAP1 PUSH2 0x40D5 JUMP JUMPDEST POP DUP2 PUSH2 0xC48 PUSH2 0xB22 JUMP JUMPDEST PUSH1 0x0 DUP3 DUP2 MSTORE PUSH2 0x168 PUSH1 0x20 SWAP1 DUP2 MSTORE PUSH1 0x40 SWAP2 DUP3 SWAP1 KECCAK256 PUSH1 0x4 ADD SLOAD DUP3 MLOAD DUP1 DUP5 ADD SWAP1 SWAP4 MSTORE PUSH1 0x6 DUP4 MSTORE PUSH6 0x181819181819 PUSH1 0xD1 SHL SWAP2 DUP4 ADD SWAP2 SWAP1 SWAP2 MSTORE SWAP1 SWAP2 PUSH1 0x1 PUSH1 0x1 PUSH1 0xA0 SHL SUB SWAP2 DUP3 AND SWAP2 AND EQ PUSH2 0xCA9 JUMPI PUSH1 0x40 MLOAD PUSH3 0x461BCD PUSH1 0xE5 SHL DUP2 MSTORE PUSH1 0x4 ADD PUSH2 0xBAD SWAP2 SWAP1 PUSH2 0x40D5 JUMP JUMPDEST POP PUSH1 0x0 DUP4 DUP2 MSTORE PUSH2 0x168 PUSH1 0x20 MSTORE PUSH1 0x40 SWAP1 DUP2 SWAP1 KECCAK256 SWAP1 MLOAD PUSH4 0x12C07281 PUSH1 0xE3 SHL DUP2 MSTORE PUSH1 0x4 DUP2 ADD DUP3 SWAP1 MSTORE PUSH20 0x0 SWAP1 PUSH4 0x96039408 SWAP1 PUSH1 0x24 ADD PUSH1 0x0 PUSH1 0x40 MLOAD DUP1 DUP4 SUB DUP2 DUP7 DUP1 EXTCODESIZE ISZERO DUP1 ISZERO PUSH2 0xD05 JUMPI PUSH1 0x0 DUP1 REVERT JUMPDEST POP GAS DELEGATECALL ISZERO DUP1 ISZERO PUSH2 0xD19 JUMPI RETURNDATASIZE PUSH1 0x0 DUP1 RETURNDATACOPY RETURNDATASIZE PUSH1 0x0 REVERT JUMPDEST POP POP POP POP DUP1 PUSH1 0x2 ADD SLOAD PUSH2 0x16B PUSH1 0x0 PUSH2 0xD2F PUSH2 0xB22 JUMP JUMPDEST PUSH1 0x1 PUSH1 0x1 PUSH1 0xA0 SHL SUB AND PUSH1 0x1 PUSH1 0x1 PUSH1 0xA0 SHL SUB AND DUP2 MSTORE PUSH1 0x20 ADD SWAP1 DUP2 MSTORE PUSH1 0x20 ADD PUSH1 0x0 KECCAK256 PUSH1 0x0 DUP3 DUP3 SLOAD PUSH2 0xD5E SWAP2 SWAP1 PUSH2 0x427D JUMP JUMPDEST SWAP1 SWAP2 SSTORE POP PUSH2 0xD6C SWAP1 POP PUSH2 0xB22 JUMP JUMPDEST PUSH1 0x1 PUSH1 0x1 PUSH1 0xA0 SHL SUB AND PUSH1 0x0 DUP1 MLOAD PUSH1 0x20 PUSH2 0x44EB DUP4 CODECOPY DUP2 MLOAD SWAP2 MSTORE DUP3 PUSH1 0x2 ADD SLOAD PUSH1 0x40 MLOAD PUSH2 0xD98 SWAP2 DUP2 MSTORE PUSH1 0x20 ADD SWAP1 JUMP JUMPDEST PUSH1 0x40 MLOAD DUP1 SWAP2 SUB SWAP1 LOG2 PUSH2 0xDA8 PUSH2 0xB22 JUMP JUMPDEST PUSH1 0x1 PUSH1 0x1 PUSH1 0xA0 SHL SUB AND DUP5 PUSH32 0xB663B69FB317FE5EC731CE5C4E0CC9531C066C8ABB2F241F3928087F4CD2153C DUP4 PUSH1 0x2 ADD SLOAD PUSH1 0x40 MLOAD PUSH2 0xDE7 SWAP2 DUP2 MSTORE PUSH1 0x20 ADD SWAP1 JUMP JUMPDEST PUSH1 0x40 MLOAD DUP1 SWAP2 SUB SWAP1 LOG3 POP POP POP POP JUMP JUMPDEST PUSH1 0x0 SLOAD PUSH2 0x100 SWAP1 DIV PUSH1 0xFF AND PUSH2 0xE10 JUMPI PUSH1 0x0 SLOAD PUSH1 0xFF AND ISZERO PUSH2 0xE14 JUMP JUMPDEST ADDRESS EXTCODESIZE ISZERO JUMPDEST PUSH2 0xE77 JUMPI PUSH1 0x40 MLOAD PUSH3 0x461BCD PUSH1 0xE5 SHL DUP2 MSTORE PUSH1 0x20 PUSH1 0x4 DUP3 ADD MSTORE PUSH1 0x2E PUSH1 0x24 DUP3 ADD MSTORE PUSH32 0x496E697469616C697A61626C653A20636F6E747261637420697320616C726561 PUSH1 0x44 DUP3 ADD MSTORE PUSH14 0x191E481A5B9A5D1A585B1A5E9959 PUSH1 0x92 SHL PUSH1 0x64 DUP3 ADD MSTORE PUSH1 0x84 ADD PUSH2 0xBAD JUMP JUMPDEST PUSH1 0x0 SLOAD PUSH2 0x100 SWAP1 DIV PUSH1 0xFF AND ISZERO DUP1 ISZERO PUSH2 0xE99 JUMPI PUSH1 0x0 DUP1 SLOAD PUSH2 0xFFFF NOT AND PUSH2 0x101 OR SWAP1 SSTORE JUMPDEST PUSH2 0x2710 DUP7 GT ISZERO PUSH2 0xEFE JUMPI PUSH1 0x40 MLOAD PUSH3 0x461BCD PUSH1 0xE5 SHL DUP2 MSTORE PUSH1 0x20 PUSH1 0x4 DUP3 ADD MSTORE PUSH1 0x2A PUSH1 0x24 DUP3 ADD MSTORE PUSH32 0x455243323938313A20726F79616C7479206665652077696C6C20657863656564 PUSH1 0x44 DUP3 ADD MSTORE PUSH10 0x2073616C655072696365 PUSH1 0xB0 SHL PUSH1 0x64 DUP3 ADD MSTORE PUSH1 0x84 ADD PUSH2 0xBAD JUMP JUMPDEST PUSH2 0xF09 PUSH1 0x4 DUP9 PUSH2 0x4295 JUMP JUMPDEST PUSH2 0x166 SSTORE PUSH2 0xF15 PUSH2 0x2BB8 JUMP JUMPDEST PUSH2 0xF1D PUSH2 0x2BFF JUMP JUMPDEST PUSH2 0xF25 PUSH2 0x2C2E JUMP JUMPDEST PUSH2 0xF2E DUP3 PUSH2 0x2C65 JUMP JUMPDEST PUSH2 0x161 DUP8 SWAP1 SSTORE PUSH2 0x163 DUP7 SWAP1 SSTORE PUSH2 0x164 DUP1 SLOAD PUSH2 0x15F DUP1 SLOAD PUSH1 0x1 PUSH1 0x1 PUSH1 0xA0 SHL SUB NOT AND PUSH1 0x1 PUSH1 0x1 PUSH1 0xA0 SHL SUB DUP9 DUP2 AND SWAP2 SWAP1 SWAP2 OR SWAP1 SWAP2 SSTORE PUSH3 0x15180 PUSH2 0x162 SSTORE PUSH2 0x384 PUSH2 0x165 SSTORE DUP8 AND PUSH1 0x1 PUSH1 0x1 PUSH1 0xA8 SHL SUB NOT SWAP1 SWAP2 AND OR SWAP1 SSTORE PUSH1 0x3 PUSH2 0x167 SSTORE PUSH2 0x16D DUP1 SLOAD PUSH1 0x1 ADD SWAP1 SSTORE PUSH2 0xF9B PUSH1 0x0 DUP5 PUSH2 0x2CA0 JUMP JUMPDEST PUSH2 0xFB3 PUSH1 0x0 DUP1 MLOAD PUSH1 0x20 PUSH2 0x44CB DUP4 CODECOPY DUP2 MLOAD SWAP2 MSTORE DUP5 PUSH2 0x2CA0 JUMP JUMPDEST PUSH2 0xFCC PUSH1 0x0 DUP1 MLOAD PUSH1 0x20 PUSH2 0x44CB DUP4 CODECOPY DUP2 MLOAD SWAP2 MSTORE PUSH1 0x0 PUSH2 0x2CAA JUMP JUMPDEST DUP1 ISZERO PUSH2 0xFDE JUMPI PUSH1 0x0 DUP1 SLOAD PUSH2 0xFF00 NOT AND SWAP1 SSTORE JUMPDEST POP POP POP POP POP POP POP JUMP JUMPDEST PUSH1 0x0 PUSH2 0x16A PUSH1 0x0 PUSH2 0xFF6 PUSH2 0xB22 JUMP JUMPDEST PUSH1 0x1 PUSH1 0x1 PUSH1 0xA0 SHL SUB SWAP1 DUP2 AND DUP3 MSTORE PUSH1 0x20 DUP1 DUP4 ADD SWAP4 SWAP1 SWAP4 MSTORE PUSH1 0x40 SWAP2 DUP3 ADD PUSH1 0x0 SWAP1 DUP2 KECCAK256 SWAP2 DUP7 AND DUP2 MSTORE PUSH1 0x6 SWAP1 SWAP2 ADD SWAP1 SWAP3 MSTORE SWAP1 KECCAK256 DUP1 SLOAD PUSH1 0xFF NOT AND PUSH1 0x1 DUP4 PUSH1 0x2 DUP2 GT ISZERO PUSH2 0x103F JUMPI PUSH2 0x103F PUSH2 0x43CD JUMP JUMPDEST MUL OR SWAP1 SSTORE POP DUP1 PUSH1 0x1 PUSH1 0x1 PUSH1 0xA0 SHL SUB AND PUSH2 0x1056 PUSH2 0xB22 JUMP JUMPDEST PUSH1 0x1 PUSH1 0x1 PUSH1 0xA0 SHL SUB AND PUSH32 0xDC9EC6C8CA20E67E0CBECB5536D5C021046DD6A9A43B1B03D2B10235767D4502 PUSH1 0x40 MLOAD PUSH1 0x40 MLOAD DUP1 SWAP2 SUB SWAP1 LOG3 POP JUMP JUMPDEST PUSH2 0x161 SLOAD DUP2 LT ISZERO PUSH1 0x40 MLOAD DUP1 PUSH1 0x40 ADD PUSH1 0x40 MSTORE DUP1 PUSH1 0x6 DUP2 MSTORE PUSH1 0x20 ADD PUSH6 0x303039303033 PUSH1 0xD0 SHL DUP2 MSTORE POP SWAP1 PUSH2 0x10D2 JUMPI PUSH1 0x40 MLOAD PUSH3 0x461BCD PUSH1 0xE5 SHL DUP2 MSTORE PUSH1 0x4 ADD PUSH2 0xBAD SWAP2 SWAP1 PUSH2 0x40D5 JUMP JUMPDEST POP DUP1 PUSH2 0x16A PUSH1 0x0 PUSH2 0x10E1 PUSH2 0xB22 JUMP JUMPDEST PUSH1 0x1 PUSH1 0x1 PUSH1 0xA0 SHL SUB AND DUP2 MSTORE PUSH1 0x20 DUP2 ADD SWAP2 SWAP1 SWAP2 MSTORE PUSH1 0x40 ADD PUSH1 0x0 KECCAK256 SSTORE POP JUMP JUMPDEST PUSH1 0x0 PUSH2 0x110A DUP4 DUP4 PUSH2 0x281E JUMP JUMPDEST ISZERO PUSH2 0x1117 JUMPI POP PUSH1 0x0 PUSH2 0xB56 JUMP JUMPDEST PUSH1 0x1 PUSH1 0x1 PUSH1 0xA0 SHL SUB DUP3 AND PUSH1 0x0 SWAP1 DUP2 MSTORE PUSH2 0x16A PUSH1 0x20 MSTORE PUSH1 0x40 SWAP1 KECCAK256 SLOAD PUSH2 0x113F JUMPI POP PUSH2 0x161 SLOAD PUSH2 0xB56 JUMP JUMPDEST POP PUSH1 0x1 PUSH1 0x1 PUSH1 0xA0 SHL SUB AND PUSH1 0x0 SWAP1 DUP2 MSTORE PUSH2 0x16A PUSH1 0x20 MSTORE PUSH1 0x40 SWAP1 KECCAK256 SLOAD SWAP2 SWAP1 POP JUMP JUMPDEST PUSH1 0x0 PUSH1 0x1 JUMPDEST PUSH1 0x1 PUSH1 0x1 PUSH1 0xA0 SHL SUB DUP1 DUP5 AND PUSH1 0x0 SWAP1 DUP2 MSTORE PUSH2 0x16A PUSH1 0x20 SWAP1 DUP2 MSTORE PUSH1 0x40 DUP1 DUP4 KECCAK256 SWAP4 DUP9 AND DUP4 MSTORE PUSH1 0x6 SWAP1 SWAP4 ADD SWAP1 MSTORE KECCAK256 SLOAD PUSH1 0xFF AND PUSH1 0x2 DUP2 GT ISZERO PUSH2 0x11A2 JUMPI PUSH2 0x11A2 PUSH2 0x43CD JUMP JUMPDEST EQ SWAP4 SWAP3 POP POP POP JUMP JUMPDEST PUSH1 0x33 SLOAD PUSH1 0xFF AND ISZERO PUSH2 0x11CD JUMPI PUSH1 0x40 MLOAD PUSH3 0x461BCD PUSH1 0xE5 SHL DUP2 MSTORE PUSH1 0x4 ADD PUSH2 0xBAD SWAP1 PUSH2 0x41E0 JUMP JUMPDEST PUSH1 0x2 PUSH2 0x12D SLOAD EQ ISZERO PUSH2 0x1221 JUMPI PUSH1 0x40 MLOAD PUSH3 0x461BCD PUSH1 0xE5 SHL DUP2 MSTORE PUSH1 0x20 PUSH1 0x4 DUP3 ADD MSTORE PUSH1 0x1F PUSH1 0x24 DUP3 ADD MSTORE PUSH32 0x5265656E7472616E637947756172643A207265656E7472616E742063616C6C00 PUSH1 0x44 DUP3 ADD MSTORE PUSH1 0x64 ADD PUSH2 0xBAD JUMP JUMPDEST PUSH1 0x2 PUSH2 0x12D SSTORE PUSH2 0x16B PUSH1 0x0 PUSH2 0x1234 PUSH2 0xB22 JUMP JUMPDEST PUSH1 0x1 PUSH1 0x1 PUSH1 0xA0 SHL SUB AND PUSH1 0x1 PUSH1 0x1 PUSH1 0xA0 SHL SUB AND DUP2 MSTORE PUSH1 0x20 ADD SWAP1 DUP2 MSTORE PUSH1 0x20 ADD PUSH1 0x0 KECCAK256 SLOAD DUP2 GT ISZERO PUSH1 0x40 MLOAD DUP1 PUSH1 0x40 ADD PUSH1 0x40 MSTORE DUP1 PUSH1 0x6 DUP2 MSTORE PUSH1 0x20 ADD PUSH6 0x303039303031 PUSH1 0xD0 SHL DUP2 MSTORE POP SWAP1 PUSH2 0x1295 JUMPI PUSH1 0x40 MLOAD PUSH3 0x461BCD PUSH1 0xE5 SHL DUP2 MSTORE PUSH1 0x4 ADD PUSH2 0xBAD SWAP2 SWAP1 PUSH2 0x40D5 JUMP JUMPDEST POP DUP1 PUSH2 0x16B PUSH1 0x0 PUSH2 0x12A4 PUSH2 0xB22 JUMP JUMPDEST PUSH1 0x1 PUSH1 0x1 PUSH1 0xA0 SHL SUB AND PUSH1 0x1 PUSH1 0x1 PUSH1 0xA0 SHL SUB AND DUP2 MSTORE PUSH1 0x20 ADD SWAP1 DUP2 MSTORE PUSH1 0x20 ADD PUSH1 0x0 KECCAK256 PUSH1 0x0 DUP3 DUP3 SLOAD PUSH2 0x12D3 SWAP2 SWAP1 PUSH2 0x42D6 JUMP JUMPDEST SWAP1 SWAP2 SSTORE POP PUSH2 0x12EA SWAP1 POP PUSH2 0x12E4 PUSH2 0xB22 JUMP JUMPDEST DUP3 PUSH2 0x2CF5 JUMP JUMPDEST PUSH2 0x12F2 PUSH2 0xB22 JUMP JUMPDEST PUSH1 0x1 PUSH1 0x1 PUSH1 0xA0 SHL SUB AND PUSH32 0x884EDAD9CE6FA2440D8A54CC123490EB96D2768479D49FF9C7366125A9424364 DUP3 PUSH1 0x40 MLOAD PUSH2 0x132C SWAP2 DUP2 MSTORE PUSH1 0x20 ADD SWAP1 JUMP JUMPDEST PUSH1 0x40 MLOAD DUP1 SWAP2 SUB SWAP1 LOG2 POP PUSH1 0x1 PUSH2 0x12D SSTORE JUMP JUMPDEST PUSH1 0x0 DUP3 DUP2 MSTORE PUSH1 0xC9 PUSH1 0x20 MSTORE PUSH1 0x40 SWAP1 KECCAK256 PUSH1 0x1 ADD SLOAD PUSH2 0x135B DUP2 PUSH2 0xB6A PUSH2 0xB22 JUMP JUMPDEST PUSH2 0x1365 DUP4 DUP4 PUSH2 0x2E0E JUMP JUMPDEST POP POP POP JUMP JUMPDEST PUSH1 0x0 DUP2 DUP2 MSTORE PUSH2 0x168 PUSH1 0x20 SWAP1 DUP2 MSTORE PUSH1 0x40 SWAP2 DUP3 SWAP1 KECCAK256 PUSH1 0x4 ADD SLOAD DUP3 MLOAD DUP1 DUP5 ADD SWAP1 SWAP4 MSTORE PUSH1 0x6 DUP4 MSTORE PUSH6 0x303032303033 PUSH1 0xD0 SHL SWAP2 DUP4 ADD SWAP2 SWAP1 SWAP2 MSTORE DUP3 SWAP2 SWAP1 PUSH1 0x1 PUSH1 0x1 PUSH1 0xA0 SHL SUB AND PUSH2 0x13C7 JUMPI PUSH1 0x40 MLOAD PUSH3 0x461BCD PUSH1 0xE5 SHL DUP2 MSTORE PUSH1 0x4 ADD PUSH2 0xBAD SWAP2 SWAP1 PUSH2 0x40D5 JUMP JUMPDEST POP PUSH2 0x13D0 PUSH2 0xB22 JUMP JUMPDEST PUSH1 0x0 DUP4 DUP2 MSTORE PUSH2 0x168 PUSH1 0x20 SWAP1 DUP2 MSTORE PUSH1 0x40 SWAP2 DUP3 SWAP1 KECCAK256 PUSH1 0x4 ADD SLOAD DUP3 MLOAD DUP1 DUP5 ADD SWAP1 SWAP4 MSTORE PUSH1 0x6 DUP4 MSTORE PUSH6 0x181819181819 PUSH1 0xD1 SHL SWAP2 DUP4 ADD SWAP2 SWAP1 SWAP2 MSTORE SWAP1 SWAP2 PUSH1 0x1 PUSH1 0x1 PUSH1 0xA0 SHL SUB SWAP2 DUP3 AND SWAP2 AND EQ PUSH2 0x1431 JUMPI PUSH1 0x40 MLOAD PUSH3 0x461BCD PUSH1 0xE5 SHL DUP2 MSTORE PUSH1 0x4 ADD PUSH2 0xBAD SWAP2 SWAP1 PUSH2 0x40D5 JUMP JUMPDEST POP PUSH1 0x3 PUSH1 0x0 DUP4 DUP2 MSTORE PUSH2 0x168 PUSH1 0x20 MSTORE PUSH1 0x40 SWAP1 KECCAK256 PUSH1 0x9 ADD SLOAD PUSH1 0xFF AND PUSH1 0x3 DUP2 GT ISZERO PUSH2 0x145B JUMPI PUSH2 0x145B PUSH2 0x43CD JUMP JUMPDEST EQ PUSH1 0x40 MLOAD DUP1 PUSH1 0x40 ADD PUSH1 0x40 MSTORE DUP1 PUSH1 0x6 DUP2 MSTORE PUSH1 0x20 ADD PUSH6 0x303032303039 PUSH1 0xD0 SHL DUP2 MSTORE POP SWAP1 PUSH2 0x1499 JUMPI PUSH1 0x40 MLOAD PUSH3 0x461BCD PUSH1 0xE5 SHL DUP2 MSTORE PUSH1 0x4 ADD PUSH2 0xBAD SWAP2 SWAP1 PUSH2 0x40D5 JUMP JUMPDEST POP PUSH1 0x0 DUP3 DUP2 MSTORE PUSH2 0x168 PUSH1 0x20 MSTORE PUSH1 0x40 DUP1 DUP3 KECCAK256 PUSH1 0xB DUP2 ADD DUP1 SLOAD PUSH1 0xFF NOT AND PUSH1 0x1 OR SWAP1 SSTORE PUSH1 0x5 DUP2 ADD SLOAD PUSH1 0x4 SWAP1 SWAP2 ADD SLOAD SWAP2 MLOAD PUSH1 0x1 PUSH1 0x1 PUSH1 0xA0 SHL SUB SWAP2 DUP3 AND SWAP4 SWAP3 SWAP1 SWAP2 AND SWAP2 DUP6 SWAP2 PUSH32 0xE7517190A8EAB1D92CBE89214C9CC1E5B0896D93C91BC93BF4C836CB8110B183 SWAP2 SWAP1 LOG4 POP POP JUMP JUMPDEST PUSH2 0x1509 PUSH2 0xB22 JUMP JUMPDEST PUSH1 0x1 PUSH1 0x1 PUSH1 0xA0 SHL SUB AND DUP2 PUSH1 0x1 PUSH1 0x1 PUSH1 0xA0 SHL SUB AND EQ PUSH2 0x1581 JUMPI PUSH1 0x40 MLOAD PUSH3 0x461BCD PUSH1 0xE5 SHL DUP2 MSTORE PUSH1 0x20 PUSH1 0x4 DUP3 ADD MSTORE PUSH1 0x2F PUSH1 0x24 DUP3 ADD MSTORE PUSH32 0x416363657373436F6E74726F6C3A2063616E206F6E6C792072656E6F756E6365 PUSH1 0x44 DUP3 ADD MSTORE PUSH15 0x103937B632B9903337B91039B2B633 PUSH1 0x89 SHL PUSH1 0x64 DUP3 ADD MSTORE PUSH1 0x84 ADD PUSH2 0xBAD JUMP JUMPDEST PUSH2 0x158B DUP3 DUP3 PUSH2 0x2E30 JUMP JUMPDEST POP POP JUMP JUMPDEST DUP1 PUSH1 0x1 PUSH1 0x1 PUSH1 0xA0 SHL SUB AND PUSH2 0x15A1 PUSH2 0xB22 JUMP JUMPDEST PUSH1 0x1 PUSH1 0x1 PUSH1 0xA0 SHL SUB AND EQ ISZERO PUSH1 0x40 MLOAD DUP1 PUSH1 0x40 ADD PUSH1 0x40 MSTORE DUP1 PUSH1 0x6 DUP2 MSTORE PUSH1 0x20 ADD PUSH6 0x30303930313 PUSH1 0xD4 SHL DUP2 MSTORE POP SWAP1 PUSH2 0x15E9 JUMPI PUSH1 0x40 MLOAD PUSH3 0x461BCD PUSH1 0xE5 SHL DUP2 MSTORE PUSH1 0x4 ADD PUSH2 0xBAD SWAP2 SWAP1 PUSH2 0x40D5 JUMP JUMPDEST POP PUSH1 0x1 PUSH2 0x16A PUSH1 0x0 PUSH2 0x15F9 PUSH2 0xB22 JUMP JUMPDEST PUSH1 0x1 PUSH1 0x1 PUSH1 0xA0 SHL SUB SWAP1 DUP2 AND DUP3 MSTORE PUSH1 0x20 DUP1 DUP4 ADD SWAP4 SWAP1 SWAP4 MSTORE PUSH1 0x40 SWAP2 DUP3 ADD PUSH1 0x0 SWAP1 DUP2 KECCAK256 SWAP2 DUP7 AND DUP2 MSTORE PUSH1 0x6 SWAP1 SWAP2 ADD SWAP1 SWAP3 MSTORE SWAP1 KECCAK256 DUP1 SLOAD PUSH1 0xFF NOT AND PUSH1 0x1 DUP4 PUSH1 0x2 DUP2 GT ISZERO PUSH2 0x1642 JUMPI PUSH2 0x1642 PUSH2 0x43CD JUMP JUMPDEST MUL OR SWAP1 SSTORE POP DUP1 PUSH1 0x1 PUSH1 0x1 PUSH1 0xA0 SHL SUB AND PUSH2 0x1659 PUSH2 0xB22 JUMP JUMPDEST PUSH1 0x1 PUSH1 0x1 PUSH1 0xA0 SHL SUB AND PUSH32 0xC931B7E6F18C2A39BCD066690C46C7BA85186501C524FAA844AC2C7213D17325 PUSH1 0x40 MLOAD PUSH1 0x40 MLOAD DUP1 SWAP2 SUB SWAP1 LOG3 POP JUMP JUMPDEST PUSH2 0x169E PUSH1 0x0 PUSH2 0x845 PUSH2 0xB22 JUMP JUMPDEST PUSH2 0x16FF JUMPI PUSH1 0x40 MLOAD PUSH3 0x461BCD PUSH1 0xE5 SHL DUP2 MSTORE PUSH1 0x20 PUSH1 0x4 DUP3 ADD MSTORE PUSH1 0x2C PUSH1 0x24 DUP3 ADD MSTORE PUSH32 0x4D75737420686176652044454641554C545F41444D494E5F524F4C4520726F6C PUSH1 0x44 DUP3 ADD MSTORE PUSH12 0x6520746F20756E7061757365 PUSH1 0xA0 SHL PUSH1 0x64 DUP3 ADD MSTORE PUSH1 0x84 ADD PUSH2 0xBAD JUMP JUMPDEST PUSH2 0x1707 PUSH2 0x2E52 JUMP JUMPDEST JUMP JUMPDEST PUSH1 0x1 PUSH2 0x16A PUSH1 0x0 PUSH2 0x1718 PUSH2 0xB22 JUMP JUMPDEST PUSH1 0x1 PUSH1 0x1 PUSH1 0xA0 SHL SUB SWAP1 DUP2 AND DUP3 MSTORE PUSH1 0x20 DUP1 DUP4 ADD SWAP4 SWAP1 SWAP4 MSTORE PUSH1 0x40 SWAP2 DUP3 ADD PUSH1 0x0 SWAP1 DUP2 KECCAK256 SWAP2 DUP7 AND DUP2 MSTORE PUSH1 0x6 SWAP1 SWAP2 ADD SWAP1 SWAP3 MSTORE SWAP1 KECCAK256 SLOAD PUSH1 0xFF AND PUSH1 0x2 DUP2 GT ISZERO PUSH2 0x175C JUMPI PUSH2 0x175C PUSH2 0x43CD JUMP JUMPDEST EQ ISZERO PUSH1 0x40 MLOAD DUP1 PUSH1 0x40 ADD PUSH1 0x40 MSTORE DUP1 PUSH1 0x6 DUP2 MSTORE PUSH1 0x20 ADD PUSH6 0x18181C98181B PUSH1 0xD1 SHL DUP2 MSTORE POP SWAP1 PUSH2 0x179B JUMPI PUSH1 0x40 MLOAD PUSH3 0x461BCD PUSH1 0xE5 SHL DUP2 MSTORE PUSH1 0x4 ADD PUSH2 0xBAD SWAP2 SWAP1 PUSH2 0x40D5 JUMP JUMPDEST POP PUSH1 0x2 PUSH2 0x16A PUSH1 0x0 PUSH2 0x17AB PUSH2 0xB22 JUMP JUMPDEST PUSH1 0x1 PUSH1 0x1 PUSH1 0xA0 SHL SUB SWAP1 DUP2 AND DUP3 MSTORE PUSH1 0x20 DUP1 DUP4 ADD SWAP4 SWAP1 SWAP4 MSTORE PUSH1 0x40 SWAP2 DUP3 ADD PUSH1 0x0 SWAP1 DUP2 KECCAK256 SWAP2 DUP7 AND DUP2 MSTORE PUSH1 0x6 SWAP1 SWAP2 ADD SWAP1 SWAP3 MSTORE SWAP1 KECCAK256 DUP1 SLOAD PUSH1 0xFF NOT AND PUSH1 0x1 DUP4 PUSH1 0x2 DUP2 GT ISZERO PUSH2 0x17F4 JUMPI PUSH2 0x17F4 PUSH2 0x43CD JUMP JUMPDEST MUL OR SWAP1 SSTORE POP DUP1 PUSH1 0x1 PUSH1 0x1 PUSH1 0xA0 SHL SUB AND PUSH2 0x180B PUSH2 0xB22 JUMP JUMPDEST PUSH1 0x1 PUSH1 0x1 PUSH1 0xA0 SHL SUB AND PUSH32 0x6661A7108AECD07864384529117D96C319C1163E3010C01390F6B704726E07DE PUSH1 0x40 MLOAD PUSH1 0x40 MLOAD DUP1 SWAP2 SUB SWAP1 LOG3 POP JUMP JUMPDEST PUSH1 0x0 PUSH2 0x1851 DUP2 PUSH2 0xB6A PUSH2 0xB22 JUMP JUMPDEST PUSH2 0x185C DUP3 PUSH1 0x4 PUSH2 0x42B7 JUMP JUMPDEST PUSH2 0x161 SLOAD GT PUSH1 0x40 MLOAD DUP1 PUSH1 0x40 ADD PUSH1 0x40 MSTORE DUP1 PUSH1 0x6 DUP2 MSTORE PUSH1 0x20 ADD PUSH6 0x303039303037 PUSH1 0xD0 SHL DUP2 MSTORE POP SWAP1 PUSH2 0x189E JUMPI PUSH1 0x40 MLOAD PUSH3 0x461BCD PUSH1 0xE5 SHL DUP2 MSTORE PUSH1 0x4 ADD PUSH2 0xBAD SWAP2 SWAP1 PUSH2 0x40D5 JUMP JUMPDEST POP POP PUSH2 0x166 SSTORE JUMP JUMPDEST PUSH1 0x1 PUSH1 0x1 PUSH1 0xA0 SHL SUB DUP4 AND PUSH1 0x0 SWAP1 DUP2 MSTORE PUSH2 0x16A PUSH1 0x20 MSTORE PUSH1 0x40 DUP2 KECCAK256 PUSH1 0x1 ADD SLOAD PUSH1 0x60 SWAP2 SWAP1 PUSH2 0x18D2 SWAP1 DUP6 SWAP1 PUSH2 0x42D6 JUMP JUMPDEST DUP4 GT ISZERO PUSH2 0x1904 JUMPI PUSH1 0x1 PUSH1 0x1 PUSH1 0xA0 SHL SUB DUP6 AND PUSH1 0x0 SWAP1 DUP2 MSTORE PUSH2 0x16A PUSH1 0x20 MSTORE PUSH1 0x40 SWAP1 KECCAK256 PUSH1 0x1 ADD SLOAD PUSH2 0x1901 SWAP1 DUP6 SWAP1 PUSH2 0x42D6 JUMP JUMPDEST SWAP3 POP JUMPDEST DUP3 PUSH8 0xFFFFFFFFFFFFFFFF DUP2 GT ISZERO PUSH2 0x191D JUMPI PUSH2 0x191D PUSH2 0x440F JUMP JUMPDEST PUSH1 0x40 MLOAD SWAP1 DUP1 DUP3 MSTORE DUP1 PUSH1 0x20 MUL PUSH1 0x20 ADD DUP3 ADD PUSH1 0x40 MSTORE DUP1 ISZERO PUSH2 0x1946 JUMPI DUP2 PUSH1 0x20 ADD PUSH1 0x20 DUP3 MUL DUP1 CALLDATASIZE DUP4 CALLDATACOPY ADD SWAP1 POP JUMPDEST POP SWAP2 POP PUSH1 0x0 JUMPDEST DUP4 DUP2 LT ISZERO PUSH2 0x19C4 JUMPI PUSH1 0x1 PUSH1 0x1 PUSH1 0xA0 SHL SUB DUP7 AND PUSH1 0x0 SWAP1 DUP2 MSTORE PUSH2 0x16A PUSH1 0x20 MSTORE PUSH1 0x40 SWAP1 KECCAK256 PUSH1 0x1 ADD PUSH2 0x197A DUP3 DUP8 PUSH2 0x427D JUMP JUMPDEST DUP2 SLOAD DUP2 LT PUSH2 0x198A JUMPI PUSH2 0x198A PUSH2 0x43F9 JUMP JUMPDEST SWAP1 PUSH1 0x0 MSTORE PUSH1 0x20 PUSH1 0x0 KECCAK256 ADD SLOAD DUP4 DUP3 DUP2 MLOAD DUP2 LT PUSH2 0x19A7 JUMPI PUSH2 0x19A7 PUSH2 0x43F9 JUMP JUMPDEST PUSH1 0x20 SWAP1 DUP2 MUL SWAP2 SWAP1 SWAP2 ADD ADD MSTORE DUP1 PUSH2 0x19BC DUP2 PUSH2 0x439C JUMP JUMPDEST SWAP2 POP POP PUSH2 0x194C JUMP JUMPDEST POP DUP2 PUSH2 0x19D0 DUP5 DUP7 PUSH2 0x427D JUMP JUMPDEST SWAP2 POP SWAP2 POP SWAP4 POP SWAP4 SWAP2 POP POP JUMP JUMPDEST PUSH1 0x1 PUSH2 0x16A PUSH1 0x0 PUSH2 0x19EB PUSH2 0xB22 JUMP JUMPDEST PUSH1 0x1 PUSH1 0x1 PUSH1 0xA0 SHL SUB SWAP1 DUP2 AND DUP3 MSTORE PUSH1 0x20 DUP1 DUP4 ADD SWAP4 SWAP1 SWAP4 MSTORE PUSH1 0x40 SWAP2 DUP3 ADD PUSH1 0x0 SWAP1 DUP2 KECCAK256 SWAP2 DUP7 AND DUP2 MSTORE PUSH1 0x6 SWAP1 SWAP2 ADD SWAP1 SWAP3 MSTORE SWAP1 KECCAK256 SLOAD PUSH1 0xFF AND PUSH1 0x2 DUP2 GT ISZERO PUSH2 0x1A2F JUMPI PUSH2 0x1A2F PUSH2 0x43CD JUMP JUMPDEST EQ PUSH1 0x40 MLOAD DUP1 PUSH1 0x40 ADD PUSH1 0x40 MSTORE DUP1 PUSH1 0x6 DUP2 MSTORE PUSH1 0x20 ADD PUSH6 0x303039303131 PUSH1 0xD0 SHL DUP2 MSTORE POP SWAP1 PUSH2 0x1A6D JUMPI PUSH1 0x40 MLOAD PUSH3 0x461BCD PUSH1 0xE5 SHL DUP2 MSTORE PUSH1 0x4 ADD PUSH2 0xBAD SWAP2 SWAP1 PUSH2 0x40D5 JUMP JUMPDEST POP PUSH1 0x0 PUSH2 0x16A PUSH1 0x0 PUSH2 0x1A7D PUSH2 0xB22 JUMP JUMPDEST PUSH1 0x1 PUSH1 0x1 PUSH1 0xA0 SHL SUB SWAP1 DUP2 AND DUP3 MSTORE PUSH1 0x20 DUP1 DUP4 ADD SWAP4 SWAP1 SWAP4 MSTORE PUSH1 0x40 SWAP2 DUP3 ADD PUSH1 0x0 SWAP1 DUP2 KECCAK256 SWAP2 DUP7 AND DUP2 MSTORE PUSH1 0x6 SWAP1 SWAP2 ADD SWAP1 SWAP3 MSTORE SWAP1 KECCAK256 DUP1 SLOAD PUSH1 0xFF NOT AND PUSH1 0x1 DUP4 PUSH1 0x2 DUP2 GT ISZERO PUSH2 0x1AC6 JUMPI PUSH2 0x1AC6 PUSH2 0x43CD JUMP JUMPDEST MUL OR SWAP1 SSTORE POP DUP1 PUSH1 0x1 PUSH1 0x1 PUSH1 0xA0 SHL SUB AND PUSH2 0x1ADD PUSH2 0xB22 JUMP JUMPDEST PUSH1 0x1 PUSH1 0x1 PUSH1 0xA0 SHL SUB AND PUSH32 0x35672C674C91F8B0025681A1C8D11A4CA6583E909553290ECFB3D6578FAA8BCE PUSH1 0x40 MLOAD PUSH1 0x40 MLOAD DUP1 SWAP2 SUB SWAP1 LOG3 POP JUMP JUMPDEST PUSH1 0x0 DUP3 PUSH2 0x165 SLOAD DUP2 LT ISZERO PUSH1 0x40 MLOAD DUP1 PUSH1 0x40 ADD PUSH1 0x40 MSTORE DUP1 PUSH1 0x6 DUP2 MSTORE PUSH1 0x20 ADD PUSH6 0x303032303037 PUSH1 0xD0 SHL DUP2 MSTORE POP SWAP1 PUSH2 0x1B5C JUMPI PUSH1 0x40 MLOAD PUSH3 0x461BCD PUSH1 0xE5 SHL DUP2 MSTORE PUSH1 0x4 ADD PUSH2 0xBAD SWAP2 SWAP1 PUSH2 0x40D5 JUMP JUMPDEST POP PUSH1 0x33 SLOAD PUSH1 0xFF AND ISZERO PUSH2 0x1B80 JUMPI PUSH1 0x40 MLOAD PUSH3 0x461BCD PUSH1 0xE5 SHL DUP2 MSTORE PUSH1 0x4 ADD PUSH2 0xBAD SWAP1 PUSH2 0x41E0 JUMP JUMPDEST PUSH1 0x2 PUSH2 0x12D SLOAD EQ ISZERO PUSH2 0x1BD4 JUMPI PUSH1 0x40 MLOAD PUSH3 0x461BCD PUSH1 0xE5 SHL DUP2 MSTORE PUSH1 0x20 PUSH1 0x4 DUP3 ADD MSTORE PUSH1 0x1F PUSH1 0x24 DUP3 ADD MSTORE PUSH32 0x5265656E7472616E637947756172643A207265656E7472616E742063616C6C00 PUSH1 0x44 DUP3 ADD MSTORE PUSH1 0x64 ADD PUSH2 0xBAD JUMP JUMPDEST PUSH1 0x2 PUSH2 0x12D SSTORE PUSH1 0x1 PUSH1 0x1 PUSH1 0xA0 SHL SUB DUP6 AND PUSH1 0x0 SWAP1 DUP2 MSTORE PUSH2 0x16A PUSH1 0x20 MSTORE PUSH1 0x40 DUP2 KECCAK256 DUP2 SWAP1 PUSH1 0x6 ADD DUP2 PUSH2 0x1C01 PUSH2 0xB22 JUMP JUMPDEST PUSH1 0x1 PUSH1 0x1 PUSH1 0xA0 SHL SUB AND DUP2 MSTORE PUSH1 0x20 DUP2 ADD SWAP2 SWAP1 SWAP2 MSTORE PUSH1 0x40 ADD PUSH1 0x0 KECCAK256 SLOAD PUSH1 0xFF AND SWAP1 POP PUSH1 0x1 DUP2 PUSH1 0x2 DUP2 GT ISZERO PUSH2 0x1C34 JUMPI PUSH2 0x1C34 PUSH2 0x43CD JUMP JUMPDEST EQ ISZERO PUSH1 0x40 MLOAD DUP1 PUSH1 0x40 ADD PUSH1 0x40 MSTORE DUP1 PUSH1 0x6 DUP2 MSTORE PUSH1 0x20 ADD PUSH6 0x18181C98181B PUSH1 0xD1 SHL DUP2 MSTORE POP SWAP1 PUSH2 0x1C73 JUMPI PUSH1 0x40 MLOAD PUSH3 0x461BCD PUSH1 0xE5 SHL DUP2 MSTORE PUSH1 0x4 ADD PUSH2 0xBAD SWAP2 SWAP1 PUSH2 0x40D5 JUMP JUMPDEST POP PUSH1 0x2 DUP2 PUSH1 0x2 DUP2 GT ISZERO PUSH2 0x1C88 JUMPI PUSH2 0x1C88 PUSH2 0x43CD JUMP JUMPDEST EQ PUSH2 0x1CF0 JUMPI CALLVALUE PUSH2 0x1C9F PUSH2 0x1C99 PUSH2 0xB22 JUMP JUMPDEST DUP10 PUSH2 0x10FE JUMP JUMPDEST GT ISZERO PUSH1 0x40 MLOAD DUP1 PUSH1 0x40 ADD PUSH1 0x40 MSTORE DUP1 PUSH1 0x6 DUP2 MSTORE PUSH1 0x20 ADD PUSH6 0x30303130313 PUSH1 0xD4 SHL DUP2 MSTORE POP SWAP1 PUSH2 0x1CDE JUMPI PUSH1 0x40 MLOAD PUSH3 0x461BCD PUSH1 0xE5 SHL DUP2 MSTORE PUSH1 0x4 ADD PUSH2 0xBAD SWAP2 SWAP1 PUSH2 0x40D5 JUMP JUMPDEST POP PUSH2 0x166 SLOAD PUSH2 0x1CED SWAP1 CALLVALUE PUSH2 0x42D6 JUMP JUMPDEST SWAP2 POP JUMPDEST PUSH1 0x0 PUSH2 0x1D06 PUSH2 0x1CFD PUSH2 0xB22 JUMP JUMPDEST DUP10 DUP6 DUP11 DUP11 PUSH2 0x2EEB JUMP JUMPDEST SWAP1 POP DUP3 ISZERO PUSH2 0x1D1B JUMPI PUSH2 0x1D1B DUP9 PUSH2 0x166 SLOAD PUSH2 0x2CF5 JUMP JUMPDEST PUSH1 0x1 PUSH2 0x12D SSTORE SWAP8 SWAP7 POP POP POP POP POP POP POP JUMP JUMPDEST PUSH1 0x0 DUP4 DUP2 MSTORE PUSH2 0x168 PUSH1 0x20 SWAP1 DUP2 MSTORE PUSH1 0x40 SWAP2 DUP3 SWAP1 KECCAK256 PUSH1 0x4 ADD SLOAD DUP3 MLOAD DUP1 DUP5 ADD SWAP1 SWAP4 MSTORE PUSH1 0x6 DUP4 MSTORE PUSH6 0x303032303033 PUSH1 0xD0 SHL SWAP2 DUP4 ADD SWAP2 SWAP1 SWAP2 MSTORE DUP5 SWAP2 SWAP1 PUSH1 0x1 PUSH1 0x1 PUSH1 0xA0 SHL SUB AND PUSH2 0x1D89 JUMPI PUSH1 0x40 MLOAD PUSH3 0x461BCD PUSH1 0xE5 SHL DUP2 MSTORE PUSH1 0x4 ADD PUSH2 0xBAD SWAP2 SWAP1 PUSH2 0x40D5 JUMP JUMPDEST POP PUSH2 0x1D92 PUSH2 0xB22 JUMP JUMPDEST PUSH1 0x0 DUP6 DUP2 MSTORE PUSH2 0x168 PUSH1 0x20 SWAP1 DUP2 MSTORE PUSH1 0x40 SWAP2 DUP3 SWAP1 KECCAK256 PUSH1 0x5 ADD SLOAD DUP3 MLOAD DUP1 DUP5 ADD SWAP1 SWAP4 MSTORE PUSH1 0x6 DUP4 MSTORE PUSH6 0x181819181819 PUSH1 0xD1 SHL SWAP2 DUP4 ADD SWAP2 SWAP1 SWAP2 MSTORE SWAP1 SWAP2 PUSH1 0x1 PUSH1 0x1 PUSH1 0xA0 SHL SUB SWAP2 DUP3 AND SWAP2 AND EQ PUSH2 0x1DF3 JUMPI PUSH1 0x40 MLOAD PUSH3 0x461BCD PUSH1 0xE5 SHL DUP2 MSTORE PUSH1 0x4 ADD PUSH2 0xBAD SWAP2 SWAP1 PUSH2 0x40D5 JUMP JUMPDEST POP PUSH1 0x0 DUP1 PUSH2 0x1E02 DUP7 DUP7 DUP7 PUSH2 0x31AA JUMP JUMPDEST SWAP2 POP SWAP2 POP PUSH2 0x1E0E PUSH2 0xB22 JUMP JUMPDEST PUSH1 0x0 DUP8 DUP2 MSTORE PUSH2 0x168 PUSH1 0x20 MSTORE PUSH1 0x40 SWAP1 DUP2 SWAP1 KECCAK256 PUSH1 0x4 ADD SLOAD SWAP1 MLOAD PUSH1 0x1 PUSH1 0x1 PUSH1 0xA0 SHL SUB SWAP3 DUP4 AND SWAP3 SWAP1 SWAP2 AND SWAP1 DUP9 SWAP1 PUSH32 0x82A1CE9F78E8FBA2349A66E92E4634A9981ACDC4EE9D07CBEAF73AF38EC190E7 SWAP1 PUSH2 0x1E68 SWAP1 DUP11 SWAP1 DUP9 SWAP1 DUP9 SWAP1 PUSH2 0x41BB JUMP JUMPDEST PUSH1 0x40 MLOAD DUP1 SWAP2 SUB SWAP1 LOG4 POP POP POP POP POP POP JUMP JUMPDEST PUSH1 0x0 DUP1 MLOAD PUSH1 0x20 PUSH2 0x44CB DUP4 CODECOPY DUP2 MLOAD SWAP2 MSTORE PUSH2 0x1E93 DUP2 PUSH2 0xB6A PUSH2 0xB22 JUMP JUMPDEST POP PUSH2 0x162 SSTORE JUMP JUMPDEST PUSH2 0x1EA7 PUSH1 0x0 PUSH2 0x845 PUSH2 0xB22 JUMP JUMPDEST PUSH2 0x1F06 JUMPI PUSH1 0x40 MLOAD PUSH3 0x461BCD PUSH1 0xE5 SHL DUP2 MSTORE PUSH1 0x20 PUSH1 0x4 DUP3 ADD MSTORE PUSH1 0x2A PUSH1 0x24 DUP3 ADD MSTORE PUSH32 0x4D75737420686176652044454641554C545F41444D494E5F524F4C4520726F6C PUSH1 0x44 DUP3 ADD MSTORE PUSH10 0x6520746F207061757365 PUSH1 0xB0 SHL PUSH1 0x64 DUP3 ADD MSTORE PUSH1 0x84 ADD PUSH2 0xBAD JUMP JUMPDEST PUSH2 0x1707 PUSH2 0x34CC JUMP JUMPDEST PUSH1 0x0 PUSH2 0x1F1C DUP2 PUSH2 0xB6A PUSH2 0xB22 JUMP JUMPDEST PUSH2 0x166 SLOAD DUP3 LT ISZERO PUSH1 0x40 MLOAD DUP1 PUSH1 0x40 ADD PUSH1 0x40 MSTORE DUP1 PUSH1 0x6 DUP2 MSTORE PUSH1 0x20 ADD PUSH6 0x303039303033 PUSH1 0xD0 SHL DUP2 MSTORE POP SWAP1 PUSH2 0x1F60 JUMPI PUSH1 0x40 MLOAD PUSH3 0x461BCD PUSH1 0xE5 SHL DUP2 MSTORE PUSH1 0x4 ADD PUSH2 0xBAD SWAP2 SWAP1 PUSH2 0x40D5 JUMP JUMPDEST POP PUSH2 0x161 DUP3 SWAP1 SSTORE PUSH2 0x1F72 PUSH1 0x4 DUP4 PUSH2 0x4295 JUMP JUMPDEST PUSH2 0x166 SSTORE POP POP JUMP JUMPDEST PUSH1 0x0 DUP4 DUP2 MSTORE PUSH2 0x168 PUSH1 0x20 SWAP1 DUP2 MSTORE PUSH1 0x40 DUP1 DUP4 KECCAK256 PUSH1 0x4 ADD SLOAD DUP2 MLOAD DUP1 DUP4 ADD SWAP1 SWAP3 MSTORE PUSH1 0x6 DUP3 MSTORE PUSH6 0x303032303033 PUSH1 0xD0 SHL SWAP3 DUP3 ADD SWAP3 SWAP1 SWAP3 MSTORE PUSH1 0x60 SWAP3 SWAP2 DUP7 SWAP2 SWAP1 PUSH1 0x1 PUSH1 0x1 PUSH1 0xA0 SHL SUB AND PUSH2 0x1FDA JUMPI PUSH1 0x40 MLOAD PUSH3 0x461BCD PUSH1 0xE5 SHL DUP2 MSTORE PUSH1 0x4 ADD PUSH2 0xBAD SWAP2 SWAP1 PUSH2 0x40D5 JUMP JUMPDEST POP PUSH1 0x0 DUP7 DUP2 MSTORE PUSH2 0x168 PUSH1 0x20 MSTORE PUSH1 0x40 SWAP1 KECCAK256 PUSH1 0x6 ADD SLOAD PUSH2 0x1FF9 SWAP1 DUP7 SWAP1 PUSH2 0x42D6 JUMP JUMPDEST DUP5 GT ISZERO PUSH2 0x2021 JUMPI PUSH1 0x0 DUP7 DUP2 MSTORE PUSH2 0x168 PUSH1 0x20 MSTORE PUSH1 0x40 SWAP1 KECCAK256 PUSH1 0x6 ADD SLOAD PUSH2 0x201E SWAP1 DUP7 SWAP1 PUSH2 0x42D6 JUMP JUMPDEST SWAP4 POP JUMPDEST DUP4 PUSH8 0xFFFFFFFFFFFFFFFF DUP2 GT ISZERO PUSH2 0x203A JUMPI PUSH2 0x203A PUSH2 0x440F JUMP JUMPDEST PUSH1 0x40 MLOAD SWAP1 DUP1 DUP3 MSTORE DUP1 PUSH1 0x20 MUL PUSH1 0x20 ADD DUP3 ADD PUSH1 0x40 MSTORE DUP1 ISZERO PUSH2 0x2063 JUMPI DUP2 PUSH1 0x20 ADD PUSH1 0x20 DUP3 MUL DUP1 CALLDATASIZE DUP4 CALLDATACOPY ADD SWAP1 POP JUMPDEST POP SWAP3 POP PUSH1 0x0 JUMPDEST DUP5 DUP2 LT ISZERO PUSH2 0x20D7 JUMPI PUSH1 0x0 DUP8 DUP2 MSTORE PUSH2 0x168 PUSH1 0x20 MSTORE PUSH1 0x40 SWAP1 KECCAK256 PUSH1 0x6 ADD PUSH2 0x208D DUP3 DUP9 PUSH2 0x427D JUMP JUMPDEST DUP2 SLOAD DUP2 LT PUSH2 0x209D JUMPI PUSH2 0x209D PUSH2 0x43F9 JUMP JUMPDEST SWAP1 PUSH1 0x0 MSTORE PUSH1 0x20 PUSH1 0x0 KECCAK256 ADD SLOAD DUP5 DUP3 DUP2 MLOAD DUP2 LT PUSH2 0x20BA JUMPI PUSH2 0x20BA PUSH2 0x43F9 JUMP JUMPDEST PUSH1 0x20 SWAP1 DUP2 MUL SWAP2 SWAP1 SWAP2 ADD ADD MSTORE DUP1 PUSH2 0x20CF DUP2 PUSH2 0x439C JUMP JUMPDEST SWAP2 POP POP PUSH2 0x2069 JUMP JUMPDEST POP DUP3 PUSH2 0x20E3 DUP6 DUP8 PUSH2 0x427D JUMP JUMPDEST SWAP3 POP SWAP3 POP POP SWAP4 POP SWAP4 SWAP2 POP POP JUMP JUMPDEST PUSH1 0x0 DUP3 DUP2 MSTORE PUSH1 0xFB PUSH1 0x20 MSTORE PUSH1 0x40 DUP2 KECCAK256 PUSH2 0x2108 SWAP1 DUP4 PUSH2 0x3525 JUMP JUMPDEST SWAP4 SWAP3 POP POP POP JUMP JUMPDEST PUSH1 0x0 SWAP2 DUP3 MSTORE PUSH1 0xC9 PUSH1 0x20 SWAP1 DUP2 MSTORE PUSH1 0x40 DUP1 DUP5 KECCAK256 PUSH1 0x1 PUSH1 0x1 PUSH1 0xA0 SHL SUB SWAP4 SWAP1 SWAP4 AND DUP5 MSTORE SWAP2 SWAP1 MSTORE SWAP1 KECCAK256 SLOAD PUSH1 0xFF AND SWAP1 JUMP JUMPDEST PUSH2 0x168 PUSH1 0x20 MSTORE PUSH1 0x0 SWAP1 DUP2 MSTORE PUSH1 0x40 SWAP1 KECCAK256 DUP1 SLOAD DUP2 SWAP1 PUSH2 0x2156 SWAP1 PUSH2 0x4334 JUMP JUMPDEST DUP1 PUSH1 0x1F ADD PUSH1 0x20 DUP1 SWAP2 DIV MUL PUSH1 0x20 ADD PUSH1 0x40 MLOAD SWAP1 DUP2 ADD PUSH1 0x40 MSTORE DUP1 SWAP3 SWAP2 SWAP1 DUP2 DUP2 MSTORE PUSH1 0x20 ADD DUP3 DUP1 SLOAD PUSH2 0x2182 SWAP1 PUSH2 0x4334 JUMP JUMPDEST DUP1 ISZERO PUSH2 0x21CF JUMPI DUP1 PUSH1 0x1F LT PUSH2 0x21A4 JUMPI PUSH2 0x100 DUP1 DUP4 SLOAD DIV MUL DUP4 MSTORE SWAP2 PUSH1 0x20 ADD SWAP2 PUSH2 0x21CF JUMP JUMPDEST DUP3 ADD SWAP2 SWAP1 PUSH1 0x0 MSTORE PUSH1 0x20 PUSH1 0x0 KECCAK256 SWAP1 JUMPDEST DUP2 SLOAD DUP2 MSTORE SWAP1 PUSH1 0x1 ADD SWAP1 PUSH1 0x20 ADD DUP1 DUP4 GT PUSH2 0x21B2 JUMPI DUP3 SWAP1 SUB PUSH1 0x1F AND DUP3 ADD SWAP2 JUMPDEST POP POP POP POP POP SWAP1 DUP1 PUSH1 0x1 ADD DUP1 SLOAD PUSH2 0x21E4 SWAP1 PUSH2 0x4334 JUMP JUMPDEST DUP1 PUSH1 0x1F ADD PUSH1 0x20 DUP1 SWAP2 DIV MUL PUSH1 0x20 ADD PUSH1 0x40 MLOAD SWAP1 DUP2 ADD PUSH1 0x40 MSTORE DUP1 SWAP3 SWAP2 SWAP1 DUP2 DUP2 MSTORE PUSH1 0x20 ADD DUP3 DUP1 SLOAD PUSH2 0x2210 SWAP1 PUSH2 0x4334 JUMP JUMPDEST DUP1 ISZERO PUSH2 0x225D JUMPI DUP1 PUSH1 0x1F LT PUSH2 0x2232 JUMPI PUSH2 0x100 DUP1 DUP4 SLOAD DIV MUL DUP4 MSTORE SWAP2 PUSH1 0x20 ADD SWAP2 PUSH2 0x225D JUMP JUMPDEST DUP3 ADD SWAP2 SWAP1 PUSH1 0x0 MSTORE PUSH1 0x20 PUSH1 0x0 KECCAK256 SWAP1 JUMPDEST DUP2 SLOAD DUP2 MSTORE SWAP1 PUSH1 0x1 ADD SWAP1 PUSH1 0x20 ADD DUP1 DUP4 GT PUSH2 0x2240 JUMPI DUP3 SWAP1 SUB PUSH1 0x1F AND DUP3 ADD SWAP2 JUMPDEST POP POP POP PUSH1 0x2 DUP5 ADD SLOAD PUSH1 0x3 DUP6 ADD SLOAD PUSH1 0x4 DUP7 ADD SLOAD PUSH1 0x5 DUP8 ADD SLOAD PUSH1 0x7 DUP9 ADD SLOAD PUSH1 0x8 DUP10 ADD SLOAD PUSH1 0x9 DUP11 ADD SLOAD PUSH1 0xA DUP12 ADD SLOAD PUSH1 0xB SWAP1 SWAP12 ADD SLOAD SWAP10 SWAP11 SWAP7 SWAP10 SWAP6 SWAP9 POP PUSH1 0x1 PUSH1 0x1 PUSH1 0xA0 SHL SUB SWAP5 DUP6 AND SWAP8 POP SWAP3 SWAP1 SWAP4 AND SWAP5 SWAP1 SWAP4 PUSH1 0xFF SWAP3 DUP4 AND SWAP3 AND DUP12 JUMP JUMPDEST PUSH1 0x1 PUSH2 0x16A PUSH1 0x0 PUSH2 0x22C2 PUSH2 0xB22 JUMP JUMPDEST PUSH1 0x1 PUSH1 0x1 PUSH1 0xA0 SHL SUB SWAP1 DUP2 AND DUP3 MSTORE PUSH1 0x20 DUP1 DUP4 ADD SWAP4 SWAP1 SWAP4 MSTORE PUSH1 0x40 SWAP2 DUP3 ADD PUSH1 0x0 SWAP1 DUP2 KECCAK256 SWAP2 DUP7 AND DUP2 MSTORE PUSH1 0x5 SWAP1 SWAP2 ADD SWAP1 SWAP3 MSTORE SWAP1 KECCAK256 SSTORE PUSH2 0x22FA PUSH2 0xB22 JUMP JUMPDEST PUSH1 0x1 PUSH1 0x1 PUSH1 0xA0 SHL SUB AND DUP2 PUSH1 0x1 PUSH1 0x1 PUSH1 0xA0 SHL SUB AND PUSH32 0xBCCC71DC7842B86291138666AA18E133EE6D41AA71E6D7C650DEBAD1A0576635 PUSH1 0x40 MLOAD PUSH1 0x40 MLOAD DUP1 SWAP2 SUB SWAP1 LOG3 POP JUMP JUMPDEST PUSH1 0x0 DUP2 DUP2 MSTORE PUSH2 0x168 PUSH1 0x20 SWAP1 DUP2 MSTORE PUSH1 0x40 SWAP2 DUP3 SWAP1 KECCAK256 PUSH1 0x4 ADD SLOAD DUP3 MLOAD DUP1 DUP5 ADD SWAP1 SWAP4 MSTORE PUSH1 0x6 DUP4 MSTORE PUSH6 0x303032303033 PUSH1 0xD0 SHL SWAP2 DUP4 ADD SWAP2 SWAP1 SWAP2 MSTORE DUP3 SWAP2 SWAP1 PUSH1 0x1 PUSH1 0x1 PUSH1 0xA0 SHL SUB AND PUSH2 0x2399 JUMPI PUSH1 0x40 MLOAD PUSH3 0x461BCD PUSH1 0xE5 SHL DUP2 MSTORE PUSH1 0x4 ADD PUSH2 0xBAD SWAP2 SWAP1 PUSH2 0x40D5 JUMP JUMPDEST POP PUSH1 0x0 DUP3 DUP2 MSTORE PUSH2 0x168 PUSH1 0x20 MSTORE PUSH1 0x40 SWAP1 DUP2 SWAP1 KECCAK256 SWAP1 MLOAD PUSH4 0xD82BB12B PUSH1 0xE0 SHL DUP2 MSTORE PUSH1 0x4 DUP2 ADD DUP3 SWAP1 MSTORE PUSH20 0x0 SWAP1 PUSH4 0xD82BB12B SWAP1 PUSH1 0x24 ADD PUSH1 0x0 PUSH1 0x40 MLOAD DUP1 DUP4 SUB DUP2 DUP7 DUP1 EXTCODESIZE ISZERO DUP1 ISZERO PUSH2 0x23F5 JUMPI PUSH1 0x0 DUP1 REVERT JUMPDEST POP GAS DELEGATECALL ISZERO DUP1 ISZERO PUSH2 0x2409 JUMPI RETURNDATASIZE PUSH1 0x0 DUP1 RETURNDATACOPY RETURNDATASIZE PUSH1 0x0 REVERT JUMPDEST POP POP POP POP PUSH1 0x0 CALLVALUE GT PUSH1 0x40 MLOAD DUP1 PUSH1 0x40 ADD PUSH1 0x40 MSTORE DUP1 PUSH1 0x6 DUP2 MSTORE PUSH1 0x20 ADD PUSH6 0x303033303035 PUSH1 0xD0 SHL DUP2 MSTORE POP SWAP1 PUSH2 0x244E JUMPI PUSH1 0x40 MLOAD PUSH3 0x461BCD PUSH1 0xE5 SHL DUP2 MSTORE PUSH1 0x4 ADD PUSH2 0xBAD SWAP2 SWAP1 PUSH2 0x40D5 JUMP JUMPDEST POP PUSH1 0x0 PUSH20 0x0 PUSH4 0xFEAC0F70 PUSH2 0x169 DUP7 PUSH2 0x2477 PUSH2 0xB22 JUMP JUMPDEST PUSH1 0x40 MLOAD PUSH1 0x1 PUSH1 0x1 PUSH1 0xE0 SHL SUB NOT PUSH1 0xE0 DUP7 SWAP1 SHL AND DUP2 MSTORE PUSH1 0x4 DUP2 ADD SWAP4 SWAP1 SWAP4 MSTORE PUSH1 0x24 DUP4 ADD SWAP2 SWAP1 SWAP2 MSTORE PUSH1 0x1 PUSH1 0x1 PUSH1 0xA0 SHL SUB AND PUSH1 0x44 DUP3 ADD MSTORE CALLVALUE PUSH1 0x64 DUP3 ADD MSTORE PUSH1 0x84 ADD PUSH1 0x20 PUSH1 0x40 MLOAD DUP1 DUP4 SUB DUP2 DUP7 DUP1 EXTCODESIZE ISZERO DUP1 ISZERO PUSH2 0x24CA JUMPI PUSH1 0x0 DUP1 REVERT JUMPDEST POP GAS DELEGATECALL ISZERO DUP1 ISZERO PUSH2 0x24DE JUMPI RETURNDATASIZE PUSH1 0x0 DUP1 RETURNDATACOPY RETURNDATASIZE PUSH1 0x0 REVERT JUMPDEST POP POP POP POP PUSH1 0x40 MLOAD RETURNDATASIZE PUSH1 0x1F NOT PUSH1 0x1F DUP3 ADD AND DUP3 ADD DUP1 PUSH1 0x40 MSTORE POP DUP2 ADD SWAP1 PUSH2 0x2502 SWAP2 SWAP1 PUSH2 0x3E43 JUMP JUMPDEST PUSH1 0x40 MLOAD PUSH4 0x2219985 PUSH1 0xE2 SHL DUP2 MSTORE PUSH1 0x4 DUP2 ADD DUP5 SWAP1 MSTORE PUSH1 0x24 DUP2 ADD DUP3 SWAP1 MSTORE CALLVALUE PUSH1 0x44 DUP3 ADD MSTORE SWAP1 SWAP2 POP PUSH20 0x0 SWAP1 PUSH4 0x8866614 SWAP1 PUSH1 0x64 ADD PUSH1 0x0 PUSH1 0x40 MLOAD DUP1 DUP4 SUB DUP2 DUP7 DUP1 EXTCODESIZE ISZERO DUP1 ISZERO PUSH2 0x255D JUMPI PUSH1 0x0 DUP1 REVERT JUMPDEST POP GAS DELEGATECALL ISZERO DUP1 ISZERO PUSH2 0x2571 JUMPI RETURNDATASIZE PUSH1 0x0 DUP1 RETURNDATACOPY RETURNDATASIZE PUSH1 0x0 REVERT JUMPDEST POP POP POP POP PUSH1 0x0 PUSH2 0x16A PUSH1 0x0 PUSH2 0x2584 PUSH2 0xB22 JUMP JUMPDEST PUSH1 0x1 PUSH1 0x1 PUSH1 0xA0 SHL SUB AND DUP2 MSTORE PUSH1 0x20 DUP2 ADD SWAP2 SWAP1 SWAP2 MSTORE PUSH1 0x40 SWAP1 DUP2 ADD PUSH1 0x0 KECCAK256 SWAP1 MLOAD PUSH4 0x1BEBC41B PUSH1 0xE0 SHL DUP2 MSTORE PUSH1 0x4 DUP2 ADD DUP3 SWAP1 MSTORE PUSH1 0x24 DUP2 ADD DUP5 SWAP1 MSTORE SWAP1 SWAP2 POP PUSH20 0x0 SWAP1 PUSH4 0x1BEBC41B SWAP1 PUSH1 0x44 ADD PUSH1 0x0 PUSH1 0x40 MLOAD DUP1 DUP4 SUB DUP2 DUP7 DUP1 EXTCODESIZE ISZERO DUP1 ISZERO PUSH2 0x25F3 JUMPI PUSH1 0x0 DUP1 REVERT JUMPDEST POP GAS DELEGATECALL ISZERO DUP1 ISZERO PUSH2 0x2607 JUMPI RETURNDATASIZE PUSH1 0x0 DUP1 RETURNDATACOPY RETURNDATASIZE PUSH1 0x0 REVERT JUMPDEST POP POP POP POP PUSH2 0x2613 PUSH2 0xB22 JUMP JUMPDEST PUSH1 0x1 PUSH1 0x1 PUSH1 0xA0 SHL SUB AND DUP3 DUP7 PUSH32 0xB8A61F3258608A2F1AF184E4640B08E6CD69126E3C563D30B6348EBFB5155884 CALLVALUE PUSH1 0x40 MLOAD PUSH2 0x264F SWAP2 DUP2 MSTORE PUSH1 0x20 ADD SWAP1 JUMP JUMPDEST PUSH1 0x40 MLOAD DUP1 SWAP2 SUB SWAP1 LOG4 POP POP POP POP POP JUMP JUMPDEST PUSH1 0x0 DUP1 PUSH2 0x266D DUP2 PUSH2 0xB6A PUSH2 0xB22 JUMP JUMPDEST SELFBALANCE SWAP2 POP JUMPDEST POP SWAP1 JUMP JUMPDEST PUSH1 0x1 PUSH1 0x1 PUSH1 0xA0 SHL SUB DUP4 AND PUSH1 0x0 SWAP1 DUP2 MSTORE PUSH2 0x16A PUSH1 0x20 MSTORE PUSH1 0x40 DUP2 KECCAK256 PUSH1 0x2 ADD SLOAD PUSH1 0x60 SWAP2 SWAP1 PUSH2 0x26A1 SWAP1 DUP6 SWAP1 PUSH2 0x42D6 JUMP JUMPDEST DUP4 GT ISZERO PUSH2 0x26D3 JUMPI PUSH1 0x1 PUSH1 0x1 PUSH1 0xA0 SHL SUB DUP6 AND PUSH1 0x0 SWAP1 DUP2 MSTORE PUSH2 0x16A PUSH1 0x20 MSTORE PUSH1 0x40 SWAP1 KECCAK256 PUSH1 0x2 ADD SLOAD PUSH2 0x26D0 SWAP1 DUP6 SWAP1 PUSH2 0x42D6 JUMP JUMPDEST SWAP3 POP JUMPDEST DUP3 PUSH8 0xFFFFFFFFFFFFFFFF DUP2 GT ISZERO PUSH2 0x26EC JUMPI PUSH2 0x26EC PUSH2 0x440F JUMP JUMPDEST PUSH1 0x40 MLOAD SWAP1 DUP1 DUP3 MSTORE DUP1 PUSH1 0x20 MUL PUSH1 0x20 ADD DUP3 ADD PUSH1 0x40 MSTORE DUP1 ISZERO PUSH2 0x2715 JUMPI DUP2 PUSH1 0x20 ADD PUSH1 0x20 DUP3 MUL DUP1 CALLDATASIZE DUP4 CALLDATACOPY ADD SWAP1 POP JUMPDEST POP SWAP2 POP PUSH1 0x0 JUMPDEST DUP4 DUP2 LT ISZERO PUSH2 0x19C4 JUMPI PUSH1 0x1 PUSH1 0x1 PUSH1 0xA0 SHL SUB DUP7 AND PUSH1 0x0 SWAP1 DUP2 MSTORE PUSH2 0x16A PUSH1 0x20 MSTORE PUSH1 0x40 SWAP1 KECCAK256 PUSH1 0x2 ADD PUSH2 0x2749 DUP3 DUP8 PUSH2 0x427D JUMP JUMPDEST DUP2 SLOAD DUP2 LT PUSH2 0x2759 JUMPI PUSH2 0x2759 PUSH2 0x43F9 JUMP JUMPDEST SWAP1 PUSH1 0x0 MSTORE PUSH1 0x20 PUSH1 0x0 KECCAK256 ADD SLOAD DUP4 DUP3 DUP2 MLOAD DUP2 LT PUSH2 0x2776 JUMPI PUSH2 0x2776 PUSH2 0x43F9 JUMP JUMPDEST PUSH1 0x20 SWAP1 DUP2 MUL SWAP2 SWAP1 SWAP2 ADD ADD MSTORE DUP1 PUSH2 0x278B DUP2 PUSH2 0x439C JUMP JUMPDEST SWAP2 POP POP PUSH2 0x271B JUMP JUMPDEST PUSH1 0x0 PUSH2 0x16B PUSH1 0x0 PUSH2 0x27A2 PUSH2 0xB22 JUMP JUMPDEST PUSH1 0x1 PUSH1 0x1 PUSH1 0xA0 SHL SUB AND PUSH1 0x1 PUSH1 0x1 PUSH1 0xA0 SHL SUB AND DUP2 MSTORE PUSH1 0x20 ADD SWAP1 DUP2 MSTORE PUSH1 0x20 ADD PUSH1 0x0 KECCAK256 SLOAD SWAP1 POP SWAP1 JUMP JUMPDEST PUSH1 0x0 DUP2 DUP2 MSTORE PUSH1 0xFB PUSH1 0x20 MSTORE PUSH1 0x40 DUP2 KECCAK256 PUSH2 0xB56 SWAP1 PUSH2 0x3531 JUMP JUMPDEST PUSH1 0x0 DUP3 DUP2 MSTORE PUSH1 0xC9 PUSH1 0x20 MSTORE PUSH1 0x40 SWAP1 KECCAK256 PUSH1 0x1 ADD SLOAD PUSH2 0x27FD DUP2 PUSH2 0xB6A PUSH2 0xB22 JUMP JUMPDEST PUSH2 0x1365 DUP4 DUP4 PUSH2 0x2E30 JUMP JUMPDEST PUSH1 0x0 PUSH2 0x2815 DUP2 PUSH2 0xB6A PUSH2 0xB22 JUMP JUMPDEST PUSH2 0x158B DUP3 PUSH2 0x353B JUMP JUMPDEST PUSH1 0x0 PUSH1 0x2 PUSH2 0x1163 JUMP JUMPDEST PUSH1 0x0 PUSH2 0x16A PUSH1 0x0 PUSH2 0x2836 PUSH2 0xB22 JUMP JUMPDEST PUSH1 0x1 PUSH1 0x1 PUSH1 0xA0 SHL SUB SWAP1 DUP2 AND DUP3 MSTORE PUSH1 0x20 DUP1 DUP4 ADD SWAP4 SWAP1 SWAP4 MSTORE PUSH1 0x40 SWAP2 DUP3 ADD PUSH1 0x0 SWAP1 DUP2 KECCAK256 SWAP2 DUP7 AND DUP2 MSTORE PUSH1 0x5 SWAP1 SWAP2 ADD SWAP1 SWAP3 MSTORE SWAP1 KECCAK256 SSTORE PUSH2 0x286E PUSH2 0xB22 JUMP JUMPDEST PUSH1 0x1 PUSH1 0x1 PUSH1 0xA0 SHL SUB AND DUP2 PUSH1 0x1 PUSH1 0x1 PUSH1 0xA0 SHL SUB AND PUSH32 0xE5DCCCFE8E7890C6D4AA94D44C3B409FB6F023337F29C3308077C0C4068192C4 PUSH1 0x40 MLOAD PUSH1 0x40 MLOAD DUP1 SWAP2 SUB SWAP1 LOG3 POP JUMP JUMPDEST PUSH1 0x33 SLOAD PUSH1 0xFF AND ISZERO PUSH2 0x28D3 JUMPI PUSH1 0x40 MLOAD PUSH3 0x461BCD PUSH1 0xE5 SHL DUP2 MSTORE PUSH1 0x4 ADD PUSH2 0xBAD SWAP1 PUSH2 0x41E0 JUMP JUMPDEST PUSH1 0x0 DUP2 DUP2 MSTORE PUSH2 0x169 PUSH1 0x20 SWAP1 DUP2 MSTORE PUSH1 0x40 SWAP2 DUP3 SWAP1 KECCAK256 SLOAD DUP3 MLOAD DUP1 DUP5 ADD SWAP1 SWAP4 MSTORE PUSH1 0x6 DUP4 MSTORE PUSH6 0x303033303033 PUSH1 0xD0 SHL SWAP2 DUP4 ADD SWAP2 SWAP1 SWAP2 MSTORE DUP3 SWAP2 SWAP1 PUSH1 0x1 PUSH1 0x1 PUSH1 0xA0 SHL SUB AND PUSH2 0x292D JUMPI PUSH1 0x40 MLOAD PUSH3 0x461BCD PUSH1 0xE5 SHL DUP2 MSTORE PUSH1 0x4 ADD PUSH2 0xBAD SWAP2 SWAP1 PUSH2 0x40D5 JUMP JUMPDEST POP DUP2 PUSH2 0x2937 PUSH2 0xB22 JUMP JUMPDEST PUSH1 0x0 DUP3 DUP2 MSTORE PUSH2 0x169 PUSH1 0x20 SWAP1 DUP2 MSTORE PUSH1 0x40 SWAP2 DUP3 SWAP1 KECCAK256 SLOAD DUP3 MLOAD DUP1 DUP5 ADD SWAP1 SWAP4 MSTORE PUSH1 0x6 DUP4 MSTORE PUSH6 0x181819981819 PUSH1 0xD1 SHL SWAP2 DUP4 ADD SWAP2 SWAP1 SWAP2 MSTORE SWAP1 SWAP2 PUSH1 0x1 PUSH1 0x1 PUSH1 0xA0 SHL SUB SWAP2 DUP3 AND SWAP2 AND EQ PUSH2 0x2995 JUMPI PUSH1 0x40 MLOAD PUSH3 0x461BCD PUSH1 0xE5 SHL DUP2 MSTORE PUSH1 0x4 ADD PUSH2 0xBAD SWAP2 SWAP1 PUSH2 0x40D5 JUMP JUMPDEST POP PUSH1 0x0 DUP4 DUP2 MSTORE PUSH2 0x169 PUSH1 0x20 SWAP1 DUP2 MSTORE PUSH1 0x40 DUP1 DUP4 KECCAK256 PUSH1 0x3 DUP2 ADD SLOAD DUP5 MSTORE PUSH2 0x168 SWAP1 SWAP3 MSTORE SWAP2 DUP3 SWAP1 KECCAK256 SWAP2 MLOAD PUSH4 0x2B2E7477 PUSH1 0xE0 SHL DUP2 MSTORE PUSH1 0x4 DUP2 ADD DUP3 SWAP1 MSTORE PUSH1 0x24 DUP2 ADD DUP4 SWAP1 MSTORE SWAP1 SWAP2 SWAP1 PUSH20 0x0 SWAP1 PUSH4 0x2B2E7477 SWAP1 PUSH1 0x44 ADD PUSH1 0x0 PUSH1 0x40 MLOAD DUP1 DUP4 SUB DUP2 DUP7 DUP1 EXTCODESIZE ISZERO DUP1 ISZERO PUSH2 0x2A0D JUMPI PUSH1 0x0 DUP1 REVERT JUMPDEST POP GAS DELEGATECALL ISZERO DUP1 ISZERO PUSH2 0x2A21 JUMPI RETURNDATASIZE PUSH1 0x0 DUP1 RETURNDATACOPY RETURNDATASIZE PUSH1 0x0 REVERT JUMPDEST POP POP POP POP DUP2 PUSH1 0x1 ADD SLOAD PUSH2 0x16B PUSH1 0x0 PUSH2 0x2A37 PUSH2 0xB22 JUMP JUMPDEST PUSH1 0x1 PUSH1 0x1 PUSH1 0xA0 SHL SUB AND PUSH1 0x1 PUSH1 0x1 PUSH1 0xA0 SHL SUB AND DUP2 MSTORE PUSH1 0x20 ADD SWAP1 DUP2 MSTORE PUSH1 0x20 ADD PUSH1 0x0 KECCAK256 PUSH1 0x0 DUP3 DUP3 SLOAD PUSH2 0x2A66 SWAP2 SWAP1 PUSH2 0x427D JUMP JUMPDEST SWAP1 SWAP2 SSTORE POP PUSH2 0x2A74 SWAP1 POP PUSH2 0xB22 JUMP JUMPDEST PUSH1 0x1 PUSH1 0x1 PUSH1 0xA0 SHL SUB AND PUSH1 0x0 DUP1 MLOAD PUSH1 0x20 PUSH2 0x44EB DUP4 CODECOPY DUP2 MLOAD SWAP2 MSTORE DUP4 PUSH1 0x1 ADD SLOAD PUSH1 0x40 MLOAD PUSH2 0x2AA0 SWAP2 DUP2 MSTORE PUSH1 0x20 ADD SWAP1 JUMP JUMPDEST PUSH1 0x40 MLOAD DUP1 SWAP2 SUB SWAP1 LOG2 PUSH2 0x2AB0 PUSH2 0xB22 JUMP JUMPDEST PUSH1 0x1 PUSH1 0x1 PUSH1 0xA0 SHL SUB AND DUP6 DUP4 PUSH1 0x3 ADD SLOAD PUSH32 0x8827140ED7E0AEE657F6D8AB3D65B02D30022ED333E284958313DB49217E7C3E DUP6 PUSH1 0x1 ADD SLOAD PUSH1 0x40 MLOAD PUSH2 0x264F SWAP2 DUP2 MSTORE PUSH1 0x20 ADD SWAP1 JUMP JUMPDEST PUSH1 0x65 SLOAD PUSH1 0x0 SWAP1 PUSH1 0x1 PUSH1 0x1 PUSH1 0xA0 SHL SUB AND CALLER EQ ISZERO PUSH2 0x2B17 JUMPI POP PUSH1 0x13 NOT CALLDATASIZE ADD CALLDATALOAD PUSH1 0x60 SHR SWAP1 JUMP JUMPDEST POP CALLER SWAP1 JUMP JUMPDEST SWAP1 JUMP JUMPDEST PUSH1 0x0 PUSH1 0x1 PUSH1 0x1 PUSH1 0xE0 SHL SUB NOT DUP3 AND PUSH4 0x7965DB0B PUSH1 0xE0 SHL EQ DUP1 PUSH2 0xB56 JUMPI POP PUSH4 0x1FFC9A7 PUSH1 0xE0 SHL PUSH1 0x1 PUSH1 0x1 PUSH1 0xE0 SHL SUB NOT DUP4 AND EQ PUSH2 0xB56 JUMP JUMPDEST PUSH2 0x2B5E DUP3 DUP3 PUSH2 0x210F JUMP JUMPDEST PUSH2 0x158B JUMPI PUSH2 0x2B76 DUP2 PUSH1 0x1 PUSH1 0x1 PUSH1 0xA0 SHL SUB AND PUSH1 0x14 PUSH2 0x3584 JUMP JUMPDEST PUSH2 0x2B81 DUP4 PUSH1 0x20 PUSH2 0x3584 JUMP JUMPDEST PUSH1 0x40 MLOAD PUSH1 0x20 ADD PUSH2 0x2B92 SWAP3 SWAP2 SWAP1 PUSH2 0x3FEC JUMP JUMPDEST PUSH1 0x40 DUP1 MLOAD PUSH1 0x1F NOT DUP2 DUP5 SUB ADD DUP2 MSTORE SWAP1 DUP3 SWAP1 MSTORE PUSH3 0x461BCD PUSH1 0xE5 SHL DUP3 MSTORE PUSH2 0xBAD SWAP2 PUSH1 0x4 ADD PUSH2 0x40D5 JUMP JUMPDEST PUSH1 0x0 SLOAD PUSH2 0x100 SWAP1 DIV PUSH1 0xFF AND PUSH2 0x2BDF JUMPI PUSH1 0x40 MLOAD PUSH3 0x461BCD PUSH1 0xE5 SHL DUP2 MSTORE PUSH1 0x4 ADD PUSH2 0xBAD SWAP1 PUSH2 0x420A JUMP JUMPDEST PUSH2 0x2BE7 PUSH2 0x3720 JUMP JUMPDEST PUSH2 0x2BEF PUSH2 0x3720 JUMP JUMPDEST PUSH2 0x2BF7 PUSH2 0x3720 JUMP JUMPDEST PUSH2 0x1707 PUSH2 0x3720 JUMP JUMPDEST PUSH1 0x0 SLOAD PUSH2 0x100 SWAP1 DIV PUSH1 0xFF AND PUSH2 0x2C26 JUMPI PUSH1 0x40 MLOAD PUSH3 0x461BCD PUSH1 0xE5 SHL DUP2 MSTORE PUSH1 0x4 ADD PUSH2 0xBAD SWAP1 PUSH2 0x420A JUMP JUMPDEST PUSH2 0x1707 PUSH2 0x3747 JUMP JUMPDEST PUSH1 0x0 SLOAD PUSH2 0x100 SWAP1 DIV PUSH1 0xFF AND PUSH2 0x2C55 JUMPI PUSH1 0x40 MLOAD PUSH3 0x461BCD PUSH1 0xE5 SHL DUP2 MSTORE PUSH1 0x4 ADD PUSH2 0xBAD SWAP1 PUSH2 0x420A JUMP JUMPDEST PUSH2 0x2C5D PUSH2 0x3720 JUMP JUMPDEST PUSH2 0x1707 PUSH2 0x3776 JUMP JUMPDEST PUSH1 0x0 SLOAD PUSH2 0x100 SWAP1 DIV PUSH1 0xFF AND PUSH2 0x2C8C JUMPI PUSH1 0x40 MLOAD PUSH3 0x461BCD PUSH1 0xE5 SHL DUP2 MSTORE PUSH1 0x4 ADD PUSH2 0xBAD SWAP1 PUSH2 0x420A JUMP JUMPDEST PUSH2 0x2C94 PUSH2 0x3720 JUMP JUMPDEST PUSH2 0x2C9D DUP2 PUSH2 0x353B JUMP JUMPDEST POP JUMP JUMPDEST PUSH2 0x158B DUP3 DUP3 PUSH2 0x2E0E JUMP JUMPDEST PUSH1 0x0 DUP3 DUP2 MSTORE PUSH1 0xC9 PUSH1 0x20 MSTORE PUSH1 0x40 DUP1 DUP3 KECCAK256 PUSH1 0x1 ADD DUP1 SLOAD SWAP1 DUP5 SWAP1 SSTORE SWAP1 MLOAD SWAP1 SWAP2 DUP4 SWAP2 DUP4 SWAP2 DUP7 SWAP2 PUSH32 0xBD79B86FFE0AB8E8776151514217CD7CACD52C909F66475C3AF44E129F0B00FF SWAP2 SWAP1 LOG4 POP POP POP JUMP JUMPDEST DUP1 SELFBALANCE LT ISZERO PUSH2 0x2D45 JUMPI PUSH1 0x40 MLOAD PUSH3 0x461BCD PUSH1 0xE5 SHL DUP2 MSTORE PUSH1 0x20 PUSH1 0x4 DUP3 ADD MSTORE PUSH1 0x1D PUSH1 0x24 DUP3 ADD MSTORE PUSH32 0x416464726573733A20696E73756666696369656E742062616C616E6365000000 PUSH1 0x44 DUP3 ADD MSTORE PUSH1 0x64 ADD PUSH2 0xBAD JUMP JUMPDEST PUSH1 0x0 DUP3 PUSH1 0x1 PUSH1 0x1 PUSH1 0xA0 SHL SUB AND DUP3 PUSH1 0x40 MLOAD PUSH1 0x0 PUSH1 0x40 MLOAD DUP1 DUP4 SUB DUP2 DUP6 DUP8 GAS CALL SWAP3 POP POP POP RETURNDATASIZE DUP1 PUSH1 0x0 DUP2 EQ PUSH2 0x2D92 JUMPI PUSH1 0x40 MLOAD SWAP2 POP PUSH1 0x1F NOT PUSH1 0x3F RETURNDATASIZE ADD AND DUP3 ADD PUSH1 0x40 MSTORE RETURNDATASIZE DUP3 MSTORE RETURNDATASIZE PUSH1 0x0 PUSH1 0x20 DUP5 ADD RETURNDATACOPY PUSH2 0x2D97 JUMP JUMPDEST PUSH1 0x60 SWAP2 POP JUMPDEST POP POP SWAP1 POP DUP1 PUSH2 0x1365 JUMPI PUSH1 0x40 MLOAD PUSH3 0x461BCD PUSH1 0xE5 SHL DUP2 MSTORE PUSH1 0x20 PUSH1 0x4 DUP3 ADD MSTORE PUSH1 0x3A PUSH1 0x24 DUP3 ADD MSTORE PUSH32 0x416464726573733A20756E61626C6520746F2073656E642076616C75652C2072 PUSH1 0x44 DUP3 ADD MSTORE PUSH32 0x6563697069656E74206D61792068617665207265766572746564000000000000 PUSH1 0x64 DUP3 ADD MSTORE PUSH1 0x84 ADD PUSH2 0xBAD JUMP JUMPDEST PUSH2 0x2E18 DUP3 DUP3 PUSH2 0x37A9 JUMP JUMPDEST PUSH1 0x0 DUP3 DUP2 MSTORE PUSH1 0xFB PUSH1 0x20 MSTORE PUSH1 0x40 SWAP1 KECCAK256 PUSH2 0x1365 SWAP1 DUP3 PUSH2 0x3830 JUMP JUMPDEST PUSH2 0x2E3A DUP3 DUP3 PUSH2 0x3845 JUMP JUMPDEST PUSH1 0x0 DUP3 DUP2 MSTORE PUSH1 0xFB PUSH1 0x20 MSTORE PUSH1 0x40 SWAP1 KECCAK256 PUSH2 0x1365 SWAP1 DUP3 PUSH2 0x38CA JUMP JUMPDEST PUSH1 0x33 SLOAD PUSH1 0xFF AND PUSH2 0x2E9B JUMPI PUSH1 0x40 MLOAD PUSH3 0x461BCD PUSH1 0xE5 SHL DUP2 MSTORE PUSH1 0x20 PUSH1 0x4 DUP3 ADD MSTORE PUSH1 0x14 PUSH1 0x24 DUP3 ADD MSTORE PUSH20 0x14185D5CD8589B194E881B9BDD081C185D5CD959 PUSH1 0x62 SHL PUSH1 0x44 DUP3 ADD MSTORE PUSH1 0x64 ADD PUSH2 0xBAD JUMP JUMPDEST PUSH1 0x33 DUP1 SLOAD PUSH1 0xFF NOT AND SWAP1 SSTORE PUSH32 0x5DB9EE0A495BF2E6FF9C91A7834C1BA4FDD244A5E8AA4E537BD38AEAE4B073AA PUSH2 0x2ECE PUSH2 0xB22 JUMP JUMPDEST PUSH1 0x40 MLOAD PUSH1 0x1 PUSH1 0x1 PUSH1 0xA0 SHL SUB SWAP1 SWAP2 AND DUP2 MSTORE PUSH1 0x20 ADD PUSH1 0x40 MLOAD DUP1 SWAP2 SUB SWAP1 LOG1 JUMP JUMPDEST PUSH1 0x0 DUP1 PUSH20 0x0 PUSH4 0xF19191D9 DUP5 DUP10 PUSH1 0x40 MLOAD DUP4 PUSH4 0xFFFFFFFF AND PUSH1 0xE0 SHL DUP2 MSTORE PUSH1 0x4 ADD PUSH2 0x2F27 SWAP3 SWAP2 SWAP1 PUSH2 0x40E8 JUMP JUMPDEST PUSH1 0x20 PUSH1 0x40 MLOAD DUP1 DUP4 SUB DUP2 DUP7 DUP1 EXTCODESIZE ISZERO DUP1 ISZERO PUSH2 0x2F3F JUMPI PUSH1 0x0 DUP1 REVERT JUMPDEST POP GAS DELEGATECALL ISZERO DUP1 ISZERO PUSH2 0x2F53 JUMPI RETURNDATASIZE PUSH1 0x0 DUP1 RETURNDATACOPY RETURNDATASIZE PUSH1 0x0 REVERT JUMPDEST POP POP POP POP PUSH1 0x40 MLOAD RETURNDATASIZE PUSH1 0x1F NOT PUSH1 0x1F DUP3 ADD AND DUP3 ADD DUP1 PUSH1 0x40 MSTORE POP DUP2 ADD SWAP1 PUSH2 0x2F77 SWAP2 SWAP1 PUSH2 0x3E43 JUMP JUMPDEST PUSH1 0x40 DUP1 MLOAD PUSH1 0x0 DUP1 DUP3 MSTORE PUSH1 0x20 DUP3 ADD SWAP1 SWAP3 MSTORE SWAP2 SWAP3 POP PUSH2 0x2F94 DUP7 TIMESTAMP PUSH2 0x427D JUMP JUMPDEST SWAP1 POP PUSH1 0x40 MLOAD DUP1 PUSH2 0x180 ADD PUSH1 0x40 MSTORE DUP1 DUP7 DUP2 MSTORE PUSH1 0x20 ADD PUSH1 0x40 MLOAD DUP1 PUSH1 0x20 ADD PUSH1 0x40 MSTORE DUP1 PUSH1 0x0 DUP2 MSTORE POP DUP2 MSTORE PUSH1 0x20 ADD DUP9 DUP2 MSTORE PUSH1 0x20 ADD DUP9 DUP2 MSTORE PUSH1 0x20 ADD DUP11 PUSH1 0x1 PUSH1 0x1 PUSH1 0xA0 SHL SUB AND DUP2 MSTORE PUSH1 0x20 ADD DUP10 PUSH1 0x1 PUSH1 0x1 PUSH1 0xA0 SHL SUB AND DUP2 MSTORE PUSH1 0x20 ADD DUP4 DUP2 MSTORE PUSH1 0x20 ADD TIMESTAMP DUP2 MSTORE PUSH1 0x20 ADD DUP3 DUP2 MSTORE PUSH1 0x20 ADD PUSH1 0x0 PUSH1 0x3 DUP2 GT ISZERO PUSH2 0x300C JUMPI PUSH2 0x300C PUSH2 0x43CD JUMP JUMPDEST DUP2 MSTORE PUSH1 0x0 PUSH1 0x20 DUP1 DUP4 ADD DUP3 SWAP1 MSTORE PUSH1 0x40 SWAP3 DUP4 ADD DUP3 SWAP1 MSTORE DUP7 DUP3 MSTORE PUSH2 0x168 DUP2 MSTORE SWAP2 SWAP1 KECCAK256 DUP3 MLOAD DUP1 MLOAD SWAP2 SWAP3 PUSH2 0x3040 SWAP3 DUP5 SWAP3 SWAP1 SWAP2 ADD SWAP1 PUSH2 0x3BF3 JUMP JUMPDEST POP PUSH1 0x20 DUP3 DUP2 ADD MLOAD DUP1 MLOAD PUSH2 0x3059 SWAP3 PUSH1 0x1 DUP6 ADD SWAP3 ADD SWAP1 PUSH2 0x3BF3 JUMP JUMPDEST POP PUSH1 0x40 DUP3 ADD MLOAD PUSH1 0x2 DUP3 ADD SSTORE PUSH1 0x60 DUP3 ADD MLOAD PUSH1 0x3 DUP3 ADD SSTORE PUSH1 0x80 DUP3 ADD MLOAD PUSH1 0x4 DUP3 ADD DUP1 SLOAD PUSH1 0x1 PUSH1 0x1 PUSH1 0xA0 SHL SUB SWAP3 DUP4 AND PUSH1 0x1 PUSH1 0x1 PUSH1 0xA0 SHL SUB NOT SWAP2 DUP3 AND OR SWAP1 SWAP2 SSTORE PUSH1 0xA0 DUP5 ADD MLOAD PUSH1 0x5 DUP5 ADD DUP1 SLOAD SWAP2 SWAP1 SWAP4 AND SWAP2 AND OR SWAP1 SSTORE PUSH1 0xC0 DUP3 ADD MLOAD DUP1 MLOAD PUSH2 0x30C3 SWAP2 PUSH1 0x6 DUP5 ADD SWAP2 PUSH1 0x20 SWAP1 SWAP2 ADD SWAP1 PUSH2 0x3C73 JUMP JUMPDEST POP PUSH1 0xE0 DUP3 ADD MLOAD PUSH1 0x7 DUP3 ADD SSTORE PUSH2 0x100 DUP3 ADD MLOAD PUSH1 0x8 DUP3 ADD SSTORE PUSH2 0x120 DUP3 ADD MLOAD PUSH1 0x9 DUP3 ADD DUP1 SLOAD PUSH1 0xFF NOT AND PUSH1 0x1 DUP4 PUSH1 0x3 DUP2 GT ISZERO PUSH2 0x30FD JUMPI PUSH2 0x30FD PUSH2 0x43CD JUMP JUMPDEST MUL OR SWAP1 SSTORE POP PUSH2 0x140 DUP3 ADD MLOAD PUSH1 0xA DUP3 ADD SSTORE PUSH2 0x160 SWAP1 SWAP2 ADD MLOAD PUSH1 0xB SWAP1 SWAP2 ADD DUP1 SLOAD PUSH1 0xFF NOT AND SWAP2 ISZERO ISZERO SWAP2 SWAP1 SWAP2 OR SWAP1 SSTORE PUSH1 0x1 PUSH1 0x1 PUSH1 0xA0 SHL SUB DUP10 DUP2 AND PUSH1 0x0 DUP2 DUP2 MSTORE PUSH2 0x16A PUSH1 0x20 SWAP1 DUP2 MSTORE PUSH1 0x40 DUP1 DUP4 KECCAK256 PUSH1 0x1 SWAP1 DUP2 ADD DUP1 SLOAD SWAP2 DUP3 ADD DUP2 SSTORE DUP5 MSTORE SWAP2 SWAP1 SWAP3 KECCAK256 ADD DUP7 SWAP1 SSTORE MLOAD SWAP1 SWAP2 DUP6 SWAP2 SWAP1 DUP12 AND SWAP1 PUSH32 0x3B68BA1E6AC39F1579FD32B30DAA1B9F575DC2D1105A95F1BB114484003070FF SWAP1 PUSH2 0x3195 SWAP1 DUP13 SWAP1 DUP8 SWAP1 DUP13 SWAP1 PUSH2 0x4255 JUMP JUMPDEST PUSH1 0x40 MLOAD DUP1 SWAP2 SUB SWAP1 LOG4 POP SWAP1 SWAP8 SWAP7 POP POP POP POP POP POP POP JUMP JUMPDEST PUSH1 0x0 DUP4 DUP2 MSTORE PUSH2 0x168 PUSH1 0x20 MSTORE PUSH1 0x40 DUP1 DUP3 KECCAK256 SWAP1 MLOAD PUSH4 0x387F9FC3 PUSH1 0xE0 SHL DUP2 MSTORE PUSH1 0x4 DUP2 ADD DUP3 SWAP1 MSTORE DUP3 SWAP2 SWAP1 PUSH20 0x0 SWAP1 PUSH4 0x387F9FC3 SWAP1 PUSH1 0x24 ADD PUSH1 0x0 PUSH1 0x40 MLOAD DUP1 DUP4 SUB DUP2 DUP7 DUP1 EXTCODESIZE ISZERO DUP1 ISZERO PUSH2 0x3207 JUMPI PUSH1 0x0 DUP1 REVERT JUMPDEST POP GAS DELEGATECALL ISZERO DUP1 ISZERO PUSH2 0x321B JUMPI RETURNDATASIZE PUSH1 0x0 DUP1 RETURNDATACOPY RETURNDATASIZE PUSH1 0x0 REVERT JUMPDEST POP POP PUSH2 0x164 SLOAD PUSH1 0x0 SWAP3 POP PUSH1 0x1 PUSH1 0xA0 SHL SWAP1 DIV PUSH1 0xFF AND ISZERO SWAP1 POP PUSH2 0x3251 JUMPI PUSH1 0x4 DUP3 ADD SLOAD PUSH2 0x324E SWAP1 PUSH1 0x1 PUSH1 0x1 PUSH1 0xA0 SHL SUB AND DUP7 PUSH2 0x38DF JUMP JUMPDEST SWAP1 POP JUMPDEST PUSH1 0x40 MLOAD PUSH4 0xAE93940D PUSH1 0xE0 SHL DUP2 MSTORE PUSH20 0x0 SWAP1 PUSH4 0xAE93940D SWAP1 PUSH2 0x328C SWAP1 DUP6 SWAP1 DUP6 SWAP1 DUP12 SWAP1 PUSH1 0x4 ADD PUSH2 0x4255 JUMP JUMPDEST PUSH1 0x0 PUSH1 0x40 MLOAD DUP1 DUP4 SUB DUP2 DUP7 DUP1 EXTCODESIZE ISZERO DUP1 ISZERO PUSH2 0x32A4 JUMPI PUSH1 0x0 DUP1 REVERT JUMPDEST POP GAS DELEGATECALL ISZERO DUP1 ISZERO PUSH2 0x32B8 JUMPI RETURNDATASIZE PUSH1 0x0 DUP1 RETURNDATACOPY RETURNDATASIZE PUSH1 0x0 REVERT JUMPDEST POP POP POP POP PUSH1 0x0 DUP1 PUSH2 0x32D1 DUP5 PUSH1 0x2 ADD SLOAD DUP6 PUSH1 0x3 ADD SLOAD PUSH2 0x39B6 JUMP JUMPDEST SWAP2 POP SWAP2 POP DUP4 PUSH1 0x2 ADD SLOAD PUSH1 0x0 EQ ISZERO DUP1 ISZERO PUSH2 0x3324 JUMPI POP PUSH1 0x4 DUP5 ADD SLOAD PUSH2 0x32FF SWAP1 PUSH1 0x1 PUSH1 0x1 PUSH1 0xA0 SHL SUB AND PUSH2 0x50F PUSH2 0xB22 JUMP JUMPDEST PUSH2 0x167 SLOAD PUSH2 0x330D SWAP2 SWAP1 PUSH2 0x42B7 JUMP JUMPDEST DUP5 PUSH1 0x2 ADD SLOAD DUP6 PUSH1 0x3 ADD SLOAD PUSH2 0x3321 SWAP2 SWAP1 PUSH2 0x42D6 JUMP JUMPDEST LT ISZERO JUMPDEST ISZERO PUSH2 0x3429 JUMPI PUSH1 0x0 PUSH2 0x3336 PUSH1 0x2 DUP5 PUSH2 0x4295 JUMP JUMPDEST SWAP1 POP PUSH2 0x3342 DUP3 DUP3 PUSH2 0x427D JUMP JUMPDEST PUSH2 0x16B PUSH1 0x0 PUSH2 0x334F PUSH2 0xB22 JUMP JUMPDEST PUSH1 0x1 PUSH1 0x1 PUSH1 0xA0 SHL SUB AND PUSH1 0x1 PUSH1 0x1 PUSH1 0xA0 SHL SUB AND DUP2 MSTORE PUSH1 0x20 ADD SWAP1 DUP2 MSTORE PUSH1 0x20 ADD PUSH1 0x0 KECCAK256 PUSH1 0x0 DUP3 DUP3 SLOAD PUSH2 0x337E SWAP2 SWAP1 PUSH2 0x427D JUMP JUMPDEST SWAP1 SWAP2 SSTORE POP POP PUSH1 0x4 DUP6 ADD SLOAD PUSH1 0x1 PUSH1 0x1 PUSH1 0xA0 SHL SUB AND PUSH1 0x0 SWAP1 DUP2 MSTORE PUSH2 0x16B PUSH1 0x20 MSTORE PUSH1 0x40 DUP2 KECCAK256 DUP1 SLOAD DUP4 SWAP3 SWAP1 PUSH2 0x33B0 SWAP1 DUP5 SWAP1 PUSH2 0x427D JUMP JUMPDEST SWAP1 SWAP2 SSTORE POP PUSH2 0x33BE SWAP1 POP PUSH2 0xB22 JUMP JUMPDEST PUSH1 0x1 PUSH1 0x1 PUSH1 0xA0 SHL SUB AND PUSH1 0x0 DUP1 MLOAD PUSH1 0x20 PUSH2 0x44EB DUP4 CODECOPY DUP2 MLOAD SWAP2 MSTORE PUSH2 0x33E0 DUP5 DUP5 PUSH2 0x427D JUMP JUMPDEST PUSH1 0x40 MLOAD SWAP1 DUP2 MSTORE PUSH1 0x20 ADD PUSH1 0x40 MLOAD DUP1 SWAP2 SUB SWAP1 LOG2 PUSH1 0x4 DUP6 ADD SLOAD PUSH1 0x40 MLOAD DUP3 DUP2 MSTORE PUSH1 0x1 PUSH1 0x1 PUSH1 0xA0 SHL SUB SWAP1 SWAP2 AND SWAP1 PUSH1 0x0 DUP1 MLOAD PUSH1 0x20 PUSH2 0x44EB DUP4 CODECOPY DUP2 MLOAD SWAP2 MSTORE SWAP1 PUSH1 0x20 ADD PUSH1 0x40 MLOAD DUP1 SWAP2 SUB SWAP1 LOG2 POP PUSH2 0x34B1 JUMP JUMPDEST PUSH2 0x3433 DUP2 DUP4 PUSH2 0x427D JUMP JUMPDEST PUSH2 0x16B PUSH1 0x0 PUSH2 0x3440 PUSH2 0xB22 JUMP JUMPDEST PUSH1 0x1 PUSH1 0x1 PUSH1 0xA0 SHL SUB AND PUSH1 0x1 PUSH1 0x1 PUSH1 0xA0 SHL SUB AND DUP2 MSTORE PUSH1 0x20 ADD SWAP1 DUP2 MSTORE PUSH1 0x20 ADD PUSH1 0x0 KECCAK256 PUSH1 0x0 DUP3 DUP3 SLOAD PUSH2 0x346F SWAP2 SWAP1 PUSH2 0x427D JUMP JUMPDEST SWAP1 SWAP2 SSTORE POP PUSH2 0x347D SWAP1 POP PUSH2 0xB22 JUMP JUMPDEST PUSH1 0x1 PUSH1 0x1 PUSH1 0xA0 SHL SUB AND PUSH1 0x0 DUP1 MLOAD PUSH1 0x20 PUSH2 0x44EB DUP4 CODECOPY DUP2 MLOAD SWAP2 MSTORE PUSH2 0x349F DUP4 DUP6 PUSH2 0x427D JUMP JUMPDEST PUSH1 0x40 MLOAD SWAP1 DUP2 MSTORE PUSH1 0x20 ADD PUSH1 0x40 MLOAD DUP1 SWAP2 SUB SWAP1 LOG2 JUMPDEST DUP3 PUSH2 0x34BC DUP3 DUP5 PUSH2 0x427D JUMP JUMPDEST SWAP6 POP SWAP6 POP POP POP POP POP SWAP4 POP SWAP4 SWAP2 POP POP JUMP JUMPDEST PUSH1 0x33 SLOAD PUSH1 0xFF AND ISZERO PUSH2 0x34EF JUMPI PUSH1 0x40 MLOAD PUSH3 0x461BCD PUSH1 0xE5 SHL DUP2 MSTORE PUSH1 0x4 ADD PUSH2 0xBAD SWAP1 PUSH2 0x41E0 JUMP JUMPDEST PUSH1 0x33 DUP1 SLOAD PUSH1 0xFF NOT AND PUSH1 0x1 OR SWAP1 SSTORE PUSH32 0x62E78CEA01BEE320CD4E420270B5EA74000D11B0C9F74754EBDBFC544B05A258 PUSH2 0x2ECE PUSH2 0xB22 JUMP JUMPDEST PUSH1 0x0 PUSH2 0x2108 DUP4 DUP4 PUSH2 0x3A87 JUMP JUMPDEST PUSH1 0x0 PUSH2 0xB56 DUP3 SLOAD SWAP1 JUMP JUMPDEST PUSH1 0x0 SLOAD PUSH2 0x100 SWAP1 DIV PUSH1 0xFF AND PUSH2 0x3562 JUMPI PUSH1 0x40 MLOAD PUSH3 0x461BCD PUSH1 0xE5 SHL DUP2 MSTORE PUSH1 0x4 ADD PUSH2 0xBAD SWAP1 PUSH2 0x420A JUMP JUMPDEST PUSH1 0x65 DUP1 SLOAD PUSH1 0x1 PUSH1 0x1 PUSH1 0xA0 SHL SUB NOT AND PUSH1 0x1 PUSH1 0x1 PUSH1 0xA0 SHL SUB SWAP3 SWAP1 SWAP3 AND SWAP2 SWAP1 SWAP2 OR SWAP1 SSTORE JUMP JUMPDEST PUSH1 0x60 PUSH1 0x0 PUSH2 0x3593 DUP4 PUSH1 0x2 PUSH2 0x42B7 JUMP JUMPDEST PUSH2 0x359E SWAP1 PUSH1 0x2 PUSH2 0x427D JUMP JUMPDEST PUSH8 0xFFFFFFFFFFFFFFFF DUP2 GT ISZERO PUSH2 0x35B6 JUMPI PUSH2 0x35B6 PUSH2 0x440F JUMP JUMPDEST PUSH1 0x40 MLOAD SWAP1 DUP1 DUP3 MSTORE DUP1 PUSH1 0x1F ADD PUSH1 0x1F NOT AND PUSH1 0x20 ADD DUP3 ADD PUSH1 0x40 MSTORE DUP1 ISZERO PUSH2 0x35E0 JUMPI PUSH1 0x20 DUP3 ADD DUP2 DUP1 CALLDATASIZE DUP4 CALLDATACOPY ADD SWAP1 POP JUMPDEST POP SWAP1 POP PUSH1 0x3 PUSH1 0xFC SHL DUP2 PUSH1 0x0 DUP2 MLOAD DUP2 LT PUSH2 0x35FB JUMPI PUSH2 0x35FB PUSH2 0x43F9 JUMP JUMPDEST PUSH1 0x20 ADD ADD SWAP1 PUSH1 0x1 PUSH1 0x1 PUSH1 0xF8 SHL SUB NOT AND SWAP1 DUP2 PUSH1 0x0 BYTE SWAP1 MSTORE8 POP PUSH1 0xF PUSH1 0xFB SHL DUP2 PUSH1 0x1 DUP2 MLOAD DUP2 LT PUSH2 0x362A JUMPI PUSH2 0x362A PUSH2 0x43F9 JUMP JUMPDEST PUSH1 0x20 ADD ADD SWAP1 PUSH1 0x1 PUSH1 0x1 PUSH1 0xF8 SHL SUB NOT AND SWAP1 DUP2 PUSH1 0x0 BYTE SWAP1 MSTORE8 POP PUSH1 0x0 PUSH2 0x364E DUP5 PUSH1 0x2 PUSH2 0x42B7 JUMP JUMPDEST PUSH2 0x3659 SWAP1 PUSH1 0x1 PUSH2 0x427D JUMP JUMPDEST SWAP1 POP JUMPDEST PUSH1 0x1 DUP2 GT ISZERO PUSH2 0x36D1 JUMPI PUSH16 0x181899199A1A9B1B9C1CB0B131B232B3 PUSH1 0x81 SHL DUP6 PUSH1 0xF AND PUSH1 0x10 DUP2 LT PUSH2 0x368D JUMPI PUSH2 0x368D PUSH2 0x43F9 JUMP JUMPDEST BYTE PUSH1 0xF8 SHL DUP3 DUP3 DUP2 MLOAD DUP2 LT PUSH2 0x36A3 JUMPI PUSH2 0x36A3 PUSH2 0x43F9 JUMP JUMPDEST PUSH1 0x20 ADD ADD SWAP1 PUSH1 0x1 PUSH1 0x1 PUSH1 0xF8 SHL SUB NOT AND SWAP1 DUP2 PUSH1 0x0 BYTE SWAP1 MSTORE8 POP PUSH1 0x4 SWAP5 SWAP1 SWAP5 SHR SWAP4 PUSH2 0x36CA DUP2 PUSH2 0x431D JUMP JUMPDEST SWAP1 POP PUSH2 0x365C JUMP JUMPDEST POP DUP4 ISZERO PUSH2 0x2108 JUMPI PUSH1 0x40 MLOAD PUSH3 0x461BCD PUSH1 0xE5 SHL DUP2 MSTORE PUSH1 0x20 PUSH1 0x4 DUP3 ADD DUP2 SWAP1 MSTORE PUSH1 0x24 DUP3 ADD MSTORE PUSH32 0x537472696E67733A20686578206C656E67746820696E73756666696369656E74 PUSH1 0x44 DUP3 ADD MSTORE PUSH1 0x64 ADD PUSH2 0xBAD JUMP JUMPDEST PUSH1 0x0 SLOAD PUSH2 0x100 SWAP1 DIV PUSH1 0xFF AND PUSH2 0x1707 JUMPI PUSH1 0x40 MLOAD PUSH3 0x461BCD PUSH1 0xE5 SHL DUP2 MSTORE PUSH1 0x4 ADD PUSH2 0xBAD SWAP1 PUSH2 0x420A JUMP JUMPDEST PUSH1 0x0 SLOAD PUSH2 0x100 SWAP1 DIV PUSH1 0xFF AND PUSH2 0x376E JUMPI PUSH1 0x40 MLOAD PUSH3 0x461BCD PUSH1 0xE5 SHL DUP2 MSTORE PUSH1 0x4 ADD PUSH2 0xBAD SWAP1 PUSH2 0x420A JUMP JUMPDEST PUSH1 0x1 PUSH2 0x12D SSTORE JUMP JUMPDEST PUSH1 0x0 SLOAD PUSH2 0x100 SWAP1 DIV PUSH1 0xFF AND PUSH2 0x379D JUMPI PUSH1 0x40 MLOAD PUSH3 0x461BCD PUSH1 0xE5 SHL DUP2 MSTORE PUSH1 0x4 ADD PUSH2 0xBAD SWAP1 PUSH2 0x420A JUMP JUMPDEST PUSH1 0x33 DUP1 SLOAD PUSH1 0xFF NOT AND SWAP1 SSTORE JUMP JUMPDEST PUSH2 0x37B3 DUP3 DUP3 PUSH2 0x210F JUMP JUMPDEST PUSH2 0x158B JUMPI PUSH1 0x0 DUP3 DUP2 MSTORE PUSH1 0xC9 PUSH1 0x20 SWAP1 DUP2 MSTORE PUSH1 0x40 DUP1 DUP4 KECCAK256 PUSH1 0x1 PUSH1 0x1 PUSH1 0xA0 SHL SUB DUP6 AND DUP5 MSTORE SWAP1 SWAP2 MSTORE SWAP1 KECCAK256 DUP1 SLOAD PUSH1 0xFF NOT AND PUSH1 0x1 OR SWAP1 SSTORE PUSH2 0x37EC PUSH2 0xB22 JUMP JUMPDEST PUSH1 0x1 PUSH1 0x1 PUSH1 0xA0 SHL SUB AND DUP2 PUSH1 0x1 PUSH1 0x1 PUSH1 0xA0 SHL SUB AND DUP4 PUSH32 0x2F8788117E7EFF1D82E926EC794901D17C78024A50270940304540A733656F0D PUSH1 0x40 MLOAD PUSH1 0x40 MLOAD DUP1 SWAP2 SUB SWAP1 LOG4 POP POP JUMP JUMPDEST PUSH1 0x0 PUSH2 0x2108 DUP4 PUSH1 0x1 PUSH1 0x1 PUSH1 0xA0 SHL SUB DUP5 AND PUSH2 0x3AB1 JUMP JUMPDEST PUSH2 0x384F DUP3 DUP3 PUSH2 0x210F JUMP JUMPDEST ISZERO PUSH2 0x158B JUMPI PUSH1 0x0 DUP3 DUP2 MSTORE PUSH1 0xC9 PUSH1 0x20 SWAP1 DUP2 MSTORE PUSH1 0x40 DUP1 DUP4 KECCAK256 PUSH1 0x1 PUSH1 0x1 PUSH1 0xA0 SHL SUB DUP6 AND DUP5 MSTORE SWAP1 SWAP2 MSTORE SWAP1 KECCAK256 DUP1 SLOAD PUSH1 0xFF NOT AND SWAP1 SSTORE PUSH2 0x3886 PUSH2 0xB22 JUMP JUMPDEST PUSH1 0x1 PUSH1 0x1 PUSH1 0xA0 SHL SUB AND DUP2 PUSH1 0x1 PUSH1 0x1 PUSH1 0xA0 SHL SUB AND DUP4 PUSH32 0xF6391F5C32D9C69D2A47EA670B442974B53935D1EDC7FD64EB21E047A839171B PUSH1 0x40 MLOAD PUSH1 0x40 MLOAD DUP1 SWAP2 SUB SWAP1 LOG4 POP POP JUMP JUMPDEST PUSH1 0x0 PUSH2 0x2108 DUP4 PUSH1 0x1 PUSH1 0x1 PUSH1 0xA0 SHL SUB DUP5 AND PUSH2 0x3B00 JUMP JUMPDEST PUSH2 0x164 SLOAD PUSH1 0x40 MLOAD PUSH4 0xD0DEF521 PUSH1 0xE0 SHL DUP2 MSTORE PUSH1 0x0 SWAP2 PUSH1 0x1 PUSH1 0x1 PUSH1 0xA0 SHL SUB AND SWAP1 PUSH4 0xD0DEF521 SWAP1 PUSH2 0x3913 SWAP1 DUP7 SWAP1 DUP7 SWAP1 PUSH1 0x4 ADD PUSH2 0x4061 JUMP JUMPDEST PUSH1 0x20 PUSH1 0x40 MLOAD DUP1 DUP4 SUB DUP2 PUSH1 0x0 DUP8 DUP1 EXTCODESIZE ISZERO DUP1 ISZERO PUSH2 0x392D JUMPI PUSH1 0x0 DUP1 REVERT JUMPDEST POP GAS CALL SWAP3 POP POP POP DUP1 ISZERO PUSH2 0x395D JUMPI POP PUSH1 0x40 DUP1 MLOAD PUSH1 0x1F RETURNDATASIZE SWAP1 DUP2 ADD PUSH1 0x1F NOT AND DUP3 ADD SWAP1 SWAP3 MSTORE PUSH2 0x395A SWAP2 DUP2 ADD SWAP1 PUSH2 0x3E43 JUMP JUMPDEST PUSH1 0x1 JUMPDEST PUSH2 0x39AF JUMPI PUSH2 0x3969 PUSH2 0x4425 JUMP JUMPDEST DUP1 PUSH4 0x8C379A0 EQ ISZERO PUSH2 0x39A3 JUMPI POP PUSH2 0x397E PUSH2 0x4440 JUMP JUMPDEST DUP1 PUSH2 0x3989 JUMPI POP PUSH2 0x39A5 JUMP JUMPDEST DUP1 PUSH1 0x40 MLOAD PUSH3 0x461BCD PUSH1 0xE5 SHL DUP2 MSTORE PUSH1 0x4 ADD PUSH2 0xBAD SWAP2 SWAP1 PUSH2 0x40D5 JUMP JUMPDEST POP JUMPDEST RETURNDATASIZE PUSH1 0x0 DUP1 RETURNDATACOPY RETURNDATASIZE PUSH1 0x0 REVERT JUMPDEST SWAP1 POP PUSH2 0xB56 JUMP JUMPDEST PUSH1 0x0 DUP1 DUP1 PUSH2 0x2710 PUSH12 0xFFFFFFFFFFFFFFFFFFFFFFFF AND PUSH2 0x163 SLOAD DUP7 DUP7 PUSH2 0x39DB SWAP2 SWAP1 PUSH2 0x42D6 JUMP JUMPDEST PUSH2 0x39E5 SWAP2 SWAP1 PUSH2 0x42B7 JUMP JUMPDEST PUSH2 0x39EF SWAP2 SWAP1 PUSH2 0x4295 JUMP JUMPDEST SWAP1 POP PUSH1 0x0 PUSH2 0x2710 PUSH12 0xFFFFFFFFFFFFFFFFFFFFFFFF AND PUSH2 0x163 SLOAD DUP8 PUSH2 0x3A13 SWAP2 SWAP1 PUSH2 0x42B7 JUMP JUMPDEST PUSH2 0x3A1D SWAP2 SWAP1 PUSH2 0x4295 JUMP JUMPDEST SWAP1 POP PUSH2 0x3A29 DUP2 DUP4 PUSH2 0x427D JUMP JUMPDEST PUSH2 0x15F SLOAD PUSH1 0x1 PUSH1 0x1 PUSH1 0xA0 SHL SUB AND PUSH1 0x0 SWAP1 DUP2 MSTORE PUSH2 0x16B PUSH1 0x20 MSTORE PUSH1 0x40 DUP2 KECCAK256 DUP1 SLOAD SWAP1 SWAP2 SWAP1 PUSH2 0x3A55 SWAP1 DUP5 SWAP1 PUSH2 0x427D JUMP JUMPDEST SWAP1 SWAP2 SSTORE POP DUP3 SWAP1 POP PUSH2 0x3A66 DUP8 DUP8 PUSH2 0x42D6 JUMP JUMPDEST PUSH2 0x3A70 SWAP2 SWAP1 PUSH2 0x42D6 JUMP JUMPDEST PUSH2 0x3A7A DUP3 DUP9 PUSH2 0x42D6 JUMP JUMPDEST SWAP4 POP SWAP4 POP POP POP SWAP3 POP SWAP3 SWAP1 POP JUMP JUMPDEST PUSH1 0x0 DUP3 PUSH1 0x0 ADD DUP3 DUP2 SLOAD DUP2 LT PUSH2 0x3A9E JUMPI PUSH2 0x3A9E PUSH2 0x43F9 JUMP JUMPDEST SWAP1 PUSH1 0x0 MSTORE PUSH1 0x20 PUSH1 0x0 KECCAK256 ADD SLOAD SWAP1 POP SWAP3 SWAP2 POP POP JUMP JUMPDEST PUSH1 0x0 DUP2 DUP2 MSTORE PUSH1 0x1 DUP4 ADD PUSH1 0x20 MSTORE PUSH1 0x40 DUP2 KECCAK256 SLOAD PUSH2 0x3AF8 JUMPI POP DUP2 SLOAD PUSH1 0x1 DUP2 DUP2 ADD DUP5 SSTORE PUSH1 0x0 DUP5 DUP2 MSTORE PUSH1 0x20 DUP1 DUP3 KECCAK256 SWAP1 SWAP4 ADD DUP5 SWAP1 SSTORE DUP5 SLOAD DUP5 DUP3 MSTORE DUP3 DUP7 ADD SWAP1 SWAP4 MSTORE PUSH1 0x40 SWAP1 KECCAK256 SWAP2 SWAP1 SWAP2 SSTORE PUSH2 0xB56 JUMP JUMPDEST POP PUSH1 0x0 PUSH2 0xB56 JUMP JUMPDEST PUSH1 0x0 DUP2 DUP2 MSTORE PUSH1 0x1 DUP4 ADD PUSH1 0x20 MSTORE PUSH1 0x40 DUP2 KECCAK256 SLOAD DUP1 ISZERO PUSH2 0x3BE9 JUMPI PUSH1 0x0 PUSH2 0x3B24 PUSH1 0x1 DUP4 PUSH2 0x42D6 JUMP JUMPDEST DUP6 SLOAD SWAP1 SWAP2 POP PUSH1 0x0 SWAP1 PUSH2 0x3B38 SWAP1 PUSH1 0x1 SWAP1 PUSH2 0x42D6 JUMP JUMPDEST SWAP1 POP DUP2 DUP2 EQ PUSH2 0x3B9D JUMPI PUSH1 0x0 DUP7 PUSH1 0x0 ADD DUP3 DUP2 SLOAD DUP2 LT PUSH2 0x3B58 JUMPI PUSH2 0x3B58 PUSH2 0x43F9 JUMP JUMPDEST SWAP1 PUSH1 0x0 MSTORE PUSH1 0x20 PUSH1 0x0 KECCAK256 ADD SLOAD SWAP1 POP DUP1 DUP8 PUSH1 0x0 ADD DUP5 DUP2 SLOAD DUP2 LT PUSH2 0x3B7B JUMPI PUSH2 0x3B7B PUSH2 0x43F9 JUMP JUMPDEST PUSH1 0x0 SWAP2 DUP3 MSTORE PUSH1 0x20 DUP1 DUP4 KECCAK256 SWAP1 SWAP2 ADD SWAP3 SWAP1 SWAP3 SSTORE SWAP2 DUP3 MSTORE PUSH1 0x1 DUP9 ADD SWAP1 MSTORE PUSH1 0x40 SWAP1 KECCAK256 DUP4 SWAP1 SSTORE JUMPDEST DUP6 SLOAD DUP7 SWAP1 DUP1 PUSH2 0x3BAE JUMPI PUSH2 0x3BAE PUSH2 0x43E3 JUMP JUMPDEST PUSH1 0x1 SWAP1 SUB DUP2 DUP2 SWAP1 PUSH1 0x0 MSTORE PUSH1 0x20 PUSH1 0x0 KECCAK256 ADD PUSH1 0x0 SWAP1 SSTORE SWAP1 SSTORE DUP6 PUSH1 0x1 ADD PUSH1 0x0 DUP7 DUP2 MSTORE PUSH1 0x20 ADD SWAP1 DUP2 MSTORE PUSH1 0x20 ADD PUSH1 0x0 KECCAK256 PUSH1 0x0 SWAP1 SSTORE PUSH1 0x1 SWAP4 POP POP POP POP PUSH2 0xB56 JUMP JUMPDEST PUSH1 0x0 SWAP2 POP POP PUSH2 0xB56 JUMP JUMPDEST DUP3 DUP1 SLOAD PUSH2 0x3BFF SWAP1 PUSH2 0x4334 JUMP JUMPDEST SWAP1 PUSH1 0x0 MSTORE PUSH1 0x20 PUSH1 0x0 KECCAK256 SWAP1 PUSH1 0x1F ADD PUSH1 0x20 SWAP1 DIV DUP2 ADD SWAP3 DUP3 PUSH2 0x3C21 JUMPI PUSH1 0x0 DUP6 SSTORE PUSH2 0x3C67 JUMP JUMPDEST DUP3 PUSH1 0x1F LT PUSH2 0x3C3A JUMPI DUP1 MLOAD PUSH1 0xFF NOT AND DUP4 DUP1 ADD OR DUP6 SSTORE PUSH2 0x3C67 JUMP JUMPDEST DUP3 DUP1 ADD PUSH1 0x1 ADD DUP6 SSTORE DUP3 ISZERO PUSH2 0x3C67 JUMPI SWAP2 DUP3 ADD JUMPDEST DUP3 DUP2 GT ISZERO PUSH2 0x3C67 JUMPI DUP3 MLOAD DUP3 SSTORE SWAP2 PUSH1 0x20 ADD SWAP2 SWAP1 PUSH1 0x1 ADD SWAP1 PUSH2 0x3C4C JUMP JUMPDEST POP PUSH2 0x2671 SWAP3 SWAP2 POP PUSH2 0x3CAD JUMP JUMPDEST DUP3 DUP1 SLOAD DUP3 DUP3 SSTORE SWAP1 PUSH1 0x0 MSTORE PUSH1 0x20 PUSH1 0x0 KECCAK256 SWAP1 DUP2 ADD SWAP3 DUP3 ISZERO PUSH2 0x3C67 JUMPI SWAP2 PUSH1 0x20 MUL DUP3 ADD DUP3 DUP2 GT ISZERO PUSH2 0x3C67 JUMPI DUP3 MLOAD DUP3 SSTORE SWAP2 PUSH1 0x20 ADD SWAP2 SWAP1 PUSH1 0x1 ADD SWAP1 PUSH2 0x3C4C JUMP JUMPDEST JUMPDEST DUP1 DUP3 GT ISZERO PUSH2 0x2671 JUMPI PUSH1 0x0 DUP2 SSTORE PUSH1 0x1 ADD PUSH2 0x3CAE JUMP JUMPDEST DUP1 CALLDATALOAD PUSH1 0x1 PUSH1 0x1 PUSH1 0xA0 SHL SUB DUP2 AND DUP2 EQ PUSH2 0x3CD9 JUMPI PUSH1 0x0 DUP1 REVERT JUMPDEST SWAP2 SWAP1 POP JUMP JUMPDEST PUSH1 0x0 DUP3 PUSH1 0x1F DUP4 ADD SLT PUSH2 0x3CEF JUMPI PUSH1 0x0 DUP1 REVERT JUMPDEST DUP2 CALLDATALOAD PUSH8 0xFFFFFFFFFFFFFFFF DUP2 GT ISZERO PUSH2 0x3D09 JUMPI PUSH2 0x3D09 PUSH2 0x440F JUMP JUMPDEST PUSH1 0x40 MLOAD PUSH2 0x3D20 PUSH1 0x1F DUP4 ADD PUSH1 0x1F NOT AND PUSH1 0x20 ADD DUP3 PUSH2 0x436F JUMP JUMPDEST DUP2 DUP2 MSTORE DUP5 PUSH1 0x20 DUP4 DUP7 ADD ADD GT ISZERO PUSH2 0x3D35 JUMPI PUSH1 0x0 DUP1 REVERT JUMPDEST DUP2 PUSH1 0x20 DUP6 ADD PUSH1 0x20 DUP4 ADD CALLDATACOPY PUSH1 0x0 SWAP2 DUP2 ADD PUSH1 0x20 ADD SWAP2 SWAP1 SWAP2 MSTORE SWAP4 SWAP3 POP POP POP JUMP JUMPDEST PUSH1 0x0 PUSH1 0x20 DUP3 DUP5 SUB SLT ISZERO PUSH2 0x3D64 JUMPI PUSH1 0x0 DUP1 REVERT JUMPDEST PUSH2 0x2108 DUP3 PUSH2 0x3CC2 JUMP JUMPDEST PUSH1 0x0 DUP1 PUSH1 0x40 DUP4 DUP6 SUB SLT ISZERO PUSH2 0x3D80 JUMPI PUSH1 0x0 DUP1 REVERT JUMPDEST PUSH2 0x3D89 DUP4 PUSH2 0x3CC2 JUMP JUMPDEST SWAP2 POP PUSH2 0x3D97 PUSH1 0x20 DUP5 ADD PUSH2 0x3CC2 JUMP JUMPDEST SWAP1 POP SWAP3 POP SWAP3 SWAP1 POP JUMP JUMPDEST PUSH1 0x0 DUP1 PUSH1 0x0 PUSH1 0x60 DUP5 DUP7 SUB SLT ISZERO PUSH2 0x3DB5 JUMPI PUSH1 0x0 DUP1 REVERT JUMPDEST PUSH2 0x3DBE DUP5 PUSH2 0x3CC2 JUMP JUMPDEST SWAP3 POP PUSH1 0x20 DUP5 ADD CALLDATALOAD SWAP2 POP PUSH1 0x40 DUP5 ADD CALLDATALOAD PUSH8 0xFFFFFFFFFFFFFFFF DUP2 GT ISZERO PUSH2 0x3DE1 JUMPI PUSH1 0x0 DUP1 REVERT JUMPDEST PUSH2 0x3DED DUP7 DUP3 DUP8 ADD PUSH2 0x3CDE JUMP JUMPDEST SWAP2 POP POP SWAP3 POP SWAP3 POP SWAP3 JUMP JUMPDEST PUSH1 0x0 DUP1 PUSH1 0x0 PUSH1 0x60 DUP5 DUP7 SUB SLT ISZERO PUSH2 0x3E0C JUMPI PUSH1 0x0 DUP1 REVERT JUMPDEST PUSH2 0x3E15 DUP5 PUSH2 0x3CC2 JUMP JUMPDEST SWAP6 PUSH1 0x20 DUP6 ADD CALLDATALOAD SWAP6 POP PUSH1 0x40 SWAP1 SWAP5 ADD CALLDATALOAD SWAP4 SWAP3 POP POP POP JUMP JUMPDEST PUSH1 0x0 PUSH1 0x20 DUP3 DUP5 SUB SLT ISZERO PUSH2 0x3E3C JUMPI PUSH1 0x0 DUP1 REVERT JUMPDEST POP CALLDATALOAD SWAP2 SWAP1 POP JUMP JUMPDEST PUSH1 0x0 PUSH1 0x20 DUP3 DUP5 SUB SLT ISZERO PUSH2 0x3E55 JUMPI PUSH1 0x0 DUP1 REVERT JUMPDEST POP MLOAD SWAP2 SWAP1 POP JUMP JUMPDEST PUSH1 0x0 DUP1 PUSH1 0x40 DUP4 DUP6 SUB SLT ISZERO PUSH2 0x3E6F JUMPI PUSH1 0x0 DUP1 REVERT JUMPDEST DUP3 CALLDATALOAD SWAP2 POP PUSH2 0x3D97 PUSH1 0x20 DUP5 ADD PUSH2 0x3CC2 JUMP JUMPDEST PUSH1 0x0 DUP1 PUSH1 0x0 PUSH1 0x60 DUP5 DUP7 SUB SLT ISZERO PUSH2 0x3E94 JUMPI PUSH1 0x0 DUP1 REVERT JUMPDEST DUP4 CALLDATALOAD SWAP3 POP PUSH1 0x20 DUP5 ADD CALLDATALOAD PUSH8 0xFFFFFFFFFFFFFFFF DUP1 DUP3 GT ISZERO PUSH2 0x3EB3 JUMPI PUSH1 0x0 DUP1 REVERT JUMPDEST PUSH2 0x3EBF DUP8 DUP4 DUP9 ADD PUSH2 0x3CDE JUMP JUMPDEST SWAP4 POP PUSH1 0x40 DUP7 ADD CALLDATALOAD SWAP2 POP DUP1 DUP3 GT ISZERO PUSH2 0x3ED5 JUMPI PUSH1 0x0 DUP1 REVERT JUMPDEST POP PUSH2 0x3DED DUP7 DUP3 DUP8 ADD PUSH2 0x3CDE JUMP JUMPDEST PUSH1 0x0 DUP1 PUSH1 0x40 DUP4 DUP6 SUB SLT ISZERO PUSH2 0x3EF5 JUMPI PUSH1 0x0 DUP1 REVERT JUMPDEST POP POP DUP1 CALLDATALOAD SWAP3 PUSH1 0x20 SWAP1 SWAP2 ADD CALLDATALOAD SWAP2 POP JUMP JUMPDEST PUSH1 0x0 DUP1 PUSH1 0x0 PUSH1 0x60 DUP5 DUP7 SUB SLT ISZERO PUSH2 0x3F19 JUMPI PUSH1 0x0 DUP1 REVERT JUMPDEST POP POP DUP2 CALLDATALOAD SWAP4 PUSH1 0x20 DUP4 ADD CALLDATALOAD SWAP4 POP PUSH1 0x40 SWAP1 SWAP3 ADD CALLDATALOAD SWAP2 SWAP1 POP JUMP JUMPDEST PUSH1 0x0 PUSH1 0x20 DUP3 DUP5 SUB SLT ISZERO PUSH2 0x3F42 JUMPI PUSH1 0x0 DUP1 REVERT JUMPDEST DUP2 CALLDATALOAD PUSH1 0x1 PUSH1 0x1 PUSH1 0xE0 SHL SUB NOT DUP2 AND DUP2 EQ PUSH2 0x2108 JUMPI PUSH1 0x0 DUP1 REVERT JUMPDEST PUSH1 0x0 DUP1 PUSH1 0x0 DUP1 PUSH1 0x0 DUP1 PUSH1 0xC0 DUP8 DUP10 SUB SLT ISZERO PUSH2 0x3F73 JUMPI PUSH1 0x0 DUP1 REVERT JUMPDEST DUP7 CALLDATALOAD SWAP6 POP PUSH1 0x20 DUP8 ADD CALLDATALOAD SWAP5 POP PUSH2 0x3F8A PUSH1 0x40 DUP9 ADD PUSH2 0x3CC2 JUMP JUMPDEST SWAP4 POP PUSH2 0x3F98 PUSH1 0x60 DUP9 ADD PUSH2 0x3CC2 JUMP JUMPDEST SWAP3 POP PUSH2 0x3FA6 PUSH1 0x80 DUP9 ADD PUSH2 0x3CC2 JUMP JUMPDEST SWAP2 POP PUSH2 0x3FB4 PUSH1 0xA0 DUP9 ADD PUSH2 0x3CC2 JUMP JUMPDEST SWAP1 POP SWAP3 SWAP6 POP SWAP3 SWAP6 POP SWAP3 SWAP6 JUMP JUMPDEST PUSH1 0x0 DUP2 MLOAD DUP1 DUP5 MSTORE PUSH2 0x3FD8 DUP2 PUSH1 0x20 DUP7 ADD PUSH1 0x20 DUP7 ADD PUSH2 0x42ED JUMP JUMPDEST PUSH1 0x1F ADD PUSH1 0x1F NOT AND SWAP3 SWAP1 SWAP3 ADD PUSH1 0x20 ADD SWAP3 SWAP2 POP POP JUMP JUMPDEST PUSH32 0x416363657373436F6E74726F6C3A206163636F756E7420000000000000000000 DUP2 MSTORE PUSH1 0x0 DUP4 MLOAD PUSH2 0x4024 DUP2 PUSH1 0x17 DUP6 ADD PUSH1 0x20 DUP9 ADD PUSH2 0x42ED JUMP JUMPDEST PUSH17 0x1034B99036B4B9B9B4B733903937B6329 PUSH1 0x7D SHL PUSH1 0x17 SWAP2 DUP5 ADD SWAP2 DUP3 ADD MSTORE DUP4 MLOAD PUSH2 0x4055 DUP2 PUSH1 0x28 DUP5 ADD PUSH1 0x20 DUP9 ADD PUSH2 0x42ED JUMP JUMPDEST ADD PUSH1 0x28 ADD SWAP5 SWAP4 POP POP POP POP JUMP JUMPDEST PUSH1 0x1 PUSH1 0x1 PUSH1 0xA0 SHL SUB DUP4 AND DUP2 MSTORE PUSH1 0x40 PUSH1 0x20 DUP3 ADD DUP2 SWAP1 MSTORE PUSH1 0x0 SWAP1 PUSH2 0x4085 SWAP1 DUP4 ADD DUP5 PUSH2 0x3FC0 JUMP JUMPDEST SWAP5 SWAP4 POP POP POP POP JUMP JUMPDEST PUSH1 0x40 DUP1 DUP3 MSTORE DUP4 MLOAD SWAP1 DUP3 ADD DUP2 SWAP1 MSTORE PUSH1 0x0 SWAP1 PUSH1 0x20 SWAP1 PUSH1 0x60 DUP5 ADD SWAP1 DUP3 DUP8 ADD DUP5 JUMPDEST DUP3 DUP2 LT ISZERO PUSH2 0x40C6 JUMPI DUP2 MLOAD DUP5 MSTORE SWAP3 DUP5 ADD SWAP3 SWAP1 DUP5 ADD SWAP1 PUSH1 0x1 ADD PUSH2 0x40AA JUMP JUMPDEST POP POP POP SWAP3 ADD SWAP3 SWAP1 SWAP3 MSTORE SWAP3 SWAP2 POP POP JUMP JUMPDEST PUSH1 0x20 DUP2 MSTORE PUSH1 0x0 PUSH2 0x2108 PUSH1 0x20 DUP4 ADD DUP5 PUSH2 0x3FC0 JUMP JUMPDEST PUSH1 0x40 DUP2 MSTORE PUSH1 0x0 PUSH2 0x40FB PUSH1 0x40 DUP4 ADD DUP6 PUSH2 0x3FC0 JUMP JUMPDEST SWAP1 POP PUSH1 0x1 DUP1 PUSH1 0xA0 SHL SUB DUP4 AND PUSH1 0x20 DUP4 ADD MSTORE SWAP4 SWAP3 POP POP POP JUMP JUMPDEST PUSH1 0x0 PUSH2 0x160 DUP1 DUP4 MSTORE PUSH2 0x4126 DUP2 DUP5 ADD DUP16 PUSH2 0x3FC0 JUMP JUMPDEST SWAP1 POP DUP3 DUP2 SUB PUSH1 0x20 DUP5 ADD MSTORE PUSH2 0x413A DUP2 DUP15 PUSH2 0x3FC0 JUMP JUMPDEST PUSH1 0x40 DUP5 ADD DUP14 SWAP1 MSTORE PUSH1 0x60 DUP5 ADD DUP13 SWAP1 MSTORE PUSH1 0x1 PUSH1 0x1 PUSH1 0xA0 SHL SUB DUP12 DUP2 AND PUSH1 0x80 DUP7 ADD MSTORE DUP11 AND PUSH1 0xA0 DUP6 ADD MSTORE PUSH1 0xC0 DUP5 ADD DUP10 SWAP1 MSTORE PUSH1 0xE0 DUP5 ADD DUP9 SWAP1 MSTORE SWAP2 POP POP PUSH1 0x4 DUP6 LT PUSH2 0x418E JUMPI PUSH4 0x4E487B71 PUSH1 0xE0 SHL PUSH1 0x0 MSTORE PUSH1 0x21 PUSH1 0x4 MSTORE PUSH1 0x24 PUSH1 0x0 REVERT JUMPDEST DUP5 PUSH2 0x100 DUP4 ADD MSTORE DUP4 PUSH2 0x120 DUP4 ADD MSTORE PUSH2 0x41AB PUSH2 0x140 DUP4 ADD DUP5 ISZERO ISZERO SWAP1 MSTORE JUMP JUMPDEST SWAP13 SWAP12 POP POP POP POP POP POP POP POP POP POP POP POP JUMP JUMPDEST PUSH1 0x60 DUP2 MSTORE PUSH1 0x0 PUSH2 0x41CE PUSH1 0x60 DUP4 ADD DUP7 PUSH2 0x3FC0 JUMP JUMPDEST PUSH1 0x20 DUP4 ADD SWAP5 SWAP1 SWAP5 MSTORE POP PUSH1 0x40 ADD MSTORE SWAP2 SWAP1 POP JUMP JUMPDEST PUSH1 0x20 DUP1 DUP3 MSTORE PUSH1 0x10 SWAP1 DUP3 ADD MSTORE PUSH16 0x14185D5CD8589B194E881C185D5CD959 PUSH1 0x82 SHL PUSH1 0x40 DUP3 ADD MSTORE PUSH1 0x60 ADD SWAP1 JUMP JUMPDEST PUSH1 0x20 DUP1 DUP3 MSTORE PUSH1 0x2B SWAP1 DUP3 ADD MSTORE PUSH32 0x496E697469616C697A61626C653A20636F6E7472616374206973206E6F742069 PUSH1 0x40 DUP3 ADD MSTORE PUSH11 0x6E697469616C697A696E67 PUSH1 0xA8 SHL PUSH1 0x60 DUP3 ADD MSTORE PUSH1 0x80 ADD SWAP1 JUMP JUMPDEST DUP4 DUP2 MSTORE DUP3 PUSH1 0x20 DUP3 ADD MSTORE PUSH1 0x60 PUSH1 0x40 DUP3 ADD MSTORE PUSH1 0x0 PUSH2 0x4274 PUSH1 0x60 DUP4 ADD DUP5 PUSH2 0x3FC0 JUMP JUMPDEST SWAP6 SWAP5 POP POP POP POP POP JUMP JUMPDEST PUSH1 0x0 DUP3 NOT DUP3 GT ISZERO PUSH2 0x4290 JUMPI PUSH2 0x4290 PUSH2 0x43B7 JUMP JUMPDEST POP ADD SWAP1 JUMP JUMPDEST PUSH1 0x0 DUP3 PUSH2 0x42B2 JUMPI PUSH4 0x4E487B71 PUSH1 0xE0 SHL PUSH1 0x0 MSTORE PUSH1 0x12 PUSH1 0x4 MSTORE PUSH1 0x24 PUSH1 0x0 REVERT JUMPDEST POP DIV SWAP1 JUMP JUMPDEST PUSH1 0x0 DUP2 PUSH1 0x0 NOT DIV DUP4 GT DUP3 ISZERO ISZERO AND ISZERO PUSH2 0x42D1 JUMPI PUSH2 0x42D1 PUSH2 0x43B7 JUMP JUMPDEST POP MUL SWAP1 JUMP JUMPDEST PUSH1 0x0 DUP3 DUP3 LT ISZERO PUSH2 0x42E8 JUMPI PUSH2 0x42E8 PUSH2 0x43B7 JUMP JUMPDEST POP SUB SWAP1 JUMP JUMPDEST PUSH1 0x0 JUMPDEST DUP4 DUP2 LT ISZERO PUSH2 0x4308 JUMPI DUP2 DUP2 ADD MLOAD DUP4 DUP3 ADD MSTORE PUSH1 0x20 ADD PUSH2 0x42F0 JUMP JUMPDEST DUP4 DUP2 GT ISZERO PUSH2 0x4317 JUMPI PUSH1 0x0 DUP5 DUP5 ADD MSTORE JUMPDEST POP POP POP POP JUMP JUMPDEST PUSH1 0x0 DUP2 PUSH2 0x432C JUMPI PUSH2 0x432C PUSH2 0x43B7 JUMP JUMPDEST POP PUSH1 0x0 NOT ADD SWAP1 JUMP JUMPDEST PUSH1 0x1 DUP2 DUP2 SHR SWAP1 DUP3 AND DUP1 PUSH2 0x4348 JUMPI PUSH1 0x7F DUP3 AND SWAP2 POP JUMPDEST PUSH1 0x20 DUP3 LT DUP2 EQ ISZERO PUSH2 0x4369 JUMPI PUSH4 0x4E487B71 PUSH1 0xE0 SHL PUSH1 0x0 MSTORE PUSH1 0x22 PUSH1 0x4 MSTORE PUSH1 0x24 PUSH1 0x0 REVERT JUMPDEST POP SWAP2 SWAP1 POP JUMP JUMPDEST PUSH1 0x1F DUP3 ADD PUSH1 0x1F NOT AND DUP2 ADD PUSH8 0xFFFFFFFFFFFFFFFF DUP2 GT DUP3 DUP3 LT OR ISZERO PUSH2 0x4395 JUMPI PUSH2 0x4395 PUSH2 0x440F JUMP JUMPDEST PUSH1 0x40 MSTORE POP POP JUMP JUMPDEST PUSH1 0x0 PUSH1 0x0 NOT DUP3 EQ ISZERO PUSH2 0x43B0 JUMPI PUSH2 0x43B0 PUSH2 0x43B7 JUMP JUMPDEST POP PUSH1 0x1 ADD SWAP1 JUMP JUMPDEST PUSH4 0x4E487B71 PUSH1 0xE0 SHL PUSH1 0x0 MSTORE PUSH1 0x11 PUSH1 0x4 MSTORE PUSH1 0x24 PUSH1 0x0 REVERT JUMPDEST PUSH4 0x4E487B71 PUSH1 0xE0 SHL PUSH1 0x0 MSTORE PUSH1 0x21 PUSH1 0x4 MSTORE PUSH1 0x24 PUSH1 0x0 REVERT JUMPDEST PUSH4 0x4E487B71 PUSH1 0xE0 SHL PUSH1 0x0 MSTORE PUSH1 0x31 PUSH1 0x4 MSTORE PUSH1 0x24 PUSH1 0x0 REVERT JUMPDEST PUSH4 0x4E487B71 PUSH1 0xE0 SHL PUSH1 0x0 MSTORE PUSH1 0x32 PUSH1 0x4 MSTORE PUSH1 0x24 PUSH1 0x0 REVERT JUMPDEST PUSH4 0x4E487B71 PUSH1 0xE0 SHL PUSH1 0x0 MSTORE PUSH1 0x41 PUSH1 0x4 MSTORE PUSH1 0x24 PUSH1 0x0 REVERT JUMPDEST PUSH1 0x0 PUSH1 0x3 RETURNDATASIZE GT ISZERO PUSH2 0x2B1C JUMPI PUSH1 0x4 PUSH1 0x0 DUP1 RETURNDATACOPY POP PUSH1 0x0 MLOAD PUSH1 0xE0 SHR SWAP1 JUMP JUMPDEST PUSH1 0x0 PUSH1 0x44 RETURNDATASIZE LT ISZERO PUSH2 0x444E JUMPI SWAP1 JUMP JUMPDEST PUSH1 0x40 MLOAD PUSH1 0x3 NOT RETURNDATASIZE DUP2 ADD PUSH1 0x4 DUP4 RETURNDATACOPY DUP2 MLOAD RETURNDATASIZE PUSH8 0xFFFFFFFFFFFFFFFF DUP2 PUSH1 0x24 DUP5 ADD GT DUP2 DUP5 GT OR ISZERO PUSH2 0x447E JUMPI POP POP POP POP POP SWAP1 JUMP JUMPDEST DUP3 DUP6 ADD SWAP2 POP DUP2 MLOAD DUP2 DUP2 GT ISZERO PUSH2 0x4496 JUMPI POP POP POP POP POP POP SWAP1 JUMP JUMPDEST DUP5 RETURNDATASIZE DUP8 ADD ADD PUSH1 0x20 DUP3 DUP6 ADD ADD GT ISZERO PUSH2 0x44B0 JUMPI POP POP POP POP POP POP SWAP1 JUMP JUMPDEST PUSH2 0x44BF PUSH1 0x20 DUP3 DUP7 ADD ADD DUP8 PUSH2 0x436F JUMP JUMPDEST POP SWAP1 SWAP6 SWAP5 POP POP POP POP POP JUMP INVALID CALLDATALOAD 0xA7 DUP5 PUSH11 0x2A701FFF6F9D61A46EBFF5 0xDA JUMPI DUP13 0x5D 0xCE 0xE8 0xBD RETURN PUSH2 0xC569 0xF9 0xEA 0x4E 0xE6 SELFBALANCE PUSH18 0x36624AFD4AC14E2EBE9B68A6EC0C6E4F6B CREATE2 0xBD 0xE2 SWAP10 SWAP11 PUSH2 0xE1FE 0xC0 DUP6 0xCA DUP7 PUSH10 0x7DA26469706673582212 KECCAK256 CALLDATASIZE 0xBB SDIV DUP7 RETURNDATACOPY SWAP5 0xC3 DUP11 0xBF ADDMOD PUSH4 0xA450A043 0xBA 0x4D 0xF9 0xC3 0x5C PUSH28 0x41168461332FAAF8BE16BE64736F6C63430008070033000000000000 "
		},
		"gasEstimates": {
			"creation": {
				"codeDepositCost": "3545600",
				"executionCost": "3974",
				"totalCost": "3549574"
			},
			"external": {
				"DEFAULT_ADMIN_ROLE()": "329",
				"GOVERNANCE_ROLE()": "infinite",
				"ZERO_BYTES32()": "264",
				"balance()": "infinite",
				"blockList(address,address)": "infinite",
				"blockUser(address)": "infinite",
				"checkBlocked(address,address)": "infinite",
				"checkWhitelist(address,address)": "infinite",
				"claimBackQuestionValue(bytes32)": "infinite",
				"claimBackTipValue(bytes32)": "infinite",
				"createAnswer(bytes32,string,string)": "infinite",
				"createQuestion(address,uint256,string)": "infinite",
				"createTip(bytes32)": "infinite",
				"defaultQuestionTimeLimit()": "2407",
				"feeCollector()": "2405",
				"feeNumerator()": "2361",
				"followUser(address)": "infinite",
				"getQuestionTipIds(bytes32,uint256,uint256)": "infinite",
				"getRoleAdmin(bytes32)": "2535",
				"getRoleMember(bytes32,uint256)": "infinite",
				"getRoleMemberCount(bytes32)": "infinite",
				"getUserQuestionIds(address,uint256,uint256)": "infinite",
				"getUserQuestionIdsLength(address)": "2632",
				"getUserTipIds(address,uint256,uint256)": "infinite",
				"grantRole(bytes32,address)": "infinite",
				"hasRole(bytes32,address)": "2722",
				"initialize(uint256,uint256,address,address,address,address)": "infinite",
				"isTrustedForwarder(address)": "2615",
				"markJunkReponse(bytes32)": "infinite",
				"maxExtendLimit()": "2430",
				"minTimeLock()": "2407",
				"minimumBid()": "2362",
				"nftContract()": "2448",
				"pause()": "infinite",
				"paused()": "2361",
				"questions(bytes32)": "infinite",
				"recipientUpFront()": "2428",
				"renounceRole(bytes32,address)": "infinite",
				"revokeRole(bytes32,address)": "infinite",
				"setMinimumBid(uint256)": "infinite",
				"setRecipientUpFront(uint256)": "infinite",
				"setThresholdFactorForSplit(uint256)": "infinite",
				"setTrustedForwarder(address)": "infinite",
				"setUserMinimumBid(uint256)": "infinite",
				"setdefaultQuestionTimeLimit(uint256)": "infinite",
				"supportsInterface(bytes4)": "infinite",
				"thresholdFactorForSplit()": "2407",
				"tips(bytes32)": "11126",
				"unBlockUser(address)": "infinite",
				"unWhitelistUser(address)": "infinite",
				"unfollowUser(address)": "infinite",
				"unpause()": "infinite",
				"userBalance()": "4769",
				"userMinimumBid(address,address)": "infinite",
				"whitelistUser(address)": "infinite",
				"withdraw(uint256)": "infinite"
			},
			"internal": {
				"_createAnswer(bytes32,string memory,string memory)": "infinite",
				"_createQuestion(address,address,uint256,uint256,string memory)": "infinite",
				"_feeDenominator()": "infinite",
				"_msgData()": "infinite",
				"_msgSender()": "2217",
				"_valueDeduction(uint256,uint256)": "infinite",
				"mintNFTforAnswer(address,string memory)": "infinite"
			}
		},
		"methodIdentifiers": {
			"DEFAULT_ADMIN_ROLE()": "a217fddf",
			"GOVERNANCE_ROLE()": "f36c8f5c",
			"ZERO_BYTES32()": "069321b0",
			"balance()": "b69ef8a8",
			"blockList(address,address)": "e83d6f07",
			"blockUser(address)": "3da01325",
			"checkBlocked(address,address)": "2c8d6fd6",
			"checkWhitelist(address,address)": "dc1a0911",
			"claimBackQuestionValue(bytes32)": "067f661d",
			"claimBackTipValue(bytes32)": "f224aa4f",
			"createAnswer(bytes32,string,string)": "6c3fa899",
			"createQuestion(address,uint256,string)": "662d2a66",
			"createTip(bytes32)": "a740d68e",
			"defaultQuestionTimeLimit()": "99496e2a",
			"feeCollector()": "c415b95c",
			"feeNumerator()": "e86dea4a",
			"followUser(address)": "a70806f7",
			"getQuestionTipIds(bytes32,uint256,uint256)": "8cc1af13",
			"getRoleAdmin(bytes32)": "248a9ca3",
			"getRoleMember(bytes32,uint256)": "9010d07c",
			"getRoleMemberCount(bytes32)": "ca15c873",
			"getUserQuestionIds(address,uint256,uint256)": "50b240ba",
			"getUserQuestionIdsLength(address)": "e5675219",
			"getUserTipIds(address,uint256,uint256)": "be841e02",
			"grantRole(bytes32,address)": "2f2ff15d",
			"hasRole(bytes32,address)": "91d14854",
			"initialize(uint256,uint256,address,address,address,address)": "10e51e14",
			"isTrustedForwarder(address)": "572b6c05",
			"markJunkReponse(bytes32)": "320ed957",
			"maxExtendLimit()": "1cf28a36",
			"minTimeLock()": "d00a818f",
			"minimumBid()": "d3a86386",
			"nftContract()": "d56d229d",
			"pause()": "8456cb59",
			"paused()": "5c975abb",
			"questions(bytes32)": "95addb90",
			"recipientUpFront()": "c0ef21ee",
			"renounceRole(bytes32,address)": "36568abe",
			"revokeRole(bytes32,address)": "d547741f",
			"setMinimumBid(uint256)": "86495b04",
			"setRecipientUpFront(uint256)": "4b8e7a34",
			"setThresholdFactorForSplit(uint256)": "049c067a",
			"setTrustedForwarder(address)": "da742228",
			"setUserMinimumBid(uint256)": "21e47049",
			"setdefaultQuestionTimeLimit(uint256)": "7908bbe1",
			"supportsInterface(bytes4)": "01ffc9a7",
			"thresholdFactorForSplit()": "aafa3061",
			"tips(bytes32)": "602bf227",
			"unBlockUser(address)": "65f898e1",
			"unWhitelistUser(address)": "190c69a2",
			"unfollowUser(address)": "f107cfcb",
			"unpause()": "3f4ba83a",
			"userBalance()": "bf152765",
			"userMinimumBid(address,address)": "27528350",
			"whitelistUser(address)": "4a4c560d",
			"withdraw(uint256)": "2e1a7d4d"
		}
	},
	"abi": [
		{
			"anonymous": false,
			"inputs": [
				{
					"indexed": true,
					"internalType": "address",
					"name": "sender",
					"type": "address"
				},
				{
					"indexed": false,
					"internalType": "uint256",
					"name": "value",
					"type": "uint256"
				}
			],
			"name": "AmountReceived",
			"type": "event"
		},
		{
			"anonymous": false,
			"inputs": [
				{
					"indexed": true,
					"internalType": "address",
					"name": "blocker",
					"type": "address"
				},
				{
					"indexed": true,
					"internalType": "address",
					"name": "blocked",
					"type": "address"
				}
			],
			"name": "Blocked",
			"type": "event"
		},
		{
			"anonymous": false,
			"inputs": [
				{
					"indexed": true,
					"internalType": "address",
					"name": "followed",
					"type": "address"
				},
				{
					"indexed": true,
					"internalType": "address",
					"name": "follower",
					"type": "address"
				}
			],
			"name": "Follow",
			"type": "event"
		},
		{
			"anonymous": false,
			"inputs": [
				{
					"indexed": true,
					"internalType": "bytes32",
					"name": "questionId",
					"type": "bytes32"
				},
				{
					"indexed": true,
					"internalType": "address",
					"name": "owner",
					"type": "address"
				},
				{
					"indexed": true,
					"internalType": "address",
					"name": "answerer",
					"type": "address"
				}
			],
			"name": "JunkResponse",
			"type": "event"
		},
		{
			"anonymous": false,
			"inputs": [
				{
					"indexed": false,
					"internalType": "address",
					"name": "account",
					"type": "address"
				}
			],
			"name": "Paused",
			"type": "event"
		},
		{
			"anonymous": false,
			"inputs": [
				{
					"indexed": true,
					"internalType": "bytes32",
					"name": "questionId",
					"type": "bytes32"
				},
				{
					"indexed": true,
					"internalType": "address",
					"name": "owner",
					"type": "address"
				},
				{
					"indexed": true,
					"internalType": "address",
					"name": "creator",
					"type": "address"
				},
				{
					"indexed": false,
					"internalType": "string",
					"name": "answerLink",
					"type": "string"
				},
				{
					"indexed": false,
					"internalType": "uint256",
					"name": "tokenId",
					"type": "uint256"
				},
				{
					"indexed": false,
					"internalType": "uint256",
					"name": "value",
					"type": "uint256"
				}
			],
			"name": "QuestionAnswered",
			"type": "event"
		},
		{
			"anonymous": false,
			"inputs": [
				{
					"indexed": true,
					"internalType": "address",
					"name": "recipient",
					"type": "address"
				},
				{
					"indexed": true,
					"internalType": "bytes32",
					"name": "questionId",
					"type": "bytes32"
				},
				{
					"indexed": true,
					"internalType": "address",
					"name": "createdBy",
					"type": "address"
				},
				{
					"indexed": false,
					"internalType": "uint256",
					"name": "value",
					"type": "uint256"
				},
				{
					"indexed": false,
					"internalType": "uint256",
					"name": "expiryTime",
					"type": "uint256"
				},
				{
					"indexed": false,
					"internalType": "string",
					"name": "link",
					"type": "string"
				}
			],
			"name": "QuestionCreated",
			"type": "event"
		},
		{
			"anonymous": false,
			"inputs": [
				{
					"indexed": true,
					"internalType": "bytes32",
					"name": "questionId",
					"type": "bytes32"
				},
				{
					"indexed": true,
					"internalType": "address",
					"name": "createdBy",
					"type": "address"
				},
				{
					"indexed": false,
					"internalType": "uint256",
					"name": "value",
					"type": "uint256"
				}
			],
			"name": "QuestionValueClaimed",
			"type": "event"
		},
		{
			"anonymous": false,
			"inputs": [
				{
					"indexed": true,
					"internalType": "bytes32",
					"name": "role",
					"type": "bytes32"
				},
				{
					"indexed": true,
					"internalType": "bytes32",
					"name": "previousAdminRole",
					"type": "bytes32"
				},
				{
					"indexed": true,
					"internalType": "bytes32",
					"name": "newAdminRole",
					"type": "bytes32"
				}
			],
			"name": "RoleAdminChanged",
			"type": "event"
		},
		{
			"anonymous": false,
			"inputs": [
				{
					"indexed": true,
					"internalType": "bytes32",
					"name": "role",
					"type": "bytes32"
				},
				{
					"indexed": true,
					"internalType": "address",
					"name": "account",
					"type": "address"
				},
				{
					"indexed": true,
					"internalType": "address",
					"name": "sender",
					"type": "address"
				}
			],
			"name": "RoleGranted",
			"type": "event"
		},
		{
			"anonymous": false,
			"inputs": [
				{
					"indexed": true,
					"internalType": "bytes32",
					"name": "role",
					"type": "bytes32"
				},
				{
					"indexed": true,
					"internalType": "address",
					"name": "account",
					"type": "address"
				},
				{
					"indexed": true,
					"internalType": "address",
					"name": "sender",
					"type": "address"
				}
			],
			"name": "RoleRevoked",
			"type": "event"
		},
		{
			"anonymous": false,
			"inputs": [
				{
					"indexed": true,
					"internalType": "bytes32",
					"name": "questionId",
					"type": "bytes32"
				},
				{
					"indexed": true,
					"internalType": "bytes32",
					"name": "tipId",
					"type": "bytes32"
				},
				{
					"indexed": true,
					"internalType": "address",
					"name": "createdBy",
					"type": "address"
				},
				{
					"indexed": false,
					"internalType": "uint256",
					"name": "value",
					"type": "uint256"
				}
			],
			"name": "TipCreated",
			"type": "event"
		},
		{
			"anonymous": false,
			"inputs": [
				{
					"indexed": true,
					"internalType": "bytes32",
					"name": "questionId",
					"type": "bytes32"
				},
				{
					"indexed": true,
					"internalType": "bytes32",
					"name": "tipId",
					"type": "bytes32"
				},
				{
					"indexed": true,
					"internalType": "address",
					"name": "createdBy",
					"type": "address"
				},
				{
					"indexed": false,
					"internalType": "uint256",
					"name": "value",
					"type": "uint256"
				}
			],
			"name": "TipValueClaimed",
			"type": "event"
		},
		{
			"anonymous": false,
			"inputs": [
				{
					"indexed": true,
					"internalType": "address",
					"name": "unblocker",
					"type": "address"
				},
				{
					"indexed": true,
					"internalType": "address",
					"name": "unblocked",
					"type": "address"
				}
			],
			"name": "UnBlock",
			"type": "event"
		},
		{
			"anonymous": false,
			"inputs": [
				{
					"indexed": true,
					"internalType": "address",
					"name": "unfollowed",
					"type": "address"
				},
				{
					"indexed": true,
					"internalType": "address",
					"name": "unfollower",
					"type": "address"
				}
			],
			"name": "UnFollow",
			"type": "event"
		},
		{
			"anonymous": false,
			"inputs": [
				{
					"indexed": true,
					"internalType": "address",
					"name": "unwhitelister",
					"type": "address"
				},
				{
					"indexed": true,
					"internalType": "address",
					"name": "unwhitelisted",
					"type": "address"
				}
			],
			"name": "UnWhitelisted",
			"type": "event"
		},
		{
			"anonymous": false,
			"inputs": [
				{
					"indexed": false,
					"internalType": "address",
					"name": "account",
					"type": "address"
				}
			],
			"name": "Unpaused",
			"type": "event"
		},
		{
			"anonymous": false,
			"inputs": [
				{
					"indexed": true,
					"internalType": "address",
					"name": "whitelister",
					"type": "address"
				},
				{
					"indexed": true,
					"internalType": "address",
					"name": "whitelisted",
					"type": "address"
				}
			],
			"name": "Whitelisted",
			"type": "event"
		},
		{
			"anonymous": false,
			"inputs": [
				{
					"indexed": true,
					"internalType": "address",
					"name": "user",
					"type": "address"
				},
				{
					"indexed": false,
					"internalType": "uint256",
					"name": "value",
					"type": "uint256"
				}
			],
			"name": "Withdraw",
			"type": "event"
		},
		{
			"inputs": [],
			"name": "DEFAULT_ADMIN_ROLE",
			"outputs": [
				{
					"internalType": "bytes32",
					"name": "",
					"type": "bytes32"
				}
			],
			"stateMutability": "view",
			"type": "function"
		},
		{
			"inputs": [],
			"name": "GOVERNANCE_ROLE",
			"outputs": [
				{
					"internalType": "bytes32",
					"name": "",
					"type": "bytes32"
				}
			],
			"stateMutability": "view",
			"type": "function"
		},
		{
			"inputs": [],
			"name": "ZERO_BYTES32",
			"outputs": [
				{
					"internalType": "bytes32",
					"name": "",
					"type": "bytes32"
				}
			],
			"stateMutability": "view",
			"type": "function"
		},
		{
			"inputs": [],
			"name": "balance",
			"outputs": [
				{
					"internalType": "uint256",
					"name": "",
					"type": "uint256"
				}
			],
			"stateMutability": "view",
			"type": "function"
		},
		{
			"inputs": [
				{
					"internalType": "address",
					"name": "",
					"type": "address"
				},
				{
					"internalType": "address",
					"name": "",
					"type": "address"
				}
			],
			"name": "blockList",
			"outputs": [
				{
					"internalType": "bool",
					"name": "",
					"type": "bool"
				}
			],
			"stateMutability": "view",
			"type": "function"
		},
		{
			"inputs": [
				{
					"internalType": "address",
					"name": "_address",
					"type": "address"
				}
			],
			"name": "blockUser",
			"outputs": [],
			"stateMutability": "nonpayable",
			"type": "function"
		},
		{
			"inputs": [
				{
					"internalType": "address",
					"name": "_sender",
					"type": "address"
				},
				{
					"internalType": "address",
					"name": "_recipient",
					"type": "address"
				}
			],
			"name": "checkBlocked",
			"outputs": [
				{
					"internalType": "bool",
					"name": "",
					"type": "bool"
				}
			],
			"stateMutability": "view",
			"type": "function"
		},
		{
			"inputs": [
				{
					"internalType": "address",
					"name": "_sender",
					"type": "address"
				},
				{
					"internalType": "address",
					"name": "_recipient",
					"type": "address"
				}
			],
			"name": "checkWhitelist",
			"outputs": [
				{
					"internalType": "bool",
					"name": "",
					"type": "bool"
				}
			],
			"stateMutability": "view",
			"type": "function"
		},
		{
			"inputs": [
				{
					"internalType": "bytes32",
					"name": "questionId",
					"type": "bytes32"
				}
			],
			"name": "claimBackQuestionValue",
			"outputs": [],
			"stateMutability": "nonpayable",
			"type": "function"
		},
		{
			"inputs": [
				{
					"internalType": "bytes32",
					"name": "tipId",
					"type": "bytes32"
				}
			],
			"name": "claimBackTipValue",
			"outputs": [],
			"stateMutability": "nonpayable",
			"type": "function"
		},
		{
			"inputs": [
				{
					"internalType": "bytes32",
					"name": "questionId_",
					"type": "bytes32"
				},
				{
					"internalType": "string",
					"name": "answerLink_",
					"type": "string"
				},
				{
					"internalType": "string",
					"name": "tokenURI_",
					"type": "string"
				}
			],
			"name": "createAnswer",
			"outputs": [],
			"stateMutability": "nonpayable",
			"type": "function"
		},
		{
			"inputs": [
				{
					"internalType": "address",
					"name": "recipient_",
					"type": "address"
				},
				{
					"internalType": "uint256",
					"name": "timelock_",
					"type": "uint256"
				},
				{
					"internalType": "string",
					"name": "questionLink_",
					"type": "string"
				}
			],
			"name": "createQuestion",
			"outputs": [
				{
					"internalType": "bytes32",
					"name": "",
					"type": "bytes32"
				}
			],
			"stateMutability": "payable",
			"type": "function"
		},
		{
			"inputs": [
				{
					"internalType": "bytes32",
					"name": "questionId",
					"type": "bytes32"
				}
			],
			"name": "createTip",
			"outputs": [],
			"stateMutability": "payable",
			"type": "function"
		},
		{
			"inputs": [],
			"name": "defaultQuestionTimeLimit",
			"outputs": [
				{
					"internalType": "uint256",
					"name": "",
					"type": "uint256"
				}
			],
			"stateMutability": "view",
			"type": "function"
		},
		{
			"inputs": [],
			"name": "feeCollector",
			"outputs": [
				{
					"internalType": "address",
					"name": "",
					"type": "address"
				}
			],
			"stateMutability": "view",
			"type": "function"
		},
		{
			"inputs": [],
			"name": "feeNumerator",
			"outputs": [
				{
					"internalType": "uint256",
					"name": "",
					"type": "uint256"
				}
			],
			"stateMutability": "view",
			"type": "function"
		},
		{
			"inputs": [
				{
					"internalType": "address",
					"name": "_address",
					"type": "address"
				}
			],
			"name": "followUser",
			"outputs": [],
			"stateMutability": "nonpayable",
			"type": "function"
		},
		{
			"inputs": [
				{
					"internalType": "bytes32",
					"name": "_questionId",
					"type": "bytes32"
				},
				{
					"internalType": "uint256",
					"name": "skip",
					"type": "uint256"
				},
				{
					"internalType": "uint256",
					"name": "limit",
					"type": "uint256"
				}
			],
			"name": "getQuestionTipIds",
			"outputs": [
				{
					"internalType": "bytes32[]",
					"name": "values",
					"type": "bytes32[]"
				},
				{
					"internalType": "uint256",
					"name": "",
					"type": "uint256"
				}
			],
			"stateMutability": "view",
			"type": "function"
		},
		{
			"inputs": [
				{
					"internalType": "bytes32",
					"name": "role",
					"type": "bytes32"
				}
			],
			"name": "getRoleAdmin",
			"outputs": [
				{
					"internalType": "bytes32",
					"name": "",
					"type": "bytes32"
				}
			],
			"stateMutability": "view",
			"type": "function"
		},
		{
			"inputs": [
				{
					"internalType": "bytes32",
					"name": "role",
					"type": "bytes32"
				},
				{
					"internalType": "uint256",
					"name": "index",
					"type": "uint256"
				}
			],
			"name": "getRoleMember",
			"outputs": [
				{
					"internalType": "address",
					"name": "",
					"type": "address"
				}
			],
			"stateMutability": "view",
			"type": "function"
		},
		{
			"inputs": [
				{
					"internalType": "bytes32",
					"name": "role",
					"type": "bytes32"
				}
			],
			"name": "getRoleMemberCount",
			"outputs": [
				{
					"internalType": "uint256",
					"name": "",
					"type": "uint256"
				}
			],
			"stateMutability": "view",
			"type": "function"
		},
		{
			"inputs": [
				{
					"internalType": "address",
					"name": "_address",
					"type": "address"
				},
				{
					"internalType": "uint256",
					"name": "skip",
					"type": "uint256"
				},
				{
					"internalType": "uint256",
					"name": "limit",
					"type": "uint256"
				}
			],
			"name": "getUserQuestionIds",
			"outputs": [
				{
					"internalType": "bytes32[]",
					"name": "values",
					"type": "bytes32[]"
				},
				{
					"internalType": "uint256",
					"name": "",
					"type": "uint256"
				}
			],
			"stateMutability": "view",
			"type": "function"
		},
		{
			"inputs": [
				{
					"internalType": "address",
					"name": "_address",
					"type": "address"
				}
			],
			"name": "getUserQuestionIdsLength",
			"outputs": [
				{
					"internalType": "uint256",
					"name": "",
					"type": "uint256"
				}
			],
			"stateMutability": "view",
			"type": "function"
		},
		{
			"inputs": [
				{
					"internalType": "address",
					"name": "_address",
					"type": "address"
				},
				{
					"internalType": "uint256",
					"name": "skip",
					"type": "uint256"
				},
				{
					"internalType": "uint256",
					"name": "limit",
					"type": "uint256"
				}
			],
			"name": "getUserTipIds",
			"outputs": [
				{
					"internalType": "bytes32[]",
					"name": "values",
					"type": "bytes32[]"
				},
				{
					"internalType": "uint256",
					"name": "",
					"type": "uint256"
				}
			],
			"stateMutability": "view",
			"type": "function"
		},
		{
			"inputs": [
				{
					"internalType": "bytes32",
					"name": "role",
					"type": "bytes32"
				},
				{
					"internalType": "address",
					"name": "account",
					"type": "address"
				}
			],
			"name": "grantRole",
			"outputs": [],
			"stateMutability": "nonpayable",
			"type": "function"
		},
		{
			"inputs": [
				{
					"internalType": "bytes32",
					"name": "role",
					"type": "bytes32"
				},
				{
					"internalType": "address",
					"name": "account",
					"type": "address"
				}
			],
			"name": "hasRole",
			"outputs": [
				{
					"internalType": "bool",
					"name": "",
					"type": "bool"
				}
			],
			"stateMutability": "view",
			"type": "function"
		},
		{
			"inputs": [
				{
					"internalType": "uint256",
					"name": "_minimumBid",
					"type": "uint256"
				},
				{
					"internalType": "uint256",
					"name": "_feeNumerator",
					"type": "uint256"
				},
				{
					"internalType": "address",
					"name": "_nftContract",
					"type": "address"
				},
				{
					"internalType": "address",
					"name": "_feeCollector",
					"type": "address"
				},
				{
					"internalType": "address",
					"name": "_adminAddress",
					"type": "address"
				},
				{
					"internalType": "address",
					"name": "trustedForwarder",
					"type": "address"
				}
			],
			"name": "initialize",
			"outputs": [],
			"stateMutability": "nonpayable",
			"type": "function"
		},
		{
			"inputs": [
				{
					"internalType": "address",
					"name": "forwarder",
					"type": "address"
				}
			],
			"name": "isTrustedForwarder",
			"outputs": [
				{
					"internalType": "bool",
					"name": "",
					"type": "bool"
				}
			],
			"stateMutability": "view",
			"type": "function"
		},
		{
			"inputs": [
				{
					"internalType": "bytes32",
					"name": "questionId_",
					"type": "bytes32"
				}
			],
			"name": "markJunkReponse",
			"outputs": [],
			"stateMutability": "nonpayable",
			"type": "function"
		},
		{
			"inputs": [],
			"name": "maxExtendLimit",
			"outputs": [
				{
					"internalType": "uint256",
					"name": "",
					"type": "uint256"
				}
			],
			"stateMutability": "view",
			"type": "function"
		},
		{
			"inputs": [],
			"name": "minTimeLock",
			"outputs": [
				{
					"internalType": "uint256",
					"name": "",
					"type": "uint256"
				}
			],
			"stateMutability": "view",
			"type": "function"
		},
		{
			"inputs": [],
			"name": "minimumBid",
			"outputs": [
				{
					"internalType": "uint256",
					"name": "",
					"type": "uint256"
				}
			],
			"stateMutability": "view",
			"type": "function"
		},
		{
			"inputs": [],
			"name": "nftContract",
			"outputs": [
				{
					"internalType": "contract AmaFansNFT",
					"name": "",
					"type": "address"
				}
			],
			"stateMutability": "view",
			"type": "function"
		},
		{
			"inputs": [],
			"name": "pause",
			"outputs": [],
			"stateMutability": "nonpayable",
			"type": "function"
		},
		{
			"inputs": [],
			"name": "paused",
			"outputs": [
				{
					"internalType": "bool",
					"name": "",
					"type": "bool"
				}
			],
			"stateMutability": "view",
			"type": "function"
		},
		{
			"inputs": [
				{
					"internalType": "bytes32",
					"name": "",
					"type": "bytes32"
				}
			],
			"name": "questions",
			"outputs": [
				{
					"internalType": "string",
					"name": "questionLink",
					"type": "string"
				},
				{
					"internalType": "string",
					"name": "answerLink",
					"type": "string"
				},
				{
					"internalType": "uint256",
					"name": "initialValue",
					"type": "uint256"
				},
				{
					"internalType": "uint256",
					"name": "totalValue",
					"type": "uint256"
				},
				{
					"internalType": "address",
					"name": "createdBy",
					"type": "address"
				},
				{
					"internalType": "address",
					"name": "anweredBy",
					"type": "address"
				},
				{
					"internalType": "uint256",
					"name": "createdTime",
					"type": "uint256"
				},
				{
					"internalType": "uint256",
					"name": "expiryTime",
					"type": "uint256"
				},
				{
					"internalType": "enum AmaFansLib.State",
					"name": "state",
					"type": "uint8"
				},
				{
					"internalType": "uint256",
					"name": "tokenId",
					"type": "uint256"
				},
				{
					"internalType": "bool",
					"name": "junkResponse",
					"type": "bool"
				}
			],
			"stateMutability": "view",
			"type": "function"
		},
		{
			"inputs": [],
			"name": "recipientUpFront",
			"outputs": [
				{
					"internalType": "uint256",
					"name": "",
					"type": "uint256"
				}
			],
			"stateMutability": "view",
			"type": "function"
		},
		{
			"inputs": [
				{
					"internalType": "bytes32",
					"name": "role",
					"type": "bytes32"
				},
				{
					"internalType": "address",
					"name": "account",
					"type": "address"
				}
			],
			"name": "renounceRole",
			"outputs": [],
			"stateMutability": "nonpayable",
			"type": "function"
		},
		{
			"inputs": [
				{
					"internalType": "bytes32",
					"name": "role",
					"type": "bytes32"
				},
				{
					"internalType": "address",
					"name": "account",
					"type": "address"
				}
			],
			"name": "revokeRole",
			"outputs": [],
			"stateMutability": "nonpayable",
			"type": "function"
		},
		{
			"inputs": [
				{
					"internalType": "uint256",
					"name": "_minimumBid",
					"type": "uint256"
				}
			],
			"name": "setMinimumBid",
			"outputs": [],
			"stateMutability": "nonpayable",
			"type": "function"
		},
		{
			"inputs": [
				{
					"internalType": "uint256",
					"name": "_recipientUpFront",
					"type": "uint256"
				}
			],
			"name": "setRecipientUpFront",
			"outputs": [],
			"stateMutability": "nonpayable",
			"type": "function"
		},
		{
			"inputs": [
				{
					"internalType": "uint256",
					"name": "_thresholdFactorForSplit",
					"type": "uint256"
				}
			],
			"name": "setThresholdFactorForSplit",
			"outputs": [],
			"stateMutability": "nonpayable",
			"type": "function"
		},
		{
			"inputs": [
				{
					"internalType": "address",
					"name": "_forwarder",
					"type": "address"
				}
			],
			"name": "setTrustedForwarder",
			"outputs": [],
			"stateMutability": "nonpayable",
			"type": "function"
		},
		{
			"inputs": [
				{
					"internalType": "uint256",
					"name": "minimumBidByUser",
					"type": "uint256"
				}
			],
			"name": "setUserMinimumBid",
			"outputs": [],
			"stateMutability": "nonpayable",
			"type": "function"
		},
		{
			"inputs": [
				{
					"internalType": "uint256",
					"name": "_defaultQuestionTimeLimit",
					"type": "uint256"
				}
			],
			"name": "setdefaultQuestionTimeLimit",
			"outputs": [],
			"stateMutability": "nonpayable",
			"type": "function"
		},
		{
			"inputs": [
				{
					"internalType": "bytes4",
					"name": "interfaceId",
					"type": "bytes4"
				}
			],
			"name": "supportsInterface",
			"outputs": [
				{
					"internalType": "bool",
					"name": "",
					"type": "bool"
				}
			],
			"stateMutability": "view",
			"type": "function"
		},
		{
			"inputs": [],
			"name": "thresholdFactorForSplit",
			"outputs": [
				{
					"internalType": "uint256",
					"name": "",
					"type": "uint256"
				}
			],
			"stateMutability": "view",
			"type": "function"
		},
		{
			"inputs": [
				{
					"internalType": "bytes32",
					"name": "",
					"type": "bytes32"
				}
			],
			"name": "tips",
			"outputs": [
				{
					"internalType": "address",
					"name": "createdBy",
					"type": "address"
				},
				{
					"internalType": "uint256",
					"name": "value",
					"type": "uint256"
				},
				{
					"internalType": "uint256",
					"name": "createdTime",
					"type": "uint256"
				},
				{
					"internalType": "bytes32",
					"name": "questionId",
					"type": "bytes32"
				},
				{
					"internalType": "bool",
					"name": "claimed",
					"type": "bool"
				}
			],
			"stateMutability": "view",
			"type": "function"
		},
		{
			"inputs": [
				{
					"internalType": "address",
					"name": "_address",
					"type": "address"
				}
			],
			"name": "unBlockUser",
			"outputs": [],
			"stateMutability": "nonpayable",
			"type": "function"
		},
		{
			"inputs": [
				{
					"internalType": "address",
					"name": "_address",
					"type": "address"
				}
			],
			"name": "unWhitelistUser",
			"outputs": [],
			"stateMutability": "nonpayable",
			"type": "function"
		},
		{
			"inputs": [
				{
					"internalType": "address",
					"name": "_address",
					"type": "address"
				}
			],
			"name": "unfollowUser",
			"outputs": [],
			"stateMutability": "nonpayable",
			"type": "function"
		},
		{
			"inputs": [],
			"name": "unpause",
			"outputs": [],
			"stateMutability": "nonpayable",
			"type": "function"
		},
		{
			"inputs": [],
			"name": "userBalance",
			"outputs": [
				{
					"internalType": "uint256",
					"name": "",
					"type": "uint256"
				}
			],
			"stateMutability": "view",
			"type": "function"
		},
		{
			"inputs": [
				{
					"internalType": "address",
					"name": "_sender",
					"type": "address"
				},
				{
					"internalType": "address",
					"name": "_recipient",
					"type": "address"
				}
			],
			"name": "userMinimumBid",
			"outputs": [
				{
					"internalType": "uint256",
					"name": "",
					"type": "uint256"
				}
			],
			"stateMutability": "view",
			"type": "function"
		},
		{
			"inputs": [
				{
					"internalType": "address",
					"name": "_address",
					"type": "address"
				}
			],
			"name": "whitelistUser",
			"outputs": [],
			"stateMutability": "nonpayable",
			"type": "function"
		},
		{
			"inputs": [
				{
					"internalType": "uint256",
					"name": "_amount",
					"type": "uint256"
				}
			],
			"name": "withdraw",
			"outputs": [],
			"stateMutability": "nonpayable",
			"type": "function"
		},
		{
			"stateMutability": "payable",
			"type": "receive"
		}
	]
}