{
	"data": {
		"bytecode": {
			"linkReferences": {
				"AmaFansLib.sol": {
					"AmaFansLib": [
						{
							"length": 20,
							"start": 3312
						},
						{
							"length": 20,
							"start": 9185
						},
						{
							"length": 20,
							"start": 9332
						},
						{
							"length": 20,
							"start": 9545
						},
						{
							"length": 20,
							"start": 9695
						},
						{
							"length": 20,
							"start": 10745
						},
						{
							"length": 20,
							"start": 12049
						},
						{
							"length": 20,
							"start": 12787
						},
						{
							"length": 20,
							"start": 12929
						}
					]
				}
			},
			"object": "608060405234801561001057600080fd5b50614541806100206000396000f3fe60806040526004361061036f5760003560e01c806386495b04116101c6578063c415b95c116100f7578063dc1a091111610095578063e86dea4a1161006f578063e86dea4a14610aa9578063f107cfcb14610ac0578063f224aa4f14610ae0578063f36c8f5c14610b0057600080fd5b8063dc1a091114610a13578063e567521914610a33578063e83d6f0714610a6d57600080fd5b8063d3a86386116100d1578063d3a863861461099b578063d547741f146109b2578063d56d229d146109d2578063da742228146109f357600080fd5b8063c415b95c14610943578063ca15c87314610964578063d00a818f1461098457600080fd5b8063a70806f711610164578063b69ef8a81161013e578063b69ef8a8146108e2578063be841e02146108f7578063bf15276514610917578063c0ef21ee1461092c57600080fd5b8063a70806f714610898578063a740d68e146108b8578063aafa3061146108cb57600080fd5b806391d14854116101a057806391d148541461082a57806395addb901461084a57806399496e2a14610881578063a217fddf1461042a57600080fd5b806386495b04146107b25780638cc1af13146107d25780639010d07c146107f257600080fd5b806336568abe116102a05780635c975abb1161023e578063662d2a6611610218578063662d2a661461074a5780636c3fa8991461075d5780637908bbe11461077d5780638456cb591461079d57600080fd5b80635c975abb14610686578063602bf2271461069e57806365f898e11461072a57600080fd5b80634a4c560d1161027a5780634a4c560d146105e95780634b8e7a341461060957806350b240ba14610629578063572b6c051461065757600080fd5b806336568abe146105945780633da01325146105b45780633f4ba83a146105d457600080fd5b806321e470491161030d5780632c8d6fd6116102e75780632c8d6fd6146105145780632e1a7d4d146105345780632f2ff15d14610554578063320ed9571461057457600080fd5b806321e47049146104a4578063248a9ca3146104c457806327528350146104f457600080fd5b8063069321b011610349578063069321b01461042a57806310e51e141461044d578063190c69a21461046d5780631cf28a361461048d57600080fd5b806301ffc9a7146103b3578063049c067a146103e8578063067f661d1461040a57600080fd5b366103ae5761037c610b22565b6001600160a01b03166000805160206144ec833981519152346040516103a491815260200190565b60405180910390a2005b600080fd5b3480156103bf57600080fd5b506103d36103ce366004613f31565b610b31565b60405190151581526020015b60405180910390f35b3480156103f457600080fd5b50610408610403366004613e2b565b610b5c565b005b34801561041657600080fd5b50610408610425366004613e2b565b610bbe565b34801561043657600080fd5b5061043f600081565b6040519081526020016103df565b34801561045957600080fd5b50610408610468366004613f5b565b610df5565b34801561047957600080fd5b50610408610488366004613d53565b610fe7565b34801561049957600080fd5b5061043f6101605481565b3480156104b057600080fd5b506104086104bf366004613e2b565b61108e565b3480156104d057600080fd5b5061043f6104df366004613e2b565b600090815260c9602052604090206001015490565b34801561050057600080fd5b5061043f61050f366004613d6e565b6110fe565b34801561052057600080fd5b506103d361052f366004613d6e565b61115e565b34801561054057600080fd5b5061040861054f366004613e2b565b6111aa565b34801561056057600080fd5b5061040861056f366004613e5d565b61133d565b34801561058057600080fd5b5061040861058f366004613e2b565b61136a565b3480156105a057600080fd5b506104086105af366004613e5d565b611501565b3480156105c057600080fd5b506104086105cf366004613d53565b61158f565b3480156105e057600080fd5b50610408611724565b3480156105f557600080fd5b50610408610604366004613d53565b61179c565b34801561061557600080fd5b50610408610624366004613e2b565b6118d6565b34801561063557600080fd5b50610649610644366004613df8565b611939565b6040516103df92919061408e565b34801561066357600080fd5b506103d3610672366004613d53565b6065546001600160a01b0391821691161490565b34801561069257600080fd5b5060335460ff166103d3565b3480156106aa57600080fd5b506106f66106b9366004613e2b565b61016960205260009081526040902080546001820154600283015460038401546004909401546001600160a01b0390931693919290919060ff1685565b604080516001600160a01b03909616865260208601949094529284019190915260608301521515608082015260a0016103df565b34801561073657600080fd5b50610408610745366004613d53565b611a6f565b61043f610758366004613da1565b611b16565b34801561076957600080fd5b50610408610778366004613e80565b611d2d565b34801561078957600080fd5b50610408610798366004613e2b565b611e79565b3480156107a957600080fd5b50610408611e9b565b3480156107be57600080fd5b506104086107cd366004613e2b565b611f0f565b3480156107de57600080fd5b506106496107ed366004613f05565b611f7b565b3480156107fe57600080fd5b5061081261080d366004613ee3565b6120f1565b6040516001600160a01b0390911681526020016103df565b34801561083657600080fd5b506103d3610845366004613e5d565b612110565b34801561085657600080fd5b5061086a610865366004613e2b565b61213b565b6040516103df9b9a99989796959493929190614113565b34801561088d57600080fd5b5061043f6101625481565b3480156108a457600080fd5b506104086108b3366004613d53565b6122b4565b6104086108c6366004613e2b565b61233d565b3480156108d757600080fd5b5061043f6101675481565b3480156108ee57600080fd5b5061043f61265f565b34801561090357600080fd5b50610649610912366004613df8565b612676565b34801561092357600080fd5b5061043f612794565b34801561093857600080fd5b5061043f6101665481565b34801561094f57600080fd5b5061015f54610812906001600160a01b031681565b34801561097057600080fd5b5061043f61097f366004613e2b565b6127c9565b34801561099057600080fd5b5061043f6101655481565b3480156109a757600080fd5b5061043f6101615481565b3480156109be57600080fd5b506104086109cd366004613e5d565b6127e0565b3480156109de57600080fd5b5061016454610812906001600160a01b031681565b3480156109ff57600080fd5b50610408610a0e366004613d53565b612808565b348015610a1f57600080fd5b506103d3610a2e366004613d6e565b61281f565b348015610a3f57600080fd5b5061043f610a4e366004613d53565b6001600160a01b0316600090815261016a602052604090206001015490565b348015610a7957600080fd5b506103d3610a88366004613d6e565b61016c60209081526000928352604080842090915290825290205460ff1681565b348015610ab557600080fd5b5061043f6101635481565b348015610acc57600080fd5b50610408610adb366004613d53565b612828565b348015610aec57600080fd5b50610408610afb366004613e2b565b6128b1565b348015610b0c57600080fd5b5061043f6000805160206144cc83398151915281565b6000610b2c612af5565b905090565b60006001600160e01b03198216635a05180f60e01b1480610b565750610b5682612b20565b92915050565b6000610b6f81610b6a610b22565b612b55565b60408051808201909152600681526506060726060760d31b602082015260018311610bb65760405162461bcd60e51b8152600401610bad91906140d6565b60405180910390fd5b505061016755565b60335460ff1615610be15760405162461bcd60e51b8152600401610bad906141e1565b60008181526101686020908152604091829020600401548251808401909352600683526530303230303360d01b918301919091528291906001600160a01b0316610c3e5760405162461bcd60e51b8152600401610bad91906140d6565b5081610c48610b22565b60008281526101686020908152604091829020600401548251808401909352600683526518181918181960d11b9183019190915290916001600160a01b03918216911614610ca95760405162461bcd60e51b8152600401610bad91906140d6565b50600083815261016860205260409081902090516312c0728160e31b81526004810182905273__$9449e77bcfc6c744eba20e6cac20521bf9$__9063960394089060240160006040518083038186803b158015610d0557600080fd5b505af4158015610d19573d6000803e3d6000fd5b50505050806002015461016b6000610d2f610b22565b6001600160a01b03166001600160a01b031681526020019081526020016000206000828254610d5e919061427e565b90915550610d6c9050610b22565b6001600160a01b03166000805160206144ec8339815191528260020154604051610d9891815260200190565b60405180910390a2610da8610b22565b6001600160a01b0316847fb663b69fb317fe5ec731ce5c4e0cc9531c066c8abb2f241f3928087f4cd2153c8360020154604051610de791815260200190565b60405180910390a350505050565b600054610100900460ff16610e105760005460ff1615610e14565b303b155b610e775760405162461bcd60e51b815260206004820152602e60248201527f496e697469616c697a61626c653a20636f6e747261637420697320616c72656160448201526d191e481a5b9a5d1a585b1a5e995960921b6064820152608401610bad565b600054610100900460ff16158015610e99576000805461ffff19166101011790555b612710861115610efe5760405162461bcd60e51b815260206004820152602a60248201527f455243323938313a20726f79616c7479206665652077696c6c206578636565646044820152692073616c65507269636560b01b6064820152608401610bad565b610f09600488614296565b61016655610f15612bb9565b610f1d612c00565b610f25612c2f565b610f2e82612c66565b610161879055610163869055610164805461015f80546001600160a01b0319166001600160a01b038881169190911790915562015180610162556103846101655587166001600160a81b031990911617905560036101675561016d80546001019055610f9b600084612ca1565b610fb36000805160206144cc83398151915284612ca1565b610fcc6000805160206144cc8339815191526000612cab565b8015610fde576000805461ff00191690555b50505050505050565b600061016a6000610ff6610b22565b6001600160a01b03908116825260208083019390935260409182016000908120918616815260069091019092529020805460ff1916600183600281111561103f5761103f6143ce565b0217905550806001600160a01b0316611056610b22565b6001600160a01b03167fdc9ec6c8ca20e67e0cbecb5536d5c021046dd6a9a43b1b03d2b10235767d450260405160405180910390a350565b610161548110156040518060400160405280600681526020016530303930303360d01b815250906110d25760405162461bcd60e51b8152600401610bad91906140d6565b508061016a60006110e1610b22565b6001600160a01b0316815260208101919091526040016000205550565b600061110a838361281f565b1561111757506000610b56565b6001600160a01b038216600090815261016a602052604090205461113f575061016154610b56565b506001600160a01b0316600090815261016a6020526040902054919050565b600060015b6001600160a01b03808416600090815261016a60209081526040808320938816835260069093019052205460ff1660028111156111a2576111a26143ce565b149392505050565b60335460ff16156111cd5760405162461bcd60e51b8152600401610bad906141e1565b600261012d5414156112215760405162461bcd60e51b815260206004820152601f60248201527f5265656e7472616e637947756172643a207265656e7472616e742063616c6c006044820152606401610bad565b600261012d5561016b6000611234610b22565b6001600160a01b03166001600160a01b03168152602001908152602001600020548111156040518060400160405280600681526020016530303930303160d01b815250906112955760405162461bcd60e51b8152600401610bad91906140d6565b508061016b60006112a4610b22565b6001600160a01b03166001600160a01b0316815260200190815260200160002060008282546112d391906142d7565b909155506112ea90506112e4610b22565b82612cf6565b6112f2610b22565b6001600160a01b03167f884edad9ce6fa2440d8a54cc123490eb96d2768479d49ff9c7366125a94243648260405161132c91815260200190565b60405180910390a250600161012d55565b600082815260c9602052604090206001015461135b81610b6a610b22565b6113658383612e0f565b505050565b60008181526101686020908152604091829020600401548251808401909352600683526530303230303360d01b918301919091528291906001600160a01b03166113c75760405162461bcd60e51b8152600401610bad91906140d6565b506113d0610b22565b60008381526101686020908152604091829020600401548251808401909352600683526518181918181960d11b9183019190915290916001600160a01b039182169116146114315760405162461bcd60e51b8152600401610bad91906140d6565b5060036000838152610168602052604090206009015460ff16600381111561145b5761145b6143ce565b146040518060400160405280600681526020016530303230303960d01b815250906114995760405162461bcd60e51b8152600401610bad91906140d6565b5060008281526101686020526040808220600b8101805460ff19166001179055600581015460049091015491516001600160a01b0391821693929091169185917fe7517190a8eab1d92cbe89214c9cc1e5b0896d93c91bc93bf4c836cb8110b1839190a45050565b611509610b22565b6001600160a01b0316816001600160a01b0316146115815760405162461bcd60e51b815260206004820152602f60248201527f416363657373436f6e74726f6c3a2063616e206f6e6c792072656e6f756e636560448201526e103937b632b9903337b91039b2b63360891b6064820152608401610bad565b61158b8282612e31565b5050565b600261016a600061159e610b22565b6001600160a01b039081168252602080830193909352604091820160009081209186168152600690910190925290205460ff1660028111156115e2576115e26143ce565b14156040518060400160405280600681526020016530303930303960d01b815250906116215760405162461bcd60e51b8152600401610bad91906140d6565b50806001600160a01b0316611634610b22565b6001600160a01b031614156040518060400160405280600681526020016503030393031360d41b8152509061167c5760405162461bcd60e51b8152600401610bad91906140d6565b50600161016a600061168c610b22565b6001600160a01b03908116825260208083019390935260409182016000908120918616815260069091019092529020805460ff191660018360028111156116d5576116d56143ce565b0217905550806001600160a01b03166116ec610b22565b6001600160a01b03167fc931b7e6f18c2a39bcd066690c46c7ba85186501c524faa844ac2c7213d1732560405160405180910390a350565b6117316000610845610b22565b6117925760405162461bcd60e51b815260206004820152602c60248201527f4d75737420686176652044454641554c545f41444d494e5f524f4c4520726f6c60448201526b6520746f20756e706175736560a01b6064820152608401610bad565b61179a612e53565b565b600161016a60006117ab610b22565b6001600160a01b039081168252602080830193909352604091820160009081209186168152600690910190925290205460ff1660028111156117ef576117ef6143ce565b14156040518060400160405280600681526020016518181c98181b60d11b8152509061182e5760405162461bcd60e51b8152600401610bad91906140d6565b50600261016a600061183e610b22565b6001600160a01b03908116825260208083019390935260409182016000908120918616815260069091019092529020805460ff19166001836002811115611887576118876143ce565b0217905550806001600160a01b031661189e610b22565b6001600160a01b03167f6661a7108aecd07864384529117d96c319c1163e3010c01390f6b704726e07de60405160405180910390a350565b60006118e481610b6a610b22565b6118ef8260046142b8565b61016154116040518060400160405280600681526020016530303930303760d01b815250906119315760405162461bcd60e51b8152600401610bad91906140d6565b505061016655565b6001600160a01b038316600090815261016a6020526040812060010154606091906119659085906142d7565b831115611997576001600160a01b038516600090815261016a60205260409020600101546119949085906142d7565b92505b8267ffffffffffffffff8111156119b0576119b0614410565b6040519080825280602002602001820160405280156119d9578160200160208202803683370190505b50915060005b83811015611a57576001600160a01b038616600090815261016a60205260409020600101611a0d828761427e565b81548110611a1d57611a1d6143fa565b9060005260206000200154838281518110611a3a57611a3a6143fa565b602090810291909101015280611a4f8161439d565b9150506119df565b5081611a63848661427e565b91509150935093915050565b600061016a6000611a7e610b22565b6001600160a01b03908116825260208083019390935260409182016000908120918616815260069091019092529020805460ff19166001836002811115611ac757611ac76143ce565b0217905550806001600160a01b0316611ade610b22565b6001600160a01b03167f35672c674c91f8b0025681a1c8d11a4ca6583e909553290ecfb3d6578faa8bce60405160405180910390a350565b600082610165548110156040518060400160405280600681526020016530303230303760d01b81525090611b5d5760405162461bcd60e51b8152600401610bad91906140d6565b5060335460ff1615611b815760405162461bcd60e51b8152600401610bad906141e1565b600261012d541415611bd55760405162461bcd60e51b815260206004820152601f60248201527f5265656e7472616e637947756172643a207265656e7472616e742063616c6c006044820152606401610bad565b600261012d556001600160a01b038516600090815261016a60205260408120819060060181611c02610b22565b6001600160a01b0316815260208101919091526040016000205460ff1690506001816002811115611c3557611c356143ce565b14156040518060400160405280600681526020016518181c98181b60d11b81525090611c745760405162461bcd60e51b8152600401610bad91906140d6565b506002816002811115611c8957611c896143ce565b14611cf15734611ca0611c9a610b22565b896110fe565b11156040518060400160405280600681526020016503030313031360d41b81525090611cdf5760405162461bcd60e51b8152600401610bad91906140d6565b5061016654611cee90346142d7565b91505b6000611d07611cfe610b22565b89858a8a612eec565b90508215611d1c57611d1c8861016654612cf6565b600161012d55979650505050505050565b60008381526101686020908152604091829020600401548251808401909352600683526530303230303360d01b918301919091528491906001600160a01b0316611d8a5760405162461bcd60e51b8152600401610bad91906140d6565b50611d93610b22565b60008581526101686020908152604091829020600501548251808401909352600683526518181918181960d11b9183019190915290916001600160a01b03918216911614611df45760405162461bcd60e51b8152600401610bad91906140d6565b50600080611e038686866131ab565b91509150611e0f610b22565b60008781526101686020526040908190206004015490516001600160a01b03928316929091169088907f82a1ce9f78e8fba2349a66e92e4634a9981acdc4ee9d07cbeaf73af38ec190e790611e69908a90889088906141bc565b60405180910390a4505050505050565b6000805160206144cc833981519152611e9481610b6a610b22565b5061016255565b611ea86000610845610b22565b611f075760405162461bcd60e51b815260206004820152602a60248201527f4d75737420686176652044454641554c545f41444d494e5f524f4c4520726f6c6044820152696520746f20706175736560b01b6064820152608401610bad565b61179a6134cd565b6000611f1d81610b6a610b22565b610166548210156040518060400160405280600681526020016530303930303360d01b81525090611f615760405162461bcd60e51b8152600401610bad91906140d6565b50610161829055611f73600483614296565b610166555050565b600083815261016860209081526040808320600401548151808301909252600682526530303230303360d01b92820192909252606092918691906001600160a01b0316611fdb5760405162461bcd60e51b8152600401610bad91906140d6565b5060008681526101686020526040902060060154611ffa9086906142d7565b841115612022576000868152610168602052604090206006015461201f9086906142d7565b93505b8367ffffffffffffffff81111561203b5761203b614410565b604051908082528060200260200182016040528015612064578160200160208202803683370190505b50925060005b848110156120d85760008781526101686020526040902060060161208e828861427e565b8154811061209e5761209e6143fa565b90600052602060002001548482815181106120bb576120bb6143fa565b6020908102919091010152806120d08161439d565b91505061206a565b50826120e4858761427e565b9250925050935093915050565b600082815260fb602052604081206121099083613526565b9392505050565b600091825260c9602090815260408084206001600160a01b0393909316845291905290205460ff1690565b6101686020526000908152604090208054819061215790614335565b80601f016020809104026020016040519081016040528092919081815260200182805461218390614335565b80156121d05780601f106121a5576101008083540402835291602001916121d0565b820191906000526020600020905b8154815290600101906020018083116121b357829003601f168201915b5050505050908060010180546121e590614335565b80601f016020809104026020016040519081016040528092919081815260200182805461221190614335565b801561225e5780601f106122335761010080835404028352916020019161225e565b820191906000526020600020905b81548152906001019060200180831161224157829003601f168201915b50505060028401546003850154600486015460058701546007880154600889015460098a0154600a8b0154600b909b0154999a96999598506001600160a01b0394851697509290931694909360ff92831692168b565b600161016a60006122c3610b22565b6001600160a01b03908116825260208083019390935260409182016000908120918616815260059091019092529020556122fb610b22565b6001600160a01b0316816001600160a01b03167fbccc71dc7842b86291138666aa18e133ee6d41aa71e6d7c650debad1a057663560405160405180910390a350565b60008181526101686020908152604091829020600401548251808401909352600683526530303230303360d01b918301919091528291906001600160a01b031661239a5760405162461bcd60e51b8152600401610bad91906140d6565b506000828152610168602052604090819020905163d82bb12b60e01b81526004810182905273__$9449e77bcfc6c744eba20e6cac20521bf9$__9063d82bb12b9060240160006040518083038186803b1580156123f657600080fd5b505af415801561240a573d6000803e3d6000fd5b50505050600034116040518060400160405280600681526020016530303330303560d01b8152509061244f5760405162461bcd60e51b8152600401610bad91906140d6565b50600073__$9449e77bcfc6c744eba20e6cac20521bf9$__63feac0f7061016986612478610b22565b6040516001600160e01b031960e086901b168152600481019390935260248301919091526001600160a01b0316604482015234606482015260840160206040518083038186803b1580156124cb57600080fd5b505af41580156124df573d6000803e3d6000fd5b505050506040513d601f19601f820116820180604052508101906125039190613e44565b604051630221998560e21b8152600481018490526024810182905234604482015290915073__$9449e77bcfc6c744eba20e6cac20521bf9$__9063088666149060640160006040518083038186803b15801561255e57600080fd5b505af4158015612572573d6000803e3d6000fd5b50505050600061016a6000612585610b22565b6001600160a01b03168152602081019190915260409081016000209051631bebc41b60e01b8152600481018290526024810184905290915073__$9449e77bcfc6c744eba20e6cac20521bf9$__90631bebc41b9060440160006040518083038186803b1580156125f457600080fd5b505af4158015612608573d6000803e3d6000fd5b50505050612614610b22565b6001600160a01b031682867fb8a61f3258608a2f1af184e4640b08e6cd69126e3c563d30b6348ebfb51558843460405161265091815260200190565b60405180910390a45050505050565b60008061266e81610b6a610b22565b4791505b5090565b6001600160a01b038316600090815261016a6020526040812060020154606091906126a29085906142d7565b8311156126d4576001600160a01b038516600090815261016a60205260409020600201546126d19085906142d7565b92505b8267ffffffffffffffff8111156126ed576126ed614410565b604051908082528060200260200182016040528015612716578160200160208202803683370190505b50915060005b83811015611a57576001600160a01b038616600090815261016a6020526040902060020161274a828761427e565b8154811061275a5761275a6143fa565b9060005260206000200154838281518110612777576127776143fa565b60209081029190910101528061278c8161439d565b91505061271c565b600061016b60006127a3610b22565b6001600160a01b03166001600160a01b0316815260200190815260200160002054905090565b600081815260fb60205260408120610b5690613532565b600082815260c960205260409020600101546127fe81610b6a610b22565b6113658383612e31565b600061281681610b6a610b22565b61158b8261353c565b60006002611163565b600061016a6000612837610b22565b6001600160a01b039081168252602080830193909352604091820160009081209186168152600590910190925290205561286f610b22565b6001600160a01b0316816001600160a01b03167fe5dcccfe8e7890c6d4aa94d44c3b409fb6f023337f29c3308077c0c4068192c460405160405180910390a350565b60335460ff16156128d45760405162461bcd60e51b8152600401610bad906141e1565b60008181526101696020908152604091829020548251808401909352600683526530303330303360d01b918301919091528291906001600160a01b031661292e5760405162461bcd60e51b8152600401610bad91906140d6565b5081612938610b22565b60008281526101696020908152604091829020548251808401909352600683526518181998181960d11b9183019190915290916001600160a01b039182169116146129965760405162461bcd60e51b8152600401610bad91906140d6565b5060008381526101696020908152604080832060038101548452610168909252918290209151632b2e747760e01b8152600481018290526024810183905290919073__$9449e77bcfc6c744eba20e6cac20521bf9$__90632b2e74779060440160006040518083038186803b158015612a0e57600080fd5b505af4158015612a22573d6000803e3d6000fd5b50505050816001015461016b6000612a38610b22565b6001600160a01b03166001600160a01b031681526020019081526020016000206000828254612a67919061427e565b90915550612a759050610b22565b6001600160a01b03166000805160206144ec8339815191528360010154604051612aa191815260200190565b60405180910390a2612ab1610b22565b6001600160a01b03168583600301547f8827140ed7e0aee657f6d8ab3d65b02d30022ed333e284958313db49217e7c3e856001015460405161265091815260200190565b6065546000906001600160a01b0316331415612b18575060131936013560601c90565b503390565b90565b60006001600160e01b03198216637965db0b60e01b1480610b5657506301ffc9a760e01b6001600160e01b0319831614610b56565b612b5f8282612110565b61158b57612b77816001600160a01b03166014613585565b612b82836020613585565b604051602001612b93929190613fed565b60408051601f198184030181529082905262461bcd60e51b8252610bad916004016140d6565b600054610100900460ff16612be05760405162461bcd60e51b8152600401610bad9061420b565b612be8613721565b612bf0613721565b612bf8613721565b61179a613721565b600054610100900460ff16612c275760405162461bcd60e51b8152600401610bad9061420b565b61179a613748565b600054610100900460ff16612c565760405162461bcd60e51b8152600401610bad9061420b565b612c5e613721565b61179a613777565b600054610100900460ff16612c8d5760405162461bcd60e51b8152600401610bad9061420b565b612c95613721565b612c9e8161353c565b50565b61158b8282612e0f565b600082815260c96020526040808220600101805490849055905190918391839186917fbd79b86ffe0ab8e8776151514217cd7cacd52c909f66475c3af44e129f0b00ff9190a4505050565b80471015612d465760405162461bcd60e51b815260206004820152601d60248201527f416464726573733a20696e73756666696369656e742062616c616e63650000006044820152606401610bad565b6000826001600160a01b03168260405160006040518083038185875af1925050503d8060008114612d93576040519150601f19603f3d011682016040523d82523d6000602084013e612d98565b606091505b50509050806113655760405162461bcd60e51b815260206004820152603a60248201527f416464726573733a20756e61626c6520746f2073656e642076616c75652c207260448201527f6563697069656e74206d617920686176652072657665727465640000000000006064820152608401610bad565b612e1982826137aa565b600082815260fb602052604090206113659082613831565b612e3b8282613846565b600082815260fb6020526040902061136590826138cb565b60335460ff16612e9c5760405162461bcd60e51b815260206004820152601460248201527314185d5cd8589b194e881b9bdd081c185d5cd95960621b6044820152606401610bad565b6033805460ff191690557f5db9ee0a495bf2e6ff9c91a7834c1ba4fdd244a5e8aa4e537bd38aeae4b073aa612ecf610b22565b6040516001600160a01b03909116815260200160405180910390a1565b60008073__$9449e77bcfc6c744eba20e6cac20521bf9$__63f19191d984896040518363ffffffff1660e01b8152600401612f289291906140e9565b60206040518083038186803b158015612f4057600080fd5b505af4158015612f54573d6000803e3d6000fd5b505050506040513d601f19601f82011682018060405250810190612f789190613e44565b60408051600080825260208201909252919250612f95864261427e565b90506040518061018001604052808681526020016040518060200160405280600081525081526020018881526020018881526020018a6001600160a01b03168152602001896001600160a01b031681526020018381526020014281526020018281526020016000600381111561300d5761300d6143ce565b8152600060208083018290526040928301829052868252610168815291902082518051919261304192849290910190613bf4565b50602082810151805161305a9260018501920190613bf4565b50604082015160028201556060820151600382015560808201516004820180546001600160a01b039283166001600160a01b03199182161790915560a084015160058401805491909316911617905560c082015180516130c4916006840191602090910190613c74565b5060e08201516007820155610100820151600882015561012082015160098201805460ff191660018360038111156130fe576130fe6143ce565b0217905550610140820151600a82015561016090910151600b909101805460ff19169115159190911790556001600160a01b03898116600081815261016a60209081526040808320600190810180549182018155845291909220018690555190918591908b16907f3b68ba1e6ac39f1579fd32b30daa1b9f575dc2d1105a95f1bb114484003070ff90613196908c9087908c90614256565b60405180910390a45090979650505050505050565b60008381526101686020526040808220905163387f9fc360e01b81526004810182905282919073__$9449e77bcfc6c744eba20e6cac20521bf9$__9063387f9fc39060240160006040518083038186803b15801561320857600080fd5b505af415801561321c573d6000803e3d6000fd5b50506101645460009250600160a01b900460ff1615905061325257600482015461324f906001600160a01b0316866138e0565b90505b60405163ae93940d60e01b815273__$9449e77bcfc6c744eba20e6cac20521bf9$__9063ae93940d9061328d90859085908b90600401614256565b60006040518083038186803b1580156132a557600080fd5b505af41580156132b9573d6000803e3d6000fd5b505050506000806132d2846002015485600301546139b7565b91509150836002015460001415801561332557506004840154613300906001600160a01b031661050f610b22565b6101675461330e91906142b8565b8460020154856003015461332291906142d7565b10155b1561342a576000613337600284614296565b9050613343828261427e565b61016b6000613350610b22565b6001600160a01b03166001600160a01b03168152602001908152602001600020600082825461337f919061427e565b909155505060048501546001600160a01b0316600090815261016b6020526040812080548392906133b190849061427e565b909155506133bf9050610b22565b6001600160a01b03166000805160206144ec8339815191526133e1848461427e565b60405190815260200160405180910390a260048501546040518281526001600160a01b03909116906000805160206144ec8339815191529060200160405180910390a2506134b2565b613434818361427e565b61016b6000613441610b22565b6001600160a01b03166001600160a01b031681526020019081526020016000206000828254613470919061427e565b9091555061347e9050610b22565b6001600160a01b03166000805160206144ec8339815191526134a0838561427e565b60405190815260200160405180910390a25b826134bd828461427e565b9550955050505050935093915050565b60335460ff16156134f05760405162461bcd60e51b8152600401610bad906141e1565b6033805460ff191660011790557f62e78cea01bee320cd4e420270b5ea74000d11b0c9f74754ebdbfc544b05a258612ecf610b22565b60006121098383613a88565b6000610b56825490565b600054610100900460ff166135635760405162461bcd60e51b8152600401610bad9061420b565b606580546001600160a01b0319166001600160a01b0392909216919091179055565b606060006135948360026142b8565b61359f90600261427e565b67ffffffffffffffff8111156135b7576135b7614410565b6040519080825280601f01601f1916602001820160405280156135e1576020820181803683370190505b509050600360fc1b816000815181106135fc576135fc6143fa565b60200101906001600160f81b031916908160001a905350600f60fb1b8160018151811061362b5761362b6143fa565b60200101906001600160f81b031916908160001a905350600061364f8460026142b8565b61365a90600161427e565b90505b60018111156136d2576f181899199a1a9b1b9c1cb0b131b232b360811b85600f166010811061368e5761368e6143fa565b1a60f81b8282815181106136a4576136a46143fa565b60200101906001600160f81b031916908160001a90535060049490941c936136cb8161431e565b905061365d565b5083156121095760405162461bcd60e51b815260206004820181905260248201527f537472696e67733a20686578206c656e67746820696e73756666696369656e746044820152606401610bad565b600054610100900460ff1661179a5760405162461bcd60e51b8152600401610bad9061420b565b600054610100900460ff1661376f5760405162461bcd60e51b8152600401610bad9061420b565b600161012d55565b600054610100900460ff1661379e5760405162461bcd60e51b8152600401610bad9061420b565b6033805460ff19169055565b6137b48282612110565b61158b57600082815260c9602090815260408083206001600160a01b03851684529091529020805460ff191660011790556137ed610b22565b6001600160a01b0316816001600160a01b0316837f2f8788117e7eff1d82e926ec794901d17c78024a50270940304540a733656f0d60405160405180910390a45050565b6000612109836001600160a01b038416613ab2565b6138508282612110565b1561158b57600082815260c9602090815260408083206001600160a01b03851684529091529020805460ff19169055613887610b22565b6001600160a01b0316816001600160a01b0316837ff6391f5c32d9c69d2a47ea670b442974b53935d1edc7fd64eb21e047a839171b60405160405180910390a45050565b6000612109836001600160a01b038416613b01565b6101645460405163d0def52160e01b81526000916001600160a01b03169063d0def521906139149086908690600401614062565b602060405180830381600087803b15801561392e57600080fd5b505af192505050801561395e575060408051601f3d908101601f1916820190925261395b91810190613e44565b60015b6139b05761396a614426565b806308c379a014156139a4575061397f614441565b8061398a57506139a6565b8060405162461bcd60e51b8152600401610bad91906140d6565b505b3d6000803e3d6000fd5b9050610b56565b600080806127106bffffffffffffffffffffffff166101635486866139dc91906142d7565b6139e691906142b8565b6139f09190614296565b905060006127106bffffffffffffffffffffffff166101635487613a1491906142b8565b613a1e9190614296565b9050613a2a818361427e565b61015f546001600160a01b0316600090815261016b602052604081208054909190613a5690849061427e565b90915550829050613a6787876142d7565b613a7191906142d7565b613a7b82886142d7565b9350935050509250929050565b6000826000018281548110613a9f57613a9f6143fa565b9060005260206000200154905092915050565b6000818152600183016020526040812054613af957508154600181810184556000848152602080822090930184905584548482528286019093526040902091909155610b56565b506000610b56565b60008181526001830160205260408120548015613bea576000613b256001836142d7565b8554909150600090613b39906001906142d7565b9050818114613b9e576000866000018281548110613b5957613b596143fa565b9060005260206000200154905080876000018481548110613b7c57613b7c6143fa565b6000918252602080832090910192909255918252600188019052604090208390555b8554869080613baf57613baf6143e4565b600190038181906000526020600020016000905590558560010160008681526020019081526020016000206000905560019350505050610b56565b6000915050610b56565b828054613c0090614335565b90600052602060002090601f016020900481019282613c225760008555613c68565b82601f10613c3b57805160ff1916838001178555613c68565b82800160010185558215613c68579182015b82811115613c68578251825591602001919060010190613c4d565b50612672929150613cae565b828054828255906000526020600020908101928215613c685791602002820182811115613c68578251825591602001919060010190613c4d565b5b808211156126725760008155600101613caf565b80356001600160a01b0381168114613cda57600080fd5b919050565b600082601f830112613cf057600080fd5b813567ffffffffffffffff811115613d0a57613d0a614410565b604051613d21601f8301601f191660200182614370565b818152846020838601011115613d3657600080fd5b816020850160208301376000918101602001919091529392505050565b600060208284031215613d6557600080fd5b61210982613cc3565b60008060408385031215613d8157600080fd5b613d8a83613cc3565b9150613d9860208401613cc3565b90509250929050565b600080600060608486031215613db657600080fd5b613dbf84613cc3565b925060208401359150604084013567ffffffffffffffff811115613de257600080fd5b613dee86828701613cdf565b9150509250925092565b600080600060608486031215613e0d57600080fd5b613e1684613cc3565b95602085013595506040909401359392505050565b600060208284031215613e3d57600080fd5b5035919050565b600060208284031215613e5657600080fd5b5051919050565b60008060408385031215613e7057600080fd5b82359150613d9860208401613cc3565b600080600060608486031215613e9557600080fd5b83359250602084013567ffffffffffffffff80821115613eb457600080fd5b613ec087838801613cdf565b93506040860135915080821115613ed657600080fd5b50613dee86828701613cdf565b60008060408385031215613ef657600080fd5b50508035926020909101359150565b600080600060608486031215613f1a57600080fd5b505081359360208301359350604090920135919050565b600060208284031215613f4357600080fd5b81356001600160e01b03198116811461210957600080fd5b60008060008060008060c08789031215613f7457600080fd5b8635955060208701359450613f8b60408801613cc3565b9350613f9960608801613cc3565b9250613fa760808801613cc3565b9150613fb560a08801613cc3565b90509295509295509295565b60008151808452613fd98160208601602086016142ee565b601f01601f19169290920160200192915050565b7f416363657373436f6e74726f6c3a206163636f756e74200000000000000000008152600083516140258160178501602088016142ee565b7001034b99036b4b9b9b4b733903937b6329607d1b60179184019182015283516140568160288401602088016142ee565b01602801949350505050565b6001600160a01b038316815260406020820181905260009061408690830184613fc1565b949350505050565b604080825283519082018190526000906020906060840190828701845b828110156140c7578151845292840192908401906001016140ab565b50505092019290925292915050565b6020815260006121096020830184613fc1565b6040815260006140fc6040830185613fc1565b905060018060a01b03831660208301529392505050565b60006101608083526141278184018f613fc1565b9050828103602084015261413b818e613fc1565b604084018d9052606084018c90526001600160a01b038b811660808601528a1660a085015260c0840189905260e084018890529150506004851061418f57634e487b7160e01b600052602160045260246000fd5b84610100830152836101208301526141ac61014083018415159052565b9c9b505050505050505050505050565b6060815260006141cf6060830186613fc1565b60208301949094525060400152919050565b60208082526010908201526f14185d5cd8589b194e881c185d5cd95960821b604082015260600190565b6020808252602b908201527f496e697469616c697a61626c653a20636f6e7472616374206973206e6f74206960408201526a6e697469616c697a696e6760a81b606082015260800190565b8381528260208201526060604082015260006142756060830184613fc1565b95945050505050565b60008219821115614291576142916143b8565b500190565b6000826142b357634e487b7160e01b600052601260045260246000fd5b500490565b60008160001904831182151516156142d2576142d26143b8565b500290565b6000828210156142e9576142e96143b8565b500390565b60005b838110156143095781810151838201526020016142f1565b83811115614318576000848401525b50505050565b60008161432d5761432d6143b8565b506000190190565b600181811c9082168061434957607f821691505b6020821081141561436a57634e487b7160e01b600052602260045260246000fd5b50919050565b601f8201601f1916810167ffffffffffffffff8111828210171561439657614396614410565b6040525050565b60006000198214156143b1576143b16143b8565b5060010190565b634e487b7160e01b600052601160045260246000fd5b634e487b7160e01b600052602160045260246000fd5b634e487b7160e01b600052603160045260246000fd5b634e487b7160e01b600052603260045260246000fd5b634e487b7160e01b600052604160045260246000fd5b600060033d1115612b1d5760046000803e5060005160e01c90565b600060443d101561444f5790565b6040516003193d81016004833e81513d67ffffffffffffffff816024840111818411171561447f57505050505090565b82850191508151818111156144975750505050505090565b843d87010160208285010111156144b15750505050505090565b6144c060208286010187614370565b50909594505050505056fe35a7846a2a701fff6f9d61a46ebff5da578c5dcee8bdf361c569f9ea4ee647710036624afd4ac14e2ebe9b68a6ec0c6e4f6bf5bde2999a61e1fec085ca86697da264697066735822122063246a88c54d6f17768648872b4d2ab79722a1d66e688bd47135f52114ef359364736f6c63430008070033",
			"opcodes": "PUSH1 0x80 PUSH1 0x40 MSTORE CALLVALUE DUP1 ISZERO PUSH2 0x10 JUMPI PUSH1 0x0 DUP1 REVERT JUMPDEST POP PUSH2 0x4541 DUP1 PUSH2 0x20 PUSH1 0x0 CODECOPY PUSH1 0x0 RETURN INVALID PUSH1 0x80 PUSH1 0x40 MSTORE PUSH1 0x4 CALLDATASIZE LT PUSH2 0x36F JUMPI PUSH1 0x0 CALLDATALOAD PUSH1 0xE0 SHR DUP1 PUSH4 0x86495B04 GT PUSH2 0x1C6 JUMPI DUP1 PUSH4 0xC415B95C GT PUSH2 0xF7 JUMPI DUP1 PUSH4 0xDC1A0911 GT PUSH2 0x95 JUMPI DUP1 PUSH4 0xE86DEA4A GT PUSH2 0x6F JUMPI DUP1 PUSH4 0xE86DEA4A EQ PUSH2 0xAA9 JUMPI DUP1 PUSH4 0xF107CFCB EQ PUSH2 0xAC0 JUMPI DUP1 PUSH4 0xF224AA4F EQ PUSH2 0xAE0 JUMPI DUP1 PUSH4 0xF36C8F5C EQ PUSH2 0xB00 JUMPI PUSH1 0x0 DUP1 REVERT JUMPDEST DUP1 PUSH4 0xDC1A0911 EQ PUSH2 0xA13 JUMPI DUP1 PUSH4 0xE5675219 EQ PUSH2 0xA33 JUMPI DUP1 PUSH4 0xE83D6F07 EQ PUSH2 0xA6D JUMPI PUSH1 0x0 DUP1 REVERT JUMPDEST DUP1 PUSH4 0xD3A86386 GT PUSH2 0xD1 JUMPI DUP1 PUSH4 0xD3A86386 EQ PUSH2 0x99B JUMPI DUP1 PUSH4 0xD547741F EQ PUSH2 0x9B2 JUMPI DUP1 PUSH4 0xD56D229D EQ PUSH2 0x9D2 JUMPI DUP1 PUSH4 0xDA742228 EQ PUSH2 0x9F3 JUMPI PUSH1 0x0 DUP1 REVERT JUMPDEST DUP1 PUSH4 0xC415B95C EQ PUSH2 0x943 JUMPI DUP1 PUSH4 0xCA15C873 EQ PUSH2 0x964 JUMPI DUP1 PUSH4 0xD00A818F EQ PUSH2 0x984 JUMPI PUSH1 0x0 DUP1 REVERT JUMPDEST DUP1 PUSH4 0xA70806F7 GT PUSH2 0x164 JUMPI DUP1 PUSH4 0xB69EF8A8 GT PUSH2 0x13E JUMPI DUP1 PUSH4 0xB69EF8A8 EQ PUSH2 0x8E2 JUMPI DUP1 PUSH4 0xBE841E02 EQ PUSH2 0x8F7 JUMPI DUP1 PUSH4 0xBF152765 EQ PUSH2 0x917 JUMPI DUP1 PUSH4 0xC0EF21EE EQ PUSH2 0x92C JUMPI PUSH1 0x0 DUP1 REVERT JUMPDEST DUP1 PUSH4 0xA70806F7 EQ PUSH2 0x898 JUMPI DUP1 PUSH4 0xA740D68E EQ PUSH2 0x8B8 JUMPI DUP1 PUSH4 0xAAFA3061 EQ PUSH2 0x8CB JUMPI PUSH1 0x0 DUP1 REVERT JUMPDEST DUP1 PUSH4 0x91D14854 GT PUSH2 0x1A0 JUMPI DUP1 PUSH4 0x91D14854 EQ PUSH2 0x82A JUMPI DUP1 PUSH4 0x95ADDB90 EQ PUSH2 0x84A JUMPI DUP1 PUSH4 0x99496E2A EQ PUSH2 0x881 JUMPI DUP1 PUSH4 0xA217FDDF EQ PUSH2 0x42A JUMPI PUSH1 0x0 DUP1 REVERT JUMPDEST DUP1 PUSH4 0x86495B04 EQ PUSH2 0x7B2 JUMPI DUP1 PUSH4 0x8CC1AF13 EQ PUSH2 0x7D2 JUMPI DUP1 PUSH4 0x9010D07C EQ PUSH2 0x7F2 JUMPI PUSH1 0x0 DUP1 REVERT JUMPDEST DUP1 PUSH4 0x36568ABE GT PUSH2 0x2A0 JUMPI DUP1 PUSH4 0x5C975ABB GT PUSH2 0x23E JUMPI DUP1 PUSH4 0x662D2A66 GT PUSH2 0x218 JUMPI DUP1 PUSH4 0x662D2A66 EQ PUSH2 0x74A JUMPI DUP1 PUSH4 0x6C3FA899 EQ PUSH2 0x75D JUMPI DUP1 PUSH4 0x7908BBE1 EQ PUSH2 0x77D JUMPI DUP1 PUSH4 0x8456CB59 EQ PUSH2 0x79D JUMPI PUSH1 0x0 DUP1 REVERT JUMPDEST DUP1 PUSH4 0x5C975ABB EQ PUSH2 0x686 JUMPI DUP1 PUSH4 0x602BF227 EQ PUSH2 0x69E JUMPI DUP1 PUSH4 0x65F898E1 EQ PUSH2 0x72A JUMPI PUSH1 0x0 DUP1 REVERT JUMPDEST DUP1 PUSH4 0x4A4C560D GT PUSH2 0x27A JUMPI DUP1 PUSH4 0x4A4C560D EQ PUSH2 0x5E9 JUMPI DUP1 PUSH4 0x4B8E7A34 EQ PUSH2 0x609 JUMPI DUP1 PUSH4 0x50B240BA EQ PUSH2 0x629 JUMPI DUP1 PUSH4 0x572B6C05 EQ PUSH2 0x657 JUMPI PUSH1 0x0 DUP1 REVERT JUMPDEST DUP1 PUSH4 0x36568ABE EQ PUSH2 0x594 JUMPI DUP1 PUSH4 0x3DA01325 EQ PUSH2 0x5B4 JUMPI DUP1 PUSH4 0x3F4BA83A EQ PUSH2 0x5D4 JUMPI PUSH1 0x0 DUP1 REVERT JUMPDEST DUP1 PUSH4 0x21E47049 GT PUSH2 0x30D JUMPI DUP1 PUSH4 0x2C8D6FD6 GT PUSH2 0x2E7 JUMPI DUP1 PUSH4 0x2C8D6FD6 EQ PUSH2 0x514 JUMPI DUP1 PUSH4 0x2E1A7D4D EQ PUSH2 0x534 JUMPI DUP1 PUSH4 0x2F2FF15D EQ PUSH2 0x554 JUMPI DUP1 PUSH4 0x320ED957 EQ PUSH2 0x574 JUMPI PUSH1 0x0 DUP1 REVERT JUMPDEST DUP1 PUSH4 0x21E47049 EQ PUSH2 0x4A4 JUMPI DUP1 PUSH4 0x248A9CA3 EQ PUSH2 0x4C4 JUMPI DUP1 PUSH4 0x27528350 EQ PUSH2 0x4F4 JUMPI PUSH1 0x0 DUP1 REVERT JUMPDEST DUP1 PUSH4 0x69321B0 GT PUSH2 0x349 JUMPI DUP1 PUSH4 0x69321B0 EQ PUSH2 0x42A JUMPI DUP1 PUSH4 0x10E51E14 EQ PUSH2 0x44D JUMPI DUP1 PUSH4 0x190C69A2 EQ PUSH2 0x46D JUMPI DUP1 PUSH4 0x1CF28A36 EQ PUSH2 0x48D JUMPI PUSH1 0x0 DUP1 REVERT JUMPDEST DUP1 PUSH4 0x1FFC9A7 EQ PUSH2 0x3B3 JUMPI DUP1 PUSH4 0x49C067A EQ PUSH2 0x3E8 JUMPI DUP1 PUSH4 0x67F661D EQ PUSH2 0x40A JUMPI PUSH1 0x0 DUP1 REVERT JUMPDEST CALLDATASIZE PUSH2 0x3AE JUMPI PUSH2 0x37C PUSH2 0xB22 JUMP JUMPDEST PUSH1 0x1 PUSH1 0x1 PUSH1 0xA0 SHL SUB AND PUSH1 0x0 DUP1 MLOAD PUSH1 0x20 PUSH2 0x44EC DUP4 CODECOPY DUP2 MLOAD SWAP2 MSTORE CALLVALUE PUSH1 0x40 MLOAD PUSH2 0x3A4 SWAP2 DUP2 MSTORE PUSH1 0x20 ADD SWAP1 JUMP JUMPDEST PUSH1 0x40 MLOAD DUP1 SWAP2 SUB SWAP1 LOG2 STOP JUMPDEST PUSH1 0x0 DUP1 REVERT JUMPDEST CALLVALUE DUP1 ISZERO PUSH2 0x3BF JUMPI PUSH1 0x0 DUP1 REVERT JUMPDEST POP PUSH2 0x3D3 PUSH2 0x3CE CALLDATASIZE PUSH1 0x4 PUSH2 0x3F31 JUMP JUMPDEST PUSH2 0xB31 JUMP JUMPDEST PUSH1 0x40 MLOAD SWAP1 ISZERO ISZERO DUP2 MSTORE PUSH1 0x20 ADD JUMPDEST PUSH1 0x40 MLOAD DUP1 SWAP2 SUB SWAP1 RETURN JUMPDEST CALLVALUE DUP1 ISZERO PUSH2 0x3F4 JUMPI PUSH1 0x0 DUP1 REVERT JUMPDEST POP PUSH2 0x408 PUSH2 0x403 CALLDATASIZE PUSH1 0x4 PUSH2 0x3E2B JUMP JUMPDEST PUSH2 0xB5C JUMP JUMPDEST STOP JUMPDEST CALLVALUE DUP1 ISZERO PUSH2 0x416 JUMPI PUSH1 0x0 DUP1 REVERT JUMPDEST POP PUSH2 0x408 PUSH2 0x425 CALLDATASIZE PUSH1 0x4 PUSH2 0x3E2B JUMP JUMPDEST PUSH2 0xBBE JUMP JUMPDEST CALLVALUE DUP1 ISZERO PUSH2 0x436 JUMPI PUSH1 0x0 DUP1 REVERT JUMPDEST POP PUSH2 0x43F PUSH1 0x0 DUP2 JUMP JUMPDEST PUSH1 0x40 MLOAD SWAP1 DUP2 MSTORE PUSH1 0x20 ADD PUSH2 0x3DF JUMP JUMPDEST CALLVALUE DUP1 ISZERO PUSH2 0x459 JUMPI PUSH1 0x0 DUP1 REVERT JUMPDEST POP PUSH2 0x408 PUSH2 0x468 CALLDATASIZE PUSH1 0x4 PUSH2 0x3F5B JUMP JUMPDEST PUSH2 0xDF5 JUMP JUMPDEST CALLVALUE DUP1 ISZERO PUSH2 0x479 JUMPI PUSH1 0x0 DUP1 REVERT JUMPDEST POP PUSH2 0x408 PUSH2 0x488 CALLDATASIZE PUSH1 0x4 PUSH2 0x3D53 JUMP JUMPDEST PUSH2 0xFE7 JUMP JUMPDEST CALLVALUE DUP1 ISZERO PUSH2 0x499 JUMPI PUSH1 0x0 DUP1 REVERT JUMPDEST POP PUSH2 0x43F PUSH2 0x160 SLOAD DUP2 JUMP JUMPDEST CALLVALUE DUP1 ISZERO PUSH2 0x4B0 JUMPI PUSH1 0x0 DUP1 REVERT JUMPDEST POP PUSH2 0x408 PUSH2 0x4BF CALLDATASIZE PUSH1 0x4 PUSH2 0x3E2B JUMP JUMPDEST PUSH2 0x108E JUMP JUMPDEST CALLVALUE DUP1 ISZERO PUSH2 0x4D0 JUMPI PUSH1 0x0 DUP1 REVERT JUMPDEST POP PUSH2 0x43F PUSH2 0x4DF CALLDATASIZE PUSH1 0x4 PUSH2 0x3E2B JUMP JUMPDEST PUSH1 0x0 SWAP1 DUP2 MSTORE PUSH1 0xC9 PUSH1 0x20 MSTORE PUSH1 0x40 SWAP1 KECCAK256 PUSH1 0x1 ADD SLOAD SWAP1 JUMP JUMPDEST CALLVALUE DUP1 ISZERO PUSH2 0x500 JUMPI PUSH1 0x0 DUP1 REVERT JUMPDEST POP PUSH2 0x43F PUSH2 0x50F CALLDATASIZE PUSH1 0x4 PUSH2 0x3D6E JUMP JUMPDEST PUSH2 0x10FE JUMP JUMPDEST CALLVALUE DUP1 ISZERO PUSH2 0x520 JUMPI PUSH1 0x0 DUP1 REVERT JUMPDEST POP PUSH2 0x3D3 PUSH2 0x52F CALLDATASIZE PUSH1 0x4 PUSH2 0x3D6E JUMP JUMPDEST PUSH2 0x115E JUMP JUMPDEST CALLVALUE DUP1 ISZERO PUSH2 0x540 JUMPI PUSH1 0x0 DUP1 REVERT JUMPDEST POP PUSH2 0x408 PUSH2 0x54F CALLDATASIZE PUSH1 0x4 PUSH2 0x3E2B JUMP JUMPDEST PUSH2 0x11AA JUMP JUMPDEST CALLVALUE DUP1 ISZERO PUSH2 0x560 JUMPI PUSH1 0x0 DUP1 REVERT JUMPDEST POP PUSH2 0x408 PUSH2 0x56F CALLDATASIZE PUSH1 0x4 PUSH2 0x3E5D JUMP JUMPDEST PUSH2 0x133D JUMP JUMPDEST CALLVALUE DUP1 ISZERO PUSH2 0x580 JUMPI PUSH1 0x0 DUP1 REVERT JUMPDEST POP PUSH2 0x408 PUSH2 0x58F CALLDATASIZE PUSH1 0x4 PUSH2 0x3E2B JUMP JUMPDEST PUSH2 0x136A JUMP JUMPDEST CALLVALUE DUP1 ISZERO PUSH2 0x5A0 JUMPI PUSH1 0x0 DUP1 REVERT JUMPDEST POP PUSH2 0x408 PUSH2 0x5AF CALLDATASIZE PUSH1 0x4 PUSH2 0x3E5D JUMP JUMPDEST PUSH2 0x1501 JUMP JUMPDEST CALLVALUE DUP1 ISZERO PUSH2 0x5C0 JUMPI PUSH1 0x0 DUP1 REVERT JUMPDEST POP PUSH2 0x408 PUSH2 0x5CF CALLDATASIZE PUSH1 0x4 PUSH2 0x3D53 JUMP JUMPDEST PUSH2 0x158F JUMP JUMPDEST CALLVALUE DUP1 ISZERO PUSH2 0x5E0 JUMPI PUSH1 0x0 DUP1 REVERT JUMPDEST POP PUSH2 0x408 PUSH2 0x1724 JUMP JUMPDEST CALLVALUE DUP1 ISZERO PUSH2 0x5F5 JUMPI PUSH1 0x0 DUP1 REVERT JUMPDEST POP PUSH2 0x408 PUSH2 0x604 CALLDATASIZE PUSH1 0x4 PUSH2 0x3D53 JUMP JUMPDEST PUSH2 0x179C JUMP JUMPDEST CALLVALUE DUP1 ISZERO PUSH2 0x615 JUMPI PUSH1 0x0 DUP1 REVERT JUMPDEST POP PUSH2 0x408 PUSH2 0x624 CALLDATASIZE PUSH1 0x4 PUSH2 0x3E2B JUMP JUMPDEST PUSH2 0x18D6 JUMP JUMPDEST CALLVALUE DUP1 ISZERO PUSH2 0x635 JUMPI PUSH1 0x0 DUP1 REVERT JUMPDEST POP PUSH2 0x649 PUSH2 0x644 CALLDATASIZE PUSH1 0x4 PUSH2 0x3DF8 JUMP JUMPDEST PUSH2 0x1939 JUMP JUMPDEST PUSH1 0x40 MLOAD PUSH2 0x3DF SWAP3 SWAP2 SWAP1 PUSH2 0x408E JUMP JUMPDEST CALLVALUE DUP1 ISZERO PUSH2 0x663 JUMPI PUSH1 0x0 DUP1 REVERT JUMPDEST POP PUSH2 0x3D3 PUSH2 0x672 CALLDATASIZE PUSH1 0x4 PUSH2 0x3D53 JUMP JUMPDEST PUSH1 0x65 SLOAD PUSH1 0x1 PUSH1 0x1 PUSH1 0xA0 SHL SUB SWAP2 DUP3 AND SWAP2 AND EQ SWAP1 JUMP JUMPDEST CALLVALUE DUP1 ISZERO PUSH2 0x692 JUMPI PUSH1 0x0 DUP1 REVERT JUMPDEST POP PUSH1 0x33 SLOAD PUSH1 0xFF AND PUSH2 0x3D3 JUMP JUMPDEST CALLVALUE DUP1 ISZERO PUSH2 0x6AA JUMPI PUSH1 0x0 DUP1 REVERT JUMPDEST POP PUSH2 0x6F6 PUSH2 0x6B9 CALLDATASIZE PUSH1 0x4 PUSH2 0x3E2B JUMP JUMPDEST PUSH2 0x169 PUSH1 0x20 MSTORE PUSH1 0x0 SWAP1 DUP2 MSTORE PUSH1 0x40 SWAP1 KECCAK256 DUP1 SLOAD PUSH1 0x1 DUP3 ADD SLOAD PUSH1 0x2 DUP4 ADD SLOAD PUSH1 0x3 DUP5 ADD SLOAD PUSH1 0x4 SWAP1 SWAP5 ADD SLOAD PUSH1 0x1 PUSH1 0x1 PUSH1 0xA0 SHL SUB SWAP1 SWAP4 AND SWAP4 SWAP2 SWAP3 SWAP1 SWAP2 SWAP1 PUSH1 0xFF AND DUP6 JUMP JUMPDEST PUSH1 0x40 DUP1 MLOAD PUSH1 0x1 PUSH1 0x1 PUSH1 0xA0 SHL SUB SWAP1 SWAP7 AND DUP7 MSTORE PUSH1 0x20 DUP7 ADD SWAP5 SWAP1 SWAP5 MSTORE SWAP3 DUP5 ADD SWAP2 SWAP1 SWAP2 MSTORE PUSH1 0x60 DUP4 ADD MSTORE ISZERO ISZERO PUSH1 0x80 DUP3 ADD MSTORE PUSH1 0xA0 ADD PUSH2 0x3DF JUMP JUMPDEST CALLVALUE DUP1 ISZERO PUSH2 0x736 JUMPI PUSH1 0x0 DUP1 REVERT JUMPDEST POP PUSH2 0x408 PUSH2 0x745 CALLDATASIZE PUSH1 0x4 PUSH2 0x3D53 JUMP JUMPDEST PUSH2 0x1A6F JUMP JUMPDEST PUSH2 0x43F PUSH2 0x758 CALLDATASIZE PUSH1 0x4 PUSH2 0x3DA1 JUMP JUMPDEST PUSH2 0x1B16 JUMP JUMPDEST CALLVALUE DUP1 ISZERO PUSH2 0x769 JUMPI PUSH1 0x0 DUP1 REVERT JUMPDEST POP PUSH2 0x408 PUSH2 0x778 CALLDATASIZE PUSH1 0x4 PUSH2 0x3E80 JUMP JUMPDEST PUSH2 0x1D2D JUMP JUMPDEST CALLVALUE DUP1 ISZERO PUSH2 0x789 JUMPI PUSH1 0x0 DUP1 REVERT JUMPDEST POP PUSH2 0x408 PUSH2 0x798 CALLDATASIZE PUSH1 0x4 PUSH2 0x3E2B JUMP JUMPDEST PUSH2 0x1E79 JUMP JUMPDEST CALLVALUE DUP1 ISZERO PUSH2 0x7A9 JUMPI PUSH1 0x0 DUP1 REVERT JUMPDEST POP PUSH2 0x408 PUSH2 0x1E9B JUMP JUMPDEST CALLVALUE DUP1 ISZERO PUSH2 0x7BE JUMPI PUSH1 0x0 DUP1 REVERT JUMPDEST POP PUSH2 0x408 PUSH2 0x7CD CALLDATASIZE PUSH1 0x4 PUSH2 0x3E2B JUMP JUMPDEST PUSH2 0x1F0F JUMP JUMPDEST CALLVALUE DUP1 ISZERO PUSH2 0x7DE JUMPI PUSH1 0x0 DUP1 REVERT JUMPDEST POP PUSH2 0x649 PUSH2 0x7ED CALLDATASIZE PUSH1 0x4 PUSH2 0x3F05 JUMP JUMPDEST PUSH2 0x1F7B JUMP JUMPDEST CALLVALUE DUP1 ISZERO PUSH2 0x7FE JUMPI PUSH1 0x0 DUP1 REVERT JUMPDEST POP PUSH2 0x812 PUSH2 0x80D CALLDATASIZE PUSH1 0x4 PUSH2 0x3EE3 JUMP JUMPDEST PUSH2 0x20F1 JUMP JUMPDEST PUSH1 0x40 MLOAD PUSH1 0x1 PUSH1 0x1 PUSH1 0xA0 SHL SUB SWAP1 SWAP2 AND DUP2 MSTORE PUSH1 0x20 ADD PUSH2 0x3DF JUMP JUMPDEST CALLVALUE DUP1 ISZERO PUSH2 0x836 JUMPI PUSH1 0x0 DUP1 REVERT JUMPDEST POP PUSH2 0x3D3 PUSH2 0x845 CALLDATASIZE PUSH1 0x4 PUSH2 0x3E5D JUMP JUMPDEST PUSH2 0x2110 JUMP JUMPDEST CALLVALUE DUP1 ISZERO PUSH2 0x856 JUMPI PUSH1 0x0 DUP1 REVERT JUMPDEST POP PUSH2 0x86A PUSH2 0x865 CALLDATASIZE PUSH1 0x4 PUSH2 0x3E2B JUMP JUMPDEST PUSH2 0x213B JUMP JUMPDEST PUSH1 0x40 MLOAD PUSH2 0x3DF SWAP12 SWAP11 SWAP10 SWAP9 SWAP8 SWAP7 SWAP6 SWAP5 SWAP4 SWAP3 SWAP2 SWAP1 PUSH2 0x4113 JUMP JUMPDEST CALLVALUE DUP1 ISZERO PUSH2 0x88D JUMPI PUSH1 0x0 DUP1 REVERT JUMPDEST POP PUSH2 0x43F PUSH2 0x162 SLOAD DUP2 JUMP JUMPDEST CALLVALUE DUP1 ISZERO PUSH2 0x8A4 JUMPI PUSH1 0x0 DUP1 REVERT JUMPDEST POP PUSH2 0x408 PUSH2 0x8B3 CALLDATASIZE PUSH1 0x4 PUSH2 0x3D53 JUMP JUMPDEST PUSH2 0x22B4 JUMP JUMPDEST PUSH2 0x408 PUSH2 0x8C6 CALLDATASIZE PUSH1 0x4 PUSH2 0x3E2B JUMP JUMPDEST PUSH2 0x233D JUMP JUMPDEST CALLVALUE DUP1 ISZERO PUSH2 0x8D7 JUMPI PUSH1 0x0 DUP1 REVERT JUMPDEST POP PUSH2 0x43F PUSH2 0x167 SLOAD DUP2 JUMP JUMPDEST CALLVALUE DUP1 ISZERO PUSH2 0x8EE JUMPI PUSH1 0x0 DUP1 REVERT JUMPDEST POP PUSH2 0x43F PUSH2 0x265F JUMP JUMPDEST CALLVALUE DUP1 ISZERO PUSH2 0x903 JUMPI PUSH1 0x0 DUP1 REVERT JUMPDEST POP PUSH2 0x649 PUSH2 0x912 CALLDATASIZE PUSH1 0x4 PUSH2 0x3DF8 JUMP JUMPDEST PUSH2 0x2676 JUMP JUMPDEST CALLVALUE DUP1 ISZERO PUSH2 0x923 JUMPI PUSH1 0x0 DUP1 REVERT JUMPDEST POP PUSH2 0x43F PUSH2 0x2794 JUMP JUMPDEST CALLVALUE DUP1 ISZERO PUSH2 0x938 JUMPI PUSH1 0x0 DUP1 REVERT JUMPDEST POP PUSH2 0x43F PUSH2 0x166 SLOAD DUP2 JUMP JUMPDEST CALLVALUE DUP1 ISZERO PUSH2 0x94F JUMPI PUSH1 0x0 DUP1 REVERT JUMPDEST POP PUSH2 0x15F SLOAD PUSH2 0x812 SWAP1 PUSH1 0x1 PUSH1 0x1 PUSH1 0xA0 SHL SUB AND DUP2 JUMP JUMPDEST CALLVALUE DUP1 ISZERO PUSH2 0x970 JUMPI PUSH1 0x0 DUP1 REVERT JUMPDEST POP PUSH2 0x43F PUSH2 0x97F CALLDATASIZE PUSH1 0x4 PUSH2 0x3E2B JUMP JUMPDEST PUSH2 0x27C9 JUMP JUMPDEST CALLVALUE DUP1 ISZERO PUSH2 0x990 JUMPI PUSH1 0x0 DUP1 REVERT JUMPDEST POP PUSH2 0x43F PUSH2 0x165 SLOAD DUP2 JUMP JUMPDEST CALLVALUE DUP1 ISZERO PUSH2 0x9A7 JUMPI PUSH1 0x0 DUP1 REVERT JUMPDEST POP PUSH2 0x43F PUSH2 0x161 SLOAD DUP2 JUMP JUMPDEST CALLVALUE DUP1 ISZERO PUSH2 0x9BE JUMPI PUSH1 0x0 DUP1 REVERT JUMPDEST POP PUSH2 0x408 PUSH2 0x9CD CALLDATASIZE PUSH1 0x4 PUSH2 0x3E5D JUMP JUMPDEST PUSH2 0x27E0 JUMP JUMPDEST CALLVALUE DUP1 ISZERO PUSH2 0x9DE JUMPI PUSH1 0x0 DUP1 REVERT JUMPDEST POP PUSH2 0x164 SLOAD PUSH2 0x812 SWAP1 PUSH1 0x1 PUSH1 0x1 PUSH1 0xA0 SHL SUB AND DUP2 JUMP JUMPDEST CALLVALUE DUP1 ISZERO PUSH2 0x9FF JUMPI PUSH1 0x0 DUP1 REVERT JUMPDEST POP PUSH2 0x408 PUSH2 0xA0E CALLDATASIZE PUSH1 0x4 PUSH2 0x3D53 JUMP JUMPDEST PUSH2 0x2808 JUMP JUMPDEST CALLVALUE DUP1 ISZERO PUSH2 0xA1F JUMPI PUSH1 0x0 DUP1 REVERT JUMPDEST POP PUSH2 0x3D3 PUSH2 0xA2E CALLDATASIZE PUSH1 0x4 PUSH2 0x3D6E JUMP JUMPDEST PUSH2 0x281F JUMP JUMPDEST CALLVALUE DUP1 ISZERO PUSH2 0xA3F JUMPI PUSH1 0x0 DUP1 REVERT JUMPDEST POP PUSH2 0x43F PUSH2 0xA4E CALLDATASIZE PUSH1 0x4 PUSH2 0x3D53 JUMP JUMPDEST PUSH1 0x1 PUSH1 0x1 PUSH1 0xA0 SHL SUB AND PUSH1 0x0 SWAP1 DUP2 MSTORE PUSH2 0x16A PUSH1 0x20 MSTORE PUSH1 0x40 SWAP1 KECCAK256 PUSH1 0x1 ADD SLOAD SWAP1 JUMP JUMPDEST CALLVALUE DUP1 ISZERO PUSH2 0xA79 JUMPI PUSH1 0x0 DUP1 REVERT JUMPDEST POP PUSH2 0x3D3 PUSH2 0xA88 CALLDATASIZE PUSH1 0x4 PUSH2 0x3D6E JUMP JUMPDEST PUSH2 0x16C PUSH1 0x20 SWAP1 DUP2 MSTORE PUSH1 0x0 SWAP3 DUP4 MSTORE PUSH1 0x40 DUP1 DUP5 KECCAK256 SWAP1 SWAP2 MSTORE SWAP1 DUP3 MSTORE SWAP1 KECCAK256 SLOAD PUSH1 0xFF AND DUP2 JUMP JUMPDEST CALLVALUE DUP1 ISZERO PUSH2 0xAB5 JUMPI PUSH1 0x0 DUP1 REVERT JUMPDEST POP PUSH2 0x43F PUSH2 0x163 SLOAD DUP2 JUMP JUMPDEST CALLVALUE DUP1 ISZERO PUSH2 0xACC JUMPI PUSH1 0x0 DUP1 REVERT JUMPDEST POP PUSH2 0x408 PUSH2 0xADB CALLDATASIZE PUSH1 0x4 PUSH2 0x3D53 JUMP JUMPDEST PUSH2 0x2828 JUMP JUMPDEST CALLVALUE DUP1 ISZERO PUSH2 0xAEC JUMPI PUSH1 0x0 DUP1 REVERT JUMPDEST POP PUSH2 0x408 PUSH2 0xAFB CALLDATASIZE PUSH1 0x4 PUSH2 0x3E2B JUMP JUMPDEST PUSH2 0x28B1 JUMP JUMPDEST CALLVALUE DUP1 ISZERO PUSH2 0xB0C JUMPI PUSH1 0x0 DUP1 REVERT JUMPDEST POP PUSH2 0x43F PUSH1 0x0 DUP1 MLOAD PUSH1 0x20 PUSH2 0x44CC DUP4 CODECOPY DUP2 MLOAD SWAP2 MSTORE DUP2 JUMP JUMPDEST PUSH1 0x0 PUSH2 0xB2C PUSH2 0x2AF5 JUMP JUMPDEST SWAP1 POP SWAP1 JUMP JUMPDEST PUSH1 0x0 PUSH1 0x1 PUSH1 0x1 PUSH1 0xE0 SHL SUB NOT DUP3 AND PUSH4 0x5A05180F PUSH1 0xE0 SHL EQ DUP1 PUSH2 0xB56 JUMPI POP PUSH2 0xB56 DUP3 PUSH2 0x2B20 JUMP JUMPDEST SWAP3 SWAP2 POP POP JUMP JUMPDEST PUSH1 0x0 PUSH2 0xB6F DUP2 PUSH2 0xB6A PUSH2 0xB22 JUMP JUMPDEST PUSH2 0x2B55 JUMP JUMPDEST PUSH1 0x40 DUP1 MLOAD DUP1 DUP3 ADD SWAP1 SWAP2 MSTORE PUSH1 0x6 DUP2 MSTORE PUSH6 0x60607260607 PUSH1 0xD3 SHL PUSH1 0x20 DUP3 ADD MSTORE PUSH1 0x1 DUP4 GT PUSH2 0xBB6 JUMPI PUSH1 0x40 MLOAD PUSH3 0x461BCD PUSH1 0xE5 SHL DUP2 MSTORE PUSH1 0x4 ADD PUSH2 0xBAD SWAP2 SWAP1 PUSH2 0x40D6 JUMP JUMPDEST PUSH1 0x40 MLOAD DUP1 SWAP2 SUB SWAP1 REVERT JUMPDEST POP POP PUSH2 0x167 SSTORE JUMP JUMPDEST PUSH1 0x33 SLOAD PUSH1 0xFF AND ISZERO PUSH2 0xBE1 JUMPI PUSH1 0x40 MLOAD PUSH3 0x461BCD PUSH1 0xE5 SHL DUP2 MSTORE PUSH1 0x4 ADD PUSH2 0xBAD SWAP1 PUSH2 0x41E1 JUMP JUMPDEST PUSH1 0x0 DUP2 DUP2 MSTORE PUSH2 0x168 PUSH1 0x20 SWAP1 DUP2 MSTORE PUSH1 0x40 SWAP2 DUP3 SWAP1 KECCAK256 PUSH1 0x4 ADD SLOAD DUP3 MLOAD DUP1 DUP5 ADD SWAP1 SWAP4 MSTORE PUSH1 0x6 DUP4 MSTORE PUSH6 0x303032303033 PUSH1 0xD0 SHL SWAP2 DUP4 ADD SWAP2 SWAP1 SWAP2 MSTORE DUP3 SWAP2 SWAP1 PUSH1 0x1 PUSH1 0x1 PUSH1 0xA0 SHL SUB AND PUSH2 0xC3E JUMPI PUSH1 0x40 MLOAD PUSH3 0x461BCD PUSH1 0xE5 SHL DUP2 MSTORE PUSH1 0x4 ADD PUSH2 0xBAD SWAP2 SWAP1 PUSH2 0x40D6 JUMP JUMPDEST POP DUP2 PUSH2 0xC48 PUSH2 0xB22 JUMP JUMPDEST PUSH1 0x0 DUP3 DUP2 MSTORE PUSH2 0x168 PUSH1 0x20 SWAP1 DUP2 MSTORE PUSH1 0x40 SWAP2 DUP3 SWAP1 KECCAK256 PUSH1 0x4 ADD SLOAD DUP3 MLOAD DUP1 DUP5 ADD SWAP1 SWAP4 MSTORE PUSH1 0x6 DUP4 MSTORE PUSH6 0x181819181819 PUSH1 0xD1 SHL SWAP2 DUP4 ADD SWAP2 SWAP1 SWAP2 MSTORE SWAP1 SWAP2 PUSH1 0x1 PUSH1 0x1 PUSH1 0xA0 SHL SUB SWAP2 DUP3 AND SWAP2 AND EQ PUSH2 0xCA9 JUMPI PUSH1 0x40 MLOAD PUSH3 0x461BCD PUSH1 0xE5 SHL DUP2 MSTORE PUSH1 0x4 ADD PUSH2 0xBAD SWAP2 SWAP1 PUSH2 0x40D6 JUMP JUMPDEST POP PUSH1 0x0 DUP4 DUP2 MSTORE PUSH2 0x168 PUSH1 0x20 MSTORE PUSH1 0x40 SWAP1 DUP2 SWAP1 KECCAK256 SWAP1 MLOAD PUSH4 0x12C07281 PUSH1 0xE3 SHL DUP2 MSTORE PUSH1 0x4 DUP2 ADD DUP3 SWAP1 MSTORE PUSH20 0x0 SWAP1 PUSH4 0x96039408 SWAP1 PUSH1 0x24 ADD PUSH1 0x0 PUSH1 0x40 MLOAD DUP1 DUP4 SUB DUP2 DUP7 DUP1 EXTCODESIZE ISZERO DUP1 ISZERO PUSH2 0xD05 JUMPI PUSH1 0x0 DUP1 REVERT JUMPDEST POP GAS DELEGATECALL ISZERO DUP1 ISZERO PUSH2 0xD19 JUMPI RETURNDATASIZE PUSH1 0x0 DUP1 RETURNDATACOPY RETURNDATASIZE PUSH1 0x0 REVERT JUMPDEST POP POP POP POP DUP1 PUSH1 0x2 ADD SLOAD PUSH2 0x16B PUSH1 0x0 PUSH2 0xD2F PUSH2 0xB22 JUMP JUMPDEST PUSH1 0x1 PUSH1 0x1 PUSH1 0xA0 SHL SUB AND PUSH1 0x1 PUSH1 0x1 PUSH1 0xA0 SHL SUB AND DUP2 MSTORE PUSH1 0x20 ADD SWAP1 DUP2 MSTORE PUSH1 0x20 ADD PUSH1 0x0 KECCAK256 PUSH1 0x0 DUP3 DUP3 SLOAD PUSH2 0xD5E SWAP2 SWAP1 PUSH2 0x427E JUMP JUMPDEST SWAP1 SWAP2 SSTORE POP PUSH2 0xD6C SWAP1 POP PUSH2 0xB22 JUMP JUMPDEST PUSH1 0x1 PUSH1 0x1 PUSH1 0xA0 SHL SUB AND PUSH1 0x0 DUP1 MLOAD PUSH1 0x20 PUSH2 0x44EC DUP4 CODECOPY DUP2 MLOAD SWAP2 MSTORE DUP3 PUSH1 0x2 ADD SLOAD PUSH1 0x40 MLOAD PUSH2 0xD98 SWAP2 DUP2 MSTORE PUSH1 0x20 ADD SWAP1 JUMP JUMPDEST PUSH1 0x40 MLOAD DUP1 SWAP2 SUB SWAP1 LOG2 PUSH2 0xDA8 PUSH2 0xB22 JUMP JUMPDEST PUSH1 0x1 PUSH1 0x1 PUSH1 0xA0 SHL SUB AND DUP5 PUSH32 0xB663B69FB317FE5EC731CE5C4E0CC9531C066C8ABB2F241F3928087F4CD2153C DUP4 PUSH1 0x2 ADD SLOAD PUSH1 0x40 MLOAD PUSH2 0xDE7 SWAP2 DUP2 MSTORE PUSH1 0x20 ADD SWAP1 JUMP JUMPDEST PUSH1 0x40 MLOAD DUP1 SWAP2 SUB SWAP1 LOG3 POP POP POP POP JUMP JUMPDEST PUSH1 0x0 SLOAD PUSH2 0x100 SWAP1 DIV PUSH1 0xFF AND PUSH2 0xE10 JUMPI PUSH1 0x0 SLOAD PUSH1 0xFF AND ISZERO PUSH2 0xE14 JUMP JUMPDEST ADDRESS EXTCODESIZE ISZERO JUMPDEST PUSH2 0xE77 JUMPI PUSH1 0x40 MLOAD PUSH3 0x461BCD PUSH1 0xE5 SHL DUP2 MSTORE PUSH1 0x20 PUSH1 0x4 DUP3 ADD MSTORE PUSH1 0x2E PUSH1 0x24 DUP3 ADD MSTORE PUSH32 0x496E697469616C697A61626C653A20636F6E747261637420697320616C726561 PUSH1 0x44 DUP3 ADD MSTORE PUSH14 0x191E481A5B9A5D1A585B1A5E9959 PUSH1 0x92 SHL PUSH1 0x64 DUP3 ADD MSTORE PUSH1 0x84 ADD PUSH2 0xBAD JUMP JUMPDEST PUSH1 0x0 SLOAD PUSH2 0x100 SWAP1 DIV PUSH1 0xFF AND ISZERO DUP1 ISZERO PUSH2 0xE99 JUMPI PUSH1 0x0 DUP1 SLOAD PUSH2 0xFFFF NOT AND PUSH2 0x101 OR SWAP1 SSTORE JUMPDEST PUSH2 0x2710 DUP7 GT ISZERO PUSH2 0xEFE JUMPI PUSH1 0x40 MLOAD PUSH3 0x461BCD PUSH1 0xE5 SHL DUP2 MSTORE PUSH1 0x20 PUSH1 0x4 DUP3 ADD MSTORE PUSH1 0x2A PUSH1 0x24 DUP3 ADD MSTORE PUSH32 0x455243323938313A20726F79616C7479206665652077696C6C20657863656564 PUSH1 0x44 DUP3 ADD MSTORE PUSH10 0x2073616C655072696365 PUSH1 0xB0 SHL PUSH1 0x64 DUP3 ADD MSTORE PUSH1 0x84 ADD PUSH2 0xBAD JUMP JUMPDEST PUSH2 0xF09 PUSH1 0x4 DUP9 PUSH2 0x4296 JUMP JUMPDEST PUSH2 0x166 SSTORE PUSH2 0xF15 PUSH2 0x2BB9 JUMP JUMPDEST PUSH2 0xF1D PUSH2 0x2C00 JUMP JUMPDEST PUSH2 0xF25 PUSH2 0x2C2F JUMP JUMPDEST PUSH2 0xF2E DUP3 PUSH2 0x2C66 JUMP JUMPDEST PUSH2 0x161 DUP8 SWAP1 SSTORE PUSH2 0x163 DUP7 SWAP1 SSTORE PUSH2 0x164 DUP1 SLOAD PUSH2 0x15F DUP1 SLOAD PUSH1 0x1 PUSH1 0x1 PUSH1 0xA0 SHL SUB NOT AND PUSH1 0x1 PUSH1 0x1 PUSH1 0xA0 SHL SUB DUP9 DUP2 AND SWAP2 SWAP1 SWAP2 OR SWAP1 SWAP2 SSTORE PUSH3 0x15180 PUSH2 0x162 SSTORE PUSH2 0x384 PUSH2 0x165 SSTORE DUP8 AND PUSH1 0x1 PUSH1 0x1 PUSH1 0xA8 SHL SUB NOT SWAP1 SWAP2 AND OR SWAP1 SSTORE PUSH1 0x3 PUSH2 0x167 SSTORE PUSH2 0x16D DUP1 SLOAD PUSH1 0x1 ADD SWAP1 SSTORE PUSH2 0xF9B PUSH1 0x0 DUP5 PUSH2 0x2CA1 JUMP JUMPDEST PUSH2 0xFB3 PUSH1 0x0 DUP1 MLOAD PUSH1 0x20 PUSH2 0x44CC DUP4 CODECOPY DUP2 MLOAD SWAP2 MSTORE DUP5 PUSH2 0x2CA1 JUMP JUMPDEST PUSH2 0xFCC PUSH1 0x0 DUP1 MLOAD PUSH1 0x20 PUSH2 0x44CC DUP4 CODECOPY DUP2 MLOAD SWAP2 MSTORE PUSH1 0x0 PUSH2 0x2CAB JUMP JUMPDEST DUP1 ISZERO PUSH2 0xFDE JUMPI PUSH1 0x0 DUP1 SLOAD PUSH2 0xFF00 NOT AND SWAP1 SSTORE JUMPDEST POP POP POP POP POP POP POP JUMP JUMPDEST PUSH1 0x0 PUSH2 0x16A PUSH1 0x0 PUSH2 0xFF6 PUSH2 0xB22 JUMP JUMPDEST PUSH1 0x1 PUSH1 0x1 PUSH1 0xA0 SHL SUB SWAP1 DUP2 AND DUP3 MSTORE PUSH1 0x20 DUP1 DUP4 ADD SWAP4 SWAP1 SWAP4 MSTORE PUSH1 0x40 SWAP2 DUP3 ADD PUSH1 0x0 SWAP1 DUP2 KECCAK256 SWAP2 DUP7 AND DUP2 MSTORE PUSH1 0x6 SWAP1 SWAP2 ADD SWAP1 SWAP3 MSTORE SWAP1 KECCAK256 DUP1 SLOAD PUSH1 0xFF NOT AND PUSH1 0x1 DUP4 PUSH1 0x2 DUP2 GT ISZERO PUSH2 0x103F JUMPI PUSH2 0x103F PUSH2 0x43CE JUMP JUMPDEST MUL OR SWAP1 SSTORE POP DUP1 PUSH1 0x1 PUSH1 0x1 PUSH1 0xA0 SHL SUB AND PUSH2 0x1056 PUSH2 0xB22 JUMP JUMPDEST PUSH1 0x1 PUSH1 0x1 PUSH1 0xA0 SHL SUB AND PUSH32 0xDC9EC6C8CA20E67E0CBECB5536D5C021046DD6A9A43B1B03D2B10235767D4502 PUSH1 0x40 MLOAD PUSH1 0x40 MLOAD DUP1 SWAP2 SUB SWAP1 LOG3 POP JUMP JUMPDEST PUSH2 0x161 SLOAD DUP2 LT ISZERO PUSH1 0x40 MLOAD DUP1 PUSH1 0x40 ADD PUSH1 0x40 MSTORE DUP1 PUSH1 0x6 DUP2 MSTORE PUSH1 0x20 ADD PUSH6 0x303039303033 PUSH1 0xD0 SHL DUP2 MSTORE POP SWAP1 PUSH2 0x10D2 JUMPI PUSH1 0x40 MLOAD PUSH3 0x461BCD PUSH1 0xE5 SHL DUP2 MSTORE PUSH1 0x4 ADD PUSH2 0xBAD SWAP2 SWAP1 PUSH2 0x40D6 JUMP JUMPDEST POP DUP1 PUSH2 0x16A PUSH1 0x0 PUSH2 0x10E1 PUSH2 0xB22 JUMP JUMPDEST PUSH1 0x1 PUSH1 0x1 PUSH1 0xA0 SHL SUB AND DUP2 MSTORE PUSH1 0x20 DUP2 ADD SWAP2 SWAP1 SWAP2 MSTORE PUSH1 0x40 ADD PUSH1 0x0 KECCAK256 SSTORE POP JUMP JUMPDEST PUSH1 0x0 PUSH2 0x110A DUP4 DUP4 PUSH2 0x281F JUMP JUMPDEST ISZERO PUSH2 0x1117 JUMPI POP PUSH1 0x0 PUSH2 0xB56 JUMP JUMPDEST PUSH1 0x1 PUSH1 0x1 PUSH1 0xA0 SHL SUB DUP3 AND PUSH1 0x0 SWAP1 DUP2 MSTORE PUSH2 0x16A PUSH1 0x20 MSTORE PUSH1 0x40 SWAP1 KECCAK256 SLOAD PUSH2 0x113F JUMPI POP PUSH2 0x161 SLOAD PUSH2 0xB56 JUMP JUMPDEST POP PUSH1 0x1 PUSH1 0x1 PUSH1 0xA0 SHL SUB AND PUSH1 0x0 SWAP1 DUP2 MSTORE PUSH2 0x16A PUSH1 0x20 MSTORE PUSH1 0x40 SWAP1 KECCAK256 SLOAD SWAP2 SWAP1 POP JUMP JUMPDEST PUSH1 0x0 PUSH1 0x1 JUMPDEST PUSH1 0x1 PUSH1 0x1 PUSH1 0xA0 SHL SUB DUP1 DUP5 AND PUSH1 0x0 SWAP1 DUP2 MSTORE PUSH2 0x16A PUSH1 0x20 SWAP1 DUP2 MSTORE PUSH1 0x40 DUP1 DUP4 KECCAK256 SWAP4 DUP9 AND DUP4 MSTORE PUSH1 0x6 SWAP1 SWAP4 ADD SWAP1 MSTORE KECCAK256 SLOAD PUSH1 0xFF AND PUSH1 0x2 DUP2 GT ISZERO PUSH2 0x11A2 JUMPI PUSH2 0x11A2 PUSH2 0x43CE JUMP JUMPDEST EQ SWAP4 SWAP3 POP POP POP JUMP JUMPDEST PUSH1 0x33 SLOAD PUSH1 0xFF AND ISZERO PUSH2 0x11CD JUMPI PUSH1 0x40 MLOAD PUSH3 0x461BCD PUSH1 0xE5 SHL DUP2 MSTORE PUSH1 0x4 ADD PUSH2 0xBAD SWAP1 PUSH2 0x41E1 JUMP JUMPDEST PUSH1 0x2 PUSH2 0x12D SLOAD EQ ISZERO PUSH2 0x1221 JUMPI PUSH1 0x40 MLOAD PUSH3 0x461BCD PUSH1 0xE5 SHL DUP2 MSTORE PUSH1 0x20 PUSH1 0x4 DUP3 ADD MSTORE PUSH1 0x1F PUSH1 0x24 DUP3 ADD MSTORE PUSH32 0x5265656E7472616E637947756172643A207265656E7472616E742063616C6C00 PUSH1 0x44 DUP3 ADD MSTORE PUSH1 0x64 ADD PUSH2 0xBAD JUMP JUMPDEST PUSH1 0x2 PUSH2 0x12D SSTORE PUSH2 0x16B PUSH1 0x0 PUSH2 0x1234 PUSH2 0xB22 JUMP JUMPDEST PUSH1 0x1 PUSH1 0x1 PUSH1 0xA0 SHL SUB AND PUSH1 0x1 PUSH1 0x1 PUSH1 0xA0 SHL SUB AND DUP2 MSTORE PUSH1 0x20 ADD SWAP1 DUP2 MSTORE PUSH1 0x20 ADD PUSH1 0x0 KECCAK256 SLOAD DUP2 GT ISZERO PUSH1 0x40 MLOAD DUP1 PUSH1 0x40 ADD PUSH1 0x40 MSTORE DUP1 PUSH1 0x6 DUP2 MSTORE PUSH1 0x20 ADD PUSH6 0x303039303031 PUSH1 0xD0 SHL DUP2 MSTORE POP SWAP1 PUSH2 0x1295 JUMPI PUSH1 0x40 MLOAD PUSH3 0x461BCD PUSH1 0xE5 SHL DUP2 MSTORE PUSH1 0x4 ADD PUSH2 0xBAD SWAP2 SWAP1 PUSH2 0x40D6 JUMP JUMPDEST POP DUP1 PUSH2 0x16B PUSH1 0x0 PUSH2 0x12A4 PUSH2 0xB22 JUMP JUMPDEST PUSH1 0x1 PUSH1 0x1 PUSH1 0xA0 SHL SUB AND PUSH1 0x1 PUSH1 0x1 PUSH1 0xA0 SHL SUB AND DUP2 MSTORE PUSH1 0x20 ADD SWAP1 DUP2 MSTORE PUSH1 0x20 ADD PUSH1 0x0 KECCAK256 PUSH1 0x0 DUP3 DUP3 SLOAD PUSH2 0x12D3 SWAP2 SWAP1 PUSH2 0x42D7 JUMP JUMPDEST SWAP1 SWAP2 SSTORE POP PUSH2 0x12EA SWAP1 POP PUSH2 0x12E4 PUSH2 0xB22 JUMP JUMPDEST DUP3 PUSH2 0x2CF6 JUMP JUMPDEST PUSH2 0x12F2 PUSH2 0xB22 JUMP JUMPDEST PUSH1 0x1 PUSH1 0x1 PUSH1 0xA0 SHL SUB AND PUSH32 0x884EDAD9CE6FA2440D8A54CC123490EB96D2768479D49FF9C7366125A9424364 DUP3 PUSH1 0x40 MLOAD PUSH2 0x132C SWAP2 DUP2 MSTORE PUSH1 0x20 ADD SWAP1 JUMP JUMPDEST PUSH1 0x40 MLOAD DUP1 SWAP2 SUB SWAP1 LOG2 POP PUSH1 0x1 PUSH2 0x12D SSTORE JUMP JUMPDEST PUSH1 0x0 DUP3 DUP2 MSTORE PUSH1 0xC9 PUSH1 0x20 MSTORE PUSH1 0x40 SWAP1 KECCAK256 PUSH1 0x1 ADD SLOAD PUSH2 0x135B DUP2 PUSH2 0xB6A PUSH2 0xB22 JUMP JUMPDEST PUSH2 0x1365 DUP4 DUP4 PUSH2 0x2E0F JUMP JUMPDEST POP POP POP JUMP JUMPDEST PUSH1 0x0 DUP2 DUP2 MSTORE PUSH2 0x168 PUSH1 0x20 SWAP1 DUP2 MSTORE PUSH1 0x40 SWAP2 DUP3 SWAP1 KECCAK256 PUSH1 0x4 ADD SLOAD DUP3 MLOAD DUP1 DUP5 ADD SWAP1 SWAP4 MSTORE PUSH1 0x6 DUP4 MSTORE PUSH6 0x303032303033 PUSH1 0xD0 SHL SWAP2 DUP4 ADD SWAP2 SWAP1 SWAP2 MSTORE DUP3 SWAP2 SWAP1 PUSH1 0x1 PUSH1 0x1 PUSH1 0xA0 SHL SUB AND PUSH2 0x13C7 JUMPI PUSH1 0x40 MLOAD PUSH3 0x461BCD PUSH1 0xE5 SHL DUP2 MSTORE PUSH1 0x4 ADD PUSH2 0xBAD SWAP2 SWAP1 PUSH2 0x40D6 JUMP JUMPDEST POP PUSH2 0x13D0 PUSH2 0xB22 JUMP JUMPDEST PUSH1 0x0 DUP4 DUP2 MSTORE PUSH2 0x168 PUSH1 0x20 SWAP1 DUP2 MSTORE PUSH1 0x40 SWAP2 DUP3 SWAP1 KECCAK256 PUSH1 0x4 ADD SLOAD DUP3 MLOAD DUP1 DUP5 ADD SWAP1 SWAP4 MSTORE PUSH1 0x6 DUP4 MSTORE PUSH6 0x181819181819 PUSH1 0xD1 SHL SWAP2 DUP4 ADD SWAP2 SWAP1 SWAP2 MSTORE SWAP1 SWAP2 PUSH1 0x1 PUSH1 0x1 PUSH1 0xA0 SHL SUB SWAP2 DUP3 AND SWAP2 AND EQ PUSH2 0x1431 JUMPI PUSH1 0x40 MLOAD PUSH3 0x461BCD PUSH1 0xE5 SHL DUP2 MSTORE PUSH1 0x4 ADD PUSH2 0xBAD SWAP2 SWAP1 PUSH2 0x40D6 JUMP JUMPDEST POP PUSH1 0x3 PUSH1 0x0 DUP4 DUP2 MSTORE PUSH2 0x168 PUSH1 0x20 MSTORE PUSH1 0x40 SWAP1 KECCAK256 PUSH1 0x9 ADD SLOAD PUSH1 0xFF AND PUSH1 0x3 DUP2 GT ISZERO PUSH2 0x145B JUMPI PUSH2 0x145B PUSH2 0x43CE JUMP JUMPDEST EQ PUSH1 0x40 MLOAD DUP1 PUSH1 0x40 ADD PUSH1 0x40 MSTORE DUP1 PUSH1 0x6 DUP2 MSTORE PUSH1 0x20 ADD PUSH6 0x303032303039 PUSH1 0xD0 SHL DUP2 MSTORE POP SWAP1 PUSH2 0x1499 JUMPI PUSH1 0x40 MLOAD PUSH3 0x461BCD PUSH1 0xE5 SHL DUP2 MSTORE PUSH1 0x4 ADD PUSH2 0xBAD SWAP2 SWAP1 PUSH2 0x40D6 JUMP JUMPDEST POP PUSH1 0x0 DUP3 DUP2 MSTORE PUSH2 0x168 PUSH1 0x20 MSTORE PUSH1 0x40 DUP1 DUP3 KECCAK256 PUSH1 0xB DUP2 ADD DUP1 SLOAD PUSH1 0xFF NOT AND PUSH1 0x1 OR SWAP1 SSTORE PUSH1 0x5 DUP2 ADD SLOAD PUSH1 0x4 SWAP1 SWAP2 ADD SLOAD SWAP2 MLOAD PUSH1 0x1 PUSH1 0x1 PUSH1 0xA0 SHL SUB SWAP2 DUP3 AND SWAP4 SWAP3 SWAP1 SWAP2 AND SWAP2 DUP6 SWAP2 PUSH32 0xE7517190A8EAB1D92CBE89214C9CC1E5B0896D93C91BC93BF4C836CB8110B183 SWAP2 SWAP1 LOG4 POP POP JUMP JUMPDEST PUSH2 0x1509 PUSH2 0xB22 JUMP JUMPDEST PUSH1 0x1 PUSH1 0x1 PUSH1 0xA0 SHL SUB AND DUP2 PUSH1 0x1 PUSH1 0x1 PUSH1 0xA0 SHL SUB AND EQ PUSH2 0x1581 JUMPI PUSH1 0x40 MLOAD PUSH3 0x461BCD PUSH1 0xE5 SHL DUP2 MSTORE PUSH1 0x20 PUSH1 0x4 DUP3 ADD MSTORE PUSH1 0x2F PUSH1 0x24 DUP3 ADD MSTORE PUSH32 0x416363657373436F6E74726F6C3A2063616E206F6E6C792072656E6F756E6365 PUSH1 0x44 DUP3 ADD MSTORE PUSH15 0x103937B632B9903337B91039B2B633 PUSH1 0x89 SHL PUSH1 0x64 DUP3 ADD MSTORE PUSH1 0x84 ADD PUSH2 0xBAD JUMP JUMPDEST PUSH2 0x158B DUP3 DUP3 PUSH2 0x2E31 JUMP JUMPDEST POP POP JUMP JUMPDEST PUSH1 0x2 PUSH2 0x16A PUSH1 0x0 PUSH2 0x159E PUSH2 0xB22 JUMP JUMPDEST PUSH1 0x1 PUSH1 0x1 PUSH1 0xA0 SHL SUB SWAP1 DUP2 AND DUP3 MSTORE PUSH1 0x20 DUP1 DUP4 ADD SWAP4 SWAP1 SWAP4 MSTORE PUSH1 0x40 SWAP2 DUP3 ADD PUSH1 0x0 SWAP1 DUP2 KECCAK256 SWAP2 DUP7 AND DUP2 MSTORE PUSH1 0x6 SWAP1 SWAP2 ADD SWAP1 SWAP3 MSTORE SWAP1 KECCAK256 SLOAD PUSH1 0xFF AND PUSH1 0x2 DUP2 GT ISZERO PUSH2 0x15E2 JUMPI PUSH2 0x15E2 PUSH2 0x43CE JUMP JUMPDEST EQ ISZERO PUSH1 0x40 MLOAD DUP1 PUSH1 0x40 ADD PUSH1 0x40 MSTORE DUP1 PUSH1 0x6 DUP2 MSTORE PUSH1 0x20 ADD PUSH6 0x303039303039 PUSH1 0xD0 SHL DUP2 MSTORE POP SWAP1 PUSH2 0x1621 JUMPI PUSH1 0x40 MLOAD PUSH3 0x461BCD PUSH1 0xE5 SHL DUP2 MSTORE PUSH1 0x4 ADD PUSH2 0xBAD SWAP2 SWAP1 PUSH2 0x40D6 JUMP JUMPDEST POP DUP1 PUSH1 0x1 PUSH1 0x1 PUSH1 0xA0 SHL SUB AND PUSH2 0x1634 PUSH2 0xB22 JUMP JUMPDEST PUSH1 0x1 PUSH1 0x1 PUSH1 0xA0 SHL SUB AND EQ ISZERO PUSH1 0x40 MLOAD DUP1 PUSH1 0x40 ADD PUSH1 0x40 MSTORE DUP1 PUSH1 0x6 DUP2 MSTORE PUSH1 0x20 ADD PUSH6 0x30303930313 PUSH1 0xD4 SHL DUP2 MSTORE POP SWAP1 PUSH2 0x167C JUMPI PUSH1 0x40 MLOAD PUSH3 0x461BCD PUSH1 0xE5 SHL DUP2 MSTORE PUSH1 0x4 ADD PUSH2 0xBAD SWAP2 SWAP1 PUSH2 0x40D6 JUMP JUMPDEST POP PUSH1 0x1 PUSH2 0x16A PUSH1 0x0 PUSH2 0x168C PUSH2 0xB22 JUMP JUMPDEST PUSH1 0x1 PUSH1 0x1 PUSH1 0xA0 SHL SUB SWAP1 DUP2 AND DUP3 MSTORE PUSH1 0x20 DUP1 DUP4 ADD SWAP4 SWAP1 SWAP4 MSTORE PUSH1 0x40 SWAP2 DUP3 ADD PUSH1 0x0 SWAP1 DUP2 KECCAK256 SWAP2 DUP7 AND DUP2 MSTORE PUSH1 0x6 SWAP1 SWAP2 ADD SWAP1 SWAP3 MSTORE SWAP1 KECCAK256 DUP1 SLOAD PUSH1 0xFF NOT AND PUSH1 0x1 DUP4 PUSH1 0x2 DUP2 GT ISZERO PUSH2 0x16D5 JUMPI PUSH2 0x16D5 PUSH2 0x43CE JUMP JUMPDEST MUL OR SWAP1 SSTORE POP DUP1 PUSH1 0x1 PUSH1 0x1 PUSH1 0xA0 SHL SUB AND PUSH2 0x16EC PUSH2 0xB22 JUMP JUMPDEST PUSH1 0x1 PUSH1 0x1 PUSH1 0xA0 SHL SUB AND PUSH32 0xC931B7E6F18C2A39BCD066690C46C7BA85186501C524FAA844AC2C7213D17325 PUSH1 0x40 MLOAD PUSH1 0x40 MLOAD DUP1 SWAP2 SUB SWAP1 LOG3 POP JUMP JUMPDEST PUSH2 0x1731 PUSH1 0x0 PUSH2 0x845 PUSH2 0xB22 JUMP JUMPDEST PUSH2 0x1792 JUMPI PUSH1 0x40 MLOAD PUSH3 0x461BCD PUSH1 0xE5 SHL DUP2 MSTORE PUSH1 0x20 PUSH1 0x4 DUP3 ADD MSTORE PUSH1 0x2C PUSH1 0x24 DUP3 ADD MSTORE PUSH32 0x4D75737420686176652044454641554C545F41444D494E5F524F4C4520726F6C PUSH1 0x44 DUP3 ADD MSTORE PUSH12 0x6520746F20756E7061757365 PUSH1 0xA0 SHL PUSH1 0x64 DUP3 ADD MSTORE PUSH1 0x84 ADD PUSH2 0xBAD JUMP JUMPDEST PUSH2 0x179A PUSH2 0x2E53 JUMP JUMPDEST JUMP JUMPDEST PUSH1 0x1 PUSH2 0x16A PUSH1 0x0 PUSH2 0x17AB PUSH2 0xB22 JUMP JUMPDEST PUSH1 0x1 PUSH1 0x1 PUSH1 0xA0 SHL SUB SWAP1 DUP2 AND DUP3 MSTORE PUSH1 0x20 DUP1 DUP4 ADD SWAP4 SWAP1 SWAP4 MSTORE PUSH1 0x40 SWAP2 DUP3 ADD PUSH1 0x0 SWAP1 DUP2 KECCAK256 SWAP2 DUP7 AND DUP2 MSTORE PUSH1 0x6 SWAP1 SWAP2 ADD SWAP1 SWAP3 MSTORE SWAP1 KECCAK256 SLOAD PUSH1 0xFF AND PUSH1 0x2 DUP2 GT ISZERO PUSH2 0x17EF JUMPI PUSH2 0x17EF PUSH2 0x43CE JUMP JUMPDEST EQ ISZERO PUSH1 0x40 MLOAD DUP1 PUSH1 0x40 ADD PUSH1 0x40 MSTORE DUP1 PUSH1 0x6 DUP2 MSTORE PUSH1 0x20 ADD PUSH6 0x18181C98181B PUSH1 0xD1 SHL DUP2 MSTORE POP SWAP1 PUSH2 0x182E JUMPI PUSH1 0x40 MLOAD PUSH3 0x461BCD PUSH1 0xE5 SHL DUP2 MSTORE PUSH1 0x4 ADD PUSH2 0xBAD SWAP2 SWAP1 PUSH2 0x40D6 JUMP JUMPDEST POP PUSH1 0x2 PUSH2 0x16A PUSH1 0x0 PUSH2 0x183E PUSH2 0xB22 JUMP JUMPDEST PUSH1 0x1 PUSH1 0x1 PUSH1 0xA0 SHL SUB SWAP1 DUP2 AND DUP3 MSTORE PUSH1 0x20 DUP1 DUP4 ADD SWAP4 SWAP1 SWAP4 MSTORE PUSH1 0x40 SWAP2 DUP3 ADD PUSH1 0x0 SWAP1 DUP2 KECCAK256 SWAP2 DUP7 AND DUP2 MSTORE PUSH1 0x6 SWAP1 SWAP2 ADD SWAP1 SWAP3 MSTORE SWAP1 KECCAK256 DUP1 SLOAD PUSH1 0xFF NOT AND PUSH1 0x1 DUP4 PUSH1 0x2 DUP2 GT ISZERO PUSH2 0x1887 JUMPI PUSH2 0x1887 PUSH2 0x43CE JUMP JUMPDEST MUL OR SWAP1 SSTORE POP DUP1 PUSH1 0x1 PUSH1 0x1 PUSH1 0xA0 SHL SUB AND PUSH2 0x189E PUSH2 0xB22 JUMP JUMPDEST PUSH1 0x1 PUSH1 0x1 PUSH1 0xA0 SHL SUB AND PUSH32 0x6661A7108AECD07864384529117D96C319C1163E3010C01390F6B704726E07DE PUSH1 0x40 MLOAD PUSH1 0x40 MLOAD DUP1 SWAP2 SUB SWAP1 LOG3 POP JUMP JUMPDEST PUSH1 0x0 PUSH2 0x18E4 DUP2 PUSH2 0xB6A PUSH2 0xB22 JUMP JUMPDEST PUSH2 0x18EF DUP3 PUSH1 0x4 PUSH2 0x42B8 JUMP JUMPDEST PUSH2 0x161 SLOAD GT PUSH1 0x40 MLOAD DUP1 PUSH1 0x40 ADD PUSH1 0x40 MSTORE DUP1 PUSH1 0x6 DUP2 MSTORE PUSH1 0x20 ADD PUSH6 0x303039303037 PUSH1 0xD0 SHL DUP2 MSTORE POP SWAP1 PUSH2 0x1931 JUMPI PUSH1 0x40 MLOAD PUSH3 0x461BCD PUSH1 0xE5 SHL DUP2 MSTORE PUSH1 0x4 ADD PUSH2 0xBAD SWAP2 SWAP1 PUSH2 0x40D6 JUMP JUMPDEST POP POP PUSH2 0x166 SSTORE JUMP JUMPDEST PUSH1 0x1 PUSH1 0x1 PUSH1 0xA0 SHL SUB DUP4 AND PUSH1 0x0 SWAP1 DUP2 MSTORE PUSH2 0x16A PUSH1 0x20 MSTORE PUSH1 0x40 DUP2 KECCAK256 PUSH1 0x1 ADD SLOAD PUSH1 0x60 SWAP2 SWAP1 PUSH2 0x1965 SWAP1 DUP6 SWAP1 PUSH2 0x42D7 JUMP JUMPDEST DUP4 GT ISZERO PUSH2 0x1997 JUMPI PUSH1 0x1 PUSH1 0x1 PUSH1 0xA0 SHL SUB DUP6 AND PUSH1 0x0 SWAP1 DUP2 MSTORE PUSH2 0x16A PUSH1 0x20 MSTORE PUSH1 0x40 SWAP1 KECCAK256 PUSH1 0x1 ADD SLOAD PUSH2 0x1994 SWAP1 DUP6 SWAP1 PUSH2 0x42D7 JUMP JUMPDEST SWAP3 POP JUMPDEST DUP3 PUSH8 0xFFFFFFFFFFFFFFFF DUP2 GT ISZERO PUSH2 0x19B0 JUMPI PUSH2 0x19B0 PUSH2 0x4410 JUMP JUMPDEST PUSH1 0x40 MLOAD SWAP1 DUP1 DUP3 MSTORE DUP1 PUSH1 0x20 MUL PUSH1 0x20 ADD DUP3 ADD PUSH1 0x40 MSTORE DUP1 ISZERO PUSH2 0x19D9 JUMPI DUP2 PUSH1 0x20 ADD PUSH1 0x20 DUP3 MUL DUP1 CALLDATASIZE DUP4 CALLDATACOPY ADD SWAP1 POP JUMPDEST POP SWAP2 POP PUSH1 0x0 JUMPDEST DUP4 DUP2 LT ISZERO PUSH2 0x1A57 JUMPI PUSH1 0x1 PUSH1 0x1 PUSH1 0xA0 SHL SUB DUP7 AND PUSH1 0x0 SWAP1 DUP2 MSTORE PUSH2 0x16A PUSH1 0x20 MSTORE PUSH1 0x40 SWAP1 KECCAK256 PUSH1 0x1 ADD PUSH2 0x1A0D DUP3 DUP8 PUSH2 0x427E JUMP JUMPDEST DUP2 SLOAD DUP2 LT PUSH2 0x1A1D JUMPI PUSH2 0x1A1D PUSH2 0x43FA JUMP JUMPDEST SWAP1 PUSH1 0x0 MSTORE PUSH1 0x20 PUSH1 0x0 KECCAK256 ADD SLOAD DUP4 DUP3 DUP2 MLOAD DUP2 LT PUSH2 0x1A3A JUMPI PUSH2 0x1A3A PUSH2 0x43FA JUMP JUMPDEST PUSH1 0x20 SWAP1 DUP2 MUL SWAP2 SWAP1 SWAP2 ADD ADD MSTORE DUP1 PUSH2 0x1A4F DUP2 PUSH2 0x439D JUMP JUMPDEST SWAP2 POP POP PUSH2 0x19DF JUMP JUMPDEST POP DUP2 PUSH2 0x1A63 DUP5 DUP7 PUSH2 0x427E JUMP JUMPDEST SWAP2 POP SWAP2 POP SWAP4 POP SWAP4 SWAP2 POP POP JUMP JUMPDEST PUSH1 0x0 PUSH2 0x16A PUSH1 0x0 PUSH2 0x1A7E PUSH2 0xB22 JUMP JUMPDEST PUSH1 0x1 PUSH1 0x1 PUSH1 0xA0 SHL SUB SWAP1 DUP2 AND DUP3 MSTORE PUSH1 0x20 DUP1 DUP4 ADD SWAP4 SWAP1 SWAP4 MSTORE PUSH1 0x40 SWAP2 DUP3 ADD PUSH1 0x0 SWAP1 DUP2 KECCAK256 SWAP2 DUP7 AND DUP2 MSTORE PUSH1 0x6 SWAP1 SWAP2 ADD SWAP1 SWAP3 MSTORE SWAP1 KECCAK256 DUP1 SLOAD PUSH1 0xFF NOT AND PUSH1 0x1 DUP4 PUSH1 0x2 DUP2 GT ISZERO PUSH2 0x1AC7 JUMPI PUSH2 0x1AC7 PUSH2 0x43CE JUMP JUMPDEST MUL OR SWAP1 SSTORE POP DUP1 PUSH1 0x1 PUSH1 0x1 PUSH1 0xA0 SHL SUB AND PUSH2 0x1ADE PUSH2 0xB22 JUMP JUMPDEST PUSH1 0x1 PUSH1 0x1 PUSH1 0xA0 SHL SUB AND PUSH32 0x35672C674C91F8B0025681A1C8D11A4CA6583E909553290ECFB3D6578FAA8BCE PUSH1 0x40 MLOAD PUSH1 0x40 MLOAD DUP1 SWAP2 SUB SWAP1 LOG3 POP JUMP JUMPDEST PUSH1 0x0 DUP3 PUSH2 0x165 SLOAD DUP2 LT ISZERO PUSH1 0x40 MLOAD DUP1 PUSH1 0x40 ADD PUSH1 0x40 MSTORE DUP1 PUSH1 0x6 DUP2 MSTORE PUSH1 0x20 ADD PUSH6 0x303032303037 PUSH1 0xD0 SHL DUP2 MSTORE POP SWAP1 PUSH2 0x1B5D JUMPI PUSH1 0x40 MLOAD PUSH3 0x461BCD PUSH1 0xE5 SHL DUP2 MSTORE PUSH1 0x4 ADD PUSH2 0xBAD SWAP2 SWAP1 PUSH2 0x40D6 JUMP JUMPDEST POP PUSH1 0x33 SLOAD PUSH1 0xFF AND ISZERO PUSH2 0x1B81 JUMPI PUSH1 0x40 MLOAD PUSH3 0x461BCD PUSH1 0xE5 SHL DUP2 MSTORE PUSH1 0x4 ADD PUSH2 0xBAD SWAP1 PUSH2 0x41E1 JUMP JUMPDEST PUSH1 0x2 PUSH2 0x12D SLOAD EQ ISZERO PUSH2 0x1BD5 JUMPI PUSH1 0x40 MLOAD PUSH3 0x461BCD PUSH1 0xE5 SHL DUP2 MSTORE PUSH1 0x20 PUSH1 0x4 DUP3 ADD MSTORE PUSH1 0x1F PUSH1 0x24 DUP3 ADD MSTORE PUSH32 0x5265656E7472616E637947756172643A207265656E7472616E742063616C6C00 PUSH1 0x44 DUP3 ADD MSTORE PUSH1 0x64 ADD PUSH2 0xBAD JUMP JUMPDEST PUSH1 0x2 PUSH2 0x12D SSTORE PUSH1 0x1 PUSH1 0x1 PUSH1 0xA0 SHL SUB DUP6 AND PUSH1 0x0 SWAP1 DUP2 MSTORE PUSH2 0x16A PUSH1 0x20 MSTORE PUSH1 0x40 DUP2 KECCAK256 DUP2 SWAP1 PUSH1 0x6 ADD DUP2 PUSH2 0x1C02 PUSH2 0xB22 JUMP JUMPDEST PUSH1 0x1 PUSH1 0x1 PUSH1 0xA0 SHL SUB AND DUP2 MSTORE PUSH1 0x20 DUP2 ADD SWAP2 SWAP1 SWAP2 MSTORE PUSH1 0x40 ADD PUSH1 0x0 KECCAK256 SLOAD PUSH1 0xFF AND SWAP1 POP PUSH1 0x1 DUP2 PUSH1 0x2 DUP2 GT ISZERO PUSH2 0x1C35 JUMPI PUSH2 0x1C35 PUSH2 0x43CE JUMP JUMPDEST EQ ISZERO PUSH1 0x40 MLOAD DUP1 PUSH1 0x40 ADD PUSH1 0x40 MSTORE DUP1 PUSH1 0x6 DUP2 MSTORE PUSH1 0x20 ADD PUSH6 0x18181C98181B PUSH1 0xD1 SHL DUP2 MSTORE POP SWAP1 PUSH2 0x1C74 JUMPI PUSH1 0x40 MLOAD PUSH3 0x461BCD PUSH1 0xE5 SHL DUP2 MSTORE PUSH1 0x4 ADD PUSH2 0xBAD SWAP2 SWAP1 PUSH2 0x40D6 JUMP JUMPDEST POP PUSH1 0x2 DUP2 PUSH1 0x2 DUP2 GT ISZERO PUSH2 0x1C89 JUMPI PUSH2 0x1C89 PUSH2 0x43CE JUMP JUMPDEST EQ PUSH2 0x1CF1 JUMPI CALLVALUE PUSH2 0x1CA0 PUSH2 0x1C9A PUSH2 0xB22 JUMP JUMPDEST DUP10 PUSH2 0x10FE JUMP JUMPDEST GT ISZERO PUSH1 0x40 MLOAD DUP1 PUSH1 0x40 ADD PUSH1 0x40 MSTORE DUP1 PUSH1 0x6 DUP2 MSTORE PUSH1 0x20 ADD PUSH6 0x30303130313 PUSH1 0xD4 SHL DUP2 MSTORE POP SWAP1 PUSH2 0x1CDF JUMPI PUSH1 0x40 MLOAD PUSH3 0x461BCD PUSH1 0xE5 SHL DUP2 MSTORE PUSH1 0x4 ADD PUSH2 0xBAD SWAP2 SWAP1 PUSH2 0x40D6 JUMP JUMPDEST POP PUSH2 0x166 SLOAD PUSH2 0x1CEE SWAP1 CALLVALUE PUSH2 0x42D7 JUMP JUMPDEST SWAP2 POP JUMPDEST PUSH1 0x0 PUSH2 0x1D07 PUSH2 0x1CFE PUSH2 0xB22 JUMP JUMPDEST DUP10 DUP6 DUP11 DUP11 PUSH2 0x2EEC JUMP JUMPDEST SWAP1 POP DUP3 ISZERO PUSH2 0x1D1C JUMPI PUSH2 0x1D1C DUP9 PUSH2 0x166 SLOAD PUSH2 0x2CF6 JUMP JUMPDEST PUSH1 0x1 PUSH2 0x12D SSTORE SWAP8 SWAP7 POP POP POP POP POP POP POP JUMP JUMPDEST PUSH1 0x0 DUP4 DUP2 MSTORE PUSH2 0x168 PUSH1 0x20 SWAP1 DUP2 MSTORE PUSH1 0x40 SWAP2 DUP3 SWAP1 KECCAK256 PUSH1 0x4 ADD SLOAD DUP3 MLOAD DUP1 DUP5 ADD SWAP1 SWAP4 MSTORE PUSH1 0x6 DUP4 MSTORE PUSH6 0x303032303033 PUSH1 0xD0 SHL SWAP2 DUP4 ADD SWAP2 SWAP1 SWAP2 MSTORE DUP5 SWAP2 SWAP1 PUSH1 0x1 PUSH1 0x1 PUSH1 0xA0 SHL SUB AND PUSH2 0x1D8A JUMPI PUSH1 0x40 MLOAD PUSH3 0x461BCD PUSH1 0xE5 SHL DUP2 MSTORE PUSH1 0x4 ADD PUSH2 0xBAD SWAP2 SWAP1 PUSH2 0x40D6 JUMP JUMPDEST POP PUSH2 0x1D93 PUSH2 0xB22 JUMP JUMPDEST PUSH1 0x0 DUP6 DUP2 MSTORE PUSH2 0x168 PUSH1 0x20 SWAP1 DUP2 MSTORE PUSH1 0x40 SWAP2 DUP3 SWAP1 KECCAK256 PUSH1 0x5 ADD SLOAD DUP3 MLOAD DUP1 DUP5 ADD SWAP1 SWAP4 MSTORE PUSH1 0x6 DUP4 MSTORE PUSH6 0x181819181819 PUSH1 0xD1 SHL SWAP2 DUP4 ADD SWAP2 SWAP1 SWAP2 MSTORE SWAP1 SWAP2 PUSH1 0x1 PUSH1 0x1 PUSH1 0xA0 SHL SUB SWAP2 DUP3 AND SWAP2 AND EQ PUSH2 0x1DF4 JUMPI PUSH1 0x40 MLOAD PUSH3 0x461BCD PUSH1 0xE5 SHL DUP2 MSTORE PUSH1 0x4 ADD PUSH2 0xBAD SWAP2 SWAP1 PUSH2 0x40D6 JUMP JUMPDEST POP PUSH1 0x0 DUP1 PUSH2 0x1E03 DUP7 DUP7 DUP7 PUSH2 0x31AB JUMP JUMPDEST SWAP2 POP SWAP2 POP PUSH2 0x1E0F PUSH2 0xB22 JUMP JUMPDEST PUSH1 0x0 DUP8 DUP2 MSTORE PUSH2 0x168 PUSH1 0x20 MSTORE PUSH1 0x40 SWAP1 DUP2 SWAP1 KECCAK256 PUSH1 0x4 ADD SLOAD SWAP1 MLOAD PUSH1 0x1 PUSH1 0x1 PUSH1 0xA0 SHL SUB SWAP3 DUP4 AND SWAP3 SWAP1 SWAP2 AND SWAP1 DUP9 SWAP1 PUSH32 0x82A1CE9F78E8FBA2349A66E92E4634A9981ACDC4EE9D07CBEAF73AF38EC190E7 SWAP1 PUSH2 0x1E69 SWAP1 DUP11 SWAP1 DUP9 SWAP1 DUP9 SWAP1 PUSH2 0x41BC JUMP JUMPDEST PUSH1 0x40 MLOAD DUP1 SWAP2 SUB SWAP1 LOG4 POP POP POP POP POP POP JUMP JUMPDEST PUSH1 0x0 DUP1 MLOAD PUSH1 0x20 PUSH2 0x44CC DUP4 CODECOPY DUP2 MLOAD SWAP2 MSTORE PUSH2 0x1E94 DUP2 PUSH2 0xB6A PUSH2 0xB22 JUMP JUMPDEST POP PUSH2 0x162 SSTORE JUMP JUMPDEST PUSH2 0x1EA8 PUSH1 0x0 PUSH2 0x845 PUSH2 0xB22 JUMP JUMPDEST PUSH2 0x1F07 JUMPI PUSH1 0x40 MLOAD PUSH3 0x461BCD PUSH1 0xE5 SHL DUP2 MSTORE PUSH1 0x20 PUSH1 0x4 DUP3 ADD MSTORE PUSH1 0x2A PUSH1 0x24 DUP3 ADD MSTORE PUSH32 0x4D75737420686176652044454641554C545F41444D494E5F524F4C4520726F6C PUSH1 0x44 DUP3 ADD MSTORE PUSH10 0x6520746F207061757365 PUSH1 0xB0 SHL PUSH1 0x64 DUP3 ADD MSTORE PUSH1 0x84 ADD PUSH2 0xBAD JUMP JUMPDEST PUSH2 0x179A PUSH2 0x34CD JUMP JUMPDEST PUSH1 0x0 PUSH2 0x1F1D DUP2 PUSH2 0xB6A PUSH2 0xB22 JUMP JUMPDEST PUSH2 0x166 SLOAD DUP3 LT ISZERO PUSH1 0x40 MLOAD DUP1 PUSH1 0x40 ADD PUSH1 0x40 MSTORE DUP1 PUSH1 0x6 DUP2 MSTORE PUSH1 0x20 ADD PUSH6 0x303039303033 PUSH1 0xD0 SHL DUP2 MSTORE POP SWAP1 PUSH2 0x1F61 JUMPI PUSH1 0x40 MLOAD PUSH3 0x461BCD PUSH1 0xE5 SHL DUP2 MSTORE PUSH1 0x4 ADD PUSH2 0xBAD SWAP2 SWAP1 PUSH2 0x40D6 JUMP JUMPDEST POP PUSH2 0x161 DUP3 SWAP1 SSTORE PUSH2 0x1F73 PUSH1 0x4 DUP4 PUSH2 0x4296 JUMP JUMPDEST PUSH2 0x166 SSTORE POP POP JUMP JUMPDEST PUSH1 0x0 DUP4 DUP2 MSTORE PUSH2 0x168 PUSH1 0x20 SWAP1 DUP2 MSTORE PUSH1 0x40 DUP1 DUP4 KECCAK256 PUSH1 0x4 ADD SLOAD DUP2 MLOAD DUP1 DUP4 ADD SWAP1 SWAP3 MSTORE PUSH1 0x6 DUP3 MSTORE PUSH6 0x303032303033 PUSH1 0xD0 SHL SWAP3 DUP3 ADD SWAP3 SWAP1 SWAP3 MSTORE PUSH1 0x60 SWAP3 SWAP2 DUP7 SWAP2 SWAP1 PUSH1 0x1 PUSH1 0x1 PUSH1 0xA0 SHL SUB AND PUSH2 0x1FDB JUMPI PUSH1 0x40 MLOAD PUSH3 0x461BCD PUSH1 0xE5 SHL DUP2 MSTORE PUSH1 0x4 ADD PUSH2 0xBAD SWAP2 SWAP1 PUSH2 0x40D6 JUMP JUMPDEST POP PUSH1 0x0 DUP7 DUP2 MSTORE PUSH2 0x168 PUSH1 0x20 MSTORE PUSH1 0x40 SWAP1 KECCAK256 PUSH1 0x6 ADD SLOAD PUSH2 0x1FFA SWAP1 DUP7 SWAP1 PUSH2 0x42D7 JUMP JUMPDEST DUP5 GT ISZERO PUSH2 0x2022 JUMPI PUSH1 0x0 DUP7 DUP2 MSTORE PUSH2 0x168 PUSH1 0x20 MSTORE PUSH1 0x40 SWAP1 KECCAK256 PUSH1 0x6 ADD SLOAD PUSH2 0x201F SWAP1 DUP7 SWAP1 PUSH2 0x42D7 JUMP JUMPDEST SWAP4 POP JUMPDEST DUP4 PUSH8 0xFFFFFFFFFFFFFFFF DUP2 GT ISZERO PUSH2 0x203B JUMPI PUSH2 0x203B PUSH2 0x4410 JUMP JUMPDEST PUSH1 0x40 MLOAD SWAP1 DUP1 DUP3 MSTORE DUP1 PUSH1 0x20 MUL PUSH1 0x20 ADD DUP3 ADD PUSH1 0x40 MSTORE DUP1 ISZERO PUSH2 0x2064 JUMPI DUP2 PUSH1 0x20 ADD PUSH1 0x20 DUP3 MUL DUP1 CALLDATASIZE DUP4 CALLDATACOPY ADD SWAP1 POP JUMPDEST POP SWAP3 POP PUSH1 0x0 JUMPDEST DUP5 DUP2 LT ISZERO PUSH2 0x20D8 JUMPI PUSH1 0x0 DUP8 DUP2 MSTORE PUSH2 0x168 PUSH1 0x20 MSTORE PUSH1 0x40 SWAP1 KECCAK256 PUSH1 0x6 ADD PUSH2 0x208E DUP3 DUP9 PUSH2 0x427E JUMP JUMPDEST DUP2 SLOAD DUP2 LT PUSH2 0x209E JUMPI PUSH2 0x209E PUSH2 0x43FA JUMP JUMPDEST SWAP1 PUSH1 0x0 MSTORE PUSH1 0x20 PUSH1 0x0 KECCAK256 ADD SLOAD DUP5 DUP3 DUP2 MLOAD DUP2 LT PUSH2 0x20BB JUMPI PUSH2 0x20BB PUSH2 0x43FA JUMP JUMPDEST PUSH1 0x20 SWAP1 DUP2 MUL SWAP2 SWAP1 SWAP2 ADD ADD MSTORE DUP1 PUSH2 0x20D0 DUP2 PUSH2 0x439D JUMP JUMPDEST SWAP2 POP POP PUSH2 0x206A JUMP JUMPDEST POP DUP3 PUSH2 0x20E4 DUP6 DUP8 PUSH2 0x427E JUMP JUMPDEST SWAP3 POP SWAP3 POP POP SWAP4 POP SWAP4 SWAP2 POP POP JUMP JUMPDEST PUSH1 0x0 DUP3 DUP2 MSTORE PUSH1 0xFB PUSH1 0x20 MSTORE PUSH1 0x40 DUP2 KECCAK256 PUSH2 0x2109 SWAP1 DUP4 PUSH2 0x3526 JUMP JUMPDEST SWAP4 SWAP3 POP POP POP JUMP JUMPDEST PUSH1 0x0 SWAP2 DUP3 MSTORE PUSH1 0xC9 PUSH1 0x20 SWAP1 DUP2 MSTORE PUSH1 0x40 DUP1 DUP5 KECCAK256 PUSH1 0x1 PUSH1 0x1 PUSH1 0xA0 SHL SUB SWAP4 SWAP1 SWAP4 AND DUP5 MSTORE SWAP2 SWAP1 MSTORE SWAP1 KECCAK256 SLOAD PUSH1 0xFF AND SWAP1 JUMP JUMPDEST PUSH2 0x168 PUSH1 0x20 MSTORE PUSH1 0x0 SWAP1 DUP2 MSTORE PUSH1 0x40 SWAP1 KECCAK256 DUP1 SLOAD DUP2 SWAP1 PUSH2 0x2157 SWAP1 PUSH2 0x4335 JUMP JUMPDEST DUP1 PUSH1 0x1F ADD PUSH1 0x20 DUP1 SWAP2 DIV MUL PUSH1 0x20 ADD PUSH1 0x40 MLOAD SWAP1 DUP2 ADD PUSH1 0x40 MSTORE DUP1 SWAP3 SWAP2 SWAP1 DUP2 DUP2 MSTORE PUSH1 0x20 ADD DUP3 DUP1 SLOAD PUSH2 0x2183 SWAP1 PUSH2 0x4335 JUMP JUMPDEST DUP1 ISZERO PUSH2 0x21D0 JUMPI DUP1 PUSH1 0x1F LT PUSH2 0x21A5 JUMPI PUSH2 0x100 DUP1 DUP4 SLOAD DIV MUL DUP4 MSTORE SWAP2 PUSH1 0x20 ADD SWAP2 PUSH2 0x21D0 JUMP JUMPDEST DUP3 ADD SWAP2 SWAP1 PUSH1 0x0 MSTORE PUSH1 0x20 PUSH1 0x0 KECCAK256 SWAP1 JUMPDEST DUP2 SLOAD DUP2 MSTORE SWAP1 PUSH1 0x1 ADD SWAP1 PUSH1 0x20 ADD DUP1 DUP4 GT PUSH2 0x21B3 JUMPI DUP3 SWAP1 SUB PUSH1 0x1F AND DUP3 ADD SWAP2 JUMPDEST POP POP POP POP POP SWAP1 DUP1 PUSH1 0x1 ADD DUP1 SLOAD PUSH2 0x21E5 SWAP1 PUSH2 0x4335 JUMP JUMPDEST DUP1 PUSH1 0x1F ADD PUSH1 0x20 DUP1 SWAP2 DIV MUL PUSH1 0x20 ADD PUSH1 0x40 MLOAD SWAP1 DUP2 ADD PUSH1 0x40 MSTORE DUP1 SWAP3 SWAP2 SWAP1 DUP2 DUP2 MSTORE PUSH1 0x20 ADD DUP3 DUP1 SLOAD PUSH2 0x2211 SWAP1 PUSH2 0x4335 JUMP JUMPDEST DUP1 ISZERO PUSH2 0x225E JUMPI DUP1 PUSH1 0x1F LT PUSH2 0x2233 JUMPI PUSH2 0x100 DUP1 DUP4 SLOAD DIV MUL DUP4 MSTORE SWAP2 PUSH1 0x20 ADD SWAP2 PUSH2 0x225E JUMP JUMPDEST DUP3 ADD SWAP2 SWAP1 PUSH1 0x0 MSTORE PUSH1 0x20 PUSH1 0x0 KECCAK256 SWAP1 JUMPDEST DUP2 SLOAD DUP2 MSTORE SWAP1 PUSH1 0x1 ADD SWAP1 PUSH1 0x20 ADD DUP1 DUP4 GT PUSH2 0x2241 JUMPI DUP3 SWAP1 SUB PUSH1 0x1F AND DUP3 ADD SWAP2 JUMPDEST POP POP POP PUSH1 0x2 DUP5 ADD SLOAD PUSH1 0x3 DUP6 ADD SLOAD PUSH1 0x4 DUP7 ADD SLOAD PUSH1 0x5 DUP8 ADD SLOAD PUSH1 0x7 DUP9 ADD SLOAD PUSH1 0x8 DUP10 ADD SLOAD PUSH1 0x9 DUP11 ADD SLOAD PUSH1 0xA DUP12 ADD SLOAD PUSH1 0xB SWAP1 SWAP12 ADD SLOAD SWAP10 SWAP11 SWAP7 SWAP10 SWAP6 SWAP9 POP PUSH1 0x1 PUSH1 0x1 PUSH1 0xA0 SHL SUB SWAP5 DUP6 AND SWAP8 POP SWAP3 SWAP1 SWAP4 AND SWAP5 SWAP1 SWAP4 PUSH1 0xFF SWAP3 DUP4 AND SWAP3 AND DUP12 JUMP JUMPDEST PUSH1 0x1 PUSH2 0x16A PUSH1 0x0 PUSH2 0x22C3 PUSH2 0xB22 JUMP JUMPDEST PUSH1 0x1 PUSH1 0x1 PUSH1 0xA0 SHL SUB SWAP1 DUP2 AND DUP3 MSTORE PUSH1 0x20 DUP1 DUP4 ADD SWAP4 SWAP1 SWAP4 MSTORE PUSH1 0x40 SWAP2 DUP3 ADD PUSH1 0x0 SWAP1 DUP2 KECCAK256 SWAP2 DUP7 AND DUP2 MSTORE PUSH1 0x5 SWAP1 SWAP2 ADD SWAP1 SWAP3 MSTORE SWAP1 KECCAK256 SSTORE PUSH2 0x22FB PUSH2 0xB22 JUMP JUMPDEST PUSH1 0x1 PUSH1 0x1 PUSH1 0xA0 SHL SUB AND DUP2 PUSH1 0x1 PUSH1 0x1 PUSH1 0xA0 SHL SUB AND PUSH32 0xBCCC71DC7842B86291138666AA18E133EE6D41AA71E6D7C650DEBAD1A0576635 PUSH1 0x40 MLOAD PUSH1 0x40 MLOAD DUP1 SWAP2 SUB SWAP1 LOG3 POP JUMP JUMPDEST PUSH1 0x0 DUP2 DUP2 MSTORE PUSH2 0x168 PUSH1 0x20 SWAP1 DUP2 MSTORE PUSH1 0x40 SWAP2 DUP3 SWAP1 KECCAK256 PUSH1 0x4 ADD SLOAD DUP3 MLOAD DUP1 DUP5 ADD SWAP1 SWAP4 MSTORE PUSH1 0x6 DUP4 MSTORE PUSH6 0x303032303033 PUSH1 0xD0 SHL SWAP2 DUP4 ADD SWAP2 SWAP1 SWAP2 MSTORE DUP3 SWAP2 SWAP1 PUSH1 0x1 PUSH1 0x1 PUSH1 0xA0 SHL SUB AND PUSH2 0x239A JUMPI PUSH1 0x40 MLOAD PUSH3 0x461BCD PUSH1 0xE5 SHL DUP2 MSTORE PUSH1 0x4 ADD PUSH2 0xBAD SWAP2 SWAP1 PUSH2 0x40D6 JUMP JUMPDEST POP PUSH1 0x0 DUP3 DUP2 MSTORE PUSH2 0x168 PUSH1 0x20 MSTORE PUSH1 0x40 SWAP1 DUP2 SWAP1 KECCAK256 SWAP1 MLOAD PUSH4 0xD82BB12B PUSH1 0xE0 SHL DUP2 MSTORE PUSH1 0x4 DUP2 ADD DUP3 SWAP1 MSTORE PUSH20 0x0 SWAP1 PUSH4 0xD82BB12B SWAP1 PUSH1 0x24 ADD PUSH1 0x0 PUSH1 0x40 MLOAD DUP1 DUP4 SUB DUP2 DUP7 DUP1 EXTCODESIZE ISZERO DUP1 ISZERO PUSH2 0x23F6 JUMPI PUSH1 0x0 DUP1 REVERT JUMPDEST POP GAS DELEGATECALL ISZERO DUP1 ISZERO PUSH2 0x240A JUMPI RETURNDATASIZE PUSH1 0x0 DUP1 RETURNDATACOPY RETURNDATASIZE PUSH1 0x0 REVERT JUMPDEST POP POP POP POP PUSH1 0x0 CALLVALUE GT PUSH1 0x40 MLOAD DUP1 PUSH1 0x40 ADD PUSH1 0x40 MSTORE DUP1 PUSH1 0x6 DUP2 MSTORE PUSH1 0x20 ADD PUSH6 0x303033303035 PUSH1 0xD0 SHL DUP2 MSTORE POP SWAP1 PUSH2 0x244F JUMPI PUSH1 0x40 MLOAD PUSH3 0x461BCD PUSH1 0xE5 SHL DUP2 MSTORE PUSH1 0x4 ADD PUSH2 0xBAD SWAP2 SWAP1 PUSH2 0x40D6 JUMP JUMPDEST POP PUSH1 0x0 PUSH20 0x0 PUSH4 0xFEAC0F70 PUSH2 0x169 DUP7 PUSH2 0x2478 PUSH2 0xB22 JUMP JUMPDEST PUSH1 0x40 MLOAD PUSH1 0x1 PUSH1 0x1 PUSH1 0xE0 SHL SUB NOT PUSH1 0xE0 DUP7 SWAP1 SHL AND DUP2 MSTORE PUSH1 0x4 DUP2 ADD SWAP4 SWAP1 SWAP4 MSTORE PUSH1 0x24 DUP4 ADD SWAP2 SWAP1 SWAP2 MSTORE PUSH1 0x1 PUSH1 0x1 PUSH1 0xA0 SHL SUB AND PUSH1 0x44 DUP3 ADD MSTORE CALLVALUE PUSH1 0x64 DUP3 ADD MSTORE PUSH1 0x84 ADD PUSH1 0x20 PUSH1 0x40 MLOAD DUP1 DUP4 SUB DUP2 DUP7 DUP1 EXTCODESIZE ISZERO DUP1 ISZERO PUSH2 0x24CB JUMPI PUSH1 0x0 DUP1 REVERT JUMPDEST POP GAS DELEGATECALL ISZERO DUP1 ISZERO PUSH2 0x24DF JUMPI RETURNDATASIZE PUSH1 0x0 DUP1 RETURNDATACOPY RETURNDATASIZE PUSH1 0x0 REVERT JUMPDEST POP POP POP POP PUSH1 0x40 MLOAD RETURNDATASIZE PUSH1 0x1F NOT PUSH1 0x1F DUP3 ADD AND DUP3 ADD DUP1 PUSH1 0x40 MSTORE POP DUP2 ADD SWAP1 PUSH2 0x2503 SWAP2 SWAP1 PUSH2 0x3E44 JUMP JUMPDEST PUSH1 0x40 MLOAD PUSH4 0x2219985 PUSH1 0xE2 SHL DUP2 MSTORE PUSH1 0x4 DUP2 ADD DUP5 SWAP1 MSTORE PUSH1 0x24 DUP2 ADD DUP3 SWAP1 MSTORE CALLVALUE PUSH1 0x44 DUP3 ADD MSTORE SWAP1 SWAP2 POP PUSH20 0x0 SWAP1 PUSH4 0x8866614 SWAP1 PUSH1 0x64 ADD PUSH1 0x0 PUSH1 0x40 MLOAD DUP1 DUP4 SUB DUP2 DUP7 DUP1 EXTCODESIZE ISZERO DUP1 ISZERO PUSH2 0x255E JUMPI PUSH1 0x0 DUP1 REVERT JUMPDEST POP GAS DELEGATECALL ISZERO DUP1 ISZERO PUSH2 0x2572 JUMPI RETURNDATASIZE PUSH1 0x0 DUP1 RETURNDATACOPY RETURNDATASIZE PUSH1 0x0 REVERT JUMPDEST POP POP POP POP PUSH1 0x0 PUSH2 0x16A PUSH1 0x0 PUSH2 0x2585 PUSH2 0xB22 JUMP JUMPDEST PUSH1 0x1 PUSH1 0x1 PUSH1 0xA0 SHL SUB AND DUP2 MSTORE PUSH1 0x20 DUP2 ADD SWAP2 SWAP1 SWAP2 MSTORE PUSH1 0x40 SWAP1 DUP2 ADD PUSH1 0x0 KECCAK256 SWAP1 MLOAD PUSH4 0x1BEBC41B PUSH1 0xE0 SHL DUP2 MSTORE PUSH1 0x4 DUP2 ADD DUP3 SWAP1 MSTORE PUSH1 0x24 DUP2 ADD DUP5 SWAP1 MSTORE SWAP1 SWAP2 POP PUSH20 0x0 SWAP1 PUSH4 0x1BEBC41B SWAP1 PUSH1 0x44 ADD PUSH1 0x0 PUSH1 0x40 MLOAD DUP1 DUP4 SUB DUP2 DUP7 DUP1 EXTCODESIZE ISZERO DUP1 ISZERO PUSH2 0x25F4 JUMPI PUSH1 0x0 DUP1 REVERT JUMPDEST POP GAS DELEGATECALL ISZERO DUP1 ISZERO PUSH2 0x2608 JUMPI RETURNDATASIZE PUSH1 0x0 DUP1 RETURNDATACOPY RETURNDATASIZE PUSH1 0x0 REVERT JUMPDEST POP POP POP POP PUSH2 0x2614 PUSH2 0xB22 JUMP JUMPDEST PUSH1 0x1 PUSH1 0x1 PUSH1 0xA0 SHL SUB AND DUP3 DUP7 PUSH32 0xB8A61F3258608A2F1AF184E4640B08E6CD69126E3C563D30B6348EBFB5155884 CALLVALUE PUSH1 0x40 MLOAD PUSH2 0x2650 SWAP2 DUP2 MSTORE PUSH1 0x20 ADD SWAP1 JUMP JUMPDEST PUSH1 0x40 MLOAD DUP1 SWAP2 SUB SWAP1 LOG4 POP POP POP POP POP JUMP JUMPDEST PUSH1 0x0 DUP1 PUSH2 0x266E DUP2 PUSH2 0xB6A PUSH2 0xB22 JUMP JUMPDEST SELFBALANCE SWAP2 POP JUMPDEST POP SWAP1 JUMP JUMPDEST PUSH1 0x1 PUSH1 0x1 PUSH1 0xA0 SHL SUB DUP4 AND PUSH1 0x0 SWAP1 DUP2 MSTORE PUSH2 0x16A PUSH1 0x20 MSTORE PUSH1 0x40 DUP2 KECCAK256 PUSH1 0x2 ADD SLOAD PUSH1 0x60 SWAP2 SWAP1 PUSH2 0x26A2 SWAP1 DUP6 SWAP1 PUSH2 0x42D7 JUMP JUMPDEST DUP4 GT ISZERO PUSH2 0x26D4 JUMPI PUSH1 0x1 PUSH1 0x1 PUSH1 0xA0 SHL SUB DUP6 AND PUSH1 0x0 SWAP1 DUP2 MSTORE PUSH2 0x16A PUSH1 0x20 MSTORE PUSH1 0x40 SWAP1 KECCAK256 PUSH1 0x2 ADD SLOAD PUSH2 0x26D1 SWAP1 DUP6 SWAP1 PUSH2 0x42D7 JUMP JUMPDEST SWAP3 POP JUMPDEST DUP3 PUSH8 0xFFFFFFFFFFFFFFFF DUP2 GT ISZERO PUSH2 0x26ED JUMPI PUSH2 0x26ED PUSH2 0x4410 JUMP JUMPDEST PUSH1 0x40 MLOAD SWAP1 DUP1 DUP3 MSTORE DUP1 PUSH1 0x20 MUL PUSH1 0x20 ADD DUP3 ADD PUSH1 0x40 MSTORE DUP1 ISZERO PUSH2 0x2716 JUMPI DUP2 PUSH1 0x20 ADD PUSH1 0x20 DUP3 MUL DUP1 CALLDATASIZE DUP4 CALLDATACOPY ADD SWAP1 POP JUMPDEST POP SWAP2 POP PUSH1 0x0 JUMPDEST DUP4 DUP2 LT ISZERO PUSH2 0x1A57 JUMPI PUSH1 0x1 PUSH1 0x1 PUSH1 0xA0 SHL SUB DUP7 AND PUSH1 0x0 SWAP1 DUP2 MSTORE PUSH2 0x16A PUSH1 0x20 MSTORE PUSH1 0x40 SWAP1 KECCAK256 PUSH1 0x2 ADD PUSH2 0x274A DUP3 DUP8 PUSH2 0x427E JUMP JUMPDEST DUP2 SLOAD DUP2 LT PUSH2 0x275A JUMPI PUSH2 0x275A PUSH2 0x43FA JUMP JUMPDEST SWAP1 PUSH1 0x0 MSTORE PUSH1 0x20 PUSH1 0x0 KECCAK256 ADD SLOAD DUP4 DUP3 DUP2 MLOAD DUP2 LT PUSH2 0x2777 JUMPI PUSH2 0x2777 PUSH2 0x43FA JUMP JUMPDEST PUSH1 0x20 SWAP1 DUP2 MUL SWAP2 SWAP1 SWAP2 ADD ADD MSTORE DUP1 PUSH2 0x278C DUP2 PUSH2 0x439D JUMP JUMPDEST SWAP2 POP POP PUSH2 0x271C JUMP JUMPDEST PUSH1 0x0 PUSH2 0x16B PUSH1 0x0 PUSH2 0x27A3 PUSH2 0xB22 JUMP JUMPDEST PUSH1 0x1 PUSH1 0x1 PUSH1 0xA0 SHL SUB AND PUSH1 0x1 PUSH1 0x1 PUSH1 0xA0 SHL SUB AND DUP2 MSTORE PUSH1 0x20 ADD SWAP1 DUP2 MSTORE PUSH1 0x20 ADD PUSH1 0x0 KECCAK256 SLOAD SWAP1 POP SWAP1 JUMP JUMPDEST PUSH1 0x0 DUP2 DUP2 MSTORE PUSH1 0xFB PUSH1 0x20 MSTORE PUSH1 0x40 DUP2 KECCAK256 PUSH2 0xB56 SWAP1 PUSH2 0x3532 JUMP JUMPDEST PUSH1 0x0 DUP3 DUP2 MSTORE PUSH1 0xC9 PUSH1 0x20 MSTORE PUSH1 0x40 SWAP1 KECCAK256 PUSH1 0x1 ADD SLOAD PUSH2 0x27FE DUP2 PUSH2 0xB6A PUSH2 0xB22 JUMP JUMPDEST PUSH2 0x1365 DUP4 DUP4 PUSH2 0x2E31 JUMP JUMPDEST PUSH1 0x0 PUSH2 0x2816 DUP2 PUSH2 0xB6A PUSH2 0xB22 JUMP JUMPDEST PUSH2 0x158B DUP3 PUSH2 0x353C JUMP JUMPDEST PUSH1 0x0 PUSH1 0x2 PUSH2 0x1163 JUMP JUMPDEST PUSH1 0x0 PUSH2 0x16A PUSH1 0x0 PUSH2 0x2837 PUSH2 0xB22 JUMP JUMPDEST PUSH1 0x1 PUSH1 0x1 PUSH1 0xA0 SHL SUB SWAP1 DUP2 AND DUP3 MSTORE PUSH1 0x20 DUP1 DUP4 ADD SWAP4 SWAP1 SWAP4 MSTORE PUSH1 0x40 SWAP2 DUP3 ADD PUSH1 0x0 SWAP1 DUP2 KECCAK256 SWAP2 DUP7 AND DUP2 MSTORE PUSH1 0x5 SWAP1 SWAP2 ADD SWAP1 SWAP3 MSTORE SWAP1 KECCAK256 SSTORE PUSH2 0x286F PUSH2 0xB22 JUMP JUMPDEST PUSH1 0x1 PUSH1 0x1 PUSH1 0xA0 SHL SUB AND DUP2 PUSH1 0x1 PUSH1 0x1 PUSH1 0xA0 SHL SUB AND PUSH32 0xE5DCCCFE8E7890C6D4AA94D44C3B409FB6F023337F29C3308077C0C4068192C4 PUSH1 0x40 MLOAD PUSH1 0x40 MLOAD DUP1 SWAP2 SUB SWAP1 LOG3 POP JUMP JUMPDEST PUSH1 0x33 SLOAD PUSH1 0xFF AND ISZERO PUSH2 0x28D4 JUMPI PUSH1 0x40 MLOAD PUSH3 0x461BCD PUSH1 0xE5 SHL DUP2 MSTORE PUSH1 0x4 ADD PUSH2 0xBAD SWAP1 PUSH2 0x41E1 JUMP JUMPDEST PUSH1 0x0 DUP2 DUP2 MSTORE PUSH2 0x169 PUSH1 0x20 SWAP1 DUP2 MSTORE PUSH1 0x40 SWAP2 DUP3 SWAP1 KECCAK256 SLOAD DUP3 MLOAD DUP1 DUP5 ADD SWAP1 SWAP4 MSTORE PUSH1 0x6 DUP4 MSTORE PUSH6 0x303033303033 PUSH1 0xD0 SHL SWAP2 DUP4 ADD SWAP2 SWAP1 SWAP2 MSTORE DUP3 SWAP2 SWAP1 PUSH1 0x1 PUSH1 0x1 PUSH1 0xA0 SHL SUB AND PUSH2 0x292E JUMPI PUSH1 0x40 MLOAD PUSH3 0x461BCD PUSH1 0xE5 SHL DUP2 MSTORE PUSH1 0x4 ADD PUSH2 0xBAD SWAP2 SWAP1 PUSH2 0x40D6 JUMP JUMPDEST POP DUP2 PUSH2 0x2938 PUSH2 0xB22 JUMP JUMPDEST PUSH1 0x0 DUP3 DUP2 MSTORE PUSH2 0x169 PUSH1 0x20 SWAP1 DUP2 MSTORE PUSH1 0x40 SWAP2 DUP3 SWAP1 KECCAK256 SLOAD DUP3 MLOAD DUP1 DUP5 ADD SWAP1 SWAP4 MSTORE PUSH1 0x6 DUP4 MSTORE PUSH6 0x181819981819 PUSH1 0xD1 SHL SWAP2 DUP4 ADD SWAP2 SWAP1 SWAP2 MSTORE SWAP1 SWAP2 PUSH1 0x1 PUSH1 0x1 PUSH1 0xA0 SHL SUB SWAP2 DUP3 AND SWAP2 AND EQ PUSH2 0x2996 JUMPI PUSH1 0x40 MLOAD PUSH3 0x461BCD PUSH1 0xE5 SHL DUP2 MSTORE PUSH1 0x4 ADD PUSH2 0xBAD SWAP2 SWAP1 PUSH2 0x40D6 JUMP JUMPDEST POP PUSH1 0x0 DUP4 DUP2 MSTORE PUSH2 0x169 PUSH1 0x20 SWAP1 DUP2 MSTORE PUSH1 0x40 DUP1 DUP4 KECCAK256 PUSH1 0x3 DUP2 ADD SLOAD DUP5 MSTORE PUSH2 0x168 SWAP1 SWAP3 MSTORE SWAP2 DUP3 SWAP1 KECCAK256 SWAP2 MLOAD PUSH4 0x2B2E7477 PUSH1 0xE0 SHL DUP2 MSTORE PUSH1 0x4 DUP2 ADD DUP3 SWAP1 MSTORE PUSH1 0x24 DUP2 ADD DUP4 SWAP1 MSTORE SWAP1 SWAP2 SWAP1 PUSH20 0x0 SWAP1 PUSH4 0x2B2E7477 SWAP1 PUSH1 0x44 ADD PUSH1 0x0 PUSH1 0x40 MLOAD DUP1 DUP4 SUB DUP2 DUP7 DUP1 EXTCODESIZE ISZERO DUP1 ISZERO PUSH2 0x2A0E JUMPI PUSH1 0x0 DUP1 REVERT JUMPDEST POP GAS DELEGATECALL ISZERO DUP1 ISZERO PUSH2 0x2A22 JUMPI RETURNDATASIZE PUSH1 0x0 DUP1 RETURNDATACOPY RETURNDATASIZE PUSH1 0x0 REVERT JUMPDEST POP POP POP POP DUP2 PUSH1 0x1 ADD SLOAD PUSH2 0x16B PUSH1 0x0 PUSH2 0x2A38 PUSH2 0xB22 JUMP JUMPDEST PUSH1 0x1 PUSH1 0x1 PUSH1 0xA0 SHL SUB AND PUSH1 0x1 PUSH1 0x1 PUSH1 0xA0 SHL SUB AND DUP2 MSTORE PUSH1 0x20 ADD SWAP1 DUP2 MSTORE PUSH1 0x20 ADD PUSH1 0x0 KECCAK256 PUSH1 0x0 DUP3 DUP3 SLOAD PUSH2 0x2A67 SWAP2 SWAP1 PUSH2 0x427E JUMP JUMPDEST SWAP1 SWAP2 SSTORE POP PUSH2 0x2A75 SWAP1 POP PUSH2 0xB22 JUMP JUMPDEST PUSH1 0x1 PUSH1 0x1 PUSH1 0xA0 SHL SUB AND PUSH1 0x0 DUP1 MLOAD PUSH1 0x20 PUSH2 0x44EC DUP4 CODECOPY DUP2 MLOAD SWAP2 MSTORE DUP4 PUSH1 0x1 ADD SLOAD PUSH1 0x40 MLOAD PUSH2 0x2AA1 SWAP2 DUP2 MSTORE PUSH1 0x20 ADD SWAP1 JUMP JUMPDEST PUSH1 0x40 MLOAD DUP1 SWAP2 SUB SWAP1 LOG2 PUSH2 0x2AB1 PUSH2 0xB22 JUMP JUMPDEST PUSH1 0x1 PUSH1 0x1 PUSH1 0xA0 SHL SUB AND DUP6 DUP4 PUSH1 0x3 ADD SLOAD PUSH32 0x8827140ED7E0AEE657F6D8AB3D65B02D30022ED333E284958313DB49217E7C3E DUP6 PUSH1 0x1 ADD SLOAD PUSH1 0x40 MLOAD PUSH2 0x2650 SWAP2 DUP2 MSTORE PUSH1 0x20 ADD SWAP1 JUMP JUMPDEST PUSH1 0x65 SLOAD PUSH1 0x0 SWAP1 PUSH1 0x1 PUSH1 0x1 PUSH1 0xA0 SHL SUB AND CALLER EQ ISZERO PUSH2 0x2B18 JUMPI POP PUSH1 0x13 NOT CALLDATASIZE ADD CALLDATALOAD PUSH1 0x60 SHR SWAP1 JUMP JUMPDEST POP CALLER SWAP1 JUMP JUMPDEST SWAP1 JUMP JUMPDEST PUSH1 0x0 PUSH1 0x1 PUSH1 0x1 PUSH1 0xE0 SHL SUB NOT DUP3 AND PUSH4 0x7965DB0B PUSH1 0xE0 SHL EQ DUP1 PUSH2 0xB56 JUMPI POP PUSH4 0x1FFC9A7 PUSH1 0xE0 SHL PUSH1 0x1 PUSH1 0x1 PUSH1 0xE0 SHL SUB NOT DUP4 AND EQ PUSH2 0xB56 JUMP JUMPDEST PUSH2 0x2B5F DUP3 DUP3 PUSH2 0x2110 JUMP JUMPDEST PUSH2 0x158B JUMPI PUSH2 0x2B77 DUP2 PUSH1 0x1 PUSH1 0x1 PUSH1 0xA0 SHL SUB AND PUSH1 0x14 PUSH2 0x3585 JUMP JUMPDEST PUSH2 0x2B82 DUP4 PUSH1 0x20 PUSH2 0x3585 JUMP JUMPDEST PUSH1 0x40 MLOAD PUSH1 0x20 ADD PUSH2 0x2B93 SWAP3 SWAP2 SWAP1 PUSH2 0x3FED JUMP JUMPDEST PUSH1 0x40 DUP1 MLOAD PUSH1 0x1F NOT DUP2 DUP5 SUB ADD DUP2 MSTORE SWAP1 DUP3 SWAP1 MSTORE PUSH3 0x461BCD PUSH1 0xE5 SHL DUP3 MSTORE PUSH2 0xBAD SWAP2 PUSH1 0x4 ADD PUSH2 0x40D6 JUMP JUMPDEST PUSH1 0x0 SLOAD PUSH2 0x100 SWAP1 DIV PUSH1 0xFF AND PUSH2 0x2BE0 JUMPI PUSH1 0x40 MLOAD PUSH3 0x461BCD PUSH1 0xE5 SHL DUP2 MSTORE PUSH1 0x4 ADD PUSH2 0xBAD SWAP1 PUSH2 0x420B JUMP JUMPDEST PUSH2 0x2BE8 PUSH2 0x3721 JUMP JUMPDEST PUSH2 0x2BF0 PUSH2 0x3721 JUMP JUMPDEST PUSH2 0x2BF8 PUSH2 0x3721 JUMP JUMPDEST PUSH2 0x179A PUSH2 0x3721 JUMP JUMPDEST PUSH1 0x0 SLOAD PUSH2 0x100 SWAP1 DIV PUSH1 0xFF AND PUSH2 0x2C27 JUMPI PUSH1 0x40 MLOAD PUSH3 0x461BCD PUSH1 0xE5 SHL DUP2 MSTORE PUSH1 0x4 ADD PUSH2 0xBAD SWAP1 PUSH2 0x420B JUMP JUMPDEST PUSH2 0x179A PUSH2 0x3748 JUMP JUMPDEST PUSH1 0x0 SLOAD PUSH2 0x100 SWAP1 DIV PUSH1 0xFF AND PUSH2 0x2C56 JUMPI PUSH1 0x40 MLOAD PUSH3 0x461BCD PUSH1 0xE5 SHL DUP2 MSTORE PUSH1 0x4 ADD PUSH2 0xBAD SWAP1 PUSH2 0x420B JUMP JUMPDEST PUSH2 0x2C5E PUSH2 0x3721 JUMP JUMPDEST PUSH2 0x179A PUSH2 0x3777 JUMP JUMPDEST PUSH1 0x0 SLOAD PUSH2 0x100 SWAP1 DIV PUSH1 0xFF AND PUSH2 0x2C8D JUMPI PUSH1 0x40 MLOAD PUSH3 0x461BCD PUSH1 0xE5 SHL DUP2 MSTORE PUSH1 0x4 ADD PUSH2 0xBAD SWAP1 PUSH2 0x420B JUMP JUMPDEST PUSH2 0x2C95 PUSH2 0x3721 JUMP JUMPDEST PUSH2 0x2C9E DUP2 PUSH2 0x353C JUMP JUMPDEST POP JUMP JUMPDEST PUSH2 0x158B DUP3 DUP3 PUSH2 0x2E0F JUMP JUMPDEST PUSH1 0x0 DUP3 DUP2 MSTORE PUSH1 0xC9 PUSH1 0x20 MSTORE PUSH1 0x40 DUP1 DUP3 KECCAK256 PUSH1 0x1 ADD DUP1 SLOAD SWAP1 DUP5 SWAP1 SSTORE SWAP1 MLOAD SWAP1 SWAP2 DUP4 SWAP2 DUP4 SWAP2 DUP7 SWAP2 PUSH32 0xBD79B86FFE0AB8E8776151514217CD7CACD52C909F66475C3AF44E129F0B00FF SWAP2 SWAP1 LOG4 POP POP POP JUMP JUMPDEST DUP1 SELFBALANCE LT ISZERO PUSH2 0x2D46 JUMPI PUSH1 0x40 MLOAD PUSH3 0x461BCD PUSH1 0xE5 SHL DUP2 MSTORE PUSH1 0x20 PUSH1 0x4 DUP3 ADD MSTORE PUSH1 0x1D PUSH1 0x24 DUP3 ADD MSTORE PUSH32 0x416464726573733A20696E73756666696369656E742062616C616E6365000000 PUSH1 0x44 DUP3 ADD MSTORE PUSH1 0x64 ADD PUSH2 0xBAD JUMP JUMPDEST PUSH1 0x0 DUP3 PUSH1 0x1 PUSH1 0x1 PUSH1 0xA0 SHL SUB AND DUP3 PUSH1 0x40 MLOAD PUSH1 0x0 PUSH1 0x40 MLOAD DUP1 DUP4 SUB DUP2 DUP6 DUP8 GAS CALL SWAP3 POP POP POP RETURNDATASIZE DUP1 PUSH1 0x0 DUP2 EQ PUSH2 0x2D93 JUMPI PUSH1 0x40 MLOAD SWAP2 POP PUSH1 0x1F NOT PUSH1 0x3F RETURNDATASIZE ADD AND DUP3 ADD PUSH1 0x40 MSTORE RETURNDATASIZE DUP3 MSTORE RETURNDATASIZE PUSH1 0x0 PUSH1 0x20 DUP5 ADD RETURNDATACOPY PUSH2 0x2D98 JUMP JUMPDEST PUSH1 0x60 SWAP2 POP JUMPDEST POP POP SWAP1 POP DUP1 PUSH2 0x1365 JUMPI PUSH1 0x40 MLOAD PUSH3 0x461BCD PUSH1 0xE5 SHL DUP2 MSTORE PUSH1 0x20 PUSH1 0x4 DUP3 ADD MSTORE PUSH1 0x3A PUSH1 0x24 DUP3 ADD MSTORE PUSH32 0x416464726573733A20756E61626C6520746F2073656E642076616C75652C2072 PUSH1 0x44 DUP3 ADD MSTORE PUSH32 0x6563697069656E74206D61792068617665207265766572746564000000000000 PUSH1 0x64 DUP3 ADD MSTORE PUSH1 0x84 ADD PUSH2 0xBAD JUMP JUMPDEST PUSH2 0x2E19 DUP3 DUP3 PUSH2 0x37AA JUMP JUMPDEST PUSH1 0x0 DUP3 DUP2 MSTORE PUSH1 0xFB PUSH1 0x20 MSTORE PUSH1 0x40 SWAP1 KECCAK256 PUSH2 0x1365 SWAP1 DUP3 PUSH2 0x3831 JUMP JUMPDEST PUSH2 0x2E3B DUP3 DUP3 PUSH2 0x3846 JUMP JUMPDEST PUSH1 0x0 DUP3 DUP2 MSTORE PUSH1 0xFB PUSH1 0x20 MSTORE PUSH1 0x40 SWAP1 KECCAK256 PUSH2 0x1365 SWAP1 DUP3 PUSH2 0x38CB JUMP JUMPDEST PUSH1 0x33 SLOAD PUSH1 0xFF AND PUSH2 0x2E9C JUMPI PUSH1 0x40 MLOAD PUSH3 0x461BCD PUSH1 0xE5 SHL DUP2 MSTORE PUSH1 0x20 PUSH1 0x4 DUP3 ADD MSTORE PUSH1 0x14 PUSH1 0x24 DUP3 ADD MSTORE PUSH20 0x14185D5CD8589B194E881B9BDD081C185D5CD959 PUSH1 0x62 SHL PUSH1 0x44 DUP3 ADD MSTORE PUSH1 0x64 ADD PUSH2 0xBAD JUMP JUMPDEST PUSH1 0x33 DUP1 SLOAD PUSH1 0xFF NOT AND SWAP1 SSTORE PUSH32 0x5DB9EE0A495BF2E6FF9C91A7834C1BA4FDD244A5E8AA4E537BD38AEAE4B073AA PUSH2 0x2ECF PUSH2 0xB22 JUMP JUMPDEST PUSH1 0x40 MLOAD PUSH1 0x1 PUSH1 0x1 PUSH1 0xA0 SHL SUB SWAP1 SWAP2 AND DUP2 MSTORE PUSH1 0x20 ADD PUSH1 0x40 MLOAD DUP1 SWAP2 SUB SWAP1 LOG1 JUMP JUMPDEST PUSH1 0x0 DUP1 PUSH20 0x0 PUSH4 0xF19191D9 DUP5 DUP10 PUSH1 0x40 MLOAD DUP4 PUSH4 0xFFFFFFFF AND PUSH1 0xE0 SHL DUP2 MSTORE PUSH1 0x4 ADD PUSH2 0x2F28 SWAP3 SWAP2 SWAP1 PUSH2 0x40E9 JUMP JUMPDEST PUSH1 0x20 PUSH1 0x40 MLOAD DUP1 DUP4 SUB DUP2 DUP7 DUP1 EXTCODESIZE ISZERO DUP1 ISZERO PUSH2 0x2F40 JUMPI PUSH1 0x0 DUP1 REVERT JUMPDEST POP GAS DELEGATECALL ISZERO DUP1 ISZERO PUSH2 0x2F54 JUMPI RETURNDATASIZE PUSH1 0x0 DUP1 RETURNDATACOPY RETURNDATASIZE PUSH1 0x0 REVERT JUMPDEST POP POP POP POP PUSH1 0x40 MLOAD RETURNDATASIZE PUSH1 0x1F NOT PUSH1 0x1F DUP3 ADD AND DUP3 ADD DUP1 PUSH1 0x40 MSTORE POP DUP2 ADD SWAP1 PUSH2 0x2F78 SWAP2 SWAP1 PUSH2 0x3E44 JUMP JUMPDEST PUSH1 0x40 DUP1 MLOAD PUSH1 0x0 DUP1 DUP3 MSTORE PUSH1 0x20 DUP3 ADD SWAP1 SWAP3 MSTORE SWAP2 SWAP3 POP PUSH2 0x2F95 DUP7 TIMESTAMP PUSH2 0x427E JUMP JUMPDEST SWAP1 POP PUSH1 0x40 MLOAD DUP1 PUSH2 0x180 ADD PUSH1 0x40 MSTORE DUP1 DUP7 DUP2 MSTORE PUSH1 0x20 ADD PUSH1 0x40 MLOAD DUP1 PUSH1 0x20 ADD PUSH1 0x40 MSTORE DUP1 PUSH1 0x0 DUP2 MSTORE POP DUP2 MSTORE PUSH1 0x20 ADD DUP9 DUP2 MSTORE PUSH1 0x20 ADD DUP9 DUP2 MSTORE PUSH1 0x20 ADD DUP11 PUSH1 0x1 PUSH1 0x1 PUSH1 0xA0 SHL SUB AND DUP2 MSTORE PUSH1 0x20 ADD DUP10 PUSH1 0x1 PUSH1 0x1 PUSH1 0xA0 SHL SUB AND DUP2 MSTORE PUSH1 0x20 ADD DUP4 DUP2 MSTORE PUSH1 0x20 ADD TIMESTAMP DUP2 MSTORE PUSH1 0x20 ADD DUP3 DUP2 MSTORE PUSH1 0x20 ADD PUSH1 0x0 PUSH1 0x3 DUP2 GT ISZERO PUSH2 0x300D JUMPI PUSH2 0x300D PUSH2 0x43CE JUMP JUMPDEST DUP2 MSTORE PUSH1 0x0 PUSH1 0x20 DUP1 DUP4 ADD DUP3 SWAP1 MSTORE PUSH1 0x40 SWAP3 DUP4 ADD DUP3 SWAP1 MSTORE DUP7 DUP3 MSTORE PUSH2 0x168 DUP2 MSTORE SWAP2 SWAP1 KECCAK256 DUP3 MLOAD DUP1 MLOAD SWAP2 SWAP3 PUSH2 0x3041 SWAP3 DUP5 SWAP3 SWAP1 SWAP2 ADD SWAP1 PUSH2 0x3BF4 JUMP JUMPDEST POP PUSH1 0x20 DUP3 DUP2 ADD MLOAD DUP1 MLOAD PUSH2 0x305A SWAP3 PUSH1 0x1 DUP6 ADD SWAP3 ADD SWAP1 PUSH2 0x3BF4 JUMP JUMPDEST POP PUSH1 0x40 DUP3 ADD MLOAD PUSH1 0x2 DUP3 ADD SSTORE PUSH1 0x60 DUP3 ADD MLOAD PUSH1 0x3 DUP3 ADD SSTORE PUSH1 0x80 DUP3 ADD MLOAD PUSH1 0x4 DUP3 ADD DUP1 SLOAD PUSH1 0x1 PUSH1 0x1 PUSH1 0xA0 SHL SUB SWAP3 DUP4 AND PUSH1 0x1 PUSH1 0x1 PUSH1 0xA0 SHL SUB NOT SWAP2 DUP3 AND OR SWAP1 SWAP2 SSTORE PUSH1 0xA0 DUP5 ADD MLOAD PUSH1 0x5 DUP5 ADD DUP1 SLOAD SWAP2 SWAP1 SWAP4 AND SWAP2 AND OR SWAP1 SSTORE PUSH1 0xC0 DUP3 ADD MLOAD DUP1 MLOAD PUSH2 0x30C4 SWAP2 PUSH1 0x6 DUP5 ADD SWAP2 PUSH1 0x20 SWAP1 SWAP2 ADD SWAP1 PUSH2 0x3C74 JUMP JUMPDEST POP PUSH1 0xE0 DUP3 ADD MLOAD PUSH1 0x7 DUP3 ADD SSTORE PUSH2 0x100 DUP3 ADD MLOAD PUSH1 0x8 DUP3 ADD SSTORE PUSH2 0x120 DUP3 ADD MLOAD PUSH1 0x9 DUP3 ADD DUP1 SLOAD PUSH1 0xFF NOT AND PUSH1 0x1 DUP4 PUSH1 0x3 DUP2 GT ISZERO PUSH2 0x30FE JUMPI PUSH2 0x30FE PUSH2 0x43CE JUMP JUMPDEST MUL OR SWAP1 SSTORE POP PUSH2 0x140 DUP3 ADD MLOAD PUSH1 0xA DUP3 ADD SSTORE PUSH2 0x160 SWAP1 SWAP2 ADD MLOAD PUSH1 0xB SWAP1 SWAP2 ADD DUP1 SLOAD PUSH1 0xFF NOT AND SWAP2 ISZERO ISZERO SWAP2 SWAP1 SWAP2 OR SWAP1 SSTORE PUSH1 0x1 PUSH1 0x1 PUSH1 0xA0 SHL SUB DUP10 DUP2 AND PUSH1 0x0 DUP2 DUP2 MSTORE PUSH2 0x16A PUSH1 0x20 SWAP1 DUP2 MSTORE PUSH1 0x40 DUP1 DUP4 KECCAK256 PUSH1 0x1 SWAP1 DUP2 ADD DUP1 SLOAD SWAP2 DUP3 ADD DUP2 SSTORE DUP5 MSTORE SWAP2 SWAP1 SWAP3 KECCAK256 ADD DUP7 SWAP1 SSTORE MLOAD SWAP1 SWAP2 DUP6 SWAP2 SWAP1 DUP12 AND SWAP1 PUSH32 0x3B68BA1E6AC39F1579FD32B30DAA1B9F575DC2D1105A95F1BB114484003070FF SWAP1 PUSH2 0x3196 SWAP1 DUP13 SWAP1 DUP8 SWAP1 DUP13 SWAP1 PUSH2 0x4256 JUMP JUMPDEST PUSH1 0x40 MLOAD DUP1 SWAP2 SUB SWAP1 LOG4 POP SWAP1 SWAP8 SWAP7 POP POP POP POP POP POP POP JUMP JUMPDEST PUSH1 0x0 DUP4 DUP2 MSTORE PUSH2 0x168 PUSH1 0x20 MSTORE PUSH1 0x40 DUP1 DUP3 KECCAK256 SWAP1 MLOAD PUSH4 0x387F9FC3 PUSH1 0xE0 SHL DUP2 MSTORE PUSH1 0x4 DUP2 ADD DUP3 SWAP1 MSTORE DUP3 SWAP2 SWAP1 PUSH20 0x0 SWAP1 PUSH4 0x387F9FC3 SWAP1 PUSH1 0x24 ADD PUSH1 0x0 PUSH1 0x40 MLOAD DUP1 DUP4 SUB DUP2 DUP7 DUP1 EXTCODESIZE ISZERO DUP1 ISZERO PUSH2 0x3208 JUMPI PUSH1 0x0 DUP1 REVERT JUMPDEST POP GAS DELEGATECALL ISZERO DUP1 ISZERO PUSH2 0x321C JUMPI RETURNDATASIZE PUSH1 0x0 DUP1 RETURNDATACOPY RETURNDATASIZE PUSH1 0x0 REVERT JUMPDEST POP POP PUSH2 0x164 SLOAD PUSH1 0x0 SWAP3 POP PUSH1 0x1 PUSH1 0xA0 SHL SWAP1 DIV PUSH1 0xFF AND ISZERO SWAP1 POP PUSH2 0x3252 JUMPI PUSH1 0x4 DUP3 ADD SLOAD PUSH2 0x324F SWAP1 PUSH1 0x1 PUSH1 0x1 PUSH1 0xA0 SHL SUB AND DUP7 PUSH2 0x38E0 JUMP JUMPDEST SWAP1 POP JUMPDEST PUSH1 0x40 MLOAD PUSH4 0xAE93940D PUSH1 0xE0 SHL DUP2 MSTORE PUSH20 0x0 SWAP1 PUSH4 0xAE93940D SWAP1 PUSH2 0x328D SWAP1 DUP6 SWAP1 DUP6 SWAP1 DUP12 SWAP1 PUSH1 0x4 ADD PUSH2 0x4256 JUMP JUMPDEST PUSH1 0x0 PUSH1 0x40 MLOAD DUP1 DUP4 SUB DUP2 DUP7 DUP1 EXTCODESIZE ISZERO DUP1 ISZERO PUSH2 0x32A5 JUMPI PUSH1 0x0 DUP1 REVERT JUMPDEST POP GAS DELEGATECALL ISZERO DUP1 ISZERO PUSH2 0x32B9 JUMPI RETURNDATASIZE PUSH1 0x0 DUP1 RETURNDATACOPY RETURNDATASIZE PUSH1 0x0 REVERT JUMPDEST POP POP POP POP PUSH1 0x0 DUP1 PUSH2 0x32D2 DUP5 PUSH1 0x2 ADD SLOAD DUP6 PUSH1 0x3 ADD SLOAD PUSH2 0x39B7 JUMP JUMPDEST SWAP2 POP SWAP2 POP DUP4 PUSH1 0x2 ADD SLOAD PUSH1 0x0 EQ ISZERO DUP1 ISZERO PUSH2 0x3325 JUMPI POP PUSH1 0x4 DUP5 ADD SLOAD PUSH2 0x3300 SWAP1 PUSH1 0x1 PUSH1 0x1 PUSH1 0xA0 SHL SUB AND PUSH2 0x50F PUSH2 0xB22 JUMP JUMPDEST PUSH2 0x167 SLOAD PUSH2 0x330E SWAP2 SWAP1 PUSH2 0x42B8 JUMP JUMPDEST DUP5 PUSH1 0x2 ADD SLOAD DUP6 PUSH1 0x3 ADD SLOAD PUSH2 0x3322 SWAP2 SWAP1 PUSH2 0x42D7 JUMP JUMPDEST LT ISZERO JUMPDEST ISZERO PUSH2 0x342A JUMPI PUSH1 0x0 PUSH2 0x3337 PUSH1 0x2 DUP5 PUSH2 0x4296 JUMP JUMPDEST SWAP1 POP PUSH2 0x3343 DUP3 DUP3 PUSH2 0x427E JUMP JUMPDEST PUSH2 0x16B PUSH1 0x0 PUSH2 0x3350 PUSH2 0xB22 JUMP JUMPDEST PUSH1 0x1 PUSH1 0x1 PUSH1 0xA0 SHL SUB AND PUSH1 0x1 PUSH1 0x1 PUSH1 0xA0 SHL SUB AND DUP2 MSTORE PUSH1 0x20 ADD SWAP1 DUP2 MSTORE PUSH1 0x20 ADD PUSH1 0x0 KECCAK256 PUSH1 0x0 DUP3 DUP3 SLOAD PUSH2 0x337F SWAP2 SWAP1 PUSH2 0x427E JUMP JUMPDEST SWAP1 SWAP2 SSTORE POP POP PUSH1 0x4 DUP6 ADD SLOAD PUSH1 0x1 PUSH1 0x1 PUSH1 0xA0 SHL SUB AND PUSH1 0x0 SWAP1 DUP2 MSTORE PUSH2 0x16B PUSH1 0x20 MSTORE PUSH1 0x40 DUP2 KECCAK256 DUP1 SLOAD DUP4 SWAP3 SWAP1 PUSH2 0x33B1 SWAP1 DUP5 SWAP1 PUSH2 0x427E JUMP JUMPDEST SWAP1 SWAP2 SSTORE POP PUSH2 0x33BF SWAP1 POP PUSH2 0xB22 JUMP JUMPDEST PUSH1 0x1 PUSH1 0x1 PUSH1 0xA0 SHL SUB AND PUSH1 0x0 DUP1 MLOAD PUSH1 0x20 PUSH2 0x44EC DUP4 CODECOPY DUP2 MLOAD SWAP2 MSTORE PUSH2 0x33E1 DUP5 DUP5 PUSH2 0x427E JUMP JUMPDEST PUSH1 0x40 MLOAD SWAP1 DUP2 MSTORE PUSH1 0x20 ADD PUSH1 0x40 MLOAD DUP1 SWAP2 SUB SWAP1 LOG2 PUSH1 0x4 DUP6 ADD SLOAD PUSH1 0x40 MLOAD DUP3 DUP2 MSTORE PUSH1 0x1 PUSH1 0x1 PUSH1 0xA0 SHL SUB SWAP1 SWAP2 AND SWAP1 PUSH1 0x0 DUP1 MLOAD PUSH1 0x20 PUSH2 0x44EC DUP4 CODECOPY DUP2 MLOAD SWAP2 MSTORE SWAP1 PUSH1 0x20 ADD PUSH1 0x40 MLOAD DUP1 SWAP2 SUB SWAP1 LOG2 POP PUSH2 0x34B2 JUMP JUMPDEST PUSH2 0x3434 DUP2 DUP4 PUSH2 0x427E JUMP JUMPDEST PUSH2 0x16B PUSH1 0x0 PUSH2 0x3441 PUSH2 0xB22 JUMP JUMPDEST PUSH1 0x1 PUSH1 0x1 PUSH1 0xA0 SHL SUB AND PUSH1 0x1 PUSH1 0x1 PUSH1 0xA0 SHL SUB AND DUP2 MSTORE PUSH1 0x20 ADD SWAP1 DUP2 MSTORE PUSH1 0x20 ADD PUSH1 0x0 KECCAK256 PUSH1 0x0 DUP3 DUP3 SLOAD PUSH2 0x3470 SWAP2 SWAP1 PUSH2 0x427E JUMP JUMPDEST SWAP1 SWAP2 SSTORE POP PUSH2 0x347E SWAP1 POP PUSH2 0xB22 JUMP JUMPDEST PUSH1 0x1 PUSH1 0x1 PUSH1 0xA0 SHL SUB AND PUSH1 0x0 DUP1 MLOAD PUSH1 0x20 PUSH2 0x44EC DUP4 CODECOPY DUP2 MLOAD SWAP2 MSTORE PUSH2 0x34A0 DUP4 DUP6 PUSH2 0x427E JUMP JUMPDEST PUSH1 0x40 MLOAD SWAP1 DUP2 MSTORE PUSH1 0x20 ADD PUSH1 0x40 MLOAD DUP1 SWAP2 SUB SWAP1 LOG2 JUMPDEST DUP3 PUSH2 0x34BD DUP3 DUP5 PUSH2 0x427E JUMP JUMPDEST SWAP6 POP SWAP6 POP POP POP POP POP SWAP4 POP SWAP4 SWAP2 POP POP JUMP JUMPDEST PUSH1 0x33 SLOAD PUSH1 0xFF AND ISZERO PUSH2 0x34F0 JUMPI PUSH1 0x40 MLOAD PUSH3 0x461BCD PUSH1 0xE5 SHL DUP2 MSTORE PUSH1 0x4 ADD PUSH2 0xBAD SWAP1 PUSH2 0x41E1 JUMP JUMPDEST PUSH1 0x33 DUP1 SLOAD PUSH1 0xFF NOT AND PUSH1 0x1 OR SWAP1 SSTORE PUSH32 0x62E78CEA01BEE320CD4E420270B5EA74000D11B0C9F74754EBDBFC544B05A258 PUSH2 0x2ECF PUSH2 0xB22 JUMP JUMPDEST PUSH1 0x0 PUSH2 0x2109 DUP4 DUP4 PUSH2 0x3A88 JUMP JUMPDEST PUSH1 0x0 PUSH2 0xB56 DUP3 SLOAD SWAP1 JUMP JUMPDEST PUSH1 0x0 SLOAD PUSH2 0x100 SWAP1 DIV PUSH1 0xFF AND PUSH2 0x3563 JUMPI PUSH1 0x40 MLOAD PUSH3 0x461BCD PUSH1 0xE5 SHL DUP2 MSTORE PUSH1 0x4 ADD PUSH2 0xBAD SWAP1 PUSH2 0x420B JUMP JUMPDEST PUSH1 0x65 DUP1 SLOAD PUSH1 0x1 PUSH1 0x1 PUSH1 0xA0 SHL SUB NOT AND PUSH1 0x1 PUSH1 0x1 PUSH1 0xA0 SHL SUB SWAP3 SWAP1 SWAP3 AND SWAP2 SWAP1 SWAP2 OR SWAP1 SSTORE JUMP JUMPDEST PUSH1 0x60 PUSH1 0x0 PUSH2 0x3594 DUP4 PUSH1 0x2 PUSH2 0x42B8 JUMP JUMPDEST PUSH2 0x359F SWAP1 PUSH1 0x2 PUSH2 0x427E JUMP JUMPDEST PUSH8 0xFFFFFFFFFFFFFFFF DUP2 GT ISZERO PUSH2 0x35B7 JUMPI PUSH2 0x35B7 PUSH2 0x4410 JUMP JUMPDEST PUSH1 0x40 MLOAD SWAP1 DUP1 DUP3 MSTORE DUP1 PUSH1 0x1F ADD PUSH1 0x1F NOT AND PUSH1 0x20 ADD DUP3 ADD PUSH1 0x40 MSTORE DUP1 ISZERO PUSH2 0x35E1 JUMPI PUSH1 0x20 DUP3 ADD DUP2 DUP1 CALLDATASIZE DUP4 CALLDATACOPY ADD SWAP1 POP JUMPDEST POP SWAP1 POP PUSH1 0x3 PUSH1 0xFC SHL DUP2 PUSH1 0x0 DUP2 MLOAD DUP2 LT PUSH2 0x35FC JUMPI PUSH2 0x35FC PUSH2 0x43FA JUMP JUMPDEST PUSH1 0x20 ADD ADD SWAP1 PUSH1 0x1 PUSH1 0x1 PUSH1 0xF8 SHL SUB NOT AND SWAP1 DUP2 PUSH1 0x0 BYTE SWAP1 MSTORE8 POP PUSH1 0xF PUSH1 0xFB SHL DUP2 PUSH1 0x1 DUP2 MLOAD DUP2 LT PUSH2 0x362B JUMPI PUSH2 0x362B PUSH2 0x43FA JUMP JUMPDEST PUSH1 0x20 ADD ADD SWAP1 PUSH1 0x1 PUSH1 0x1 PUSH1 0xF8 SHL SUB NOT AND SWAP1 DUP2 PUSH1 0x0 BYTE SWAP1 MSTORE8 POP PUSH1 0x0 PUSH2 0x364F DUP5 PUSH1 0x2 PUSH2 0x42B8 JUMP JUMPDEST PUSH2 0x365A SWAP1 PUSH1 0x1 PUSH2 0x427E JUMP JUMPDEST SWAP1 POP JUMPDEST PUSH1 0x1 DUP2 GT ISZERO PUSH2 0x36D2 JUMPI PUSH16 0x181899199A1A9B1B9C1CB0B131B232B3 PUSH1 0x81 SHL DUP6 PUSH1 0xF AND PUSH1 0x10 DUP2 LT PUSH2 0x368E JUMPI PUSH2 0x368E PUSH2 0x43FA JUMP JUMPDEST BYTE PUSH1 0xF8 SHL DUP3 DUP3 DUP2 MLOAD DUP2 LT PUSH2 0x36A4 JUMPI PUSH2 0x36A4 PUSH2 0x43FA JUMP JUMPDEST PUSH1 0x20 ADD ADD SWAP1 PUSH1 0x1 PUSH1 0x1 PUSH1 0xF8 SHL SUB NOT AND SWAP1 DUP2 PUSH1 0x0 BYTE SWAP1 MSTORE8 POP PUSH1 0x4 SWAP5 SWAP1 SWAP5 SHR SWAP4 PUSH2 0x36CB DUP2 PUSH2 0x431E JUMP JUMPDEST SWAP1 POP PUSH2 0x365D JUMP JUMPDEST POP DUP4 ISZERO PUSH2 0x2109 JUMPI PUSH1 0x40 MLOAD PUSH3 0x461BCD PUSH1 0xE5 SHL DUP2 MSTORE PUSH1 0x20 PUSH1 0x4 DUP3 ADD DUP2 SWAP1 MSTORE PUSH1 0x24 DUP3 ADD MSTORE PUSH32 0x537472696E67733A20686578206C656E67746820696E73756666696369656E74 PUSH1 0x44 DUP3 ADD MSTORE PUSH1 0x64 ADD PUSH2 0xBAD JUMP JUMPDEST PUSH1 0x0 SLOAD PUSH2 0x100 SWAP1 DIV PUSH1 0xFF AND PUSH2 0x179A JUMPI PUSH1 0x40 MLOAD PUSH3 0x461BCD PUSH1 0xE5 SHL DUP2 MSTORE PUSH1 0x4 ADD PUSH2 0xBAD SWAP1 PUSH2 0x420B JUMP JUMPDEST PUSH1 0x0 SLOAD PUSH2 0x100 SWAP1 DIV PUSH1 0xFF AND PUSH2 0x376F JUMPI PUSH1 0x40 MLOAD PUSH3 0x461BCD PUSH1 0xE5 SHL DUP2 MSTORE PUSH1 0x4 ADD PUSH2 0xBAD SWAP1 PUSH2 0x420B JUMP JUMPDEST PUSH1 0x1 PUSH2 0x12D SSTORE JUMP JUMPDEST PUSH1 0x0 SLOAD PUSH2 0x100 SWAP1 DIV PUSH1 0xFF AND PUSH2 0x379E JUMPI PUSH1 0x40 MLOAD PUSH3 0x461BCD PUSH1 0xE5 SHL DUP2 MSTORE PUSH1 0x4 ADD PUSH2 0xBAD SWAP1 PUSH2 0x420B JUMP JUMPDEST PUSH1 0x33 DUP1 SLOAD PUSH1 0xFF NOT AND SWAP1 SSTORE JUMP JUMPDEST PUSH2 0x37B4 DUP3 DUP3 PUSH2 0x2110 JUMP JUMPDEST PUSH2 0x158B JUMPI PUSH1 0x0 DUP3 DUP2 MSTORE PUSH1 0xC9 PUSH1 0x20 SWAP1 DUP2 MSTORE PUSH1 0x40 DUP1 DUP4 KECCAK256 PUSH1 0x1 PUSH1 0x1 PUSH1 0xA0 SHL SUB DUP6 AND DUP5 MSTORE SWAP1 SWAP2 MSTORE SWAP1 KECCAK256 DUP1 SLOAD PUSH1 0xFF NOT AND PUSH1 0x1 OR SWAP1 SSTORE PUSH2 0x37ED PUSH2 0xB22 JUMP JUMPDEST PUSH1 0x1 PUSH1 0x1 PUSH1 0xA0 SHL SUB AND DUP2 PUSH1 0x1 PUSH1 0x1 PUSH1 0xA0 SHL SUB AND DUP4 PUSH32 0x2F8788117E7EFF1D82E926EC794901D17C78024A50270940304540A733656F0D PUSH1 0x40 MLOAD PUSH1 0x40 MLOAD DUP1 SWAP2 SUB SWAP1 LOG4 POP POP JUMP JUMPDEST PUSH1 0x0 PUSH2 0x2109 DUP4 PUSH1 0x1 PUSH1 0x1 PUSH1 0xA0 SHL SUB DUP5 AND PUSH2 0x3AB2 JUMP JUMPDEST PUSH2 0x3850 DUP3 DUP3 PUSH2 0x2110 JUMP JUMPDEST ISZERO PUSH2 0x158B JUMPI PUSH1 0x0 DUP3 DUP2 MSTORE PUSH1 0xC9 PUSH1 0x20 SWAP1 DUP2 MSTORE PUSH1 0x40 DUP1 DUP4 KECCAK256 PUSH1 0x1 PUSH1 0x1 PUSH1 0xA0 SHL SUB DUP6 AND DUP5 MSTORE SWAP1 SWAP2 MSTORE SWAP1 KECCAK256 DUP1 SLOAD PUSH1 0xFF NOT AND SWAP1 SSTORE PUSH2 0x3887 PUSH2 0xB22 JUMP JUMPDEST PUSH1 0x1 PUSH1 0x1 PUSH1 0xA0 SHL SUB AND DUP2 PUSH1 0x1 PUSH1 0x1 PUSH1 0xA0 SHL SUB AND DUP4 PUSH32 0xF6391F5C32D9C69D2A47EA670B442974B53935D1EDC7FD64EB21E047A839171B PUSH1 0x40 MLOAD PUSH1 0x40 MLOAD DUP1 SWAP2 SUB SWAP1 LOG4 POP POP JUMP JUMPDEST PUSH1 0x0 PUSH2 0x2109 DUP4 PUSH1 0x1 PUSH1 0x1 PUSH1 0xA0 SHL SUB DUP5 AND PUSH2 0x3B01 JUMP JUMPDEST PUSH2 0x164 SLOAD PUSH1 0x40 MLOAD PUSH4 0xD0DEF521 PUSH1 0xE0 SHL DUP2 MSTORE PUSH1 0x0 SWAP2 PUSH1 0x1 PUSH1 0x1 PUSH1 0xA0 SHL SUB AND SWAP1 PUSH4 0xD0DEF521 SWAP1 PUSH2 0x3914 SWAP1 DUP7 SWAP1 DUP7 SWAP1 PUSH1 0x4 ADD PUSH2 0x4062 JUMP JUMPDEST PUSH1 0x20 PUSH1 0x40 MLOAD DUP1 DUP4 SUB DUP2 PUSH1 0x0 DUP8 DUP1 EXTCODESIZE ISZERO DUP1 ISZERO PUSH2 0x392E JUMPI PUSH1 0x0 DUP1 REVERT JUMPDEST POP GAS CALL SWAP3 POP POP POP DUP1 ISZERO PUSH2 0x395E JUMPI POP PUSH1 0x40 DUP1 MLOAD PUSH1 0x1F RETURNDATASIZE SWAP1 DUP2 ADD PUSH1 0x1F NOT AND DUP3 ADD SWAP1 SWAP3 MSTORE PUSH2 0x395B SWAP2 DUP2 ADD SWAP1 PUSH2 0x3E44 JUMP JUMPDEST PUSH1 0x1 JUMPDEST PUSH2 0x39B0 JUMPI PUSH2 0x396A PUSH2 0x4426 JUMP JUMPDEST DUP1 PUSH4 0x8C379A0 EQ ISZERO PUSH2 0x39A4 JUMPI POP PUSH2 0x397F PUSH2 0x4441 JUMP JUMPDEST DUP1 PUSH2 0x398A JUMPI POP PUSH2 0x39A6 JUMP JUMPDEST DUP1 PUSH1 0x40 MLOAD PUSH3 0x461BCD PUSH1 0xE5 SHL DUP2 MSTORE PUSH1 0x4 ADD PUSH2 0xBAD SWAP2 SWAP1 PUSH2 0x40D6 JUMP JUMPDEST POP JUMPDEST RETURNDATASIZE PUSH1 0x0 DUP1 RETURNDATACOPY RETURNDATASIZE PUSH1 0x0 REVERT JUMPDEST SWAP1 POP PUSH2 0xB56 JUMP JUMPDEST PUSH1 0x0 DUP1 DUP1 PUSH2 0x2710 PUSH12 0xFFFFFFFFFFFFFFFFFFFFFFFF AND PUSH2 0x163 SLOAD DUP7 DUP7 PUSH2 0x39DC SWAP2 SWAP1 PUSH2 0x42D7 JUMP JUMPDEST PUSH2 0x39E6 SWAP2 SWAP1 PUSH2 0x42B8 JUMP JUMPDEST PUSH2 0x39F0 SWAP2 SWAP1 PUSH2 0x4296 JUMP JUMPDEST SWAP1 POP PUSH1 0x0 PUSH2 0x2710 PUSH12 0xFFFFFFFFFFFFFFFFFFFFFFFF AND PUSH2 0x163 SLOAD DUP8 PUSH2 0x3A14 SWAP2 SWAP1 PUSH2 0x42B8 JUMP JUMPDEST PUSH2 0x3A1E SWAP2 SWAP1 PUSH2 0x4296 JUMP JUMPDEST SWAP1 POP PUSH2 0x3A2A DUP2 DUP4 PUSH2 0x427E JUMP JUMPDEST PUSH2 0x15F SLOAD PUSH1 0x1 PUSH1 0x1 PUSH1 0xA0 SHL SUB AND PUSH1 0x0 SWAP1 DUP2 MSTORE PUSH2 0x16B PUSH1 0x20 MSTORE PUSH1 0x40 DUP2 KECCAK256 DUP1 SLOAD SWAP1 SWAP2 SWAP1 PUSH2 0x3A56 SWAP1 DUP5 SWAP1 PUSH2 0x427E JUMP JUMPDEST SWAP1 SWAP2 SSTORE POP DUP3 SWAP1 POP PUSH2 0x3A67 DUP8 DUP8 PUSH2 0x42D7 JUMP JUMPDEST PUSH2 0x3A71 SWAP2 SWAP1 PUSH2 0x42D7 JUMP JUMPDEST PUSH2 0x3A7B DUP3 DUP9 PUSH2 0x42D7 JUMP JUMPDEST SWAP4 POP SWAP4 POP POP POP SWAP3 POP SWAP3 SWAP1 POP JUMP JUMPDEST PUSH1 0x0 DUP3 PUSH1 0x0 ADD DUP3 DUP2 SLOAD DUP2 LT PUSH2 0x3A9F JUMPI PUSH2 0x3A9F PUSH2 0x43FA JUMP JUMPDEST SWAP1 PUSH1 0x0 MSTORE PUSH1 0x20 PUSH1 0x0 KECCAK256 ADD SLOAD SWAP1 POP SWAP3 SWAP2 POP POP JUMP JUMPDEST PUSH1 0x0 DUP2 DUP2 MSTORE PUSH1 0x1 DUP4 ADD PUSH1 0x20 MSTORE PUSH1 0x40 DUP2 KECCAK256 SLOAD PUSH2 0x3AF9 JUMPI POP DUP2 SLOAD PUSH1 0x1 DUP2 DUP2 ADD DUP5 SSTORE PUSH1 0x0 DUP5 DUP2 MSTORE PUSH1 0x20 DUP1 DUP3 KECCAK256 SWAP1 SWAP4 ADD DUP5 SWAP1 SSTORE DUP5 SLOAD DUP5 DUP3 MSTORE DUP3 DUP7 ADD SWAP1 SWAP4 MSTORE PUSH1 0x40 SWAP1 KECCAK256 SWAP2 SWAP1 SWAP2 SSTORE PUSH2 0xB56 JUMP JUMPDEST POP PUSH1 0x0 PUSH2 0xB56 JUMP JUMPDEST PUSH1 0x0 DUP2 DUP2 MSTORE PUSH1 0x1 DUP4 ADD PUSH1 0x20 MSTORE PUSH1 0x40 DUP2 KECCAK256 SLOAD DUP1 ISZERO PUSH2 0x3BEA JUMPI PUSH1 0x0 PUSH2 0x3B25 PUSH1 0x1 DUP4 PUSH2 0x42D7 JUMP JUMPDEST DUP6 SLOAD SWAP1 SWAP2 POP PUSH1 0x0 SWAP1 PUSH2 0x3B39 SWAP1 PUSH1 0x1 SWAP1 PUSH2 0x42D7 JUMP JUMPDEST SWAP1 POP DUP2 DUP2 EQ PUSH2 0x3B9E JUMPI PUSH1 0x0 DUP7 PUSH1 0x0 ADD DUP3 DUP2 SLOAD DUP2 LT PUSH2 0x3B59 JUMPI PUSH2 0x3B59 PUSH2 0x43FA JUMP JUMPDEST SWAP1 PUSH1 0x0 MSTORE PUSH1 0x20 PUSH1 0x0 KECCAK256 ADD SLOAD SWAP1 POP DUP1 DUP8 PUSH1 0x0 ADD DUP5 DUP2 SLOAD DUP2 LT PUSH2 0x3B7C JUMPI PUSH2 0x3B7C PUSH2 0x43FA JUMP JUMPDEST PUSH1 0x0 SWAP2 DUP3 MSTORE PUSH1 0x20 DUP1 DUP4 KECCAK256 SWAP1 SWAP2 ADD SWAP3 SWAP1 SWAP3 SSTORE SWAP2 DUP3 MSTORE PUSH1 0x1 DUP9 ADD SWAP1 MSTORE PUSH1 0x40 SWAP1 KECCAK256 DUP4 SWAP1 SSTORE JUMPDEST DUP6 SLOAD DUP7 SWAP1 DUP1 PUSH2 0x3BAF JUMPI PUSH2 0x3BAF PUSH2 0x43E4 JUMP JUMPDEST PUSH1 0x1 SWAP1 SUB DUP2 DUP2 SWAP1 PUSH1 0x0 MSTORE PUSH1 0x20 PUSH1 0x0 KECCAK256 ADD PUSH1 0x0 SWAP1 SSTORE SWAP1 SSTORE DUP6 PUSH1 0x1 ADD PUSH1 0x0 DUP7 DUP2 MSTORE PUSH1 0x20 ADD SWAP1 DUP2 MSTORE PUSH1 0x20 ADD PUSH1 0x0 KECCAK256 PUSH1 0x0 SWAP1 SSTORE PUSH1 0x1 SWAP4 POP POP POP POP PUSH2 0xB56 JUMP JUMPDEST PUSH1 0x0 SWAP2 POP POP PUSH2 0xB56 JUMP JUMPDEST DUP3 DUP1 SLOAD PUSH2 0x3C00 SWAP1 PUSH2 0x4335 JUMP JUMPDEST SWAP1 PUSH1 0x0 MSTORE PUSH1 0x20 PUSH1 0x0 KECCAK256 SWAP1 PUSH1 0x1F ADD PUSH1 0x20 SWAP1 DIV DUP2 ADD SWAP3 DUP3 PUSH2 0x3C22 JUMPI PUSH1 0x0 DUP6 SSTORE PUSH2 0x3C68 JUMP JUMPDEST DUP3 PUSH1 0x1F LT PUSH2 0x3C3B JUMPI DUP1 MLOAD PUSH1 0xFF NOT AND DUP4 DUP1 ADD OR DUP6 SSTORE PUSH2 0x3C68 JUMP JUMPDEST DUP3 DUP1 ADD PUSH1 0x1 ADD DUP6 SSTORE DUP3 ISZERO PUSH2 0x3C68 JUMPI SWAP2 DUP3 ADD JUMPDEST DUP3 DUP2 GT ISZERO PUSH2 0x3C68 JUMPI DUP3 MLOAD DUP3 SSTORE SWAP2 PUSH1 0x20 ADD SWAP2 SWAP1 PUSH1 0x1 ADD SWAP1 PUSH2 0x3C4D JUMP JUMPDEST POP PUSH2 0x2672 SWAP3 SWAP2 POP PUSH2 0x3CAE JUMP JUMPDEST DUP3 DUP1 SLOAD DUP3 DUP3 SSTORE SWAP1 PUSH1 0x0 MSTORE PUSH1 0x20 PUSH1 0x0 KECCAK256 SWAP1 DUP2 ADD SWAP3 DUP3 ISZERO PUSH2 0x3C68 JUMPI SWAP2 PUSH1 0x20 MUL DUP3 ADD DUP3 DUP2 GT ISZERO PUSH2 0x3C68 JUMPI DUP3 MLOAD DUP3 SSTORE SWAP2 PUSH1 0x20 ADD SWAP2 SWAP1 PUSH1 0x1 ADD SWAP1 PUSH2 0x3C4D JUMP JUMPDEST JUMPDEST DUP1 DUP3 GT ISZERO PUSH2 0x2672 JUMPI PUSH1 0x0 DUP2 SSTORE PUSH1 0x1 ADD PUSH2 0x3CAF JUMP JUMPDEST DUP1 CALLDATALOAD PUSH1 0x1 PUSH1 0x1 PUSH1 0xA0 SHL SUB DUP2 AND DUP2 EQ PUSH2 0x3CDA JUMPI PUSH1 0x0 DUP1 REVERT JUMPDEST SWAP2 SWAP1 POP JUMP JUMPDEST PUSH1 0x0 DUP3 PUSH1 0x1F DUP4 ADD SLT PUSH2 0x3CF0 JUMPI PUSH1 0x0 DUP1 REVERT JUMPDEST DUP2 CALLDATALOAD PUSH8 0xFFFFFFFFFFFFFFFF DUP2 GT ISZERO PUSH2 0x3D0A JUMPI PUSH2 0x3D0A PUSH2 0x4410 JUMP JUMPDEST PUSH1 0x40 MLOAD PUSH2 0x3D21 PUSH1 0x1F DUP4 ADD PUSH1 0x1F NOT AND PUSH1 0x20 ADD DUP3 PUSH2 0x4370 JUMP JUMPDEST DUP2 DUP2 MSTORE DUP5 PUSH1 0x20 DUP4 DUP7 ADD ADD GT ISZERO PUSH2 0x3D36 JUMPI PUSH1 0x0 DUP1 REVERT JUMPDEST DUP2 PUSH1 0x20 DUP6 ADD PUSH1 0x20 DUP4 ADD CALLDATACOPY PUSH1 0x0 SWAP2 DUP2 ADD PUSH1 0x20 ADD SWAP2 SWAP1 SWAP2 MSTORE SWAP4 SWAP3 POP POP POP JUMP JUMPDEST PUSH1 0x0 PUSH1 0x20 DUP3 DUP5 SUB SLT ISZERO PUSH2 0x3D65 JUMPI PUSH1 0x0 DUP1 REVERT JUMPDEST PUSH2 0x2109 DUP3 PUSH2 0x3CC3 JUMP JUMPDEST PUSH1 0x0 DUP1 PUSH1 0x40 DUP4 DUP6 SUB SLT ISZERO PUSH2 0x3D81 JUMPI PUSH1 0x0 DUP1 REVERT JUMPDEST PUSH2 0x3D8A DUP4 PUSH2 0x3CC3 JUMP JUMPDEST SWAP2 POP PUSH2 0x3D98 PUSH1 0x20 DUP5 ADD PUSH2 0x3CC3 JUMP JUMPDEST SWAP1 POP SWAP3 POP SWAP3 SWAP1 POP JUMP JUMPDEST PUSH1 0x0 DUP1 PUSH1 0x0 PUSH1 0x60 DUP5 DUP7 SUB SLT ISZERO PUSH2 0x3DB6 JUMPI PUSH1 0x0 DUP1 REVERT JUMPDEST PUSH2 0x3DBF DUP5 PUSH2 0x3CC3 JUMP JUMPDEST SWAP3 POP PUSH1 0x20 DUP5 ADD CALLDATALOAD SWAP2 POP PUSH1 0x40 DUP5 ADD CALLDATALOAD PUSH8 0xFFFFFFFFFFFFFFFF DUP2 GT ISZERO PUSH2 0x3DE2 JUMPI PUSH1 0x0 DUP1 REVERT JUMPDEST PUSH2 0x3DEE DUP7 DUP3 DUP8 ADD PUSH2 0x3CDF JUMP JUMPDEST SWAP2 POP POP SWAP3 POP SWAP3 POP SWAP3 JUMP JUMPDEST PUSH1 0x0 DUP1 PUSH1 0x0 PUSH1 0x60 DUP5 DUP7 SUB SLT ISZERO PUSH2 0x3E0D JUMPI PUSH1 0x0 DUP1 REVERT JUMPDEST PUSH2 0x3E16 DUP5 PUSH2 0x3CC3 JUMP JUMPDEST SWAP6 PUSH1 0x20 DUP6 ADD CALLDATALOAD SWAP6 POP PUSH1 0x40 SWAP1 SWAP5 ADD CALLDATALOAD SWAP4 SWAP3 POP POP POP JUMP JUMPDEST PUSH1 0x0 PUSH1 0x20 DUP3 DUP5 SUB SLT ISZERO PUSH2 0x3E3D JUMPI PUSH1 0x0 DUP1 REVERT JUMPDEST POP CALLDATALOAD SWAP2 SWAP1 POP JUMP JUMPDEST PUSH1 0x0 PUSH1 0x20 DUP3 DUP5 SUB SLT ISZERO PUSH2 0x3E56 JUMPI PUSH1 0x0 DUP1 REVERT JUMPDEST POP MLOAD SWAP2 SWAP1 POP JUMP JUMPDEST PUSH1 0x0 DUP1 PUSH1 0x40 DUP4 DUP6 SUB SLT ISZERO PUSH2 0x3E70 JUMPI PUSH1 0x0 DUP1 REVERT JUMPDEST DUP3 CALLDATALOAD SWAP2 POP PUSH2 0x3D98 PUSH1 0x20 DUP5 ADD PUSH2 0x3CC3 JUMP JUMPDEST PUSH1 0x0 DUP1 PUSH1 0x0 PUSH1 0x60 DUP5 DUP7 SUB SLT ISZERO PUSH2 0x3E95 JUMPI PUSH1 0x0 DUP1 REVERT JUMPDEST DUP4 CALLDATALOAD SWAP3 POP PUSH1 0x20 DUP5 ADD CALLDATALOAD PUSH8 0xFFFFFFFFFFFFFFFF DUP1 DUP3 GT ISZERO PUSH2 0x3EB4 JUMPI PUSH1 0x0 DUP1 REVERT JUMPDEST PUSH2 0x3EC0 DUP8 DUP4 DUP9 ADD PUSH2 0x3CDF JUMP JUMPDEST SWAP4 POP PUSH1 0x40 DUP7 ADD CALLDATALOAD SWAP2 POP DUP1 DUP3 GT ISZERO PUSH2 0x3ED6 JUMPI PUSH1 0x0 DUP1 REVERT JUMPDEST POP PUSH2 0x3DEE DUP7 DUP3 DUP8 ADD PUSH2 0x3CDF JUMP JUMPDEST PUSH1 0x0 DUP1 PUSH1 0x40 DUP4 DUP6 SUB SLT ISZERO PUSH2 0x3EF6 JUMPI PUSH1 0x0 DUP1 REVERT JUMPDEST POP POP DUP1 CALLDATALOAD SWAP3 PUSH1 0x20 SWAP1 SWAP2 ADD CALLDATALOAD SWAP2 POP JUMP JUMPDEST PUSH1 0x0 DUP1 PUSH1 0x0 PUSH1 0x60 DUP5 DUP7 SUB SLT ISZERO PUSH2 0x3F1A JUMPI PUSH1 0x0 DUP1 REVERT JUMPDEST POP POP DUP2 CALLDATALOAD SWAP4 PUSH1 0x20 DUP4 ADD CALLDATALOAD SWAP4 POP PUSH1 0x40 SWAP1 SWAP3 ADD CALLDATALOAD SWAP2 SWAP1 POP JUMP JUMPDEST PUSH1 0x0 PUSH1 0x20 DUP3 DUP5 SUB SLT ISZERO PUSH2 0x3F43 JUMPI PUSH1 0x0 DUP1 REVERT JUMPDEST DUP2 CALLDATALOAD PUSH1 0x1 PUSH1 0x1 PUSH1 0xE0 SHL SUB NOT DUP2 AND DUP2 EQ PUSH2 0x2109 JUMPI PUSH1 0x0 DUP1 REVERT JUMPDEST PUSH1 0x0 DUP1 PUSH1 0x0 DUP1 PUSH1 0x0 DUP1 PUSH1 0xC0 DUP8 DUP10 SUB SLT ISZERO PUSH2 0x3F74 JUMPI PUSH1 0x0 DUP1 REVERT JUMPDEST DUP7 CALLDATALOAD SWAP6 POP PUSH1 0x20 DUP8 ADD CALLDATALOAD SWAP5 POP PUSH2 0x3F8B PUSH1 0x40 DUP9 ADD PUSH2 0x3CC3 JUMP JUMPDEST SWAP4 POP PUSH2 0x3F99 PUSH1 0x60 DUP9 ADD PUSH2 0x3CC3 JUMP JUMPDEST SWAP3 POP PUSH2 0x3FA7 PUSH1 0x80 DUP9 ADD PUSH2 0x3CC3 JUMP JUMPDEST SWAP2 POP PUSH2 0x3FB5 PUSH1 0xA0 DUP9 ADD PUSH2 0x3CC3 JUMP JUMPDEST SWAP1 POP SWAP3 SWAP6 POP SWAP3 SWAP6 POP SWAP3 SWAP6 JUMP JUMPDEST PUSH1 0x0 DUP2 MLOAD DUP1 DUP5 MSTORE PUSH2 0x3FD9 DUP2 PUSH1 0x20 DUP7 ADD PUSH1 0x20 DUP7 ADD PUSH2 0x42EE JUMP JUMPDEST PUSH1 0x1F ADD PUSH1 0x1F NOT AND SWAP3 SWAP1 SWAP3 ADD PUSH1 0x20 ADD SWAP3 SWAP2 POP POP JUMP JUMPDEST PUSH32 0x416363657373436F6E74726F6C3A206163636F756E7420000000000000000000 DUP2 MSTORE PUSH1 0x0 DUP4 MLOAD PUSH2 0x4025 DUP2 PUSH1 0x17 DUP6 ADD PUSH1 0x20 DUP9 ADD PUSH2 0x42EE JUMP JUMPDEST PUSH17 0x1034B99036B4B9B9B4B733903937B6329 PUSH1 0x7D SHL PUSH1 0x17 SWAP2 DUP5 ADD SWAP2 DUP3 ADD MSTORE DUP4 MLOAD PUSH2 0x4056 DUP2 PUSH1 0x28 DUP5 ADD PUSH1 0x20 DUP9 ADD PUSH2 0x42EE JUMP JUMPDEST ADD PUSH1 0x28 ADD SWAP5 SWAP4 POP POP POP POP JUMP JUMPDEST PUSH1 0x1 PUSH1 0x1 PUSH1 0xA0 SHL SUB DUP4 AND DUP2 MSTORE PUSH1 0x40 PUSH1 0x20 DUP3 ADD DUP2 SWAP1 MSTORE PUSH1 0x0 SWAP1 PUSH2 0x4086 SWAP1 DUP4 ADD DUP5 PUSH2 0x3FC1 JUMP JUMPDEST SWAP5 SWAP4 POP POP POP POP JUMP JUMPDEST PUSH1 0x40 DUP1 DUP3 MSTORE DUP4 MLOAD SWAP1 DUP3 ADD DUP2 SWAP1 MSTORE PUSH1 0x0 SWAP1 PUSH1 0x20 SWAP1 PUSH1 0x60 DUP5 ADD SWAP1 DUP3 DUP8 ADD DUP5 JUMPDEST DUP3 DUP2 LT ISZERO PUSH2 0x40C7 JUMPI DUP2 MLOAD DUP5 MSTORE SWAP3 DUP5 ADD SWAP3 SWAP1 DUP5 ADD SWAP1 PUSH1 0x1 ADD PUSH2 0x40AB JUMP JUMPDEST POP POP POP SWAP3 ADD SWAP3 SWAP1 SWAP3 MSTORE SWAP3 SWAP2 POP POP JUMP JUMPDEST PUSH1 0x20 DUP2 MSTORE PUSH1 0x0 PUSH2 0x2109 PUSH1 0x20 DUP4 ADD DUP5 PUSH2 0x3FC1 JUMP JUMPDEST PUSH1 0x40 DUP2 MSTORE PUSH1 0x0 PUSH2 0x40FC PUSH1 0x40 DUP4 ADD DUP6 PUSH2 0x3FC1 JUMP JUMPDEST SWAP1 POP PUSH1 0x1 DUP1 PUSH1 0xA0 SHL SUB DUP4 AND PUSH1 0x20 DUP4 ADD MSTORE SWAP4 SWAP3 POP POP POP JUMP JUMPDEST PUSH1 0x0 PUSH2 0x160 DUP1 DUP4 MSTORE PUSH2 0x4127 DUP2 DUP5 ADD DUP16 PUSH2 0x3FC1 JUMP JUMPDEST SWAP1 POP DUP3 DUP2 SUB PUSH1 0x20 DUP5 ADD MSTORE PUSH2 0x413B DUP2 DUP15 PUSH2 0x3FC1 JUMP JUMPDEST PUSH1 0x40 DUP5 ADD DUP14 SWAP1 MSTORE PUSH1 0x60 DUP5 ADD DUP13 SWAP1 MSTORE PUSH1 0x1 PUSH1 0x1 PUSH1 0xA0 SHL SUB DUP12 DUP2 AND PUSH1 0x80 DUP7 ADD MSTORE DUP11 AND PUSH1 0xA0 DUP6 ADD MSTORE PUSH1 0xC0 DUP5 ADD DUP10 SWAP1 MSTORE PUSH1 0xE0 DUP5 ADD DUP9 SWAP1 MSTORE SWAP2 POP POP PUSH1 0x4 DUP6 LT PUSH2 0x418F JUMPI PUSH4 0x4E487B71 PUSH1 0xE0 SHL PUSH1 0x0 MSTORE PUSH1 0x21 PUSH1 0x4 MSTORE PUSH1 0x24 PUSH1 0x0 REVERT JUMPDEST DUP5 PUSH2 0x100 DUP4 ADD MSTORE DUP4 PUSH2 0x120 DUP4 ADD MSTORE PUSH2 0x41AC PUSH2 0x140 DUP4 ADD DUP5 ISZERO ISZERO SWAP1 MSTORE JUMP JUMPDEST SWAP13 SWAP12 POP POP POP POP POP POP POP POP POP POP POP POP JUMP JUMPDEST PUSH1 0x60 DUP2 MSTORE PUSH1 0x0 PUSH2 0x41CF PUSH1 0x60 DUP4 ADD DUP7 PUSH2 0x3FC1 JUMP JUMPDEST PUSH1 0x20 DUP4 ADD SWAP5 SWAP1 SWAP5 MSTORE POP PUSH1 0x40 ADD MSTORE SWAP2 SWAP1 POP JUMP JUMPDEST PUSH1 0x20 DUP1 DUP3 MSTORE PUSH1 0x10 SWAP1 DUP3 ADD MSTORE PUSH16 0x14185D5CD8589B194E881C185D5CD959 PUSH1 0x82 SHL PUSH1 0x40 DUP3 ADD MSTORE PUSH1 0x60 ADD SWAP1 JUMP JUMPDEST PUSH1 0x20 DUP1 DUP3 MSTORE PUSH1 0x2B SWAP1 DUP3 ADD MSTORE PUSH32 0x496E697469616C697A61626C653A20636F6E7472616374206973206E6F742069 PUSH1 0x40 DUP3 ADD MSTORE PUSH11 0x6E697469616C697A696E67 PUSH1 0xA8 SHL PUSH1 0x60 DUP3 ADD MSTORE PUSH1 0x80 ADD SWAP1 JUMP JUMPDEST DUP4 DUP2 MSTORE DUP3 PUSH1 0x20 DUP3 ADD MSTORE PUSH1 0x60 PUSH1 0x40 DUP3 ADD MSTORE PUSH1 0x0 PUSH2 0x4275 PUSH1 0x60 DUP4 ADD DUP5 PUSH2 0x3FC1 JUMP JUMPDEST SWAP6 SWAP5 POP POP POP POP POP JUMP JUMPDEST PUSH1 0x0 DUP3 NOT DUP3 GT ISZERO PUSH2 0x4291 JUMPI PUSH2 0x4291 PUSH2 0x43B8 JUMP JUMPDEST POP ADD SWAP1 JUMP JUMPDEST PUSH1 0x0 DUP3 PUSH2 0x42B3 JUMPI PUSH4 0x4E487B71 PUSH1 0xE0 SHL PUSH1 0x0 MSTORE PUSH1 0x12 PUSH1 0x4 MSTORE PUSH1 0x24 PUSH1 0x0 REVERT JUMPDEST POP DIV SWAP1 JUMP JUMPDEST PUSH1 0x0 DUP2 PUSH1 0x0 NOT DIV DUP4 GT DUP3 ISZERO ISZERO AND ISZERO PUSH2 0x42D2 JUMPI PUSH2 0x42D2 PUSH2 0x43B8 JUMP JUMPDEST POP MUL SWAP1 JUMP JUMPDEST PUSH1 0x0 DUP3 DUP3 LT ISZERO PUSH2 0x42E9 JUMPI PUSH2 0x42E9 PUSH2 0x43B8 JUMP JUMPDEST POP SUB SWAP1 JUMP JUMPDEST PUSH1 0x0 JUMPDEST DUP4 DUP2 LT ISZERO PUSH2 0x4309 JUMPI DUP2 DUP2 ADD MLOAD DUP4 DUP3 ADD MSTORE PUSH1 0x20 ADD PUSH2 0x42F1 JUMP JUMPDEST DUP4 DUP2 GT ISZERO PUSH2 0x4318 JUMPI PUSH1 0x0 DUP5 DUP5 ADD MSTORE JUMPDEST POP POP POP POP JUMP JUMPDEST PUSH1 0x0 DUP2 PUSH2 0x432D JUMPI PUSH2 0x432D PUSH2 0x43B8 JUMP JUMPDEST POP PUSH1 0x0 NOT ADD SWAP1 JUMP JUMPDEST PUSH1 0x1 DUP2 DUP2 SHR SWAP1 DUP3 AND DUP1 PUSH2 0x4349 JUMPI PUSH1 0x7F DUP3 AND SWAP2 POP JUMPDEST PUSH1 0x20 DUP3 LT DUP2 EQ ISZERO PUSH2 0x436A JUMPI PUSH4 0x4E487B71 PUSH1 0xE0 SHL PUSH1 0x0 MSTORE PUSH1 0x22 PUSH1 0x4 MSTORE PUSH1 0x24 PUSH1 0x0 REVERT JUMPDEST POP SWAP2 SWAP1 POP JUMP JUMPDEST PUSH1 0x1F DUP3 ADD PUSH1 0x1F NOT AND DUP2 ADD PUSH8 0xFFFFFFFFFFFFFFFF DUP2 GT DUP3 DUP3 LT OR ISZERO PUSH2 0x4396 JUMPI PUSH2 0x4396 PUSH2 0x4410 JUMP JUMPDEST PUSH1 0x40 MSTORE POP POP JUMP JUMPDEST PUSH1 0x0 PUSH1 0x0 NOT DUP3 EQ ISZERO PUSH2 0x43B1 JUMPI PUSH2 0x43B1 PUSH2 0x43B8 JUMP JUMPDEST POP PUSH1 0x1 ADD SWAP1 JUMP JUMPDEST PUSH4 0x4E487B71 PUSH1 0xE0 SHL PUSH1 0x0 MSTORE PUSH1 0x11 PUSH1 0x4 MSTORE PUSH1 0x24 PUSH1 0x0 REVERT JUMPDEST PUSH4 0x4E487B71 PUSH1 0xE0 SHL PUSH1 0x0 MSTORE PUSH1 0x21 PUSH1 0x4 MSTORE PUSH1 0x24 PUSH1 0x0 REVERT JUMPDEST PUSH4 0x4E487B71 PUSH1 0xE0 SHL PUSH1 0x0 MSTORE PUSH1 0x31 PUSH1 0x4 MSTORE PUSH1 0x24 PUSH1 0x0 REVERT JUMPDEST PUSH4 0x4E487B71 PUSH1 0xE0 SHL PUSH1 0x0 MSTORE PUSH1 0x32 PUSH1 0x4 MSTORE PUSH1 0x24 PUSH1 0x0 REVERT JUMPDEST PUSH4 0x4E487B71 PUSH1 0xE0 SHL PUSH1 0x0 MSTORE PUSH1 0x41 PUSH1 0x4 MSTORE PUSH1 0x24 PUSH1 0x0 REVERT JUMPDEST PUSH1 0x0 PUSH1 0x3 RETURNDATASIZE GT ISZERO PUSH2 0x2B1D JUMPI PUSH1 0x4 PUSH1 0x0 DUP1 RETURNDATACOPY POP PUSH1 0x0 MLOAD PUSH1 0xE0 SHR SWAP1 JUMP JUMPDEST PUSH1 0x0 PUSH1 0x44 RETURNDATASIZE LT ISZERO PUSH2 0x444F JUMPI SWAP1 JUMP JUMPDEST PUSH1 0x40 MLOAD PUSH1 0x3 NOT RETURNDATASIZE DUP2 ADD PUSH1 0x4 DUP4 RETURNDATACOPY DUP2 MLOAD RETURNDATASIZE PUSH8 0xFFFFFFFFFFFFFFFF DUP2 PUSH1 0x24 DUP5 ADD GT DUP2 DUP5 GT OR ISZERO PUSH2 0x447F JUMPI POP POP POP POP POP SWAP1 JUMP JUMPDEST DUP3 DUP6 ADD SWAP2 POP DUP2 MLOAD DUP2 DUP2 GT ISZERO PUSH2 0x4497 JUMPI POP POP POP POP POP POP SWAP1 JUMP JUMPDEST DUP5 RETURNDATASIZE DUP8 ADD ADD PUSH1 0x20 DUP3 DUP6 ADD ADD GT ISZERO PUSH2 0x44B1 JUMPI POP POP POP POP POP POP SWAP1 JUMP JUMPDEST PUSH2 0x44C0 PUSH1 0x20 DUP3 DUP7 ADD ADD DUP8 PUSH2 0x4370 JUMP JUMPDEST POP SWAP1 SWAP6 SWAP5 POP POP POP POP POP JUMP INVALID CALLDATALOAD 0xA7 DUP5 PUSH11 0x2A701FFF6F9D61A46EBFF5 0xDA JUMPI DUP13 0x5D 0xCE 0xE8 0xBD RETURN PUSH2 0xC569 0xF9 0xEA 0x4E 0xE6 SELFBALANCE PUSH18 0x36624AFD4AC14E2EBE9B68A6EC0C6E4F6B CREATE2 0xBD 0xE2 SWAP10 SWAP11 PUSH2 0xE1FE 0xC0 DUP6 0xCA DUP7 PUSH10 0x7DA26469706673582212 KECCAK256 PUSH4 0x246A88C5 0x4D PUSH16 0x17768648872B4D2AB79722A1D66E688B 0xD4 PUSH18 0x35F52114EF359364736F6C63430008070033 "
		},
		"gasEstimates": {
			"creation": {
				"codeDepositCost": "3545800",
				"executionCost": "3982",
				"totalCost": "3549782"
			},
			"external": {
				"DEFAULT_ADMIN_ROLE()": "329",
				"GOVERNANCE_ROLE()": "infinite",
				"ZERO_BYTES32()": "264",
				"balance()": "infinite",
				"blockList(address,address)": "infinite",
				"blockUser(address)": "infinite",
				"checkBlocked(address,address)": "infinite",
				"checkWhitelist(address,address)": "infinite",
				"claimBackQuestionValue(bytes32)": "infinite",
				"claimBackTipValue(bytes32)": "infinite",
				"createAnswer(bytes32,string,string)": "infinite",
				"createQuestion(address,uint256,string)": "infinite",
				"createTip(bytes32)": "infinite",
				"defaultQuestionTimeLimit()": "2407",
				"feeCollector()": "2405",
				"feeNumerator()": "2361",
				"followUser(address)": "infinite",
				"getQuestionTipIds(bytes32,uint256,uint256)": "infinite",
				"getRoleAdmin(bytes32)": "2535",
				"getRoleMember(bytes32,uint256)": "infinite",
				"getRoleMemberCount(bytes32)": "infinite",
				"getUserQuestionIds(address,uint256,uint256)": "infinite",
				"getUserQuestionIdsLength(address)": "2632",
				"getUserTipIds(address,uint256,uint256)": "infinite",
				"grantRole(bytes32,address)": "infinite",
				"hasRole(bytes32,address)": "2722",
				"initialize(uint256,uint256,address,address,address,address)": "infinite",
				"isTrustedForwarder(address)": "2615",
				"markJunkReponse(bytes32)": "infinite",
				"maxExtendLimit()": "2430",
				"minTimeLock()": "2407",
				"minimumBid()": "2362",
				"nftContract()": "2448",
				"pause()": "infinite",
				"paused()": "2361",
				"questions(bytes32)": "infinite",
				"recipientUpFront()": "2428",
				"renounceRole(bytes32,address)": "infinite",
				"revokeRole(bytes32,address)": "infinite",
				"setMinimumBid(uint256)": "infinite",
				"setRecipientUpFront(uint256)": "infinite",
				"setThresholdFactorForSplit(uint256)": "infinite",
				"setTrustedForwarder(address)": "infinite",
				"setUserMinimumBid(uint256)": "infinite",
				"setdefaultQuestionTimeLimit(uint256)": "infinite",
				"supportsInterface(bytes4)": "infinite",
				"thresholdFactorForSplit()": "2407",
				"tips(bytes32)": "11126",
				"unBlockUser(address)": "infinite",
				"unWhitelistUser(address)": "infinite",
				"unfollowUser(address)": "infinite",
				"unpause()": "infinite",
				"userBalance()": "4769",
				"userMinimumBid(address,address)": "infinite",
				"whitelistUser(address)": "infinite",
				"withdraw(uint256)": "infinite"
			},
			"internal": {
				"_createAnswer(bytes32,string memory,string memory)": "infinite",
				"_createQuestion(address,address,uint256,uint256,string memory)": "infinite",
				"_feeDenominator()": "infinite",
				"_msgData()": "infinite",
				"_msgSender()": "2217",
				"_valueDeduction(uint256,uint256)": "infinite",
				"mintNFTforAnswer(address,string memory)": "infinite"
			}
		},
		"methodIdentifiers": {
			"DEFAULT_ADMIN_ROLE()": "a217fddf",
			"GOVERNANCE_ROLE()": "f36c8f5c",
			"ZERO_BYTES32()": "069321b0",
			"balance()": "b69ef8a8",
			"blockList(address,address)": "e83d6f07",
			"blockUser(address)": "3da01325",
			"checkBlocked(address,address)": "2c8d6fd6",
			"checkWhitelist(address,address)": "dc1a0911",
			"claimBackQuestionValue(bytes32)": "067f661d",
			"claimBackTipValue(bytes32)": "f224aa4f",
			"createAnswer(bytes32,string,string)": "6c3fa899",
			"createQuestion(address,uint256,string)": "662d2a66",
			"createTip(bytes32)": "a740d68e",
			"defaultQuestionTimeLimit()": "99496e2a",
			"feeCollector()": "c415b95c",
			"feeNumerator()": "e86dea4a",
			"followUser(address)": "a70806f7",
			"getQuestionTipIds(bytes32,uint256,uint256)": "8cc1af13",
			"getRoleAdmin(bytes32)": "248a9ca3",
			"getRoleMember(bytes32,uint256)": "9010d07c",
			"getRoleMemberCount(bytes32)": "ca15c873",
			"getUserQuestionIds(address,uint256,uint256)": "50b240ba",
			"getUserQuestionIdsLength(address)": "e5675219",
			"getUserTipIds(address,uint256,uint256)": "be841e02",
			"grantRole(bytes32,address)": "2f2ff15d",
			"hasRole(bytes32,address)": "91d14854",
			"initialize(uint256,uint256,address,address,address,address)": "10e51e14",
			"isTrustedForwarder(address)": "572b6c05",
			"markJunkReponse(bytes32)": "320ed957",
			"maxExtendLimit()": "1cf28a36",
			"minTimeLock()": "d00a818f",
			"minimumBid()": "d3a86386",
			"nftContract()": "d56d229d",
			"pause()": "8456cb59",
			"paused()": "5c975abb",
			"questions(bytes32)": "95addb90",
			"recipientUpFront()": "c0ef21ee",
			"renounceRole(bytes32,address)": "36568abe",
			"revokeRole(bytes32,address)": "d547741f",
			"setMinimumBid(uint256)": "86495b04",
			"setRecipientUpFront(uint256)": "4b8e7a34",
			"setThresholdFactorForSplit(uint256)": "049c067a",
			"setTrustedForwarder(address)": "da742228",
			"setUserMinimumBid(uint256)": "21e47049",
			"setdefaultQuestionTimeLimit(uint256)": "7908bbe1",
			"supportsInterface(bytes4)": "01ffc9a7",
			"thresholdFactorForSplit()": "aafa3061",
			"tips(bytes32)": "602bf227",
			"unBlockUser(address)": "65f898e1",
			"unWhitelistUser(address)": "190c69a2",
			"unfollowUser(address)": "f107cfcb",
			"unpause()": "3f4ba83a",
			"userBalance()": "bf152765",
			"userMinimumBid(address,address)": "27528350",
			"whitelistUser(address)": "4a4c560d",
			"withdraw(uint256)": "2e1a7d4d"
		}
	},
	"abi": [
		{
			"anonymous": false,
			"inputs": [
				{
					"indexed": true,
					"internalType": "address",
					"name": "sender",
					"type": "address"
				},
				{
					"indexed": false,
					"internalType": "uint256",
					"name": "value",
					"type": "uint256"
				}
			],
			"name": "AmountReceived",
			"type": "event"
		},
		{
			"anonymous": false,
			"inputs": [
				{
					"indexed": true,
					"internalType": "address",
					"name": "blocker",
					"type": "address"
				},
				{
					"indexed": true,
					"internalType": "address",
					"name": "blocked",
					"type": "address"
				}
			],
			"name": "Blocked",
			"type": "event"
		},
		{
			"anonymous": false,
			"inputs": [
				{
					"indexed": true,
					"internalType": "address",
					"name": "followed",
					"type": "address"
				},
				{
					"indexed": true,
					"internalType": "address",
					"name": "follower",
					"type": "address"
				}
			],
			"name": "Follow",
			"type": "event"
		},
		{
			"anonymous": false,
			"inputs": [
				{
					"indexed": true,
					"internalType": "bytes32",
					"name": "questionId",
					"type": "bytes32"
				},
				{
					"indexed": true,
					"internalType": "address",
					"name": "owner",
					"type": "address"
				},
				{
					"indexed": true,
					"internalType": "address",
					"name": "answerer",
					"type": "address"
				}
			],
			"name": "JunkResponse",
			"type": "event"
		},
		{
			"anonymous": false,
			"inputs": [
				{
					"indexed": false,
					"internalType": "address",
					"name": "account",
					"type": "address"
				}
			],
			"name": "Paused",
			"type": "event"
		},
		{
			"anonymous": false,
			"inputs": [
				{
					"indexed": true,
					"internalType": "bytes32",
					"name": "questionId",
					"type": "bytes32"
				},
				{
					"indexed": true,
					"internalType": "address",
					"name": "owner",
					"type": "address"
				},
				{
					"indexed": true,
					"internalType": "address",
					"name": "creator",
					"type": "address"
				},
				{
					"indexed": false,
					"internalType": "string",
					"name": "answerLink",
					"type": "string"
				},
				{
					"indexed": false,
					"internalType": "uint256",
					"name": "tokenId",
					"type": "uint256"
				},
				{
					"indexed": false,
					"internalType": "uint256",
					"name": "value",
					"type": "uint256"
				}
			],
			"name": "QuestionAnswered",
			"type": "event"
		},
		{
			"anonymous": false,
			"inputs": [
				{
					"indexed": true,
					"internalType": "address",
					"name": "recipient",
					"type": "address"
				},
				{
					"indexed": true,
					"internalType": "bytes32",
					"name": "questionId",
					"type": "bytes32"
				},
				{
					"indexed": true,
					"internalType": "address",
					"name": "createdBy",
					"type": "address"
				},
				{
					"indexed": false,
					"internalType": "uint256",
					"name": "value",
					"type": "uint256"
				},
				{
					"indexed": false,
					"internalType": "uint256",
					"name": "expiryTime",
					"type": "uint256"
				},
				{
					"indexed": false,
					"internalType": "string",
					"name": "link",
					"type": "string"
				}
			],
			"name": "QuestionCreated",
			"type": "event"
		},
		{
			"anonymous": false,
			"inputs": [
				{
					"indexed": true,
					"internalType": "bytes32",
					"name": "questionId",
					"type": "bytes32"
				},
				{
					"indexed": true,
					"internalType": "address",
					"name": "createdBy",
					"type": "address"
				},
				{
					"indexed": false,
					"internalType": "uint256",
					"name": "value",
					"type": "uint256"
				}
			],
			"name": "QuestionValueClaimed",
			"type": "event"
		},
		{
			"anonymous": false,
			"inputs": [
				{
					"indexed": true,
					"internalType": "bytes32",
					"name": "role",
					"type": "bytes32"
				},
				{
					"indexed": true,
					"internalType": "bytes32",
					"name": "previousAdminRole",
					"type": "bytes32"
				},
				{
					"indexed": true,
					"internalType": "bytes32",
					"name": "newAdminRole",
					"type": "bytes32"
				}
			],
			"name": "RoleAdminChanged",
			"type": "event"
		},
		{
			"anonymous": false,
			"inputs": [
				{
					"indexed": true,
					"internalType": "bytes32",
					"name": "role",
					"type": "bytes32"
				},
				{
					"indexed": true,
					"internalType": "address",
					"name": "account",
					"type": "address"
				},
				{
					"indexed": true,
					"internalType": "address",
					"name": "sender",
					"type": "address"
				}
			],
			"name": "RoleGranted",
			"type": "event"
		},
		{
			"anonymous": false,
			"inputs": [
				{
					"indexed": true,
					"internalType": "bytes32",
					"name": "role",
					"type": "bytes32"
				},
				{
					"indexed": true,
					"internalType": "address",
					"name": "account",
					"type": "address"
				},
				{
					"indexed": true,
					"internalType": "address",
					"name": "sender",
					"type": "address"
				}
			],
			"name": "RoleRevoked",
			"type": "event"
		},
		{
			"anonymous": false,
			"inputs": [
				{
					"indexed": true,
					"internalType": "bytes32",
					"name": "questionId",
					"type": "bytes32"
				},
				{
					"indexed": true,
					"internalType": "bytes32",
					"name": "tipId",
					"type": "bytes32"
				},
				{
					"indexed": true,
					"internalType": "address",
					"name": "createdBy",
					"type": "address"
				},
				{
					"indexed": false,
					"internalType": "uint256",
					"name": "value",
					"type": "uint256"
				}
			],
			"name": "TipCreated",
			"type": "event"
		},
		{
			"anonymous": false,
			"inputs": [
				{
					"indexed": true,
					"internalType": "bytes32",
					"name": "questionId",
					"type": "bytes32"
				},
				{
					"indexed": true,
					"internalType": "bytes32",
					"name": "tipId",
					"type": "bytes32"
				},
				{
					"indexed": true,
					"internalType": "address",
					"name": "createdBy",
					"type": "address"
				},
				{
					"indexed": false,
					"internalType": "uint256",
					"name": "value",
					"type": "uint256"
				}
			],
			"name": "TipValueClaimed",
			"type": "event"
		},
		{
			"anonymous": false,
			"inputs": [
				{
					"indexed": true,
					"internalType": "address",
					"name": "unblocker",
					"type": "address"
				},
				{
					"indexed": true,
					"internalType": "address",
					"name": "unblocked",
					"type": "address"
				}
			],
			"name": "UnBlock",
			"type": "event"
		},
		{
			"anonymous": false,
			"inputs": [
				{
					"indexed": true,
					"internalType": "address",
					"name": "unfollowed",
					"type": "address"
				},
				{
					"indexed": true,
					"internalType": "address",
					"name": "unfollower",
					"type": "address"
				}
			],
			"name": "UnFollow",
			"type": "event"
		},
		{
			"anonymous": false,
			"inputs": [
				{
					"indexed": true,
					"internalType": "address",
					"name": "unwhitelister",
					"type": "address"
				},
				{
					"indexed": true,
					"internalType": "address",
					"name": "unwhitelisted",
					"type": "address"
				}
			],
			"name": "UnWhitelisted",
			"type": "event"
		},
		{
			"anonymous": false,
			"inputs": [
				{
					"indexed": false,
					"internalType": "address",
					"name": "account",
					"type": "address"
				}
			],
			"name": "Unpaused",
			"type": "event"
		},
		{
			"anonymous": false,
			"inputs": [
				{
					"indexed": true,
					"internalType": "address",
					"name": "whitelister",
					"type": "address"
				},
				{
					"indexed": true,
					"internalType": "address",
					"name": "whitelisted",
					"type": "address"
				}
			],
			"name": "Whitelisted",
			"type": "event"
		},
		{
			"anonymous": false,
			"inputs": [
				{
					"indexed": true,
					"internalType": "address",
					"name": "user",
					"type": "address"
				},
				{
					"indexed": false,
					"internalType": "uint256",
					"name": "value",
					"type": "uint256"
				}
			],
			"name": "Withdraw",
			"type": "event"
		},
		{
			"inputs": [],
			"name": "DEFAULT_ADMIN_ROLE",
			"outputs": [
				{
					"internalType": "bytes32",
					"name": "",
					"type": "bytes32"
				}
			],
			"stateMutability": "view",
			"type": "function"
		},
		{
			"inputs": [],
			"name": "GOVERNANCE_ROLE",
			"outputs": [
				{
					"internalType": "bytes32",
					"name": "",
					"type": "bytes32"
				}
			],
			"stateMutability": "view",
			"type": "function"
		},
		{
			"inputs": [],
			"name": "ZERO_BYTES32",
			"outputs": [
				{
					"internalType": "bytes32",
					"name": "",
					"type": "bytes32"
				}
			],
			"stateMutability": "view",
			"type": "function"
		},
		{
			"inputs": [],
			"name": "balance",
			"outputs": [
				{
					"internalType": "uint256",
					"name": "",
					"type": "uint256"
				}
			],
			"stateMutability": "view",
			"type": "function"
		},
		{
			"inputs": [
				{
					"internalType": "address",
					"name": "",
					"type": "address"
				},
				{
					"internalType": "address",
					"name": "",
					"type": "address"
				}
			],
			"name": "blockList",
			"outputs": [
				{
					"internalType": "bool",
					"name": "",
					"type": "bool"
				}
			],
			"stateMutability": "view",
			"type": "function"
		},
		{
			"inputs": [
				{
					"internalType": "address",
					"name": "_address",
					"type": "address"
				}
			],
			"name": "blockUser",
			"outputs": [],
			"stateMutability": "nonpayable",
			"type": "function"
		},
		{
			"inputs": [
				{
					"internalType": "address",
					"name": "_sender",
					"type": "address"
				},
				{
					"internalType": "address",
					"name": "_recipient",
					"type": "address"
				}
			],
			"name": "checkBlocked",
			"outputs": [
				{
					"internalType": "bool",
					"name": "",
					"type": "bool"
				}
			],
			"stateMutability": "view",
			"type": "function"
		},
		{
			"inputs": [
				{
					"internalType": "address",
					"name": "_sender",
					"type": "address"
				},
				{
					"internalType": "address",
					"name": "_recipient",
					"type": "address"
				}
			],
			"name": "checkWhitelist",
			"outputs": [
				{
					"internalType": "bool",
					"name": "",
					"type": "bool"
				}
			],
			"stateMutability": "view",
			"type": "function"
		},
		{
			"inputs": [
				{
					"internalType": "bytes32",
					"name": "questionId",
					"type": "bytes32"
				}
			],
			"name": "claimBackQuestionValue",
			"outputs": [],
			"stateMutability": "nonpayable",
			"type": "function"
		},
		{
			"inputs": [
				{
					"internalType": "bytes32",
					"name": "tipId",
					"type": "bytes32"
				}
			],
			"name": "claimBackTipValue",
			"outputs": [],
			"stateMutability": "nonpayable",
			"type": "function"
		},
		{
			"inputs": [
				{
					"internalType": "bytes32",
					"name": "questionId_",
					"type": "bytes32"
				},
				{
					"internalType": "string",
					"name": "answerLink_",
					"type": "string"
				},
				{
					"internalType": "string",
					"name": "tokenURI_",
					"type": "string"
				}
			],
			"name": "createAnswer",
			"outputs": [],
			"stateMutability": "nonpayable",
			"type": "function"
		},
		{
			"inputs": [
				{
					"internalType": "address",
					"name": "recipient_",
					"type": "address"
				},
				{
					"internalType": "uint256",
					"name": "timelock_",
					"type": "uint256"
				},
				{
					"internalType": "string",
					"name": "questionLink_",
					"type": "string"
				}
			],
			"name": "createQuestion",
			"outputs": [
				{
					"internalType": "bytes32",
					"name": "",
					"type": "bytes32"
				}
			],
			"stateMutability": "payable",
			"type": "function"
		},
		{
			"inputs": [
				{
					"internalType": "bytes32",
					"name": "questionId",
					"type": "bytes32"
				}
			],
			"name": "createTip",
			"outputs": [],
			"stateMutability": "payable",
			"type": "function"
		},
		{
			"inputs": [],
			"name": "defaultQuestionTimeLimit",
			"outputs": [
				{
					"internalType": "uint256",
					"name": "",
					"type": "uint256"
				}
			],
			"stateMutability": "view",
			"type": "function"
		},
		{
			"inputs": [],
			"name": "feeCollector",
			"outputs": [
				{
					"internalType": "address",
					"name": "",
					"type": "address"
				}
			],
			"stateMutability": "view",
			"type": "function"
		},
		{
			"inputs": [],
			"name": "feeNumerator",
			"outputs": [
				{
					"internalType": "uint256",
					"name": "",
					"type": "uint256"
				}
			],
			"stateMutability": "view",
			"type": "function"
		},
		{
			"inputs": [
				{
					"internalType": "address",
					"name": "_address",
					"type": "address"
				}
			],
			"name": "followUser",
			"outputs": [],
			"stateMutability": "nonpayable",
			"type": "function"
		},
		{
			"inputs": [
				{
					"internalType": "bytes32",
					"name": "_questionId",
					"type": "bytes32"
				},
				{
					"internalType": "uint256",
					"name": "skip",
					"type": "uint256"
				},
				{
					"internalType": "uint256",
					"name": "limit",
					"type": "uint256"
				}
			],
			"name": "getQuestionTipIds",
			"outputs": [
				{
					"internalType": "bytes32[]",
					"name": "values",
					"type": "bytes32[]"
				},
				{
					"internalType": "uint256",
					"name": "",
					"type": "uint256"
				}
			],
			"stateMutability": "view",
			"type": "function"
		},
		{
			"inputs": [
				{
					"internalType": "bytes32",
					"name": "role",
					"type": "bytes32"
				}
			],
			"name": "getRoleAdmin",
			"outputs": [
				{
					"internalType": "bytes32",
					"name": "",
					"type": "bytes32"
				}
			],
			"stateMutability": "view",
			"type": "function"
		},
		{
			"inputs": [
				{
					"internalType": "bytes32",
					"name": "role",
					"type": "bytes32"
				},
				{
					"internalType": "uint256",
					"name": "index",
					"type": "uint256"
				}
			],
			"name": "getRoleMember",
			"outputs": [
				{
					"internalType": "address",
					"name": "",
					"type": "address"
				}
			],
			"stateMutability": "view",
			"type": "function"
		},
		{
			"inputs": [
				{
					"internalType": "bytes32",
					"name": "role",
					"type": "bytes32"
				}
			],
			"name": "getRoleMemberCount",
			"outputs": [
				{
					"internalType": "uint256",
					"name": "",
					"type": "uint256"
				}
			],
			"stateMutability": "view",
			"type": "function"
		},
		{
			"inputs": [
				{
					"internalType": "address",
					"name": "_address",
					"type": "address"
				},
				{
					"internalType": "uint256",
					"name": "skip",
					"type": "uint256"
				},
				{
					"internalType": "uint256",
					"name": "limit",
					"type": "uint256"
				}
			],
			"name": "getUserQuestionIds",
			"outputs": [
				{
					"internalType": "bytes32[]",
					"name": "values",
					"type": "bytes32[]"
				},
				{
					"internalType": "uint256",
					"name": "",
					"type": "uint256"
				}
			],
			"stateMutability": "view",
			"type": "function"
		},
		{
			"inputs": [
				{
					"internalType": "address",
					"name": "_address",
					"type": "address"
				}
			],
			"name": "getUserQuestionIdsLength",
			"outputs": [
				{
					"internalType": "uint256",
					"name": "",
					"type": "uint256"
				}
			],
			"stateMutability": "view",
			"type": "function"
		},
		{
			"inputs": [
				{
					"internalType": "address",
					"name": "_address",
					"type": "address"
				},
				{
					"internalType": "uint256",
					"name": "skip",
					"type": "uint256"
				},
				{
					"internalType": "uint256",
					"name": "limit",
					"type": "uint256"
				}
			],
			"name": "getUserTipIds",
			"outputs": [
				{
					"internalType": "bytes32[]",
					"name": "values",
					"type": "bytes32[]"
				},
				{
					"internalType": "uint256",
					"name": "",
					"type": "uint256"
				}
			],
			"stateMutability": "view",
			"type": "function"
		},
		{
			"inputs": [
				{
					"internalType": "bytes32",
					"name": "role",
					"type": "bytes32"
				},
				{
					"internalType": "address",
					"name": "account",
					"type": "address"
				}
			],
			"name": "grantRole",
			"outputs": [],
			"stateMutability": "nonpayable",
			"type": "function"
		},
		{
			"inputs": [
				{
					"internalType": "bytes32",
					"name": "role",
					"type": "bytes32"
				},
				{
					"internalType": "address",
					"name": "account",
					"type": "address"
				}
			],
			"name": "hasRole",
			"outputs": [
				{
					"internalType": "bool",
					"name": "",
					"type": "bool"
				}
			],
			"stateMutability": "view",
			"type": "function"
		},
		{
			"inputs": [
				{
					"internalType": "uint256",
					"name": "_minimumBid",
					"type": "uint256"
				},
				{
					"internalType": "uint256",
					"name": "_feeNumerator",
					"type": "uint256"
				},
				{
					"internalType": "address",
					"name": "_nftContract",
					"type": "address"
				},
				{
					"internalType": "address",
					"name": "_feeCollector",
					"type": "address"
				},
				{
					"internalType": "address",
					"name": "_adminAddress",
					"type": "address"
				},
				{
					"internalType": "address",
					"name": "trustedForwarder",
					"type": "address"
				}
			],
			"name": "initialize",
			"outputs": [],
			"stateMutability": "nonpayable",
			"type": "function"
		},
		{
			"inputs": [
				{
					"internalType": "address",
					"name": "forwarder",
					"type": "address"
				}
			],
			"name": "isTrustedForwarder",
			"outputs": [
				{
					"internalType": "bool",
					"name": "",
					"type": "bool"
				}
			],
			"stateMutability": "view",
			"type": "function"
		},
		{
			"inputs": [
				{
					"internalType": "bytes32",
					"name": "questionId_",
					"type": "bytes32"
				}
			],
			"name": "markJunkReponse",
			"outputs": [],
			"stateMutability": "nonpayable",
			"type": "function"
		},
		{
			"inputs": [],
			"name": "maxExtendLimit",
			"outputs": [
				{
					"internalType": "uint256",
					"name": "",
					"type": "uint256"
				}
			],
			"stateMutability": "view",
			"type": "function"
		},
		{
			"inputs": [],
			"name": "minTimeLock",
			"outputs": [
				{
					"internalType": "uint256",
					"name": "",
					"type": "uint256"
				}
			],
			"stateMutability": "view",
			"type": "function"
		},
		{
			"inputs": [],
			"name": "minimumBid",
			"outputs": [
				{
					"internalType": "uint256",
					"name": "",
					"type": "uint256"
				}
			],
			"stateMutability": "view",
			"type": "function"
		},
		{
			"inputs": [],
			"name": "nftContract",
			"outputs": [
				{
					"internalType": "contract AmaFansNFT",
					"name": "",
					"type": "address"
				}
			],
			"stateMutability": "view",
			"type": "function"
		},
		{
			"inputs": [],
			"name": "pause",
			"outputs": [],
			"stateMutability": "nonpayable",
			"type": "function"
		},
		{
			"inputs": [],
			"name": "paused",
			"outputs": [
				{
					"internalType": "bool",
					"name": "",
					"type": "bool"
				}
			],
			"stateMutability": "view",
			"type": "function"
		},
		{
			"inputs": [
				{
					"internalType": "bytes32",
					"name": "",
					"type": "bytes32"
				}
			],
			"name": "questions",
			"outputs": [
				{
					"internalType": "string",
					"name": "questionLink",
					"type": "string"
				},
				{
					"internalType": "string",
					"name": "answerLink",
					"type": "string"
				},
				{
					"internalType": "uint256",
					"name": "initialValue",
					"type": "uint256"
				},
				{
					"internalType": "uint256",
					"name": "totalValue",
					"type": "uint256"
				},
				{
					"internalType": "address",
					"name": "createdBy",
					"type": "address"
				},
				{
					"internalType": "address",
					"name": "anweredBy",
					"type": "address"
				},
				{
					"internalType": "uint256",
					"name": "createdTime",
					"type": "uint256"
				},
				{
					"internalType": "uint256",
					"name": "expiryTime",
					"type": "uint256"
				},
				{
					"internalType": "enum AmaFansLib.State",
					"name": "state",
					"type": "uint8"
				},
				{
					"internalType": "uint256",
					"name": "tokenId",
					"type": "uint256"
				},
				{
					"internalType": "bool",
					"name": "junkResponse",
					"type": "bool"
				}
			],
			"stateMutability": "view",
			"type": "function"
		},
		{
			"inputs": [],
			"name": "recipientUpFront",
			"outputs": [
				{
					"internalType": "uint256",
					"name": "",
					"type": "uint256"
				}
			],
			"stateMutability": "view",
			"type": "function"
		},
		{
			"inputs": [
				{
					"internalType": "bytes32",
					"name": "role",
					"type": "bytes32"
				},
				{
					"internalType": "address",
					"name": "account",
					"type": "address"
				}
			],
			"name": "renounceRole",
			"outputs": [],
			"stateMutability": "nonpayable",
			"type": "function"
		},
		{
			"inputs": [
				{
					"internalType": "bytes32",
					"name": "role",
					"type": "bytes32"
				},
				{
					"internalType": "address",
					"name": "account",
					"type": "address"
				}
			],
			"name": "revokeRole",
			"outputs": [],
			"stateMutability": "nonpayable",
			"type": "function"
		},
		{
			"inputs": [
				{
					"internalType": "uint256",
					"name": "_minimumBid",
					"type": "uint256"
				}
			],
			"name": "setMinimumBid",
			"outputs": [],
			"stateMutability": "nonpayable",
			"type": "function"
		},
		{
			"inputs": [
				{
					"internalType": "uint256",
					"name": "_recipientUpFront",
					"type": "uint256"
				}
			],
			"name": "setRecipientUpFront",
			"outputs": [],
			"stateMutability": "nonpayable",
			"type": "function"
		},
		{
			"inputs": [
				{
					"internalType": "uint256",
					"name": "_thresholdFactorForSplit",
					"type": "uint256"
				}
			],
			"name": "setThresholdFactorForSplit",
			"outputs": [],
			"stateMutability": "nonpayable",
			"type": "function"
		},
		{
			"inputs": [
				{
					"internalType": "address",
					"name": "_forwarder",
					"type": "address"
				}
			],
			"name": "setTrustedForwarder",
			"outputs": [],
			"stateMutability": "nonpayable",
			"type": "function"
		},
		{
			"inputs": [
				{
					"internalType": "uint256",
					"name": "minimumBidByUser",
					"type": "uint256"
				}
			],
			"name": "setUserMinimumBid",
			"outputs": [],
			"stateMutability": "nonpayable",
			"type": "function"
		},
		{
			"inputs": [
				{
					"internalType": "uint256",
					"name": "_defaultQuestionTimeLimit",
					"type": "uint256"
				}
			],
			"name": "setdefaultQuestionTimeLimit",
			"outputs": [],
			"stateMutability": "nonpayable",
			"type": "function"
		},
		{
			"inputs": [
				{
					"internalType": "bytes4",
					"name": "interfaceId",
					"type": "bytes4"
				}
			],
			"name": "supportsInterface",
			"outputs": [
				{
					"internalType": "bool",
					"name": "",
					"type": "bool"
				}
			],
			"stateMutability": "view",
			"type": "function"
		},
		{
			"inputs": [],
			"name": "thresholdFactorForSplit",
			"outputs": [
				{
					"internalType": "uint256",
					"name": "",
					"type": "uint256"
				}
			],
			"stateMutability": "view",
			"type": "function"
		},
		{
			"inputs": [
				{
					"internalType": "bytes32",
					"name": "",
					"type": "bytes32"
				}
			],
			"name": "tips",
			"outputs": [
				{
					"internalType": "address",
					"name": "createdBy",
					"type": "address"
				},
				{
					"internalType": "uint256",
					"name": "value",
					"type": "uint256"
				},
				{
					"internalType": "uint256",
					"name": "createdTime",
					"type": "uint256"
				},
				{
					"internalType": "bytes32",
					"name": "questionId",
					"type": "bytes32"
				},
				{
					"internalType": "bool",
					"name": "claimed",
					"type": "bool"
				}
			],
			"stateMutability": "view",
			"type": "function"
		},
		{
			"inputs": [
				{
					"internalType": "address",
					"name": "_address",
					"type": "address"
				}
			],
			"name": "unBlockUser",
			"outputs": [],
			"stateMutability": "nonpayable",
			"type": "function"
		},
		{
			"inputs": [
				{
					"internalType": "address",
					"name": "_address",
					"type": "address"
				}
			],
			"name": "unWhitelistUser",
			"outputs": [],
			"stateMutability": "nonpayable",
			"type": "function"
		},
		{
			"inputs": [
				{
					"internalType": "address",
					"name": "_address",
					"type": "address"
				}
			],
			"name": "unfollowUser",
			"outputs": [],
			"stateMutability": "nonpayable",
			"type": "function"
		},
		{
			"inputs": [],
			"name": "unpause",
			"outputs": [],
			"stateMutability": "nonpayable",
			"type": "function"
		},
		{
			"inputs": [],
			"name": "userBalance",
			"outputs": [
				{
					"internalType": "uint256",
					"name": "",
					"type": "uint256"
				}
			],
			"stateMutability": "view",
			"type": "function"
		},
		{
			"inputs": [
				{
					"internalType": "address",
					"name": "_sender",
					"type": "address"
				},
				{
					"internalType": "address",
					"name": "_recipient",
					"type": "address"
				}
			],
			"name": "userMinimumBid",
			"outputs": [
				{
					"internalType": "uint256",
					"name": "",
					"type": "uint256"
				}
			],
			"stateMutability": "view",
			"type": "function"
		},
		{
			"inputs": [
				{
					"internalType": "address",
					"name": "_address",
					"type": "address"
				}
			],
			"name": "whitelistUser",
			"outputs": [],
			"stateMutability": "nonpayable",
			"type": "function"
		},
		{
			"inputs": [
				{
					"internalType": "uint256",
					"name": "_amount",
					"type": "uint256"
				}
			],
			"name": "withdraw",
			"outputs": [],
			"stateMutability": "nonpayable",
			"type": "function"
		},
		{
			"stateMutability": "payable",
			"type": "receive"
		}
	]
}