{
	"data": {
		"bytecode": {
			"linkReferences": {
				"AmaFansLib.sol": {
					"AmaFansLib": [
						{
							"length": 20,
							"start": 4450
						},
						{
							"length": 20,
							"start": 6871
						},
						{
							"length": 20,
							"start": 7161
						},
						{
							"length": 20,
							"start": 7689
						},
						{
							"length": 20,
							"start": 8310
						},
						{
							"length": 20,
							"start": 9614
						},
						{
							"length": 20,
							"start": 9761
						},
						{
							"length": 20,
							"start": 9974
						},
						{
							"length": 20,
							"start": 10661
						},
						{
							"length": 20,
							"start": 10877
						},
						{
							"length": 20,
							"start": 11274
						},
						{
							"length": 20,
							"start": 12566
						},
						{
							"length": 20,
							"start": 13155
						},
						{
							"length": 20,
							"start": 13747
						},
						{
							"length": 20,
							"start": 14077
						},
						{
							"length": 20,
							"start": 14908
						},
						{
							"length": 20,
							"start": 16386
						},
						{
							"length": 20,
							"start": 16528
						}
					]
				}
			},
			"object": "608060405234801561001057600080fd5b50615558806100206000396000f3fe6080604052600436106104095760003560e01c806394a3404511610213578063c415b95c11610123578063da742228116100ab578063f107cfcb1161007a578063f107cfcb14610d23578063f1096c2114610d43578063f224aa4f14610d63578063f36c8f5c14610d83578063fea3260014610db757600080fd5b8063da74222814610c9a578063dc1a091114610cba578063dff72dec14610cda578063e86dea4a14610d0c57600080fd5b8063d00a818f116100f2578063d00a818f14610c02578063d3e15bda14610c19578063d547741f14610c39578063d56d229d14610c59578063d9fffc8214610c7a57600080fd5b8063c415b95c14610b8e578063c7303c6114610baf578063ca05249f14610bc2578063ca15c87314610be257600080fd5b8063a87430ba116101a6578063b1df738311610175578063b1df738314610b0d578063b69ef8a814610b2d578063b7760c8f14610b42578063bf15276514610b62578063c0ef21ee14610b7757600080fd5b8063a87430ba14610a94578063a9a3aa8314610ac3578063aafa306114610ad6578063b12ea2a314610aed57600080fd5b8063a217fddf116101e2578063a217fddf14610a2c578063a70806f714610a41578063a740d68e14610a61578063a7ccabdf14610a7457600080fd5b806394a34045146109ac57806396858061146109cc57806398f17c96146109ec578063a02f3c7814610a0c57600080fd5b80633f4ba83a116103195780635ad1c6e5116102a157806379ced7471161027057806379ced74714610908578063835791251461091f5780638456cb591461093f5780639010d07c1461095457806391d148541461098c57600080fd5b80635ad1c6e5146108245780635c975abb14610844578063602bf2271461085c57806365f898e1146108e857600080fd5b80634d1ccb62116102e85780634d1ccb62146107875780634d31a6ed146107a75780634f09c912146107be57806350cde8ef146107d5578063572b6c05146107f557600080fd5b80633f4ba83a1461071257806349e03502146107275780634a4c560d146107475780634b8e7a341461076757600080fd5b8063248a9ca31161039c5780632f2ff15d1161036b5780632f2ff15d1461067257806336568abe146106925780633da01325146106b25780633dc9979e146106d25780633e11b5dc146106f257600080fd5b8063248a9ca3146105ca5780632bbd59ca146105fa5780632c8d6fd6146106325780632e1a7d4d1461065257600080fd5b806310f5ff3e116103d857806310f5ff3e146104e4578063190c69a2146105125780631b1456d61461053257806320d4f41b146105a957600080fd5b806301ffc9a71461044d578063049c067a1461048257806309b82cfd146104a45780630fc65407146104c457600080fd5b3661044857610416610dd7565b6001600160a01b03166000805160206155038339815191523460405161043e91815260200190565b60405180910390a2005b600080fd5b34801561045957600080fd5b5061046d610468366004614e46565b610de6565b60405190151581526020015b60405180910390f35b34801561048e57600080fd5b506104a261049d366004614d36565b610e11565b005b3480156104b057600080fd5b506104a26104bf366004614ea5565b610e73565b3480156104d057600080fd5b506104a26104df366004614ed9565b610f06565b3480156104f057600080fd5b506105046104ff366004614df8565b611117565b604051610479929190615023565b34801561051e57600080fd5b506104a261052d366004614b95565b6111bf565b34801561053e57600080fd5b5061057f61054d366004614d36565b61016b6020526000908152604090208054600182015460028301546003909301546001600160a01b0390921692909184565b604080516001600160a01b0390951685526020850193909352918301526060820152608001610479565b6105bc6105b7366004614c1f565b611266565b604051908152602001610479565b3480156105d657600080fd5b506105bc6105e5366004614d36565b600090815260c9602052604090206001015490565b34801561060657600080fd5b5061061a610615366004614d36565b611515565b6040516104799c9b9a999897969594939291906150a8565b34801561063e57600080fd5b5061046d61064d366004614bb0565b611697565b34801561065e57600080fd5b506104a261066d366004614d36565b6116e3565b34801561067e57600080fd5b506104a261068d366004614d68565b611846565b34801561069e57600080fd5b506104a26106ad366004614d68565b61186e565b3480156106be57600080fd5b506104a26106cd366004614b95565b6118fc565b3480156106de57600080fd5b506105bc6106ed366004614d36565b6119fe565b3480156106fe57600080fd5b5061050461070d366004614e1a565b611a20565b34801561071e57600080fd5b506104a2611b36565b34801561073357600080fd5b50610504610742366004614df8565b611bae565b34801561075357600080fd5b506104a2610762366004614b95565b611bfb565b34801561077357600080fd5b506104a2610782366004614d36565b611d35565b34801561079357600080fd5b506104a26107a2366004614d36565b611d98565b3480156107b357600080fd5b506105bc6101605481565b3480156107ca57600080fd5b506105bc6101625481565b3480156107e157600080fd5b506105bc6107f0366004614d36565b611dad565b34801561080157600080fd5b5061046d610810366004614b95565b6065546001600160a01b0391821691161490565b34801561083057600080fd5b5061050461083f366004614df8565b611dbe565b34801561085057600080fd5b5060335460ff1661046d565b34801561086857600080fd5b506108b4610877366004614d36565b61016a60205260009081526040902080546001820154600283015460038401546004909401546001600160a01b0390931693919290919060ff1685565b604080516001600160a01b03909616865260208601949094529284019190915260608301521515608082015260a001610479565b3480156108f457600080fd5b506104a2610903366004614b95565b611e0b565b34801561091457600080fd5b506105bc6101615481565b34801561092b57600080fd5b506104a261093a366004614d36565b611f44565b34801561094b57600080fd5b506104a261217b565b34801561096057600080fd5b5061097461096f366004614df8565b6121ef565b6040516001600160a01b039091168152602001610479565b34801561099857600080fd5b5061046d6109a7366004614d68565b61220e565b3480156109b857600080fd5b506104a26109c7366004614ea5565b612239565b3480156109d857600080fd5b506104a26109e7366004614d8b565b6122f3565b3480156109f857600080fd5b506105bc610a07366004614d36565b61243f565b348015610a1857600080fd5b506105bc610a27366004614d36565b612450565b348015610a3857600080fd5b506105bc600081565b348015610a4d57600080fd5b506104a2610a5c366004614b95565b612461565b6104a2610a6f366004614d36565b6124ea565b348015610a8057600080fd5b506104a2610a8f366004614b95565b6127ac565b348015610aa057600080fd5b50610ab4610aaf366004614b95565b612827565b6040516104799392919061525f565b6104a2610ad1366004614d36565b6128d3565b348015610ae257600080fd5b506105bc6101675481565b348015610af957600080fd5b50610504610b08366004614e1a565b612b52565b348015610b1957600080fd5b506104a2610b28366004614df8565b612c0c565b348015610b3957600080fd5b506105bc612e98565b348015610b4e57600080fd5b506104a2610b5d366004614d68565b612eaf565b348015610b6e57600080fd5b506105bc613016565b348015610b8357600080fd5b506105bc6101665481565b348015610b9a57600080fd5b5061015f54610974906001600160a01b031681565b6105bc610bbd366004614e70565b61304b565b348015610bce57600080fd5b50610504610bdd366004614df8565b613318565b348015610bee57600080fd5b506105bc610bfd366004614d36565b613365565b348015610c0e57600080fd5b506105bc6101655481565b348015610c2557600080fd5b506105bc610c34366004614d36565b61337c565b348015610c4557600080fd5b506104a2610c54366004614d68565b61338d565b348015610c6557600080fd5b5061016454610974906001600160a01b031681565b348015610c8657600080fd5b506105bc610c95366004614be3565b6133b5565b348015610ca657600080fd5b506104a2610cb5366004614b95565b6133f8565b348015610cc657600080fd5b5061046d610cd5366004614bb0565b61340f565b348015610ce657600080fd5b50610cfa610cf5366004614d36565b613418565b6040516104799695949392919061516e565b348015610d1857600080fd5b506105bc6101635481565b348015610d2f57600080fd5b506104a2610d3e366004614b95565b6134df565b348015610d4f57600080fd5b50610504610d5e366004614df8565b613568565b348015610d6f57600080fd5b506104a2610d7e366004614d36565b6135b5565b348015610d8f57600080fd5b506105bc7f35a7846a2a701fff6f9d61a46ebff5da578c5dcee8bdf361c569f9ea4ee6477181565b348015610dc357600080fd5b506105bc610dd2366004614d36565b6137f9565b6000610de1613816565b905090565b60006001600160e01b03198216635a05180f60e01b1480610e0b5750610e0b82613841565b92915050565b6000610e2481610e1f610dd7565b613876565b60408051808201909152600681526506060726060760d31b602082015260018311610e6b5760405162461bcd60e51b8152600401610e62919061506b565b60405180910390fd5b505061016755565b6000610e8181610e1f610dd7565b6001826001811115610e9557610e95615405565b1415610efa57610166548310156040518060400160405280600681526020016530303930303360d01b81525090610edf5760405162461bcd60e51b8152600401610e62919061506b565b50610161839055610ef16004846152e8565b61016655505050565b6101608390555b505050565b600054610100900460ff16610f215760005460ff1615610f25565b303b155b610f885760405162461bcd60e51b815260206004820152602e60248201527f496e697469616c697a61626c653a20636f6e747261637420697320616c72656160448201526d191e481a5b9a5d1a585b1a5e995960921b6064820152608401610e62565b600054610100900460ff16158015610faa576000805461ffff19166101011790555b61271086111561100f5760405162461bcd60e51b815260206004820152602a60248201527f455243323938313a20726f79616c7479206665652077696c6c206578636565646044820152692073616c65507269636560b01b6064820152608401610e62565b61101a6004896152e8565b610166556110266138da565b61102e613921565b611036613950565b61103f82613987565b610160889055610161889055610162879055610163869055610164805461015f80546001600160a01b0319166001600160a01b03888116919091179091556103846101655587166001600160a81b03199091161790556003610167556110a66000846139c2565b6110d07f35a7846a2a701fff6f9d61a46ebff5da578c5dcee8bdf361c569f9ea4ee64771846139c2565b6110fb7f35a7846a2a701fff6f9d61a46ebff5da578c5dcee8bdf361c569f9ea4ee6477160006139cc565b801561110d576000805461ff00191690555b5050505050505050565b60405163074a590760e01b81526004810183905260248101829052610172604482015260609060009073__$9449e77bcfc6c744eba20e6cac20521bf9$__9063074a5907906064015b60006040518083038186803b15801561117857600080fd5b505af415801561118c573d6000803e3d6000fd5b505050506040513d6000823e601f3d908101601f191682016040526111b49190810190614c80565b915091509250929050565b600061016c60006111ce610dd7565b6001600160a01b03908116825260208083019390935260409182016000908120918616815260049091019092529020805460ff1916600183600281111561121757611217615405565b0217905550806001600160a01b031661122e610dd7565b6001600160a01b03167fdc9ec6c8ca20e67e0cbecb5536d5c021046dd6a9a43b1b03d2b10235767d450260405160405180910390a350565b600083610165548110156040518060400160405280600681526020016530303230303760d01b815250906112ad5760405162461bcd60e51b8152600401610e62919061506b565b5060335460ff16156112d15760405162461bcd60e51b8152600401610e62906151b3565b8380600110156040518060400160405280600681526020016503030323031360d41b815250906113145760405162461bcd60e51b8152600401610e62919061506b565b50600261012d5414156113395760405162461bcd60e51b8152600401610e6290615228565b600261012d556001600160a01b038716600090815261016c60205260408120819060040181611366610dd7565b6001600160a01b0316815260208101919091526040016000205460ff169050600181600281111561139957611399615405565b14156040518060400160405280600681526020016518181c98181b60d11b815250906113d85760405162461bcd60e51b8152600401610e62919061506b565b5060006113ed6113e6610dd7565b8b8a6133b5565b9050600282600281111561140357611403615405565b146114c55760018814156114655760408051808201909152600681526530303130303960d01b60208201523482111561144f5760405162461bcd60e51b8152600401610e62919061506b565b506101665461145e9034615329565b92506114c5565b60408051808201909152600681526503030313031360d41b6020820152348211156114a35760405162461bcd60e51b8152600401610e62919061506b565b506101665481116114b457346114c2565b610166546114c29034615329565b92505b60006114dc6114d2610dd7565b8c868d8d8d613a17565b905083158015906114ef57506101665482115b15611501576115018b61016654613d5f565b600161012d559a9950505050505050505050565b6101686020526000908152604090208054819061153190615387565b80601f016020809104026020016040519081016040528092919081815260200182805461155d90615387565b80156115aa5780601f1061157f576101008083540402835291602001916115aa565b820191906000526020600020905b81548152906001019060200180831161158d57829003601f168201915b5050505050908060010180546115bf90615387565b80601f01602080910402602001604051908101604052809291908181526020018280546115eb90615387565b80156116385780601f1061160d57610100808354040283529160200191611638565b820191906000526020600020905b81548152906001019060200180831161161b57829003601f168201915b50505060028401546003850154600486015460058701546007880154600889015460098a0154600a8b0154600b8c0154600c909c01549a9b979a9699506001600160a01b03958616985093909416959194909360ff908116939216908c565b600060015b6001600160a01b03808416600090815261016c60209081526040808320938816835260049093019052205460ff1660028111156116db576116db615405565b149392505050565b60335460ff16156117065760405162461bcd60e51b8152600401610e62906151b3565b600261012d54141561172a5760405162461bcd60e51b8152600401610e6290615228565b600261012d5561016d600061173d610dd7565b6001600160a01b03166001600160a01b03168152602001908152602001600020548111156040518060400160405280600681526020016530303930303160d01b8152509061179e5760405162461bcd60e51b8152600401610e62919061506b565b508061016d60006117ad610dd7565b6001600160a01b03166001600160a01b0316815260200190815260200160002060008282546117dc9190615329565b909155506117f390506117ed610dd7565b82613d5f565b6117fb610dd7565b6001600160a01b03167f884edad9ce6fa2440d8a54cc123490eb96d2768479d49ff9c7366125a94243648260405161183591815260200190565b60405180910390a250600161012d55565b600082815260c9602052604090206001015461186481610e1f610dd7565b610f018383613e78565b611876610dd7565b6001600160a01b0316816001600160a01b0316146118ee5760405162461bcd60e51b815260206004820152602f60248201527f416363657373436f6e74726f6c3a2063616e206f6e6c792072656e6f756e636560448201526e103937b632b9903337b91039b2b63360891b6064820152608401610e62565b6118f88282613e9a565b5050565b806001600160a01b031661190e610dd7565b6001600160a01b031614156040518060400160405280600681526020016503030393031360d41b815250906119565760405162461bcd60e51b8152600401610e62919061506b565b50600161016c6000611966610dd7565b6001600160a01b03908116825260208083019390935260409182016000908120918616815260049091019092529020805460ff191660018360028111156119af576119af615405565b0217905550806001600160a01b03166119c6610dd7565b6001600160a01b03167fc931b7e6f18c2a39bcd066690c46c7ba85186501c524faa844ac2c7213d1732560405160405180910390a350565b61016f8181548110611a0f57600080fd5b600091825260209091200154905081565b600083815261016960209081526040808320600301548151808301909252600682526530303430303160d01b92820192909252606092918691906001600160a01b0316611a805760405162461bcd60e51b8152600401610e62919061506b565b506000868152610169602052604090819020905163074a590760e01b8152600480820188905260248201879052909101604482015273__$9449e77bcfc6c744eba20e6cac20521bf9$__9063074a5907906064015b60006040518083038186803b158015611aed57600080fd5b505af4158015611b01573d6000803e3d6000fd5b505050506040513d6000823e601f3d908101601f19168201604052611b299190810190614c80565b9250925050935093915050565b611b4360006109a7610dd7565b611ba45760405162461bcd60e51b815260206004820152602c60248201527f4d75737420686176652044454641554c545f41444d494e5f524f4c4520726f6c60448201526b6520746f20756e706175736560a01b6064820152608401610e62565b611bac613ebc565b565b60405163074a590760e01b81526004810183905260248101829052610170604482015260609060009073__$9449e77bcfc6c744eba20e6cac20521bf9$__9063074a590790606401611160565b600161016c6000611c0a610dd7565b6001600160a01b039081168252602080830193909352604091820160009081209186168152600490910190925290205460ff166002811115611c4e57611c4e615405565b14156040518060400160405280600681526020016518181c98181b60d11b81525090611c8d5760405162461bcd60e51b8152600401610e62919061506b565b50600261016c6000611c9d610dd7565b6001600160a01b03908116825260208083019390935260409182016000908120918616815260049091019092529020805460ff19166001836002811115611ce657611ce6615405565b0217905550806001600160a01b0316611cfd610dd7565b6001600160a01b03167f6661a7108aecd07864384529117d96c319c1163e3010c01390f6b704726e07de60405160405180910390a350565b6000611d4381610e1f610dd7565b611d4e82600461530a565b61016154116040518060400160405280600681526020016530303930303760d01b81525090611d905760405162461bcd60e51b8152600401610e62919061506b565b505061016655565b6000611da681610e1f610dd7565b5061016255565b6101708181548110611a0f57600080fd5b60405163074a590760e01b8152600481018390526024810182905261016f604482015260609060009073__$9449e77bcfc6c744eba20e6cac20521bf9$__9063074a590790606401611160565b600161016c6000611e1a610dd7565b6001600160a01b039081168252602080830193909352604091820160009081209186168152600490910190925290205460ff166002811115611e5e57611e5e615405565b146040518060400160405280600681526020016530303930313160d01b81525090611e9c5760405162461bcd60e51b8152600401610e62919061506b565b50600061016c6000611eac610dd7565b6001600160a01b03908116825260208083019390935260409182016000908120918616815260049091019092529020805460ff19166001836002811115611ef557611ef5615405565b0217905550806001600160a01b0316611f0c610dd7565b6001600160a01b03167f35672c674c91f8b0025681a1c8d11a4ca6583e909553290ecfb3d6578faa8bce60405160405180910390a350565b60335460ff1615611f675760405162461bcd60e51b8152600401610e62906151b3565b60008181526101686020908152604091829020600401548251808401909352600683526530303230303360d01b918301919091528291906001600160a01b0316611fc45760405162461bcd60e51b8152600401610e62919061506b565b5081611fce610dd7565b60008281526101686020908152604091829020600401548251808401909352600683526518181918181960d11b9183019190915290916001600160a01b0391821691161461202f5760405162461bcd60e51b8152600401610e62919061506b565b506000838152610168602052604090819020905163dae5e84360e01b81526004810182905273__$9449e77bcfc6c744eba20e6cac20521bf9$__9063dae5e8439060240160006040518083038186803b15801561208b57600080fd5b505af415801561209f573d6000803e3d6000fd5b50505050806002015461016d60006120b5610dd7565b6001600160a01b03166001600160a01b0316815260200190815260200160002060008282546120e491906152d0565b909155506120f29050610dd7565b6001600160a01b0316600080516020615503833981519152826002015460405161211e91815260200190565b60405180910390a261212e610dd7565b6001600160a01b0316847f205302058bf3afb5ece22c5535eab6ea487294c8339c2a194fc6476219badbcd836002015460405161216d91815260200190565b60405180910390a350505050565b61218860006109a7610dd7565b6121e75760405162461bcd60e51b815260206004820152602a60248201527f4d75737420686176652044454641554c545f41444d494e5f524f4c4520726f6c6044820152696520746f20706175736560b01b6064820152608401610e62565b611bac613f55565b600082815260fb602052604081206122079083613fae565b9392505050565b600091825260c9602090815260408084206001600160a01b0393909316845291905290205460ff1690565b600181600181111561224d5761224d615405565b14156122c757610161548210156040518060400160405280600681526020016530303930303360d01b815250906122975760405162461bcd60e51b8152600401610e62919061506b565b508161016c60006122a6610dd7565b6001600160a01b031681526020810191909152604001600020600101555050565b8161016c60006122d5610dd7565b6001600160a01b031681526020810191909152604001600020555050565b60008381526101686020908152604091829020600401548251808401909352600683526530303230303360d01b918301919091528491906001600160a01b03166123505760405162461bcd60e51b8152600401610e62919061506b565b50612359610dd7565b60008581526101686020908152604091829020600501548251808401909352600683526518181918181960d11b9183019190915290916001600160a01b039182169116146123ba5760405162461bcd60e51b8152600401610e62919061506b565b506000806123c9868686613fba565b915091506123d5610dd7565b60008781526101686020526040908190206004015490516001600160a01b03928316929091169088907fff7a1ecaac27eed4c6bd348a8dd8d05ed71190db5b77e89f881fa74087429bc99061242f908a9088908890615149565b60405180910390a4505050505050565b6101728181548110611a0f57600080fd5b61016e8181548110611a0f57600080fd5b600161016c6000612470610dd7565b6001600160a01b03908116825260208083019390935260409182016000908120918616815260039091019092529020556124a8610dd7565b6001600160a01b0316816001600160a01b03167fbccc71dc7842b86291138666aa18e133ee6d41aa71e6d7c650debad1a057663560405160405180910390a350565b60008181526101686020908152604091829020600401548251808401909352600683526530303230303360d01b918301919091528291906001600160a01b03166125475760405162461bcd60e51b8152600401610e62919061506b565b50600082815261016860205260409081902090516301f2553b60e11b81526004810182905273__$9449e77bcfc6c744eba20e6cac20521bf9$__906303e4aa769060240160006040518083038186803b1580156125a357600080fd5b505af41580156125b7573d6000803e3d6000fd5b50505050600034116040518060400160405280600681526020016530303330303560d01b815250906125fc5760405162461bcd60e51b8152600401610e62919061506b565b50600073__$9449e77bcfc6c744eba20e6cac20521bf9$__63feac0f7061016a86612625610dd7565b6040516001600160e01b031960e086901b168152600481019390935260248301919091526001600160a01b0316604482015234606482015260840160206040518083038186803b15801561267857600080fd5b505af415801561268c573d6000803e3d6000fd5b505050506040513d601f19601f820116820180604052508101906126b09190614d4f565b60405163aebe518360e01b8152600481018490526024810182905234604482015290915073__$9449e77bcfc6c744eba20e6cac20521bf9$__9063aebe51839060640160006040518083038186803b15801561270b57600080fd5b505af415801561271f573d6000803e3d6000fd5b505061017180546001810182556000919091527f42b680591beb20d1de0d4ca368d3f10acc6db07bc74b68a9681655fb351b903901839055506127629050610dd7565b6001600160a01b031681857fb8a61f3258608a2f1af184e4640b08e6cd69126e3c563d30b6348ebfb51558843460405161279e91815260200190565b60405180910390a450505050565b60006127ba81610e1f610dd7565b6101645460408051808201909152600681526506060726060760d31b6020820152906001600160a01b03166128025760405162461bcd60e51b8152600401610e62919061506b565b505061016480546001600160a01b0319166001600160a01b0392909216919091179055565b61016c602052600090815260409020805460018201546002830180549293919261285090615387565b80601f016020809104026020016040519081016040528092919081815260200182805461287c90615387565b80156128c95780601f1061289e576101008083540402835291602001916128c9565b820191906000526020600020905b8154815290600101906020018083116128ac57829003601f168201915b5050505050905083565b60008181526101696020908152604091829020600301548251808401909352600683526530303430303160d01b918301919091528291906001600160a01b03166129305760405162461bcd60e51b8152600401610e62919061506b565b50600082815261016960209081526040918290208251808401909352600683526530303330303560d01b9183019190915290346129805760405162461bcd60e51b8152600401610e62919061506b565b50600073__$9449e77bcfc6c744eba20e6cac20521bf9$__63cdaea01361016b866129a9610dd7565b6040516001600160e01b031960e086901b168152600481019390935260248301919091526001600160a01b0316604482015234606482015260840160206040518083038186803b1580156129fc57600080fd5b505af4158015612a10573d6000803e3d6000fd5b505050506040513d601f19601f82011682018060405250810190612a349190614d4f565b604051600162df932b60e01b03198152600481018490526024810182905234604482015290915073__$9449e77bcfc6c744eba20e6cac20521bf9$__9063ff206cd59060640160006040518083038186803b158015612a9257600080fd5b505af4158015612aa6573d6000803e3d6000fd5b50506101728054600181019091557fed95d52ae313e6be6d8c8f9945923a6497c37269ba35d5e3535b758e47227cfc01839055505060038201546001600160a01b0316600090815261016d602052604081208054349290612b089084906152d0565b90915550612b169050610dd7565b6001600160a01b031681857fa7b9de4cae04f62223d95aba2f4ecdd05879f655bab52b8505b696ecf05f72743460405161279e91815260200190565b600083815261016860209081526040808320600401548151808301909252600682526530303230303360d01b92820192909252606092918691906001600160a01b0316612bb25760405162461bcd60e51b8152600401610e62919061506b565b506000868152610168602052604090819020905163074a590760e01b815260048101879052602481018690526006909101604482015273__$9449e77bcfc6c744eba20e6cac20521bf9$__9063074a590790606401611ad5565b60008281526101686020908152604091829020600401548251808401909352600683526530303230303360d01b918301919091528391906001600160a01b0316612c695760405162461bcd60e51b8152600401610e62919061506b565b5082612c73610dd7565b60008281526101686020908152604091829020600401548251808401909352600683526518181918181960d11b9183019190915290916001600160a01b03918216911614612cd45760405162461bcd60e51b8152600401610e62919061506b565b508280600210156040518060400160405280600681526020016530303230313160d01b81525090612d185760405162461bcd60e51b8152600401610e62919061506b565b5060036000868152610168602052604090206009015460ff166003811115612d4257612d42615405565b146040518060400160405280600681526020016530303230303960d01b81525090612d805760405162461bcd60e51b8152600401610e62919061506b565b50600085815261016860205260408120600b015460ff166002811115612da857612da8615405565b146040518060400160405280600681526020016518181918189960d11b81525090612de65760405162461bcd60e51b8152600401610e62919061506b565b50836002811115612df957612df9615405565b600086815261016860205260409020600b01805460ff19166001836002811115612e2557612e25615405565b02179055506000858152610168602052604090819020600581015460049091015491516001600160a01b03918216929091169087907fba2e4b16cb7f6bbe19c7a1146539a78ed1db3efbb3dd80d6c65f0ba1d840345990612e899089815260200190565b60405180910390a45050505050565b600080612ea781610e1f610dd7565b4791505b5090565b60335460ff1615612ed25760405162461bcd60e51b8152600401610e62906151b3565b600261012d541415612ef65760405162461bcd60e51b8152600401610e6290615228565b600261012d5561016d6000612f09610dd7565b6001600160a01b03166001600160a01b03168152602001908152602001600020548211156040518060400160405280600681526020016530303930303160d01b81525090612f6a5760405162461bcd60e51b8152600401610e62919061506b565b508161016d6000612f79610dd7565b6001600160a01b03166001600160a01b031681526020019081526020016000206000828254612fa89190615329565b90915550612fb890508183613d5f565b806001600160a01b0316612fca610dd7565b6001600160a01b03167fddf252ad1be2c89b69c2b068fc378daa952ba7f163c4a11628f55a4df523b3ef8460405161300491815260200190565b60405180910390a35050600161012d55565b600061016d6000613025610dd7565b6001600160a01b03166001600160a01b0316815260200190815260200160002054905090565b600061305960335460ff1690565b156130765760405162461bcd60e51b8152600401610e62906151b3565b600261012d54141561309a5760405162461bcd60e51b8152600401610e6290615228565b600261012d556101625460408051808201909152600681526530303430303360d01b6020820152903410156130e25760405162461bcd60e51b8152600401610e62919061506b565b50604080516000808252602082019092529073__$9449e77bcfc6c744eba20e6cac20521bf9$__63b0b67fa885613117610dd7565b6040518363ffffffff1660e01b815260040161313492919061507e565b60206040518083038186803b15801561314c57600080fd5b505af4158015613160573d6000803e3d6000fd5b505050506040513d601f19601f820116820180604052508101906131849190614d4f565b90506040518060e00160405280858152602001348152602001600081526020016131ac610dd7565b6001600160a01b031681526020808201859052426040808401919091526000606090930183905284835261016982529091208251805191926131f392849290910190614a36565b5060208281015160018301556040830151600283015560608301516003830180546001600160a01b0319166001600160a01b03909216919091179055608083015180516132469260048501920190614ab6565b5060a0820151600582015560c0909101516006909101556101708054600181019091557f88e1afb22f13be7fec203799fd189c3b9471c5b75e2b22a6d5efec11c7f392550181905561015f546001600160a01b0316600090815261016d6020526040812080543492906132ba9084906152d0565b909155506132c89050610dd7565b6001600160a01b0316817f3c860076dbb2474109ea1afc5f287966581081acee08ee7ec1d39cfdd52a07403487604051613303929190615287565b60405180910390a3600161012d559392505050565b60405163074a590760e01b8152600481018390526024810182905261016e604482015260609060009073__$9449e77bcfc6c744eba20e6cac20521bf9$__9063074a590790606401611160565b600081815260fb60205260408120610e0b906142e6565b6101718181548110611a0f57600080fd5b600082815260c960205260409020600101546133ab81610e1f610dd7565b610f018383613e9a565b60006133c1848461340f565b156133ce57506000612207565b60018214156133e7576133e0836142f0565b9050612207565b6133f08361433a565b949350505050565b600061340681610e1f610dd7565b6118f88261437e565b6000600261169c565b6101696020526000908152604090208054819061343490615387565b80601f016020809104026020016040519081016040528092919081815260200182805461346090615387565b80156134ad5780601f10613482576101008083540402835291602001916134ad565b820191906000526020600020905b81548152906001019060200180831161349057829003601f168201915b5050506001840154600285015460038601546005870154600690970154959692959194506001600160a01b0316925086565b600061016c60006134ee610dd7565b6001600160a01b0390811682526020808301939093526040918201600090812091861681526003909101909252902055613526610dd7565b6001600160a01b0316816001600160a01b03167fe5dcccfe8e7890c6d4aa94d44c3b409fb6f023337f29c3308077c0c4068192c460405160405180910390a350565b60405163074a590760e01b81526004810183905260248101829052610171604482015260609060009073__$9449e77bcfc6c744eba20e6cac20521bf9$__9063074a590790606401611160565b60335460ff16156135d85760405162461bcd60e51b8152600401610e62906151b3565b600081815261016a6020908152604091829020548251808401909352600683526530303330303360d01b918301919091528291906001600160a01b03166136325760405162461bcd60e51b8152600401610e62919061506b565b508161363c610dd7565b600082815261016a6020908152604091829020548251808401909352600683526518181998181960d11b9183019190915290916001600160a01b0391821691161461369a5760405162461bcd60e51b8152600401610e62919061506b565b50600083815261016a60209081526040808320600381015484526101689092529182902091516318b5b06760e21b8152600481018290526024810183905290919073__$9449e77bcfc6c744eba20e6cac20521bf9$__906362d6c19c9060440160006040518083038186803b15801561371257600080fd5b505af4158015613726573d6000803e3d6000fd5b50505050816001015461016d600061373c610dd7565b6001600160a01b03166001600160a01b03168152602001908152602001600020600082825461376b91906152d0565b909155506137799050610dd7565b6001600160a01b031660008051602061550383398151915283600101546040516137a591815260200190565b60405180910390a26137b5610dd7565b6001600160a01b03168583600301547f8827140ed7e0aee657f6d8ab3d65b02d30022ed333e284958313db49217e7c3e8560010154604051612e8991815260200190565b6000600182141561380d5750506101615490565b50506101605490565b6065546000906001600160a01b0316331415613839575060131936013560601c90565b503390565b90565b60006001600160e01b03198216637965db0b60e01b1480610e0b57506301ffc9a760e01b6001600160e01b0319831614610e0b565b613880828261220e565b6118f857613898816001600160a01b031660146143c7565b6138a38360206143c7565b6040516020016138b4929190614f8a565b60408051601f198184030181529082905262461bcd60e51b8252610e629160040161506b565b600054610100900460ff166139015760405162461bcd60e51b8152600401610e62906151dd565b613909614563565b613911614563565b613919614563565b611bac614563565b600054610100900460ff166139485760405162461bcd60e51b8152600401610e62906151dd565b611bac61458a565b600054610100900460ff166139775760405162461bcd60e51b8152600401610e62906151dd565b61397f614563565b611bac6145b9565b600054610100900460ff166139ae5760405162461bcd60e51b8152600401610e62906151dd565b6139b6614563565b6139bf8161437e565b50565b6118f88282613e78565b600082815260c96020526040808220600101805490849055905190918391839186917fbd79b86ffe0ab8e8776151514217cd7cacd52c909f66475c3af44e129f0b00ff9190a4505050565b60008073__$9449e77bcfc6c744eba20e6cac20521bf9$__63b0b67fa8848a6040518363ffffffff1660e01b8152600401613a5392919061507e565b60206040518083038186803b158015613a6b57600080fd5b505af4158015613a7f573d6000803e3d6000fd5b505050506040513d601f19601f82011682018060405250810190613aa39190614d4f565b60408051600080825260208201909252919250613ac087426152d0565b9050604051806101a001604052808681526020016040518060200160405280600081525081526020018981526020018981526020018b6001600160a01b031681526020018a6001600160a01b0316815260200183815260200142815260200182815260200160006003811115613b3857613b38615405565b81526020016000815260200160006002811115613b5757613b57615405565b815260209081018890526000858152610168825260409020825180519192613b8492849290910190614a36565b506020828101518051613b9d9260018501920190614a36565b50604082015160028201556060820151600382015560808201516004820180546001600160a01b039283166001600160a01b03199182161790915560a084015160058401805491909316911617905560c08201518051613c07916006840191602090910190614ab6565b5060e08201516007820155610100820151600882015561012082015160098201805460ff19166001836003811115613c4157613c41615405565b0217905550610140820151600a820155610160820151600b8201805460ff19166001836002811115613c7557613c75615405565b02179055506101809190910151600c9091015585613cc85761016e80546001810182556000919091527ff82fbbf6ecba5c6bca8ffdb165c351ca78f1011f756f9b1202212482fd7d831301839055613cff565b61016f80546001810182556000919091527f47d2f800c57de5c44dff408e225b320f1ea140ca87907f0726fd6049ee5595d7018390555b896001600160a01b0316838a6001600160a01b03167fdda647d1e751b8df0a785cd75e0c734774777ff91018aa17aa79bf515f8511558b858a8c604051613d4994939291906152a0565b60405180910390a4509098975050505050505050565b80471015613daf5760405162461bcd60e51b815260206004820152601d60248201527f416464726573733a20696e73756666696369656e742062616c616e63650000006044820152606401610e62565b6000826001600160a01b03168260405160006040518083038185875af1925050503d8060008114613dfc576040519150601f19603f3d011682016040523d82523d6000602084013e613e01565b606091505b5050905080610f015760405162461bcd60e51b815260206004820152603a60248201527f416464726573733a20756e61626c6520746f2073656e642076616c75652c207260448201527f6563697069656e74206d617920686176652072657665727465640000000000006064820152608401610e62565b613e8282826145ec565b600082815260fb60205260409020610f019082614673565b613ea48282614688565b600082815260fb60205260409020610f01908261470d565b60335460ff16613f055760405162461bcd60e51b815260206004820152601460248201527314185d5cd8589b194e881b9bdd081c185d5cd95960621b6044820152606401610e62565b6033805460ff191690557f5db9ee0a495bf2e6ff9c91a7834c1ba4fdd244a5e8aa4e537bd38aeae4b073aa613f38610dd7565b6040516001600160a01b03909116815260200160405180910390a1565b60335460ff1615613f785760405162461bcd60e51b8152600401610e62906151b3565b6033805460ff191660011790557f62e78cea01bee320cd4e420270b5ea74000d11b0c9f74754ebdbfc544b05a258613f38610dd7565b60006122078383614722565b60008381526101686020526040808220905163e7f8899d60e01b81526004810182905282919073__$9449e77bcfc6c744eba20e6cac20521bf9$__9063e7f8899d9060240160006040518083038186803b15801561401757600080fd5b505af415801561402b573d6000803e3d6000fd5b50506101645460009250600160a01b900460ff1615905061406157600482015461405e906001600160a01b03168661474c565b90505b604051633f46f90d60e21b815273__$9449e77bcfc6c744eba20e6cac20521bf9$__9063fd1be4349061409c90859085908b9060040161525f565b60006040518083038186803b1580156140b457600080fd5b505af41580156140c8573d6000803e3d6000fd5b505050506000806140e184600201548560030154614823565b91509150836002015460001415801561413e57506004840154614119906001600160a01b031661410f610dd7565b86600c01546133b5565b61016754614127919061530a565b8460020154856003015461413b9190615329565b10155b156142435760006141506002846152e8565b905061415c82826152d0565b61016d6000614169610dd7565b6001600160a01b03166001600160a01b03168152602001908152602001600020600082825461419891906152d0565b909155505060048501546001600160a01b0316600090815261016d6020526040812080548392906141ca9084906152d0565b909155506141d89050610dd7565b6001600160a01b03166000805160206155038339815191526141fa84846152d0565b60405190815260200160405180910390a260048501546040518281526001600160a01b03909116906000805160206155038339815191529060200160405180910390a2506142cb565b61424d81836152d0565b61016d600061425a610dd7565b6001600160a01b03166001600160a01b03168152602001908152602001600020600082825461428991906152d0565b909155506142979050610dd7565b6001600160a01b03166000805160206155038339815191526142b983856152d0565b60405190815260200160405180910390a25b826142d682846152d0565b9550955050505050935093915050565b6000610e0b825490565b6001600160a01b038116600090815261016c602052604081206001015461431a5750506101615490565b506001600160a01b0316600090815261016c602052604090206001015490565b6001600160a01b038116600090815261016c60205260408120546143615750506101605490565b506001600160a01b0316600090815261016c602052604090205490565b600054610100900460ff166143a55760405162461bcd60e51b8152600401610e62906151dd565b606580546001600160a01b0319166001600160a01b0392909216919091179055565b606060006143d683600261530a565b6143e19060026152d0565b67ffffffffffffffff8111156143f9576143f9615447565b6040519080825280601f01601f191660200182016040528015614423576020820181803683370190505b509050600360fc1b8160008151811061443e5761443e615431565b60200101906001600160f81b031916908160001a905350600f60fb1b8160018151811061446d5761446d615431565b60200101906001600160f81b031916908160001a905350600061449184600261530a565b61449c9060016152d0565b90505b6001811115614514576f181899199a1a9b1b9c1cb0b131b232b360811b85600f16601081106144d0576144d0615431565b1a60f81b8282815181106144e6576144e6615431565b60200101906001600160f81b031916908160001a90535060049490941c9361450d81615370565b905061449f565b5083156122075760405162461bcd60e51b815260206004820181905260248201527f537472696e67733a20686578206c656e67746820696e73756666696369656e746044820152606401610e62565b600054610100900460ff16611bac5760405162461bcd60e51b8152600401610e62906151dd565b600054610100900460ff166145b15760405162461bcd60e51b8152600401610e62906151dd565b600161012d55565b600054610100900460ff166145e05760405162461bcd60e51b8152600401610e62906151dd565b6033805460ff19169055565b6145f6828261220e565b6118f857600082815260c9602090815260408083206001600160a01b03851684529091529020805460ff1916600117905561462f610dd7565b6001600160a01b0316816001600160a01b0316837f2f8788117e7eff1d82e926ec794901d17c78024a50270940304540a733656f0d60405160405180910390a45050565b6000612207836001600160a01b0384166148f4565b614692828261220e565b156118f857600082815260c9602090815260408083206001600160a01b03851684529091529020805460ff191690556146c9610dd7565b6001600160a01b0316816001600160a01b0316837ff6391f5c32d9c69d2a47ea670b442974b53935d1edc7fd64eb21e047a839171b60405160405180910390a45050565b6000612207836001600160a01b038416614943565b600082600001828154811061473957614739615431565b9060005260206000200154905092915050565b6101645460405163d0def52160e01b81526000916001600160a01b03169063d0def521906147809086908690600401614fff565b602060405180830381600087803b15801561479a57600080fd5b505af19250505080156147ca575060408051601f3d908101601f191682019092526147c791810190614d4f565b60015b61481c576147d661545d565b806308c379a0141561481057506147eb615478565b806147f65750614812565b8060405162461bcd60e51b8152600401610e62919061506b565b505b3d6000803e3d6000fd5b9050610e0b565b600080806127106bffffffffffffffffffffffff166101635486866148489190615329565b614852919061530a565b61485c91906152e8565b905060006127106bffffffffffffffffffffffff166101635487614880919061530a565b61488a91906152e8565b905061489681836152d0565b61015f546001600160a01b0316600090815261016d6020526040812080549091906148c29084906152d0565b909155508290506148d38787615329565b6148dd9190615329565b6148e78288615329565b9350935050509250929050565b600081815260018301602052604081205461493b57508154600181810184556000848152602080822090930184905584548482528286019093526040902091909155610e0b565b506000610e0b565b60008181526001830160205260408120548015614a2c576000614967600183615329565b855490915060009061497b90600190615329565b90508181146149e057600086600001828154811061499b5761499b615431565b90600052602060002001549050808760000184815481106149be576149be615431565b6000918252602080832090910192909255918252600188019052604090208390555b85548690806149f1576149f161541b565b600190038181906000526020600020016000905590558560010160008681526020019081526020016000206000905560019350505050610e0b565b6000915050610e0b565b828054614a4290615387565b90600052602060002090601f016020900481019282614a645760008555614aaa565b82601f10614a7d57805160ff1916838001178555614aaa565b82800160010185558215614aaa579182015b82811115614aaa578251825591602001919060010190614a8f565b50612eab929150614af0565b828054828255906000526020600020908101928215614aaa5791602002820182811115614aaa578251825591602001919060010190614a8f565b5b80821115612eab5760008155600101614af1565b80356001600160a01b0381168114614b1c57600080fd5b919050565b600082601f830112614b3257600080fd5b813567ffffffffffffffff811115614b4c57614b4c615447565b604051614b63601f8301601f1916602001826153c2565b818152846020838601011115614b7857600080fd5b816020850160208301376000918101602001919091529392505050565b600060208284031215614ba757600080fd5b61220782614b05565b60008060408385031215614bc357600080fd5b614bcc83614b05565b9150614bda60208401614b05565b90509250929050565b600080600060608486031215614bf857600080fd5b614c0184614b05565b9250614c0f60208501614b05565b9150604084013590509250925092565b60008060008060808587031215614c3557600080fd5b614c3e85614b05565b93506020850135925060408501359150606085013567ffffffffffffffff811115614c6857600080fd5b614c7487828801614b21565b91505092959194509250565b60008060408385031215614c9357600080fd5b825167ffffffffffffffff80821115614cab57600080fd5b818501915085601f830112614cbf57600080fd5b8151602082821115614cd357614cd3615447565b8160051b9250604051614ce8828501826153c2565b82815281810185830185870184018b1015614d0257600080fd5b600096505b84871015614d25578051825260019690960195908301908301614d07565b505096015195979596505050505050565b600060208284031215614d4857600080fd5b5035919050565b600060208284031215614d6157600080fd5b5051919050565b60008060408385031215614d7b57600080fd5b82359150614bda60208401614b05565b600080600060608486031215614da057600080fd5b83359250602084013567ffffffffffffffff80821115614dbf57600080fd5b614dcb87838801614b21565b93506040860135915080821115614de157600080fd5b50614dee86828701614b21565b9150509250925092565b60008060408385031215614e0b57600080fd5b50508035926020909101359150565b600080600060608486031215614e2f57600080fd5b505081359360208301359350604090920135919050565b600060208284031215614e5857600080fd5b81356001600160e01b03198116811461220757600080fd5b600060208284031215614e8257600080fd5b813567ffffffffffffffff811115614e9957600080fd5b6133f084828501614b21565b60008060408385031215614eb857600080fd5b82359150602083013560028110614ece57600080fd5b809150509250929050565b600080600080600080600060e0888a031215614ef457600080fd5b873596506020880135955060408801359450614f1260608901614b05565b9350614f2060808901614b05565b9250614f2e60a08901614b05565b9150614f3c60c08901614b05565b905092959891949750929550565b60008151808452614f62816020860160208601615340565b601f01601f19169290920160200192915050565b60038110614f8657614f86615405565b9052565b7f416363657373436f6e74726f6c3a206163636f756e7420000000000000000000815260008351614fc2816017850160208801615340565b7001034b99036b4b9b9b4b733903937b6329607d1b6017918401918201528351614ff3816028840160208801615340565b01602801949350505050565b6001600160a01b03831681526040602082018190526000906133f090830184614f4a565b604080825283519082018190526000906020906060840190828701845b8281101561505c57815184529284019290840190600101615040565b50505092019290925292915050565b6020815260006122076020830184614f4a565b6040815260006150916040830185614f4a565b905060018060a01b03831660208301529392505050565b610180815260006150bd61018083018f614f4a565b82810360208401526150cf818f614f4a565b604084018e9052606084018d90526001600160a01b038c811660808601528b1660a085015260c084018a905260e084018990529150506004861061511557615115615405565b8561010083015284610120830152615131610140830185614f76565b826101608301529d9c50505050505050505050505050565b60608152600061515c6060830186614f4a565b60208301949094525060400152919050565b60c08152600061518160c0830189614f4a565b60208301979097525060408101949094526001600160a01b03929092166060840152608083015260a090910152919050565b60208082526010908201526f14185d5cd8589b194e881c185d5cd95960821b604082015260600190565b6020808252602b908201527f496e697469616c697a61626c653a20636f6e7472616374206973206e6f74206960408201526a6e697469616c697a696e6760a81b606082015260800190565b6020808252601f908201527f5265656e7472616e637947756172643a207265656e7472616e742063616c6c00604082015260600190565b83815282602082015260606040820152600061527e6060830184614f4a565b95945050505050565b8281526040602082015260006133f06040830184614f4a565b8481528360208201526080604082015260006152bf6080830185614f4a565b905082606083015295945050505050565b600082198211156152e3576152e36153ef565b500190565b60008261530557634e487b7160e01b600052601260045260246000fd5b500490565b6000816000190483118215151615615324576153246153ef565b500290565b60008282101561533b5761533b6153ef565b500390565b60005b8381101561535b578181015183820152602001615343565b8381111561536a576000848401525b50505050565b60008161537f5761537f6153ef565b506000190190565b600181811c9082168061539b57607f821691505b602082108114156153bc57634e487b7160e01b600052602260045260246000fd5b50919050565b601f8201601f1916810167ffffffffffffffff811182821017156153e8576153e8615447565b6040525050565b634e487b7160e01b600052601160045260246000fd5b634e487b7160e01b600052602160045260246000fd5b634e487b7160e01b600052603160045260246000fd5b634e487b7160e01b600052603260045260246000fd5b634e487b7160e01b600052604160045260246000fd5b600060033d111561383e5760046000803e5060005160e01c90565b600060443d10156154865790565b6040516003193d81016004833e81513d67ffffffffffffffff81602484011181841117156154b657505050505090565b82850191508151818111156154ce5750505050505090565b843d87010160208285010111156154e85750505050505090565b6154f7602082860101876153c2565b50909594505050505056fe0036624afd4ac14e2ebe9b68a6ec0c6e4f6bf5bde2999a61e1fec085ca86697da26469706673582212201fa1e496e7c9a5629cc4b5c3e22d1c6fa2d4a01a3c47625372b98557ebfed26764736f6c63430008070033",
			"opcodes": "PUSH1 0x80 PUSH1 0x40 MSTORE CALLVALUE DUP1 ISZERO PUSH2 0x10 JUMPI PUSH1 0x0 DUP1 REVERT JUMPDEST POP PUSH2 0x5558 DUP1 PUSH2 0x20 PUSH1 0x0 CODECOPY PUSH1 0x0 RETURN INVALID PUSH1 0x80 PUSH1 0x40 MSTORE PUSH1 0x4 CALLDATASIZE LT PUSH2 0x409 JUMPI PUSH1 0x0 CALLDATALOAD PUSH1 0xE0 SHR DUP1 PUSH4 0x94A34045 GT PUSH2 0x213 JUMPI DUP1 PUSH4 0xC415B95C GT PUSH2 0x123 JUMPI DUP1 PUSH4 0xDA742228 GT PUSH2 0xAB JUMPI DUP1 PUSH4 0xF107CFCB GT PUSH2 0x7A JUMPI DUP1 PUSH4 0xF107CFCB EQ PUSH2 0xD23 JUMPI DUP1 PUSH4 0xF1096C21 EQ PUSH2 0xD43 JUMPI DUP1 PUSH4 0xF224AA4F EQ PUSH2 0xD63 JUMPI DUP1 PUSH4 0xF36C8F5C EQ PUSH2 0xD83 JUMPI DUP1 PUSH4 0xFEA32600 EQ PUSH2 0xDB7 JUMPI PUSH1 0x0 DUP1 REVERT JUMPDEST DUP1 PUSH4 0xDA742228 EQ PUSH2 0xC9A JUMPI DUP1 PUSH4 0xDC1A0911 EQ PUSH2 0xCBA JUMPI DUP1 PUSH4 0xDFF72DEC EQ PUSH2 0xCDA JUMPI DUP1 PUSH4 0xE86DEA4A EQ PUSH2 0xD0C JUMPI PUSH1 0x0 DUP1 REVERT JUMPDEST DUP1 PUSH4 0xD00A818F GT PUSH2 0xF2 JUMPI DUP1 PUSH4 0xD00A818F EQ PUSH2 0xC02 JUMPI DUP1 PUSH4 0xD3E15BDA EQ PUSH2 0xC19 JUMPI DUP1 PUSH4 0xD547741F EQ PUSH2 0xC39 JUMPI DUP1 PUSH4 0xD56D229D EQ PUSH2 0xC59 JUMPI DUP1 PUSH4 0xD9FFFC82 EQ PUSH2 0xC7A JUMPI PUSH1 0x0 DUP1 REVERT JUMPDEST DUP1 PUSH4 0xC415B95C EQ PUSH2 0xB8E JUMPI DUP1 PUSH4 0xC7303C61 EQ PUSH2 0xBAF JUMPI DUP1 PUSH4 0xCA05249F EQ PUSH2 0xBC2 JUMPI DUP1 PUSH4 0xCA15C873 EQ PUSH2 0xBE2 JUMPI PUSH1 0x0 DUP1 REVERT JUMPDEST DUP1 PUSH4 0xA87430BA GT PUSH2 0x1A6 JUMPI DUP1 PUSH4 0xB1DF7383 GT PUSH2 0x175 JUMPI DUP1 PUSH4 0xB1DF7383 EQ PUSH2 0xB0D JUMPI DUP1 PUSH4 0xB69EF8A8 EQ PUSH2 0xB2D JUMPI DUP1 PUSH4 0xB7760C8F EQ PUSH2 0xB42 JUMPI DUP1 PUSH4 0xBF152765 EQ PUSH2 0xB62 JUMPI DUP1 PUSH4 0xC0EF21EE EQ PUSH2 0xB77 JUMPI PUSH1 0x0 DUP1 REVERT JUMPDEST DUP1 PUSH4 0xA87430BA EQ PUSH2 0xA94 JUMPI DUP1 PUSH4 0xA9A3AA83 EQ PUSH2 0xAC3 JUMPI DUP1 PUSH4 0xAAFA3061 EQ PUSH2 0xAD6 JUMPI DUP1 PUSH4 0xB12EA2A3 EQ PUSH2 0xAED JUMPI PUSH1 0x0 DUP1 REVERT JUMPDEST DUP1 PUSH4 0xA217FDDF GT PUSH2 0x1E2 JUMPI DUP1 PUSH4 0xA217FDDF EQ PUSH2 0xA2C JUMPI DUP1 PUSH4 0xA70806F7 EQ PUSH2 0xA41 JUMPI DUP1 PUSH4 0xA740D68E EQ PUSH2 0xA61 JUMPI DUP1 PUSH4 0xA7CCABDF EQ PUSH2 0xA74 JUMPI PUSH1 0x0 DUP1 REVERT JUMPDEST DUP1 PUSH4 0x94A34045 EQ PUSH2 0x9AC JUMPI DUP1 PUSH4 0x96858061 EQ PUSH2 0x9CC JUMPI DUP1 PUSH4 0x98F17C96 EQ PUSH2 0x9EC JUMPI DUP1 PUSH4 0xA02F3C78 EQ PUSH2 0xA0C JUMPI PUSH1 0x0 DUP1 REVERT JUMPDEST DUP1 PUSH4 0x3F4BA83A GT PUSH2 0x319 JUMPI DUP1 PUSH4 0x5AD1C6E5 GT PUSH2 0x2A1 JUMPI DUP1 PUSH4 0x79CED747 GT PUSH2 0x270 JUMPI DUP1 PUSH4 0x79CED747 EQ PUSH2 0x908 JUMPI DUP1 PUSH4 0x83579125 EQ PUSH2 0x91F JUMPI DUP1 PUSH4 0x8456CB59 EQ PUSH2 0x93F JUMPI DUP1 PUSH4 0x9010D07C EQ PUSH2 0x954 JUMPI DUP1 PUSH4 0x91D14854 EQ PUSH2 0x98C JUMPI PUSH1 0x0 DUP1 REVERT JUMPDEST DUP1 PUSH4 0x5AD1C6E5 EQ PUSH2 0x824 JUMPI DUP1 PUSH4 0x5C975ABB EQ PUSH2 0x844 JUMPI DUP1 PUSH4 0x602BF227 EQ PUSH2 0x85C JUMPI DUP1 PUSH4 0x65F898E1 EQ PUSH2 0x8E8 JUMPI PUSH1 0x0 DUP1 REVERT JUMPDEST DUP1 PUSH4 0x4D1CCB62 GT PUSH2 0x2E8 JUMPI DUP1 PUSH4 0x4D1CCB62 EQ PUSH2 0x787 JUMPI DUP1 PUSH4 0x4D31A6ED EQ PUSH2 0x7A7 JUMPI DUP1 PUSH4 0x4F09C912 EQ PUSH2 0x7BE JUMPI DUP1 PUSH4 0x50CDE8EF EQ PUSH2 0x7D5 JUMPI DUP1 PUSH4 0x572B6C05 EQ PUSH2 0x7F5 JUMPI PUSH1 0x0 DUP1 REVERT JUMPDEST DUP1 PUSH4 0x3F4BA83A EQ PUSH2 0x712 JUMPI DUP1 PUSH4 0x49E03502 EQ PUSH2 0x727 JUMPI DUP1 PUSH4 0x4A4C560D EQ PUSH2 0x747 JUMPI DUP1 PUSH4 0x4B8E7A34 EQ PUSH2 0x767 JUMPI PUSH1 0x0 DUP1 REVERT JUMPDEST DUP1 PUSH4 0x248A9CA3 GT PUSH2 0x39C JUMPI DUP1 PUSH4 0x2F2FF15D GT PUSH2 0x36B JUMPI DUP1 PUSH4 0x2F2FF15D EQ PUSH2 0x672 JUMPI DUP1 PUSH4 0x36568ABE EQ PUSH2 0x692 JUMPI DUP1 PUSH4 0x3DA01325 EQ PUSH2 0x6B2 JUMPI DUP1 PUSH4 0x3DC9979E EQ PUSH2 0x6D2 JUMPI DUP1 PUSH4 0x3E11B5DC EQ PUSH2 0x6F2 JUMPI PUSH1 0x0 DUP1 REVERT JUMPDEST DUP1 PUSH4 0x248A9CA3 EQ PUSH2 0x5CA JUMPI DUP1 PUSH4 0x2BBD59CA EQ PUSH2 0x5FA JUMPI DUP1 PUSH4 0x2C8D6FD6 EQ PUSH2 0x632 JUMPI DUP1 PUSH4 0x2E1A7D4D EQ PUSH2 0x652 JUMPI PUSH1 0x0 DUP1 REVERT JUMPDEST DUP1 PUSH4 0x10F5FF3E GT PUSH2 0x3D8 JUMPI DUP1 PUSH4 0x10F5FF3E EQ PUSH2 0x4E4 JUMPI DUP1 PUSH4 0x190C69A2 EQ PUSH2 0x512 JUMPI DUP1 PUSH4 0x1B1456D6 EQ PUSH2 0x532 JUMPI DUP1 PUSH4 0x20D4F41B EQ PUSH2 0x5A9 JUMPI PUSH1 0x0 DUP1 REVERT JUMPDEST DUP1 PUSH4 0x1FFC9A7 EQ PUSH2 0x44D JUMPI DUP1 PUSH4 0x49C067A EQ PUSH2 0x482 JUMPI DUP1 PUSH4 0x9B82CFD EQ PUSH2 0x4A4 JUMPI DUP1 PUSH4 0xFC65407 EQ PUSH2 0x4C4 JUMPI PUSH1 0x0 DUP1 REVERT JUMPDEST CALLDATASIZE PUSH2 0x448 JUMPI PUSH2 0x416 PUSH2 0xDD7 JUMP JUMPDEST PUSH1 0x1 PUSH1 0x1 PUSH1 0xA0 SHL SUB AND PUSH1 0x0 DUP1 MLOAD PUSH1 0x20 PUSH2 0x5503 DUP4 CODECOPY DUP2 MLOAD SWAP2 MSTORE CALLVALUE PUSH1 0x40 MLOAD PUSH2 0x43E SWAP2 DUP2 MSTORE PUSH1 0x20 ADD SWAP1 JUMP JUMPDEST PUSH1 0x40 MLOAD DUP1 SWAP2 SUB SWAP1 LOG2 STOP JUMPDEST PUSH1 0x0 DUP1 REVERT JUMPDEST CALLVALUE DUP1 ISZERO PUSH2 0x459 JUMPI PUSH1 0x0 DUP1 REVERT JUMPDEST POP PUSH2 0x46D PUSH2 0x468 CALLDATASIZE PUSH1 0x4 PUSH2 0x4E46 JUMP JUMPDEST PUSH2 0xDE6 JUMP JUMPDEST PUSH1 0x40 MLOAD SWAP1 ISZERO ISZERO DUP2 MSTORE PUSH1 0x20 ADD JUMPDEST PUSH1 0x40 MLOAD DUP1 SWAP2 SUB SWAP1 RETURN JUMPDEST CALLVALUE DUP1 ISZERO PUSH2 0x48E JUMPI PUSH1 0x0 DUP1 REVERT JUMPDEST POP PUSH2 0x4A2 PUSH2 0x49D CALLDATASIZE PUSH1 0x4 PUSH2 0x4D36 JUMP JUMPDEST PUSH2 0xE11 JUMP JUMPDEST STOP JUMPDEST CALLVALUE DUP1 ISZERO PUSH2 0x4B0 JUMPI PUSH1 0x0 DUP1 REVERT JUMPDEST POP PUSH2 0x4A2 PUSH2 0x4BF CALLDATASIZE PUSH1 0x4 PUSH2 0x4EA5 JUMP JUMPDEST PUSH2 0xE73 JUMP JUMPDEST CALLVALUE DUP1 ISZERO PUSH2 0x4D0 JUMPI PUSH1 0x0 DUP1 REVERT JUMPDEST POP PUSH2 0x4A2 PUSH2 0x4DF CALLDATASIZE PUSH1 0x4 PUSH2 0x4ED9 JUMP JUMPDEST PUSH2 0xF06 JUMP JUMPDEST CALLVALUE DUP1 ISZERO PUSH2 0x4F0 JUMPI PUSH1 0x0 DUP1 REVERT JUMPDEST POP PUSH2 0x504 PUSH2 0x4FF CALLDATASIZE PUSH1 0x4 PUSH2 0x4DF8 JUMP JUMPDEST PUSH2 0x1117 JUMP JUMPDEST PUSH1 0x40 MLOAD PUSH2 0x479 SWAP3 SWAP2 SWAP1 PUSH2 0x5023 JUMP JUMPDEST CALLVALUE DUP1 ISZERO PUSH2 0x51E JUMPI PUSH1 0x0 DUP1 REVERT JUMPDEST POP PUSH2 0x4A2 PUSH2 0x52D CALLDATASIZE PUSH1 0x4 PUSH2 0x4B95 JUMP JUMPDEST PUSH2 0x11BF JUMP JUMPDEST CALLVALUE DUP1 ISZERO PUSH2 0x53E JUMPI PUSH1 0x0 DUP1 REVERT JUMPDEST POP PUSH2 0x57F PUSH2 0x54D CALLDATASIZE PUSH1 0x4 PUSH2 0x4D36 JUMP JUMPDEST PUSH2 0x16B PUSH1 0x20 MSTORE PUSH1 0x0 SWAP1 DUP2 MSTORE PUSH1 0x40 SWAP1 KECCAK256 DUP1 SLOAD PUSH1 0x1 DUP3 ADD SLOAD PUSH1 0x2 DUP4 ADD SLOAD PUSH1 0x3 SWAP1 SWAP4 ADD SLOAD PUSH1 0x1 PUSH1 0x1 PUSH1 0xA0 SHL SUB SWAP1 SWAP3 AND SWAP3 SWAP1 SWAP2 DUP5 JUMP JUMPDEST PUSH1 0x40 DUP1 MLOAD PUSH1 0x1 PUSH1 0x1 PUSH1 0xA0 SHL SUB SWAP1 SWAP6 AND DUP6 MSTORE PUSH1 0x20 DUP6 ADD SWAP4 SWAP1 SWAP4 MSTORE SWAP2 DUP4 ADD MSTORE PUSH1 0x60 DUP3 ADD MSTORE PUSH1 0x80 ADD PUSH2 0x479 JUMP JUMPDEST PUSH2 0x5BC PUSH2 0x5B7 CALLDATASIZE PUSH1 0x4 PUSH2 0x4C1F JUMP JUMPDEST PUSH2 0x1266 JUMP JUMPDEST PUSH1 0x40 MLOAD SWAP1 DUP2 MSTORE PUSH1 0x20 ADD PUSH2 0x479 JUMP JUMPDEST CALLVALUE DUP1 ISZERO PUSH2 0x5D6 JUMPI PUSH1 0x0 DUP1 REVERT JUMPDEST POP PUSH2 0x5BC PUSH2 0x5E5 CALLDATASIZE PUSH1 0x4 PUSH2 0x4D36 JUMP JUMPDEST PUSH1 0x0 SWAP1 DUP2 MSTORE PUSH1 0xC9 PUSH1 0x20 MSTORE PUSH1 0x40 SWAP1 KECCAK256 PUSH1 0x1 ADD SLOAD SWAP1 JUMP JUMPDEST CALLVALUE DUP1 ISZERO PUSH2 0x606 JUMPI PUSH1 0x0 DUP1 REVERT JUMPDEST POP PUSH2 0x61A PUSH2 0x615 CALLDATASIZE PUSH1 0x4 PUSH2 0x4D36 JUMP JUMPDEST PUSH2 0x1515 JUMP JUMPDEST PUSH1 0x40 MLOAD PUSH2 0x479 SWAP13 SWAP12 SWAP11 SWAP10 SWAP9 SWAP8 SWAP7 SWAP6 SWAP5 SWAP4 SWAP3 SWAP2 SWAP1 PUSH2 0x50A8 JUMP JUMPDEST CALLVALUE DUP1 ISZERO PUSH2 0x63E JUMPI PUSH1 0x0 DUP1 REVERT JUMPDEST POP PUSH2 0x46D PUSH2 0x64D CALLDATASIZE PUSH1 0x4 PUSH2 0x4BB0 JUMP JUMPDEST PUSH2 0x1697 JUMP JUMPDEST CALLVALUE DUP1 ISZERO PUSH2 0x65E JUMPI PUSH1 0x0 DUP1 REVERT JUMPDEST POP PUSH2 0x4A2 PUSH2 0x66D CALLDATASIZE PUSH1 0x4 PUSH2 0x4D36 JUMP JUMPDEST PUSH2 0x16E3 JUMP JUMPDEST CALLVALUE DUP1 ISZERO PUSH2 0x67E JUMPI PUSH1 0x0 DUP1 REVERT JUMPDEST POP PUSH2 0x4A2 PUSH2 0x68D CALLDATASIZE PUSH1 0x4 PUSH2 0x4D68 JUMP JUMPDEST PUSH2 0x1846 JUMP JUMPDEST CALLVALUE DUP1 ISZERO PUSH2 0x69E JUMPI PUSH1 0x0 DUP1 REVERT JUMPDEST POP PUSH2 0x4A2 PUSH2 0x6AD CALLDATASIZE PUSH1 0x4 PUSH2 0x4D68 JUMP JUMPDEST PUSH2 0x186E JUMP JUMPDEST CALLVALUE DUP1 ISZERO PUSH2 0x6BE JUMPI PUSH1 0x0 DUP1 REVERT JUMPDEST POP PUSH2 0x4A2 PUSH2 0x6CD CALLDATASIZE PUSH1 0x4 PUSH2 0x4B95 JUMP JUMPDEST PUSH2 0x18FC JUMP JUMPDEST CALLVALUE DUP1 ISZERO PUSH2 0x6DE JUMPI PUSH1 0x0 DUP1 REVERT JUMPDEST POP PUSH2 0x5BC PUSH2 0x6ED CALLDATASIZE PUSH1 0x4 PUSH2 0x4D36 JUMP JUMPDEST PUSH2 0x19FE JUMP JUMPDEST CALLVALUE DUP1 ISZERO PUSH2 0x6FE JUMPI PUSH1 0x0 DUP1 REVERT JUMPDEST POP PUSH2 0x504 PUSH2 0x70D CALLDATASIZE PUSH1 0x4 PUSH2 0x4E1A JUMP JUMPDEST PUSH2 0x1A20 JUMP JUMPDEST CALLVALUE DUP1 ISZERO PUSH2 0x71E JUMPI PUSH1 0x0 DUP1 REVERT JUMPDEST POP PUSH2 0x4A2 PUSH2 0x1B36 JUMP JUMPDEST CALLVALUE DUP1 ISZERO PUSH2 0x733 JUMPI PUSH1 0x0 DUP1 REVERT JUMPDEST POP PUSH2 0x504 PUSH2 0x742 CALLDATASIZE PUSH1 0x4 PUSH2 0x4DF8 JUMP JUMPDEST PUSH2 0x1BAE JUMP JUMPDEST CALLVALUE DUP1 ISZERO PUSH2 0x753 JUMPI PUSH1 0x0 DUP1 REVERT JUMPDEST POP PUSH2 0x4A2 PUSH2 0x762 CALLDATASIZE PUSH1 0x4 PUSH2 0x4B95 JUMP JUMPDEST PUSH2 0x1BFB JUMP JUMPDEST CALLVALUE DUP1 ISZERO PUSH2 0x773 JUMPI PUSH1 0x0 DUP1 REVERT JUMPDEST POP PUSH2 0x4A2 PUSH2 0x782 CALLDATASIZE PUSH1 0x4 PUSH2 0x4D36 JUMP JUMPDEST PUSH2 0x1D35 JUMP JUMPDEST CALLVALUE DUP1 ISZERO PUSH2 0x793 JUMPI PUSH1 0x0 DUP1 REVERT JUMPDEST POP PUSH2 0x4A2 PUSH2 0x7A2 CALLDATASIZE PUSH1 0x4 PUSH2 0x4D36 JUMP JUMPDEST PUSH2 0x1D98 JUMP JUMPDEST CALLVALUE DUP1 ISZERO PUSH2 0x7B3 JUMPI PUSH1 0x0 DUP1 REVERT JUMPDEST POP PUSH2 0x5BC PUSH2 0x160 SLOAD DUP2 JUMP JUMPDEST CALLVALUE DUP1 ISZERO PUSH2 0x7CA JUMPI PUSH1 0x0 DUP1 REVERT JUMPDEST POP PUSH2 0x5BC PUSH2 0x162 SLOAD DUP2 JUMP JUMPDEST CALLVALUE DUP1 ISZERO PUSH2 0x7E1 JUMPI PUSH1 0x0 DUP1 REVERT JUMPDEST POP PUSH2 0x5BC PUSH2 0x7F0 CALLDATASIZE PUSH1 0x4 PUSH2 0x4D36 JUMP JUMPDEST PUSH2 0x1DAD JUMP JUMPDEST CALLVALUE DUP1 ISZERO PUSH2 0x801 JUMPI PUSH1 0x0 DUP1 REVERT JUMPDEST POP PUSH2 0x46D PUSH2 0x810 CALLDATASIZE PUSH1 0x4 PUSH2 0x4B95 JUMP JUMPDEST PUSH1 0x65 SLOAD PUSH1 0x1 PUSH1 0x1 PUSH1 0xA0 SHL SUB SWAP2 DUP3 AND SWAP2 AND EQ SWAP1 JUMP JUMPDEST CALLVALUE DUP1 ISZERO PUSH2 0x830 JUMPI PUSH1 0x0 DUP1 REVERT JUMPDEST POP PUSH2 0x504 PUSH2 0x83F CALLDATASIZE PUSH1 0x4 PUSH2 0x4DF8 JUMP JUMPDEST PUSH2 0x1DBE JUMP JUMPDEST CALLVALUE DUP1 ISZERO PUSH2 0x850 JUMPI PUSH1 0x0 DUP1 REVERT JUMPDEST POP PUSH1 0x33 SLOAD PUSH1 0xFF AND PUSH2 0x46D JUMP JUMPDEST CALLVALUE DUP1 ISZERO PUSH2 0x868 JUMPI PUSH1 0x0 DUP1 REVERT JUMPDEST POP PUSH2 0x8B4 PUSH2 0x877 CALLDATASIZE PUSH1 0x4 PUSH2 0x4D36 JUMP JUMPDEST PUSH2 0x16A PUSH1 0x20 MSTORE PUSH1 0x0 SWAP1 DUP2 MSTORE PUSH1 0x40 SWAP1 KECCAK256 DUP1 SLOAD PUSH1 0x1 DUP3 ADD SLOAD PUSH1 0x2 DUP4 ADD SLOAD PUSH1 0x3 DUP5 ADD SLOAD PUSH1 0x4 SWAP1 SWAP5 ADD SLOAD PUSH1 0x1 PUSH1 0x1 PUSH1 0xA0 SHL SUB SWAP1 SWAP4 AND SWAP4 SWAP2 SWAP3 SWAP1 SWAP2 SWAP1 PUSH1 0xFF AND DUP6 JUMP JUMPDEST PUSH1 0x40 DUP1 MLOAD PUSH1 0x1 PUSH1 0x1 PUSH1 0xA0 SHL SUB SWAP1 SWAP7 AND DUP7 MSTORE PUSH1 0x20 DUP7 ADD SWAP5 SWAP1 SWAP5 MSTORE SWAP3 DUP5 ADD SWAP2 SWAP1 SWAP2 MSTORE PUSH1 0x60 DUP4 ADD MSTORE ISZERO ISZERO PUSH1 0x80 DUP3 ADD MSTORE PUSH1 0xA0 ADD PUSH2 0x479 JUMP JUMPDEST CALLVALUE DUP1 ISZERO PUSH2 0x8F4 JUMPI PUSH1 0x0 DUP1 REVERT JUMPDEST POP PUSH2 0x4A2 PUSH2 0x903 CALLDATASIZE PUSH1 0x4 PUSH2 0x4B95 JUMP JUMPDEST PUSH2 0x1E0B JUMP JUMPDEST CALLVALUE DUP1 ISZERO PUSH2 0x914 JUMPI PUSH1 0x0 DUP1 REVERT JUMPDEST POP PUSH2 0x5BC PUSH2 0x161 SLOAD DUP2 JUMP JUMPDEST CALLVALUE DUP1 ISZERO PUSH2 0x92B JUMPI PUSH1 0x0 DUP1 REVERT JUMPDEST POP PUSH2 0x4A2 PUSH2 0x93A CALLDATASIZE PUSH1 0x4 PUSH2 0x4D36 JUMP JUMPDEST PUSH2 0x1F44 JUMP JUMPDEST CALLVALUE DUP1 ISZERO PUSH2 0x94B JUMPI PUSH1 0x0 DUP1 REVERT JUMPDEST POP PUSH2 0x4A2 PUSH2 0x217B JUMP JUMPDEST CALLVALUE DUP1 ISZERO PUSH2 0x960 JUMPI PUSH1 0x0 DUP1 REVERT JUMPDEST POP PUSH2 0x974 PUSH2 0x96F CALLDATASIZE PUSH1 0x4 PUSH2 0x4DF8 JUMP JUMPDEST PUSH2 0x21EF JUMP JUMPDEST PUSH1 0x40 MLOAD PUSH1 0x1 PUSH1 0x1 PUSH1 0xA0 SHL SUB SWAP1 SWAP2 AND DUP2 MSTORE PUSH1 0x20 ADD PUSH2 0x479 JUMP JUMPDEST CALLVALUE DUP1 ISZERO PUSH2 0x998 JUMPI PUSH1 0x0 DUP1 REVERT JUMPDEST POP PUSH2 0x46D PUSH2 0x9A7 CALLDATASIZE PUSH1 0x4 PUSH2 0x4D68 JUMP JUMPDEST PUSH2 0x220E JUMP JUMPDEST CALLVALUE DUP1 ISZERO PUSH2 0x9B8 JUMPI PUSH1 0x0 DUP1 REVERT JUMPDEST POP PUSH2 0x4A2 PUSH2 0x9C7 CALLDATASIZE PUSH1 0x4 PUSH2 0x4EA5 JUMP JUMPDEST PUSH2 0x2239 JUMP JUMPDEST CALLVALUE DUP1 ISZERO PUSH2 0x9D8 JUMPI PUSH1 0x0 DUP1 REVERT JUMPDEST POP PUSH2 0x4A2 PUSH2 0x9E7 CALLDATASIZE PUSH1 0x4 PUSH2 0x4D8B JUMP JUMPDEST PUSH2 0x22F3 JUMP JUMPDEST CALLVALUE DUP1 ISZERO PUSH2 0x9F8 JUMPI PUSH1 0x0 DUP1 REVERT JUMPDEST POP PUSH2 0x5BC PUSH2 0xA07 CALLDATASIZE PUSH1 0x4 PUSH2 0x4D36 JUMP JUMPDEST PUSH2 0x243F JUMP JUMPDEST CALLVALUE DUP1 ISZERO PUSH2 0xA18 JUMPI PUSH1 0x0 DUP1 REVERT JUMPDEST POP PUSH2 0x5BC PUSH2 0xA27 CALLDATASIZE PUSH1 0x4 PUSH2 0x4D36 JUMP JUMPDEST PUSH2 0x2450 JUMP JUMPDEST CALLVALUE DUP1 ISZERO PUSH2 0xA38 JUMPI PUSH1 0x0 DUP1 REVERT JUMPDEST POP PUSH2 0x5BC PUSH1 0x0 DUP2 JUMP JUMPDEST CALLVALUE DUP1 ISZERO PUSH2 0xA4D JUMPI PUSH1 0x0 DUP1 REVERT JUMPDEST POP PUSH2 0x4A2 PUSH2 0xA5C CALLDATASIZE PUSH1 0x4 PUSH2 0x4B95 JUMP JUMPDEST PUSH2 0x2461 JUMP JUMPDEST PUSH2 0x4A2 PUSH2 0xA6F CALLDATASIZE PUSH1 0x4 PUSH2 0x4D36 JUMP JUMPDEST PUSH2 0x24EA JUMP JUMPDEST CALLVALUE DUP1 ISZERO PUSH2 0xA80 JUMPI PUSH1 0x0 DUP1 REVERT JUMPDEST POP PUSH2 0x4A2 PUSH2 0xA8F CALLDATASIZE PUSH1 0x4 PUSH2 0x4B95 JUMP JUMPDEST PUSH2 0x27AC JUMP JUMPDEST CALLVALUE DUP1 ISZERO PUSH2 0xAA0 JUMPI PUSH1 0x0 DUP1 REVERT JUMPDEST POP PUSH2 0xAB4 PUSH2 0xAAF CALLDATASIZE PUSH1 0x4 PUSH2 0x4B95 JUMP JUMPDEST PUSH2 0x2827 JUMP JUMPDEST PUSH1 0x40 MLOAD PUSH2 0x479 SWAP4 SWAP3 SWAP2 SWAP1 PUSH2 0x525F JUMP JUMPDEST PUSH2 0x4A2 PUSH2 0xAD1 CALLDATASIZE PUSH1 0x4 PUSH2 0x4D36 JUMP JUMPDEST PUSH2 0x28D3 JUMP JUMPDEST CALLVALUE DUP1 ISZERO PUSH2 0xAE2 JUMPI PUSH1 0x0 DUP1 REVERT JUMPDEST POP PUSH2 0x5BC PUSH2 0x167 SLOAD DUP2 JUMP JUMPDEST CALLVALUE DUP1 ISZERO PUSH2 0xAF9 JUMPI PUSH1 0x0 DUP1 REVERT JUMPDEST POP PUSH2 0x504 PUSH2 0xB08 CALLDATASIZE PUSH1 0x4 PUSH2 0x4E1A JUMP JUMPDEST PUSH2 0x2B52 JUMP JUMPDEST CALLVALUE DUP1 ISZERO PUSH2 0xB19 JUMPI PUSH1 0x0 DUP1 REVERT JUMPDEST POP PUSH2 0x4A2 PUSH2 0xB28 CALLDATASIZE PUSH1 0x4 PUSH2 0x4DF8 JUMP JUMPDEST PUSH2 0x2C0C JUMP JUMPDEST CALLVALUE DUP1 ISZERO PUSH2 0xB39 JUMPI PUSH1 0x0 DUP1 REVERT JUMPDEST POP PUSH2 0x5BC PUSH2 0x2E98 JUMP JUMPDEST CALLVALUE DUP1 ISZERO PUSH2 0xB4E JUMPI PUSH1 0x0 DUP1 REVERT JUMPDEST POP PUSH2 0x4A2 PUSH2 0xB5D CALLDATASIZE PUSH1 0x4 PUSH2 0x4D68 JUMP JUMPDEST PUSH2 0x2EAF JUMP JUMPDEST CALLVALUE DUP1 ISZERO PUSH2 0xB6E JUMPI PUSH1 0x0 DUP1 REVERT JUMPDEST POP PUSH2 0x5BC PUSH2 0x3016 JUMP JUMPDEST CALLVALUE DUP1 ISZERO PUSH2 0xB83 JUMPI PUSH1 0x0 DUP1 REVERT JUMPDEST POP PUSH2 0x5BC PUSH2 0x166 SLOAD DUP2 JUMP JUMPDEST CALLVALUE DUP1 ISZERO PUSH2 0xB9A JUMPI PUSH1 0x0 DUP1 REVERT JUMPDEST POP PUSH2 0x15F SLOAD PUSH2 0x974 SWAP1 PUSH1 0x1 PUSH1 0x1 PUSH1 0xA0 SHL SUB AND DUP2 JUMP JUMPDEST PUSH2 0x5BC PUSH2 0xBBD CALLDATASIZE PUSH1 0x4 PUSH2 0x4E70 JUMP JUMPDEST PUSH2 0x304B JUMP JUMPDEST CALLVALUE DUP1 ISZERO PUSH2 0xBCE JUMPI PUSH1 0x0 DUP1 REVERT JUMPDEST POP PUSH2 0x504 PUSH2 0xBDD CALLDATASIZE PUSH1 0x4 PUSH2 0x4DF8 JUMP JUMPDEST PUSH2 0x3318 JUMP JUMPDEST CALLVALUE DUP1 ISZERO PUSH2 0xBEE JUMPI PUSH1 0x0 DUP1 REVERT JUMPDEST POP PUSH2 0x5BC PUSH2 0xBFD CALLDATASIZE PUSH1 0x4 PUSH2 0x4D36 JUMP JUMPDEST PUSH2 0x3365 JUMP JUMPDEST CALLVALUE DUP1 ISZERO PUSH2 0xC0E JUMPI PUSH1 0x0 DUP1 REVERT JUMPDEST POP PUSH2 0x5BC PUSH2 0x165 SLOAD DUP2 JUMP JUMPDEST CALLVALUE DUP1 ISZERO PUSH2 0xC25 JUMPI PUSH1 0x0 DUP1 REVERT JUMPDEST POP PUSH2 0x5BC PUSH2 0xC34 CALLDATASIZE PUSH1 0x4 PUSH2 0x4D36 JUMP JUMPDEST PUSH2 0x337C JUMP JUMPDEST CALLVALUE DUP1 ISZERO PUSH2 0xC45 JUMPI PUSH1 0x0 DUP1 REVERT JUMPDEST POP PUSH2 0x4A2 PUSH2 0xC54 CALLDATASIZE PUSH1 0x4 PUSH2 0x4D68 JUMP JUMPDEST PUSH2 0x338D JUMP JUMPDEST CALLVALUE DUP1 ISZERO PUSH2 0xC65 JUMPI PUSH1 0x0 DUP1 REVERT JUMPDEST POP PUSH2 0x164 SLOAD PUSH2 0x974 SWAP1 PUSH1 0x1 PUSH1 0x1 PUSH1 0xA0 SHL SUB AND DUP2 JUMP JUMPDEST CALLVALUE DUP1 ISZERO PUSH2 0xC86 JUMPI PUSH1 0x0 DUP1 REVERT JUMPDEST POP PUSH2 0x5BC PUSH2 0xC95 CALLDATASIZE PUSH1 0x4 PUSH2 0x4BE3 JUMP JUMPDEST PUSH2 0x33B5 JUMP JUMPDEST CALLVALUE DUP1 ISZERO PUSH2 0xCA6 JUMPI PUSH1 0x0 DUP1 REVERT JUMPDEST POP PUSH2 0x4A2 PUSH2 0xCB5 CALLDATASIZE PUSH1 0x4 PUSH2 0x4B95 JUMP JUMPDEST PUSH2 0x33F8 JUMP JUMPDEST CALLVALUE DUP1 ISZERO PUSH2 0xCC6 JUMPI PUSH1 0x0 DUP1 REVERT JUMPDEST POP PUSH2 0x46D PUSH2 0xCD5 CALLDATASIZE PUSH1 0x4 PUSH2 0x4BB0 JUMP JUMPDEST PUSH2 0x340F JUMP JUMPDEST CALLVALUE DUP1 ISZERO PUSH2 0xCE6 JUMPI PUSH1 0x0 DUP1 REVERT JUMPDEST POP PUSH2 0xCFA PUSH2 0xCF5 CALLDATASIZE PUSH1 0x4 PUSH2 0x4D36 JUMP JUMPDEST PUSH2 0x3418 JUMP JUMPDEST PUSH1 0x40 MLOAD PUSH2 0x479 SWAP7 SWAP6 SWAP5 SWAP4 SWAP3 SWAP2 SWAP1 PUSH2 0x516E JUMP JUMPDEST CALLVALUE DUP1 ISZERO PUSH2 0xD18 JUMPI PUSH1 0x0 DUP1 REVERT JUMPDEST POP PUSH2 0x5BC PUSH2 0x163 SLOAD DUP2 JUMP JUMPDEST CALLVALUE DUP1 ISZERO PUSH2 0xD2F JUMPI PUSH1 0x0 DUP1 REVERT JUMPDEST POP PUSH2 0x4A2 PUSH2 0xD3E CALLDATASIZE PUSH1 0x4 PUSH2 0x4B95 JUMP JUMPDEST PUSH2 0x34DF JUMP JUMPDEST CALLVALUE DUP1 ISZERO PUSH2 0xD4F JUMPI PUSH1 0x0 DUP1 REVERT JUMPDEST POP PUSH2 0x504 PUSH2 0xD5E CALLDATASIZE PUSH1 0x4 PUSH2 0x4DF8 JUMP JUMPDEST PUSH2 0x3568 JUMP JUMPDEST CALLVALUE DUP1 ISZERO PUSH2 0xD6F JUMPI PUSH1 0x0 DUP1 REVERT JUMPDEST POP PUSH2 0x4A2 PUSH2 0xD7E CALLDATASIZE PUSH1 0x4 PUSH2 0x4D36 JUMP JUMPDEST PUSH2 0x35B5 JUMP JUMPDEST CALLVALUE DUP1 ISZERO PUSH2 0xD8F JUMPI PUSH1 0x0 DUP1 REVERT JUMPDEST POP PUSH2 0x5BC PUSH32 0x35A7846A2A701FFF6F9D61A46EBFF5DA578C5DCEE8BDF361C569F9EA4EE64771 DUP2 JUMP JUMPDEST CALLVALUE DUP1 ISZERO PUSH2 0xDC3 JUMPI PUSH1 0x0 DUP1 REVERT JUMPDEST POP PUSH2 0x5BC PUSH2 0xDD2 CALLDATASIZE PUSH1 0x4 PUSH2 0x4D36 JUMP JUMPDEST PUSH2 0x37F9 JUMP JUMPDEST PUSH1 0x0 PUSH2 0xDE1 PUSH2 0x3816 JUMP JUMPDEST SWAP1 POP SWAP1 JUMP JUMPDEST PUSH1 0x0 PUSH1 0x1 PUSH1 0x1 PUSH1 0xE0 SHL SUB NOT DUP3 AND PUSH4 0x5A05180F PUSH1 0xE0 SHL EQ DUP1 PUSH2 0xE0B JUMPI POP PUSH2 0xE0B DUP3 PUSH2 0x3841 JUMP JUMPDEST SWAP3 SWAP2 POP POP JUMP JUMPDEST PUSH1 0x0 PUSH2 0xE24 DUP2 PUSH2 0xE1F PUSH2 0xDD7 JUMP JUMPDEST PUSH2 0x3876 JUMP JUMPDEST PUSH1 0x40 DUP1 MLOAD DUP1 DUP3 ADD SWAP1 SWAP2 MSTORE PUSH1 0x6 DUP2 MSTORE PUSH6 0x60607260607 PUSH1 0xD3 SHL PUSH1 0x20 DUP3 ADD MSTORE PUSH1 0x1 DUP4 GT PUSH2 0xE6B JUMPI PUSH1 0x40 MLOAD PUSH3 0x461BCD PUSH1 0xE5 SHL DUP2 MSTORE PUSH1 0x4 ADD PUSH2 0xE62 SWAP2 SWAP1 PUSH2 0x506B JUMP JUMPDEST PUSH1 0x40 MLOAD DUP1 SWAP2 SUB SWAP1 REVERT JUMPDEST POP POP PUSH2 0x167 SSTORE JUMP JUMPDEST PUSH1 0x0 PUSH2 0xE81 DUP2 PUSH2 0xE1F PUSH2 0xDD7 JUMP JUMPDEST PUSH1 0x1 DUP3 PUSH1 0x1 DUP2 GT ISZERO PUSH2 0xE95 JUMPI PUSH2 0xE95 PUSH2 0x5405 JUMP JUMPDEST EQ ISZERO PUSH2 0xEFA JUMPI PUSH2 0x166 SLOAD DUP4 LT ISZERO PUSH1 0x40 MLOAD DUP1 PUSH1 0x40 ADD PUSH1 0x40 MSTORE DUP1 PUSH1 0x6 DUP2 MSTORE PUSH1 0x20 ADD PUSH6 0x303039303033 PUSH1 0xD0 SHL DUP2 MSTORE POP SWAP1 PUSH2 0xEDF JUMPI PUSH1 0x40 MLOAD PUSH3 0x461BCD PUSH1 0xE5 SHL DUP2 MSTORE PUSH1 0x4 ADD PUSH2 0xE62 SWAP2 SWAP1 PUSH2 0x506B JUMP JUMPDEST POP PUSH2 0x161 DUP4 SWAP1 SSTORE PUSH2 0xEF1 PUSH1 0x4 DUP5 PUSH2 0x52E8 JUMP JUMPDEST PUSH2 0x166 SSTORE POP POP POP JUMP JUMPDEST PUSH2 0x160 DUP4 SWAP1 SSTORE JUMPDEST POP POP POP JUMP JUMPDEST PUSH1 0x0 SLOAD PUSH2 0x100 SWAP1 DIV PUSH1 0xFF AND PUSH2 0xF21 JUMPI PUSH1 0x0 SLOAD PUSH1 0xFF AND ISZERO PUSH2 0xF25 JUMP JUMPDEST ADDRESS EXTCODESIZE ISZERO JUMPDEST PUSH2 0xF88 JUMPI PUSH1 0x40 MLOAD PUSH3 0x461BCD PUSH1 0xE5 SHL DUP2 MSTORE PUSH1 0x20 PUSH1 0x4 DUP3 ADD MSTORE PUSH1 0x2E PUSH1 0x24 DUP3 ADD MSTORE PUSH32 0x496E697469616C697A61626C653A20636F6E747261637420697320616C726561 PUSH1 0x44 DUP3 ADD MSTORE PUSH14 0x191E481A5B9A5D1A585B1A5E9959 PUSH1 0x92 SHL PUSH1 0x64 DUP3 ADD MSTORE PUSH1 0x84 ADD PUSH2 0xE62 JUMP JUMPDEST PUSH1 0x0 SLOAD PUSH2 0x100 SWAP1 DIV PUSH1 0xFF AND ISZERO DUP1 ISZERO PUSH2 0xFAA JUMPI PUSH1 0x0 DUP1 SLOAD PUSH2 0xFFFF NOT AND PUSH2 0x101 OR SWAP1 SSTORE JUMPDEST PUSH2 0x2710 DUP7 GT ISZERO PUSH2 0x100F JUMPI PUSH1 0x40 MLOAD PUSH3 0x461BCD PUSH1 0xE5 SHL DUP2 MSTORE PUSH1 0x20 PUSH1 0x4 DUP3 ADD MSTORE PUSH1 0x2A PUSH1 0x24 DUP3 ADD MSTORE PUSH32 0x455243323938313A20726F79616C7479206665652077696C6C20657863656564 PUSH1 0x44 DUP3 ADD MSTORE PUSH10 0x2073616C655072696365 PUSH1 0xB0 SHL PUSH1 0x64 DUP3 ADD MSTORE PUSH1 0x84 ADD PUSH2 0xE62 JUMP JUMPDEST PUSH2 0x101A PUSH1 0x4 DUP10 PUSH2 0x52E8 JUMP JUMPDEST PUSH2 0x166 SSTORE PUSH2 0x1026 PUSH2 0x38DA JUMP JUMPDEST PUSH2 0x102E PUSH2 0x3921 JUMP JUMPDEST PUSH2 0x1036 PUSH2 0x3950 JUMP JUMPDEST PUSH2 0x103F DUP3 PUSH2 0x3987 JUMP JUMPDEST PUSH2 0x160 DUP9 SWAP1 SSTORE PUSH2 0x161 DUP9 SWAP1 SSTORE PUSH2 0x162 DUP8 SWAP1 SSTORE PUSH2 0x163 DUP7 SWAP1 SSTORE PUSH2 0x164 DUP1 SLOAD PUSH2 0x15F DUP1 SLOAD PUSH1 0x1 PUSH1 0x1 PUSH1 0xA0 SHL SUB NOT AND PUSH1 0x1 PUSH1 0x1 PUSH1 0xA0 SHL SUB DUP9 DUP2 AND SWAP2 SWAP1 SWAP2 OR SWAP1 SWAP2 SSTORE PUSH2 0x384 PUSH2 0x165 SSTORE DUP8 AND PUSH1 0x1 PUSH1 0x1 PUSH1 0xA8 SHL SUB NOT SWAP1 SWAP2 AND OR SWAP1 SSTORE PUSH1 0x3 PUSH2 0x167 SSTORE PUSH2 0x10A6 PUSH1 0x0 DUP5 PUSH2 0x39C2 JUMP JUMPDEST PUSH2 0x10D0 PUSH32 0x35A7846A2A701FFF6F9D61A46EBFF5DA578C5DCEE8BDF361C569F9EA4EE64771 DUP5 PUSH2 0x39C2 JUMP JUMPDEST PUSH2 0x10FB PUSH32 0x35A7846A2A701FFF6F9D61A46EBFF5DA578C5DCEE8BDF361C569F9EA4EE64771 PUSH1 0x0 PUSH2 0x39CC JUMP JUMPDEST DUP1 ISZERO PUSH2 0x110D JUMPI PUSH1 0x0 DUP1 SLOAD PUSH2 0xFF00 NOT AND SWAP1 SSTORE JUMPDEST POP POP POP POP POP POP POP POP JUMP JUMPDEST PUSH1 0x40 MLOAD PUSH4 0x74A5907 PUSH1 0xE0 SHL DUP2 MSTORE PUSH1 0x4 DUP2 ADD DUP4 SWAP1 MSTORE PUSH1 0x24 DUP2 ADD DUP3 SWAP1 MSTORE PUSH2 0x172 PUSH1 0x44 DUP3 ADD MSTORE PUSH1 0x60 SWAP1 PUSH1 0x0 SWAP1 PUSH20 0x0 SWAP1 PUSH4 0x74A5907 SWAP1 PUSH1 0x64 ADD JUMPDEST PUSH1 0x0 PUSH1 0x40 MLOAD DUP1 DUP4 SUB DUP2 DUP7 DUP1 EXTCODESIZE ISZERO DUP1 ISZERO PUSH2 0x1178 JUMPI PUSH1 0x0 DUP1 REVERT JUMPDEST POP GAS DELEGATECALL ISZERO DUP1 ISZERO PUSH2 0x118C JUMPI RETURNDATASIZE PUSH1 0x0 DUP1 RETURNDATACOPY RETURNDATASIZE PUSH1 0x0 REVERT JUMPDEST POP POP POP POP PUSH1 0x40 MLOAD RETURNDATASIZE PUSH1 0x0 DUP3 RETURNDATACOPY PUSH1 0x1F RETURNDATASIZE SWAP1 DUP2 ADD PUSH1 0x1F NOT AND DUP3 ADD PUSH1 0x40 MSTORE PUSH2 0x11B4 SWAP2 SWAP1 DUP2 ADD SWAP1 PUSH2 0x4C80 JUMP JUMPDEST SWAP2 POP SWAP2 POP SWAP3 POP SWAP3 SWAP1 POP JUMP JUMPDEST PUSH1 0x0 PUSH2 0x16C PUSH1 0x0 PUSH2 0x11CE PUSH2 0xDD7 JUMP JUMPDEST PUSH1 0x1 PUSH1 0x1 PUSH1 0xA0 SHL SUB SWAP1 DUP2 AND DUP3 MSTORE PUSH1 0x20 DUP1 DUP4 ADD SWAP4 SWAP1 SWAP4 MSTORE PUSH1 0x40 SWAP2 DUP3 ADD PUSH1 0x0 SWAP1 DUP2 KECCAK256 SWAP2 DUP7 AND DUP2 MSTORE PUSH1 0x4 SWAP1 SWAP2 ADD SWAP1 SWAP3 MSTORE SWAP1 KECCAK256 DUP1 SLOAD PUSH1 0xFF NOT AND PUSH1 0x1 DUP4 PUSH1 0x2 DUP2 GT ISZERO PUSH2 0x1217 JUMPI PUSH2 0x1217 PUSH2 0x5405 JUMP JUMPDEST MUL OR SWAP1 SSTORE POP DUP1 PUSH1 0x1 PUSH1 0x1 PUSH1 0xA0 SHL SUB AND PUSH2 0x122E PUSH2 0xDD7 JUMP JUMPDEST PUSH1 0x1 PUSH1 0x1 PUSH1 0xA0 SHL SUB AND PUSH32 0xDC9EC6C8CA20E67E0CBECB5536D5C021046DD6A9A43B1B03D2B10235767D4502 PUSH1 0x40 MLOAD PUSH1 0x40 MLOAD DUP1 SWAP2 SUB SWAP1 LOG3 POP JUMP JUMPDEST PUSH1 0x0 DUP4 PUSH2 0x165 SLOAD DUP2 LT ISZERO PUSH1 0x40 MLOAD DUP1 PUSH1 0x40 ADD PUSH1 0x40 MSTORE DUP1 PUSH1 0x6 DUP2 MSTORE PUSH1 0x20 ADD PUSH6 0x303032303037 PUSH1 0xD0 SHL DUP2 MSTORE POP SWAP1 PUSH2 0x12AD JUMPI PUSH1 0x40 MLOAD PUSH3 0x461BCD PUSH1 0xE5 SHL DUP2 MSTORE PUSH1 0x4 ADD PUSH2 0xE62 SWAP2 SWAP1 PUSH2 0x506B JUMP JUMPDEST POP PUSH1 0x33 SLOAD PUSH1 0xFF AND ISZERO PUSH2 0x12D1 JUMPI PUSH1 0x40 MLOAD PUSH3 0x461BCD PUSH1 0xE5 SHL DUP2 MSTORE PUSH1 0x4 ADD PUSH2 0xE62 SWAP1 PUSH2 0x51B3 JUMP JUMPDEST DUP4 DUP1 PUSH1 0x1 LT ISZERO PUSH1 0x40 MLOAD DUP1 PUSH1 0x40 ADD PUSH1 0x40 MSTORE DUP1 PUSH1 0x6 DUP2 MSTORE PUSH1 0x20 ADD PUSH6 0x30303230313 PUSH1 0xD4 SHL DUP2 MSTORE POP SWAP1 PUSH2 0x1314 JUMPI PUSH1 0x40 MLOAD PUSH3 0x461BCD PUSH1 0xE5 SHL DUP2 MSTORE PUSH1 0x4 ADD PUSH2 0xE62 SWAP2 SWAP1 PUSH2 0x506B JUMP JUMPDEST POP PUSH1 0x2 PUSH2 0x12D SLOAD EQ ISZERO PUSH2 0x1339 JUMPI PUSH1 0x40 MLOAD PUSH3 0x461BCD PUSH1 0xE5 SHL DUP2 MSTORE PUSH1 0x4 ADD PUSH2 0xE62 SWAP1 PUSH2 0x5228 JUMP JUMPDEST PUSH1 0x2 PUSH2 0x12D SSTORE PUSH1 0x1 PUSH1 0x1 PUSH1 0xA0 SHL SUB DUP8 AND PUSH1 0x0 SWAP1 DUP2 MSTORE PUSH2 0x16C PUSH1 0x20 MSTORE PUSH1 0x40 DUP2 KECCAK256 DUP2 SWAP1 PUSH1 0x4 ADD DUP2 PUSH2 0x1366 PUSH2 0xDD7 JUMP JUMPDEST PUSH1 0x1 PUSH1 0x1 PUSH1 0xA0 SHL SUB AND DUP2 MSTORE PUSH1 0x20 DUP2 ADD SWAP2 SWAP1 SWAP2 MSTORE PUSH1 0x40 ADD PUSH1 0x0 KECCAK256 SLOAD PUSH1 0xFF AND SWAP1 POP PUSH1 0x1 DUP2 PUSH1 0x2 DUP2 GT ISZERO PUSH2 0x1399 JUMPI PUSH2 0x1399 PUSH2 0x5405 JUMP JUMPDEST EQ ISZERO PUSH1 0x40 MLOAD DUP1 PUSH1 0x40 ADD PUSH1 0x40 MSTORE DUP1 PUSH1 0x6 DUP2 MSTORE PUSH1 0x20 ADD PUSH6 0x18181C98181B PUSH1 0xD1 SHL DUP2 MSTORE POP SWAP1 PUSH2 0x13D8 JUMPI PUSH1 0x40 MLOAD PUSH3 0x461BCD PUSH1 0xE5 SHL DUP2 MSTORE PUSH1 0x4 ADD PUSH2 0xE62 SWAP2 SWAP1 PUSH2 0x506B JUMP JUMPDEST POP PUSH1 0x0 PUSH2 0x13ED PUSH2 0x13E6 PUSH2 0xDD7 JUMP JUMPDEST DUP12 DUP11 PUSH2 0x33B5 JUMP JUMPDEST SWAP1 POP PUSH1 0x2 DUP3 PUSH1 0x2 DUP2 GT ISZERO PUSH2 0x1403 JUMPI PUSH2 0x1403 PUSH2 0x5405 JUMP JUMPDEST EQ PUSH2 0x14C5 JUMPI PUSH1 0x1 DUP9 EQ ISZERO PUSH2 0x1465 JUMPI PUSH1 0x40 DUP1 MLOAD DUP1 DUP3 ADD SWAP1 SWAP2 MSTORE PUSH1 0x6 DUP2 MSTORE PUSH6 0x303031303039 PUSH1 0xD0 SHL PUSH1 0x20 DUP3 ADD MSTORE CALLVALUE DUP3 GT ISZERO PUSH2 0x144F JUMPI PUSH1 0x40 MLOAD PUSH3 0x461BCD PUSH1 0xE5 SHL DUP2 MSTORE PUSH1 0x4 ADD PUSH2 0xE62 SWAP2 SWAP1 PUSH2 0x506B JUMP JUMPDEST POP PUSH2 0x166 SLOAD PUSH2 0x145E SWAP1 CALLVALUE PUSH2 0x5329 JUMP JUMPDEST SWAP3 POP PUSH2 0x14C5 JUMP JUMPDEST PUSH1 0x40 DUP1 MLOAD DUP1 DUP3 ADD SWAP1 SWAP2 MSTORE PUSH1 0x6 DUP2 MSTORE PUSH6 0x30303130313 PUSH1 0xD4 SHL PUSH1 0x20 DUP3 ADD MSTORE CALLVALUE DUP3 GT ISZERO PUSH2 0x14A3 JUMPI PUSH1 0x40 MLOAD PUSH3 0x461BCD PUSH1 0xE5 SHL DUP2 MSTORE PUSH1 0x4 ADD PUSH2 0xE62 SWAP2 SWAP1 PUSH2 0x506B JUMP JUMPDEST POP PUSH2 0x166 SLOAD DUP2 GT PUSH2 0x14B4 JUMPI CALLVALUE PUSH2 0x14C2 JUMP JUMPDEST PUSH2 0x166 SLOAD PUSH2 0x14C2 SWAP1 CALLVALUE PUSH2 0x5329 JUMP JUMPDEST SWAP3 POP JUMPDEST PUSH1 0x0 PUSH2 0x14DC PUSH2 0x14D2 PUSH2 0xDD7 JUMP JUMPDEST DUP13 DUP7 DUP14 DUP14 DUP14 PUSH2 0x3A17 JUMP JUMPDEST SWAP1 POP DUP4 ISZERO DUP1 ISZERO SWAP1 PUSH2 0x14EF JUMPI POP PUSH2 0x166 SLOAD DUP3 GT JUMPDEST ISZERO PUSH2 0x1501 JUMPI PUSH2 0x1501 DUP12 PUSH2 0x166 SLOAD PUSH2 0x3D5F JUMP JUMPDEST PUSH1 0x1 PUSH2 0x12D SSTORE SWAP11 SWAP10 POP POP POP POP POP POP POP POP POP POP JUMP JUMPDEST PUSH2 0x168 PUSH1 0x20 MSTORE PUSH1 0x0 SWAP1 DUP2 MSTORE PUSH1 0x40 SWAP1 KECCAK256 DUP1 SLOAD DUP2 SWAP1 PUSH2 0x1531 SWAP1 PUSH2 0x5387 JUMP JUMPDEST DUP1 PUSH1 0x1F ADD PUSH1 0x20 DUP1 SWAP2 DIV MUL PUSH1 0x20 ADD PUSH1 0x40 MLOAD SWAP1 DUP2 ADD PUSH1 0x40 MSTORE DUP1 SWAP3 SWAP2 SWAP1 DUP2 DUP2 MSTORE PUSH1 0x20 ADD DUP3 DUP1 SLOAD PUSH2 0x155D SWAP1 PUSH2 0x5387 JUMP JUMPDEST DUP1 ISZERO PUSH2 0x15AA JUMPI DUP1 PUSH1 0x1F LT PUSH2 0x157F JUMPI PUSH2 0x100 DUP1 DUP4 SLOAD DIV MUL DUP4 MSTORE SWAP2 PUSH1 0x20 ADD SWAP2 PUSH2 0x15AA JUMP JUMPDEST DUP3 ADD SWAP2 SWAP1 PUSH1 0x0 MSTORE PUSH1 0x20 PUSH1 0x0 KECCAK256 SWAP1 JUMPDEST DUP2 SLOAD DUP2 MSTORE SWAP1 PUSH1 0x1 ADD SWAP1 PUSH1 0x20 ADD DUP1 DUP4 GT PUSH2 0x158D JUMPI DUP3 SWAP1 SUB PUSH1 0x1F AND DUP3 ADD SWAP2 JUMPDEST POP POP POP POP POP SWAP1 DUP1 PUSH1 0x1 ADD DUP1 SLOAD PUSH2 0x15BF SWAP1 PUSH2 0x5387 JUMP JUMPDEST DUP1 PUSH1 0x1F ADD PUSH1 0x20 DUP1 SWAP2 DIV MUL PUSH1 0x20 ADD PUSH1 0x40 MLOAD SWAP1 DUP2 ADD PUSH1 0x40 MSTORE DUP1 SWAP3 SWAP2 SWAP1 DUP2 DUP2 MSTORE PUSH1 0x20 ADD DUP3 DUP1 SLOAD PUSH2 0x15EB SWAP1 PUSH2 0x5387 JUMP JUMPDEST DUP1 ISZERO PUSH2 0x1638 JUMPI DUP1 PUSH1 0x1F LT PUSH2 0x160D JUMPI PUSH2 0x100 DUP1 DUP4 SLOAD DIV MUL DUP4 MSTORE SWAP2 PUSH1 0x20 ADD SWAP2 PUSH2 0x1638 JUMP JUMPDEST DUP3 ADD SWAP2 SWAP1 PUSH1 0x0 MSTORE PUSH1 0x20 PUSH1 0x0 KECCAK256 SWAP1 JUMPDEST DUP2 SLOAD DUP2 MSTORE SWAP1 PUSH1 0x1 ADD SWAP1 PUSH1 0x20 ADD DUP1 DUP4 GT PUSH2 0x161B JUMPI DUP3 SWAP1 SUB PUSH1 0x1F AND DUP3 ADD SWAP2 JUMPDEST POP POP POP PUSH1 0x2 DUP5 ADD SLOAD PUSH1 0x3 DUP6 ADD SLOAD PUSH1 0x4 DUP7 ADD SLOAD PUSH1 0x5 DUP8 ADD SLOAD PUSH1 0x7 DUP9 ADD SLOAD PUSH1 0x8 DUP10 ADD SLOAD PUSH1 0x9 DUP11 ADD SLOAD PUSH1 0xA DUP12 ADD SLOAD PUSH1 0xB DUP13 ADD SLOAD PUSH1 0xC SWAP1 SWAP13 ADD SLOAD SWAP11 SWAP12 SWAP8 SWAP11 SWAP7 SWAP10 POP PUSH1 0x1 PUSH1 0x1 PUSH1 0xA0 SHL SUB SWAP6 DUP7 AND SWAP9 POP SWAP4 SWAP1 SWAP5 AND SWAP6 SWAP2 SWAP5 SWAP1 SWAP4 PUSH1 0xFF SWAP1 DUP2 AND SWAP4 SWAP3 AND SWAP1 DUP13 JUMP JUMPDEST PUSH1 0x0 PUSH1 0x1 JUMPDEST PUSH1 0x1 PUSH1 0x1 PUSH1 0xA0 SHL SUB DUP1 DUP5 AND PUSH1 0x0 SWAP1 DUP2 MSTORE PUSH2 0x16C PUSH1 0x20 SWAP1 DUP2 MSTORE PUSH1 0x40 DUP1 DUP4 KECCAK256 SWAP4 DUP9 AND DUP4 MSTORE PUSH1 0x4 SWAP1 SWAP4 ADD SWAP1 MSTORE KECCAK256 SLOAD PUSH1 0xFF AND PUSH1 0x2 DUP2 GT ISZERO PUSH2 0x16DB JUMPI PUSH2 0x16DB PUSH2 0x5405 JUMP JUMPDEST EQ SWAP4 SWAP3 POP POP POP JUMP JUMPDEST PUSH1 0x33 SLOAD PUSH1 0xFF AND ISZERO PUSH2 0x1706 JUMPI PUSH1 0x40 MLOAD PUSH3 0x461BCD PUSH1 0xE5 SHL DUP2 MSTORE PUSH1 0x4 ADD PUSH2 0xE62 SWAP1 PUSH2 0x51B3 JUMP JUMPDEST PUSH1 0x2 PUSH2 0x12D SLOAD EQ ISZERO PUSH2 0x172A JUMPI PUSH1 0x40 MLOAD PUSH3 0x461BCD PUSH1 0xE5 SHL DUP2 MSTORE PUSH1 0x4 ADD PUSH2 0xE62 SWAP1 PUSH2 0x5228 JUMP JUMPDEST PUSH1 0x2 PUSH2 0x12D SSTORE PUSH2 0x16D PUSH1 0x0 PUSH2 0x173D PUSH2 0xDD7 JUMP JUMPDEST PUSH1 0x1 PUSH1 0x1 PUSH1 0xA0 SHL SUB AND PUSH1 0x1 PUSH1 0x1 PUSH1 0xA0 SHL SUB AND DUP2 MSTORE PUSH1 0x20 ADD SWAP1 DUP2 MSTORE PUSH1 0x20 ADD PUSH1 0x0 KECCAK256 SLOAD DUP2 GT ISZERO PUSH1 0x40 MLOAD DUP1 PUSH1 0x40 ADD PUSH1 0x40 MSTORE DUP1 PUSH1 0x6 DUP2 MSTORE PUSH1 0x20 ADD PUSH6 0x303039303031 PUSH1 0xD0 SHL DUP2 MSTORE POP SWAP1 PUSH2 0x179E JUMPI PUSH1 0x40 MLOAD PUSH3 0x461BCD PUSH1 0xE5 SHL DUP2 MSTORE PUSH1 0x4 ADD PUSH2 0xE62 SWAP2 SWAP1 PUSH2 0x506B JUMP JUMPDEST POP DUP1 PUSH2 0x16D PUSH1 0x0 PUSH2 0x17AD PUSH2 0xDD7 JUMP JUMPDEST PUSH1 0x1 PUSH1 0x1 PUSH1 0xA0 SHL SUB AND PUSH1 0x1 PUSH1 0x1 PUSH1 0xA0 SHL SUB AND DUP2 MSTORE PUSH1 0x20 ADD SWAP1 DUP2 MSTORE PUSH1 0x20 ADD PUSH1 0x0 KECCAK256 PUSH1 0x0 DUP3 DUP3 SLOAD PUSH2 0x17DC SWAP2 SWAP1 PUSH2 0x5329 JUMP JUMPDEST SWAP1 SWAP2 SSTORE POP PUSH2 0x17F3 SWAP1 POP PUSH2 0x17ED PUSH2 0xDD7 JUMP JUMPDEST DUP3 PUSH2 0x3D5F JUMP JUMPDEST PUSH2 0x17FB PUSH2 0xDD7 JUMP JUMPDEST PUSH1 0x1 PUSH1 0x1 PUSH1 0xA0 SHL SUB AND PUSH32 0x884EDAD9CE6FA2440D8A54CC123490EB96D2768479D49FF9C7366125A9424364 DUP3 PUSH1 0x40 MLOAD PUSH2 0x1835 SWAP2 DUP2 MSTORE PUSH1 0x20 ADD SWAP1 JUMP JUMPDEST PUSH1 0x40 MLOAD DUP1 SWAP2 SUB SWAP1 LOG2 POP PUSH1 0x1 PUSH2 0x12D SSTORE JUMP JUMPDEST PUSH1 0x0 DUP3 DUP2 MSTORE PUSH1 0xC9 PUSH1 0x20 MSTORE PUSH1 0x40 SWAP1 KECCAK256 PUSH1 0x1 ADD SLOAD PUSH2 0x1864 DUP2 PUSH2 0xE1F PUSH2 0xDD7 JUMP JUMPDEST PUSH2 0xF01 DUP4 DUP4 PUSH2 0x3E78 JUMP JUMPDEST PUSH2 0x1876 PUSH2 0xDD7 JUMP JUMPDEST PUSH1 0x1 PUSH1 0x1 PUSH1 0xA0 SHL SUB AND DUP2 PUSH1 0x1 PUSH1 0x1 PUSH1 0xA0 SHL SUB AND EQ PUSH2 0x18EE JUMPI PUSH1 0x40 MLOAD PUSH3 0x461BCD PUSH1 0xE5 SHL DUP2 MSTORE PUSH1 0x20 PUSH1 0x4 DUP3 ADD MSTORE PUSH1 0x2F PUSH1 0x24 DUP3 ADD MSTORE PUSH32 0x416363657373436F6E74726F6C3A2063616E206F6E6C792072656E6F756E6365 PUSH1 0x44 DUP3 ADD MSTORE PUSH15 0x103937B632B9903337B91039B2B633 PUSH1 0x89 SHL PUSH1 0x64 DUP3 ADD MSTORE PUSH1 0x84 ADD PUSH2 0xE62 JUMP JUMPDEST PUSH2 0x18F8 DUP3 DUP3 PUSH2 0x3E9A JUMP JUMPDEST POP POP JUMP JUMPDEST DUP1 PUSH1 0x1 PUSH1 0x1 PUSH1 0xA0 SHL SUB AND PUSH2 0x190E PUSH2 0xDD7 JUMP JUMPDEST PUSH1 0x1 PUSH1 0x1 PUSH1 0xA0 SHL SUB AND EQ ISZERO PUSH1 0x40 MLOAD DUP1 PUSH1 0x40 ADD PUSH1 0x40 MSTORE DUP1 PUSH1 0x6 DUP2 MSTORE PUSH1 0x20 ADD PUSH6 0x30303930313 PUSH1 0xD4 SHL DUP2 MSTORE POP SWAP1 PUSH2 0x1956 JUMPI PUSH1 0x40 MLOAD PUSH3 0x461BCD PUSH1 0xE5 SHL DUP2 MSTORE PUSH1 0x4 ADD PUSH2 0xE62 SWAP2 SWAP1 PUSH2 0x506B JUMP JUMPDEST POP PUSH1 0x1 PUSH2 0x16C PUSH1 0x0 PUSH2 0x1966 PUSH2 0xDD7 JUMP JUMPDEST PUSH1 0x1 PUSH1 0x1 PUSH1 0xA0 SHL SUB SWAP1 DUP2 AND DUP3 MSTORE PUSH1 0x20 DUP1 DUP4 ADD SWAP4 SWAP1 SWAP4 MSTORE PUSH1 0x40 SWAP2 DUP3 ADD PUSH1 0x0 SWAP1 DUP2 KECCAK256 SWAP2 DUP7 AND DUP2 MSTORE PUSH1 0x4 SWAP1 SWAP2 ADD SWAP1 SWAP3 MSTORE SWAP1 KECCAK256 DUP1 SLOAD PUSH1 0xFF NOT AND PUSH1 0x1 DUP4 PUSH1 0x2 DUP2 GT ISZERO PUSH2 0x19AF JUMPI PUSH2 0x19AF PUSH2 0x5405 JUMP JUMPDEST MUL OR SWAP1 SSTORE POP DUP1 PUSH1 0x1 PUSH1 0x1 PUSH1 0xA0 SHL SUB AND PUSH2 0x19C6 PUSH2 0xDD7 JUMP JUMPDEST PUSH1 0x1 PUSH1 0x1 PUSH1 0xA0 SHL SUB AND PUSH32 0xC931B7E6F18C2A39BCD066690C46C7BA85186501C524FAA844AC2C7213D17325 PUSH1 0x40 MLOAD PUSH1 0x40 MLOAD DUP1 SWAP2 SUB SWAP1 LOG3 POP JUMP JUMPDEST PUSH2 0x16F DUP2 DUP2 SLOAD DUP2 LT PUSH2 0x1A0F JUMPI PUSH1 0x0 DUP1 REVERT JUMPDEST PUSH1 0x0 SWAP2 DUP3 MSTORE PUSH1 0x20 SWAP1 SWAP2 KECCAK256 ADD SLOAD SWAP1 POP DUP2 JUMP JUMPDEST PUSH1 0x0 DUP4 DUP2 MSTORE PUSH2 0x169 PUSH1 0x20 SWAP1 DUP2 MSTORE PUSH1 0x40 DUP1 DUP4 KECCAK256 PUSH1 0x3 ADD SLOAD DUP2 MLOAD DUP1 DUP4 ADD SWAP1 SWAP3 MSTORE PUSH1 0x6 DUP3 MSTORE PUSH6 0x303034303031 PUSH1 0xD0 SHL SWAP3 DUP3 ADD SWAP3 SWAP1 SWAP3 MSTORE PUSH1 0x60 SWAP3 SWAP2 DUP7 SWAP2 SWAP1 PUSH1 0x1 PUSH1 0x1 PUSH1 0xA0 SHL SUB AND PUSH2 0x1A80 JUMPI PUSH1 0x40 MLOAD PUSH3 0x461BCD PUSH1 0xE5 SHL DUP2 MSTORE PUSH1 0x4 ADD PUSH2 0xE62 SWAP2 SWAP1 PUSH2 0x506B JUMP JUMPDEST POP PUSH1 0x0 DUP7 DUP2 MSTORE PUSH2 0x169 PUSH1 0x20 MSTORE PUSH1 0x40 SWAP1 DUP2 SWAP1 KECCAK256 SWAP1 MLOAD PUSH4 0x74A5907 PUSH1 0xE0 SHL DUP2 MSTORE PUSH1 0x4 DUP1 DUP3 ADD DUP9 SWAP1 MSTORE PUSH1 0x24 DUP3 ADD DUP8 SWAP1 MSTORE SWAP1 SWAP2 ADD PUSH1 0x44 DUP3 ADD MSTORE PUSH20 0x0 SWAP1 PUSH4 0x74A5907 SWAP1 PUSH1 0x64 ADD JUMPDEST PUSH1 0x0 PUSH1 0x40 MLOAD DUP1 DUP4 SUB DUP2 DUP7 DUP1 EXTCODESIZE ISZERO DUP1 ISZERO PUSH2 0x1AED JUMPI PUSH1 0x0 DUP1 REVERT JUMPDEST POP GAS DELEGATECALL ISZERO DUP1 ISZERO PUSH2 0x1B01 JUMPI RETURNDATASIZE PUSH1 0x0 DUP1 RETURNDATACOPY RETURNDATASIZE PUSH1 0x0 REVERT JUMPDEST POP POP POP POP PUSH1 0x40 MLOAD RETURNDATASIZE PUSH1 0x0 DUP3 RETURNDATACOPY PUSH1 0x1F RETURNDATASIZE SWAP1 DUP2 ADD PUSH1 0x1F NOT AND DUP3 ADD PUSH1 0x40 MSTORE PUSH2 0x1B29 SWAP2 SWAP1 DUP2 ADD SWAP1 PUSH2 0x4C80 JUMP JUMPDEST SWAP3 POP SWAP3 POP POP SWAP4 POP SWAP4 SWAP2 POP POP JUMP JUMPDEST PUSH2 0x1B43 PUSH1 0x0 PUSH2 0x9A7 PUSH2 0xDD7 JUMP JUMPDEST PUSH2 0x1BA4 JUMPI PUSH1 0x40 MLOAD PUSH3 0x461BCD PUSH1 0xE5 SHL DUP2 MSTORE PUSH1 0x20 PUSH1 0x4 DUP3 ADD MSTORE PUSH1 0x2C PUSH1 0x24 DUP3 ADD MSTORE PUSH32 0x4D75737420686176652044454641554C545F41444D494E5F524F4C4520726F6C PUSH1 0x44 DUP3 ADD MSTORE PUSH12 0x6520746F20756E7061757365 PUSH1 0xA0 SHL PUSH1 0x64 DUP3 ADD MSTORE PUSH1 0x84 ADD PUSH2 0xE62 JUMP JUMPDEST PUSH2 0x1BAC PUSH2 0x3EBC JUMP JUMPDEST JUMP JUMPDEST PUSH1 0x40 MLOAD PUSH4 0x74A5907 PUSH1 0xE0 SHL DUP2 MSTORE PUSH1 0x4 DUP2 ADD DUP4 SWAP1 MSTORE PUSH1 0x24 DUP2 ADD DUP3 SWAP1 MSTORE PUSH2 0x170 PUSH1 0x44 DUP3 ADD MSTORE PUSH1 0x60 SWAP1 PUSH1 0x0 SWAP1 PUSH20 0x0 SWAP1 PUSH4 0x74A5907 SWAP1 PUSH1 0x64 ADD PUSH2 0x1160 JUMP JUMPDEST PUSH1 0x1 PUSH2 0x16C PUSH1 0x0 PUSH2 0x1C0A PUSH2 0xDD7 JUMP JUMPDEST PUSH1 0x1 PUSH1 0x1 PUSH1 0xA0 SHL SUB SWAP1 DUP2 AND DUP3 MSTORE PUSH1 0x20 DUP1 DUP4 ADD SWAP4 SWAP1 SWAP4 MSTORE PUSH1 0x40 SWAP2 DUP3 ADD PUSH1 0x0 SWAP1 DUP2 KECCAK256 SWAP2 DUP7 AND DUP2 MSTORE PUSH1 0x4 SWAP1 SWAP2 ADD SWAP1 SWAP3 MSTORE SWAP1 KECCAK256 SLOAD PUSH1 0xFF AND PUSH1 0x2 DUP2 GT ISZERO PUSH2 0x1C4E JUMPI PUSH2 0x1C4E PUSH2 0x5405 JUMP JUMPDEST EQ ISZERO PUSH1 0x40 MLOAD DUP1 PUSH1 0x40 ADD PUSH1 0x40 MSTORE DUP1 PUSH1 0x6 DUP2 MSTORE PUSH1 0x20 ADD PUSH6 0x18181C98181B PUSH1 0xD1 SHL DUP2 MSTORE POP SWAP1 PUSH2 0x1C8D JUMPI PUSH1 0x40 MLOAD PUSH3 0x461BCD PUSH1 0xE5 SHL DUP2 MSTORE PUSH1 0x4 ADD PUSH2 0xE62 SWAP2 SWAP1 PUSH2 0x506B JUMP JUMPDEST POP PUSH1 0x2 PUSH2 0x16C PUSH1 0x0 PUSH2 0x1C9D PUSH2 0xDD7 JUMP JUMPDEST PUSH1 0x1 PUSH1 0x1 PUSH1 0xA0 SHL SUB SWAP1 DUP2 AND DUP3 MSTORE PUSH1 0x20 DUP1 DUP4 ADD SWAP4 SWAP1 SWAP4 MSTORE PUSH1 0x40 SWAP2 DUP3 ADD PUSH1 0x0 SWAP1 DUP2 KECCAK256 SWAP2 DUP7 AND DUP2 MSTORE PUSH1 0x4 SWAP1 SWAP2 ADD SWAP1 SWAP3 MSTORE SWAP1 KECCAK256 DUP1 SLOAD PUSH1 0xFF NOT AND PUSH1 0x1 DUP4 PUSH1 0x2 DUP2 GT ISZERO PUSH2 0x1CE6 JUMPI PUSH2 0x1CE6 PUSH2 0x5405 JUMP JUMPDEST MUL OR SWAP1 SSTORE POP DUP1 PUSH1 0x1 PUSH1 0x1 PUSH1 0xA0 SHL SUB AND PUSH2 0x1CFD PUSH2 0xDD7 JUMP JUMPDEST PUSH1 0x1 PUSH1 0x1 PUSH1 0xA0 SHL SUB AND PUSH32 0x6661A7108AECD07864384529117D96C319C1163E3010C01390F6B704726E07DE PUSH1 0x40 MLOAD PUSH1 0x40 MLOAD DUP1 SWAP2 SUB SWAP1 LOG3 POP JUMP JUMPDEST PUSH1 0x0 PUSH2 0x1D43 DUP2 PUSH2 0xE1F PUSH2 0xDD7 JUMP JUMPDEST PUSH2 0x1D4E DUP3 PUSH1 0x4 PUSH2 0x530A JUMP JUMPDEST PUSH2 0x161 SLOAD GT PUSH1 0x40 MLOAD DUP1 PUSH1 0x40 ADD PUSH1 0x40 MSTORE DUP1 PUSH1 0x6 DUP2 MSTORE PUSH1 0x20 ADD PUSH6 0x303039303037 PUSH1 0xD0 SHL DUP2 MSTORE POP SWAP1 PUSH2 0x1D90 JUMPI PUSH1 0x40 MLOAD PUSH3 0x461BCD PUSH1 0xE5 SHL DUP2 MSTORE PUSH1 0x4 ADD PUSH2 0xE62 SWAP2 SWAP1 PUSH2 0x506B JUMP JUMPDEST POP POP PUSH2 0x166 SSTORE JUMP JUMPDEST PUSH1 0x0 PUSH2 0x1DA6 DUP2 PUSH2 0xE1F PUSH2 0xDD7 JUMP JUMPDEST POP PUSH2 0x162 SSTORE JUMP JUMPDEST PUSH2 0x170 DUP2 DUP2 SLOAD DUP2 LT PUSH2 0x1A0F JUMPI PUSH1 0x0 DUP1 REVERT JUMPDEST PUSH1 0x40 MLOAD PUSH4 0x74A5907 PUSH1 0xE0 SHL DUP2 MSTORE PUSH1 0x4 DUP2 ADD DUP4 SWAP1 MSTORE PUSH1 0x24 DUP2 ADD DUP3 SWAP1 MSTORE PUSH2 0x16F PUSH1 0x44 DUP3 ADD MSTORE PUSH1 0x60 SWAP1 PUSH1 0x0 SWAP1 PUSH20 0x0 SWAP1 PUSH4 0x74A5907 SWAP1 PUSH1 0x64 ADD PUSH2 0x1160 JUMP JUMPDEST PUSH1 0x1 PUSH2 0x16C PUSH1 0x0 PUSH2 0x1E1A PUSH2 0xDD7 JUMP JUMPDEST PUSH1 0x1 PUSH1 0x1 PUSH1 0xA0 SHL SUB SWAP1 DUP2 AND DUP3 MSTORE PUSH1 0x20 DUP1 DUP4 ADD SWAP4 SWAP1 SWAP4 MSTORE PUSH1 0x40 SWAP2 DUP3 ADD PUSH1 0x0 SWAP1 DUP2 KECCAK256 SWAP2 DUP7 AND DUP2 MSTORE PUSH1 0x4 SWAP1 SWAP2 ADD SWAP1 SWAP3 MSTORE SWAP1 KECCAK256 SLOAD PUSH1 0xFF AND PUSH1 0x2 DUP2 GT ISZERO PUSH2 0x1E5E JUMPI PUSH2 0x1E5E PUSH2 0x5405 JUMP JUMPDEST EQ PUSH1 0x40 MLOAD DUP1 PUSH1 0x40 ADD PUSH1 0x40 MSTORE DUP1 PUSH1 0x6 DUP2 MSTORE PUSH1 0x20 ADD PUSH6 0x303039303131 PUSH1 0xD0 SHL DUP2 MSTORE POP SWAP1 PUSH2 0x1E9C JUMPI PUSH1 0x40 MLOAD PUSH3 0x461BCD PUSH1 0xE5 SHL DUP2 MSTORE PUSH1 0x4 ADD PUSH2 0xE62 SWAP2 SWAP1 PUSH2 0x506B JUMP JUMPDEST POP PUSH1 0x0 PUSH2 0x16C PUSH1 0x0 PUSH2 0x1EAC PUSH2 0xDD7 JUMP JUMPDEST PUSH1 0x1 PUSH1 0x1 PUSH1 0xA0 SHL SUB SWAP1 DUP2 AND DUP3 MSTORE PUSH1 0x20 DUP1 DUP4 ADD SWAP4 SWAP1 SWAP4 MSTORE PUSH1 0x40 SWAP2 DUP3 ADD PUSH1 0x0 SWAP1 DUP2 KECCAK256 SWAP2 DUP7 AND DUP2 MSTORE PUSH1 0x4 SWAP1 SWAP2 ADD SWAP1 SWAP3 MSTORE SWAP1 KECCAK256 DUP1 SLOAD PUSH1 0xFF NOT AND PUSH1 0x1 DUP4 PUSH1 0x2 DUP2 GT ISZERO PUSH2 0x1EF5 JUMPI PUSH2 0x1EF5 PUSH2 0x5405 JUMP JUMPDEST MUL OR SWAP1 SSTORE POP DUP1 PUSH1 0x1 PUSH1 0x1 PUSH1 0xA0 SHL SUB AND PUSH2 0x1F0C PUSH2 0xDD7 JUMP JUMPDEST PUSH1 0x1 PUSH1 0x1 PUSH1 0xA0 SHL SUB AND PUSH32 0x35672C674C91F8B0025681A1C8D11A4CA6583E909553290ECFB3D6578FAA8BCE PUSH1 0x40 MLOAD PUSH1 0x40 MLOAD DUP1 SWAP2 SUB SWAP1 LOG3 POP JUMP JUMPDEST PUSH1 0x33 SLOAD PUSH1 0xFF AND ISZERO PUSH2 0x1F67 JUMPI PUSH1 0x40 MLOAD PUSH3 0x461BCD PUSH1 0xE5 SHL DUP2 MSTORE PUSH1 0x4 ADD PUSH2 0xE62 SWAP1 PUSH2 0x51B3 JUMP JUMPDEST PUSH1 0x0 DUP2 DUP2 MSTORE PUSH2 0x168 PUSH1 0x20 SWAP1 DUP2 MSTORE PUSH1 0x40 SWAP2 DUP3 SWAP1 KECCAK256 PUSH1 0x4 ADD SLOAD DUP3 MLOAD DUP1 DUP5 ADD SWAP1 SWAP4 MSTORE PUSH1 0x6 DUP4 MSTORE PUSH6 0x303032303033 PUSH1 0xD0 SHL SWAP2 DUP4 ADD SWAP2 SWAP1 SWAP2 MSTORE DUP3 SWAP2 SWAP1 PUSH1 0x1 PUSH1 0x1 PUSH1 0xA0 SHL SUB AND PUSH2 0x1FC4 JUMPI PUSH1 0x40 MLOAD PUSH3 0x461BCD PUSH1 0xE5 SHL DUP2 MSTORE PUSH1 0x4 ADD PUSH2 0xE62 SWAP2 SWAP1 PUSH2 0x506B JUMP JUMPDEST POP DUP2 PUSH2 0x1FCE PUSH2 0xDD7 JUMP JUMPDEST PUSH1 0x0 DUP3 DUP2 MSTORE PUSH2 0x168 PUSH1 0x20 SWAP1 DUP2 MSTORE PUSH1 0x40 SWAP2 DUP3 SWAP1 KECCAK256 PUSH1 0x4 ADD SLOAD DUP3 MLOAD DUP1 DUP5 ADD SWAP1 SWAP4 MSTORE PUSH1 0x6 DUP4 MSTORE PUSH6 0x181819181819 PUSH1 0xD1 SHL SWAP2 DUP4 ADD SWAP2 SWAP1 SWAP2 MSTORE SWAP1 SWAP2 PUSH1 0x1 PUSH1 0x1 PUSH1 0xA0 SHL SUB SWAP2 DUP3 AND SWAP2 AND EQ PUSH2 0x202F JUMPI PUSH1 0x40 MLOAD PUSH3 0x461BCD PUSH1 0xE5 SHL DUP2 MSTORE PUSH1 0x4 ADD PUSH2 0xE62 SWAP2 SWAP1 PUSH2 0x506B JUMP JUMPDEST POP PUSH1 0x0 DUP4 DUP2 MSTORE PUSH2 0x168 PUSH1 0x20 MSTORE PUSH1 0x40 SWAP1 DUP2 SWAP1 KECCAK256 SWAP1 MLOAD PUSH4 0xDAE5E843 PUSH1 0xE0 SHL DUP2 MSTORE PUSH1 0x4 DUP2 ADD DUP3 SWAP1 MSTORE PUSH20 0x0 SWAP1 PUSH4 0xDAE5E843 SWAP1 PUSH1 0x24 ADD PUSH1 0x0 PUSH1 0x40 MLOAD DUP1 DUP4 SUB DUP2 DUP7 DUP1 EXTCODESIZE ISZERO DUP1 ISZERO PUSH2 0x208B JUMPI PUSH1 0x0 DUP1 REVERT JUMPDEST POP GAS DELEGATECALL ISZERO DUP1 ISZERO PUSH2 0x209F JUMPI RETURNDATASIZE PUSH1 0x0 DUP1 RETURNDATACOPY RETURNDATASIZE PUSH1 0x0 REVERT JUMPDEST POP POP POP POP DUP1 PUSH1 0x2 ADD SLOAD PUSH2 0x16D PUSH1 0x0 PUSH2 0x20B5 PUSH2 0xDD7 JUMP JUMPDEST PUSH1 0x1 PUSH1 0x1 PUSH1 0xA0 SHL SUB AND PUSH1 0x1 PUSH1 0x1 PUSH1 0xA0 SHL SUB AND DUP2 MSTORE PUSH1 0x20 ADD SWAP1 DUP2 MSTORE PUSH1 0x20 ADD PUSH1 0x0 KECCAK256 PUSH1 0x0 DUP3 DUP3 SLOAD PUSH2 0x20E4 SWAP2 SWAP1 PUSH2 0x52D0 JUMP JUMPDEST SWAP1 SWAP2 SSTORE POP PUSH2 0x20F2 SWAP1 POP PUSH2 0xDD7 JUMP JUMPDEST PUSH1 0x1 PUSH1 0x1 PUSH1 0xA0 SHL SUB AND PUSH1 0x0 DUP1 MLOAD PUSH1 0x20 PUSH2 0x5503 DUP4 CODECOPY DUP2 MLOAD SWAP2 MSTORE DUP3 PUSH1 0x2 ADD SLOAD PUSH1 0x40 MLOAD PUSH2 0x211E SWAP2 DUP2 MSTORE PUSH1 0x20 ADD SWAP1 JUMP JUMPDEST PUSH1 0x40 MLOAD DUP1 SWAP2 SUB SWAP1 LOG2 PUSH2 0x212E PUSH2 0xDD7 JUMP JUMPDEST PUSH1 0x1 PUSH1 0x1 PUSH1 0xA0 SHL SUB AND DUP5 PUSH32 0x205302058BF3AFB5ECE22C5535EAB6EA487294C8339C2A194FC6476219BADBCD DUP4 PUSH1 0x2 ADD SLOAD PUSH1 0x40 MLOAD PUSH2 0x216D SWAP2 DUP2 MSTORE PUSH1 0x20 ADD SWAP1 JUMP JUMPDEST PUSH1 0x40 MLOAD DUP1 SWAP2 SUB SWAP1 LOG3 POP POP POP POP JUMP JUMPDEST PUSH2 0x2188 PUSH1 0x0 PUSH2 0x9A7 PUSH2 0xDD7 JUMP JUMPDEST PUSH2 0x21E7 JUMPI PUSH1 0x40 MLOAD PUSH3 0x461BCD PUSH1 0xE5 SHL DUP2 MSTORE PUSH1 0x20 PUSH1 0x4 DUP3 ADD MSTORE PUSH1 0x2A PUSH1 0x24 DUP3 ADD MSTORE PUSH32 0x4D75737420686176652044454641554C545F41444D494E5F524F4C4520726F6C PUSH1 0x44 DUP3 ADD MSTORE PUSH10 0x6520746F207061757365 PUSH1 0xB0 SHL PUSH1 0x64 DUP3 ADD MSTORE PUSH1 0x84 ADD PUSH2 0xE62 JUMP JUMPDEST PUSH2 0x1BAC PUSH2 0x3F55 JUMP JUMPDEST PUSH1 0x0 DUP3 DUP2 MSTORE PUSH1 0xFB PUSH1 0x20 MSTORE PUSH1 0x40 DUP2 KECCAK256 PUSH2 0x2207 SWAP1 DUP4 PUSH2 0x3FAE JUMP JUMPDEST SWAP4 SWAP3 POP POP POP JUMP JUMPDEST PUSH1 0x0 SWAP2 DUP3 MSTORE PUSH1 0xC9 PUSH1 0x20 SWAP1 DUP2 MSTORE PUSH1 0x40 DUP1 DUP5 KECCAK256 PUSH1 0x1 PUSH1 0x1 PUSH1 0xA0 SHL SUB SWAP4 SWAP1 SWAP4 AND DUP5 MSTORE SWAP2 SWAP1 MSTORE SWAP1 KECCAK256 SLOAD PUSH1 0xFF AND SWAP1 JUMP JUMPDEST PUSH1 0x1 DUP2 PUSH1 0x1 DUP2 GT ISZERO PUSH2 0x224D JUMPI PUSH2 0x224D PUSH2 0x5405 JUMP JUMPDEST EQ ISZERO PUSH2 0x22C7 JUMPI PUSH2 0x161 SLOAD DUP3 LT ISZERO PUSH1 0x40 MLOAD DUP1 PUSH1 0x40 ADD PUSH1 0x40 MSTORE DUP1 PUSH1 0x6 DUP2 MSTORE PUSH1 0x20 ADD PUSH6 0x303039303033 PUSH1 0xD0 SHL DUP2 MSTORE POP SWAP1 PUSH2 0x2297 JUMPI PUSH1 0x40 MLOAD PUSH3 0x461BCD PUSH1 0xE5 SHL DUP2 MSTORE PUSH1 0x4 ADD PUSH2 0xE62 SWAP2 SWAP1 PUSH2 0x506B JUMP JUMPDEST POP DUP2 PUSH2 0x16C PUSH1 0x0 PUSH2 0x22A6 PUSH2 0xDD7 JUMP JUMPDEST PUSH1 0x1 PUSH1 0x1 PUSH1 0xA0 SHL SUB AND DUP2 MSTORE PUSH1 0x20 DUP2 ADD SWAP2 SWAP1 SWAP2 MSTORE PUSH1 0x40 ADD PUSH1 0x0 KECCAK256 PUSH1 0x1 ADD SSTORE POP POP JUMP JUMPDEST DUP2 PUSH2 0x16C PUSH1 0x0 PUSH2 0x22D5 PUSH2 0xDD7 JUMP JUMPDEST PUSH1 0x1 PUSH1 0x1 PUSH1 0xA0 SHL SUB AND DUP2 MSTORE PUSH1 0x20 DUP2 ADD SWAP2 SWAP1 SWAP2 MSTORE PUSH1 0x40 ADD PUSH1 0x0 KECCAK256 SSTORE POP POP JUMP JUMPDEST PUSH1 0x0 DUP4 DUP2 MSTORE PUSH2 0x168 PUSH1 0x20 SWAP1 DUP2 MSTORE PUSH1 0x40 SWAP2 DUP3 SWAP1 KECCAK256 PUSH1 0x4 ADD SLOAD DUP3 MLOAD DUP1 DUP5 ADD SWAP1 SWAP4 MSTORE PUSH1 0x6 DUP4 MSTORE PUSH6 0x303032303033 PUSH1 0xD0 SHL SWAP2 DUP4 ADD SWAP2 SWAP1 SWAP2 MSTORE DUP5 SWAP2 SWAP1 PUSH1 0x1 PUSH1 0x1 PUSH1 0xA0 SHL SUB AND PUSH2 0x2350 JUMPI PUSH1 0x40 MLOAD PUSH3 0x461BCD PUSH1 0xE5 SHL DUP2 MSTORE PUSH1 0x4 ADD PUSH2 0xE62 SWAP2 SWAP1 PUSH2 0x506B JUMP JUMPDEST POP PUSH2 0x2359 PUSH2 0xDD7 JUMP JUMPDEST PUSH1 0x0 DUP6 DUP2 MSTORE PUSH2 0x168 PUSH1 0x20 SWAP1 DUP2 MSTORE PUSH1 0x40 SWAP2 DUP3 SWAP1 KECCAK256 PUSH1 0x5 ADD SLOAD DUP3 MLOAD DUP1 DUP5 ADD SWAP1 SWAP4 MSTORE PUSH1 0x6 DUP4 MSTORE PUSH6 0x181819181819 PUSH1 0xD1 SHL SWAP2 DUP4 ADD SWAP2 SWAP1 SWAP2 MSTORE SWAP1 SWAP2 PUSH1 0x1 PUSH1 0x1 PUSH1 0xA0 SHL SUB SWAP2 DUP3 AND SWAP2 AND EQ PUSH2 0x23BA JUMPI PUSH1 0x40 MLOAD PUSH3 0x461BCD PUSH1 0xE5 SHL DUP2 MSTORE PUSH1 0x4 ADD PUSH2 0xE62 SWAP2 SWAP1 PUSH2 0x506B JUMP JUMPDEST POP PUSH1 0x0 DUP1 PUSH2 0x23C9 DUP7 DUP7 DUP7 PUSH2 0x3FBA JUMP JUMPDEST SWAP2 POP SWAP2 POP PUSH2 0x23D5 PUSH2 0xDD7 JUMP JUMPDEST PUSH1 0x0 DUP8 DUP2 MSTORE PUSH2 0x168 PUSH1 0x20 MSTORE PUSH1 0x40 SWAP1 DUP2 SWAP1 KECCAK256 PUSH1 0x4 ADD SLOAD SWAP1 MLOAD PUSH1 0x1 PUSH1 0x1 PUSH1 0xA0 SHL SUB SWAP3 DUP4 AND SWAP3 SWAP1 SWAP2 AND SWAP1 DUP9 SWAP1 PUSH32 0xFF7A1ECAAC27EED4C6BD348A8DD8D05ED71190DB5B77E89F881FA74087429BC9 SWAP1 PUSH2 0x242F SWAP1 DUP11 SWAP1 DUP9 SWAP1 DUP9 SWAP1 PUSH2 0x5149 JUMP JUMPDEST PUSH1 0x40 MLOAD DUP1 SWAP2 SUB SWAP1 LOG4 POP POP POP POP POP POP JUMP JUMPDEST PUSH2 0x172 DUP2 DUP2 SLOAD DUP2 LT PUSH2 0x1A0F JUMPI PUSH1 0x0 DUP1 REVERT JUMPDEST PUSH2 0x16E DUP2 DUP2 SLOAD DUP2 LT PUSH2 0x1A0F JUMPI PUSH1 0x0 DUP1 REVERT JUMPDEST PUSH1 0x1 PUSH2 0x16C PUSH1 0x0 PUSH2 0x2470 PUSH2 0xDD7 JUMP JUMPDEST PUSH1 0x1 PUSH1 0x1 PUSH1 0xA0 SHL SUB SWAP1 DUP2 AND DUP3 MSTORE PUSH1 0x20 DUP1 DUP4 ADD SWAP4 SWAP1 SWAP4 MSTORE PUSH1 0x40 SWAP2 DUP3 ADD PUSH1 0x0 SWAP1 DUP2 KECCAK256 SWAP2 DUP7 AND DUP2 MSTORE PUSH1 0x3 SWAP1 SWAP2 ADD SWAP1 SWAP3 MSTORE SWAP1 KECCAK256 SSTORE PUSH2 0x24A8 PUSH2 0xDD7 JUMP JUMPDEST PUSH1 0x1 PUSH1 0x1 PUSH1 0xA0 SHL SUB AND DUP2 PUSH1 0x1 PUSH1 0x1 PUSH1 0xA0 SHL SUB AND PUSH32 0xBCCC71DC7842B86291138666AA18E133EE6D41AA71E6D7C650DEBAD1A0576635 PUSH1 0x40 MLOAD PUSH1 0x40 MLOAD DUP1 SWAP2 SUB SWAP1 LOG3 POP JUMP JUMPDEST PUSH1 0x0 DUP2 DUP2 MSTORE PUSH2 0x168 PUSH1 0x20 SWAP1 DUP2 MSTORE PUSH1 0x40 SWAP2 DUP3 SWAP1 KECCAK256 PUSH1 0x4 ADD SLOAD DUP3 MLOAD DUP1 DUP5 ADD SWAP1 SWAP4 MSTORE PUSH1 0x6 DUP4 MSTORE PUSH6 0x303032303033 PUSH1 0xD0 SHL SWAP2 DUP4 ADD SWAP2 SWAP1 SWAP2 MSTORE DUP3 SWAP2 SWAP1 PUSH1 0x1 PUSH1 0x1 PUSH1 0xA0 SHL SUB AND PUSH2 0x2547 JUMPI PUSH1 0x40 MLOAD PUSH3 0x461BCD PUSH1 0xE5 SHL DUP2 MSTORE PUSH1 0x4 ADD PUSH2 0xE62 SWAP2 SWAP1 PUSH2 0x506B JUMP JUMPDEST POP PUSH1 0x0 DUP3 DUP2 MSTORE PUSH2 0x168 PUSH1 0x20 MSTORE PUSH1 0x40 SWAP1 DUP2 SWAP1 KECCAK256 SWAP1 MLOAD PUSH4 0x1F2553B PUSH1 0xE1 SHL DUP2 MSTORE PUSH1 0x4 DUP2 ADD DUP3 SWAP1 MSTORE PUSH20 0x0 SWAP1 PUSH4 0x3E4AA76 SWAP1 PUSH1 0x24 ADD PUSH1 0x0 PUSH1 0x40 MLOAD DUP1 DUP4 SUB DUP2 DUP7 DUP1 EXTCODESIZE ISZERO DUP1 ISZERO PUSH2 0x25A3 JUMPI PUSH1 0x0 DUP1 REVERT JUMPDEST POP GAS DELEGATECALL ISZERO DUP1 ISZERO PUSH2 0x25B7 JUMPI RETURNDATASIZE PUSH1 0x0 DUP1 RETURNDATACOPY RETURNDATASIZE PUSH1 0x0 REVERT JUMPDEST POP POP POP POP PUSH1 0x0 CALLVALUE GT PUSH1 0x40 MLOAD DUP1 PUSH1 0x40 ADD PUSH1 0x40 MSTORE DUP1 PUSH1 0x6 DUP2 MSTORE PUSH1 0x20 ADD PUSH6 0x303033303035 PUSH1 0xD0 SHL DUP2 MSTORE POP SWAP1 PUSH2 0x25FC JUMPI PUSH1 0x40 MLOAD PUSH3 0x461BCD PUSH1 0xE5 SHL DUP2 MSTORE PUSH1 0x4 ADD PUSH2 0xE62 SWAP2 SWAP1 PUSH2 0x506B JUMP JUMPDEST POP PUSH1 0x0 PUSH20 0x0 PUSH4 0xFEAC0F70 PUSH2 0x16A DUP7 PUSH2 0x2625 PUSH2 0xDD7 JUMP JUMPDEST PUSH1 0x40 MLOAD PUSH1 0x1 PUSH1 0x1 PUSH1 0xE0 SHL SUB NOT PUSH1 0xE0 DUP7 SWAP1 SHL AND DUP2 MSTORE PUSH1 0x4 DUP2 ADD SWAP4 SWAP1 SWAP4 MSTORE PUSH1 0x24 DUP4 ADD SWAP2 SWAP1 SWAP2 MSTORE PUSH1 0x1 PUSH1 0x1 PUSH1 0xA0 SHL SUB AND PUSH1 0x44 DUP3 ADD MSTORE CALLVALUE PUSH1 0x64 DUP3 ADD MSTORE PUSH1 0x84 ADD PUSH1 0x20 PUSH1 0x40 MLOAD DUP1 DUP4 SUB DUP2 DUP7 DUP1 EXTCODESIZE ISZERO DUP1 ISZERO PUSH2 0x2678 JUMPI PUSH1 0x0 DUP1 REVERT JUMPDEST POP GAS DELEGATECALL ISZERO DUP1 ISZERO PUSH2 0x268C JUMPI RETURNDATASIZE PUSH1 0x0 DUP1 RETURNDATACOPY RETURNDATASIZE PUSH1 0x0 REVERT JUMPDEST POP POP POP POP PUSH1 0x40 MLOAD RETURNDATASIZE PUSH1 0x1F NOT PUSH1 0x1F DUP3 ADD AND DUP3 ADD DUP1 PUSH1 0x40 MSTORE POP DUP2 ADD SWAP1 PUSH2 0x26B0 SWAP2 SWAP1 PUSH2 0x4D4F JUMP JUMPDEST PUSH1 0x40 MLOAD PUSH4 0xAEBE5183 PUSH1 0xE0 SHL DUP2 MSTORE PUSH1 0x4 DUP2 ADD DUP5 SWAP1 MSTORE PUSH1 0x24 DUP2 ADD DUP3 SWAP1 MSTORE CALLVALUE PUSH1 0x44 DUP3 ADD MSTORE SWAP1 SWAP2 POP PUSH20 0x0 SWAP1 PUSH4 0xAEBE5183 SWAP1 PUSH1 0x64 ADD PUSH1 0x0 PUSH1 0x40 MLOAD DUP1 DUP4 SUB DUP2 DUP7 DUP1 EXTCODESIZE ISZERO DUP1 ISZERO PUSH2 0x270B JUMPI PUSH1 0x0 DUP1 REVERT JUMPDEST POP GAS DELEGATECALL ISZERO DUP1 ISZERO PUSH2 0x271F JUMPI RETURNDATASIZE PUSH1 0x0 DUP1 RETURNDATACOPY RETURNDATASIZE PUSH1 0x0 REVERT JUMPDEST POP POP PUSH2 0x171 DUP1 SLOAD PUSH1 0x1 DUP2 ADD DUP3 SSTORE PUSH1 0x0 SWAP2 SWAP1 SWAP2 MSTORE PUSH32 0x42B680591BEB20D1DE0D4CA368D3F10ACC6DB07BC74B68A9681655FB351B9039 ADD DUP4 SWAP1 SSTORE POP PUSH2 0x2762 SWAP1 POP PUSH2 0xDD7 JUMP JUMPDEST PUSH1 0x1 PUSH1 0x1 PUSH1 0xA0 SHL SUB AND DUP2 DUP6 PUSH32 0xB8A61F3258608A2F1AF184E4640B08E6CD69126E3C563D30B6348EBFB5155884 CALLVALUE PUSH1 0x40 MLOAD PUSH2 0x279E SWAP2 DUP2 MSTORE PUSH1 0x20 ADD SWAP1 JUMP JUMPDEST PUSH1 0x40 MLOAD DUP1 SWAP2 SUB SWAP1 LOG4 POP POP POP POP JUMP JUMPDEST PUSH1 0x0 PUSH2 0x27BA DUP2 PUSH2 0xE1F PUSH2 0xDD7 JUMP JUMPDEST PUSH2 0x164 SLOAD PUSH1 0x40 DUP1 MLOAD DUP1 DUP3 ADD SWAP1 SWAP2 MSTORE PUSH1 0x6 DUP2 MSTORE PUSH6 0x60607260607 PUSH1 0xD3 SHL PUSH1 0x20 DUP3 ADD MSTORE SWAP1 PUSH1 0x1 PUSH1 0x1 PUSH1 0xA0 SHL SUB AND PUSH2 0x2802 JUMPI PUSH1 0x40 MLOAD PUSH3 0x461BCD PUSH1 0xE5 SHL DUP2 MSTORE PUSH1 0x4 ADD PUSH2 0xE62 SWAP2 SWAP1 PUSH2 0x506B JUMP JUMPDEST POP POP PUSH2 0x164 DUP1 SLOAD PUSH1 0x1 PUSH1 0x1 PUSH1 0xA0 SHL SUB NOT AND PUSH1 0x1 PUSH1 0x1 PUSH1 0xA0 SHL SUB SWAP3 SWAP1 SWAP3 AND SWAP2 SWAP1 SWAP2 OR SWAP1 SSTORE JUMP JUMPDEST PUSH2 0x16C PUSH1 0x20 MSTORE PUSH1 0x0 SWAP1 DUP2 MSTORE PUSH1 0x40 SWAP1 KECCAK256 DUP1 SLOAD PUSH1 0x1 DUP3 ADD SLOAD PUSH1 0x2 DUP4 ADD DUP1 SLOAD SWAP3 SWAP4 SWAP2 SWAP3 PUSH2 0x2850 SWAP1 PUSH2 0x5387 JUMP JUMPDEST DUP1 PUSH1 0x1F ADD PUSH1 0x20 DUP1 SWAP2 DIV MUL PUSH1 0x20 ADD PUSH1 0x40 MLOAD SWAP1 DUP2 ADD PUSH1 0x40 MSTORE DUP1 SWAP3 SWAP2 SWAP1 DUP2 DUP2 MSTORE PUSH1 0x20 ADD DUP3 DUP1 SLOAD PUSH2 0x287C SWAP1 PUSH2 0x5387 JUMP JUMPDEST DUP1 ISZERO PUSH2 0x28C9 JUMPI DUP1 PUSH1 0x1F LT PUSH2 0x289E JUMPI PUSH2 0x100 DUP1 DUP4 SLOAD DIV MUL DUP4 MSTORE SWAP2 PUSH1 0x20 ADD SWAP2 PUSH2 0x28C9 JUMP JUMPDEST DUP3 ADD SWAP2 SWAP1 PUSH1 0x0 MSTORE PUSH1 0x20 PUSH1 0x0 KECCAK256 SWAP1 JUMPDEST DUP2 SLOAD DUP2 MSTORE SWAP1 PUSH1 0x1 ADD SWAP1 PUSH1 0x20 ADD DUP1 DUP4 GT PUSH2 0x28AC JUMPI DUP3 SWAP1 SUB PUSH1 0x1F AND DUP3 ADD SWAP2 JUMPDEST POP POP POP POP POP SWAP1 POP DUP4 JUMP JUMPDEST PUSH1 0x0 DUP2 DUP2 MSTORE PUSH2 0x169 PUSH1 0x20 SWAP1 DUP2 MSTORE PUSH1 0x40 SWAP2 DUP3 SWAP1 KECCAK256 PUSH1 0x3 ADD SLOAD DUP3 MLOAD DUP1 DUP5 ADD SWAP1 SWAP4 MSTORE PUSH1 0x6 DUP4 MSTORE PUSH6 0x303034303031 PUSH1 0xD0 SHL SWAP2 DUP4 ADD SWAP2 SWAP1 SWAP2 MSTORE DUP3 SWAP2 SWAP1 PUSH1 0x1 PUSH1 0x1 PUSH1 0xA0 SHL SUB AND PUSH2 0x2930 JUMPI PUSH1 0x40 MLOAD PUSH3 0x461BCD PUSH1 0xE5 SHL DUP2 MSTORE PUSH1 0x4 ADD PUSH2 0xE62 SWAP2 SWAP1 PUSH2 0x506B JUMP JUMPDEST POP PUSH1 0x0 DUP3 DUP2 MSTORE PUSH2 0x169 PUSH1 0x20 SWAP1 DUP2 MSTORE PUSH1 0x40 SWAP2 DUP3 SWAP1 KECCAK256 DUP3 MLOAD DUP1 DUP5 ADD SWAP1 SWAP4 MSTORE PUSH1 0x6 DUP4 MSTORE PUSH6 0x303033303035 PUSH1 0xD0 SHL SWAP2 DUP4 ADD SWAP2 SWAP1 SWAP2 MSTORE SWAP1 CALLVALUE PUSH2 0x2980 JUMPI PUSH1 0x40 MLOAD PUSH3 0x461BCD PUSH1 0xE5 SHL DUP2 MSTORE PUSH1 0x4 ADD PUSH2 0xE62 SWAP2 SWAP1 PUSH2 0x506B JUMP JUMPDEST POP PUSH1 0x0 PUSH20 0x0 PUSH4 0xCDAEA013 PUSH2 0x16B DUP7 PUSH2 0x29A9 PUSH2 0xDD7 JUMP JUMPDEST PUSH1 0x40 MLOAD PUSH1 0x1 PUSH1 0x1 PUSH1 0xE0 SHL SUB NOT PUSH1 0xE0 DUP7 SWAP1 SHL AND DUP2 MSTORE PUSH1 0x4 DUP2 ADD SWAP4 SWAP1 SWAP4 MSTORE PUSH1 0x24 DUP4 ADD SWAP2 SWAP1 SWAP2 MSTORE PUSH1 0x1 PUSH1 0x1 PUSH1 0xA0 SHL SUB AND PUSH1 0x44 DUP3 ADD MSTORE CALLVALUE PUSH1 0x64 DUP3 ADD MSTORE PUSH1 0x84 ADD PUSH1 0x20 PUSH1 0x40 MLOAD DUP1 DUP4 SUB DUP2 DUP7 DUP1 EXTCODESIZE ISZERO DUP1 ISZERO PUSH2 0x29FC JUMPI PUSH1 0x0 DUP1 REVERT JUMPDEST POP GAS DELEGATECALL ISZERO DUP1 ISZERO PUSH2 0x2A10 JUMPI RETURNDATASIZE PUSH1 0x0 DUP1 RETURNDATACOPY RETURNDATASIZE PUSH1 0x0 REVERT JUMPDEST POP POP POP POP PUSH1 0x40 MLOAD RETURNDATASIZE PUSH1 0x1F NOT PUSH1 0x1F DUP3 ADD AND DUP3 ADD DUP1 PUSH1 0x40 MSTORE POP DUP2 ADD SWAP1 PUSH2 0x2A34 SWAP2 SWAP1 PUSH2 0x4D4F JUMP JUMPDEST PUSH1 0x40 MLOAD PUSH1 0x1 PUSH3 0xDF932B PUSH1 0xE0 SHL SUB NOT DUP2 MSTORE PUSH1 0x4 DUP2 ADD DUP5 SWAP1 MSTORE PUSH1 0x24 DUP2 ADD DUP3 SWAP1 MSTORE CALLVALUE PUSH1 0x44 DUP3 ADD MSTORE SWAP1 SWAP2 POP PUSH20 0x0 SWAP1 PUSH4 0xFF206CD5 SWAP1 PUSH1 0x64 ADD PUSH1 0x0 PUSH1 0x40 MLOAD DUP1 DUP4 SUB DUP2 DUP7 DUP1 EXTCODESIZE ISZERO DUP1 ISZERO PUSH2 0x2A92 JUMPI PUSH1 0x0 DUP1 REVERT JUMPDEST POP GAS DELEGATECALL ISZERO DUP1 ISZERO PUSH2 0x2AA6 JUMPI RETURNDATASIZE PUSH1 0x0 DUP1 RETURNDATACOPY RETURNDATASIZE PUSH1 0x0 REVERT JUMPDEST POP POP PUSH2 0x172 DUP1 SLOAD PUSH1 0x1 DUP2 ADD SWAP1 SWAP2 SSTORE PUSH32 0xED95D52AE313E6BE6D8C8F9945923A6497C37269BA35D5E3535B758E47227CFC ADD DUP4 SWAP1 SSTORE POP POP PUSH1 0x3 DUP3 ADD SLOAD PUSH1 0x1 PUSH1 0x1 PUSH1 0xA0 SHL SUB AND PUSH1 0x0 SWAP1 DUP2 MSTORE PUSH2 0x16D PUSH1 0x20 MSTORE PUSH1 0x40 DUP2 KECCAK256 DUP1 SLOAD CALLVALUE SWAP3 SWAP1 PUSH2 0x2B08 SWAP1 DUP5 SWAP1 PUSH2 0x52D0 JUMP JUMPDEST SWAP1 SWAP2 SSTORE POP PUSH2 0x2B16 SWAP1 POP PUSH2 0xDD7 JUMP JUMPDEST PUSH1 0x1 PUSH1 0x1 PUSH1 0xA0 SHL SUB AND DUP2 DUP6 PUSH32 0xA7B9DE4CAE04F62223D95ABA2F4ECDD05879F655BAB52B8505B696ECF05F7274 CALLVALUE PUSH1 0x40 MLOAD PUSH2 0x279E SWAP2 DUP2 MSTORE PUSH1 0x20 ADD SWAP1 JUMP JUMPDEST PUSH1 0x0 DUP4 DUP2 MSTORE PUSH2 0x168 PUSH1 0x20 SWAP1 DUP2 MSTORE PUSH1 0x40 DUP1 DUP4 KECCAK256 PUSH1 0x4 ADD SLOAD DUP2 MLOAD DUP1 DUP4 ADD SWAP1 SWAP3 MSTORE PUSH1 0x6 DUP3 MSTORE PUSH6 0x303032303033 PUSH1 0xD0 SHL SWAP3 DUP3 ADD SWAP3 SWAP1 SWAP3 MSTORE PUSH1 0x60 SWAP3 SWAP2 DUP7 SWAP2 SWAP1 PUSH1 0x1 PUSH1 0x1 PUSH1 0xA0 SHL SUB AND PUSH2 0x2BB2 JUMPI PUSH1 0x40 MLOAD PUSH3 0x461BCD PUSH1 0xE5 SHL DUP2 MSTORE PUSH1 0x4 ADD PUSH2 0xE62 SWAP2 SWAP1 PUSH2 0x506B JUMP JUMPDEST POP PUSH1 0x0 DUP7 DUP2 MSTORE PUSH2 0x168 PUSH1 0x20 MSTORE PUSH1 0x40 SWAP1 DUP2 SWAP1 KECCAK256 SWAP1 MLOAD PUSH4 0x74A5907 PUSH1 0xE0 SHL DUP2 MSTORE PUSH1 0x4 DUP2 ADD DUP8 SWAP1 MSTORE PUSH1 0x24 DUP2 ADD DUP7 SWAP1 MSTORE PUSH1 0x6 SWAP1 SWAP2 ADD PUSH1 0x44 DUP3 ADD MSTORE PUSH20 0x0 SWAP1 PUSH4 0x74A5907 SWAP1 PUSH1 0x64 ADD PUSH2 0x1AD5 JUMP JUMPDEST PUSH1 0x0 DUP3 DUP2 MSTORE PUSH2 0x168 PUSH1 0x20 SWAP1 DUP2 MSTORE PUSH1 0x40 SWAP2 DUP3 SWAP1 KECCAK256 PUSH1 0x4 ADD SLOAD DUP3 MLOAD DUP1 DUP5 ADD SWAP1 SWAP4 MSTORE PUSH1 0x6 DUP4 MSTORE PUSH6 0x303032303033 PUSH1 0xD0 SHL SWAP2 DUP4 ADD SWAP2 SWAP1 SWAP2 MSTORE DUP4 SWAP2 SWAP1 PUSH1 0x1 PUSH1 0x1 PUSH1 0xA0 SHL SUB AND PUSH2 0x2C69 JUMPI PUSH1 0x40 MLOAD PUSH3 0x461BCD PUSH1 0xE5 SHL DUP2 MSTORE PUSH1 0x4 ADD PUSH2 0xE62 SWAP2 SWAP1 PUSH2 0x506B JUMP JUMPDEST POP DUP3 PUSH2 0x2C73 PUSH2 0xDD7 JUMP JUMPDEST PUSH1 0x0 DUP3 DUP2 MSTORE PUSH2 0x168 PUSH1 0x20 SWAP1 DUP2 MSTORE PUSH1 0x40 SWAP2 DUP3 SWAP1 KECCAK256 PUSH1 0x4 ADD SLOAD DUP3 MLOAD DUP1 DUP5 ADD SWAP1 SWAP4 MSTORE PUSH1 0x6 DUP4 MSTORE PUSH6 0x181819181819 PUSH1 0xD1 SHL SWAP2 DUP4 ADD SWAP2 SWAP1 SWAP2 MSTORE SWAP1 SWAP2 PUSH1 0x1 PUSH1 0x1 PUSH1 0xA0 SHL SUB SWAP2 DUP3 AND SWAP2 AND EQ PUSH2 0x2CD4 JUMPI PUSH1 0x40 MLOAD PUSH3 0x461BCD PUSH1 0xE5 SHL DUP2 MSTORE PUSH1 0x4 ADD PUSH2 0xE62 SWAP2 SWAP1 PUSH2 0x506B JUMP JUMPDEST POP DUP3 DUP1 PUSH1 0x2 LT ISZERO PUSH1 0x40 MLOAD DUP1 PUSH1 0x40 ADD PUSH1 0x40 MSTORE DUP1 PUSH1 0x6 DUP2 MSTORE PUSH1 0x20 ADD PUSH6 0x303032303131 PUSH1 0xD0 SHL DUP2 MSTORE POP SWAP1 PUSH2 0x2D18 JUMPI PUSH1 0x40 MLOAD PUSH3 0x461BCD PUSH1 0xE5 SHL DUP2 MSTORE PUSH1 0x4 ADD PUSH2 0xE62 SWAP2 SWAP1 PUSH2 0x506B JUMP JUMPDEST POP PUSH1 0x3 PUSH1 0x0 DUP7 DUP2 MSTORE PUSH2 0x168 PUSH1 0x20 MSTORE PUSH1 0x40 SWAP1 KECCAK256 PUSH1 0x9 ADD SLOAD PUSH1 0xFF AND PUSH1 0x3 DUP2 GT ISZERO PUSH2 0x2D42 JUMPI PUSH2 0x2D42 PUSH2 0x5405 JUMP JUMPDEST EQ PUSH1 0x40 MLOAD DUP1 PUSH1 0x40 ADD PUSH1 0x40 MSTORE DUP1 PUSH1 0x6 DUP2 MSTORE PUSH1 0x20 ADD PUSH6 0x303032303039 PUSH1 0xD0 SHL DUP2 MSTORE POP SWAP1 PUSH2 0x2D80 JUMPI PUSH1 0x40 MLOAD PUSH3 0x461BCD PUSH1 0xE5 SHL DUP2 MSTORE PUSH1 0x4 ADD PUSH2 0xE62 SWAP2 SWAP1 PUSH2 0x506B JUMP JUMPDEST POP PUSH1 0x0 DUP6 DUP2 MSTORE PUSH2 0x168 PUSH1 0x20 MSTORE PUSH1 0x40 DUP2 KECCAK256 PUSH1 0xB ADD SLOAD PUSH1 0xFF AND PUSH1 0x2 DUP2 GT ISZERO PUSH2 0x2DA8 JUMPI PUSH2 0x2DA8 PUSH2 0x5405 JUMP JUMPDEST EQ PUSH1 0x40 MLOAD DUP1 PUSH1 0x40 ADD PUSH1 0x40 MSTORE DUP1 PUSH1 0x6 DUP2 MSTORE PUSH1 0x20 ADD PUSH6 0x181819181899 PUSH1 0xD1 SHL DUP2 MSTORE POP SWAP1 PUSH2 0x2DE6 JUMPI PUSH1 0x40 MLOAD PUSH3 0x461BCD PUSH1 0xE5 SHL DUP2 MSTORE PUSH1 0x4 ADD PUSH2 0xE62 SWAP2 SWAP1 PUSH2 0x506B JUMP JUMPDEST POP DUP4 PUSH1 0x2 DUP2 GT ISZERO PUSH2 0x2DF9 JUMPI PUSH2 0x2DF9 PUSH2 0x5405 JUMP JUMPDEST PUSH1 0x0 DUP7 DUP2 MSTORE PUSH2 0x168 PUSH1 0x20 MSTORE PUSH1 0x40 SWAP1 KECCAK256 PUSH1 0xB ADD DUP1 SLOAD PUSH1 0xFF NOT AND PUSH1 0x1 DUP4 PUSH1 0x2 DUP2 GT ISZERO PUSH2 0x2E25 JUMPI PUSH2 0x2E25 PUSH2 0x5405 JUMP JUMPDEST MUL OR SWAP1 SSTORE POP PUSH1 0x0 DUP6 DUP2 MSTORE PUSH2 0x168 PUSH1 0x20 MSTORE PUSH1 0x40 SWAP1 DUP2 SWAP1 KECCAK256 PUSH1 0x5 DUP2 ADD SLOAD PUSH1 0x4 SWAP1 SWAP2 ADD SLOAD SWAP2 MLOAD PUSH1 0x1 PUSH1 0x1 PUSH1 0xA0 SHL SUB SWAP2 DUP3 AND SWAP3 SWAP1 SWAP2 AND SWAP1 DUP8 SWAP1 PUSH32 0xBA2E4B16CB7F6BBE19C7A1146539A78ED1DB3EFBB3DD80D6C65F0BA1D8403459 SWAP1 PUSH2 0x2E89 SWAP1 DUP10 DUP2 MSTORE PUSH1 0x20 ADD SWAP1 JUMP JUMPDEST PUSH1 0x40 MLOAD DUP1 SWAP2 SUB SWAP1 LOG4 POP POP POP POP POP JUMP JUMPDEST PUSH1 0x0 DUP1 PUSH2 0x2EA7 DUP2 PUSH2 0xE1F PUSH2 0xDD7 JUMP JUMPDEST SELFBALANCE SWAP2 POP JUMPDEST POP SWAP1 JUMP JUMPDEST PUSH1 0x33 SLOAD PUSH1 0xFF AND ISZERO PUSH2 0x2ED2 JUMPI PUSH1 0x40 MLOAD PUSH3 0x461BCD PUSH1 0xE5 SHL DUP2 MSTORE PUSH1 0x4 ADD PUSH2 0xE62 SWAP1 PUSH2 0x51B3 JUMP JUMPDEST PUSH1 0x2 PUSH2 0x12D SLOAD EQ ISZERO PUSH2 0x2EF6 JUMPI PUSH1 0x40 MLOAD PUSH3 0x461BCD PUSH1 0xE5 SHL DUP2 MSTORE PUSH1 0x4 ADD PUSH2 0xE62 SWAP1 PUSH2 0x5228 JUMP JUMPDEST PUSH1 0x2 PUSH2 0x12D SSTORE PUSH2 0x16D PUSH1 0x0 PUSH2 0x2F09 PUSH2 0xDD7 JUMP JUMPDEST PUSH1 0x1 PUSH1 0x1 PUSH1 0xA0 SHL SUB AND PUSH1 0x1 PUSH1 0x1 PUSH1 0xA0 SHL SUB AND DUP2 MSTORE PUSH1 0x20 ADD SWAP1 DUP2 MSTORE PUSH1 0x20 ADD PUSH1 0x0 KECCAK256 SLOAD DUP3 GT ISZERO PUSH1 0x40 MLOAD DUP1 PUSH1 0x40 ADD PUSH1 0x40 MSTORE DUP1 PUSH1 0x6 DUP2 MSTORE PUSH1 0x20 ADD PUSH6 0x303039303031 PUSH1 0xD0 SHL DUP2 MSTORE POP SWAP1 PUSH2 0x2F6A JUMPI PUSH1 0x40 MLOAD PUSH3 0x461BCD PUSH1 0xE5 SHL DUP2 MSTORE PUSH1 0x4 ADD PUSH2 0xE62 SWAP2 SWAP1 PUSH2 0x506B JUMP JUMPDEST POP DUP2 PUSH2 0x16D PUSH1 0x0 PUSH2 0x2F79 PUSH2 0xDD7 JUMP JUMPDEST PUSH1 0x1 PUSH1 0x1 PUSH1 0xA0 SHL SUB AND PUSH1 0x1 PUSH1 0x1 PUSH1 0xA0 SHL SUB AND DUP2 MSTORE PUSH1 0x20 ADD SWAP1 DUP2 MSTORE PUSH1 0x20 ADD PUSH1 0x0 KECCAK256 PUSH1 0x0 DUP3 DUP3 SLOAD PUSH2 0x2FA8 SWAP2 SWAP1 PUSH2 0x5329 JUMP JUMPDEST SWAP1 SWAP2 SSTORE POP PUSH2 0x2FB8 SWAP1 POP DUP2 DUP4 PUSH2 0x3D5F JUMP JUMPDEST DUP1 PUSH1 0x1 PUSH1 0x1 PUSH1 0xA0 SHL SUB AND PUSH2 0x2FCA PUSH2 0xDD7 JUMP JUMPDEST PUSH1 0x1 PUSH1 0x1 PUSH1 0xA0 SHL SUB AND PUSH32 0xDDF252AD1BE2C89B69C2B068FC378DAA952BA7F163C4A11628F55A4DF523B3EF DUP5 PUSH1 0x40 MLOAD PUSH2 0x3004 SWAP2 DUP2 MSTORE PUSH1 0x20 ADD SWAP1 JUMP JUMPDEST PUSH1 0x40 MLOAD DUP1 SWAP2 SUB SWAP1 LOG3 POP POP PUSH1 0x1 PUSH2 0x12D SSTORE JUMP JUMPDEST PUSH1 0x0 PUSH2 0x16D PUSH1 0x0 PUSH2 0x3025 PUSH2 0xDD7 JUMP JUMPDEST PUSH1 0x1 PUSH1 0x1 PUSH1 0xA0 SHL SUB AND PUSH1 0x1 PUSH1 0x1 PUSH1 0xA0 SHL SUB AND DUP2 MSTORE PUSH1 0x20 ADD SWAP1 DUP2 MSTORE PUSH1 0x20 ADD PUSH1 0x0 KECCAK256 SLOAD SWAP1 POP SWAP1 JUMP JUMPDEST PUSH1 0x0 PUSH2 0x3059 PUSH1 0x33 SLOAD PUSH1 0xFF AND SWAP1 JUMP JUMPDEST ISZERO PUSH2 0x3076 JUMPI PUSH1 0x40 MLOAD PUSH3 0x461BCD PUSH1 0xE5 SHL DUP2 MSTORE PUSH1 0x4 ADD PUSH2 0xE62 SWAP1 PUSH2 0x51B3 JUMP JUMPDEST PUSH1 0x2 PUSH2 0x12D SLOAD EQ ISZERO PUSH2 0x309A JUMPI PUSH1 0x40 MLOAD PUSH3 0x461BCD PUSH1 0xE5 SHL DUP2 MSTORE PUSH1 0x4 ADD PUSH2 0xE62 SWAP1 PUSH2 0x5228 JUMP JUMPDEST PUSH1 0x2 PUSH2 0x12D SSTORE PUSH2 0x162 SLOAD PUSH1 0x40 DUP1 MLOAD DUP1 DUP3 ADD SWAP1 SWAP2 MSTORE PUSH1 0x6 DUP2 MSTORE PUSH6 0x303034303033 PUSH1 0xD0 SHL PUSH1 0x20 DUP3 ADD MSTORE SWAP1 CALLVALUE LT ISZERO PUSH2 0x30E2 JUMPI PUSH1 0x40 MLOAD PUSH3 0x461BCD PUSH1 0xE5 SHL DUP2 MSTORE PUSH1 0x4 ADD PUSH2 0xE62 SWAP2 SWAP1 PUSH2 0x506B JUMP JUMPDEST POP PUSH1 0x40 DUP1 MLOAD PUSH1 0x0 DUP1 DUP3 MSTORE PUSH1 0x20 DUP3 ADD SWAP1 SWAP3 MSTORE SWAP1 PUSH20 0x0 PUSH4 0xB0B67FA8 DUP6 PUSH2 0x3117 PUSH2 0xDD7 JUMP JUMPDEST PUSH1 0x40 MLOAD DUP4 PUSH4 0xFFFFFFFF AND PUSH1 0xE0 SHL DUP2 MSTORE PUSH1 0x4 ADD PUSH2 0x3134 SWAP3 SWAP2 SWAP1 PUSH2 0x507E JUMP JUMPDEST PUSH1 0x20 PUSH1 0x40 MLOAD DUP1 DUP4 SUB DUP2 DUP7 DUP1 EXTCODESIZE ISZERO DUP1 ISZERO PUSH2 0x314C JUMPI PUSH1 0x0 DUP1 REVERT JUMPDEST POP GAS DELEGATECALL ISZERO DUP1 ISZERO PUSH2 0x3160 JUMPI RETURNDATASIZE PUSH1 0x0 DUP1 RETURNDATACOPY RETURNDATASIZE PUSH1 0x0 REVERT JUMPDEST POP POP POP POP PUSH1 0x40 MLOAD RETURNDATASIZE PUSH1 0x1F NOT PUSH1 0x1F DUP3 ADD AND DUP3 ADD DUP1 PUSH1 0x40 MSTORE POP DUP2 ADD SWAP1 PUSH2 0x3184 SWAP2 SWAP1 PUSH2 0x4D4F JUMP JUMPDEST SWAP1 POP PUSH1 0x40 MLOAD DUP1 PUSH1 0xE0 ADD PUSH1 0x40 MSTORE DUP1 DUP6 DUP2 MSTORE PUSH1 0x20 ADD CALLVALUE DUP2 MSTORE PUSH1 0x20 ADD PUSH1 0x0 DUP2 MSTORE PUSH1 0x20 ADD PUSH2 0x31AC PUSH2 0xDD7 JUMP JUMPDEST PUSH1 0x1 PUSH1 0x1 PUSH1 0xA0 SHL SUB AND DUP2 MSTORE PUSH1 0x20 DUP1 DUP3 ADD DUP6 SWAP1 MSTORE TIMESTAMP PUSH1 0x40 DUP1 DUP5 ADD SWAP2 SWAP1 SWAP2 MSTORE PUSH1 0x0 PUSH1 0x60 SWAP1 SWAP4 ADD DUP4 SWAP1 MSTORE DUP5 DUP4 MSTORE PUSH2 0x169 DUP3 MSTORE SWAP1 SWAP2 KECCAK256 DUP3 MLOAD DUP1 MLOAD SWAP2 SWAP3 PUSH2 0x31F3 SWAP3 DUP5 SWAP3 SWAP1 SWAP2 ADD SWAP1 PUSH2 0x4A36 JUMP JUMPDEST POP PUSH1 0x20 DUP3 DUP2 ADD MLOAD PUSH1 0x1 DUP4 ADD SSTORE PUSH1 0x40 DUP4 ADD MLOAD PUSH1 0x2 DUP4 ADD SSTORE PUSH1 0x60 DUP4 ADD MLOAD PUSH1 0x3 DUP4 ADD DUP1 SLOAD PUSH1 0x1 PUSH1 0x1 PUSH1 0xA0 SHL SUB NOT AND PUSH1 0x1 PUSH1 0x1 PUSH1 0xA0 SHL SUB SWAP1 SWAP3 AND SWAP2 SWAP1 SWAP2 OR SWAP1 SSTORE PUSH1 0x80 DUP4 ADD MLOAD DUP1 MLOAD PUSH2 0x3246 SWAP3 PUSH1 0x4 DUP6 ADD SWAP3 ADD SWAP1 PUSH2 0x4AB6 JUMP JUMPDEST POP PUSH1 0xA0 DUP3 ADD MLOAD PUSH1 0x5 DUP3 ADD SSTORE PUSH1 0xC0 SWAP1 SWAP2 ADD MLOAD PUSH1 0x6 SWAP1 SWAP2 ADD SSTORE PUSH2 0x170 DUP1 SLOAD PUSH1 0x1 DUP2 ADD SWAP1 SWAP2 SSTORE PUSH32 0x88E1AFB22F13BE7FEC203799FD189C3B9471C5B75E2B22A6D5EFEC11C7F39255 ADD DUP2 SWAP1 SSTORE PUSH2 0x15F SLOAD PUSH1 0x1 PUSH1 0x1 PUSH1 0xA0 SHL SUB AND PUSH1 0x0 SWAP1 DUP2 MSTORE PUSH2 0x16D PUSH1 0x20 MSTORE PUSH1 0x40 DUP2 KECCAK256 DUP1 SLOAD CALLVALUE SWAP3 SWAP1 PUSH2 0x32BA SWAP1 DUP5 SWAP1 PUSH2 0x52D0 JUMP JUMPDEST SWAP1 SWAP2 SSTORE POP PUSH2 0x32C8 SWAP1 POP PUSH2 0xDD7 JUMP JUMPDEST PUSH1 0x1 PUSH1 0x1 PUSH1 0xA0 SHL SUB AND DUP2 PUSH32 0x3C860076DBB2474109EA1AFC5F287966581081ACEE08EE7EC1D39CFDD52A0740 CALLVALUE DUP8 PUSH1 0x40 MLOAD PUSH2 0x3303 SWAP3 SWAP2 SWAP1 PUSH2 0x5287 JUMP JUMPDEST PUSH1 0x40 MLOAD DUP1 SWAP2 SUB SWAP1 LOG3 PUSH1 0x1 PUSH2 0x12D SSTORE SWAP4 SWAP3 POP POP POP JUMP JUMPDEST PUSH1 0x40 MLOAD PUSH4 0x74A5907 PUSH1 0xE0 SHL DUP2 MSTORE PUSH1 0x4 DUP2 ADD DUP4 SWAP1 MSTORE PUSH1 0x24 DUP2 ADD DUP3 SWAP1 MSTORE PUSH2 0x16E PUSH1 0x44 DUP3 ADD MSTORE PUSH1 0x60 SWAP1 PUSH1 0x0 SWAP1 PUSH20 0x0 SWAP1 PUSH4 0x74A5907 SWAP1 PUSH1 0x64 ADD PUSH2 0x1160 JUMP JUMPDEST PUSH1 0x0 DUP2 DUP2 MSTORE PUSH1 0xFB PUSH1 0x20 MSTORE PUSH1 0x40 DUP2 KECCAK256 PUSH2 0xE0B SWAP1 PUSH2 0x42E6 JUMP JUMPDEST PUSH2 0x171 DUP2 DUP2 SLOAD DUP2 LT PUSH2 0x1A0F JUMPI PUSH1 0x0 DUP1 REVERT JUMPDEST PUSH1 0x0 DUP3 DUP2 MSTORE PUSH1 0xC9 PUSH1 0x20 MSTORE PUSH1 0x40 SWAP1 KECCAK256 PUSH1 0x1 ADD SLOAD PUSH2 0x33AB DUP2 PUSH2 0xE1F PUSH2 0xDD7 JUMP JUMPDEST PUSH2 0xF01 DUP4 DUP4 PUSH2 0x3E9A JUMP JUMPDEST PUSH1 0x0 PUSH2 0x33C1 DUP5 DUP5 PUSH2 0x340F JUMP JUMPDEST ISZERO PUSH2 0x33CE JUMPI POP PUSH1 0x0 PUSH2 0x2207 JUMP JUMPDEST PUSH1 0x1 DUP3 EQ ISZERO PUSH2 0x33E7 JUMPI PUSH2 0x33E0 DUP4 PUSH2 0x42F0 JUMP JUMPDEST SWAP1 POP PUSH2 0x2207 JUMP JUMPDEST PUSH2 0x33F0 DUP4 PUSH2 0x433A JUMP JUMPDEST SWAP5 SWAP4 POP POP POP POP JUMP JUMPDEST PUSH1 0x0 PUSH2 0x3406 DUP2 PUSH2 0xE1F PUSH2 0xDD7 JUMP JUMPDEST PUSH2 0x18F8 DUP3 PUSH2 0x437E JUMP JUMPDEST PUSH1 0x0 PUSH1 0x2 PUSH2 0x169C JUMP JUMPDEST PUSH2 0x169 PUSH1 0x20 MSTORE PUSH1 0x0 SWAP1 DUP2 MSTORE PUSH1 0x40 SWAP1 KECCAK256 DUP1 SLOAD DUP2 SWAP1 PUSH2 0x3434 SWAP1 PUSH2 0x5387 JUMP JUMPDEST DUP1 PUSH1 0x1F ADD PUSH1 0x20 DUP1 SWAP2 DIV MUL PUSH1 0x20 ADD PUSH1 0x40 MLOAD SWAP1 DUP2 ADD PUSH1 0x40 MSTORE DUP1 SWAP3 SWAP2 SWAP1 DUP2 DUP2 MSTORE PUSH1 0x20 ADD DUP3 DUP1 SLOAD PUSH2 0x3460 SWAP1 PUSH2 0x5387 JUMP JUMPDEST DUP1 ISZERO PUSH2 0x34AD JUMPI DUP1 PUSH1 0x1F LT PUSH2 0x3482 JUMPI PUSH2 0x100 DUP1 DUP4 SLOAD DIV MUL DUP4 MSTORE SWAP2 PUSH1 0x20 ADD SWAP2 PUSH2 0x34AD JUMP JUMPDEST DUP3 ADD SWAP2 SWAP1 PUSH1 0x0 MSTORE PUSH1 0x20 PUSH1 0x0 KECCAK256 SWAP1 JUMPDEST DUP2 SLOAD DUP2 MSTORE SWAP1 PUSH1 0x1 ADD SWAP1 PUSH1 0x20 ADD DUP1 DUP4 GT PUSH2 0x3490 JUMPI DUP3 SWAP1 SUB PUSH1 0x1F AND DUP3 ADD SWAP2 JUMPDEST POP POP POP PUSH1 0x1 DUP5 ADD SLOAD PUSH1 0x2 DUP6 ADD SLOAD PUSH1 0x3 DUP7 ADD SLOAD PUSH1 0x5 DUP8 ADD SLOAD PUSH1 0x6 SWAP1 SWAP8 ADD SLOAD SWAP6 SWAP7 SWAP3 SWAP6 SWAP2 SWAP5 POP PUSH1 0x1 PUSH1 0x1 PUSH1 0xA0 SHL SUB AND SWAP3 POP DUP7 JUMP JUMPDEST PUSH1 0x0 PUSH2 0x16C PUSH1 0x0 PUSH2 0x34EE PUSH2 0xDD7 JUMP JUMPDEST PUSH1 0x1 PUSH1 0x1 PUSH1 0xA0 SHL SUB SWAP1 DUP2 AND DUP3 MSTORE PUSH1 0x20 DUP1 DUP4 ADD SWAP4 SWAP1 SWAP4 MSTORE PUSH1 0x40 SWAP2 DUP3 ADD PUSH1 0x0 SWAP1 DUP2 KECCAK256 SWAP2 DUP7 AND DUP2 MSTORE PUSH1 0x3 SWAP1 SWAP2 ADD SWAP1 SWAP3 MSTORE SWAP1 KECCAK256 SSTORE PUSH2 0x3526 PUSH2 0xDD7 JUMP JUMPDEST PUSH1 0x1 PUSH1 0x1 PUSH1 0xA0 SHL SUB AND DUP2 PUSH1 0x1 PUSH1 0x1 PUSH1 0xA0 SHL SUB AND PUSH32 0xE5DCCCFE8E7890C6D4AA94D44C3B409FB6F023337F29C3308077C0C4068192C4 PUSH1 0x40 MLOAD PUSH1 0x40 MLOAD DUP1 SWAP2 SUB SWAP1 LOG3 POP JUMP JUMPDEST PUSH1 0x40 MLOAD PUSH4 0x74A5907 PUSH1 0xE0 SHL DUP2 MSTORE PUSH1 0x4 DUP2 ADD DUP4 SWAP1 MSTORE PUSH1 0x24 DUP2 ADD DUP3 SWAP1 MSTORE PUSH2 0x171 PUSH1 0x44 DUP3 ADD MSTORE PUSH1 0x60 SWAP1 PUSH1 0x0 SWAP1 PUSH20 0x0 SWAP1 PUSH4 0x74A5907 SWAP1 PUSH1 0x64 ADD PUSH2 0x1160 JUMP JUMPDEST PUSH1 0x33 SLOAD PUSH1 0xFF AND ISZERO PUSH2 0x35D8 JUMPI PUSH1 0x40 MLOAD PUSH3 0x461BCD PUSH1 0xE5 SHL DUP2 MSTORE PUSH1 0x4 ADD PUSH2 0xE62 SWAP1 PUSH2 0x51B3 JUMP JUMPDEST PUSH1 0x0 DUP2 DUP2 MSTORE PUSH2 0x16A PUSH1 0x20 SWAP1 DUP2 MSTORE PUSH1 0x40 SWAP2 DUP3 SWAP1 KECCAK256 SLOAD DUP3 MLOAD DUP1 DUP5 ADD SWAP1 SWAP4 MSTORE PUSH1 0x6 DUP4 MSTORE PUSH6 0x303033303033 PUSH1 0xD0 SHL SWAP2 DUP4 ADD SWAP2 SWAP1 SWAP2 MSTORE DUP3 SWAP2 SWAP1 PUSH1 0x1 PUSH1 0x1 PUSH1 0xA0 SHL SUB AND PUSH2 0x3632 JUMPI PUSH1 0x40 MLOAD PUSH3 0x461BCD PUSH1 0xE5 SHL DUP2 MSTORE PUSH1 0x4 ADD PUSH2 0xE62 SWAP2 SWAP1 PUSH2 0x506B JUMP JUMPDEST POP DUP2 PUSH2 0x363C PUSH2 0xDD7 JUMP JUMPDEST PUSH1 0x0 DUP3 DUP2 MSTORE PUSH2 0x16A PUSH1 0x20 SWAP1 DUP2 MSTORE PUSH1 0x40 SWAP2 DUP3 SWAP1 KECCAK256 SLOAD DUP3 MLOAD DUP1 DUP5 ADD SWAP1 SWAP4 MSTORE PUSH1 0x6 DUP4 MSTORE PUSH6 0x181819981819 PUSH1 0xD1 SHL SWAP2 DUP4 ADD SWAP2 SWAP1 SWAP2 MSTORE SWAP1 SWAP2 PUSH1 0x1 PUSH1 0x1 PUSH1 0xA0 SHL SUB SWAP2 DUP3 AND SWAP2 AND EQ PUSH2 0x369A JUMPI PUSH1 0x40 MLOAD PUSH3 0x461BCD PUSH1 0xE5 SHL DUP2 MSTORE PUSH1 0x4 ADD PUSH2 0xE62 SWAP2 SWAP1 PUSH2 0x506B JUMP JUMPDEST POP PUSH1 0x0 DUP4 DUP2 MSTORE PUSH2 0x16A PUSH1 0x20 SWAP1 DUP2 MSTORE PUSH1 0x40 DUP1 DUP4 KECCAK256 PUSH1 0x3 DUP2 ADD SLOAD DUP5 MSTORE PUSH2 0x168 SWAP1 SWAP3 MSTORE SWAP2 DUP3 SWAP1 KECCAK256 SWAP2 MLOAD PUSH4 0x18B5B067 PUSH1 0xE2 SHL DUP2 MSTORE PUSH1 0x4 DUP2 ADD DUP3 SWAP1 MSTORE PUSH1 0x24 DUP2 ADD DUP4 SWAP1 MSTORE SWAP1 SWAP2 SWAP1 PUSH20 0x0 SWAP1 PUSH4 0x62D6C19C SWAP1 PUSH1 0x44 ADD PUSH1 0x0 PUSH1 0x40 MLOAD DUP1 DUP4 SUB DUP2 DUP7 DUP1 EXTCODESIZE ISZERO DUP1 ISZERO PUSH2 0x3712 JUMPI PUSH1 0x0 DUP1 REVERT JUMPDEST POP GAS DELEGATECALL ISZERO DUP1 ISZERO PUSH2 0x3726 JUMPI RETURNDATASIZE PUSH1 0x0 DUP1 RETURNDATACOPY RETURNDATASIZE PUSH1 0x0 REVERT JUMPDEST POP POP POP POP DUP2 PUSH1 0x1 ADD SLOAD PUSH2 0x16D PUSH1 0x0 PUSH2 0x373C PUSH2 0xDD7 JUMP JUMPDEST PUSH1 0x1 PUSH1 0x1 PUSH1 0xA0 SHL SUB AND PUSH1 0x1 PUSH1 0x1 PUSH1 0xA0 SHL SUB AND DUP2 MSTORE PUSH1 0x20 ADD SWAP1 DUP2 MSTORE PUSH1 0x20 ADD PUSH1 0x0 KECCAK256 PUSH1 0x0 DUP3 DUP3 SLOAD PUSH2 0x376B SWAP2 SWAP1 PUSH2 0x52D0 JUMP JUMPDEST SWAP1 SWAP2 SSTORE POP PUSH2 0x3779 SWAP1 POP PUSH2 0xDD7 JUMP JUMPDEST PUSH1 0x1 PUSH1 0x1 PUSH1 0xA0 SHL SUB AND PUSH1 0x0 DUP1 MLOAD PUSH1 0x20 PUSH2 0x5503 DUP4 CODECOPY DUP2 MLOAD SWAP2 MSTORE DUP4 PUSH1 0x1 ADD SLOAD PUSH1 0x40 MLOAD PUSH2 0x37A5 SWAP2 DUP2 MSTORE PUSH1 0x20 ADD SWAP1 JUMP JUMPDEST PUSH1 0x40 MLOAD DUP1 SWAP2 SUB SWAP1 LOG2 PUSH2 0x37B5 PUSH2 0xDD7 JUMP JUMPDEST PUSH1 0x1 PUSH1 0x1 PUSH1 0xA0 SHL SUB AND DUP6 DUP4 PUSH1 0x3 ADD SLOAD PUSH32 0x8827140ED7E0AEE657F6D8AB3D65B02D30022ED333E284958313DB49217E7C3E DUP6 PUSH1 0x1 ADD SLOAD PUSH1 0x40 MLOAD PUSH2 0x2E89 SWAP2 DUP2 MSTORE PUSH1 0x20 ADD SWAP1 JUMP JUMPDEST PUSH1 0x0 PUSH1 0x1 DUP3 EQ ISZERO PUSH2 0x380D JUMPI POP POP PUSH2 0x161 SLOAD SWAP1 JUMP JUMPDEST POP POP PUSH2 0x160 SLOAD SWAP1 JUMP JUMPDEST PUSH1 0x65 SLOAD PUSH1 0x0 SWAP1 PUSH1 0x1 PUSH1 0x1 PUSH1 0xA0 SHL SUB AND CALLER EQ ISZERO PUSH2 0x3839 JUMPI POP PUSH1 0x13 NOT CALLDATASIZE ADD CALLDATALOAD PUSH1 0x60 SHR SWAP1 JUMP JUMPDEST POP CALLER SWAP1 JUMP JUMPDEST SWAP1 JUMP JUMPDEST PUSH1 0x0 PUSH1 0x1 PUSH1 0x1 PUSH1 0xE0 SHL SUB NOT DUP3 AND PUSH4 0x7965DB0B PUSH1 0xE0 SHL EQ DUP1 PUSH2 0xE0B JUMPI POP PUSH4 0x1FFC9A7 PUSH1 0xE0 SHL PUSH1 0x1 PUSH1 0x1 PUSH1 0xE0 SHL SUB NOT DUP4 AND EQ PUSH2 0xE0B JUMP JUMPDEST PUSH2 0x3880 DUP3 DUP3 PUSH2 0x220E JUMP JUMPDEST PUSH2 0x18F8 JUMPI PUSH2 0x3898 DUP2 PUSH1 0x1 PUSH1 0x1 PUSH1 0xA0 SHL SUB AND PUSH1 0x14 PUSH2 0x43C7 JUMP JUMPDEST PUSH2 0x38A3 DUP4 PUSH1 0x20 PUSH2 0x43C7 JUMP JUMPDEST PUSH1 0x40 MLOAD PUSH1 0x20 ADD PUSH2 0x38B4 SWAP3 SWAP2 SWAP1 PUSH2 0x4F8A JUMP JUMPDEST PUSH1 0x40 DUP1 MLOAD PUSH1 0x1F NOT DUP2 DUP5 SUB ADD DUP2 MSTORE SWAP1 DUP3 SWAP1 MSTORE PUSH3 0x461BCD PUSH1 0xE5 SHL DUP3 MSTORE PUSH2 0xE62 SWAP2 PUSH1 0x4 ADD PUSH2 0x506B JUMP JUMPDEST PUSH1 0x0 SLOAD PUSH2 0x100 SWAP1 DIV PUSH1 0xFF AND PUSH2 0x3901 JUMPI PUSH1 0x40 MLOAD PUSH3 0x461BCD PUSH1 0xE5 SHL DUP2 MSTORE PUSH1 0x4 ADD PUSH2 0xE62 SWAP1 PUSH2 0x51DD JUMP JUMPDEST PUSH2 0x3909 PUSH2 0x4563 JUMP JUMPDEST PUSH2 0x3911 PUSH2 0x4563 JUMP JUMPDEST PUSH2 0x3919 PUSH2 0x4563 JUMP JUMPDEST PUSH2 0x1BAC PUSH2 0x4563 JUMP JUMPDEST PUSH1 0x0 SLOAD PUSH2 0x100 SWAP1 DIV PUSH1 0xFF AND PUSH2 0x3948 JUMPI PUSH1 0x40 MLOAD PUSH3 0x461BCD PUSH1 0xE5 SHL DUP2 MSTORE PUSH1 0x4 ADD PUSH2 0xE62 SWAP1 PUSH2 0x51DD JUMP JUMPDEST PUSH2 0x1BAC PUSH2 0x458A JUMP JUMPDEST PUSH1 0x0 SLOAD PUSH2 0x100 SWAP1 DIV PUSH1 0xFF AND PUSH2 0x3977 JUMPI PUSH1 0x40 MLOAD PUSH3 0x461BCD PUSH1 0xE5 SHL DUP2 MSTORE PUSH1 0x4 ADD PUSH2 0xE62 SWAP1 PUSH2 0x51DD JUMP JUMPDEST PUSH2 0x397F PUSH2 0x4563 JUMP JUMPDEST PUSH2 0x1BAC PUSH2 0x45B9 JUMP JUMPDEST PUSH1 0x0 SLOAD PUSH2 0x100 SWAP1 DIV PUSH1 0xFF AND PUSH2 0x39AE JUMPI PUSH1 0x40 MLOAD PUSH3 0x461BCD PUSH1 0xE5 SHL DUP2 MSTORE PUSH1 0x4 ADD PUSH2 0xE62 SWAP1 PUSH2 0x51DD JUMP JUMPDEST PUSH2 0x39B6 PUSH2 0x4563 JUMP JUMPDEST PUSH2 0x39BF DUP2 PUSH2 0x437E JUMP JUMPDEST POP JUMP JUMPDEST PUSH2 0x18F8 DUP3 DUP3 PUSH2 0x3E78 JUMP JUMPDEST PUSH1 0x0 DUP3 DUP2 MSTORE PUSH1 0xC9 PUSH1 0x20 MSTORE PUSH1 0x40 DUP1 DUP3 KECCAK256 PUSH1 0x1 ADD DUP1 SLOAD SWAP1 DUP5 SWAP1 SSTORE SWAP1 MLOAD SWAP1 SWAP2 DUP4 SWAP2 DUP4 SWAP2 DUP7 SWAP2 PUSH32 0xBD79B86FFE0AB8E8776151514217CD7CACD52C909F66475C3AF44E129F0B00FF SWAP2 SWAP1 LOG4 POP POP POP JUMP JUMPDEST PUSH1 0x0 DUP1 PUSH20 0x0 PUSH4 0xB0B67FA8 DUP5 DUP11 PUSH1 0x40 MLOAD DUP4 PUSH4 0xFFFFFFFF AND PUSH1 0xE0 SHL DUP2 MSTORE PUSH1 0x4 ADD PUSH2 0x3A53 SWAP3 SWAP2 SWAP1 PUSH2 0x507E JUMP JUMPDEST PUSH1 0x20 PUSH1 0x40 MLOAD DUP1 DUP4 SUB DUP2 DUP7 DUP1 EXTCODESIZE ISZERO DUP1 ISZERO PUSH2 0x3A6B JUMPI PUSH1 0x0 DUP1 REVERT JUMPDEST POP GAS DELEGATECALL ISZERO DUP1 ISZERO PUSH2 0x3A7F JUMPI RETURNDATASIZE PUSH1 0x0 DUP1 RETURNDATACOPY RETURNDATASIZE PUSH1 0x0 REVERT JUMPDEST POP POP POP POP PUSH1 0x40 MLOAD RETURNDATASIZE PUSH1 0x1F NOT PUSH1 0x1F DUP3 ADD AND DUP3 ADD DUP1 PUSH1 0x40 MSTORE POP DUP2 ADD SWAP1 PUSH2 0x3AA3 SWAP2 SWAP1 PUSH2 0x4D4F JUMP JUMPDEST PUSH1 0x40 DUP1 MLOAD PUSH1 0x0 DUP1 DUP3 MSTORE PUSH1 0x20 DUP3 ADD SWAP1 SWAP3 MSTORE SWAP2 SWAP3 POP PUSH2 0x3AC0 DUP8 TIMESTAMP PUSH2 0x52D0 JUMP JUMPDEST SWAP1 POP PUSH1 0x40 MLOAD DUP1 PUSH2 0x1A0 ADD PUSH1 0x40 MSTORE DUP1 DUP7 DUP2 MSTORE PUSH1 0x20 ADD PUSH1 0x40 MLOAD DUP1 PUSH1 0x20 ADD PUSH1 0x40 MSTORE DUP1 PUSH1 0x0 DUP2 MSTORE POP DUP2 MSTORE PUSH1 0x20 ADD DUP10 DUP2 MSTORE PUSH1 0x20 ADD DUP10 DUP2 MSTORE PUSH1 0x20 ADD DUP12 PUSH1 0x1 PUSH1 0x1 PUSH1 0xA0 SHL SUB AND DUP2 MSTORE PUSH1 0x20 ADD DUP11 PUSH1 0x1 PUSH1 0x1 PUSH1 0xA0 SHL SUB AND DUP2 MSTORE PUSH1 0x20 ADD DUP4 DUP2 MSTORE PUSH1 0x20 ADD TIMESTAMP DUP2 MSTORE PUSH1 0x20 ADD DUP3 DUP2 MSTORE PUSH1 0x20 ADD PUSH1 0x0 PUSH1 0x3 DUP2 GT ISZERO PUSH2 0x3B38 JUMPI PUSH2 0x3B38 PUSH2 0x5405 JUMP JUMPDEST DUP2 MSTORE PUSH1 0x20 ADD PUSH1 0x0 DUP2 MSTORE PUSH1 0x20 ADD PUSH1 0x0 PUSH1 0x2 DUP2 GT ISZERO PUSH2 0x3B57 JUMPI PUSH2 0x3B57 PUSH2 0x5405 JUMP JUMPDEST DUP2 MSTORE PUSH1 0x20 SWAP1 DUP2 ADD DUP9 SWAP1 MSTORE PUSH1 0x0 DUP6 DUP2 MSTORE PUSH2 0x168 DUP3 MSTORE PUSH1 0x40 SWAP1 KECCAK256 DUP3 MLOAD DUP1 MLOAD SWAP2 SWAP3 PUSH2 0x3B84 SWAP3 DUP5 SWAP3 SWAP1 SWAP2 ADD SWAP1 PUSH2 0x4A36 JUMP JUMPDEST POP PUSH1 0x20 DUP3 DUP2 ADD MLOAD DUP1 MLOAD PUSH2 0x3B9D SWAP3 PUSH1 0x1 DUP6 ADD SWAP3 ADD SWAP1 PUSH2 0x4A36 JUMP JUMPDEST POP PUSH1 0x40 DUP3 ADD MLOAD PUSH1 0x2 DUP3 ADD SSTORE PUSH1 0x60 DUP3 ADD MLOAD PUSH1 0x3 DUP3 ADD SSTORE PUSH1 0x80 DUP3 ADD MLOAD PUSH1 0x4 DUP3 ADD DUP1 SLOAD PUSH1 0x1 PUSH1 0x1 PUSH1 0xA0 SHL SUB SWAP3 DUP4 AND PUSH1 0x1 PUSH1 0x1 PUSH1 0xA0 SHL SUB NOT SWAP2 DUP3 AND OR SWAP1 SWAP2 SSTORE PUSH1 0xA0 DUP5 ADD MLOAD PUSH1 0x5 DUP5 ADD DUP1 SLOAD SWAP2 SWAP1 SWAP4 AND SWAP2 AND OR SWAP1 SSTORE PUSH1 0xC0 DUP3 ADD MLOAD DUP1 MLOAD PUSH2 0x3C07 SWAP2 PUSH1 0x6 DUP5 ADD SWAP2 PUSH1 0x20 SWAP1 SWAP2 ADD SWAP1 PUSH2 0x4AB6 JUMP JUMPDEST POP PUSH1 0xE0 DUP3 ADD MLOAD PUSH1 0x7 DUP3 ADD SSTORE PUSH2 0x100 DUP3 ADD MLOAD PUSH1 0x8 DUP3 ADD SSTORE PUSH2 0x120 DUP3 ADD MLOAD PUSH1 0x9 DUP3 ADD DUP1 SLOAD PUSH1 0xFF NOT AND PUSH1 0x1 DUP4 PUSH1 0x3 DUP2 GT ISZERO PUSH2 0x3C41 JUMPI PUSH2 0x3C41 PUSH2 0x5405 JUMP JUMPDEST MUL OR SWAP1 SSTORE POP PUSH2 0x140 DUP3 ADD MLOAD PUSH1 0xA DUP3 ADD SSTORE PUSH2 0x160 DUP3 ADD MLOAD PUSH1 0xB DUP3 ADD DUP1 SLOAD PUSH1 0xFF NOT AND PUSH1 0x1 DUP4 PUSH1 0x2 DUP2 GT ISZERO PUSH2 0x3C75 JUMPI PUSH2 0x3C75 PUSH2 0x5405 JUMP JUMPDEST MUL OR SWAP1 SSTORE POP PUSH2 0x180 SWAP2 SWAP1 SWAP2 ADD MLOAD PUSH1 0xC SWAP1 SWAP2 ADD SSTORE DUP6 PUSH2 0x3CC8 JUMPI PUSH2 0x16E DUP1 SLOAD PUSH1 0x1 DUP2 ADD DUP3 SSTORE PUSH1 0x0 SWAP2 SWAP1 SWAP2 MSTORE PUSH32 0xF82FBBF6ECBA5C6BCA8FFDB165C351CA78F1011F756F9B1202212482FD7D8313 ADD DUP4 SWAP1 SSTORE PUSH2 0x3CFF JUMP JUMPDEST PUSH2 0x16F DUP1 SLOAD PUSH1 0x1 DUP2 ADD DUP3 SSTORE PUSH1 0x0 SWAP2 SWAP1 SWAP2 MSTORE PUSH32 0x47D2F800C57DE5C44DFF408E225B320F1EA140CA87907F0726FD6049EE5595D7 ADD DUP4 SWAP1 SSTORE JUMPDEST DUP10 PUSH1 0x1 PUSH1 0x1 PUSH1 0xA0 SHL SUB AND DUP4 DUP11 PUSH1 0x1 PUSH1 0x1 PUSH1 0xA0 SHL SUB AND PUSH32 0xDDA647D1E751B8DF0A785CD75E0C734774777FF91018AA17AA79BF515F851155 DUP12 DUP6 DUP11 DUP13 PUSH1 0x40 MLOAD PUSH2 0x3D49 SWAP5 SWAP4 SWAP3 SWAP2 SWAP1 PUSH2 0x52A0 JUMP JUMPDEST PUSH1 0x40 MLOAD DUP1 SWAP2 SUB SWAP1 LOG4 POP SWAP1 SWAP9 SWAP8 POP POP POP POP POP POP POP POP JUMP JUMPDEST DUP1 SELFBALANCE LT ISZERO PUSH2 0x3DAF JUMPI PUSH1 0x40 MLOAD PUSH3 0x461BCD PUSH1 0xE5 SHL DUP2 MSTORE PUSH1 0x20 PUSH1 0x4 DUP3 ADD MSTORE PUSH1 0x1D PUSH1 0x24 DUP3 ADD MSTORE PUSH32 0x416464726573733A20696E73756666696369656E742062616C616E6365000000 PUSH1 0x44 DUP3 ADD MSTORE PUSH1 0x64 ADD PUSH2 0xE62 JUMP JUMPDEST PUSH1 0x0 DUP3 PUSH1 0x1 PUSH1 0x1 PUSH1 0xA0 SHL SUB AND DUP3 PUSH1 0x40 MLOAD PUSH1 0x0 PUSH1 0x40 MLOAD DUP1 DUP4 SUB DUP2 DUP6 DUP8 GAS CALL SWAP3 POP POP POP RETURNDATASIZE DUP1 PUSH1 0x0 DUP2 EQ PUSH2 0x3DFC JUMPI PUSH1 0x40 MLOAD SWAP2 POP PUSH1 0x1F NOT PUSH1 0x3F RETURNDATASIZE ADD AND DUP3 ADD PUSH1 0x40 MSTORE RETURNDATASIZE DUP3 MSTORE RETURNDATASIZE PUSH1 0x0 PUSH1 0x20 DUP5 ADD RETURNDATACOPY PUSH2 0x3E01 JUMP JUMPDEST PUSH1 0x60 SWAP2 POP JUMPDEST POP POP SWAP1 POP DUP1 PUSH2 0xF01 JUMPI PUSH1 0x40 MLOAD PUSH3 0x461BCD PUSH1 0xE5 SHL DUP2 MSTORE PUSH1 0x20 PUSH1 0x4 DUP3 ADD MSTORE PUSH1 0x3A PUSH1 0x24 DUP3 ADD MSTORE PUSH32 0x416464726573733A20756E61626C6520746F2073656E642076616C75652C2072 PUSH1 0x44 DUP3 ADD MSTORE PUSH32 0x6563697069656E74206D61792068617665207265766572746564000000000000 PUSH1 0x64 DUP3 ADD MSTORE PUSH1 0x84 ADD PUSH2 0xE62 JUMP JUMPDEST PUSH2 0x3E82 DUP3 DUP3 PUSH2 0x45EC JUMP JUMPDEST PUSH1 0x0 DUP3 DUP2 MSTORE PUSH1 0xFB PUSH1 0x20 MSTORE PUSH1 0x40 SWAP1 KECCAK256 PUSH2 0xF01 SWAP1 DUP3 PUSH2 0x4673 JUMP JUMPDEST PUSH2 0x3EA4 DUP3 DUP3 PUSH2 0x4688 JUMP JUMPDEST PUSH1 0x0 DUP3 DUP2 MSTORE PUSH1 0xFB PUSH1 0x20 MSTORE PUSH1 0x40 SWAP1 KECCAK256 PUSH2 0xF01 SWAP1 DUP3 PUSH2 0x470D JUMP JUMPDEST PUSH1 0x33 SLOAD PUSH1 0xFF AND PUSH2 0x3F05 JUMPI PUSH1 0x40 MLOAD PUSH3 0x461BCD PUSH1 0xE5 SHL DUP2 MSTORE PUSH1 0x20 PUSH1 0x4 DUP3 ADD MSTORE PUSH1 0x14 PUSH1 0x24 DUP3 ADD MSTORE PUSH20 0x14185D5CD8589B194E881B9BDD081C185D5CD959 PUSH1 0x62 SHL PUSH1 0x44 DUP3 ADD MSTORE PUSH1 0x64 ADD PUSH2 0xE62 JUMP JUMPDEST PUSH1 0x33 DUP1 SLOAD PUSH1 0xFF NOT AND SWAP1 SSTORE PUSH32 0x5DB9EE0A495BF2E6FF9C91A7834C1BA4FDD244A5E8AA4E537BD38AEAE4B073AA PUSH2 0x3F38 PUSH2 0xDD7 JUMP JUMPDEST PUSH1 0x40 MLOAD PUSH1 0x1 PUSH1 0x1 PUSH1 0xA0 SHL SUB SWAP1 SWAP2 AND DUP2 MSTORE PUSH1 0x20 ADD PUSH1 0x40 MLOAD DUP1 SWAP2 SUB SWAP1 LOG1 JUMP JUMPDEST PUSH1 0x33 SLOAD PUSH1 0xFF AND ISZERO PUSH2 0x3F78 JUMPI PUSH1 0x40 MLOAD PUSH3 0x461BCD PUSH1 0xE5 SHL DUP2 MSTORE PUSH1 0x4 ADD PUSH2 0xE62 SWAP1 PUSH2 0x51B3 JUMP JUMPDEST PUSH1 0x33 DUP1 SLOAD PUSH1 0xFF NOT AND PUSH1 0x1 OR SWAP1 SSTORE PUSH32 0x62E78CEA01BEE320CD4E420270B5EA74000D11B0C9F74754EBDBFC544B05A258 PUSH2 0x3F38 PUSH2 0xDD7 JUMP JUMPDEST PUSH1 0x0 PUSH2 0x2207 DUP4 DUP4 PUSH2 0x4722 JUMP JUMPDEST PUSH1 0x0 DUP4 DUP2 MSTORE PUSH2 0x168 PUSH1 0x20 MSTORE PUSH1 0x40 DUP1 DUP3 KECCAK256 SWAP1 MLOAD PUSH4 0xE7F8899D PUSH1 0xE0 SHL DUP2 MSTORE PUSH1 0x4 DUP2 ADD DUP3 SWAP1 MSTORE DUP3 SWAP2 SWAP1 PUSH20 0x0 SWAP1 PUSH4 0xE7F8899D SWAP1 PUSH1 0x24 ADD PUSH1 0x0 PUSH1 0x40 MLOAD DUP1 DUP4 SUB DUP2 DUP7 DUP1 EXTCODESIZE ISZERO DUP1 ISZERO PUSH2 0x4017 JUMPI PUSH1 0x0 DUP1 REVERT JUMPDEST POP GAS DELEGATECALL ISZERO DUP1 ISZERO PUSH2 0x402B JUMPI RETURNDATASIZE PUSH1 0x0 DUP1 RETURNDATACOPY RETURNDATASIZE PUSH1 0x0 REVERT JUMPDEST POP POP PUSH2 0x164 SLOAD PUSH1 0x0 SWAP3 POP PUSH1 0x1 PUSH1 0xA0 SHL SWAP1 DIV PUSH1 0xFF AND ISZERO SWAP1 POP PUSH2 0x4061 JUMPI PUSH1 0x4 DUP3 ADD SLOAD PUSH2 0x405E SWAP1 PUSH1 0x1 PUSH1 0x1 PUSH1 0xA0 SHL SUB AND DUP7 PUSH2 0x474C JUMP JUMPDEST SWAP1 POP JUMPDEST PUSH1 0x40 MLOAD PUSH4 0x3F46F90D PUSH1 0xE2 SHL DUP2 MSTORE PUSH20 0x0 SWAP1 PUSH4 0xFD1BE434 SWAP1 PUSH2 0x409C SWAP1 DUP6 SWAP1 DUP6 SWAP1 DUP12 SWAP1 PUSH1 0x4 ADD PUSH2 0x525F JUMP JUMPDEST PUSH1 0x0 PUSH1 0x40 MLOAD DUP1 DUP4 SUB DUP2 DUP7 DUP1 EXTCODESIZE ISZERO DUP1 ISZERO PUSH2 0x40B4 JUMPI PUSH1 0x0 DUP1 REVERT JUMPDEST POP GAS DELEGATECALL ISZERO DUP1 ISZERO PUSH2 0x40C8 JUMPI RETURNDATASIZE PUSH1 0x0 DUP1 RETURNDATACOPY RETURNDATASIZE PUSH1 0x0 REVERT JUMPDEST POP POP POP POP PUSH1 0x0 DUP1 PUSH2 0x40E1 DUP5 PUSH1 0x2 ADD SLOAD DUP6 PUSH1 0x3 ADD SLOAD PUSH2 0x4823 JUMP JUMPDEST SWAP2 POP SWAP2 POP DUP4 PUSH1 0x2 ADD SLOAD PUSH1 0x0 EQ ISZERO DUP1 ISZERO PUSH2 0x413E JUMPI POP PUSH1 0x4 DUP5 ADD SLOAD PUSH2 0x4119 SWAP1 PUSH1 0x1 PUSH1 0x1 PUSH1 0xA0 SHL SUB AND PUSH2 0x410F PUSH2 0xDD7 JUMP JUMPDEST DUP7 PUSH1 0xC ADD SLOAD PUSH2 0x33B5 JUMP JUMPDEST PUSH2 0x167 SLOAD PUSH2 0x4127 SWAP2 SWAP1 PUSH2 0x530A JUMP JUMPDEST DUP5 PUSH1 0x2 ADD SLOAD DUP6 PUSH1 0x3 ADD SLOAD PUSH2 0x413B SWAP2 SWAP1 PUSH2 0x5329 JUMP JUMPDEST LT ISZERO JUMPDEST ISZERO PUSH2 0x4243 JUMPI PUSH1 0x0 PUSH2 0x4150 PUSH1 0x2 DUP5 PUSH2 0x52E8 JUMP JUMPDEST SWAP1 POP PUSH2 0x415C DUP3 DUP3 PUSH2 0x52D0 JUMP JUMPDEST PUSH2 0x16D PUSH1 0x0 PUSH2 0x4169 PUSH2 0xDD7 JUMP JUMPDEST PUSH1 0x1 PUSH1 0x1 PUSH1 0xA0 SHL SUB AND PUSH1 0x1 PUSH1 0x1 PUSH1 0xA0 SHL SUB AND DUP2 MSTORE PUSH1 0x20 ADD SWAP1 DUP2 MSTORE PUSH1 0x20 ADD PUSH1 0x0 KECCAK256 PUSH1 0x0 DUP3 DUP3 SLOAD PUSH2 0x4198 SWAP2 SWAP1 PUSH2 0x52D0 JUMP JUMPDEST SWAP1 SWAP2 SSTORE POP POP PUSH1 0x4 DUP6 ADD SLOAD PUSH1 0x1 PUSH1 0x1 PUSH1 0xA0 SHL SUB AND PUSH1 0x0 SWAP1 DUP2 MSTORE PUSH2 0x16D PUSH1 0x20 MSTORE PUSH1 0x40 DUP2 KECCAK256 DUP1 SLOAD DUP4 SWAP3 SWAP1 PUSH2 0x41CA SWAP1 DUP5 SWAP1 PUSH2 0x52D0 JUMP JUMPDEST SWAP1 SWAP2 SSTORE POP PUSH2 0x41D8 SWAP1 POP PUSH2 0xDD7 JUMP JUMPDEST PUSH1 0x1 PUSH1 0x1 PUSH1 0xA0 SHL SUB AND PUSH1 0x0 DUP1 MLOAD PUSH1 0x20 PUSH2 0x5503 DUP4 CODECOPY DUP2 MLOAD SWAP2 MSTORE PUSH2 0x41FA DUP5 DUP5 PUSH2 0x52D0 JUMP JUMPDEST PUSH1 0x40 MLOAD SWAP1 DUP2 MSTORE PUSH1 0x20 ADD PUSH1 0x40 MLOAD DUP1 SWAP2 SUB SWAP1 LOG2 PUSH1 0x4 DUP6 ADD SLOAD PUSH1 0x40 MLOAD DUP3 DUP2 MSTORE PUSH1 0x1 PUSH1 0x1 PUSH1 0xA0 SHL SUB SWAP1 SWAP2 AND SWAP1 PUSH1 0x0 DUP1 MLOAD PUSH1 0x20 PUSH2 0x5503 DUP4 CODECOPY DUP2 MLOAD SWAP2 MSTORE SWAP1 PUSH1 0x20 ADD PUSH1 0x40 MLOAD DUP1 SWAP2 SUB SWAP1 LOG2 POP PUSH2 0x42CB JUMP JUMPDEST PUSH2 0x424D DUP2 DUP4 PUSH2 0x52D0 JUMP JUMPDEST PUSH2 0x16D PUSH1 0x0 PUSH2 0x425A PUSH2 0xDD7 JUMP JUMPDEST PUSH1 0x1 PUSH1 0x1 PUSH1 0xA0 SHL SUB AND PUSH1 0x1 PUSH1 0x1 PUSH1 0xA0 SHL SUB AND DUP2 MSTORE PUSH1 0x20 ADD SWAP1 DUP2 MSTORE PUSH1 0x20 ADD PUSH1 0x0 KECCAK256 PUSH1 0x0 DUP3 DUP3 SLOAD PUSH2 0x4289 SWAP2 SWAP1 PUSH2 0x52D0 JUMP JUMPDEST SWAP1 SWAP2 SSTORE POP PUSH2 0x4297 SWAP1 POP PUSH2 0xDD7 JUMP JUMPDEST PUSH1 0x1 PUSH1 0x1 PUSH1 0xA0 SHL SUB AND PUSH1 0x0 DUP1 MLOAD PUSH1 0x20 PUSH2 0x5503 DUP4 CODECOPY DUP2 MLOAD SWAP2 MSTORE PUSH2 0x42B9 DUP4 DUP6 PUSH2 0x52D0 JUMP JUMPDEST PUSH1 0x40 MLOAD SWAP1 DUP2 MSTORE PUSH1 0x20 ADD PUSH1 0x40 MLOAD DUP1 SWAP2 SUB SWAP1 LOG2 JUMPDEST DUP3 PUSH2 0x42D6 DUP3 DUP5 PUSH2 0x52D0 JUMP JUMPDEST SWAP6 POP SWAP6 POP POP POP POP POP SWAP4 POP SWAP4 SWAP2 POP POP JUMP JUMPDEST PUSH1 0x0 PUSH2 0xE0B DUP3 SLOAD SWAP1 JUMP JUMPDEST PUSH1 0x1 PUSH1 0x1 PUSH1 0xA0 SHL SUB DUP2 AND PUSH1 0x0 SWAP1 DUP2 MSTORE PUSH2 0x16C PUSH1 0x20 MSTORE PUSH1 0x40 DUP2 KECCAK256 PUSH1 0x1 ADD SLOAD PUSH2 0x431A JUMPI POP POP PUSH2 0x161 SLOAD SWAP1 JUMP JUMPDEST POP PUSH1 0x1 PUSH1 0x1 PUSH1 0xA0 SHL SUB AND PUSH1 0x0 SWAP1 DUP2 MSTORE PUSH2 0x16C PUSH1 0x20 MSTORE PUSH1 0x40 SWAP1 KECCAK256 PUSH1 0x1 ADD SLOAD SWAP1 JUMP JUMPDEST PUSH1 0x1 PUSH1 0x1 PUSH1 0xA0 SHL SUB DUP2 AND PUSH1 0x0 SWAP1 DUP2 MSTORE PUSH2 0x16C PUSH1 0x20 MSTORE PUSH1 0x40 DUP2 KECCAK256 SLOAD PUSH2 0x4361 JUMPI POP POP PUSH2 0x160 SLOAD SWAP1 JUMP JUMPDEST POP PUSH1 0x1 PUSH1 0x1 PUSH1 0xA0 SHL SUB AND PUSH1 0x0 SWAP1 DUP2 MSTORE PUSH2 0x16C PUSH1 0x20 MSTORE PUSH1 0x40 SWAP1 KECCAK256 SLOAD SWAP1 JUMP JUMPDEST PUSH1 0x0 SLOAD PUSH2 0x100 SWAP1 DIV PUSH1 0xFF AND PUSH2 0x43A5 JUMPI PUSH1 0x40 MLOAD PUSH3 0x461BCD PUSH1 0xE5 SHL DUP2 MSTORE PUSH1 0x4 ADD PUSH2 0xE62 SWAP1 PUSH2 0x51DD JUMP JUMPDEST PUSH1 0x65 DUP1 SLOAD PUSH1 0x1 PUSH1 0x1 PUSH1 0xA0 SHL SUB NOT AND PUSH1 0x1 PUSH1 0x1 PUSH1 0xA0 SHL SUB SWAP3 SWAP1 SWAP3 AND SWAP2 SWAP1 SWAP2 OR SWAP1 SSTORE JUMP JUMPDEST PUSH1 0x60 PUSH1 0x0 PUSH2 0x43D6 DUP4 PUSH1 0x2 PUSH2 0x530A JUMP JUMPDEST PUSH2 0x43E1 SWAP1 PUSH1 0x2 PUSH2 0x52D0 JUMP JUMPDEST PUSH8 0xFFFFFFFFFFFFFFFF DUP2 GT ISZERO PUSH2 0x43F9 JUMPI PUSH2 0x43F9 PUSH2 0x5447 JUMP JUMPDEST PUSH1 0x40 MLOAD SWAP1 DUP1 DUP3 MSTORE DUP1 PUSH1 0x1F ADD PUSH1 0x1F NOT AND PUSH1 0x20 ADD DUP3 ADD PUSH1 0x40 MSTORE DUP1 ISZERO PUSH2 0x4423 JUMPI PUSH1 0x20 DUP3 ADD DUP2 DUP1 CALLDATASIZE DUP4 CALLDATACOPY ADD SWAP1 POP JUMPDEST POP SWAP1 POP PUSH1 0x3 PUSH1 0xFC SHL DUP2 PUSH1 0x0 DUP2 MLOAD DUP2 LT PUSH2 0x443E JUMPI PUSH2 0x443E PUSH2 0x5431 JUMP JUMPDEST PUSH1 0x20 ADD ADD SWAP1 PUSH1 0x1 PUSH1 0x1 PUSH1 0xF8 SHL SUB NOT AND SWAP1 DUP2 PUSH1 0x0 BYTE SWAP1 MSTORE8 POP PUSH1 0xF PUSH1 0xFB SHL DUP2 PUSH1 0x1 DUP2 MLOAD DUP2 LT PUSH2 0x446D JUMPI PUSH2 0x446D PUSH2 0x5431 JUMP JUMPDEST PUSH1 0x20 ADD ADD SWAP1 PUSH1 0x1 PUSH1 0x1 PUSH1 0xF8 SHL SUB NOT AND SWAP1 DUP2 PUSH1 0x0 BYTE SWAP1 MSTORE8 POP PUSH1 0x0 PUSH2 0x4491 DUP5 PUSH1 0x2 PUSH2 0x530A JUMP JUMPDEST PUSH2 0x449C SWAP1 PUSH1 0x1 PUSH2 0x52D0 JUMP JUMPDEST SWAP1 POP JUMPDEST PUSH1 0x1 DUP2 GT ISZERO PUSH2 0x4514 JUMPI PUSH16 0x181899199A1A9B1B9C1CB0B131B232B3 PUSH1 0x81 SHL DUP6 PUSH1 0xF AND PUSH1 0x10 DUP2 LT PUSH2 0x44D0 JUMPI PUSH2 0x44D0 PUSH2 0x5431 JUMP JUMPDEST BYTE PUSH1 0xF8 SHL DUP3 DUP3 DUP2 MLOAD DUP2 LT PUSH2 0x44E6 JUMPI PUSH2 0x44E6 PUSH2 0x5431 JUMP JUMPDEST PUSH1 0x20 ADD ADD SWAP1 PUSH1 0x1 PUSH1 0x1 PUSH1 0xF8 SHL SUB NOT AND SWAP1 DUP2 PUSH1 0x0 BYTE SWAP1 MSTORE8 POP PUSH1 0x4 SWAP5 SWAP1 SWAP5 SHR SWAP4 PUSH2 0x450D DUP2 PUSH2 0x5370 JUMP JUMPDEST SWAP1 POP PUSH2 0x449F JUMP JUMPDEST POP DUP4 ISZERO PUSH2 0x2207 JUMPI PUSH1 0x40 MLOAD PUSH3 0x461BCD PUSH1 0xE5 SHL DUP2 MSTORE PUSH1 0x20 PUSH1 0x4 DUP3 ADD DUP2 SWAP1 MSTORE PUSH1 0x24 DUP3 ADD MSTORE PUSH32 0x537472696E67733A20686578206C656E67746820696E73756666696369656E74 PUSH1 0x44 DUP3 ADD MSTORE PUSH1 0x64 ADD PUSH2 0xE62 JUMP JUMPDEST PUSH1 0x0 SLOAD PUSH2 0x100 SWAP1 DIV PUSH1 0xFF AND PUSH2 0x1BAC JUMPI PUSH1 0x40 MLOAD PUSH3 0x461BCD PUSH1 0xE5 SHL DUP2 MSTORE PUSH1 0x4 ADD PUSH2 0xE62 SWAP1 PUSH2 0x51DD JUMP JUMPDEST PUSH1 0x0 SLOAD PUSH2 0x100 SWAP1 DIV PUSH1 0xFF AND PUSH2 0x45B1 JUMPI PUSH1 0x40 MLOAD PUSH3 0x461BCD PUSH1 0xE5 SHL DUP2 MSTORE PUSH1 0x4 ADD PUSH2 0xE62 SWAP1 PUSH2 0x51DD JUMP JUMPDEST PUSH1 0x1 PUSH2 0x12D SSTORE JUMP JUMPDEST PUSH1 0x0 SLOAD PUSH2 0x100 SWAP1 DIV PUSH1 0xFF AND PUSH2 0x45E0 JUMPI PUSH1 0x40 MLOAD PUSH3 0x461BCD PUSH1 0xE5 SHL DUP2 MSTORE PUSH1 0x4 ADD PUSH2 0xE62 SWAP1 PUSH2 0x51DD JUMP JUMPDEST PUSH1 0x33 DUP1 SLOAD PUSH1 0xFF NOT AND SWAP1 SSTORE JUMP JUMPDEST PUSH2 0x45F6 DUP3 DUP3 PUSH2 0x220E JUMP JUMPDEST PUSH2 0x18F8 JUMPI PUSH1 0x0 DUP3 DUP2 MSTORE PUSH1 0xC9 PUSH1 0x20 SWAP1 DUP2 MSTORE PUSH1 0x40 DUP1 DUP4 KECCAK256 PUSH1 0x1 PUSH1 0x1 PUSH1 0xA0 SHL SUB DUP6 AND DUP5 MSTORE SWAP1 SWAP2 MSTORE SWAP1 KECCAK256 DUP1 SLOAD PUSH1 0xFF NOT AND PUSH1 0x1 OR SWAP1 SSTORE PUSH2 0x462F PUSH2 0xDD7 JUMP JUMPDEST PUSH1 0x1 PUSH1 0x1 PUSH1 0xA0 SHL SUB AND DUP2 PUSH1 0x1 PUSH1 0x1 PUSH1 0xA0 SHL SUB AND DUP4 PUSH32 0x2F8788117E7EFF1D82E926EC794901D17C78024A50270940304540A733656F0D PUSH1 0x40 MLOAD PUSH1 0x40 MLOAD DUP1 SWAP2 SUB SWAP1 LOG4 POP POP JUMP JUMPDEST PUSH1 0x0 PUSH2 0x2207 DUP4 PUSH1 0x1 PUSH1 0x1 PUSH1 0xA0 SHL SUB DUP5 AND PUSH2 0x48F4 JUMP JUMPDEST PUSH2 0x4692 DUP3 DUP3 PUSH2 0x220E JUMP JUMPDEST ISZERO PUSH2 0x18F8 JUMPI PUSH1 0x0 DUP3 DUP2 MSTORE PUSH1 0xC9 PUSH1 0x20 SWAP1 DUP2 MSTORE PUSH1 0x40 DUP1 DUP4 KECCAK256 PUSH1 0x1 PUSH1 0x1 PUSH1 0xA0 SHL SUB DUP6 AND DUP5 MSTORE SWAP1 SWAP2 MSTORE SWAP1 KECCAK256 DUP1 SLOAD PUSH1 0xFF NOT AND SWAP1 SSTORE PUSH2 0x46C9 PUSH2 0xDD7 JUMP JUMPDEST PUSH1 0x1 PUSH1 0x1 PUSH1 0xA0 SHL SUB AND DUP2 PUSH1 0x1 PUSH1 0x1 PUSH1 0xA0 SHL SUB AND DUP4 PUSH32 0xF6391F5C32D9C69D2A47EA670B442974B53935D1EDC7FD64EB21E047A839171B PUSH1 0x40 MLOAD PUSH1 0x40 MLOAD DUP1 SWAP2 SUB SWAP1 LOG4 POP POP JUMP JUMPDEST PUSH1 0x0 PUSH2 0x2207 DUP4 PUSH1 0x1 PUSH1 0x1 PUSH1 0xA0 SHL SUB DUP5 AND PUSH2 0x4943 JUMP JUMPDEST PUSH1 0x0 DUP3 PUSH1 0x0 ADD DUP3 DUP2 SLOAD DUP2 LT PUSH2 0x4739 JUMPI PUSH2 0x4739 PUSH2 0x5431 JUMP JUMPDEST SWAP1 PUSH1 0x0 MSTORE PUSH1 0x20 PUSH1 0x0 KECCAK256 ADD SLOAD SWAP1 POP SWAP3 SWAP2 POP POP JUMP JUMPDEST PUSH2 0x164 SLOAD PUSH1 0x40 MLOAD PUSH4 0xD0DEF521 PUSH1 0xE0 SHL DUP2 MSTORE PUSH1 0x0 SWAP2 PUSH1 0x1 PUSH1 0x1 PUSH1 0xA0 SHL SUB AND SWAP1 PUSH4 0xD0DEF521 SWAP1 PUSH2 0x4780 SWAP1 DUP7 SWAP1 DUP7 SWAP1 PUSH1 0x4 ADD PUSH2 0x4FFF JUMP JUMPDEST PUSH1 0x20 PUSH1 0x40 MLOAD DUP1 DUP4 SUB DUP2 PUSH1 0x0 DUP8 DUP1 EXTCODESIZE ISZERO DUP1 ISZERO PUSH2 0x479A JUMPI PUSH1 0x0 DUP1 REVERT JUMPDEST POP GAS CALL SWAP3 POP POP POP DUP1 ISZERO PUSH2 0x47CA JUMPI POP PUSH1 0x40 DUP1 MLOAD PUSH1 0x1F RETURNDATASIZE SWAP1 DUP2 ADD PUSH1 0x1F NOT AND DUP3 ADD SWAP1 SWAP3 MSTORE PUSH2 0x47C7 SWAP2 DUP2 ADD SWAP1 PUSH2 0x4D4F JUMP JUMPDEST PUSH1 0x1 JUMPDEST PUSH2 0x481C JUMPI PUSH2 0x47D6 PUSH2 0x545D JUMP JUMPDEST DUP1 PUSH4 0x8C379A0 EQ ISZERO PUSH2 0x4810 JUMPI POP PUSH2 0x47EB PUSH2 0x5478 JUMP JUMPDEST DUP1 PUSH2 0x47F6 JUMPI POP PUSH2 0x4812 JUMP JUMPDEST DUP1 PUSH1 0x40 MLOAD PUSH3 0x461BCD PUSH1 0xE5 SHL DUP2 MSTORE PUSH1 0x4 ADD PUSH2 0xE62 SWAP2 SWAP1 PUSH2 0x506B JUMP JUMPDEST POP JUMPDEST RETURNDATASIZE PUSH1 0x0 DUP1 RETURNDATACOPY RETURNDATASIZE PUSH1 0x0 REVERT JUMPDEST SWAP1 POP PUSH2 0xE0B JUMP JUMPDEST PUSH1 0x0 DUP1 DUP1 PUSH2 0x2710 PUSH12 0xFFFFFFFFFFFFFFFFFFFFFFFF AND PUSH2 0x163 SLOAD DUP7 DUP7 PUSH2 0x4848 SWAP2 SWAP1 PUSH2 0x5329 JUMP JUMPDEST PUSH2 0x4852 SWAP2 SWAP1 PUSH2 0x530A JUMP JUMPDEST PUSH2 0x485C SWAP2 SWAP1 PUSH2 0x52E8 JUMP JUMPDEST SWAP1 POP PUSH1 0x0 PUSH2 0x2710 PUSH12 0xFFFFFFFFFFFFFFFFFFFFFFFF AND PUSH2 0x163 SLOAD DUP8 PUSH2 0x4880 SWAP2 SWAP1 PUSH2 0x530A JUMP JUMPDEST PUSH2 0x488A SWAP2 SWAP1 PUSH2 0x52E8 JUMP JUMPDEST SWAP1 POP PUSH2 0x4896 DUP2 DUP4 PUSH2 0x52D0 JUMP JUMPDEST PUSH2 0x15F SLOAD PUSH1 0x1 PUSH1 0x1 PUSH1 0xA0 SHL SUB AND PUSH1 0x0 SWAP1 DUP2 MSTORE PUSH2 0x16D PUSH1 0x20 MSTORE PUSH1 0x40 DUP2 KECCAK256 DUP1 SLOAD SWAP1 SWAP2 SWAP1 PUSH2 0x48C2 SWAP1 DUP5 SWAP1 PUSH2 0x52D0 JUMP JUMPDEST SWAP1 SWAP2 SSTORE POP DUP3 SWAP1 POP PUSH2 0x48D3 DUP8 DUP8 PUSH2 0x5329 JUMP JUMPDEST PUSH2 0x48DD SWAP2 SWAP1 PUSH2 0x5329 JUMP JUMPDEST PUSH2 0x48E7 DUP3 DUP9 PUSH2 0x5329 JUMP JUMPDEST SWAP4 POP SWAP4 POP POP POP SWAP3 POP SWAP3 SWAP1 POP JUMP JUMPDEST PUSH1 0x0 DUP2 DUP2 MSTORE PUSH1 0x1 DUP4 ADD PUSH1 0x20 MSTORE PUSH1 0x40 DUP2 KECCAK256 SLOAD PUSH2 0x493B JUMPI POP DUP2 SLOAD PUSH1 0x1 DUP2 DUP2 ADD DUP5 SSTORE PUSH1 0x0 DUP5 DUP2 MSTORE PUSH1 0x20 DUP1 DUP3 KECCAK256 SWAP1 SWAP4 ADD DUP5 SWAP1 SSTORE DUP5 SLOAD DUP5 DUP3 MSTORE DUP3 DUP7 ADD SWAP1 SWAP4 MSTORE PUSH1 0x40 SWAP1 KECCAK256 SWAP2 SWAP1 SWAP2 SSTORE PUSH2 0xE0B JUMP JUMPDEST POP PUSH1 0x0 PUSH2 0xE0B JUMP JUMPDEST PUSH1 0x0 DUP2 DUP2 MSTORE PUSH1 0x1 DUP4 ADD PUSH1 0x20 MSTORE PUSH1 0x40 DUP2 KECCAK256 SLOAD DUP1 ISZERO PUSH2 0x4A2C JUMPI PUSH1 0x0 PUSH2 0x4967 PUSH1 0x1 DUP4 PUSH2 0x5329 JUMP JUMPDEST DUP6 SLOAD SWAP1 SWAP2 POP PUSH1 0x0 SWAP1 PUSH2 0x497B SWAP1 PUSH1 0x1 SWAP1 PUSH2 0x5329 JUMP JUMPDEST SWAP1 POP DUP2 DUP2 EQ PUSH2 0x49E0 JUMPI PUSH1 0x0 DUP7 PUSH1 0x0 ADD DUP3 DUP2 SLOAD DUP2 LT PUSH2 0x499B JUMPI PUSH2 0x499B PUSH2 0x5431 JUMP JUMPDEST SWAP1 PUSH1 0x0 MSTORE PUSH1 0x20 PUSH1 0x0 KECCAK256 ADD SLOAD SWAP1 POP DUP1 DUP8 PUSH1 0x0 ADD DUP5 DUP2 SLOAD DUP2 LT PUSH2 0x49BE JUMPI PUSH2 0x49BE PUSH2 0x5431 JUMP JUMPDEST PUSH1 0x0 SWAP2 DUP3 MSTORE PUSH1 0x20 DUP1 DUP4 KECCAK256 SWAP1 SWAP2 ADD SWAP3 SWAP1 SWAP3 SSTORE SWAP2 DUP3 MSTORE PUSH1 0x1 DUP9 ADD SWAP1 MSTORE PUSH1 0x40 SWAP1 KECCAK256 DUP4 SWAP1 SSTORE JUMPDEST DUP6 SLOAD DUP7 SWAP1 DUP1 PUSH2 0x49F1 JUMPI PUSH2 0x49F1 PUSH2 0x541B JUMP JUMPDEST PUSH1 0x1 SWAP1 SUB DUP2 DUP2 SWAP1 PUSH1 0x0 MSTORE PUSH1 0x20 PUSH1 0x0 KECCAK256 ADD PUSH1 0x0 SWAP1 SSTORE SWAP1 SSTORE DUP6 PUSH1 0x1 ADD PUSH1 0x0 DUP7 DUP2 MSTORE PUSH1 0x20 ADD SWAP1 DUP2 MSTORE PUSH1 0x20 ADD PUSH1 0x0 KECCAK256 PUSH1 0x0 SWAP1 SSTORE PUSH1 0x1 SWAP4 POP POP POP POP PUSH2 0xE0B JUMP JUMPDEST PUSH1 0x0 SWAP2 POP POP PUSH2 0xE0B JUMP JUMPDEST DUP3 DUP1 SLOAD PUSH2 0x4A42 SWAP1 PUSH2 0x5387 JUMP JUMPDEST SWAP1 PUSH1 0x0 MSTORE PUSH1 0x20 PUSH1 0x0 KECCAK256 SWAP1 PUSH1 0x1F ADD PUSH1 0x20 SWAP1 DIV DUP2 ADD SWAP3 DUP3 PUSH2 0x4A64 JUMPI PUSH1 0x0 DUP6 SSTORE PUSH2 0x4AAA JUMP JUMPDEST DUP3 PUSH1 0x1F LT PUSH2 0x4A7D JUMPI DUP1 MLOAD PUSH1 0xFF NOT AND DUP4 DUP1 ADD OR DUP6 SSTORE PUSH2 0x4AAA JUMP JUMPDEST DUP3 DUP1 ADD PUSH1 0x1 ADD DUP6 SSTORE DUP3 ISZERO PUSH2 0x4AAA JUMPI SWAP2 DUP3 ADD JUMPDEST DUP3 DUP2 GT ISZERO PUSH2 0x4AAA JUMPI DUP3 MLOAD DUP3 SSTORE SWAP2 PUSH1 0x20 ADD SWAP2 SWAP1 PUSH1 0x1 ADD SWAP1 PUSH2 0x4A8F JUMP JUMPDEST POP PUSH2 0x2EAB SWAP3 SWAP2 POP PUSH2 0x4AF0 JUMP JUMPDEST DUP3 DUP1 SLOAD DUP3 DUP3 SSTORE SWAP1 PUSH1 0x0 MSTORE PUSH1 0x20 PUSH1 0x0 KECCAK256 SWAP1 DUP2 ADD SWAP3 DUP3 ISZERO PUSH2 0x4AAA JUMPI SWAP2 PUSH1 0x20 MUL DUP3 ADD DUP3 DUP2 GT ISZERO PUSH2 0x4AAA JUMPI DUP3 MLOAD DUP3 SSTORE SWAP2 PUSH1 0x20 ADD SWAP2 SWAP1 PUSH1 0x1 ADD SWAP1 PUSH2 0x4A8F JUMP JUMPDEST JUMPDEST DUP1 DUP3 GT ISZERO PUSH2 0x2EAB JUMPI PUSH1 0x0 DUP2 SSTORE PUSH1 0x1 ADD PUSH2 0x4AF1 JUMP JUMPDEST DUP1 CALLDATALOAD PUSH1 0x1 PUSH1 0x1 PUSH1 0xA0 SHL SUB DUP2 AND DUP2 EQ PUSH2 0x4B1C JUMPI PUSH1 0x0 DUP1 REVERT JUMPDEST SWAP2 SWAP1 POP JUMP JUMPDEST PUSH1 0x0 DUP3 PUSH1 0x1F DUP4 ADD SLT PUSH2 0x4B32 JUMPI PUSH1 0x0 DUP1 REVERT JUMPDEST DUP2 CALLDATALOAD PUSH8 0xFFFFFFFFFFFFFFFF DUP2 GT ISZERO PUSH2 0x4B4C JUMPI PUSH2 0x4B4C PUSH2 0x5447 JUMP JUMPDEST PUSH1 0x40 MLOAD PUSH2 0x4B63 PUSH1 0x1F DUP4 ADD PUSH1 0x1F NOT AND PUSH1 0x20 ADD DUP3 PUSH2 0x53C2 JUMP JUMPDEST DUP2 DUP2 MSTORE DUP5 PUSH1 0x20 DUP4 DUP7 ADD ADD GT ISZERO PUSH2 0x4B78 JUMPI PUSH1 0x0 DUP1 REVERT JUMPDEST DUP2 PUSH1 0x20 DUP6 ADD PUSH1 0x20 DUP4 ADD CALLDATACOPY PUSH1 0x0 SWAP2 DUP2 ADD PUSH1 0x20 ADD SWAP2 SWAP1 SWAP2 MSTORE SWAP4 SWAP3 POP POP POP JUMP JUMPDEST PUSH1 0x0 PUSH1 0x20 DUP3 DUP5 SUB SLT ISZERO PUSH2 0x4BA7 JUMPI PUSH1 0x0 DUP1 REVERT JUMPDEST PUSH2 0x2207 DUP3 PUSH2 0x4B05 JUMP JUMPDEST PUSH1 0x0 DUP1 PUSH1 0x40 DUP4 DUP6 SUB SLT ISZERO PUSH2 0x4BC3 JUMPI PUSH1 0x0 DUP1 REVERT JUMPDEST PUSH2 0x4BCC DUP4 PUSH2 0x4B05 JUMP JUMPDEST SWAP2 POP PUSH2 0x4BDA PUSH1 0x20 DUP5 ADD PUSH2 0x4B05 JUMP JUMPDEST SWAP1 POP SWAP3 POP SWAP3 SWAP1 POP JUMP JUMPDEST PUSH1 0x0 DUP1 PUSH1 0x0 PUSH1 0x60 DUP5 DUP7 SUB SLT ISZERO PUSH2 0x4BF8 JUMPI PUSH1 0x0 DUP1 REVERT JUMPDEST PUSH2 0x4C01 DUP5 PUSH2 0x4B05 JUMP JUMPDEST SWAP3 POP PUSH2 0x4C0F PUSH1 0x20 DUP6 ADD PUSH2 0x4B05 JUMP JUMPDEST SWAP2 POP PUSH1 0x40 DUP5 ADD CALLDATALOAD SWAP1 POP SWAP3 POP SWAP3 POP SWAP3 JUMP JUMPDEST PUSH1 0x0 DUP1 PUSH1 0x0 DUP1 PUSH1 0x80 DUP6 DUP8 SUB SLT ISZERO PUSH2 0x4C35 JUMPI PUSH1 0x0 DUP1 REVERT JUMPDEST PUSH2 0x4C3E DUP6 PUSH2 0x4B05 JUMP JUMPDEST SWAP4 POP PUSH1 0x20 DUP6 ADD CALLDATALOAD SWAP3 POP PUSH1 0x40 DUP6 ADD CALLDATALOAD SWAP2 POP PUSH1 0x60 DUP6 ADD CALLDATALOAD PUSH8 0xFFFFFFFFFFFFFFFF DUP2 GT ISZERO PUSH2 0x4C68 JUMPI PUSH1 0x0 DUP1 REVERT JUMPDEST PUSH2 0x4C74 DUP8 DUP3 DUP9 ADD PUSH2 0x4B21 JUMP JUMPDEST SWAP2 POP POP SWAP3 SWAP6 SWAP2 SWAP5 POP SWAP3 POP JUMP JUMPDEST PUSH1 0x0 DUP1 PUSH1 0x40 DUP4 DUP6 SUB SLT ISZERO PUSH2 0x4C93 JUMPI PUSH1 0x0 DUP1 REVERT JUMPDEST DUP3 MLOAD PUSH8 0xFFFFFFFFFFFFFFFF DUP1 DUP3 GT ISZERO PUSH2 0x4CAB JUMPI PUSH1 0x0 DUP1 REVERT JUMPDEST DUP2 DUP6 ADD SWAP2 POP DUP6 PUSH1 0x1F DUP4 ADD SLT PUSH2 0x4CBF JUMPI PUSH1 0x0 DUP1 REVERT JUMPDEST DUP2 MLOAD PUSH1 0x20 DUP3 DUP3 GT ISZERO PUSH2 0x4CD3 JUMPI PUSH2 0x4CD3 PUSH2 0x5447 JUMP JUMPDEST DUP2 PUSH1 0x5 SHL SWAP3 POP PUSH1 0x40 MLOAD PUSH2 0x4CE8 DUP3 DUP6 ADD DUP3 PUSH2 0x53C2 JUMP JUMPDEST DUP3 DUP2 MSTORE DUP2 DUP2 ADD DUP6 DUP4 ADD DUP6 DUP8 ADD DUP5 ADD DUP12 LT ISZERO PUSH2 0x4D02 JUMPI PUSH1 0x0 DUP1 REVERT JUMPDEST PUSH1 0x0 SWAP7 POP JUMPDEST DUP5 DUP8 LT ISZERO PUSH2 0x4D25 JUMPI DUP1 MLOAD DUP3 MSTORE PUSH1 0x1 SWAP7 SWAP1 SWAP7 ADD SWAP6 SWAP1 DUP4 ADD SWAP1 DUP4 ADD PUSH2 0x4D07 JUMP JUMPDEST POP POP SWAP7 ADD MLOAD SWAP6 SWAP8 SWAP6 SWAP7 POP POP POP POP POP POP JUMP JUMPDEST PUSH1 0x0 PUSH1 0x20 DUP3 DUP5 SUB SLT ISZERO PUSH2 0x4D48 JUMPI PUSH1 0x0 DUP1 REVERT JUMPDEST POP CALLDATALOAD SWAP2 SWAP1 POP JUMP JUMPDEST PUSH1 0x0 PUSH1 0x20 DUP3 DUP5 SUB SLT ISZERO PUSH2 0x4D61 JUMPI PUSH1 0x0 DUP1 REVERT JUMPDEST POP MLOAD SWAP2 SWAP1 POP JUMP JUMPDEST PUSH1 0x0 DUP1 PUSH1 0x40 DUP4 DUP6 SUB SLT ISZERO PUSH2 0x4D7B JUMPI PUSH1 0x0 DUP1 REVERT JUMPDEST DUP3 CALLDATALOAD SWAP2 POP PUSH2 0x4BDA PUSH1 0x20 DUP5 ADD PUSH2 0x4B05 JUMP JUMPDEST PUSH1 0x0 DUP1 PUSH1 0x0 PUSH1 0x60 DUP5 DUP7 SUB SLT ISZERO PUSH2 0x4DA0 JUMPI PUSH1 0x0 DUP1 REVERT JUMPDEST DUP4 CALLDATALOAD SWAP3 POP PUSH1 0x20 DUP5 ADD CALLDATALOAD PUSH8 0xFFFFFFFFFFFFFFFF DUP1 DUP3 GT ISZERO PUSH2 0x4DBF JUMPI PUSH1 0x0 DUP1 REVERT JUMPDEST PUSH2 0x4DCB DUP8 DUP4 DUP9 ADD PUSH2 0x4B21 JUMP JUMPDEST SWAP4 POP PUSH1 0x40 DUP7 ADD CALLDATALOAD SWAP2 POP DUP1 DUP3 GT ISZERO PUSH2 0x4DE1 JUMPI PUSH1 0x0 DUP1 REVERT JUMPDEST POP PUSH2 0x4DEE DUP7 DUP3 DUP8 ADD PUSH2 0x4B21 JUMP JUMPDEST SWAP2 POP POP SWAP3 POP SWAP3 POP SWAP3 JUMP JUMPDEST PUSH1 0x0 DUP1 PUSH1 0x40 DUP4 DUP6 SUB SLT ISZERO PUSH2 0x4E0B JUMPI PUSH1 0x0 DUP1 REVERT JUMPDEST POP POP DUP1 CALLDATALOAD SWAP3 PUSH1 0x20 SWAP1 SWAP2 ADD CALLDATALOAD SWAP2 POP JUMP JUMPDEST PUSH1 0x0 DUP1 PUSH1 0x0 PUSH1 0x60 DUP5 DUP7 SUB SLT ISZERO PUSH2 0x4E2F JUMPI PUSH1 0x0 DUP1 REVERT JUMPDEST POP POP DUP2 CALLDATALOAD SWAP4 PUSH1 0x20 DUP4 ADD CALLDATALOAD SWAP4 POP PUSH1 0x40 SWAP1 SWAP3 ADD CALLDATALOAD SWAP2 SWAP1 POP JUMP JUMPDEST PUSH1 0x0 PUSH1 0x20 DUP3 DUP5 SUB SLT ISZERO PUSH2 0x4E58 JUMPI PUSH1 0x0 DUP1 REVERT JUMPDEST DUP2 CALLDATALOAD PUSH1 0x1 PUSH1 0x1 PUSH1 0xE0 SHL SUB NOT DUP2 AND DUP2 EQ PUSH2 0x2207 JUMPI PUSH1 0x0 DUP1 REVERT JUMPDEST PUSH1 0x0 PUSH1 0x20 DUP3 DUP5 SUB SLT ISZERO PUSH2 0x4E82 JUMPI PUSH1 0x0 DUP1 REVERT JUMPDEST DUP2 CALLDATALOAD PUSH8 0xFFFFFFFFFFFFFFFF DUP2 GT ISZERO PUSH2 0x4E99 JUMPI PUSH1 0x0 DUP1 REVERT JUMPDEST PUSH2 0x33F0 DUP5 DUP3 DUP6 ADD PUSH2 0x4B21 JUMP JUMPDEST PUSH1 0x0 DUP1 PUSH1 0x40 DUP4 DUP6 SUB SLT ISZERO PUSH2 0x4EB8 JUMPI PUSH1 0x0 DUP1 REVERT JUMPDEST DUP3 CALLDATALOAD SWAP2 POP PUSH1 0x20 DUP4 ADD CALLDATALOAD PUSH1 0x2 DUP2 LT PUSH2 0x4ECE JUMPI PUSH1 0x0 DUP1 REVERT JUMPDEST DUP1 SWAP2 POP POP SWAP3 POP SWAP3 SWAP1 POP JUMP JUMPDEST PUSH1 0x0 DUP1 PUSH1 0x0 DUP1 PUSH1 0x0 DUP1 PUSH1 0x0 PUSH1 0xE0 DUP9 DUP11 SUB SLT ISZERO PUSH2 0x4EF4 JUMPI PUSH1 0x0 DUP1 REVERT JUMPDEST DUP8 CALLDATALOAD SWAP7 POP PUSH1 0x20 DUP9 ADD CALLDATALOAD SWAP6 POP PUSH1 0x40 DUP9 ADD CALLDATALOAD SWAP5 POP PUSH2 0x4F12 PUSH1 0x60 DUP10 ADD PUSH2 0x4B05 JUMP JUMPDEST SWAP4 POP PUSH2 0x4F20 PUSH1 0x80 DUP10 ADD PUSH2 0x4B05 JUMP JUMPDEST SWAP3 POP PUSH2 0x4F2E PUSH1 0xA0 DUP10 ADD PUSH2 0x4B05 JUMP JUMPDEST SWAP2 POP PUSH2 0x4F3C PUSH1 0xC0 DUP10 ADD PUSH2 0x4B05 JUMP JUMPDEST SWAP1 POP SWAP3 SWAP6 SWAP9 SWAP2 SWAP5 SWAP8 POP SWAP3 SWAP6 POP JUMP JUMPDEST PUSH1 0x0 DUP2 MLOAD DUP1 DUP5 MSTORE PUSH2 0x4F62 DUP2 PUSH1 0x20 DUP7 ADD PUSH1 0x20 DUP7 ADD PUSH2 0x5340 JUMP JUMPDEST PUSH1 0x1F ADD PUSH1 0x1F NOT AND SWAP3 SWAP1 SWAP3 ADD PUSH1 0x20 ADD SWAP3 SWAP2 POP POP JUMP JUMPDEST PUSH1 0x3 DUP2 LT PUSH2 0x4F86 JUMPI PUSH2 0x4F86 PUSH2 0x5405 JUMP JUMPDEST SWAP1 MSTORE JUMP JUMPDEST PUSH32 0x416363657373436F6E74726F6C3A206163636F756E7420000000000000000000 DUP2 MSTORE PUSH1 0x0 DUP4 MLOAD PUSH2 0x4FC2 DUP2 PUSH1 0x17 DUP6 ADD PUSH1 0x20 DUP9 ADD PUSH2 0x5340 JUMP JUMPDEST PUSH17 0x1034B99036B4B9B9B4B733903937B6329 PUSH1 0x7D SHL PUSH1 0x17 SWAP2 DUP5 ADD SWAP2 DUP3 ADD MSTORE DUP4 MLOAD PUSH2 0x4FF3 DUP2 PUSH1 0x28 DUP5 ADD PUSH1 0x20 DUP9 ADD PUSH2 0x5340 JUMP JUMPDEST ADD PUSH1 0x28 ADD SWAP5 SWAP4 POP POP POP POP JUMP JUMPDEST PUSH1 0x1 PUSH1 0x1 PUSH1 0xA0 SHL SUB DUP4 AND DUP2 MSTORE PUSH1 0x40 PUSH1 0x20 DUP3 ADD DUP2 SWAP1 MSTORE PUSH1 0x0 SWAP1 PUSH2 0x33F0 SWAP1 DUP4 ADD DUP5 PUSH2 0x4F4A JUMP JUMPDEST PUSH1 0x40 DUP1 DUP3 MSTORE DUP4 MLOAD SWAP1 DUP3 ADD DUP2 SWAP1 MSTORE PUSH1 0x0 SWAP1 PUSH1 0x20 SWAP1 PUSH1 0x60 DUP5 ADD SWAP1 DUP3 DUP8 ADD DUP5 JUMPDEST DUP3 DUP2 LT ISZERO PUSH2 0x505C JUMPI DUP2 MLOAD DUP5 MSTORE SWAP3 DUP5 ADD SWAP3 SWAP1 DUP5 ADD SWAP1 PUSH1 0x1 ADD PUSH2 0x5040 JUMP JUMPDEST POP POP POP SWAP3 ADD SWAP3 SWAP1 SWAP3 MSTORE SWAP3 SWAP2 POP POP JUMP JUMPDEST PUSH1 0x20 DUP2 MSTORE PUSH1 0x0 PUSH2 0x2207 PUSH1 0x20 DUP4 ADD DUP5 PUSH2 0x4F4A JUMP JUMPDEST PUSH1 0x40 DUP2 MSTORE PUSH1 0x0 PUSH2 0x5091 PUSH1 0x40 DUP4 ADD DUP6 PUSH2 0x4F4A JUMP JUMPDEST SWAP1 POP PUSH1 0x1 DUP1 PUSH1 0xA0 SHL SUB DUP4 AND PUSH1 0x20 DUP4 ADD MSTORE SWAP4 SWAP3 POP POP POP JUMP JUMPDEST PUSH2 0x180 DUP2 MSTORE PUSH1 0x0 PUSH2 0x50BD PUSH2 0x180 DUP4 ADD DUP16 PUSH2 0x4F4A JUMP JUMPDEST DUP3 DUP2 SUB PUSH1 0x20 DUP5 ADD MSTORE PUSH2 0x50CF DUP2 DUP16 PUSH2 0x4F4A JUMP JUMPDEST PUSH1 0x40 DUP5 ADD DUP15 SWAP1 MSTORE PUSH1 0x60 DUP5 ADD DUP14 SWAP1 MSTORE PUSH1 0x1 PUSH1 0x1 PUSH1 0xA0 SHL SUB DUP13 DUP2 AND PUSH1 0x80 DUP7 ADD MSTORE DUP12 AND PUSH1 0xA0 DUP6 ADD MSTORE PUSH1 0xC0 DUP5 ADD DUP11 SWAP1 MSTORE PUSH1 0xE0 DUP5 ADD DUP10 SWAP1 MSTORE SWAP2 POP POP PUSH1 0x4 DUP7 LT PUSH2 0x5115 JUMPI PUSH2 0x5115 PUSH2 0x5405 JUMP JUMPDEST DUP6 PUSH2 0x100 DUP4 ADD MSTORE DUP5 PUSH2 0x120 DUP4 ADD MSTORE PUSH2 0x5131 PUSH2 0x140 DUP4 ADD DUP6 PUSH2 0x4F76 JUMP JUMPDEST DUP3 PUSH2 0x160 DUP4 ADD MSTORE SWAP14 SWAP13 POP POP POP POP POP POP POP POP POP POP POP POP POP JUMP JUMPDEST PUSH1 0x60 DUP2 MSTORE PUSH1 0x0 PUSH2 0x515C PUSH1 0x60 DUP4 ADD DUP7 PUSH2 0x4F4A JUMP JUMPDEST PUSH1 0x20 DUP4 ADD SWAP5 SWAP1 SWAP5 MSTORE POP PUSH1 0x40 ADD MSTORE SWAP2 SWAP1 POP JUMP JUMPDEST PUSH1 0xC0 DUP2 MSTORE PUSH1 0x0 PUSH2 0x5181 PUSH1 0xC0 DUP4 ADD DUP10 PUSH2 0x4F4A JUMP JUMPDEST PUSH1 0x20 DUP4 ADD SWAP8 SWAP1 SWAP8 MSTORE POP PUSH1 0x40 DUP2 ADD SWAP5 SWAP1 SWAP5 MSTORE PUSH1 0x1 PUSH1 0x1 PUSH1 0xA0 SHL SUB SWAP3 SWAP1 SWAP3 AND PUSH1 0x60 DUP5 ADD MSTORE PUSH1 0x80 DUP4 ADD MSTORE PUSH1 0xA0 SWAP1 SWAP2 ADD MSTORE SWAP2 SWAP1 POP JUMP JUMPDEST PUSH1 0x20 DUP1 DUP3 MSTORE PUSH1 0x10 SWAP1 DUP3 ADD MSTORE PUSH16 0x14185D5CD8589B194E881C185D5CD959 PUSH1 0x82 SHL PUSH1 0x40 DUP3 ADD MSTORE PUSH1 0x60 ADD SWAP1 JUMP JUMPDEST PUSH1 0x20 DUP1 DUP3 MSTORE PUSH1 0x2B SWAP1 DUP3 ADD MSTORE PUSH32 0x496E697469616C697A61626C653A20636F6E7472616374206973206E6F742069 PUSH1 0x40 DUP3 ADD MSTORE PUSH11 0x6E697469616C697A696E67 PUSH1 0xA8 SHL PUSH1 0x60 DUP3 ADD MSTORE PUSH1 0x80 ADD SWAP1 JUMP JUMPDEST PUSH1 0x20 DUP1 DUP3 MSTORE PUSH1 0x1F SWAP1 DUP3 ADD MSTORE PUSH32 0x5265656E7472616E637947756172643A207265656E7472616E742063616C6C00 PUSH1 0x40 DUP3 ADD MSTORE PUSH1 0x60 ADD SWAP1 JUMP JUMPDEST DUP4 DUP2 MSTORE DUP3 PUSH1 0x20 DUP3 ADD MSTORE PUSH1 0x60 PUSH1 0x40 DUP3 ADD MSTORE PUSH1 0x0 PUSH2 0x527E PUSH1 0x60 DUP4 ADD DUP5 PUSH2 0x4F4A JUMP JUMPDEST SWAP6 SWAP5 POP POP POP POP POP JUMP JUMPDEST DUP3 DUP2 MSTORE PUSH1 0x40 PUSH1 0x20 DUP3 ADD MSTORE PUSH1 0x0 PUSH2 0x33F0 PUSH1 0x40 DUP4 ADD DUP5 PUSH2 0x4F4A JUMP JUMPDEST DUP5 DUP2 MSTORE DUP4 PUSH1 0x20 DUP3 ADD MSTORE PUSH1 0x80 PUSH1 0x40 DUP3 ADD MSTORE PUSH1 0x0 PUSH2 0x52BF PUSH1 0x80 DUP4 ADD DUP6 PUSH2 0x4F4A JUMP JUMPDEST SWAP1 POP DUP3 PUSH1 0x60 DUP4 ADD MSTORE SWAP6 SWAP5 POP POP POP POP POP JUMP JUMPDEST PUSH1 0x0 DUP3 NOT DUP3 GT ISZERO PUSH2 0x52E3 JUMPI PUSH2 0x52E3 PUSH2 0x53EF JUMP JUMPDEST POP ADD SWAP1 JUMP JUMPDEST PUSH1 0x0 DUP3 PUSH2 0x5305 JUMPI PUSH4 0x4E487B71 PUSH1 0xE0 SHL PUSH1 0x0 MSTORE PUSH1 0x12 PUSH1 0x4 MSTORE PUSH1 0x24 PUSH1 0x0 REVERT JUMPDEST POP DIV SWAP1 JUMP JUMPDEST PUSH1 0x0 DUP2 PUSH1 0x0 NOT DIV DUP4 GT DUP3 ISZERO ISZERO AND ISZERO PUSH2 0x5324 JUMPI PUSH2 0x5324 PUSH2 0x53EF JUMP JUMPDEST POP MUL SWAP1 JUMP JUMPDEST PUSH1 0x0 DUP3 DUP3 LT ISZERO PUSH2 0x533B JUMPI PUSH2 0x533B PUSH2 0x53EF JUMP JUMPDEST POP SUB SWAP1 JUMP JUMPDEST PUSH1 0x0 JUMPDEST DUP4 DUP2 LT ISZERO PUSH2 0x535B JUMPI DUP2 DUP2 ADD MLOAD DUP4 DUP3 ADD MSTORE PUSH1 0x20 ADD PUSH2 0x5343 JUMP JUMPDEST DUP4 DUP2 GT ISZERO PUSH2 0x536A JUMPI PUSH1 0x0 DUP5 DUP5 ADD MSTORE JUMPDEST POP POP POP POP JUMP JUMPDEST PUSH1 0x0 DUP2 PUSH2 0x537F JUMPI PUSH2 0x537F PUSH2 0x53EF JUMP JUMPDEST POP PUSH1 0x0 NOT ADD SWAP1 JUMP JUMPDEST PUSH1 0x1 DUP2 DUP2 SHR SWAP1 DUP3 AND DUP1 PUSH2 0x539B JUMPI PUSH1 0x7F DUP3 AND SWAP2 POP JUMPDEST PUSH1 0x20 DUP3 LT DUP2 EQ ISZERO PUSH2 0x53BC JUMPI PUSH4 0x4E487B71 PUSH1 0xE0 SHL PUSH1 0x0 MSTORE PUSH1 0x22 PUSH1 0x4 MSTORE PUSH1 0x24 PUSH1 0x0 REVERT JUMPDEST POP SWAP2 SWAP1 POP JUMP JUMPDEST PUSH1 0x1F DUP3 ADD PUSH1 0x1F NOT AND DUP2 ADD PUSH8 0xFFFFFFFFFFFFFFFF DUP2 GT DUP3 DUP3 LT OR ISZERO PUSH2 0x53E8 JUMPI PUSH2 0x53E8 PUSH2 0x5447 JUMP JUMPDEST PUSH1 0x40 MSTORE POP POP JUMP JUMPDEST PUSH4 0x4E487B71 PUSH1 0xE0 SHL PUSH1 0x0 MSTORE PUSH1 0x11 PUSH1 0x4 MSTORE PUSH1 0x24 PUSH1 0x0 REVERT JUMPDEST PUSH4 0x4E487B71 PUSH1 0xE0 SHL PUSH1 0x0 MSTORE PUSH1 0x21 PUSH1 0x4 MSTORE PUSH1 0x24 PUSH1 0x0 REVERT JUMPDEST PUSH4 0x4E487B71 PUSH1 0xE0 SHL PUSH1 0x0 MSTORE PUSH1 0x31 PUSH1 0x4 MSTORE PUSH1 0x24 PUSH1 0x0 REVERT JUMPDEST PUSH4 0x4E487B71 PUSH1 0xE0 SHL PUSH1 0x0 MSTORE PUSH1 0x32 PUSH1 0x4 MSTORE PUSH1 0x24 PUSH1 0x0 REVERT JUMPDEST PUSH4 0x4E487B71 PUSH1 0xE0 SHL PUSH1 0x0 MSTORE PUSH1 0x41 PUSH1 0x4 MSTORE PUSH1 0x24 PUSH1 0x0 REVERT JUMPDEST PUSH1 0x0 PUSH1 0x3 RETURNDATASIZE GT ISZERO PUSH2 0x383E JUMPI PUSH1 0x4 PUSH1 0x0 DUP1 RETURNDATACOPY POP PUSH1 0x0 MLOAD PUSH1 0xE0 SHR SWAP1 JUMP JUMPDEST PUSH1 0x0 PUSH1 0x44 RETURNDATASIZE LT ISZERO PUSH2 0x5486 JUMPI SWAP1 JUMP JUMPDEST PUSH1 0x40 MLOAD PUSH1 0x3 NOT RETURNDATASIZE DUP2 ADD PUSH1 0x4 DUP4 RETURNDATACOPY DUP2 MLOAD RETURNDATASIZE PUSH8 0xFFFFFFFFFFFFFFFF DUP2 PUSH1 0x24 DUP5 ADD GT DUP2 DUP5 GT OR ISZERO PUSH2 0x54B6 JUMPI POP POP POP POP POP SWAP1 JUMP JUMPDEST DUP3 DUP6 ADD SWAP2 POP DUP2 MLOAD DUP2 DUP2 GT ISZERO PUSH2 0x54CE JUMPI POP POP POP POP POP POP SWAP1 JUMP JUMPDEST DUP5 RETURNDATASIZE DUP8 ADD ADD PUSH1 0x20 DUP3 DUP6 ADD ADD GT ISZERO PUSH2 0x54E8 JUMPI POP POP POP POP POP POP SWAP1 JUMP JUMPDEST PUSH2 0x54F7 PUSH1 0x20 DUP3 DUP7 ADD ADD DUP8 PUSH2 0x53C2 JUMP JUMPDEST POP SWAP1 SWAP6 SWAP5 POP POP POP POP POP JUMP INVALID STOP CALLDATASIZE PUSH3 0x4AFD4A 0xC1 0x4E 0x2E 0xBE SWAP12 PUSH9 0xA6EC0C6E4F6BF5BDE2 SWAP10 SWAP11 PUSH2 0xE1FE 0xC0 DUP6 0xCA DUP7 PUSH10 0x7DA26469706673582212 KECCAK256 0x1F LOG1 0xE4 SWAP7 0xE7 0xC9 0xA5 PUSH3 0x9CC4B5 0xC3 0xE2 0x2D SHR PUSH16 0xA2D4A01A3C47625372B98557EBFED267 PUSH5 0x736F6C6343 STOP ADDMOD SMOD STOP CALLER "
		},
		"gasEstimates": {
			"creation": {
				"codeDepositCost": "4369600",
				"executionCost": "5060",
				"totalCost": "4374660"
			},
			"external": {
				"DEFAULT_ADMIN_ROLE()": "263",
				"GOVERNANCE_ROLE()": "327",
				"balance()": "infinite",
				"blockUser(address)": "infinite",
				"checkBlocked(address,address)": "infinite",
				"checkWhitelist(address,address)": "infinite",
				"claimBackMessageValue(bytes32)": "infinite",
				"claimBackTipValue(bytes32)": "infinite",
				"createMessage(address,uint256,uint256,string)": "infinite",
				"createPost(string)": "infinite",
				"createPostTip(bytes32)": "infinite",
				"createResponse(bytes32,string,string)": "infinite",
				"createTip(bytes32)": "infinite",
				"feeCollector()": "2405",
				"feeNumerator()": "2428",
				"followUser(address)": "infinite",
				"gePublicMessageIds(uint256,uint256)": "infinite",
				"getPostIds(uint256,uint256)": "infinite",
				"getPostTipIds(uint256,uint256)": "infinite",
				"getPrivateMessageIds(uint256,uint256)": "infinite",
				"getRoleAdmin(bytes32)": "2513",
				"getRoleMember(bytes32,uint256)": "infinite",
				"getRoleMemberCount(bytes32)": "infinite",
				"getTipIds(uint256,uint256)": "infinite",
				"getTipIdsOfMessage(bytes32,uint256,uint256)": "infinite",
				"getTipIdsOfPost(bytes32,uint256,uint256)": "infinite",
				"grantRole(bytes32,address)": "infinite",
				"hasRole(bytes32,address)": "2809",
				"initialize(uint256,uint256,uint256,address,address,address,address)": "infinite",
				"isTrustedForwarder(address)": "2637",
				"markReponse(bytes32,uint256)": "infinite",
				"messages(bytes32)": "infinite",
				"minTimeLock()": "2362",
				"minimumBid(uint256)": "2571",
				"nftContract()": "2470",
				"pause()": "infinite",
				"paused()": "2383",
				"postIds(uint256)": "4709",
				"postMinimumBid()": "2407",
				"postTipIds(uint256)": "4688",
				"postTips(bytes32)": "8995",
				"posts(bytes32)": "infinite",
				"privateMessageIds(uint256)": "4709",
				"privateMinimumBid()": "2362",
				"publicMessageIds(uint256)": "4710",
				"publicMinimumBid()": "2385",
				"recipientUpFront()": "2450",
				"renounceRole(bytes32,address)": "infinite",
				"revokeRole(bytes32,address)": "infinite",
				"setMinimumBid(uint256,uint8)": "infinite",
				"setNFTContract(address)": "infinite",
				"setPostMinimumBid(uint256)": "infinite",
				"setRecipientUpFront(uint256)": "infinite",
				"setThresholdFactorForSplit(uint256)": "infinite",
				"setTrustedForwarder(address)": "infinite",
				"setUserMinimumBid(uint256,uint8)": "infinite",
				"supportsInterface(bytes4)": "infinite",
				"thresholdFactorForSplit()": "2407",
				"tipIds(uint256)": "4664",
				"tips(bytes32)": "11148",
				"transfer(uint256,address)": "infinite",
				"unBlockUser(address)": "infinite",
				"unWhitelistUser(address)": "infinite",
				"unfollowUser(address)": "infinite",
				"unpause()": "infinite",
				"userBalance()": "4791",
				"userMinimumBid(address,address,uint256)": "infinite",
				"users(address)": "infinite",
				"whitelistUser(address)": "infinite",
				"withdraw(uint256)": "infinite"
			},
			"internal": {
				"_createMessage(address,address,uint256,uint256,uint256,string memory)": "infinite",
				"_createResponse(bytes32,string memory,string memory)": "infinite",
				"_feeDenominator()": "infinite",
				"_msgData()": "infinite",
				"_msgSender()": "2217",
				"_userPrivateMinimumBid(address)": "4423",
				"_userPublicMinimumBid(address)": "4411",
				"_valueDeduction(uint256,uint256)": "infinite",
				"mintNFTforAnswer(address,string memory)": "infinite"
			}
		},
		"methodIdentifiers": {
			"DEFAULT_ADMIN_ROLE()": "a217fddf",
			"GOVERNANCE_ROLE()": "f36c8f5c",
			"balance()": "b69ef8a8",
			"blockUser(address)": "3da01325",
			"checkBlocked(address,address)": "2c8d6fd6",
			"checkWhitelist(address,address)": "dc1a0911",
			"claimBackMessageValue(bytes32)": "83579125",
			"claimBackTipValue(bytes32)": "f224aa4f",
			"createMessage(address,uint256,uint256,string)": "20d4f41b",
			"createPost(string)": "c7303c61",
			"createPostTip(bytes32)": "a9a3aa83",
			"createResponse(bytes32,string,string)": "96858061",
			"createTip(bytes32)": "a740d68e",
			"feeCollector()": "c415b95c",
			"feeNumerator()": "e86dea4a",
			"followUser(address)": "a70806f7",
			"gePublicMessageIds(uint256,uint256)": "ca05249f",
			"getPostIds(uint256,uint256)": "49e03502",
			"getPostTipIds(uint256,uint256)": "10f5ff3e",
			"getPrivateMessageIds(uint256,uint256)": "5ad1c6e5",
			"getRoleAdmin(bytes32)": "248a9ca3",
			"getRoleMember(bytes32,uint256)": "9010d07c",
			"getRoleMemberCount(bytes32)": "ca15c873",
			"getTipIds(uint256,uint256)": "f1096c21",
			"getTipIdsOfMessage(bytes32,uint256,uint256)": "b12ea2a3",
			"getTipIdsOfPost(bytes32,uint256,uint256)": "3e11b5dc",
			"grantRole(bytes32,address)": "2f2ff15d",
			"hasRole(bytes32,address)": "91d14854",
			"initialize(uint256,uint256,uint256,address,address,address,address)": "0fc65407",
			"isTrustedForwarder(address)": "572b6c05",
			"markReponse(bytes32,uint256)": "b1df7383",
			"messages(bytes32)": "2bbd59ca",
			"minTimeLock()": "d00a818f",
			"minimumBid(uint256)": "fea32600",
			"nftContract()": "d56d229d",
			"pause()": "8456cb59",
			"paused()": "5c975abb",
			"postIds(uint256)": "50cde8ef",
			"postMinimumBid()": "4f09c912",
			"postTipIds(uint256)": "98f17c96",
			"postTips(bytes32)": "1b1456d6",
			"posts(bytes32)": "dff72dec",
			"privateMessageIds(uint256)": "3dc9979e",
			"privateMinimumBid()": "79ced747",
			"publicMessageIds(uint256)": "a02f3c78",
			"publicMinimumBid()": "4d31a6ed",
			"recipientUpFront()": "c0ef21ee",
			"renounceRole(bytes32,address)": "36568abe",
			"revokeRole(bytes32,address)": "d547741f",
			"setMinimumBid(uint256,uint8)": "09b82cfd",
			"setNFTContract(address)": "a7ccabdf",
			"setPostMinimumBid(uint256)": "4d1ccb62",
			"setRecipientUpFront(uint256)": "4b8e7a34",
			"setThresholdFactorForSplit(uint256)": "049c067a",
			"setTrustedForwarder(address)": "da742228",
			"setUserMinimumBid(uint256,uint8)": "94a34045",
			"supportsInterface(bytes4)": "01ffc9a7",
			"thresholdFactorForSplit()": "aafa3061",
			"tipIds(uint256)": "d3e15bda",
			"tips(bytes32)": "602bf227",
			"transfer(uint256,address)": "b7760c8f",
			"unBlockUser(address)": "65f898e1",
			"unWhitelistUser(address)": "190c69a2",
			"unfollowUser(address)": "f107cfcb",
			"unpause()": "3f4ba83a",
			"userBalance()": "bf152765",
			"userMinimumBid(address,address,uint256)": "d9fffc82",
			"users(address)": "a87430ba",
			"whitelistUser(address)": "4a4c560d",
			"withdraw(uint256)": "2e1a7d4d"
		}
	},
	"abi": [
		{
			"anonymous": false,
			"inputs": [
				{
					"indexed": true,
					"internalType": "address",
					"name": "sender",
					"type": "address"
				},
				{
					"indexed": false,
					"internalType": "uint256",
					"name": "value",
					"type": "uint256"
				}
			],
			"name": "AmountReceived",
			"type": "event"
		},
		{
			"anonymous": false,
			"inputs": [
				{
					"indexed": true,
					"internalType": "address",
					"name": "blocker",
					"type": "address"
				},
				{
					"indexed": true,
					"internalType": "address",
					"name": "blocked",
					"type": "address"
				}
			],
			"name": "Blocked",
			"type": "event"
		},
		{
			"anonymous": false,
			"inputs": [
				{
					"indexed": true,
					"internalType": "address",
					"name": "followed",
					"type": "address"
				},
				{
					"indexed": true,
					"internalType": "address",
					"name": "follower",
					"type": "address"
				}
			],
			"name": "Follow",
			"type": "event"
		},
		{
			"anonymous": false,
			"inputs": [
				{
					"indexed": true,
					"internalType": "address",
					"name": "recipient",
					"type": "address"
				},
				{
					"indexed": true,
					"internalType": "bytes32",
					"name": "messageId",
					"type": "bytes32"
				},
				{
					"indexed": true,
					"internalType": "address",
					"name": "createdBy",
					"type": "address"
				},
				{
					"indexed": false,
					"internalType": "uint256",
					"name": "value",
					"type": "uint256"
				},
				{
					"indexed": false,
					"internalType": "uint256",
					"name": "expiryTime",
					"type": "uint256"
				},
				{
					"indexed": false,
					"internalType": "string",
					"name": "link",
					"type": "string"
				},
				{
					"indexed": false,
					"internalType": "uint256",
					"name": "messageType",
					"type": "uint256"
				}
			],
			"name": "MessageCreated",
			"type": "event"
		},
		{
			"anonymous": false,
			"inputs": [
				{
					"indexed": true,
					"internalType": "bytes32",
					"name": "messageId",
					"type": "bytes32"
				},
				{
					"indexed": true,
					"internalType": "address",
					"name": "createdBy",
					"type": "address"
				},
				{
					"indexed": false,
					"internalType": "uint256",
					"name": "value",
					"type": "uint256"
				}
			],
			"name": "MessageValueClaimed",
			"type": "event"
		},
		{
			"anonymous": false,
			"inputs": [
				{
					"indexed": false,
					"internalType": "address",
					"name": "account",
					"type": "address"
				}
			],
			"name": "Paused",
			"type": "event"
		},
		{
			"anonymous": false,
			"inputs": [
				{
					"indexed": true,
					"internalType": "bytes32",
					"name": "postId",
					"type": "bytes32"
				},
				{
					"indexed": true,
					"internalType": "address",
					"name": "createdBy",
					"type": "address"
				},
				{
					"indexed": false,
					"internalType": "uint256",
					"name": "value",
					"type": "uint256"
				},
				{
					"indexed": false,
					"internalType": "string",
					"name": "link",
					"type": "string"
				}
			],
			"name": "PostCreated",
			"type": "event"
		},
		{
			"anonymous": false,
			"inputs": [
				{
					"indexed": true,
					"internalType": "bytes32",
					"name": "postId",
					"type": "bytes32"
				},
				{
					"indexed": true,
					"internalType": "bytes32",
					"name": "postTipId",
					"type": "bytes32"
				},
				{
					"indexed": true,
					"internalType": "address",
					"name": "createdBy",
					"type": "address"
				},
				{
					"indexed": false,
					"internalType": "uint256",
					"name": "value",
					"type": "uint256"
				}
			],
			"name": "PostTipCreated",
			"type": "event"
		},
		{
			"anonymous": false,
			"inputs": [
				{
					"indexed": true,
					"internalType": "bytes32",
					"name": "messageId",
					"type": "bytes32"
				},
				{
					"indexed": true,
					"internalType": "address",
					"name": "owner",
					"type": "address"
				},
				{
					"indexed": true,
					"internalType": "address",
					"name": "creator",
					"type": "address"
				},
				{
					"indexed": false,
					"internalType": "string",
					"name": "answerLink",
					"type": "string"
				},
				{
					"indexed": false,
					"internalType": "uint256",
					"name": "tokenId",
					"type": "uint256"
				},
				{
					"indexed": false,
					"internalType": "uint256",
					"name": "value",
					"type": "uint256"
				}
			],
			"name": "ResponseCreated",
			"type": "event"
		},
		{
			"anonymous": false,
			"inputs": [
				{
					"indexed": true,
					"internalType": "bytes32",
					"name": "messageId",
					"type": "bytes32"
				},
				{
					"indexed": true,
					"internalType": "address",
					"name": "owner",
					"type": "address"
				},
				{
					"indexed": true,
					"internalType": "address",
					"name": "answerer",
					"type": "address"
				},
				{
					"indexed": false,
					"internalType": "uint256",
					"name": "responseType",
					"type": "uint256"
				}
			],
			"name": "ResponseMarked",
			"type": "event"
		},
		{
			"anonymous": false,
			"inputs": [
				{
					"indexed": true,
					"internalType": "bytes32",
					"name": "role",
					"type": "bytes32"
				},
				{
					"indexed": true,
					"internalType": "bytes32",
					"name": "previousAdminRole",
					"type": "bytes32"
				},
				{
					"indexed": true,
					"internalType": "bytes32",
					"name": "newAdminRole",
					"type": "bytes32"
				}
			],
			"name": "RoleAdminChanged",
			"type": "event"
		},
		{
			"anonymous": false,
			"inputs": [
				{
					"indexed": true,
					"internalType": "bytes32",
					"name": "role",
					"type": "bytes32"
				},
				{
					"indexed": true,
					"internalType": "address",
					"name": "account",
					"type": "address"
				},
				{
					"indexed": true,
					"internalType": "address",
					"name": "sender",
					"type": "address"
				}
			],
			"name": "RoleGranted",
			"type": "event"
		},
		{
			"anonymous": false,
			"inputs": [
				{
					"indexed": true,
					"internalType": "bytes32",
					"name": "role",
					"type": "bytes32"
				},
				{
					"indexed": true,
					"internalType": "address",
					"name": "account",
					"type": "address"
				},
				{
					"indexed": true,
					"internalType": "address",
					"name": "sender",
					"type": "address"
				}
			],
			"name": "RoleRevoked",
			"type": "event"
		},
		{
			"anonymous": false,
			"inputs": [
				{
					"indexed": true,
					"internalType": "bytes32",
					"name": "messageId",
					"type": "bytes32"
				},
				{
					"indexed": true,
					"internalType": "bytes32",
					"name": "tipId",
					"type": "bytes32"
				},
				{
					"indexed": true,
					"internalType": "address",
					"name": "createdBy",
					"type": "address"
				},
				{
					"indexed": false,
					"internalType": "uint256",
					"name": "value",
					"type": "uint256"
				}
			],
			"name": "TipCreated",
			"type": "event"
		},
		{
			"anonymous": false,
			"inputs": [
				{
					"indexed": true,
					"internalType": "bytes32",
					"name": "messageId",
					"type": "bytes32"
				},
				{
					"indexed": true,
					"internalType": "bytes32",
					"name": "tipId",
					"type": "bytes32"
				},
				{
					"indexed": true,
					"internalType": "address",
					"name": "createdBy",
					"type": "address"
				},
				{
					"indexed": false,
					"internalType": "uint256",
					"name": "value",
					"type": "uint256"
				}
			],
			"name": "TipValueClaimed",
			"type": "event"
		},
		{
			"anonymous": false,
			"inputs": [
				{
					"indexed": true,
					"internalType": "address",
					"name": "sender",
					"type": "address"
				},
				{
					"indexed": true,
					"internalType": "address",
					"name": "recipient",
					"type": "address"
				},
				{
					"indexed": false,
					"internalType": "uint256",
					"name": "value",
					"type": "uint256"
				}
			],
			"name": "Transfer",
			"type": "event"
		},
		{
			"anonymous": false,
			"inputs": [
				{
					"indexed": true,
					"internalType": "address",
					"name": "unblocker",
					"type": "address"
				},
				{
					"indexed": true,
					"internalType": "address",
					"name": "unblocked",
					"type": "address"
				}
			],
			"name": "UnBlock",
			"type": "event"
		},
		{
			"anonymous": false,
			"inputs": [
				{
					"indexed": true,
					"internalType": "address",
					"name": "unfollowed",
					"type": "address"
				},
				{
					"indexed": true,
					"internalType": "address",
					"name": "unfollower",
					"type": "address"
				}
			],
			"name": "UnFollow",
			"type": "event"
		},
		{
			"anonymous": false,
			"inputs": [
				{
					"indexed": true,
					"internalType": "address",
					"name": "unwhitelister",
					"type": "address"
				},
				{
					"indexed": true,
					"internalType": "address",
					"name": "unwhitelisted",
					"type": "address"
				}
			],
			"name": "UnWhitelisted",
			"type": "event"
		},
		{
			"anonymous": false,
			"inputs": [
				{
					"indexed": false,
					"internalType": "address",
					"name": "account",
					"type": "address"
				}
			],
			"name": "Unpaused",
			"type": "event"
		},
		{
			"anonymous": false,
			"inputs": [
				{
					"indexed": true,
					"internalType": "address",
					"name": "whitelister",
					"type": "address"
				},
				{
					"indexed": true,
					"internalType": "address",
					"name": "whitelisted",
					"type": "address"
				}
			],
			"name": "Whitelisted",
			"type": "event"
		},
		{
			"anonymous": false,
			"inputs": [
				{
					"indexed": true,
					"internalType": "address",
					"name": "user",
					"type": "address"
				},
				{
					"indexed": false,
					"internalType": "uint256",
					"name": "value",
					"type": "uint256"
				}
			],
			"name": "Withdraw",
			"type": "event"
		},
		{
			"inputs": [],
			"name": "DEFAULT_ADMIN_ROLE",
			"outputs": [
				{
					"internalType": "bytes32",
					"name": "",
					"type": "bytes32"
				}
			],
			"stateMutability": "view",
			"type": "function"
		},
		{
			"inputs": [],
			"name": "GOVERNANCE_ROLE",
			"outputs": [
				{
					"internalType": "bytes32",
					"name": "",
					"type": "bytes32"
				}
			],
			"stateMutability": "view",
			"type": "function"
		},
		{
			"inputs": [],
			"name": "balance",
			"outputs": [
				{
					"internalType": "uint256",
					"name": "",
					"type": "uint256"
				}
			],
			"stateMutability": "view",
			"type": "function"
		},
		{
			"inputs": [
				{
					"internalType": "address",
					"name": "_address",
					"type": "address"
				}
			],
			"name": "blockUser",
			"outputs": [],
			"stateMutability": "nonpayable",
			"type": "function"
		},
		{
			"inputs": [
				{
					"internalType": "address",
					"name": "_sender",
					"type": "address"
				},
				{
					"internalType": "address",
					"name": "_recipient",
					"type": "address"
				}
			],
			"name": "checkBlocked",
			"outputs": [
				{
					"internalType": "bool",
					"name": "",
					"type": "bool"
				}
			],
			"stateMutability": "view",
			"type": "function"
		},
		{
			"inputs": [
				{
					"internalType": "address",
					"name": "_sender",
					"type": "address"
				},
				{
					"internalType": "address",
					"name": "_recipient",
					"type": "address"
				}
			],
			"name": "checkWhitelist",
			"outputs": [
				{
					"internalType": "bool",
					"name": "",
					"type": "bool"
				}
			],
			"stateMutability": "view",
			"type": "function"
		},
		{
			"inputs": [
				{
					"internalType": "bytes32",
					"name": "messageId_",
					"type": "bytes32"
				}
			],
			"name": "claimBackMessageValue",
			"outputs": [],
			"stateMutability": "nonpayable",
			"type": "function"
		},
		{
			"inputs": [
				{
					"internalType": "bytes32",
					"name": "tipId_",
					"type": "bytes32"
				}
			],
			"name": "claimBackTipValue",
			"outputs": [],
			"stateMutability": "nonpayable",
			"type": "function"
		},
		{
			"inputs": [
				{
					"internalType": "address",
					"name": "recipient_",
					"type": "address"
				},
				{
					"internalType": "uint256",
					"name": "timelock_",
					"type": "uint256"
				},
				{
					"internalType": "uint256",
					"name": "messageType_",
					"type": "uint256"
				},
				{
					"internalType": "string",
					"name": "messageLink_",
					"type": "string"
				}
			],
			"name": "createMessage",
			"outputs": [
				{
					"internalType": "bytes32",
					"name": "",
					"type": "bytes32"
				}
			],
			"stateMutability": "payable",
			"type": "function"
		},
		{
			"inputs": [
				{
					"internalType": "string",
					"name": "postLink_",
					"type": "string"
				}
			],
			"name": "createPost",
			"outputs": [
				{
					"internalType": "bytes32",
					"name": "",
					"type": "bytes32"
				}
			],
			"stateMutability": "payable",
			"type": "function"
		},
		{
			"inputs": [
				{
					"internalType": "bytes32",
					"name": "postId_",
					"type": "bytes32"
				}
			],
			"name": "createPostTip",
			"outputs": [],
			"stateMutability": "payable",
			"type": "function"
		},
		{
			"inputs": [
				{
					"internalType": "bytes32",
					"name": "messageId_",
					"type": "bytes32"
				},
				{
					"internalType": "string",
					"name": "answerLink_",
					"type": "string"
				},
				{
					"internalType": "string",
					"name": "tokenURI_",
					"type": "string"
				}
			],
			"name": "createResponse",
			"outputs": [],
			"stateMutability": "nonpayable",
			"type": "function"
		},
		{
			"inputs": [
				{
					"internalType": "bytes32",
					"name": "messageId_",
					"type": "bytes32"
				}
			],
			"name": "createTip",
			"outputs": [],
			"stateMutability": "payable",
			"type": "function"
		},
		{
			"inputs": [],
			"name": "feeCollector",
			"outputs": [
				{
					"internalType": "address",
					"name": "",
					"type": "address"
				}
			],
			"stateMutability": "view",
			"type": "function"
		},
		{
			"inputs": [],
			"name": "feeNumerator",
			"outputs": [
				{
					"internalType": "uint256",
					"name": "",
					"type": "uint256"
				}
			],
			"stateMutability": "view",
			"type": "function"
		},
		{
			"inputs": [
				{
					"internalType": "address",
					"name": "_address",
					"type": "address"
				}
			],
			"name": "followUser",
			"outputs": [],
			"stateMutability": "nonpayable",
			"type": "function"
		},
		{
			"inputs": [
				{
					"internalType": "uint256",
					"name": "skip_",
					"type": "uint256"
				},
				{
					"internalType": "uint256",
					"name": "limit_",
					"type": "uint256"
				}
			],
			"name": "gePublicMessageIds",
			"outputs": [
				{
					"internalType": "bytes32[]",
					"name": "",
					"type": "bytes32[]"
				},
				{
					"internalType": "uint256",
					"name": "",
					"type": "uint256"
				}
			],
			"stateMutability": "view",
			"type": "function"
		},
		{
			"inputs": [
				{
					"internalType": "uint256",
					"name": "skip_",
					"type": "uint256"
				},
				{
					"internalType": "uint256",
					"name": "limit_",
					"type": "uint256"
				}
			],
			"name": "getPostIds",
			"outputs": [
				{
					"internalType": "bytes32[]",
					"name": "",
					"type": "bytes32[]"
				},
				{
					"internalType": "uint256",
					"name": "",
					"type": "uint256"
				}
			],
			"stateMutability": "view",
			"type": "function"
		},
		{
			"inputs": [
				{
					"internalType": "uint256",
					"name": "skip_",
					"type": "uint256"
				},
				{
					"internalType": "uint256",
					"name": "limit_",
					"type": "uint256"
				}
			],
			"name": "getPostTipIds",
			"outputs": [
				{
					"internalType": "bytes32[]",
					"name": "",
					"type": "bytes32[]"
				},
				{
					"internalType": "uint256",
					"name": "",
					"type": "uint256"
				}
			],
			"stateMutability": "view",
			"type": "function"
		},
		{
			"inputs": [
				{
					"internalType": "uint256",
					"name": "skip_",
					"type": "uint256"
				},
				{
					"internalType": "uint256",
					"name": "limit_",
					"type": "uint256"
				}
			],
			"name": "getPrivateMessageIds",
			"outputs": [
				{
					"internalType": "bytes32[]",
					"name": "",
					"type": "bytes32[]"
				},
				{
					"internalType": "uint256",
					"name": "",
					"type": "uint256"
				}
			],
			"stateMutability": "view",
			"type": "function"
		},
		{
			"inputs": [
				{
					"internalType": "bytes32",
					"name": "role",
					"type": "bytes32"
				}
			],
			"name": "getRoleAdmin",
			"outputs": [
				{
					"internalType": "bytes32",
					"name": "",
					"type": "bytes32"
				}
			],
			"stateMutability": "view",
			"type": "function"
		},
		{
			"inputs": [
				{
					"internalType": "bytes32",
					"name": "role",
					"type": "bytes32"
				},
				{
					"internalType": "uint256",
					"name": "index",
					"type": "uint256"
				}
			],
			"name": "getRoleMember",
			"outputs": [
				{
					"internalType": "address",
					"name": "",
					"type": "address"
				}
			],
			"stateMutability": "view",
			"type": "function"
		},
		{
			"inputs": [
				{
					"internalType": "bytes32",
					"name": "role",
					"type": "bytes32"
				}
			],
			"name": "getRoleMemberCount",
			"outputs": [
				{
					"internalType": "uint256",
					"name": "",
					"type": "uint256"
				}
			],
			"stateMutability": "view",
			"type": "function"
		},
		{
			"inputs": [
				{
					"internalType": "uint256",
					"name": "skip_",
					"type": "uint256"
				},
				{
					"internalType": "uint256",
					"name": "limit_",
					"type": "uint256"
				}
			],
			"name": "getTipIds",
			"outputs": [
				{
					"internalType": "bytes32[]",
					"name": "",
					"type": "bytes32[]"
				},
				{
					"internalType": "uint256",
					"name": "",
					"type": "uint256"
				}
			],
			"stateMutability": "view",
			"type": "function"
		},
		{
			"inputs": [
				{
					"internalType": "bytes32",
					"name": "messageId_",
					"type": "bytes32"
				},
				{
					"internalType": "uint256",
					"name": "skip_",
					"type": "uint256"
				},
				{
					"internalType": "uint256",
					"name": "limit_",
					"type": "uint256"
				}
			],
			"name": "getTipIdsOfMessage",
			"outputs": [
				{
					"internalType": "bytes32[]",
					"name": "",
					"type": "bytes32[]"
				},
				{
					"internalType": "uint256",
					"name": "",
					"type": "uint256"
				}
			],
			"stateMutability": "view",
			"type": "function"
		},
		{
			"inputs": [
				{
					"internalType": "bytes32",
					"name": "postId_",
					"type": "bytes32"
				},
				{
					"internalType": "uint256",
					"name": "skip_",
					"type": "uint256"
				},
				{
					"internalType": "uint256",
					"name": "limit_",
					"type": "uint256"
				}
			],
			"name": "getTipIdsOfPost",
			"outputs": [
				{
					"internalType": "bytes32[]",
					"name": "",
					"type": "bytes32[]"
				},
				{
					"internalType": "uint256",
					"name": "",
					"type": "uint256"
				}
			],
			"stateMutability": "view",
			"type": "function"
		},
		{
			"inputs": [
				{
					"internalType": "bytes32",
					"name": "role",
					"type": "bytes32"
				},
				{
					"internalType": "address",
					"name": "account",
					"type": "address"
				}
			],
			"name": "grantRole",
			"outputs": [],
			"stateMutability": "nonpayable",
			"type": "function"
		},
		{
			"inputs": [
				{
					"internalType": "bytes32",
					"name": "role",
					"type": "bytes32"
				},
				{
					"internalType": "address",
					"name": "account",
					"type": "address"
				}
			],
			"name": "hasRole",
			"outputs": [
				{
					"internalType": "bool",
					"name": "",
					"type": "bool"
				}
			],
			"stateMutability": "view",
			"type": "function"
		},
		{
			"inputs": [
				{
					"internalType": "uint256",
					"name": "_minimumBid",
					"type": "uint256"
				},
				{
					"internalType": "uint256",
					"name": "_postMinimumBid",
					"type": "uint256"
				},
				{
					"internalType": "uint256",
					"name": "_feeNumerator",
					"type": "uint256"
				},
				{
					"internalType": "address",
					"name": "_nftContract",
					"type": "address"
				},
				{
					"internalType": "address",
					"name": "_feeCollector",
					"type": "address"
				},
				{
					"internalType": "address",
					"name": "_adminAddress",
					"type": "address"
				},
				{
					"internalType": "address",
					"name": "trustedForwarder",
					"type": "address"
				}
			],
			"name": "initialize",
			"outputs": [],
			"stateMutability": "nonpayable",
			"type": "function"
		},
		{
			"inputs": [
				{
					"internalType": "address",
					"name": "forwarder",
					"type": "address"
				}
			],
			"name": "isTrustedForwarder",
			"outputs": [
				{
					"internalType": "bool",
					"name": "",
					"type": "bool"
				}
			],
			"stateMutability": "view",
			"type": "function"
		},
		{
			"inputs": [
				{
					"internalType": "bytes32",
					"name": "messageId_",
					"type": "bytes32"
				},
				{
					"internalType": "uint256",
					"name": "responseType_",
					"type": "uint256"
				}
			],
			"name": "markReponse",
			"outputs": [],
			"stateMutability": "nonpayable",
			"type": "function"
		},
		{
			"inputs": [
				{
					"internalType": "bytes32",
					"name": "",
					"type": "bytes32"
				}
			],
			"name": "messages",
			"outputs": [
				{
					"internalType": "string",
					"name": "messageLink",
					"type": "string"
				},
				{
					"internalType": "string",
					"name": "answerLink",
					"type": "string"
				},
				{
					"internalType": "uint256",
					"name": "initialValue",
					"type": "uint256"
				},
				{
					"internalType": "uint256",
					"name": "totalValue",
					"type": "uint256"
				},
				{
					"internalType": "address",
					"name": "createdBy",
					"type": "address"
				},
				{
					"internalType": "address",
					"name": "anweredBy",
					"type": "address"
				},
				{
					"internalType": "uint256",
					"name": "createdTime",
					"type": "uint256"
				},
				{
					"internalType": "uint256",
					"name": "expiryTime",
					"type": "uint256"
				},
				{
					"internalType": "enum AmaFansLib.State",
					"name": "state",
					"type": "uint8"
				},
				{
					"internalType": "uint256",
					"name": "tokenId",
					"type": "uint256"
				},
				{
					"internalType": "enum AmaFansLib.ResponseType",
					"name": "responseType",
					"type": "uint8"
				},
				{
					"internalType": "uint256",
					"name": "messageType",
					"type": "uint256"
				}
			],
			"stateMutability": "view",
			"type": "function"
		},
		{
			"inputs": [],
			"name": "minTimeLock",
			"outputs": [
				{
					"internalType": "uint256",
					"name": "",
					"type": "uint256"
				}
			],
			"stateMutability": "view",
			"type": "function"
		},
		{
			"inputs": [
				{
					"internalType": "uint256",
					"name": "_messageType",
					"type": "uint256"
				}
			],
			"name": "minimumBid",
			"outputs": [
				{
					"internalType": "uint256",
					"name": "",
					"type": "uint256"
				}
			],
			"stateMutability": "view",
			"type": "function"
		},
		{
			"inputs": [],
			"name": "nftContract",
			"outputs": [
				{
					"internalType": "contract AmaFansNFT",
					"name": "",
					"type": "address"
				}
			],
			"stateMutability": "view",
			"type": "function"
		},
		{
			"inputs": [],
			"name": "pause",
			"outputs": [],
			"stateMutability": "nonpayable",
			"type": "function"
		},
		{
			"inputs": [],
			"name": "paused",
			"outputs": [
				{
					"internalType": "bool",
					"name": "",
					"type": "bool"
				}
			],
			"stateMutability": "view",
			"type": "function"
		},
		{
			"inputs": [
				{
					"internalType": "uint256",
					"name": "",
					"type": "uint256"
				}
			],
			"name": "postIds",
			"outputs": [
				{
					"internalType": "bytes32",
					"name": "",
					"type": "bytes32"
				}
			],
			"stateMutability": "view",
			"type": "function"
		},
		{
			"inputs": [],
			"name": "postMinimumBid",
			"outputs": [
				{
					"internalType": "uint256",
					"name": "",
					"type": "uint256"
				}
			],
			"stateMutability": "view",
			"type": "function"
		},
		{
			"inputs": [
				{
					"internalType": "uint256",
					"name": "",
					"type": "uint256"
				}
			],
			"name": "postTipIds",
			"outputs": [
				{
					"internalType": "bytes32",
					"name": "",
					"type": "bytes32"
				}
			],
			"stateMutability": "view",
			"type": "function"
		},
		{
			"inputs": [
				{
					"internalType": "bytes32",
					"name": "",
					"type": "bytes32"
				}
			],
			"name": "postTips",
			"outputs": [
				{
					"internalType": "address",
					"name": "createdBy",
					"type": "address"
				},
				{
					"internalType": "uint256",
					"name": "value",
					"type": "uint256"
				},
				{
					"internalType": "uint256",
					"name": "createdTime",
					"type": "uint256"
				},
				{
					"internalType": "bytes32",
					"name": "postId",
					"type": "bytes32"
				}
			],
			"stateMutability": "view",
			"type": "function"
		},
		{
			"inputs": [
				{
					"internalType": "bytes32",
					"name": "",
					"type": "bytes32"
				}
			],
			"name": "posts",
			"outputs": [
				{
					"internalType": "string",
					"name": "postLink",
					"type": "string"
				},
				{
					"internalType": "uint256",
					"name": "initialValue",
					"type": "uint256"
				},
				{
					"internalType": "uint256",
					"name": "tipsTotalValue",
					"type": "uint256"
				},
				{
					"internalType": "address",
					"name": "createdBy",
					"type": "address"
				},
				{
					"internalType": "uint256",
					"name": "createdTime",
					"type": "uint256"
				},
				{
					"internalType": "uint256",
					"name": "tokenId",
					"type": "uint256"
				}
			],
			"stateMutability": "view",
			"type": "function"
		},
		{
			"inputs": [
				{
					"internalType": "uint256",
					"name": "",
					"type": "uint256"
				}
			],
			"name": "privateMessageIds",
			"outputs": [
				{
					"internalType": "bytes32",
					"name": "",
					"type": "bytes32"
				}
			],
			"stateMutability": "view",
			"type": "function"
		},
		{
			"inputs": [],
			"name": "privateMinimumBid",
			"outputs": [
				{
					"internalType": "uint256",
					"name": "",
					"type": "uint256"
				}
			],
			"stateMutability": "view",
			"type": "function"
		},
		{
			"inputs": [
				{
					"internalType": "uint256",
					"name": "",
					"type": "uint256"
				}
			],
			"name": "publicMessageIds",
			"outputs": [
				{
					"internalType": "bytes32",
					"name": "",
					"type": "bytes32"
				}
			],
			"stateMutability": "view",
			"type": "function"
		},
		{
			"inputs": [],
			"name": "publicMinimumBid",
			"outputs": [
				{
					"internalType": "uint256",
					"name": "",
					"type": "uint256"
				}
			],
			"stateMutability": "view",
			"type": "function"
		},
		{
			"inputs": [],
			"name": "recipientUpFront",
			"outputs": [
				{
					"internalType": "uint256",
					"name": "",
					"type": "uint256"
				}
			],
			"stateMutability": "view",
			"type": "function"
		},
		{
			"inputs": [
				{
					"internalType": "bytes32",
					"name": "role",
					"type": "bytes32"
				},
				{
					"internalType": "address",
					"name": "account",
					"type": "address"
				}
			],
			"name": "renounceRole",
			"outputs": [],
			"stateMutability": "nonpayable",
			"type": "function"
		},
		{
			"inputs": [
				{
					"internalType": "bytes32",
					"name": "role",
					"type": "bytes32"
				},
				{
					"internalType": "address",
					"name": "account",
					"type": "address"
				}
			],
			"name": "revokeRole",
			"outputs": [],
			"stateMutability": "nonpayable",
			"type": "function"
		},
		{
			"inputs": [
				{
					"internalType": "uint256",
					"name": "_minimumBid",
					"type": "uint256"
				},
				{
					"internalType": "enum AmaFansLib.MessageType",
					"name": "_messageType",
					"type": "uint8"
				}
			],
			"name": "setMinimumBid",
			"outputs": [],
			"stateMutability": "nonpayable",
			"type": "function"
		},
		{
			"inputs": [
				{
					"internalType": "address",
					"name": "_address",
					"type": "address"
				}
			],
			"name": "setNFTContract",
			"outputs": [],
			"stateMutability": "nonpayable",
			"type": "function"
		},
		{
			"inputs": [
				{
					"internalType": "uint256",
					"name": "_postMinimumBid",
					"type": "uint256"
				}
			],
			"name": "setPostMinimumBid",
			"outputs": [],
			"stateMutability": "nonpayable",
			"type": "function"
		},
		{
			"inputs": [
				{
					"internalType": "uint256",
					"name": "_recipientUpFront",
					"type": "uint256"
				}
			],
			"name": "setRecipientUpFront",
			"outputs": [],
			"stateMutability": "nonpayable",
			"type": "function"
		},
		{
			"inputs": [
				{
					"internalType": "uint256",
					"name": "_thresholdFactorForSplit",
					"type": "uint256"
				}
			],
			"name": "setThresholdFactorForSplit",
			"outputs": [],
			"stateMutability": "nonpayable",
			"type": "function"
		},
		{
			"inputs": [
				{
					"internalType": "address",
					"name": "_forwarder",
					"type": "address"
				}
			],
			"name": "setTrustedForwarder",
			"outputs": [],
			"stateMutability": "nonpayable",
			"type": "function"
		},
		{
			"inputs": [
				{
					"internalType": "uint256",
					"name": "minimumBidByUser",
					"type": "uint256"
				},
				{
					"internalType": "enum AmaFansLib.MessageType",
					"name": "_messageType",
					"type": "uint8"
				}
			],
			"name": "setUserMinimumBid",
			"outputs": [],
			"stateMutability": "nonpayable",
			"type": "function"
		},
		{
			"inputs": [
				{
					"internalType": "bytes4",
					"name": "interfaceId",
					"type": "bytes4"
				}
			],
			"name": "supportsInterface",
			"outputs": [
				{
					"internalType": "bool",
					"name": "",
					"type": "bool"
				}
			],
			"stateMutability": "view",
			"type": "function"
		},
		{
			"inputs": [],
			"name": "thresholdFactorForSplit",
			"outputs": [
				{
					"internalType": "uint256",
					"name": "",
					"type": "uint256"
				}
			],
			"stateMutability": "view",
			"type": "function"
		},
		{
			"inputs": [
				{
					"internalType": "uint256",
					"name": "",
					"type": "uint256"
				}
			],
			"name": "tipIds",
			"outputs": [
				{
					"internalType": "bytes32",
					"name": "",
					"type": "bytes32"
				}
			],
			"stateMutability": "view",
			"type": "function"
		},
		{
			"inputs": [
				{
					"internalType": "bytes32",
					"name": "",
					"type": "bytes32"
				}
			],
			"name": "tips",
			"outputs": [
				{
					"internalType": "address",
					"name": "createdBy",
					"type": "address"
				},
				{
					"internalType": "uint256",
					"name": "value",
					"type": "uint256"
				},
				{
					"internalType": "uint256",
					"name": "createdTime",
					"type": "uint256"
				},
				{
					"internalType": "bytes32",
					"name": "messageId",
					"type": "bytes32"
				},
				{
					"internalType": "bool",
					"name": "claimed",
					"type": "bool"
				}
			],
			"stateMutability": "view",
			"type": "function"
		},
		{
			"inputs": [
				{
					"internalType": "uint256",
					"name": "amount_",
					"type": "uint256"
				},
				{
					"internalType": "address",
					"name": "recipient_",
					"type": "address"
				}
			],
			"name": "transfer",
			"outputs": [],
			"stateMutability": "nonpayable",
			"type": "function"
		},
		{
			"inputs": [
				{
					"internalType": "address",
					"name": "_address",
					"type": "address"
				}
			],
			"name": "unBlockUser",
			"outputs": [],
			"stateMutability": "nonpayable",
			"type": "function"
		},
		{
			"inputs": [
				{
					"internalType": "address",
					"name": "_address",
					"type": "address"
				}
			],
			"name": "unWhitelistUser",
			"outputs": [],
			"stateMutability": "nonpayable",
			"type": "function"
		},
		{
			"inputs": [
				{
					"internalType": "address",
					"name": "_address",
					"type": "address"
				}
			],
			"name": "unfollowUser",
			"outputs": [],
			"stateMutability": "nonpayable",
			"type": "function"
		},
		{
			"inputs": [],
			"name": "unpause",
			"outputs": [],
			"stateMutability": "nonpayable",
			"type": "function"
		},
		{
			"inputs": [],
			"name": "userBalance",
			"outputs": [
				{
					"internalType": "uint256",
					"name": "",
					"type": "uint256"
				}
			],
			"stateMutability": "view",
			"type": "function"
		},
		{
			"inputs": [
				{
					"internalType": "address",
					"name": "_sender",
					"type": "address"
				},
				{
					"internalType": "address",
					"name": "_recipient",
					"type": "address"
				},
				{
					"internalType": "uint256",
					"name": "_messageType",
					"type": "uint256"
				}
			],
			"name": "userMinimumBid",
			"outputs": [
				{
					"internalType": "uint256",
					"name": "",
					"type": "uint256"
				}
			],
			"stateMutability": "view",
			"type": "function"
		},
		{
			"inputs": [
				{
					"internalType": "address",
					"name": "",
					"type": "address"
				}
			],
			"name": "users",
			"outputs": [
				{
					"internalType": "uint256",
					"name": "publicMinimumBid",
					"type": "uint256"
				},
				{
					"internalType": "uint256",
					"name": "privateMinimumBid",
					"type": "uint256"
				},
				{
					"internalType": "bytes",
					"name": "verified",
					"type": "bytes"
				}
			],
			"stateMutability": "view",
			"type": "function"
		},
		{
			"inputs": [
				{
					"internalType": "address",
					"name": "_address",
					"type": "address"
				}
			],
			"name": "whitelistUser",
			"outputs": [],
			"stateMutability": "nonpayable",
			"type": "function"
		},
		{
			"inputs": [
				{
					"internalType": "uint256",
					"name": "_amount",
					"type": "uint256"
				}
			],
			"name": "withdraw",
			"outputs": [],
			"stateMutability": "nonpayable",
			"type": "function"
		},
		{
			"stateMutability": "payable",
			"type": "receive"
		}
	]
}