{
	"data": {
		"bytecode": {
			"linkReferences": {
				"AmaFansLib.sol": {
					"AmaFansLib": [
						{
							"length": 20,
							"start": 5623
						},
						{
							"length": 20,
							"start": 7314
						},
						{
							"length": 20,
							"start": 8380
						},
						{
							"length": 20,
							"start": 8574
						},
						{
							"length": 20,
							"start": 8877
						},
						{
							"length": 20,
							"start": 9024
						},
						{
							"length": 20,
							"start": 9237
						},
						{
							"length": 20,
							"start": 9387
						},
						{
							"length": 20,
							"start": 10756
						},
						{
							"length": 20,
							"start": 11438
						},
						{
							"length": 20,
							"start": 12269
						},
						{
							"length": 20,
							"start": 13733
						},
						{
							"length": 20,
							"start": 13875
						}
					]
				}
			},
			"object": "608060405234801561001057600080fd5b50614a90806100206000396000f3fe60806040526004361061037a5760003560e01c806394a34045116101d1578063c0ef21ee11610102578063da742228116100a0578063f224aa4f1161006f578063f224aa4f14610ad9578063f36c8f5c14610af9578063f8f4e18a14610b2d578063fea3260014610b6757600080fd5b8063da74222814610a62578063dc1a091114610a82578063e86dea4a14610aa2578063f107cfcb14610ab957600080fd5b8063d00a818f116100dc578063d00a818f146109ea578063d547741f14610a01578063d56d229d14610a21578063d9fffc8214610a4257600080fd5b8063c0ef21ee14610992578063c415b95c146109a9578063ca15c873146109ca57600080fd5b8063a7ccabdf1161016f578063b69ef8a811610149578063b69ef8a814610928578063b7760c8f1461093d578063be841e021461095d578063bf1527651461097d57600080fd5b8063a7ccabdf146108d1578063aafa3061146108f1578063b1df73831461090857600080fd5b8063a217fddf116101ab578063a217fddf14610869578063a3c15a031461087e578063a70806f71461089e578063a740d68e146108be57600080fd5b806394a34045146108095780639685806114610829578063a02413421461084957600080fd5b80633f4ba83a116102ab57806365f898e1116102495780638456cb59116102235780638456cb59146107625780638a061282146107775780639010d07c146107b157806391d14854146107e957600080fd5b806365f898e11461070b57806379ced7471461072b578063835791251461074257600080fd5b80634d31a6ed116102855780634d31a6ed14610621578063572b6c05146106385780635c975abb14610667578063602bf2271461067f57600080fd5b80633f4ba83a146105cc5780634a4c560d146105e15780634b8e7a341461060157600080fd5b80632bbd59ca116103185780632ecefad1116102f25780632ecefad11461053e5780632f2ff15d1461056c57806336568abe1461058c5780633da01325146105ac57600080fd5b80632bbd59ca146104c65780632c8d6fd6146104fe5780632e1a7d4d1461051e57600080fd5b806310e51e141161035457806310e51e1414610435578063190c69a21461045557806320d4f41b14610475578063248a9ca31461049657600080fd5b806301ffc9a7146103be578063049c067a146103f357806309b82cfd1461041557600080fd5b366103b957610387610b87565b6001600160a01b0316600080516020614a3b833981519152346040516103af91815260200190565b60405180910390a2005b600080fd5b3480156103ca57600080fd5b506103de6103d936600461441c565b610b96565b60405190151581526020015b60405180910390f35b3480156103ff57600080fd5b5061041361040e36600461430c565b610bc1565b005b34801561042157600080fd5b50610413610430366004614446565b610c23565b34801561044157600080fd5b5061041361045036600461447a565b610cae565b34801561046157600080fd5b50610413610470366004614138565b610eb8565b6104886104833660046141f5565b610f5f565b6040519081526020016103ea565b3480156104a257600080fd5b506104886104b136600461430c565b600090815260c9602052604090206001015490565b3480156104d257600080fd5b506104e66104e136600461430c565b61120e565b6040516103ea9c9b9a9998979695949392919061463e565b34801561050a57600080fd5b506103de610519366004614153565b611390565b34801561052a57600080fd5b5061041361053936600461430c565b6113dc565b34801561054a57600080fd5b5061055e6105593660046143f0565b61153f565b6040516103ea9291906145b9565b34801561057857600080fd5b5061041361058736600461433e565b611655565b34801561059857600080fd5b506104136105a736600461433e565b611682565b3480156105b857600080fd5b506104136105c7366004614138565b611710565b3480156105d857600080fd5b50610413611812565b3480156105ed57600080fd5b506104136105fc366004614138565b61188a565b34801561060d57600080fd5b5061041361061c36600461430c565b6119c4565b34801561062d57600080fd5b506104886101605481565b34801561064457600080fd5b506103de610653366004614138565b6065546001600160a01b0391821691161490565b34801561067357600080fd5b5060335460ff166103de565b34801561068b57600080fd5b506106d761069a36600461430c565b61016860205260009081526040902080546001820154600283015460038401546004909401546001600160a01b0390931693919290919060ff1685565b604080516001600160a01b03909616865260208601949094529284019190915260608301521515608082015260a0016103ea565b34801561071757600080fd5b50610413610726366004614138565b611a27565b34801561073757600080fd5b506104886101615481565b34801561074e57600080fd5b5061041361075d36600461430c565b611b60565b34801561076e57600080fd5b50610413611d97565b34801561078357600080fd5b50610488610792366004614138565b6001600160a01b03166000908152610169602052604090206002015490565b3480156107bd57600080fd5b506107d16107cc3660046143ce565b611e0b565b6040516001600160a01b0390911681526020016103ea565b3480156107f557600080fd5b506103de61080436600461433e565b611e2a565b34801561081557600080fd5b50610413610824366004614446565b611e55565b34801561083557600080fd5b50610413610844366004614361565b611f0c565b34801561085557600080fd5b5061055e6108643660046141c2565b612058565b34801561087557600080fd5b50610488600081565b34801561088a57600080fd5b5061055e6108993660046141c2565b61211a565b3480156108aa57600080fd5b506104136108b9366004614138565b612180565b6104136108cc36600461430c565b612209565b3480156108dd57600080fd5b506104136108ec366004614138565b61252b565b3480156108fd57600080fd5b506104886101665481565b34801561091457600080fd5b506104136109233660046143ce565b6125a6565b34801561093457600080fd5b50610488612823565b34801561094957600080fd5b5061041361095836600461433e565b61283a565b34801561096957600080fd5b5061055e6109783660046141c2565b6129a1565b34801561098957600080fd5b50610488612a06565b34801561099e57600080fd5b506104886101655481565b3480156109b557600080fd5b5061015f546107d1906001600160a01b031681565b3480156109d657600080fd5b506104886109e536600461430c565b612a3b565b3480156109f657600080fd5b506104886101645481565b348015610a0d57600080fd5b50610413610a1c36600461433e565b612a52565b348015610a2d57600080fd5b50610163546107d1906001600160a01b031681565b348015610a4e57600080fd5b50610488610a5d366004614186565b612a7a565b348015610a6e57600080fd5b50610413610a7d366004614138565b612abd565b348015610a8e57600080fd5b506103de610a9d366004614153565b612ad4565b348015610aae57600080fd5b506104886101625481565b348015610ac557600080fd5b50610413610ad4366004614138565b612add565b348015610ae557600080fd5b50610413610af436600461430c565b612b66565b348015610b0557600080fd5b506104887f35a7846a2a701fff6f9d61a46ebff5da578c5dcee8bdf361c569f9ea4ee6477181565b348015610b3957600080fd5b50610488610b48366004614138565b6001600160a01b03166000908152610169602052604090206003015490565b348015610b7357600080fd5b50610488610b8236600461430c565b612daa565b6000610b91612dc7565b905090565b60006001600160e01b03198216635a05180f60e01b1480610bbb5750610bbb82612df2565b92915050565b6000610bd481610bcf610b87565b612e27565b60408051808201909152600681526506060726060760d31b602082015260018311610c1b5760405162461bcd60e51b8152600401610c129190614601565b60405180910390fd5b505061016655565b6000610c3181610bcf610b87565b6001826001811115610c4557610c4561493d565b1415610ca657610165548310156040518060400160405280600681526020016530303930303360d01b81525090610c8f5760405162461bcd60e51b8152600401610c129190614601565b50610161839055610ca1600484614820565b610165555b505061016055565b600054610100900460ff16610cc95760005460ff1615610ccd565b303b155b610d305760405162461bcd60e51b815260206004820152602e60248201527f496e697469616c697a61626c653a20636f6e747261637420697320616c72656160448201526d191e481a5b9a5d1a585b1a5e995960921b6064820152608401610c12565b600054610100900460ff16158015610d52576000805461ffff19166101011790555b612710861115610db75760405162461bcd60e51b815260206004820152602a60248201527f455243323938313a20726f79616c7479206665652077696c6c206578636565646044820152692073616c65507269636560b01b6064820152608401610c12565b610dc2600488614820565b61016555610dce612e8b565b610dd6612ed2565b610dde612f01565b610de782612f38565b610160879055610161879055610162869055610163805461015f80546001600160a01b0319166001600160a01b03888116919091179091556103846101645587166001600160a81b0319909116179055600361016655610e48600084612f73565b610e727f35a7846a2a701fff6f9d61a46ebff5da578c5dcee8bdf361c569f9ea4ee6477184612f73565b610e9d7f35a7846a2a701fff6f9d61a46ebff5da578c5dcee8bdf361c569f9ea4ee647716000612f7d565b8015610eaf576000805461ff00191690555b50505050505050565b60006101696000610ec7610b87565b6001600160a01b03908116825260208083019390935260409182016000908120918616815260079091019092529020805460ff19166001836002811115610f1057610f1061493d565b0217905550806001600160a01b0316610f27610b87565b6001600160a01b03167fdc9ec6c8ca20e67e0cbecb5536d5c021046dd6a9a43b1b03d2b10235767d450260405160405180910390a350565b600083610164548110156040518060400160405280600681526020016530303230303760d01b81525090610fa65760405162461bcd60e51b8152600401610c129190614601565b5060335460ff1615610fca5760405162461bcd60e51b8152600401610c1290614704565b8380600110156040518060400160405280600681526020016503030323031360d41b8152509061100d5760405162461bcd60e51b8152600401610c129190614601565b50600261012d5414156110325760405162461bcd60e51b8152600401610c1290614779565b600261012d556001600160a01b03871660009081526101696020526040812081906007018161105f610b87565b6001600160a01b0316815260208101919091526040016000205460ff16905060018160028111156110925761109261493d565b14156040518060400160405280600681526020016518181c98181b60d11b815250906110d15760405162461bcd60e51b8152600401610c129190614601565b5060006110e66110df610b87565b8b8a612a7a565b905060028260028111156110fc576110fc61493d565b146111be57600188141561115e5760408051808201909152600681526530303130303960d01b6020820152348211156111485760405162461bcd60e51b8152600401610c129190614601565b50610165546111579034614861565b92506111be565b60408051808201909152600681526503030313031360d41b60208201523482111561119c5760405162461bcd60e51b8152600401610c129190614601565b506101655481116111ad57346111bb565b610165546111bb9034614861565b92505b60006111d56111cb610b87565b8c868d8d8d612fc8565b905083158015906111e857506101655482115b156111fa576111fa8b61016554613302565b600161012d559a9950505050505050505050565b6101676020526000908152604090208054819061122a906148bf565b80601f0160208091040260200160405190810160405280929190818152602001828054611256906148bf565b80156112a35780601f10611278576101008083540402835291602001916112a3565b820191906000526020600020905b81548152906001019060200180831161128657829003601f168201915b5050505050908060010180546112b8906148bf565b80601f01602080910402602001604051908101604052809291908181526020018280546112e4906148bf565b80156113315780601f1061130657610100808354040283529160200191611331565b820191906000526020600020905b81548152906001019060200180831161131457829003601f168201915b50505060028401546003850154600486015460058701546007880154600889015460098a0154600a8b0154600b8c0154600c909c01549a9b979a9699506001600160a01b03958616985093909416959194909360ff908116939216908c565b600060015b6001600160a01b03808416600090815261016960209081526040808320938816835260079093019052205460ff1660028111156113d4576113d461493d565b149392505050565b60335460ff16156113ff5760405162461bcd60e51b8152600401610c1290614704565b600261012d5414156114235760405162461bcd60e51b8152600401610c1290614779565b600261012d5561016a6000611436610b87565b6001600160a01b03166001600160a01b03168152602001908152602001600020548111156040518060400160405280600681526020016530303930303160d01b815250906114975760405162461bcd60e51b8152600401610c129190614601565b508061016a60006114a6610b87565b6001600160a01b03166001600160a01b0316815260200190815260200160002060008282546114d59190614861565b909155506114ec90506114e6610b87565b82613302565b6114f4610b87565b6001600160a01b03167f884edad9ce6fa2440d8a54cc123490eb96d2768479d49ff9c7366125a94243648260405161152e91815260200190565b60405180910390a250600161012d55565b600083815261016760209081526040808320600401548151808301909252600682526530303230303360d01b92820192909252606092918691906001600160a01b031661159f5760405162461bcd60e51b8152600401610c129190614601565b506000868152610167602052604090819020905163074a590760e01b815260048101879052602481018690526006909101604482015273__$9449e77bcfc6c744eba20e6cac20521bf9$__9063074a59079060640160006040518083038186803b15801561160c57600080fd5b505af4158015611620573d6000803e3d6000fd5b505050506040513d6000823e601f3d908101601f191682016040526116489190810190614256565b9250925050935093915050565b600082815260c9602052604090206001015461167381610bcf610b87565b61167d838361341b565b505050565b61168a610b87565b6001600160a01b0316816001600160a01b0316146117025760405162461bcd60e51b815260206004820152602f60248201527f416363657373436f6e74726f6c3a2063616e206f6e6c792072656e6f756e636560448201526e103937b632b9903337b91039b2b63360891b6064820152608401610c12565b61170c828261343d565b5050565b806001600160a01b0316611722610b87565b6001600160a01b031614156040518060400160405280600681526020016503030393031360d41b8152509061176a5760405162461bcd60e51b8152600401610c129190614601565b506001610169600061177a610b87565b6001600160a01b03908116825260208083019390935260409182016000908120918616815260079091019092529020805460ff191660018360028111156117c3576117c361493d565b0217905550806001600160a01b03166117da610b87565b6001600160a01b03167fc931b7e6f18c2a39bcd066690c46c7ba85186501c524faa844ac2c7213d1732560405160405180910390a350565b61181f6000610804610b87565b6118805760405162461bcd60e51b815260206004820152602c60248201527f4d75737420686176652044454641554c545f41444d494e5f524f4c4520726f6c60448201526b6520746f20756e706175736560a01b6064820152608401610c12565b61188861345f565b565b60016101696000611899610b87565b6001600160a01b039081168252602080830193909352604091820160009081209186168152600790910190925290205460ff1660028111156118dd576118dd61493d565b14156040518060400160405280600681526020016518181c98181b60d11b8152509061191c5760405162461bcd60e51b8152600401610c129190614601565b506002610169600061192c610b87565b6001600160a01b03908116825260208083019390935260409182016000908120918616815260079091019092529020805460ff191660018360028111156119755761197561493d565b0217905550806001600160a01b031661198c610b87565b6001600160a01b03167f6661a7108aecd07864384529117d96c319c1163e3010c01390f6b704726e07de60405160405180910390a350565b60006119d281610bcf610b87565b6119dd826004614842565b61016154116040518060400160405280600681526020016530303930303760d01b81525090611a1f5760405162461bcd60e51b8152600401610c129190614601565b505061016555565b60016101696000611a36610b87565b6001600160a01b039081168252602080830193909352604091820160009081209186168152600790910190925290205460ff166002811115611a7a57611a7a61493d565b146040518060400160405280600681526020016530303930313160d01b81525090611ab85760405162461bcd60e51b8152600401610c129190614601565b5060006101696000611ac8610b87565b6001600160a01b03908116825260208083019390935260409182016000908120918616815260079091019092529020805460ff19166001836002811115611b1157611b1161493d565b0217905550806001600160a01b0316611b28610b87565b6001600160a01b03167f35672c674c91f8b0025681a1c8d11a4ca6583e909553290ecfb3d6578faa8bce60405160405180910390a350565b60335460ff1615611b835760405162461bcd60e51b8152600401610c1290614704565b60008181526101676020908152604091829020600401548251808401909352600683526530303230303360d01b918301919091528291906001600160a01b0316611be05760405162461bcd60e51b8152600401610c129190614601565b5081611bea610b87565b60008281526101676020908152604091829020600401548251808401909352600683526518181918181960d11b9183019190915290916001600160a01b03918216911614611c4b5760405162461bcd60e51b8152600401610c129190614601565b506000838152610167602052604090819020905163dae5e84360e01b81526004810182905273__$9449e77bcfc6c744eba20e6cac20521bf9$__9063dae5e8439060240160006040518083038186803b158015611ca757600080fd5b505af4158015611cbb573d6000803e3d6000fd5b50505050806002015461016a6000611cd1610b87565b6001600160a01b03166001600160a01b031681526020019081526020016000206000828254611d009190614808565b90915550611d0e9050610b87565b6001600160a01b0316600080516020614a3b8339815191528260020154604051611d3a91815260200190565b60405180910390a2611d4a610b87565b6001600160a01b0316847f205302058bf3afb5ece22c5535eab6ea487294c8339c2a194fc6476219badbcd8360020154604051611d8991815260200190565b60405180910390a350505050565b611da46000610804610b87565b611e035760405162461bcd60e51b815260206004820152602a60248201527f4d75737420686176652044454641554c545f41444d494e5f524f4c4520726f6c6044820152696520746f20706175736560b01b6064820152608401610c12565b6118886134f8565b600082815260fb60205260408120611e239083613551565b9392505050565b600091825260c9602090815260408084206001600160a01b0393909316845291905290205460ff1690565b6001816001811115611e6957611e6961493d565b1415611ee057610161548210156040518060400160405280600681526020016530303930303360d01b81525090611eb35760405162461bcd60e51b8152600401610c129190614601565b50816101696000611ec2610b87565b6001600160a01b031681526020810191909152604001600020600101555b816101696000611eee610b87565b6001600160a01b031681526020810191909152604001600020555050565b60008381526101676020908152604091829020600401548251808401909352600683526530303230303360d01b918301919091528491906001600160a01b0316611f695760405162461bcd60e51b8152600401610c129190614601565b50611f72610b87565b60008581526101676020908152604091829020600501548251808401909352600683526518181918181960d11b9183019190915290916001600160a01b03918216911614611fd35760405162461bcd60e51b8152600401610c129190614601565b50600080611fe286868661355d565b91509150611fee610b87565b60008781526101676020526040908190206004015490516001600160a01b03928316929091169088907fff7a1ecaac27eed4c6bd348a8dd8d05ed71190db5b77e89f881fa74087429bc990612048908a90889088906146df565b60405180910390a4505050505050565b6001600160a01b03831660009081526101696020526040808220905163074a590760e01b81526004810185905260248101849052600290910160448201526060919073__$9449e77bcfc6c744eba20e6cac20521bf9$__9063074a5907906064015b60006040518083038186803b1580156120d257600080fd5b505af41580156120e6573d6000803e3d6000fd5b505050506040513d6000823e601f3d908101601f1916820160405261210e9190810190614256565b91509150935093915050565b6001600160a01b03831660009081526101696020526040808220905163074a590760e01b81526004810185905260248101849052600390910160448201526060919073__$9449e77bcfc6c744eba20e6cac20521bf9$__9063074a5907906064016120ba565b6001610169600061218f610b87565b6001600160a01b03908116825260208083019390935260409182016000908120918616815260069091019092529020556121c7610b87565b6001600160a01b0316816001600160a01b03167fbccc71dc7842b86291138666aa18e133ee6d41aa71e6d7c650debad1a057663560405160405180910390a350565b60008181526101676020908152604091829020600401548251808401909352600683526530303230303360d01b918301919091528291906001600160a01b03166122665760405162461bcd60e51b8152600401610c129190614601565b50600082815261016760205260409081902090516301f2553b60e11b81526004810182905273__$9449e77bcfc6c744eba20e6cac20521bf9$__906303e4aa769060240160006040518083038186803b1580156122c257600080fd5b505af41580156122d6573d6000803e3d6000fd5b50505050600034116040518060400160405280600681526020016530303330303560d01b8152509061231b5760405162461bcd60e51b8152600401610c129190614601565b50600073__$9449e77bcfc6c744eba20e6cac20521bf9$__63feac0f7061016886612344610b87565b6040516001600160e01b031960e086901b168152600481019390935260248301919091526001600160a01b0316604482015234606482015260840160206040518083038186803b15801561239757600080fd5b505af41580156123ab573d6000803e3d6000fd5b505050506040513d601f19601f820116820180604052508101906123cf9190614325565b60405163aebe518360e01b8152600481018490526024810182905234604482015290915073__$9449e77bcfc6c744eba20e6cac20521bf9$__9063aebe51839060640160006040518083038186803b15801561242a57600080fd5b505af415801561243e573d6000803e3d6000fd5b5050505060006101696000612451610b87565b6001600160a01b03168152602081019190915260409081016000209051631bebc41b60e01b8152600481018290526024810184905290915073__$9449e77bcfc6c744eba20e6cac20521bf9$__90631bebc41b9060440160006040518083038186803b1580156124c057600080fd5b505af41580156124d4573d6000803e3d6000fd5b505050506124e0610b87565b6001600160a01b031682867fb8a61f3258608a2f1af184e4640b08e6cd69126e3c563d30b6348ebfb51558843460405161251c91815260200190565b60405180910390a45050505050565b600061253981610bcf610b87565b6101635460408051808201909152600681526506060726060760d31b6020820152906001600160a01b03166125815760405162461bcd60e51b8152600401610c129190614601565b505061016380546001600160a01b0319166001600160a01b0392909216919091179055565b60008281526101676020908152604091829020600401548251808401909352600683526530303230303360d01b918301919091528391906001600160a01b03166126035760405162461bcd60e51b8152600401610c129190614601565b508261260d610b87565b60008281526101676020908152604091829020600401548251808401909352600683526518181918181960d11b9183019190915290916001600160a01b0391821691161461266e5760405162461bcd60e51b8152600401610c129190614601565b508280600210156040518060400160405280600681526020016530303230313160d01b815250906126b25760405162461bcd60e51b8152600401610c129190614601565b5060036000868152610167602052604090206009015460ff1660038111156126dc576126dc61493d565b146040518060400160405280600681526020016530303230303960d01b8152509061271a5760405162461bcd60e51b8152600401610c129190614601565b50600085815261016760205260408120600b015460ff1660028111156127425761274261493d565b146040518060400160405280600681526020016518181918189960d11b815250906127805760405162461bcd60e51b8152600401610c129190614601565b508360028111156127935761279361493d565b600086815261016760205260409020600b01805460ff191660018360028111156127bf576127bf61493d565b02179055506000858152610167602052604090819020600581015460049091015491516001600160a01b03918216929091169087907fba2e4b16cb7f6bbe19c7a1146539a78ed1db3efbb3dd80d6c65f0ba1d84034599061251c9089815260200190565b60008061283281610bcf610b87565b4791505b5090565b60335460ff161561285d5760405162461bcd60e51b8152600401610c1290614704565b600261012d5414156128815760405162461bcd60e51b8152600401610c1290614779565b600261012d5561016a6000612894610b87565b6001600160a01b03166001600160a01b03168152602001908152602001600020548211156040518060400160405280600681526020016530303930303160d01b815250906128f55760405162461bcd60e51b8152600401610c129190614601565b508161016a6000612904610b87565b6001600160a01b03166001600160a01b0316815260200190815260200160002060008282546129339190614861565b9091555061294390508183613302565b806001600160a01b0316612955610b87565b6001600160a01b03167fddf252ad1be2c89b69c2b068fc378daa952ba7f163c4a11628f55a4df523b3ef8460405161298f91815260200190565b60405180910390a35050600161012d55565b6001600160a01b03831660009081526101696020526040808220905163074a590760e01b815260048082018690526024820185905290910160448201526060919073__$9449e77bcfc6c744eba20e6cac20521bf9$__9063074a5907906064016120ba565b600061016a6000612a15610b87565b6001600160a01b03166001600160a01b0316815260200190815260200160002054905090565b600081815260fb60205260408120610bbb90613889565b600082815260c96020526040902060010154612a7081610bcf610b87565b61167d838361343d565b6000612a868484612ad4565b15612a9357506000611e23565b6001821415612aac57612aa583613893565b9050611e23565b612ab5836138dd565b949350505050565b6000612acb81610bcf610b87565b61170c82613921565b60006002611395565b60006101696000612aec610b87565b6001600160a01b0390811682526020808301939093526040918201600090812091861681526006909101909252902055612b24610b87565b6001600160a01b0316816001600160a01b03167fe5dcccfe8e7890c6d4aa94d44c3b409fb6f023337f29c3308077c0c4068192c460405160405180910390a350565b60335460ff1615612b895760405162461bcd60e51b8152600401610c1290614704565b60008181526101686020908152604091829020548251808401909352600683526530303330303360d01b918301919091528291906001600160a01b0316612be35760405162461bcd60e51b8152600401610c129190614601565b5081612bed610b87565b60008281526101686020908152604091829020548251808401909352600683526518181998181960d11b9183019190915290916001600160a01b03918216911614612c4b5760405162461bcd60e51b8152600401610c129190614601565b50600083815261016860209081526040808320600381015484526101679092529182902091516318b5b06760e21b8152600481018290526024810183905290919073__$9449e77bcfc6c744eba20e6cac20521bf9$__906362d6c19c9060440160006040518083038186803b158015612cc357600080fd5b505af4158015612cd7573d6000803e3d6000fd5b50505050816001015461016a6000612ced610b87565b6001600160a01b03166001600160a01b031681526020019081526020016000206000828254612d1c9190614808565b90915550612d2a9050610b87565b6001600160a01b0316600080516020614a3b8339815191528360010154604051612d5691815260200190565b60405180910390a2612d66610b87565b6001600160a01b03168583600301547f8827140ed7e0aee657f6d8ab3d65b02d30022ed333e284958313db49217e7c3e856001015460405161251c91815260200190565b60006001821415612dbe5750506101615490565b50506101605490565b6065546000906001600160a01b0316331415612dea575060131936013560601c90565b503390565b90565b60006001600160e01b03198216637965db0b60e01b1480610bbb57506301ffc9a760e01b6001600160e01b0319831614610bbb565b612e318282611e2a565b61170c57612e49816001600160a01b0316601461396a565b612e5483602061396a565b604051602001612e65929190614520565b60408051601f198184030181529082905262461bcd60e51b8252610c1291600401614601565b600054610100900460ff16612eb25760405162461bcd60e51b8152600401610c129061472e565b612eba613b06565b612ec2613b06565b612eca613b06565b611888613b06565b600054610100900460ff16612ef95760405162461bcd60e51b8152600401610c129061472e565b611888613b2d565b600054610100900460ff16612f285760405162461bcd60e51b8152600401610c129061472e565b612f30613b06565b611888613b5c565b600054610100900460ff16612f5f5760405162461bcd60e51b8152600401610c129061472e565b612f67613b06565b612f7081613921565b50565b61170c828261341b565b600082815260c96020526040808220600101805490849055905190918391839186917fbd79b86ffe0ab8e8776151514217cd7cacd52c909f66475c3af44e129f0b00ff9190a4505050565b60008073__$9449e77bcfc6c744eba20e6cac20521bf9$__63b0b67fa8848a6040518363ffffffff1660e01b8152600401613004929190614614565b60206040518083038186803b15801561301c57600080fd5b505af4158015613030573d6000803e3d6000fd5b505050506040513d601f19601f820116820180604052508101906130549190614325565b604080516000808252602082019092529192506130718742614808565b9050604051806101a001604052808681526020016040518060200160405280600081525081526020018981526020018981526020018b6001600160a01b031681526020018a6001600160a01b03168152602001838152602001428152602001828152602001600060038111156130e9576130e961493d565b815260200160008152602001600060028111156131085761310861493d565b81526020908101889052600085815261016782526040902082518051919261313592849290910190613fd9565b50602082810151805161314e9260018501920190613fd9565b50604082015160028201556060820151600382015560808201516004820180546001600160a01b039283166001600160a01b03199182161790915560a084015160058401805491909316911617905560c082015180516131b8916006840191602090910190614059565b5060e08201516007820155610100820151600882015561012082015160098201805460ff191660018360038111156131f2576131f261493d565b0217905550610140820151600a820155610160820151600b8201805460ff191660018360028111156132265761322661493d565b02179055506101809190910151600c9091015585613272576001600160a01b038916600090815261016960209081526040822060020180546001810182559083529120018390556132a2565b6001600160a01b038916600090815261016960209081526040822060030180546001810182559083529120018390555b896001600160a01b0316838a6001600160a01b03167fdda647d1e751b8df0a785cd75e0c734774777ff91018aa17aa79bf515f8511558b858a8c6040516132ec94939291906147d8565b60405180910390a4509098975050505050505050565b804710156133525760405162461bcd60e51b815260206004820152601d60248201527f416464726573733a20696e73756666696369656e742062616c616e63650000006044820152606401610c12565b6000826001600160a01b03168260405160006040518083038185875af1925050503d806000811461339f576040519150601f19603f3d011682016040523d82523d6000602084013e6133a4565b606091505b505090508061167d5760405162461bcd60e51b815260206004820152603a60248201527f416464726573733a20756e61626c6520746f2073656e642076616c75652c207260448201527f6563697069656e74206d617920686176652072657665727465640000000000006064820152608401610c12565b6134258282613b8f565b600082815260fb6020526040902061167d9082613c16565b6134478282613c2b565b600082815260fb6020526040902061167d9082613cb0565b60335460ff166134a85760405162461bcd60e51b815260206004820152601460248201527314185d5cd8589b194e881b9bdd081c185d5cd95960621b6044820152606401610c12565b6033805460ff191690557f5db9ee0a495bf2e6ff9c91a7834c1ba4fdd244a5e8aa4e537bd38aeae4b073aa6134db610b87565b6040516001600160a01b03909116815260200160405180910390a1565b60335460ff161561351b5760405162461bcd60e51b8152600401610c1290614704565b6033805460ff191660011790557f62e78cea01bee320cd4e420270b5ea74000d11b0c9f74754ebdbfc544b05a2586134db610b87565b6000611e238383613cc5565b60008381526101676020526040808220905163e7f8899d60e01b81526004810182905282919073__$9449e77bcfc6c744eba20e6cac20521bf9$__9063e7f8899d9060240160006040518083038186803b1580156135ba57600080fd5b505af41580156135ce573d6000803e3d6000fd5b50506101635460009250600160a01b900460ff16159050613604576004820154613601906001600160a01b031686613cef565b90505b604051633f46f90d60e21b815273__$9449e77bcfc6c744eba20e6cac20521bf9$__9063fd1be4349061363f90859085908b906004016147b0565b60006040518083038186803b15801561365757600080fd5b505af415801561366b573d6000803e3d6000fd5b5050505060008061368484600201548560030154613dc6565b9150915083600201546000141580156136e1575060048401546136bc906001600160a01b03166136b2610b87565b86600c0154612a7a565b610166546136ca9190614842565b846002015485600301546136de9190614861565b10155b156137e65760006136f3600284614820565b90506136ff8282614808565b61016a600061370c610b87565b6001600160a01b03166001600160a01b03168152602001908152602001600020600082825461373b9190614808565b909155505060048501546001600160a01b0316600090815261016a60205260408120805483929061376d908490614808565b9091555061377b9050610b87565b6001600160a01b0316600080516020614a3b83398151915261379d8484614808565b60405190815260200160405180910390a260048501546040518281526001600160a01b0390911690600080516020614a3b8339815191529060200160405180910390a25061386e565b6137f08183614808565b61016a60006137fd610b87565b6001600160a01b03166001600160a01b03168152602001908152602001600020600082825461382c9190614808565b9091555061383a9050610b87565b6001600160a01b0316600080516020614a3b83398151915261385c8385614808565b60405190815260200160405180910390a25b826138798284614808565b9550955050505050935093915050565b6000610bbb825490565b6001600160a01b038116600090815261016960205260408120600101546138bd5750506101615490565b506001600160a01b03166000908152610169602052604090206001015490565b6001600160a01b038116600090815261016960205260408120546139045750506101605490565b506001600160a01b03166000908152610169602052604090205490565b600054610100900460ff166139485760405162461bcd60e51b8152600401610c129061472e565b606580546001600160a01b0319166001600160a01b0392909216919091179055565b60606000613979836002614842565b613984906002614808565b67ffffffffffffffff81111561399c5761399c61497f565b6040519080825280601f01601f1916602001820160405280156139c6576020820181803683370190505b509050600360fc1b816000815181106139e1576139e1614969565b60200101906001600160f81b031916908160001a905350600f60fb1b81600181518110613a1057613a10614969565b60200101906001600160f81b031916908160001a9053506000613a34846002614842565b613a3f906001614808565b90505b6001811115613ab7576f181899199a1a9b1b9c1cb0b131b232b360811b85600f1660108110613a7357613a73614969565b1a60f81b828281518110613a8957613a89614969565b60200101906001600160f81b031916908160001a90535060049490941c93613ab0816148a8565b9050613a42565b508315611e235760405162461bcd60e51b815260206004820181905260248201527f537472696e67733a20686578206c656e67746820696e73756666696369656e746044820152606401610c12565b600054610100900460ff166118885760405162461bcd60e51b8152600401610c129061472e565b600054610100900460ff16613b545760405162461bcd60e51b8152600401610c129061472e565b600161012d55565b600054610100900460ff16613b835760405162461bcd60e51b8152600401610c129061472e565b6033805460ff19169055565b613b998282611e2a565b61170c57600082815260c9602090815260408083206001600160a01b03851684529091529020805460ff19166001179055613bd2610b87565b6001600160a01b0316816001600160a01b0316837f2f8788117e7eff1d82e926ec794901d17c78024a50270940304540a733656f0d60405160405180910390a45050565b6000611e23836001600160a01b038416613e97565b613c358282611e2a565b1561170c57600082815260c9602090815260408083206001600160a01b03851684529091529020805460ff19169055613c6c610b87565b6001600160a01b0316816001600160a01b0316837ff6391f5c32d9c69d2a47ea670b442974b53935d1edc7fd64eb21e047a839171b60405160405180910390a45050565b6000611e23836001600160a01b038416613ee6565b6000826000018281548110613cdc57613cdc614969565b9060005260206000200154905092915050565b6101635460405163d0def52160e01b81526000916001600160a01b03169063d0def52190613d239086908690600401614595565b602060405180830381600087803b158015613d3d57600080fd5b505af1925050508015613d6d575060408051601f3d908101601f19168201909252613d6a91810190614325565b60015b613dbf57613d79614995565b806308c379a01415613db35750613d8e6149b0565b80613d995750613db5565b8060405162461bcd60e51b8152600401610c129190614601565b505b3d6000803e3d6000fd5b9050610bbb565b600080806127106bffffffffffffffffffffffff16610162548686613deb9190614861565b613df59190614842565b613dff9190614820565b905060006127106bffffffffffffffffffffffff166101625487613e239190614842565b613e2d9190614820565b9050613e398183614808565b61015f546001600160a01b0316600090815261016a602052604081208054909190613e65908490614808565b90915550829050613e768787614861565b613e809190614861565b613e8a8288614861565b9350935050509250929050565b6000818152600183016020526040812054613ede57508154600181810184556000848152602080822090930184905584548482528286019093526040902091909155610bbb565b506000610bbb565b60008181526001830160205260408120548015613fcf576000613f0a600183614861565b8554909150600090613f1e90600190614861565b9050818114613f83576000866000018281548110613f3e57613f3e614969565b9060005260206000200154905080876000018481548110613f6157613f61614969565b6000918252602080832090910192909255918252600188019052604090208390555b8554869080613f9457613f94614953565b600190038181906000526020600020016000905590558560010160008681526020019081526020016000206000905560019350505050610bbb565b6000915050610bbb565b828054613fe5906148bf565b90600052602060002090601f016020900481019282614007576000855561404d565b82601f1061402057805160ff191683800117855561404d565b8280016001018555821561404d579182015b8281111561404d578251825591602001919060010190614032565b50612836929150614093565b82805482825590600052602060002090810192821561404d579160200282018281111561404d578251825591602001919060010190614032565b5b808211156128365760008155600101614094565b80356001600160a01b03811681146140bf57600080fd5b919050565b600082601f8301126140d557600080fd5b813567ffffffffffffffff8111156140ef576140ef61497f565b604051614106601f8301601f1916602001826148fa565b81815284602083860101111561411b57600080fd5b816020850160208301376000918101602001919091529392505050565b60006020828403121561414a57600080fd5b611e23826140a8565b6000806040838503121561416657600080fd5b61416f836140a8565b915061417d602084016140a8565b90509250929050565b60008060006060848603121561419b57600080fd5b6141a4846140a8565b92506141b2602085016140a8565b9150604084013590509250925092565b6000806000606084860312156141d757600080fd5b6141e0846140a8565b95602085013595506040909401359392505050565b6000806000806080858703121561420b57600080fd5b614214856140a8565b93506020850135925060408501359150606085013567ffffffffffffffff81111561423e57600080fd5b61424a878288016140c4565b91505092959194509250565b6000806040838503121561426957600080fd5b825167ffffffffffffffff8082111561428157600080fd5b818501915085601f83011261429557600080fd5b81516020828211156142a9576142a961497f565b8160051b92506040516142be828501826148fa565b82815281810185830185870184018b10156142d857600080fd5b600096505b848710156142fb5780518252600196909601959083019083016142dd565b505096015195979596505050505050565b60006020828403121561431e57600080fd5b5035919050565b60006020828403121561433757600080fd5b5051919050565b6000806040838503121561435157600080fd5b8235915061417d602084016140a8565b60008060006060848603121561437657600080fd5b83359250602084013567ffffffffffffffff8082111561439557600080fd5b6143a1878388016140c4565b935060408601359150808211156143b757600080fd5b506143c4868287016140c4565b9150509250925092565b600080604083850312156143e157600080fd5b50508035926020909101359150565b60008060006060848603121561440557600080fd5b505081359360208301359350604090920135919050565b60006020828403121561442e57600080fd5b81356001600160e01b031981168114611e2357600080fd5b6000806040838503121561445957600080fd5b8235915060208301356002811061446f57600080fd5b809150509250929050565b60008060008060008060c0878903121561449357600080fd5b86359550602087013594506144aa604088016140a8565b93506144b8606088016140a8565b92506144c6608088016140a8565b91506144d460a088016140a8565b90509295509295509295565b600381106144f0576144f061493d565b9052565b6000815180845261450c816020860160208601614878565b601f01601f19169290920160200192915050565b7f416363657373436f6e74726f6c3a206163636f756e7420000000000000000000815260008351614558816017850160208801614878565b7001034b99036b4b9b9b4b733903937b6329607d1b6017918401918201528351614589816028840160208801614878565b01602801949350505050565b6001600160a01b0383168152604060208201819052600090612ab5908301846144f4565b604080825283519082018190526000906020906060840190828701845b828110156145f2578151845292840192908401906001016145d6565b50505092019290925292915050565b602081526000611e2360208301846144f4565b60408152600061462760408301856144f4565b905060018060a01b03831660208301529392505050565b6101808152600061465361018083018f6144f4565b8281036020840152614665818f6144f4565b604084018e9052606084018d90526001600160a01b038c811660808601528b1660a085015260c084018a905260e08401899052915050600486106146ab576146ab61493d565b85610100830152846101208301526146c76101408301856144e0565b826101608301529d9c50505050505050505050505050565b6060815260006146f260608301866144f4565b60208301949094525060400152919050565b60208082526010908201526f14185d5cd8589b194e881c185d5cd95960821b604082015260600190565b6020808252602b908201527f496e697469616c697a61626c653a20636f6e7472616374206973206e6f74206960408201526a6e697469616c697a696e6760a81b606082015260800190565b6020808252601f908201527f5265656e7472616e637947756172643a207265656e7472616e742063616c6c00604082015260600190565b8381528260208201526060604082015260006147cf60608301846144f4565b95945050505050565b8481528360208201526080604082015260006147f760808301856144f4565b905082606083015295945050505050565b6000821982111561481b5761481b614927565b500190565b60008261483d57634e487b7160e01b600052601260045260246000fd5b500490565b600081600019048311821515161561485c5761485c614927565b500290565b60008282101561487357614873614927565b500390565b60005b8381101561489357818101518382015260200161487b565b838111156148a2576000848401525b50505050565b6000816148b7576148b7614927565b506000190190565b600181811c908216806148d357607f821691505b602082108114156148f457634e487b7160e01b600052602260045260246000fd5b50919050565b601f8201601f1916810167ffffffffffffffff811182821017156149205761492061497f565b6040525050565b634e487b7160e01b600052601160045260246000fd5b634e487b7160e01b600052602160045260246000fd5b634e487b7160e01b600052603160045260246000fd5b634e487b7160e01b600052603260045260246000fd5b634e487b7160e01b600052604160045260246000fd5b600060033d1115612def5760046000803e5060005160e01c90565b600060443d10156149be5790565b6040516003193d81016004833e81513d67ffffffffffffffff81602484011181841117156149ee57505050505090565b8285019150815181811115614a065750505050505090565b843d8701016020828501011115614a205750505050505090565b614a2f602082860101876148fa565b50909594505050505056fe0036624afd4ac14e2ebe9b68a6ec0c6e4f6bf5bde2999a61e1fec085ca86697da26469706673582212209977f4f23c141ee3f411ee527e77412eb6e13f2a973c09425e9d5a9b8da7b41364736f6c63430008070033",
			"opcodes": "PUSH1 0x80 PUSH1 0x40 MSTORE CALLVALUE DUP1 ISZERO PUSH2 0x10 JUMPI PUSH1 0x0 DUP1 REVERT JUMPDEST POP PUSH2 0x4A90 DUP1 PUSH2 0x20 PUSH1 0x0 CODECOPY PUSH1 0x0 RETURN INVALID PUSH1 0x80 PUSH1 0x40 MSTORE PUSH1 0x4 CALLDATASIZE LT PUSH2 0x37A JUMPI PUSH1 0x0 CALLDATALOAD PUSH1 0xE0 SHR DUP1 PUSH4 0x94A34045 GT PUSH2 0x1D1 JUMPI DUP1 PUSH4 0xC0EF21EE GT PUSH2 0x102 JUMPI DUP1 PUSH4 0xDA742228 GT PUSH2 0xA0 JUMPI DUP1 PUSH4 0xF224AA4F GT PUSH2 0x6F JUMPI DUP1 PUSH4 0xF224AA4F EQ PUSH2 0xAD9 JUMPI DUP1 PUSH4 0xF36C8F5C EQ PUSH2 0xAF9 JUMPI DUP1 PUSH4 0xF8F4E18A EQ PUSH2 0xB2D JUMPI DUP1 PUSH4 0xFEA32600 EQ PUSH2 0xB67 JUMPI PUSH1 0x0 DUP1 REVERT JUMPDEST DUP1 PUSH4 0xDA742228 EQ PUSH2 0xA62 JUMPI DUP1 PUSH4 0xDC1A0911 EQ PUSH2 0xA82 JUMPI DUP1 PUSH4 0xE86DEA4A EQ PUSH2 0xAA2 JUMPI DUP1 PUSH4 0xF107CFCB EQ PUSH2 0xAB9 JUMPI PUSH1 0x0 DUP1 REVERT JUMPDEST DUP1 PUSH4 0xD00A818F GT PUSH2 0xDC JUMPI DUP1 PUSH4 0xD00A818F EQ PUSH2 0x9EA JUMPI DUP1 PUSH4 0xD547741F EQ PUSH2 0xA01 JUMPI DUP1 PUSH4 0xD56D229D EQ PUSH2 0xA21 JUMPI DUP1 PUSH4 0xD9FFFC82 EQ PUSH2 0xA42 JUMPI PUSH1 0x0 DUP1 REVERT JUMPDEST DUP1 PUSH4 0xC0EF21EE EQ PUSH2 0x992 JUMPI DUP1 PUSH4 0xC415B95C EQ PUSH2 0x9A9 JUMPI DUP1 PUSH4 0xCA15C873 EQ PUSH2 0x9CA JUMPI PUSH1 0x0 DUP1 REVERT JUMPDEST DUP1 PUSH4 0xA7CCABDF GT PUSH2 0x16F JUMPI DUP1 PUSH4 0xB69EF8A8 GT PUSH2 0x149 JUMPI DUP1 PUSH4 0xB69EF8A8 EQ PUSH2 0x928 JUMPI DUP1 PUSH4 0xB7760C8F EQ PUSH2 0x93D JUMPI DUP1 PUSH4 0xBE841E02 EQ PUSH2 0x95D JUMPI DUP1 PUSH4 0xBF152765 EQ PUSH2 0x97D JUMPI PUSH1 0x0 DUP1 REVERT JUMPDEST DUP1 PUSH4 0xA7CCABDF EQ PUSH2 0x8D1 JUMPI DUP1 PUSH4 0xAAFA3061 EQ PUSH2 0x8F1 JUMPI DUP1 PUSH4 0xB1DF7383 EQ PUSH2 0x908 JUMPI PUSH1 0x0 DUP1 REVERT JUMPDEST DUP1 PUSH4 0xA217FDDF GT PUSH2 0x1AB JUMPI DUP1 PUSH4 0xA217FDDF EQ PUSH2 0x869 JUMPI DUP1 PUSH4 0xA3C15A03 EQ PUSH2 0x87E JUMPI DUP1 PUSH4 0xA70806F7 EQ PUSH2 0x89E JUMPI DUP1 PUSH4 0xA740D68E EQ PUSH2 0x8BE JUMPI PUSH1 0x0 DUP1 REVERT JUMPDEST DUP1 PUSH4 0x94A34045 EQ PUSH2 0x809 JUMPI DUP1 PUSH4 0x96858061 EQ PUSH2 0x829 JUMPI DUP1 PUSH4 0xA0241342 EQ PUSH2 0x849 JUMPI PUSH1 0x0 DUP1 REVERT JUMPDEST DUP1 PUSH4 0x3F4BA83A GT PUSH2 0x2AB JUMPI DUP1 PUSH4 0x65F898E1 GT PUSH2 0x249 JUMPI DUP1 PUSH4 0x8456CB59 GT PUSH2 0x223 JUMPI DUP1 PUSH4 0x8456CB59 EQ PUSH2 0x762 JUMPI DUP1 PUSH4 0x8A061282 EQ PUSH2 0x777 JUMPI DUP1 PUSH4 0x9010D07C EQ PUSH2 0x7B1 JUMPI DUP1 PUSH4 0x91D14854 EQ PUSH2 0x7E9 JUMPI PUSH1 0x0 DUP1 REVERT JUMPDEST DUP1 PUSH4 0x65F898E1 EQ PUSH2 0x70B JUMPI DUP1 PUSH4 0x79CED747 EQ PUSH2 0x72B JUMPI DUP1 PUSH4 0x83579125 EQ PUSH2 0x742 JUMPI PUSH1 0x0 DUP1 REVERT JUMPDEST DUP1 PUSH4 0x4D31A6ED GT PUSH2 0x285 JUMPI DUP1 PUSH4 0x4D31A6ED EQ PUSH2 0x621 JUMPI DUP1 PUSH4 0x572B6C05 EQ PUSH2 0x638 JUMPI DUP1 PUSH4 0x5C975ABB EQ PUSH2 0x667 JUMPI DUP1 PUSH4 0x602BF227 EQ PUSH2 0x67F JUMPI PUSH1 0x0 DUP1 REVERT JUMPDEST DUP1 PUSH4 0x3F4BA83A EQ PUSH2 0x5CC JUMPI DUP1 PUSH4 0x4A4C560D EQ PUSH2 0x5E1 JUMPI DUP1 PUSH4 0x4B8E7A34 EQ PUSH2 0x601 JUMPI PUSH1 0x0 DUP1 REVERT JUMPDEST DUP1 PUSH4 0x2BBD59CA GT PUSH2 0x318 JUMPI DUP1 PUSH4 0x2ECEFAD1 GT PUSH2 0x2F2 JUMPI DUP1 PUSH4 0x2ECEFAD1 EQ PUSH2 0x53E JUMPI DUP1 PUSH4 0x2F2FF15D EQ PUSH2 0x56C JUMPI DUP1 PUSH4 0x36568ABE EQ PUSH2 0x58C JUMPI DUP1 PUSH4 0x3DA01325 EQ PUSH2 0x5AC JUMPI PUSH1 0x0 DUP1 REVERT JUMPDEST DUP1 PUSH4 0x2BBD59CA EQ PUSH2 0x4C6 JUMPI DUP1 PUSH4 0x2C8D6FD6 EQ PUSH2 0x4FE JUMPI DUP1 PUSH4 0x2E1A7D4D EQ PUSH2 0x51E JUMPI PUSH1 0x0 DUP1 REVERT JUMPDEST DUP1 PUSH4 0x10E51E14 GT PUSH2 0x354 JUMPI DUP1 PUSH4 0x10E51E14 EQ PUSH2 0x435 JUMPI DUP1 PUSH4 0x190C69A2 EQ PUSH2 0x455 JUMPI DUP1 PUSH4 0x20D4F41B EQ PUSH2 0x475 JUMPI DUP1 PUSH4 0x248A9CA3 EQ PUSH2 0x496 JUMPI PUSH1 0x0 DUP1 REVERT JUMPDEST DUP1 PUSH4 0x1FFC9A7 EQ PUSH2 0x3BE JUMPI DUP1 PUSH4 0x49C067A EQ PUSH2 0x3F3 JUMPI DUP1 PUSH4 0x9B82CFD EQ PUSH2 0x415 JUMPI PUSH1 0x0 DUP1 REVERT JUMPDEST CALLDATASIZE PUSH2 0x3B9 JUMPI PUSH2 0x387 PUSH2 0xB87 JUMP JUMPDEST PUSH1 0x1 PUSH1 0x1 PUSH1 0xA0 SHL SUB AND PUSH1 0x0 DUP1 MLOAD PUSH1 0x20 PUSH2 0x4A3B DUP4 CODECOPY DUP2 MLOAD SWAP2 MSTORE CALLVALUE PUSH1 0x40 MLOAD PUSH2 0x3AF SWAP2 DUP2 MSTORE PUSH1 0x20 ADD SWAP1 JUMP JUMPDEST PUSH1 0x40 MLOAD DUP1 SWAP2 SUB SWAP1 LOG2 STOP JUMPDEST PUSH1 0x0 DUP1 REVERT JUMPDEST CALLVALUE DUP1 ISZERO PUSH2 0x3CA JUMPI PUSH1 0x0 DUP1 REVERT JUMPDEST POP PUSH2 0x3DE PUSH2 0x3D9 CALLDATASIZE PUSH1 0x4 PUSH2 0x441C JUMP JUMPDEST PUSH2 0xB96 JUMP JUMPDEST PUSH1 0x40 MLOAD SWAP1 ISZERO ISZERO DUP2 MSTORE PUSH1 0x20 ADD JUMPDEST PUSH1 0x40 MLOAD DUP1 SWAP2 SUB SWAP1 RETURN JUMPDEST CALLVALUE DUP1 ISZERO PUSH2 0x3FF JUMPI PUSH1 0x0 DUP1 REVERT JUMPDEST POP PUSH2 0x413 PUSH2 0x40E CALLDATASIZE PUSH1 0x4 PUSH2 0x430C JUMP JUMPDEST PUSH2 0xBC1 JUMP JUMPDEST STOP JUMPDEST CALLVALUE DUP1 ISZERO PUSH2 0x421 JUMPI PUSH1 0x0 DUP1 REVERT JUMPDEST POP PUSH2 0x413 PUSH2 0x430 CALLDATASIZE PUSH1 0x4 PUSH2 0x4446 JUMP JUMPDEST PUSH2 0xC23 JUMP JUMPDEST CALLVALUE DUP1 ISZERO PUSH2 0x441 JUMPI PUSH1 0x0 DUP1 REVERT JUMPDEST POP PUSH2 0x413 PUSH2 0x450 CALLDATASIZE PUSH1 0x4 PUSH2 0x447A JUMP JUMPDEST PUSH2 0xCAE JUMP JUMPDEST CALLVALUE DUP1 ISZERO PUSH2 0x461 JUMPI PUSH1 0x0 DUP1 REVERT JUMPDEST POP PUSH2 0x413 PUSH2 0x470 CALLDATASIZE PUSH1 0x4 PUSH2 0x4138 JUMP JUMPDEST PUSH2 0xEB8 JUMP JUMPDEST PUSH2 0x488 PUSH2 0x483 CALLDATASIZE PUSH1 0x4 PUSH2 0x41F5 JUMP JUMPDEST PUSH2 0xF5F JUMP JUMPDEST PUSH1 0x40 MLOAD SWAP1 DUP2 MSTORE PUSH1 0x20 ADD PUSH2 0x3EA JUMP JUMPDEST CALLVALUE DUP1 ISZERO PUSH2 0x4A2 JUMPI PUSH1 0x0 DUP1 REVERT JUMPDEST POP PUSH2 0x488 PUSH2 0x4B1 CALLDATASIZE PUSH1 0x4 PUSH2 0x430C JUMP JUMPDEST PUSH1 0x0 SWAP1 DUP2 MSTORE PUSH1 0xC9 PUSH1 0x20 MSTORE PUSH1 0x40 SWAP1 KECCAK256 PUSH1 0x1 ADD SLOAD SWAP1 JUMP JUMPDEST CALLVALUE DUP1 ISZERO PUSH2 0x4D2 JUMPI PUSH1 0x0 DUP1 REVERT JUMPDEST POP PUSH2 0x4E6 PUSH2 0x4E1 CALLDATASIZE PUSH1 0x4 PUSH2 0x430C JUMP JUMPDEST PUSH2 0x120E JUMP JUMPDEST PUSH1 0x40 MLOAD PUSH2 0x3EA SWAP13 SWAP12 SWAP11 SWAP10 SWAP9 SWAP8 SWAP7 SWAP6 SWAP5 SWAP4 SWAP3 SWAP2 SWAP1 PUSH2 0x463E JUMP JUMPDEST CALLVALUE DUP1 ISZERO PUSH2 0x50A JUMPI PUSH1 0x0 DUP1 REVERT JUMPDEST POP PUSH2 0x3DE PUSH2 0x519 CALLDATASIZE PUSH1 0x4 PUSH2 0x4153 JUMP JUMPDEST PUSH2 0x1390 JUMP JUMPDEST CALLVALUE DUP1 ISZERO PUSH2 0x52A JUMPI PUSH1 0x0 DUP1 REVERT JUMPDEST POP PUSH2 0x413 PUSH2 0x539 CALLDATASIZE PUSH1 0x4 PUSH2 0x430C JUMP JUMPDEST PUSH2 0x13DC JUMP JUMPDEST CALLVALUE DUP1 ISZERO PUSH2 0x54A JUMPI PUSH1 0x0 DUP1 REVERT JUMPDEST POP PUSH2 0x55E PUSH2 0x559 CALLDATASIZE PUSH1 0x4 PUSH2 0x43F0 JUMP JUMPDEST PUSH2 0x153F JUMP JUMPDEST PUSH1 0x40 MLOAD PUSH2 0x3EA SWAP3 SWAP2 SWAP1 PUSH2 0x45B9 JUMP JUMPDEST CALLVALUE DUP1 ISZERO PUSH2 0x578 JUMPI PUSH1 0x0 DUP1 REVERT JUMPDEST POP PUSH2 0x413 PUSH2 0x587 CALLDATASIZE PUSH1 0x4 PUSH2 0x433E JUMP JUMPDEST PUSH2 0x1655 JUMP JUMPDEST CALLVALUE DUP1 ISZERO PUSH2 0x598 JUMPI PUSH1 0x0 DUP1 REVERT JUMPDEST POP PUSH2 0x413 PUSH2 0x5A7 CALLDATASIZE PUSH1 0x4 PUSH2 0x433E JUMP JUMPDEST PUSH2 0x1682 JUMP JUMPDEST CALLVALUE DUP1 ISZERO PUSH2 0x5B8 JUMPI PUSH1 0x0 DUP1 REVERT JUMPDEST POP PUSH2 0x413 PUSH2 0x5C7 CALLDATASIZE PUSH1 0x4 PUSH2 0x4138 JUMP JUMPDEST PUSH2 0x1710 JUMP JUMPDEST CALLVALUE DUP1 ISZERO PUSH2 0x5D8 JUMPI PUSH1 0x0 DUP1 REVERT JUMPDEST POP PUSH2 0x413 PUSH2 0x1812 JUMP JUMPDEST CALLVALUE DUP1 ISZERO PUSH2 0x5ED JUMPI PUSH1 0x0 DUP1 REVERT JUMPDEST POP PUSH2 0x413 PUSH2 0x5FC CALLDATASIZE PUSH1 0x4 PUSH2 0x4138 JUMP JUMPDEST PUSH2 0x188A JUMP JUMPDEST CALLVALUE DUP1 ISZERO PUSH2 0x60D JUMPI PUSH1 0x0 DUP1 REVERT JUMPDEST POP PUSH2 0x413 PUSH2 0x61C CALLDATASIZE PUSH1 0x4 PUSH2 0x430C JUMP JUMPDEST PUSH2 0x19C4 JUMP JUMPDEST CALLVALUE DUP1 ISZERO PUSH2 0x62D JUMPI PUSH1 0x0 DUP1 REVERT JUMPDEST POP PUSH2 0x488 PUSH2 0x160 SLOAD DUP2 JUMP JUMPDEST CALLVALUE DUP1 ISZERO PUSH2 0x644 JUMPI PUSH1 0x0 DUP1 REVERT JUMPDEST POP PUSH2 0x3DE PUSH2 0x653 CALLDATASIZE PUSH1 0x4 PUSH2 0x4138 JUMP JUMPDEST PUSH1 0x65 SLOAD PUSH1 0x1 PUSH1 0x1 PUSH1 0xA0 SHL SUB SWAP2 DUP3 AND SWAP2 AND EQ SWAP1 JUMP JUMPDEST CALLVALUE DUP1 ISZERO PUSH2 0x673 JUMPI PUSH1 0x0 DUP1 REVERT JUMPDEST POP PUSH1 0x33 SLOAD PUSH1 0xFF AND PUSH2 0x3DE JUMP JUMPDEST CALLVALUE DUP1 ISZERO PUSH2 0x68B JUMPI PUSH1 0x0 DUP1 REVERT JUMPDEST POP PUSH2 0x6D7 PUSH2 0x69A CALLDATASIZE PUSH1 0x4 PUSH2 0x430C JUMP JUMPDEST PUSH2 0x168 PUSH1 0x20 MSTORE PUSH1 0x0 SWAP1 DUP2 MSTORE PUSH1 0x40 SWAP1 KECCAK256 DUP1 SLOAD PUSH1 0x1 DUP3 ADD SLOAD PUSH1 0x2 DUP4 ADD SLOAD PUSH1 0x3 DUP5 ADD SLOAD PUSH1 0x4 SWAP1 SWAP5 ADD SLOAD PUSH1 0x1 PUSH1 0x1 PUSH1 0xA0 SHL SUB SWAP1 SWAP4 AND SWAP4 SWAP2 SWAP3 SWAP1 SWAP2 SWAP1 PUSH1 0xFF AND DUP6 JUMP JUMPDEST PUSH1 0x40 DUP1 MLOAD PUSH1 0x1 PUSH1 0x1 PUSH1 0xA0 SHL SUB SWAP1 SWAP7 AND DUP7 MSTORE PUSH1 0x20 DUP7 ADD SWAP5 SWAP1 SWAP5 MSTORE SWAP3 DUP5 ADD SWAP2 SWAP1 SWAP2 MSTORE PUSH1 0x60 DUP4 ADD MSTORE ISZERO ISZERO PUSH1 0x80 DUP3 ADD MSTORE PUSH1 0xA0 ADD PUSH2 0x3EA JUMP JUMPDEST CALLVALUE DUP1 ISZERO PUSH2 0x717 JUMPI PUSH1 0x0 DUP1 REVERT JUMPDEST POP PUSH2 0x413 PUSH2 0x726 CALLDATASIZE PUSH1 0x4 PUSH2 0x4138 JUMP JUMPDEST PUSH2 0x1A27 JUMP JUMPDEST CALLVALUE DUP1 ISZERO PUSH2 0x737 JUMPI PUSH1 0x0 DUP1 REVERT JUMPDEST POP PUSH2 0x488 PUSH2 0x161 SLOAD DUP2 JUMP JUMPDEST CALLVALUE DUP1 ISZERO PUSH2 0x74E JUMPI PUSH1 0x0 DUP1 REVERT JUMPDEST POP PUSH2 0x413 PUSH2 0x75D CALLDATASIZE PUSH1 0x4 PUSH2 0x430C JUMP JUMPDEST PUSH2 0x1B60 JUMP JUMPDEST CALLVALUE DUP1 ISZERO PUSH2 0x76E JUMPI PUSH1 0x0 DUP1 REVERT JUMPDEST POP PUSH2 0x413 PUSH2 0x1D97 JUMP JUMPDEST CALLVALUE DUP1 ISZERO PUSH2 0x783 JUMPI PUSH1 0x0 DUP1 REVERT JUMPDEST POP PUSH2 0x488 PUSH2 0x792 CALLDATASIZE PUSH1 0x4 PUSH2 0x4138 JUMP JUMPDEST PUSH1 0x1 PUSH1 0x1 PUSH1 0xA0 SHL SUB AND PUSH1 0x0 SWAP1 DUP2 MSTORE PUSH2 0x169 PUSH1 0x20 MSTORE PUSH1 0x40 SWAP1 KECCAK256 PUSH1 0x2 ADD SLOAD SWAP1 JUMP JUMPDEST CALLVALUE DUP1 ISZERO PUSH2 0x7BD JUMPI PUSH1 0x0 DUP1 REVERT JUMPDEST POP PUSH2 0x7D1 PUSH2 0x7CC CALLDATASIZE PUSH1 0x4 PUSH2 0x43CE JUMP JUMPDEST PUSH2 0x1E0B JUMP JUMPDEST PUSH1 0x40 MLOAD PUSH1 0x1 PUSH1 0x1 PUSH1 0xA0 SHL SUB SWAP1 SWAP2 AND DUP2 MSTORE PUSH1 0x20 ADD PUSH2 0x3EA JUMP JUMPDEST CALLVALUE DUP1 ISZERO PUSH2 0x7F5 JUMPI PUSH1 0x0 DUP1 REVERT JUMPDEST POP PUSH2 0x3DE PUSH2 0x804 CALLDATASIZE PUSH1 0x4 PUSH2 0x433E JUMP JUMPDEST PUSH2 0x1E2A JUMP JUMPDEST CALLVALUE DUP1 ISZERO PUSH2 0x815 JUMPI PUSH1 0x0 DUP1 REVERT JUMPDEST POP PUSH2 0x413 PUSH2 0x824 CALLDATASIZE PUSH1 0x4 PUSH2 0x4446 JUMP JUMPDEST PUSH2 0x1E55 JUMP JUMPDEST CALLVALUE DUP1 ISZERO PUSH2 0x835 JUMPI PUSH1 0x0 DUP1 REVERT JUMPDEST POP PUSH2 0x413 PUSH2 0x844 CALLDATASIZE PUSH1 0x4 PUSH2 0x4361 JUMP JUMPDEST PUSH2 0x1F0C JUMP JUMPDEST CALLVALUE DUP1 ISZERO PUSH2 0x855 JUMPI PUSH1 0x0 DUP1 REVERT JUMPDEST POP PUSH2 0x55E PUSH2 0x864 CALLDATASIZE PUSH1 0x4 PUSH2 0x41C2 JUMP JUMPDEST PUSH2 0x2058 JUMP JUMPDEST CALLVALUE DUP1 ISZERO PUSH2 0x875 JUMPI PUSH1 0x0 DUP1 REVERT JUMPDEST POP PUSH2 0x488 PUSH1 0x0 DUP2 JUMP JUMPDEST CALLVALUE DUP1 ISZERO PUSH2 0x88A JUMPI PUSH1 0x0 DUP1 REVERT JUMPDEST POP PUSH2 0x55E PUSH2 0x899 CALLDATASIZE PUSH1 0x4 PUSH2 0x41C2 JUMP JUMPDEST PUSH2 0x211A JUMP JUMPDEST CALLVALUE DUP1 ISZERO PUSH2 0x8AA JUMPI PUSH1 0x0 DUP1 REVERT JUMPDEST POP PUSH2 0x413 PUSH2 0x8B9 CALLDATASIZE PUSH1 0x4 PUSH2 0x4138 JUMP JUMPDEST PUSH2 0x2180 JUMP JUMPDEST PUSH2 0x413 PUSH2 0x8CC CALLDATASIZE PUSH1 0x4 PUSH2 0x430C JUMP JUMPDEST PUSH2 0x2209 JUMP JUMPDEST CALLVALUE DUP1 ISZERO PUSH2 0x8DD JUMPI PUSH1 0x0 DUP1 REVERT JUMPDEST POP PUSH2 0x413 PUSH2 0x8EC CALLDATASIZE PUSH1 0x4 PUSH2 0x4138 JUMP JUMPDEST PUSH2 0x252B JUMP JUMPDEST CALLVALUE DUP1 ISZERO PUSH2 0x8FD JUMPI PUSH1 0x0 DUP1 REVERT JUMPDEST POP PUSH2 0x488 PUSH2 0x166 SLOAD DUP2 JUMP JUMPDEST CALLVALUE DUP1 ISZERO PUSH2 0x914 JUMPI PUSH1 0x0 DUP1 REVERT JUMPDEST POP PUSH2 0x413 PUSH2 0x923 CALLDATASIZE PUSH1 0x4 PUSH2 0x43CE JUMP JUMPDEST PUSH2 0x25A6 JUMP JUMPDEST CALLVALUE DUP1 ISZERO PUSH2 0x934 JUMPI PUSH1 0x0 DUP1 REVERT JUMPDEST POP PUSH2 0x488 PUSH2 0x2823 JUMP JUMPDEST CALLVALUE DUP1 ISZERO PUSH2 0x949 JUMPI PUSH1 0x0 DUP1 REVERT JUMPDEST POP PUSH2 0x413 PUSH2 0x958 CALLDATASIZE PUSH1 0x4 PUSH2 0x433E JUMP JUMPDEST PUSH2 0x283A JUMP JUMPDEST CALLVALUE DUP1 ISZERO PUSH2 0x969 JUMPI PUSH1 0x0 DUP1 REVERT JUMPDEST POP PUSH2 0x55E PUSH2 0x978 CALLDATASIZE PUSH1 0x4 PUSH2 0x41C2 JUMP JUMPDEST PUSH2 0x29A1 JUMP JUMPDEST CALLVALUE DUP1 ISZERO PUSH2 0x989 JUMPI PUSH1 0x0 DUP1 REVERT JUMPDEST POP PUSH2 0x488 PUSH2 0x2A06 JUMP JUMPDEST CALLVALUE DUP1 ISZERO PUSH2 0x99E JUMPI PUSH1 0x0 DUP1 REVERT JUMPDEST POP PUSH2 0x488 PUSH2 0x165 SLOAD DUP2 JUMP JUMPDEST CALLVALUE DUP1 ISZERO PUSH2 0x9B5 JUMPI PUSH1 0x0 DUP1 REVERT JUMPDEST POP PUSH2 0x15F SLOAD PUSH2 0x7D1 SWAP1 PUSH1 0x1 PUSH1 0x1 PUSH1 0xA0 SHL SUB AND DUP2 JUMP JUMPDEST CALLVALUE DUP1 ISZERO PUSH2 0x9D6 JUMPI PUSH1 0x0 DUP1 REVERT JUMPDEST POP PUSH2 0x488 PUSH2 0x9E5 CALLDATASIZE PUSH1 0x4 PUSH2 0x430C JUMP JUMPDEST PUSH2 0x2A3B JUMP JUMPDEST CALLVALUE DUP1 ISZERO PUSH2 0x9F6 JUMPI PUSH1 0x0 DUP1 REVERT JUMPDEST POP PUSH2 0x488 PUSH2 0x164 SLOAD DUP2 JUMP JUMPDEST CALLVALUE DUP1 ISZERO PUSH2 0xA0D JUMPI PUSH1 0x0 DUP1 REVERT JUMPDEST POP PUSH2 0x413 PUSH2 0xA1C CALLDATASIZE PUSH1 0x4 PUSH2 0x433E JUMP JUMPDEST PUSH2 0x2A52 JUMP JUMPDEST CALLVALUE DUP1 ISZERO PUSH2 0xA2D JUMPI PUSH1 0x0 DUP1 REVERT JUMPDEST POP PUSH2 0x163 SLOAD PUSH2 0x7D1 SWAP1 PUSH1 0x1 PUSH1 0x1 PUSH1 0xA0 SHL SUB AND DUP2 JUMP JUMPDEST CALLVALUE DUP1 ISZERO PUSH2 0xA4E JUMPI PUSH1 0x0 DUP1 REVERT JUMPDEST POP PUSH2 0x488 PUSH2 0xA5D CALLDATASIZE PUSH1 0x4 PUSH2 0x4186 JUMP JUMPDEST PUSH2 0x2A7A JUMP JUMPDEST CALLVALUE DUP1 ISZERO PUSH2 0xA6E JUMPI PUSH1 0x0 DUP1 REVERT JUMPDEST POP PUSH2 0x413 PUSH2 0xA7D CALLDATASIZE PUSH1 0x4 PUSH2 0x4138 JUMP JUMPDEST PUSH2 0x2ABD JUMP JUMPDEST CALLVALUE DUP1 ISZERO PUSH2 0xA8E JUMPI PUSH1 0x0 DUP1 REVERT JUMPDEST POP PUSH2 0x3DE PUSH2 0xA9D CALLDATASIZE PUSH1 0x4 PUSH2 0x4153 JUMP JUMPDEST PUSH2 0x2AD4 JUMP JUMPDEST CALLVALUE DUP1 ISZERO PUSH2 0xAAE JUMPI PUSH1 0x0 DUP1 REVERT JUMPDEST POP PUSH2 0x488 PUSH2 0x162 SLOAD DUP2 JUMP JUMPDEST CALLVALUE DUP1 ISZERO PUSH2 0xAC5 JUMPI PUSH1 0x0 DUP1 REVERT JUMPDEST POP PUSH2 0x413 PUSH2 0xAD4 CALLDATASIZE PUSH1 0x4 PUSH2 0x4138 JUMP JUMPDEST PUSH2 0x2ADD JUMP JUMPDEST CALLVALUE DUP1 ISZERO PUSH2 0xAE5 JUMPI PUSH1 0x0 DUP1 REVERT JUMPDEST POP PUSH2 0x413 PUSH2 0xAF4 CALLDATASIZE PUSH1 0x4 PUSH2 0x430C JUMP JUMPDEST PUSH2 0x2B66 JUMP JUMPDEST CALLVALUE DUP1 ISZERO PUSH2 0xB05 JUMPI PUSH1 0x0 DUP1 REVERT JUMPDEST POP PUSH2 0x488 PUSH32 0x35A7846A2A701FFF6F9D61A46EBFF5DA578C5DCEE8BDF361C569F9EA4EE64771 DUP2 JUMP JUMPDEST CALLVALUE DUP1 ISZERO PUSH2 0xB39 JUMPI PUSH1 0x0 DUP1 REVERT JUMPDEST POP PUSH2 0x488 PUSH2 0xB48 CALLDATASIZE PUSH1 0x4 PUSH2 0x4138 JUMP JUMPDEST PUSH1 0x1 PUSH1 0x1 PUSH1 0xA0 SHL SUB AND PUSH1 0x0 SWAP1 DUP2 MSTORE PUSH2 0x169 PUSH1 0x20 MSTORE PUSH1 0x40 SWAP1 KECCAK256 PUSH1 0x3 ADD SLOAD SWAP1 JUMP JUMPDEST CALLVALUE DUP1 ISZERO PUSH2 0xB73 JUMPI PUSH1 0x0 DUP1 REVERT JUMPDEST POP PUSH2 0x488 PUSH2 0xB82 CALLDATASIZE PUSH1 0x4 PUSH2 0x430C JUMP JUMPDEST PUSH2 0x2DAA JUMP JUMPDEST PUSH1 0x0 PUSH2 0xB91 PUSH2 0x2DC7 JUMP JUMPDEST SWAP1 POP SWAP1 JUMP JUMPDEST PUSH1 0x0 PUSH1 0x1 PUSH1 0x1 PUSH1 0xE0 SHL SUB NOT DUP3 AND PUSH4 0x5A05180F PUSH1 0xE0 SHL EQ DUP1 PUSH2 0xBBB JUMPI POP PUSH2 0xBBB DUP3 PUSH2 0x2DF2 JUMP JUMPDEST SWAP3 SWAP2 POP POP JUMP JUMPDEST PUSH1 0x0 PUSH2 0xBD4 DUP2 PUSH2 0xBCF PUSH2 0xB87 JUMP JUMPDEST PUSH2 0x2E27 JUMP JUMPDEST PUSH1 0x40 DUP1 MLOAD DUP1 DUP3 ADD SWAP1 SWAP2 MSTORE PUSH1 0x6 DUP2 MSTORE PUSH6 0x60607260607 PUSH1 0xD3 SHL PUSH1 0x20 DUP3 ADD MSTORE PUSH1 0x1 DUP4 GT PUSH2 0xC1B JUMPI PUSH1 0x40 MLOAD PUSH3 0x461BCD PUSH1 0xE5 SHL DUP2 MSTORE PUSH1 0x4 ADD PUSH2 0xC12 SWAP2 SWAP1 PUSH2 0x4601 JUMP JUMPDEST PUSH1 0x40 MLOAD DUP1 SWAP2 SUB SWAP1 REVERT JUMPDEST POP POP PUSH2 0x166 SSTORE JUMP JUMPDEST PUSH1 0x0 PUSH2 0xC31 DUP2 PUSH2 0xBCF PUSH2 0xB87 JUMP JUMPDEST PUSH1 0x1 DUP3 PUSH1 0x1 DUP2 GT ISZERO PUSH2 0xC45 JUMPI PUSH2 0xC45 PUSH2 0x493D JUMP JUMPDEST EQ ISZERO PUSH2 0xCA6 JUMPI PUSH2 0x165 SLOAD DUP4 LT ISZERO PUSH1 0x40 MLOAD DUP1 PUSH1 0x40 ADD PUSH1 0x40 MSTORE DUP1 PUSH1 0x6 DUP2 MSTORE PUSH1 0x20 ADD PUSH6 0x303039303033 PUSH1 0xD0 SHL DUP2 MSTORE POP SWAP1 PUSH2 0xC8F JUMPI PUSH1 0x40 MLOAD PUSH3 0x461BCD PUSH1 0xE5 SHL DUP2 MSTORE PUSH1 0x4 ADD PUSH2 0xC12 SWAP2 SWAP1 PUSH2 0x4601 JUMP JUMPDEST POP PUSH2 0x161 DUP4 SWAP1 SSTORE PUSH2 0xCA1 PUSH1 0x4 DUP5 PUSH2 0x4820 JUMP JUMPDEST PUSH2 0x165 SSTORE JUMPDEST POP POP PUSH2 0x160 SSTORE JUMP JUMPDEST PUSH1 0x0 SLOAD PUSH2 0x100 SWAP1 DIV PUSH1 0xFF AND PUSH2 0xCC9 JUMPI PUSH1 0x0 SLOAD PUSH1 0xFF AND ISZERO PUSH2 0xCCD JUMP JUMPDEST ADDRESS EXTCODESIZE ISZERO JUMPDEST PUSH2 0xD30 JUMPI PUSH1 0x40 MLOAD PUSH3 0x461BCD PUSH1 0xE5 SHL DUP2 MSTORE PUSH1 0x20 PUSH1 0x4 DUP3 ADD MSTORE PUSH1 0x2E PUSH1 0x24 DUP3 ADD MSTORE PUSH32 0x496E697469616C697A61626C653A20636F6E747261637420697320616C726561 PUSH1 0x44 DUP3 ADD MSTORE PUSH14 0x191E481A5B9A5D1A585B1A5E9959 PUSH1 0x92 SHL PUSH1 0x64 DUP3 ADD MSTORE PUSH1 0x84 ADD PUSH2 0xC12 JUMP JUMPDEST PUSH1 0x0 SLOAD PUSH2 0x100 SWAP1 DIV PUSH1 0xFF AND ISZERO DUP1 ISZERO PUSH2 0xD52 JUMPI PUSH1 0x0 DUP1 SLOAD PUSH2 0xFFFF NOT AND PUSH2 0x101 OR SWAP1 SSTORE JUMPDEST PUSH2 0x2710 DUP7 GT ISZERO PUSH2 0xDB7 JUMPI PUSH1 0x40 MLOAD PUSH3 0x461BCD PUSH1 0xE5 SHL DUP2 MSTORE PUSH1 0x20 PUSH1 0x4 DUP3 ADD MSTORE PUSH1 0x2A PUSH1 0x24 DUP3 ADD MSTORE PUSH32 0x455243323938313A20726F79616C7479206665652077696C6C20657863656564 PUSH1 0x44 DUP3 ADD MSTORE PUSH10 0x2073616C655072696365 PUSH1 0xB0 SHL PUSH1 0x64 DUP3 ADD MSTORE PUSH1 0x84 ADD PUSH2 0xC12 JUMP JUMPDEST PUSH2 0xDC2 PUSH1 0x4 DUP9 PUSH2 0x4820 JUMP JUMPDEST PUSH2 0x165 SSTORE PUSH2 0xDCE PUSH2 0x2E8B JUMP JUMPDEST PUSH2 0xDD6 PUSH2 0x2ED2 JUMP JUMPDEST PUSH2 0xDDE PUSH2 0x2F01 JUMP JUMPDEST PUSH2 0xDE7 DUP3 PUSH2 0x2F38 JUMP JUMPDEST PUSH2 0x160 DUP8 SWAP1 SSTORE PUSH2 0x161 DUP8 SWAP1 SSTORE PUSH2 0x162 DUP7 SWAP1 SSTORE PUSH2 0x163 DUP1 SLOAD PUSH2 0x15F DUP1 SLOAD PUSH1 0x1 PUSH1 0x1 PUSH1 0xA0 SHL SUB NOT AND PUSH1 0x1 PUSH1 0x1 PUSH1 0xA0 SHL SUB DUP9 DUP2 AND SWAP2 SWAP1 SWAP2 OR SWAP1 SWAP2 SSTORE PUSH2 0x384 PUSH2 0x164 SSTORE DUP8 AND PUSH1 0x1 PUSH1 0x1 PUSH1 0xA8 SHL SUB NOT SWAP1 SWAP2 AND OR SWAP1 SSTORE PUSH1 0x3 PUSH2 0x166 SSTORE PUSH2 0xE48 PUSH1 0x0 DUP5 PUSH2 0x2F73 JUMP JUMPDEST PUSH2 0xE72 PUSH32 0x35A7846A2A701FFF6F9D61A46EBFF5DA578C5DCEE8BDF361C569F9EA4EE64771 DUP5 PUSH2 0x2F73 JUMP JUMPDEST PUSH2 0xE9D PUSH32 0x35A7846A2A701FFF6F9D61A46EBFF5DA578C5DCEE8BDF361C569F9EA4EE64771 PUSH1 0x0 PUSH2 0x2F7D JUMP JUMPDEST DUP1 ISZERO PUSH2 0xEAF JUMPI PUSH1 0x0 DUP1 SLOAD PUSH2 0xFF00 NOT AND SWAP1 SSTORE JUMPDEST POP POP POP POP POP POP POP JUMP JUMPDEST PUSH1 0x0 PUSH2 0x169 PUSH1 0x0 PUSH2 0xEC7 PUSH2 0xB87 JUMP JUMPDEST PUSH1 0x1 PUSH1 0x1 PUSH1 0xA0 SHL SUB SWAP1 DUP2 AND DUP3 MSTORE PUSH1 0x20 DUP1 DUP4 ADD SWAP4 SWAP1 SWAP4 MSTORE PUSH1 0x40 SWAP2 DUP3 ADD PUSH1 0x0 SWAP1 DUP2 KECCAK256 SWAP2 DUP7 AND DUP2 MSTORE PUSH1 0x7 SWAP1 SWAP2 ADD SWAP1 SWAP3 MSTORE SWAP1 KECCAK256 DUP1 SLOAD PUSH1 0xFF NOT AND PUSH1 0x1 DUP4 PUSH1 0x2 DUP2 GT ISZERO PUSH2 0xF10 JUMPI PUSH2 0xF10 PUSH2 0x493D JUMP JUMPDEST MUL OR SWAP1 SSTORE POP DUP1 PUSH1 0x1 PUSH1 0x1 PUSH1 0xA0 SHL SUB AND PUSH2 0xF27 PUSH2 0xB87 JUMP JUMPDEST PUSH1 0x1 PUSH1 0x1 PUSH1 0xA0 SHL SUB AND PUSH32 0xDC9EC6C8CA20E67E0CBECB5536D5C021046DD6A9A43B1B03D2B10235767D4502 PUSH1 0x40 MLOAD PUSH1 0x40 MLOAD DUP1 SWAP2 SUB SWAP1 LOG3 POP JUMP JUMPDEST PUSH1 0x0 DUP4 PUSH2 0x164 SLOAD DUP2 LT ISZERO PUSH1 0x40 MLOAD DUP1 PUSH1 0x40 ADD PUSH1 0x40 MSTORE DUP1 PUSH1 0x6 DUP2 MSTORE PUSH1 0x20 ADD PUSH6 0x303032303037 PUSH1 0xD0 SHL DUP2 MSTORE POP SWAP1 PUSH2 0xFA6 JUMPI PUSH1 0x40 MLOAD PUSH3 0x461BCD PUSH1 0xE5 SHL DUP2 MSTORE PUSH1 0x4 ADD PUSH2 0xC12 SWAP2 SWAP1 PUSH2 0x4601 JUMP JUMPDEST POP PUSH1 0x33 SLOAD PUSH1 0xFF AND ISZERO PUSH2 0xFCA JUMPI PUSH1 0x40 MLOAD PUSH3 0x461BCD PUSH1 0xE5 SHL DUP2 MSTORE PUSH1 0x4 ADD PUSH2 0xC12 SWAP1 PUSH2 0x4704 JUMP JUMPDEST DUP4 DUP1 PUSH1 0x1 LT ISZERO PUSH1 0x40 MLOAD DUP1 PUSH1 0x40 ADD PUSH1 0x40 MSTORE DUP1 PUSH1 0x6 DUP2 MSTORE PUSH1 0x20 ADD PUSH6 0x30303230313 PUSH1 0xD4 SHL DUP2 MSTORE POP SWAP1 PUSH2 0x100D JUMPI PUSH1 0x40 MLOAD PUSH3 0x461BCD PUSH1 0xE5 SHL DUP2 MSTORE PUSH1 0x4 ADD PUSH2 0xC12 SWAP2 SWAP1 PUSH2 0x4601 JUMP JUMPDEST POP PUSH1 0x2 PUSH2 0x12D SLOAD EQ ISZERO PUSH2 0x1032 JUMPI PUSH1 0x40 MLOAD PUSH3 0x461BCD PUSH1 0xE5 SHL DUP2 MSTORE PUSH1 0x4 ADD PUSH2 0xC12 SWAP1 PUSH2 0x4779 JUMP JUMPDEST PUSH1 0x2 PUSH2 0x12D SSTORE PUSH1 0x1 PUSH1 0x1 PUSH1 0xA0 SHL SUB DUP8 AND PUSH1 0x0 SWAP1 DUP2 MSTORE PUSH2 0x169 PUSH1 0x20 MSTORE PUSH1 0x40 DUP2 KECCAK256 DUP2 SWAP1 PUSH1 0x7 ADD DUP2 PUSH2 0x105F PUSH2 0xB87 JUMP JUMPDEST PUSH1 0x1 PUSH1 0x1 PUSH1 0xA0 SHL SUB AND DUP2 MSTORE PUSH1 0x20 DUP2 ADD SWAP2 SWAP1 SWAP2 MSTORE PUSH1 0x40 ADD PUSH1 0x0 KECCAK256 SLOAD PUSH1 0xFF AND SWAP1 POP PUSH1 0x1 DUP2 PUSH1 0x2 DUP2 GT ISZERO PUSH2 0x1092 JUMPI PUSH2 0x1092 PUSH2 0x493D JUMP JUMPDEST EQ ISZERO PUSH1 0x40 MLOAD DUP1 PUSH1 0x40 ADD PUSH1 0x40 MSTORE DUP1 PUSH1 0x6 DUP2 MSTORE PUSH1 0x20 ADD PUSH6 0x18181C98181B PUSH1 0xD1 SHL DUP2 MSTORE POP SWAP1 PUSH2 0x10D1 JUMPI PUSH1 0x40 MLOAD PUSH3 0x461BCD PUSH1 0xE5 SHL DUP2 MSTORE PUSH1 0x4 ADD PUSH2 0xC12 SWAP2 SWAP1 PUSH2 0x4601 JUMP JUMPDEST POP PUSH1 0x0 PUSH2 0x10E6 PUSH2 0x10DF PUSH2 0xB87 JUMP JUMPDEST DUP12 DUP11 PUSH2 0x2A7A JUMP JUMPDEST SWAP1 POP PUSH1 0x2 DUP3 PUSH1 0x2 DUP2 GT ISZERO PUSH2 0x10FC JUMPI PUSH2 0x10FC PUSH2 0x493D JUMP JUMPDEST EQ PUSH2 0x11BE JUMPI PUSH1 0x1 DUP9 EQ ISZERO PUSH2 0x115E JUMPI PUSH1 0x40 DUP1 MLOAD DUP1 DUP3 ADD SWAP1 SWAP2 MSTORE PUSH1 0x6 DUP2 MSTORE PUSH6 0x303031303039 PUSH1 0xD0 SHL PUSH1 0x20 DUP3 ADD MSTORE CALLVALUE DUP3 GT ISZERO PUSH2 0x1148 JUMPI PUSH1 0x40 MLOAD PUSH3 0x461BCD PUSH1 0xE5 SHL DUP2 MSTORE PUSH1 0x4 ADD PUSH2 0xC12 SWAP2 SWAP1 PUSH2 0x4601 JUMP JUMPDEST POP PUSH2 0x165 SLOAD PUSH2 0x1157 SWAP1 CALLVALUE PUSH2 0x4861 JUMP JUMPDEST SWAP3 POP PUSH2 0x11BE JUMP JUMPDEST PUSH1 0x40 DUP1 MLOAD DUP1 DUP3 ADD SWAP1 SWAP2 MSTORE PUSH1 0x6 DUP2 MSTORE PUSH6 0x30303130313 PUSH1 0xD4 SHL PUSH1 0x20 DUP3 ADD MSTORE CALLVALUE DUP3 GT ISZERO PUSH2 0x119C JUMPI PUSH1 0x40 MLOAD PUSH3 0x461BCD PUSH1 0xE5 SHL DUP2 MSTORE PUSH1 0x4 ADD PUSH2 0xC12 SWAP2 SWAP1 PUSH2 0x4601 JUMP JUMPDEST POP PUSH2 0x165 SLOAD DUP2 GT PUSH2 0x11AD JUMPI CALLVALUE PUSH2 0x11BB JUMP JUMPDEST PUSH2 0x165 SLOAD PUSH2 0x11BB SWAP1 CALLVALUE PUSH2 0x4861 JUMP JUMPDEST SWAP3 POP JUMPDEST PUSH1 0x0 PUSH2 0x11D5 PUSH2 0x11CB PUSH2 0xB87 JUMP JUMPDEST DUP13 DUP7 DUP14 DUP14 DUP14 PUSH2 0x2FC8 JUMP JUMPDEST SWAP1 POP DUP4 ISZERO DUP1 ISZERO SWAP1 PUSH2 0x11E8 JUMPI POP PUSH2 0x165 SLOAD DUP3 GT JUMPDEST ISZERO PUSH2 0x11FA JUMPI PUSH2 0x11FA DUP12 PUSH2 0x165 SLOAD PUSH2 0x3302 JUMP JUMPDEST PUSH1 0x1 PUSH2 0x12D SSTORE SWAP11 SWAP10 POP POP POP POP POP POP POP POP POP POP JUMP JUMPDEST PUSH2 0x167 PUSH1 0x20 MSTORE PUSH1 0x0 SWAP1 DUP2 MSTORE PUSH1 0x40 SWAP1 KECCAK256 DUP1 SLOAD DUP2 SWAP1 PUSH2 0x122A SWAP1 PUSH2 0x48BF JUMP JUMPDEST DUP1 PUSH1 0x1F ADD PUSH1 0x20 DUP1 SWAP2 DIV MUL PUSH1 0x20 ADD PUSH1 0x40 MLOAD SWAP1 DUP2 ADD PUSH1 0x40 MSTORE DUP1 SWAP3 SWAP2 SWAP1 DUP2 DUP2 MSTORE PUSH1 0x20 ADD DUP3 DUP1 SLOAD PUSH2 0x1256 SWAP1 PUSH2 0x48BF JUMP JUMPDEST DUP1 ISZERO PUSH2 0x12A3 JUMPI DUP1 PUSH1 0x1F LT PUSH2 0x1278 JUMPI PUSH2 0x100 DUP1 DUP4 SLOAD DIV MUL DUP4 MSTORE SWAP2 PUSH1 0x20 ADD SWAP2 PUSH2 0x12A3 JUMP JUMPDEST DUP3 ADD SWAP2 SWAP1 PUSH1 0x0 MSTORE PUSH1 0x20 PUSH1 0x0 KECCAK256 SWAP1 JUMPDEST DUP2 SLOAD DUP2 MSTORE SWAP1 PUSH1 0x1 ADD SWAP1 PUSH1 0x20 ADD DUP1 DUP4 GT PUSH2 0x1286 JUMPI DUP3 SWAP1 SUB PUSH1 0x1F AND DUP3 ADD SWAP2 JUMPDEST POP POP POP POP POP SWAP1 DUP1 PUSH1 0x1 ADD DUP1 SLOAD PUSH2 0x12B8 SWAP1 PUSH2 0x48BF JUMP JUMPDEST DUP1 PUSH1 0x1F ADD PUSH1 0x20 DUP1 SWAP2 DIV MUL PUSH1 0x20 ADD PUSH1 0x40 MLOAD SWAP1 DUP2 ADD PUSH1 0x40 MSTORE DUP1 SWAP3 SWAP2 SWAP1 DUP2 DUP2 MSTORE PUSH1 0x20 ADD DUP3 DUP1 SLOAD PUSH2 0x12E4 SWAP1 PUSH2 0x48BF JUMP JUMPDEST DUP1 ISZERO PUSH2 0x1331 JUMPI DUP1 PUSH1 0x1F LT PUSH2 0x1306 JUMPI PUSH2 0x100 DUP1 DUP4 SLOAD DIV MUL DUP4 MSTORE SWAP2 PUSH1 0x20 ADD SWAP2 PUSH2 0x1331 JUMP JUMPDEST DUP3 ADD SWAP2 SWAP1 PUSH1 0x0 MSTORE PUSH1 0x20 PUSH1 0x0 KECCAK256 SWAP1 JUMPDEST DUP2 SLOAD DUP2 MSTORE SWAP1 PUSH1 0x1 ADD SWAP1 PUSH1 0x20 ADD DUP1 DUP4 GT PUSH2 0x1314 JUMPI DUP3 SWAP1 SUB PUSH1 0x1F AND DUP3 ADD SWAP2 JUMPDEST POP POP POP PUSH1 0x2 DUP5 ADD SLOAD PUSH1 0x3 DUP6 ADD SLOAD PUSH1 0x4 DUP7 ADD SLOAD PUSH1 0x5 DUP8 ADD SLOAD PUSH1 0x7 DUP9 ADD SLOAD PUSH1 0x8 DUP10 ADD SLOAD PUSH1 0x9 DUP11 ADD SLOAD PUSH1 0xA DUP12 ADD SLOAD PUSH1 0xB DUP13 ADD SLOAD PUSH1 0xC SWAP1 SWAP13 ADD SLOAD SWAP11 SWAP12 SWAP8 SWAP11 SWAP7 SWAP10 POP PUSH1 0x1 PUSH1 0x1 PUSH1 0xA0 SHL SUB SWAP6 DUP7 AND SWAP9 POP SWAP4 SWAP1 SWAP5 AND SWAP6 SWAP2 SWAP5 SWAP1 SWAP4 PUSH1 0xFF SWAP1 DUP2 AND SWAP4 SWAP3 AND SWAP1 DUP13 JUMP JUMPDEST PUSH1 0x0 PUSH1 0x1 JUMPDEST PUSH1 0x1 PUSH1 0x1 PUSH1 0xA0 SHL SUB DUP1 DUP5 AND PUSH1 0x0 SWAP1 DUP2 MSTORE PUSH2 0x169 PUSH1 0x20 SWAP1 DUP2 MSTORE PUSH1 0x40 DUP1 DUP4 KECCAK256 SWAP4 DUP9 AND DUP4 MSTORE PUSH1 0x7 SWAP1 SWAP4 ADD SWAP1 MSTORE KECCAK256 SLOAD PUSH1 0xFF AND PUSH1 0x2 DUP2 GT ISZERO PUSH2 0x13D4 JUMPI PUSH2 0x13D4 PUSH2 0x493D JUMP JUMPDEST EQ SWAP4 SWAP3 POP POP POP JUMP JUMPDEST PUSH1 0x33 SLOAD PUSH1 0xFF AND ISZERO PUSH2 0x13FF JUMPI PUSH1 0x40 MLOAD PUSH3 0x461BCD PUSH1 0xE5 SHL DUP2 MSTORE PUSH1 0x4 ADD PUSH2 0xC12 SWAP1 PUSH2 0x4704 JUMP JUMPDEST PUSH1 0x2 PUSH2 0x12D SLOAD EQ ISZERO PUSH2 0x1423 JUMPI PUSH1 0x40 MLOAD PUSH3 0x461BCD PUSH1 0xE5 SHL DUP2 MSTORE PUSH1 0x4 ADD PUSH2 0xC12 SWAP1 PUSH2 0x4779 JUMP JUMPDEST PUSH1 0x2 PUSH2 0x12D SSTORE PUSH2 0x16A PUSH1 0x0 PUSH2 0x1436 PUSH2 0xB87 JUMP JUMPDEST PUSH1 0x1 PUSH1 0x1 PUSH1 0xA0 SHL SUB AND PUSH1 0x1 PUSH1 0x1 PUSH1 0xA0 SHL SUB AND DUP2 MSTORE PUSH1 0x20 ADD SWAP1 DUP2 MSTORE PUSH1 0x20 ADD PUSH1 0x0 KECCAK256 SLOAD DUP2 GT ISZERO PUSH1 0x40 MLOAD DUP1 PUSH1 0x40 ADD PUSH1 0x40 MSTORE DUP1 PUSH1 0x6 DUP2 MSTORE PUSH1 0x20 ADD PUSH6 0x303039303031 PUSH1 0xD0 SHL DUP2 MSTORE POP SWAP1 PUSH2 0x1497 JUMPI PUSH1 0x40 MLOAD PUSH3 0x461BCD PUSH1 0xE5 SHL DUP2 MSTORE PUSH1 0x4 ADD PUSH2 0xC12 SWAP2 SWAP1 PUSH2 0x4601 JUMP JUMPDEST POP DUP1 PUSH2 0x16A PUSH1 0x0 PUSH2 0x14A6 PUSH2 0xB87 JUMP JUMPDEST PUSH1 0x1 PUSH1 0x1 PUSH1 0xA0 SHL SUB AND PUSH1 0x1 PUSH1 0x1 PUSH1 0xA0 SHL SUB AND DUP2 MSTORE PUSH1 0x20 ADD SWAP1 DUP2 MSTORE PUSH1 0x20 ADD PUSH1 0x0 KECCAK256 PUSH1 0x0 DUP3 DUP3 SLOAD PUSH2 0x14D5 SWAP2 SWAP1 PUSH2 0x4861 JUMP JUMPDEST SWAP1 SWAP2 SSTORE POP PUSH2 0x14EC SWAP1 POP PUSH2 0x14E6 PUSH2 0xB87 JUMP JUMPDEST DUP3 PUSH2 0x3302 JUMP JUMPDEST PUSH2 0x14F4 PUSH2 0xB87 JUMP JUMPDEST PUSH1 0x1 PUSH1 0x1 PUSH1 0xA0 SHL SUB AND PUSH32 0x884EDAD9CE6FA2440D8A54CC123490EB96D2768479D49FF9C7366125A9424364 DUP3 PUSH1 0x40 MLOAD PUSH2 0x152E SWAP2 DUP2 MSTORE PUSH1 0x20 ADD SWAP1 JUMP JUMPDEST PUSH1 0x40 MLOAD DUP1 SWAP2 SUB SWAP1 LOG2 POP PUSH1 0x1 PUSH2 0x12D SSTORE JUMP JUMPDEST PUSH1 0x0 DUP4 DUP2 MSTORE PUSH2 0x167 PUSH1 0x20 SWAP1 DUP2 MSTORE PUSH1 0x40 DUP1 DUP4 KECCAK256 PUSH1 0x4 ADD SLOAD DUP2 MLOAD DUP1 DUP4 ADD SWAP1 SWAP3 MSTORE PUSH1 0x6 DUP3 MSTORE PUSH6 0x303032303033 PUSH1 0xD0 SHL SWAP3 DUP3 ADD SWAP3 SWAP1 SWAP3 MSTORE PUSH1 0x60 SWAP3 SWAP2 DUP7 SWAP2 SWAP1 PUSH1 0x1 PUSH1 0x1 PUSH1 0xA0 SHL SUB AND PUSH2 0x159F JUMPI PUSH1 0x40 MLOAD PUSH3 0x461BCD PUSH1 0xE5 SHL DUP2 MSTORE PUSH1 0x4 ADD PUSH2 0xC12 SWAP2 SWAP1 PUSH2 0x4601 JUMP JUMPDEST POP PUSH1 0x0 DUP7 DUP2 MSTORE PUSH2 0x167 PUSH1 0x20 MSTORE PUSH1 0x40 SWAP1 DUP2 SWAP1 KECCAK256 SWAP1 MLOAD PUSH4 0x74A5907 PUSH1 0xE0 SHL DUP2 MSTORE PUSH1 0x4 DUP2 ADD DUP8 SWAP1 MSTORE PUSH1 0x24 DUP2 ADD DUP7 SWAP1 MSTORE PUSH1 0x6 SWAP1 SWAP2 ADD PUSH1 0x44 DUP3 ADD MSTORE PUSH20 0x0 SWAP1 PUSH4 0x74A5907 SWAP1 PUSH1 0x64 ADD PUSH1 0x0 PUSH1 0x40 MLOAD DUP1 DUP4 SUB DUP2 DUP7 DUP1 EXTCODESIZE ISZERO DUP1 ISZERO PUSH2 0x160C JUMPI PUSH1 0x0 DUP1 REVERT JUMPDEST POP GAS DELEGATECALL ISZERO DUP1 ISZERO PUSH2 0x1620 JUMPI RETURNDATASIZE PUSH1 0x0 DUP1 RETURNDATACOPY RETURNDATASIZE PUSH1 0x0 REVERT JUMPDEST POP POP POP POP PUSH1 0x40 MLOAD RETURNDATASIZE PUSH1 0x0 DUP3 RETURNDATACOPY PUSH1 0x1F RETURNDATASIZE SWAP1 DUP2 ADD PUSH1 0x1F NOT AND DUP3 ADD PUSH1 0x40 MSTORE PUSH2 0x1648 SWAP2 SWAP1 DUP2 ADD SWAP1 PUSH2 0x4256 JUMP JUMPDEST SWAP3 POP SWAP3 POP POP SWAP4 POP SWAP4 SWAP2 POP POP JUMP JUMPDEST PUSH1 0x0 DUP3 DUP2 MSTORE PUSH1 0xC9 PUSH1 0x20 MSTORE PUSH1 0x40 SWAP1 KECCAK256 PUSH1 0x1 ADD SLOAD PUSH2 0x1673 DUP2 PUSH2 0xBCF PUSH2 0xB87 JUMP JUMPDEST PUSH2 0x167D DUP4 DUP4 PUSH2 0x341B JUMP JUMPDEST POP POP POP JUMP JUMPDEST PUSH2 0x168A PUSH2 0xB87 JUMP JUMPDEST PUSH1 0x1 PUSH1 0x1 PUSH1 0xA0 SHL SUB AND DUP2 PUSH1 0x1 PUSH1 0x1 PUSH1 0xA0 SHL SUB AND EQ PUSH2 0x1702 JUMPI PUSH1 0x40 MLOAD PUSH3 0x461BCD PUSH1 0xE5 SHL DUP2 MSTORE PUSH1 0x20 PUSH1 0x4 DUP3 ADD MSTORE PUSH1 0x2F PUSH1 0x24 DUP3 ADD MSTORE PUSH32 0x416363657373436F6E74726F6C3A2063616E206F6E6C792072656E6F756E6365 PUSH1 0x44 DUP3 ADD MSTORE PUSH15 0x103937B632B9903337B91039B2B633 PUSH1 0x89 SHL PUSH1 0x64 DUP3 ADD MSTORE PUSH1 0x84 ADD PUSH2 0xC12 JUMP JUMPDEST PUSH2 0x170C DUP3 DUP3 PUSH2 0x343D JUMP JUMPDEST POP POP JUMP JUMPDEST DUP1 PUSH1 0x1 PUSH1 0x1 PUSH1 0xA0 SHL SUB AND PUSH2 0x1722 PUSH2 0xB87 JUMP JUMPDEST PUSH1 0x1 PUSH1 0x1 PUSH1 0xA0 SHL SUB AND EQ ISZERO PUSH1 0x40 MLOAD DUP1 PUSH1 0x40 ADD PUSH1 0x40 MSTORE DUP1 PUSH1 0x6 DUP2 MSTORE PUSH1 0x20 ADD PUSH6 0x30303930313 PUSH1 0xD4 SHL DUP2 MSTORE POP SWAP1 PUSH2 0x176A JUMPI PUSH1 0x40 MLOAD PUSH3 0x461BCD PUSH1 0xE5 SHL DUP2 MSTORE PUSH1 0x4 ADD PUSH2 0xC12 SWAP2 SWAP1 PUSH2 0x4601 JUMP JUMPDEST POP PUSH1 0x1 PUSH2 0x169 PUSH1 0x0 PUSH2 0x177A PUSH2 0xB87 JUMP JUMPDEST PUSH1 0x1 PUSH1 0x1 PUSH1 0xA0 SHL SUB SWAP1 DUP2 AND DUP3 MSTORE PUSH1 0x20 DUP1 DUP4 ADD SWAP4 SWAP1 SWAP4 MSTORE PUSH1 0x40 SWAP2 DUP3 ADD PUSH1 0x0 SWAP1 DUP2 KECCAK256 SWAP2 DUP7 AND DUP2 MSTORE PUSH1 0x7 SWAP1 SWAP2 ADD SWAP1 SWAP3 MSTORE SWAP1 KECCAK256 DUP1 SLOAD PUSH1 0xFF NOT AND PUSH1 0x1 DUP4 PUSH1 0x2 DUP2 GT ISZERO PUSH2 0x17C3 JUMPI PUSH2 0x17C3 PUSH2 0x493D JUMP JUMPDEST MUL OR SWAP1 SSTORE POP DUP1 PUSH1 0x1 PUSH1 0x1 PUSH1 0xA0 SHL SUB AND PUSH2 0x17DA PUSH2 0xB87 JUMP JUMPDEST PUSH1 0x1 PUSH1 0x1 PUSH1 0xA0 SHL SUB AND PUSH32 0xC931B7E6F18C2A39BCD066690C46C7BA85186501C524FAA844AC2C7213D17325 PUSH1 0x40 MLOAD PUSH1 0x40 MLOAD DUP1 SWAP2 SUB SWAP1 LOG3 POP JUMP JUMPDEST PUSH2 0x181F PUSH1 0x0 PUSH2 0x804 PUSH2 0xB87 JUMP JUMPDEST PUSH2 0x1880 JUMPI PUSH1 0x40 MLOAD PUSH3 0x461BCD PUSH1 0xE5 SHL DUP2 MSTORE PUSH1 0x20 PUSH1 0x4 DUP3 ADD MSTORE PUSH1 0x2C PUSH1 0x24 DUP3 ADD MSTORE PUSH32 0x4D75737420686176652044454641554C545F41444D494E5F524F4C4520726F6C PUSH1 0x44 DUP3 ADD MSTORE PUSH12 0x6520746F20756E7061757365 PUSH1 0xA0 SHL PUSH1 0x64 DUP3 ADD MSTORE PUSH1 0x84 ADD PUSH2 0xC12 JUMP JUMPDEST PUSH2 0x1888 PUSH2 0x345F JUMP JUMPDEST JUMP JUMPDEST PUSH1 0x1 PUSH2 0x169 PUSH1 0x0 PUSH2 0x1899 PUSH2 0xB87 JUMP JUMPDEST PUSH1 0x1 PUSH1 0x1 PUSH1 0xA0 SHL SUB SWAP1 DUP2 AND DUP3 MSTORE PUSH1 0x20 DUP1 DUP4 ADD SWAP4 SWAP1 SWAP4 MSTORE PUSH1 0x40 SWAP2 DUP3 ADD PUSH1 0x0 SWAP1 DUP2 KECCAK256 SWAP2 DUP7 AND DUP2 MSTORE PUSH1 0x7 SWAP1 SWAP2 ADD SWAP1 SWAP3 MSTORE SWAP1 KECCAK256 SLOAD PUSH1 0xFF AND PUSH1 0x2 DUP2 GT ISZERO PUSH2 0x18DD JUMPI PUSH2 0x18DD PUSH2 0x493D JUMP JUMPDEST EQ ISZERO PUSH1 0x40 MLOAD DUP1 PUSH1 0x40 ADD PUSH1 0x40 MSTORE DUP1 PUSH1 0x6 DUP2 MSTORE PUSH1 0x20 ADD PUSH6 0x18181C98181B PUSH1 0xD1 SHL DUP2 MSTORE POP SWAP1 PUSH2 0x191C JUMPI PUSH1 0x40 MLOAD PUSH3 0x461BCD PUSH1 0xE5 SHL DUP2 MSTORE PUSH1 0x4 ADD PUSH2 0xC12 SWAP2 SWAP1 PUSH2 0x4601 JUMP JUMPDEST POP PUSH1 0x2 PUSH2 0x169 PUSH1 0x0 PUSH2 0x192C PUSH2 0xB87 JUMP JUMPDEST PUSH1 0x1 PUSH1 0x1 PUSH1 0xA0 SHL SUB SWAP1 DUP2 AND DUP3 MSTORE PUSH1 0x20 DUP1 DUP4 ADD SWAP4 SWAP1 SWAP4 MSTORE PUSH1 0x40 SWAP2 DUP3 ADD PUSH1 0x0 SWAP1 DUP2 KECCAK256 SWAP2 DUP7 AND DUP2 MSTORE PUSH1 0x7 SWAP1 SWAP2 ADD SWAP1 SWAP3 MSTORE SWAP1 KECCAK256 DUP1 SLOAD PUSH1 0xFF NOT AND PUSH1 0x1 DUP4 PUSH1 0x2 DUP2 GT ISZERO PUSH2 0x1975 JUMPI PUSH2 0x1975 PUSH2 0x493D JUMP JUMPDEST MUL OR SWAP1 SSTORE POP DUP1 PUSH1 0x1 PUSH1 0x1 PUSH1 0xA0 SHL SUB AND PUSH2 0x198C PUSH2 0xB87 JUMP JUMPDEST PUSH1 0x1 PUSH1 0x1 PUSH1 0xA0 SHL SUB AND PUSH32 0x6661A7108AECD07864384529117D96C319C1163E3010C01390F6B704726E07DE PUSH1 0x40 MLOAD PUSH1 0x40 MLOAD DUP1 SWAP2 SUB SWAP1 LOG3 POP JUMP JUMPDEST PUSH1 0x0 PUSH2 0x19D2 DUP2 PUSH2 0xBCF PUSH2 0xB87 JUMP JUMPDEST PUSH2 0x19DD DUP3 PUSH1 0x4 PUSH2 0x4842 JUMP JUMPDEST PUSH2 0x161 SLOAD GT PUSH1 0x40 MLOAD DUP1 PUSH1 0x40 ADD PUSH1 0x40 MSTORE DUP1 PUSH1 0x6 DUP2 MSTORE PUSH1 0x20 ADD PUSH6 0x303039303037 PUSH1 0xD0 SHL DUP2 MSTORE POP SWAP1 PUSH2 0x1A1F JUMPI PUSH1 0x40 MLOAD PUSH3 0x461BCD PUSH1 0xE5 SHL DUP2 MSTORE PUSH1 0x4 ADD PUSH2 0xC12 SWAP2 SWAP1 PUSH2 0x4601 JUMP JUMPDEST POP POP PUSH2 0x165 SSTORE JUMP JUMPDEST PUSH1 0x1 PUSH2 0x169 PUSH1 0x0 PUSH2 0x1A36 PUSH2 0xB87 JUMP JUMPDEST PUSH1 0x1 PUSH1 0x1 PUSH1 0xA0 SHL SUB SWAP1 DUP2 AND DUP3 MSTORE PUSH1 0x20 DUP1 DUP4 ADD SWAP4 SWAP1 SWAP4 MSTORE PUSH1 0x40 SWAP2 DUP3 ADD PUSH1 0x0 SWAP1 DUP2 KECCAK256 SWAP2 DUP7 AND DUP2 MSTORE PUSH1 0x7 SWAP1 SWAP2 ADD SWAP1 SWAP3 MSTORE SWAP1 KECCAK256 SLOAD PUSH1 0xFF AND PUSH1 0x2 DUP2 GT ISZERO PUSH2 0x1A7A JUMPI PUSH2 0x1A7A PUSH2 0x493D JUMP JUMPDEST EQ PUSH1 0x40 MLOAD DUP1 PUSH1 0x40 ADD PUSH1 0x40 MSTORE DUP1 PUSH1 0x6 DUP2 MSTORE PUSH1 0x20 ADD PUSH6 0x303039303131 PUSH1 0xD0 SHL DUP2 MSTORE POP SWAP1 PUSH2 0x1AB8 JUMPI PUSH1 0x40 MLOAD PUSH3 0x461BCD PUSH1 0xE5 SHL DUP2 MSTORE PUSH1 0x4 ADD PUSH2 0xC12 SWAP2 SWAP1 PUSH2 0x4601 JUMP JUMPDEST POP PUSH1 0x0 PUSH2 0x169 PUSH1 0x0 PUSH2 0x1AC8 PUSH2 0xB87 JUMP JUMPDEST PUSH1 0x1 PUSH1 0x1 PUSH1 0xA0 SHL SUB SWAP1 DUP2 AND DUP3 MSTORE PUSH1 0x20 DUP1 DUP4 ADD SWAP4 SWAP1 SWAP4 MSTORE PUSH1 0x40 SWAP2 DUP3 ADD PUSH1 0x0 SWAP1 DUP2 KECCAK256 SWAP2 DUP7 AND DUP2 MSTORE PUSH1 0x7 SWAP1 SWAP2 ADD SWAP1 SWAP3 MSTORE SWAP1 KECCAK256 DUP1 SLOAD PUSH1 0xFF NOT AND PUSH1 0x1 DUP4 PUSH1 0x2 DUP2 GT ISZERO PUSH2 0x1B11 JUMPI PUSH2 0x1B11 PUSH2 0x493D JUMP JUMPDEST MUL OR SWAP1 SSTORE POP DUP1 PUSH1 0x1 PUSH1 0x1 PUSH1 0xA0 SHL SUB AND PUSH2 0x1B28 PUSH2 0xB87 JUMP JUMPDEST PUSH1 0x1 PUSH1 0x1 PUSH1 0xA0 SHL SUB AND PUSH32 0x35672C674C91F8B0025681A1C8D11A4CA6583E909553290ECFB3D6578FAA8BCE PUSH1 0x40 MLOAD PUSH1 0x40 MLOAD DUP1 SWAP2 SUB SWAP1 LOG3 POP JUMP JUMPDEST PUSH1 0x33 SLOAD PUSH1 0xFF AND ISZERO PUSH2 0x1B83 JUMPI PUSH1 0x40 MLOAD PUSH3 0x461BCD PUSH1 0xE5 SHL DUP2 MSTORE PUSH1 0x4 ADD PUSH2 0xC12 SWAP1 PUSH2 0x4704 JUMP JUMPDEST PUSH1 0x0 DUP2 DUP2 MSTORE PUSH2 0x167 PUSH1 0x20 SWAP1 DUP2 MSTORE PUSH1 0x40 SWAP2 DUP3 SWAP1 KECCAK256 PUSH1 0x4 ADD SLOAD DUP3 MLOAD DUP1 DUP5 ADD SWAP1 SWAP4 MSTORE PUSH1 0x6 DUP4 MSTORE PUSH6 0x303032303033 PUSH1 0xD0 SHL SWAP2 DUP4 ADD SWAP2 SWAP1 SWAP2 MSTORE DUP3 SWAP2 SWAP1 PUSH1 0x1 PUSH1 0x1 PUSH1 0xA0 SHL SUB AND PUSH2 0x1BE0 JUMPI PUSH1 0x40 MLOAD PUSH3 0x461BCD PUSH1 0xE5 SHL DUP2 MSTORE PUSH1 0x4 ADD PUSH2 0xC12 SWAP2 SWAP1 PUSH2 0x4601 JUMP JUMPDEST POP DUP2 PUSH2 0x1BEA PUSH2 0xB87 JUMP JUMPDEST PUSH1 0x0 DUP3 DUP2 MSTORE PUSH2 0x167 PUSH1 0x20 SWAP1 DUP2 MSTORE PUSH1 0x40 SWAP2 DUP3 SWAP1 KECCAK256 PUSH1 0x4 ADD SLOAD DUP3 MLOAD DUP1 DUP5 ADD SWAP1 SWAP4 MSTORE PUSH1 0x6 DUP4 MSTORE PUSH6 0x181819181819 PUSH1 0xD1 SHL SWAP2 DUP4 ADD SWAP2 SWAP1 SWAP2 MSTORE SWAP1 SWAP2 PUSH1 0x1 PUSH1 0x1 PUSH1 0xA0 SHL SUB SWAP2 DUP3 AND SWAP2 AND EQ PUSH2 0x1C4B JUMPI PUSH1 0x40 MLOAD PUSH3 0x461BCD PUSH1 0xE5 SHL DUP2 MSTORE PUSH1 0x4 ADD PUSH2 0xC12 SWAP2 SWAP1 PUSH2 0x4601 JUMP JUMPDEST POP PUSH1 0x0 DUP4 DUP2 MSTORE PUSH2 0x167 PUSH1 0x20 MSTORE PUSH1 0x40 SWAP1 DUP2 SWAP1 KECCAK256 SWAP1 MLOAD PUSH4 0xDAE5E843 PUSH1 0xE0 SHL DUP2 MSTORE PUSH1 0x4 DUP2 ADD DUP3 SWAP1 MSTORE PUSH20 0x0 SWAP1 PUSH4 0xDAE5E843 SWAP1 PUSH1 0x24 ADD PUSH1 0x0 PUSH1 0x40 MLOAD DUP1 DUP4 SUB DUP2 DUP7 DUP1 EXTCODESIZE ISZERO DUP1 ISZERO PUSH2 0x1CA7 JUMPI PUSH1 0x0 DUP1 REVERT JUMPDEST POP GAS DELEGATECALL ISZERO DUP1 ISZERO PUSH2 0x1CBB JUMPI RETURNDATASIZE PUSH1 0x0 DUP1 RETURNDATACOPY RETURNDATASIZE PUSH1 0x0 REVERT JUMPDEST POP POP POP POP DUP1 PUSH1 0x2 ADD SLOAD PUSH2 0x16A PUSH1 0x0 PUSH2 0x1CD1 PUSH2 0xB87 JUMP JUMPDEST PUSH1 0x1 PUSH1 0x1 PUSH1 0xA0 SHL SUB AND PUSH1 0x1 PUSH1 0x1 PUSH1 0xA0 SHL SUB AND DUP2 MSTORE PUSH1 0x20 ADD SWAP1 DUP2 MSTORE PUSH1 0x20 ADD PUSH1 0x0 KECCAK256 PUSH1 0x0 DUP3 DUP3 SLOAD PUSH2 0x1D00 SWAP2 SWAP1 PUSH2 0x4808 JUMP JUMPDEST SWAP1 SWAP2 SSTORE POP PUSH2 0x1D0E SWAP1 POP PUSH2 0xB87 JUMP JUMPDEST PUSH1 0x1 PUSH1 0x1 PUSH1 0xA0 SHL SUB AND PUSH1 0x0 DUP1 MLOAD PUSH1 0x20 PUSH2 0x4A3B DUP4 CODECOPY DUP2 MLOAD SWAP2 MSTORE DUP3 PUSH1 0x2 ADD SLOAD PUSH1 0x40 MLOAD PUSH2 0x1D3A SWAP2 DUP2 MSTORE PUSH1 0x20 ADD SWAP1 JUMP JUMPDEST PUSH1 0x40 MLOAD DUP1 SWAP2 SUB SWAP1 LOG2 PUSH2 0x1D4A PUSH2 0xB87 JUMP JUMPDEST PUSH1 0x1 PUSH1 0x1 PUSH1 0xA0 SHL SUB AND DUP5 PUSH32 0x205302058BF3AFB5ECE22C5535EAB6EA487294C8339C2A194FC6476219BADBCD DUP4 PUSH1 0x2 ADD SLOAD PUSH1 0x40 MLOAD PUSH2 0x1D89 SWAP2 DUP2 MSTORE PUSH1 0x20 ADD SWAP1 JUMP JUMPDEST PUSH1 0x40 MLOAD DUP1 SWAP2 SUB SWAP1 LOG3 POP POP POP POP JUMP JUMPDEST PUSH2 0x1DA4 PUSH1 0x0 PUSH2 0x804 PUSH2 0xB87 JUMP JUMPDEST PUSH2 0x1E03 JUMPI PUSH1 0x40 MLOAD PUSH3 0x461BCD PUSH1 0xE5 SHL DUP2 MSTORE PUSH1 0x20 PUSH1 0x4 DUP3 ADD MSTORE PUSH1 0x2A PUSH1 0x24 DUP3 ADD MSTORE PUSH32 0x4D75737420686176652044454641554C545F41444D494E5F524F4C4520726F6C PUSH1 0x44 DUP3 ADD MSTORE PUSH10 0x6520746F207061757365 PUSH1 0xB0 SHL PUSH1 0x64 DUP3 ADD MSTORE PUSH1 0x84 ADD PUSH2 0xC12 JUMP JUMPDEST PUSH2 0x1888 PUSH2 0x34F8 JUMP JUMPDEST PUSH1 0x0 DUP3 DUP2 MSTORE PUSH1 0xFB PUSH1 0x20 MSTORE PUSH1 0x40 DUP2 KECCAK256 PUSH2 0x1E23 SWAP1 DUP4 PUSH2 0x3551 JUMP JUMPDEST SWAP4 SWAP3 POP POP POP JUMP JUMPDEST PUSH1 0x0 SWAP2 DUP3 MSTORE PUSH1 0xC9 PUSH1 0x20 SWAP1 DUP2 MSTORE PUSH1 0x40 DUP1 DUP5 KECCAK256 PUSH1 0x1 PUSH1 0x1 PUSH1 0xA0 SHL SUB SWAP4 SWAP1 SWAP4 AND DUP5 MSTORE SWAP2 SWAP1 MSTORE SWAP1 KECCAK256 SLOAD PUSH1 0xFF AND SWAP1 JUMP JUMPDEST PUSH1 0x1 DUP2 PUSH1 0x1 DUP2 GT ISZERO PUSH2 0x1E69 JUMPI PUSH2 0x1E69 PUSH2 0x493D JUMP JUMPDEST EQ ISZERO PUSH2 0x1EE0 JUMPI PUSH2 0x161 SLOAD DUP3 LT ISZERO PUSH1 0x40 MLOAD DUP1 PUSH1 0x40 ADD PUSH1 0x40 MSTORE DUP1 PUSH1 0x6 DUP2 MSTORE PUSH1 0x20 ADD PUSH6 0x303039303033 PUSH1 0xD0 SHL DUP2 MSTORE POP SWAP1 PUSH2 0x1EB3 JUMPI PUSH1 0x40 MLOAD PUSH3 0x461BCD PUSH1 0xE5 SHL DUP2 MSTORE PUSH1 0x4 ADD PUSH2 0xC12 SWAP2 SWAP1 PUSH2 0x4601 JUMP JUMPDEST POP DUP2 PUSH2 0x169 PUSH1 0x0 PUSH2 0x1EC2 PUSH2 0xB87 JUMP JUMPDEST PUSH1 0x1 PUSH1 0x1 PUSH1 0xA0 SHL SUB AND DUP2 MSTORE PUSH1 0x20 DUP2 ADD SWAP2 SWAP1 SWAP2 MSTORE PUSH1 0x40 ADD PUSH1 0x0 KECCAK256 PUSH1 0x1 ADD SSTORE JUMPDEST DUP2 PUSH2 0x169 PUSH1 0x0 PUSH2 0x1EEE PUSH2 0xB87 JUMP JUMPDEST PUSH1 0x1 PUSH1 0x1 PUSH1 0xA0 SHL SUB AND DUP2 MSTORE PUSH1 0x20 DUP2 ADD SWAP2 SWAP1 SWAP2 MSTORE PUSH1 0x40 ADD PUSH1 0x0 KECCAK256 SSTORE POP POP JUMP JUMPDEST PUSH1 0x0 DUP4 DUP2 MSTORE PUSH2 0x167 PUSH1 0x20 SWAP1 DUP2 MSTORE PUSH1 0x40 SWAP2 DUP3 SWAP1 KECCAK256 PUSH1 0x4 ADD SLOAD DUP3 MLOAD DUP1 DUP5 ADD SWAP1 SWAP4 MSTORE PUSH1 0x6 DUP4 MSTORE PUSH6 0x303032303033 PUSH1 0xD0 SHL SWAP2 DUP4 ADD SWAP2 SWAP1 SWAP2 MSTORE DUP5 SWAP2 SWAP1 PUSH1 0x1 PUSH1 0x1 PUSH1 0xA0 SHL SUB AND PUSH2 0x1F69 JUMPI PUSH1 0x40 MLOAD PUSH3 0x461BCD PUSH1 0xE5 SHL DUP2 MSTORE PUSH1 0x4 ADD PUSH2 0xC12 SWAP2 SWAP1 PUSH2 0x4601 JUMP JUMPDEST POP PUSH2 0x1F72 PUSH2 0xB87 JUMP JUMPDEST PUSH1 0x0 DUP6 DUP2 MSTORE PUSH2 0x167 PUSH1 0x20 SWAP1 DUP2 MSTORE PUSH1 0x40 SWAP2 DUP3 SWAP1 KECCAK256 PUSH1 0x5 ADD SLOAD DUP3 MLOAD DUP1 DUP5 ADD SWAP1 SWAP4 MSTORE PUSH1 0x6 DUP4 MSTORE PUSH6 0x181819181819 PUSH1 0xD1 SHL SWAP2 DUP4 ADD SWAP2 SWAP1 SWAP2 MSTORE SWAP1 SWAP2 PUSH1 0x1 PUSH1 0x1 PUSH1 0xA0 SHL SUB SWAP2 DUP3 AND SWAP2 AND EQ PUSH2 0x1FD3 JUMPI PUSH1 0x40 MLOAD PUSH3 0x461BCD PUSH1 0xE5 SHL DUP2 MSTORE PUSH1 0x4 ADD PUSH2 0xC12 SWAP2 SWAP1 PUSH2 0x4601 JUMP JUMPDEST POP PUSH1 0x0 DUP1 PUSH2 0x1FE2 DUP7 DUP7 DUP7 PUSH2 0x355D JUMP JUMPDEST SWAP2 POP SWAP2 POP PUSH2 0x1FEE PUSH2 0xB87 JUMP JUMPDEST PUSH1 0x0 DUP8 DUP2 MSTORE PUSH2 0x167 PUSH1 0x20 MSTORE PUSH1 0x40 SWAP1 DUP2 SWAP1 KECCAK256 PUSH1 0x4 ADD SLOAD SWAP1 MLOAD PUSH1 0x1 PUSH1 0x1 PUSH1 0xA0 SHL SUB SWAP3 DUP4 AND SWAP3 SWAP1 SWAP2 AND SWAP1 DUP9 SWAP1 PUSH32 0xFF7A1ECAAC27EED4C6BD348A8DD8D05ED71190DB5B77E89F881FA74087429BC9 SWAP1 PUSH2 0x2048 SWAP1 DUP11 SWAP1 DUP9 SWAP1 DUP9 SWAP1 PUSH2 0x46DF JUMP JUMPDEST PUSH1 0x40 MLOAD DUP1 SWAP2 SUB SWAP1 LOG4 POP POP POP POP POP POP JUMP JUMPDEST PUSH1 0x1 PUSH1 0x1 PUSH1 0xA0 SHL SUB DUP4 AND PUSH1 0x0 SWAP1 DUP2 MSTORE PUSH2 0x169 PUSH1 0x20 MSTORE PUSH1 0x40 DUP1 DUP3 KECCAK256 SWAP1 MLOAD PUSH4 0x74A5907 PUSH1 0xE0 SHL DUP2 MSTORE PUSH1 0x4 DUP2 ADD DUP6 SWAP1 MSTORE PUSH1 0x24 DUP2 ADD DUP5 SWAP1 MSTORE PUSH1 0x2 SWAP1 SWAP2 ADD PUSH1 0x44 DUP3 ADD MSTORE PUSH1 0x60 SWAP2 SWAP1 PUSH20 0x0 SWAP1 PUSH4 0x74A5907 SWAP1 PUSH1 0x64 ADD JUMPDEST PUSH1 0x0 PUSH1 0x40 MLOAD DUP1 DUP4 SUB DUP2 DUP7 DUP1 EXTCODESIZE ISZERO DUP1 ISZERO PUSH2 0x20D2 JUMPI PUSH1 0x0 DUP1 REVERT JUMPDEST POP GAS DELEGATECALL ISZERO DUP1 ISZERO PUSH2 0x20E6 JUMPI RETURNDATASIZE PUSH1 0x0 DUP1 RETURNDATACOPY RETURNDATASIZE PUSH1 0x0 REVERT JUMPDEST POP POP POP POP PUSH1 0x40 MLOAD RETURNDATASIZE PUSH1 0x0 DUP3 RETURNDATACOPY PUSH1 0x1F RETURNDATASIZE SWAP1 DUP2 ADD PUSH1 0x1F NOT AND DUP3 ADD PUSH1 0x40 MSTORE PUSH2 0x210E SWAP2 SWAP1 DUP2 ADD SWAP1 PUSH2 0x4256 JUMP JUMPDEST SWAP2 POP SWAP2 POP SWAP4 POP SWAP4 SWAP2 POP POP JUMP JUMPDEST PUSH1 0x1 PUSH1 0x1 PUSH1 0xA0 SHL SUB DUP4 AND PUSH1 0x0 SWAP1 DUP2 MSTORE PUSH2 0x169 PUSH1 0x20 MSTORE PUSH1 0x40 DUP1 DUP3 KECCAK256 SWAP1 MLOAD PUSH4 0x74A5907 PUSH1 0xE0 SHL DUP2 MSTORE PUSH1 0x4 DUP2 ADD DUP6 SWAP1 MSTORE PUSH1 0x24 DUP2 ADD DUP5 SWAP1 MSTORE PUSH1 0x3 SWAP1 SWAP2 ADD PUSH1 0x44 DUP3 ADD MSTORE PUSH1 0x60 SWAP2 SWAP1 PUSH20 0x0 SWAP1 PUSH4 0x74A5907 SWAP1 PUSH1 0x64 ADD PUSH2 0x20BA JUMP JUMPDEST PUSH1 0x1 PUSH2 0x169 PUSH1 0x0 PUSH2 0x218F PUSH2 0xB87 JUMP JUMPDEST PUSH1 0x1 PUSH1 0x1 PUSH1 0xA0 SHL SUB SWAP1 DUP2 AND DUP3 MSTORE PUSH1 0x20 DUP1 DUP4 ADD SWAP4 SWAP1 SWAP4 MSTORE PUSH1 0x40 SWAP2 DUP3 ADD PUSH1 0x0 SWAP1 DUP2 KECCAK256 SWAP2 DUP7 AND DUP2 MSTORE PUSH1 0x6 SWAP1 SWAP2 ADD SWAP1 SWAP3 MSTORE SWAP1 KECCAK256 SSTORE PUSH2 0x21C7 PUSH2 0xB87 JUMP JUMPDEST PUSH1 0x1 PUSH1 0x1 PUSH1 0xA0 SHL SUB AND DUP2 PUSH1 0x1 PUSH1 0x1 PUSH1 0xA0 SHL SUB AND PUSH32 0xBCCC71DC7842B86291138666AA18E133EE6D41AA71E6D7C650DEBAD1A0576635 PUSH1 0x40 MLOAD PUSH1 0x40 MLOAD DUP1 SWAP2 SUB SWAP1 LOG3 POP JUMP JUMPDEST PUSH1 0x0 DUP2 DUP2 MSTORE PUSH2 0x167 PUSH1 0x20 SWAP1 DUP2 MSTORE PUSH1 0x40 SWAP2 DUP3 SWAP1 KECCAK256 PUSH1 0x4 ADD SLOAD DUP3 MLOAD DUP1 DUP5 ADD SWAP1 SWAP4 MSTORE PUSH1 0x6 DUP4 MSTORE PUSH6 0x303032303033 PUSH1 0xD0 SHL SWAP2 DUP4 ADD SWAP2 SWAP1 SWAP2 MSTORE DUP3 SWAP2 SWAP1 PUSH1 0x1 PUSH1 0x1 PUSH1 0xA0 SHL SUB AND PUSH2 0x2266 JUMPI PUSH1 0x40 MLOAD PUSH3 0x461BCD PUSH1 0xE5 SHL DUP2 MSTORE PUSH1 0x4 ADD PUSH2 0xC12 SWAP2 SWAP1 PUSH2 0x4601 JUMP JUMPDEST POP PUSH1 0x0 DUP3 DUP2 MSTORE PUSH2 0x167 PUSH1 0x20 MSTORE PUSH1 0x40 SWAP1 DUP2 SWAP1 KECCAK256 SWAP1 MLOAD PUSH4 0x1F2553B PUSH1 0xE1 SHL DUP2 MSTORE PUSH1 0x4 DUP2 ADD DUP3 SWAP1 MSTORE PUSH20 0x0 SWAP1 PUSH4 0x3E4AA76 SWAP1 PUSH1 0x24 ADD PUSH1 0x0 PUSH1 0x40 MLOAD DUP1 DUP4 SUB DUP2 DUP7 DUP1 EXTCODESIZE ISZERO DUP1 ISZERO PUSH2 0x22C2 JUMPI PUSH1 0x0 DUP1 REVERT JUMPDEST POP GAS DELEGATECALL ISZERO DUP1 ISZERO PUSH2 0x22D6 JUMPI RETURNDATASIZE PUSH1 0x0 DUP1 RETURNDATACOPY RETURNDATASIZE PUSH1 0x0 REVERT JUMPDEST POP POP POP POP PUSH1 0x0 CALLVALUE GT PUSH1 0x40 MLOAD DUP1 PUSH1 0x40 ADD PUSH1 0x40 MSTORE DUP1 PUSH1 0x6 DUP2 MSTORE PUSH1 0x20 ADD PUSH6 0x303033303035 PUSH1 0xD0 SHL DUP2 MSTORE POP SWAP1 PUSH2 0x231B JUMPI PUSH1 0x40 MLOAD PUSH3 0x461BCD PUSH1 0xE5 SHL DUP2 MSTORE PUSH1 0x4 ADD PUSH2 0xC12 SWAP2 SWAP1 PUSH2 0x4601 JUMP JUMPDEST POP PUSH1 0x0 PUSH20 0x0 PUSH4 0xFEAC0F70 PUSH2 0x168 DUP7 PUSH2 0x2344 PUSH2 0xB87 JUMP JUMPDEST PUSH1 0x40 MLOAD PUSH1 0x1 PUSH1 0x1 PUSH1 0xE0 SHL SUB NOT PUSH1 0xE0 DUP7 SWAP1 SHL AND DUP2 MSTORE PUSH1 0x4 DUP2 ADD SWAP4 SWAP1 SWAP4 MSTORE PUSH1 0x24 DUP4 ADD SWAP2 SWAP1 SWAP2 MSTORE PUSH1 0x1 PUSH1 0x1 PUSH1 0xA0 SHL SUB AND PUSH1 0x44 DUP3 ADD MSTORE CALLVALUE PUSH1 0x64 DUP3 ADD MSTORE PUSH1 0x84 ADD PUSH1 0x20 PUSH1 0x40 MLOAD DUP1 DUP4 SUB DUP2 DUP7 DUP1 EXTCODESIZE ISZERO DUP1 ISZERO PUSH2 0x2397 JUMPI PUSH1 0x0 DUP1 REVERT JUMPDEST POP GAS DELEGATECALL ISZERO DUP1 ISZERO PUSH2 0x23AB JUMPI RETURNDATASIZE PUSH1 0x0 DUP1 RETURNDATACOPY RETURNDATASIZE PUSH1 0x0 REVERT JUMPDEST POP POP POP POP PUSH1 0x40 MLOAD RETURNDATASIZE PUSH1 0x1F NOT PUSH1 0x1F DUP3 ADD AND DUP3 ADD DUP1 PUSH1 0x40 MSTORE POP DUP2 ADD SWAP1 PUSH2 0x23CF SWAP2 SWAP1 PUSH2 0x4325 JUMP JUMPDEST PUSH1 0x40 MLOAD PUSH4 0xAEBE5183 PUSH1 0xE0 SHL DUP2 MSTORE PUSH1 0x4 DUP2 ADD DUP5 SWAP1 MSTORE PUSH1 0x24 DUP2 ADD DUP3 SWAP1 MSTORE CALLVALUE PUSH1 0x44 DUP3 ADD MSTORE SWAP1 SWAP2 POP PUSH20 0x0 SWAP1 PUSH4 0xAEBE5183 SWAP1 PUSH1 0x64 ADD PUSH1 0x0 PUSH1 0x40 MLOAD DUP1 DUP4 SUB DUP2 DUP7 DUP1 EXTCODESIZE ISZERO DUP1 ISZERO PUSH2 0x242A JUMPI PUSH1 0x0 DUP1 REVERT JUMPDEST POP GAS DELEGATECALL ISZERO DUP1 ISZERO PUSH2 0x243E JUMPI RETURNDATASIZE PUSH1 0x0 DUP1 RETURNDATACOPY RETURNDATASIZE PUSH1 0x0 REVERT JUMPDEST POP POP POP POP PUSH1 0x0 PUSH2 0x169 PUSH1 0x0 PUSH2 0x2451 PUSH2 0xB87 JUMP JUMPDEST PUSH1 0x1 PUSH1 0x1 PUSH1 0xA0 SHL SUB AND DUP2 MSTORE PUSH1 0x20 DUP2 ADD SWAP2 SWAP1 SWAP2 MSTORE PUSH1 0x40 SWAP1 DUP2 ADD PUSH1 0x0 KECCAK256 SWAP1 MLOAD PUSH4 0x1BEBC41B PUSH1 0xE0 SHL DUP2 MSTORE PUSH1 0x4 DUP2 ADD DUP3 SWAP1 MSTORE PUSH1 0x24 DUP2 ADD DUP5 SWAP1 MSTORE SWAP1 SWAP2 POP PUSH20 0x0 SWAP1 PUSH4 0x1BEBC41B SWAP1 PUSH1 0x44 ADD PUSH1 0x0 PUSH1 0x40 MLOAD DUP1 DUP4 SUB DUP2 DUP7 DUP1 EXTCODESIZE ISZERO DUP1 ISZERO PUSH2 0x24C0 JUMPI PUSH1 0x0 DUP1 REVERT JUMPDEST POP GAS DELEGATECALL ISZERO DUP1 ISZERO PUSH2 0x24D4 JUMPI RETURNDATASIZE PUSH1 0x0 DUP1 RETURNDATACOPY RETURNDATASIZE PUSH1 0x0 REVERT JUMPDEST POP POP POP POP PUSH2 0x24E0 PUSH2 0xB87 JUMP JUMPDEST PUSH1 0x1 PUSH1 0x1 PUSH1 0xA0 SHL SUB AND DUP3 DUP7 PUSH32 0xB8A61F3258608A2F1AF184E4640B08E6CD69126E3C563D30B6348EBFB5155884 CALLVALUE PUSH1 0x40 MLOAD PUSH2 0x251C SWAP2 DUP2 MSTORE PUSH1 0x20 ADD SWAP1 JUMP JUMPDEST PUSH1 0x40 MLOAD DUP1 SWAP2 SUB SWAP1 LOG4 POP POP POP POP POP JUMP JUMPDEST PUSH1 0x0 PUSH2 0x2539 DUP2 PUSH2 0xBCF PUSH2 0xB87 JUMP JUMPDEST PUSH2 0x163 SLOAD PUSH1 0x40 DUP1 MLOAD DUP1 DUP3 ADD SWAP1 SWAP2 MSTORE PUSH1 0x6 DUP2 MSTORE PUSH6 0x60607260607 PUSH1 0xD3 SHL PUSH1 0x20 DUP3 ADD MSTORE SWAP1 PUSH1 0x1 PUSH1 0x1 PUSH1 0xA0 SHL SUB AND PUSH2 0x2581 JUMPI PUSH1 0x40 MLOAD PUSH3 0x461BCD PUSH1 0xE5 SHL DUP2 MSTORE PUSH1 0x4 ADD PUSH2 0xC12 SWAP2 SWAP1 PUSH2 0x4601 JUMP JUMPDEST POP POP PUSH2 0x163 DUP1 SLOAD PUSH1 0x1 PUSH1 0x1 PUSH1 0xA0 SHL SUB NOT AND PUSH1 0x1 PUSH1 0x1 PUSH1 0xA0 SHL SUB SWAP3 SWAP1 SWAP3 AND SWAP2 SWAP1 SWAP2 OR SWAP1 SSTORE JUMP JUMPDEST PUSH1 0x0 DUP3 DUP2 MSTORE PUSH2 0x167 PUSH1 0x20 SWAP1 DUP2 MSTORE PUSH1 0x40 SWAP2 DUP3 SWAP1 KECCAK256 PUSH1 0x4 ADD SLOAD DUP3 MLOAD DUP1 DUP5 ADD SWAP1 SWAP4 MSTORE PUSH1 0x6 DUP4 MSTORE PUSH6 0x303032303033 PUSH1 0xD0 SHL SWAP2 DUP4 ADD SWAP2 SWAP1 SWAP2 MSTORE DUP4 SWAP2 SWAP1 PUSH1 0x1 PUSH1 0x1 PUSH1 0xA0 SHL SUB AND PUSH2 0x2603 JUMPI PUSH1 0x40 MLOAD PUSH3 0x461BCD PUSH1 0xE5 SHL DUP2 MSTORE PUSH1 0x4 ADD PUSH2 0xC12 SWAP2 SWAP1 PUSH2 0x4601 JUMP JUMPDEST POP DUP3 PUSH2 0x260D PUSH2 0xB87 JUMP JUMPDEST PUSH1 0x0 DUP3 DUP2 MSTORE PUSH2 0x167 PUSH1 0x20 SWAP1 DUP2 MSTORE PUSH1 0x40 SWAP2 DUP3 SWAP1 KECCAK256 PUSH1 0x4 ADD SLOAD DUP3 MLOAD DUP1 DUP5 ADD SWAP1 SWAP4 MSTORE PUSH1 0x6 DUP4 MSTORE PUSH6 0x181819181819 PUSH1 0xD1 SHL SWAP2 DUP4 ADD SWAP2 SWAP1 SWAP2 MSTORE SWAP1 SWAP2 PUSH1 0x1 PUSH1 0x1 PUSH1 0xA0 SHL SUB SWAP2 DUP3 AND SWAP2 AND EQ PUSH2 0x266E JUMPI PUSH1 0x40 MLOAD PUSH3 0x461BCD PUSH1 0xE5 SHL DUP2 MSTORE PUSH1 0x4 ADD PUSH2 0xC12 SWAP2 SWAP1 PUSH2 0x4601 JUMP JUMPDEST POP DUP3 DUP1 PUSH1 0x2 LT ISZERO PUSH1 0x40 MLOAD DUP1 PUSH1 0x40 ADD PUSH1 0x40 MSTORE DUP1 PUSH1 0x6 DUP2 MSTORE PUSH1 0x20 ADD PUSH6 0x303032303131 PUSH1 0xD0 SHL DUP2 MSTORE POP SWAP1 PUSH2 0x26B2 JUMPI PUSH1 0x40 MLOAD PUSH3 0x461BCD PUSH1 0xE5 SHL DUP2 MSTORE PUSH1 0x4 ADD PUSH2 0xC12 SWAP2 SWAP1 PUSH2 0x4601 JUMP JUMPDEST POP PUSH1 0x3 PUSH1 0x0 DUP7 DUP2 MSTORE PUSH2 0x167 PUSH1 0x20 MSTORE PUSH1 0x40 SWAP1 KECCAK256 PUSH1 0x9 ADD SLOAD PUSH1 0xFF AND PUSH1 0x3 DUP2 GT ISZERO PUSH2 0x26DC JUMPI PUSH2 0x26DC PUSH2 0x493D JUMP JUMPDEST EQ PUSH1 0x40 MLOAD DUP1 PUSH1 0x40 ADD PUSH1 0x40 MSTORE DUP1 PUSH1 0x6 DUP2 MSTORE PUSH1 0x20 ADD PUSH6 0x303032303039 PUSH1 0xD0 SHL DUP2 MSTORE POP SWAP1 PUSH2 0x271A JUMPI PUSH1 0x40 MLOAD PUSH3 0x461BCD PUSH1 0xE5 SHL DUP2 MSTORE PUSH1 0x4 ADD PUSH2 0xC12 SWAP2 SWAP1 PUSH2 0x4601 JUMP JUMPDEST POP PUSH1 0x0 DUP6 DUP2 MSTORE PUSH2 0x167 PUSH1 0x20 MSTORE PUSH1 0x40 DUP2 KECCAK256 PUSH1 0xB ADD SLOAD PUSH1 0xFF AND PUSH1 0x2 DUP2 GT ISZERO PUSH2 0x2742 JUMPI PUSH2 0x2742 PUSH2 0x493D JUMP JUMPDEST EQ PUSH1 0x40 MLOAD DUP1 PUSH1 0x40 ADD PUSH1 0x40 MSTORE DUP1 PUSH1 0x6 DUP2 MSTORE PUSH1 0x20 ADD PUSH6 0x181819181899 PUSH1 0xD1 SHL DUP2 MSTORE POP SWAP1 PUSH2 0x2780 JUMPI PUSH1 0x40 MLOAD PUSH3 0x461BCD PUSH1 0xE5 SHL DUP2 MSTORE PUSH1 0x4 ADD PUSH2 0xC12 SWAP2 SWAP1 PUSH2 0x4601 JUMP JUMPDEST POP DUP4 PUSH1 0x2 DUP2 GT ISZERO PUSH2 0x2793 JUMPI PUSH2 0x2793 PUSH2 0x493D JUMP JUMPDEST PUSH1 0x0 DUP7 DUP2 MSTORE PUSH2 0x167 PUSH1 0x20 MSTORE PUSH1 0x40 SWAP1 KECCAK256 PUSH1 0xB ADD DUP1 SLOAD PUSH1 0xFF NOT AND PUSH1 0x1 DUP4 PUSH1 0x2 DUP2 GT ISZERO PUSH2 0x27BF JUMPI PUSH2 0x27BF PUSH2 0x493D JUMP JUMPDEST MUL OR SWAP1 SSTORE POP PUSH1 0x0 DUP6 DUP2 MSTORE PUSH2 0x167 PUSH1 0x20 MSTORE PUSH1 0x40 SWAP1 DUP2 SWAP1 KECCAK256 PUSH1 0x5 DUP2 ADD SLOAD PUSH1 0x4 SWAP1 SWAP2 ADD SLOAD SWAP2 MLOAD PUSH1 0x1 PUSH1 0x1 PUSH1 0xA0 SHL SUB SWAP2 DUP3 AND SWAP3 SWAP1 SWAP2 AND SWAP1 DUP8 SWAP1 PUSH32 0xBA2E4B16CB7F6BBE19C7A1146539A78ED1DB3EFBB3DD80D6C65F0BA1D8403459 SWAP1 PUSH2 0x251C SWAP1 DUP10 DUP2 MSTORE PUSH1 0x20 ADD SWAP1 JUMP JUMPDEST PUSH1 0x0 DUP1 PUSH2 0x2832 DUP2 PUSH2 0xBCF PUSH2 0xB87 JUMP JUMPDEST SELFBALANCE SWAP2 POP JUMPDEST POP SWAP1 JUMP JUMPDEST PUSH1 0x33 SLOAD PUSH1 0xFF AND ISZERO PUSH2 0x285D JUMPI PUSH1 0x40 MLOAD PUSH3 0x461BCD PUSH1 0xE5 SHL DUP2 MSTORE PUSH1 0x4 ADD PUSH2 0xC12 SWAP1 PUSH2 0x4704 JUMP JUMPDEST PUSH1 0x2 PUSH2 0x12D SLOAD EQ ISZERO PUSH2 0x2881 JUMPI PUSH1 0x40 MLOAD PUSH3 0x461BCD PUSH1 0xE5 SHL DUP2 MSTORE PUSH1 0x4 ADD PUSH2 0xC12 SWAP1 PUSH2 0x4779 JUMP JUMPDEST PUSH1 0x2 PUSH2 0x12D SSTORE PUSH2 0x16A PUSH1 0x0 PUSH2 0x2894 PUSH2 0xB87 JUMP JUMPDEST PUSH1 0x1 PUSH1 0x1 PUSH1 0xA0 SHL SUB AND PUSH1 0x1 PUSH1 0x1 PUSH1 0xA0 SHL SUB AND DUP2 MSTORE PUSH1 0x20 ADD SWAP1 DUP2 MSTORE PUSH1 0x20 ADD PUSH1 0x0 KECCAK256 SLOAD DUP3 GT ISZERO PUSH1 0x40 MLOAD DUP1 PUSH1 0x40 ADD PUSH1 0x40 MSTORE DUP1 PUSH1 0x6 DUP2 MSTORE PUSH1 0x20 ADD PUSH6 0x303039303031 PUSH1 0xD0 SHL DUP2 MSTORE POP SWAP1 PUSH2 0x28F5 JUMPI PUSH1 0x40 MLOAD PUSH3 0x461BCD PUSH1 0xE5 SHL DUP2 MSTORE PUSH1 0x4 ADD PUSH2 0xC12 SWAP2 SWAP1 PUSH2 0x4601 JUMP JUMPDEST POP DUP2 PUSH2 0x16A PUSH1 0x0 PUSH2 0x2904 PUSH2 0xB87 JUMP JUMPDEST PUSH1 0x1 PUSH1 0x1 PUSH1 0xA0 SHL SUB AND PUSH1 0x1 PUSH1 0x1 PUSH1 0xA0 SHL SUB AND DUP2 MSTORE PUSH1 0x20 ADD SWAP1 DUP2 MSTORE PUSH1 0x20 ADD PUSH1 0x0 KECCAK256 PUSH1 0x0 DUP3 DUP3 SLOAD PUSH2 0x2933 SWAP2 SWAP1 PUSH2 0x4861 JUMP JUMPDEST SWAP1 SWAP2 SSTORE POP PUSH2 0x2943 SWAP1 POP DUP2 DUP4 PUSH2 0x3302 JUMP JUMPDEST DUP1 PUSH1 0x1 PUSH1 0x1 PUSH1 0xA0 SHL SUB AND PUSH2 0x2955 PUSH2 0xB87 JUMP JUMPDEST PUSH1 0x1 PUSH1 0x1 PUSH1 0xA0 SHL SUB AND PUSH32 0xDDF252AD1BE2C89B69C2B068FC378DAA952BA7F163C4A11628F55A4DF523B3EF DUP5 PUSH1 0x40 MLOAD PUSH2 0x298F SWAP2 DUP2 MSTORE PUSH1 0x20 ADD SWAP1 JUMP JUMPDEST PUSH1 0x40 MLOAD DUP1 SWAP2 SUB SWAP1 LOG3 POP POP PUSH1 0x1 PUSH2 0x12D SSTORE JUMP JUMPDEST PUSH1 0x1 PUSH1 0x1 PUSH1 0xA0 SHL SUB DUP4 AND PUSH1 0x0 SWAP1 DUP2 MSTORE PUSH2 0x169 PUSH1 0x20 MSTORE PUSH1 0x40 DUP1 DUP3 KECCAK256 SWAP1 MLOAD PUSH4 0x74A5907 PUSH1 0xE0 SHL DUP2 MSTORE PUSH1 0x4 DUP1 DUP3 ADD DUP7 SWAP1 MSTORE PUSH1 0x24 DUP3 ADD DUP6 SWAP1 MSTORE SWAP1 SWAP2 ADD PUSH1 0x44 DUP3 ADD MSTORE PUSH1 0x60 SWAP2 SWAP1 PUSH20 0x0 SWAP1 PUSH4 0x74A5907 SWAP1 PUSH1 0x64 ADD PUSH2 0x20BA JUMP JUMPDEST PUSH1 0x0 PUSH2 0x16A PUSH1 0x0 PUSH2 0x2A15 PUSH2 0xB87 JUMP JUMPDEST PUSH1 0x1 PUSH1 0x1 PUSH1 0xA0 SHL SUB AND PUSH1 0x1 PUSH1 0x1 PUSH1 0xA0 SHL SUB AND DUP2 MSTORE PUSH1 0x20 ADD SWAP1 DUP2 MSTORE PUSH1 0x20 ADD PUSH1 0x0 KECCAK256 SLOAD SWAP1 POP SWAP1 JUMP JUMPDEST PUSH1 0x0 DUP2 DUP2 MSTORE PUSH1 0xFB PUSH1 0x20 MSTORE PUSH1 0x40 DUP2 KECCAK256 PUSH2 0xBBB SWAP1 PUSH2 0x3889 JUMP JUMPDEST PUSH1 0x0 DUP3 DUP2 MSTORE PUSH1 0xC9 PUSH1 0x20 MSTORE PUSH1 0x40 SWAP1 KECCAK256 PUSH1 0x1 ADD SLOAD PUSH2 0x2A70 DUP2 PUSH2 0xBCF PUSH2 0xB87 JUMP JUMPDEST PUSH2 0x167D DUP4 DUP4 PUSH2 0x343D JUMP JUMPDEST PUSH1 0x0 PUSH2 0x2A86 DUP5 DUP5 PUSH2 0x2AD4 JUMP JUMPDEST ISZERO PUSH2 0x2A93 JUMPI POP PUSH1 0x0 PUSH2 0x1E23 JUMP JUMPDEST PUSH1 0x1 DUP3 EQ ISZERO PUSH2 0x2AAC JUMPI PUSH2 0x2AA5 DUP4 PUSH2 0x3893 JUMP JUMPDEST SWAP1 POP PUSH2 0x1E23 JUMP JUMPDEST PUSH2 0x2AB5 DUP4 PUSH2 0x38DD JUMP JUMPDEST SWAP5 SWAP4 POP POP POP POP JUMP JUMPDEST PUSH1 0x0 PUSH2 0x2ACB DUP2 PUSH2 0xBCF PUSH2 0xB87 JUMP JUMPDEST PUSH2 0x170C DUP3 PUSH2 0x3921 JUMP JUMPDEST PUSH1 0x0 PUSH1 0x2 PUSH2 0x1395 JUMP JUMPDEST PUSH1 0x0 PUSH2 0x169 PUSH1 0x0 PUSH2 0x2AEC PUSH2 0xB87 JUMP JUMPDEST PUSH1 0x1 PUSH1 0x1 PUSH1 0xA0 SHL SUB SWAP1 DUP2 AND DUP3 MSTORE PUSH1 0x20 DUP1 DUP4 ADD SWAP4 SWAP1 SWAP4 MSTORE PUSH1 0x40 SWAP2 DUP3 ADD PUSH1 0x0 SWAP1 DUP2 KECCAK256 SWAP2 DUP7 AND DUP2 MSTORE PUSH1 0x6 SWAP1 SWAP2 ADD SWAP1 SWAP3 MSTORE SWAP1 KECCAK256 SSTORE PUSH2 0x2B24 PUSH2 0xB87 JUMP JUMPDEST PUSH1 0x1 PUSH1 0x1 PUSH1 0xA0 SHL SUB AND DUP2 PUSH1 0x1 PUSH1 0x1 PUSH1 0xA0 SHL SUB AND PUSH32 0xE5DCCCFE8E7890C6D4AA94D44C3B409FB6F023337F29C3308077C0C4068192C4 PUSH1 0x40 MLOAD PUSH1 0x40 MLOAD DUP1 SWAP2 SUB SWAP1 LOG3 POP JUMP JUMPDEST PUSH1 0x33 SLOAD PUSH1 0xFF AND ISZERO PUSH2 0x2B89 JUMPI PUSH1 0x40 MLOAD PUSH3 0x461BCD PUSH1 0xE5 SHL DUP2 MSTORE PUSH1 0x4 ADD PUSH2 0xC12 SWAP1 PUSH2 0x4704 JUMP JUMPDEST PUSH1 0x0 DUP2 DUP2 MSTORE PUSH2 0x168 PUSH1 0x20 SWAP1 DUP2 MSTORE PUSH1 0x40 SWAP2 DUP3 SWAP1 KECCAK256 SLOAD DUP3 MLOAD DUP1 DUP5 ADD SWAP1 SWAP4 MSTORE PUSH1 0x6 DUP4 MSTORE PUSH6 0x303033303033 PUSH1 0xD0 SHL SWAP2 DUP4 ADD SWAP2 SWAP1 SWAP2 MSTORE DUP3 SWAP2 SWAP1 PUSH1 0x1 PUSH1 0x1 PUSH1 0xA0 SHL SUB AND PUSH2 0x2BE3 JUMPI PUSH1 0x40 MLOAD PUSH3 0x461BCD PUSH1 0xE5 SHL DUP2 MSTORE PUSH1 0x4 ADD PUSH2 0xC12 SWAP2 SWAP1 PUSH2 0x4601 JUMP JUMPDEST POP DUP2 PUSH2 0x2BED PUSH2 0xB87 JUMP JUMPDEST PUSH1 0x0 DUP3 DUP2 MSTORE PUSH2 0x168 PUSH1 0x20 SWAP1 DUP2 MSTORE PUSH1 0x40 SWAP2 DUP3 SWAP1 KECCAK256 SLOAD DUP3 MLOAD DUP1 DUP5 ADD SWAP1 SWAP4 MSTORE PUSH1 0x6 DUP4 MSTORE PUSH6 0x181819981819 PUSH1 0xD1 SHL SWAP2 DUP4 ADD SWAP2 SWAP1 SWAP2 MSTORE SWAP1 SWAP2 PUSH1 0x1 PUSH1 0x1 PUSH1 0xA0 SHL SUB SWAP2 DUP3 AND SWAP2 AND EQ PUSH2 0x2C4B JUMPI PUSH1 0x40 MLOAD PUSH3 0x461BCD PUSH1 0xE5 SHL DUP2 MSTORE PUSH1 0x4 ADD PUSH2 0xC12 SWAP2 SWAP1 PUSH2 0x4601 JUMP JUMPDEST POP PUSH1 0x0 DUP4 DUP2 MSTORE PUSH2 0x168 PUSH1 0x20 SWAP1 DUP2 MSTORE PUSH1 0x40 DUP1 DUP4 KECCAK256 PUSH1 0x3 DUP2 ADD SLOAD DUP5 MSTORE PUSH2 0x167 SWAP1 SWAP3 MSTORE SWAP2 DUP3 SWAP1 KECCAK256 SWAP2 MLOAD PUSH4 0x18B5B067 PUSH1 0xE2 SHL DUP2 MSTORE PUSH1 0x4 DUP2 ADD DUP3 SWAP1 MSTORE PUSH1 0x24 DUP2 ADD DUP4 SWAP1 MSTORE SWAP1 SWAP2 SWAP1 PUSH20 0x0 SWAP1 PUSH4 0x62D6C19C SWAP1 PUSH1 0x44 ADD PUSH1 0x0 PUSH1 0x40 MLOAD DUP1 DUP4 SUB DUP2 DUP7 DUP1 EXTCODESIZE ISZERO DUP1 ISZERO PUSH2 0x2CC3 JUMPI PUSH1 0x0 DUP1 REVERT JUMPDEST POP GAS DELEGATECALL ISZERO DUP1 ISZERO PUSH2 0x2CD7 JUMPI RETURNDATASIZE PUSH1 0x0 DUP1 RETURNDATACOPY RETURNDATASIZE PUSH1 0x0 REVERT JUMPDEST POP POP POP POP DUP2 PUSH1 0x1 ADD SLOAD PUSH2 0x16A PUSH1 0x0 PUSH2 0x2CED PUSH2 0xB87 JUMP JUMPDEST PUSH1 0x1 PUSH1 0x1 PUSH1 0xA0 SHL SUB AND PUSH1 0x1 PUSH1 0x1 PUSH1 0xA0 SHL SUB AND DUP2 MSTORE PUSH1 0x20 ADD SWAP1 DUP2 MSTORE PUSH1 0x20 ADD PUSH1 0x0 KECCAK256 PUSH1 0x0 DUP3 DUP3 SLOAD PUSH2 0x2D1C SWAP2 SWAP1 PUSH2 0x4808 JUMP JUMPDEST SWAP1 SWAP2 SSTORE POP PUSH2 0x2D2A SWAP1 POP PUSH2 0xB87 JUMP JUMPDEST PUSH1 0x1 PUSH1 0x1 PUSH1 0xA0 SHL SUB AND PUSH1 0x0 DUP1 MLOAD PUSH1 0x20 PUSH2 0x4A3B DUP4 CODECOPY DUP2 MLOAD SWAP2 MSTORE DUP4 PUSH1 0x1 ADD SLOAD PUSH1 0x40 MLOAD PUSH2 0x2D56 SWAP2 DUP2 MSTORE PUSH1 0x20 ADD SWAP1 JUMP JUMPDEST PUSH1 0x40 MLOAD DUP1 SWAP2 SUB SWAP1 LOG2 PUSH2 0x2D66 PUSH2 0xB87 JUMP JUMPDEST PUSH1 0x1 PUSH1 0x1 PUSH1 0xA0 SHL SUB AND DUP6 DUP4 PUSH1 0x3 ADD SLOAD PUSH32 0x8827140ED7E0AEE657F6D8AB3D65B02D30022ED333E284958313DB49217E7C3E DUP6 PUSH1 0x1 ADD SLOAD PUSH1 0x40 MLOAD PUSH2 0x251C SWAP2 DUP2 MSTORE PUSH1 0x20 ADD SWAP1 JUMP JUMPDEST PUSH1 0x0 PUSH1 0x1 DUP3 EQ ISZERO PUSH2 0x2DBE JUMPI POP POP PUSH2 0x161 SLOAD SWAP1 JUMP JUMPDEST POP POP PUSH2 0x160 SLOAD SWAP1 JUMP JUMPDEST PUSH1 0x65 SLOAD PUSH1 0x0 SWAP1 PUSH1 0x1 PUSH1 0x1 PUSH1 0xA0 SHL SUB AND CALLER EQ ISZERO PUSH2 0x2DEA JUMPI POP PUSH1 0x13 NOT CALLDATASIZE ADD CALLDATALOAD PUSH1 0x60 SHR SWAP1 JUMP JUMPDEST POP CALLER SWAP1 JUMP JUMPDEST SWAP1 JUMP JUMPDEST PUSH1 0x0 PUSH1 0x1 PUSH1 0x1 PUSH1 0xE0 SHL SUB NOT DUP3 AND PUSH4 0x7965DB0B PUSH1 0xE0 SHL EQ DUP1 PUSH2 0xBBB JUMPI POP PUSH4 0x1FFC9A7 PUSH1 0xE0 SHL PUSH1 0x1 PUSH1 0x1 PUSH1 0xE0 SHL SUB NOT DUP4 AND EQ PUSH2 0xBBB JUMP JUMPDEST PUSH2 0x2E31 DUP3 DUP3 PUSH2 0x1E2A JUMP JUMPDEST PUSH2 0x170C JUMPI PUSH2 0x2E49 DUP2 PUSH1 0x1 PUSH1 0x1 PUSH1 0xA0 SHL SUB AND PUSH1 0x14 PUSH2 0x396A JUMP JUMPDEST PUSH2 0x2E54 DUP4 PUSH1 0x20 PUSH2 0x396A JUMP JUMPDEST PUSH1 0x40 MLOAD PUSH1 0x20 ADD PUSH2 0x2E65 SWAP3 SWAP2 SWAP1 PUSH2 0x4520 JUMP JUMPDEST PUSH1 0x40 DUP1 MLOAD PUSH1 0x1F NOT DUP2 DUP5 SUB ADD DUP2 MSTORE SWAP1 DUP3 SWAP1 MSTORE PUSH3 0x461BCD PUSH1 0xE5 SHL DUP3 MSTORE PUSH2 0xC12 SWAP2 PUSH1 0x4 ADD PUSH2 0x4601 JUMP JUMPDEST PUSH1 0x0 SLOAD PUSH2 0x100 SWAP1 DIV PUSH1 0xFF AND PUSH2 0x2EB2 JUMPI PUSH1 0x40 MLOAD PUSH3 0x461BCD PUSH1 0xE5 SHL DUP2 MSTORE PUSH1 0x4 ADD PUSH2 0xC12 SWAP1 PUSH2 0x472E JUMP JUMPDEST PUSH2 0x2EBA PUSH2 0x3B06 JUMP JUMPDEST PUSH2 0x2EC2 PUSH2 0x3B06 JUMP JUMPDEST PUSH2 0x2ECA PUSH2 0x3B06 JUMP JUMPDEST PUSH2 0x1888 PUSH2 0x3B06 JUMP JUMPDEST PUSH1 0x0 SLOAD PUSH2 0x100 SWAP1 DIV PUSH1 0xFF AND PUSH2 0x2EF9 JUMPI PUSH1 0x40 MLOAD PUSH3 0x461BCD PUSH1 0xE5 SHL DUP2 MSTORE PUSH1 0x4 ADD PUSH2 0xC12 SWAP1 PUSH2 0x472E JUMP JUMPDEST PUSH2 0x1888 PUSH2 0x3B2D JUMP JUMPDEST PUSH1 0x0 SLOAD PUSH2 0x100 SWAP1 DIV PUSH1 0xFF AND PUSH2 0x2F28 JUMPI PUSH1 0x40 MLOAD PUSH3 0x461BCD PUSH1 0xE5 SHL DUP2 MSTORE PUSH1 0x4 ADD PUSH2 0xC12 SWAP1 PUSH2 0x472E JUMP JUMPDEST PUSH2 0x2F30 PUSH2 0x3B06 JUMP JUMPDEST PUSH2 0x1888 PUSH2 0x3B5C JUMP JUMPDEST PUSH1 0x0 SLOAD PUSH2 0x100 SWAP1 DIV PUSH1 0xFF AND PUSH2 0x2F5F JUMPI PUSH1 0x40 MLOAD PUSH3 0x461BCD PUSH1 0xE5 SHL DUP2 MSTORE PUSH1 0x4 ADD PUSH2 0xC12 SWAP1 PUSH2 0x472E JUMP JUMPDEST PUSH2 0x2F67 PUSH2 0x3B06 JUMP JUMPDEST PUSH2 0x2F70 DUP2 PUSH2 0x3921 JUMP JUMPDEST POP JUMP JUMPDEST PUSH2 0x170C DUP3 DUP3 PUSH2 0x341B JUMP JUMPDEST PUSH1 0x0 DUP3 DUP2 MSTORE PUSH1 0xC9 PUSH1 0x20 MSTORE PUSH1 0x40 DUP1 DUP3 KECCAK256 PUSH1 0x1 ADD DUP1 SLOAD SWAP1 DUP5 SWAP1 SSTORE SWAP1 MLOAD SWAP1 SWAP2 DUP4 SWAP2 DUP4 SWAP2 DUP7 SWAP2 PUSH32 0xBD79B86FFE0AB8E8776151514217CD7CACD52C909F66475C3AF44E129F0B00FF SWAP2 SWAP1 LOG4 POP POP POP JUMP JUMPDEST PUSH1 0x0 DUP1 PUSH20 0x0 PUSH4 0xB0B67FA8 DUP5 DUP11 PUSH1 0x40 MLOAD DUP4 PUSH4 0xFFFFFFFF AND PUSH1 0xE0 SHL DUP2 MSTORE PUSH1 0x4 ADD PUSH2 0x3004 SWAP3 SWAP2 SWAP1 PUSH2 0x4614 JUMP JUMPDEST PUSH1 0x20 PUSH1 0x40 MLOAD DUP1 DUP4 SUB DUP2 DUP7 DUP1 EXTCODESIZE ISZERO DUP1 ISZERO PUSH2 0x301C JUMPI PUSH1 0x0 DUP1 REVERT JUMPDEST POP GAS DELEGATECALL ISZERO DUP1 ISZERO PUSH2 0x3030 JUMPI RETURNDATASIZE PUSH1 0x0 DUP1 RETURNDATACOPY RETURNDATASIZE PUSH1 0x0 REVERT JUMPDEST POP POP POP POP PUSH1 0x40 MLOAD RETURNDATASIZE PUSH1 0x1F NOT PUSH1 0x1F DUP3 ADD AND DUP3 ADD DUP1 PUSH1 0x40 MSTORE POP DUP2 ADD SWAP1 PUSH2 0x3054 SWAP2 SWAP1 PUSH2 0x4325 JUMP JUMPDEST PUSH1 0x40 DUP1 MLOAD PUSH1 0x0 DUP1 DUP3 MSTORE PUSH1 0x20 DUP3 ADD SWAP1 SWAP3 MSTORE SWAP2 SWAP3 POP PUSH2 0x3071 DUP8 TIMESTAMP PUSH2 0x4808 JUMP JUMPDEST SWAP1 POP PUSH1 0x40 MLOAD DUP1 PUSH2 0x1A0 ADD PUSH1 0x40 MSTORE DUP1 DUP7 DUP2 MSTORE PUSH1 0x20 ADD PUSH1 0x40 MLOAD DUP1 PUSH1 0x20 ADD PUSH1 0x40 MSTORE DUP1 PUSH1 0x0 DUP2 MSTORE POP DUP2 MSTORE PUSH1 0x20 ADD DUP10 DUP2 MSTORE PUSH1 0x20 ADD DUP10 DUP2 MSTORE PUSH1 0x20 ADD DUP12 PUSH1 0x1 PUSH1 0x1 PUSH1 0xA0 SHL SUB AND DUP2 MSTORE PUSH1 0x20 ADD DUP11 PUSH1 0x1 PUSH1 0x1 PUSH1 0xA0 SHL SUB AND DUP2 MSTORE PUSH1 0x20 ADD DUP4 DUP2 MSTORE PUSH1 0x20 ADD TIMESTAMP DUP2 MSTORE PUSH1 0x20 ADD DUP3 DUP2 MSTORE PUSH1 0x20 ADD PUSH1 0x0 PUSH1 0x3 DUP2 GT ISZERO PUSH2 0x30E9 JUMPI PUSH2 0x30E9 PUSH2 0x493D JUMP JUMPDEST DUP2 MSTORE PUSH1 0x20 ADD PUSH1 0x0 DUP2 MSTORE PUSH1 0x20 ADD PUSH1 0x0 PUSH1 0x2 DUP2 GT ISZERO PUSH2 0x3108 JUMPI PUSH2 0x3108 PUSH2 0x493D JUMP JUMPDEST DUP2 MSTORE PUSH1 0x20 SWAP1 DUP2 ADD DUP9 SWAP1 MSTORE PUSH1 0x0 DUP6 DUP2 MSTORE PUSH2 0x167 DUP3 MSTORE PUSH1 0x40 SWAP1 KECCAK256 DUP3 MLOAD DUP1 MLOAD SWAP2 SWAP3 PUSH2 0x3135 SWAP3 DUP5 SWAP3 SWAP1 SWAP2 ADD SWAP1 PUSH2 0x3FD9 JUMP JUMPDEST POP PUSH1 0x20 DUP3 DUP2 ADD MLOAD DUP1 MLOAD PUSH2 0x314E SWAP3 PUSH1 0x1 DUP6 ADD SWAP3 ADD SWAP1 PUSH2 0x3FD9 JUMP JUMPDEST POP PUSH1 0x40 DUP3 ADD MLOAD PUSH1 0x2 DUP3 ADD SSTORE PUSH1 0x60 DUP3 ADD MLOAD PUSH1 0x3 DUP3 ADD SSTORE PUSH1 0x80 DUP3 ADD MLOAD PUSH1 0x4 DUP3 ADD DUP1 SLOAD PUSH1 0x1 PUSH1 0x1 PUSH1 0xA0 SHL SUB SWAP3 DUP4 AND PUSH1 0x1 PUSH1 0x1 PUSH1 0xA0 SHL SUB NOT SWAP2 DUP3 AND OR SWAP1 SWAP2 SSTORE PUSH1 0xA0 DUP5 ADD MLOAD PUSH1 0x5 DUP5 ADD DUP1 SLOAD SWAP2 SWAP1 SWAP4 AND SWAP2 AND OR SWAP1 SSTORE PUSH1 0xC0 DUP3 ADD MLOAD DUP1 MLOAD PUSH2 0x31B8 SWAP2 PUSH1 0x6 DUP5 ADD SWAP2 PUSH1 0x20 SWAP1 SWAP2 ADD SWAP1 PUSH2 0x4059 JUMP JUMPDEST POP PUSH1 0xE0 DUP3 ADD MLOAD PUSH1 0x7 DUP3 ADD SSTORE PUSH2 0x100 DUP3 ADD MLOAD PUSH1 0x8 DUP3 ADD SSTORE PUSH2 0x120 DUP3 ADD MLOAD PUSH1 0x9 DUP3 ADD DUP1 SLOAD PUSH1 0xFF NOT AND PUSH1 0x1 DUP4 PUSH1 0x3 DUP2 GT ISZERO PUSH2 0x31F2 JUMPI PUSH2 0x31F2 PUSH2 0x493D JUMP JUMPDEST MUL OR SWAP1 SSTORE POP PUSH2 0x140 DUP3 ADD MLOAD PUSH1 0xA DUP3 ADD SSTORE PUSH2 0x160 DUP3 ADD MLOAD PUSH1 0xB DUP3 ADD DUP1 SLOAD PUSH1 0xFF NOT AND PUSH1 0x1 DUP4 PUSH1 0x2 DUP2 GT ISZERO PUSH2 0x3226 JUMPI PUSH2 0x3226 PUSH2 0x493D JUMP JUMPDEST MUL OR SWAP1 SSTORE POP PUSH2 0x180 SWAP2 SWAP1 SWAP2 ADD MLOAD PUSH1 0xC SWAP1 SWAP2 ADD SSTORE DUP6 PUSH2 0x3272 JUMPI PUSH1 0x1 PUSH1 0x1 PUSH1 0xA0 SHL SUB DUP10 AND PUSH1 0x0 SWAP1 DUP2 MSTORE PUSH2 0x169 PUSH1 0x20 SWAP1 DUP2 MSTORE PUSH1 0x40 DUP3 KECCAK256 PUSH1 0x2 ADD DUP1 SLOAD PUSH1 0x1 DUP2 ADD DUP3 SSTORE SWAP1 DUP4 MSTORE SWAP2 KECCAK256 ADD DUP4 SWAP1 SSTORE PUSH2 0x32A2 JUMP JUMPDEST PUSH1 0x1 PUSH1 0x1 PUSH1 0xA0 SHL SUB DUP10 AND PUSH1 0x0 SWAP1 DUP2 MSTORE PUSH2 0x169 PUSH1 0x20 SWAP1 DUP2 MSTORE PUSH1 0x40 DUP3 KECCAK256 PUSH1 0x3 ADD DUP1 SLOAD PUSH1 0x1 DUP2 ADD DUP3 SSTORE SWAP1 DUP4 MSTORE SWAP2 KECCAK256 ADD DUP4 SWAP1 SSTORE JUMPDEST DUP10 PUSH1 0x1 PUSH1 0x1 PUSH1 0xA0 SHL SUB AND DUP4 DUP11 PUSH1 0x1 PUSH1 0x1 PUSH1 0xA0 SHL SUB AND PUSH32 0xDDA647D1E751B8DF0A785CD75E0C734774777FF91018AA17AA79BF515F851155 DUP12 DUP6 DUP11 DUP13 PUSH1 0x40 MLOAD PUSH2 0x32EC SWAP5 SWAP4 SWAP3 SWAP2 SWAP1 PUSH2 0x47D8 JUMP JUMPDEST PUSH1 0x40 MLOAD DUP1 SWAP2 SUB SWAP1 LOG4 POP SWAP1 SWAP9 SWAP8 POP POP POP POP POP POP POP POP JUMP JUMPDEST DUP1 SELFBALANCE LT ISZERO PUSH2 0x3352 JUMPI PUSH1 0x40 MLOAD PUSH3 0x461BCD PUSH1 0xE5 SHL DUP2 MSTORE PUSH1 0x20 PUSH1 0x4 DUP3 ADD MSTORE PUSH1 0x1D PUSH1 0x24 DUP3 ADD MSTORE PUSH32 0x416464726573733A20696E73756666696369656E742062616C616E6365000000 PUSH1 0x44 DUP3 ADD MSTORE PUSH1 0x64 ADD PUSH2 0xC12 JUMP JUMPDEST PUSH1 0x0 DUP3 PUSH1 0x1 PUSH1 0x1 PUSH1 0xA0 SHL SUB AND DUP3 PUSH1 0x40 MLOAD PUSH1 0x0 PUSH1 0x40 MLOAD DUP1 DUP4 SUB DUP2 DUP6 DUP8 GAS CALL SWAP3 POP POP POP RETURNDATASIZE DUP1 PUSH1 0x0 DUP2 EQ PUSH2 0x339F JUMPI PUSH1 0x40 MLOAD SWAP2 POP PUSH1 0x1F NOT PUSH1 0x3F RETURNDATASIZE ADD AND DUP3 ADD PUSH1 0x40 MSTORE RETURNDATASIZE DUP3 MSTORE RETURNDATASIZE PUSH1 0x0 PUSH1 0x20 DUP5 ADD RETURNDATACOPY PUSH2 0x33A4 JUMP JUMPDEST PUSH1 0x60 SWAP2 POP JUMPDEST POP POP SWAP1 POP DUP1 PUSH2 0x167D JUMPI PUSH1 0x40 MLOAD PUSH3 0x461BCD PUSH1 0xE5 SHL DUP2 MSTORE PUSH1 0x20 PUSH1 0x4 DUP3 ADD MSTORE PUSH1 0x3A PUSH1 0x24 DUP3 ADD MSTORE PUSH32 0x416464726573733A20756E61626C6520746F2073656E642076616C75652C2072 PUSH1 0x44 DUP3 ADD MSTORE PUSH32 0x6563697069656E74206D61792068617665207265766572746564000000000000 PUSH1 0x64 DUP3 ADD MSTORE PUSH1 0x84 ADD PUSH2 0xC12 JUMP JUMPDEST PUSH2 0x3425 DUP3 DUP3 PUSH2 0x3B8F JUMP JUMPDEST PUSH1 0x0 DUP3 DUP2 MSTORE PUSH1 0xFB PUSH1 0x20 MSTORE PUSH1 0x40 SWAP1 KECCAK256 PUSH2 0x167D SWAP1 DUP3 PUSH2 0x3C16 JUMP JUMPDEST PUSH2 0x3447 DUP3 DUP3 PUSH2 0x3C2B JUMP JUMPDEST PUSH1 0x0 DUP3 DUP2 MSTORE PUSH1 0xFB PUSH1 0x20 MSTORE PUSH1 0x40 SWAP1 KECCAK256 PUSH2 0x167D SWAP1 DUP3 PUSH2 0x3CB0 JUMP JUMPDEST PUSH1 0x33 SLOAD PUSH1 0xFF AND PUSH2 0x34A8 JUMPI PUSH1 0x40 MLOAD PUSH3 0x461BCD PUSH1 0xE5 SHL DUP2 MSTORE PUSH1 0x20 PUSH1 0x4 DUP3 ADD MSTORE PUSH1 0x14 PUSH1 0x24 DUP3 ADD MSTORE PUSH20 0x14185D5CD8589B194E881B9BDD081C185D5CD959 PUSH1 0x62 SHL PUSH1 0x44 DUP3 ADD MSTORE PUSH1 0x64 ADD PUSH2 0xC12 JUMP JUMPDEST PUSH1 0x33 DUP1 SLOAD PUSH1 0xFF NOT AND SWAP1 SSTORE PUSH32 0x5DB9EE0A495BF2E6FF9C91A7834C1BA4FDD244A5E8AA4E537BD38AEAE4B073AA PUSH2 0x34DB PUSH2 0xB87 JUMP JUMPDEST PUSH1 0x40 MLOAD PUSH1 0x1 PUSH1 0x1 PUSH1 0xA0 SHL SUB SWAP1 SWAP2 AND DUP2 MSTORE PUSH1 0x20 ADD PUSH1 0x40 MLOAD DUP1 SWAP2 SUB SWAP1 LOG1 JUMP JUMPDEST PUSH1 0x33 SLOAD PUSH1 0xFF AND ISZERO PUSH2 0x351B JUMPI PUSH1 0x40 MLOAD PUSH3 0x461BCD PUSH1 0xE5 SHL DUP2 MSTORE PUSH1 0x4 ADD PUSH2 0xC12 SWAP1 PUSH2 0x4704 JUMP JUMPDEST PUSH1 0x33 DUP1 SLOAD PUSH1 0xFF NOT AND PUSH1 0x1 OR SWAP1 SSTORE PUSH32 0x62E78CEA01BEE320CD4E420270B5EA74000D11B0C9F74754EBDBFC544B05A258 PUSH2 0x34DB PUSH2 0xB87 JUMP JUMPDEST PUSH1 0x0 PUSH2 0x1E23 DUP4 DUP4 PUSH2 0x3CC5 JUMP JUMPDEST PUSH1 0x0 DUP4 DUP2 MSTORE PUSH2 0x167 PUSH1 0x20 MSTORE PUSH1 0x40 DUP1 DUP3 KECCAK256 SWAP1 MLOAD PUSH4 0xE7F8899D PUSH1 0xE0 SHL DUP2 MSTORE PUSH1 0x4 DUP2 ADD DUP3 SWAP1 MSTORE DUP3 SWAP2 SWAP1 PUSH20 0x0 SWAP1 PUSH4 0xE7F8899D SWAP1 PUSH1 0x24 ADD PUSH1 0x0 PUSH1 0x40 MLOAD DUP1 DUP4 SUB DUP2 DUP7 DUP1 EXTCODESIZE ISZERO DUP1 ISZERO PUSH2 0x35BA JUMPI PUSH1 0x0 DUP1 REVERT JUMPDEST POP GAS DELEGATECALL ISZERO DUP1 ISZERO PUSH2 0x35CE JUMPI RETURNDATASIZE PUSH1 0x0 DUP1 RETURNDATACOPY RETURNDATASIZE PUSH1 0x0 REVERT JUMPDEST POP POP PUSH2 0x163 SLOAD PUSH1 0x0 SWAP3 POP PUSH1 0x1 PUSH1 0xA0 SHL SWAP1 DIV PUSH1 0xFF AND ISZERO SWAP1 POP PUSH2 0x3604 JUMPI PUSH1 0x4 DUP3 ADD SLOAD PUSH2 0x3601 SWAP1 PUSH1 0x1 PUSH1 0x1 PUSH1 0xA0 SHL SUB AND DUP7 PUSH2 0x3CEF JUMP JUMPDEST SWAP1 POP JUMPDEST PUSH1 0x40 MLOAD PUSH4 0x3F46F90D PUSH1 0xE2 SHL DUP2 MSTORE PUSH20 0x0 SWAP1 PUSH4 0xFD1BE434 SWAP1 PUSH2 0x363F SWAP1 DUP6 SWAP1 DUP6 SWAP1 DUP12 SWAP1 PUSH1 0x4 ADD PUSH2 0x47B0 JUMP JUMPDEST PUSH1 0x0 PUSH1 0x40 MLOAD DUP1 DUP4 SUB DUP2 DUP7 DUP1 EXTCODESIZE ISZERO DUP1 ISZERO PUSH2 0x3657 JUMPI PUSH1 0x0 DUP1 REVERT JUMPDEST POP GAS DELEGATECALL ISZERO DUP1 ISZERO PUSH2 0x366B JUMPI RETURNDATASIZE PUSH1 0x0 DUP1 RETURNDATACOPY RETURNDATASIZE PUSH1 0x0 REVERT JUMPDEST POP POP POP POP PUSH1 0x0 DUP1 PUSH2 0x3684 DUP5 PUSH1 0x2 ADD SLOAD DUP6 PUSH1 0x3 ADD SLOAD PUSH2 0x3DC6 JUMP JUMPDEST SWAP2 POP SWAP2 POP DUP4 PUSH1 0x2 ADD SLOAD PUSH1 0x0 EQ ISZERO DUP1 ISZERO PUSH2 0x36E1 JUMPI POP PUSH1 0x4 DUP5 ADD SLOAD PUSH2 0x36BC SWAP1 PUSH1 0x1 PUSH1 0x1 PUSH1 0xA0 SHL SUB AND PUSH2 0x36B2 PUSH2 0xB87 JUMP JUMPDEST DUP7 PUSH1 0xC ADD SLOAD PUSH2 0x2A7A JUMP JUMPDEST PUSH2 0x166 SLOAD PUSH2 0x36CA SWAP2 SWAP1 PUSH2 0x4842 JUMP JUMPDEST DUP5 PUSH1 0x2 ADD SLOAD DUP6 PUSH1 0x3 ADD SLOAD PUSH2 0x36DE SWAP2 SWAP1 PUSH2 0x4861 JUMP JUMPDEST LT ISZERO JUMPDEST ISZERO PUSH2 0x37E6 JUMPI PUSH1 0x0 PUSH2 0x36F3 PUSH1 0x2 DUP5 PUSH2 0x4820 JUMP JUMPDEST SWAP1 POP PUSH2 0x36FF DUP3 DUP3 PUSH2 0x4808 JUMP JUMPDEST PUSH2 0x16A PUSH1 0x0 PUSH2 0x370C PUSH2 0xB87 JUMP JUMPDEST PUSH1 0x1 PUSH1 0x1 PUSH1 0xA0 SHL SUB AND PUSH1 0x1 PUSH1 0x1 PUSH1 0xA0 SHL SUB AND DUP2 MSTORE PUSH1 0x20 ADD SWAP1 DUP2 MSTORE PUSH1 0x20 ADD PUSH1 0x0 KECCAK256 PUSH1 0x0 DUP3 DUP3 SLOAD PUSH2 0x373B SWAP2 SWAP1 PUSH2 0x4808 JUMP JUMPDEST SWAP1 SWAP2 SSTORE POP POP PUSH1 0x4 DUP6 ADD SLOAD PUSH1 0x1 PUSH1 0x1 PUSH1 0xA0 SHL SUB AND PUSH1 0x0 SWAP1 DUP2 MSTORE PUSH2 0x16A PUSH1 0x20 MSTORE PUSH1 0x40 DUP2 KECCAK256 DUP1 SLOAD DUP4 SWAP3 SWAP1 PUSH2 0x376D SWAP1 DUP5 SWAP1 PUSH2 0x4808 JUMP JUMPDEST SWAP1 SWAP2 SSTORE POP PUSH2 0x377B SWAP1 POP PUSH2 0xB87 JUMP JUMPDEST PUSH1 0x1 PUSH1 0x1 PUSH1 0xA0 SHL SUB AND PUSH1 0x0 DUP1 MLOAD PUSH1 0x20 PUSH2 0x4A3B DUP4 CODECOPY DUP2 MLOAD SWAP2 MSTORE PUSH2 0x379D DUP5 DUP5 PUSH2 0x4808 JUMP JUMPDEST PUSH1 0x40 MLOAD SWAP1 DUP2 MSTORE PUSH1 0x20 ADD PUSH1 0x40 MLOAD DUP1 SWAP2 SUB SWAP1 LOG2 PUSH1 0x4 DUP6 ADD SLOAD PUSH1 0x40 MLOAD DUP3 DUP2 MSTORE PUSH1 0x1 PUSH1 0x1 PUSH1 0xA0 SHL SUB SWAP1 SWAP2 AND SWAP1 PUSH1 0x0 DUP1 MLOAD PUSH1 0x20 PUSH2 0x4A3B DUP4 CODECOPY DUP2 MLOAD SWAP2 MSTORE SWAP1 PUSH1 0x20 ADD PUSH1 0x40 MLOAD DUP1 SWAP2 SUB SWAP1 LOG2 POP PUSH2 0x386E JUMP JUMPDEST PUSH2 0x37F0 DUP2 DUP4 PUSH2 0x4808 JUMP JUMPDEST PUSH2 0x16A PUSH1 0x0 PUSH2 0x37FD PUSH2 0xB87 JUMP JUMPDEST PUSH1 0x1 PUSH1 0x1 PUSH1 0xA0 SHL SUB AND PUSH1 0x1 PUSH1 0x1 PUSH1 0xA0 SHL SUB AND DUP2 MSTORE PUSH1 0x20 ADD SWAP1 DUP2 MSTORE PUSH1 0x20 ADD PUSH1 0x0 KECCAK256 PUSH1 0x0 DUP3 DUP3 SLOAD PUSH2 0x382C SWAP2 SWAP1 PUSH2 0x4808 JUMP JUMPDEST SWAP1 SWAP2 SSTORE POP PUSH2 0x383A SWAP1 POP PUSH2 0xB87 JUMP JUMPDEST PUSH1 0x1 PUSH1 0x1 PUSH1 0xA0 SHL SUB AND PUSH1 0x0 DUP1 MLOAD PUSH1 0x20 PUSH2 0x4A3B DUP4 CODECOPY DUP2 MLOAD SWAP2 MSTORE PUSH2 0x385C DUP4 DUP6 PUSH2 0x4808 JUMP JUMPDEST PUSH1 0x40 MLOAD SWAP1 DUP2 MSTORE PUSH1 0x20 ADD PUSH1 0x40 MLOAD DUP1 SWAP2 SUB SWAP1 LOG2 JUMPDEST DUP3 PUSH2 0x3879 DUP3 DUP5 PUSH2 0x4808 JUMP JUMPDEST SWAP6 POP SWAP6 POP POP POP POP POP SWAP4 POP SWAP4 SWAP2 POP POP JUMP JUMPDEST PUSH1 0x0 PUSH2 0xBBB DUP3 SLOAD SWAP1 JUMP JUMPDEST PUSH1 0x1 PUSH1 0x1 PUSH1 0xA0 SHL SUB DUP2 AND PUSH1 0x0 SWAP1 DUP2 MSTORE PUSH2 0x169 PUSH1 0x20 MSTORE PUSH1 0x40 DUP2 KECCAK256 PUSH1 0x1 ADD SLOAD PUSH2 0x38BD JUMPI POP POP PUSH2 0x161 SLOAD SWAP1 JUMP JUMPDEST POP PUSH1 0x1 PUSH1 0x1 PUSH1 0xA0 SHL SUB AND PUSH1 0x0 SWAP1 DUP2 MSTORE PUSH2 0x169 PUSH1 0x20 MSTORE PUSH1 0x40 SWAP1 KECCAK256 PUSH1 0x1 ADD SLOAD SWAP1 JUMP JUMPDEST PUSH1 0x1 PUSH1 0x1 PUSH1 0xA0 SHL SUB DUP2 AND PUSH1 0x0 SWAP1 DUP2 MSTORE PUSH2 0x169 PUSH1 0x20 MSTORE PUSH1 0x40 DUP2 KECCAK256 SLOAD PUSH2 0x3904 JUMPI POP POP PUSH2 0x160 SLOAD SWAP1 JUMP JUMPDEST POP PUSH1 0x1 PUSH1 0x1 PUSH1 0xA0 SHL SUB AND PUSH1 0x0 SWAP1 DUP2 MSTORE PUSH2 0x169 PUSH1 0x20 MSTORE PUSH1 0x40 SWAP1 KECCAK256 SLOAD SWAP1 JUMP JUMPDEST PUSH1 0x0 SLOAD PUSH2 0x100 SWAP1 DIV PUSH1 0xFF AND PUSH2 0x3948 JUMPI PUSH1 0x40 MLOAD PUSH3 0x461BCD PUSH1 0xE5 SHL DUP2 MSTORE PUSH1 0x4 ADD PUSH2 0xC12 SWAP1 PUSH2 0x472E JUMP JUMPDEST PUSH1 0x65 DUP1 SLOAD PUSH1 0x1 PUSH1 0x1 PUSH1 0xA0 SHL SUB NOT AND PUSH1 0x1 PUSH1 0x1 PUSH1 0xA0 SHL SUB SWAP3 SWAP1 SWAP3 AND SWAP2 SWAP1 SWAP2 OR SWAP1 SSTORE JUMP JUMPDEST PUSH1 0x60 PUSH1 0x0 PUSH2 0x3979 DUP4 PUSH1 0x2 PUSH2 0x4842 JUMP JUMPDEST PUSH2 0x3984 SWAP1 PUSH1 0x2 PUSH2 0x4808 JUMP JUMPDEST PUSH8 0xFFFFFFFFFFFFFFFF DUP2 GT ISZERO PUSH2 0x399C JUMPI PUSH2 0x399C PUSH2 0x497F JUMP JUMPDEST PUSH1 0x40 MLOAD SWAP1 DUP1 DUP3 MSTORE DUP1 PUSH1 0x1F ADD PUSH1 0x1F NOT AND PUSH1 0x20 ADD DUP3 ADD PUSH1 0x40 MSTORE DUP1 ISZERO PUSH2 0x39C6 JUMPI PUSH1 0x20 DUP3 ADD DUP2 DUP1 CALLDATASIZE DUP4 CALLDATACOPY ADD SWAP1 POP JUMPDEST POP SWAP1 POP PUSH1 0x3 PUSH1 0xFC SHL DUP2 PUSH1 0x0 DUP2 MLOAD DUP2 LT PUSH2 0x39E1 JUMPI PUSH2 0x39E1 PUSH2 0x4969 JUMP JUMPDEST PUSH1 0x20 ADD ADD SWAP1 PUSH1 0x1 PUSH1 0x1 PUSH1 0xF8 SHL SUB NOT AND SWAP1 DUP2 PUSH1 0x0 BYTE SWAP1 MSTORE8 POP PUSH1 0xF PUSH1 0xFB SHL DUP2 PUSH1 0x1 DUP2 MLOAD DUP2 LT PUSH2 0x3A10 JUMPI PUSH2 0x3A10 PUSH2 0x4969 JUMP JUMPDEST PUSH1 0x20 ADD ADD SWAP1 PUSH1 0x1 PUSH1 0x1 PUSH1 0xF8 SHL SUB NOT AND SWAP1 DUP2 PUSH1 0x0 BYTE SWAP1 MSTORE8 POP PUSH1 0x0 PUSH2 0x3A34 DUP5 PUSH1 0x2 PUSH2 0x4842 JUMP JUMPDEST PUSH2 0x3A3F SWAP1 PUSH1 0x1 PUSH2 0x4808 JUMP JUMPDEST SWAP1 POP JUMPDEST PUSH1 0x1 DUP2 GT ISZERO PUSH2 0x3AB7 JUMPI PUSH16 0x181899199A1A9B1B9C1CB0B131B232B3 PUSH1 0x81 SHL DUP6 PUSH1 0xF AND PUSH1 0x10 DUP2 LT PUSH2 0x3A73 JUMPI PUSH2 0x3A73 PUSH2 0x4969 JUMP JUMPDEST BYTE PUSH1 0xF8 SHL DUP3 DUP3 DUP2 MLOAD DUP2 LT PUSH2 0x3A89 JUMPI PUSH2 0x3A89 PUSH2 0x4969 JUMP JUMPDEST PUSH1 0x20 ADD ADD SWAP1 PUSH1 0x1 PUSH1 0x1 PUSH1 0xF8 SHL SUB NOT AND SWAP1 DUP2 PUSH1 0x0 BYTE SWAP1 MSTORE8 POP PUSH1 0x4 SWAP5 SWAP1 SWAP5 SHR SWAP4 PUSH2 0x3AB0 DUP2 PUSH2 0x48A8 JUMP JUMPDEST SWAP1 POP PUSH2 0x3A42 JUMP JUMPDEST POP DUP4 ISZERO PUSH2 0x1E23 JUMPI PUSH1 0x40 MLOAD PUSH3 0x461BCD PUSH1 0xE5 SHL DUP2 MSTORE PUSH1 0x20 PUSH1 0x4 DUP3 ADD DUP2 SWAP1 MSTORE PUSH1 0x24 DUP3 ADD MSTORE PUSH32 0x537472696E67733A20686578206C656E67746820696E73756666696369656E74 PUSH1 0x44 DUP3 ADD MSTORE PUSH1 0x64 ADD PUSH2 0xC12 JUMP JUMPDEST PUSH1 0x0 SLOAD PUSH2 0x100 SWAP1 DIV PUSH1 0xFF AND PUSH2 0x1888 JUMPI PUSH1 0x40 MLOAD PUSH3 0x461BCD PUSH1 0xE5 SHL DUP2 MSTORE PUSH1 0x4 ADD PUSH2 0xC12 SWAP1 PUSH2 0x472E JUMP JUMPDEST PUSH1 0x0 SLOAD PUSH2 0x100 SWAP1 DIV PUSH1 0xFF AND PUSH2 0x3B54 JUMPI PUSH1 0x40 MLOAD PUSH3 0x461BCD PUSH1 0xE5 SHL DUP2 MSTORE PUSH1 0x4 ADD PUSH2 0xC12 SWAP1 PUSH2 0x472E JUMP JUMPDEST PUSH1 0x1 PUSH2 0x12D SSTORE JUMP JUMPDEST PUSH1 0x0 SLOAD PUSH2 0x100 SWAP1 DIV PUSH1 0xFF AND PUSH2 0x3B83 JUMPI PUSH1 0x40 MLOAD PUSH3 0x461BCD PUSH1 0xE5 SHL DUP2 MSTORE PUSH1 0x4 ADD PUSH2 0xC12 SWAP1 PUSH2 0x472E JUMP JUMPDEST PUSH1 0x33 DUP1 SLOAD PUSH1 0xFF NOT AND SWAP1 SSTORE JUMP JUMPDEST PUSH2 0x3B99 DUP3 DUP3 PUSH2 0x1E2A JUMP JUMPDEST PUSH2 0x170C JUMPI PUSH1 0x0 DUP3 DUP2 MSTORE PUSH1 0xC9 PUSH1 0x20 SWAP1 DUP2 MSTORE PUSH1 0x40 DUP1 DUP4 KECCAK256 PUSH1 0x1 PUSH1 0x1 PUSH1 0xA0 SHL SUB DUP6 AND DUP5 MSTORE SWAP1 SWAP2 MSTORE SWAP1 KECCAK256 DUP1 SLOAD PUSH1 0xFF NOT AND PUSH1 0x1 OR SWAP1 SSTORE PUSH2 0x3BD2 PUSH2 0xB87 JUMP JUMPDEST PUSH1 0x1 PUSH1 0x1 PUSH1 0xA0 SHL SUB AND DUP2 PUSH1 0x1 PUSH1 0x1 PUSH1 0xA0 SHL SUB AND DUP4 PUSH32 0x2F8788117E7EFF1D82E926EC794901D17C78024A50270940304540A733656F0D PUSH1 0x40 MLOAD PUSH1 0x40 MLOAD DUP1 SWAP2 SUB SWAP1 LOG4 POP POP JUMP JUMPDEST PUSH1 0x0 PUSH2 0x1E23 DUP4 PUSH1 0x1 PUSH1 0x1 PUSH1 0xA0 SHL SUB DUP5 AND PUSH2 0x3E97 JUMP JUMPDEST PUSH2 0x3C35 DUP3 DUP3 PUSH2 0x1E2A JUMP JUMPDEST ISZERO PUSH2 0x170C JUMPI PUSH1 0x0 DUP3 DUP2 MSTORE PUSH1 0xC9 PUSH1 0x20 SWAP1 DUP2 MSTORE PUSH1 0x40 DUP1 DUP4 KECCAK256 PUSH1 0x1 PUSH1 0x1 PUSH1 0xA0 SHL SUB DUP6 AND DUP5 MSTORE SWAP1 SWAP2 MSTORE SWAP1 KECCAK256 DUP1 SLOAD PUSH1 0xFF NOT AND SWAP1 SSTORE PUSH2 0x3C6C PUSH2 0xB87 JUMP JUMPDEST PUSH1 0x1 PUSH1 0x1 PUSH1 0xA0 SHL SUB AND DUP2 PUSH1 0x1 PUSH1 0x1 PUSH1 0xA0 SHL SUB AND DUP4 PUSH32 0xF6391F5C32D9C69D2A47EA670B442974B53935D1EDC7FD64EB21E047A839171B PUSH1 0x40 MLOAD PUSH1 0x40 MLOAD DUP1 SWAP2 SUB SWAP1 LOG4 POP POP JUMP JUMPDEST PUSH1 0x0 PUSH2 0x1E23 DUP4 PUSH1 0x1 PUSH1 0x1 PUSH1 0xA0 SHL SUB DUP5 AND PUSH2 0x3EE6 JUMP JUMPDEST PUSH1 0x0 DUP3 PUSH1 0x0 ADD DUP3 DUP2 SLOAD DUP2 LT PUSH2 0x3CDC JUMPI PUSH2 0x3CDC PUSH2 0x4969 JUMP JUMPDEST SWAP1 PUSH1 0x0 MSTORE PUSH1 0x20 PUSH1 0x0 KECCAK256 ADD SLOAD SWAP1 POP SWAP3 SWAP2 POP POP JUMP JUMPDEST PUSH2 0x163 SLOAD PUSH1 0x40 MLOAD PUSH4 0xD0DEF521 PUSH1 0xE0 SHL DUP2 MSTORE PUSH1 0x0 SWAP2 PUSH1 0x1 PUSH1 0x1 PUSH1 0xA0 SHL SUB AND SWAP1 PUSH4 0xD0DEF521 SWAP1 PUSH2 0x3D23 SWAP1 DUP7 SWAP1 DUP7 SWAP1 PUSH1 0x4 ADD PUSH2 0x4595 JUMP JUMPDEST PUSH1 0x20 PUSH1 0x40 MLOAD DUP1 DUP4 SUB DUP2 PUSH1 0x0 DUP8 DUP1 EXTCODESIZE ISZERO DUP1 ISZERO PUSH2 0x3D3D JUMPI PUSH1 0x0 DUP1 REVERT JUMPDEST POP GAS CALL SWAP3 POP POP POP DUP1 ISZERO PUSH2 0x3D6D JUMPI POP PUSH1 0x40 DUP1 MLOAD PUSH1 0x1F RETURNDATASIZE SWAP1 DUP2 ADD PUSH1 0x1F NOT AND DUP3 ADD SWAP1 SWAP3 MSTORE PUSH2 0x3D6A SWAP2 DUP2 ADD SWAP1 PUSH2 0x4325 JUMP JUMPDEST PUSH1 0x1 JUMPDEST PUSH2 0x3DBF JUMPI PUSH2 0x3D79 PUSH2 0x4995 JUMP JUMPDEST DUP1 PUSH4 0x8C379A0 EQ ISZERO PUSH2 0x3DB3 JUMPI POP PUSH2 0x3D8E PUSH2 0x49B0 JUMP JUMPDEST DUP1 PUSH2 0x3D99 JUMPI POP PUSH2 0x3DB5 JUMP JUMPDEST DUP1 PUSH1 0x40 MLOAD PUSH3 0x461BCD PUSH1 0xE5 SHL DUP2 MSTORE PUSH1 0x4 ADD PUSH2 0xC12 SWAP2 SWAP1 PUSH2 0x4601 JUMP JUMPDEST POP JUMPDEST RETURNDATASIZE PUSH1 0x0 DUP1 RETURNDATACOPY RETURNDATASIZE PUSH1 0x0 REVERT JUMPDEST SWAP1 POP PUSH2 0xBBB JUMP JUMPDEST PUSH1 0x0 DUP1 DUP1 PUSH2 0x2710 PUSH12 0xFFFFFFFFFFFFFFFFFFFFFFFF AND PUSH2 0x162 SLOAD DUP7 DUP7 PUSH2 0x3DEB SWAP2 SWAP1 PUSH2 0x4861 JUMP JUMPDEST PUSH2 0x3DF5 SWAP2 SWAP1 PUSH2 0x4842 JUMP JUMPDEST PUSH2 0x3DFF SWAP2 SWAP1 PUSH2 0x4820 JUMP JUMPDEST SWAP1 POP PUSH1 0x0 PUSH2 0x2710 PUSH12 0xFFFFFFFFFFFFFFFFFFFFFFFF AND PUSH2 0x162 SLOAD DUP8 PUSH2 0x3E23 SWAP2 SWAP1 PUSH2 0x4842 JUMP JUMPDEST PUSH2 0x3E2D SWAP2 SWAP1 PUSH2 0x4820 JUMP JUMPDEST SWAP1 POP PUSH2 0x3E39 DUP2 DUP4 PUSH2 0x4808 JUMP JUMPDEST PUSH2 0x15F SLOAD PUSH1 0x1 PUSH1 0x1 PUSH1 0xA0 SHL SUB AND PUSH1 0x0 SWAP1 DUP2 MSTORE PUSH2 0x16A PUSH1 0x20 MSTORE PUSH1 0x40 DUP2 KECCAK256 DUP1 SLOAD SWAP1 SWAP2 SWAP1 PUSH2 0x3E65 SWAP1 DUP5 SWAP1 PUSH2 0x4808 JUMP JUMPDEST SWAP1 SWAP2 SSTORE POP DUP3 SWAP1 POP PUSH2 0x3E76 DUP8 DUP8 PUSH2 0x4861 JUMP JUMPDEST PUSH2 0x3E80 SWAP2 SWAP1 PUSH2 0x4861 JUMP JUMPDEST PUSH2 0x3E8A DUP3 DUP9 PUSH2 0x4861 JUMP JUMPDEST SWAP4 POP SWAP4 POP POP POP SWAP3 POP SWAP3 SWAP1 POP JUMP JUMPDEST PUSH1 0x0 DUP2 DUP2 MSTORE PUSH1 0x1 DUP4 ADD PUSH1 0x20 MSTORE PUSH1 0x40 DUP2 KECCAK256 SLOAD PUSH2 0x3EDE JUMPI POP DUP2 SLOAD PUSH1 0x1 DUP2 DUP2 ADD DUP5 SSTORE PUSH1 0x0 DUP5 DUP2 MSTORE PUSH1 0x20 DUP1 DUP3 KECCAK256 SWAP1 SWAP4 ADD DUP5 SWAP1 SSTORE DUP5 SLOAD DUP5 DUP3 MSTORE DUP3 DUP7 ADD SWAP1 SWAP4 MSTORE PUSH1 0x40 SWAP1 KECCAK256 SWAP2 SWAP1 SWAP2 SSTORE PUSH2 0xBBB JUMP JUMPDEST POP PUSH1 0x0 PUSH2 0xBBB JUMP JUMPDEST PUSH1 0x0 DUP2 DUP2 MSTORE PUSH1 0x1 DUP4 ADD PUSH1 0x20 MSTORE PUSH1 0x40 DUP2 KECCAK256 SLOAD DUP1 ISZERO PUSH2 0x3FCF JUMPI PUSH1 0x0 PUSH2 0x3F0A PUSH1 0x1 DUP4 PUSH2 0x4861 JUMP JUMPDEST DUP6 SLOAD SWAP1 SWAP2 POP PUSH1 0x0 SWAP1 PUSH2 0x3F1E SWAP1 PUSH1 0x1 SWAP1 PUSH2 0x4861 JUMP JUMPDEST SWAP1 POP DUP2 DUP2 EQ PUSH2 0x3F83 JUMPI PUSH1 0x0 DUP7 PUSH1 0x0 ADD DUP3 DUP2 SLOAD DUP2 LT PUSH2 0x3F3E JUMPI PUSH2 0x3F3E PUSH2 0x4969 JUMP JUMPDEST SWAP1 PUSH1 0x0 MSTORE PUSH1 0x20 PUSH1 0x0 KECCAK256 ADD SLOAD SWAP1 POP DUP1 DUP8 PUSH1 0x0 ADD DUP5 DUP2 SLOAD DUP2 LT PUSH2 0x3F61 JUMPI PUSH2 0x3F61 PUSH2 0x4969 JUMP JUMPDEST PUSH1 0x0 SWAP2 DUP3 MSTORE PUSH1 0x20 DUP1 DUP4 KECCAK256 SWAP1 SWAP2 ADD SWAP3 SWAP1 SWAP3 SSTORE SWAP2 DUP3 MSTORE PUSH1 0x1 DUP9 ADD SWAP1 MSTORE PUSH1 0x40 SWAP1 KECCAK256 DUP4 SWAP1 SSTORE JUMPDEST DUP6 SLOAD DUP7 SWAP1 DUP1 PUSH2 0x3F94 JUMPI PUSH2 0x3F94 PUSH2 0x4953 JUMP JUMPDEST PUSH1 0x1 SWAP1 SUB DUP2 DUP2 SWAP1 PUSH1 0x0 MSTORE PUSH1 0x20 PUSH1 0x0 KECCAK256 ADD PUSH1 0x0 SWAP1 SSTORE SWAP1 SSTORE DUP6 PUSH1 0x1 ADD PUSH1 0x0 DUP7 DUP2 MSTORE PUSH1 0x20 ADD SWAP1 DUP2 MSTORE PUSH1 0x20 ADD PUSH1 0x0 KECCAK256 PUSH1 0x0 SWAP1 SSTORE PUSH1 0x1 SWAP4 POP POP POP POP PUSH2 0xBBB JUMP JUMPDEST PUSH1 0x0 SWAP2 POP POP PUSH2 0xBBB JUMP JUMPDEST DUP3 DUP1 SLOAD PUSH2 0x3FE5 SWAP1 PUSH2 0x48BF JUMP JUMPDEST SWAP1 PUSH1 0x0 MSTORE PUSH1 0x20 PUSH1 0x0 KECCAK256 SWAP1 PUSH1 0x1F ADD PUSH1 0x20 SWAP1 DIV DUP2 ADD SWAP3 DUP3 PUSH2 0x4007 JUMPI PUSH1 0x0 DUP6 SSTORE PUSH2 0x404D JUMP JUMPDEST DUP3 PUSH1 0x1F LT PUSH2 0x4020 JUMPI DUP1 MLOAD PUSH1 0xFF NOT AND DUP4 DUP1 ADD OR DUP6 SSTORE PUSH2 0x404D JUMP JUMPDEST DUP3 DUP1 ADD PUSH1 0x1 ADD DUP6 SSTORE DUP3 ISZERO PUSH2 0x404D JUMPI SWAP2 DUP3 ADD JUMPDEST DUP3 DUP2 GT ISZERO PUSH2 0x404D JUMPI DUP3 MLOAD DUP3 SSTORE SWAP2 PUSH1 0x20 ADD SWAP2 SWAP1 PUSH1 0x1 ADD SWAP1 PUSH2 0x4032 JUMP JUMPDEST POP PUSH2 0x2836 SWAP3 SWAP2 POP PUSH2 0x4093 JUMP JUMPDEST DUP3 DUP1 SLOAD DUP3 DUP3 SSTORE SWAP1 PUSH1 0x0 MSTORE PUSH1 0x20 PUSH1 0x0 KECCAK256 SWAP1 DUP2 ADD SWAP3 DUP3 ISZERO PUSH2 0x404D JUMPI SWAP2 PUSH1 0x20 MUL DUP3 ADD DUP3 DUP2 GT ISZERO PUSH2 0x404D JUMPI DUP3 MLOAD DUP3 SSTORE SWAP2 PUSH1 0x20 ADD SWAP2 SWAP1 PUSH1 0x1 ADD SWAP1 PUSH2 0x4032 JUMP JUMPDEST JUMPDEST DUP1 DUP3 GT ISZERO PUSH2 0x2836 JUMPI PUSH1 0x0 DUP2 SSTORE PUSH1 0x1 ADD PUSH2 0x4094 JUMP JUMPDEST DUP1 CALLDATALOAD PUSH1 0x1 PUSH1 0x1 PUSH1 0xA0 SHL SUB DUP2 AND DUP2 EQ PUSH2 0x40BF JUMPI PUSH1 0x0 DUP1 REVERT JUMPDEST SWAP2 SWAP1 POP JUMP JUMPDEST PUSH1 0x0 DUP3 PUSH1 0x1F DUP4 ADD SLT PUSH2 0x40D5 JUMPI PUSH1 0x0 DUP1 REVERT JUMPDEST DUP2 CALLDATALOAD PUSH8 0xFFFFFFFFFFFFFFFF DUP2 GT ISZERO PUSH2 0x40EF JUMPI PUSH2 0x40EF PUSH2 0x497F JUMP JUMPDEST PUSH1 0x40 MLOAD PUSH2 0x4106 PUSH1 0x1F DUP4 ADD PUSH1 0x1F NOT AND PUSH1 0x20 ADD DUP3 PUSH2 0x48FA JUMP JUMPDEST DUP2 DUP2 MSTORE DUP5 PUSH1 0x20 DUP4 DUP7 ADD ADD GT ISZERO PUSH2 0x411B JUMPI PUSH1 0x0 DUP1 REVERT JUMPDEST DUP2 PUSH1 0x20 DUP6 ADD PUSH1 0x20 DUP4 ADD CALLDATACOPY PUSH1 0x0 SWAP2 DUP2 ADD PUSH1 0x20 ADD SWAP2 SWAP1 SWAP2 MSTORE SWAP4 SWAP3 POP POP POP JUMP JUMPDEST PUSH1 0x0 PUSH1 0x20 DUP3 DUP5 SUB SLT ISZERO PUSH2 0x414A JUMPI PUSH1 0x0 DUP1 REVERT JUMPDEST PUSH2 0x1E23 DUP3 PUSH2 0x40A8 JUMP JUMPDEST PUSH1 0x0 DUP1 PUSH1 0x40 DUP4 DUP6 SUB SLT ISZERO PUSH2 0x4166 JUMPI PUSH1 0x0 DUP1 REVERT JUMPDEST PUSH2 0x416F DUP4 PUSH2 0x40A8 JUMP JUMPDEST SWAP2 POP PUSH2 0x417D PUSH1 0x20 DUP5 ADD PUSH2 0x40A8 JUMP JUMPDEST SWAP1 POP SWAP3 POP SWAP3 SWAP1 POP JUMP JUMPDEST PUSH1 0x0 DUP1 PUSH1 0x0 PUSH1 0x60 DUP5 DUP7 SUB SLT ISZERO PUSH2 0x419B JUMPI PUSH1 0x0 DUP1 REVERT JUMPDEST PUSH2 0x41A4 DUP5 PUSH2 0x40A8 JUMP JUMPDEST SWAP3 POP PUSH2 0x41B2 PUSH1 0x20 DUP6 ADD PUSH2 0x40A8 JUMP JUMPDEST SWAP2 POP PUSH1 0x40 DUP5 ADD CALLDATALOAD SWAP1 POP SWAP3 POP SWAP3 POP SWAP3 JUMP JUMPDEST PUSH1 0x0 DUP1 PUSH1 0x0 PUSH1 0x60 DUP5 DUP7 SUB SLT ISZERO PUSH2 0x41D7 JUMPI PUSH1 0x0 DUP1 REVERT JUMPDEST PUSH2 0x41E0 DUP5 PUSH2 0x40A8 JUMP JUMPDEST SWAP6 PUSH1 0x20 DUP6 ADD CALLDATALOAD SWAP6 POP PUSH1 0x40 SWAP1 SWAP5 ADD CALLDATALOAD SWAP4 SWAP3 POP POP POP JUMP JUMPDEST PUSH1 0x0 DUP1 PUSH1 0x0 DUP1 PUSH1 0x80 DUP6 DUP8 SUB SLT ISZERO PUSH2 0x420B JUMPI PUSH1 0x0 DUP1 REVERT JUMPDEST PUSH2 0x4214 DUP6 PUSH2 0x40A8 JUMP JUMPDEST SWAP4 POP PUSH1 0x20 DUP6 ADD CALLDATALOAD SWAP3 POP PUSH1 0x40 DUP6 ADD CALLDATALOAD SWAP2 POP PUSH1 0x60 DUP6 ADD CALLDATALOAD PUSH8 0xFFFFFFFFFFFFFFFF DUP2 GT ISZERO PUSH2 0x423E JUMPI PUSH1 0x0 DUP1 REVERT JUMPDEST PUSH2 0x424A DUP8 DUP3 DUP9 ADD PUSH2 0x40C4 JUMP JUMPDEST SWAP2 POP POP SWAP3 SWAP6 SWAP2 SWAP5 POP SWAP3 POP JUMP JUMPDEST PUSH1 0x0 DUP1 PUSH1 0x40 DUP4 DUP6 SUB SLT ISZERO PUSH2 0x4269 JUMPI PUSH1 0x0 DUP1 REVERT JUMPDEST DUP3 MLOAD PUSH8 0xFFFFFFFFFFFFFFFF DUP1 DUP3 GT ISZERO PUSH2 0x4281 JUMPI PUSH1 0x0 DUP1 REVERT JUMPDEST DUP2 DUP6 ADD SWAP2 POP DUP6 PUSH1 0x1F DUP4 ADD SLT PUSH2 0x4295 JUMPI PUSH1 0x0 DUP1 REVERT JUMPDEST DUP2 MLOAD PUSH1 0x20 DUP3 DUP3 GT ISZERO PUSH2 0x42A9 JUMPI PUSH2 0x42A9 PUSH2 0x497F JUMP JUMPDEST DUP2 PUSH1 0x5 SHL SWAP3 POP PUSH1 0x40 MLOAD PUSH2 0x42BE DUP3 DUP6 ADD DUP3 PUSH2 0x48FA JUMP JUMPDEST DUP3 DUP2 MSTORE DUP2 DUP2 ADD DUP6 DUP4 ADD DUP6 DUP8 ADD DUP5 ADD DUP12 LT ISZERO PUSH2 0x42D8 JUMPI PUSH1 0x0 DUP1 REVERT JUMPDEST PUSH1 0x0 SWAP7 POP JUMPDEST DUP5 DUP8 LT ISZERO PUSH2 0x42FB JUMPI DUP1 MLOAD DUP3 MSTORE PUSH1 0x1 SWAP7 SWAP1 SWAP7 ADD SWAP6 SWAP1 DUP4 ADD SWAP1 DUP4 ADD PUSH2 0x42DD JUMP JUMPDEST POP POP SWAP7 ADD MLOAD SWAP6 SWAP8 SWAP6 SWAP7 POP POP POP POP POP POP JUMP JUMPDEST PUSH1 0x0 PUSH1 0x20 DUP3 DUP5 SUB SLT ISZERO PUSH2 0x431E JUMPI PUSH1 0x0 DUP1 REVERT JUMPDEST POP CALLDATALOAD SWAP2 SWAP1 POP JUMP JUMPDEST PUSH1 0x0 PUSH1 0x20 DUP3 DUP5 SUB SLT ISZERO PUSH2 0x4337 JUMPI PUSH1 0x0 DUP1 REVERT JUMPDEST POP MLOAD SWAP2 SWAP1 POP JUMP JUMPDEST PUSH1 0x0 DUP1 PUSH1 0x40 DUP4 DUP6 SUB SLT ISZERO PUSH2 0x4351 JUMPI PUSH1 0x0 DUP1 REVERT JUMPDEST DUP3 CALLDATALOAD SWAP2 POP PUSH2 0x417D PUSH1 0x20 DUP5 ADD PUSH2 0x40A8 JUMP JUMPDEST PUSH1 0x0 DUP1 PUSH1 0x0 PUSH1 0x60 DUP5 DUP7 SUB SLT ISZERO PUSH2 0x4376 JUMPI PUSH1 0x0 DUP1 REVERT JUMPDEST DUP4 CALLDATALOAD SWAP3 POP PUSH1 0x20 DUP5 ADD CALLDATALOAD PUSH8 0xFFFFFFFFFFFFFFFF DUP1 DUP3 GT ISZERO PUSH2 0x4395 JUMPI PUSH1 0x0 DUP1 REVERT JUMPDEST PUSH2 0x43A1 DUP8 DUP4 DUP9 ADD PUSH2 0x40C4 JUMP JUMPDEST SWAP4 POP PUSH1 0x40 DUP7 ADD CALLDATALOAD SWAP2 POP DUP1 DUP3 GT ISZERO PUSH2 0x43B7 JUMPI PUSH1 0x0 DUP1 REVERT JUMPDEST POP PUSH2 0x43C4 DUP7 DUP3 DUP8 ADD PUSH2 0x40C4 JUMP JUMPDEST SWAP2 POP POP SWAP3 POP SWAP3 POP SWAP3 JUMP JUMPDEST PUSH1 0x0 DUP1 PUSH1 0x40 DUP4 DUP6 SUB SLT ISZERO PUSH2 0x43E1 JUMPI PUSH1 0x0 DUP1 REVERT JUMPDEST POP POP DUP1 CALLDATALOAD SWAP3 PUSH1 0x20 SWAP1 SWAP2 ADD CALLDATALOAD SWAP2 POP JUMP JUMPDEST PUSH1 0x0 DUP1 PUSH1 0x0 PUSH1 0x60 DUP5 DUP7 SUB SLT ISZERO PUSH2 0x4405 JUMPI PUSH1 0x0 DUP1 REVERT JUMPDEST POP POP DUP2 CALLDATALOAD SWAP4 PUSH1 0x20 DUP4 ADD CALLDATALOAD SWAP4 POP PUSH1 0x40 SWAP1 SWAP3 ADD CALLDATALOAD SWAP2 SWAP1 POP JUMP JUMPDEST PUSH1 0x0 PUSH1 0x20 DUP3 DUP5 SUB SLT ISZERO PUSH2 0x442E JUMPI PUSH1 0x0 DUP1 REVERT JUMPDEST DUP2 CALLDATALOAD PUSH1 0x1 PUSH1 0x1 PUSH1 0xE0 SHL SUB NOT DUP2 AND DUP2 EQ PUSH2 0x1E23 JUMPI PUSH1 0x0 DUP1 REVERT JUMPDEST PUSH1 0x0 DUP1 PUSH1 0x40 DUP4 DUP6 SUB SLT ISZERO PUSH2 0x4459 JUMPI PUSH1 0x0 DUP1 REVERT JUMPDEST DUP3 CALLDATALOAD SWAP2 POP PUSH1 0x20 DUP4 ADD CALLDATALOAD PUSH1 0x2 DUP2 LT PUSH2 0x446F JUMPI PUSH1 0x0 DUP1 REVERT JUMPDEST DUP1 SWAP2 POP POP SWAP3 POP SWAP3 SWAP1 POP JUMP JUMPDEST PUSH1 0x0 DUP1 PUSH1 0x0 DUP1 PUSH1 0x0 DUP1 PUSH1 0xC0 DUP8 DUP10 SUB SLT ISZERO PUSH2 0x4493 JUMPI PUSH1 0x0 DUP1 REVERT JUMPDEST DUP7 CALLDATALOAD SWAP6 POP PUSH1 0x20 DUP8 ADD CALLDATALOAD SWAP5 POP PUSH2 0x44AA PUSH1 0x40 DUP9 ADD PUSH2 0x40A8 JUMP JUMPDEST SWAP4 POP PUSH2 0x44B8 PUSH1 0x60 DUP9 ADD PUSH2 0x40A8 JUMP JUMPDEST SWAP3 POP PUSH2 0x44C6 PUSH1 0x80 DUP9 ADD PUSH2 0x40A8 JUMP JUMPDEST SWAP2 POP PUSH2 0x44D4 PUSH1 0xA0 DUP9 ADD PUSH2 0x40A8 JUMP JUMPDEST SWAP1 POP SWAP3 SWAP6 POP SWAP3 SWAP6 POP SWAP3 SWAP6 JUMP JUMPDEST PUSH1 0x3 DUP2 LT PUSH2 0x44F0 JUMPI PUSH2 0x44F0 PUSH2 0x493D JUMP JUMPDEST SWAP1 MSTORE JUMP JUMPDEST PUSH1 0x0 DUP2 MLOAD DUP1 DUP5 MSTORE PUSH2 0x450C DUP2 PUSH1 0x20 DUP7 ADD PUSH1 0x20 DUP7 ADD PUSH2 0x4878 JUMP JUMPDEST PUSH1 0x1F ADD PUSH1 0x1F NOT AND SWAP3 SWAP1 SWAP3 ADD PUSH1 0x20 ADD SWAP3 SWAP2 POP POP JUMP JUMPDEST PUSH32 0x416363657373436F6E74726F6C3A206163636F756E7420000000000000000000 DUP2 MSTORE PUSH1 0x0 DUP4 MLOAD PUSH2 0x4558 DUP2 PUSH1 0x17 DUP6 ADD PUSH1 0x20 DUP9 ADD PUSH2 0x4878 JUMP JUMPDEST PUSH17 0x1034B99036B4B9B9B4B733903937B6329 PUSH1 0x7D SHL PUSH1 0x17 SWAP2 DUP5 ADD SWAP2 DUP3 ADD MSTORE DUP4 MLOAD PUSH2 0x4589 DUP2 PUSH1 0x28 DUP5 ADD PUSH1 0x20 DUP9 ADD PUSH2 0x4878 JUMP JUMPDEST ADD PUSH1 0x28 ADD SWAP5 SWAP4 POP POP POP POP JUMP JUMPDEST PUSH1 0x1 PUSH1 0x1 PUSH1 0xA0 SHL SUB DUP4 AND DUP2 MSTORE PUSH1 0x40 PUSH1 0x20 DUP3 ADD DUP2 SWAP1 MSTORE PUSH1 0x0 SWAP1 PUSH2 0x2AB5 SWAP1 DUP4 ADD DUP5 PUSH2 0x44F4 JUMP JUMPDEST PUSH1 0x40 DUP1 DUP3 MSTORE DUP4 MLOAD SWAP1 DUP3 ADD DUP2 SWAP1 MSTORE PUSH1 0x0 SWAP1 PUSH1 0x20 SWAP1 PUSH1 0x60 DUP5 ADD SWAP1 DUP3 DUP8 ADD DUP5 JUMPDEST DUP3 DUP2 LT ISZERO PUSH2 0x45F2 JUMPI DUP2 MLOAD DUP5 MSTORE SWAP3 DUP5 ADD SWAP3 SWAP1 DUP5 ADD SWAP1 PUSH1 0x1 ADD PUSH2 0x45D6 JUMP JUMPDEST POP POP POP SWAP3 ADD SWAP3 SWAP1 SWAP3 MSTORE SWAP3 SWAP2 POP POP JUMP JUMPDEST PUSH1 0x20 DUP2 MSTORE PUSH1 0x0 PUSH2 0x1E23 PUSH1 0x20 DUP4 ADD DUP5 PUSH2 0x44F4 JUMP JUMPDEST PUSH1 0x40 DUP2 MSTORE PUSH1 0x0 PUSH2 0x4627 PUSH1 0x40 DUP4 ADD DUP6 PUSH2 0x44F4 JUMP JUMPDEST SWAP1 POP PUSH1 0x1 DUP1 PUSH1 0xA0 SHL SUB DUP4 AND PUSH1 0x20 DUP4 ADD MSTORE SWAP4 SWAP3 POP POP POP JUMP JUMPDEST PUSH2 0x180 DUP2 MSTORE PUSH1 0x0 PUSH2 0x4653 PUSH2 0x180 DUP4 ADD DUP16 PUSH2 0x44F4 JUMP JUMPDEST DUP3 DUP2 SUB PUSH1 0x20 DUP5 ADD MSTORE PUSH2 0x4665 DUP2 DUP16 PUSH2 0x44F4 JUMP JUMPDEST PUSH1 0x40 DUP5 ADD DUP15 SWAP1 MSTORE PUSH1 0x60 DUP5 ADD DUP14 SWAP1 MSTORE PUSH1 0x1 PUSH1 0x1 PUSH1 0xA0 SHL SUB DUP13 DUP2 AND PUSH1 0x80 DUP7 ADD MSTORE DUP12 AND PUSH1 0xA0 DUP6 ADD MSTORE PUSH1 0xC0 DUP5 ADD DUP11 SWAP1 MSTORE PUSH1 0xE0 DUP5 ADD DUP10 SWAP1 MSTORE SWAP2 POP POP PUSH1 0x4 DUP7 LT PUSH2 0x46AB JUMPI PUSH2 0x46AB PUSH2 0x493D JUMP JUMPDEST DUP6 PUSH2 0x100 DUP4 ADD MSTORE DUP5 PUSH2 0x120 DUP4 ADD MSTORE PUSH2 0x46C7 PUSH2 0x140 DUP4 ADD DUP6 PUSH2 0x44E0 JUMP JUMPDEST DUP3 PUSH2 0x160 DUP4 ADD MSTORE SWAP14 SWAP13 POP POP POP POP POP POP POP POP POP POP POP POP POP JUMP JUMPDEST PUSH1 0x60 DUP2 MSTORE PUSH1 0x0 PUSH2 0x46F2 PUSH1 0x60 DUP4 ADD DUP7 PUSH2 0x44F4 JUMP JUMPDEST PUSH1 0x20 DUP4 ADD SWAP5 SWAP1 SWAP5 MSTORE POP PUSH1 0x40 ADD MSTORE SWAP2 SWAP1 POP JUMP JUMPDEST PUSH1 0x20 DUP1 DUP3 MSTORE PUSH1 0x10 SWAP1 DUP3 ADD MSTORE PUSH16 0x14185D5CD8589B194E881C185D5CD959 PUSH1 0x82 SHL PUSH1 0x40 DUP3 ADD MSTORE PUSH1 0x60 ADD SWAP1 JUMP JUMPDEST PUSH1 0x20 DUP1 DUP3 MSTORE PUSH1 0x2B SWAP1 DUP3 ADD MSTORE PUSH32 0x496E697469616C697A61626C653A20636F6E7472616374206973206E6F742069 PUSH1 0x40 DUP3 ADD MSTORE PUSH11 0x6E697469616C697A696E67 PUSH1 0xA8 SHL PUSH1 0x60 DUP3 ADD MSTORE PUSH1 0x80 ADD SWAP1 JUMP JUMPDEST PUSH1 0x20 DUP1 DUP3 MSTORE PUSH1 0x1F SWAP1 DUP3 ADD MSTORE PUSH32 0x5265656E7472616E637947756172643A207265656E7472616E742063616C6C00 PUSH1 0x40 DUP3 ADD MSTORE PUSH1 0x60 ADD SWAP1 JUMP JUMPDEST DUP4 DUP2 MSTORE DUP3 PUSH1 0x20 DUP3 ADD MSTORE PUSH1 0x60 PUSH1 0x40 DUP3 ADD MSTORE PUSH1 0x0 PUSH2 0x47CF PUSH1 0x60 DUP4 ADD DUP5 PUSH2 0x44F4 JUMP JUMPDEST SWAP6 SWAP5 POP POP POP POP POP JUMP JUMPDEST DUP5 DUP2 MSTORE DUP4 PUSH1 0x20 DUP3 ADD MSTORE PUSH1 0x80 PUSH1 0x40 DUP3 ADD MSTORE PUSH1 0x0 PUSH2 0x47F7 PUSH1 0x80 DUP4 ADD DUP6 PUSH2 0x44F4 JUMP JUMPDEST SWAP1 POP DUP3 PUSH1 0x60 DUP4 ADD MSTORE SWAP6 SWAP5 POP POP POP POP POP JUMP JUMPDEST PUSH1 0x0 DUP3 NOT DUP3 GT ISZERO PUSH2 0x481B JUMPI PUSH2 0x481B PUSH2 0x4927 JUMP JUMPDEST POP ADD SWAP1 JUMP JUMPDEST PUSH1 0x0 DUP3 PUSH2 0x483D JUMPI PUSH4 0x4E487B71 PUSH1 0xE0 SHL PUSH1 0x0 MSTORE PUSH1 0x12 PUSH1 0x4 MSTORE PUSH1 0x24 PUSH1 0x0 REVERT JUMPDEST POP DIV SWAP1 JUMP JUMPDEST PUSH1 0x0 DUP2 PUSH1 0x0 NOT DIV DUP4 GT DUP3 ISZERO ISZERO AND ISZERO PUSH2 0x485C JUMPI PUSH2 0x485C PUSH2 0x4927 JUMP JUMPDEST POP MUL SWAP1 JUMP JUMPDEST PUSH1 0x0 DUP3 DUP3 LT ISZERO PUSH2 0x4873 JUMPI PUSH2 0x4873 PUSH2 0x4927 JUMP JUMPDEST POP SUB SWAP1 JUMP JUMPDEST PUSH1 0x0 JUMPDEST DUP4 DUP2 LT ISZERO PUSH2 0x4893 JUMPI DUP2 DUP2 ADD MLOAD DUP4 DUP3 ADD MSTORE PUSH1 0x20 ADD PUSH2 0x487B JUMP JUMPDEST DUP4 DUP2 GT ISZERO PUSH2 0x48A2 JUMPI PUSH1 0x0 DUP5 DUP5 ADD MSTORE JUMPDEST POP POP POP POP JUMP JUMPDEST PUSH1 0x0 DUP2 PUSH2 0x48B7 JUMPI PUSH2 0x48B7 PUSH2 0x4927 JUMP JUMPDEST POP PUSH1 0x0 NOT ADD SWAP1 JUMP JUMPDEST PUSH1 0x1 DUP2 DUP2 SHR SWAP1 DUP3 AND DUP1 PUSH2 0x48D3 JUMPI PUSH1 0x7F DUP3 AND SWAP2 POP JUMPDEST PUSH1 0x20 DUP3 LT DUP2 EQ ISZERO PUSH2 0x48F4 JUMPI PUSH4 0x4E487B71 PUSH1 0xE0 SHL PUSH1 0x0 MSTORE PUSH1 0x22 PUSH1 0x4 MSTORE PUSH1 0x24 PUSH1 0x0 REVERT JUMPDEST POP SWAP2 SWAP1 POP JUMP JUMPDEST PUSH1 0x1F DUP3 ADD PUSH1 0x1F NOT AND DUP2 ADD PUSH8 0xFFFFFFFFFFFFFFFF DUP2 GT DUP3 DUP3 LT OR ISZERO PUSH2 0x4920 JUMPI PUSH2 0x4920 PUSH2 0x497F JUMP JUMPDEST PUSH1 0x40 MSTORE POP POP JUMP JUMPDEST PUSH4 0x4E487B71 PUSH1 0xE0 SHL PUSH1 0x0 MSTORE PUSH1 0x11 PUSH1 0x4 MSTORE PUSH1 0x24 PUSH1 0x0 REVERT JUMPDEST PUSH4 0x4E487B71 PUSH1 0xE0 SHL PUSH1 0x0 MSTORE PUSH1 0x21 PUSH1 0x4 MSTORE PUSH1 0x24 PUSH1 0x0 REVERT JUMPDEST PUSH4 0x4E487B71 PUSH1 0xE0 SHL PUSH1 0x0 MSTORE PUSH1 0x31 PUSH1 0x4 MSTORE PUSH1 0x24 PUSH1 0x0 REVERT JUMPDEST PUSH4 0x4E487B71 PUSH1 0xE0 SHL PUSH1 0x0 MSTORE PUSH1 0x32 PUSH1 0x4 MSTORE PUSH1 0x24 PUSH1 0x0 REVERT JUMPDEST PUSH4 0x4E487B71 PUSH1 0xE0 SHL PUSH1 0x0 MSTORE PUSH1 0x41 PUSH1 0x4 MSTORE PUSH1 0x24 PUSH1 0x0 REVERT JUMPDEST PUSH1 0x0 PUSH1 0x3 RETURNDATASIZE GT ISZERO PUSH2 0x2DEF JUMPI PUSH1 0x4 PUSH1 0x0 DUP1 RETURNDATACOPY POP PUSH1 0x0 MLOAD PUSH1 0xE0 SHR SWAP1 JUMP JUMPDEST PUSH1 0x0 PUSH1 0x44 RETURNDATASIZE LT ISZERO PUSH2 0x49BE JUMPI SWAP1 JUMP JUMPDEST PUSH1 0x40 MLOAD PUSH1 0x3 NOT RETURNDATASIZE DUP2 ADD PUSH1 0x4 DUP4 RETURNDATACOPY DUP2 MLOAD RETURNDATASIZE PUSH8 0xFFFFFFFFFFFFFFFF DUP2 PUSH1 0x24 DUP5 ADD GT DUP2 DUP5 GT OR ISZERO PUSH2 0x49EE JUMPI POP POP POP POP POP SWAP1 JUMP JUMPDEST DUP3 DUP6 ADD SWAP2 POP DUP2 MLOAD DUP2 DUP2 GT ISZERO PUSH2 0x4A06 JUMPI POP POP POP POP POP POP SWAP1 JUMP JUMPDEST DUP5 RETURNDATASIZE DUP8 ADD ADD PUSH1 0x20 DUP3 DUP6 ADD ADD GT ISZERO PUSH2 0x4A20 JUMPI POP POP POP POP POP POP SWAP1 JUMP JUMPDEST PUSH2 0x4A2F PUSH1 0x20 DUP3 DUP7 ADD ADD DUP8 PUSH2 0x48FA JUMP JUMPDEST POP SWAP1 SWAP6 SWAP5 POP POP POP POP POP JUMP INVALID STOP CALLDATASIZE PUSH3 0x4AFD4A 0xC1 0x4E 0x2E 0xBE SWAP12 PUSH9 0xA6EC0C6E4F6BF5BDE2 SWAP10 SWAP11 PUSH2 0xE1FE 0xC0 DUP6 0xCA DUP7 PUSH10 0x7DA26469706673582212 KECCAK256 SWAP10 PUSH24 0xF4F23C141EE3F411EE527E77412EB6E13F2A973C09425E9D GAS SWAP12 DUP14 0xA7 0xB4 SGT PUSH5 0x736F6C6343 STOP ADDMOD SMOD STOP CALLER "
		},
		"gasEstimates": {
			"creation": {
				"codeDepositCost": "3817600",
				"executionCost": "4329",
				"totalCost": "3821929"
			},
			"external": {
				"DEFAULT_ADMIN_ROLE()": "263",
				"GOVERNANCE_ROLE()": "283",
				"balance()": "infinite",
				"blockUser(address)": "infinite",
				"checkBlocked(address,address)": "infinite",
				"checkWhitelist(address,address)": "infinite",
				"claimBackMessageValue(bytes32)": "infinite",
				"claimBackTipValue(bytes32)": "infinite",
				"createMessage(address,uint256,uint256,string)": "infinite",
				"createResponse(bytes32,string,string)": "infinite",
				"createTip(bytes32)": "infinite",
				"feeCollector()": "2427",
				"feeNumerator()": "2406",
				"followUser(address)": "infinite",
				"getMessageTipIds(bytes32,uint256,uint256)": "infinite",
				"getRoleAdmin(bytes32)": "2579",
				"getRoleMember(bytes32,uint256)": "infinite",
				"getRoleMemberCount(bytes32)": "infinite",
				"getUserPrivateMessageIds(address,uint256,uint256)": "infinite",
				"getUserPrivateMessagesIdsLength(address)": "2653",
				"getUserPublicMessageIds(address,uint256,uint256)": "infinite",
				"getUserPublicMessagesIdsLength(address)": "2632",
				"getUserTipIds(address,uint256,uint256)": "infinite",
				"grantRole(bytes32,address)": "infinite",
				"hasRole(bytes32,address)": "2787",
				"initialize(uint256,uint256,address,address,address,address)": "infinite",
				"isTrustedForwarder(address)": "2571",
				"markReponse(bytes32,uint256)": "infinite",
				"messages(bytes32)": "infinite",
				"minTimeLock()": "2362",
				"minimumBid(uint256)": "2549",
				"nftContract()": "2448",
				"pause()": "infinite",
				"paused()": "2405",
				"privateMinimumBid()": "2385",
				"publicMinimumBid()": "2363",
				"recipientUpFront()": "2363",
				"renounceRole(bytes32,address)": "infinite",
				"revokeRole(bytes32,address)": "infinite",
				"setMinimumBid(uint256,uint8)": "infinite",
				"setNFTContract(address)": "infinite",
				"setRecipientUpFront(uint256)": "infinite",
				"setThresholdFactorForSplit(uint256)": "infinite",
				"setTrustedForwarder(address)": "infinite",
				"setUserMinimumBid(uint256,uint8)": "infinite",
				"supportsInterface(bytes4)": "infinite",
				"thresholdFactorForSplit()": "2385",
				"tips(bytes32)": "11170",
				"transfer(uint256,address)": "infinite",
				"unBlockUser(address)": "infinite",
				"unWhitelistUser(address)": "infinite",
				"unfollowUser(address)": "infinite",
				"unpause()": "infinite",
				"userBalance()": "4791",
				"userMinimumBid(address,address,uint256)": "infinite",
				"whitelistUser(address)": "infinite",
				"withdraw(uint256)": "infinite"
			},
			"internal": {
				"_createMessage(address,address,uint256,uint256,uint256,string memory)": "infinite",
				"_createResponse(bytes32,string memory,string memory)": "infinite",
				"_feeDenominator()": "infinite",
				"_msgData()": "infinite",
				"_msgSender()": "2217",
				"_userPrivateMinimumBid(address)": "4423",
				"_userPublicMinimumBid(address)": "4411",
				"_valueDeduction(uint256,uint256)": "infinite",
				"mintNFTforAnswer(address,string memory)": "infinite"
			}
		},
		"methodIdentifiers": {
			"DEFAULT_ADMIN_ROLE()": "a217fddf",
			"GOVERNANCE_ROLE()": "f36c8f5c",
			"balance()": "b69ef8a8",
			"blockUser(address)": "3da01325",
			"checkBlocked(address,address)": "2c8d6fd6",
			"checkWhitelist(address,address)": "dc1a0911",
			"claimBackMessageValue(bytes32)": "83579125",
			"claimBackTipValue(bytes32)": "f224aa4f",
			"createMessage(address,uint256,uint256,string)": "20d4f41b",
			"createResponse(bytes32,string,string)": "96858061",
			"createTip(bytes32)": "a740d68e",
			"feeCollector()": "c415b95c",
			"feeNumerator()": "e86dea4a",
			"followUser(address)": "a70806f7",
			"getMessageTipIds(bytes32,uint256,uint256)": "2ecefad1",
			"getRoleAdmin(bytes32)": "248a9ca3",
			"getRoleMember(bytes32,uint256)": "9010d07c",
			"getRoleMemberCount(bytes32)": "ca15c873",
			"getUserPrivateMessageIds(address,uint256,uint256)": "a3c15a03",
			"getUserPrivateMessagesIdsLength(address)": "f8f4e18a",
			"getUserPublicMessageIds(address,uint256,uint256)": "a0241342",
			"getUserPublicMessagesIdsLength(address)": "8a061282",
			"getUserTipIds(address,uint256,uint256)": "be841e02",
			"grantRole(bytes32,address)": "2f2ff15d",
			"hasRole(bytes32,address)": "91d14854",
			"initialize(uint256,uint256,address,address,address,address)": "10e51e14",
			"isTrustedForwarder(address)": "572b6c05",
			"markReponse(bytes32,uint256)": "b1df7383",
			"messages(bytes32)": "2bbd59ca",
			"minTimeLock()": "d00a818f",
			"minimumBid(uint256)": "fea32600",
			"nftContract()": "d56d229d",
			"pause()": "8456cb59",
			"paused()": "5c975abb",
			"privateMinimumBid()": "79ced747",
			"publicMinimumBid()": "4d31a6ed",
			"recipientUpFront()": "c0ef21ee",
			"renounceRole(bytes32,address)": "36568abe",
			"revokeRole(bytes32,address)": "d547741f",
			"setMinimumBid(uint256,uint8)": "09b82cfd",
			"setNFTContract(address)": "a7ccabdf",
			"setRecipientUpFront(uint256)": "4b8e7a34",
			"setThresholdFactorForSplit(uint256)": "049c067a",
			"setTrustedForwarder(address)": "da742228",
			"setUserMinimumBid(uint256,uint8)": "94a34045",
			"supportsInterface(bytes4)": "01ffc9a7",
			"thresholdFactorForSplit()": "aafa3061",
			"tips(bytes32)": "602bf227",
			"transfer(uint256,address)": "b7760c8f",
			"unBlockUser(address)": "65f898e1",
			"unWhitelistUser(address)": "190c69a2",
			"unfollowUser(address)": "f107cfcb",
			"unpause()": "3f4ba83a",
			"userBalance()": "bf152765",
			"userMinimumBid(address,address,uint256)": "d9fffc82",
			"whitelistUser(address)": "4a4c560d",
			"withdraw(uint256)": "2e1a7d4d"
		}
	},
	"abi": [
		{
			"anonymous": false,
			"inputs": [
				{
					"indexed": true,
					"internalType": "address",
					"name": "sender",
					"type": "address"
				},
				{
					"indexed": false,
					"internalType": "uint256",
					"name": "value",
					"type": "uint256"
				}
			],
			"name": "AmountReceived",
			"type": "event"
		},
		{
			"anonymous": false,
			"inputs": [
				{
					"indexed": true,
					"internalType": "address",
					"name": "blocker",
					"type": "address"
				},
				{
					"indexed": true,
					"internalType": "address",
					"name": "blocked",
					"type": "address"
				}
			],
			"name": "Blocked",
			"type": "event"
		},
		{
			"anonymous": false,
			"inputs": [
				{
					"indexed": true,
					"internalType": "address",
					"name": "followed",
					"type": "address"
				},
				{
					"indexed": true,
					"internalType": "address",
					"name": "follower",
					"type": "address"
				}
			],
			"name": "Follow",
			"type": "event"
		},
		{
			"anonymous": false,
			"inputs": [
				{
					"indexed": true,
					"internalType": "address",
					"name": "recipient",
					"type": "address"
				},
				{
					"indexed": true,
					"internalType": "bytes32",
					"name": "messageId",
					"type": "bytes32"
				},
				{
					"indexed": true,
					"internalType": "address",
					"name": "createdBy",
					"type": "address"
				},
				{
					"indexed": false,
					"internalType": "uint256",
					"name": "value",
					"type": "uint256"
				},
				{
					"indexed": false,
					"internalType": "uint256",
					"name": "expiryTime",
					"type": "uint256"
				},
				{
					"indexed": false,
					"internalType": "string",
					"name": "link",
					"type": "string"
				},
				{
					"indexed": false,
					"internalType": "uint256",
					"name": "messageType",
					"type": "uint256"
				}
			],
			"name": "MessageCreated",
			"type": "event"
		},
		{
			"anonymous": false,
			"inputs": [
				{
					"indexed": true,
					"internalType": "bytes32",
					"name": "messageId",
					"type": "bytes32"
				},
				{
					"indexed": true,
					"internalType": "address",
					"name": "createdBy",
					"type": "address"
				},
				{
					"indexed": false,
					"internalType": "uint256",
					"name": "value",
					"type": "uint256"
				}
			],
			"name": "MessageValueClaimed",
			"type": "event"
		},
		{
			"anonymous": false,
			"inputs": [
				{
					"indexed": false,
					"internalType": "address",
					"name": "account",
					"type": "address"
				}
			],
			"name": "Paused",
			"type": "event"
		},
		{
			"anonymous": false,
			"inputs": [
				{
					"indexed": true,
					"internalType": "bytes32",
					"name": "messageId",
					"type": "bytes32"
				},
				{
					"indexed": true,
					"internalType": "address",
					"name": "owner",
					"type": "address"
				},
				{
					"indexed": true,
					"internalType": "address",
					"name": "creator",
					"type": "address"
				},
				{
					"indexed": false,
					"internalType": "string",
					"name": "answerLink",
					"type": "string"
				},
				{
					"indexed": false,
					"internalType": "uint256",
					"name": "tokenId",
					"type": "uint256"
				},
				{
					"indexed": false,
					"internalType": "uint256",
					"name": "value",
					"type": "uint256"
				}
			],
			"name": "ResponseCreated",
			"type": "event"
		},
		{
			"anonymous": false,
			"inputs": [
				{
					"indexed": true,
					"internalType": "bytes32",
					"name": "messageId",
					"type": "bytes32"
				},
				{
					"indexed": true,
					"internalType": "address",
					"name": "owner",
					"type": "address"
				},
				{
					"indexed": true,
					"internalType": "address",
					"name": "answerer",
					"type": "address"
				},
				{
					"indexed": false,
					"internalType": "uint256",
					"name": "responseType",
					"type": "uint256"
				}
			],
			"name": "ResponseMarked",
			"type": "event"
		},
		{
			"anonymous": false,
			"inputs": [
				{
					"indexed": true,
					"internalType": "bytes32",
					"name": "role",
					"type": "bytes32"
				},
				{
					"indexed": true,
					"internalType": "bytes32",
					"name": "previousAdminRole",
					"type": "bytes32"
				},
				{
					"indexed": true,
					"internalType": "bytes32",
					"name": "newAdminRole",
					"type": "bytes32"
				}
			],
			"name": "RoleAdminChanged",
			"type": "event"
		},
		{
			"anonymous": false,
			"inputs": [
				{
					"indexed": true,
					"internalType": "bytes32",
					"name": "role",
					"type": "bytes32"
				},
				{
					"indexed": true,
					"internalType": "address",
					"name": "account",
					"type": "address"
				},
				{
					"indexed": true,
					"internalType": "address",
					"name": "sender",
					"type": "address"
				}
			],
			"name": "RoleGranted",
			"type": "event"
		},
		{
			"anonymous": false,
			"inputs": [
				{
					"indexed": true,
					"internalType": "bytes32",
					"name": "role",
					"type": "bytes32"
				},
				{
					"indexed": true,
					"internalType": "address",
					"name": "account",
					"type": "address"
				},
				{
					"indexed": true,
					"internalType": "address",
					"name": "sender",
					"type": "address"
				}
			],
			"name": "RoleRevoked",
			"type": "event"
		},
		{
			"anonymous": false,
			"inputs": [
				{
					"indexed": true,
					"internalType": "bytes32",
					"name": "messageId",
					"type": "bytes32"
				},
				{
					"indexed": true,
					"internalType": "bytes32",
					"name": "tipId",
					"type": "bytes32"
				},
				{
					"indexed": true,
					"internalType": "address",
					"name": "createdBy",
					"type": "address"
				},
				{
					"indexed": false,
					"internalType": "uint256",
					"name": "value",
					"type": "uint256"
				}
			],
			"name": "TipCreated",
			"type": "event"
		},
		{
			"anonymous": false,
			"inputs": [
				{
					"indexed": true,
					"internalType": "bytes32",
					"name": "messageId",
					"type": "bytes32"
				},
				{
					"indexed": true,
					"internalType": "bytes32",
					"name": "tipId",
					"type": "bytes32"
				},
				{
					"indexed": true,
					"internalType": "address",
					"name": "createdBy",
					"type": "address"
				},
				{
					"indexed": false,
					"internalType": "uint256",
					"name": "value",
					"type": "uint256"
				}
			],
			"name": "TipValueClaimed",
			"type": "event"
		},
		{
			"anonymous": false,
			"inputs": [
				{
					"indexed": true,
					"internalType": "address",
					"name": "sender",
					"type": "address"
				},
				{
					"indexed": true,
					"internalType": "address",
					"name": "recipient",
					"type": "address"
				},
				{
					"indexed": false,
					"internalType": "uint256",
					"name": "value",
					"type": "uint256"
				}
			],
			"name": "Transfer",
			"type": "event"
		},
		{
			"anonymous": false,
			"inputs": [
				{
					"indexed": true,
					"internalType": "address",
					"name": "unblocker",
					"type": "address"
				},
				{
					"indexed": true,
					"internalType": "address",
					"name": "unblocked",
					"type": "address"
				}
			],
			"name": "UnBlock",
			"type": "event"
		},
		{
			"anonymous": false,
			"inputs": [
				{
					"indexed": true,
					"internalType": "address",
					"name": "unfollowed",
					"type": "address"
				},
				{
					"indexed": true,
					"internalType": "address",
					"name": "unfollower",
					"type": "address"
				}
			],
			"name": "UnFollow",
			"type": "event"
		},
		{
			"anonymous": false,
			"inputs": [
				{
					"indexed": true,
					"internalType": "address",
					"name": "unwhitelister",
					"type": "address"
				},
				{
					"indexed": true,
					"internalType": "address",
					"name": "unwhitelisted",
					"type": "address"
				}
			],
			"name": "UnWhitelisted",
			"type": "event"
		},
		{
			"anonymous": false,
			"inputs": [
				{
					"indexed": false,
					"internalType": "address",
					"name": "account",
					"type": "address"
				}
			],
			"name": "Unpaused",
			"type": "event"
		},
		{
			"anonymous": false,
			"inputs": [
				{
					"indexed": true,
					"internalType": "address",
					"name": "whitelister",
					"type": "address"
				},
				{
					"indexed": true,
					"internalType": "address",
					"name": "whitelisted",
					"type": "address"
				}
			],
			"name": "Whitelisted",
			"type": "event"
		},
		{
			"anonymous": false,
			"inputs": [
				{
					"indexed": true,
					"internalType": "address",
					"name": "user",
					"type": "address"
				},
				{
					"indexed": false,
					"internalType": "uint256",
					"name": "value",
					"type": "uint256"
				}
			],
			"name": "Withdraw",
			"type": "event"
		},
		{
			"inputs": [],
			"name": "DEFAULT_ADMIN_ROLE",
			"outputs": [
				{
					"internalType": "bytes32",
					"name": "",
					"type": "bytes32"
				}
			],
			"stateMutability": "view",
			"type": "function"
		},
		{
			"inputs": [],
			"name": "GOVERNANCE_ROLE",
			"outputs": [
				{
					"internalType": "bytes32",
					"name": "",
					"type": "bytes32"
				}
			],
			"stateMutability": "view",
			"type": "function"
		},
		{
			"inputs": [],
			"name": "balance",
			"outputs": [
				{
					"internalType": "uint256",
					"name": "",
					"type": "uint256"
				}
			],
			"stateMutability": "view",
			"type": "function"
		},
		{
			"inputs": [
				{
					"internalType": "address",
					"name": "_address",
					"type": "address"
				}
			],
			"name": "blockUser",
			"outputs": [],
			"stateMutability": "nonpayable",
			"type": "function"
		},
		{
			"inputs": [
				{
					"internalType": "address",
					"name": "_sender",
					"type": "address"
				},
				{
					"internalType": "address",
					"name": "_recipient",
					"type": "address"
				}
			],
			"name": "checkBlocked",
			"outputs": [
				{
					"internalType": "bool",
					"name": "",
					"type": "bool"
				}
			],
			"stateMutability": "view",
			"type": "function"
		},
		{
			"inputs": [
				{
					"internalType": "address",
					"name": "_sender",
					"type": "address"
				},
				{
					"internalType": "address",
					"name": "_recipient",
					"type": "address"
				}
			],
			"name": "checkWhitelist",
			"outputs": [
				{
					"internalType": "bool",
					"name": "",
					"type": "bool"
				}
			],
			"stateMutability": "view",
			"type": "function"
		},
		{
			"inputs": [
				{
					"internalType": "bytes32",
					"name": "messageId_",
					"type": "bytes32"
				}
			],
			"name": "claimBackMessageValue",
			"outputs": [],
			"stateMutability": "nonpayable",
			"type": "function"
		},
		{
			"inputs": [
				{
					"internalType": "bytes32",
					"name": "tipId_",
					"type": "bytes32"
				}
			],
			"name": "claimBackTipValue",
			"outputs": [],
			"stateMutability": "nonpayable",
			"type": "function"
		},
		{
			"inputs": [
				{
					"internalType": "address",
					"name": "recipient_",
					"type": "address"
				},
				{
					"internalType": "uint256",
					"name": "timelock_",
					"type": "uint256"
				},
				{
					"internalType": "uint256",
					"name": "messageType_",
					"type": "uint256"
				},
				{
					"internalType": "string",
					"name": "messageLink_",
					"type": "string"
				}
			],
			"name": "createMessage",
			"outputs": [
				{
					"internalType": "bytes32",
					"name": "",
					"type": "bytes32"
				}
			],
			"stateMutability": "payable",
			"type": "function"
		},
		{
			"inputs": [
				{
					"internalType": "bytes32",
					"name": "messageId_",
					"type": "bytes32"
				},
				{
					"internalType": "string",
					"name": "answerLink_",
					"type": "string"
				},
				{
					"internalType": "string",
					"name": "tokenURI_",
					"type": "string"
				}
			],
			"name": "createResponse",
			"outputs": [],
			"stateMutability": "nonpayable",
			"type": "function"
		},
		{
			"inputs": [
				{
					"internalType": "bytes32",
					"name": "messageId_",
					"type": "bytes32"
				}
			],
			"name": "createTip",
			"outputs": [],
			"stateMutability": "payable",
			"type": "function"
		},
		{
			"inputs": [],
			"name": "feeCollector",
			"outputs": [
				{
					"internalType": "address",
					"name": "",
					"type": "address"
				}
			],
			"stateMutability": "view",
			"type": "function"
		},
		{
			"inputs": [],
			"name": "feeNumerator",
			"outputs": [
				{
					"internalType": "uint256",
					"name": "",
					"type": "uint256"
				}
			],
			"stateMutability": "view",
			"type": "function"
		},
		{
			"inputs": [
				{
					"internalType": "address",
					"name": "_address",
					"type": "address"
				}
			],
			"name": "followUser",
			"outputs": [],
			"stateMutability": "nonpayable",
			"type": "function"
		},
		{
			"inputs": [
				{
					"internalType": "bytes32",
					"name": "messageId_",
					"type": "bytes32"
				},
				{
					"internalType": "uint256",
					"name": "skip_",
					"type": "uint256"
				},
				{
					"internalType": "uint256",
					"name": "limit_",
					"type": "uint256"
				}
			],
			"name": "getMessageTipIds",
			"outputs": [
				{
					"internalType": "bytes32[]",
					"name": "",
					"type": "bytes32[]"
				},
				{
					"internalType": "uint256",
					"name": "",
					"type": "uint256"
				}
			],
			"stateMutability": "view",
			"type": "function"
		},
		{
			"inputs": [
				{
					"internalType": "bytes32",
					"name": "role",
					"type": "bytes32"
				}
			],
			"name": "getRoleAdmin",
			"outputs": [
				{
					"internalType": "bytes32",
					"name": "",
					"type": "bytes32"
				}
			],
			"stateMutability": "view",
			"type": "function"
		},
		{
			"inputs": [
				{
					"internalType": "bytes32",
					"name": "role",
					"type": "bytes32"
				},
				{
					"internalType": "uint256",
					"name": "index",
					"type": "uint256"
				}
			],
			"name": "getRoleMember",
			"outputs": [
				{
					"internalType": "address",
					"name": "",
					"type": "address"
				}
			],
			"stateMutability": "view",
			"type": "function"
		},
		{
			"inputs": [
				{
					"internalType": "bytes32",
					"name": "role",
					"type": "bytes32"
				}
			],
			"name": "getRoleMemberCount",
			"outputs": [
				{
					"internalType": "uint256",
					"name": "",
					"type": "uint256"
				}
			],
			"stateMutability": "view",
			"type": "function"
		},
		{
			"inputs": [
				{
					"internalType": "address",
					"name": "address_",
					"type": "address"
				},
				{
					"internalType": "uint256",
					"name": "skip_",
					"type": "uint256"
				},
				{
					"internalType": "uint256",
					"name": "limit_",
					"type": "uint256"
				}
			],
			"name": "getUserPrivateMessageIds",
			"outputs": [
				{
					"internalType": "bytes32[]",
					"name": "",
					"type": "bytes32[]"
				},
				{
					"internalType": "uint256",
					"name": "",
					"type": "uint256"
				}
			],
			"stateMutability": "view",
			"type": "function"
		},
		{
			"inputs": [
				{
					"internalType": "address",
					"name": "address_",
					"type": "address"
				}
			],
			"name": "getUserPrivateMessagesIdsLength",
			"outputs": [
				{
					"internalType": "uint256",
					"name": "",
					"type": "uint256"
				}
			],
			"stateMutability": "view",
			"type": "function"
		},
		{
			"inputs": [
				{
					"internalType": "address",
					"name": "address_",
					"type": "address"
				},
				{
					"internalType": "uint256",
					"name": "skip_",
					"type": "uint256"
				},
				{
					"internalType": "uint256",
					"name": "limit_",
					"type": "uint256"
				}
			],
			"name": "getUserPublicMessageIds",
			"outputs": [
				{
					"internalType": "bytes32[]",
					"name": "",
					"type": "bytes32[]"
				},
				{
					"internalType": "uint256",
					"name": "",
					"type": "uint256"
				}
			],
			"stateMutability": "view",
			"type": "function"
		},
		{
			"inputs": [
				{
					"internalType": "address",
					"name": "address_",
					"type": "address"
				}
			],
			"name": "getUserPublicMessagesIdsLength",
			"outputs": [
				{
					"internalType": "uint256",
					"name": "",
					"type": "uint256"
				}
			],
			"stateMutability": "view",
			"type": "function"
		},
		{
			"inputs": [
				{
					"internalType": "address",
					"name": "address_",
					"type": "address"
				},
				{
					"internalType": "uint256",
					"name": "skip_",
					"type": "uint256"
				},
				{
					"internalType": "uint256",
					"name": "limit_",
					"type": "uint256"
				}
			],
			"name": "getUserTipIds",
			"outputs": [
				{
					"internalType": "bytes32[]",
					"name": "",
					"type": "bytes32[]"
				},
				{
					"internalType": "uint256",
					"name": "",
					"type": "uint256"
				}
			],
			"stateMutability": "view",
			"type": "function"
		},
		{
			"inputs": [
				{
					"internalType": "bytes32",
					"name": "role",
					"type": "bytes32"
				},
				{
					"internalType": "address",
					"name": "account",
					"type": "address"
				}
			],
			"name": "grantRole",
			"outputs": [],
			"stateMutability": "nonpayable",
			"type": "function"
		},
		{
			"inputs": [
				{
					"internalType": "bytes32",
					"name": "role",
					"type": "bytes32"
				},
				{
					"internalType": "address",
					"name": "account",
					"type": "address"
				}
			],
			"name": "hasRole",
			"outputs": [
				{
					"internalType": "bool",
					"name": "",
					"type": "bool"
				}
			],
			"stateMutability": "view",
			"type": "function"
		},
		{
			"inputs": [
				{
					"internalType": "uint256",
					"name": "_minimumBid",
					"type": "uint256"
				},
				{
					"internalType": "uint256",
					"name": "_feeNumerator",
					"type": "uint256"
				},
				{
					"internalType": "address",
					"name": "_nftContract",
					"type": "address"
				},
				{
					"internalType": "address",
					"name": "_feeCollector",
					"type": "address"
				},
				{
					"internalType": "address",
					"name": "_adminAddress",
					"type": "address"
				},
				{
					"internalType": "address",
					"name": "trustedForwarder",
					"type": "address"
				}
			],
			"name": "initialize",
			"outputs": [],
			"stateMutability": "nonpayable",
			"type": "function"
		},
		{
			"inputs": [
				{
					"internalType": "address",
					"name": "forwarder",
					"type": "address"
				}
			],
			"name": "isTrustedForwarder",
			"outputs": [
				{
					"internalType": "bool",
					"name": "",
					"type": "bool"
				}
			],
			"stateMutability": "view",
			"type": "function"
		},
		{
			"inputs": [
				{
					"internalType": "bytes32",
					"name": "messageId_",
					"type": "bytes32"
				},
				{
					"internalType": "uint256",
					"name": "responseType_",
					"type": "uint256"
				}
			],
			"name": "markReponse",
			"outputs": [],
			"stateMutability": "nonpayable",
			"type": "function"
		},
		{
			"inputs": [
				{
					"internalType": "bytes32",
					"name": "",
					"type": "bytes32"
				}
			],
			"name": "messages",
			"outputs": [
				{
					"internalType": "string",
					"name": "messageLink",
					"type": "string"
				},
				{
					"internalType": "string",
					"name": "answerLink",
					"type": "string"
				},
				{
					"internalType": "uint256",
					"name": "initialValue",
					"type": "uint256"
				},
				{
					"internalType": "uint256",
					"name": "totalValue",
					"type": "uint256"
				},
				{
					"internalType": "address",
					"name": "createdBy",
					"type": "address"
				},
				{
					"internalType": "address",
					"name": "anweredBy",
					"type": "address"
				},
				{
					"internalType": "uint256",
					"name": "createdTime",
					"type": "uint256"
				},
				{
					"internalType": "uint256",
					"name": "expiryTime",
					"type": "uint256"
				},
				{
					"internalType": "enum AmaFansLib.State",
					"name": "state",
					"type": "uint8"
				},
				{
					"internalType": "uint256",
					"name": "tokenId",
					"type": "uint256"
				},
				{
					"internalType": "enum AmaFansLib.ResponseType",
					"name": "responseType",
					"type": "uint8"
				},
				{
					"internalType": "uint256",
					"name": "messageType",
					"type": "uint256"
				}
			],
			"stateMutability": "view",
			"type": "function"
		},
		{
			"inputs": [],
			"name": "minTimeLock",
			"outputs": [
				{
					"internalType": "uint256",
					"name": "",
					"type": "uint256"
				}
			],
			"stateMutability": "view",
			"type": "function"
		},
		{
			"inputs": [
				{
					"internalType": "uint256",
					"name": "_messageType",
					"type": "uint256"
				}
			],
			"name": "minimumBid",
			"outputs": [
				{
					"internalType": "uint256",
					"name": "",
					"type": "uint256"
				}
			],
			"stateMutability": "view",
			"type": "function"
		},
		{
			"inputs": [],
			"name": "nftContract",
			"outputs": [
				{
					"internalType": "contract AmaFansNFT",
					"name": "",
					"type": "address"
				}
			],
			"stateMutability": "view",
			"type": "function"
		},
		{
			"inputs": [],
			"name": "pause",
			"outputs": [],
			"stateMutability": "nonpayable",
			"type": "function"
		},
		{
			"inputs": [],
			"name": "paused",
			"outputs": [
				{
					"internalType": "bool",
					"name": "",
					"type": "bool"
				}
			],
			"stateMutability": "view",
			"type": "function"
		},
		{
			"inputs": [],
			"name": "privateMinimumBid",
			"outputs": [
				{
					"internalType": "uint256",
					"name": "",
					"type": "uint256"
				}
			],
			"stateMutability": "view",
			"type": "function"
		},
		{
			"inputs": [],
			"name": "publicMinimumBid",
			"outputs": [
				{
					"internalType": "uint256",
					"name": "",
					"type": "uint256"
				}
			],
			"stateMutability": "view",
			"type": "function"
		},
		{
			"inputs": [],
			"name": "recipientUpFront",
			"outputs": [
				{
					"internalType": "uint256",
					"name": "",
					"type": "uint256"
				}
			],
			"stateMutability": "view",
			"type": "function"
		},
		{
			"inputs": [
				{
					"internalType": "bytes32",
					"name": "role",
					"type": "bytes32"
				},
				{
					"internalType": "address",
					"name": "account",
					"type": "address"
				}
			],
			"name": "renounceRole",
			"outputs": [],
			"stateMutability": "nonpayable",
			"type": "function"
		},
		{
			"inputs": [
				{
					"internalType": "bytes32",
					"name": "role",
					"type": "bytes32"
				},
				{
					"internalType": "address",
					"name": "account",
					"type": "address"
				}
			],
			"name": "revokeRole",
			"outputs": [],
			"stateMutability": "nonpayable",
			"type": "function"
		},
		{
			"inputs": [
				{
					"internalType": "uint256",
					"name": "_minimumBid",
					"type": "uint256"
				},
				{
					"internalType": "enum AmaFansLib.MessageType",
					"name": "_messageType",
					"type": "uint8"
				}
			],
			"name": "setMinimumBid",
			"outputs": [],
			"stateMutability": "nonpayable",
			"type": "function"
		},
		{
			"inputs": [
				{
					"internalType": "address",
					"name": "_address",
					"type": "address"
				}
			],
			"name": "setNFTContract",
			"outputs": [],
			"stateMutability": "nonpayable",
			"type": "function"
		},
		{
			"inputs": [
				{
					"internalType": "uint256",
					"name": "_recipientUpFront",
					"type": "uint256"
				}
			],
			"name": "setRecipientUpFront",
			"outputs": [],
			"stateMutability": "nonpayable",
			"type": "function"
		},
		{
			"inputs": [
				{
					"internalType": "uint256",
					"name": "_thresholdFactorForSplit",
					"type": "uint256"
				}
			],
			"name": "setThresholdFactorForSplit",
			"outputs": [],
			"stateMutability": "nonpayable",
			"type": "function"
		},
		{
			"inputs": [
				{
					"internalType": "address",
					"name": "_forwarder",
					"type": "address"
				}
			],
			"name": "setTrustedForwarder",
			"outputs": [],
			"stateMutability": "nonpayable",
			"type": "function"
		},
		{
			"inputs": [
				{
					"internalType": "uint256",
					"name": "minimumBidByUser",
					"type": "uint256"
				},
				{
					"internalType": "enum AmaFansLib.MessageType",
					"name": "_messageType",
					"type": "uint8"
				}
			],
			"name": "setUserMinimumBid",
			"outputs": [],
			"stateMutability": "nonpayable",
			"type": "function"
		},
		{
			"inputs": [
				{
					"internalType": "bytes4",
					"name": "interfaceId",
					"type": "bytes4"
				}
			],
			"name": "supportsInterface",
			"outputs": [
				{
					"internalType": "bool",
					"name": "",
					"type": "bool"
				}
			],
			"stateMutability": "view",
			"type": "function"
		},
		{
			"inputs": [],
			"name": "thresholdFactorForSplit",
			"outputs": [
				{
					"internalType": "uint256",
					"name": "",
					"type": "uint256"
				}
			],
			"stateMutability": "view",
			"type": "function"
		},
		{
			"inputs": [
				{
					"internalType": "bytes32",
					"name": "",
					"type": "bytes32"
				}
			],
			"name": "tips",
			"outputs": [
				{
					"internalType": "address",
					"name": "createdBy",
					"type": "address"
				},
				{
					"internalType": "uint256",
					"name": "value",
					"type": "uint256"
				},
				{
					"internalType": "uint256",
					"name": "createdTime",
					"type": "uint256"
				},
				{
					"internalType": "bytes32",
					"name": "messageId",
					"type": "bytes32"
				},
				{
					"internalType": "bool",
					"name": "claimed",
					"type": "bool"
				}
			],
			"stateMutability": "view",
			"type": "function"
		},
		{
			"inputs": [
				{
					"internalType": "uint256",
					"name": "amount_",
					"type": "uint256"
				},
				{
					"internalType": "address",
					"name": "recipient_",
					"type": "address"
				}
			],
			"name": "transfer",
			"outputs": [],
			"stateMutability": "nonpayable",
			"type": "function"
		},
		{
			"inputs": [
				{
					"internalType": "address",
					"name": "_address",
					"type": "address"
				}
			],
			"name": "unBlockUser",
			"outputs": [],
			"stateMutability": "nonpayable",
			"type": "function"
		},
		{
			"inputs": [
				{
					"internalType": "address",
					"name": "_address",
					"type": "address"
				}
			],
			"name": "unWhitelistUser",
			"outputs": [],
			"stateMutability": "nonpayable",
			"type": "function"
		},
		{
			"inputs": [
				{
					"internalType": "address",
					"name": "_address",
					"type": "address"
				}
			],
			"name": "unfollowUser",
			"outputs": [],
			"stateMutability": "nonpayable",
			"type": "function"
		},
		{
			"inputs": [],
			"name": "unpause",
			"outputs": [],
			"stateMutability": "nonpayable",
			"type": "function"
		},
		{
			"inputs": [],
			"name": "userBalance",
			"outputs": [
				{
					"internalType": "uint256",
					"name": "",
					"type": "uint256"
				}
			],
			"stateMutability": "view",
			"type": "function"
		},
		{
			"inputs": [
				{
					"internalType": "address",
					"name": "_sender",
					"type": "address"
				},
				{
					"internalType": "address",
					"name": "_recipient",
					"type": "address"
				},
				{
					"internalType": "uint256",
					"name": "_messageType",
					"type": "uint256"
				}
			],
			"name": "userMinimumBid",
			"outputs": [
				{
					"internalType": "uint256",
					"name": "",
					"type": "uint256"
				}
			],
			"stateMutability": "view",
			"type": "function"
		},
		{
			"inputs": [
				{
					"internalType": "address",
					"name": "_address",
					"type": "address"
				}
			],
			"name": "whitelistUser",
			"outputs": [],
			"stateMutability": "nonpayable",
			"type": "function"
		},
		{
			"inputs": [
				{
					"internalType": "uint256",
					"name": "_amount",
					"type": "uint256"
				}
			],
			"name": "withdraw",
			"outputs": [],
			"stateMutability": "nonpayable",
			"type": "function"
		},
		{
			"stateMutability": "payable",
			"type": "receive"
		}
	]
}