{
	"data": {
		"bytecode": {
			"linkReferences": {
				"AmaFansLib.sol": {
					"AmaFansLib": [
						{
							"length": 20,
							"start": 4171
						},
						{
							"length": 20,
							"start": 6685
						},
						{
							"length": 20,
							"start": 6975
						},
						{
							"length": 20,
							"start": 7537
						},
						{
							"length": 20,
							"start": 8301
						},
						{
							"length": 20,
							"start": 9824
						},
						{
							"length": 20,
							"start": 9971
						},
						{
							"length": 20,
							"start": 10184
						},
						{
							"length": 20,
							"start": 10871
						},
						{
							"length": 20,
							"start": 11087
						},
						{
							"length": 20,
							"start": 11484
						},
						{
							"length": 20,
							"start": 12789
						},
						{
							"length": 20,
							"start": 13379
						},
						{
							"length": 20,
							"start": 14818
						},
						{
							"length": 20,
							"start": 15148
						},
						{
							"length": 20,
							"start": 15659
						},
						{
							"length": 20,
							"start": 17461
						},
						{
							"length": 20,
							"start": 17551
						}
					]
				}
			},
			"object": "608060405234801561001057600080fd5b5061570980620000216000396000f3fe6080604052600436106104405760003560e01c806394a3404511610234578063ca05249f1161012e578063da742228116100b6578063f107cfcb1161007a578063f107cfcb14610def578063f1096c2114610e0f578063f224aa4f14610e2f578063f36c8f5c14610e4f578063fea3260014610e8357600080fd5b8063da74222814610d46578063dc1a091114610d66578063dff72dec14610d86578063e86dea4a14610db8578063ef5798ef14610dcf57600080fd5b8063d3cd7b9b116100fd578063d3cd7b9b14610ca5578063d3e15bda14610cc5578063d547741f14610ce5578063d56d229d14610d05578063d9fffc8214610d2657600080fd5b8063ca05249f14610c3b578063ca15c87314610c5b578063d00a818f14610c7b578063d095f68e14610c9257600080fd5b8063a9a3aa83116101bc578063b7760c8f11610180578063b7760c8f14610bbb578063bf15276514610bdb578063c0ef21ee14610bf0578063c415b95c14610c07578063c7303c6114610c2857600080fd5b8063a9a3aa8314610b3c578063aafa306114610b4f578063b12ea2a314610b66578063b1df738314610b86578063b69ef8a814610ba657600080fd5b8063a217fddf11610203578063a217fddf14610aa5578063a70806f714610aba578063a740d68e14610ada578063a7ccabdf14610aed578063a87430ba14610b0d57600080fd5b806394a3404514610a2557806398f17c9614610a45578063a02f3c7814610a65578063a1abb1db14610a8557600080fd5b806349e03502116103455780635ad1c6e5116102cd57806379ced7471161029157806379ced7471461098157806383579125146109985780638456cb59146109b85780639010d07c146109cd57806391d1485414610a0557600080fd5b80635ad1c6e5146108885780635c975abb146108a8578063602bf227146108c057806365f898e11461094c5780636c0360eb1461096c57600080fd5b80634d31a6ed116103145780634d31a6ed146107eb5780634f09c9121461080257806350cde8ef1461081957806355f804b314610839578063572b6c051461085957600080fd5b806349e035021461076b5780634a4c560d1461078b5780634b8e7a34146107ab5780634d1ccb62146107cb57600080fd5b80632bbd59ca116103c857806336568abe1161039757806336568abe146106d65780633da01325146106f65780633dc9979e146107165780633e11b5dc146107365780633f4ba83a1461075657600080fd5b80632bbd59ca1461063e5780632c8d6fd6146106765780632e1a7d4d146106965780632f2ff15d146106b657600080fd5b806310f5ff3e1161040f57806310f5ff3e14610528578063190c69a2146105565780631b1456d61461057657806320d4f41b146105ed578063248a9ca31461060e57600080fd5b806301ffc9a714610484578063049c067a146104b957806309b82cfd146104db5780630de72b7e146104fb57600080fd5b3661047f5761044d610ea3565b6001600160a01b03166000805160206156b48339815191523460405161047591815260200190565b60405180910390a2005b600080fd5b34801561049057600080fd5b506104a461049f366004614fd6565b610eb2565b60405190151581526020015b60405180910390f35b3480156104c557600080fd5b506104d96104d4366004614eec565b610edd565b005b3480156104e757600080fd5b506104d96104f6366004615035565b610f3f565b34801561050757600080fd5b5061051b610516366004615000565b610fd2565b6040516104b091906152c6565b34801561053457600080fd5b50610548610543366004614f88565b610fff565b6040516104b092919061527e565b34801561056257600080fd5b506104d9610571366004614d4c565b6110a7565b34801561058257600080fd5b506105c3610591366004614eec565b61016c6020526000908152604090208054600182015460028301546003909301546001600160a01b0390921692909184565b604080516001600160a01b03909516855260208501939093529183015260608201526080016104b0565b6106006105fb366004614dd6565b61114e565b6040519081526020016104b0565b34801561061a57600080fd5b50610600610629366004614eec565b600090815260c9602052604090206001015490565b34801561064a57600080fd5b5061065e610659366004614eec565b61145a565b6040516104b09c9b9a99989796959493929190615303565b34801561068257600080fd5b506104a4610691366004614d67565b6115dc565b3480156106a257600080fd5b506104d96106b1366004614eec565b611628565b3480156106c257600080fd5b506104d96106d1366004614f1e565b61178b565b3480156106e257600080fd5b506104d96106f1366004614f1e565b6117b3565b34801561070257600080fd5b506104d9610711366004614d4c565b611841565b34801561072257600080fd5b50610600610731366004614eec565b611943565b34801561074257600080fd5b50610548610751366004614faa565b611965565b34801561076257600080fd5b506104d9611a7b565b34801561077757600080fd5b50610548610786366004614f88565b611af3565b34801561079757600080fd5b506104d96107a6366004614d4c565b611b40565b3480156107b757600080fd5b506104d96107c6366004614eec565b611c7a565b3480156107d757600080fd5b506104d96107e6366004614eec565b611cdd565b3480156107f757600080fd5b506106006101605481565b34801561080e57600080fd5b506106006101625481565b34801561082557600080fd5b50610600610834366004614eec565b611cf2565b34801561084557600080fd5b506104d9610854366004615000565b611d03565b34801561086557600080fd5b506104a4610874366004614d4c565b6065546001600160a01b0391821691161490565b34801561089457600080fd5b506105486108a3366004614f88565b611d25565b3480156108b457600080fd5b5060335460ff166104a4565b3480156108cc57600080fd5b506109186108db366004614eec565b61016b60205260009081526040902080546001820154600283015460038401546004909401546001600160a01b0390931693919290919060ff1685565b604080516001600160a01b03909616865260208601949094529284019190915260608301521515608082015260a0016104b0565b34801561095857600080fd5b506104d9610967366004614d4c565b611d72565b34801561097857600080fd5b5061051b611eab565b34801561098d57600080fd5b506106006101615481565b3480156109a457600080fd5b506104d96109b3366004614eec565b611f3a565b3480156109c457600080fd5b506104d9612171565b3480156109d957600080fd5b506109ed6109e8366004614f88565b6121e5565b6040516001600160a01b0390911681526020016104b0565b348015610a1157600080fd5b506104a4610a20366004614f1e565b612204565b348015610a3157600080fd5b506104d9610a40366004615035565b61222f565b348015610a5157600080fd5b50610600610a60366004614eec565b6122e9565b348015610a7157600080fd5b50610600610a80366004614eec565b6122fa565b348015610a9157600080fd5b506104d9610aa0366004615069565b61230b565b348015610ab157600080fd5b50610600600081565b348015610ac657600080fd5b506104d9610ad5366004614d4c565b612532565b6104d9610ae8366004614eec565b6125bb565b348015610af957600080fd5b506104d9610b08366004614d4c565b61287d565b348015610b1957600080fd5b50610b2d610b28366004614d4c565b6128f8565b6040516104b0939291906154ba565b6104d9610b4a366004614eec565b6129a4565b348015610b5b57600080fd5b506106006101675481565b348015610b7257600080fd5b50610548610b81366004614faa565b612c23565b348015610b9257600080fd5b506104d9610ba1366004614f88565b612cdd565b348015610bb257600080fd5b50610600612f69565b348015610bc757600080fd5b506104d9610bd6366004614f1e565b612f80565b348015610be757600080fd5b506106006130e7565b348015610bfc57600080fd5b506106006101665481565b348015610c1357600080fd5b5061015f546109ed906001600160a01b031681565b610600610c36366004615000565b61311c565b348015610c4757600080fd5b50610548610c56366004614f88565b6133f7565b348015610c6757600080fd5b50610600610c76366004614eec565b613444565b348015610c8757600080fd5b506106006101655481565b6104d9610ca0366004614f41565b61345b565b348015610cb157600080fd5b506104d9610cc0366004614f1e565b6135f2565b348015610cd157600080fd5b50610600610ce0366004614eec565b61374a565b348015610cf157600080fd5b506104d9610d00366004614f1e565b61375b565b348015610d1157600080fd5b50610164546109ed906001600160a01b031681565b348015610d3257600080fd5b50610600610d41366004614d9a565b613783565b348015610d5257600080fd5b506104d9610d61366004614d4c565b6137c6565b348015610d7257600080fd5b506104a4610d81366004614d67565b6137dd565b348015610d9257600080fd5b50610da6610da1366004614eec565b6137e6565b6040516104b0969594939291906153c9565b348015610dc457600080fd5b506106006101635481565b348015610ddb57600080fd5b506104a4610dea366004614d4c565b6138ad565b348015610dfb57600080fd5b506104d9610e0a366004614d4c565b61390d565b348015610e1b57600080fd5b50610548610e2a366004614f88565b613996565b348015610e3b57600080fd5b506104d9610e4a366004614eec565b6139e3565b348015610e5b57600080fd5b506106007f35a7846a2a701fff6f9d61a46ebff5da578c5dcee8bdf361c569f9ea4ee6477181565b348015610e8f57600080fd5b50610600610e9e366004614eec565b613c27565b6000610ead613c44565b905090565b60006001600160e01b03198216635a05180f60e01b1480610ed75750610ed782613c6c565b92915050565b6000610ef081610eeb610ea3565b613ca1565b60408051808201909152600681526506060726060760d31b602082015260018311610f375760405162461bcd60e51b8152600401610f2e91906152c6565b60405180910390fd5b505061016755565b6000610f4d81610eeb610ea3565b6001826001811115610f6157610f6161565b565b1415610fc657610166548310156040518060400160405280600681526020016530303930303360d01b81525090610fab5760405162461bcd60e51b8152600401610f2e91906152c6565b50610161839055610fbd60048461556b565b61016655505050565b6101608390555b505050565b606061016882604051602001610fe9929190615162565b6040516020818303038152906040529050919050565b60405163074a590760e01b81526004810183905260248101829052610173604482015260609060009073__$9449e77bcfc6c744eba20e6cac20521bf9$__9063074a5907906064015b60006040518083038186803b15801561106057600080fd5b505af4158015611074573d6000803e3d6000fd5b505050506040513d6000823e601f3d908101601f1916820160405261109c9190810190614e37565b915091509250929050565b600061016d60006110b6610ea3565b6001600160a01b03908116825260208083019390935260409182016000908120918616815260049091019092529020805460ff191660018360028111156110ff576110ff61565b565b0217905550806001600160a01b0316611116610ea3565b6001600160a01b03167fdc9ec6c8ca20e67e0cbecb5536d5c021046dd6a9a43b1b03d2b10235767d450260405160405180910390a350565b600083610165548110156040518060400160405280600681526020016530303230303760d01b815250906111955760405162461bcd60e51b8152600401610f2e91906152c6565b5060335460ff16156111b95760405162461bcd60e51b8152600401610f2e9061540e565b8380600110156040518060400160405280600681526020016503030323031360d41b815250906111fc5760405162461bcd60e51b8152600401610f2e91906152c6565b50600261012d5414156112215760405162461bcd60e51b8152600401610f2e90615483565b600261012d5583516000906112785760405162461bcd60e51b815260206004820152601b60248201527f6d657373616765486173682063616e6e6f7420626520656d70747900000000006044820152606401610f2e565b6001600160a01b038816600090815261016d602052604081206004018161129d610ea3565b6001600160a01b0316815260208101919091526040016000205460ff16905060018160028111156112d0576112d061565b565b14156040518060400160405280600681526020016518181c98181b60d11b8152509061130f5760405162461bcd60e51b8152600401610f2e91906152c6565b50600061131b87610fd2565b9050600061133161132a610ea3565b8c8b613783565b905060028360028111156113475761134761565b565b146114095760018914156113a95760408051808201909152600681526530303130303960d01b6020820152348211156113935760405162461bcd60e51b8152600401610f2e91906152c6565b50610166546113a290346155ac565b9350611409565b60408051808201909152600681526503030313031360d41b6020820152348211156113e75760405162461bcd60e51b8152600401610f2e91906152c6565b506101665481116113f85734611406565b6101665461140690346155ac565b93505b6000611420611416610ea3565b8d878e8e88613d05565b9050841580159061143357506101665482115b15611445576114458c6101665461404d565b600161012d559b9a5050505050505050505050565b610169602052600090815260409020805481906114769061560a565b80601f01602080910402602001604051908101604052809291908181526020018280546114a29061560a565b80156114ef5780601f106114c4576101008083540402835291602001916114ef565b820191906000526020600020905b8154815290600101906020018083116114d257829003601f168201915b5050505050908060010180546115049061560a565b80601f01602080910402602001604051908101604052809291908181526020018280546115309061560a565b801561157d5780601f106115525761010080835404028352916020019161157d565b820191906000526020600020905b81548152906001019060200180831161156057829003601f168201915b50505060028401546003850154600486015460058701546007880154600889015460098a0154600a8b0154600b8c0154600c909c01549a9b979a9699506001600160a01b03958616985093909416959194909360ff908116939216908c565b600060015b6001600160a01b03808416600090815261016d60209081526040808320938816835260049093019052205460ff1660028111156116205761162061565b565b149392505050565b60335460ff161561164b5760405162461bcd60e51b8152600401610f2e9061540e565b600261012d54141561166f5760405162461bcd60e51b8152600401610f2e90615483565b600261012d5561016e6000611682610ea3565b6001600160a01b03166001600160a01b03168152602001908152602001600020548111156040518060400160405280600681526020016530303930303160d01b815250906116e35760405162461bcd60e51b8152600401610f2e91906152c6565b508061016e60006116f2610ea3565b6001600160a01b03166001600160a01b03168152602001908152602001600020600082825461172191906155ac565b909155506117389050611732610ea3565b8261404d565b611740610ea3565b6001600160a01b03167f884edad9ce6fa2440d8a54cc123490eb96d2768479d49ff9c7366125a94243648260405161177a91815260200190565b60405180910390a250600161012d55565b600082815260c960205260409020600101546117a981610eeb610ea3565b610fcd8383614166565b6117bb610ea3565b6001600160a01b0316816001600160a01b0316146118335760405162461bcd60e51b815260206004820152602f60248201527f416363657373436f6e74726f6c3a2063616e206f6e6c792072656e6f756e636560448201526e103937b632b9903337b91039b2b63360891b6064820152608401610f2e565b61183d8282614188565b5050565b806001600160a01b0316611853610ea3565b6001600160a01b031614156040518060400160405280600681526020016503030393031360d41b8152509061189b5760405162461bcd60e51b8152600401610f2e91906152c6565b50600161016d60006118ab610ea3565b6001600160a01b03908116825260208083019390935260409182016000908120918616815260049091019092529020805460ff191660018360028111156118f4576118f461565b565b0217905550806001600160a01b031661190b610ea3565b6001600160a01b03167fc931b7e6f18c2a39bcd066690c46c7ba85186501c524faa844ac2c7213d1732560405160405180910390a350565b610170818154811061195457600080fd5b600091825260209091200154905081565b600083815261016a60209081526040808320600301548151808301909252600682526530303430303160d01b92820192909252606092918691906001600160a01b03166119c55760405162461bcd60e51b8152600401610f2e91906152c6565b50600086815261016a602052604090819020905163074a590760e01b8152600480820188905260248201879052909101604482015273__$9449e77bcfc6c744eba20e6cac20521bf9$__9063074a5907906064015b60006040518083038186803b158015611a3257600080fd5b505af4158015611a46573d6000803e3d6000fd5b505050506040513d6000823e601f3d908101601f19168201604052611a6e9190810190614e37565b9250925050935093915050565b611a886000610a20610ea3565b611ae95760405162461bcd60e51b815260206004820152602c60248201527f4d75737420686176652044454641554c545f41444d494e5f524f4c4520726f6c60448201526b6520746f20756e706175736560a01b6064820152608401610f2e565b611af16141aa565b565b60405163074a590760e01b81526004810183905260248101829052610171604482015260609060009073__$9449e77bcfc6c744eba20e6cac20521bf9$__9063074a590790606401611048565b600161016d6000611b4f610ea3565b6001600160a01b039081168252602080830193909352604091820160009081209186168152600490910190925290205460ff166002811115611b9357611b9361565b565b14156040518060400160405280600681526020016518181c98181b60d11b81525090611bd25760405162461bcd60e51b8152600401610f2e91906152c6565b50600261016d6000611be2610ea3565b6001600160a01b03908116825260208083019390935260409182016000908120918616815260049091019092529020805460ff19166001836002811115611c2b57611c2b61565b565b0217905550806001600160a01b0316611c42610ea3565b6001600160a01b03167f6661a7108aecd07864384529117d96c319c1163e3010c01390f6b704726e07de60405160405180910390a350565b6000611c8881610eeb610ea3565b611c9382600461558d565b61016154116040518060400160405280600681526020016530303930303760d01b81525090611cd55760405162461bcd60e51b8152600401610f2e91906152c6565b505061016655565b6000611ceb81610eeb610ea3565b5061016255565b610171818154811061195457600080fd5b6000611d1181610eeb610ea3565b8151610fcd90610168906020850190614bf1565b60405163074a590760e01b81526004810183905260248101829052610170604482015260609060009073__$9449e77bcfc6c744eba20e6cac20521bf9$__9063074a590790606401611048565b600161016d6000611d81610ea3565b6001600160a01b039081168252602080830193909352604091820160009081209186168152600490910190925290205460ff166002811115611dc557611dc561565b565b146040518060400160405280600681526020016530303930313160d01b81525090611e035760405162461bcd60e51b8152600401610f2e91906152c6565b50600061016d6000611e13610ea3565b6001600160a01b03908116825260208083019390935260409182016000908120918616815260049091019092529020805460ff19166001836002811115611e5c57611e5c61565b565b0217905550806001600160a01b0316611e73610ea3565b6001600160a01b03167f35672c674c91f8b0025681a1c8d11a4ca6583e909553290ecfb3d6578faa8bce60405160405180910390a350565b6101688054611eb99061560a565b80601f0160208091040260200160405190810160405280929190818152602001828054611ee59061560a565b8015611f325780601f10611f0757610100808354040283529160200191611f32565b820191906000526020600020905b815481529060010190602001808311611f1557829003601f168201915b505050505081565b60335460ff1615611f5d5760405162461bcd60e51b8152600401610f2e9061540e565b60008181526101696020908152604091829020600401548251808401909352600683526530303230303360d01b918301919091528291906001600160a01b0316611fba5760405162461bcd60e51b8152600401610f2e91906152c6565b5081611fc4610ea3565b60008281526101696020908152604091829020600401548251808401909352600683526518181918181960d11b9183019190915290916001600160a01b039182169116146120255760405162461bcd60e51b8152600401610f2e91906152c6565b506000838152610169602052604090819020905163dae5e84360e01b81526004810182905273__$9449e77bcfc6c744eba20e6cac20521bf9$__9063dae5e8439060240160006040518083038186803b15801561208157600080fd5b505af4158015612095573d6000803e3d6000fd5b50505050806002015461016e60006120ab610ea3565b6001600160a01b03166001600160a01b0316815260200190815260200160002060008282546120da9190615553565b909155506120e89050610ea3565b6001600160a01b03166000805160206156b4833981519152826002015460405161211491815260200190565b60405180910390a2612124610ea3565b6001600160a01b0316847f205302058bf3afb5ece22c5535eab6ea487294c8339c2a194fc6476219badbcd836002015460405161216391815260200190565b60405180910390a350505050565b61217e6000610a20610ea3565b6121dd5760405162461bcd60e51b815260206004820152602a60248201527f4d75737420686176652044454641554c545f41444d494e5f524f4c4520726f6c6044820152696520746f20706175736560b01b6064820152608401610f2e565b611af1614243565b600082815260fb602052604081206121fd908361429c565b9392505050565b600091825260c9602090815260408084206001600160a01b0393909316845291905290205460ff1690565b60018160018111156122435761224361565b565b14156122bd57610161548210156040518060400160405280600681526020016530303930303360d01b8152509061228d5760405162461bcd60e51b8152600401610f2e91906152c6565b508161016d600061229c610ea3565b6001600160a01b031681526020810191909152604001600020600101555050565b8161016d60006122cb610ea3565b6001600160a01b031681526020810191909152604001600020555050565b610173818154811061195457600080fd5b61016f818154811061195457600080fd5b600054610100900460ff166123265760005460ff161561232a565b303b155b61238d5760405162461bcd60e51b815260206004820152602e60248201527f496e697469616c697a61626c653a20636f6e747261637420697320616c72656160448201526d191e481a5b9a5d1a585b1a5e995960921b6064820152608401610f2e565b600054610100900460ff161580156123af576000805461ffff19166101011790555b6127108711156124145760405162461bcd60e51b815260206004820152602a60248201527f455243323938313a20726f79616c7479206665652077696c6c206578636565646044820152692073616c65507269636560b01b6064820152608401610f2e565b61241f60048a61556b565b6101665561242b6142a8565b6124336142ef565b61243b61431e565b61244483614355565b610160899055610161899055610162889055610163879055610164805461015f80546001600160a01b0319166001600160a01b03898116919091179091556103846101655588166001600160a81b031990911617905560036101675581516124b490610168906020850190614bf1565b506124c0600085614390565b6124ea7f35a7846a2a701fff6f9d61a46ebff5da578c5dcee8bdf361c569f9ea4ee6477185614390565b6125157f35a7846a2a701fff6f9d61a46ebff5da578c5dcee8bdf361c569f9ea4ee64771600061439a565b8015612527576000805461ff00191690555b505050505050505050565b600161016d6000612541610ea3565b6001600160a01b0390811682526020808301939093526040918201600090812091861681526003909101909252902055612579610ea3565b6001600160a01b0316816001600160a01b03167fbccc71dc7842b86291138666aa18e133ee6d41aa71e6d7c650debad1a057663560405160405180910390a350565b60008181526101696020908152604091829020600401548251808401909352600683526530303230303360d01b918301919091528291906001600160a01b03166126185760405162461bcd60e51b8152600401610f2e91906152c6565b50600082815261016960205260409081902090516301f2553b60e11b81526004810182905273__$9449e77bcfc6c744eba20e6cac20521bf9$__906303e4aa769060240160006040518083038186803b15801561267457600080fd5b505af4158015612688573d6000803e3d6000fd5b50505050600034116040518060400160405280600681526020016530303330303560d01b815250906126cd5760405162461bcd60e51b8152600401610f2e91906152c6565b50600073__$9449e77bcfc6c744eba20e6cac20521bf9$__63feac0f7061016b866126f6610ea3565b6040516001600160e01b031960e086901b168152600481019390935260248301919091526001600160a01b0316604482015234606482015260840160206040518083038186803b15801561274957600080fd5b505af415801561275d573d6000803e3d6000fd5b505050506040513d601f19601f820116820180604052508101906127819190614f05565b60405163aebe518360e01b8152600481018490526024810182905234604482015290915073__$9449e77bcfc6c744eba20e6cac20521bf9$__9063aebe51839060640160006040518083038186803b1580156127dc57600080fd5b505af41580156127f0573d6000803e3d6000fd5b505061017280546001810182556000919091527fed95d52ae313e6be6d8c8f9945923a6497c37269ba35d5e3535b758e47227cfc01839055506128339050610ea3565b6001600160a01b031681857fb8a61f3258608a2f1af184e4640b08e6cd69126e3c563d30b6348ebfb51558843460405161286f91815260200190565b60405180910390a450505050565b600061288b81610eeb610ea3565b6101645460408051808201909152600681526506060726060760d31b6020820152906001600160a01b03166128d35760405162461bcd60e51b8152600401610f2e91906152c6565b505061016480546001600160a01b0319166001600160a01b0392909216919091179055565b61016d60205260009081526040902080546001820154600283018054929391926129219061560a565b80601f016020809104026020016040519081016040528092919081815260200182805461294d9061560a565b801561299a5780601f1061296f5761010080835404028352916020019161299a565b820191906000526020600020905b81548152906001019060200180831161297d57829003601f168201915b5050505050905083565b600081815261016a6020908152604091829020600301548251808401909352600683526530303430303160d01b918301919091528291906001600160a01b0316612a015760405162461bcd60e51b8152600401610f2e91906152c6565b50600082815261016a60209081526040918290208251808401909352600683526530303330303560d01b918301919091529034612a515760405162461bcd60e51b8152600401610f2e91906152c6565b50600073__$9449e77bcfc6c744eba20e6cac20521bf9$__63cdaea01361016c86612a7a610ea3565b6040516001600160e01b031960e086901b168152600481019390935260248301919091526001600160a01b0316604482015234606482015260840160206040518083038186803b158015612acd57600080fd5b505af4158015612ae1573d6000803e3d6000fd5b505050506040513d601f19601f82011682018060405250810190612b059190614f05565b604051600162df932b60e01b03198152600481018490526024810182905234604482015290915073__$9449e77bcfc6c744eba20e6cac20521bf9$__9063ff206cd59060640160006040518083038186803b158015612b6357600080fd5b505af4158015612b77573d6000803e3d6000fd5b50506101738054600181019091557f56c806aace937fe95f08e7525d5e3e3892fb531816a27802f66a5e4a06502bfc01839055505060038201546001600160a01b0316600090815261016e602052604081208054349290612bd9908490615553565b90915550612be79050610ea3565b6001600160a01b031681857fa7b9de4cae04f62223d95aba2f4ecdd05879f655bab52b8505b696ecf05f72743460405161286f91815260200190565b600083815261016960209081526040808320600401548151808301909252600682526530303230303360d01b92820192909252606092918691906001600160a01b0316612c835760405162461bcd60e51b8152600401610f2e91906152c6565b506000868152610169602052604090819020905163074a590760e01b815260048101879052602481018690526006909101604482015273__$9449e77bcfc6c744eba20e6cac20521bf9$__9063074a590790606401611a1a565b60008281526101696020908152604091829020600401548251808401909352600683526530303230303360d01b918301919091528391906001600160a01b0316612d3a5760405162461bcd60e51b8152600401610f2e91906152c6565b5082612d44610ea3565b60008281526101696020908152604091829020600401548251808401909352600683526518181918181960d11b9183019190915290916001600160a01b03918216911614612da55760405162461bcd60e51b8152600401610f2e91906152c6565b508280600210156040518060400160405280600681526020016530303230313160d01b81525090612de95760405162461bcd60e51b8152600401610f2e91906152c6565b5060036000868152610169602052604090206009015460ff166003811115612e1357612e1361565b565b146040518060400160405280600681526020016530303230303960d01b81525090612e515760405162461bcd60e51b8152600401610f2e91906152c6565b50600085815261016960205260408120600b015460ff166002811115612e7957612e7961565b565b146040518060400160405280600681526020016518181918189960d11b81525090612eb75760405162461bcd60e51b8152600401610f2e91906152c6565b50836002811115612eca57612eca61565b565b600086815261016960205260409020600b01805460ff19166001836002811115612ef657612ef661565b565b02179055506000858152610169602052604090819020600581015460049091015491516001600160a01b03918216929091169087907fba2e4b16cb7f6bbe19c7a1146539a78ed1db3efbb3dd80d6c65f0ba1d840345990612f5a9089815260200190565b60405180910390a45050505050565b600080612f7881610eeb610ea3565b4791505b5090565b60335460ff1615612fa35760405162461bcd60e51b8152600401610f2e9061540e565b600261012d541415612fc75760405162461bcd60e51b8152600401610f2e90615483565b600261012d5561016e6000612fda610ea3565b6001600160a01b03166001600160a01b03168152602001908152602001600020548211156040518060400160405280600681526020016530303930303160d01b8152509061303b5760405162461bcd60e51b8152600401610f2e91906152c6565b508161016e600061304a610ea3565b6001600160a01b03166001600160a01b03168152602001908152602001600020600082825461307991906155ac565b909155506130899050818361404d565b806001600160a01b031661309b610ea3565b6001600160a01b03167fddf252ad1be2c89b69c2b068fc378daa952ba7f163c4a11628f55a4df523b3ef846040516130d591815260200190565b60405180910390a35050600161012d55565b600061016e60006130f6610ea3565b6001600160a01b03166001600160a01b0316815260200190815260200160002054905090565b600061312a60335460ff1690565b156131475760405162461bcd60e51b8152600401610f2e9061540e565b600261012d54141561316b5760405162461bcd60e51b8152600401610f2e90615483565b600261012d556101625460408051808201909152600681526530303430303360d01b6020820152903410156131b35760405162461bcd60e51b8152600401610f2e91906152c6565b5060408051600080825260208201909252906131ce84610fd2565b9050600073__$9449e77bcfc6c744eba20e6cac20521bf9$__63b0b67fa8836131f5610ea3565b6040518363ffffffff1660e01b81526004016132129291906152d9565b60206040518083038186803b15801561322a57600080fd5b505af415801561323e573d6000803e3d6000fd5b505050506040513d601f19601f820116820180604052508101906132629190614f05565b90506040518060e001604052808381526020013481526020016000815260200161328a610ea3565b6001600160a01b031681526020808201869052426040808401919091526000606090930183905284835261016a82529091208251805191926132d192849290910190614bf1565b5060208281015160018301556040830151600283015560608301516003830180546001600160a01b0319166001600160a01b03909216919091179055608083015180516133249260048501920190614c71565b5060a0820151600582015560c0909101516006909101556101718054600181019091557f42b680591beb20d1de0d4ca368d3f10acc6db07bc74b68a9681655fb351b90390181905561015f546001600160a01b0316600090815261016e602052604081208054349290613398908490615553565b909155506133a69050610ea3565b6001600160a01b0316817f3c860076dbb2474109ea1afc5f287966581081acee08ee7ec1d39cfdd52a074034856040516133e19291906154d9565b60405180910390a3600161012d55949350505050565b60405163074a590760e01b8152600481018390526024810182905261016f604482015260609060009073__$9449e77bcfc6c744eba20e6cac20521bf9$__9063074a590790606401611048565b600081815260fb60205260408120610ed7906143e5565b60008281526101696020908152604091829020600401548251808401909352600683526530303230303360d01b918301919091528391906001600160a01b03166134b85760405162461bcd60e51b8152600401610f2e91906152c6565b50600082511161350a5760405162461bcd60e51b815260206004820152601a60248201527f616e73776572486173682063616e6e6f7420626520656d7074790000000000006044820152606401610f2e565b613512610ea3565b60008481526101696020908152604091829020600501548251808401909352600683526518181918181960d11b9183019190915290916001600160a01b039182169116146135735760405162461bcd60e51b8152600401610f2e91906152c6565b50600061357f83610fd2565b9050600061358e8583346143ef565b9050613598610ea3565b60008681526101696020526040908190206004015490516001600160a01b03928316929091169087907fff7a1ecaac27eed4c6bd348a8dd8d05ed71190db5b77e89f881fa74087429bc990612f5a908790349088906153a4565b60335460ff16156136155760405162461bcd60e51b8152600401610f2e9061540e565b600082815261016a6020908152604091829020600301548251808401909352600683526530303430303160d01b918301919091526001600160a01b031661366f5760405162461bcd60e51b8152600401610f2e91906152c6565b50613678610ea3565b600083815261016a602090815260409182902060030154825180840190935260068352650c0c0d0c0c0d60d21b9183019190915290916001600160a01b039182169116146136d95760405162461bcd60e51b8152600401610f2e91906152c6565b50600082815261016a6020526040902060030180546001600160a01b0319166001600160a01b038316908117909155613710610ea3565b6001600160a01b0316837fe941b64b4cb1629849b2aef319675fc94d70e5d2e79a7c8f5c3fe05020e93c2d60405160405180910390a45050565b610172818154811061195457600080fd5b600082815260c9602052604090206001015461377981610eeb610ea3565b610fcd8383614188565b600061378f84846137dd565b1561379c575060006121fd565b60018214156137b5576137ae83614582565b90506121fd565b6137be836145cc565b949350505050565b60006137d481610eeb610ea3565b61183d82614610565b600060026115e1565b61016a602052600090815260409020805481906138029061560a565b80601f016020809104026020016040519081016040528092919081815260200182805461382e9061560a565b801561387b5780601f106138505761010080835404028352916020019161387b565b820191906000526020600020905b81548152906001019060200180831161385e57829003601f168201915b5050506001840154600285015460038601546005870154600690970154959692959194506001600160a01b0316925086565b600061016d60006138bc610ea3565b6001600160a01b03166001600160a01b031681526020019081526020016000206003016000836001600160a01b03166001600160a01b03168152602001908152602001600020546001149050919050565b600061016d600061391c610ea3565b6001600160a01b0390811682526020808301939093526040918201600090812091861681526003909101909252902055613954610ea3565b6001600160a01b0316816001600160a01b03167fe5dcccfe8e7890c6d4aa94d44c3b409fb6f023337f29c3308077c0c4068192c460405160405180910390a350565b60405163074a590760e01b81526004810183905260248101829052610172604482015260609060009073__$9449e77bcfc6c744eba20e6cac20521bf9$__9063074a590790606401611048565b60335460ff1615613a065760405162461bcd60e51b8152600401610f2e9061540e565b600081815261016b6020908152604091829020548251808401909352600683526530303330303360d01b918301919091528291906001600160a01b0316613a605760405162461bcd60e51b8152600401610f2e91906152c6565b5081613a6a610ea3565b600082815261016b6020908152604091829020548251808401909352600683526518181998181960d11b9183019190915290916001600160a01b03918216911614613ac85760405162461bcd60e51b8152600401610f2e91906152c6565b50600083815261016b60209081526040808320600381015484526101699092529182902091516318b5b06760e21b8152600481018290526024810183905290919073__$9449e77bcfc6c744eba20e6cac20521bf9$__906362d6c19c9060440160006040518083038186803b158015613b4057600080fd5b505af4158015613b54573d6000803e3d6000fd5b50505050816001015461016e6000613b6a610ea3565b6001600160a01b03166001600160a01b031681526020019081526020016000206000828254613b999190615553565b90915550613ba79050610ea3565b6001600160a01b03166000805160206156b48339815191528360010154604051613bd391815260200190565b60405180910390a2613be3610ea3565b6001600160a01b03168583600301547f8827140ed7e0aee657f6d8ab3d65b02d30022ed333e284958313db49217e7c3e8560010154604051612f5a91815260200190565b60006001821415613c3b5750506101615490565b50506101605490565b6065546000906001600160a01b0316331415613c67575060131936013560601c90565b503390565b60006001600160e01b03198216637965db0b60e01b1480610ed757506301ffc9a760e01b6001600160e01b0319831614610ed7565b613cab8282612204565b61183d57613cc3816001600160a01b03166014614659565b613cce836020614659565b604051602001613cdf929190615209565b60408051601f198184030181529082905262461bcd60e51b8252610f2e916004016152c6565b60008073__$9449e77bcfc6c744eba20e6cac20521bf9$__63b0b67fa8848a6040518363ffffffff1660e01b8152600401613d419291906152d9565b60206040518083038186803b158015613d5957600080fd5b505af4158015613d6d573d6000803e3d6000fd5b505050506040513d601f19601f82011682018060405250810190613d919190614f05565b60408051600080825260208201909252919250613dae8742615553565b9050604051806101a001604052808681526020016040518060200160405280600081525081526020018981526020018981526020018b6001600160a01b031681526020018a6001600160a01b0316815260200183815260200142815260200182815260200160006003811115613e2657613e2661565b565b81526020016000815260200160006002811115613e4557613e4561565b565b815260209081018890526000858152610169825260409020825180519192613e7292849290910190614bf1565b506020828101518051613e8b9260018501920190614bf1565b50604082015160028201556060820151600382015560808201516004820180546001600160a01b039283166001600160a01b03199182161790915560a084015160058401805491909316911617905560c08201518051613ef5916006840191602090910190614c71565b5060e08201516007820155610100820151600882015561012082015160098201805460ff19166001836003811115613f2f57613f2f61565b565b0217905550610140820151600a820155610160820151600b8201805460ff19166001836002811115613f6357613f6361565b565b02179055506101809190910151600c9091015585613fb65761016f80546001810182556000919091527f47d2f800c57de5c44dff408e225b320f1ea140ca87907f0726fd6049ee5595d701839055613fed565b61017080546001810182556000919091527f88e1afb22f13be7fec203799fd189c3b9471c5b75e2b22a6d5efec11c7f39255018390555b896001600160a01b0316838a6001600160a01b03167fdda647d1e751b8df0a785cd75e0c734774777ff91018aa17aa79bf515f8511558b858a8c60405161403794939291906154f2565b60405180910390a4509098975050505050505050565b8047101561409d5760405162461bcd60e51b815260206004820152601d60248201527f416464726573733a20696e73756666696369656e742062616c616e63650000006044820152606401610f2e565b6000826001600160a01b03168260405160006040518083038185875af1925050503d80600081146140ea576040519150601f19603f3d011682016040523d82523d6000602084013e6140ef565b606091505b5050905080610fcd5760405162461bcd60e51b815260206004820152603a60248201527f416464726573733a20756e61626c6520746f2073656e642076616c75652c207260448201527f6563697069656e74206d617920686176652072657665727465640000000000006064820152608401610f2e565b61417082826147f5565b600082815260fb60205260409020610fcd908261487c565b6141928282614891565b600082815260fb60205260409020610fcd9082614916565b60335460ff166141f35760405162461bcd60e51b815260206004820152601460248201527314185d5cd8589b194e881b9bdd081c185d5cd95960621b6044820152606401610f2e565b6033805460ff191690557f5db9ee0a495bf2e6ff9c91a7834c1ba4fdd244a5e8aa4e537bd38aeae4b073aa614226610ea3565b6040516001600160a01b03909116815260200160405180910390a1565b60335460ff16156142665760405162461bcd60e51b8152600401610f2e9061540e565b6033805460ff191660011790557f62e78cea01bee320cd4e420270b5ea74000d11b0c9f74754ebdbfc544b05a258614226610ea3565b60006121fd838361492b565b600054610100900460ff166142cf5760405162461bcd60e51b8152600401610f2e90615438565b6142d7614955565b6142df614955565b6142e7614955565b611af1614955565b600054610100900460ff166143165760405162461bcd60e51b8152600401610f2e90615438565b611af161497c565b600054610100900460ff166143455760405162461bcd60e51b8152600401610f2e90615438565b61434d614955565b611af16149ab565b600054610100900460ff1661437c5760405162461bcd60e51b8152600401610f2e90615438565b614384614955565b61438d81614610565b50565b61183d8282614166565b600082815260c96020526040808220600101805490849055905190918391839186917fbd79b86ffe0ab8e8776151514217cd7cacd52c909f66475c3af44e129f0b00ff9190a4505050565b6000610ed7825490565b60008381526101696020526040808220905163e7f8899d60e01b81526004810182905273__$9449e77bcfc6c744eba20e6cac20521bf9$__9063e7f8899d9060240160006040518083038186803b15801561444957600080fd5b505af415801561445d573d6000803e3d6000fd5b5050604051633f46f90d60e21b815273__$9449e77bcfc6c744eba20e6cac20521bf9$__925063fd1be434915061449c908490879089906004016154ba565b60006040518083038186803b1580156144b457600080fd5b505af41580156144c8573d6000803e3d6000fd5b505050506000806144e1836002015484600301546149de565b90925090506144f08183615553565b61016e60006144fd610ea3565b6001600160a01b03166001600160a01b03168152602001908152602001600020600082825461452c9190615553565b9091555061453a9050610ea3565b6001600160a01b03166000805160206156b483398151915261455c8385615553565b60405190815260200160405180910390a26145778183615553565b979650505050505050565b6001600160a01b038116600090815261016d60205260408120600101546145ac5750506101615490565b506001600160a01b0316600090815261016d602052604090206001015490565b6001600160a01b038116600090815261016d60205260408120546145f35750506101605490565b506001600160a01b0316600090815261016d602052604090205490565b600054610100900460ff166146375760405162461bcd60e51b8152600401610f2e90615438565b606580546001600160a01b0319166001600160a01b0392909216919091179055565b6060600061466883600261558d565b614673906002615553565b67ffffffffffffffff81111561468b5761468b61569d565b6040519080825280601f01601f1916602001820160405280156146b5576020820181803683370190505b509050600360fc1b816000815181106146d0576146d0615687565b60200101906001600160f81b031916908160001a905350600f60fb1b816001815181106146ff576146ff615687565b60200101906001600160f81b031916908160001a905350600061472384600261558d565b61472e906001615553565b90505b60018111156147a6576f181899199a1a9b1b9c1cb0b131b232b360811b85600f166010811061476257614762615687565b1a60f81b82828151811061477857614778615687565b60200101906001600160f81b031916908160001a90535060049490941c9361479f816155f3565b9050614731565b5083156121fd5760405162461bcd60e51b815260206004820181905260248201527f537472696e67733a20686578206c656e67746820696e73756666696369656e746044820152606401610f2e565b6147ff8282612204565b61183d57600082815260c9602090815260408083206001600160a01b03851684529091529020805460ff19166001179055614838610ea3565b6001600160a01b0316816001600160a01b0316837f2f8788117e7eff1d82e926ec794901d17c78024a50270940304540a733656f0d60405160405180910390a45050565b60006121fd836001600160a01b038416614aaf565b61489b8282612204565b1561183d57600082815260c9602090815260408083206001600160a01b03851684529091529020805460ff191690556148d2610ea3565b6001600160a01b0316816001600160a01b0316837ff6391f5c32d9c69d2a47ea670b442974b53935d1edc7fd64eb21e047a839171b60405160405180910390a45050565b60006121fd836001600160a01b038416614afe565b600082600001828154811061494257614942615687565b9060005260206000200154905092915050565b600054610100900460ff16611af15760405162461bcd60e51b8152600401610f2e90615438565b600054610100900460ff166149a35760405162461bcd60e51b8152600401610f2e90615438565b600161012d55565b600054610100900460ff166149d25760405162461bcd60e51b8152600401610f2e90615438565b6033805460ff19169055565b600080806127106bffffffffffffffffffffffff16610163548686614a0391906155ac565b614a0d919061558d565b614a17919061556b565b905060006127106bffffffffffffffffffffffff166101635487614a3b919061558d565b614a45919061556b565b9050614a518183615553565b61015f546001600160a01b0316600090815261016e602052604081208054909190614a7d908490615553565b90915550829050614a8e87876155ac565b614a9891906155ac565b614aa282886155ac565b9350935050509250929050565b6000818152600183016020526040812054614af657508154600181810184556000848152602080822090930184905584548482528286019093526040902091909155610ed7565b506000610ed7565b60008181526001830160205260408120548015614be7576000614b226001836155ac565b8554909150600090614b36906001906155ac565b9050818114614b9b576000866000018281548110614b5657614b56615687565b9060005260206000200154905080876000018481548110614b7957614b79615687565b6000918252602080832090910192909255918252600188019052604090208390555b8554869080614bac57614bac615671565b600190038181906000526020600020016000905590558560010160008681526020019081526020016000206000905560019350505050610ed7565b6000915050610ed7565b828054614bfd9061560a565b90600052602060002090601f016020900481019282614c1f5760008555614c65565b82601f10614c3857805160ff1916838001178555614c65565b82800160010185558215614c65579182015b82811115614c65578251825591602001919060010190614c4a565b50612f7c929150614cab565b828054828255906000526020600020908101928215614c655791602002820182811115614c65578251825591602001919060010190614c4a565b5b80821115612f7c5760008155600101614cac565b80356001600160a01b0381168114614cd757600080fd5b919050565b600082601f830112614ced57600080fd5b813567ffffffffffffffff811115614d0757614d0761569d565b614d1a601f8201601f1916602001615522565b818152846020838601011115614d2f57600080fd5b816020850160208301376000918101602001919091529392505050565b600060208284031215614d5e57600080fd5b6121fd82614cc0565b60008060408385031215614d7a57600080fd5b614d8383614cc0565b9150614d9160208401614cc0565b90509250929050565b600080600060608486031215614daf57600080fd5b614db884614cc0565b9250614dc660208501614cc0565b9150604084013590509250925092565b60008060008060808587031215614dec57600080fd5b614df585614cc0565b93506020850135925060408501359150606085013567ffffffffffffffff811115614e1f57600080fd5b614e2b87828801614cdc565b91505092959194509250565b60008060408385031215614e4a57600080fd5b825167ffffffffffffffff80821115614e6257600080fd5b818501915085601f830112614e7657600080fd5b8151602082821115614e8a57614e8a61569d565b8160051b9250614e9b818401615522565b8281528181019085830185870184018b1015614eb657600080fd5b600096505b84871015614ed9578051835260019690960195918301918301614ebb565b5097909101519698969750505050505050565b600060208284031215614efe57600080fd5b5035919050565b600060208284031215614f1757600080fd5b5051919050565b60008060408385031215614f3157600080fd5b82359150614d9160208401614cc0565b60008060408385031215614f5457600080fd5b82359150602083013567ffffffffffffffff811115614f7257600080fd5b614f7e85828601614cdc565b9150509250929050565b60008060408385031215614f9b57600080fd5b50508035926020909101359150565b600080600060608486031215614fbf57600080fd5b505081359360208301359350604090920135919050565b600060208284031215614fe857600080fd5b81356001600160e01b0319811681146121fd57600080fd5b60006020828403121561501257600080fd5b813567ffffffffffffffff81111561502957600080fd5b6137be84828501614cdc565b6000806040838503121561504857600080fd5b8235915060208301356002811061505e57600080fd5b809150509250929050565b600080600080600080600080610100898b03121561508657600080fd5b8835975060208901359650604089013595506150a460608a01614cc0565b94506150b260808a01614cc0565b93506150c060a08a01614cc0565b92506150ce60c08a01614cc0565b915060e089013567ffffffffffffffff8111156150ea57600080fd5b6150f68b828c01614cdc565b9150509295985092959890939650565b6000815180845261511e8160208601602086016155c3565b601f01601f19169290920160200192915050565b600381106151425761514261565b565b9052565b600081516151588185602086016155c3565b9290920192915050565b600080845481600182811c91508083168061517e57607f831692505b602080841082141561519e57634e487b7160e01b86526022600452602486fd5b8180156151b257600181146151c3576151f0565b60ff198616895284890196506151f0565b60008b81526020902060005b868110156151e85781548b8201529085019083016151cf565b505084890196505b5050505050506152008185615146565b95945050505050565b7f416363657373436f6e74726f6c3a206163636f756e74200000000000000000008152600083516152418160178501602088016155c3565b7001034b99036b4b9b9b4b733903937b6329607d1b60179184019182015283516152728160288401602088016155c3565b01602801949350505050565b604080825283519082018190526000906020906060840190828701845b828110156152b75781518452928401929084019060010161529b565b50505092019290925292915050565b6020815260006121fd6020830184615106565b6040815260006152ec6040830185615106565b905060018060a01b03831660208301529392505050565b6101808152600061531861018083018f615106565b828103602084015261532a818f615106565b604084018e9052606084018d90526001600160a01b038c811660808601528b1660a085015260c084018a905260e08401899052915050600486106153705761537061565b565b856101008301528461012083015261538c610140830185615132565b826101608301529d9c50505050505050505050505050565b6060815260006153b76060830186615106565b60208301949094525060400152919050565b60c0815260006153dc60c0830189615106565b60208301979097525060408101949094526001600160a01b03929092166060840152608083015260a090910152919050565b60208082526010908201526f14185d5cd8589b194e881c185d5cd95960821b604082015260600190565b6020808252602b908201527f496e697469616c697a61626c653a20636f6e7472616374206973206e6f74206960408201526a6e697469616c697a696e6760a81b606082015260800190565b6020808252601f908201527f5265656e7472616e637947756172643a207265656e7472616e742063616c6c00604082015260600190565b8381528260208201526060604082015260006152006060830184615106565b8281526040602082015260006137be6040830184615106565b8481528360208201526080604082015260006155116080830185615106565b905082606083015295945050505050565b604051601f8201601f1916810167ffffffffffffffff8111828210171561554b5761554b61569d565b604052919050565b6000821982111561556657615566615645565b500190565b60008261558857634e487b7160e01b600052601260045260246000fd5b500490565b60008160001904831182151516156155a7576155a7615645565b500290565b6000828210156155be576155be615645565b500390565b60005b838110156155de5781810151838201526020016155c6565b838111156155ed576000848401525b50505050565b60008161560257615602615645565b506000190190565b600181811c9082168061561e57607f821691505b6020821081141561563f57634e487b7160e01b600052602260045260246000fd5b50919050565b634e487b7160e01b600052601160045260246000fd5b634e487b7160e01b600052602160045260246000fd5b634e487b7160e01b600052603160045260246000fd5b634e487b7160e01b600052603260045260246000fd5b634e487b7160e01b600052604160045260246000fdfe0036624afd4ac14e2ebe9b68a6ec0c6e4f6bf5bde2999a61e1fec085ca86697da2646970667358221220d2a2dfa51209e1c6b0441537439b88312d435180804a6ffe999af01f0f3d24a764736f6c63430008070033",
			"opcodes": "PUSH1 0x80 PUSH1 0x40 MSTORE CALLVALUE DUP1 ISZERO PUSH2 0x10 JUMPI PUSH1 0x0 DUP1 REVERT JUMPDEST POP PUSH2 0x5709 DUP1 PUSH3 0x21 PUSH1 0x0 CODECOPY PUSH1 0x0 RETURN INVALID PUSH1 0x80 PUSH1 0x40 MSTORE PUSH1 0x4 CALLDATASIZE LT PUSH2 0x440 JUMPI PUSH1 0x0 CALLDATALOAD PUSH1 0xE0 SHR DUP1 PUSH4 0x94A34045 GT PUSH2 0x234 JUMPI DUP1 PUSH4 0xCA05249F GT PUSH2 0x12E JUMPI DUP1 PUSH4 0xDA742228 GT PUSH2 0xB6 JUMPI DUP1 PUSH4 0xF107CFCB GT PUSH2 0x7A JUMPI DUP1 PUSH4 0xF107CFCB EQ PUSH2 0xDEF JUMPI DUP1 PUSH4 0xF1096C21 EQ PUSH2 0xE0F JUMPI DUP1 PUSH4 0xF224AA4F EQ PUSH2 0xE2F JUMPI DUP1 PUSH4 0xF36C8F5C EQ PUSH2 0xE4F JUMPI DUP1 PUSH4 0xFEA32600 EQ PUSH2 0xE83 JUMPI PUSH1 0x0 DUP1 REVERT JUMPDEST DUP1 PUSH4 0xDA742228 EQ PUSH2 0xD46 JUMPI DUP1 PUSH4 0xDC1A0911 EQ PUSH2 0xD66 JUMPI DUP1 PUSH4 0xDFF72DEC EQ PUSH2 0xD86 JUMPI DUP1 PUSH4 0xE86DEA4A EQ PUSH2 0xDB8 JUMPI DUP1 PUSH4 0xEF5798EF EQ PUSH2 0xDCF JUMPI PUSH1 0x0 DUP1 REVERT JUMPDEST DUP1 PUSH4 0xD3CD7B9B GT PUSH2 0xFD JUMPI DUP1 PUSH4 0xD3CD7B9B EQ PUSH2 0xCA5 JUMPI DUP1 PUSH4 0xD3E15BDA EQ PUSH2 0xCC5 JUMPI DUP1 PUSH4 0xD547741F EQ PUSH2 0xCE5 JUMPI DUP1 PUSH4 0xD56D229D EQ PUSH2 0xD05 JUMPI DUP1 PUSH4 0xD9FFFC82 EQ PUSH2 0xD26 JUMPI PUSH1 0x0 DUP1 REVERT JUMPDEST DUP1 PUSH4 0xCA05249F EQ PUSH2 0xC3B JUMPI DUP1 PUSH4 0xCA15C873 EQ PUSH2 0xC5B JUMPI DUP1 PUSH4 0xD00A818F EQ PUSH2 0xC7B JUMPI DUP1 PUSH4 0xD095F68E EQ PUSH2 0xC92 JUMPI PUSH1 0x0 DUP1 REVERT JUMPDEST DUP1 PUSH4 0xA9A3AA83 GT PUSH2 0x1BC JUMPI DUP1 PUSH4 0xB7760C8F GT PUSH2 0x180 JUMPI DUP1 PUSH4 0xB7760C8F EQ PUSH2 0xBBB JUMPI DUP1 PUSH4 0xBF152765 EQ PUSH2 0xBDB JUMPI DUP1 PUSH4 0xC0EF21EE EQ PUSH2 0xBF0 JUMPI DUP1 PUSH4 0xC415B95C EQ PUSH2 0xC07 JUMPI DUP1 PUSH4 0xC7303C61 EQ PUSH2 0xC28 JUMPI PUSH1 0x0 DUP1 REVERT JUMPDEST DUP1 PUSH4 0xA9A3AA83 EQ PUSH2 0xB3C JUMPI DUP1 PUSH4 0xAAFA3061 EQ PUSH2 0xB4F JUMPI DUP1 PUSH4 0xB12EA2A3 EQ PUSH2 0xB66 JUMPI DUP1 PUSH4 0xB1DF7383 EQ PUSH2 0xB86 JUMPI DUP1 PUSH4 0xB69EF8A8 EQ PUSH2 0xBA6 JUMPI PUSH1 0x0 DUP1 REVERT JUMPDEST DUP1 PUSH4 0xA217FDDF GT PUSH2 0x203 JUMPI DUP1 PUSH4 0xA217FDDF EQ PUSH2 0xAA5 JUMPI DUP1 PUSH4 0xA70806F7 EQ PUSH2 0xABA JUMPI DUP1 PUSH4 0xA740D68E EQ PUSH2 0xADA JUMPI DUP1 PUSH4 0xA7CCABDF EQ PUSH2 0xAED JUMPI DUP1 PUSH4 0xA87430BA EQ PUSH2 0xB0D JUMPI PUSH1 0x0 DUP1 REVERT JUMPDEST DUP1 PUSH4 0x94A34045 EQ PUSH2 0xA25 JUMPI DUP1 PUSH4 0x98F17C96 EQ PUSH2 0xA45 JUMPI DUP1 PUSH4 0xA02F3C78 EQ PUSH2 0xA65 JUMPI DUP1 PUSH4 0xA1ABB1DB EQ PUSH2 0xA85 JUMPI PUSH1 0x0 DUP1 REVERT JUMPDEST DUP1 PUSH4 0x49E03502 GT PUSH2 0x345 JUMPI DUP1 PUSH4 0x5AD1C6E5 GT PUSH2 0x2CD JUMPI DUP1 PUSH4 0x79CED747 GT PUSH2 0x291 JUMPI DUP1 PUSH4 0x79CED747 EQ PUSH2 0x981 JUMPI DUP1 PUSH4 0x83579125 EQ PUSH2 0x998 JUMPI DUP1 PUSH4 0x8456CB59 EQ PUSH2 0x9B8 JUMPI DUP1 PUSH4 0x9010D07C EQ PUSH2 0x9CD JUMPI DUP1 PUSH4 0x91D14854 EQ PUSH2 0xA05 JUMPI PUSH1 0x0 DUP1 REVERT JUMPDEST DUP1 PUSH4 0x5AD1C6E5 EQ PUSH2 0x888 JUMPI DUP1 PUSH4 0x5C975ABB EQ PUSH2 0x8A8 JUMPI DUP1 PUSH4 0x602BF227 EQ PUSH2 0x8C0 JUMPI DUP1 PUSH4 0x65F898E1 EQ PUSH2 0x94C JUMPI DUP1 PUSH4 0x6C0360EB EQ PUSH2 0x96C JUMPI PUSH1 0x0 DUP1 REVERT JUMPDEST DUP1 PUSH4 0x4D31A6ED GT PUSH2 0x314 JUMPI DUP1 PUSH4 0x4D31A6ED EQ PUSH2 0x7EB JUMPI DUP1 PUSH4 0x4F09C912 EQ PUSH2 0x802 JUMPI DUP1 PUSH4 0x50CDE8EF EQ PUSH2 0x819 JUMPI DUP1 PUSH4 0x55F804B3 EQ PUSH2 0x839 JUMPI DUP1 PUSH4 0x572B6C05 EQ PUSH2 0x859 JUMPI PUSH1 0x0 DUP1 REVERT JUMPDEST DUP1 PUSH4 0x49E03502 EQ PUSH2 0x76B JUMPI DUP1 PUSH4 0x4A4C560D EQ PUSH2 0x78B JUMPI DUP1 PUSH4 0x4B8E7A34 EQ PUSH2 0x7AB JUMPI DUP1 PUSH4 0x4D1CCB62 EQ PUSH2 0x7CB JUMPI PUSH1 0x0 DUP1 REVERT JUMPDEST DUP1 PUSH4 0x2BBD59CA GT PUSH2 0x3C8 JUMPI DUP1 PUSH4 0x36568ABE GT PUSH2 0x397 JUMPI DUP1 PUSH4 0x36568ABE EQ PUSH2 0x6D6 JUMPI DUP1 PUSH4 0x3DA01325 EQ PUSH2 0x6F6 JUMPI DUP1 PUSH4 0x3DC9979E EQ PUSH2 0x716 JUMPI DUP1 PUSH4 0x3E11B5DC EQ PUSH2 0x736 JUMPI DUP1 PUSH4 0x3F4BA83A EQ PUSH2 0x756 JUMPI PUSH1 0x0 DUP1 REVERT JUMPDEST DUP1 PUSH4 0x2BBD59CA EQ PUSH2 0x63E JUMPI DUP1 PUSH4 0x2C8D6FD6 EQ PUSH2 0x676 JUMPI DUP1 PUSH4 0x2E1A7D4D EQ PUSH2 0x696 JUMPI DUP1 PUSH4 0x2F2FF15D EQ PUSH2 0x6B6 JUMPI PUSH1 0x0 DUP1 REVERT JUMPDEST DUP1 PUSH4 0x10F5FF3E GT PUSH2 0x40F JUMPI DUP1 PUSH4 0x10F5FF3E EQ PUSH2 0x528 JUMPI DUP1 PUSH4 0x190C69A2 EQ PUSH2 0x556 JUMPI DUP1 PUSH4 0x1B1456D6 EQ PUSH2 0x576 JUMPI DUP1 PUSH4 0x20D4F41B EQ PUSH2 0x5ED JUMPI DUP1 PUSH4 0x248A9CA3 EQ PUSH2 0x60E JUMPI PUSH1 0x0 DUP1 REVERT JUMPDEST DUP1 PUSH4 0x1FFC9A7 EQ PUSH2 0x484 JUMPI DUP1 PUSH4 0x49C067A EQ PUSH2 0x4B9 JUMPI DUP1 PUSH4 0x9B82CFD EQ PUSH2 0x4DB JUMPI DUP1 PUSH4 0xDE72B7E EQ PUSH2 0x4FB JUMPI PUSH1 0x0 DUP1 REVERT JUMPDEST CALLDATASIZE PUSH2 0x47F JUMPI PUSH2 0x44D PUSH2 0xEA3 JUMP JUMPDEST PUSH1 0x1 PUSH1 0x1 PUSH1 0xA0 SHL SUB AND PUSH1 0x0 DUP1 MLOAD PUSH1 0x20 PUSH2 0x56B4 DUP4 CODECOPY DUP2 MLOAD SWAP2 MSTORE CALLVALUE PUSH1 0x40 MLOAD PUSH2 0x475 SWAP2 DUP2 MSTORE PUSH1 0x20 ADD SWAP1 JUMP JUMPDEST PUSH1 0x40 MLOAD DUP1 SWAP2 SUB SWAP1 LOG2 STOP JUMPDEST PUSH1 0x0 DUP1 REVERT JUMPDEST CALLVALUE DUP1 ISZERO PUSH2 0x490 JUMPI PUSH1 0x0 DUP1 REVERT JUMPDEST POP PUSH2 0x4A4 PUSH2 0x49F CALLDATASIZE PUSH1 0x4 PUSH2 0x4FD6 JUMP JUMPDEST PUSH2 0xEB2 JUMP JUMPDEST PUSH1 0x40 MLOAD SWAP1 ISZERO ISZERO DUP2 MSTORE PUSH1 0x20 ADD JUMPDEST PUSH1 0x40 MLOAD DUP1 SWAP2 SUB SWAP1 RETURN JUMPDEST CALLVALUE DUP1 ISZERO PUSH2 0x4C5 JUMPI PUSH1 0x0 DUP1 REVERT JUMPDEST POP PUSH2 0x4D9 PUSH2 0x4D4 CALLDATASIZE PUSH1 0x4 PUSH2 0x4EEC JUMP JUMPDEST PUSH2 0xEDD JUMP JUMPDEST STOP JUMPDEST CALLVALUE DUP1 ISZERO PUSH2 0x4E7 JUMPI PUSH1 0x0 DUP1 REVERT JUMPDEST POP PUSH2 0x4D9 PUSH2 0x4F6 CALLDATASIZE PUSH1 0x4 PUSH2 0x5035 JUMP JUMPDEST PUSH2 0xF3F JUMP JUMPDEST CALLVALUE DUP1 ISZERO PUSH2 0x507 JUMPI PUSH1 0x0 DUP1 REVERT JUMPDEST POP PUSH2 0x51B PUSH2 0x516 CALLDATASIZE PUSH1 0x4 PUSH2 0x5000 JUMP JUMPDEST PUSH2 0xFD2 JUMP JUMPDEST PUSH1 0x40 MLOAD PUSH2 0x4B0 SWAP2 SWAP1 PUSH2 0x52C6 JUMP JUMPDEST CALLVALUE DUP1 ISZERO PUSH2 0x534 JUMPI PUSH1 0x0 DUP1 REVERT JUMPDEST POP PUSH2 0x548 PUSH2 0x543 CALLDATASIZE PUSH1 0x4 PUSH2 0x4F88 JUMP JUMPDEST PUSH2 0xFFF JUMP JUMPDEST PUSH1 0x40 MLOAD PUSH2 0x4B0 SWAP3 SWAP2 SWAP1 PUSH2 0x527E JUMP JUMPDEST CALLVALUE DUP1 ISZERO PUSH2 0x562 JUMPI PUSH1 0x0 DUP1 REVERT JUMPDEST POP PUSH2 0x4D9 PUSH2 0x571 CALLDATASIZE PUSH1 0x4 PUSH2 0x4D4C JUMP JUMPDEST PUSH2 0x10A7 JUMP JUMPDEST CALLVALUE DUP1 ISZERO PUSH2 0x582 JUMPI PUSH1 0x0 DUP1 REVERT JUMPDEST POP PUSH2 0x5C3 PUSH2 0x591 CALLDATASIZE PUSH1 0x4 PUSH2 0x4EEC JUMP JUMPDEST PUSH2 0x16C PUSH1 0x20 MSTORE PUSH1 0x0 SWAP1 DUP2 MSTORE PUSH1 0x40 SWAP1 KECCAK256 DUP1 SLOAD PUSH1 0x1 DUP3 ADD SLOAD PUSH1 0x2 DUP4 ADD SLOAD PUSH1 0x3 SWAP1 SWAP4 ADD SLOAD PUSH1 0x1 PUSH1 0x1 PUSH1 0xA0 SHL SUB SWAP1 SWAP3 AND SWAP3 SWAP1 SWAP2 DUP5 JUMP JUMPDEST PUSH1 0x40 DUP1 MLOAD PUSH1 0x1 PUSH1 0x1 PUSH1 0xA0 SHL SUB SWAP1 SWAP6 AND DUP6 MSTORE PUSH1 0x20 DUP6 ADD SWAP4 SWAP1 SWAP4 MSTORE SWAP2 DUP4 ADD MSTORE PUSH1 0x60 DUP3 ADD MSTORE PUSH1 0x80 ADD PUSH2 0x4B0 JUMP JUMPDEST PUSH2 0x600 PUSH2 0x5FB CALLDATASIZE PUSH1 0x4 PUSH2 0x4DD6 JUMP JUMPDEST PUSH2 0x114E JUMP JUMPDEST PUSH1 0x40 MLOAD SWAP1 DUP2 MSTORE PUSH1 0x20 ADD PUSH2 0x4B0 JUMP JUMPDEST CALLVALUE DUP1 ISZERO PUSH2 0x61A JUMPI PUSH1 0x0 DUP1 REVERT JUMPDEST POP PUSH2 0x600 PUSH2 0x629 CALLDATASIZE PUSH1 0x4 PUSH2 0x4EEC JUMP JUMPDEST PUSH1 0x0 SWAP1 DUP2 MSTORE PUSH1 0xC9 PUSH1 0x20 MSTORE PUSH1 0x40 SWAP1 KECCAK256 PUSH1 0x1 ADD SLOAD SWAP1 JUMP JUMPDEST CALLVALUE DUP1 ISZERO PUSH2 0x64A JUMPI PUSH1 0x0 DUP1 REVERT JUMPDEST POP PUSH2 0x65E PUSH2 0x659 CALLDATASIZE PUSH1 0x4 PUSH2 0x4EEC JUMP JUMPDEST PUSH2 0x145A JUMP JUMPDEST PUSH1 0x40 MLOAD PUSH2 0x4B0 SWAP13 SWAP12 SWAP11 SWAP10 SWAP9 SWAP8 SWAP7 SWAP6 SWAP5 SWAP4 SWAP3 SWAP2 SWAP1 PUSH2 0x5303 JUMP JUMPDEST CALLVALUE DUP1 ISZERO PUSH2 0x682 JUMPI PUSH1 0x0 DUP1 REVERT JUMPDEST POP PUSH2 0x4A4 PUSH2 0x691 CALLDATASIZE PUSH1 0x4 PUSH2 0x4D67 JUMP JUMPDEST PUSH2 0x15DC JUMP JUMPDEST CALLVALUE DUP1 ISZERO PUSH2 0x6A2 JUMPI PUSH1 0x0 DUP1 REVERT JUMPDEST POP PUSH2 0x4D9 PUSH2 0x6B1 CALLDATASIZE PUSH1 0x4 PUSH2 0x4EEC JUMP JUMPDEST PUSH2 0x1628 JUMP JUMPDEST CALLVALUE DUP1 ISZERO PUSH2 0x6C2 JUMPI PUSH1 0x0 DUP1 REVERT JUMPDEST POP PUSH2 0x4D9 PUSH2 0x6D1 CALLDATASIZE PUSH1 0x4 PUSH2 0x4F1E JUMP JUMPDEST PUSH2 0x178B JUMP JUMPDEST CALLVALUE DUP1 ISZERO PUSH2 0x6E2 JUMPI PUSH1 0x0 DUP1 REVERT JUMPDEST POP PUSH2 0x4D9 PUSH2 0x6F1 CALLDATASIZE PUSH1 0x4 PUSH2 0x4F1E JUMP JUMPDEST PUSH2 0x17B3 JUMP JUMPDEST CALLVALUE DUP1 ISZERO PUSH2 0x702 JUMPI PUSH1 0x0 DUP1 REVERT JUMPDEST POP PUSH2 0x4D9 PUSH2 0x711 CALLDATASIZE PUSH1 0x4 PUSH2 0x4D4C JUMP JUMPDEST PUSH2 0x1841 JUMP JUMPDEST CALLVALUE DUP1 ISZERO PUSH2 0x722 JUMPI PUSH1 0x0 DUP1 REVERT JUMPDEST POP PUSH2 0x600 PUSH2 0x731 CALLDATASIZE PUSH1 0x4 PUSH2 0x4EEC JUMP JUMPDEST PUSH2 0x1943 JUMP JUMPDEST CALLVALUE DUP1 ISZERO PUSH2 0x742 JUMPI PUSH1 0x0 DUP1 REVERT JUMPDEST POP PUSH2 0x548 PUSH2 0x751 CALLDATASIZE PUSH1 0x4 PUSH2 0x4FAA JUMP JUMPDEST PUSH2 0x1965 JUMP JUMPDEST CALLVALUE DUP1 ISZERO PUSH2 0x762 JUMPI PUSH1 0x0 DUP1 REVERT JUMPDEST POP PUSH2 0x4D9 PUSH2 0x1A7B JUMP JUMPDEST CALLVALUE DUP1 ISZERO PUSH2 0x777 JUMPI PUSH1 0x0 DUP1 REVERT JUMPDEST POP PUSH2 0x548 PUSH2 0x786 CALLDATASIZE PUSH1 0x4 PUSH2 0x4F88 JUMP JUMPDEST PUSH2 0x1AF3 JUMP JUMPDEST CALLVALUE DUP1 ISZERO PUSH2 0x797 JUMPI PUSH1 0x0 DUP1 REVERT JUMPDEST POP PUSH2 0x4D9 PUSH2 0x7A6 CALLDATASIZE PUSH1 0x4 PUSH2 0x4D4C JUMP JUMPDEST PUSH2 0x1B40 JUMP JUMPDEST CALLVALUE DUP1 ISZERO PUSH2 0x7B7 JUMPI PUSH1 0x0 DUP1 REVERT JUMPDEST POP PUSH2 0x4D9 PUSH2 0x7C6 CALLDATASIZE PUSH1 0x4 PUSH2 0x4EEC JUMP JUMPDEST PUSH2 0x1C7A JUMP JUMPDEST CALLVALUE DUP1 ISZERO PUSH2 0x7D7 JUMPI PUSH1 0x0 DUP1 REVERT JUMPDEST POP PUSH2 0x4D9 PUSH2 0x7E6 CALLDATASIZE PUSH1 0x4 PUSH2 0x4EEC JUMP JUMPDEST PUSH2 0x1CDD JUMP JUMPDEST CALLVALUE DUP1 ISZERO PUSH2 0x7F7 JUMPI PUSH1 0x0 DUP1 REVERT JUMPDEST POP PUSH2 0x600 PUSH2 0x160 SLOAD DUP2 JUMP JUMPDEST CALLVALUE DUP1 ISZERO PUSH2 0x80E JUMPI PUSH1 0x0 DUP1 REVERT JUMPDEST POP PUSH2 0x600 PUSH2 0x162 SLOAD DUP2 JUMP JUMPDEST CALLVALUE DUP1 ISZERO PUSH2 0x825 JUMPI PUSH1 0x0 DUP1 REVERT JUMPDEST POP PUSH2 0x600 PUSH2 0x834 CALLDATASIZE PUSH1 0x4 PUSH2 0x4EEC JUMP JUMPDEST PUSH2 0x1CF2 JUMP JUMPDEST CALLVALUE DUP1 ISZERO PUSH2 0x845 JUMPI PUSH1 0x0 DUP1 REVERT JUMPDEST POP PUSH2 0x4D9 PUSH2 0x854 CALLDATASIZE PUSH1 0x4 PUSH2 0x5000 JUMP JUMPDEST PUSH2 0x1D03 JUMP JUMPDEST CALLVALUE DUP1 ISZERO PUSH2 0x865 JUMPI PUSH1 0x0 DUP1 REVERT JUMPDEST POP PUSH2 0x4A4 PUSH2 0x874 CALLDATASIZE PUSH1 0x4 PUSH2 0x4D4C JUMP JUMPDEST PUSH1 0x65 SLOAD PUSH1 0x1 PUSH1 0x1 PUSH1 0xA0 SHL SUB SWAP2 DUP3 AND SWAP2 AND EQ SWAP1 JUMP JUMPDEST CALLVALUE DUP1 ISZERO PUSH2 0x894 JUMPI PUSH1 0x0 DUP1 REVERT JUMPDEST POP PUSH2 0x548 PUSH2 0x8A3 CALLDATASIZE PUSH1 0x4 PUSH2 0x4F88 JUMP JUMPDEST PUSH2 0x1D25 JUMP JUMPDEST CALLVALUE DUP1 ISZERO PUSH2 0x8B4 JUMPI PUSH1 0x0 DUP1 REVERT JUMPDEST POP PUSH1 0x33 SLOAD PUSH1 0xFF AND PUSH2 0x4A4 JUMP JUMPDEST CALLVALUE DUP1 ISZERO PUSH2 0x8CC JUMPI PUSH1 0x0 DUP1 REVERT JUMPDEST POP PUSH2 0x918 PUSH2 0x8DB CALLDATASIZE PUSH1 0x4 PUSH2 0x4EEC JUMP JUMPDEST PUSH2 0x16B PUSH1 0x20 MSTORE PUSH1 0x0 SWAP1 DUP2 MSTORE PUSH1 0x40 SWAP1 KECCAK256 DUP1 SLOAD PUSH1 0x1 DUP3 ADD SLOAD PUSH1 0x2 DUP4 ADD SLOAD PUSH1 0x3 DUP5 ADD SLOAD PUSH1 0x4 SWAP1 SWAP5 ADD SLOAD PUSH1 0x1 PUSH1 0x1 PUSH1 0xA0 SHL SUB SWAP1 SWAP4 AND SWAP4 SWAP2 SWAP3 SWAP1 SWAP2 SWAP1 PUSH1 0xFF AND DUP6 JUMP JUMPDEST PUSH1 0x40 DUP1 MLOAD PUSH1 0x1 PUSH1 0x1 PUSH1 0xA0 SHL SUB SWAP1 SWAP7 AND DUP7 MSTORE PUSH1 0x20 DUP7 ADD SWAP5 SWAP1 SWAP5 MSTORE SWAP3 DUP5 ADD SWAP2 SWAP1 SWAP2 MSTORE PUSH1 0x60 DUP4 ADD MSTORE ISZERO ISZERO PUSH1 0x80 DUP3 ADD MSTORE PUSH1 0xA0 ADD PUSH2 0x4B0 JUMP JUMPDEST CALLVALUE DUP1 ISZERO PUSH2 0x958 JUMPI PUSH1 0x0 DUP1 REVERT JUMPDEST POP PUSH2 0x4D9 PUSH2 0x967 CALLDATASIZE PUSH1 0x4 PUSH2 0x4D4C JUMP JUMPDEST PUSH2 0x1D72 JUMP JUMPDEST CALLVALUE DUP1 ISZERO PUSH2 0x978 JUMPI PUSH1 0x0 DUP1 REVERT JUMPDEST POP PUSH2 0x51B PUSH2 0x1EAB JUMP JUMPDEST CALLVALUE DUP1 ISZERO PUSH2 0x98D JUMPI PUSH1 0x0 DUP1 REVERT JUMPDEST POP PUSH2 0x600 PUSH2 0x161 SLOAD DUP2 JUMP JUMPDEST CALLVALUE DUP1 ISZERO PUSH2 0x9A4 JUMPI PUSH1 0x0 DUP1 REVERT JUMPDEST POP PUSH2 0x4D9 PUSH2 0x9B3 CALLDATASIZE PUSH1 0x4 PUSH2 0x4EEC JUMP JUMPDEST PUSH2 0x1F3A JUMP JUMPDEST CALLVALUE DUP1 ISZERO PUSH2 0x9C4 JUMPI PUSH1 0x0 DUP1 REVERT JUMPDEST POP PUSH2 0x4D9 PUSH2 0x2171 JUMP JUMPDEST CALLVALUE DUP1 ISZERO PUSH2 0x9D9 JUMPI PUSH1 0x0 DUP1 REVERT JUMPDEST POP PUSH2 0x9ED PUSH2 0x9E8 CALLDATASIZE PUSH1 0x4 PUSH2 0x4F88 JUMP JUMPDEST PUSH2 0x21E5 JUMP JUMPDEST PUSH1 0x40 MLOAD PUSH1 0x1 PUSH1 0x1 PUSH1 0xA0 SHL SUB SWAP1 SWAP2 AND DUP2 MSTORE PUSH1 0x20 ADD PUSH2 0x4B0 JUMP JUMPDEST CALLVALUE DUP1 ISZERO PUSH2 0xA11 JUMPI PUSH1 0x0 DUP1 REVERT JUMPDEST POP PUSH2 0x4A4 PUSH2 0xA20 CALLDATASIZE PUSH1 0x4 PUSH2 0x4F1E JUMP JUMPDEST PUSH2 0x2204 JUMP JUMPDEST CALLVALUE DUP1 ISZERO PUSH2 0xA31 JUMPI PUSH1 0x0 DUP1 REVERT JUMPDEST POP PUSH2 0x4D9 PUSH2 0xA40 CALLDATASIZE PUSH1 0x4 PUSH2 0x5035 JUMP JUMPDEST PUSH2 0x222F JUMP JUMPDEST CALLVALUE DUP1 ISZERO PUSH2 0xA51 JUMPI PUSH1 0x0 DUP1 REVERT JUMPDEST POP PUSH2 0x600 PUSH2 0xA60 CALLDATASIZE PUSH1 0x4 PUSH2 0x4EEC JUMP JUMPDEST PUSH2 0x22E9 JUMP JUMPDEST CALLVALUE DUP1 ISZERO PUSH2 0xA71 JUMPI PUSH1 0x0 DUP1 REVERT JUMPDEST POP PUSH2 0x600 PUSH2 0xA80 CALLDATASIZE PUSH1 0x4 PUSH2 0x4EEC JUMP JUMPDEST PUSH2 0x22FA JUMP JUMPDEST CALLVALUE DUP1 ISZERO PUSH2 0xA91 JUMPI PUSH1 0x0 DUP1 REVERT JUMPDEST POP PUSH2 0x4D9 PUSH2 0xAA0 CALLDATASIZE PUSH1 0x4 PUSH2 0x5069 JUMP JUMPDEST PUSH2 0x230B JUMP JUMPDEST CALLVALUE DUP1 ISZERO PUSH2 0xAB1 JUMPI PUSH1 0x0 DUP1 REVERT JUMPDEST POP PUSH2 0x600 PUSH1 0x0 DUP2 JUMP JUMPDEST CALLVALUE DUP1 ISZERO PUSH2 0xAC6 JUMPI PUSH1 0x0 DUP1 REVERT JUMPDEST POP PUSH2 0x4D9 PUSH2 0xAD5 CALLDATASIZE PUSH1 0x4 PUSH2 0x4D4C JUMP JUMPDEST PUSH2 0x2532 JUMP JUMPDEST PUSH2 0x4D9 PUSH2 0xAE8 CALLDATASIZE PUSH1 0x4 PUSH2 0x4EEC JUMP JUMPDEST PUSH2 0x25BB JUMP JUMPDEST CALLVALUE DUP1 ISZERO PUSH2 0xAF9 JUMPI PUSH1 0x0 DUP1 REVERT JUMPDEST POP PUSH2 0x4D9 PUSH2 0xB08 CALLDATASIZE PUSH1 0x4 PUSH2 0x4D4C JUMP JUMPDEST PUSH2 0x287D JUMP JUMPDEST CALLVALUE DUP1 ISZERO PUSH2 0xB19 JUMPI PUSH1 0x0 DUP1 REVERT JUMPDEST POP PUSH2 0xB2D PUSH2 0xB28 CALLDATASIZE PUSH1 0x4 PUSH2 0x4D4C JUMP JUMPDEST PUSH2 0x28F8 JUMP JUMPDEST PUSH1 0x40 MLOAD PUSH2 0x4B0 SWAP4 SWAP3 SWAP2 SWAP1 PUSH2 0x54BA JUMP JUMPDEST PUSH2 0x4D9 PUSH2 0xB4A CALLDATASIZE PUSH1 0x4 PUSH2 0x4EEC JUMP JUMPDEST PUSH2 0x29A4 JUMP JUMPDEST CALLVALUE DUP1 ISZERO PUSH2 0xB5B JUMPI PUSH1 0x0 DUP1 REVERT JUMPDEST POP PUSH2 0x600 PUSH2 0x167 SLOAD DUP2 JUMP JUMPDEST CALLVALUE DUP1 ISZERO PUSH2 0xB72 JUMPI PUSH1 0x0 DUP1 REVERT JUMPDEST POP PUSH2 0x548 PUSH2 0xB81 CALLDATASIZE PUSH1 0x4 PUSH2 0x4FAA JUMP JUMPDEST PUSH2 0x2C23 JUMP JUMPDEST CALLVALUE DUP1 ISZERO PUSH2 0xB92 JUMPI PUSH1 0x0 DUP1 REVERT JUMPDEST POP PUSH2 0x4D9 PUSH2 0xBA1 CALLDATASIZE PUSH1 0x4 PUSH2 0x4F88 JUMP JUMPDEST PUSH2 0x2CDD JUMP JUMPDEST CALLVALUE DUP1 ISZERO PUSH2 0xBB2 JUMPI PUSH1 0x0 DUP1 REVERT JUMPDEST POP PUSH2 0x600 PUSH2 0x2F69 JUMP JUMPDEST CALLVALUE DUP1 ISZERO PUSH2 0xBC7 JUMPI PUSH1 0x0 DUP1 REVERT JUMPDEST POP PUSH2 0x4D9 PUSH2 0xBD6 CALLDATASIZE PUSH1 0x4 PUSH2 0x4F1E JUMP JUMPDEST PUSH2 0x2F80 JUMP JUMPDEST CALLVALUE DUP1 ISZERO PUSH2 0xBE7 JUMPI PUSH1 0x0 DUP1 REVERT JUMPDEST POP PUSH2 0x600 PUSH2 0x30E7 JUMP JUMPDEST CALLVALUE DUP1 ISZERO PUSH2 0xBFC JUMPI PUSH1 0x0 DUP1 REVERT JUMPDEST POP PUSH2 0x600 PUSH2 0x166 SLOAD DUP2 JUMP JUMPDEST CALLVALUE DUP1 ISZERO PUSH2 0xC13 JUMPI PUSH1 0x0 DUP1 REVERT JUMPDEST POP PUSH2 0x15F SLOAD PUSH2 0x9ED SWAP1 PUSH1 0x1 PUSH1 0x1 PUSH1 0xA0 SHL SUB AND DUP2 JUMP JUMPDEST PUSH2 0x600 PUSH2 0xC36 CALLDATASIZE PUSH1 0x4 PUSH2 0x5000 JUMP JUMPDEST PUSH2 0x311C JUMP JUMPDEST CALLVALUE DUP1 ISZERO PUSH2 0xC47 JUMPI PUSH1 0x0 DUP1 REVERT JUMPDEST POP PUSH2 0x548 PUSH2 0xC56 CALLDATASIZE PUSH1 0x4 PUSH2 0x4F88 JUMP JUMPDEST PUSH2 0x33F7 JUMP JUMPDEST CALLVALUE DUP1 ISZERO PUSH2 0xC67 JUMPI PUSH1 0x0 DUP1 REVERT JUMPDEST POP PUSH2 0x600 PUSH2 0xC76 CALLDATASIZE PUSH1 0x4 PUSH2 0x4EEC JUMP JUMPDEST PUSH2 0x3444 JUMP JUMPDEST CALLVALUE DUP1 ISZERO PUSH2 0xC87 JUMPI PUSH1 0x0 DUP1 REVERT JUMPDEST POP PUSH2 0x600 PUSH2 0x165 SLOAD DUP2 JUMP JUMPDEST PUSH2 0x4D9 PUSH2 0xCA0 CALLDATASIZE PUSH1 0x4 PUSH2 0x4F41 JUMP JUMPDEST PUSH2 0x345B JUMP JUMPDEST CALLVALUE DUP1 ISZERO PUSH2 0xCB1 JUMPI PUSH1 0x0 DUP1 REVERT JUMPDEST POP PUSH2 0x4D9 PUSH2 0xCC0 CALLDATASIZE PUSH1 0x4 PUSH2 0x4F1E JUMP JUMPDEST PUSH2 0x35F2 JUMP JUMPDEST CALLVALUE DUP1 ISZERO PUSH2 0xCD1 JUMPI PUSH1 0x0 DUP1 REVERT JUMPDEST POP PUSH2 0x600 PUSH2 0xCE0 CALLDATASIZE PUSH1 0x4 PUSH2 0x4EEC JUMP JUMPDEST PUSH2 0x374A JUMP JUMPDEST CALLVALUE DUP1 ISZERO PUSH2 0xCF1 JUMPI PUSH1 0x0 DUP1 REVERT JUMPDEST POP PUSH2 0x4D9 PUSH2 0xD00 CALLDATASIZE PUSH1 0x4 PUSH2 0x4F1E JUMP JUMPDEST PUSH2 0x375B JUMP JUMPDEST CALLVALUE DUP1 ISZERO PUSH2 0xD11 JUMPI PUSH1 0x0 DUP1 REVERT JUMPDEST POP PUSH2 0x164 SLOAD PUSH2 0x9ED SWAP1 PUSH1 0x1 PUSH1 0x1 PUSH1 0xA0 SHL SUB AND DUP2 JUMP JUMPDEST CALLVALUE DUP1 ISZERO PUSH2 0xD32 JUMPI PUSH1 0x0 DUP1 REVERT JUMPDEST POP PUSH2 0x600 PUSH2 0xD41 CALLDATASIZE PUSH1 0x4 PUSH2 0x4D9A JUMP JUMPDEST PUSH2 0x3783 JUMP JUMPDEST CALLVALUE DUP1 ISZERO PUSH2 0xD52 JUMPI PUSH1 0x0 DUP1 REVERT JUMPDEST POP PUSH2 0x4D9 PUSH2 0xD61 CALLDATASIZE PUSH1 0x4 PUSH2 0x4D4C JUMP JUMPDEST PUSH2 0x37C6 JUMP JUMPDEST CALLVALUE DUP1 ISZERO PUSH2 0xD72 JUMPI PUSH1 0x0 DUP1 REVERT JUMPDEST POP PUSH2 0x4A4 PUSH2 0xD81 CALLDATASIZE PUSH1 0x4 PUSH2 0x4D67 JUMP JUMPDEST PUSH2 0x37DD JUMP JUMPDEST CALLVALUE DUP1 ISZERO PUSH2 0xD92 JUMPI PUSH1 0x0 DUP1 REVERT JUMPDEST POP PUSH2 0xDA6 PUSH2 0xDA1 CALLDATASIZE PUSH1 0x4 PUSH2 0x4EEC JUMP JUMPDEST PUSH2 0x37E6 JUMP JUMPDEST PUSH1 0x40 MLOAD PUSH2 0x4B0 SWAP7 SWAP6 SWAP5 SWAP4 SWAP3 SWAP2 SWAP1 PUSH2 0x53C9 JUMP JUMPDEST CALLVALUE DUP1 ISZERO PUSH2 0xDC4 JUMPI PUSH1 0x0 DUP1 REVERT JUMPDEST POP PUSH2 0x600 PUSH2 0x163 SLOAD DUP2 JUMP JUMPDEST CALLVALUE DUP1 ISZERO PUSH2 0xDDB JUMPI PUSH1 0x0 DUP1 REVERT JUMPDEST POP PUSH2 0x4A4 PUSH2 0xDEA CALLDATASIZE PUSH1 0x4 PUSH2 0x4D4C JUMP JUMPDEST PUSH2 0x38AD JUMP JUMPDEST CALLVALUE DUP1 ISZERO PUSH2 0xDFB JUMPI PUSH1 0x0 DUP1 REVERT JUMPDEST POP PUSH2 0x4D9 PUSH2 0xE0A CALLDATASIZE PUSH1 0x4 PUSH2 0x4D4C JUMP JUMPDEST PUSH2 0x390D JUMP JUMPDEST CALLVALUE DUP1 ISZERO PUSH2 0xE1B JUMPI PUSH1 0x0 DUP1 REVERT JUMPDEST POP PUSH2 0x548 PUSH2 0xE2A CALLDATASIZE PUSH1 0x4 PUSH2 0x4F88 JUMP JUMPDEST PUSH2 0x3996 JUMP JUMPDEST CALLVALUE DUP1 ISZERO PUSH2 0xE3B JUMPI PUSH1 0x0 DUP1 REVERT JUMPDEST POP PUSH2 0x4D9 PUSH2 0xE4A CALLDATASIZE PUSH1 0x4 PUSH2 0x4EEC JUMP JUMPDEST PUSH2 0x39E3 JUMP JUMPDEST CALLVALUE DUP1 ISZERO PUSH2 0xE5B JUMPI PUSH1 0x0 DUP1 REVERT JUMPDEST POP PUSH2 0x600 PUSH32 0x35A7846A2A701FFF6F9D61A46EBFF5DA578C5DCEE8BDF361C569F9EA4EE64771 DUP2 JUMP JUMPDEST CALLVALUE DUP1 ISZERO PUSH2 0xE8F JUMPI PUSH1 0x0 DUP1 REVERT JUMPDEST POP PUSH2 0x600 PUSH2 0xE9E CALLDATASIZE PUSH1 0x4 PUSH2 0x4EEC JUMP JUMPDEST PUSH2 0x3C27 JUMP JUMPDEST PUSH1 0x0 PUSH2 0xEAD PUSH2 0x3C44 JUMP JUMPDEST SWAP1 POP SWAP1 JUMP JUMPDEST PUSH1 0x0 PUSH1 0x1 PUSH1 0x1 PUSH1 0xE0 SHL SUB NOT DUP3 AND PUSH4 0x5A05180F PUSH1 0xE0 SHL EQ DUP1 PUSH2 0xED7 JUMPI POP PUSH2 0xED7 DUP3 PUSH2 0x3C6C JUMP JUMPDEST SWAP3 SWAP2 POP POP JUMP JUMPDEST PUSH1 0x0 PUSH2 0xEF0 DUP2 PUSH2 0xEEB PUSH2 0xEA3 JUMP JUMPDEST PUSH2 0x3CA1 JUMP JUMPDEST PUSH1 0x40 DUP1 MLOAD DUP1 DUP3 ADD SWAP1 SWAP2 MSTORE PUSH1 0x6 DUP2 MSTORE PUSH6 0x60607260607 PUSH1 0xD3 SHL PUSH1 0x20 DUP3 ADD MSTORE PUSH1 0x1 DUP4 GT PUSH2 0xF37 JUMPI PUSH1 0x40 MLOAD PUSH3 0x461BCD PUSH1 0xE5 SHL DUP2 MSTORE PUSH1 0x4 ADD PUSH2 0xF2E SWAP2 SWAP1 PUSH2 0x52C6 JUMP JUMPDEST PUSH1 0x40 MLOAD DUP1 SWAP2 SUB SWAP1 REVERT JUMPDEST POP POP PUSH2 0x167 SSTORE JUMP JUMPDEST PUSH1 0x0 PUSH2 0xF4D DUP2 PUSH2 0xEEB PUSH2 0xEA3 JUMP JUMPDEST PUSH1 0x1 DUP3 PUSH1 0x1 DUP2 GT ISZERO PUSH2 0xF61 JUMPI PUSH2 0xF61 PUSH2 0x565B JUMP JUMPDEST EQ ISZERO PUSH2 0xFC6 JUMPI PUSH2 0x166 SLOAD DUP4 LT ISZERO PUSH1 0x40 MLOAD DUP1 PUSH1 0x40 ADD PUSH1 0x40 MSTORE DUP1 PUSH1 0x6 DUP2 MSTORE PUSH1 0x20 ADD PUSH6 0x303039303033 PUSH1 0xD0 SHL DUP2 MSTORE POP SWAP1 PUSH2 0xFAB JUMPI PUSH1 0x40 MLOAD PUSH3 0x461BCD PUSH1 0xE5 SHL DUP2 MSTORE PUSH1 0x4 ADD PUSH2 0xF2E SWAP2 SWAP1 PUSH2 0x52C6 JUMP JUMPDEST POP PUSH2 0x161 DUP4 SWAP1 SSTORE PUSH2 0xFBD PUSH1 0x4 DUP5 PUSH2 0x556B JUMP JUMPDEST PUSH2 0x166 SSTORE POP POP POP JUMP JUMPDEST PUSH2 0x160 DUP4 SWAP1 SSTORE JUMPDEST POP POP POP JUMP JUMPDEST PUSH1 0x60 PUSH2 0x168 DUP3 PUSH1 0x40 MLOAD PUSH1 0x20 ADD PUSH2 0xFE9 SWAP3 SWAP2 SWAP1 PUSH2 0x5162 JUMP JUMPDEST PUSH1 0x40 MLOAD PUSH1 0x20 DUP2 DUP4 SUB SUB DUP2 MSTORE SWAP1 PUSH1 0x40 MSTORE SWAP1 POP SWAP2 SWAP1 POP JUMP JUMPDEST PUSH1 0x40 MLOAD PUSH4 0x74A5907 PUSH1 0xE0 SHL DUP2 MSTORE PUSH1 0x4 DUP2 ADD DUP4 SWAP1 MSTORE PUSH1 0x24 DUP2 ADD DUP3 SWAP1 MSTORE PUSH2 0x173 PUSH1 0x44 DUP3 ADD MSTORE PUSH1 0x60 SWAP1 PUSH1 0x0 SWAP1 PUSH20 0x0 SWAP1 PUSH4 0x74A5907 SWAP1 PUSH1 0x64 ADD JUMPDEST PUSH1 0x0 PUSH1 0x40 MLOAD DUP1 DUP4 SUB DUP2 DUP7 DUP1 EXTCODESIZE ISZERO DUP1 ISZERO PUSH2 0x1060 JUMPI PUSH1 0x0 DUP1 REVERT JUMPDEST POP GAS DELEGATECALL ISZERO DUP1 ISZERO PUSH2 0x1074 JUMPI RETURNDATASIZE PUSH1 0x0 DUP1 RETURNDATACOPY RETURNDATASIZE PUSH1 0x0 REVERT JUMPDEST POP POP POP POP PUSH1 0x40 MLOAD RETURNDATASIZE PUSH1 0x0 DUP3 RETURNDATACOPY PUSH1 0x1F RETURNDATASIZE SWAP1 DUP2 ADD PUSH1 0x1F NOT AND DUP3 ADD PUSH1 0x40 MSTORE PUSH2 0x109C SWAP2 SWAP1 DUP2 ADD SWAP1 PUSH2 0x4E37 JUMP JUMPDEST SWAP2 POP SWAP2 POP SWAP3 POP SWAP3 SWAP1 POP JUMP JUMPDEST PUSH1 0x0 PUSH2 0x16D PUSH1 0x0 PUSH2 0x10B6 PUSH2 0xEA3 JUMP JUMPDEST PUSH1 0x1 PUSH1 0x1 PUSH1 0xA0 SHL SUB SWAP1 DUP2 AND DUP3 MSTORE PUSH1 0x20 DUP1 DUP4 ADD SWAP4 SWAP1 SWAP4 MSTORE PUSH1 0x40 SWAP2 DUP3 ADD PUSH1 0x0 SWAP1 DUP2 KECCAK256 SWAP2 DUP7 AND DUP2 MSTORE PUSH1 0x4 SWAP1 SWAP2 ADD SWAP1 SWAP3 MSTORE SWAP1 KECCAK256 DUP1 SLOAD PUSH1 0xFF NOT AND PUSH1 0x1 DUP4 PUSH1 0x2 DUP2 GT ISZERO PUSH2 0x10FF JUMPI PUSH2 0x10FF PUSH2 0x565B JUMP JUMPDEST MUL OR SWAP1 SSTORE POP DUP1 PUSH1 0x1 PUSH1 0x1 PUSH1 0xA0 SHL SUB AND PUSH2 0x1116 PUSH2 0xEA3 JUMP JUMPDEST PUSH1 0x1 PUSH1 0x1 PUSH1 0xA0 SHL SUB AND PUSH32 0xDC9EC6C8CA20E67E0CBECB5536D5C021046DD6A9A43B1B03D2B10235767D4502 PUSH1 0x40 MLOAD PUSH1 0x40 MLOAD DUP1 SWAP2 SUB SWAP1 LOG3 POP JUMP JUMPDEST PUSH1 0x0 DUP4 PUSH2 0x165 SLOAD DUP2 LT ISZERO PUSH1 0x40 MLOAD DUP1 PUSH1 0x40 ADD PUSH1 0x40 MSTORE DUP1 PUSH1 0x6 DUP2 MSTORE PUSH1 0x20 ADD PUSH6 0x303032303037 PUSH1 0xD0 SHL DUP2 MSTORE POP SWAP1 PUSH2 0x1195 JUMPI PUSH1 0x40 MLOAD PUSH3 0x461BCD PUSH1 0xE5 SHL DUP2 MSTORE PUSH1 0x4 ADD PUSH2 0xF2E SWAP2 SWAP1 PUSH2 0x52C6 JUMP JUMPDEST POP PUSH1 0x33 SLOAD PUSH1 0xFF AND ISZERO PUSH2 0x11B9 JUMPI PUSH1 0x40 MLOAD PUSH3 0x461BCD PUSH1 0xE5 SHL DUP2 MSTORE PUSH1 0x4 ADD PUSH2 0xF2E SWAP1 PUSH2 0x540E JUMP JUMPDEST DUP4 DUP1 PUSH1 0x1 LT ISZERO PUSH1 0x40 MLOAD DUP1 PUSH1 0x40 ADD PUSH1 0x40 MSTORE DUP1 PUSH1 0x6 DUP2 MSTORE PUSH1 0x20 ADD PUSH6 0x30303230313 PUSH1 0xD4 SHL DUP2 MSTORE POP SWAP1 PUSH2 0x11FC JUMPI PUSH1 0x40 MLOAD PUSH3 0x461BCD PUSH1 0xE5 SHL DUP2 MSTORE PUSH1 0x4 ADD PUSH2 0xF2E SWAP2 SWAP1 PUSH2 0x52C6 JUMP JUMPDEST POP PUSH1 0x2 PUSH2 0x12D SLOAD EQ ISZERO PUSH2 0x1221 JUMPI PUSH1 0x40 MLOAD PUSH3 0x461BCD PUSH1 0xE5 SHL DUP2 MSTORE PUSH1 0x4 ADD PUSH2 0xF2E SWAP1 PUSH2 0x5483 JUMP JUMPDEST PUSH1 0x2 PUSH2 0x12D SSTORE DUP4 MLOAD PUSH1 0x0 SWAP1 PUSH2 0x1278 JUMPI PUSH1 0x40 MLOAD PUSH3 0x461BCD PUSH1 0xE5 SHL DUP2 MSTORE PUSH1 0x20 PUSH1 0x4 DUP3 ADD MSTORE PUSH1 0x1B PUSH1 0x24 DUP3 ADD MSTORE PUSH32 0x6D657373616765486173682063616E6E6F7420626520656D7074790000000000 PUSH1 0x44 DUP3 ADD MSTORE PUSH1 0x64 ADD PUSH2 0xF2E JUMP JUMPDEST PUSH1 0x1 PUSH1 0x1 PUSH1 0xA0 SHL SUB DUP9 AND PUSH1 0x0 SWAP1 DUP2 MSTORE PUSH2 0x16D PUSH1 0x20 MSTORE PUSH1 0x40 DUP2 KECCAK256 PUSH1 0x4 ADD DUP2 PUSH2 0x129D PUSH2 0xEA3 JUMP JUMPDEST PUSH1 0x1 PUSH1 0x1 PUSH1 0xA0 SHL SUB AND DUP2 MSTORE PUSH1 0x20 DUP2 ADD SWAP2 SWAP1 SWAP2 MSTORE PUSH1 0x40 ADD PUSH1 0x0 KECCAK256 SLOAD PUSH1 0xFF AND SWAP1 POP PUSH1 0x1 DUP2 PUSH1 0x2 DUP2 GT ISZERO PUSH2 0x12D0 JUMPI PUSH2 0x12D0 PUSH2 0x565B JUMP JUMPDEST EQ ISZERO PUSH1 0x40 MLOAD DUP1 PUSH1 0x40 ADD PUSH1 0x40 MSTORE DUP1 PUSH1 0x6 DUP2 MSTORE PUSH1 0x20 ADD PUSH6 0x18181C98181B PUSH1 0xD1 SHL DUP2 MSTORE POP SWAP1 PUSH2 0x130F JUMPI PUSH1 0x40 MLOAD PUSH3 0x461BCD PUSH1 0xE5 SHL DUP2 MSTORE PUSH1 0x4 ADD PUSH2 0xF2E SWAP2 SWAP1 PUSH2 0x52C6 JUMP JUMPDEST POP PUSH1 0x0 PUSH2 0x131B DUP8 PUSH2 0xFD2 JUMP JUMPDEST SWAP1 POP PUSH1 0x0 PUSH2 0x1331 PUSH2 0x132A PUSH2 0xEA3 JUMP JUMPDEST DUP13 DUP12 PUSH2 0x3783 JUMP JUMPDEST SWAP1 POP PUSH1 0x2 DUP4 PUSH1 0x2 DUP2 GT ISZERO PUSH2 0x1347 JUMPI PUSH2 0x1347 PUSH2 0x565B JUMP JUMPDEST EQ PUSH2 0x1409 JUMPI PUSH1 0x1 DUP10 EQ ISZERO PUSH2 0x13A9 JUMPI PUSH1 0x40 DUP1 MLOAD DUP1 DUP3 ADD SWAP1 SWAP2 MSTORE PUSH1 0x6 DUP2 MSTORE PUSH6 0x303031303039 PUSH1 0xD0 SHL PUSH1 0x20 DUP3 ADD MSTORE CALLVALUE DUP3 GT ISZERO PUSH2 0x1393 JUMPI PUSH1 0x40 MLOAD PUSH3 0x461BCD PUSH1 0xE5 SHL DUP2 MSTORE PUSH1 0x4 ADD PUSH2 0xF2E SWAP2 SWAP1 PUSH2 0x52C6 JUMP JUMPDEST POP PUSH2 0x166 SLOAD PUSH2 0x13A2 SWAP1 CALLVALUE PUSH2 0x55AC JUMP JUMPDEST SWAP4 POP PUSH2 0x1409 JUMP JUMPDEST PUSH1 0x40 DUP1 MLOAD DUP1 DUP3 ADD SWAP1 SWAP2 MSTORE PUSH1 0x6 DUP2 MSTORE PUSH6 0x30303130313 PUSH1 0xD4 SHL PUSH1 0x20 DUP3 ADD MSTORE CALLVALUE DUP3 GT ISZERO PUSH2 0x13E7 JUMPI PUSH1 0x40 MLOAD PUSH3 0x461BCD PUSH1 0xE5 SHL DUP2 MSTORE PUSH1 0x4 ADD PUSH2 0xF2E SWAP2 SWAP1 PUSH2 0x52C6 JUMP JUMPDEST POP PUSH2 0x166 SLOAD DUP2 GT PUSH2 0x13F8 JUMPI CALLVALUE PUSH2 0x1406 JUMP JUMPDEST PUSH2 0x166 SLOAD PUSH2 0x1406 SWAP1 CALLVALUE PUSH2 0x55AC JUMP JUMPDEST SWAP4 POP JUMPDEST PUSH1 0x0 PUSH2 0x1420 PUSH2 0x1416 PUSH2 0xEA3 JUMP JUMPDEST DUP14 DUP8 DUP15 DUP15 DUP9 PUSH2 0x3D05 JUMP JUMPDEST SWAP1 POP DUP5 ISZERO DUP1 ISZERO SWAP1 PUSH2 0x1433 JUMPI POP PUSH2 0x166 SLOAD DUP3 GT JUMPDEST ISZERO PUSH2 0x1445 JUMPI PUSH2 0x1445 DUP13 PUSH2 0x166 SLOAD PUSH2 0x404D JUMP JUMPDEST PUSH1 0x1 PUSH2 0x12D SSTORE SWAP12 SWAP11 POP POP POP POP POP POP POP POP POP POP POP JUMP JUMPDEST PUSH2 0x169 PUSH1 0x20 MSTORE PUSH1 0x0 SWAP1 DUP2 MSTORE PUSH1 0x40 SWAP1 KECCAK256 DUP1 SLOAD DUP2 SWAP1 PUSH2 0x1476 SWAP1 PUSH2 0x560A JUMP JUMPDEST DUP1 PUSH1 0x1F ADD PUSH1 0x20 DUP1 SWAP2 DIV MUL PUSH1 0x20 ADD PUSH1 0x40 MLOAD SWAP1 DUP2 ADD PUSH1 0x40 MSTORE DUP1 SWAP3 SWAP2 SWAP1 DUP2 DUP2 MSTORE PUSH1 0x20 ADD DUP3 DUP1 SLOAD PUSH2 0x14A2 SWAP1 PUSH2 0x560A JUMP JUMPDEST DUP1 ISZERO PUSH2 0x14EF JUMPI DUP1 PUSH1 0x1F LT PUSH2 0x14C4 JUMPI PUSH2 0x100 DUP1 DUP4 SLOAD DIV MUL DUP4 MSTORE SWAP2 PUSH1 0x20 ADD SWAP2 PUSH2 0x14EF JUMP JUMPDEST DUP3 ADD SWAP2 SWAP1 PUSH1 0x0 MSTORE PUSH1 0x20 PUSH1 0x0 KECCAK256 SWAP1 JUMPDEST DUP2 SLOAD DUP2 MSTORE SWAP1 PUSH1 0x1 ADD SWAP1 PUSH1 0x20 ADD DUP1 DUP4 GT PUSH2 0x14D2 JUMPI DUP3 SWAP1 SUB PUSH1 0x1F AND DUP3 ADD SWAP2 JUMPDEST POP POP POP POP POP SWAP1 DUP1 PUSH1 0x1 ADD DUP1 SLOAD PUSH2 0x1504 SWAP1 PUSH2 0x560A JUMP JUMPDEST DUP1 PUSH1 0x1F ADD PUSH1 0x20 DUP1 SWAP2 DIV MUL PUSH1 0x20 ADD PUSH1 0x40 MLOAD SWAP1 DUP2 ADD PUSH1 0x40 MSTORE DUP1 SWAP3 SWAP2 SWAP1 DUP2 DUP2 MSTORE PUSH1 0x20 ADD DUP3 DUP1 SLOAD PUSH2 0x1530 SWAP1 PUSH2 0x560A JUMP JUMPDEST DUP1 ISZERO PUSH2 0x157D JUMPI DUP1 PUSH1 0x1F LT PUSH2 0x1552 JUMPI PUSH2 0x100 DUP1 DUP4 SLOAD DIV MUL DUP4 MSTORE SWAP2 PUSH1 0x20 ADD SWAP2 PUSH2 0x157D JUMP JUMPDEST DUP3 ADD SWAP2 SWAP1 PUSH1 0x0 MSTORE PUSH1 0x20 PUSH1 0x0 KECCAK256 SWAP1 JUMPDEST DUP2 SLOAD DUP2 MSTORE SWAP1 PUSH1 0x1 ADD SWAP1 PUSH1 0x20 ADD DUP1 DUP4 GT PUSH2 0x1560 JUMPI DUP3 SWAP1 SUB PUSH1 0x1F AND DUP3 ADD SWAP2 JUMPDEST POP POP POP PUSH1 0x2 DUP5 ADD SLOAD PUSH1 0x3 DUP6 ADD SLOAD PUSH1 0x4 DUP7 ADD SLOAD PUSH1 0x5 DUP8 ADD SLOAD PUSH1 0x7 DUP9 ADD SLOAD PUSH1 0x8 DUP10 ADD SLOAD PUSH1 0x9 DUP11 ADD SLOAD PUSH1 0xA DUP12 ADD SLOAD PUSH1 0xB DUP13 ADD SLOAD PUSH1 0xC SWAP1 SWAP13 ADD SLOAD SWAP11 SWAP12 SWAP8 SWAP11 SWAP7 SWAP10 POP PUSH1 0x1 PUSH1 0x1 PUSH1 0xA0 SHL SUB SWAP6 DUP7 AND SWAP9 POP SWAP4 SWAP1 SWAP5 AND SWAP6 SWAP2 SWAP5 SWAP1 SWAP4 PUSH1 0xFF SWAP1 DUP2 AND SWAP4 SWAP3 AND SWAP1 DUP13 JUMP JUMPDEST PUSH1 0x0 PUSH1 0x1 JUMPDEST PUSH1 0x1 PUSH1 0x1 PUSH1 0xA0 SHL SUB DUP1 DUP5 AND PUSH1 0x0 SWAP1 DUP2 MSTORE PUSH2 0x16D PUSH1 0x20 SWAP1 DUP2 MSTORE PUSH1 0x40 DUP1 DUP4 KECCAK256 SWAP4 DUP9 AND DUP4 MSTORE PUSH1 0x4 SWAP1 SWAP4 ADD SWAP1 MSTORE KECCAK256 SLOAD PUSH1 0xFF AND PUSH1 0x2 DUP2 GT ISZERO PUSH2 0x1620 JUMPI PUSH2 0x1620 PUSH2 0x565B JUMP JUMPDEST EQ SWAP4 SWAP3 POP POP POP JUMP JUMPDEST PUSH1 0x33 SLOAD PUSH1 0xFF AND ISZERO PUSH2 0x164B JUMPI PUSH1 0x40 MLOAD PUSH3 0x461BCD PUSH1 0xE5 SHL DUP2 MSTORE PUSH1 0x4 ADD PUSH2 0xF2E SWAP1 PUSH2 0x540E JUMP JUMPDEST PUSH1 0x2 PUSH2 0x12D SLOAD EQ ISZERO PUSH2 0x166F JUMPI PUSH1 0x40 MLOAD PUSH3 0x461BCD PUSH1 0xE5 SHL DUP2 MSTORE PUSH1 0x4 ADD PUSH2 0xF2E SWAP1 PUSH2 0x5483 JUMP JUMPDEST PUSH1 0x2 PUSH2 0x12D SSTORE PUSH2 0x16E PUSH1 0x0 PUSH2 0x1682 PUSH2 0xEA3 JUMP JUMPDEST PUSH1 0x1 PUSH1 0x1 PUSH1 0xA0 SHL SUB AND PUSH1 0x1 PUSH1 0x1 PUSH1 0xA0 SHL SUB AND DUP2 MSTORE PUSH1 0x20 ADD SWAP1 DUP2 MSTORE PUSH1 0x20 ADD PUSH1 0x0 KECCAK256 SLOAD DUP2 GT ISZERO PUSH1 0x40 MLOAD DUP1 PUSH1 0x40 ADD PUSH1 0x40 MSTORE DUP1 PUSH1 0x6 DUP2 MSTORE PUSH1 0x20 ADD PUSH6 0x303039303031 PUSH1 0xD0 SHL DUP2 MSTORE POP SWAP1 PUSH2 0x16E3 JUMPI PUSH1 0x40 MLOAD PUSH3 0x461BCD PUSH1 0xE5 SHL DUP2 MSTORE PUSH1 0x4 ADD PUSH2 0xF2E SWAP2 SWAP1 PUSH2 0x52C6 JUMP JUMPDEST POP DUP1 PUSH2 0x16E PUSH1 0x0 PUSH2 0x16F2 PUSH2 0xEA3 JUMP JUMPDEST PUSH1 0x1 PUSH1 0x1 PUSH1 0xA0 SHL SUB AND PUSH1 0x1 PUSH1 0x1 PUSH1 0xA0 SHL SUB AND DUP2 MSTORE PUSH1 0x20 ADD SWAP1 DUP2 MSTORE PUSH1 0x20 ADD PUSH1 0x0 KECCAK256 PUSH1 0x0 DUP3 DUP3 SLOAD PUSH2 0x1721 SWAP2 SWAP1 PUSH2 0x55AC JUMP JUMPDEST SWAP1 SWAP2 SSTORE POP PUSH2 0x1738 SWAP1 POP PUSH2 0x1732 PUSH2 0xEA3 JUMP JUMPDEST DUP3 PUSH2 0x404D JUMP JUMPDEST PUSH2 0x1740 PUSH2 0xEA3 JUMP JUMPDEST PUSH1 0x1 PUSH1 0x1 PUSH1 0xA0 SHL SUB AND PUSH32 0x884EDAD9CE6FA2440D8A54CC123490EB96D2768479D49FF9C7366125A9424364 DUP3 PUSH1 0x40 MLOAD PUSH2 0x177A SWAP2 DUP2 MSTORE PUSH1 0x20 ADD SWAP1 JUMP JUMPDEST PUSH1 0x40 MLOAD DUP1 SWAP2 SUB SWAP1 LOG2 POP PUSH1 0x1 PUSH2 0x12D SSTORE JUMP JUMPDEST PUSH1 0x0 DUP3 DUP2 MSTORE PUSH1 0xC9 PUSH1 0x20 MSTORE PUSH1 0x40 SWAP1 KECCAK256 PUSH1 0x1 ADD SLOAD PUSH2 0x17A9 DUP2 PUSH2 0xEEB PUSH2 0xEA3 JUMP JUMPDEST PUSH2 0xFCD DUP4 DUP4 PUSH2 0x4166 JUMP JUMPDEST PUSH2 0x17BB PUSH2 0xEA3 JUMP JUMPDEST PUSH1 0x1 PUSH1 0x1 PUSH1 0xA0 SHL SUB AND DUP2 PUSH1 0x1 PUSH1 0x1 PUSH1 0xA0 SHL SUB AND EQ PUSH2 0x1833 JUMPI PUSH1 0x40 MLOAD PUSH3 0x461BCD PUSH1 0xE5 SHL DUP2 MSTORE PUSH1 0x20 PUSH1 0x4 DUP3 ADD MSTORE PUSH1 0x2F PUSH1 0x24 DUP3 ADD MSTORE PUSH32 0x416363657373436F6E74726F6C3A2063616E206F6E6C792072656E6F756E6365 PUSH1 0x44 DUP3 ADD MSTORE PUSH15 0x103937B632B9903337B91039B2B633 PUSH1 0x89 SHL PUSH1 0x64 DUP3 ADD MSTORE PUSH1 0x84 ADD PUSH2 0xF2E JUMP JUMPDEST PUSH2 0x183D DUP3 DUP3 PUSH2 0x4188 JUMP JUMPDEST POP POP JUMP JUMPDEST DUP1 PUSH1 0x1 PUSH1 0x1 PUSH1 0xA0 SHL SUB AND PUSH2 0x1853 PUSH2 0xEA3 JUMP JUMPDEST PUSH1 0x1 PUSH1 0x1 PUSH1 0xA0 SHL SUB AND EQ ISZERO PUSH1 0x40 MLOAD DUP1 PUSH1 0x40 ADD PUSH1 0x40 MSTORE DUP1 PUSH1 0x6 DUP2 MSTORE PUSH1 0x20 ADD PUSH6 0x30303930313 PUSH1 0xD4 SHL DUP2 MSTORE POP SWAP1 PUSH2 0x189B JUMPI PUSH1 0x40 MLOAD PUSH3 0x461BCD PUSH1 0xE5 SHL DUP2 MSTORE PUSH1 0x4 ADD PUSH2 0xF2E SWAP2 SWAP1 PUSH2 0x52C6 JUMP JUMPDEST POP PUSH1 0x1 PUSH2 0x16D PUSH1 0x0 PUSH2 0x18AB PUSH2 0xEA3 JUMP JUMPDEST PUSH1 0x1 PUSH1 0x1 PUSH1 0xA0 SHL SUB SWAP1 DUP2 AND DUP3 MSTORE PUSH1 0x20 DUP1 DUP4 ADD SWAP4 SWAP1 SWAP4 MSTORE PUSH1 0x40 SWAP2 DUP3 ADD PUSH1 0x0 SWAP1 DUP2 KECCAK256 SWAP2 DUP7 AND DUP2 MSTORE PUSH1 0x4 SWAP1 SWAP2 ADD SWAP1 SWAP3 MSTORE SWAP1 KECCAK256 DUP1 SLOAD PUSH1 0xFF NOT AND PUSH1 0x1 DUP4 PUSH1 0x2 DUP2 GT ISZERO PUSH2 0x18F4 JUMPI PUSH2 0x18F4 PUSH2 0x565B JUMP JUMPDEST MUL OR SWAP1 SSTORE POP DUP1 PUSH1 0x1 PUSH1 0x1 PUSH1 0xA0 SHL SUB AND PUSH2 0x190B PUSH2 0xEA3 JUMP JUMPDEST PUSH1 0x1 PUSH1 0x1 PUSH1 0xA0 SHL SUB AND PUSH32 0xC931B7E6F18C2A39BCD066690C46C7BA85186501C524FAA844AC2C7213D17325 PUSH1 0x40 MLOAD PUSH1 0x40 MLOAD DUP1 SWAP2 SUB SWAP1 LOG3 POP JUMP JUMPDEST PUSH2 0x170 DUP2 DUP2 SLOAD DUP2 LT PUSH2 0x1954 JUMPI PUSH1 0x0 DUP1 REVERT JUMPDEST PUSH1 0x0 SWAP2 DUP3 MSTORE PUSH1 0x20 SWAP1 SWAP2 KECCAK256 ADD SLOAD SWAP1 POP DUP2 JUMP JUMPDEST PUSH1 0x0 DUP4 DUP2 MSTORE PUSH2 0x16A PUSH1 0x20 SWAP1 DUP2 MSTORE PUSH1 0x40 DUP1 DUP4 KECCAK256 PUSH1 0x3 ADD SLOAD DUP2 MLOAD DUP1 DUP4 ADD SWAP1 SWAP3 MSTORE PUSH1 0x6 DUP3 MSTORE PUSH6 0x303034303031 PUSH1 0xD0 SHL SWAP3 DUP3 ADD SWAP3 SWAP1 SWAP3 MSTORE PUSH1 0x60 SWAP3 SWAP2 DUP7 SWAP2 SWAP1 PUSH1 0x1 PUSH1 0x1 PUSH1 0xA0 SHL SUB AND PUSH2 0x19C5 JUMPI PUSH1 0x40 MLOAD PUSH3 0x461BCD PUSH1 0xE5 SHL DUP2 MSTORE PUSH1 0x4 ADD PUSH2 0xF2E SWAP2 SWAP1 PUSH2 0x52C6 JUMP JUMPDEST POP PUSH1 0x0 DUP7 DUP2 MSTORE PUSH2 0x16A PUSH1 0x20 MSTORE PUSH1 0x40 SWAP1 DUP2 SWAP1 KECCAK256 SWAP1 MLOAD PUSH4 0x74A5907 PUSH1 0xE0 SHL DUP2 MSTORE PUSH1 0x4 DUP1 DUP3 ADD DUP9 SWAP1 MSTORE PUSH1 0x24 DUP3 ADD DUP8 SWAP1 MSTORE SWAP1 SWAP2 ADD PUSH1 0x44 DUP3 ADD MSTORE PUSH20 0x0 SWAP1 PUSH4 0x74A5907 SWAP1 PUSH1 0x64 ADD JUMPDEST PUSH1 0x0 PUSH1 0x40 MLOAD DUP1 DUP4 SUB DUP2 DUP7 DUP1 EXTCODESIZE ISZERO DUP1 ISZERO PUSH2 0x1A32 JUMPI PUSH1 0x0 DUP1 REVERT JUMPDEST POP GAS DELEGATECALL ISZERO DUP1 ISZERO PUSH2 0x1A46 JUMPI RETURNDATASIZE PUSH1 0x0 DUP1 RETURNDATACOPY RETURNDATASIZE PUSH1 0x0 REVERT JUMPDEST POP POP POP POP PUSH1 0x40 MLOAD RETURNDATASIZE PUSH1 0x0 DUP3 RETURNDATACOPY PUSH1 0x1F RETURNDATASIZE SWAP1 DUP2 ADD PUSH1 0x1F NOT AND DUP3 ADD PUSH1 0x40 MSTORE PUSH2 0x1A6E SWAP2 SWAP1 DUP2 ADD SWAP1 PUSH2 0x4E37 JUMP JUMPDEST SWAP3 POP SWAP3 POP POP SWAP4 POP SWAP4 SWAP2 POP POP JUMP JUMPDEST PUSH2 0x1A88 PUSH1 0x0 PUSH2 0xA20 PUSH2 0xEA3 JUMP JUMPDEST PUSH2 0x1AE9 JUMPI PUSH1 0x40 MLOAD PUSH3 0x461BCD PUSH1 0xE5 SHL DUP2 MSTORE PUSH1 0x20 PUSH1 0x4 DUP3 ADD MSTORE PUSH1 0x2C PUSH1 0x24 DUP3 ADD MSTORE PUSH32 0x4D75737420686176652044454641554C545F41444D494E5F524F4C4520726F6C PUSH1 0x44 DUP3 ADD MSTORE PUSH12 0x6520746F20756E7061757365 PUSH1 0xA0 SHL PUSH1 0x64 DUP3 ADD MSTORE PUSH1 0x84 ADD PUSH2 0xF2E JUMP JUMPDEST PUSH2 0x1AF1 PUSH2 0x41AA JUMP JUMPDEST JUMP JUMPDEST PUSH1 0x40 MLOAD PUSH4 0x74A5907 PUSH1 0xE0 SHL DUP2 MSTORE PUSH1 0x4 DUP2 ADD DUP4 SWAP1 MSTORE PUSH1 0x24 DUP2 ADD DUP3 SWAP1 MSTORE PUSH2 0x171 PUSH1 0x44 DUP3 ADD MSTORE PUSH1 0x60 SWAP1 PUSH1 0x0 SWAP1 PUSH20 0x0 SWAP1 PUSH4 0x74A5907 SWAP1 PUSH1 0x64 ADD PUSH2 0x1048 JUMP JUMPDEST PUSH1 0x1 PUSH2 0x16D PUSH1 0x0 PUSH2 0x1B4F PUSH2 0xEA3 JUMP JUMPDEST PUSH1 0x1 PUSH1 0x1 PUSH1 0xA0 SHL SUB SWAP1 DUP2 AND DUP3 MSTORE PUSH1 0x20 DUP1 DUP4 ADD SWAP4 SWAP1 SWAP4 MSTORE PUSH1 0x40 SWAP2 DUP3 ADD PUSH1 0x0 SWAP1 DUP2 KECCAK256 SWAP2 DUP7 AND DUP2 MSTORE PUSH1 0x4 SWAP1 SWAP2 ADD SWAP1 SWAP3 MSTORE SWAP1 KECCAK256 SLOAD PUSH1 0xFF AND PUSH1 0x2 DUP2 GT ISZERO PUSH2 0x1B93 JUMPI PUSH2 0x1B93 PUSH2 0x565B JUMP JUMPDEST EQ ISZERO PUSH1 0x40 MLOAD DUP1 PUSH1 0x40 ADD PUSH1 0x40 MSTORE DUP1 PUSH1 0x6 DUP2 MSTORE PUSH1 0x20 ADD PUSH6 0x18181C98181B PUSH1 0xD1 SHL DUP2 MSTORE POP SWAP1 PUSH2 0x1BD2 JUMPI PUSH1 0x40 MLOAD PUSH3 0x461BCD PUSH1 0xE5 SHL DUP2 MSTORE PUSH1 0x4 ADD PUSH2 0xF2E SWAP2 SWAP1 PUSH2 0x52C6 JUMP JUMPDEST POP PUSH1 0x2 PUSH2 0x16D PUSH1 0x0 PUSH2 0x1BE2 PUSH2 0xEA3 JUMP JUMPDEST PUSH1 0x1 PUSH1 0x1 PUSH1 0xA0 SHL SUB SWAP1 DUP2 AND DUP3 MSTORE PUSH1 0x20 DUP1 DUP4 ADD SWAP4 SWAP1 SWAP4 MSTORE PUSH1 0x40 SWAP2 DUP3 ADD PUSH1 0x0 SWAP1 DUP2 KECCAK256 SWAP2 DUP7 AND DUP2 MSTORE PUSH1 0x4 SWAP1 SWAP2 ADD SWAP1 SWAP3 MSTORE SWAP1 KECCAK256 DUP1 SLOAD PUSH1 0xFF NOT AND PUSH1 0x1 DUP4 PUSH1 0x2 DUP2 GT ISZERO PUSH2 0x1C2B JUMPI PUSH2 0x1C2B PUSH2 0x565B JUMP JUMPDEST MUL OR SWAP1 SSTORE POP DUP1 PUSH1 0x1 PUSH1 0x1 PUSH1 0xA0 SHL SUB AND PUSH2 0x1C42 PUSH2 0xEA3 JUMP JUMPDEST PUSH1 0x1 PUSH1 0x1 PUSH1 0xA0 SHL SUB AND PUSH32 0x6661A7108AECD07864384529117D96C319C1163E3010C01390F6B704726E07DE PUSH1 0x40 MLOAD PUSH1 0x40 MLOAD DUP1 SWAP2 SUB SWAP1 LOG3 POP JUMP JUMPDEST PUSH1 0x0 PUSH2 0x1C88 DUP2 PUSH2 0xEEB PUSH2 0xEA3 JUMP JUMPDEST PUSH2 0x1C93 DUP3 PUSH1 0x4 PUSH2 0x558D JUMP JUMPDEST PUSH2 0x161 SLOAD GT PUSH1 0x40 MLOAD DUP1 PUSH1 0x40 ADD PUSH1 0x40 MSTORE DUP1 PUSH1 0x6 DUP2 MSTORE PUSH1 0x20 ADD PUSH6 0x303039303037 PUSH1 0xD0 SHL DUP2 MSTORE POP SWAP1 PUSH2 0x1CD5 JUMPI PUSH1 0x40 MLOAD PUSH3 0x461BCD PUSH1 0xE5 SHL DUP2 MSTORE PUSH1 0x4 ADD PUSH2 0xF2E SWAP2 SWAP1 PUSH2 0x52C6 JUMP JUMPDEST POP POP PUSH2 0x166 SSTORE JUMP JUMPDEST PUSH1 0x0 PUSH2 0x1CEB DUP2 PUSH2 0xEEB PUSH2 0xEA3 JUMP JUMPDEST POP PUSH2 0x162 SSTORE JUMP JUMPDEST PUSH2 0x171 DUP2 DUP2 SLOAD DUP2 LT PUSH2 0x1954 JUMPI PUSH1 0x0 DUP1 REVERT JUMPDEST PUSH1 0x0 PUSH2 0x1D11 DUP2 PUSH2 0xEEB PUSH2 0xEA3 JUMP JUMPDEST DUP2 MLOAD PUSH2 0xFCD SWAP1 PUSH2 0x168 SWAP1 PUSH1 0x20 DUP6 ADD SWAP1 PUSH2 0x4BF1 JUMP JUMPDEST PUSH1 0x40 MLOAD PUSH4 0x74A5907 PUSH1 0xE0 SHL DUP2 MSTORE PUSH1 0x4 DUP2 ADD DUP4 SWAP1 MSTORE PUSH1 0x24 DUP2 ADD DUP3 SWAP1 MSTORE PUSH2 0x170 PUSH1 0x44 DUP3 ADD MSTORE PUSH1 0x60 SWAP1 PUSH1 0x0 SWAP1 PUSH20 0x0 SWAP1 PUSH4 0x74A5907 SWAP1 PUSH1 0x64 ADD PUSH2 0x1048 JUMP JUMPDEST PUSH1 0x1 PUSH2 0x16D PUSH1 0x0 PUSH2 0x1D81 PUSH2 0xEA3 JUMP JUMPDEST PUSH1 0x1 PUSH1 0x1 PUSH1 0xA0 SHL SUB SWAP1 DUP2 AND DUP3 MSTORE PUSH1 0x20 DUP1 DUP4 ADD SWAP4 SWAP1 SWAP4 MSTORE PUSH1 0x40 SWAP2 DUP3 ADD PUSH1 0x0 SWAP1 DUP2 KECCAK256 SWAP2 DUP7 AND DUP2 MSTORE PUSH1 0x4 SWAP1 SWAP2 ADD SWAP1 SWAP3 MSTORE SWAP1 KECCAK256 SLOAD PUSH1 0xFF AND PUSH1 0x2 DUP2 GT ISZERO PUSH2 0x1DC5 JUMPI PUSH2 0x1DC5 PUSH2 0x565B JUMP JUMPDEST EQ PUSH1 0x40 MLOAD DUP1 PUSH1 0x40 ADD PUSH1 0x40 MSTORE DUP1 PUSH1 0x6 DUP2 MSTORE PUSH1 0x20 ADD PUSH6 0x303039303131 PUSH1 0xD0 SHL DUP2 MSTORE POP SWAP1 PUSH2 0x1E03 JUMPI PUSH1 0x40 MLOAD PUSH3 0x461BCD PUSH1 0xE5 SHL DUP2 MSTORE PUSH1 0x4 ADD PUSH2 0xF2E SWAP2 SWAP1 PUSH2 0x52C6 JUMP JUMPDEST POP PUSH1 0x0 PUSH2 0x16D PUSH1 0x0 PUSH2 0x1E13 PUSH2 0xEA3 JUMP JUMPDEST PUSH1 0x1 PUSH1 0x1 PUSH1 0xA0 SHL SUB SWAP1 DUP2 AND DUP3 MSTORE PUSH1 0x20 DUP1 DUP4 ADD SWAP4 SWAP1 SWAP4 MSTORE PUSH1 0x40 SWAP2 DUP3 ADD PUSH1 0x0 SWAP1 DUP2 KECCAK256 SWAP2 DUP7 AND DUP2 MSTORE PUSH1 0x4 SWAP1 SWAP2 ADD SWAP1 SWAP3 MSTORE SWAP1 KECCAK256 DUP1 SLOAD PUSH1 0xFF NOT AND PUSH1 0x1 DUP4 PUSH1 0x2 DUP2 GT ISZERO PUSH2 0x1E5C JUMPI PUSH2 0x1E5C PUSH2 0x565B JUMP JUMPDEST MUL OR SWAP1 SSTORE POP DUP1 PUSH1 0x1 PUSH1 0x1 PUSH1 0xA0 SHL SUB AND PUSH2 0x1E73 PUSH2 0xEA3 JUMP JUMPDEST PUSH1 0x1 PUSH1 0x1 PUSH1 0xA0 SHL SUB AND PUSH32 0x35672C674C91F8B0025681A1C8D11A4CA6583E909553290ECFB3D6578FAA8BCE PUSH1 0x40 MLOAD PUSH1 0x40 MLOAD DUP1 SWAP2 SUB SWAP1 LOG3 POP JUMP JUMPDEST PUSH2 0x168 DUP1 SLOAD PUSH2 0x1EB9 SWAP1 PUSH2 0x560A JUMP JUMPDEST DUP1 PUSH1 0x1F ADD PUSH1 0x20 DUP1 SWAP2 DIV MUL PUSH1 0x20 ADD PUSH1 0x40 MLOAD SWAP1 DUP2 ADD PUSH1 0x40 MSTORE DUP1 SWAP3 SWAP2 SWAP1 DUP2 DUP2 MSTORE PUSH1 0x20 ADD DUP3 DUP1 SLOAD PUSH2 0x1EE5 SWAP1 PUSH2 0x560A JUMP JUMPDEST DUP1 ISZERO PUSH2 0x1F32 JUMPI DUP1 PUSH1 0x1F LT PUSH2 0x1F07 JUMPI PUSH2 0x100 DUP1 DUP4 SLOAD DIV MUL DUP4 MSTORE SWAP2 PUSH1 0x20 ADD SWAP2 PUSH2 0x1F32 JUMP JUMPDEST DUP3 ADD SWAP2 SWAP1 PUSH1 0x0 MSTORE PUSH1 0x20 PUSH1 0x0 KECCAK256 SWAP1 JUMPDEST DUP2 SLOAD DUP2 MSTORE SWAP1 PUSH1 0x1 ADD SWAP1 PUSH1 0x20 ADD DUP1 DUP4 GT PUSH2 0x1F15 JUMPI DUP3 SWAP1 SUB PUSH1 0x1F AND DUP3 ADD SWAP2 JUMPDEST POP POP POP POP POP DUP2 JUMP JUMPDEST PUSH1 0x33 SLOAD PUSH1 0xFF AND ISZERO PUSH2 0x1F5D JUMPI PUSH1 0x40 MLOAD PUSH3 0x461BCD PUSH1 0xE5 SHL DUP2 MSTORE PUSH1 0x4 ADD PUSH2 0xF2E SWAP1 PUSH2 0x540E JUMP JUMPDEST PUSH1 0x0 DUP2 DUP2 MSTORE PUSH2 0x169 PUSH1 0x20 SWAP1 DUP2 MSTORE PUSH1 0x40 SWAP2 DUP3 SWAP1 KECCAK256 PUSH1 0x4 ADD SLOAD DUP3 MLOAD DUP1 DUP5 ADD SWAP1 SWAP4 MSTORE PUSH1 0x6 DUP4 MSTORE PUSH6 0x303032303033 PUSH1 0xD0 SHL SWAP2 DUP4 ADD SWAP2 SWAP1 SWAP2 MSTORE DUP3 SWAP2 SWAP1 PUSH1 0x1 PUSH1 0x1 PUSH1 0xA0 SHL SUB AND PUSH2 0x1FBA JUMPI PUSH1 0x40 MLOAD PUSH3 0x461BCD PUSH1 0xE5 SHL DUP2 MSTORE PUSH1 0x4 ADD PUSH2 0xF2E SWAP2 SWAP1 PUSH2 0x52C6 JUMP JUMPDEST POP DUP2 PUSH2 0x1FC4 PUSH2 0xEA3 JUMP JUMPDEST PUSH1 0x0 DUP3 DUP2 MSTORE PUSH2 0x169 PUSH1 0x20 SWAP1 DUP2 MSTORE PUSH1 0x40 SWAP2 DUP3 SWAP1 KECCAK256 PUSH1 0x4 ADD SLOAD DUP3 MLOAD DUP1 DUP5 ADD SWAP1 SWAP4 MSTORE PUSH1 0x6 DUP4 MSTORE PUSH6 0x181819181819 PUSH1 0xD1 SHL SWAP2 DUP4 ADD SWAP2 SWAP1 SWAP2 MSTORE SWAP1 SWAP2 PUSH1 0x1 PUSH1 0x1 PUSH1 0xA0 SHL SUB SWAP2 DUP3 AND SWAP2 AND EQ PUSH2 0x2025 JUMPI PUSH1 0x40 MLOAD PUSH3 0x461BCD PUSH1 0xE5 SHL DUP2 MSTORE PUSH1 0x4 ADD PUSH2 0xF2E SWAP2 SWAP1 PUSH2 0x52C6 JUMP JUMPDEST POP PUSH1 0x0 DUP4 DUP2 MSTORE PUSH2 0x169 PUSH1 0x20 MSTORE PUSH1 0x40 SWAP1 DUP2 SWAP1 KECCAK256 SWAP1 MLOAD PUSH4 0xDAE5E843 PUSH1 0xE0 SHL DUP2 MSTORE PUSH1 0x4 DUP2 ADD DUP3 SWAP1 MSTORE PUSH20 0x0 SWAP1 PUSH4 0xDAE5E843 SWAP1 PUSH1 0x24 ADD PUSH1 0x0 PUSH1 0x40 MLOAD DUP1 DUP4 SUB DUP2 DUP7 DUP1 EXTCODESIZE ISZERO DUP1 ISZERO PUSH2 0x2081 JUMPI PUSH1 0x0 DUP1 REVERT JUMPDEST POP GAS DELEGATECALL ISZERO DUP1 ISZERO PUSH2 0x2095 JUMPI RETURNDATASIZE PUSH1 0x0 DUP1 RETURNDATACOPY RETURNDATASIZE PUSH1 0x0 REVERT JUMPDEST POP POP POP POP DUP1 PUSH1 0x2 ADD SLOAD PUSH2 0x16E PUSH1 0x0 PUSH2 0x20AB PUSH2 0xEA3 JUMP JUMPDEST PUSH1 0x1 PUSH1 0x1 PUSH1 0xA0 SHL SUB AND PUSH1 0x1 PUSH1 0x1 PUSH1 0xA0 SHL SUB AND DUP2 MSTORE PUSH1 0x20 ADD SWAP1 DUP2 MSTORE PUSH1 0x20 ADD PUSH1 0x0 KECCAK256 PUSH1 0x0 DUP3 DUP3 SLOAD PUSH2 0x20DA SWAP2 SWAP1 PUSH2 0x5553 JUMP JUMPDEST SWAP1 SWAP2 SSTORE POP PUSH2 0x20E8 SWAP1 POP PUSH2 0xEA3 JUMP JUMPDEST PUSH1 0x1 PUSH1 0x1 PUSH1 0xA0 SHL SUB AND PUSH1 0x0 DUP1 MLOAD PUSH1 0x20 PUSH2 0x56B4 DUP4 CODECOPY DUP2 MLOAD SWAP2 MSTORE DUP3 PUSH1 0x2 ADD SLOAD PUSH1 0x40 MLOAD PUSH2 0x2114 SWAP2 DUP2 MSTORE PUSH1 0x20 ADD SWAP1 JUMP JUMPDEST PUSH1 0x40 MLOAD DUP1 SWAP2 SUB SWAP1 LOG2 PUSH2 0x2124 PUSH2 0xEA3 JUMP JUMPDEST PUSH1 0x1 PUSH1 0x1 PUSH1 0xA0 SHL SUB AND DUP5 PUSH32 0x205302058BF3AFB5ECE22C5535EAB6EA487294C8339C2A194FC6476219BADBCD DUP4 PUSH1 0x2 ADD SLOAD PUSH1 0x40 MLOAD PUSH2 0x2163 SWAP2 DUP2 MSTORE PUSH1 0x20 ADD SWAP1 JUMP JUMPDEST PUSH1 0x40 MLOAD DUP1 SWAP2 SUB SWAP1 LOG3 POP POP POP POP JUMP JUMPDEST PUSH2 0x217E PUSH1 0x0 PUSH2 0xA20 PUSH2 0xEA3 JUMP JUMPDEST PUSH2 0x21DD JUMPI PUSH1 0x40 MLOAD PUSH3 0x461BCD PUSH1 0xE5 SHL DUP2 MSTORE PUSH1 0x20 PUSH1 0x4 DUP3 ADD MSTORE PUSH1 0x2A PUSH1 0x24 DUP3 ADD MSTORE PUSH32 0x4D75737420686176652044454641554C545F41444D494E5F524F4C4520726F6C PUSH1 0x44 DUP3 ADD MSTORE PUSH10 0x6520746F207061757365 PUSH1 0xB0 SHL PUSH1 0x64 DUP3 ADD MSTORE PUSH1 0x84 ADD PUSH2 0xF2E JUMP JUMPDEST PUSH2 0x1AF1 PUSH2 0x4243 JUMP JUMPDEST PUSH1 0x0 DUP3 DUP2 MSTORE PUSH1 0xFB PUSH1 0x20 MSTORE PUSH1 0x40 DUP2 KECCAK256 PUSH2 0x21FD SWAP1 DUP4 PUSH2 0x429C JUMP JUMPDEST SWAP4 SWAP3 POP POP POP JUMP JUMPDEST PUSH1 0x0 SWAP2 DUP3 MSTORE PUSH1 0xC9 PUSH1 0x20 SWAP1 DUP2 MSTORE PUSH1 0x40 DUP1 DUP5 KECCAK256 PUSH1 0x1 PUSH1 0x1 PUSH1 0xA0 SHL SUB SWAP4 SWAP1 SWAP4 AND DUP5 MSTORE SWAP2 SWAP1 MSTORE SWAP1 KECCAK256 SLOAD PUSH1 0xFF AND SWAP1 JUMP JUMPDEST PUSH1 0x1 DUP2 PUSH1 0x1 DUP2 GT ISZERO PUSH2 0x2243 JUMPI PUSH2 0x2243 PUSH2 0x565B JUMP JUMPDEST EQ ISZERO PUSH2 0x22BD JUMPI PUSH2 0x161 SLOAD DUP3 LT ISZERO PUSH1 0x40 MLOAD DUP1 PUSH1 0x40 ADD PUSH1 0x40 MSTORE DUP1 PUSH1 0x6 DUP2 MSTORE PUSH1 0x20 ADD PUSH6 0x303039303033 PUSH1 0xD0 SHL DUP2 MSTORE POP SWAP1 PUSH2 0x228D JUMPI PUSH1 0x40 MLOAD PUSH3 0x461BCD PUSH1 0xE5 SHL DUP2 MSTORE PUSH1 0x4 ADD PUSH2 0xF2E SWAP2 SWAP1 PUSH2 0x52C6 JUMP JUMPDEST POP DUP2 PUSH2 0x16D PUSH1 0x0 PUSH2 0x229C PUSH2 0xEA3 JUMP JUMPDEST PUSH1 0x1 PUSH1 0x1 PUSH1 0xA0 SHL SUB AND DUP2 MSTORE PUSH1 0x20 DUP2 ADD SWAP2 SWAP1 SWAP2 MSTORE PUSH1 0x40 ADD PUSH1 0x0 KECCAK256 PUSH1 0x1 ADD SSTORE POP POP JUMP JUMPDEST DUP2 PUSH2 0x16D PUSH1 0x0 PUSH2 0x22CB PUSH2 0xEA3 JUMP JUMPDEST PUSH1 0x1 PUSH1 0x1 PUSH1 0xA0 SHL SUB AND DUP2 MSTORE PUSH1 0x20 DUP2 ADD SWAP2 SWAP1 SWAP2 MSTORE PUSH1 0x40 ADD PUSH1 0x0 KECCAK256 SSTORE POP POP JUMP JUMPDEST PUSH2 0x173 DUP2 DUP2 SLOAD DUP2 LT PUSH2 0x1954 JUMPI PUSH1 0x0 DUP1 REVERT JUMPDEST PUSH2 0x16F DUP2 DUP2 SLOAD DUP2 LT PUSH2 0x1954 JUMPI PUSH1 0x0 DUP1 REVERT JUMPDEST PUSH1 0x0 SLOAD PUSH2 0x100 SWAP1 DIV PUSH1 0xFF AND PUSH2 0x2326 JUMPI PUSH1 0x0 SLOAD PUSH1 0xFF AND ISZERO PUSH2 0x232A JUMP JUMPDEST ADDRESS EXTCODESIZE ISZERO JUMPDEST PUSH2 0x238D JUMPI PUSH1 0x40 MLOAD PUSH3 0x461BCD PUSH1 0xE5 SHL DUP2 MSTORE PUSH1 0x20 PUSH1 0x4 DUP3 ADD MSTORE PUSH1 0x2E PUSH1 0x24 DUP3 ADD MSTORE PUSH32 0x496E697469616C697A61626C653A20636F6E747261637420697320616C726561 PUSH1 0x44 DUP3 ADD MSTORE PUSH14 0x191E481A5B9A5D1A585B1A5E9959 PUSH1 0x92 SHL PUSH1 0x64 DUP3 ADD MSTORE PUSH1 0x84 ADD PUSH2 0xF2E JUMP JUMPDEST PUSH1 0x0 SLOAD PUSH2 0x100 SWAP1 DIV PUSH1 0xFF AND ISZERO DUP1 ISZERO PUSH2 0x23AF JUMPI PUSH1 0x0 DUP1 SLOAD PUSH2 0xFFFF NOT AND PUSH2 0x101 OR SWAP1 SSTORE JUMPDEST PUSH2 0x2710 DUP8 GT ISZERO PUSH2 0x2414 JUMPI PUSH1 0x40 MLOAD PUSH3 0x461BCD PUSH1 0xE5 SHL DUP2 MSTORE PUSH1 0x20 PUSH1 0x4 DUP3 ADD MSTORE PUSH1 0x2A PUSH1 0x24 DUP3 ADD MSTORE PUSH32 0x455243323938313A20726F79616C7479206665652077696C6C20657863656564 PUSH1 0x44 DUP3 ADD MSTORE PUSH10 0x2073616C655072696365 PUSH1 0xB0 SHL PUSH1 0x64 DUP3 ADD MSTORE PUSH1 0x84 ADD PUSH2 0xF2E JUMP JUMPDEST PUSH2 0x241F PUSH1 0x4 DUP11 PUSH2 0x556B JUMP JUMPDEST PUSH2 0x166 SSTORE PUSH2 0x242B PUSH2 0x42A8 JUMP JUMPDEST PUSH2 0x2433 PUSH2 0x42EF JUMP JUMPDEST PUSH2 0x243B PUSH2 0x431E JUMP JUMPDEST PUSH2 0x2444 DUP4 PUSH2 0x4355 JUMP JUMPDEST PUSH2 0x160 DUP10 SWAP1 SSTORE PUSH2 0x161 DUP10 SWAP1 SSTORE PUSH2 0x162 DUP9 SWAP1 SSTORE PUSH2 0x163 DUP8 SWAP1 SSTORE PUSH2 0x164 DUP1 SLOAD PUSH2 0x15F DUP1 SLOAD PUSH1 0x1 PUSH1 0x1 PUSH1 0xA0 SHL SUB NOT AND PUSH1 0x1 PUSH1 0x1 PUSH1 0xA0 SHL SUB DUP10 DUP2 AND SWAP2 SWAP1 SWAP2 OR SWAP1 SWAP2 SSTORE PUSH2 0x384 PUSH2 0x165 SSTORE DUP9 AND PUSH1 0x1 PUSH1 0x1 PUSH1 0xA8 SHL SUB NOT SWAP1 SWAP2 AND OR SWAP1 SSTORE PUSH1 0x3 PUSH2 0x167 SSTORE DUP2 MLOAD PUSH2 0x24B4 SWAP1 PUSH2 0x168 SWAP1 PUSH1 0x20 DUP6 ADD SWAP1 PUSH2 0x4BF1 JUMP JUMPDEST POP PUSH2 0x24C0 PUSH1 0x0 DUP6 PUSH2 0x4390 JUMP JUMPDEST PUSH2 0x24EA PUSH32 0x35A7846A2A701FFF6F9D61A46EBFF5DA578C5DCEE8BDF361C569F9EA4EE64771 DUP6 PUSH2 0x4390 JUMP JUMPDEST PUSH2 0x2515 PUSH32 0x35A7846A2A701FFF6F9D61A46EBFF5DA578C5DCEE8BDF361C569F9EA4EE64771 PUSH1 0x0 PUSH2 0x439A JUMP JUMPDEST DUP1 ISZERO PUSH2 0x2527 JUMPI PUSH1 0x0 DUP1 SLOAD PUSH2 0xFF00 NOT AND SWAP1 SSTORE JUMPDEST POP POP POP POP POP POP POP POP POP JUMP JUMPDEST PUSH1 0x1 PUSH2 0x16D PUSH1 0x0 PUSH2 0x2541 PUSH2 0xEA3 JUMP JUMPDEST PUSH1 0x1 PUSH1 0x1 PUSH1 0xA0 SHL SUB SWAP1 DUP2 AND DUP3 MSTORE PUSH1 0x20 DUP1 DUP4 ADD SWAP4 SWAP1 SWAP4 MSTORE PUSH1 0x40 SWAP2 DUP3 ADD PUSH1 0x0 SWAP1 DUP2 KECCAK256 SWAP2 DUP7 AND DUP2 MSTORE PUSH1 0x3 SWAP1 SWAP2 ADD SWAP1 SWAP3 MSTORE SWAP1 KECCAK256 SSTORE PUSH2 0x2579 PUSH2 0xEA3 JUMP JUMPDEST PUSH1 0x1 PUSH1 0x1 PUSH1 0xA0 SHL SUB AND DUP2 PUSH1 0x1 PUSH1 0x1 PUSH1 0xA0 SHL SUB AND PUSH32 0xBCCC71DC7842B86291138666AA18E133EE6D41AA71E6D7C650DEBAD1A0576635 PUSH1 0x40 MLOAD PUSH1 0x40 MLOAD DUP1 SWAP2 SUB SWAP1 LOG3 POP JUMP JUMPDEST PUSH1 0x0 DUP2 DUP2 MSTORE PUSH2 0x169 PUSH1 0x20 SWAP1 DUP2 MSTORE PUSH1 0x40 SWAP2 DUP3 SWAP1 KECCAK256 PUSH1 0x4 ADD SLOAD DUP3 MLOAD DUP1 DUP5 ADD SWAP1 SWAP4 MSTORE PUSH1 0x6 DUP4 MSTORE PUSH6 0x303032303033 PUSH1 0xD0 SHL SWAP2 DUP4 ADD SWAP2 SWAP1 SWAP2 MSTORE DUP3 SWAP2 SWAP1 PUSH1 0x1 PUSH1 0x1 PUSH1 0xA0 SHL SUB AND PUSH2 0x2618 JUMPI PUSH1 0x40 MLOAD PUSH3 0x461BCD PUSH1 0xE5 SHL DUP2 MSTORE PUSH1 0x4 ADD PUSH2 0xF2E SWAP2 SWAP1 PUSH2 0x52C6 JUMP JUMPDEST POP PUSH1 0x0 DUP3 DUP2 MSTORE PUSH2 0x169 PUSH1 0x20 MSTORE PUSH1 0x40 SWAP1 DUP2 SWAP1 KECCAK256 SWAP1 MLOAD PUSH4 0x1F2553B PUSH1 0xE1 SHL DUP2 MSTORE PUSH1 0x4 DUP2 ADD DUP3 SWAP1 MSTORE PUSH20 0x0 SWAP1 PUSH4 0x3E4AA76 SWAP1 PUSH1 0x24 ADD PUSH1 0x0 PUSH1 0x40 MLOAD DUP1 DUP4 SUB DUP2 DUP7 DUP1 EXTCODESIZE ISZERO DUP1 ISZERO PUSH2 0x2674 JUMPI PUSH1 0x0 DUP1 REVERT JUMPDEST POP GAS DELEGATECALL ISZERO DUP1 ISZERO PUSH2 0x2688 JUMPI RETURNDATASIZE PUSH1 0x0 DUP1 RETURNDATACOPY RETURNDATASIZE PUSH1 0x0 REVERT JUMPDEST POP POP POP POP PUSH1 0x0 CALLVALUE GT PUSH1 0x40 MLOAD DUP1 PUSH1 0x40 ADD PUSH1 0x40 MSTORE DUP1 PUSH1 0x6 DUP2 MSTORE PUSH1 0x20 ADD PUSH6 0x303033303035 PUSH1 0xD0 SHL DUP2 MSTORE POP SWAP1 PUSH2 0x26CD JUMPI PUSH1 0x40 MLOAD PUSH3 0x461BCD PUSH1 0xE5 SHL DUP2 MSTORE PUSH1 0x4 ADD PUSH2 0xF2E SWAP2 SWAP1 PUSH2 0x52C6 JUMP JUMPDEST POP PUSH1 0x0 PUSH20 0x0 PUSH4 0xFEAC0F70 PUSH2 0x16B DUP7 PUSH2 0x26F6 PUSH2 0xEA3 JUMP JUMPDEST PUSH1 0x40 MLOAD PUSH1 0x1 PUSH1 0x1 PUSH1 0xE0 SHL SUB NOT PUSH1 0xE0 DUP7 SWAP1 SHL AND DUP2 MSTORE PUSH1 0x4 DUP2 ADD SWAP4 SWAP1 SWAP4 MSTORE PUSH1 0x24 DUP4 ADD SWAP2 SWAP1 SWAP2 MSTORE PUSH1 0x1 PUSH1 0x1 PUSH1 0xA0 SHL SUB AND PUSH1 0x44 DUP3 ADD MSTORE CALLVALUE PUSH1 0x64 DUP3 ADD MSTORE PUSH1 0x84 ADD PUSH1 0x20 PUSH1 0x40 MLOAD DUP1 DUP4 SUB DUP2 DUP7 DUP1 EXTCODESIZE ISZERO DUP1 ISZERO PUSH2 0x2749 JUMPI PUSH1 0x0 DUP1 REVERT JUMPDEST POP GAS DELEGATECALL ISZERO DUP1 ISZERO PUSH2 0x275D JUMPI RETURNDATASIZE PUSH1 0x0 DUP1 RETURNDATACOPY RETURNDATASIZE PUSH1 0x0 REVERT JUMPDEST POP POP POP POP PUSH1 0x40 MLOAD RETURNDATASIZE PUSH1 0x1F NOT PUSH1 0x1F DUP3 ADD AND DUP3 ADD DUP1 PUSH1 0x40 MSTORE POP DUP2 ADD SWAP1 PUSH2 0x2781 SWAP2 SWAP1 PUSH2 0x4F05 JUMP JUMPDEST PUSH1 0x40 MLOAD PUSH4 0xAEBE5183 PUSH1 0xE0 SHL DUP2 MSTORE PUSH1 0x4 DUP2 ADD DUP5 SWAP1 MSTORE PUSH1 0x24 DUP2 ADD DUP3 SWAP1 MSTORE CALLVALUE PUSH1 0x44 DUP3 ADD MSTORE SWAP1 SWAP2 POP PUSH20 0x0 SWAP1 PUSH4 0xAEBE5183 SWAP1 PUSH1 0x64 ADD PUSH1 0x0 PUSH1 0x40 MLOAD DUP1 DUP4 SUB DUP2 DUP7 DUP1 EXTCODESIZE ISZERO DUP1 ISZERO PUSH2 0x27DC JUMPI PUSH1 0x0 DUP1 REVERT JUMPDEST POP GAS DELEGATECALL ISZERO DUP1 ISZERO PUSH2 0x27F0 JUMPI RETURNDATASIZE PUSH1 0x0 DUP1 RETURNDATACOPY RETURNDATASIZE PUSH1 0x0 REVERT JUMPDEST POP POP PUSH2 0x172 DUP1 SLOAD PUSH1 0x1 DUP2 ADD DUP3 SSTORE PUSH1 0x0 SWAP2 SWAP1 SWAP2 MSTORE PUSH32 0xED95D52AE313E6BE6D8C8F9945923A6497C37269BA35D5E3535B758E47227CFC ADD DUP4 SWAP1 SSTORE POP PUSH2 0x2833 SWAP1 POP PUSH2 0xEA3 JUMP JUMPDEST PUSH1 0x1 PUSH1 0x1 PUSH1 0xA0 SHL SUB AND DUP2 DUP6 PUSH32 0xB8A61F3258608A2F1AF184E4640B08E6CD69126E3C563D30B6348EBFB5155884 CALLVALUE PUSH1 0x40 MLOAD PUSH2 0x286F SWAP2 DUP2 MSTORE PUSH1 0x20 ADD SWAP1 JUMP JUMPDEST PUSH1 0x40 MLOAD DUP1 SWAP2 SUB SWAP1 LOG4 POP POP POP POP JUMP JUMPDEST PUSH1 0x0 PUSH2 0x288B DUP2 PUSH2 0xEEB PUSH2 0xEA3 JUMP JUMPDEST PUSH2 0x164 SLOAD PUSH1 0x40 DUP1 MLOAD DUP1 DUP3 ADD SWAP1 SWAP2 MSTORE PUSH1 0x6 DUP2 MSTORE PUSH6 0x60607260607 PUSH1 0xD3 SHL PUSH1 0x20 DUP3 ADD MSTORE SWAP1 PUSH1 0x1 PUSH1 0x1 PUSH1 0xA0 SHL SUB AND PUSH2 0x28D3 JUMPI PUSH1 0x40 MLOAD PUSH3 0x461BCD PUSH1 0xE5 SHL DUP2 MSTORE PUSH1 0x4 ADD PUSH2 0xF2E SWAP2 SWAP1 PUSH2 0x52C6 JUMP JUMPDEST POP POP PUSH2 0x164 DUP1 SLOAD PUSH1 0x1 PUSH1 0x1 PUSH1 0xA0 SHL SUB NOT AND PUSH1 0x1 PUSH1 0x1 PUSH1 0xA0 SHL SUB SWAP3 SWAP1 SWAP3 AND SWAP2 SWAP1 SWAP2 OR SWAP1 SSTORE JUMP JUMPDEST PUSH2 0x16D PUSH1 0x20 MSTORE PUSH1 0x0 SWAP1 DUP2 MSTORE PUSH1 0x40 SWAP1 KECCAK256 DUP1 SLOAD PUSH1 0x1 DUP3 ADD SLOAD PUSH1 0x2 DUP4 ADD DUP1 SLOAD SWAP3 SWAP4 SWAP2 SWAP3 PUSH2 0x2921 SWAP1 PUSH2 0x560A JUMP JUMPDEST DUP1 PUSH1 0x1F ADD PUSH1 0x20 DUP1 SWAP2 DIV MUL PUSH1 0x20 ADD PUSH1 0x40 MLOAD SWAP1 DUP2 ADD PUSH1 0x40 MSTORE DUP1 SWAP3 SWAP2 SWAP1 DUP2 DUP2 MSTORE PUSH1 0x20 ADD DUP3 DUP1 SLOAD PUSH2 0x294D SWAP1 PUSH2 0x560A JUMP JUMPDEST DUP1 ISZERO PUSH2 0x299A JUMPI DUP1 PUSH1 0x1F LT PUSH2 0x296F JUMPI PUSH2 0x100 DUP1 DUP4 SLOAD DIV MUL DUP4 MSTORE SWAP2 PUSH1 0x20 ADD SWAP2 PUSH2 0x299A JUMP JUMPDEST DUP3 ADD SWAP2 SWAP1 PUSH1 0x0 MSTORE PUSH1 0x20 PUSH1 0x0 KECCAK256 SWAP1 JUMPDEST DUP2 SLOAD DUP2 MSTORE SWAP1 PUSH1 0x1 ADD SWAP1 PUSH1 0x20 ADD DUP1 DUP4 GT PUSH2 0x297D JUMPI DUP3 SWAP1 SUB PUSH1 0x1F AND DUP3 ADD SWAP2 JUMPDEST POP POP POP POP POP SWAP1 POP DUP4 JUMP JUMPDEST PUSH1 0x0 DUP2 DUP2 MSTORE PUSH2 0x16A PUSH1 0x20 SWAP1 DUP2 MSTORE PUSH1 0x40 SWAP2 DUP3 SWAP1 KECCAK256 PUSH1 0x3 ADD SLOAD DUP3 MLOAD DUP1 DUP5 ADD SWAP1 SWAP4 MSTORE PUSH1 0x6 DUP4 MSTORE PUSH6 0x303034303031 PUSH1 0xD0 SHL SWAP2 DUP4 ADD SWAP2 SWAP1 SWAP2 MSTORE DUP3 SWAP2 SWAP1 PUSH1 0x1 PUSH1 0x1 PUSH1 0xA0 SHL SUB AND PUSH2 0x2A01 JUMPI PUSH1 0x40 MLOAD PUSH3 0x461BCD PUSH1 0xE5 SHL DUP2 MSTORE PUSH1 0x4 ADD PUSH2 0xF2E SWAP2 SWAP1 PUSH2 0x52C6 JUMP JUMPDEST POP PUSH1 0x0 DUP3 DUP2 MSTORE PUSH2 0x16A PUSH1 0x20 SWAP1 DUP2 MSTORE PUSH1 0x40 SWAP2 DUP3 SWAP1 KECCAK256 DUP3 MLOAD DUP1 DUP5 ADD SWAP1 SWAP4 MSTORE PUSH1 0x6 DUP4 MSTORE PUSH6 0x303033303035 PUSH1 0xD0 SHL SWAP2 DUP4 ADD SWAP2 SWAP1 SWAP2 MSTORE SWAP1 CALLVALUE PUSH2 0x2A51 JUMPI PUSH1 0x40 MLOAD PUSH3 0x461BCD PUSH1 0xE5 SHL DUP2 MSTORE PUSH1 0x4 ADD PUSH2 0xF2E SWAP2 SWAP1 PUSH2 0x52C6 JUMP JUMPDEST POP PUSH1 0x0 PUSH20 0x0 PUSH4 0xCDAEA013 PUSH2 0x16C DUP7 PUSH2 0x2A7A PUSH2 0xEA3 JUMP JUMPDEST PUSH1 0x40 MLOAD PUSH1 0x1 PUSH1 0x1 PUSH1 0xE0 SHL SUB NOT PUSH1 0xE0 DUP7 SWAP1 SHL AND DUP2 MSTORE PUSH1 0x4 DUP2 ADD SWAP4 SWAP1 SWAP4 MSTORE PUSH1 0x24 DUP4 ADD SWAP2 SWAP1 SWAP2 MSTORE PUSH1 0x1 PUSH1 0x1 PUSH1 0xA0 SHL SUB AND PUSH1 0x44 DUP3 ADD MSTORE CALLVALUE PUSH1 0x64 DUP3 ADD MSTORE PUSH1 0x84 ADD PUSH1 0x20 PUSH1 0x40 MLOAD DUP1 DUP4 SUB DUP2 DUP7 DUP1 EXTCODESIZE ISZERO DUP1 ISZERO PUSH2 0x2ACD JUMPI PUSH1 0x0 DUP1 REVERT JUMPDEST POP GAS DELEGATECALL ISZERO DUP1 ISZERO PUSH2 0x2AE1 JUMPI RETURNDATASIZE PUSH1 0x0 DUP1 RETURNDATACOPY RETURNDATASIZE PUSH1 0x0 REVERT JUMPDEST POP POP POP POP PUSH1 0x40 MLOAD RETURNDATASIZE PUSH1 0x1F NOT PUSH1 0x1F DUP3 ADD AND DUP3 ADD DUP1 PUSH1 0x40 MSTORE POP DUP2 ADD SWAP1 PUSH2 0x2B05 SWAP2 SWAP1 PUSH2 0x4F05 JUMP JUMPDEST PUSH1 0x40 MLOAD PUSH1 0x1 PUSH3 0xDF932B PUSH1 0xE0 SHL SUB NOT DUP2 MSTORE PUSH1 0x4 DUP2 ADD DUP5 SWAP1 MSTORE PUSH1 0x24 DUP2 ADD DUP3 SWAP1 MSTORE CALLVALUE PUSH1 0x44 DUP3 ADD MSTORE SWAP1 SWAP2 POP PUSH20 0x0 SWAP1 PUSH4 0xFF206CD5 SWAP1 PUSH1 0x64 ADD PUSH1 0x0 PUSH1 0x40 MLOAD DUP1 DUP4 SUB DUP2 DUP7 DUP1 EXTCODESIZE ISZERO DUP1 ISZERO PUSH2 0x2B63 JUMPI PUSH1 0x0 DUP1 REVERT JUMPDEST POP GAS DELEGATECALL ISZERO DUP1 ISZERO PUSH2 0x2B77 JUMPI RETURNDATASIZE PUSH1 0x0 DUP1 RETURNDATACOPY RETURNDATASIZE PUSH1 0x0 REVERT JUMPDEST POP POP PUSH2 0x173 DUP1 SLOAD PUSH1 0x1 DUP2 ADD SWAP1 SWAP2 SSTORE PUSH32 0x56C806AACE937FE95F08E7525D5E3E3892FB531816A27802F66A5E4A06502BFC ADD DUP4 SWAP1 SSTORE POP POP PUSH1 0x3 DUP3 ADD SLOAD PUSH1 0x1 PUSH1 0x1 PUSH1 0xA0 SHL SUB AND PUSH1 0x0 SWAP1 DUP2 MSTORE PUSH2 0x16E PUSH1 0x20 MSTORE PUSH1 0x40 DUP2 KECCAK256 DUP1 SLOAD CALLVALUE SWAP3 SWAP1 PUSH2 0x2BD9 SWAP1 DUP5 SWAP1 PUSH2 0x5553 JUMP JUMPDEST SWAP1 SWAP2 SSTORE POP PUSH2 0x2BE7 SWAP1 POP PUSH2 0xEA3 JUMP JUMPDEST PUSH1 0x1 PUSH1 0x1 PUSH1 0xA0 SHL SUB AND DUP2 DUP6 PUSH32 0xA7B9DE4CAE04F62223D95ABA2F4ECDD05879F655BAB52B8505B696ECF05F7274 CALLVALUE PUSH1 0x40 MLOAD PUSH2 0x286F SWAP2 DUP2 MSTORE PUSH1 0x20 ADD SWAP1 JUMP JUMPDEST PUSH1 0x0 DUP4 DUP2 MSTORE PUSH2 0x169 PUSH1 0x20 SWAP1 DUP2 MSTORE PUSH1 0x40 DUP1 DUP4 KECCAK256 PUSH1 0x4 ADD SLOAD DUP2 MLOAD DUP1 DUP4 ADD SWAP1 SWAP3 MSTORE PUSH1 0x6 DUP3 MSTORE PUSH6 0x303032303033 PUSH1 0xD0 SHL SWAP3 DUP3 ADD SWAP3 SWAP1 SWAP3 MSTORE PUSH1 0x60 SWAP3 SWAP2 DUP7 SWAP2 SWAP1 PUSH1 0x1 PUSH1 0x1 PUSH1 0xA0 SHL SUB AND PUSH2 0x2C83 JUMPI PUSH1 0x40 MLOAD PUSH3 0x461BCD PUSH1 0xE5 SHL DUP2 MSTORE PUSH1 0x4 ADD PUSH2 0xF2E SWAP2 SWAP1 PUSH2 0x52C6 JUMP JUMPDEST POP PUSH1 0x0 DUP7 DUP2 MSTORE PUSH2 0x169 PUSH1 0x20 MSTORE PUSH1 0x40 SWAP1 DUP2 SWAP1 KECCAK256 SWAP1 MLOAD PUSH4 0x74A5907 PUSH1 0xE0 SHL DUP2 MSTORE PUSH1 0x4 DUP2 ADD DUP8 SWAP1 MSTORE PUSH1 0x24 DUP2 ADD DUP7 SWAP1 MSTORE PUSH1 0x6 SWAP1 SWAP2 ADD PUSH1 0x44 DUP3 ADD MSTORE PUSH20 0x0 SWAP1 PUSH4 0x74A5907 SWAP1 PUSH1 0x64 ADD PUSH2 0x1A1A JUMP JUMPDEST PUSH1 0x0 DUP3 DUP2 MSTORE PUSH2 0x169 PUSH1 0x20 SWAP1 DUP2 MSTORE PUSH1 0x40 SWAP2 DUP3 SWAP1 KECCAK256 PUSH1 0x4 ADD SLOAD DUP3 MLOAD DUP1 DUP5 ADD SWAP1 SWAP4 MSTORE PUSH1 0x6 DUP4 MSTORE PUSH6 0x303032303033 PUSH1 0xD0 SHL SWAP2 DUP4 ADD SWAP2 SWAP1 SWAP2 MSTORE DUP4 SWAP2 SWAP1 PUSH1 0x1 PUSH1 0x1 PUSH1 0xA0 SHL SUB AND PUSH2 0x2D3A JUMPI PUSH1 0x40 MLOAD PUSH3 0x461BCD PUSH1 0xE5 SHL DUP2 MSTORE PUSH1 0x4 ADD PUSH2 0xF2E SWAP2 SWAP1 PUSH2 0x52C6 JUMP JUMPDEST POP DUP3 PUSH2 0x2D44 PUSH2 0xEA3 JUMP JUMPDEST PUSH1 0x0 DUP3 DUP2 MSTORE PUSH2 0x169 PUSH1 0x20 SWAP1 DUP2 MSTORE PUSH1 0x40 SWAP2 DUP3 SWAP1 KECCAK256 PUSH1 0x4 ADD SLOAD DUP3 MLOAD DUP1 DUP5 ADD SWAP1 SWAP4 MSTORE PUSH1 0x6 DUP4 MSTORE PUSH6 0x181819181819 PUSH1 0xD1 SHL SWAP2 DUP4 ADD SWAP2 SWAP1 SWAP2 MSTORE SWAP1 SWAP2 PUSH1 0x1 PUSH1 0x1 PUSH1 0xA0 SHL SUB SWAP2 DUP3 AND SWAP2 AND EQ PUSH2 0x2DA5 JUMPI PUSH1 0x40 MLOAD PUSH3 0x461BCD PUSH1 0xE5 SHL DUP2 MSTORE PUSH1 0x4 ADD PUSH2 0xF2E SWAP2 SWAP1 PUSH2 0x52C6 JUMP JUMPDEST POP DUP3 DUP1 PUSH1 0x2 LT ISZERO PUSH1 0x40 MLOAD DUP1 PUSH1 0x40 ADD PUSH1 0x40 MSTORE DUP1 PUSH1 0x6 DUP2 MSTORE PUSH1 0x20 ADD PUSH6 0x303032303131 PUSH1 0xD0 SHL DUP2 MSTORE POP SWAP1 PUSH2 0x2DE9 JUMPI PUSH1 0x40 MLOAD PUSH3 0x461BCD PUSH1 0xE5 SHL DUP2 MSTORE PUSH1 0x4 ADD PUSH2 0xF2E SWAP2 SWAP1 PUSH2 0x52C6 JUMP JUMPDEST POP PUSH1 0x3 PUSH1 0x0 DUP7 DUP2 MSTORE PUSH2 0x169 PUSH1 0x20 MSTORE PUSH1 0x40 SWAP1 KECCAK256 PUSH1 0x9 ADD SLOAD PUSH1 0xFF AND PUSH1 0x3 DUP2 GT ISZERO PUSH2 0x2E13 JUMPI PUSH2 0x2E13 PUSH2 0x565B JUMP JUMPDEST EQ PUSH1 0x40 MLOAD DUP1 PUSH1 0x40 ADD PUSH1 0x40 MSTORE DUP1 PUSH1 0x6 DUP2 MSTORE PUSH1 0x20 ADD PUSH6 0x303032303039 PUSH1 0xD0 SHL DUP2 MSTORE POP SWAP1 PUSH2 0x2E51 JUMPI PUSH1 0x40 MLOAD PUSH3 0x461BCD PUSH1 0xE5 SHL DUP2 MSTORE PUSH1 0x4 ADD PUSH2 0xF2E SWAP2 SWAP1 PUSH2 0x52C6 JUMP JUMPDEST POP PUSH1 0x0 DUP6 DUP2 MSTORE PUSH2 0x169 PUSH1 0x20 MSTORE PUSH1 0x40 DUP2 KECCAK256 PUSH1 0xB ADD SLOAD PUSH1 0xFF AND PUSH1 0x2 DUP2 GT ISZERO PUSH2 0x2E79 JUMPI PUSH2 0x2E79 PUSH2 0x565B JUMP JUMPDEST EQ PUSH1 0x40 MLOAD DUP1 PUSH1 0x40 ADD PUSH1 0x40 MSTORE DUP1 PUSH1 0x6 DUP2 MSTORE PUSH1 0x20 ADD PUSH6 0x181819181899 PUSH1 0xD1 SHL DUP2 MSTORE POP SWAP1 PUSH2 0x2EB7 JUMPI PUSH1 0x40 MLOAD PUSH3 0x461BCD PUSH1 0xE5 SHL DUP2 MSTORE PUSH1 0x4 ADD PUSH2 0xF2E SWAP2 SWAP1 PUSH2 0x52C6 JUMP JUMPDEST POP DUP4 PUSH1 0x2 DUP2 GT ISZERO PUSH2 0x2ECA JUMPI PUSH2 0x2ECA PUSH2 0x565B JUMP JUMPDEST PUSH1 0x0 DUP7 DUP2 MSTORE PUSH2 0x169 PUSH1 0x20 MSTORE PUSH1 0x40 SWAP1 KECCAK256 PUSH1 0xB ADD DUP1 SLOAD PUSH1 0xFF NOT AND PUSH1 0x1 DUP4 PUSH1 0x2 DUP2 GT ISZERO PUSH2 0x2EF6 JUMPI PUSH2 0x2EF6 PUSH2 0x565B JUMP JUMPDEST MUL OR SWAP1 SSTORE POP PUSH1 0x0 DUP6 DUP2 MSTORE PUSH2 0x169 PUSH1 0x20 MSTORE PUSH1 0x40 SWAP1 DUP2 SWAP1 KECCAK256 PUSH1 0x5 DUP2 ADD SLOAD PUSH1 0x4 SWAP1 SWAP2 ADD SLOAD SWAP2 MLOAD PUSH1 0x1 PUSH1 0x1 PUSH1 0xA0 SHL SUB SWAP2 DUP3 AND SWAP3 SWAP1 SWAP2 AND SWAP1 DUP8 SWAP1 PUSH32 0xBA2E4B16CB7F6BBE19C7A1146539A78ED1DB3EFBB3DD80D6C65F0BA1D8403459 SWAP1 PUSH2 0x2F5A SWAP1 DUP10 DUP2 MSTORE PUSH1 0x20 ADD SWAP1 JUMP JUMPDEST PUSH1 0x40 MLOAD DUP1 SWAP2 SUB SWAP1 LOG4 POP POP POP POP POP JUMP JUMPDEST PUSH1 0x0 DUP1 PUSH2 0x2F78 DUP2 PUSH2 0xEEB PUSH2 0xEA3 JUMP JUMPDEST SELFBALANCE SWAP2 POP JUMPDEST POP SWAP1 JUMP JUMPDEST PUSH1 0x33 SLOAD PUSH1 0xFF AND ISZERO PUSH2 0x2FA3 JUMPI PUSH1 0x40 MLOAD PUSH3 0x461BCD PUSH1 0xE5 SHL DUP2 MSTORE PUSH1 0x4 ADD PUSH2 0xF2E SWAP1 PUSH2 0x540E JUMP JUMPDEST PUSH1 0x2 PUSH2 0x12D SLOAD EQ ISZERO PUSH2 0x2FC7 JUMPI PUSH1 0x40 MLOAD PUSH3 0x461BCD PUSH1 0xE5 SHL DUP2 MSTORE PUSH1 0x4 ADD PUSH2 0xF2E SWAP1 PUSH2 0x5483 JUMP JUMPDEST PUSH1 0x2 PUSH2 0x12D SSTORE PUSH2 0x16E PUSH1 0x0 PUSH2 0x2FDA PUSH2 0xEA3 JUMP JUMPDEST PUSH1 0x1 PUSH1 0x1 PUSH1 0xA0 SHL SUB AND PUSH1 0x1 PUSH1 0x1 PUSH1 0xA0 SHL SUB AND DUP2 MSTORE PUSH1 0x20 ADD SWAP1 DUP2 MSTORE PUSH1 0x20 ADD PUSH1 0x0 KECCAK256 SLOAD DUP3 GT ISZERO PUSH1 0x40 MLOAD DUP1 PUSH1 0x40 ADD PUSH1 0x40 MSTORE DUP1 PUSH1 0x6 DUP2 MSTORE PUSH1 0x20 ADD PUSH6 0x303039303031 PUSH1 0xD0 SHL DUP2 MSTORE POP SWAP1 PUSH2 0x303B JUMPI PUSH1 0x40 MLOAD PUSH3 0x461BCD PUSH1 0xE5 SHL DUP2 MSTORE PUSH1 0x4 ADD PUSH2 0xF2E SWAP2 SWAP1 PUSH2 0x52C6 JUMP JUMPDEST POP DUP2 PUSH2 0x16E PUSH1 0x0 PUSH2 0x304A PUSH2 0xEA3 JUMP JUMPDEST PUSH1 0x1 PUSH1 0x1 PUSH1 0xA0 SHL SUB AND PUSH1 0x1 PUSH1 0x1 PUSH1 0xA0 SHL SUB AND DUP2 MSTORE PUSH1 0x20 ADD SWAP1 DUP2 MSTORE PUSH1 0x20 ADD PUSH1 0x0 KECCAK256 PUSH1 0x0 DUP3 DUP3 SLOAD PUSH2 0x3079 SWAP2 SWAP1 PUSH2 0x55AC JUMP JUMPDEST SWAP1 SWAP2 SSTORE POP PUSH2 0x3089 SWAP1 POP DUP2 DUP4 PUSH2 0x404D JUMP JUMPDEST DUP1 PUSH1 0x1 PUSH1 0x1 PUSH1 0xA0 SHL SUB AND PUSH2 0x309B PUSH2 0xEA3 JUMP JUMPDEST PUSH1 0x1 PUSH1 0x1 PUSH1 0xA0 SHL SUB AND PUSH32 0xDDF252AD1BE2C89B69C2B068FC378DAA952BA7F163C4A11628F55A4DF523B3EF DUP5 PUSH1 0x40 MLOAD PUSH2 0x30D5 SWAP2 DUP2 MSTORE PUSH1 0x20 ADD SWAP1 JUMP JUMPDEST PUSH1 0x40 MLOAD DUP1 SWAP2 SUB SWAP1 LOG3 POP POP PUSH1 0x1 PUSH2 0x12D SSTORE JUMP JUMPDEST PUSH1 0x0 PUSH2 0x16E PUSH1 0x0 PUSH2 0x30F6 PUSH2 0xEA3 JUMP JUMPDEST PUSH1 0x1 PUSH1 0x1 PUSH1 0xA0 SHL SUB AND PUSH1 0x1 PUSH1 0x1 PUSH1 0xA0 SHL SUB AND DUP2 MSTORE PUSH1 0x20 ADD SWAP1 DUP2 MSTORE PUSH1 0x20 ADD PUSH1 0x0 KECCAK256 SLOAD SWAP1 POP SWAP1 JUMP JUMPDEST PUSH1 0x0 PUSH2 0x312A PUSH1 0x33 SLOAD PUSH1 0xFF AND SWAP1 JUMP JUMPDEST ISZERO PUSH2 0x3147 JUMPI PUSH1 0x40 MLOAD PUSH3 0x461BCD PUSH1 0xE5 SHL DUP2 MSTORE PUSH1 0x4 ADD PUSH2 0xF2E SWAP1 PUSH2 0x540E JUMP JUMPDEST PUSH1 0x2 PUSH2 0x12D SLOAD EQ ISZERO PUSH2 0x316B JUMPI PUSH1 0x40 MLOAD PUSH3 0x461BCD PUSH1 0xE5 SHL DUP2 MSTORE PUSH1 0x4 ADD PUSH2 0xF2E SWAP1 PUSH2 0x5483 JUMP JUMPDEST PUSH1 0x2 PUSH2 0x12D SSTORE PUSH2 0x162 SLOAD PUSH1 0x40 DUP1 MLOAD DUP1 DUP3 ADD SWAP1 SWAP2 MSTORE PUSH1 0x6 DUP2 MSTORE PUSH6 0x303034303033 PUSH1 0xD0 SHL PUSH1 0x20 DUP3 ADD MSTORE SWAP1 CALLVALUE LT ISZERO PUSH2 0x31B3 JUMPI PUSH1 0x40 MLOAD PUSH3 0x461BCD PUSH1 0xE5 SHL DUP2 MSTORE PUSH1 0x4 ADD PUSH2 0xF2E SWAP2 SWAP1 PUSH2 0x52C6 JUMP JUMPDEST POP PUSH1 0x40 DUP1 MLOAD PUSH1 0x0 DUP1 DUP3 MSTORE PUSH1 0x20 DUP3 ADD SWAP1 SWAP3 MSTORE SWAP1 PUSH2 0x31CE DUP5 PUSH2 0xFD2 JUMP JUMPDEST SWAP1 POP PUSH1 0x0 PUSH20 0x0 PUSH4 0xB0B67FA8 DUP4 PUSH2 0x31F5 PUSH2 0xEA3 JUMP JUMPDEST PUSH1 0x40 MLOAD DUP4 PUSH4 0xFFFFFFFF AND PUSH1 0xE0 SHL DUP2 MSTORE PUSH1 0x4 ADD PUSH2 0x3212 SWAP3 SWAP2 SWAP1 PUSH2 0x52D9 JUMP JUMPDEST PUSH1 0x20 PUSH1 0x40 MLOAD DUP1 DUP4 SUB DUP2 DUP7 DUP1 EXTCODESIZE ISZERO DUP1 ISZERO PUSH2 0x322A JUMPI PUSH1 0x0 DUP1 REVERT JUMPDEST POP GAS DELEGATECALL ISZERO DUP1 ISZERO PUSH2 0x323E JUMPI RETURNDATASIZE PUSH1 0x0 DUP1 RETURNDATACOPY RETURNDATASIZE PUSH1 0x0 REVERT JUMPDEST POP POP POP POP PUSH1 0x40 MLOAD RETURNDATASIZE PUSH1 0x1F NOT PUSH1 0x1F DUP3 ADD AND DUP3 ADD DUP1 PUSH1 0x40 MSTORE POP DUP2 ADD SWAP1 PUSH2 0x3262 SWAP2 SWAP1 PUSH2 0x4F05 JUMP JUMPDEST SWAP1 POP PUSH1 0x40 MLOAD DUP1 PUSH1 0xE0 ADD PUSH1 0x40 MSTORE DUP1 DUP4 DUP2 MSTORE PUSH1 0x20 ADD CALLVALUE DUP2 MSTORE PUSH1 0x20 ADD PUSH1 0x0 DUP2 MSTORE PUSH1 0x20 ADD PUSH2 0x328A PUSH2 0xEA3 JUMP JUMPDEST PUSH1 0x1 PUSH1 0x1 PUSH1 0xA0 SHL SUB AND DUP2 MSTORE PUSH1 0x20 DUP1 DUP3 ADD DUP7 SWAP1 MSTORE TIMESTAMP PUSH1 0x40 DUP1 DUP5 ADD SWAP2 SWAP1 SWAP2 MSTORE PUSH1 0x0 PUSH1 0x60 SWAP1 SWAP4 ADD DUP4 SWAP1 MSTORE DUP5 DUP4 MSTORE PUSH2 0x16A DUP3 MSTORE SWAP1 SWAP2 KECCAK256 DUP3 MLOAD DUP1 MLOAD SWAP2 SWAP3 PUSH2 0x32D1 SWAP3 DUP5 SWAP3 SWAP1 SWAP2 ADD SWAP1 PUSH2 0x4BF1 JUMP JUMPDEST POP PUSH1 0x20 DUP3 DUP2 ADD MLOAD PUSH1 0x1 DUP4 ADD SSTORE PUSH1 0x40 DUP4 ADD MLOAD PUSH1 0x2 DUP4 ADD SSTORE PUSH1 0x60 DUP4 ADD MLOAD PUSH1 0x3 DUP4 ADD DUP1 SLOAD PUSH1 0x1 PUSH1 0x1 PUSH1 0xA0 SHL SUB NOT AND PUSH1 0x1 PUSH1 0x1 PUSH1 0xA0 SHL SUB SWAP1 SWAP3 AND SWAP2 SWAP1 SWAP2 OR SWAP1 SSTORE PUSH1 0x80 DUP4 ADD MLOAD DUP1 MLOAD PUSH2 0x3324 SWAP3 PUSH1 0x4 DUP6 ADD SWAP3 ADD SWAP1 PUSH2 0x4C71 JUMP JUMPDEST POP PUSH1 0xA0 DUP3 ADD MLOAD PUSH1 0x5 DUP3 ADD SSTORE PUSH1 0xC0 SWAP1 SWAP2 ADD MLOAD PUSH1 0x6 SWAP1 SWAP2 ADD SSTORE PUSH2 0x171 DUP1 SLOAD PUSH1 0x1 DUP2 ADD SWAP1 SWAP2 SSTORE PUSH32 0x42B680591BEB20D1DE0D4CA368D3F10ACC6DB07BC74B68A9681655FB351B9039 ADD DUP2 SWAP1 SSTORE PUSH2 0x15F SLOAD PUSH1 0x1 PUSH1 0x1 PUSH1 0xA0 SHL SUB AND PUSH1 0x0 SWAP1 DUP2 MSTORE PUSH2 0x16E PUSH1 0x20 MSTORE PUSH1 0x40 DUP2 KECCAK256 DUP1 SLOAD CALLVALUE SWAP3 SWAP1 PUSH2 0x3398 SWAP1 DUP5 SWAP1 PUSH2 0x5553 JUMP JUMPDEST SWAP1 SWAP2 SSTORE POP PUSH2 0x33A6 SWAP1 POP PUSH2 0xEA3 JUMP JUMPDEST PUSH1 0x1 PUSH1 0x1 PUSH1 0xA0 SHL SUB AND DUP2 PUSH32 0x3C860076DBB2474109EA1AFC5F287966581081ACEE08EE7EC1D39CFDD52A0740 CALLVALUE DUP6 PUSH1 0x40 MLOAD PUSH2 0x33E1 SWAP3 SWAP2 SWAP1 PUSH2 0x54D9 JUMP JUMPDEST PUSH1 0x40 MLOAD DUP1 SWAP2 SUB SWAP1 LOG3 PUSH1 0x1 PUSH2 0x12D SSTORE SWAP5 SWAP4 POP POP POP POP JUMP JUMPDEST PUSH1 0x40 MLOAD PUSH4 0x74A5907 PUSH1 0xE0 SHL DUP2 MSTORE PUSH1 0x4 DUP2 ADD DUP4 SWAP1 MSTORE PUSH1 0x24 DUP2 ADD DUP3 SWAP1 MSTORE PUSH2 0x16F PUSH1 0x44 DUP3 ADD MSTORE PUSH1 0x60 SWAP1 PUSH1 0x0 SWAP1 PUSH20 0x0 SWAP1 PUSH4 0x74A5907 SWAP1 PUSH1 0x64 ADD PUSH2 0x1048 JUMP JUMPDEST PUSH1 0x0 DUP2 DUP2 MSTORE PUSH1 0xFB PUSH1 0x20 MSTORE PUSH1 0x40 DUP2 KECCAK256 PUSH2 0xED7 SWAP1 PUSH2 0x43E5 JUMP JUMPDEST PUSH1 0x0 DUP3 DUP2 MSTORE PUSH2 0x169 PUSH1 0x20 SWAP1 DUP2 MSTORE PUSH1 0x40 SWAP2 DUP3 SWAP1 KECCAK256 PUSH1 0x4 ADD SLOAD DUP3 MLOAD DUP1 DUP5 ADD SWAP1 SWAP4 MSTORE PUSH1 0x6 DUP4 MSTORE PUSH6 0x303032303033 PUSH1 0xD0 SHL SWAP2 DUP4 ADD SWAP2 SWAP1 SWAP2 MSTORE DUP4 SWAP2 SWAP1 PUSH1 0x1 PUSH1 0x1 PUSH1 0xA0 SHL SUB AND PUSH2 0x34B8 JUMPI PUSH1 0x40 MLOAD PUSH3 0x461BCD PUSH1 0xE5 SHL DUP2 MSTORE PUSH1 0x4 ADD PUSH2 0xF2E SWAP2 SWAP1 PUSH2 0x52C6 JUMP JUMPDEST POP PUSH1 0x0 DUP3 MLOAD GT PUSH2 0x350A JUMPI PUSH1 0x40 MLOAD PUSH3 0x461BCD PUSH1 0xE5 SHL DUP2 MSTORE PUSH1 0x20 PUSH1 0x4 DUP3 ADD MSTORE PUSH1 0x1A PUSH1 0x24 DUP3 ADD MSTORE PUSH32 0x616E73776572486173682063616E6E6F7420626520656D707479000000000000 PUSH1 0x44 DUP3 ADD MSTORE PUSH1 0x64 ADD PUSH2 0xF2E JUMP JUMPDEST PUSH2 0x3512 PUSH2 0xEA3 JUMP JUMPDEST PUSH1 0x0 DUP5 DUP2 MSTORE PUSH2 0x169 PUSH1 0x20 SWAP1 DUP2 MSTORE PUSH1 0x40 SWAP2 DUP3 SWAP1 KECCAK256 PUSH1 0x5 ADD SLOAD DUP3 MLOAD DUP1 DUP5 ADD SWAP1 SWAP4 MSTORE PUSH1 0x6 DUP4 MSTORE PUSH6 0x181819181819 PUSH1 0xD1 SHL SWAP2 DUP4 ADD SWAP2 SWAP1 SWAP2 MSTORE SWAP1 SWAP2 PUSH1 0x1 PUSH1 0x1 PUSH1 0xA0 SHL SUB SWAP2 DUP3 AND SWAP2 AND EQ PUSH2 0x3573 JUMPI PUSH1 0x40 MLOAD PUSH3 0x461BCD PUSH1 0xE5 SHL DUP2 MSTORE PUSH1 0x4 ADD PUSH2 0xF2E SWAP2 SWAP1 PUSH2 0x52C6 JUMP JUMPDEST POP PUSH1 0x0 PUSH2 0x357F DUP4 PUSH2 0xFD2 JUMP JUMPDEST SWAP1 POP PUSH1 0x0 PUSH2 0x358E DUP6 DUP4 CALLVALUE PUSH2 0x43EF JUMP JUMPDEST SWAP1 POP PUSH2 0x3598 PUSH2 0xEA3 JUMP JUMPDEST PUSH1 0x0 DUP7 DUP2 MSTORE PUSH2 0x169 PUSH1 0x20 MSTORE PUSH1 0x40 SWAP1 DUP2 SWAP1 KECCAK256 PUSH1 0x4 ADD SLOAD SWAP1 MLOAD PUSH1 0x1 PUSH1 0x1 PUSH1 0xA0 SHL SUB SWAP3 DUP4 AND SWAP3 SWAP1 SWAP2 AND SWAP1 DUP8 SWAP1 PUSH32 0xFF7A1ECAAC27EED4C6BD348A8DD8D05ED71190DB5B77E89F881FA74087429BC9 SWAP1 PUSH2 0x2F5A SWAP1 DUP8 SWAP1 CALLVALUE SWAP1 DUP9 SWAP1 PUSH2 0x53A4 JUMP JUMPDEST PUSH1 0x33 SLOAD PUSH1 0xFF AND ISZERO PUSH2 0x3615 JUMPI PUSH1 0x40 MLOAD PUSH3 0x461BCD PUSH1 0xE5 SHL DUP2 MSTORE PUSH1 0x4 ADD PUSH2 0xF2E SWAP1 PUSH2 0x540E JUMP JUMPDEST PUSH1 0x0 DUP3 DUP2 MSTORE PUSH2 0x16A PUSH1 0x20 SWAP1 DUP2 MSTORE PUSH1 0x40 SWAP2 DUP3 SWAP1 KECCAK256 PUSH1 0x3 ADD SLOAD DUP3 MLOAD DUP1 DUP5 ADD SWAP1 SWAP4 MSTORE PUSH1 0x6 DUP4 MSTORE PUSH6 0x303034303031 PUSH1 0xD0 SHL SWAP2 DUP4 ADD SWAP2 SWAP1 SWAP2 MSTORE PUSH1 0x1 PUSH1 0x1 PUSH1 0xA0 SHL SUB AND PUSH2 0x366F JUMPI PUSH1 0x40 MLOAD PUSH3 0x461BCD PUSH1 0xE5 SHL DUP2 MSTORE PUSH1 0x4 ADD PUSH2 0xF2E SWAP2 SWAP1 PUSH2 0x52C6 JUMP JUMPDEST POP PUSH2 0x3678 PUSH2 0xEA3 JUMP JUMPDEST PUSH1 0x0 DUP4 DUP2 MSTORE PUSH2 0x16A PUSH1 0x20 SWAP1 DUP2 MSTORE PUSH1 0x40 SWAP2 DUP3 SWAP1 KECCAK256 PUSH1 0x3 ADD SLOAD DUP3 MLOAD DUP1 DUP5 ADD SWAP1 SWAP4 MSTORE PUSH1 0x6 DUP4 MSTORE PUSH6 0xC0C0D0C0C0D PUSH1 0xD2 SHL SWAP2 DUP4 ADD SWAP2 SWAP1 SWAP2 MSTORE SWAP1 SWAP2 PUSH1 0x1 PUSH1 0x1 PUSH1 0xA0 SHL SUB SWAP2 DUP3 AND SWAP2 AND EQ PUSH2 0x36D9 JUMPI PUSH1 0x40 MLOAD PUSH3 0x461BCD PUSH1 0xE5 SHL DUP2 MSTORE PUSH1 0x4 ADD PUSH2 0xF2E SWAP2 SWAP1 PUSH2 0x52C6 JUMP JUMPDEST POP PUSH1 0x0 DUP3 DUP2 MSTORE PUSH2 0x16A PUSH1 0x20 MSTORE PUSH1 0x40 SWAP1 KECCAK256 PUSH1 0x3 ADD DUP1 SLOAD PUSH1 0x1 PUSH1 0x1 PUSH1 0xA0 SHL SUB NOT AND PUSH1 0x1 PUSH1 0x1 PUSH1 0xA0 SHL SUB DUP4 AND SWAP1 DUP2 OR SWAP1 SWAP2 SSTORE PUSH2 0x3710 PUSH2 0xEA3 JUMP JUMPDEST PUSH1 0x1 PUSH1 0x1 PUSH1 0xA0 SHL SUB AND DUP4 PUSH32 0xE941B64B4CB1629849B2AEF319675FC94D70E5D2E79A7C8F5C3FE05020E93C2D PUSH1 0x40 MLOAD PUSH1 0x40 MLOAD DUP1 SWAP2 SUB SWAP1 LOG4 POP POP JUMP JUMPDEST PUSH2 0x172 DUP2 DUP2 SLOAD DUP2 LT PUSH2 0x1954 JUMPI PUSH1 0x0 DUP1 REVERT JUMPDEST PUSH1 0x0 DUP3 DUP2 MSTORE PUSH1 0xC9 PUSH1 0x20 MSTORE PUSH1 0x40 SWAP1 KECCAK256 PUSH1 0x1 ADD SLOAD PUSH2 0x3779 DUP2 PUSH2 0xEEB PUSH2 0xEA3 JUMP JUMPDEST PUSH2 0xFCD DUP4 DUP4 PUSH2 0x4188 JUMP JUMPDEST PUSH1 0x0 PUSH2 0x378F DUP5 DUP5 PUSH2 0x37DD JUMP JUMPDEST ISZERO PUSH2 0x379C JUMPI POP PUSH1 0x0 PUSH2 0x21FD JUMP JUMPDEST PUSH1 0x1 DUP3 EQ ISZERO PUSH2 0x37B5 JUMPI PUSH2 0x37AE DUP4 PUSH2 0x4582 JUMP JUMPDEST SWAP1 POP PUSH2 0x21FD JUMP JUMPDEST PUSH2 0x37BE DUP4 PUSH2 0x45CC JUMP JUMPDEST SWAP5 SWAP4 POP POP POP POP JUMP JUMPDEST PUSH1 0x0 PUSH2 0x37D4 DUP2 PUSH2 0xEEB PUSH2 0xEA3 JUMP JUMPDEST PUSH2 0x183D DUP3 PUSH2 0x4610 JUMP JUMPDEST PUSH1 0x0 PUSH1 0x2 PUSH2 0x15E1 JUMP JUMPDEST PUSH2 0x16A PUSH1 0x20 MSTORE PUSH1 0x0 SWAP1 DUP2 MSTORE PUSH1 0x40 SWAP1 KECCAK256 DUP1 SLOAD DUP2 SWAP1 PUSH2 0x3802 SWAP1 PUSH2 0x560A JUMP JUMPDEST DUP1 PUSH1 0x1F ADD PUSH1 0x20 DUP1 SWAP2 DIV MUL PUSH1 0x20 ADD PUSH1 0x40 MLOAD SWAP1 DUP2 ADD PUSH1 0x40 MSTORE DUP1 SWAP3 SWAP2 SWAP1 DUP2 DUP2 MSTORE PUSH1 0x20 ADD DUP3 DUP1 SLOAD PUSH2 0x382E SWAP1 PUSH2 0x560A JUMP JUMPDEST DUP1 ISZERO PUSH2 0x387B JUMPI DUP1 PUSH1 0x1F LT PUSH2 0x3850 JUMPI PUSH2 0x100 DUP1 DUP4 SLOAD DIV MUL DUP4 MSTORE SWAP2 PUSH1 0x20 ADD SWAP2 PUSH2 0x387B JUMP JUMPDEST DUP3 ADD SWAP2 SWAP1 PUSH1 0x0 MSTORE PUSH1 0x20 PUSH1 0x0 KECCAK256 SWAP1 JUMPDEST DUP2 SLOAD DUP2 MSTORE SWAP1 PUSH1 0x1 ADD SWAP1 PUSH1 0x20 ADD DUP1 DUP4 GT PUSH2 0x385E JUMPI DUP3 SWAP1 SUB PUSH1 0x1F AND DUP3 ADD SWAP2 JUMPDEST POP POP POP PUSH1 0x1 DUP5 ADD SLOAD PUSH1 0x2 DUP6 ADD SLOAD PUSH1 0x3 DUP7 ADD SLOAD PUSH1 0x5 DUP8 ADD SLOAD PUSH1 0x6 SWAP1 SWAP8 ADD SLOAD SWAP6 SWAP7 SWAP3 SWAP6 SWAP2 SWAP5 POP PUSH1 0x1 PUSH1 0x1 PUSH1 0xA0 SHL SUB AND SWAP3 POP DUP7 JUMP JUMPDEST PUSH1 0x0 PUSH2 0x16D PUSH1 0x0 PUSH2 0x38BC PUSH2 0xEA3 JUMP JUMPDEST PUSH1 0x1 PUSH1 0x1 PUSH1 0xA0 SHL SUB AND PUSH1 0x1 PUSH1 0x1 PUSH1 0xA0 SHL SUB AND DUP2 MSTORE PUSH1 0x20 ADD SWAP1 DUP2 MSTORE PUSH1 0x20 ADD PUSH1 0x0 KECCAK256 PUSH1 0x3 ADD PUSH1 0x0 DUP4 PUSH1 0x1 PUSH1 0x1 PUSH1 0xA0 SHL SUB AND PUSH1 0x1 PUSH1 0x1 PUSH1 0xA0 SHL SUB AND DUP2 MSTORE PUSH1 0x20 ADD SWAP1 DUP2 MSTORE PUSH1 0x20 ADD PUSH1 0x0 KECCAK256 SLOAD PUSH1 0x1 EQ SWAP1 POP SWAP2 SWAP1 POP JUMP JUMPDEST PUSH1 0x0 PUSH2 0x16D PUSH1 0x0 PUSH2 0x391C PUSH2 0xEA3 JUMP JUMPDEST PUSH1 0x1 PUSH1 0x1 PUSH1 0xA0 SHL SUB SWAP1 DUP2 AND DUP3 MSTORE PUSH1 0x20 DUP1 DUP4 ADD SWAP4 SWAP1 SWAP4 MSTORE PUSH1 0x40 SWAP2 DUP3 ADD PUSH1 0x0 SWAP1 DUP2 KECCAK256 SWAP2 DUP7 AND DUP2 MSTORE PUSH1 0x3 SWAP1 SWAP2 ADD SWAP1 SWAP3 MSTORE SWAP1 KECCAK256 SSTORE PUSH2 0x3954 PUSH2 0xEA3 JUMP JUMPDEST PUSH1 0x1 PUSH1 0x1 PUSH1 0xA0 SHL SUB AND DUP2 PUSH1 0x1 PUSH1 0x1 PUSH1 0xA0 SHL SUB AND PUSH32 0xE5DCCCFE8E7890C6D4AA94D44C3B409FB6F023337F29C3308077C0C4068192C4 PUSH1 0x40 MLOAD PUSH1 0x40 MLOAD DUP1 SWAP2 SUB SWAP1 LOG3 POP JUMP JUMPDEST PUSH1 0x40 MLOAD PUSH4 0x74A5907 PUSH1 0xE0 SHL DUP2 MSTORE PUSH1 0x4 DUP2 ADD DUP4 SWAP1 MSTORE PUSH1 0x24 DUP2 ADD DUP3 SWAP1 MSTORE PUSH2 0x172 PUSH1 0x44 DUP3 ADD MSTORE PUSH1 0x60 SWAP1 PUSH1 0x0 SWAP1 PUSH20 0x0 SWAP1 PUSH4 0x74A5907 SWAP1 PUSH1 0x64 ADD PUSH2 0x1048 JUMP JUMPDEST PUSH1 0x33 SLOAD PUSH1 0xFF AND ISZERO PUSH2 0x3A06 JUMPI PUSH1 0x40 MLOAD PUSH3 0x461BCD PUSH1 0xE5 SHL DUP2 MSTORE PUSH1 0x4 ADD PUSH2 0xF2E SWAP1 PUSH2 0x540E JUMP JUMPDEST PUSH1 0x0 DUP2 DUP2 MSTORE PUSH2 0x16B PUSH1 0x20 SWAP1 DUP2 MSTORE PUSH1 0x40 SWAP2 DUP3 SWAP1 KECCAK256 SLOAD DUP3 MLOAD DUP1 DUP5 ADD SWAP1 SWAP4 MSTORE PUSH1 0x6 DUP4 MSTORE PUSH6 0x303033303033 PUSH1 0xD0 SHL SWAP2 DUP4 ADD SWAP2 SWAP1 SWAP2 MSTORE DUP3 SWAP2 SWAP1 PUSH1 0x1 PUSH1 0x1 PUSH1 0xA0 SHL SUB AND PUSH2 0x3A60 JUMPI PUSH1 0x40 MLOAD PUSH3 0x461BCD PUSH1 0xE5 SHL DUP2 MSTORE PUSH1 0x4 ADD PUSH2 0xF2E SWAP2 SWAP1 PUSH2 0x52C6 JUMP JUMPDEST POP DUP2 PUSH2 0x3A6A PUSH2 0xEA3 JUMP JUMPDEST PUSH1 0x0 DUP3 DUP2 MSTORE PUSH2 0x16B PUSH1 0x20 SWAP1 DUP2 MSTORE PUSH1 0x40 SWAP2 DUP3 SWAP1 KECCAK256 SLOAD DUP3 MLOAD DUP1 DUP5 ADD SWAP1 SWAP4 MSTORE PUSH1 0x6 DUP4 MSTORE PUSH6 0x181819981819 PUSH1 0xD1 SHL SWAP2 DUP4 ADD SWAP2 SWAP1 SWAP2 MSTORE SWAP1 SWAP2 PUSH1 0x1 PUSH1 0x1 PUSH1 0xA0 SHL SUB SWAP2 DUP3 AND SWAP2 AND EQ PUSH2 0x3AC8 JUMPI PUSH1 0x40 MLOAD PUSH3 0x461BCD PUSH1 0xE5 SHL DUP2 MSTORE PUSH1 0x4 ADD PUSH2 0xF2E SWAP2 SWAP1 PUSH2 0x52C6 JUMP JUMPDEST POP PUSH1 0x0 DUP4 DUP2 MSTORE PUSH2 0x16B PUSH1 0x20 SWAP1 DUP2 MSTORE PUSH1 0x40 DUP1 DUP4 KECCAK256 PUSH1 0x3 DUP2 ADD SLOAD DUP5 MSTORE PUSH2 0x169 SWAP1 SWAP3 MSTORE SWAP2 DUP3 SWAP1 KECCAK256 SWAP2 MLOAD PUSH4 0x18B5B067 PUSH1 0xE2 SHL DUP2 MSTORE PUSH1 0x4 DUP2 ADD DUP3 SWAP1 MSTORE PUSH1 0x24 DUP2 ADD DUP4 SWAP1 MSTORE SWAP1 SWAP2 SWAP1 PUSH20 0x0 SWAP1 PUSH4 0x62D6C19C SWAP1 PUSH1 0x44 ADD PUSH1 0x0 PUSH1 0x40 MLOAD DUP1 DUP4 SUB DUP2 DUP7 DUP1 EXTCODESIZE ISZERO DUP1 ISZERO PUSH2 0x3B40 JUMPI PUSH1 0x0 DUP1 REVERT JUMPDEST POP GAS DELEGATECALL ISZERO DUP1 ISZERO PUSH2 0x3B54 JUMPI RETURNDATASIZE PUSH1 0x0 DUP1 RETURNDATACOPY RETURNDATASIZE PUSH1 0x0 REVERT JUMPDEST POP POP POP POP DUP2 PUSH1 0x1 ADD SLOAD PUSH2 0x16E PUSH1 0x0 PUSH2 0x3B6A PUSH2 0xEA3 JUMP JUMPDEST PUSH1 0x1 PUSH1 0x1 PUSH1 0xA0 SHL SUB AND PUSH1 0x1 PUSH1 0x1 PUSH1 0xA0 SHL SUB AND DUP2 MSTORE PUSH1 0x20 ADD SWAP1 DUP2 MSTORE PUSH1 0x20 ADD PUSH1 0x0 KECCAK256 PUSH1 0x0 DUP3 DUP3 SLOAD PUSH2 0x3B99 SWAP2 SWAP1 PUSH2 0x5553 JUMP JUMPDEST SWAP1 SWAP2 SSTORE POP PUSH2 0x3BA7 SWAP1 POP PUSH2 0xEA3 JUMP JUMPDEST PUSH1 0x1 PUSH1 0x1 PUSH1 0xA0 SHL SUB AND PUSH1 0x0 DUP1 MLOAD PUSH1 0x20 PUSH2 0x56B4 DUP4 CODECOPY DUP2 MLOAD SWAP2 MSTORE DUP4 PUSH1 0x1 ADD SLOAD PUSH1 0x40 MLOAD PUSH2 0x3BD3 SWAP2 DUP2 MSTORE PUSH1 0x20 ADD SWAP1 JUMP JUMPDEST PUSH1 0x40 MLOAD DUP1 SWAP2 SUB SWAP1 LOG2 PUSH2 0x3BE3 PUSH2 0xEA3 JUMP JUMPDEST PUSH1 0x1 PUSH1 0x1 PUSH1 0xA0 SHL SUB AND DUP6 DUP4 PUSH1 0x3 ADD SLOAD PUSH32 0x8827140ED7E0AEE657F6D8AB3D65B02D30022ED333E284958313DB49217E7C3E DUP6 PUSH1 0x1 ADD SLOAD PUSH1 0x40 MLOAD PUSH2 0x2F5A SWAP2 DUP2 MSTORE PUSH1 0x20 ADD SWAP1 JUMP JUMPDEST PUSH1 0x0 PUSH1 0x1 DUP3 EQ ISZERO PUSH2 0x3C3B JUMPI POP POP PUSH2 0x161 SLOAD SWAP1 JUMP JUMPDEST POP POP PUSH2 0x160 SLOAD SWAP1 JUMP JUMPDEST PUSH1 0x65 SLOAD PUSH1 0x0 SWAP1 PUSH1 0x1 PUSH1 0x1 PUSH1 0xA0 SHL SUB AND CALLER EQ ISZERO PUSH2 0x3C67 JUMPI POP PUSH1 0x13 NOT CALLDATASIZE ADD CALLDATALOAD PUSH1 0x60 SHR SWAP1 JUMP JUMPDEST POP CALLER SWAP1 JUMP JUMPDEST PUSH1 0x0 PUSH1 0x1 PUSH1 0x1 PUSH1 0xE0 SHL SUB NOT DUP3 AND PUSH4 0x7965DB0B PUSH1 0xE0 SHL EQ DUP1 PUSH2 0xED7 JUMPI POP PUSH4 0x1FFC9A7 PUSH1 0xE0 SHL PUSH1 0x1 PUSH1 0x1 PUSH1 0xE0 SHL SUB NOT DUP4 AND EQ PUSH2 0xED7 JUMP JUMPDEST PUSH2 0x3CAB DUP3 DUP3 PUSH2 0x2204 JUMP JUMPDEST PUSH2 0x183D JUMPI PUSH2 0x3CC3 DUP2 PUSH1 0x1 PUSH1 0x1 PUSH1 0xA0 SHL SUB AND PUSH1 0x14 PUSH2 0x4659 JUMP JUMPDEST PUSH2 0x3CCE DUP4 PUSH1 0x20 PUSH2 0x4659 JUMP JUMPDEST PUSH1 0x40 MLOAD PUSH1 0x20 ADD PUSH2 0x3CDF SWAP3 SWAP2 SWAP1 PUSH2 0x5209 JUMP JUMPDEST PUSH1 0x40 DUP1 MLOAD PUSH1 0x1F NOT DUP2 DUP5 SUB ADD DUP2 MSTORE SWAP1 DUP3 SWAP1 MSTORE PUSH3 0x461BCD PUSH1 0xE5 SHL DUP3 MSTORE PUSH2 0xF2E SWAP2 PUSH1 0x4 ADD PUSH2 0x52C6 JUMP JUMPDEST PUSH1 0x0 DUP1 PUSH20 0x0 PUSH4 0xB0B67FA8 DUP5 DUP11 PUSH1 0x40 MLOAD DUP4 PUSH4 0xFFFFFFFF AND PUSH1 0xE0 SHL DUP2 MSTORE PUSH1 0x4 ADD PUSH2 0x3D41 SWAP3 SWAP2 SWAP1 PUSH2 0x52D9 JUMP JUMPDEST PUSH1 0x20 PUSH1 0x40 MLOAD DUP1 DUP4 SUB DUP2 DUP7 DUP1 EXTCODESIZE ISZERO DUP1 ISZERO PUSH2 0x3D59 JUMPI PUSH1 0x0 DUP1 REVERT JUMPDEST POP GAS DELEGATECALL ISZERO DUP1 ISZERO PUSH2 0x3D6D JUMPI RETURNDATASIZE PUSH1 0x0 DUP1 RETURNDATACOPY RETURNDATASIZE PUSH1 0x0 REVERT JUMPDEST POP POP POP POP PUSH1 0x40 MLOAD RETURNDATASIZE PUSH1 0x1F NOT PUSH1 0x1F DUP3 ADD AND DUP3 ADD DUP1 PUSH1 0x40 MSTORE POP DUP2 ADD SWAP1 PUSH2 0x3D91 SWAP2 SWAP1 PUSH2 0x4F05 JUMP JUMPDEST PUSH1 0x40 DUP1 MLOAD PUSH1 0x0 DUP1 DUP3 MSTORE PUSH1 0x20 DUP3 ADD SWAP1 SWAP3 MSTORE SWAP2 SWAP3 POP PUSH2 0x3DAE DUP8 TIMESTAMP PUSH2 0x5553 JUMP JUMPDEST SWAP1 POP PUSH1 0x40 MLOAD DUP1 PUSH2 0x1A0 ADD PUSH1 0x40 MSTORE DUP1 DUP7 DUP2 MSTORE PUSH1 0x20 ADD PUSH1 0x40 MLOAD DUP1 PUSH1 0x20 ADD PUSH1 0x40 MSTORE DUP1 PUSH1 0x0 DUP2 MSTORE POP DUP2 MSTORE PUSH1 0x20 ADD DUP10 DUP2 MSTORE PUSH1 0x20 ADD DUP10 DUP2 MSTORE PUSH1 0x20 ADD DUP12 PUSH1 0x1 PUSH1 0x1 PUSH1 0xA0 SHL SUB AND DUP2 MSTORE PUSH1 0x20 ADD DUP11 PUSH1 0x1 PUSH1 0x1 PUSH1 0xA0 SHL SUB AND DUP2 MSTORE PUSH1 0x20 ADD DUP4 DUP2 MSTORE PUSH1 0x20 ADD TIMESTAMP DUP2 MSTORE PUSH1 0x20 ADD DUP3 DUP2 MSTORE PUSH1 0x20 ADD PUSH1 0x0 PUSH1 0x3 DUP2 GT ISZERO PUSH2 0x3E26 JUMPI PUSH2 0x3E26 PUSH2 0x565B JUMP JUMPDEST DUP2 MSTORE PUSH1 0x20 ADD PUSH1 0x0 DUP2 MSTORE PUSH1 0x20 ADD PUSH1 0x0 PUSH1 0x2 DUP2 GT ISZERO PUSH2 0x3E45 JUMPI PUSH2 0x3E45 PUSH2 0x565B JUMP JUMPDEST DUP2 MSTORE PUSH1 0x20 SWAP1 DUP2 ADD DUP9 SWAP1 MSTORE PUSH1 0x0 DUP6 DUP2 MSTORE PUSH2 0x169 DUP3 MSTORE PUSH1 0x40 SWAP1 KECCAK256 DUP3 MLOAD DUP1 MLOAD SWAP2 SWAP3 PUSH2 0x3E72 SWAP3 DUP5 SWAP3 SWAP1 SWAP2 ADD SWAP1 PUSH2 0x4BF1 JUMP JUMPDEST POP PUSH1 0x20 DUP3 DUP2 ADD MLOAD DUP1 MLOAD PUSH2 0x3E8B SWAP3 PUSH1 0x1 DUP6 ADD SWAP3 ADD SWAP1 PUSH2 0x4BF1 JUMP JUMPDEST POP PUSH1 0x40 DUP3 ADD MLOAD PUSH1 0x2 DUP3 ADD SSTORE PUSH1 0x60 DUP3 ADD MLOAD PUSH1 0x3 DUP3 ADD SSTORE PUSH1 0x80 DUP3 ADD MLOAD PUSH1 0x4 DUP3 ADD DUP1 SLOAD PUSH1 0x1 PUSH1 0x1 PUSH1 0xA0 SHL SUB SWAP3 DUP4 AND PUSH1 0x1 PUSH1 0x1 PUSH1 0xA0 SHL SUB NOT SWAP2 DUP3 AND OR SWAP1 SWAP2 SSTORE PUSH1 0xA0 DUP5 ADD MLOAD PUSH1 0x5 DUP5 ADD DUP1 SLOAD SWAP2 SWAP1 SWAP4 AND SWAP2 AND OR SWAP1 SSTORE PUSH1 0xC0 DUP3 ADD MLOAD DUP1 MLOAD PUSH2 0x3EF5 SWAP2 PUSH1 0x6 DUP5 ADD SWAP2 PUSH1 0x20 SWAP1 SWAP2 ADD SWAP1 PUSH2 0x4C71 JUMP JUMPDEST POP PUSH1 0xE0 DUP3 ADD MLOAD PUSH1 0x7 DUP3 ADD SSTORE PUSH2 0x100 DUP3 ADD MLOAD PUSH1 0x8 DUP3 ADD SSTORE PUSH2 0x120 DUP3 ADD MLOAD PUSH1 0x9 DUP3 ADD DUP1 SLOAD PUSH1 0xFF NOT AND PUSH1 0x1 DUP4 PUSH1 0x3 DUP2 GT ISZERO PUSH2 0x3F2F JUMPI PUSH2 0x3F2F PUSH2 0x565B JUMP JUMPDEST MUL OR SWAP1 SSTORE POP PUSH2 0x140 DUP3 ADD MLOAD PUSH1 0xA DUP3 ADD SSTORE PUSH2 0x160 DUP3 ADD MLOAD PUSH1 0xB DUP3 ADD DUP1 SLOAD PUSH1 0xFF NOT AND PUSH1 0x1 DUP4 PUSH1 0x2 DUP2 GT ISZERO PUSH2 0x3F63 JUMPI PUSH2 0x3F63 PUSH2 0x565B JUMP JUMPDEST MUL OR SWAP1 SSTORE POP PUSH2 0x180 SWAP2 SWAP1 SWAP2 ADD MLOAD PUSH1 0xC SWAP1 SWAP2 ADD SSTORE DUP6 PUSH2 0x3FB6 JUMPI PUSH2 0x16F DUP1 SLOAD PUSH1 0x1 DUP2 ADD DUP3 SSTORE PUSH1 0x0 SWAP2 SWAP1 SWAP2 MSTORE PUSH32 0x47D2F800C57DE5C44DFF408E225B320F1EA140CA87907F0726FD6049EE5595D7 ADD DUP4 SWAP1 SSTORE PUSH2 0x3FED JUMP JUMPDEST PUSH2 0x170 DUP1 SLOAD PUSH1 0x1 DUP2 ADD DUP3 SSTORE PUSH1 0x0 SWAP2 SWAP1 SWAP2 MSTORE PUSH32 0x88E1AFB22F13BE7FEC203799FD189C3B9471C5B75E2B22A6D5EFEC11C7F39255 ADD DUP4 SWAP1 SSTORE JUMPDEST DUP10 PUSH1 0x1 PUSH1 0x1 PUSH1 0xA0 SHL SUB AND DUP4 DUP11 PUSH1 0x1 PUSH1 0x1 PUSH1 0xA0 SHL SUB AND PUSH32 0xDDA647D1E751B8DF0A785CD75E0C734774777FF91018AA17AA79BF515F851155 DUP12 DUP6 DUP11 DUP13 PUSH1 0x40 MLOAD PUSH2 0x4037 SWAP5 SWAP4 SWAP3 SWAP2 SWAP1 PUSH2 0x54F2 JUMP JUMPDEST PUSH1 0x40 MLOAD DUP1 SWAP2 SUB SWAP1 LOG4 POP SWAP1 SWAP9 SWAP8 POP POP POP POP POP POP POP POP JUMP JUMPDEST DUP1 SELFBALANCE LT ISZERO PUSH2 0x409D JUMPI PUSH1 0x40 MLOAD PUSH3 0x461BCD PUSH1 0xE5 SHL DUP2 MSTORE PUSH1 0x20 PUSH1 0x4 DUP3 ADD MSTORE PUSH1 0x1D PUSH1 0x24 DUP3 ADD MSTORE PUSH32 0x416464726573733A20696E73756666696369656E742062616C616E6365000000 PUSH1 0x44 DUP3 ADD MSTORE PUSH1 0x64 ADD PUSH2 0xF2E JUMP JUMPDEST PUSH1 0x0 DUP3 PUSH1 0x1 PUSH1 0x1 PUSH1 0xA0 SHL SUB AND DUP3 PUSH1 0x40 MLOAD PUSH1 0x0 PUSH1 0x40 MLOAD DUP1 DUP4 SUB DUP2 DUP6 DUP8 GAS CALL SWAP3 POP POP POP RETURNDATASIZE DUP1 PUSH1 0x0 DUP2 EQ PUSH2 0x40EA JUMPI PUSH1 0x40 MLOAD SWAP2 POP PUSH1 0x1F NOT PUSH1 0x3F RETURNDATASIZE ADD AND DUP3 ADD PUSH1 0x40 MSTORE RETURNDATASIZE DUP3 MSTORE RETURNDATASIZE PUSH1 0x0 PUSH1 0x20 DUP5 ADD RETURNDATACOPY PUSH2 0x40EF JUMP JUMPDEST PUSH1 0x60 SWAP2 POP JUMPDEST POP POP SWAP1 POP DUP1 PUSH2 0xFCD JUMPI PUSH1 0x40 MLOAD PUSH3 0x461BCD PUSH1 0xE5 SHL DUP2 MSTORE PUSH1 0x20 PUSH1 0x4 DUP3 ADD MSTORE PUSH1 0x3A PUSH1 0x24 DUP3 ADD MSTORE PUSH32 0x416464726573733A20756E61626C6520746F2073656E642076616C75652C2072 PUSH1 0x44 DUP3 ADD MSTORE PUSH32 0x6563697069656E74206D61792068617665207265766572746564000000000000 PUSH1 0x64 DUP3 ADD MSTORE PUSH1 0x84 ADD PUSH2 0xF2E JUMP JUMPDEST PUSH2 0x4170 DUP3 DUP3 PUSH2 0x47F5 JUMP JUMPDEST PUSH1 0x0 DUP3 DUP2 MSTORE PUSH1 0xFB PUSH1 0x20 MSTORE PUSH1 0x40 SWAP1 KECCAK256 PUSH2 0xFCD SWAP1 DUP3 PUSH2 0x487C JUMP JUMPDEST PUSH2 0x4192 DUP3 DUP3 PUSH2 0x4891 JUMP JUMPDEST PUSH1 0x0 DUP3 DUP2 MSTORE PUSH1 0xFB PUSH1 0x20 MSTORE PUSH1 0x40 SWAP1 KECCAK256 PUSH2 0xFCD SWAP1 DUP3 PUSH2 0x4916 JUMP JUMPDEST PUSH1 0x33 SLOAD PUSH1 0xFF AND PUSH2 0x41F3 JUMPI PUSH1 0x40 MLOAD PUSH3 0x461BCD PUSH1 0xE5 SHL DUP2 MSTORE PUSH1 0x20 PUSH1 0x4 DUP3 ADD MSTORE PUSH1 0x14 PUSH1 0x24 DUP3 ADD MSTORE PUSH20 0x14185D5CD8589B194E881B9BDD081C185D5CD959 PUSH1 0x62 SHL PUSH1 0x44 DUP3 ADD MSTORE PUSH1 0x64 ADD PUSH2 0xF2E JUMP JUMPDEST PUSH1 0x33 DUP1 SLOAD PUSH1 0xFF NOT AND SWAP1 SSTORE PUSH32 0x5DB9EE0A495BF2E6FF9C91A7834C1BA4FDD244A5E8AA4E537BD38AEAE4B073AA PUSH2 0x4226 PUSH2 0xEA3 JUMP JUMPDEST PUSH1 0x40 MLOAD PUSH1 0x1 PUSH1 0x1 PUSH1 0xA0 SHL SUB SWAP1 SWAP2 AND DUP2 MSTORE PUSH1 0x20 ADD PUSH1 0x40 MLOAD DUP1 SWAP2 SUB SWAP1 LOG1 JUMP JUMPDEST PUSH1 0x33 SLOAD PUSH1 0xFF AND ISZERO PUSH2 0x4266 JUMPI PUSH1 0x40 MLOAD PUSH3 0x461BCD PUSH1 0xE5 SHL DUP2 MSTORE PUSH1 0x4 ADD PUSH2 0xF2E SWAP1 PUSH2 0x540E JUMP JUMPDEST PUSH1 0x33 DUP1 SLOAD PUSH1 0xFF NOT AND PUSH1 0x1 OR SWAP1 SSTORE PUSH32 0x62E78CEA01BEE320CD4E420270B5EA74000D11B0C9F74754EBDBFC544B05A258 PUSH2 0x4226 PUSH2 0xEA3 JUMP JUMPDEST PUSH1 0x0 PUSH2 0x21FD DUP4 DUP4 PUSH2 0x492B JUMP JUMPDEST PUSH1 0x0 SLOAD PUSH2 0x100 SWAP1 DIV PUSH1 0xFF AND PUSH2 0x42CF JUMPI PUSH1 0x40 MLOAD PUSH3 0x461BCD PUSH1 0xE5 SHL DUP2 MSTORE PUSH1 0x4 ADD PUSH2 0xF2E SWAP1 PUSH2 0x5438 JUMP JUMPDEST PUSH2 0x42D7 PUSH2 0x4955 JUMP JUMPDEST PUSH2 0x42DF PUSH2 0x4955 JUMP JUMPDEST PUSH2 0x42E7 PUSH2 0x4955 JUMP JUMPDEST PUSH2 0x1AF1 PUSH2 0x4955 JUMP JUMPDEST PUSH1 0x0 SLOAD PUSH2 0x100 SWAP1 DIV PUSH1 0xFF AND PUSH2 0x4316 JUMPI PUSH1 0x40 MLOAD PUSH3 0x461BCD PUSH1 0xE5 SHL DUP2 MSTORE PUSH1 0x4 ADD PUSH2 0xF2E SWAP1 PUSH2 0x5438 JUMP JUMPDEST PUSH2 0x1AF1 PUSH2 0x497C JUMP JUMPDEST PUSH1 0x0 SLOAD PUSH2 0x100 SWAP1 DIV PUSH1 0xFF AND PUSH2 0x4345 JUMPI PUSH1 0x40 MLOAD PUSH3 0x461BCD PUSH1 0xE5 SHL DUP2 MSTORE PUSH1 0x4 ADD PUSH2 0xF2E SWAP1 PUSH2 0x5438 JUMP JUMPDEST PUSH2 0x434D PUSH2 0x4955 JUMP JUMPDEST PUSH2 0x1AF1 PUSH2 0x49AB JUMP JUMPDEST PUSH1 0x0 SLOAD PUSH2 0x100 SWAP1 DIV PUSH1 0xFF AND PUSH2 0x437C JUMPI PUSH1 0x40 MLOAD PUSH3 0x461BCD PUSH1 0xE5 SHL DUP2 MSTORE PUSH1 0x4 ADD PUSH2 0xF2E SWAP1 PUSH2 0x5438 JUMP JUMPDEST PUSH2 0x4384 PUSH2 0x4955 JUMP JUMPDEST PUSH2 0x438D DUP2 PUSH2 0x4610 JUMP JUMPDEST POP JUMP JUMPDEST PUSH2 0x183D DUP3 DUP3 PUSH2 0x4166 JUMP JUMPDEST PUSH1 0x0 DUP3 DUP2 MSTORE PUSH1 0xC9 PUSH1 0x20 MSTORE PUSH1 0x40 DUP1 DUP3 KECCAK256 PUSH1 0x1 ADD DUP1 SLOAD SWAP1 DUP5 SWAP1 SSTORE SWAP1 MLOAD SWAP1 SWAP2 DUP4 SWAP2 DUP4 SWAP2 DUP7 SWAP2 PUSH32 0xBD79B86FFE0AB8E8776151514217CD7CACD52C909F66475C3AF44E129F0B00FF SWAP2 SWAP1 LOG4 POP POP POP JUMP JUMPDEST PUSH1 0x0 PUSH2 0xED7 DUP3 SLOAD SWAP1 JUMP JUMPDEST PUSH1 0x0 DUP4 DUP2 MSTORE PUSH2 0x169 PUSH1 0x20 MSTORE PUSH1 0x40 DUP1 DUP3 KECCAK256 SWAP1 MLOAD PUSH4 0xE7F8899D PUSH1 0xE0 SHL DUP2 MSTORE PUSH1 0x4 DUP2 ADD DUP3 SWAP1 MSTORE PUSH20 0x0 SWAP1 PUSH4 0xE7F8899D SWAP1 PUSH1 0x24 ADD PUSH1 0x0 PUSH1 0x40 MLOAD DUP1 DUP4 SUB DUP2 DUP7 DUP1 EXTCODESIZE ISZERO DUP1 ISZERO PUSH2 0x4449 JUMPI PUSH1 0x0 DUP1 REVERT JUMPDEST POP GAS DELEGATECALL ISZERO DUP1 ISZERO PUSH2 0x445D JUMPI RETURNDATASIZE PUSH1 0x0 DUP1 RETURNDATACOPY RETURNDATASIZE PUSH1 0x0 REVERT JUMPDEST POP POP PUSH1 0x40 MLOAD PUSH4 0x3F46F90D PUSH1 0xE2 SHL DUP2 MSTORE PUSH20 0x0 SWAP3 POP PUSH4 0xFD1BE434 SWAP2 POP PUSH2 0x449C SWAP1 DUP5 SWAP1 DUP8 SWAP1 DUP10 SWAP1 PUSH1 0x4 ADD PUSH2 0x54BA JUMP JUMPDEST PUSH1 0x0 PUSH1 0x40 MLOAD DUP1 DUP4 SUB DUP2 DUP7 DUP1 EXTCODESIZE ISZERO DUP1 ISZERO PUSH2 0x44B4 JUMPI PUSH1 0x0 DUP1 REVERT JUMPDEST POP GAS DELEGATECALL ISZERO DUP1 ISZERO PUSH2 0x44C8 JUMPI RETURNDATASIZE PUSH1 0x0 DUP1 RETURNDATACOPY RETURNDATASIZE PUSH1 0x0 REVERT JUMPDEST POP POP POP POP PUSH1 0x0 DUP1 PUSH2 0x44E1 DUP4 PUSH1 0x2 ADD SLOAD DUP5 PUSH1 0x3 ADD SLOAD PUSH2 0x49DE JUMP JUMPDEST SWAP1 SWAP3 POP SWAP1 POP PUSH2 0x44F0 DUP2 DUP4 PUSH2 0x5553 JUMP JUMPDEST PUSH2 0x16E PUSH1 0x0 PUSH2 0x44FD PUSH2 0xEA3 JUMP JUMPDEST PUSH1 0x1 PUSH1 0x1 PUSH1 0xA0 SHL SUB AND PUSH1 0x1 PUSH1 0x1 PUSH1 0xA0 SHL SUB AND DUP2 MSTORE PUSH1 0x20 ADD SWAP1 DUP2 MSTORE PUSH1 0x20 ADD PUSH1 0x0 KECCAK256 PUSH1 0x0 DUP3 DUP3 SLOAD PUSH2 0x452C SWAP2 SWAP1 PUSH2 0x5553 JUMP JUMPDEST SWAP1 SWAP2 SSTORE POP PUSH2 0x453A SWAP1 POP PUSH2 0xEA3 JUMP JUMPDEST PUSH1 0x1 PUSH1 0x1 PUSH1 0xA0 SHL SUB AND PUSH1 0x0 DUP1 MLOAD PUSH1 0x20 PUSH2 0x56B4 DUP4 CODECOPY DUP2 MLOAD SWAP2 MSTORE PUSH2 0x455C DUP4 DUP6 PUSH2 0x5553 JUMP JUMPDEST PUSH1 0x40 MLOAD SWAP1 DUP2 MSTORE PUSH1 0x20 ADD PUSH1 0x40 MLOAD DUP1 SWAP2 SUB SWAP1 LOG2 PUSH2 0x4577 DUP2 DUP4 PUSH2 0x5553 JUMP JUMPDEST SWAP8 SWAP7 POP POP POP POP POP POP POP JUMP JUMPDEST PUSH1 0x1 PUSH1 0x1 PUSH1 0xA0 SHL SUB DUP2 AND PUSH1 0x0 SWAP1 DUP2 MSTORE PUSH2 0x16D PUSH1 0x20 MSTORE PUSH1 0x40 DUP2 KECCAK256 PUSH1 0x1 ADD SLOAD PUSH2 0x45AC JUMPI POP POP PUSH2 0x161 SLOAD SWAP1 JUMP JUMPDEST POP PUSH1 0x1 PUSH1 0x1 PUSH1 0xA0 SHL SUB AND PUSH1 0x0 SWAP1 DUP2 MSTORE PUSH2 0x16D PUSH1 0x20 MSTORE PUSH1 0x40 SWAP1 KECCAK256 PUSH1 0x1 ADD SLOAD SWAP1 JUMP JUMPDEST PUSH1 0x1 PUSH1 0x1 PUSH1 0xA0 SHL SUB DUP2 AND PUSH1 0x0 SWAP1 DUP2 MSTORE PUSH2 0x16D PUSH1 0x20 MSTORE PUSH1 0x40 DUP2 KECCAK256 SLOAD PUSH2 0x45F3 JUMPI POP POP PUSH2 0x160 SLOAD SWAP1 JUMP JUMPDEST POP PUSH1 0x1 PUSH1 0x1 PUSH1 0xA0 SHL SUB AND PUSH1 0x0 SWAP1 DUP2 MSTORE PUSH2 0x16D PUSH1 0x20 MSTORE PUSH1 0x40 SWAP1 KECCAK256 SLOAD SWAP1 JUMP JUMPDEST PUSH1 0x0 SLOAD PUSH2 0x100 SWAP1 DIV PUSH1 0xFF AND PUSH2 0x4637 JUMPI PUSH1 0x40 MLOAD PUSH3 0x461BCD PUSH1 0xE5 SHL DUP2 MSTORE PUSH1 0x4 ADD PUSH2 0xF2E SWAP1 PUSH2 0x5438 JUMP JUMPDEST PUSH1 0x65 DUP1 SLOAD PUSH1 0x1 PUSH1 0x1 PUSH1 0xA0 SHL SUB NOT AND PUSH1 0x1 PUSH1 0x1 PUSH1 0xA0 SHL SUB SWAP3 SWAP1 SWAP3 AND SWAP2 SWAP1 SWAP2 OR SWAP1 SSTORE JUMP JUMPDEST PUSH1 0x60 PUSH1 0x0 PUSH2 0x4668 DUP4 PUSH1 0x2 PUSH2 0x558D JUMP JUMPDEST PUSH2 0x4673 SWAP1 PUSH1 0x2 PUSH2 0x5553 JUMP JUMPDEST PUSH8 0xFFFFFFFFFFFFFFFF DUP2 GT ISZERO PUSH2 0x468B JUMPI PUSH2 0x468B PUSH2 0x569D JUMP JUMPDEST PUSH1 0x40 MLOAD SWAP1 DUP1 DUP3 MSTORE DUP1 PUSH1 0x1F ADD PUSH1 0x1F NOT AND PUSH1 0x20 ADD DUP3 ADD PUSH1 0x40 MSTORE DUP1 ISZERO PUSH2 0x46B5 JUMPI PUSH1 0x20 DUP3 ADD DUP2 DUP1 CALLDATASIZE DUP4 CALLDATACOPY ADD SWAP1 POP JUMPDEST POP SWAP1 POP PUSH1 0x3 PUSH1 0xFC SHL DUP2 PUSH1 0x0 DUP2 MLOAD DUP2 LT PUSH2 0x46D0 JUMPI PUSH2 0x46D0 PUSH2 0x5687 JUMP JUMPDEST PUSH1 0x20 ADD ADD SWAP1 PUSH1 0x1 PUSH1 0x1 PUSH1 0xF8 SHL SUB NOT AND SWAP1 DUP2 PUSH1 0x0 BYTE SWAP1 MSTORE8 POP PUSH1 0xF PUSH1 0xFB SHL DUP2 PUSH1 0x1 DUP2 MLOAD DUP2 LT PUSH2 0x46FF JUMPI PUSH2 0x46FF PUSH2 0x5687 JUMP JUMPDEST PUSH1 0x20 ADD ADD SWAP1 PUSH1 0x1 PUSH1 0x1 PUSH1 0xF8 SHL SUB NOT AND SWAP1 DUP2 PUSH1 0x0 BYTE SWAP1 MSTORE8 POP PUSH1 0x0 PUSH2 0x4723 DUP5 PUSH1 0x2 PUSH2 0x558D JUMP JUMPDEST PUSH2 0x472E SWAP1 PUSH1 0x1 PUSH2 0x5553 JUMP JUMPDEST SWAP1 POP JUMPDEST PUSH1 0x1 DUP2 GT ISZERO PUSH2 0x47A6 JUMPI PUSH16 0x181899199A1A9B1B9C1CB0B131B232B3 PUSH1 0x81 SHL DUP6 PUSH1 0xF AND PUSH1 0x10 DUP2 LT PUSH2 0x4762 JUMPI PUSH2 0x4762 PUSH2 0x5687 JUMP JUMPDEST BYTE PUSH1 0xF8 SHL DUP3 DUP3 DUP2 MLOAD DUP2 LT PUSH2 0x4778 JUMPI PUSH2 0x4778 PUSH2 0x5687 JUMP JUMPDEST PUSH1 0x20 ADD ADD SWAP1 PUSH1 0x1 PUSH1 0x1 PUSH1 0xF8 SHL SUB NOT AND SWAP1 DUP2 PUSH1 0x0 BYTE SWAP1 MSTORE8 POP PUSH1 0x4 SWAP5 SWAP1 SWAP5 SHR SWAP4 PUSH2 0x479F DUP2 PUSH2 0x55F3 JUMP JUMPDEST SWAP1 POP PUSH2 0x4731 JUMP JUMPDEST POP DUP4 ISZERO PUSH2 0x21FD JUMPI PUSH1 0x40 MLOAD PUSH3 0x461BCD PUSH1 0xE5 SHL DUP2 MSTORE PUSH1 0x20 PUSH1 0x4 DUP3 ADD DUP2 SWAP1 MSTORE PUSH1 0x24 DUP3 ADD MSTORE PUSH32 0x537472696E67733A20686578206C656E67746820696E73756666696369656E74 PUSH1 0x44 DUP3 ADD MSTORE PUSH1 0x64 ADD PUSH2 0xF2E JUMP JUMPDEST PUSH2 0x47FF DUP3 DUP3 PUSH2 0x2204 JUMP JUMPDEST PUSH2 0x183D JUMPI PUSH1 0x0 DUP3 DUP2 MSTORE PUSH1 0xC9 PUSH1 0x20 SWAP1 DUP2 MSTORE PUSH1 0x40 DUP1 DUP4 KECCAK256 PUSH1 0x1 PUSH1 0x1 PUSH1 0xA0 SHL SUB DUP6 AND DUP5 MSTORE SWAP1 SWAP2 MSTORE SWAP1 KECCAK256 DUP1 SLOAD PUSH1 0xFF NOT AND PUSH1 0x1 OR SWAP1 SSTORE PUSH2 0x4838 PUSH2 0xEA3 JUMP JUMPDEST PUSH1 0x1 PUSH1 0x1 PUSH1 0xA0 SHL SUB AND DUP2 PUSH1 0x1 PUSH1 0x1 PUSH1 0xA0 SHL SUB AND DUP4 PUSH32 0x2F8788117E7EFF1D82E926EC794901D17C78024A50270940304540A733656F0D PUSH1 0x40 MLOAD PUSH1 0x40 MLOAD DUP1 SWAP2 SUB SWAP1 LOG4 POP POP JUMP JUMPDEST PUSH1 0x0 PUSH2 0x21FD DUP4 PUSH1 0x1 PUSH1 0x1 PUSH1 0xA0 SHL SUB DUP5 AND PUSH2 0x4AAF JUMP JUMPDEST PUSH2 0x489B DUP3 DUP3 PUSH2 0x2204 JUMP JUMPDEST ISZERO PUSH2 0x183D JUMPI PUSH1 0x0 DUP3 DUP2 MSTORE PUSH1 0xC9 PUSH1 0x20 SWAP1 DUP2 MSTORE PUSH1 0x40 DUP1 DUP4 KECCAK256 PUSH1 0x1 PUSH1 0x1 PUSH1 0xA0 SHL SUB DUP6 AND DUP5 MSTORE SWAP1 SWAP2 MSTORE SWAP1 KECCAK256 DUP1 SLOAD PUSH1 0xFF NOT AND SWAP1 SSTORE PUSH2 0x48D2 PUSH2 0xEA3 JUMP JUMPDEST PUSH1 0x1 PUSH1 0x1 PUSH1 0xA0 SHL SUB AND DUP2 PUSH1 0x1 PUSH1 0x1 PUSH1 0xA0 SHL SUB AND DUP4 PUSH32 0xF6391F5C32D9C69D2A47EA670B442974B53935D1EDC7FD64EB21E047A839171B PUSH1 0x40 MLOAD PUSH1 0x40 MLOAD DUP1 SWAP2 SUB SWAP1 LOG4 POP POP JUMP JUMPDEST PUSH1 0x0 PUSH2 0x21FD DUP4 PUSH1 0x1 PUSH1 0x1 PUSH1 0xA0 SHL SUB DUP5 AND PUSH2 0x4AFE JUMP JUMPDEST PUSH1 0x0 DUP3 PUSH1 0x0 ADD DUP3 DUP2 SLOAD DUP2 LT PUSH2 0x4942 JUMPI PUSH2 0x4942 PUSH2 0x5687 JUMP JUMPDEST SWAP1 PUSH1 0x0 MSTORE PUSH1 0x20 PUSH1 0x0 KECCAK256 ADD SLOAD SWAP1 POP SWAP3 SWAP2 POP POP JUMP JUMPDEST PUSH1 0x0 SLOAD PUSH2 0x100 SWAP1 DIV PUSH1 0xFF AND PUSH2 0x1AF1 JUMPI PUSH1 0x40 MLOAD PUSH3 0x461BCD PUSH1 0xE5 SHL DUP2 MSTORE PUSH1 0x4 ADD PUSH2 0xF2E SWAP1 PUSH2 0x5438 JUMP JUMPDEST PUSH1 0x0 SLOAD PUSH2 0x100 SWAP1 DIV PUSH1 0xFF AND PUSH2 0x49A3 JUMPI PUSH1 0x40 MLOAD PUSH3 0x461BCD PUSH1 0xE5 SHL DUP2 MSTORE PUSH1 0x4 ADD PUSH2 0xF2E SWAP1 PUSH2 0x5438 JUMP JUMPDEST PUSH1 0x1 PUSH2 0x12D SSTORE JUMP JUMPDEST PUSH1 0x0 SLOAD PUSH2 0x100 SWAP1 DIV PUSH1 0xFF AND PUSH2 0x49D2 JUMPI PUSH1 0x40 MLOAD PUSH3 0x461BCD PUSH1 0xE5 SHL DUP2 MSTORE PUSH1 0x4 ADD PUSH2 0xF2E SWAP1 PUSH2 0x5438 JUMP JUMPDEST PUSH1 0x33 DUP1 SLOAD PUSH1 0xFF NOT AND SWAP1 SSTORE JUMP JUMPDEST PUSH1 0x0 DUP1 DUP1 PUSH2 0x2710 PUSH12 0xFFFFFFFFFFFFFFFFFFFFFFFF AND PUSH2 0x163 SLOAD DUP7 DUP7 PUSH2 0x4A03 SWAP2 SWAP1 PUSH2 0x55AC JUMP JUMPDEST PUSH2 0x4A0D SWAP2 SWAP1 PUSH2 0x558D JUMP JUMPDEST PUSH2 0x4A17 SWAP2 SWAP1 PUSH2 0x556B JUMP JUMPDEST SWAP1 POP PUSH1 0x0 PUSH2 0x2710 PUSH12 0xFFFFFFFFFFFFFFFFFFFFFFFF AND PUSH2 0x163 SLOAD DUP8 PUSH2 0x4A3B SWAP2 SWAP1 PUSH2 0x558D JUMP JUMPDEST PUSH2 0x4A45 SWAP2 SWAP1 PUSH2 0x556B JUMP JUMPDEST SWAP1 POP PUSH2 0x4A51 DUP2 DUP4 PUSH2 0x5553 JUMP JUMPDEST PUSH2 0x15F SLOAD PUSH1 0x1 PUSH1 0x1 PUSH1 0xA0 SHL SUB AND PUSH1 0x0 SWAP1 DUP2 MSTORE PUSH2 0x16E PUSH1 0x20 MSTORE PUSH1 0x40 DUP2 KECCAK256 DUP1 SLOAD SWAP1 SWAP2 SWAP1 PUSH2 0x4A7D SWAP1 DUP5 SWAP1 PUSH2 0x5553 JUMP JUMPDEST SWAP1 SWAP2 SSTORE POP DUP3 SWAP1 POP PUSH2 0x4A8E DUP8 DUP8 PUSH2 0x55AC JUMP JUMPDEST PUSH2 0x4A98 SWAP2 SWAP1 PUSH2 0x55AC JUMP JUMPDEST PUSH2 0x4AA2 DUP3 DUP9 PUSH2 0x55AC JUMP JUMPDEST SWAP4 POP SWAP4 POP POP POP SWAP3 POP SWAP3 SWAP1 POP JUMP JUMPDEST PUSH1 0x0 DUP2 DUP2 MSTORE PUSH1 0x1 DUP4 ADD PUSH1 0x20 MSTORE PUSH1 0x40 DUP2 KECCAK256 SLOAD PUSH2 0x4AF6 JUMPI POP DUP2 SLOAD PUSH1 0x1 DUP2 DUP2 ADD DUP5 SSTORE PUSH1 0x0 DUP5 DUP2 MSTORE PUSH1 0x20 DUP1 DUP3 KECCAK256 SWAP1 SWAP4 ADD DUP5 SWAP1 SSTORE DUP5 SLOAD DUP5 DUP3 MSTORE DUP3 DUP7 ADD SWAP1 SWAP4 MSTORE PUSH1 0x40 SWAP1 KECCAK256 SWAP2 SWAP1 SWAP2 SSTORE PUSH2 0xED7 JUMP JUMPDEST POP PUSH1 0x0 PUSH2 0xED7 JUMP JUMPDEST PUSH1 0x0 DUP2 DUP2 MSTORE PUSH1 0x1 DUP4 ADD PUSH1 0x20 MSTORE PUSH1 0x40 DUP2 KECCAK256 SLOAD DUP1 ISZERO PUSH2 0x4BE7 JUMPI PUSH1 0x0 PUSH2 0x4B22 PUSH1 0x1 DUP4 PUSH2 0x55AC JUMP JUMPDEST DUP6 SLOAD SWAP1 SWAP2 POP PUSH1 0x0 SWAP1 PUSH2 0x4B36 SWAP1 PUSH1 0x1 SWAP1 PUSH2 0x55AC JUMP JUMPDEST SWAP1 POP DUP2 DUP2 EQ PUSH2 0x4B9B JUMPI PUSH1 0x0 DUP7 PUSH1 0x0 ADD DUP3 DUP2 SLOAD DUP2 LT PUSH2 0x4B56 JUMPI PUSH2 0x4B56 PUSH2 0x5687 JUMP JUMPDEST SWAP1 PUSH1 0x0 MSTORE PUSH1 0x20 PUSH1 0x0 KECCAK256 ADD SLOAD SWAP1 POP DUP1 DUP8 PUSH1 0x0 ADD DUP5 DUP2 SLOAD DUP2 LT PUSH2 0x4B79 JUMPI PUSH2 0x4B79 PUSH2 0x5687 JUMP JUMPDEST PUSH1 0x0 SWAP2 DUP3 MSTORE PUSH1 0x20 DUP1 DUP4 KECCAK256 SWAP1 SWAP2 ADD SWAP3 SWAP1 SWAP3 SSTORE SWAP2 DUP3 MSTORE PUSH1 0x1 DUP9 ADD SWAP1 MSTORE PUSH1 0x40 SWAP1 KECCAK256 DUP4 SWAP1 SSTORE JUMPDEST DUP6 SLOAD DUP7 SWAP1 DUP1 PUSH2 0x4BAC JUMPI PUSH2 0x4BAC PUSH2 0x5671 JUMP JUMPDEST PUSH1 0x1 SWAP1 SUB DUP2 DUP2 SWAP1 PUSH1 0x0 MSTORE PUSH1 0x20 PUSH1 0x0 KECCAK256 ADD PUSH1 0x0 SWAP1 SSTORE SWAP1 SSTORE DUP6 PUSH1 0x1 ADD PUSH1 0x0 DUP7 DUP2 MSTORE PUSH1 0x20 ADD SWAP1 DUP2 MSTORE PUSH1 0x20 ADD PUSH1 0x0 KECCAK256 PUSH1 0x0 SWAP1 SSTORE PUSH1 0x1 SWAP4 POP POP POP POP PUSH2 0xED7 JUMP JUMPDEST PUSH1 0x0 SWAP2 POP POP PUSH2 0xED7 JUMP JUMPDEST DUP3 DUP1 SLOAD PUSH2 0x4BFD SWAP1 PUSH2 0x560A JUMP JUMPDEST SWAP1 PUSH1 0x0 MSTORE PUSH1 0x20 PUSH1 0x0 KECCAK256 SWAP1 PUSH1 0x1F ADD PUSH1 0x20 SWAP1 DIV DUP2 ADD SWAP3 DUP3 PUSH2 0x4C1F JUMPI PUSH1 0x0 DUP6 SSTORE PUSH2 0x4C65 JUMP JUMPDEST DUP3 PUSH1 0x1F LT PUSH2 0x4C38 JUMPI DUP1 MLOAD PUSH1 0xFF NOT AND DUP4 DUP1 ADD OR DUP6 SSTORE PUSH2 0x4C65 JUMP JUMPDEST DUP3 DUP1 ADD PUSH1 0x1 ADD DUP6 SSTORE DUP3 ISZERO PUSH2 0x4C65 JUMPI SWAP2 DUP3 ADD JUMPDEST DUP3 DUP2 GT ISZERO PUSH2 0x4C65 JUMPI DUP3 MLOAD DUP3 SSTORE SWAP2 PUSH1 0x20 ADD SWAP2 SWAP1 PUSH1 0x1 ADD SWAP1 PUSH2 0x4C4A JUMP JUMPDEST POP PUSH2 0x2F7C SWAP3 SWAP2 POP PUSH2 0x4CAB JUMP JUMPDEST DUP3 DUP1 SLOAD DUP3 DUP3 SSTORE SWAP1 PUSH1 0x0 MSTORE PUSH1 0x20 PUSH1 0x0 KECCAK256 SWAP1 DUP2 ADD SWAP3 DUP3 ISZERO PUSH2 0x4C65 JUMPI SWAP2 PUSH1 0x20 MUL DUP3 ADD DUP3 DUP2 GT ISZERO PUSH2 0x4C65 JUMPI DUP3 MLOAD DUP3 SSTORE SWAP2 PUSH1 0x20 ADD SWAP2 SWAP1 PUSH1 0x1 ADD SWAP1 PUSH2 0x4C4A JUMP JUMPDEST JUMPDEST DUP1 DUP3 GT ISZERO PUSH2 0x2F7C JUMPI PUSH1 0x0 DUP2 SSTORE PUSH1 0x1 ADD PUSH2 0x4CAC JUMP JUMPDEST DUP1 CALLDATALOAD PUSH1 0x1 PUSH1 0x1 PUSH1 0xA0 SHL SUB DUP2 AND DUP2 EQ PUSH2 0x4CD7 JUMPI PUSH1 0x0 DUP1 REVERT JUMPDEST SWAP2 SWAP1 POP JUMP JUMPDEST PUSH1 0x0 DUP3 PUSH1 0x1F DUP4 ADD SLT PUSH2 0x4CED JUMPI PUSH1 0x0 DUP1 REVERT JUMPDEST DUP2 CALLDATALOAD PUSH8 0xFFFFFFFFFFFFFFFF DUP2 GT ISZERO PUSH2 0x4D07 JUMPI PUSH2 0x4D07 PUSH2 0x569D JUMP JUMPDEST PUSH2 0x4D1A PUSH1 0x1F DUP3 ADD PUSH1 0x1F NOT AND PUSH1 0x20 ADD PUSH2 0x5522 JUMP JUMPDEST DUP2 DUP2 MSTORE DUP5 PUSH1 0x20 DUP4 DUP7 ADD ADD GT ISZERO PUSH2 0x4D2F JUMPI PUSH1 0x0 DUP1 REVERT JUMPDEST DUP2 PUSH1 0x20 DUP6 ADD PUSH1 0x20 DUP4 ADD CALLDATACOPY PUSH1 0x0 SWAP2 DUP2 ADD PUSH1 0x20 ADD SWAP2 SWAP1 SWAP2 MSTORE SWAP4 SWAP3 POP POP POP JUMP JUMPDEST PUSH1 0x0 PUSH1 0x20 DUP3 DUP5 SUB SLT ISZERO PUSH2 0x4D5E JUMPI PUSH1 0x0 DUP1 REVERT JUMPDEST PUSH2 0x21FD DUP3 PUSH2 0x4CC0 JUMP JUMPDEST PUSH1 0x0 DUP1 PUSH1 0x40 DUP4 DUP6 SUB SLT ISZERO PUSH2 0x4D7A JUMPI PUSH1 0x0 DUP1 REVERT JUMPDEST PUSH2 0x4D83 DUP4 PUSH2 0x4CC0 JUMP JUMPDEST SWAP2 POP PUSH2 0x4D91 PUSH1 0x20 DUP5 ADD PUSH2 0x4CC0 JUMP JUMPDEST SWAP1 POP SWAP3 POP SWAP3 SWAP1 POP JUMP JUMPDEST PUSH1 0x0 DUP1 PUSH1 0x0 PUSH1 0x60 DUP5 DUP7 SUB SLT ISZERO PUSH2 0x4DAF JUMPI PUSH1 0x0 DUP1 REVERT JUMPDEST PUSH2 0x4DB8 DUP5 PUSH2 0x4CC0 JUMP JUMPDEST SWAP3 POP PUSH2 0x4DC6 PUSH1 0x20 DUP6 ADD PUSH2 0x4CC0 JUMP JUMPDEST SWAP2 POP PUSH1 0x40 DUP5 ADD CALLDATALOAD SWAP1 POP SWAP3 POP SWAP3 POP SWAP3 JUMP JUMPDEST PUSH1 0x0 DUP1 PUSH1 0x0 DUP1 PUSH1 0x80 DUP6 DUP8 SUB SLT ISZERO PUSH2 0x4DEC JUMPI PUSH1 0x0 DUP1 REVERT JUMPDEST PUSH2 0x4DF5 DUP6 PUSH2 0x4CC0 JUMP JUMPDEST SWAP4 POP PUSH1 0x20 DUP6 ADD CALLDATALOAD SWAP3 POP PUSH1 0x40 DUP6 ADD CALLDATALOAD SWAP2 POP PUSH1 0x60 DUP6 ADD CALLDATALOAD PUSH8 0xFFFFFFFFFFFFFFFF DUP2 GT ISZERO PUSH2 0x4E1F JUMPI PUSH1 0x0 DUP1 REVERT JUMPDEST PUSH2 0x4E2B DUP8 DUP3 DUP9 ADD PUSH2 0x4CDC JUMP JUMPDEST SWAP2 POP POP SWAP3 SWAP6 SWAP2 SWAP5 POP SWAP3 POP JUMP JUMPDEST PUSH1 0x0 DUP1 PUSH1 0x40 DUP4 DUP6 SUB SLT ISZERO PUSH2 0x4E4A JUMPI PUSH1 0x0 DUP1 REVERT JUMPDEST DUP3 MLOAD PUSH8 0xFFFFFFFFFFFFFFFF DUP1 DUP3 GT ISZERO PUSH2 0x4E62 JUMPI PUSH1 0x0 DUP1 REVERT JUMPDEST DUP2 DUP6 ADD SWAP2 POP DUP6 PUSH1 0x1F DUP4 ADD SLT PUSH2 0x4E76 JUMPI PUSH1 0x0 DUP1 REVERT JUMPDEST DUP2 MLOAD PUSH1 0x20 DUP3 DUP3 GT ISZERO PUSH2 0x4E8A JUMPI PUSH2 0x4E8A PUSH2 0x569D JUMP JUMPDEST DUP2 PUSH1 0x5 SHL SWAP3 POP PUSH2 0x4E9B DUP2 DUP5 ADD PUSH2 0x5522 JUMP JUMPDEST DUP3 DUP2 MSTORE DUP2 DUP2 ADD SWAP1 DUP6 DUP4 ADD DUP6 DUP8 ADD DUP5 ADD DUP12 LT ISZERO PUSH2 0x4EB6 JUMPI PUSH1 0x0 DUP1 REVERT JUMPDEST PUSH1 0x0 SWAP7 POP JUMPDEST DUP5 DUP8 LT ISZERO PUSH2 0x4ED9 JUMPI DUP1 MLOAD DUP4 MSTORE PUSH1 0x1 SWAP7 SWAP1 SWAP7 ADD SWAP6 SWAP2 DUP4 ADD SWAP2 DUP4 ADD PUSH2 0x4EBB JUMP JUMPDEST POP SWAP8 SWAP1 SWAP2 ADD MLOAD SWAP7 SWAP9 SWAP7 SWAP8 POP POP POP POP POP POP POP JUMP JUMPDEST PUSH1 0x0 PUSH1 0x20 DUP3 DUP5 SUB SLT ISZERO PUSH2 0x4EFE JUMPI PUSH1 0x0 DUP1 REVERT JUMPDEST POP CALLDATALOAD SWAP2 SWAP1 POP JUMP JUMPDEST PUSH1 0x0 PUSH1 0x20 DUP3 DUP5 SUB SLT ISZERO PUSH2 0x4F17 JUMPI PUSH1 0x0 DUP1 REVERT JUMPDEST POP MLOAD SWAP2 SWAP1 POP JUMP JUMPDEST PUSH1 0x0 DUP1 PUSH1 0x40 DUP4 DUP6 SUB SLT ISZERO PUSH2 0x4F31 JUMPI PUSH1 0x0 DUP1 REVERT JUMPDEST DUP3 CALLDATALOAD SWAP2 POP PUSH2 0x4D91 PUSH1 0x20 DUP5 ADD PUSH2 0x4CC0 JUMP JUMPDEST PUSH1 0x0 DUP1 PUSH1 0x40 DUP4 DUP6 SUB SLT ISZERO PUSH2 0x4F54 JUMPI PUSH1 0x0 DUP1 REVERT JUMPDEST DUP3 CALLDATALOAD SWAP2 POP PUSH1 0x20 DUP4 ADD CALLDATALOAD PUSH8 0xFFFFFFFFFFFFFFFF DUP2 GT ISZERO PUSH2 0x4F72 JUMPI PUSH1 0x0 DUP1 REVERT JUMPDEST PUSH2 0x4F7E DUP6 DUP3 DUP7 ADD PUSH2 0x4CDC JUMP JUMPDEST SWAP2 POP POP SWAP3 POP SWAP3 SWAP1 POP JUMP JUMPDEST PUSH1 0x0 DUP1 PUSH1 0x40 DUP4 DUP6 SUB SLT ISZERO PUSH2 0x4F9B JUMPI PUSH1 0x0 DUP1 REVERT JUMPDEST POP POP DUP1 CALLDATALOAD SWAP3 PUSH1 0x20 SWAP1 SWAP2 ADD CALLDATALOAD SWAP2 POP JUMP JUMPDEST PUSH1 0x0 DUP1 PUSH1 0x0 PUSH1 0x60 DUP5 DUP7 SUB SLT ISZERO PUSH2 0x4FBF JUMPI PUSH1 0x0 DUP1 REVERT JUMPDEST POP POP DUP2 CALLDATALOAD SWAP4 PUSH1 0x20 DUP4 ADD CALLDATALOAD SWAP4 POP PUSH1 0x40 SWAP1 SWAP3 ADD CALLDATALOAD SWAP2 SWAP1 POP JUMP JUMPDEST PUSH1 0x0 PUSH1 0x20 DUP3 DUP5 SUB SLT ISZERO PUSH2 0x4FE8 JUMPI PUSH1 0x0 DUP1 REVERT JUMPDEST DUP2 CALLDATALOAD PUSH1 0x1 PUSH1 0x1 PUSH1 0xE0 SHL SUB NOT DUP2 AND DUP2 EQ PUSH2 0x21FD JUMPI PUSH1 0x0 DUP1 REVERT JUMPDEST PUSH1 0x0 PUSH1 0x20 DUP3 DUP5 SUB SLT ISZERO PUSH2 0x5012 JUMPI PUSH1 0x0 DUP1 REVERT JUMPDEST DUP2 CALLDATALOAD PUSH8 0xFFFFFFFFFFFFFFFF DUP2 GT ISZERO PUSH2 0x5029 JUMPI PUSH1 0x0 DUP1 REVERT JUMPDEST PUSH2 0x37BE DUP5 DUP3 DUP6 ADD PUSH2 0x4CDC JUMP JUMPDEST PUSH1 0x0 DUP1 PUSH1 0x40 DUP4 DUP6 SUB SLT ISZERO PUSH2 0x5048 JUMPI PUSH1 0x0 DUP1 REVERT JUMPDEST DUP3 CALLDATALOAD SWAP2 POP PUSH1 0x20 DUP4 ADD CALLDATALOAD PUSH1 0x2 DUP2 LT PUSH2 0x505E JUMPI PUSH1 0x0 DUP1 REVERT JUMPDEST DUP1 SWAP2 POP POP SWAP3 POP SWAP3 SWAP1 POP JUMP JUMPDEST PUSH1 0x0 DUP1 PUSH1 0x0 DUP1 PUSH1 0x0 DUP1 PUSH1 0x0 DUP1 PUSH2 0x100 DUP10 DUP12 SUB SLT ISZERO PUSH2 0x5086 JUMPI PUSH1 0x0 DUP1 REVERT JUMPDEST DUP9 CALLDATALOAD SWAP8 POP PUSH1 0x20 DUP10 ADD CALLDATALOAD SWAP7 POP PUSH1 0x40 DUP10 ADD CALLDATALOAD SWAP6 POP PUSH2 0x50A4 PUSH1 0x60 DUP11 ADD PUSH2 0x4CC0 JUMP JUMPDEST SWAP5 POP PUSH2 0x50B2 PUSH1 0x80 DUP11 ADD PUSH2 0x4CC0 JUMP JUMPDEST SWAP4 POP PUSH2 0x50C0 PUSH1 0xA0 DUP11 ADD PUSH2 0x4CC0 JUMP JUMPDEST SWAP3 POP PUSH2 0x50CE PUSH1 0xC0 DUP11 ADD PUSH2 0x4CC0 JUMP JUMPDEST SWAP2 POP PUSH1 0xE0 DUP10 ADD CALLDATALOAD PUSH8 0xFFFFFFFFFFFFFFFF DUP2 GT ISZERO PUSH2 0x50EA JUMPI PUSH1 0x0 DUP1 REVERT JUMPDEST PUSH2 0x50F6 DUP12 DUP3 DUP13 ADD PUSH2 0x4CDC JUMP JUMPDEST SWAP2 POP POP SWAP3 SWAP6 SWAP9 POP SWAP3 SWAP6 SWAP9 SWAP1 SWAP4 SWAP7 POP JUMP JUMPDEST PUSH1 0x0 DUP2 MLOAD DUP1 DUP5 MSTORE PUSH2 0x511E DUP2 PUSH1 0x20 DUP7 ADD PUSH1 0x20 DUP7 ADD PUSH2 0x55C3 JUMP JUMPDEST PUSH1 0x1F ADD PUSH1 0x1F NOT AND SWAP3 SWAP1 SWAP3 ADD PUSH1 0x20 ADD SWAP3 SWAP2 POP POP JUMP JUMPDEST PUSH1 0x3 DUP2 LT PUSH2 0x5142 JUMPI PUSH2 0x5142 PUSH2 0x565B JUMP JUMPDEST SWAP1 MSTORE JUMP JUMPDEST PUSH1 0x0 DUP2 MLOAD PUSH2 0x5158 DUP2 DUP6 PUSH1 0x20 DUP7 ADD PUSH2 0x55C3 JUMP JUMPDEST SWAP3 SWAP1 SWAP3 ADD SWAP3 SWAP2 POP POP JUMP JUMPDEST PUSH1 0x0 DUP1 DUP5 SLOAD DUP2 PUSH1 0x1 DUP3 DUP2 SHR SWAP2 POP DUP1 DUP4 AND DUP1 PUSH2 0x517E JUMPI PUSH1 0x7F DUP4 AND SWAP3 POP JUMPDEST PUSH1 0x20 DUP1 DUP5 LT DUP3 EQ ISZERO PUSH2 0x519E JUMPI PUSH4 0x4E487B71 PUSH1 0xE0 SHL DUP7 MSTORE PUSH1 0x22 PUSH1 0x4 MSTORE PUSH1 0x24 DUP7 REVERT JUMPDEST DUP2 DUP1 ISZERO PUSH2 0x51B2 JUMPI PUSH1 0x1 DUP2 EQ PUSH2 0x51C3 JUMPI PUSH2 0x51F0 JUMP JUMPDEST PUSH1 0xFF NOT DUP7 AND DUP10 MSTORE DUP5 DUP10 ADD SWAP7 POP PUSH2 0x51F0 JUMP JUMPDEST PUSH1 0x0 DUP12 DUP2 MSTORE PUSH1 0x20 SWAP1 KECCAK256 PUSH1 0x0 JUMPDEST DUP7 DUP2 LT ISZERO PUSH2 0x51E8 JUMPI DUP2 SLOAD DUP12 DUP3 ADD MSTORE SWAP1 DUP6 ADD SWAP1 DUP4 ADD PUSH2 0x51CF JUMP JUMPDEST POP POP DUP5 DUP10 ADD SWAP7 POP JUMPDEST POP POP POP POP POP POP PUSH2 0x5200 DUP2 DUP6 PUSH2 0x5146 JUMP JUMPDEST SWAP6 SWAP5 POP POP POP POP POP JUMP JUMPDEST PUSH32 0x416363657373436F6E74726F6C3A206163636F756E7420000000000000000000 DUP2 MSTORE PUSH1 0x0 DUP4 MLOAD PUSH2 0x5241 DUP2 PUSH1 0x17 DUP6 ADD PUSH1 0x20 DUP9 ADD PUSH2 0x55C3 JUMP JUMPDEST PUSH17 0x1034B99036B4B9B9B4B733903937B6329 PUSH1 0x7D SHL PUSH1 0x17 SWAP2 DUP5 ADD SWAP2 DUP3 ADD MSTORE DUP4 MLOAD PUSH2 0x5272 DUP2 PUSH1 0x28 DUP5 ADD PUSH1 0x20 DUP9 ADD PUSH2 0x55C3 JUMP JUMPDEST ADD PUSH1 0x28 ADD SWAP5 SWAP4 POP POP POP POP JUMP JUMPDEST PUSH1 0x40 DUP1 DUP3 MSTORE DUP4 MLOAD SWAP1 DUP3 ADD DUP2 SWAP1 MSTORE PUSH1 0x0 SWAP1 PUSH1 0x20 SWAP1 PUSH1 0x60 DUP5 ADD SWAP1 DUP3 DUP8 ADD DUP5 JUMPDEST DUP3 DUP2 LT ISZERO PUSH2 0x52B7 JUMPI DUP2 MLOAD DUP5 MSTORE SWAP3 DUP5 ADD SWAP3 SWAP1 DUP5 ADD SWAP1 PUSH1 0x1 ADD PUSH2 0x529B JUMP JUMPDEST POP POP POP SWAP3 ADD SWAP3 SWAP1 SWAP3 MSTORE SWAP3 SWAP2 POP POP JUMP JUMPDEST PUSH1 0x20 DUP2 MSTORE PUSH1 0x0 PUSH2 0x21FD PUSH1 0x20 DUP4 ADD DUP5 PUSH2 0x5106 JUMP JUMPDEST PUSH1 0x40 DUP2 MSTORE PUSH1 0x0 PUSH2 0x52EC PUSH1 0x40 DUP4 ADD DUP6 PUSH2 0x5106 JUMP JUMPDEST SWAP1 POP PUSH1 0x1 DUP1 PUSH1 0xA0 SHL SUB DUP4 AND PUSH1 0x20 DUP4 ADD MSTORE SWAP4 SWAP3 POP POP POP JUMP JUMPDEST PUSH2 0x180 DUP2 MSTORE PUSH1 0x0 PUSH2 0x5318 PUSH2 0x180 DUP4 ADD DUP16 PUSH2 0x5106 JUMP JUMPDEST DUP3 DUP2 SUB PUSH1 0x20 DUP5 ADD MSTORE PUSH2 0x532A DUP2 DUP16 PUSH2 0x5106 JUMP JUMPDEST PUSH1 0x40 DUP5 ADD DUP15 SWAP1 MSTORE PUSH1 0x60 DUP5 ADD DUP14 SWAP1 MSTORE PUSH1 0x1 PUSH1 0x1 PUSH1 0xA0 SHL SUB DUP13 DUP2 AND PUSH1 0x80 DUP7 ADD MSTORE DUP12 AND PUSH1 0xA0 DUP6 ADD MSTORE PUSH1 0xC0 DUP5 ADD DUP11 SWAP1 MSTORE PUSH1 0xE0 DUP5 ADD DUP10 SWAP1 MSTORE SWAP2 POP POP PUSH1 0x4 DUP7 LT PUSH2 0x5370 JUMPI PUSH2 0x5370 PUSH2 0x565B JUMP JUMPDEST DUP6 PUSH2 0x100 DUP4 ADD MSTORE DUP5 PUSH2 0x120 DUP4 ADD MSTORE PUSH2 0x538C PUSH2 0x140 DUP4 ADD DUP6 PUSH2 0x5132 JUMP JUMPDEST DUP3 PUSH2 0x160 DUP4 ADD MSTORE SWAP14 SWAP13 POP POP POP POP POP POP POP POP POP POP POP POP POP JUMP JUMPDEST PUSH1 0x60 DUP2 MSTORE PUSH1 0x0 PUSH2 0x53B7 PUSH1 0x60 DUP4 ADD DUP7 PUSH2 0x5106 JUMP JUMPDEST PUSH1 0x20 DUP4 ADD SWAP5 SWAP1 SWAP5 MSTORE POP PUSH1 0x40 ADD MSTORE SWAP2 SWAP1 POP JUMP JUMPDEST PUSH1 0xC0 DUP2 MSTORE PUSH1 0x0 PUSH2 0x53DC PUSH1 0xC0 DUP4 ADD DUP10 PUSH2 0x5106 JUMP JUMPDEST PUSH1 0x20 DUP4 ADD SWAP8 SWAP1 SWAP8 MSTORE POP PUSH1 0x40 DUP2 ADD SWAP5 SWAP1 SWAP5 MSTORE PUSH1 0x1 PUSH1 0x1 PUSH1 0xA0 SHL SUB SWAP3 SWAP1 SWAP3 AND PUSH1 0x60 DUP5 ADD MSTORE PUSH1 0x80 DUP4 ADD MSTORE PUSH1 0xA0 SWAP1 SWAP2 ADD MSTORE SWAP2 SWAP1 POP JUMP JUMPDEST PUSH1 0x20 DUP1 DUP3 MSTORE PUSH1 0x10 SWAP1 DUP3 ADD MSTORE PUSH16 0x14185D5CD8589B194E881C185D5CD959 PUSH1 0x82 SHL PUSH1 0x40 DUP3 ADD MSTORE PUSH1 0x60 ADD SWAP1 JUMP JUMPDEST PUSH1 0x20 DUP1 DUP3 MSTORE PUSH1 0x2B SWAP1 DUP3 ADD MSTORE PUSH32 0x496E697469616C697A61626C653A20636F6E7472616374206973206E6F742069 PUSH1 0x40 DUP3 ADD MSTORE PUSH11 0x6E697469616C697A696E67 PUSH1 0xA8 SHL PUSH1 0x60 DUP3 ADD MSTORE PUSH1 0x80 ADD SWAP1 JUMP JUMPDEST PUSH1 0x20 DUP1 DUP3 MSTORE PUSH1 0x1F SWAP1 DUP3 ADD MSTORE PUSH32 0x5265656E7472616E637947756172643A207265656E7472616E742063616C6C00 PUSH1 0x40 DUP3 ADD MSTORE PUSH1 0x60 ADD SWAP1 JUMP JUMPDEST DUP4 DUP2 MSTORE DUP3 PUSH1 0x20 DUP3 ADD MSTORE PUSH1 0x60 PUSH1 0x40 DUP3 ADD MSTORE PUSH1 0x0 PUSH2 0x5200 PUSH1 0x60 DUP4 ADD DUP5 PUSH2 0x5106 JUMP JUMPDEST DUP3 DUP2 MSTORE PUSH1 0x40 PUSH1 0x20 DUP3 ADD MSTORE PUSH1 0x0 PUSH2 0x37BE PUSH1 0x40 DUP4 ADD DUP5 PUSH2 0x5106 JUMP JUMPDEST DUP5 DUP2 MSTORE DUP4 PUSH1 0x20 DUP3 ADD MSTORE PUSH1 0x80 PUSH1 0x40 DUP3 ADD MSTORE PUSH1 0x0 PUSH2 0x5511 PUSH1 0x80 DUP4 ADD DUP6 PUSH2 0x5106 JUMP JUMPDEST SWAP1 POP DUP3 PUSH1 0x60 DUP4 ADD MSTORE SWAP6 SWAP5 POP POP POP POP POP JUMP JUMPDEST PUSH1 0x40 MLOAD PUSH1 0x1F DUP3 ADD PUSH1 0x1F NOT AND DUP2 ADD PUSH8 0xFFFFFFFFFFFFFFFF DUP2 GT DUP3 DUP3 LT OR ISZERO PUSH2 0x554B JUMPI PUSH2 0x554B PUSH2 0x569D JUMP JUMPDEST PUSH1 0x40 MSTORE SWAP2 SWAP1 POP JUMP JUMPDEST PUSH1 0x0 DUP3 NOT DUP3 GT ISZERO PUSH2 0x5566 JUMPI PUSH2 0x5566 PUSH2 0x5645 JUMP JUMPDEST POP ADD SWAP1 JUMP JUMPDEST PUSH1 0x0 DUP3 PUSH2 0x5588 JUMPI PUSH4 0x4E487B71 PUSH1 0xE0 SHL PUSH1 0x0 MSTORE PUSH1 0x12 PUSH1 0x4 MSTORE PUSH1 0x24 PUSH1 0x0 REVERT JUMPDEST POP DIV SWAP1 JUMP JUMPDEST PUSH1 0x0 DUP2 PUSH1 0x0 NOT DIV DUP4 GT DUP3 ISZERO ISZERO AND ISZERO PUSH2 0x55A7 JUMPI PUSH2 0x55A7 PUSH2 0x5645 JUMP JUMPDEST POP MUL SWAP1 JUMP JUMPDEST PUSH1 0x0 DUP3 DUP3 LT ISZERO PUSH2 0x55BE JUMPI PUSH2 0x55BE PUSH2 0x5645 JUMP JUMPDEST POP SUB SWAP1 JUMP JUMPDEST PUSH1 0x0 JUMPDEST DUP4 DUP2 LT ISZERO PUSH2 0x55DE JUMPI DUP2 DUP2 ADD MLOAD DUP4 DUP3 ADD MSTORE PUSH1 0x20 ADD PUSH2 0x55C6 JUMP JUMPDEST DUP4 DUP2 GT ISZERO PUSH2 0x55ED JUMPI PUSH1 0x0 DUP5 DUP5 ADD MSTORE JUMPDEST POP POP POP POP JUMP JUMPDEST PUSH1 0x0 DUP2 PUSH2 0x5602 JUMPI PUSH2 0x5602 PUSH2 0x5645 JUMP JUMPDEST POP PUSH1 0x0 NOT ADD SWAP1 JUMP JUMPDEST PUSH1 0x1 DUP2 DUP2 SHR SWAP1 DUP3 AND DUP1 PUSH2 0x561E JUMPI PUSH1 0x7F DUP3 AND SWAP2 POP JUMPDEST PUSH1 0x20 DUP3 LT DUP2 EQ ISZERO PUSH2 0x563F JUMPI PUSH4 0x4E487B71 PUSH1 0xE0 SHL PUSH1 0x0 MSTORE PUSH1 0x22 PUSH1 0x4 MSTORE PUSH1 0x24 PUSH1 0x0 REVERT JUMPDEST POP SWAP2 SWAP1 POP JUMP JUMPDEST PUSH4 0x4E487B71 PUSH1 0xE0 SHL PUSH1 0x0 MSTORE PUSH1 0x11 PUSH1 0x4 MSTORE PUSH1 0x24 PUSH1 0x0 REVERT JUMPDEST PUSH4 0x4E487B71 PUSH1 0xE0 SHL PUSH1 0x0 MSTORE PUSH1 0x21 PUSH1 0x4 MSTORE PUSH1 0x24 PUSH1 0x0 REVERT JUMPDEST PUSH4 0x4E487B71 PUSH1 0xE0 SHL PUSH1 0x0 MSTORE PUSH1 0x31 PUSH1 0x4 MSTORE PUSH1 0x24 PUSH1 0x0 REVERT JUMPDEST PUSH4 0x4E487B71 PUSH1 0xE0 SHL PUSH1 0x0 MSTORE PUSH1 0x32 PUSH1 0x4 MSTORE PUSH1 0x24 PUSH1 0x0 REVERT JUMPDEST PUSH4 0x4E487B71 PUSH1 0xE0 SHL PUSH1 0x0 MSTORE PUSH1 0x41 PUSH1 0x4 MSTORE PUSH1 0x24 PUSH1 0x0 REVERT INVALID STOP CALLDATASIZE PUSH3 0x4AFD4A 0xC1 0x4E 0x2E 0xBE SWAP12 PUSH9 0xA6EC0C6E4F6BF5BDE2 SWAP10 SWAP11 PUSH2 0xE1FE 0xC0 DUP6 0xCA DUP7 PUSH10 0x7DA26469706673582212 KECCAK256 0xD2 LOG2 0xDF 0xA5 SLT MULMOD 0xE1 0xC6 0xB0 DIFFICULTY ISZERO CALLDATACOPY NUMBER SWAP12 DUP9 BALANCE 0x2D NUMBER MLOAD DUP1 DUP1 0x4A PUSH16 0xFE999AF01F0F3D24A764736F6C634300 ADDMOD SMOD STOP CALLER "
		},
		"gasEstimates": {
			"creation": {
				"codeDepositCost": "4456200",
				"executionCost": "5181",
				"totalCost": "4461381"
			},
			"external": {
				"DEFAULT_ADMIN_ROLE()": "263",
				"GOVERNANCE_ROLE()": "327",
				"balance()": "infinite",
				"baseURI()": "infinite",
				"blockUser(address)": "infinite",
				"checkBlocked(address,address)": "infinite",
				"checkFollower(address)": "5097",
				"checkWhitelist(address,address)": "infinite",
				"claimBackMessageValue(bytes32)": "infinite",
				"claimBackTipValue(bytes32)": "infinite",
				"createMessage(address,uint256,uint256,string)": "infinite",
				"createPost(string)": "infinite",
				"createPostTip(bytes32)": "infinite",
				"createResponse(bytes32,string)": "infinite",
				"createTip(bytes32)": "infinite",
				"feeCollector()": "2470",
				"feeNumerator()": "2428",
				"followUser(address)": "infinite",
				"gePublicMessageIds(uint256,uint256)": "infinite",
				"getPostIds(uint256,uint256)": "infinite",
				"getPostTipIds(uint256,uint256)": "infinite",
				"getPrivateMessageIds(uint256,uint256)": "infinite",
				"getRoleAdmin(bytes32)": "2601",
				"getRoleMember(bytes32,uint256)": "infinite",
				"getRoleMemberCount(bytes32)": "infinite",
				"getTipIds(uint256,uint256)": "infinite",
				"getTipIdsOfMessage(bytes32,uint256,uint256)": "infinite",
				"getTipIdsOfPost(bytes32,uint256,uint256)": "infinite",
				"grantRole(bytes32,address)": "infinite",
				"hasRole(bytes32,address)": "2809",
				"initialize(uint256,uint256,uint256,address,address,address,address,string)": "infinite",
				"isTrustedForwarder(address)": "2637",
				"markReponse(bytes32,uint256)": "infinite",
				"messages(bytes32)": "infinite",
				"minTimeLock()": "2407",
				"minimumBid(uint256)": "2571",
				"nftContract()": "2470",
				"pause()": "infinite",
				"paused()": "2383",
				"postIds(uint256)": "4687",
				"postMinimumBid()": "2385",
				"postTipIds(uint256)": "4666",
				"postTips(bytes32)": "8995",
				"posts(bytes32)": "infinite",
				"privateMessageIds(uint256)": "4687",
				"privateMinimumBid()": "2362",
				"publicMessageIds(uint256)": "4688",
				"publicMinimumBid()": "2363",
				"recipientUpFront()": "2406",
				"renounceRole(bytes32,address)": "infinite",
				"revokeRole(bytes32,address)": "infinite",
				"setBaseURI(string)": "infinite",
				"setMinimumBid(uint256,uint8)": "infinite",
				"setNFTContract(address)": "infinite",
				"setPostMinimumBid(uint256)": "infinite",
				"setRecipientUpFront(uint256)": "infinite",
				"setThresholdFactorForSplit(uint256)": "infinite",
				"setTrustedForwarder(address)": "infinite",
				"setUserMinimumBid(uint256,uint8)": "infinite",
				"supportsInterface(bytes4)": "infinite",
				"thresholdFactorForSplit()": "2385",
				"tipIds(uint256)": "4664",
				"tips(bytes32)": "11148",
				"transfer(uint256,address)": "infinite",
				"transferPost(bytes32,address)": "infinite",
				"unBlockUser(address)": "infinite",
				"unWhitelistUser(address)": "infinite",
				"unfollowUser(address)": "infinite",
				"unpause()": "infinite",
				"uri(string)": "infinite",
				"userBalance()": "4747",
				"userMinimumBid(address,address,uint256)": "infinite",
				"users(address)": "infinite",
				"whitelistUser(address)": "infinite",
				"withdraw(uint256)": "infinite"
			},
			"internal": {
				"_createMessage(address,address,uint256,uint256,uint256,string memory)": "infinite",
				"_createResponse(bytes32,string memory,uint256)": "infinite",
				"_feeDenominator()": "infinite",
				"_msgData()": "infinite",
				"_msgSender()": "2217",
				"_userPrivateMinimumBid(address)": "4423",
				"_userPublicMinimumBid(address)": "4411",
				"_valueDeduction(uint256,uint256)": "infinite",
				"mintNFTforAnswer(address,string memory)": "infinite"
			}
		},
		"methodIdentifiers": {
			"DEFAULT_ADMIN_ROLE()": "a217fddf",
			"GOVERNANCE_ROLE()": "f36c8f5c",
			"balance()": "b69ef8a8",
			"baseURI()": "6c0360eb",
			"blockUser(address)": "3da01325",
			"checkBlocked(address,address)": "2c8d6fd6",
			"checkFollower(address)": "ef5798ef",
			"checkWhitelist(address,address)": "dc1a0911",
			"claimBackMessageValue(bytes32)": "83579125",
			"claimBackTipValue(bytes32)": "f224aa4f",
			"createMessage(address,uint256,uint256,string)": "20d4f41b",
			"createPost(string)": "c7303c61",
			"createPostTip(bytes32)": "a9a3aa83",
			"createResponse(bytes32,string)": "d095f68e",
			"createTip(bytes32)": "a740d68e",
			"feeCollector()": "c415b95c",
			"feeNumerator()": "e86dea4a",
			"followUser(address)": "a70806f7",
			"gePublicMessageIds(uint256,uint256)": "ca05249f",
			"getPostIds(uint256,uint256)": "49e03502",
			"getPostTipIds(uint256,uint256)": "10f5ff3e",
			"getPrivateMessageIds(uint256,uint256)": "5ad1c6e5",
			"getRoleAdmin(bytes32)": "248a9ca3",
			"getRoleMember(bytes32,uint256)": "9010d07c",
			"getRoleMemberCount(bytes32)": "ca15c873",
			"getTipIds(uint256,uint256)": "f1096c21",
			"getTipIdsOfMessage(bytes32,uint256,uint256)": "b12ea2a3",
			"getTipIdsOfPost(bytes32,uint256,uint256)": "3e11b5dc",
			"grantRole(bytes32,address)": "2f2ff15d",
			"hasRole(bytes32,address)": "91d14854",
			"initialize(uint256,uint256,uint256,address,address,address,address,string)": "a1abb1db",
			"isTrustedForwarder(address)": "572b6c05",
			"markReponse(bytes32,uint256)": "b1df7383",
			"messages(bytes32)": "2bbd59ca",
			"minTimeLock()": "d00a818f",
			"minimumBid(uint256)": "fea32600",
			"nftContract()": "d56d229d",
			"pause()": "8456cb59",
			"paused()": "5c975abb",
			"postIds(uint256)": "50cde8ef",
			"postMinimumBid()": "4f09c912",
			"postTipIds(uint256)": "98f17c96",
			"postTips(bytes32)": "1b1456d6",
			"posts(bytes32)": "dff72dec",
			"privateMessageIds(uint256)": "3dc9979e",
			"privateMinimumBid()": "79ced747",
			"publicMessageIds(uint256)": "a02f3c78",
			"publicMinimumBid()": "4d31a6ed",
			"recipientUpFront()": "c0ef21ee",
			"renounceRole(bytes32,address)": "36568abe",
			"revokeRole(bytes32,address)": "d547741f",
			"setBaseURI(string)": "55f804b3",
			"setMinimumBid(uint256,uint8)": "09b82cfd",
			"setNFTContract(address)": "a7ccabdf",
			"setPostMinimumBid(uint256)": "4d1ccb62",
			"setRecipientUpFront(uint256)": "4b8e7a34",
			"setThresholdFactorForSplit(uint256)": "049c067a",
			"setTrustedForwarder(address)": "da742228",
			"setUserMinimumBid(uint256,uint8)": "94a34045",
			"supportsInterface(bytes4)": "01ffc9a7",
			"thresholdFactorForSplit()": "aafa3061",
			"tipIds(uint256)": "d3e15bda",
			"tips(bytes32)": "602bf227",
			"transfer(uint256,address)": "b7760c8f",
			"transferPost(bytes32,address)": "d3cd7b9b",
			"unBlockUser(address)": "65f898e1",
			"unWhitelistUser(address)": "190c69a2",
			"unfollowUser(address)": "f107cfcb",
			"unpause()": "3f4ba83a",
			"uri(string)": "0de72b7e",
			"userBalance()": "bf152765",
			"userMinimumBid(address,address,uint256)": "d9fffc82",
			"users(address)": "a87430ba",
			"whitelistUser(address)": "4a4c560d",
			"withdraw(uint256)": "2e1a7d4d"
		}
	},
	"abi": [
		{
			"anonymous": false,
			"inputs": [
				{
					"indexed": true,
					"internalType": "address",
					"name": "sender",
					"type": "address"
				},
				{
					"indexed": false,
					"internalType": "uint256",
					"name": "value",
					"type": "uint256"
				}
			],
			"name": "AmountReceived",
			"type": "event"
		},
		{
			"anonymous": false,
			"inputs": [
				{
					"indexed": true,
					"internalType": "address",
					"name": "blocker",
					"type": "address"
				},
				{
					"indexed": true,
					"internalType": "address",
					"name": "blocked",
					"type": "address"
				}
			],
			"name": "Blocked",
			"type": "event"
		},
		{
			"anonymous": false,
			"inputs": [
				{
					"indexed": true,
					"internalType": "address",
					"name": "followed",
					"type": "address"
				},
				{
					"indexed": true,
					"internalType": "address",
					"name": "follower",
					"type": "address"
				}
			],
			"name": "Follow",
			"type": "event"
		},
		{
			"anonymous": false,
			"inputs": [
				{
					"indexed": true,
					"internalType": "address",
					"name": "recipient",
					"type": "address"
				},
				{
					"indexed": true,
					"internalType": "bytes32",
					"name": "messageId",
					"type": "bytes32"
				},
				{
					"indexed": true,
					"internalType": "address",
					"name": "createdBy",
					"type": "address"
				},
				{
					"indexed": false,
					"internalType": "uint256",
					"name": "value",
					"type": "uint256"
				},
				{
					"indexed": false,
					"internalType": "uint256",
					"name": "expiryTime",
					"type": "uint256"
				},
				{
					"indexed": false,
					"internalType": "string",
					"name": "link",
					"type": "string"
				},
				{
					"indexed": false,
					"internalType": "uint256",
					"name": "messageType",
					"type": "uint256"
				}
			],
			"name": "MessageCreated",
			"type": "event"
		},
		{
			"anonymous": false,
			"inputs": [
				{
					"indexed": true,
					"internalType": "bytes32",
					"name": "messageId",
					"type": "bytes32"
				},
				{
					"indexed": true,
					"internalType": "address",
					"name": "createdBy",
					"type": "address"
				},
				{
					"indexed": false,
					"internalType": "uint256",
					"name": "value",
					"type": "uint256"
				}
			],
			"name": "MessageValueClaimed",
			"type": "event"
		},
		{
			"anonymous": false,
			"inputs": [
				{
					"indexed": false,
					"internalType": "address",
					"name": "account",
					"type": "address"
				}
			],
			"name": "Paused",
			"type": "event"
		},
		{
			"anonymous": false,
			"inputs": [
				{
					"indexed": true,
					"internalType": "bytes32",
					"name": "postId",
					"type": "bytes32"
				},
				{
					"indexed": true,
					"internalType": "address",
					"name": "createdBy",
					"type": "address"
				},
				{
					"indexed": false,
					"internalType": "uint256",
					"name": "value",
					"type": "uint256"
				},
				{
					"indexed": false,
					"internalType": "string",
					"name": "link",
					"type": "string"
				}
			],
			"name": "PostCreated",
			"type": "event"
		},
		{
			"anonymous": false,
			"inputs": [
				{
					"indexed": true,
					"internalType": "bytes32",
					"name": "postId",
					"type": "bytes32"
				},
				{
					"indexed": true,
					"internalType": "bytes32",
					"name": "postTipId",
					"type": "bytes32"
				},
				{
					"indexed": true,
					"internalType": "address",
					"name": "createdBy",
					"type": "address"
				},
				{
					"indexed": false,
					"internalType": "uint256",
					"name": "value",
					"type": "uint256"
				}
			],
			"name": "PostTipCreated",
			"type": "event"
		},
		{
			"anonymous": false,
			"inputs": [
				{
					"indexed": true,
					"internalType": "bytes32",
					"name": "postId",
					"type": "bytes32"
				},
				{
					"indexed": true,
					"internalType": "address",
					"name": "transferFrom",
					"type": "address"
				},
				{
					"indexed": true,
					"internalType": "address",
					"name": "transferTo",
					"type": "address"
				}
			],
			"name": "PostTransferred",
			"type": "event"
		},
		{
			"anonymous": false,
			"inputs": [
				{
					"indexed": true,
					"internalType": "bytes32",
					"name": "messageId",
					"type": "bytes32"
				},
				{
					"indexed": true,
					"internalType": "address",
					"name": "owner",
					"type": "address"
				},
				{
					"indexed": true,
					"internalType": "address",
					"name": "creator",
					"type": "address"
				},
				{
					"indexed": false,
					"internalType": "string",
					"name": "answerLink",
					"type": "string"
				},
				{
					"indexed": false,
					"internalType": "uint256",
					"name": "responseValue",
					"type": "uint256"
				},
				{
					"indexed": false,
					"internalType": "uint256",
					"name": "value",
					"type": "uint256"
				}
			],
			"name": "ResponseCreated",
			"type": "event"
		},
		{
			"anonymous": false,
			"inputs": [
				{
					"indexed": true,
					"internalType": "bytes32",
					"name": "messageId",
					"type": "bytes32"
				},
				{
					"indexed": true,
					"internalType": "address",
					"name": "owner",
					"type": "address"
				},
				{
					"indexed": true,
					"internalType": "address",
					"name": "answerer",
					"type": "address"
				},
				{
					"indexed": false,
					"internalType": "uint256",
					"name": "responseType",
					"type": "uint256"
				}
			],
			"name": "ResponseMarked",
			"type": "event"
		},
		{
			"anonymous": false,
			"inputs": [
				{
					"indexed": true,
					"internalType": "bytes32",
					"name": "role",
					"type": "bytes32"
				},
				{
					"indexed": true,
					"internalType": "bytes32",
					"name": "previousAdminRole",
					"type": "bytes32"
				},
				{
					"indexed": true,
					"internalType": "bytes32",
					"name": "newAdminRole",
					"type": "bytes32"
				}
			],
			"name": "RoleAdminChanged",
			"type": "event"
		},
		{
			"anonymous": false,
			"inputs": [
				{
					"indexed": true,
					"internalType": "bytes32",
					"name": "role",
					"type": "bytes32"
				},
				{
					"indexed": true,
					"internalType": "address",
					"name": "account",
					"type": "address"
				},
				{
					"indexed": true,
					"internalType": "address",
					"name": "sender",
					"type": "address"
				}
			],
			"name": "RoleGranted",
			"type": "event"
		},
		{
			"anonymous": false,
			"inputs": [
				{
					"indexed": true,
					"internalType": "bytes32",
					"name": "role",
					"type": "bytes32"
				},
				{
					"indexed": true,
					"internalType": "address",
					"name": "account",
					"type": "address"
				},
				{
					"indexed": true,
					"internalType": "address",
					"name": "sender",
					"type": "address"
				}
			],
			"name": "RoleRevoked",
			"type": "event"
		},
		{
			"anonymous": false,
			"inputs": [
				{
					"indexed": true,
					"internalType": "bytes32",
					"name": "messageId",
					"type": "bytes32"
				},
				{
					"indexed": true,
					"internalType": "bytes32",
					"name": "tipId",
					"type": "bytes32"
				},
				{
					"indexed": true,
					"internalType": "address",
					"name": "createdBy",
					"type": "address"
				},
				{
					"indexed": false,
					"internalType": "uint256",
					"name": "value",
					"type": "uint256"
				}
			],
			"name": "TipCreated",
			"type": "event"
		},
		{
			"anonymous": false,
			"inputs": [
				{
					"indexed": true,
					"internalType": "bytes32",
					"name": "messageId",
					"type": "bytes32"
				},
				{
					"indexed": true,
					"internalType": "bytes32",
					"name": "tipId",
					"type": "bytes32"
				},
				{
					"indexed": true,
					"internalType": "address",
					"name": "createdBy",
					"type": "address"
				},
				{
					"indexed": false,
					"internalType": "uint256",
					"name": "value",
					"type": "uint256"
				}
			],
			"name": "TipValueClaimed",
			"type": "event"
		},
		{
			"anonymous": false,
			"inputs": [
				{
					"indexed": true,
					"internalType": "address",
					"name": "sender",
					"type": "address"
				},
				{
					"indexed": true,
					"internalType": "address",
					"name": "recipient",
					"type": "address"
				},
				{
					"indexed": false,
					"internalType": "uint256",
					"name": "value",
					"type": "uint256"
				}
			],
			"name": "Transfer",
			"type": "event"
		},
		{
			"anonymous": false,
			"inputs": [
				{
					"indexed": true,
					"internalType": "address",
					"name": "unblocker",
					"type": "address"
				},
				{
					"indexed": true,
					"internalType": "address",
					"name": "unblocked",
					"type": "address"
				}
			],
			"name": "UnBlock",
			"type": "event"
		},
		{
			"anonymous": false,
			"inputs": [
				{
					"indexed": true,
					"internalType": "address",
					"name": "unfollowed",
					"type": "address"
				},
				{
					"indexed": true,
					"internalType": "address",
					"name": "unfollower",
					"type": "address"
				}
			],
			"name": "UnFollow",
			"type": "event"
		},
		{
			"anonymous": false,
			"inputs": [
				{
					"indexed": true,
					"internalType": "address",
					"name": "unwhitelister",
					"type": "address"
				},
				{
					"indexed": true,
					"internalType": "address",
					"name": "unwhitelisted",
					"type": "address"
				}
			],
			"name": "UnWhitelisted",
			"type": "event"
		},
		{
			"anonymous": false,
			"inputs": [
				{
					"indexed": false,
					"internalType": "address",
					"name": "account",
					"type": "address"
				}
			],
			"name": "Unpaused",
			"type": "event"
		},
		{
			"anonymous": false,
			"inputs": [
				{
					"indexed": true,
					"internalType": "address",
					"name": "whitelister",
					"type": "address"
				},
				{
					"indexed": true,
					"internalType": "address",
					"name": "whitelisted",
					"type": "address"
				}
			],
			"name": "Whitelisted",
			"type": "event"
		},
		{
			"anonymous": false,
			"inputs": [
				{
					"indexed": true,
					"internalType": "address",
					"name": "user",
					"type": "address"
				},
				{
					"indexed": false,
					"internalType": "uint256",
					"name": "value",
					"type": "uint256"
				}
			],
			"name": "Withdraw",
			"type": "event"
		},
		{
			"inputs": [],
			"name": "DEFAULT_ADMIN_ROLE",
			"outputs": [
				{
					"internalType": "bytes32",
					"name": "",
					"type": "bytes32"
				}
			],
			"stateMutability": "view",
			"type": "function"
		},
		{
			"inputs": [],
			"name": "GOVERNANCE_ROLE",
			"outputs": [
				{
					"internalType": "bytes32",
					"name": "",
					"type": "bytes32"
				}
			],
			"stateMutability": "view",
			"type": "function"
		},
		{
			"inputs": [],
			"name": "balance",
			"outputs": [
				{
					"internalType": "uint256",
					"name": "",
					"type": "uint256"
				}
			],
			"stateMutability": "view",
			"type": "function"
		},
		{
			"inputs": [],
			"name": "baseURI",
			"outputs": [
				{
					"internalType": "string",
					"name": "",
					"type": "string"
				}
			],
			"stateMutability": "view",
			"type": "function"
		},
		{
			"inputs": [
				{
					"internalType": "address",
					"name": "_address",
					"type": "address"
				}
			],
			"name": "blockUser",
			"outputs": [],
			"stateMutability": "nonpayable",
			"type": "function"
		},
		{
			"inputs": [
				{
					"internalType": "address",
					"name": "_sender",
					"type": "address"
				},
				{
					"internalType": "address",
					"name": "_recipient",
					"type": "address"
				}
			],
			"name": "checkBlocked",
			"outputs": [
				{
					"internalType": "bool",
					"name": "",
					"type": "bool"
				}
			],
			"stateMutability": "view",
			"type": "function"
		},
		{
			"inputs": [
				{
					"internalType": "address",
					"name": "_address",
					"type": "address"
				}
			],
			"name": "checkFollower",
			"outputs": [
				{
					"internalType": "bool",
					"name": "",
					"type": "bool"
				}
			],
			"stateMutability": "view",
			"type": "function"
		},
		{
			"inputs": [
				{
					"internalType": "address",
					"name": "_sender",
					"type": "address"
				},
				{
					"internalType": "address",
					"name": "_recipient",
					"type": "address"
				}
			],
			"name": "checkWhitelist",
			"outputs": [
				{
					"internalType": "bool",
					"name": "",
					"type": "bool"
				}
			],
			"stateMutability": "view",
			"type": "function"
		},
		{
			"inputs": [
				{
					"internalType": "bytes32",
					"name": "messageId_",
					"type": "bytes32"
				}
			],
			"name": "claimBackMessageValue",
			"outputs": [],
			"stateMutability": "nonpayable",
			"type": "function"
		},
		{
			"inputs": [
				{
					"internalType": "bytes32",
					"name": "tipId_",
					"type": "bytes32"
				}
			],
			"name": "claimBackTipValue",
			"outputs": [],
			"stateMutability": "nonpayable",
			"type": "function"
		},
		{
			"inputs": [
				{
					"internalType": "address",
					"name": "recipient_",
					"type": "address"
				},
				{
					"internalType": "uint256",
					"name": "timelock_",
					"type": "uint256"
				},
				{
					"internalType": "uint256",
					"name": "messageType_",
					"type": "uint256"
				},
				{
					"internalType": "string",
					"name": "messageHash_",
					"type": "string"
				}
			],
			"name": "createMessage",
			"outputs": [
				{
					"internalType": "bytes32",
					"name": "",
					"type": "bytes32"
				}
			],
			"stateMutability": "payable",
			"type": "function"
		},
		{
			"inputs": [
				{
					"internalType": "string",
					"name": "postHash_",
					"type": "string"
				}
			],
			"name": "createPost",
			"outputs": [
				{
					"internalType": "bytes32",
					"name": "",
					"type": "bytes32"
				}
			],
			"stateMutability": "payable",
			"type": "function"
		},
		{
			"inputs": [
				{
					"internalType": "bytes32",
					"name": "postId_",
					"type": "bytes32"
				}
			],
			"name": "createPostTip",
			"outputs": [],
			"stateMutability": "payable",
			"type": "function"
		},
		{
			"inputs": [
				{
					"internalType": "bytes32",
					"name": "messageId_",
					"type": "bytes32"
				},
				{
					"internalType": "string",
					"name": "answerHash_",
					"type": "string"
				}
			],
			"name": "createResponse",
			"outputs": [],
			"stateMutability": "payable",
			"type": "function"
		},
		{
			"inputs": [
				{
					"internalType": "bytes32",
					"name": "messageId_",
					"type": "bytes32"
				}
			],
			"name": "createTip",
			"outputs": [],
			"stateMutability": "payable",
			"type": "function"
		},
		{
			"inputs": [],
			"name": "feeCollector",
			"outputs": [
				{
					"internalType": "address",
					"name": "",
					"type": "address"
				}
			],
			"stateMutability": "view",
			"type": "function"
		},
		{
			"inputs": [],
			"name": "feeNumerator",
			"outputs": [
				{
					"internalType": "uint256",
					"name": "",
					"type": "uint256"
				}
			],
			"stateMutability": "view",
			"type": "function"
		},
		{
			"inputs": [
				{
					"internalType": "address",
					"name": "_address",
					"type": "address"
				}
			],
			"name": "followUser",
			"outputs": [],
			"stateMutability": "nonpayable",
			"type": "function"
		},
		{
			"inputs": [
				{
					"internalType": "uint256",
					"name": "skip_",
					"type": "uint256"
				},
				{
					"internalType": "uint256",
					"name": "limit_",
					"type": "uint256"
				}
			],
			"name": "gePublicMessageIds",
			"outputs": [
				{
					"internalType": "bytes32[]",
					"name": "",
					"type": "bytes32[]"
				},
				{
					"internalType": "uint256",
					"name": "",
					"type": "uint256"
				}
			],
			"stateMutability": "view",
			"type": "function"
		},
		{
			"inputs": [
				{
					"internalType": "uint256",
					"name": "skip_",
					"type": "uint256"
				},
				{
					"internalType": "uint256",
					"name": "limit_",
					"type": "uint256"
				}
			],
			"name": "getPostIds",
			"outputs": [
				{
					"internalType": "bytes32[]",
					"name": "",
					"type": "bytes32[]"
				},
				{
					"internalType": "uint256",
					"name": "",
					"type": "uint256"
				}
			],
			"stateMutability": "view",
			"type": "function"
		},
		{
			"inputs": [
				{
					"internalType": "uint256",
					"name": "skip_",
					"type": "uint256"
				},
				{
					"internalType": "uint256",
					"name": "limit_",
					"type": "uint256"
				}
			],
			"name": "getPostTipIds",
			"outputs": [
				{
					"internalType": "bytes32[]",
					"name": "",
					"type": "bytes32[]"
				},
				{
					"internalType": "uint256",
					"name": "",
					"type": "uint256"
				}
			],
			"stateMutability": "view",
			"type": "function"
		},
		{
			"inputs": [
				{
					"internalType": "uint256",
					"name": "skip_",
					"type": "uint256"
				},
				{
					"internalType": "uint256",
					"name": "limit_",
					"type": "uint256"
				}
			],
			"name": "getPrivateMessageIds",
			"outputs": [
				{
					"internalType": "bytes32[]",
					"name": "",
					"type": "bytes32[]"
				},
				{
					"internalType": "uint256",
					"name": "",
					"type": "uint256"
				}
			],
			"stateMutability": "view",
			"type": "function"
		},
		{
			"inputs": [
				{
					"internalType": "bytes32",
					"name": "role",
					"type": "bytes32"
				}
			],
			"name": "getRoleAdmin",
			"outputs": [
				{
					"internalType": "bytes32",
					"name": "",
					"type": "bytes32"
				}
			],
			"stateMutability": "view",
			"type": "function"
		},
		{
			"inputs": [
				{
					"internalType": "bytes32",
					"name": "role",
					"type": "bytes32"
				},
				{
					"internalType": "uint256",
					"name": "index",
					"type": "uint256"
				}
			],
			"name": "getRoleMember",
			"outputs": [
				{
					"internalType": "address",
					"name": "",
					"type": "address"
				}
			],
			"stateMutability": "view",
			"type": "function"
		},
		{
			"inputs": [
				{
					"internalType": "bytes32",
					"name": "role",
					"type": "bytes32"
				}
			],
			"name": "getRoleMemberCount",
			"outputs": [
				{
					"internalType": "uint256",
					"name": "",
					"type": "uint256"
				}
			],
			"stateMutability": "view",
			"type": "function"
		},
		{
			"inputs": [
				{
					"internalType": "uint256",
					"name": "skip_",
					"type": "uint256"
				},
				{
					"internalType": "uint256",
					"name": "limit_",
					"type": "uint256"
				}
			],
			"name": "getTipIds",
			"outputs": [
				{
					"internalType": "bytes32[]",
					"name": "",
					"type": "bytes32[]"
				},
				{
					"internalType": "uint256",
					"name": "",
					"type": "uint256"
				}
			],
			"stateMutability": "view",
			"type": "function"
		},
		{
			"inputs": [
				{
					"internalType": "bytes32",
					"name": "messageId_",
					"type": "bytes32"
				},
				{
					"internalType": "uint256",
					"name": "skip_",
					"type": "uint256"
				},
				{
					"internalType": "uint256",
					"name": "limit_",
					"type": "uint256"
				}
			],
			"name": "getTipIdsOfMessage",
			"outputs": [
				{
					"internalType": "bytes32[]",
					"name": "",
					"type": "bytes32[]"
				},
				{
					"internalType": "uint256",
					"name": "",
					"type": "uint256"
				}
			],
			"stateMutability": "view",
			"type": "function"
		},
		{
			"inputs": [
				{
					"internalType": "bytes32",
					"name": "postId_",
					"type": "bytes32"
				},
				{
					"internalType": "uint256",
					"name": "skip_",
					"type": "uint256"
				},
				{
					"internalType": "uint256",
					"name": "limit_",
					"type": "uint256"
				}
			],
			"name": "getTipIdsOfPost",
			"outputs": [
				{
					"internalType": "bytes32[]",
					"name": "",
					"type": "bytes32[]"
				},
				{
					"internalType": "uint256",
					"name": "",
					"type": "uint256"
				}
			],
			"stateMutability": "view",
			"type": "function"
		},
		{
			"inputs": [
				{
					"internalType": "bytes32",
					"name": "role",
					"type": "bytes32"
				},
				{
					"internalType": "address",
					"name": "account",
					"type": "address"
				}
			],
			"name": "grantRole",
			"outputs": [],
			"stateMutability": "nonpayable",
			"type": "function"
		},
		{
			"inputs": [
				{
					"internalType": "bytes32",
					"name": "role",
					"type": "bytes32"
				},
				{
					"internalType": "address",
					"name": "account",
					"type": "address"
				}
			],
			"name": "hasRole",
			"outputs": [
				{
					"internalType": "bool",
					"name": "",
					"type": "bool"
				}
			],
			"stateMutability": "view",
			"type": "function"
		},
		{
			"inputs": [
				{
					"internalType": "uint256",
					"name": "_minimumBid",
					"type": "uint256"
				},
				{
					"internalType": "uint256",
					"name": "_postMinimumBid",
					"type": "uint256"
				},
				{
					"internalType": "uint256",
					"name": "_feeNumerator",
					"type": "uint256"
				},
				{
					"internalType": "address",
					"name": "_nftContract",
					"type": "address"
				},
				{
					"internalType": "address",
					"name": "_feeCollector",
					"type": "address"
				},
				{
					"internalType": "address",
					"name": "_adminAddress",
					"type": "address"
				},
				{
					"internalType": "address",
					"name": "trustedForwarder",
					"type": "address"
				},
				{
					"internalType": "string",
					"name": "_baseURI",
					"type": "string"
				}
			],
			"name": "initialize",
			"outputs": [],
			"stateMutability": "nonpayable",
			"type": "function"
		},
		{
			"inputs": [
				{
					"internalType": "address",
					"name": "forwarder",
					"type": "address"
				}
			],
			"name": "isTrustedForwarder",
			"outputs": [
				{
					"internalType": "bool",
					"name": "",
					"type": "bool"
				}
			],
			"stateMutability": "view",
			"type": "function"
		},
		{
			"inputs": [
				{
					"internalType": "bytes32",
					"name": "messageId_",
					"type": "bytes32"
				},
				{
					"internalType": "uint256",
					"name": "responseType_",
					"type": "uint256"
				}
			],
			"name": "markReponse",
			"outputs": [],
			"stateMutability": "nonpayable",
			"type": "function"
		},
		{
			"inputs": [
				{
					"internalType": "bytes32",
					"name": "",
					"type": "bytes32"
				}
			],
			"name": "messages",
			"outputs": [
				{
					"internalType": "string",
					"name": "messageLink",
					"type": "string"
				},
				{
					"internalType": "string",
					"name": "answerLink",
					"type": "string"
				},
				{
					"internalType": "uint256",
					"name": "initialValue",
					"type": "uint256"
				},
				{
					"internalType": "uint256",
					"name": "totalValue",
					"type": "uint256"
				},
				{
					"internalType": "address",
					"name": "createdBy",
					"type": "address"
				},
				{
					"internalType": "address",
					"name": "anweredBy",
					"type": "address"
				},
				{
					"internalType": "uint256",
					"name": "createdTime",
					"type": "uint256"
				},
				{
					"internalType": "uint256",
					"name": "expiryTime",
					"type": "uint256"
				},
				{
					"internalType": "enum AmaFansLib.State",
					"name": "state",
					"type": "uint8"
				},
				{
					"internalType": "uint256",
					"name": "responseValue",
					"type": "uint256"
				},
				{
					"internalType": "enum AmaFansLib.ResponseType",
					"name": "responseType",
					"type": "uint8"
				},
				{
					"internalType": "uint256",
					"name": "messageType",
					"type": "uint256"
				}
			],
			"stateMutability": "view",
			"type": "function"
		},
		{
			"inputs": [],
			"name": "minTimeLock",
			"outputs": [
				{
					"internalType": "uint256",
					"name": "",
					"type": "uint256"
				}
			],
			"stateMutability": "view",
			"type": "function"
		},
		{
			"inputs": [
				{
					"internalType": "uint256",
					"name": "_messageType",
					"type": "uint256"
				}
			],
			"name": "minimumBid",
			"outputs": [
				{
					"internalType": "uint256",
					"name": "",
					"type": "uint256"
				}
			],
			"stateMutability": "view",
			"type": "function"
		},
		{
			"inputs": [],
			"name": "nftContract",
			"outputs": [
				{
					"internalType": "contract AmaFansNFT",
					"name": "",
					"type": "address"
				}
			],
			"stateMutability": "view",
			"type": "function"
		},
		{
			"inputs": [],
			"name": "pause",
			"outputs": [],
			"stateMutability": "nonpayable",
			"type": "function"
		},
		{
			"inputs": [],
			"name": "paused",
			"outputs": [
				{
					"internalType": "bool",
					"name": "",
					"type": "bool"
				}
			],
			"stateMutability": "view",
			"type": "function"
		},
		{
			"inputs": [
				{
					"internalType": "uint256",
					"name": "",
					"type": "uint256"
				}
			],
			"name": "postIds",
			"outputs": [
				{
					"internalType": "bytes32",
					"name": "",
					"type": "bytes32"
				}
			],
			"stateMutability": "view",
			"type": "function"
		},
		{
			"inputs": [],
			"name": "postMinimumBid",
			"outputs": [
				{
					"internalType": "uint256",
					"name": "",
					"type": "uint256"
				}
			],
			"stateMutability": "view",
			"type": "function"
		},
		{
			"inputs": [
				{
					"internalType": "uint256",
					"name": "",
					"type": "uint256"
				}
			],
			"name": "postTipIds",
			"outputs": [
				{
					"internalType": "bytes32",
					"name": "",
					"type": "bytes32"
				}
			],
			"stateMutability": "view",
			"type": "function"
		},
		{
			"inputs": [
				{
					"internalType": "bytes32",
					"name": "",
					"type": "bytes32"
				}
			],
			"name": "postTips",
			"outputs": [
				{
					"internalType": "address",
					"name": "createdBy",
					"type": "address"
				},
				{
					"internalType": "uint256",
					"name": "value",
					"type": "uint256"
				},
				{
					"internalType": "uint256",
					"name": "createdTime",
					"type": "uint256"
				},
				{
					"internalType": "bytes32",
					"name": "postId",
					"type": "bytes32"
				}
			],
			"stateMutability": "view",
			"type": "function"
		},
		{
			"inputs": [
				{
					"internalType": "bytes32",
					"name": "",
					"type": "bytes32"
				}
			],
			"name": "posts",
			"outputs": [
				{
					"internalType": "string",
					"name": "postLink",
					"type": "string"
				},
				{
					"internalType": "uint256",
					"name": "initialValue",
					"type": "uint256"
				},
				{
					"internalType": "uint256",
					"name": "tipsTotalValue",
					"type": "uint256"
				},
				{
					"internalType": "address",
					"name": "createdBy",
					"type": "address"
				},
				{
					"internalType": "uint256",
					"name": "createdTime",
					"type": "uint256"
				},
				{
					"internalType": "uint256",
					"name": "tokenId",
					"type": "uint256"
				}
			],
			"stateMutability": "view",
			"type": "function"
		},
		{
			"inputs": [
				{
					"internalType": "uint256",
					"name": "",
					"type": "uint256"
				}
			],
			"name": "privateMessageIds",
			"outputs": [
				{
					"internalType": "bytes32",
					"name": "",
					"type": "bytes32"
				}
			],
			"stateMutability": "view",
			"type": "function"
		},
		{
			"inputs": [],
			"name": "privateMinimumBid",
			"outputs": [
				{
					"internalType": "uint256",
					"name": "",
					"type": "uint256"
				}
			],
			"stateMutability": "view",
			"type": "function"
		},
		{
			"inputs": [
				{
					"internalType": "uint256",
					"name": "",
					"type": "uint256"
				}
			],
			"name": "publicMessageIds",
			"outputs": [
				{
					"internalType": "bytes32",
					"name": "",
					"type": "bytes32"
				}
			],
			"stateMutability": "view",
			"type": "function"
		},
		{
			"inputs": [],
			"name": "publicMinimumBid",
			"outputs": [
				{
					"internalType": "uint256",
					"name": "",
					"type": "uint256"
				}
			],
			"stateMutability": "view",
			"type": "function"
		},
		{
			"inputs": [],
			"name": "recipientUpFront",
			"outputs": [
				{
					"internalType": "uint256",
					"name": "",
					"type": "uint256"
				}
			],
			"stateMutability": "view",
			"type": "function"
		},
		{
			"inputs": [
				{
					"internalType": "bytes32",
					"name": "role",
					"type": "bytes32"
				},
				{
					"internalType": "address",
					"name": "account",
					"type": "address"
				}
			],
			"name": "renounceRole",
			"outputs": [],
			"stateMutability": "nonpayable",
			"type": "function"
		},
		{
			"inputs": [
				{
					"internalType": "bytes32",
					"name": "role",
					"type": "bytes32"
				},
				{
					"internalType": "address",
					"name": "account",
					"type": "address"
				}
			],
			"name": "revokeRole",
			"outputs": [],
			"stateMutability": "nonpayable",
			"type": "function"
		},
		{
			"inputs": [
				{
					"internalType": "string",
					"name": "_baseURI",
					"type": "string"
				}
			],
			"name": "setBaseURI",
			"outputs": [],
			"stateMutability": "nonpayable",
			"type": "function"
		},
		{
			"inputs": [
				{
					"internalType": "uint256",
					"name": "_minimumBid",
					"type": "uint256"
				},
				{
					"internalType": "enum AmaFansLib.MessageType",
					"name": "_messageType",
					"type": "uint8"
				}
			],
			"name": "setMinimumBid",
			"outputs": [],
			"stateMutability": "nonpayable",
			"type": "function"
		},
		{
			"inputs": [
				{
					"internalType": "address",
					"name": "_address",
					"type": "address"
				}
			],
			"name": "setNFTContract",
			"outputs": [],
			"stateMutability": "nonpayable",
			"type": "function"
		},
		{
			"inputs": [
				{
					"internalType": "uint256",
					"name": "_postMinimumBid",
					"type": "uint256"
				}
			],
			"name": "setPostMinimumBid",
			"outputs": [],
			"stateMutability": "nonpayable",
			"type": "function"
		},
		{
			"inputs": [
				{
					"internalType": "uint256",
					"name": "_recipientUpFront",
					"type": "uint256"
				}
			],
			"name": "setRecipientUpFront",
			"outputs": [],
			"stateMutability": "nonpayable",
			"type": "function"
		},
		{
			"inputs": [
				{
					"internalType": "uint256",
					"name": "_thresholdFactorForSplit",
					"type": "uint256"
				}
			],
			"name": "setThresholdFactorForSplit",
			"outputs": [],
			"stateMutability": "nonpayable",
			"type": "function"
		},
		{
			"inputs": [
				{
					"internalType": "address",
					"name": "_forwarder",
					"type": "address"
				}
			],
			"name": "setTrustedForwarder",
			"outputs": [],
			"stateMutability": "nonpayable",
			"type": "function"
		},
		{
			"inputs": [
				{
					"internalType": "uint256",
					"name": "minimumBidByUser",
					"type": "uint256"
				},
				{
					"internalType": "enum AmaFansLib.MessageType",
					"name": "_messageType",
					"type": "uint8"
				}
			],
			"name": "setUserMinimumBid",
			"outputs": [],
			"stateMutability": "nonpayable",
			"type": "function"
		},
		{
			"inputs": [
				{
					"internalType": "bytes4",
					"name": "interfaceId",
					"type": "bytes4"
				}
			],
			"name": "supportsInterface",
			"outputs": [
				{
					"internalType": "bool",
					"name": "",
					"type": "bool"
				}
			],
			"stateMutability": "view",
			"type": "function"
		},
		{
			"inputs": [],
			"name": "thresholdFactorForSplit",
			"outputs": [
				{
					"internalType": "uint256",
					"name": "",
					"type": "uint256"
				}
			],
			"stateMutability": "view",
			"type": "function"
		},
		{
			"inputs": [
				{
					"internalType": "uint256",
					"name": "",
					"type": "uint256"
				}
			],
			"name": "tipIds",
			"outputs": [
				{
					"internalType": "bytes32",
					"name": "",
					"type": "bytes32"
				}
			],
			"stateMutability": "view",
			"type": "function"
		},
		{
			"inputs": [
				{
					"internalType": "bytes32",
					"name": "",
					"type": "bytes32"
				}
			],
			"name": "tips",
			"outputs": [
				{
					"internalType": "address",
					"name": "createdBy",
					"type": "address"
				},
				{
					"internalType": "uint256",
					"name": "value",
					"type": "uint256"
				},
				{
					"internalType": "uint256",
					"name": "createdTime",
					"type": "uint256"
				},
				{
					"internalType": "bytes32",
					"name": "messageId",
					"type": "bytes32"
				},
				{
					"internalType": "bool",
					"name": "claimed",
					"type": "bool"
				}
			],
			"stateMutability": "view",
			"type": "function"
		},
		{
			"inputs": [
				{
					"internalType": "uint256",
					"name": "amount_",
					"type": "uint256"
				},
				{
					"internalType": "address",
					"name": "recipient_",
					"type": "address"
				}
			],
			"name": "transfer",
			"outputs": [],
			"stateMutability": "nonpayable",
			"type": "function"
		},
		{
			"inputs": [
				{
					"internalType": "bytes32",
					"name": "postId_",
					"type": "bytes32"
				},
				{
					"internalType": "address",
					"name": "transferTo_",
					"type": "address"
				}
			],
			"name": "transferPost",
			"outputs": [],
			"stateMutability": "nonpayable",
			"type": "function"
		},
		{
			"inputs": [
				{
					"internalType": "address",
					"name": "_address",
					"type": "address"
				}
			],
			"name": "unBlockUser",
			"outputs": [],
			"stateMutability": "nonpayable",
			"type": "function"
		},
		{
			"inputs": [
				{
					"internalType": "address",
					"name": "_address",
					"type": "address"
				}
			],
			"name": "unWhitelistUser",
			"outputs": [],
			"stateMutability": "nonpayable",
			"type": "function"
		},
		{
			"inputs": [
				{
					"internalType": "address",
					"name": "_address",
					"type": "address"
				}
			],
			"name": "unfollowUser",
			"outputs": [],
			"stateMutability": "nonpayable",
			"type": "function"
		},
		{
			"inputs": [],
			"name": "unpause",
			"outputs": [],
			"stateMutability": "nonpayable",
			"type": "function"
		},
		{
			"inputs": [
				{
					"internalType": "string",
					"name": "_contentHash",
					"type": "string"
				}
			],
			"name": "uri",
			"outputs": [
				{
					"internalType": "string",
					"name": "",
					"type": "string"
				}
			],
			"stateMutability": "view",
			"type": "function"
		},
		{
			"inputs": [],
			"name": "userBalance",
			"outputs": [
				{
					"internalType": "uint256",
					"name": "",
					"type": "uint256"
				}
			],
			"stateMutability": "view",
			"type": "function"
		},
		{
			"inputs": [
				{
					"internalType": "address",
					"name": "_sender",
					"type": "address"
				},
				{
					"internalType": "address",
					"name": "_recipient",
					"type": "address"
				},
				{
					"internalType": "uint256",
					"name": "_messageType",
					"type": "uint256"
				}
			],
			"name": "userMinimumBid",
			"outputs": [
				{
					"internalType": "uint256",
					"name": "",
					"type": "uint256"
				}
			],
			"stateMutability": "view",
			"type": "function"
		},
		{
			"inputs": [
				{
					"internalType": "address",
					"name": "",
					"type": "address"
				}
			],
			"name": "users",
			"outputs": [
				{
					"internalType": "uint256",
					"name": "publicMinimumBid",
					"type": "uint256"
				},
				{
					"internalType": "uint256",
					"name": "privateMinimumBid",
					"type": "uint256"
				},
				{
					"internalType": "bytes",
					"name": "verified",
					"type": "bytes"
				}
			],
			"stateMutability": "view",
			"type": "function"
		},
		{
			"inputs": [
				{
					"internalType": "address",
					"name": "_address",
					"type": "address"
				}
			],
			"name": "whitelistUser",
			"outputs": [],
			"stateMutability": "nonpayable",
			"type": "function"
		},
		{
			"inputs": [
				{
					"internalType": "uint256",
					"name": "_amount",
					"type": "uint256"
				}
			],
			"name": "withdraw",
			"outputs": [],
			"stateMutability": "nonpayable",
			"type": "function"
		},
		{
			"stateMutability": "payable",
			"type": "receive"
		}
	]
}