{
  "_format": "hh-sol-artifact-1",
  "contractName": "CommonFacet",
  "sourceName": "contracts/facets/CommonFacet.sol",
  "abi": [
    {
      "anonymous": false,
      "inputs": [
        {
          "indexed": true,
          "internalType": "address",
          "name": "sender",
          "type": "address"
        },
        {
          "indexed": true,
          "internalType": "address",
          "name": "recipient",
          "type": "address"
        },
        {
          "indexed": false,
          "internalType": "uint256",
          "name": "amount",
          "type": "uint256"
        }
      ],
      "name": "Transfer",
      "type": "event"
    },
    {
      "anonymous": false,
      "inputs": [
        {
          "indexed": true,
          "internalType": "address",
          "name": "sender",
          "type": "address"
        },
        {
          "indexed": false,
          "internalType": "uint256",
          "name": "amount",
          "type": "uint256"
        }
      ],
      "name": "Withdraw",
      "type": "event"
    },
    {
      "inputs": [],
      "name": "adminBalance",
      "outputs": [
        {
          "internalType": "uint256",
          "name": "",
          "type": "uint256"
        }
      ],
      "stateMutability": "view",
      "type": "function"
    },
    {
      "inputs": [
        {
          "internalType": "uint256",
          "name": "amount_",
          "type": "uint256"
        },
        {
          "internalType": "address",
          "name": "recipient_",
          "type": "address"
        }
      ],
      "name": "transfer",
      "outputs": [],
      "stateMutability": "nonpayable",
      "type": "function"
    },
    {
      "inputs": [],
      "name": "userBalance",
      "outputs": [
        {
          "internalType": "uint256",
          "name": "",
          "type": "uint256"
        }
      ],
      "stateMutability": "view",
      "type": "function"
    },
    {
      "inputs": [
        {
          "internalType": "uint256",
          "name": "_amount",
          "type": "uint256"
        }
      ],
      "name": "withdraw",
      "outputs": [],
      "stateMutability": "nonpayable",
      "type": "function"
    },
    {
      "stateMutability": "payable",
      "type": "receive"
    }
  ],
  "bytecode": "0x608060405234801561001057600080fd5b506001600055610699806100256000396000f3fe6080604052600436106100435760003560e01c80632e1a7d4d1461004f5780639858befb14610071578063b7760c8f14610098578063bf152765146100b857600080fd5b3661004a57005b600080fd5b34801561005b57600080fd5b5061006f61006a366004610594565b6100cd565b005b34801561007d57600080fd5b5061008661017b565b60405190815260200160405180910390f35b3480156100a457600080fd5b5061006f6100b33660046105ad565b610233565b3480156100c457600080fd5b506100866102e8565b600260005414156101255760405162461bcd60e51b815260206004820152601f60248201527f5265656e7472616e637947756172643a207265656e7472616e742063616c6c0060448201526064015b60405180910390fd5b6002600055610134338261035b565b61013e338261042c565b60405181815233907f884edad9ce6fa2440d8a54cc123490eb96d2768479d49ff9c7366125a94243649060200160405180910390a2506001600055565b60006101a77f2dca0f5ce7e75a4b43fe2b0d6f5d0b7a2bf92ecf89f8f0aa17b8308b670388213361054a565b6040518060400160405280600681526020016518181b18181960d11b815250906101e45760405162461bcd60e51b815260040161011c91906105e9565b5050600080527f793ba39717776526f812abdc4711d8c8f539f0d8595e4dc61cd8bbf5affeabc26020527ff4098078122297eb2b6197ac2b4220b228de8f791eccbb520ddff5a98ba2f0425490565b600260005414156102865760405162461bcd60e51b815260206004820152601f60248201527f5265656e7472616e637947756172643a207265656e7472616e742063616c6c00604482015260640161011c565b6002600055610295338361035b565b61029f818361042c565b6040518281526001600160a01b0382169033907fddf252ad1be2c89b69c2b068fc378daa952ba7f163c4a11628f55a4df523b3ef9060200160405180910390a350506001600055565b60007f793ba39717776526f812abdc4711d8c8f539f0d8595e4dc61cd8bbf5affeabc16103357f2dca0f5ce7e75a4b43fe2b0d6f5d0b7a2bf92ecf89f8f0aa17b8308b670388213361054a565b1561034257600091505090565b3360009081526001919091016020526040902054919050565b6001600160a01b03821660009081527f793ba39717776526f812abdc4711d8c8f539f0d8595e4dc61cd8bbf5affeabc26020908152604091829020548251808401909352600683526530303630303160d01b918301919091527f793ba39717776526f812abdc4711d8c8f539f0d8595e4dc61cd8bbf5affeabc191908311156103f75760405162461bcd60e51b815260040161011c91906105e9565b506001600160a01b03831660009081526001820160205260408120805484929061042290849061063e565b9091555050505050565b8047101561047c5760405162461bcd60e51b815260206004820152601d60248201527f416464726573733a20696e73756666696369656e742062616c616e6365000000604482015260640161011c565b6000826001600160a01b03168260405160006040518083038185875af1925050503d80600081146104c9576040519150601f19603f3d011682016040523d82523d6000602084013e6104ce565b606091505b50509050806105455760405162461bcd60e51b815260206004820152603a60248201527f416464726573733a20756e61626c6520746f2073656e642076616c75652c207260448201527f6563697069656e74206d61792068617665207265766572746564000000000000606482015260840161011c565b505050565b60009182527fe60be0110dc1792cd793dc6d2d18db752d6e49771db52ffb0dfa2892dbc86d2d602090815260408084206001600160a01b0393909316845291905290205460ff1690565b6000602082840312156105a657600080fd5b5035919050565b600080604083850312156105c057600080fd5b8235915060208301356001600160a01b03811681146105de57600080fd5b809150509250929050565b600060208083528351808285015260005b81811015610616578581018301518582016040015282016105fa565b81811115610628576000604083870101525b50601f01601f1916929092016040019392505050565b60008282101561065e57634e487b7160e01b600052601160045260246000fd5b50039056fea2646970667358221220f7dc0e36104bc6a91529e63d4c5292c87ed46fcdce82ec37cea205fa8d692fe564736f6c63430008060033",
  "linkReferences": {},
  "deployedLinkReferences": {}
}