{
  "_format": "hh-sol-artifact-1",
  "contractName": "CommonFacet",
  "sourceName": "contracts/facets/CommonFacet.sol",
  "abi": [
    {
      "anonymous": false,
      "inputs": [
        {
          "indexed": true,
          "internalType": "address",
          "name": "signerOne",
          "type": "address"
        },
        {
          "indexed": true,
          "internalType": "address",
          "name": "signerTwo",
          "type": "address"
        },
        {
          "indexed": true,
          "internalType": "address",
          "name": "account",
          "type": "address"
        },
        {
          "indexed": false,
          "internalType": "bytes32",
          "name": "role",
          "type": "bytes32"
        },
        {
          "indexed": false,
          "internalType": "uint256",
          "name": "amount",
          "type": "uint256"
        }
      ],
      "name": "AdminWithdrawForRole",
      "type": "event"
    },
    {
      "anonymous": false,
      "inputs": [
        {
          "indexed": false,
          "internalType": "address",
          "name": "receiver",
          "type": "address"
        },
        {
          "indexed": false,
          "internalType": "uint256",
          "name": "amount",
          "type": "uint256"
        }
      ],
      "name": "AmountReceived",
      "type": "event"
    },
    {
      "anonymous": false,
      "inputs": [
        {
          "indexed": true,
          "internalType": "address",
          "name": "sender",
          "type": "address"
        },
        {
          "indexed": false,
          "internalType": "uint256",
          "name": "amount",
          "type": "uint256"
        }
      ],
      "name": "FiatUserWithdraw",
      "type": "event"
    },
    {
      "anonymous": false,
      "inputs": [
        {
          "indexed": true,
          "internalType": "address",
          "name": "sender",
          "type": "address"
        },
        {
          "indexed": true,
          "internalType": "address",
          "name": "recipient",
          "type": "address"
        },
        {
          "indexed": false,
          "internalType": "uint256",
          "name": "amount",
          "type": "uint256"
        }
      ],
      "name": "Transfer",
      "type": "event"
    },
    {
      "anonymous": false,
      "inputs": [
        {
          "indexed": true,
          "internalType": "address",
          "name": "sender",
          "type": "address"
        },
        {
          "indexed": false,
          "internalType": "uint256",
          "name": "amount",
          "type": "uint256"
        }
      ],
      "name": "Withdraw",
      "type": "event"
    },
    {
      "inputs": [],
      "name": "adminBalance",
      "outputs": [
        {
          "internalType": "uint256",
          "name": "",
          "type": "uint256"
        }
      ],
      "stateMutability": "view",
      "type": "function"
    },
    {
      "inputs": [
        {
          "internalType": "bytes32",
          "name": "role_",
          "type": "bytes32"
        },
        {
          "internalType": "bytes",
          "name": "dataOne_",
          "type": "bytes"
        },
        {
          "internalType": "bytes",
          "name": "dataTwo_",
          "type": "bytes"
        },
        {
          "internalType": "bytes",
          "name": "signatureOne_",
          "type": "bytes"
        },
        {
          "internalType": "bytes",
          "name": "signatureTwo_",
          "type": "bytes"
        }
      ],
      "name": "adminWithdraw",
      "outputs": [],
      "stateMutability": "nonpayable",
      "type": "function"
    },
    {
      "inputs": [],
      "name": "domainSeperator",
      "outputs": [
        {
          "internalType": "bytes32",
          "name": "",
          "type": "bytes32"
        }
      ],
      "stateMutability": "view",
      "type": "function"
    },
    {
      "inputs": [
        {
          "internalType": "string",
          "name": "version_",
          "type": "string"
        },
        {
          "internalType": "address",
          "name": "amaFansAddress_",
          "type": "address"
        }
      ],
      "name": "initCommon",
      "outputs": [],
      "stateMutability": "nonpayable",
      "type": "function"
    },
    {
      "inputs": [],
      "name": "userBalance",
      "outputs": [
        {
          "internalType": "uint256",
          "name": "",
          "type": "uint256"
        }
      ],
      "stateMutability": "view",
      "type": "function"
    },
    {
      "inputs": [
        {
          "internalType": "bytes",
          "name": "data_",
          "type": "bytes"
        },
        {
          "internalType": "bytes",
          "name": "signature_",
          "type": "bytes"
        }
      ],
      "name": "withdraw",
      "outputs": [],
      "stateMutability": "nonpayable",
      "type": "function"
    },
    {
      "stateMutability": "payable",
      "type": "receive"
    }
  ],
  "bytecode": "0x608060405234801561001057600080fd5b506001600055611553806100256000396000f3fe6080604052600436106100595760003560e01c806350fbe2d91461009d57806397564c6f146100bf5780639858befb146100df578063a3608efa14610106578063bf15276514610126578063cb73ac561461016757600080fd5b366100985760408051600081523460208201527e36624afd4ac14e2ebe9b68a6ec0c6e4f6bf5bde2999a61e1fec085ca86697d910160405180910390a1005b600080fd5b3480156100a957600080fd5b506100bd6100b8366004611270565b61017c565b005b3480156100cb57600080fd5b506100bd6100da3660046112d4565b6102ef565b3480156100eb57600080fd5b506100f4610438565b60405190815260200160405180910390f35b34801561011257600080fd5b506100bd6101213660046111b9565b6104f5565b34801561013257600080fd5b503360009081527f793ba39717776526f812abdc4711d8c8f539f0d8595e4dc61cd8bbf5affeabc360205260409020546100f4565b34801561017357600080fd5b506100f461065a565b600260005414156101d45760405162461bcd60e51b815260206004820152601f60248201527f5265656e7472616e637947756172643a207265656e7472616e742063616c6c0060448201526064015b60405180910390fd5b60026000908155806101e68484610684565b6001600160a01b03821660009081527f542a208c7d2fa3ea28f94718c04f12864ccbca69fd520e2dcf2a6b2bf2ea30f86020526040902054919350915060ff161515600114156102835761023b600082610727565b816001600160a01b03167f96d5d6253609f6228fc00c575ecd599194e5cd2b9fd9cafa7998e1d19f58afc88260405161027691815260200190565b60405180910390a26102db565b61028d8282610727565b61029782826107f8565b816001600160a01b03167f884edad9ce6fa2440d8a54cc123490eb96d2768479d49ff9c7366125a9424364826040516102d291815260200190565b60405180910390a25b6102e482610916565b505060016000555050565b7f793ba39717776526f812abdc4711d8c8f539f0d8595e4dc61cd8bbf5affeabc1805460ff16156103625760405162461bcd60e51b815260206004820152601b60248201527f436f6d6d6f6e3a20616c726561647920696e697469616c697a6564000000000060448201526064016101cb565b61036a610951565b805460ff19166001178155604080518082018252601081526f68747470733a2f2f616d612e66616e7360801b60209182015284518582012082517f8b73c3c69bb8fe3d512ecc4cf759cc79239f7b179b0ffacaa9a75d522b39400f928101929092527f221f108d12572948fd1067ca188dcfc59f7112e92577011800275243abc26147928201839052606082018190524660808301526001600160a01b03851660a08301529060c0016040516020818303038152906040528051906020012083600101819055505050505050565b60006104647f2dca0f5ce7e75a4b43fe2b0d6f5d0b7a2bf92ecf89f8f0aa17b8308b670388213361095d565b6040518060400160405280600681526020016518181b18181960d11b815250906104a15760405162461bcd60e51b81526004016101cb91906113e8565b5050600080527f793ba39717776526f812abdc4711d8c8f539f0d8595e4dc61cd8bbf5affeabc36020527f43fd203f2911540e6c502b39f607e0c843c54759e5a598edb15b938f58ed41e95490565b905090565b600260005414156105485760405162461bcd60e51b815260206004820152601f60248201527f5265656e7472616e637947756172643a207265656e7472616e742063616c6c0060448201526064016101cb565b60026000908155610558906109a7565b6000806105658685610684565b915091506000806105768786610684565b915091508083146105c25760405162461bcd60e51b8152602060048201526016602482015275149bdb1948105b5bdd5b9d1cc8191a5999995c995b9d60521b60448201526064016101cb565b6105cc898561095d565b506105d7898361095d565b506105e3600084610727565b6105ec84610916565b6105f582610916565b6105ff33846107f8565b604080518a81526020810185905233916001600160a01b0385811692908816917fcf91eb1ae375b9e3b72c18cc0661ef50aaa2f37102d01589c15491340a9a72ae910160405180910390a45050600160005550505050505050565b60006104f07f793ba39717776526f812abdc4711d8c8f539f0d8595e4dc61cd8bbf5affeabc25490565b6000806000806000868060200190518101906106a0919061133a565b604080517f601d3e1119877748529046db7e1591342872b2a459db6a4c5276fea085a4f5e260208201529081018490526001600160a01b038316606082015260808101829052929550909350915060009060a0016040516020818303038152906040528051906020012090506107188385838a6109b4565b509093509150505b9250929050565b6001600160a01b03821660009081527f793ba39717776526f812abdc4711d8c8f539f0d8595e4dc61cd8bbf5affeabc36020908152604091829020548251808401909352600683526530303630303160d01b918301919091527f793ba39717776526f812abdc4711d8c8f539f0d8595e4dc61cd8bbf5affeabc191908311156107c35760405162461bcd60e51b81526004016101cb91906113e8565b506001600160a01b0383166000908152600282016020526040812080548492906107ee908490611452565b9091555050505050565b804710156108485760405162461bcd60e51b815260206004820152601d60248201527f416464726573733a20696e73756666696369656e742062616c616e636500000060448201526064016101cb565b6000826001600160a01b03168260405160006040518083038185875af1925050503d8060008114610895576040519150601f19603f3d011682016040523d82523d6000602084013e61089a565b606091505b50509050806109115760405162461bcd60e51b815260206004820152603a60248201527f416464726573733a20756e61626c6520746f2073656e642076616c75652c207260448201527f6563697069656e74206d6179206861766520726576657274656400000000000060648201526084016101cb565b505050565b6001600160a01b031660009081527f793ba39717776526f812abdc4711d8c8f539f0d8595e4dc61cd8bbf5affeabc460205260409020429055565b61095b60006109a7565b565b60009182527fe60be0110dc1792cd793dc6d2d18db752d6e49771db52ffb0dfa2892dbc86d2d602090815260408084206001600160a01b0393909316845291905290205460ff1690565b6109b18133610bab565b50565b60006109de7f793ba39717776526f812abdc4711d8c8f539f0d8595e4dc61cd8bbf5affeabc25490565b60405161190160f01b60208201526022810191909152604281018490526062016040516020818303038152906040528051906020012090506000610a228284610c13565b9050806001600160a01b0316866001600160a01b031614610a855760405162461bcd60e51b815260206004820152601d60248201527f4d7946756e6374696f6e3a20696e76616c6964207369676e617475726500000060448201526064016101cb565b6001600160a01b038116610ad65760405162461bcd60e51b815260206004820152601860248201527745434453413a20696e76616c6964207369676e617475726560401b60448201526064016101cb565b7f793ba39717776526f812abdc4711d8c8f539f0d8595e4dc61cd8bbf5affeabc1610b034261012c61141b565b8610610b455760405162461bcd60e51b8152602060048201526011602482015270151a5b595cdd185b5c08195e1c1a5c9959607a1b60448201526064016101cb565b6001600160a01b03871660009081526003820160205260409020548611610ba25760405162461bcd60e51b815260206004820152601160248201527029ba30b632902a3930b739b0b1ba34b7b760791b60448201526064016101cb565b50505050505050565b610bb5828261095d565b610c0f57610bcd816001600160a01b03166014610c37565b610bd8836020610c37565b604051602001610be9929190611373565b60408051601f198184030181529082905262461bcd60e51b82526101cb916004016113e8565b5050565b6000806000610c228585610dda565b91509150610c2f81610e47565b509392505050565b60606000610c46836002611433565b610c5190600261141b565b67ffffffffffffffff811115610c6957610c696114f2565b6040519080825280601f01601f191660200182016040528015610c93576020820181803683370190505b509050600360fc1b81600081518110610cae57610cae6114dc565b60200101906001600160f81b031916908160001a905350600f60fb1b81600181518110610cdd57610cdd6114dc565b60200101906001600160f81b031916908160001a9053506000610d01846002611433565b610d0c90600161141b565b90505b6001811115610d84576f181899199a1a9b1b9c1cb0b131b232b360811b85600f1660108110610d4057610d406114dc565b1a60f81b828281518110610d5657610d566114dc565b60200101906001600160f81b031916908160001a90535060049490941c93610d7d81611499565b9050610d0f565b508315610dd35760405162461bcd60e51b815260206004820181905260248201527f537472696e67733a20686578206c656e67746820696e73756666696369656e7460448201526064016101cb565b9392505050565b600080825160411415610e115760208301516040840151606085015160001a610e0587828585610ffd565b94509450505050610720565b825160401415610e3b5760208301516040840151610e308683836110ea565b935093505050610720565b50600090506002610720565b6000816004811115610e5b57610e5b6114c6565b1415610e645750565b6001816004811115610e7857610e786114c6565b1415610ec15760405162461bcd60e51b815260206004820152601860248201527745434453413a20696e76616c6964207369676e617475726560401b60448201526064016101cb565b6002816004811115610ed557610ed56114c6565b1415610f235760405162461bcd60e51b815260206004820152601f60248201527f45434453413a20696e76616c6964207369676e6174757265206c656e6774680060448201526064016101cb565b6003816004811115610f3757610f376114c6565b1415610f905760405162461bcd60e51b815260206004820152602260248201527f45434453413a20696e76616c6964207369676e6174757265202773272076616c604482015261756560f01b60648201526084016101cb565b6004816004811115610fa457610fa46114c6565b14156109b15760405162461bcd60e51b815260206004820152602260248201527f45434453413a20696e76616c6964207369676e6174757265202776272076616c604482015261756560f01b60648201526084016101cb565b6000807f7fffffffffffffffffffffffffffffff5d576e7357a4501ddfe92f46681b20a083111561103457506000905060036110e1565b8460ff16601b1415801561104c57508460ff16601c14155b1561105d57506000905060046110e1565b6040805160008082526020820180845289905260ff881692820192909252606081018690526080810185905260019060a0016020604051602081039080840390855afa1580156110b1573d6000803e3d6000fd5b5050604051601f1901519150506001600160a01b0381166110da576000600192509250506110e1565b9150600090505b94509492505050565b6000806001600160ff1b0383168161110760ff86901c601b61141b565b905061111587828885610ffd565b935093505050935093915050565b600067ffffffffffffffff8084111561113e5761113e6114f2565b604051601f8501601f19908116603f01168101908282118183101715611166576111666114f2565b8160405280935085815286868601111561117f57600080fd5b858560208301376000602087830101525050509392505050565b600082601f8301126111aa57600080fd5b610dd383833560208501611123565b600080600080600060a086880312156111d157600080fd5b85359450602086013567ffffffffffffffff808211156111f057600080fd5b6111fc89838a01611199565b9550604088013591508082111561121257600080fd5b61121e89838a01611199565b9450606088013591508082111561123457600080fd5b61124089838a01611199565b9350608088013591508082111561125657600080fd5b5061126388828901611199565b9150509295509295909350565b6000806040838503121561128357600080fd5b823567ffffffffffffffff8082111561129b57600080fd5b6112a786838701611199565b935060208501359150808211156112bd57600080fd5b506112ca85828601611199565b9150509250929050565b600080604083850312156112e757600080fd5b823567ffffffffffffffff8111156112fe57600080fd5b8301601f8101851361130f57600080fd5b61131e85823560208401611123565b925050602083013561132f81611508565b809150509250929050565b60008060006060848603121561134f57600080fd5b83519250602084015161136181611508565b80925050604084015190509250925092565b7f416363657373436f6e74726f6c3a206163636f756e74200000000000000000008152600083516113ab816017850160208801611469565b7001034b99036b4b9b9b4b733903937b6329607d1b60179184019182015283516113dc816028840160208801611469565b01602801949350505050565b6020815260008251806020840152611407816040850160208701611469565b601f01601f19169190910160400192915050565b6000821982111561142e5761142e6114b0565b500190565b600081600019048311821515161561144d5761144d6114b0565b500290565b600082821015611464576114646114b0565b500390565b60005b8381101561148457818101518382015260200161146c565b83811115611493576000848401525b50505050565b6000816114a8576114a86114b0565b506000190190565b634e487b7160e01b600052601160045260246000fd5b634e487b7160e01b600052602160045260246000fd5b634e487b7160e01b600052603260045260246000fd5b634e487b7160e01b600052604160045260246000fd5b6001600160a01b03811681146109b157600080fdfea2646970667358221220705f49cf52dbb99b48332630a3d5aa35d1949282cb7bea1855e24cdb7f3c1a9664736f6c63430008060033",
  "linkReferences": {},
  "deployedLinkReferences": {}
}