{
  "_format": "hh-sol-artifact-1",
  "contractName": "MessageFacet",
  "sourceName": "contracts/facets/MessageFacet.sol",
  "abi": [
    {
      "anonymous": false,
      "inputs": [
        {
          "indexed": true,
          "internalType": "address",
          "name": "receiver",
          "type": "address"
        },
        {
          "indexed": false,
          "internalType": "uint256",
          "name": "value",
          "type": "uint256"
        }
      ],
      "name": "AmountReceived",
      "type": "event"
    },
    {
      "anonymous": false,
      "inputs": [
        {
          "indexed": false,
          "internalType": "address",
          "name": "sender",
          "type": "address"
        },
        {
          "indexed": false,
          "internalType": "address",
          "name": "donationAddress",
          "type": "address"
        },
        {
          "indexed": false,
          "internalType": "uint256",
          "name": "value",
          "type": "uint256"
        }
      ],
      "name": "DonationMade",
      "type": "event"
    },
    {
      "anonymous": false,
      "inputs": [
        {
          "indexed": true,
          "internalType": "address",
          "name": "createdBy",
          "type": "address"
        },
        {
          "indexed": true,
          "internalType": "address",
          "name": "respondedBy",
          "type": "address"
        },
        {
          "indexed": true,
          "internalType": "bytes32",
          "name": "messageId",
          "type": "bytes32"
        },
        {
          "indexed": false,
          "internalType": "string",
          "name": "messageLink",
          "type": "string"
        },
        {
          "indexed": false,
          "internalType": "uint256",
          "name": "msgValue",
          "type": "uint256"
        },
        {
          "indexed": false,
          "internalType": "uint256",
          "name": "timelock",
          "type": "uint256"
        }
      ],
      "name": "MessageCreated",
      "type": "event"
    },
    {
      "anonymous": false,
      "inputs": [
        {
          "indexed": true,
          "internalType": "bytes32",
          "name": "messageId",
          "type": "bytes32"
        },
        {
          "indexed": true,
          "internalType": "address",
          "name": "createdBy",
          "type": "address"
        },
        {
          "indexed": false,
          "internalType": "uint256",
          "name": "value",
          "type": "uint256"
        }
      ],
      "name": "MessageValueClaimed",
      "type": "event"
    },
    {
      "anonymous": false,
      "inputs": [
        {
          "indexed": true,
          "internalType": "address",
          "name": "createdBy",
          "type": "address"
        },
        {
          "indexed": true,
          "internalType": "address",
          "name": "respondedBy",
          "type": "address"
        },
        {
          "indexed": true,
          "internalType": "bytes32",
          "name": "messageId",
          "type": "bytes32"
        },
        {
          "indexed": false,
          "internalType": "string",
          "name": "answerLink",
          "type": "string"
        },
        {
          "indexed": false,
          "internalType": "uint256",
          "name": "responseValue",
          "type": "uint256"
        },
        {
          "indexed": false,
          "internalType": "uint256",
          "name": "msgValueAfterDeduction",
          "type": "uint256"
        }
      ],
      "name": "ResponseCreated",
      "type": "event"
    },
    {
      "anonymous": false,
      "inputs": [
        {
          "indexed": true,
          "internalType": "bytes32",
          "name": "messageId",
          "type": "bytes32"
        },
        {
          "indexed": true,
          "internalType": "address",
          "name": "createdBy",
          "type": "address"
        },
        {
          "indexed": true,
          "internalType": "address",
          "name": "respondedBy",
          "type": "address"
        },
        {
          "indexed": false,
          "internalType": "uint256",
          "name": "responseType",
          "type": "uint256"
        }
      ],
      "name": "ResponseMarked",
      "type": "event"
    },
    {
      "anonymous": false,
      "inputs": [
        {
          "indexed": true,
          "internalType": "bytes32",
          "name": "messageId",
          "type": "bytes32"
        },
        {
          "indexed": true,
          "internalType": "bytes32",
          "name": "tipId",
          "type": "bytes32"
        },
        {
          "indexed": true,
          "internalType": "address",
          "name": "createdBy",
          "type": "address"
        },
        {
          "indexed": false,
          "internalType": "uint256",
          "name": "value",
          "type": "uint256"
        }
      ],
      "name": "TipCreated",
      "type": "event"
    },
    {
      "anonymous": false,
      "inputs": [
        {
          "indexed": true,
          "internalType": "bytes32",
          "name": "messageId",
          "type": "bytes32"
        },
        {
          "indexed": true,
          "internalType": "bytes32",
          "name": "tipId",
          "type": "bytes32"
        },
        {
          "indexed": true,
          "internalType": "address",
          "name": "createdBy",
          "type": "address"
        },
        {
          "indexed": false,
          "internalType": "uint256",
          "name": "value",
          "type": "uint256"
        }
      ],
      "name": "TipValueClaimed",
      "type": "event"
    },
    {
      "inputs": [
        {
          "internalType": "bytes",
          "name": "data_",
          "type": "bytes"
        },
        {
          "internalType": "bytes",
          "name": "signature_",
          "type": "bytes"
        }
      ],
      "name": "claimBackMessageValue",
      "outputs": [],
      "stateMutability": "nonpayable",
      "type": "function"
    },
    {
      "inputs": [
        {
          "internalType": "bytes",
          "name": "data_",
          "type": "bytes"
        },
        {
          "internalType": "bytes",
          "name": "signature_",
          "type": "bytes"
        }
      ],
      "name": "claimBackTipValue",
      "outputs": [],
      "stateMutability": "nonpayable",
      "type": "function"
    },
    {
      "inputs": [
        {
          "internalType": "bytes",
          "name": "data_",
          "type": "bytes"
        },
        {
          "internalType": "bytes",
          "name": "signature_",
          "type": "bytes"
        }
      ],
      "name": "createMessage",
      "outputs": [
        {
          "internalType": "bytes32",
          "name": "",
          "type": "bytes32"
        }
      ],
      "stateMutability": "payable",
      "type": "function"
    },
    {
      "inputs": [
        {
          "internalType": "bytes",
          "name": "data_",
          "type": "bytes"
        },
        {
          "internalType": "bytes",
          "name": "signature_",
          "type": "bytes"
        }
      ],
      "name": "createResponse",
      "outputs": [],
      "stateMutability": "payable",
      "type": "function"
    },
    {
      "inputs": [
        {
          "internalType": "bytes",
          "name": "data_",
          "type": "bytes"
        },
        {
          "internalType": "bytes",
          "name": "signature_",
          "type": "bytes"
        }
      ],
      "name": "createTip",
      "outputs": [],
      "stateMutability": "payable",
      "type": "function"
    },
    {
      "inputs": [
        {
          "internalType": "uint256",
          "name": "skip_",
          "type": "uint256"
        },
        {
          "internalType": "uint256",
          "name": "limit_",
          "type": "uint256"
        }
      ],
      "name": "geMessageIds",
      "outputs": [
        {
          "internalType": "bytes32[]",
          "name": "",
          "type": "bytes32[]"
        },
        {
          "internalType": "uint256",
          "name": "",
          "type": "uint256"
        }
      ],
      "stateMutability": "view",
      "type": "function"
    },
    {
      "inputs": [
        {
          "internalType": "bytes32",
          "name": "messageId_",
          "type": "bytes32"
        }
      ],
      "name": "getMessage",
      "outputs": [
        {
          "internalType": "string",
          "name": "",
          "type": "string"
        },
        {
          "internalType": "string",
          "name": "",
          "type": "string"
        },
        {
          "internalType": "uint256",
          "name": "",
          "type": "uint256"
        },
        {
          "internalType": "uint256",
          "name": "",
          "type": "uint256"
        },
        {
          "internalType": "address",
          "name": "",
          "type": "address"
        },
        {
          "internalType": "address",
          "name": "",
          "type": "address"
        },
        {
          "internalType": "uint256",
          "name": "",
          "type": "uint256"
        },
        {
          "internalType": "uint256",
          "name": "",
          "type": "uint256"
        },
        {
          "internalType": "uint256",
          "name": "",
          "type": "uint256"
        },
        {
          "internalType": "uint256",
          "name": "",
          "type": "uint256"
        }
      ],
      "stateMutability": "view",
      "type": "function"
    },
    {
      "inputs": [
        {
          "internalType": "uint256",
          "name": "skip_",
          "type": "uint256"
        },
        {
          "internalType": "uint256",
          "name": "limit_",
          "type": "uint256"
        }
      ],
      "name": "getTipIds",
      "outputs": [
        {
          "internalType": "bytes32[]",
          "name": "",
          "type": "bytes32[]"
        },
        {
          "internalType": "uint256",
          "name": "",
          "type": "uint256"
        }
      ],
      "stateMutability": "view",
      "type": "function"
    },
    {
      "inputs": [
        {
          "internalType": "bytes32",
          "name": "messageId_",
          "type": "bytes32"
        },
        {
          "internalType": "uint256",
          "name": "skip_",
          "type": "uint256"
        },
        {
          "internalType": "uint256",
          "name": "limit_",
          "type": "uint256"
        }
      ],
      "name": "getTipIdsOfMessage",
      "outputs": [
        {
          "internalType": "bytes32[]",
          "name": "",
          "type": "bytes32[]"
        },
        {
          "internalType": "uint256",
          "name": "",
          "type": "uint256"
        }
      ],
      "stateMutability": "view",
      "type": "function"
    },
    {
      "inputs": [
        {
          "internalType": "uint256",
          "name": "feeNumerator_",
          "type": "uint256"
        },
        {
          "internalType": "string",
          "name": "baseURI_",
          "type": "string"
        }
      ],
      "name": "initMessage",
      "outputs": [],
      "stateMutability": "nonpayable",
      "type": "function"
    },
    {
      "inputs": [
        {
          "internalType": "bytes",
          "name": "data_",
          "type": "bytes"
        },
        {
          "internalType": "bytes",
          "name": "signature_",
          "type": "bytes"
        }
      ],
      "name": "markResponse",
      "outputs": [],
      "stateMutability": "nonpayable",
      "type": "function"
    },
    {
      "inputs": [
        {
          "internalType": "string",
          "name": "_baseURI",
          "type": "string"
        }
      ],
      "name": "setMessageBaseURI",
      "outputs": [],
      "stateMutability": "nonpayable",
      "type": "function"
    },
    {
      "stateMutability": "payable",
      "type": "receive"
    }
  ],
  "bytecode": "0x608060405234801561001057600080fd5b506001600055613299806100256000396000f3fe6080604052600436106100ab5760003560e01c80639bfd9eeb116100645780639bfd9eeb146101bd578063b12ea2a3146101dd578063d726e787146101fd578063e58485ef14610210578063f1096c2114610230578063f1da2aea1461025057600080fd5b80630139a221146100db578063192e14d21461011a5780632cf65fbb14610148578063352c2eb41461015d5780635bd5a2f91461017d5780639a02b2dc1461019d57600080fd5b366100d6576040513481526000906000805160206132448339815191529060200160405180910390a2005b600080fd5b3480156100e757600080fd5b506100fb6100f6366004612a79565b610271565b6040516101119a99989796959493929190612f57565b60405180910390f35b34801561012657600080fd5b5061013a610135366004612cea565b6102aa565b604051610111929190612efc565b61015b610156366004612abe565b6102f5565b005b34801561016957600080fd5b5061015b610178366004612abe565b6103f4565b34801561018957600080fd5b5061015b610198366004612cad565b6104fa565b3480156101a957600080fd5b5061015b6101b8366004612abe565b610598565b3480156101c957600080fd5b5061015b6101d8366004612b22565b610674565b3480156101e957600080fd5b5061013a6101f8366004612a92565b6106c5565b61015b61020b366004612abe565b610711565b34801561021c57600080fd5b5061015b61022b366004612abe565b610817565b34801561023c57600080fd5b5061013a61024b366004612cea565b6108dd565b61026361025e366004612abe565b61091b565b604051908152602001610111565b6060806000806000806000806000806102898b610a3a565b99509950995099509950995099509950995099509193959799509193959799565b606060006000805160206131e48339815191526102e885857fe761a213764bd39775162bc4a0a407e0f1d3a0dc17b7e3c6caf96a032d7d3f6a610bfa565b92509250505b9250929050565b6000806000808580602001905181019061030f9190612c06565b604080517fe0b338f5dd6721877081b544548b096d5646abb797f319d6e2372d7b06bed6da60208201529081018590526001600160a01b03841660608201526080810183905260a081018290529397509195509350915060009060c00160405160208183030381529060405280519060200120905061039084868389610ce1565b60408051808201909152600681526530303930303560d01b60208201523484146103d65760405162461bcd60e51b81526004016103cd9190612f44565b60405180910390fd5b506103e2848484610ecf565b6103eb84610f29565b50505050505050565b6000806000808580602001905181019061040e9190612c06565b604080517f33a40f3736da80008001a2a9c787ed1aa046f347e77fef8dae5102755609530a60208201529081018590526001600160a01b03841660608201526080810183905260a081018290529397509195509350915060009060c00160405160208183030381529060405280519060200120905061048f84868389610ce1565b60008061049d868686610f64565b91509150806001600160a01b0316826001600160a01b0316867fba2e4b16cb7f6bbe19c7a1146539a78ed1db3efbb3dd80d6c65f0ba1d8403459876040516104e791815260200190565b60405180910390a4505050505050505050565b6000805160206131e4833981519152805460ff161561055b5760405162461bcd60e51b815260206004820152601960248201527f557365723a20616c726561647920696e697469616c697a65640000000000000060448201526064016103cd565b6105636110b9565b805460ff1916600190811782558101839055610384600282015581516105929060038301906020850190612865565b50505050565b600260005414156105bb5760405162461bcd60e51b81526004016103cd90612ff2565b60026000819055506000806000848060200190518101906105dc9190612bd1565b604080517f1e8f57f833cd48d7ca4a4a532ec279dbeb919f370a7ead5e508b8f2176f06fb660208201529081018490526001600160a01b038316606082015260808101829052929550909350915060009060a00160405160208183030381529060405280519060200120905061065483858388610ce1565b61065e83836110c5565b61066783610f29565b5050600160005550505050565b61067e600061114e565b80516000805160206131e4833981519152906106c0907fe761a213764bd39775162bc4a0a407e0f1d3a0dc17b7e3c6caf96a032d7d3f67906020850190612865565b505050565b600083815260008051602061320483398151915260205260408120606091906000805160206131e4833981519152906107049086908690600601610bfa565b9250925050935093915050565b60008060008060008680602001905181019061072d9190612c42565b8051602080830191909120604080517fff7ce2859122eb4122ff728855e7cc8d3cc03166bb649376abd8d3419d9de1c1818501528082018990526001600160a01b03881660608201526080810187905260a0810186905260c0808201939093528151808203909301835260e00190528051910120949950929750909550935091506107ba8587838a610ce1565b60408051808201909152600681526530303930303560d01b60208201523484146107f75760405162461bcd60e51b81526004016103cd9190612f44565b506108048534868561115b565b61080d85610f29565b5050505050505050565b6002600054141561083a5760405162461bcd60e51b81526004016103cd90612ff2565b600260008190555060008060008480602001905181019061085b9190612bd1565b604080517f1f2c4d0a29022b88e0ec0d1f86384d3a126175b9242d02ce947b5908bdedac4d60208201529081018490526001600160a01b038316606082015260808101829052929550909350915060009060a0016040516020818303038152906040528051906020012090506108d383858388610ce1565b61065e838361125e565b606060006000805160206131e48339815191526102e885857fe761a213764bd39775162bc4a0a407e0f1d3a0dc17b7e3c6caf96a032d7d3f6b610bfa565b60008060008060008060008880602001905181019061093a9190612b57565b8051602080830191909120604080517ff32b9910d43c4ab0f1ab82575e1e7dd44f7d5863e99af1f9a3a0811d6bd3998e818501528082018a90526001600160a01b0389811660608301528816608082015260a0810187905260c0810186905260e080820193909352815180820390930183526101000190528051910120959b509399509197509550935091506109d28688838c610ce1565b60408051808201909152600681526530303930303560d01b6020820152348414610a0f5760405162461bcd60e51b81526004016103cd9190612f44565b506000610a1f87878787876112f0565b9050610a2a87610f29565b9750505050505050505b92915050565b606080600080808080808080806000805160206131e483398151915260008d815260049182016020526040902060028101546003808301549383015460058401546007850154600886015460098701549698508897600189019790956001600160a01b03958616959094169360ff90911690811115610abb57610abb6131a1565b89600a0154898054610acc90613135565b80601f0160208091040260200160405190810160405280929190818152602001828054610af890613135565b8015610b455780601f10610b1a57610100808354040283529160200191610b45565b820191906000526020600020905b815481529060010190602001808311610b2857829003601f168201915b50505050509950888054610b5890613135565b80601f0160208091040260200160405190810160405280929190818152602001828054610b8490613135565b8015610bd15780601f10610ba657610100808354040283529160200191610bd1565b820191906000526020600020905b815481529060010190602001808311610bb457829003601f168201915b505050505098509a509a509a509a509a509a509a509a509a509a50509193959799509193959799565b8054606090600090610c0d9086906130db565b841115610c24578254610c219086906130db565b93505b8367ffffffffffffffff811115610c3d57610c3d6131cd565b604051908082528060200260200182016040528015610c66578160200160208202803683370190505b50915060005b84811015610cc95783610c7f8288613082565b81548110610c8f57610c8f6131b7565b9060005260206000200154838281518110610cac57610cac6131b7565b602090810291909101015280610cc181613170565b915050610c6c565b5081610cd58587613082565b91509150935093915050565b6000610d0b7f793ba39717776526f812abdc4711d8c8f539f0d8595e4dc61cd8bbf5affeabc25490565b60405161190160f01b60208201526022810191909152604281018490526062016040516020818303038152906040528051906020012090506000610d4f8284611392565b9050806001600160a01b0316866001600160a01b031614610db25760405162461bcd60e51b815260206004820152601d60248201527f4d7946756e6374696f6e3a20696e76616c6964207369676e617475726500000060448201526064016103cd565b6001600160a01b038116610e035760405162461bcd60e51b815260206004820152601860248201527745434453413a20696e76616c6964207369676e617475726560401b60448201526064016103cd565b7f793ba39717776526f812abdc4711d8c8f539f0d8595e4dc61cd8bbf5affeabc1610e304261012c613082565b8610610e725760405162461bcd60e51b8152602060048201526011602482015270151a5b595cdd185b5c08195e1c1a5c9959607a1b60448201526064016103cd565b6001600160a01b038716600090815260038201602052604090205486116103eb5760405162461bcd60e51b815260206004820152601160248201527029ba30b632902a3930b739b0b1ba34b7b760791b60448201526064016103cd565b6000610edc8285856113b6565b9050836001600160a01b031681837fb8a61f3258608a2f1af184e4640b08e6cd69126e3c563d30b6348ebfb515588486604051610f1b91815260200190565b60405180910390a450505050565b6001600160a01b031660009081527f793ba39717776526f812abdc4711d8c8f539f0d8595e4dc61cd8bbf5affeabc460205260409020429055565b60008281526000805160206132048339815191526020526040812081906000805160206131e483398151915290610f9a8161142d565b610fa4818861147a565b610fad856114c8565b6003600982015460ff166003811115610fc857610fc86131a1565b146040518060400160405280600681526020016530303230303960d01b815250906110065760405162461bcd60e51b81526004016103cd9190612f44565b506000600b82015460ff166005811115611022576110226131a1565b146040518060400160405280600681526020016518181918189960d11b815250906110605760405162461bcd60e51b81526004016103cd9190612f44565b50846005811115611073576110736131a1565b600b8201805460ff19166001836005811115611091576110916131a1565b021790555060048101546005909101546001600160a01b039182169891169650945050505050565b6110c3600061114e565b565b6000806110d2838561150a565b915091506110e0848361159e565b836001600160a01b03166000805160206132448339815191528360405161110991815260200190565b60405180910390a2836001600160a01b031683827f8827140ed7e0aee657f6d8ab3d65b02d30022ed333e284958313db49217e7c3e85604051610f1b91815260200190565b6111588133611611565b50565b8060008151116040518060400160405280600681526020016530303230313360d01b8152509061119e5760405162461bcd60e51b81526004016103cd9190612f44565b50600260005414156111c25760405162461bcd60e51b81526004016103cd90612ff2565b6002600090815584906111d4846116b0565b90506000806111e5878a868661170d565b915091506000806111f88487858e611762565b91509150888b6001600160a01b0316846001600160a01b03167f20f6c7779bb86d43f22292cc3e4291f2c583d6d6d850d170d9ae4c9341f793ff88858760405161124493929190612fcd565b60405180910390a450506001600055505050505050505050565b600061126a828461188e565b9050611276838261159e565b826001600160a01b03166000805160206132448339815191528260405161129f91815260200190565b60405180910390a2826001600160a01b0316827f205302058bf3afb5ece22c5535eab6ea487294c8339c2a194fc6476219badbcd836040516112e391815260200190565b60405180910390a3505050565b60008160008151116040518060400160405280600681526020016530303230313360d01b815250906113355760405162461bcd60e51b81526004016103cd9190612f44565b5061134087876118e3565b600061134c8888611999565b9050600088888887898660405160200161136b96959493929190612eaf565b604051602081830303815290604052905061138581611a14565b9998505050505050505050565b60008060006113a18585611a4e565b915091506113ae81611abb565b509392505050565b6000838152600080516020613204833981519152602052604081206000805160206131e4833981519152906113ea81611c71565b60006113fb83600501888888611c95565b9050611408828287611db8565b6007909201805460018101825560009182526020909120018290555090509392505050565b600481015460408051808201909152600681526530303230303360d01b6020820152906001600160a01b03166114765760405162461bcd60e51b81526004016103cd9190612f44565b5050565b600482015460408051808201909152600681526518181918181960d11b6020820152906001600160a01b038381169116146106c05760405162461bcd60e51b81526004016103cd9190612f44565b80600510156040518060400160405280600681526020016530303230313160d01b815250906114765760405162461bcd60e51b81526004016103cd9190612f44565b60008281527fe761a213764bd39775162bc4a0a407e0f1d3a0dc17b7e3c6caf96a032d7d3f696020908152604080832060038101548452600080516020613204833981519152909252822082916000805160206131e483398151915291611572828288611ded565b61158682600401805460ff19166001179055565b81600101548260030154945094505050509250929050565b6001600160a01b03821660009081527f793ba39717776526f812abdc4711d8c8f539f0d8595e4dc61cd8bbf5affeabc36020526040812080547f793ba39717776526f812abdc4711d8c8f539f0d8595e4dc61cd8bbf5affeabc192849291611607908490613082565b9091555050505050565b60008281527fe60be0110dc1792cd793dc6d2d18db752d6e49771db52ffb0dfa2892dbc86d2d602090815260408083206001600160a01b038516845290915290205460ff166114765761166e816001600160a01b03166014611e1b565b611679836020611e1b565b60405160200161168a929190612e3a565b60408051601f198184030181529082905262461bcd60e51b82526103cd91600401612f44565b6040516060906000805160206131e4833981519152906116f6907fe761a213764bd39775162bc4a0a407e0f1d3a0dc17b7e3c6caf96a032d7d3f67908590602001612d93565b604051602081830303815290604052915050919050565b60008481526000805160206132048339815191526020526040812081906117348187611fbe565b61173f818686611fec565b60038101546004909101549092506001600160a01b031690505b94509492505050565b6000806000806117718761201a565b905061177c8861201a565b6001600160a01b038681166000908152600080516020613224833981519152602052604090206001015491935016806117ef576117b9868461159e565b856001600160a01b0316600080516020613244833981519152846040516117e291815260200190565b60405180910390a2611845565b6117f9818461159e565b604080516001600160a01b038089168252831660208201529081018490527f70c6bc6cf53707fb5561feef795d557f7e46f57bd4f1a13ce36e9ffdf58d38bb9060600160405180910390a15b61184f878361159e565b866001600160a01b03166000805160206132448339815191528360405161187891815260200190565b60405180910390a2509097909650945050505050565b6000828152600080516020613204833981519152602052604081206000805160206131e4833981519152906118c38185612088565b6118d781600901805460ff19166001179055565b60020154949350505050565b6001600160a01b0381811660009081526000805160206132248339815191526020908152604080832093861683526003909301905220547f542a208c7d2fa3ea28f94718c04f12864ccbca69fd520e2dcf2a6b2bf2ea30f69060ff166001816002811115611953576119536131a1565b14156040518060400160405280600681526020016518181a98181960d11b815250906119925760405162461bcd60e51b81526004016103cd9190612f44565b5050505050565b6001600160a01b03818116600090815260008051602061322483398151915260209081526040808320938616835260039093019052908120547f542a208c7d2fa3ea28f94718c04f12864ccbca69fd520e2dcf2a6b2bf2ea30f69060ff1660028181811115611a0a57611a0a6131a1565b1495945050505050565b6000806000611a22846120ad565b91509150600080611a3484848861212f565b91509150611a45848484848a6123a8565b50949350505050565b600080825160411415611a855760208301516040840151606085015160001a611a7987828585612420565b945094505050506102ee565b825160401415611aaf5760208301516040840151611aa486838361250a565b9350935050506102ee565b506000905060026102ee565b6000816004811115611acf57611acf6131a1565b1415611ad85750565b6001816004811115611aec57611aec6131a1565b1415611b355760405162461bcd60e51b815260206004820152601860248201527745434453413a20696e76616c6964207369676e617475726560401b60448201526064016103cd565b6002816004811115611b4957611b496131a1565b1415611b975760405162461bcd60e51b815260206004820152601f60248201527f45434453413a20696e76616c6964207369676e6174757265206c656e6774680060448201526064016103cd565b6003816004811115611bab57611bab6131a1565b1415611c045760405162461bcd60e51b815260206004820152602260248201527f45434453413a20696e76616c6964207369676e6174757265202773272076616c604482015261756560f01b60648201526084016103cd565b6004816004811115611c1857611c186131a1565b14156111585760405162461bcd60e51b815260206004820152602260248201527f45434453413a20696e76616c6964207369676e6174757265202776272076616c604482015261756560f01b60648201526084016103cd565b611c7a8161142d565b611c8381612543565b611c8c8161259d565b611158816125f7565b604080516020808201869052606085901b6bffffffffffffffffffffffff1916828401524260548084019190915283518084039091018152607483018085528151918301919091206000818152928990528483205460b48501909552600682526530303330303160d01b60949094019390935290926001600160a01b031615611d315760405162461bcd60e51b81526004016103cd9190612f44565b506040805160a0810182526001600160a01b039586168152602080820195865242828401908152606083019889526000608084018181528682529a909252929020905181546001600160a01b03191696169590951785559251600185015591516002840155509151600382015591516004909201805460ff19169215159290921790915590565b80836003016000828254611dcc9190613082565b90915550505060069091018054600181018255600091825260209091200155565b611df68361263b565b611e008382612681565b611e0982612543565b611e12836126cc565b6106c082612715565b60606000611e2a8360026130bc565b611e35906002613082565b67ffffffffffffffff811115611e4d57611e4d6131cd565b6040519080825280601f01601f191660200182016040528015611e77576020820181803683370190505b509050600360fc1b81600081518110611e9257611e926131b7565b60200101906001600160f81b031916908160001a905350600f60fb1b81600181518110611ec157611ec16131b7565b60200101906001600160f81b031916908160001a9053506000611ee58460026130bc565b611ef0906001613082565b90505b6001811115611f68576f181899199a1a9b1b9c1cb0b131b232b360811b85600f1660108110611f2457611f246131b7565b1a60f81b828281518110611f3a57611f3a6131b7565b60200101906001600160f81b031916908160001a90535060049490941c93611f618161311e565b9050611ef3565b508315611fb75760405162461bcd60e51b815260206004820181905260248201527f537472696e67733a20686578206c656e67746820696e73756666696369656e7460448201526064016103cd565b9392505050565b611fc88282612759565b611fd18261142d565b611fda82612543565b611fe38261259d565b611476826125f7565b80516120019060018501906020840190612865565b505060098201805460ff19166003179055600a90910155565b7fe761a213764bd39775162bc4a0a407e0f1d3a0dc17b7e3c6caf96a032d7d3f65546000906000805160206131e48339815191529082906127109061205f90866130bc565b612069919061309a565b905061207660008261159e565b61208081856130db565b949350505050565b6120918261142d565b61209b828261147a565b6120a482612715565b6114768261259d565b6000806000806000858060200190518101906120c991906129ef565b50945050509250925060006120de84846127a7565b9050808210156040518060400160405280600681526020016503030313031360d41b815250906121215760405162461bcd60e51b81526004016103cd9190612f44565b509296919550909350505050565b6000606060008060008580602001905181019061214c91906129ef565b50945094509450505081884260405160200161216a93929190612d54565b60408051601f198184030181528282528051602091820120600080855291840190925290965061219a8542613082565b90506121a5846116b0565b95506040518061018001604052808781526020016040518060200160405280600081525081526020018481526020018481526020018b6001600160a01b031681526020018a6001600160a01b031681526020018381526020014281526020018281526020016000600381111561221d5761221d6131a1565b8152602001600081526020016000600581111561223c5761223c6131a1565b905260008881526000805160206132048339815191526020908152604090912082518051919261227192849290910190612865565b50602082810151805161228a9260018501920190612865565b50604082015160028201556060820151600382015560808201516004820180546001600160a01b039283166001600160a01b03199182161790915560a084015160058401805491909316911617905560c082015180516122f49160068401916020909101906128e9565b5060e08201516007820155610100820151600882015561012082015160098201805460ff1916600183600381111561232e5761232e6131a1565b0217905550610140820151600a820155610160820151600b8201805460ff19166001836005811115612362576123626131a1565b021790555090505061237f6000805160206131e483398151915290565b600601805460018101825560009182526020909120018790555094989397509295505050505050565b600080828060200190518101906123bf91906129ef565b509450509350505084866001600160a01b0316886001600160a01b03167f651be34982554b4e6052c16b8b82047c3be8ef3ad1a737840212c535f5fff13d87858760405161240f93929190612fcd565b60405180910390a450505050505050565b6000807f7fffffffffffffffffffffffffffffff5d576e7357a4501ddfe92f46681b20a08311156124575750600090506003611759565b8460ff16601b1415801561246f57508460ff16601c14155b156124805750600090506004611759565b6040805160008082526020820180845289905260ff881692820192909252606081018690526080810185905260019060a0016020604051602081039080840390855afa1580156124d4573d6000803e3d6000fd5b5050604051601f1901519150506001600160a01b0381166124fd57600060019250925050611759565b9660009650945050505050565b6000806001600160ff1b0383168161252760ff86901c601b613082565b905061253587828885612420565b935093505050935093915050565b6003600982015460ff16600381111561255e5761255e6131a1565b1415604051806040016040528060068152602001650c0c0c8c0c0d60d21b815250906114765760405162461bcd60e51b81526004016103cd9190612f44565b6001600982015460ff1660038111156125b8576125b86131a1565b14156040518060400160405280600681526020016530303230303560d01b815250906114765760405162461bcd60e51b81526004016103cd9190612f44565b806008015442106040518060400160405280600681526020016506060646060760d31b815250906114765760405162461bcd60e51b81526004016103cd9190612f44565b805460408051808201909152600681526530303330303360d01b6020820152906001600160a01b03166114765760405162461bcd60e51b81526004016103cd9190612f44565b815460408051808201909152600681526518181998181960d11b6020820152906001600160a01b038381169116146106c05760405162461bcd60e51b81526004016103cd9190612f44565b60048101546040805180820190915260068152650c0c0ccc0c0d60d21b60208201529060ff161515600114156114765760405162461bcd60e51b81526004016103cd9190612f44565b806008015442116040518060400160405280600681526020016518181918181b60d11b815250906114765760405162461bcd60e51b81526004016103cd9190612f44565b600582015460408051808201909152600681526518181918181960d11b6020820152906001600160a01b038381169116146106c05760405162461bcd60e51b81526004016103cd9190612f44565b60006127b383836127eb565b156127c057506000610a34565b506001600160a01b031660009081526000805160206132248339815191526020526040902054919050565b6001600160a01b03818116600090815260008051602061322483398151915260209081526040808320938616835260039093019052908120547f542a208c7d2fa3ea28f94718c04f12864ccbca69fd520e2dcf2a6b2bf2ea30f69060029060ff168181111561285c5761285c6131a1565b14949350505050565b82805461287190613135565b90600052602060002090601f01602090048101928261289357600085556128d9565b82601f106128ac57805160ff19168380011785556128d9565b828001600101855582156128d9579182015b828111156128d95782518255916020019190600101906128be565b506128e5929150612923565b5090565b8280548282559060005260206000209081019282156128d957916020028201828111156128d95782518255916020019190600101906128be565b5b808211156128e55760008155600101612924565b80516001600160a01b038116811461294f57600080fd5b919050565b600082601f83011261296557600080fd5b81356129786129738261305a565b613029565b81815284602083860101111561298d57600080fd5b816020850160208301376000918101602001919091529392505050565b600082601f8301126129bb57600080fd5b81516129c96129738261305a565b8181528460208386010111156129de57600080fd5b6120808260208301602087016130f2565b60008060008060008060c08789031215612a0857600080fd5b612a1187612938565b9550612a1f60208801612938565b945060408701519350606087015167ffffffffffffffff811115612a4257600080fd5b612a4e89828a016129aa565b9350506080870151915060a08701518015158114612a6b57600080fd5b809150509295509295509295565b600060208284031215612a8b57600080fd5b5035919050565b600080600060608486031215612aa757600080fd5b505081359360208301359350604090920135919050565b60008060408385031215612ad157600080fd5b823567ffffffffffffffff80821115612ae957600080fd5b612af586838701612954565b93506020850135915080821115612b0b57600080fd5b50612b1885828601612954565b9150509250929050565b600060208284031215612b3457600080fd5b813567ffffffffffffffff811115612b4b57600080fd5b61208084828501612954565b60008060008060008060c08789031215612b7057600080fd5b86519550612b8060208801612938565b9450612b8e60408801612938565b9350606087015192506080870151915060a087015167ffffffffffffffff811115612bb857600080fd5b612bc489828a016129aa565b9150509295509295509295565b600080600060608486031215612be657600080fd5b83519250612bf660208501612938565b9150604084015190509250925092565b60008060008060808587031215612c1c57600080fd5b84519350612c2c60208601612938565b6040860151606090960151949790965092505050565b600080600080600060a08688031215612c5a57600080fd5b85519450612c6a60208701612938565b93506040860151925060608601519150608086015167ffffffffffffffff811115612c9457600080fd5b612ca0888289016129aa565b9150509295509295909350565b60008060408385031215612cc057600080fd5b82359150602083013567ffffffffffffffff811115612cde57600080fd5b612b1885828601612954565b60008060408385031215612cfd57600080fd5b50508035926020909101359150565b60008151808452612d248160208601602086016130f2565b601f01601f19169290920160200192915050565b60008151612d4a8185602086016130f2565b9290920192915050565b60008451612d668184602089016130f2565b60609490941b6bffffffffffffffffffffffff191691909301908152601481019190915260340192915050565b600080845481600182811c915080831680612daf57607f831692505b6020808410821415612dcf57634e487b7160e01b86526022600452602486fd5b818015612de35760018114612df457612e21565b60ff19861689528489019650612e21565b60008b81526020902060005b86811015612e195781548b820152908501908301612e00565b505084890196505b505050505050612e318185612d38565b95945050505050565b7f416363657373436f6e74726f6c3a206163636f756e7420000000000000000000815260008351612e728160178501602088016130f2565b7001034b99036b4b9b9b4b733903937b6329607d1b6017918401918201528351612ea38160288401602088016130f2565b01602801949350505050565b6001600160a01b038781168252861660208201526040810185905260c060608201819052600090612ee290830186612d0c565b60808301949094525090151560a090910152949350505050565b604080825283519082018190526000906020906060840190828701845b82811015612f3557815184529284019290840190600101612f19565b50505092019290925292915050565b602081526000611fb76020830184612d0c565b6000610140808352612f6b8184018e612d0c565b90508281036020840152612f7f818d612d0c565b604084019b909b52505060608101979097526001600160a01b0395861660808801529390941660a086015260c085019190915260e08401526101008301919091526101209091015292915050565b606081526000612fe06060830186612d0c565b60208301949094525060400152919050565b6020808252601f908201527f5265656e7472616e637947756172643a207265656e7472616e742063616c6c00604082015260600190565b604051601f8201601f1916810167ffffffffffffffff81118282101715613052576130526131cd565b604052919050565b600067ffffffffffffffff821115613074576130746131cd565b50601f01601f191660200190565b600082198211156130955761309561318b565b500190565b6000826130b757634e487b7160e01b600052601260045260246000fd5b500490565b60008160001904831182151516156130d6576130d661318b565b500290565b6000828210156130ed576130ed61318b565b500390565b60005b8381101561310d5781810151838201526020016130f5565b838111156105925750506000910152565b60008161312d5761312d61318b565b506000190190565b600181811c9082168061314957607f821691505b6020821081141561316a57634e487b7160e01b600052602260045260246000fd5b50919050565b60006000198214156131845761318461318b565b5060010190565b634e487b7160e01b600052601160045260246000fd5b634e487b7160e01b600052602160045260246000fd5b634e487b7160e01b600052603260045260246000fd5b634e487b7160e01b600052604160045260246000fdfee761a213764bd39775162bc4a0a407e0f1d3a0dc17b7e3c6caf96a032d7d3f64e761a213764bd39775162bc4a0a407e0f1d3a0dc17b7e3c6caf96a032d7d3f68542a208c7d2fa3ea28f94718c04f12864ccbca69fd520e2dcf2a6b2bf2ea30f70036624afd4ac14e2ebe9b68a6ec0c6e4f6bf5bde2999a61e1fec085ca86697da264697066735822122045adecba5de38c946ae20c843e3f1f5f7c5129299e47e51b4fa61b92dce44ffb64736f6c63430008060033",
  "linkReferences": {},
  "deployedLinkReferences": {}
}