{
  "_format": "hh-sol-artifact-1",
  "contractName": "MessageFacet",
  "sourceName": "contracts/facets/MessageFacet.sol",
  "abi": [
    {
      "anonymous": false,
      "inputs": [
        {
          "indexed": true,
          "internalType": "address",
          "name": "receiver",
          "type": "address"
        },
        {
          "indexed": false,
          "internalType": "uint256",
          "name": "value",
          "type": "uint256"
        }
      ],
      "name": "AmountReceived",
      "type": "event"
    },
    {
      "anonymous": false,
      "inputs": [
        {
          "indexed": true,
          "internalType": "address",
          "name": "sender",
          "type": "address"
        },
        {
          "indexed": true,
          "internalType": "address",
          "name": "recipient",
          "type": "address"
        },
        {
          "indexed": true,
          "internalType": "bytes32",
          "name": "messageId",
          "type": "bytes32"
        },
        {
          "indexed": false,
          "internalType": "bytes32",
          "name": "activeSessionId",
          "type": "bytes32"
        },
        {
          "indexed": false,
          "internalType": "string",
          "name": "messageLink",
          "type": "string"
        },
        {
          "indexed": false,
          "internalType": "uint256",
          "name": "messageType",
          "type": "uint256"
        },
        {
          "indexed": false,
          "internalType": "uint256",
          "name": "msgValue",
          "type": "uint256"
        },
        {
          "indexed": false,
          "internalType": "uint256",
          "name": "timelock",
          "type": "uint256"
        }
      ],
      "name": "MessageCreated",
      "type": "event"
    },
    {
      "anonymous": false,
      "inputs": [
        {
          "indexed": true,
          "internalType": "bytes32",
          "name": "messageId",
          "type": "bytes32"
        },
        {
          "indexed": true,
          "internalType": "address",
          "name": "createdBy",
          "type": "address"
        },
        {
          "indexed": false,
          "internalType": "uint256",
          "name": "value",
          "type": "uint256"
        }
      ],
      "name": "MessageValueClaimed",
      "type": "event"
    },
    {
      "anonymous": false,
      "inputs": [
        {
          "indexed": true,
          "internalType": "bytes32",
          "name": "messageId",
          "type": "bytes32"
        },
        {
          "indexed": true,
          "internalType": "address",
          "name": "owner",
          "type": "address"
        },
        {
          "indexed": true,
          "internalType": "address",
          "name": "creator",
          "type": "address"
        },
        {
          "indexed": false,
          "internalType": "string",
          "name": "answerLink",
          "type": "string"
        },
        {
          "indexed": false,
          "internalType": "uint256",
          "name": "responseValue",
          "type": "uint256"
        },
        {
          "indexed": false,
          "internalType": "uint256",
          "name": "value",
          "type": "uint256"
        }
      ],
      "name": "ResponseCreated",
      "type": "event"
    },
    {
      "anonymous": false,
      "inputs": [
        {
          "indexed": true,
          "internalType": "bytes32",
          "name": "messageId",
          "type": "bytes32"
        },
        {
          "indexed": true,
          "internalType": "address",
          "name": "owner",
          "type": "address"
        },
        {
          "indexed": true,
          "internalType": "address",
          "name": "answerer",
          "type": "address"
        },
        {
          "indexed": false,
          "internalType": "uint256",
          "name": "responseType",
          "type": "uint256"
        }
      ],
      "name": "ResponseMarked",
      "type": "event"
    },
    {
      "anonymous": false,
      "inputs": [
        {
          "indexed": true,
          "internalType": "bytes32",
          "name": "messageId",
          "type": "bytes32"
        },
        {
          "indexed": true,
          "internalType": "bytes32",
          "name": "tipId",
          "type": "bytes32"
        },
        {
          "indexed": true,
          "internalType": "address",
          "name": "createdBy",
          "type": "address"
        },
        {
          "indexed": false,
          "internalType": "uint256",
          "name": "value",
          "type": "uint256"
        }
      ],
      "name": "TipCreated",
      "type": "event"
    },
    {
      "anonymous": false,
      "inputs": [
        {
          "indexed": true,
          "internalType": "bytes32",
          "name": "messageId",
          "type": "bytes32"
        },
        {
          "indexed": true,
          "internalType": "bytes32",
          "name": "tipId",
          "type": "bytes32"
        },
        {
          "indexed": true,
          "internalType": "address",
          "name": "createdBy",
          "type": "address"
        },
        {
          "indexed": false,
          "internalType": "uint256",
          "name": "value",
          "type": "uint256"
        }
      ],
      "name": "TipValueClaimed",
      "type": "event"
    },
    {
      "inputs": [
        {
          "internalType": "bytes32",
          "name": "messageId_",
          "type": "bytes32"
        }
      ],
      "name": "claimBackMessageValue",
      "outputs": [],
      "stateMutability": "nonpayable",
      "type": "function"
    },
    {
      "inputs": [
        {
          "internalType": "bytes32",
          "name": "tipId_",
          "type": "bytes32"
        }
      ],
      "name": "claimBackTipValue",
      "outputs": [],
      "stateMutability": "nonpayable",
      "type": "function"
    },
    {
      "inputs": [
        {
          "internalType": "address",
          "name": "recipient_",
          "type": "address"
        },
        {
          "internalType": "uint256",
          "name": "timelock_",
          "type": "uint256"
        },
        {
          "internalType": "uint256",
          "name": "messageType_",
          "type": "uint256"
        },
        {
          "internalType": "string",
          "name": "messageHash_",
          "type": "string"
        }
      ],
      "name": "createMessage",
      "outputs": [
        {
          "internalType": "bytes32",
          "name": "messageId",
          "type": "bytes32"
        }
      ],
      "stateMutability": "payable",
      "type": "function"
    },
    {
      "inputs": [
        {
          "internalType": "bytes32",
          "name": "messageId_",
          "type": "bytes32"
        },
        {
          "internalType": "string",
          "name": "answerHash_",
          "type": "string"
        }
      ],
      "name": "createResponse",
      "outputs": [],
      "stateMutability": "payable",
      "type": "function"
    },
    {
      "inputs": [
        {
          "internalType": "bytes32",
          "name": "messageId_",
          "type": "bytes32"
        }
      ],
      "name": "createTip",
      "outputs": [],
      "stateMutability": "payable",
      "type": "function"
    },
    {
      "inputs": [
        {
          "internalType": "uint256",
          "name": "skip_",
          "type": "uint256"
        },
        {
          "internalType": "uint256",
          "name": "limit_",
          "type": "uint256"
        }
      ],
      "name": "gePublicMessageIds",
      "outputs": [
        {
          "internalType": "bytes32[]",
          "name": "",
          "type": "bytes32[]"
        },
        {
          "internalType": "uint256",
          "name": "",
          "type": "uint256"
        }
      ],
      "stateMutability": "view",
      "type": "function"
    },
    {
      "inputs": [
        {
          "internalType": "bytes32",
          "name": "messageId_",
          "type": "bytes32"
        }
      ],
      "name": "getMessage",
      "outputs": [
        {
          "internalType": "string",
          "name": "",
          "type": "string"
        },
        {
          "internalType": "string",
          "name": "",
          "type": "string"
        },
        {
          "internalType": "uint256",
          "name": "",
          "type": "uint256"
        },
        {
          "internalType": "uint256",
          "name": "",
          "type": "uint256"
        },
        {
          "internalType": "address",
          "name": "",
          "type": "address"
        },
        {
          "internalType": "address",
          "name": "",
          "type": "address"
        },
        {
          "internalType": "uint256",
          "name": "",
          "type": "uint256"
        },
        {
          "internalType": "uint256",
          "name": "",
          "type": "uint256"
        },
        {
          "internalType": "uint256",
          "name": "",
          "type": "uint256"
        },
        {
          "internalType": "uint256",
          "name": "",
          "type": "uint256"
        },
        {
          "internalType": "uint256",
          "name": "",
          "type": "uint256"
        }
      ],
      "stateMutability": "view",
      "type": "function"
    },
    {
      "inputs": [
        {
          "internalType": "uint256",
          "name": "_messageType",
          "type": "uint256"
        }
      ],
      "name": "getMinimumBid",
      "outputs": [
        {
          "internalType": "uint256",
          "name": "",
          "type": "uint256"
        }
      ],
      "stateMutability": "view",
      "type": "function"
    },
    {
      "inputs": [
        {
          "internalType": "uint256",
          "name": "skip_",
          "type": "uint256"
        },
        {
          "internalType": "uint256",
          "name": "limit_",
          "type": "uint256"
        }
      ],
      "name": "getPrivateMessageIds",
      "outputs": [
        {
          "internalType": "bytes32[]",
          "name": "",
          "type": "bytes32[]"
        },
        {
          "internalType": "uint256",
          "name": "",
          "type": "uint256"
        }
      ],
      "stateMutability": "view",
      "type": "function"
    },
    {
      "inputs": [
        {
          "internalType": "uint256",
          "name": "skip_",
          "type": "uint256"
        },
        {
          "internalType": "uint256",
          "name": "limit_",
          "type": "uint256"
        }
      ],
      "name": "getTipIds",
      "outputs": [
        {
          "internalType": "bytes32[]",
          "name": "",
          "type": "bytes32[]"
        },
        {
          "internalType": "uint256",
          "name": "",
          "type": "uint256"
        }
      ],
      "stateMutability": "view",
      "type": "function"
    },
    {
      "inputs": [
        {
          "internalType": "bytes32",
          "name": "messageId_",
          "type": "bytes32"
        },
        {
          "internalType": "uint256",
          "name": "skip_",
          "type": "uint256"
        },
        {
          "internalType": "uint256",
          "name": "limit_",
          "type": "uint256"
        }
      ],
      "name": "getTipIdsOfMessage",
      "outputs": [
        {
          "internalType": "bytes32[]",
          "name": "",
          "type": "bytes32[]"
        },
        {
          "internalType": "uint256",
          "name": "",
          "type": "uint256"
        }
      ],
      "stateMutability": "view",
      "type": "function"
    },
    {
      "inputs": [
        {
          "internalType": "uint256",
          "name": "minimumBid_",
          "type": "uint256"
        },
        {
          "internalType": "uint256",
          "name": "feeNumerator_",
          "type": "uint256"
        },
        {
          "internalType": "string",
          "name": "baseURI_",
          "type": "string"
        }
      ],
      "name": "initMessage",
      "outputs": [],
      "stateMutability": "nonpayable",
      "type": "function"
    },
    {
      "inputs": [
        {
          "internalType": "string",
          "name": "_baseURI",
          "type": "string"
        }
      ],
      "name": "setMessageBaseURI",
      "outputs": [],
      "stateMutability": "nonpayable",
      "type": "function"
    },
    {
      "inputs": [
        {
          "internalType": "uint256",
          "name": "minimumBid_",
          "type": "uint256"
        },
        {
          "internalType": "uint256",
          "name": "messageType_",
          "type": "uint256"
        }
      ],
      "name": "setMinimumBid",
      "outputs": [],
      "stateMutability": "nonpayable",
      "type": "function"
    },
    {
      "inputs": [
        {
          "internalType": "uint256",
          "name": "_recipientUpFront",
          "type": "uint256"
        }
      ],
      "name": "setRecipientUpFront",
      "outputs": [],
      "stateMutability": "nonpayable",
      "type": "function"
    },
    {
      "stateMutability": "payable",
      "type": "receive"
    }
  ],
  "bytecode": "0x608060405234801561001057600080fd5b506001600055613475806100256000396000f3fe6080604052600436106100ec5760003560e01c8063835791251161008a578063ca05249f11610059578063ca05249f1461029f578063d095f68e146102bf578063f1096c21146102d2578063f224aa4f146102f257600080fd5b8063835791251461022c5780639bfd9eeb1461024c578063a740d68e1461026c578063b12ea2a31461027f57600080fd5b80633837548c116100c65780633837548c1461019c5780634b8e7a34146101be57806351eb08d1146101de5780635ad1c6e5146101fe57600080fd5b80630139a2211461011b5780630600d4eb1461015b57806320d4f41b1461018957600080fd5b366101165760405134815233906000805160206134208339815191529060200160405180910390a2005b600080fd5b34801561012757600080fd5b5061013b610136366004612daf565b610312565b6040516101529b9a9998979695949392919061316b565b60405180910390f35b34801561016757600080fd5b5061017b610176366004612daf565b610351565b604051908152602001610152565b61017b610197366004612d4c565b610362565b3480156101a857600080fd5b506101bc6101b7366004612e70565b610454565b005b3480156101ca57600080fd5b506101bc6101d9366004612daf565b6104c5565b3480156101ea57600080fd5b506101bc6101f9366004612e92565b610589565b34801561020a57600080fd5b5061021e610219366004612e70565b610643565b6040516101529291906130da565b34801561023857600080fd5b506101bc610247366004612daf565b61066d565b34801561025857600080fd5b506101bc610267366004612e3b565b6106e3565b6101bc61027a366004612daf565b61076d565b34801561028b57600080fd5b5061021e61029a366004612e0f565b6107c5565b3480156102ab57600080fd5b5061021e6102ba366004612e70565b610803565b6101bc6102cd366004612dc8565b610820565b3480156102de57600080fd5b5061021e6102ed366004612e70565b61099a565b3480156102fe57600080fd5b506101bc61030d366004612daf565b6109b7565b606080600080600080600080600080600061032c8c610a45565b9a509a509a509a509a509a509a509a509a509a509a5091939597999b90929496989a50565b600061035c82610c0b565b92915050565b60008280600110156040518060400160405280600681526020016503030323031360d41b815250906103b05760405162461bcd60e51b81526004016103a79190613158565b60405180910390fd5b508260008151116040518060400160405280600681526020016530303230313360d01b815250906103f45760405162461bcd60e51b81526004016103a79190613158565b506103ff3388610c3f565b600061040b3389610cee565b905060003389898989348760405160200161042c9796959493929190613085565b60405160208183030381529060405290506104478782610d69565b9998505050505050505050565b60405163695cef6560e01b81526000600482015273__$bb9d112070cfc0a1d6e6da2a36217b4d08$__9063695cef659060240160006040518083038186803b15801561049f57600080fd5b505af41580156104b3573d6000803e3d6000fd5b505050506104c18282610d94565b5050565b60405163695cef6560e01b81526000600482015273__$bb9d112070cfc0a1d6e6da2a36217b4d08$__9063695cef659060240160006040518083038186803b15801561051057600080fd5b505af4158015610524573d6000803e3d6000fd5b505050506000610532610e1e565b905061053f82600461329f565b8160020154116040518060400160405280600681526020016530303930303560d01b815250906105825760405162461bcd60e51b81526004016103a79190613158565b5060050155565b6000610593610e1e565b90506105a060048561327d565b6005820155805460ff16156105f75760405162461bcd60e51b815260206004820152601960248201527f557365723a20616c726561647920696e697469616c697a65640000000000000060448201526064016103a7565b6105ff610e42565b805460ff191660019081178255810184905560028101849055600381018390556103846004820155815161063c9060068301906020850190612ac4565b5050505050565b6060600080610650610e1e565b9050610660858583600a01610e4e565b92509250505b9250929050565b60006106798233610f35565b90506106853382610f7d565b60405181815233906000805160206134208339815191529060200160405180910390a2604051818152339083907f205302058bf3afb5ece22c5535eab6ea487294c8339c2a194fc6476219badbcd9060200160405180910390a35050565b60405163695cef6560e01b81526000600482015273__$bb9d112070cfc0a1d6e6da2a36217b4d08$__9063695cef659060240160006040518083038186803b15801561072e57600080fd5b505af4158015610742573d6000803e3d6000fd5b505050506000610750610e1e565b82519091506107689060068301906020850190612ac4565b505050565b600061077a823334610ff0565b9050336001600160a01b031681837fb8a61f3258608a2f1af184e4640b08e6cd69126e3c563d30b6348ebfb5155884346040516107b991815260200190565b60405180910390a45050565b60606000806107d2610e1e565b90506107f685858360070160008a8152602001908152602001600020600601610e4e565b9250925050935093915050565b6060600080610810610e1e565b9050610660858583600901610e4e565b8060008151116040518060400160405280600681526020016530303230313360d01b815250906108635760405162461bcd60e51b81526004016103a79190613158565b50600260005414156108b75760405162461bcd60e51b815260206004820152601f60248201527f5265656e7472616e637947756172643a207265656e7472616e742063616c6c0060448201526064016103a7565b6002600090815534906108c93361105a565b905060006108d68561120a565b90508115610907576000806108eb3385611245565b9150915080600014610904576109018286613265565b94505b50505b600080610916883387866114fb565b9150915060008061092f84888561092a3390565b611553565b9150915061093a3390565b6001600160a01b0316836001600160a01b03168b7fff7a1ecaac27eed4c6bd348a8dd8d05ed71190db5b77e89f881fa74087429bc9888587604051610981939291906131e7565b60405180910390a4505060016000555050505050505050565b60606000806109a7610e1e565b9050610660858583600b01610e4e565b6000806109c483336115f3565b915091506109d86109d23390565b83610f7d565b60405182815233906000805160206134208339815191529060200160405180910390a2336001600160a01b031683827f8827140ed7e0aee657f6d8ab3d65b02d30022ed333e284958313db49217e7c3e85604051610a3891815260200190565b60405180910390a4505050565b606080600080600080600080600080600080610a5f610e1e565b60008e8152600791820160205260409020600281015460038083015460048401546005850154958501546008860154600c8701546009880154979950899860018a019895966001600160a01b0395861696959091169460ff1690811115610ac857610ac8613388565b8a600a01548a8054610ad99061331c565b80601f0160208091040260200160405190810160405280929190818152602001828054610b059061331c565b8015610b525780601f10610b2757610100808354040283529160200191610b52565b820191906000526020600020905b815481529060010190602001808311610b3557829003601f168201915b50505050509a50898054610b659061331c565b80601f0160208091040260200160405190810160405280929190818152602001828054610b919061331c565b8015610bde5780601f10610bb357610100808354040283529160200191610bde565b820191906000526020600020905b815481529060010190602001808311610bc157829003601f168201915b505050505099509b509b509b509b509b509b509b509b509b509b509b505091939597999b90929496989a50565b6000610c168261165f565b6000610c20610e1e565b90506001831415610c35576002015492915050565b6001015492915050565b6001600160a01b0381811660009081527f542a208c7d2fa3ea28f94718c04f12864ccbca69fd520e2dcf2a6b2bf2ea30f76020908152604080832093861683526004909301905220546000805160206133e08339815191529060ff166001816002811115610caf57610caf613388565b14156040518060400160405280600681526020016518181a98181960d11b8152509061063c5760405162461bcd60e51b81526004016103a79190613158565b6001600160a01b0381811660009081527f542a208c7d2fa3ea28f94718c04f12864ccbca69fd520e2dcf2a6b2bf2ea30f760209081526040808320938616835260049093019052908120546000805160206133e08339815191529060ff1660028181811115610d5f57610d5f613388565b1495945050505050565b60006001831415610d8457610d7d8261169e565b905061035c565b610d8d82611705565b9392505050565b6000610d9e610e1e565b9050610da98261165f565b6001821415610e145780600501548310156040518060400160405280600681526020016530303930303360d01b81525090610df75760405162461bcd60e51b81526004016103a79190613158565b5060028101839055610e0a60048461327d565b6005909101555050565b6001019190915550565b7fe761a213764bd39775162bc4a0a407e0f1d3a0dc17b7e3c6caf96a032d7d3f6490565b610e4c6000611744565b565b8054606090600090610e619086906132be565b841115610e78578254610e759086906132be565b93505b8367ffffffffffffffff811115610e9157610e916133b4565b604051908082528060200260200182016040528015610eba578160200160208202803683370190505b50915060005b84811015610f1d5783610ed38288613265565b81548110610ee357610ee361339e565b9060005260206000200154838281518110610f0057610f0061339e565b602090810291909101015280610f1581613357565b915050610ec0565b5081610f298587613265565b91509150935093915050565b600080610f40610e1e565b60008581526007820160205260409020909150610f5d8185611751565b610f7181600901805460ff19166001179055565b60020154949350505050565b6001600160a01b03821660009081527f793ba39717776526f812abdc4711d8c8f539f0d8595e4dc61cd8bbf5affeabc26020526040812080547f793ba39717776526f812abdc4711d8c8f539f0d8595e4dc61cd8bbf5affeabc192849291610fe6908490613265565b9091555050505050565b600080610ffb610e1e565b6000868152600782016020526040902090915061101781611776565b60006110288360080188888861179a565b90506110358282876118bd565b600b909201805460018101825560009182526020909120018290555090509392505050565b6000600080516020613400833981519152816110aa846001600160a01b031660009081527fb07a94881b82de8854879fe381b1f19e5b031791603453f25aeba961528ba5e7602052604090205490565b9050806110bb575060009392505050565b60006110d1856110cc6001856132be565b6118f2565b600081815260038086016020908152604080842081516101208101835281546001600160a01b0316815260018201549381019390935260028101549183019190915291820154606082015260048201546080820152600582015460a0820152600682015460c0820152600782015460ff16151560e0820152600882018054949550929390926101008401916111659061331c565b80601f01602080910402602001604051908101604052809291908181526020018280546111919061331c565b80156111de5780601f106111b3576101008083540402835291602001916111de565b820191906000526020600020905b8154815290600101906020018083116111c157829003601f168201915b505050505081525050905042816040015111156111fe5750949350505050565b50600095945050505050565b60606000611216610e1e565b9050806006018360405160200161122e929190612f69565b604051602081830303815290604052915050919050565b60008061125183611960565b60008381527fb07a94881b82de8854879fe381b1f19e5b031791603453f25aeba961528ba5e6602090815260409182902082516101208101845281546001600160a01b031681526001820154928101929092526002810154928201929092526003820154606082015260048201546080820152600582015460a0820152600682015460c0820152600782015460ff16151560e0820152600882018054600080516020613400833981519152939261139d92909184916101008401916113159061331c565b80601f01602080910402602001604051908101604052809291908181526020018280546113419061331c565b801561138e5780601f106113635761010080835404028352916020019161138e565b820191906000526020600020905b81548152906001019060200180831161137157829003601f168201915b505050505081525050876119e6565b604080516101208101825282546001600160a01b03168152600183015460208201526002830154918101919091526003820154606082015260048201546080820152600582015460a0820152600682015460c0820152600782015460ff16151560e08201526008820180546114a6929184916101008401919061141f9061331c565b80601f016020809104026020016040519081016040528092919081815260200182805461144b9061331c565b80156114985780601f1061146d57610100808354040283529160200191611498565b820191906000526020600020905b81548152906001019060200180831161147b57829003601f168201915b505050505081525050611a3c565b8060030154816005015410156114c757600301549250600091506106669050565b80600301548160050160008282546114df91906132be565b9091555050600381015460059091015490969095509350505050565b6000806000611508610e1e565b60008881526007919091016020526040902090506115268187611a80565b611531818686611aae565b60038101546004909101549092506001600160a01b0316905094509492505050565b600080600061156187611adc565b9050600061156e87611adc565b905061157a8583610f7d565b6115848682610f7d565b846001600160a01b0316600080516020613420833981519152836040516115ad91815260200190565b60405180910390a2856001600160a01b0316600080516020613420833981519152826040516115de91815260200190565b60405180910390a29097909650945050505050565b6000806000611600610e1e565b60008681526008820160209081526040808320600381015484526007850190925290912091925090611633828288611b35565b61164782600401805460ff19166001179055565b81600101548260030154945094505050509250929050565b60408051808201909152600681526503030323031360d41b602082015260018211156104c15760405162461bcd60e51b81526004016103a79190613158565b60008060006116ac84611b63565b9150915060006116bb8261105a565b90506000806116ca8784611bf8565b915091506000806116dd8787868c611c43565b915091506116eb8387611ebf565b6116f987878488858e611ed6565b50979650505050505050565b600080600061171384611f58565b9150915060006117228261105a565b90506000806117318784611fdb565b915091506000806116dd8787868c61200d565b61174e8133612289565b50565b61175a82612328565b6117648282612371565b61176d826123bf565b6104c182612403565b61177f81612328565b6117888161245d565b61179181612403565b61174e816124b7565b604080516020808201869052606085901b6bffffffffffffffffffffffff1916828401524260548084019190915283518084039091018152607483018085528151918301919091206000818152928990528483205460b48501909552600682526530303330303160d01b60949094019390935290926001600160a01b0316156118365760405162461bcd60e51b81526004016103a79190613158565b506040805160a0810182526001600160a01b039586168152602080820195865242828401908152606083019889526000608084018181528682529a909252929020905181546001600160a01b03191696169590951785559251600185015591516002840155509151600382015591516004909201805460ff19169215159290921790915590565b808360030160008282546118d19190613265565b90915550505060069091018054600181018255600091825260209091200155565b6001600160a01b03821660009081527fb07a94881b82de8854879fe381b1f19e5b031791603453f25aeba961528ba5e760205260408120805460008051602061340083398151915291908490811061194c5761194c61339e565b906000526020600020015491505092915050565b60008181527fb07a94881b82de8854879fe381b1f19e5b031791603453f25aeba961528ba5e66020908152604091829020548251808401909352600683526530313030303960d01b9183019190915260008051602061340083398151915291906001600160a01b03166107685760405162461bcd60e51b81526004016103a79190613158565b806001600160a01b031682600001516001600160a01b0316146040518060400160405280600681526020016518189818181960d11b815250906107685760405162461bcd60e51b81526004016103a79190613158565b428160400151116040518060400160405280600681526020016530313030313160d01b815250906104c15760405162461bcd60e51b81526004016103a79190613158565b611a8a8282612371565b611a9382612328565b611a9c8261245d565b611aa582612403565b6104c1826124b7565b8051611ac39060018501906020840190612ac4565b505060098201805460ff19166003179055600a90910155565b600080611ae7610e1e565b905060006127106bffffffffffffffffffffffff16826003015485611b0c919061329f565b611b16919061327d565b9050611b23600082610f7d565b611b2d81856132be565b949350505050565b611b3e836124fb565b611b488382612541565b611b518261245d565b611b5a8361258c565b610768826123bf565b600080600080600085806020019051810190611b7f9190612c47565b509550505050925092506000611ba78484600180811115611ba257611ba2613388565b6125d5565b9050808210156040518060400160405280600681526020016530303130303960d01b81525090611bea5760405162461bcd60e51b81526004016103a79190613158565b509296919550909350505050565b60008060008085806020019051810190611c129190612c47565b96509650505050505080611c3557611c2a8286612610565b935093505050610666565b506000958695509350505050565b6000606060008084806020019051810190611c5e9190612cda565b505094505093505050808842604051602001611c7c93929190612f2a565b60408051601f1981840301815282825280516020918201206000808552918401909252909550611cac8442613265565b9050611cb78361120a565b9450604051806101a001604052808681526020016040518060200160405280600081525081526020018981526020018981526020018b6001600160a01b031681526020018a6001600160a01b0316815260200183815260200142815260200182815260200160006003811115611d2f57611d2f613388565b81526020016000815260200160006002811115611d4e57611d4e613388565b81526001602090910152611d60610e1e565b600088815260079190910160209081526040909120825180519192611d8a92849290910190612ac4565b506020828101518051611da39260018501920190612ac4565b50604082015160028201556060820151600382015560808201516004820180546001600160a01b039283166001600160a01b03199182161790915560a084015160058401805491909316911617905560c08201518051611e0d916006840191602090910190612b48565b5060e08201516007820155610100820151600882015561012082015160098201805460ff19166001836003811115611e4757611e47613388565b0217905550610140820151600a820155610160820151600b8201805460ff19166001836002811115611e7b57611e7b613388565b021790555061018082015181600c0155905050611e96610e1e565b600a01805460018101825560009182526020909120018690555093989297509195505050505050565b81156104c1576104c181611ed161264d565b612662565b600080600083806020019051810190611eef9190612c47565b5095505094509450505086886001600160a01b03168a6001600160a01b03167fa45d3d44209f2721e0d5ec33d4e0398dc8b57ef7c8a794721749d92491236b24898987878a604051611f45959493929190613122565b60405180910390a4505050505050505050565b600080600080600085806020019051810190611f749190612c47565b509550505050925092506000611f98848460006001811115611ba257611ba2613388565b9050808210156040518060400160405280600681526020016503030313031360d41b81525090611bea5760405162461bcd60e51b81526004016103a79190613158565b60008060008085806020019051810190611ff59190612c47565b96509650505050505080611c3557611c2a828661277b565b60006060600080848060200190518101906120289190612cda565b50509450509350505080884260405160200161204693929190612f2a565b60408051601f19818403018152828252805160209182012060008085529184019092529095506120768442613265565b90506120818361120a565b9450604051806101a001604052808681526020016040518060200160405280600081525081526020018981526020018981526020018b6001600160a01b031681526020018a6001600160a01b03168152602001838152602001428152602001828152602001600060038111156120f9576120f9613388565b8152602001600081526020016000600281111561211857612118613388565b8152600060209091015261212a610e1e565b60008881526007919091016020908152604090912082518051919261215492849290910190612ac4565b50602082810151805161216d9260018501920190612ac4565b50604082015160028201556060820151600382015560808201516004820180546001600160a01b039283166001600160a01b03199182161790915560a084015160058401805491909316911617905560c082015180516121d7916006840191602090910190612b48565b5060e08201516007820155610100820151600882015561012082015160098201805460ff1916600183600381111561221157612211613388565b0217905550610140820151600a820155610160820151600b8201805460ff1916600183600281111561224557612245613388565b021790555061018082015181600c0155905050612260610e1e565b600901805460018101825560009182526020909120018690555093989297509195505050505050565b60008281527fe60be0110dc1792cd793dc6d2d18db752d6e49771db52ffb0dfa2892dbc86d2d602090815260408083206001600160a01b038516845290915290205460ff166104c1576122e6816001600160a01b031660146127d5565b6122f18360206127d5565b604051602001612302929190613010565b60408051601f198184030181529082905262461bcd60e51b82526103a791600401613158565b600481015460408051808201909152600681526530303230303360d01b6020820152906001600160a01b03166104c15760405162461bcd60e51b81526004016103a79190613158565b600582015460408051808201909152600681526518181918181960d11b6020820152906001600160a01b038381169116146107685760405162461bcd60e51b81526004016103a79190613158565b806008015442116040518060400160405280600681526020016518181918181b60d11b815250906104c15760405162461bcd60e51b81526004016103a79190613158565b6001600982015460ff16600381111561241e5761241e613388565b14156040518060400160405280600681526020016530303230303560d01b815250906104c15760405162461bcd60e51b81526004016103a79190613158565b6003600982015460ff16600381111561247857612478613388565b1415604051806040016040528060068152602001650c0c0c8c0c0d60d21b815250906104c15760405162461bcd60e51b81526004016103a79190613158565b806008015442106040518060400160405280600681526020016506060646060760d31b815250906104c15760405162461bcd60e51b81526004016103a79190613158565b805460408051808201909152600681526530303330303360d01b6020820152906001600160a01b03166104c15760405162461bcd60e51b81526004016103a79190613158565b815460408051808201909152600681526518181998181960d11b6020820152906001600160a01b038381169116146107685760405162461bcd60e51b81526004016103a79190613158565b60048101546040805180820190915260068152650c0c0ccc0c0d60d21b60208201529060ff161515600114156104c15760405162461bcd60e51b81526004016103a79190613158565b60006125e18484612971565b156125ee57506000610d8d565b600182141561260757612600836129eb565b9050610d8d565b611b2d83612a5b565b600080600061261d610e1e565b90508315612632578460009250925050610666565b600581015461264190866132be565b95600195509350505050565b600080612658610e1e565b6005015492915050565b804710156126b25760405162461bcd60e51b815260206004820152601d60248201527f416464726573733a20696e73756666696369656e742062616c616e636500000060448201526064016103a7565b6000826001600160a01b03168260405160006040518083038185875af1925050503d80600081146126ff576040519150601f19603f3d011682016040523d82523d6000602084013e612704565b606091505b50509050806107685760405162461bcd60e51b815260206004820152603a60248201527f416464726573733a20756e61626c6520746f2073656e642076616c75652c207260448201527f6563697069656e74206d6179206861766520726576657274656400000000000060648201526084016103a7565b6000806000612788610e1e565b9050831561279d578460009250925050610666565b6127a76000610c0b565b8511156127c95760058101546127bd90866132be565b60019250925050610666565b50929360009350915050565b606060006127e483600261329f565b6127ef906002613265565b67ffffffffffffffff811115612807576128076133b4565b6040519080825280601f01601f191660200182016040528015612831576020820181803683370190505b509050600360fc1b8160008151811061284c5761284c61339e565b60200101906001600160f81b031916908160001a905350600f60fb1b8160018151811061287b5761287b61339e565b60200101906001600160f81b031916908160001a905350600061289f84600261329f565b6128aa906001613265565b90505b6001811115612922576f181899199a1a9b1b9c1cb0b131b232b360811b85600f16601081106128de576128de61339e565b1a60f81b8282815181106128f4576128f461339e565b60200101906001600160f81b031916908160001a90535060049490941c9361291b81613305565b90506128ad565b508315610d8d5760405162461bcd60e51b815260206004820181905260248201527f537472696e67733a20686578206c656e67746820696e73756666696369656e7460448201526064016103a7565b6001600160a01b0381811660009081527f542a208c7d2fa3ea28f94718c04f12864ccbca69fd520e2dcf2a6b2bf2ea30f760209081526040808320938616835260049093019052908120546000805160206133e08339815191529060029060ff16818111156129e2576129e2613388565b14949350505050565b60006000805160206133e083398151915281612a05610e1e565b6001600160a01b0385166000908152600180850160205260409091200154909150612a3557600201549392505050565b506001600160a01b03909216600090815260019283016020526040902090910154919050565b60006000805160206133e083398151915281612a75610e1e565b6001600160a01b0385166000908152600184016020526040902054909150612aa257600101549392505050565b506001600160a01b039092166000908152600190920160205250604090205490565b828054612ad09061331c565b90600052602060002090601f016020900481019282612af25760008555612b38565b82601f10612b0b57805160ff1916838001178555612b38565b82800160010185558215612b38579182015b82811115612b38578251825591602001919060010190612b1d565b50612b44929150612b82565b5090565b828054828255906000526020600020908101928215612b385791602002820182811115612b38578251825591602001919060010190612b1d565b5b80821115612b445760008155600101612b83565b80518015158114612ba757600080fd5b919050565b600082601f830112612bbd57600080fd5b8135612bd0612bcb8261323d565b61320c565b818152846020838601011115612be557600080fd5b816020850160208301376000918101602001919091529392505050565b600082601f830112612c1357600080fd5b8151612c21612bcb8261323d565b818152846020838601011115612c3657600080fd5b611b2d8260208301602087016132d5565b600080600080600080600060e0888a031215612c6257600080fd5b8751612c6d816133ca565b6020890151909750612c7e816133ca565b809650506040880151945060608801519350608088015167ffffffffffffffff811115612caa57600080fd5b612cb68a828b01612c02565b93505060a08801519150612ccc60c08901612b97565b905092959891949750929550565b600080600080600080600060e0888a031215612cf557600080fd5b8751612d00816133ca565b6020890151909750612d11816133ca565b604089015160608a0151919750955060ff81168114612d2f57600080fd5b608089015190945067ffffffffffffffff811115612caa57600080fd5b60008060008060808587031215612d6257600080fd5b8435612d6d816133ca565b93506020850135925060408501359150606085013567ffffffffffffffff811115612d9757600080fd5b612da387828801612bac565b91505092959194509250565b600060208284031215612dc157600080fd5b5035919050565b60008060408385031215612ddb57600080fd5b82359150602083013567ffffffffffffffff811115612df957600080fd5b612e0585828601612bac565b9150509250929050565b600080600060608486031215612e2457600080fd5b505081359360208301359350604090920135919050565b600060208284031215612e4d57600080fd5b813567ffffffffffffffff811115612e6457600080fd5b611b2d84828501612bac565b60008060408385031215612e8357600080fd5b50508035926020909101359150565b600080600060608486031215612ea757600080fd5b8335925060208401359150604084013567ffffffffffffffff811115612ecc57600080fd5b612ed886828701612bac565b9150509250925092565b60008151808452612efa8160208601602086016132d5565b601f01601f19169290920160200192915050565b60008151612f208185602086016132d5565b9290920192915050565b60008451612f3c8184602089016132d5565b60609490941b6bffffffffffffffffffffffff191691909301908152601481019190915260340192915050565b600080845481600182811c915080831680612f8557607f831692505b6020808410821415612fa557634e487b7160e01b86526022600452602486fd5b818015612fb95760018114612fca57612ff7565b60ff19861689528489019650612ff7565b60008b81526020902060005b86811015612fef5781548b820152908501908301612fd6565b505084890196505b5050505050506130078185612f0e565b95945050505050565b7f416363657373436f6e74726f6c3a206163636f756e74200000000000000000008152600083516130488160178501602088016132d5565b7001034b99036b4b9b9b4b733903937b6329607d1b60179184019182015283516130798160288401602088016132d5565b01602801949350505050565b6001600160a01b03888116825287166020820152604081018690526060810185905260e0608082018190526000906130bf90830186612ee2565b60a08301949094525090151560c09091015295945050505050565b604080825283519082018190526000906020906060840190828701845b82811015613113578151845292840192908401906001016130f7565b50505092019290925292915050565b85815260a06020820152600061313b60a0830187612ee2565b604083019590955250606081019290925260809091015292915050565b602081526000610d8d6020830184612ee2565b600061016080835261317f8184018f612ee2565b90508281036020840152613193818e612ee2565b604084019c909c52505060608101989098526001600160a01b0396871660808901529490951660a087015260c086019290925260e08501526101008401526101208301919091526101409091015292915050565b6060815260006131fa6060830186612ee2565b60208301949094525060400152919050565b604051601f8201601f1916810167ffffffffffffffff81118282101715613235576132356133b4565b604052919050565b600067ffffffffffffffff821115613257576132576133b4565b50601f01601f191660200190565b6000821982111561327857613278613372565b500190565b60008261329a57634e487b7160e01b600052601260045260246000fd5b500490565b60008160001904831182151516156132b9576132b9613372565b500290565b6000828210156132d0576132d0613372565b500390565b60005b838110156132f05781810151838201526020016132d8565b838111156132ff576000848401525b50505050565b60008161331457613314613372565b506000190190565b600181811c9082168061333057607f821691505b6020821081141561335157634e487b7160e01b600052602260045260246000fd5b50919050565b600060001982141561336b5761336b613372565b5060010190565b634e487b7160e01b600052601160045260246000fd5b634e487b7160e01b600052602160045260246000fd5b634e487b7160e01b600052603260045260246000fd5b634e487b7160e01b600052604160045260246000fd5b6001600160a01b038116811461174e57600080fdfe542a208c7d2fa3ea28f94718c04f12864ccbca69fd520e2dcf2a6b2bf2ea30f6b07a94881b82de8854879fe381b1f19e5b031791603453f25aeba961528ba5e30036624afd4ac14e2ebe9b68a6ec0c6e4f6bf5bde2999a61e1fec085ca86697da2646970667358221220e2f06e59e99c72d841939ae9a5d2ef9f81e33fd1f0dd9a23bebe93e96e8fffab64736f6c63430008060033",
  "linkReferences": {
    "contracts/libraries/LibOwnership.sol": {
      "LibOwnership": [
        {
          "length": 20,
          "start": 1167
        },
        {
          "length": 20,
          "start": 1280
        },
        {
          "length": 20,
          "start": 1822
        }
      ]
    }
  },
  "deployedLinkReferences": {
    "contracts/libraries/LibOwnership.sol": {
      "LibOwnership": [
        {
          "length": 20,
          "start": 1130
        },
        {
          "length": 20,
          "start": 1243
        },
        {
          "length": 20,
          "start": 1785
        }
      ]
    }
  }
}