{
  "_format": "hh-sol-artifact-1",
  "contractName": "MessageFacet",
  "sourceName": "contracts/facets/MessageFacet.sol",
  "abi": [
    {
      "anonymous": false,
      "inputs": [
        {
          "indexed": true,
          "internalType": "address",
          "name": "receiver",
          "type": "address"
        },
        {
          "indexed": false,
          "internalType": "uint256",
          "name": "value",
          "type": "uint256"
        }
      ],
      "name": "AmountReceived",
      "type": "event"
    },
    {
      "anonymous": false,
      "inputs": [
        {
          "indexed": true,
          "internalType": "address",
          "name": "createdBy",
          "type": "address"
        },
        {
          "indexed": true,
          "internalType": "address",
          "name": "recipient",
          "type": "address"
        },
        {
          "indexed": true,
          "internalType": "bytes32",
          "name": "messageId",
          "type": "bytes32"
        },
        {
          "indexed": false,
          "internalType": "bytes32",
          "name": "activeSessionId",
          "type": "bytes32"
        },
        {
          "indexed": false,
          "internalType": "string",
          "name": "messageLink",
          "type": "string"
        },
        {
          "indexed": false,
          "internalType": "bytes",
          "name": "data",
          "type": "bytes"
        }
      ],
      "name": "MessageCreated",
      "type": "event"
    },
    {
      "anonymous": false,
      "inputs": [
        {
          "indexed": true,
          "internalType": "bytes32",
          "name": "messageId",
          "type": "bytes32"
        },
        {
          "indexed": true,
          "internalType": "address",
          "name": "createdBy",
          "type": "address"
        },
        {
          "indexed": false,
          "internalType": "uint256",
          "name": "value",
          "type": "uint256"
        }
      ],
      "name": "MessageValueClaimed",
      "type": "event"
    },
    {
      "anonymous": false,
      "inputs": [
        {
          "indexed": true,
          "internalType": "bytes32",
          "name": "messageId",
          "type": "bytes32"
        },
        {
          "indexed": true,
          "internalType": "address",
          "name": "owner",
          "type": "address"
        },
        {
          "indexed": true,
          "internalType": "address",
          "name": "creator",
          "type": "address"
        },
        {
          "indexed": false,
          "internalType": "string",
          "name": "answerLink",
          "type": "string"
        },
        {
          "indexed": false,
          "internalType": "uint256",
          "name": "responseValue",
          "type": "uint256"
        },
        {
          "indexed": false,
          "internalType": "uint256",
          "name": "value",
          "type": "uint256"
        }
      ],
      "name": "ResponseCreated",
      "type": "event"
    },
    {
      "anonymous": false,
      "inputs": [
        {
          "indexed": true,
          "internalType": "bytes32",
          "name": "messageId",
          "type": "bytes32"
        },
        {
          "indexed": true,
          "internalType": "address",
          "name": "owner",
          "type": "address"
        },
        {
          "indexed": true,
          "internalType": "address",
          "name": "answerer",
          "type": "address"
        },
        {
          "indexed": false,
          "internalType": "uint256",
          "name": "responseType",
          "type": "uint256"
        }
      ],
      "name": "ResponseMarked",
      "type": "event"
    },
    {
      "anonymous": false,
      "inputs": [
        {
          "indexed": true,
          "internalType": "bytes32",
          "name": "messageId",
          "type": "bytes32"
        },
        {
          "indexed": true,
          "internalType": "bytes32",
          "name": "tipId",
          "type": "bytes32"
        },
        {
          "indexed": true,
          "internalType": "address",
          "name": "createdBy",
          "type": "address"
        },
        {
          "indexed": false,
          "internalType": "uint256",
          "name": "value",
          "type": "uint256"
        }
      ],
      "name": "TipCreated",
      "type": "event"
    },
    {
      "anonymous": false,
      "inputs": [
        {
          "indexed": true,
          "internalType": "bytes32",
          "name": "messageId",
          "type": "bytes32"
        },
        {
          "indexed": true,
          "internalType": "bytes32",
          "name": "tipId",
          "type": "bytes32"
        },
        {
          "indexed": true,
          "internalType": "address",
          "name": "createdBy",
          "type": "address"
        },
        {
          "indexed": false,
          "internalType": "uint256",
          "name": "value",
          "type": "uint256"
        }
      ],
      "name": "TipValueClaimed",
      "type": "event"
    },
    {
      "inputs": [
        {
          "internalType": "bytes32",
          "name": "messageId_",
          "type": "bytes32"
        }
      ],
      "name": "claimBackMessageValue",
      "outputs": [],
      "stateMutability": "nonpayable",
      "type": "function"
    },
    {
      "inputs": [
        {
          "internalType": "bytes32",
          "name": "tipId_",
          "type": "bytes32"
        }
      ],
      "name": "claimBackTipValue",
      "outputs": [],
      "stateMutability": "nonpayable",
      "type": "function"
    },
    {
      "inputs": [
        {
          "internalType": "address",
          "name": "recipient_",
          "type": "address"
        },
        {
          "internalType": "uint256",
          "name": "timelock_",
          "type": "uint256"
        },
        {
          "internalType": "uint256",
          "name": "messageType_",
          "type": "uint256"
        },
        {
          "internalType": "string",
          "name": "messageHash_",
          "type": "string"
        }
      ],
      "name": "createMessage",
      "outputs": [
        {
          "internalType": "bytes32",
          "name": "messageId",
          "type": "bytes32"
        }
      ],
      "stateMutability": "payable",
      "type": "function"
    },
    {
      "inputs": [
        {
          "internalType": "bytes32",
          "name": "messageId_",
          "type": "bytes32"
        },
        {
          "internalType": "string",
          "name": "answerHash_",
          "type": "string"
        }
      ],
      "name": "createResponse",
      "outputs": [],
      "stateMutability": "payable",
      "type": "function"
    },
    {
      "inputs": [
        {
          "internalType": "bytes32",
          "name": "messageId_",
          "type": "bytes32"
        }
      ],
      "name": "createTip",
      "outputs": [],
      "stateMutability": "payable",
      "type": "function"
    },
    {
      "inputs": [
        {
          "internalType": "uint256",
          "name": "skip_",
          "type": "uint256"
        },
        {
          "internalType": "uint256",
          "name": "limit_",
          "type": "uint256"
        }
      ],
      "name": "gePublicMessageIds",
      "outputs": [
        {
          "internalType": "bytes32[]",
          "name": "",
          "type": "bytes32[]"
        },
        {
          "internalType": "uint256",
          "name": "",
          "type": "uint256"
        }
      ],
      "stateMutability": "view",
      "type": "function"
    },
    {
      "inputs": [
        {
          "internalType": "bytes32",
          "name": "messageId_",
          "type": "bytes32"
        }
      ],
      "name": "getMessage",
      "outputs": [
        {
          "internalType": "string",
          "name": "",
          "type": "string"
        },
        {
          "internalType": "string",
          "name": "",
          "type": "string"
        },
        {
          "internalType": "uint256",
          "name": "",
          "type": "uint256"
        },
        {
          "internalType": "uint256",
          "name": "",
          "type": "uint256"
        },
        {
          "internalType": "address",
          "name": "",
          "type": "address"
        },
        {
          "internalType": "address",
          "name": "",
          "type": "address"
        },
        {
          "internalType": "uint256",
          "name": "",
          "type": "uint256"
        },
        {
          "internalType": "uint256",
          "name": "",
          "type": "uint256"
        },
        {
          "internalType": "uint256",
          "name": "",
          "type": "uint256"
        },
        {
          "internalType": "uint256",
          "name": "",
          "type": "uint256"
        },
        {
          "internalType": "uint256",
          "name": "",
          "type": "uint256"
        }
      ],
      "stateMutability": "view",
      "type": "function"
    },
    {
      "inputs": [
        {
          "internalType": "uint256",
          "name": "_messageType",
          "type": "uint256"
        }
      ],
      "name": "getMinimumBid",
      "outputs": [
        {
          "internalType": "uint256",
          "name": "",
          "type": "uint256"
        }
      ],
      "stateMutability": "view",
      "type": "function"
    },
    {
      "inputs": [
        {
          "internalType": "uint256",
          "name": "skip_",
          "type": "uint256"
        },
        {
          "internalType": "uint256",
          "name": "limit_",
          "type": "uint256"
        }
      ],
      "name": "getPrivateMessageIds",
      "outputs": [
        {
          "internalType": "bytes32[]",
          "name": "",
          "type": "bytes32[]"
        },
        {
          "internalType": "uint256",
          "name": "",
          "type": "uint256"
        }
      ],
      "stateMutability": "view",
      "type": "function"
    },
    {
      "inputs": [
        {
          "internalType": "uint256",
          "name": "skip_",
          "type": "uint256"
        },
        {
          "internalType": "uint256",
          "name": "limit_",
          "type": "uint256"
        }
      ],
      "name": "getTipIds",
      "outputs": [
        {
          "internalType": "bytes32[]",
          "name": "",
          "type": "bytes32[]"
        },
        {
          "internalType": "uint256",
          "name": "",
          "type": "uint256"
        }
      ],
      "stateMutability": "view",
      "type": "function"
    },
    {
      "inputs": [
        {
          "internalType": "bytes32",
          "name": "messageId_",
          "type": "bytes32"
        },
        {
          "internalType": "uint256",
          "name": "skip_",
          "type": "uint256"
        },
        {
          "internalType": "uint256",
          "name": "limit_",
          "type": "uint256"
        }
      ],
      "name": "getTipIdsOfMessage",
      "outputs": [
        {
          "internalType": "bytes32[]",
          "name": "",
          "type": "bytes32[]"
        },
        {
          "internalType": "uint256",
          "name": "",
          "type": "uint256"
        }
      ],
      "stateMutability": "view",
      "type": "function"
    },
    {
      "inputs": [
        {
          "internalType": "uint256",
          "name": "minimumBid_",
          "type": "uint256"
        },
        {
          "internalType": "uint256",
          "name": "feeNumerator_",
          "type": "uint256"
        },
        {
          "internalType": "string",
          "name": "baseURI_",
          "type": "string"
        }
      ],
      "name": "initMessage",
      "outputs": [],
      "stateMutability": "nonpayable",
      "type": "function"
    },
    {
      "inputs": [
        {
          "internalType": "string",
          "name": "_baseURI",
          "type": "string"
        }
      ],
      "name": "setMessageBaseURI",
      "outputs": [],
      "stateMutability": "nonpayable",
      "type": "function"
    },
    {
      "inputs": [
        {
          "internalType": "uint256",
          "name": "_minimumBid",
          "type": "uint256"
        },
        {
          "internalType": "uint256",
          "name": "_messageType",
          "type": "uint256"
        }
      ],
      "name": "setMinimumBid",
      "outputs": [],
      "stateMutability": "nonpayable",
      "type": "function"
    },
    {
      "inputs": [
        {
          "internalType": "uint256",
          "name": "_recipientUpFront",
          "type": "uint256"
        }
      ],
      "name": "setRecipientUpFront",
      "outputs": [],
      "stateMutability": "nonpayable",
      "type": "function"
    },
    {
      "stateMutability": "payable",
      "type": "receive"
    }
  ],
  "bytecode": "0x608060405234801561001057600080fd5b506001600055613359806100256000396000f3fe6080604052600436106100ec5760003560e01c8063835791251161008a578063ca05249f11610059578063ca05249f1461029f578063d095f68e146102bf578063f1096c21146102d2578063f224aa4f146102f257600080fd5b8063835791251461022c5780639bfd9eeb1461024c578063a740d68e1461026c578063b12ea2a31461027f57600080fd5b80633837548c116100c65780633837548c1461019c5780634b8e7a34146101be57806351eb08d1146101de5780635ad1c6e5146101fe57600080fd5b80630139a2211461011b5780630600d4eb1461015b57806320d4f41b1461018957600080fd5b366101165760405134815233906000805160206133048339815191529060200160405180910390a2005b600080fd5b34801561012757600080fd5b5061013b610136366004612c94565b610312565b6040516101529b9a9998979695949392919061304f565b60405180910390f35b34801561016757600080fd5b5061017b610176366004612c94565b610351565b604051908152602001610152565b61017b610197366004612c31565b610362565b3480156101a857600080fd5b506101bc6101b7366004612d55565b610454565b005b3480156101ca57600080fd5b506101bc6101d9366004612c94565b610538565b3480156101ea57600080fd5b506101bc6101f9366004612d77565b6105fc565b34801561020a57600080fd5b5061021e610219366004612d55565b6106b6565b604051610152929190612fbf565b34801561023857600080fd5b506101bc610247366004612c94565b6106e0565b34801561025857600080fd5b506101bc610267366004612d20565b610756565b6101bc61027a366004612c94565b6107e0565b34801561028b57600080fd5b5061021e61029a366004612cf4565b610838565b3480156102ab57600080fd5b5061021e6102ba366004612d55565b610876565b6101bc6102cd366004612cad565b610893565b3480156102de57600080fd5b5061021e6102ed366004612d55565b610a0d565b3480156102fe57600080fd5b506101bc61030d366004612c94565b610a2a565b606080600080600080600080600080600061032c8c610ab8565b9a509a509a509a509a509a509a509a509a509a509a5091939597999b90929496989a50565b600061035c82610c7e565b92915050565b60008280600110156040518060400160405280600681526020016503030323031360d41b815250906103b05760405162461bcd60e51b81526004016103a7919061303c565b60405180910390fd5b508260008151116040518060400160405280600681526020016530303230313360d01b815250906103f45760405162461bcd60e51b81526004016103a7919061303c565b506103ff3388610ca8565b600061040b3389610d57565b905060003389898989348760405160200161042c9796959493929190612f6a565b60405160208183030381529060405290506104478782610dd2565b9998505050505050505050565b60405163695cef6560e01b81526000600482015273__$bb9d112070cfc0a1d6e6da2a36217b4d08$__9063695cef659060240160006040518083038186803b15801561049f57600080fd5b505af41580156104b3573d6000803e3d6000fd5b5050505060006104c1610dfd565b9050600182141561052e5780600501548310156040518060400160405280600681526020016530303930303360d01b815250906105115760405162461bcd60e51b81526004016103a7919061303c565b5060028101839055610524600484613161565b6005909101555050565b6001019190915550565b60405163695cef6560e01b81526000600482015273__$bb9d112070cfc0a1d6e6da2a36217b4d08$__9063695cef659060240160006040518083038186803b15801561058357600080fd5b505af4158015610597573d6000803e3d6000fd5b5050505060006105a5610dfd565b90506105b2826004613183565b8160020154116040518060400160405280600681526020016530303930303560d01b815250906105f55760405162461bcd60e51b81526004016103a7919061303c565b5060050155565b6000610606610dfd565b9050610613600485613161565b6005820155805460ff161561066a5760405162461bcd60e51b815260206004820152601960248201527f557365723a20616c726561647920696e697469616c697a65640000000000000060448201526064016103a7565b610672610e21565b805460ff19166001908117825581018490556002810184905560038101839055610384600482015581516106af90600683019060208501906129a9565b5050505050565b60606000806106c3610dfd565b90506106d3858583600a01610e2d565b92509250505b9250929050565b60006106ec8233610f14565b90506106f83382610f5c565b60405181815233906000805160206133048339815191529060200160405180910390a2604051818152339083907f205302058bf3afb5ece22c5535eab6ea487294c8339c2a194fc6476219badbcd9060200160405180910390a35050565b60405163695cef6560e01b81526000600482015273__$bb9d112070cfc0a1d6e6da2a36217b4d08$__9063695cef659060240160006040518083038186803b1580156107a157600080fd5b505af41580156107b5573d6000803e3d6000fd5b5050505060006107c3610dfd565b82519091506107db90600683019060208501906129a9565b505050565b60006107ed823334610fcf565b9050336001600160a01b031681837fb8a61f3258608a2f1af184e4640b08e6cd69126e3c563d30b6348ebfb51558843460405161082c91815260200190565b60405180910390a45050565b6060600080610845610dfd565b905061086985858360070160008a8152602001908152602001600020600601610e2d565b9250925050935093915050565b6060600080610883610dfd565b90506106d3858583600901610e2d565b8060008151116040518060400160405280600681526020016530303230313360d01b815250906108d65760405162461bcd60e51b81526004016103a7919061303c565b506002600054141561092a5760405162461bcd60e51b815260206004820152601f60248201527f5265656e7472616e637947756172643a207265656e7472616e742063616c6c0060448201526064016103a7565b60026000908155349061093c33611039565b90506000610949856111e9565b9050811561097a5760008061095e3385611224565b9150915080600014610977576109748286613149565b94505b50505b600080610989883387866114da565b915091506000806109a284888561099d3390565b611532565b915091506109ad3390565b6001600160a01b0316836001600160a01b03168b7fff7a1ecaac27eed4c6bd348a8dd8d05ed71190db5b77e89f881fa74087429bc98885876040516109f4939291906130cb565b60405180910390a4505060016000555050505050505050565b6060600080610a1a610dfd565b90506106d3858583600b01610e2d565b600080610a3783336115d2565b91509150610a4b610a453390565b83610f5c565b60405182815233906000805160206133048339815191529060200160405180910390a2336001600160a01b031683827f8827140ed7e0aee657f6d8ab3d65b02d30022ed333e284958313db49217e7c3e85604051610aab91815260200190565b60405180910390a4505050565b606080600080600080600080600080600080610ad2610dfd565b60008e8152600791820160205260409020600281015460038083015460048401546005850154958501546008860154600c8701546009880154979950899860018a019895966001600160a01b0395861696959091169460ff1690811115610b3b57610b3b61326c565b8a600a01548a8054610b4c90613200565b80601f0160208091040260200160405190810160405280929190818152602001828054610b7890613200565b8015610bc55780601f10610b9a57610100808354040283529160200191610bc5565b820191906000526020600020905b815481529060010190602001808311610ba857829003601f168201915b50505050509a50898054610bd890613200565b80601f0160208091040260200160405190810160405280929190818152602001828054610c0490613200565b8015610c515780601f10610c2657610100808354040283529160200191610c51565b820191906000526020600020905b815481529060010190602001808311610c3457829003601f168201915b505050505099509b509b509b509b509b509b509b509b509b509b509b505091939597999b90929496989a50565b600080610c89610dfd565b90506001831415610c9e576002015492915050565b6001015492915050565b6001600160a01b0381811660009081527f542a208c7d2fa3ea28f94718c04f12864ccbca69fd520e2dcf2a6b2bf2ea30f76020908152604080832093861683526004909301905220546000805160206132c48339815191529060ff166001816002811115610d1857610d1861326c565b14156040518060400160405280600681526020016518181a98181960d11b815250906106af5760405162461bcd60e51b81526004016103a7919061303c565b6001600160a01b0381811660009081527f542a208c7d2fa3ea28f94718c04f12864ccbca69fd520e2dcf2a6b2bf2ea30f760209081526040808320938616835260049093019052908120546000805160206132c48339815191529060ff1660028181811115610dc857610dc861326c565b1495945050505050565b60006001831415610ded57610de68261163e565b905061035c565b610df6826116e8565b9392505050565b7fe761a213764bd39775162bc4a0a407e0f1d3a0dc17b7e3c6caf96a032d7d3f6490565b610e2b6000611728565b565b8054606090600090610e409086906131a2565b841115610e57578254610e549086906131a2565b93505b8367ffffffffffffffff811115610e7057610e70613298565b604051908082528060200260200182016040528015610e99578160200160208202803683370190505b50915060005b84811015610efc5783610eb28288613149565b81548110610ec257610ec2613282565b9060005260206000200154838281518110610edf57610edf613282565b602090810291909101015280610ef48161323b565b915050610e9f565b5081610f088587613149565b91509150935093915050565b600080610f1f610dfd565b60008581526007820160205260409020909150610f3c8185611735565b610f5081600901805460ff19166001179055565b60020154949350505050565b6001600160a01b03821660009081527f793ba39717776526f812abdc4711d8c8f539f0d8595e4dc61cd8bbf5affeabc26020526040812080547f793ba39717776526f812abdc4711d8c8f539f0d8595e4dc61cd8bbf5affeabc192849291610fc5908490613149565b9091555050505050565b600080610fda610dfd565b60008681526007820160205260409020909150610ff68161175e565b600061100783600801888888611782565b90506110148282876118a5565b600b909201805460018101825560009182526020909120018290555090509392505050565b60006000805160206132e483398151915281611089846001600160a01b031660009081527fb07a94881b82de8854879fe381b1f19e5b031791603453f25aeba961528ba5e7602052604090205490565b90508061109a575060009392505050565b60006110b0856110ab6001856131a2565b6118da565b600081815260038086016020908152604080842081516101208101835281546001600160a01b0316815260018201549381019390935260028101549183019190915291820154606082015260048201546080820152600582015460a0820152600682015460c0820152600782015460ff16151560e08201526008820180549495509293909261010084019161114490613200565b80601f016020809104026020016040519081016040528092919081815260200182805461117090613200565b80156111bd5780601f10611192576101008083540402835291602001916111bd565b820191906000526020600020905b8154815290600101906020018083116111a057829003601f168201915b505050505081525050905042816040015111156111dd5750949350505050565b50600095945050505050565b606060006111f5610dfd565b9050806006018360405160200161120d929190612e4e565b604051602081830303815290604052915050919050565b60008061123083611948565b60008381527fb07a94881b82de8854879fe381b1f19e5b031791603453f25aeba961528ba5e6602090815260409182902082516101208101845281546001600160a01b031681526001820154928101929092526002810154928201929092526003820154606082015260048201546080820152600582015460a0820152600682015460c0820152600782015460ff16151560e08201526008820180546000805160206132e4833981519152939261137c92909184916101008401916112f490613200565b80601f016020809104026020016040519081016040528092919081815260200182805461132090613200565b801561136d5780601f106113425761010080835404028352916020019161136d565b820191906000526020600020905b81548152906001019060200180831161135057829003601f168201915b505050505081525050876119ce565b604080516101208101825282546001600160a01b03168152600183015460208201526002830154918101919091526003820154606082015260048201546080820152600582015460a0820152600682015460c0820152600782015460ff16151560e082015260088201805461148592918491610100840191906113fe90613200565b80601f016020809104026020016040519081016040528092919081815260200182805461142a90613200565b80156114775780601f1061144c57610100808354040283529160200191611477565b820191906000526020600020905b81548152906001019060200180831161145a57829003601f168201915b505050505081525050611a24565b8060030154816005015410156114a657600301549250600091506106d99050565b80600301548160050160008282546114be91906131a2565b9091555050600381015460059091015490969095509350505050565b60008060006114e7610dfd565b60008881526007919091016020526040902090506115058187611a68565b611510818686611a96565b60038101546004909101549092506001600160a01b0316905094509492505050565b600080600061154087611ac4565b9050600061154d87611ac4565b90506115598583610f5c565b6115638682610f5c565b846001600160a01b03166000805160206133048339815191528360405161158c91815260200190565b60405180910390a2856001600160a01b0316600080516020613304833981519152826040516115bd91815260200190565b60405180910390a29097909650945050505050565b60008060006115df610dfd565b60008681526008820160209081526040808320600381015484526007850190925290912091925090611612828288611b1d565b61162682600401805460ff19166001179055565b81600101548260030154945094505050509250929050565b600080600061164c84611b4b565b5091509150600061165c82611039565b905060008061166b8784611be2565b9150915060008061167e8787868c611c2d565b9150915061168c8387611ea9565b81866001600160a01b0316886001600160a01b03167f1d9eb510353e9c9d05e82b767ece5ca7a49cf8b13f1323219a4ff3bb342ce4dd88858e6040516116d493929190613007565b60405180910390a450979650505050505050565b60008060006116f684611b4b565b5091509150600061170682611039565b90506000806117158784611ec0565b9150915060008061167e8787868c611ef2565b611732813361216e565b50565b61173e8261220d565b6117488282612256565b611751826122a4565b61175a826122e8565b5050565b6117678161220d565b61177081612342565b611779816122e8565b6117328161239c565b604080516020808201869052606085901b6bffffffffffffffffffffffff1916828401524260548084019190915283518084039091018152607483018085528151918301919091206000818152928990528483205460b48501909552600682526530303330303160d01b60949094019390935290926001600160a01b03161561181e5760405162461bcd60e51b81526004016103a7919061303c565b506040805160a0810182526001600160a01b039586168152602080820195865242828401908152606083019889526000608084018181528682529a909252929020905181546001600160a01b03191696169590951785559251600185015591516002840155509151600382015591516004909201805460ff19169215159290921790915590565b808360030160008282546118b99190613149565b90915550505060069091018054600181018255600091825260209091200155565b6001600160a01b03821660009081527fb07a94881b82de8854879fe381b1f19e5b031791603453f25aeba961528ba5e76020526040812080546000805160206132e483398151915291908490811061193457611934613282565b906000526020600020015491505092915050565b60008181527fb07a94881b82de8854879fe381b1f19e5b031791603453f25aeba961528ba5e66020908152604091829020548251808401909352600683526530313030303960d01b918301919091526000805160206132e483398151915291906001600160a01b03166107db5760405162461bcd60e51b81526004016103a7919061303c565b806001600160a01b031682600001516001600160a01b0316146040518060400160405280600681526020016518189818181960d11b815250906107db5760405162461bcd60e51b81526004016103a7919061303c565b428160400151116040518060400160405280600681526020016530313030313160d01b8152509061175a5760405162461bcd60e51b81526004016103a7919061303c565b611a728282612256565b611a7b8261220d565b611a8482612342565b611a8d826122e8565b61175a8261239c565b8051611aab90600185019060208401906129a9565b505060098201805460ff19166003179055600a90910155565b600080611acf610dfd565b905060006127106bffffffffffffffffffffffff16826003015485611af49190613183565b611afe9190613161565b9050611b0b600082610f5c565b611b1581856131a2565b949350505050565b611b26836123e0565b611b308382612426565b611b3982612342565b611b4283612471565b6107db826122a4565b60008060008060008086806020019051810190611b689190612b2c565b509550505050925092506000611b908484600180811115611b8b57611b8b61326c565b6124ba565b9050808210156040518060400160405280600681526020016530303130303960d01b81525090611bd35760405162461bcd60e51b81526004016103a7919061303c565b50929791965091945092505050565b60008060008085806020019051810190611bfc9190612b2c565b96509650505050505080611c1f57611c1482866124f5565b9350935050506106d9565b506000958695509350505050565b6000606060008084806020019051810190611c489190612bbf565b505094505093505050808842604051602001611c6693929190612e0f565b60408051601f1981840301815282825280516020918201206000808552918401909252909550611c968442613149565b9050611ca1836111e9565b9450604051806101a001604052808681526020016040518060200160405280600081525081526020018981526020018981526020018b6001600160a01b031681526020018a6001600160a01b0316815260200183815260200142815260200182815260200160006003811115611d1957611d1961326c565b81526020016000815260200160006002811115611d3857611d3861326c565b81526001602090910152611d4a610dfd565b600088815260079190910160209081526040909120825180519192611d74928492909101906129a9565b506020828101518051611d8d92600185019201906129a9565b50604082015160028201556060820151600382015560808201516004820180546001600160a01b039283166001600160a01b03199182161790915560a084015160058401805491909316911617905560c08201518051611df7916006840191602090910190612a2d565b5060e08201516007820155610100820151600882015561012082015160098201805460ff19166001836003811115611e3157611e3161326c565b0217905550610140820151600a820155610160820151600b8201805460ff19166001836002811115611e6557611e6561326c565b021790555061018082015181600c0155905050611e80610dfd565b600a01805460018101825560009182526020909120018690555093989297509195505050505050565b811561175a5761175a81611ebb612532565b612547565b60008060008085806020019051810190611eda9190612b2c565b96509650505050505080611c1f57611c148286612660565b6000606060008084806020019051810190611f0d9190612bbf565b505094505093505050808842604051602001611f2b93929190612e0f565b60408051601f1981840301815282825280516020918201206000808552918401909252909550611f5b8442613149565b9050611f66836111e9565b9450604051806101a001604052808681526020016040518060200160405280600081525081526020018981526020018981526020018b6001600160a01b031681526020018a6001600160a01b0316815260200183815260200142815260200182815260200160006003811115611fde57611fde61326c565b81526020016000815260200160006002811115611ffd57611ffd61326c565b8152600060209091015261200f610dfd565b600088815260079190910160209081526040909120825180519192612039928492909101906129a9565b50602082810151805161205292600185019201906129a9565b50604082015160028201556060820151600382015560808201516004820180546001600160a01b039283166001600160a01b03199182161790915560a084015160058401805491909316911617905560c082015180516120bc916006840191602090910190612a2d565b5060e08201516007820155610100820151600882015561012082015160098201805460ff191660018360038111156120f6576120f661326c565b0217905550610140820151600a820155610160820151600b8201805460ff1916600183600281111561212a5761212a61326c565b021790555061018082015181600c0155905050612145610dfd565b600901805460018101825560009182526020909120018690555093989297509195505050505050565b60008281527fe60be0110dc1792cd793dc6d2d18db752d6e49771db52ffb0dfa2892dbc86d2d602090815260408083206001600160a01b038516845290915290205460ff1661175a576121cb816001600160a01b031660146126ba565b6121d68360206126ba565b6040516020016121e7929190612ef5565b60408051601f198184030181529082905262461bcd60e51b82526103a79160040161303c565b600481015460408051808201909152600681526530303230303360d01b6020820152906001600160a01b031661175a5760405162461bcd60e51b81526004016103a7919061303c565b600582015460408051808201909152600681526518181918181960d11b6020820152906001600160a01b038381169116146107db5760405162461bcd60e51b81526004016103a7919061303c565b806008015442116040518060400160405280600681526020016518181918181b60d11b8152509061175a5760405162461bcd60e51b81526004016103a7919061303c565b6001600982015460ff1660038111156123035761230361326c565b14156040518060400160405280600681526020016530303230303560d01b8152509061175a5760405162461bcd60e51b81526004016103a7919061303c565b6003600982015460ff16600381111561235d5761235d61326c565b1415604051806040016040528060068152602001650c0c0c8c0c0d60d21b8152509061175a5760405162461bcd60e51b81526004016103a7919061303c565b806008015442106040518060400160405280600681526020016506060646060760d31b8152509061175a5760405162461bcd60e51b81526004016103a7919061303c565b805460408051808201909152600681526530303330303360d01b6020820152906001600160a01b031661175a5760405162461bcd60e51b81526004016103a7919061303c565b815460408051808201909152600681526518181998181960d11b6020820152906001600160a01b038381169116146107db5760405162461bcd60e51b81526004016103a7919061303c565b60048101546040805180820190915260068152650c0c0ccc0c0d60d21b60208201529060ff1615156001141561175a5760405162461bcd60e51b81526004016103a7919061303c565b60006124c68484612856565b156124d357506000610df6565b60018214156124ec576124e5836128d0565b9050610df6565b611b1583612940565b6000806000612502610dfd565b905083156125175784600092509250506106d9565b600581015461252690866131a2565b95600195509350505050565b60008061253d610dfd565b6005015492915050565b804710156125975760405162461bcd60e51b815260206004820152601d60248201527f416464726573733a20696e73756666696369656e742062616c616e636500000060448201526064016103a7565b6000826001600160a01b03168260405160006040518083038185875af1925050503d80600081146125e4576040519150601f19603f3d011682016040523d82523d6000602084013e6125e9565b606091505b50509050806107db5760405162461bcd60e51b815260206004820152603a60248201527f416464726573733a20756e61626c6520746f2073656e642076616c75652c207260448201527f6563697069656e74206d6179206861766520726576657274656400000000000060648201526084016103a7565b600080600061266d610dfd565b905083156126825784600092509250506106d9565b61268c6000610c7e565b8511156126ae5760058101546126a290866131a2565b600192509250506106d9565b50929360009350915050565b606060006126c9836002613183565b6126d4906002613149565b67ffffffffffffffff8111156126ec576126ec613298565b6040519080825280601f01601f191660200182016040528015612716576020820181803683370190505b509050600360fc1b8160008151811061273157612731613282565b60200101906001600160f81b031916908160001a905350600f60fb1b8160018151811061276057612760613282565b60200101906001600160f81b031916908160001a9053506000612784846002613183565b61278f906001613149565b90505b6001811115612807576f181899199a1a9b1b9c1cb0b131b232b360811b85600f16601081106127c3576127c3613282565b1a60f81b8282815181106127d9576127d9613282565b60200101906001600160f81b031916908160001a90535060049490941c93612800816131e9565b9050612792565b508315610df65760405162461bcd60e51b815260206004820181905260248201527f537472696e67733a20686578206c656e67746820696e73756666696369656e7460448201526064016103a7565b6001600160a01b0381811660009081527f542a208c7d2fa3ea28f94718c04f12864ccbca69fd520e2dcf2a6b2bf2ea30f760209081526040808320938616835260049093019052908120546000805160206132c48339815191529060029060ff16818111156128c7576128c761326c565b14949350505050565b60006000805160206132c4833981519152816128ea610dfd565b6001600160a01b038516600090815260018085016020526040909120015490915061291a57600201549392505050565b506001600160a01b03909216600090815260019283016020526040902090910154919050565b60006000805160206132c48339815191528161295a610dfd565b6001600160a01b038516600090815260018401602052604090205490915061298757600101549392505050565b506001600160a01b039092166000908152600190920160205250604090205490565b8280546129b590613200565b90600052602060002090601f0160209004810192826129d75760008555612a1d565b82601f106129f057805160ff1916838001178555612a1d565b82800160010185558215612a1d579182015b82811115612a1d578251825591602001919060010190612a02565b50612a29929150612a67565b5090565b828054828255906000526020600020908101928215612a1d5791602002820182811115612a1d578251825591602001919060010190612a02565b5b80821115612a295760008155600101612a68565b80518015158114612a8c57600080fd5b919050565b600082601f830112612aa257600080fd5b8135612ab5612ab082613121565b6130f0565b818152846020838601011115612aca57600080fd5b816020850160208301376000918101602001919091529392505050565b600082601f830112612af857600080fd5b8151612b06612ab082613121565b818152846020838601011115612b1b57600080fd5b611b158260208301602087016131b9565b600080600080600080600060e0888a031215612b4757600080fd5b8751612b52816132ae565b6020890151909750612b63816132ae565b809650506040880151945060608801519350608088015167ffffffffffffffff811115612b8f57600080fd5b612b9b8a828b01612ae7565b93505060a08801519150612bb160c08901612a7c565b905092959891949750929550565b600080600080600080600060e0888a031215612bda57600080fd5b8751612be5816132ae565b6020890151909750612bf6816132ae565b604089015160608a0151919750955060ff81168114612c1457600080fd5b608089015190945067ffffffffffffffff811115612b8f57600080fd5b60008060008060808587031215612c4757600080fd5b8435612c52816132ae565b93506020850135925060408501359150606085013567ffffffffffffffff811115612c7c57600080fd5b612c8887828801612a91565b91505092959194509250565b600060208284031215612ca657600080fd5b5035919050565b60008060408385031215612cc057600080fd5b82359150602083013567ffffffffffffffff811115612cde57600080fd5b612cea85828601612a91565b9150509250929050565b600080600060608486031215612d0957600080fd5b505081359360208301359350604090920135919050565b600060208284031215612d3257600080fd5b813567ffffffffffffffff811115612d4957600080fd5b611b1584828501612a91565b60008060408385031215612d6857600080fd5b50508035926020909101359150565b600080600060608486031215612d8c57600080fd5b8335925060208401359150604084013567ffffffffffffffff811115612db157600080fd5b612dbd86828701612a91565b9150509250925092565b60008151808452612ddf8160208601602086016131b9565b601f01601f19169290920160200192915050565b60008151612e058185602086016131b9565b9290920192915050565b60008451612e218184602089016131b9565b60609490941b6bffffffffffffffffffffffff191691909301908152601481019190915260340192915050565b600080845481600182811c915080831680612e6a57607f831692505b6020808410821415612e8a57634e487b7160e01b86526022600452602486fd5b818015612e9e5760018114612eaf57612edc565b60ff19861689528489019650612edc565b60008b81526020902060005b86811015612ed45781548b820152908501908301612ebb565b505084890196505b505050505050612eec8185612df3565b95945050505050565b7f416363657373436f6e74726f6c3a206163636f756e7420000000000000000000815260008351612f2d8160178501602088016131b9565b7001034b99036b4b9b9b4b733903937b6329607d1b6017918401918201528351612f5e8160288401602088016131b9565b01602801949350505050565b6001600160a01b03888116825287166020820152604081018690526060810185905260e060808201819052600090612fa490830186612dc7565b60a08301949094525090151560c09091015295945050505050565b604080825283519082018190526000906020906060840190828701845b82811015612ff857815184529284019290840190600101612fdc565b50505092019290925292915050565b8381526060602082015260006130206060830185612dc7565b82810360408401526130328185612dc7565b9695505050505050565b602081526000610df66020830184612dc7565b60006101608083526130638184018f612dc7565b90508281036020840152613077818e612dc7565b604084019c909c52505060608101989098526001600160a01b0396871660808901529490951660a087015260c086019290925260e08501526101008401526101208301919091526101409091015292915050565b6060815260006130de6060830186612dc7565b60208301949094525060400152919050565b604051601f8201601f1916810167ffffffffffffffff8111828210171561311957613119613298565b604052919050565b600067ffffffffffffffff82111561313b5761313b613298565b50601f01601f191660200190565b6000821982111561315c5761315c613256565b500190565b60008261317e57634e487b7160e01b600052601260045260246000fd5b500490565b600081600019048311821515161561319d5761319d613256565b500290565b6000828210156131b4576131b4613256565b500390565b60005b838110156131d45781810151838201526020016131bc565b838111156131e3576000848401525b50505050565b6000816131f8576131f8613256565b506000190190565b600181811c9082168061321457607f821691505b6020821081141561323557634e487b7160e01b600052602260045260246000fd5b50919050565b600060001982141561324f5761324f613256565b5060010190565b634e487b7160e01b600052601160045260246000fd5b634e487b7160e01b600052602160045260246000fd5b634e487b7160e01b600052603260045260246000fd5b634e487b7160e01b600052604160045260246000fd5b6001600160a01b038116811461173257600080fdfe542a208c7d2fa3ea28f94718c04f12864ccbca69fd520e2dcf2a6b2bf2ea30f6b07a94881b82de8854879fe381b1f19e5b031791603453f25aeba961528ba5e30036624afd4ac14e2ebe9b68a6ec0c6e4f6bf5bde2999a61e1fec085ca86697da2646970667358221220fcea52b9b55731a1dc6731bf5d2fb6442fef74df70338ad0a36d1c4f64ea597e64736f6c63430008060033",
  "linkReferences": {
    "contracts/libraries/LibOwnership.sol": {
      "LibOwnership": [
        {
          "length": 20,
          "start": 1167
        },
        {
          "length": 20,
          "start": 1395
        },
        {
          "length": 20,
          "start": 1937
        }
      ]
    }
  },
  "deployedLinkReferences": {
    "contracts/libraries/LibOwnership.sol": {
      "LibOwnership": [
        {
          "length": 20,
          "start": 1130
        },
        {
          "length": 20,
          "start": 1358
        },
        {
          "length": 20,
          "start": 1900
        }
      ]
    }
  }
}