{
  "_format": "hh-sol-artifact-1",
  "contractName": "OwnershipFacet",
  "sourceName": "contracts/facets/OwnershipFacet.sol",
  "abi": [
    {
      "anonymous": false,
      "inputs": [
        {
          "indexed": true,
          "internalType": "address",
          "name": "previousOwner",
          "type": "address"
        },
        {
          "indexed": true,
          "internalType": "address",
          "name": "newOwner",
          "type": "address"
        }
      ],
      "name": "OwnershipTransferred",
      "type": "event"
    },
    {
      "anonymous": false,
      "inputs": [
        {
          "indexed": true,
          "internalType": "bytes32",
          "name": "role",
          "type": "bytes32"
        },
        {
          "indexed": true,
          "internalType": "bytes32",
          "name": "previousAdminRole",
          "type": "bytes32"
        },
        {
          "indexed": true,
          "internalType": "bytes32",
          "name": "newAdminRole",
          "type": "bytes32"
        }
      ],
      "name": "RoleAdminChanged",
      "type": "event"
    },
    {
      "anonymous": false,
      "inputs": [
        {
          "indexed": true,
          "internalType": "bytes32",
          "name": "role",
          "type": "bytes32"
        },
        {
          "indexed": true,
          "internalType": "address",
          "name": "account",
          "type": "address"
        },
        {
          "indexed": true,
          "internalType": "address",
          "name": "sender",
          "type": "address"
        }
      ],
      "name": "RoleGranted",
      "type": "event"
    },
    {
      "anonymous": false,
      "inputs": [
        {
          "indexed": true,
          "internalType": "bytes32",
          "name": "role",
          "type": "bytes32"
        },
        {
          "indexed": true,
          "internalType": "address",
          "name": "account",
          "type": "address"
        },
        {
          "indexed": true,
          "internalType": "address",
          "name": "sender",
          "type": "address"
        }
      ],
      "name": "RoleRevoked",
      "type": "event"
    },
    {
      "inputs": [
        {
          "internalType": "bytes32",
          "name": "role",
          "type": "bytes32"
        }
      ],
      "name": "getRoleAdmin",
      "outputs": [
        {
          "internalType": "bytes32",
          "name": "",
          "type": "bytes32"
        }
      ],
      "stateMutability": "view",
      "type": "function"
    },
    {
      "inputs": [
        {
          "internalType": "bytes32",
          "name": "role_",
          "type": "bytes32"
        },
        {
          "internalType": "address",
          "name": "account_",
          "type": "address"
        }
      ],
      "name": "grantRole",
      "outputs": [],
      "stateMutability": "nonpayable",
      "type": "function"
    },
    {
      "inputs": [
        {
          "internalType": "bytes32",
          "name": "role",
          "type": "bytes32"
        },
        {
          "internalType": "address",
          "name": "account",
          "type": "address"
        }
      ],
      "name": "hasRole",
      "outputs": [
        {
          "internalType": "bool",
          "name": "",
          "type": "bool"
        }
      ],
      "stateMutability": "view",
      "type": "function"
    },
    {
      "inputs": [],
      "name": "owner",
      "outputs": [
        {
          "internalType": "address",
          "name": "owner_",
          "type": "address"
        }
      ],
      "stateMutability": "view",
      "type": "function"
    },
    {
      "inputs": [
        {
          "internalType": "bytes32",
          "name": "role_",
          "type": "bytes32"
        },
        {
          "internalType": "address",
          "name": "account_",
          "type": "address"
        }
      ],
      "name": "renounceRole",
      "outputs": [],
      "stateMutability": "nonpayable",
      "type": "function"
    },
    {
      "inputs": [
        {
          "internalType": "bytes32",
          "name": "role_",
          "type": "bytes32"
        },
        {
          "internalType": "address",
          "name": "account_",
          "type": "address"
        }
      ],
      "name": "revokeRole",
      "outputs": [],
      "stateMutability": "nonpayable",
      "type": "function"
    },
    {
      "inputs": [
        {
          "internalType": "address",
          "name": "_newOwner",
          "type": "address"
        }
      ],
      "name": "transferOwnership",
      "outputs": [],
      "stateMutability": "nonpayable",
      "type": "function"
    }
  ],
  "bytecode": "0x608060405234801561001057600080fd5b506108a7806100206000396000f3fe608060405234801561001057600080fd5b506004361061007d5760003560e01c80638da5cb5b1161005b5780638da5cb5b146100d057806391d14854146100f0578063d547741f14610113578063f2fde38b1461012657600080fd5b8063248a9ca3146100825780632f2ff15d146100a857806336568abe146100bd575b600080fd5b6100956100903660046106a4565b610139565b6040519081526020015b60405180910390f35b6100bb6100b63660046106bd565b61014a565b005b6100bb6100cb3660046106bd565b610190565b6100d861019f565b6040516001600160a01b03909116815260200161009f565b6101036100fe3660046106bd565b6101c5565b604051901515815260200161009f565b6100bb6101213660046106bd565b6101d8565b6100bb610134366004610689565b61021e565b600061014482610255565b92915050565b6101548282610289565b60405133906001600160a01b0383169084907f2f8788117e7eff1d82e926ec794901d17c78024a50270940304540a733656f0d90600090a45050565b61019b8282336102ab565b5050565b60006101c0600080516020610852833981519152546001600160a01b031690565b905090565b60006101d18383610333565b9392505050565b6101e2828261037d565b60405133906001600160a01b0383169084907ff6391f5c32d9c69d2a47ea670b442974b53935d1edc7fd64eb21e047a839171b90600090a45050565b610226610390565b60008051602061085283398151915280546001600160a01b0319166001600160a01b0392909216919091179055565b60009081527fe60be0110dc1792cd793dc6d2d18db752d6e49771db52ffb0dfa2892dbc86d2d602052604090206001015490565b61029282610255565b61029c81336103f2565b6102a68383610456565b505050565b806001600160a01b0316826001600160a01b0316146103295760405162461bcd60e51b815260206004820152602f60248201527f416363657373436f6e74726f6c3a2063616e206f6e6c792072656e6f756e636560448201526e103937b632b9903337b91039b2b63360891b60648201526084015b60405180910390fd5b6102a683836104ac565b60009182527fe60be0110dc1792cd793dc6d2d18db752d6e49771db52ffb0dfa2892dbc86d2d602090815260408084206001600160a01b0393909316845291905290205460ff1690565b61038682610255565b61032981336103f2565b600080516020610852833981519152546001600160a01b031633146103f05760405162461bcd60e51b815260206004820152601660248201527526bab9ba1031329031b7b73a3930b1ba1037bbb732b960511b6044820152606401610320565b565b6103fc8282610333565b61019b57610414816001600160a01b031660146104d1565b61041f8360206104d1565b6040516020016104309291906106e9565b60408051601f198184030181529082905262461bcd60e51b82526103209160040161075e565b6104608282610333565b61019b5760016000805160206108528339815191525b6000938452600201602090815260408085206001600160a01b039490941685529290529120805460ff1916911515919091179055565b6104b68282610333565b1561019b576000600080516020610852833981519152610476565b606060006104e08360026107a9565b6104eb906002610791565b67ffffffffffffffff8111156105035761050361083b565b6040519080825280601f01601f19166020018201604052801561052d576020820181803683370190505b509050600360fc1b8160008151811061054857610548610825565b60200101906001600160f81b031916908160001a905350600f60fb1b8160018151811061057757610577610825565b60200101906001600160f81b031916908160001a905350600061059b8460026107a9565b6105a6906001610791565b90505b600181111561061e576f181899199a1a9b1b9c1cb0b131b232b360811b85600f16601081106105da576105da610825565b1a60f81b8282815181106105f0576105f0610825565b60200101906001600160f81b031916908160001a90535060049490941c93610617816107f8565b90506105a9565b5083156101d15760405162461bcd60e51b815260206004820181905260248201527f537472696e67733a20686578206c656e67746820696e73756666696369656e746044820152606401610320565b80356001600160a01b038116811461068457600080fd5b919050565b60006020828403121561069b57600080fd5b6101d18261066d565b6000602082840312156106b657600080fd5b5035919050565b600080604083850312156106d057600080fd5b823591506106e06020840161066d565b90509250929050565b7f416363657373436f6e74726f6c3a206163636f756e74200000000000000000008152600083516107218160178501602088016107c8565b7001034b99036b4b9b9b4b733903937b6329607d1b60179184019182015283516107528160288401602088016107c8565b01602801949350505050565b602081526000825180602084015261077d8160408501602087016107c8565b601f01601f19169190910160400192915050565b600082198211156107a4576107a461080f565b500190565b60008160001904831182151516156107c3576107c361080f565b500290565b60005b838110156107e35781810151838201526020016107cb565b838111156107f2576000848401525b50505050565b6000816108075761080761080f565b506000190190565b634e487b7160e01b600052601160045260246000fd5b634e487b7160e01b600052603260045260246000fd5b634e487b7160e01b600052604160045260246000fdfee60be0110dc1792cd793dc6d2d18db752d6e49771db52ffb0dfa2892dbc86d2ba264697066735822122036e987070297ac4c13ce88cdb3cb7b03438d231b784dee4f4f114d0a3700687064736f6c63430008060033",
  "linkReferences": {},
  "deployedLinkReferences": {}
}