{
  "_format": "hh-sol-artifact-1",
  "contractName": "OwnershipFacet",
  "sourceName": "contracts/facets/OwnershipFacet.sol",
  "abi": [
    {
      "anonymous": false,
      "inputs": [
        {
          "indexed": true,
          "internalType": "address",
          "name": "previousOwner",
          "type": "address"
        },
        {
          "indexed": true,
          "internalType": "address",
          "name": "newOwner",
          "type": "address"
        }
      ],
      "name": "OwnershipTransferred",
      "type": "event"
    },
    {
      "anonymous": false,
      "inputs": [
        {
          "indexed": true,
          "internalType": "bytes32",
          "name": "role",
          "type": "bytes32"
        },
        {
          "indexed": true,
          "internalType": "bytes32",
          "name": "previousAdminRole",
          "type": "bytes32"
        },
        {
          "indexed": true,
          "internalType": "bytes32",
          "name": "newAdminRole",
          "type": "bytes32"
        }
      ],
      "name": "RoleAdminChanged",
      "type": "event"
    },
    {
      "anonymous": false,
      "inputs": [
        {
          "indexed": true,
          "internalType": "bytes32",
          "name": "role",
          "type": "bytes32"
        },
        {
          "indexed": true,
          "internalType": "address",
          "name": "account",
          "type": "address"
        },
        {
          "indexed": true,
          "internalType": "address",
          "name": "sender",
          "type": "address"
        }
      ],
      "name": "RoleGranted",
      "type": "event"
    },
    {
      "anonymous": false,
      "inputs": [
        {
          "indexed": true,
          "internalType": "bytes32",
          "name": "role",
          "type": "bytes32"
        },
        {
          "indexed": true,
          "internalType": "address",
          "name": "account",
          "type": "address"
        },
        {
          "indexed": true,
          "internalType": "address",
          "name": "sender",
          "type": "address"
        }
      ],
      "name": "RoleRevoked",
      "type": "event"
    },
    {
      "inputs": [
        {
          "internalType": "bytes32",
          "name": "role",
          "type": "bytes32"
        }
      ],
      "name": "getRoleAdmin",
      "outputs": [
        {
          "internalType": "bytes32",
          "name": "",
          "type": "bytes32"
        }
      ],
      "stateMutability": "view",
      "type": "function"
    },
    {
      "inputs": [
        {
          "internalType": "bytes32",
          "name": "role_",
          "type": "bytes32"
        },
        {
          "internalType": "address",
          "name": "account_",
          "type": "address"
        }
      ],
      "name": "grantRole",
      "outputs": [],
      "stateMutability": "nonpayable",
      "type": "function"
    },
    {
      "inputs": [
        {
          "internalType": "bytes32",
          "name": "role",
          "type": "bytes32"
        },
        {
          "internalType": "address",
          "name": "account",
          "type": "address"
        }
      ],
      "name": "hasRole",
      "outputs": [
        {
          "internalType": "bool",
          "name": "",
          "type": "bool"
        }
      ],
      "stateMutability": "view",
      "type": "function"
    },
    {
      "inputs": [],
      "name": "owner",
      "outputs": [
        {
          "internalType": "address",
          "name": "owner_",
          "type": "address"
        }
      ],
      "stateMutability": "view",
      "type": "function"
    },
    {
      "inputs": [
        {
          "internalType": "bytes32",
          "name": "role_",
          "type": "bytes32"
        },
        {
          "internalType": "address",
          "name": "account_",
          "type": "address"
        }
      ],
      "name": "renounceRole",
      "outputs": [],
      "stateMutability": "nonpayable",
      "type": "function"
    },
    {
      "inputs": [
        {
          "internalType": "bytes32",
          "name": "role_",
          "type": "bytes32"
        },
        {
          "internalType": "address",
          "name": "account_",
          "type": "address"
        }
      ],
      "name": "revokeRole",
      "outputs": [],
      "stateMutability": "nonpayable",
      "type": "function"
    },
    {
      "inputs": [
        {
          "internalType": "bytes32",
          "name": "role",
          "type": "bytes32"
        },
        {
          "internalType": "address",
          "name": "account",
          "type": "address"
        }
      ],
      "name": "setupRole",
      "outputs": [],
      "stateMutability": "nonpayable",
      "type": "function"
    },
    {
      "inputs": [
        {
          "internalType": "bytes32",
          "name": "role",
          "type": "bytes32"
        },
        {
          "internalType": "bytes32",
          "name": "adminRole",
          "type": "bytes32"
        }
      ],
      "name": "setupRoleAdmin",
      "outputs": [],
      "stateMutability": "nonpayable",
      "type": "function"
    },
    {
      "inputs": [
        {
          "internalType": "address",
          "name": "_newOwner",
          "type": "address"
        }
      ],
      "name": "transferOwnership",
      "outputs": [],
      "stateMutability": "nonpayable",
      "type": "function"
    }
  ],
  "bytecode": "0x608060405234801561001057600080fd5b5061096e806100206000396000f3fe608060405234801561001057600080fd5b50600436106100935760003560e01c806391d148541161006657806391d1485414610106578063a1ea2c0014610129578063d547741f1461013c578063f2fde38b1461014f578063fa82ac761461016257600080fd5b8063248a9ca3146100985780632f2ff15d146100be57806336568abe146100d35780638da5cb5b146100e6575b600080fd5b6100ab6100a6366004610749565b610175565b6040519081526020015b60405180910390f35b6100d16100cc366004610762565b610186565b005b6100d16100e1366004610762565b6101cc565b6100ee6101db565b6040516001600160a01b0390911681526020016100b5565b610119610114366004610762565b610201565b60405190151581526020016100b5565b6100d161013736600461078e565b610214565b6100d161014a366004610762565b610252565b6100d161015d36600461072e565b610298565b6100d1610170366004610762565b6102cf565b6000610180826102e3565b92915050565b6101908282610317565b60405133906001600160a01b0383169084907f2f8788117e7eff1d82e926ec794901d17c78024a50270940304540a733656f0d90600090a45050565b6101d7828233610339565b5050565b60006101fc600080516020610919833981519152546001600160a01b031690565b905090565b600061020d83836103c1565b9392505050565b61021e600061040b565b60009182527fe60be0110dc1792cd793dc6d2d18db752d6e49771db52ffb0dfa2892dbc86d2d602052604090912060010155565b61025c8282610418565b60405133906001600160a01b0383169084907ff6391f5c32d9c69d2a47ea670b442974b53935d1edc7fd64eb21e047a839171b90600090a45050565b6102a061042b565b60008051602061091983398151915280546001600160a01b0319166001600160a01b0392909216919091179055565b6102d9600061040b565b6101d7828261048d565b60009081527fe60be0110dc1792cd793dc6d2d18db752d6e49771db52ffb0dfa2892dbc86d2d602052604090206001015490565b610320826102e3565b61032a8133610497565b61033483836104fb565b505050565b806001600160a01b0316826001600160a01b0316146103b75760405162461bcd60e51b815260206004820152602f60248201527f416363657373436f6e74726f6c3a2063616e206f6e6c792072656e6f756e636560448201526e103937b632b9903337b91039b2b63360891b60648201526084015b60405180910390fd5b6103348383610551565b60009182527fe60be0110dc1792cd793dc6d2d18db752d6e49771db52ffb0dfa2892dbc86d2d602090815260408084206001600160a01b0393909316845291905290205460ff1690565b6104158133610497565b50565b610421826102e3565b6103b78133610497565b600080516020610919833981519152546001600160a01b0316331461048b5760405162461bcd60e51b815260206004820152601660248201527526bab9ba1031329031b7b73a3930b1ba1037bbb732b960511b60448201526064016103ae565b565b6101d782826104fb565b6104a182826103c1565b6101d7576104b9816001600160a01b03166014610576565b6104c4836020610576565b6040516020016104d59291906107b0565b60408051601f198184030181529082905262461bcd60e51b82526103ae91600401610825565b61050582826103c1565b6101d75760016000805160206109198339815191525b6000938452600201602090815260408085206001600160a01b039490941685529290529120805460ff1916911515919091179055565b61055b82826103c1565b156101d757600060008051602061091983398151915261051b565b60606000610585836002610870565b610590906002610858565b67ffffffffffffffff8111156105a8576105a8610902565b6040519080825280601f01601f1916602001820160405280156105d2576020820181803683370190505b509050600360fc1b816000815181106105ed576105ed6108ec565b60200101906001600160f81b031916908160001a905350600f60fb1b8160018151811061061c5761061c6108ec565b60200101906001600160f81b031916908160001a9053506000610640846002610870565b61064b906001610858565b90505b60018111156106c3576f181899199a1a9b1b9c1cb0b131b232b360811b85600f166010811061067f5761067f6108ec565b1a60f81b828281518110610695576106956108ec565b60200101906001600160f81b031916908160001a90535060049490941c936106bc816108bf565b905061064e565b50831561020d5760405162461bcd60e51b815260206004820181905260248201527f537472696e67733a20686578206c656e67746820696e73756666696369656e7460448201526064016103ae565b80356001600160a01b038116811461072957600080fd5b919050565b60006020828403121561074057600080fd5b61020d82610712565b60006020828403121561075b57600080fd5b5035919050565b6000806040838503121561077557600080fd5b8235915061078560208401610712565b90509250929050565b600080604083850312156107a157600080fd5b50508035926020909101359150565b7f416363657373436f6e74726f6c3a206163636f756e74200000000000000000008152600083516107e881601785016020880161088f565b7001034b99036b4b9b9b4b733903937b6329607d1b601791840191820152835161081981602884016020880161088f565b01602801949350505050565b602081526000825180602084015261084481604085016020870161088f565b601f01601f19169190910160400192915050565b6000821982111561086b5761086b6108d6565b500190565b600081600019048311821515161561088a5761088a6108d6565b500290565b60005b838110156108aa578181015183820152602001610892565b838111156108b9576000848401525b50505050565b6000816108ce576108ce6108d6565b506000190190565b634e487b7160e01b600052601160045260246000fd5b634e487b7160e01b600052603260045260246000fd5b634e487b7160e01b600052604160045260246000fdfee60be0110dc1792cd793dc6d2d18db752d6e49771db52ffb0dfa2892dbc86d2ba2646970667358221220ecdbf4cbae375ea7222c2341a97b8b267ecb663ac8b7c8bc4021939b1db8819f64736f6c63430008060033",
  "linkReferences": {},
  "deployedLinkReferences": {}
}