{
  "_format": "hh-sol-artifact-1",
  "contractName": "PostFacet",
  "sourceName": "contracts/facets/PostFacet.sol",
  "abi": [
    {
      "anonymous": false,
      "inputs": [
        {
          "indexed": true,
          "internalType": "address",
          "name": "receiver",
          "type": "address"
        },
        {
          "indexed": false,
          "internalType": "uint256",
          "name": "value",
          "type": "uint256"
        }
      ],
      "name": "AmountReceived",
      "type": "event"
    },
    {
      "anonymous": false,
      "inputs": [
        {
          "indexed": true,
          "internalType": "bytes32",
          "name": "postId",
          "type": "bytes32"
        },
        {
          "indexed": true,
          "internalType": "address",
          "name": "createdBy",
          "type": "address"
        },
        {
          "indexed": false,
          "internalType": "uint256",
          "name": "value",
          "type": "uint256"
        },
        {
          "indexed": false,
          "internalType": "string",
          "name": "link",
          "type": "string"
        }
      ],
      "name": "PostCreated",
      "type": "event"
    },
    {
      "anonymous": false,
      "inputs": [
        {
          "indexed": true,
          "internalType": "bytes32",
          "name": "postId",
          "type": "bytes32"
        },
        {
          "indexed": true,
          "internalType": "bytes32",
          "name": "postTipId",
          "type": "bytes32"
        },
        {
          "indexed": true,
          "internalType": "address",
          "name": "createdBy",
          "type": "address"
        },
        {
          "indexed": false,
          "internalType": "uint256",
          "name": "value",
          "type": "uint256"
        }
      ],
      "name": "PostTipCreated",
      "type": "event"
    },
    {
      "inputs": [
        {
          "internalType": "bytes",
          "name": "data_",
          "type": "bytes"
        },
        {
          "internalType": "bytes",
          "name": "signature_",
          "type": "bytes"
        }
      ],
      "name": "createPost",
      "outputs": [
        {
          "internalType": "bytes32",
          "name": "",
          "type": "bytes32"
        }
      ],
      "stateMutability": "payable",
      "type": "function"
    },
    {
      "inputs": [
        {
          "internalType": "bytes",
          "name": "data_",
          "type": "bytes"
        },
        {
          "internalType": "bytes",
          "name": "signature_",
          "type": "bytes"
        }
      ],
      "name": "createPostTip",
      "outputs": [],
      "stateMutability": "payable",
      "type": "function"
    },
    {
      "inputs": [
        {
          "internalType": "bytes32",
          "name": "postId_",
          "type": "bytes32"
        }
      ],
      "name": "getPost",
      "outputs": [
        {
          "internalType": "uint256",
          "name": "intialValue",
          "type": "uint256"
        },
        {
          "internalType": "uint256",
          "name": "tipsTotalValue",
          "type": "uint256"
        },
        {
          "internalType": "address",
          "name": "createdBy",
          "type": "address"
        },
        {
          "internalType": "uint256",
          "name": "createdTime",
          "type": "uint256"
        }
      ],
      "stateMutability": "view",
      "type": "function"
    },
    {
      "inputs": [
        {
          "internalType": "uint256",
          "name": "skip_",
          "type": "uint256"
        },
        {
          "internalType": "uint256",
          "name": "limit_",
          "type": "uint256"
        }
      ],
      "name": "getPostIds",
      "outputs": [
        {
          "internalType": "bytes32[]",
          "name": "",
          "type": "bytes32[]"
        },
        {
          "internalType": "uint256",
          "name": "",
          "type": "uint256"
        }
      ],
      "stateMutability": "view",
      "type": "function"
    },
    {
      "inputs": [],
      "name": "getPostMinimumBid",
      "outputs": [
        {
          "internalType": "uint256",
          "name": "",
          "type": "uint256"
        }
      ],
      "stateMutability": "view",
      "type": "function"
    },
    {
      "inputs": [
        {
          "internalType": "bytes32",
          "name": "postTipId_",
          "type": "bytes32"
        }
      ],
      "name": "getPostTip",
      "outputs": [
        {
          "internalType": "address",
          "name": "createdBy",
          "type": "address"
        },
        {
          "internalType": "uint256",
          "name": "value",
          "type": "uint256"
        },
        {
          "internalType": "uint256",
          "name": "createdTime",
          "type": "uint256"
        },
        {
          "internalType": "bytes32",
          "name": "postId",
          "type": "bytes32"
        }
      ],
      "stateMutability": "view",
      "type": "function"
    },
    {
      "inputs": [
        {
          "internalType": "uint256",
          "name": "skip_",
          "type": "uint256"
        },
        {
          "internalType": "uint256",
          "name": "limit_",
          "type": "uint256"
        }
      ],
      "name": "getPostTipIds",
      "outputs": [
        {
          "internalType": "bytes32[]",
          "name": "",
          "type": "bytes32[]"
        },
        {
          "internalType": "uint256",
          "name": "",
          "type": "uint256"
        }
      ],
      "stateMutability": "view",
      "type": "function"
    },
    {
      "inputs": [
        {
          "internalType": "bytes32",
          "name": "postId_",
          "type": "bytes32"
        },
        {
          "internalType": "uint256",
          "name": "skip_",
          "type": "uint256"
        },
        {
          "internalType": "uint256",
          "name": "limit_",
          "type": "uint256"
        }
      ],
      "name": "getTipIdsOnPost",
      "outputs": [
        {
          "internalType": "bytes32[]",
          "name": "",
          "type": "bytes32[]"
        },
        {
          "internalType": "uint256",
          "name": "",
          "type": "uint256"
        }
      ],
      "stateMutability": "view",
      "type": "function"
    },
    {
      "inputs": [
        {
          "internalType": "uint256",
          "name": "postMinimumBid_",
          "type": "uint256"
        },
        {
          "internalType": "string",
          "name": "baseURI_",
          "type": "string"
        }
      ],
      "name": "initPost",
      "outputs": [],
      "stateMutability": "nonpayable",
      "type": "function"
    },
    {
      "inputs": [
        {
          "internalType": "string",
          "name": "baseURI_",
          "type": "string"
        }
      ],
      "name": "setPostBaseURI",
      "outputs": [],
      "stateMutability": "nonpayable",
      "type": "function"
    },
    {
      "inputs": [
        {
          "internalType": "uint256",
          "name": "postMinimumBid_",
          "type": "uint256"
        }
      ],
      "name": "setPostMinimumBid",
      "outputs": [],
      "stateMutability": "nonpayable",
      "type": "function"
    },
    {
      "inputs": [
        {
          "internalType": "string",
          "name": "contentHash_",
          "type": "string"
        }
      ],
      "name": "uri",
      "outputs": [
        {
          "internalType": "string",
          "name": "",
          "type": "string"
        }
      ],
      "stateMutability": "view",
      "type": "function"
    },
    {
      "stateMutability": "payable",
      "type": "receive"
    }
  ],
  "bytecode": "0x608060405234801561001057600080fd5b506001600055611f7c806100256000396000f3fe6080604052600436106100ab5760003560e01c80637425bc0c116100645780637425bc0c146101f8578063770a773e1461020d57806393e43bbe1461022d578063af74361f1461027c578063e372e7891461029c578063f1968085146102af57600080fd5b806308f1d635146100eb5780630de72b7e1461013a57806310f5ff3e14610167578063262515631461019557806349e03502146101b65780634d1ccb62146101d657600080fd5b366100e65760405134815230907e36624afd4ac14e2ebe9b68a6ec0c6e4f6bf5bde2999a61e1fec085ca86697d9060200160405180910390a2005b600080fd5b3480156100f757600080fd5b5061010b610106366004611a12565b6102cf565b604080516001600160a01b03909516855260208501939093529183015260608201526080015b60405180910390f35b34801561014657600080fd5b5061015a610155366004611abb565b610339565b6040516101319190611d42565b34801561017357600080fd5b50610187610182366004611b35565b61034a565b604051610131929190611cfa565b6101a86101a3366004611a57565b610364565b604051908152602001610131565b3480156101c257600080fd5b506101876101d1366004611b35565b61047a565b3480156101e257600080fd5b506101f66101f1366004611a12565b610488565b005b34801561020457600080fd5b506101a86104bd565b34801561021957600080fd5b506101f6610228366004611abb565b6104da565b34801561023957600080fd5b5061024d610248366004611a12565b6104ed565b604051610131949392919093845260208401929092526001600160a01b03166040830152606082015260800190565b34801561028857600080fd5b50610187610297366004611a2b565b61054a565b6101f66102aa366004611a57565b610565565b3480156102bb57600080fd5b506101f66102ca366004611af8565b61065b565b60008060008061032a8560009081527f34825cf6daaa03da33da43317630988070c20f2379cb3745ccc8014fd48b98ad602052604090208054600182015460028301546003909301546001600160a01b039092169390929190565b93509350935093509193509193565b6060610344826106f1565b92915050565b60606000610358848461074e565b915091505b9250929050565b600061036f826107cd565b600080600085806020019051810190610388919061197f565b92509250925060007f81360aa8cdb08567bfa025c1d50d4f18e90ab8378b84c3432b54b567eac7b35c848484805190602001206040516020016103ed94939291909384526001600160a01b039290921660208401526040830152606082015260800190565b604051602081830303815290604052805190602001209050610410848288610867565b60408051808201909152600681526530303430303560d01b60208201523484146104565760405162461bcd60e51b815260040161044d9190611d42565b60405180910390fd5b506000610464858585610970565b905061046f87610a11565b979650505050505050565b606060006103588484610ac3565b6104926000610b34565b6104ba817f34825cf6daaa03da33da43317630988070c20f2379cb3745ccc8014fd48b98aa55565b50565b600080600080516020611f278339815191525b6001015492915050565b6104e46000610b34565b6104ba81610b3e565b60008060008061032a8560009081527f34825cf6daaa03da33da43317630988070c20f2379cb3745ccc8014fd48b98ac60205260409020600181015460028201546003830154600590930154919390926001600160a01b03169190565b60606000610559858585610b80565b91509150935093915050565b61056e816107cd565b600080600084806020019051810190610587919061194a565b604080517f01df991fe88b6504dbf160c230a36f354586344a0abc682ed4910289454c55b460208201526001600160a01b038516918101919091526060810183905260808101829052929550909350915060009060a001604051602081830303815290604052805190602001209050610601848287610867565b60408051808201909152600681526530303430303560d01b602082015234841461063e5760405162461bcd60e51b815260040161044d9190611d42565b5061064a848484610c24565b61065385610a11565b505050505050565b600080516020611f27833981519152805460ff16156106bc5760405162461bcd60e51b815260206004820152601e60248201527f506f737446616365743a20416c726561647920696e697469616c697a65640000604482015260640161044d565b6106c4610cce565b805460ff191660019081178255810183905581516106eb9060028301906020850190611805565b50505050565b604051606090600080516020611f2783398151915290610737907f34825cf6daaa03da33da43317630988070c20f2379cb3745ccc8014fd48b98ab908590602001611bde565b604051602081830303815290604052915050919050565b6060600080600080516020611f2783398151915290506107c18585836006018054806020026020016040519081016040528092919081815260200182805480156107b757602002820191906000526020600020905b8154815260200190600101908083116107a3575b5050505050610cda565b92509250509250929050565b6000816040516020016107e09190611d42565b604051602081830303815290604052805190602001209050600061080f600080516020611f0783398151915290565b600083815260038201602052604090205490915060ff16156108625760405162461bcd60e51b815260206004820152600c60248201526b105b1c9958591e481d5cd95960a21b604482015260640161044d565b505050565b6000610871610db0565b60405161190160f01b602082015260228101919091526042810184905260620160405160208183030381529060405280519060200120905060006108b58284610dc7565b9050806001600160a01b0316856001600160a01b0316146109185760405162461bcd60e51b815260206004820152601d60248201527f4d7946756e6374696f6e3a20696e76616c6964207369676e6174757265000000604482015260640161044d565b6001600160a01b0381166109695760405162461bcd60e51b815260206004820152601860248201527745434453413a20696e76616c6964207369676e617475726560401b604482015260640161044d565b5050505050565b6000806000610980848787610deb565b9150915061098f600086610f96565b856001600160a01b0316827f3c860076dbb2474109ea1afc5f287966581081acee08ee7ec1d39cfdd52a074087846040516109cb929190611d55565b60405180910390a36040518581526000907e36624afd4ac14e2ebe9b68a6ec0c6e4f6bf5bde2999a61e1fec085ca86697d9060200160405180910390a250949350505050565b600081604051602001610a249190611d42565b6040516020818303038152906040528051906020012090506000610a53600080516020611f0783398151915290565b600083815260038201602052604090205490915060ff1615610aa65760405162461bcd60e51b815260206004820152600c60248201526b105b1c9958591e481d5cd95960a21b604482015260640161044d565b600091825260030160205260409020805460ff1916600117905550565b6060600080600080516020611f2783398151915290506107c18585836005018054806020026020016040519081016040528092919081815260200182805480156107b757602002820191906000526020600020908154815260200190600101908083116107a3575050505050610cda565b6104ba8133610ff7565b8051600080516020611f2783398151915290610862907f34825cf6daaa03da33da43317630988070c20f2379cb3745ccc8014fd48b98ab906020850190611805565b60008381527f34825cf6daaa03da33da43317630988070c20f2379cb3745ccc8014fd48b98ac60209081526040808320600401805482518185028101850190935280835260609493600080516020611f2783398151915293610c1793899389938301828280156107b757602002820191906000526020600020908154815260200190600101908083116107a3575050505050610cda565b9250925050935093915050565b600080610c3283868661109a565b91509150610c408185610f96565b846001600160a01b031682847fa7b9de4cae04f62223d95aba2f4ecdd05879f655bab52b8505b696ecf05f727487604051610c7d91815260200190565b60405180910390a4806001600160a01b03167e36624afd4ac14e2ebe9b68a6ec0c6e4f6bf5bde2999a61e1fec085ca86697d85604051610cbf91815260200190565b60405180910390a25050505050565b610cd86000610b34565b565b60606000848351610ceb9190611dfe565b841115610d0257848351610cff9190611dfe565b93505b8367ffffffffffffffff811115610d1b57610d1b611ef0565b604051908082528060200260200182016040528015610d44578160200160208202803683370190505b50915060005b84811015610da45783610d5d8288611dc7565b81518110610d6d57610d6d611eda565b6020026020010151838281518110610d8757610d87611eda565b602090810291909101015280610d9c81611e93565b915050610d4a565b50816105598587611dc7565b600080600080516020611f078339815191526104d0565b6000806000610dd6858561111b565b91509150610de381611188565b509392505050565b7f34825cf6daaa03da33da43317630988070c20f2379cb3745ccc8014fd48b98aa5460408051808201909152600681526530303430303360d01b6020820152600091606091600080516020611f2783398151915291851015610e605760405162461bcd60e51b815260040161044d9190611d42565b50604080516000815260208101909152610e79876106f1565b9250828642604051602001610e9093929190611b9f565b60408051601f19818403018152828252805160209182012060e08401835286845283820189905260008484018190526001600160a01b038b166060860152608085018690524260a086015260c0850181905281815260038701835292909220835180519398509092610f059284920190611805565b5060208281015160018301556040830151600283015560608301516003830180546001600160a01b0319166001600160a01b0390921691909117905560808301518051610f589260048501920190611889565b5060a082015160058083019190915560c090920151600690910155919091018054600181018255600091825260209091200183905550935093915050565b6001600160a01b03821660009081527f793ba39717776526f812abdc4711d8c8f539f0d8595e4dc61cd8bbf5affeabc3602052604081208054600080516020611f0783398151915292849291610fed908490611dc7565b9091555050505050565b60008281527fe60be0110dc1792cd793dc6d2d18db752d6e49771db52ffb0dfa2892dbc86d2d602090815260408083206001600160a01b038516845290915290205460ff1661109657611054816001600160a01b0316601461133e565b61105f83602061133e565b604051602001611070929190611c85565b60408051601f198184030181529082905262461bcd60e51b825261044d91600401611d42565b5050565b60008381527f34825cf6daaa03da33da43317630988070c20f2379cb3745ccc8014fd48b98ac602052604081208190600080516020611f27833981519152906110e2816114e1565b6110eb8561152a565b6110f6878787611565565b9350611103818587611663565b600301546001600160a01b0316915050935093915050565b6000808251604114156111525760208301516040840151606085015160001a61114687828585611698565b9450945050505061035d565b82516040141561117c5760208301516040840151611171868383611785565b93509350505061035d565b5060009050600261035d565b600081600481111561119c5761119c611ec4565b14156111a55750565b60018160048111156111b9576111b9611ec4565b14156112025760405162461bcd60e51b815260206004820152601860248201527745434453413a20696e76616c6964207369676e617475726560401b604482015260640161044d565b600281600481111561121657611216611ec4565b14156112645760405162461bcd60e51b815260206004820152601f60248201527f45434453413a20696e76616c6964207369676e6174757265206c656e67746800604482015260640161044d565b600381600481111561127857611278611ec4565b14156112d15760405162461bcd60e51b815260206004820152602260248201527f45434453413a20696e76616c6964207369676e6174757265202773272076616c604482015261756560f01b606482015260840161044d565b60048160048111156112e5576112e5611ec4565b14156104ba5760405162461bcd60e51b815260206004820152602260248201527f45434453413a20696e76616c6964207369676e6174757265202776272076616c604482015261756560f01b606482015260840161044d565b6060600061134d836002611ddf565b611358906002611dc7565b67ffffffffffffffff81111561137057611370611ef0565b6040519080825280601f01601f19166020018201604052801561139a576020820181803683370190505b509050600360fc1b816000815181106113b5576113b5611eda565b60200101906001600160f81b031916908160001a905350600f60fb1b816001815181106113e4576113e4611eda565b60200101906001600160f81b031916908160001a9053506000611408846002611ddf565b611413906001611dc7565b90505b600181111561148b576f181899199a1a9b1b9c1cb0b131b232b360811b85600f166010811061144757611447611eda565b1a60f81b82828151811061145d5761145d611eda565b60200101906001600160f81b031916908160001a90535060049490941c9361148481611e41565b9050611416565b5083156114da5760405162461bcd60e51b815260206004820181905260248201527f537472696e67733a20686578206c656e67746820696e73756666696369656e74604482015260640161044d565b9392505050565b600381015460408051808201909152600681526530303430303160d01b6020820152906001600160a01b03166110965760405162461bcd60e51b815260040161044d9190611d42565b60408051808201909152600681526530303430303360d01b6020820152816110965760405162461bcd60e51b815260040161044d9190611d42565b604080516020808201869052606085901b6bffffffffffffffffffffffff19168284015242605480840191909152835180840390910181526074909201835281519181019190912060008181527f34825cf6daaa03da33da43317630988070c20f2379cb3745ccc8014fd48b98ad9092529181209091600080516020611f27833981519152916115f4906117be565b604080516080810182526001600160a01b03968716815260208082019687524282840190815260608301998a52600085815260049690960190915291909320925183546001600160a01b0319169616959095178255925160018201559251600284015550915160039091015590565b808360020160008282546116779190611dc7565b90915550505060049091018054600181018255600091825260209091200155565b6000807f7fffffffffffffffffffffffffffffff5d576e7357a4501ddfe92f46681b20a08311156116cf575060009050600361177c565b8460ff16601b141580156116e757508460ff16601c14155b156116f8575060009050600461177c565b6040805160008082526020820180845289905260ff881692820192909252606081018690526080810185905260019060a0016020604051602081039080840390855afa15801561174c573d6000803e3d6000fd5b5050604051601f1901519150506001600160a01b0381166117755760006001925092505061177c565b9150600090505b94509492505050565b6000806001600160ff1b038316816117a260ff86901c601b611dc7565b90506117b087828885611698565b935093505050935093915050565b805460408051808201909152600681526518181a18181960d11b6020820152906001600160a01b0316156110965760405162461bcd60e51b815260040161044d9190611d42565b82805461181190611e58565b90600052602060002090601f0160209004810192826118335760008555611879565b82601f1061184c57805160ff1916838001178555611879565b82800160010185558215611879579182015b8281111561187957825182559160200191906001019061185e565b506118859291506118c3565b5090565b828054828255906000526020600020908101928215611879579160200282018281111561187957825182559160200191906001019061185e565b5b8082111561188557600081556001016118c4565b80516001600160a01b03811681146118ef57600080fd5b919050565b600082601f83011261190557600080fd5b813561191861191382611d9f565b611d6e565b81815284602083860101111561192d57600080fd5b816020850160208301376000918101602001919091529392505050565b60008060006060848603121561195f57600080fd5b611968846118d8565b925060208401519150604084015190509250925092565b60008060006060848603121561199457600080fd5b61199d846118d8565b925060208401519150604084015167ffffffffffffffff8111156119c057600080fd5b8401601f810186136119d157600080fd5b80516119df61191382611d9f565b8181528760208385010111156119f457600080fd5b611a05826020830160208601611e15565b8093505050509250925092565b600060208284031215611a2457600080fd5b5035919050565b600080600060608486031215611a4057600080fd5b505081359360208301359350604090920135919050565b60008060408385031215611a6a57600080fd5b823567ffffffffffffffff80821115611a8257600080fd5b611a8e868387016118f4565b93506020850135915080821115611aa457600080fd5b50611ab1858286016118f4565b9150509250929050565b600060208284031215611acd57600080fd5b813567ffffffffffffffff811115611ae457600080fd5b611af0848285016118f4565b949350505050565b60008060408385031215611b0b57600080fd5b82359150602083013567ffffffffffffffff811115611b2957600080fd5b611ab1858286016118f4565b60008060408385031215611b4857600080fd5b50508035926020909101359150565b60008151808452611b6f816020860160208601611e15565b601f01601f19169290920160200192915050565b60008151611b95818560208601611e15565b9290920192915050565b60008451611bb1818460208901611e15565b60609490941b6bffffffffffffffffffffffff191691909301908152601481019190915260340192915050565b600080845481600182811c915080831680611bfa57607f831692505b6020808410821415611c1a57634e487b7160e01b86526022600452602486fd5b818015611c2e5760018114611c3f57611c6c565b60ff19861689528489019650611c6c565b60008b81526020902060005b86811015611c645781548b820152908501908301611c4b565b505084890196505b505050505050611c7c8185611b83565b95945050505050565b7f416363657373436f6e74726f6c3a206163636f756e7420000000000000000000815260008351611cbd816017850160208801611e15565b7001034b99036b4b9b9b4b733903937b6329607d1b6017918401918201528351611cee816028840160208801611e15565b01602801949350505050565b604080825283519082018190526000906020906060840190828701845b82811015611d3357815184529284019290840190600101611d17565b50505092019290925292915050565b6020815260006114da6020830184611b57565b828152604060208201526000611af06040830184611b57565b604051601f8201601f1916810167ffffffffffffffff81118282101715611d9757611d97611ef0565b604052919050565b600067ffffffffffffffff821115611db957611db9611ef0565b50601f01601f191660200190565b60008219821115611dda57611dda611eae565b500190565b6000816000190483118215151615611df957611df9611eae565b500290565b600082821015611e1057611e10611eae565b500390565b60005b83811015611e30578181015183820152602001611e18565b838111156106eb5750506000910152565b600081611e5057611e50611eae565b506000190190565b600181811c90821680611e6c57607f821691505b60208210811415611e8d57634e487b7160e01b600052602260045260246000fd5b50919050565b6000600019821415611ea757611ea7611eae565b5060010190565b634e487b7160e01b600052601160045260246000fd5b634e487b7160e01b600052602160045260246000fd5b634e487b7160e01b600052603260045260246000fd5b634e487b7160e01b600052604160045260246000fdfe793ba39717776526f812abdc4711d8c8f539f0d8595e4dc61cd8bbf5affeabc134825cf6daaa03da33da43317630988070c20f2379cb3745ccc8014fd48b98a9a26469706673582212203c329f26045eea1e90b85295183b419b0570ae77d6e4e331302b6cf538b7b55464736f6c63430008060033",
  "linkReferences": {},
  "deployedLinkReferences": {}
}