{
  "_format": "hh-sol-artifact-1",
  "contractName": "PostFacet",
  "sourceName": "contracts/facets/PostFacet.sol",
  "abi": [
    {
      "anonymous": false,
      "inputs": [
        {
          "indexed": true,
          "internalType": "address",
          "name": "receiver",
          "type": "address"
        },
        {
          "indexed": false,
          "internalType": "uint256",
          "name": "value",
          "type": "uint256"
        }
      ],
      "name": "AmountReceived",
      "type": "event"
    },
    {
      "anonymous": false,
      "inputs": [
        {
          "indexed": true,
          "internalType": "bytes32",
          "name": "postId",
          "type": "bytes32"
        },
        {
          "indexed": true,
          "internalType": "address",
          "name": "createdBy",
          "type": "address"
        },
        {
          "indexed": false,
          "internalType": "uint256",
          "name": "value",
          "type": "uint256"
        },
        {
          "indexed": false,
          "internalType": "string",
          "name": "link",
          "type": "string"
        }
      ],
      "name": "PostCreated",
      "type": "event"
    },
    {
      "anonymous": false,
      "inputs": [
        {
          "indexed": true,
          "internalType": "bytes32",
          "name": "postId",
          "type": "bytes32"
        },
        {
          "indexed": true,
          "internalType": "bytes32",
          "name": "postTipId",
          "type": "bytes32"
        },
        {
          "indexed": true,
          "internalType": "address",
          "name": "createdBy",
          "type": "address"
        },
        {
          "indexed": false,
          "internalType": "uint256",
          "name": "value",
          "type": "uint256"
        }
      ],
      "name": "PostTipCreated",
      "type": "event"
    },
    {
      "inputs": [
        {
          "internalType": "string",
          "name": "postHash_",
          "type": "string"
        }
      ],
      "name": "createPost",
      "outputs": [
        {
          "internalType": "bytes32",
          "name": "",
          "type": "bytes32"
        }
      ],
      "stateMutability": "payable",
      "type": "function"
    },
    {
      "inputs": [
        {
          "internalType": "bytes32",
          "name": "postId_",
          "type": "bytes32"
        }
      ],
      "name": "createPostTip",
      "outputs": [],
      "stateMutability": "payable",
      "type": "function"
    },
    {
      "inputs": [
        {
          "internalType": "bytes32",
          "name": "postId_",
          "type": "bytes32"
        }
      ],
      "name": "getPost",
      "outputs": [
        {
          "internalType": "uint256",
          "name": "intialValue",
          "type": "uint256"
        },
        {
          "internalType": "uint256",
          "name": "tipsTotalValue",
          "type": "uint256"
        },
        {
          "internalType": "address",
          "name": "createdBy",
          "type": "address"
        },
        {
          "internalType": "uint256",
          "name": "createdTime",
          "type": "uint256"
        }
      ],
      "stateMutability": "view",
      "type": "function"
    },
    {
      "inputs": [
        {
          "internalType": "uint256",
          "name": "skip_",
          "type": "uint256"
        },
        {
          "internalType": "uint256",
          "name": "limit_",
          "type": "uint256"
        }
      ],
      "name": "getPostIds",
      "outputs": [
        {
          "internalType": "bytes32[]",
          "name": "",
          "type": "bytes32[]"
        },
        {
          "internalType": "uint256",
          "name": "",
          "type": "uint256"
        }
      ],
      "stateMutability": "view",
      "type": "function"
    },
    {
      "inputs": [
        {
          "internalType": "bytes32",
          "name": "postTipId_",
          "type": "bytes32"
        }
      ],
      "name": "getPostTip",
      "outputs": [
        {
          "internalType": "address",
          "name": "createdBy",
          "type": "address"
        },
        {
          "internalType": "uint256",
          "name": "value",
          "type": "uint256"
        },
        {
          "internalType": "uint256",
          "name": "createdTime",
          "type": "uint256"
        },
        {
          "internalType": "bytes32",
          "name": "postId",
          "type": "bytes32"
        }
      ],
      "stateMutability": "view",
      "type": "function"
    },
    {
      "inputs": [
        {
          "internalType": "uint256",
          "name": "skip_",
          "type": "uint256"
        },
        {
          "internalType": "uint256",
          "name": "limit_",
          "type": "uint256"
        }
      ],
      "name": "getPostTipIds",
      "outputs": [
        {
          "internalType": "bytes32[]",
          "name": "",
          "type": "bytes32[]"
        },
        {
          "internalType": "uint256",
          "name": "",
          "type": "uint256"
        }
      ],
      "stateMutability": "view",
      "type": "function"
    },
    {
      "inputs": [
        {
          "internalType": "bytes32",
          "name": "postId_",
          "type": "bytes32"
        },
        {
          "internalType": "uint256",
          "name": "skip_",
          "type": "uint256"
        },
        {
          "internalType": "uint256",
          "name": "limit_",
          "type": "uint256"
        }
      ],
      "name": "getTipIdsOnPost",
      "outputs": [
        {
          "internalType": "bytes32[]",
          "name": "",
          "type": "bytes32[]"
        },
        {
          "internalType": "uint256",
          "name": "",
          "type": "uint256"
        }
      ],
      "stateMutability": "view",
      "type": "function"
    },
    {
      "inputs": [
        {
          "internalType": "uint256",
          "name": "postMinimumBid_",
          "type": "uint256"
        },
        {
          "internalType": "string",
          "name": "baseURI_",
          "type": "string"
        }
      ],
      "name": "initPost",
      "outputs": [],
      "stateMutability": "nonpayable",
      "type": "function"
    },
    {
      "inputs": [
        {
          "internalType": "string",
          "name": "baseURI_",
          "type": "string"
        }
      ],
      "name": "setPostBaseURI",
      "outputs": [],
      "stateMutability": "nonpayable",
      "type": "function"
    },
    {
      "inputs": [
        {
          "internalType": "uint256",
          "name": "postMinimumBid_",
          "type": "uint256"
        }
      ],
      "name": "setPostMinimumBid",
      "outputs": [],
      "stateMutability": "nonpayable",
      "type": "function"
    },
    {
      "inputs": [
        {
          "internalType": "string",
          "name": "contentHash_",
          "type": "string"
        }
      ],
      "name": "uri",
      "outputs": [
        {
          "internalType": "string",
          "name": "",
          "type": "string"
        }
      ],
      "stateMutability": "view",
      "type": "function"
    },
    {
      "stateMutability": "payable",
      "type": "receive"
    }
  ],
  "bytecode": "0x608060405234801561001057600080fd5b5060016000556116e7806100256000396000f3fe6080604052600436106100a05760003560e01c8063770a773e11610064578063770a773e146101cc57806393e43bbe146101ec578063a9a3aa831461023b578063af74361f1461024e578063c7303c611461026e578063f19680851461028f57600080fd5b806308f1d635146100e05780630de72b7e1461012f57806310f5ff3e1461015c57806349e035021461018a5780634d1ccb62146101aa57600080fd5b366100db5760405134815233907e36624afd4ac14e2ebe9b68a6ec0c6e4f6bf5bde2999a61e1fec085ca86697d9060200160405180910390a2005b600080fd5b3480156100ec57600080fd5b506101006100fb366004611266565b6102af565b604080516001600160a01b03909516855260208501939093529183015260608201526080015b60405180910390f35b34801561013b57600080fd5b5061014f61014a3660046112ab565b610319565b604051610126919061153c565b34801561016857600080fd5b5061017c61017736600461132f565b61032a565b6040516101269291906114f4565b34801561019657600080fd5b5061017c6101a536600461132f565b610343565b3480156101b657600080fd5b506101ca6101c5366004611266565b610351565b005b3480156101d857600080fd5b506101ca6101e73660046112ab565b6103df565b3480156101f857600080fd5b5061020c610207366004611266565b61044b565b604051610126949392919093845260208401929092526001600160a01b03166040830152606082015260800190565b6101ca610249366004611266565b6104a8565b34801561025a57600080fd5b5061017c61026936600461127f565b610550565b61028161027c3660046112ab565b61056b565b604051908152602001610126565b34801561029b57600080fd5b506101ca6102aa3660046112e8565b61066b565b60008060008061030a8560009081527f34825cf6daaa03da33da43317630988070c20f2379cb3745ccc8014fd48b98ad602052604090208054600182015460028301546003909301546001600160a01b039092169390929190565b93509350935093509193509193565b606061032482610701565b92915050565b60606000610338848461075e565b915091509250929050565b6060600061033884846107dd565b60405163695cef6560e01b81526000600482015273__$bb9d112070cfc0a1d6e6da2a36217b4d08$__9063695cef659060240160006040518083038186803b15801561039c57600080fd5b505af41580156103b0573d6000803e3d6000fd5b505050506103dc817f34825cf6daaa03da33da43317630988070c20f2379cb3745ccc8014fd48b98aa55565b50565b60405163695cef6560e01b81526000600482015273__$bb9d112070cfc0a1d6e6da2a36217b4d08$__9063695cef659060240160006040518083038186803b15801561042a57600080fd5b505af415801561043e573d6000803e3d6000fd5b505050506103dc8161084e565b60008060008061030a8560009081527f34825cf6daaa03da33da43317630988070c20f2379cb3745ccc8014fd48b98ac60205260409020600181015460028201546003830154600590930154919390926001600160a01b03169190565b6000806104b6833334610895565b915091506104c48134610916565b336001600160a01b031682847fa7b9de4cae04f62223d95aba2f4ecdd05879f655bab52b8505b696ecf05f72743460405161050191815260200190565b60405180910390a4806001600160a01b03167e36624afd4ac14e2ebe9b68a6ec0c6e4f6bf5bde2999a61e1fec085ca86697d3460405161054391815260200190565b60405180910390a2505050565b6060600061055f858585610989565b91509150935093915050565b6000600260005414156105c55760405162461bcd60e51b815260206004820152601f60248201527f5265656e7472616e637947756172643a207265656e7472616e742063616c6c0060448201526064015b60405180910390fd5b60026000908155806105d78433610a2d565b915091506105e6600034610916565b336001600160a01b0316827f3c860076dbb2474109ea1afc5f287966581081acee08ee7ec1d39cfdd52a0740348460405161062292919061154f565b60405180910390a36040513481526000907e36624afd4ac14e2ebe9b68a6ec0c6e4f6bf5bde2999a61e1fec085ca86697d9060200160405180910390a250600160005592915050565b600080516020611692833981519152805460ff16156106cc5760405162461bcd60e51b815260206004820152601e60248201527f506f737446616365743a20416c726561647920696e697469616c697a6564000060448201526064016105bc565b6106d4610bd6565b805460ff191660019081178255810183905581516106fb9060028301906020850190611106565b50505050565b60405160609060008051602061169283398151915290610747907f34825cf6daaa03da33da43317630988070c20f2379cb3745ccc8014fd48b98ab9085906020016113d8565b604051602081830303815290604052915050919050565b606060008060008051602061169283398151915290506107d18585836006018054806020026020016040519081016040528092919081815260200182805480156107c757602002820191906000526020600020905b8154815260200190600101908083116107b3575b5050505050610be2565b92509250509250929050565b606060008060008051602061169283398151915290506107d18585836005018054806020026020016040519081016040528092919081815260200182805480156107c757602002820191906000526020600020908154815260200190600101908083116107b3575050505050610be2565b805160008051602061169283398151915290610890907f34825cf6daaa03da33da43317630988070c20f2379cb3745ccc8014fd48b98ab906020850190611106565b505050565b60008381527f34825cf6daaa03da33da43317630988070c20f2379cb3745ccc8014fd48b98ac602052604081208190600080516020611692833981519152906108dd81610cb8565b6108e685610d05565b6108f1878787610d40565b93506108fe818587610e3e565b600301546001600160a01b0316915050935093915050565b6001600160a01b03821660009081527f793ba39717776526f812abdc4711d8c8f539f0d8595e4dc61cd8bbf5affeabc26020526040812080547f793ba39717776526f812abdc4711d8c8f539f0d8595e4dc61cd8bbf5affeabc19284929161097f908490611568565b9091555050505050565b60008381527f34825cf6daaa03da33da43317630988070c20f2379cb3745ccc8014fd48b98ac6020908152604080832060040180548251818502810185019093528083526060949360008051602061169283398151915293610a2093899389938301828280156107c757602002820191906000526020600020908154815260200190600101908083116107b3575050505050610be2565b9250925050935093915050565b7f34825cf6daaa03da33da43317630988070c20f2379cb3745ccc8014fd48b98aa5460408051808201909152600681526530303430303360d01b602082015260009160609160008051602061169283398151915291341015610aa25760405162461bcd60e51b81526004016105bc919061153c565b50604080516000815260208101909152610abb86610701565b9250823342604051602001610ad293929190611399565b60408051601f19818403018152828252805160209182012060e084018352868452348483015260008484018190526001600160a01b038a166060860152608085018690524260a086015260c0850181905281815260038701835292909220835180519398509092610b469284920190611106565b5060208281015160018301556040830151600283015560608301516003830180546001600160a01b0319166001600160a01b0390921691909117905560808301518051610b99926004850192019061118a565b5060a082015160058083019190915560c0909201516006909101559190910180546001810182556000918252602090912001839055509250929050565b610be06000610e73565b565b60606000848351610bf3919061159f565b841115610c0a57848351610c07919061159f565b93505b8367ffffffffffffffff811115610c2357610c2361167b565b604051908082528060200260200182016040528015610c4c578160200160208202803683370190505b50915060005b84811015610cac5783610c658288611568565b81518110610c7557610c75611665565b6020026020010151838281518110610c8f57610c8f611665565b602090810291909101015280610ca481611634565b915050610c52565b508161055f8587611568565b600381015460408051808201909152600681526530303430303160d01b6020820152906001600160a01b0316610d015760405162461bcd60e51b81526004016105bc919061153c565b5050565b60408051808201909152600681526530303430303360d01b602082015281610d015760405162461bcd60e51b81526004016105bc919061153c565b604080516020808201869052606085901b6bffffffffffffffffffffffff19168284015242605480840191909152835180840390910181526074909201835281519181019190912060008181527f34825cf6daaa03da33da43317630988070c20f2379cb3745ccc8014fd48b98ad909252918120909160008051602061169283398151915291610dcf90610e7d565b604080516080810182526001600160a01b03968716815260208082019687524282840190815260608301998a52600085815260049690960190915291909320925183546001600160a01b0319169616959095178255925160018201559251600284015550915160039091015590565b80836002016000828254610e529190611568565b90915550505060049091018054600181018255600091825260209091200155565b6103dc8133610ec4565b805460408051808201909152600681526518181a18181960d11b6020820152906001600160a01b031615610d015760405162461bcd60e51b81526004016105bc919061153c565b60008281527fe60be0110dc1792cd793dc6d2d18db752d6e49771db52ffb0dfa2892dbc86d2d602090815260408083206001600160a01b038516845290915290205460ff16610d0157610f21816001600160a01b03166014610f63565b610f2c836020610f63565b604051602001610f3d92919061147f565b60408051601f198184030181529082905262461bcd60e51b82526105bc9160040161153c565b60606000610f72836002611580565b610f7d906002611568565b67ffffffffffffffff811115610f9557610f9561167b565b6040519080825280601f01601f191660200182016040528015610fbf576020820181803683370190505b509050600360fc1b81600081518110610fda57610fda611665565b60200101906001600160f81b031916908160001a905350600f60fb1b8160018151811061100957611009611665565b60200101906001600160f81b031916908160001a905350600061102d846002611580565b611038906001611568565b90505b60018111156110b0576f181899199a1a9b1b9c1cb0b131b232b360811b85600f166010811061106c5761106c611665565b1a60f81b82828151811061108257611082611665565b60200101906001600160f81b031916908160001a90535060049490941c936110a9816115e2565b905061103b565b5083156110ff5760405162461bcd60e51b815260206004820181905260248201527f537472696e67733a20686578206c656e67746820696e73756666696369656e7460448201526064016105bc565b9392505050565b828054611112906115f9565b90600052602060002090601f016020900481019282611134576000855561117a565b82601f1061114d57805160ff191683800117855561117a565b8280016001018555821561117a579182015b8281111561117a57825182559160200191906001019061115f565b506111869291506111c4565b5090565b82805482825590600052602060002090810192821561117a579160200282018281111561117a57825182559160200191906001019061115f565b5b8082111561118657600081556001016111c5565b600082601f8301126111ea57600080fd5b813567ffffffffffffffff808211156112055761120561167b565b604051601f8301601f19908116603f0116810190828211818310171561122d5761122d61167b565b8160405283815286602085880101111561124657600080fd5b836020870160208301376000602085830101528094505050505092915050565b60006020828403121561127857600080fd5b5035919050565b60008060006060848603121561129457600080fd5b505081359360208301359350604090920135919050565b6000602082840312156112bd57600080fd5b813567ffffffffffffffff8111156112d457600080fd5b6112e0848285016111d9565b949350505050565b600080604083850312156112fb57600080fd5b82359150602083013567ffffffffffffffff81111561131957600080fd5b611325858286016111d9565b9150509250929050565b6000806040838503121561134257600080fd5b50508035926020909101359150565b600081518084526113698160208601602086016115b6565b601f01601f19169290920160200192915050565b6000815161138f8185602086016115b6565b9290920192915050565b600084516113ab8184602089016115b6565b60609490941b6bffffffffffffffffffffffff191691909301908152601481019190915260340192915050565b600080845481600182811c9150808316806113f457607f831692505b602080841082141561141457634e487b7160e01b86526022600452602486fd5b818015611428576001811461143957611466565b60ff19861689528489019650611466565b60008b81526020902060005b8681101561145e5781548b820152908501908301611445565b505084890196505b505050505050611476818561137d565b95945050505050565b7f416363657373436f6e74726f6c3a206163636f756e74200000000000000000008152600083516114b78160178501602088016115b6565b7001034b99036b4b9b9b4b733903937b6329607d1b60179184019182015283516114e88160288401602088016115b6565b01602801949350505050565b604080825283519082018190526000906020906060840190828701845b8281101561152d57815184529284019290840190600101611511565b50505092019290925292915050565b6020815260006110ff6020830184611351565b8281526040602082015260006112e06040830184611351565b6000821982111561157b5761157b61164f565b500190565b600081600019048311821515161561159a5761159a61164f565b500290565b6000828210156115b1576115b161164f565b500390565b60005b838110156115d15781810151838201526020016115b9565b838111156106fb5750506000910152565b6000816115f1576115f161164f565b506000190190565b600181811c9082168061160d57607f821691505b6020821081141561162e57634e487b7160e01b600052602260045260246000fd5b50919050565b60006000198214156116485761164861164f565b5060010190565b634e487b7160e01b600052601160045260246000fd5b634e487b7160e01b600052603260045260246000fd5b634e487b7160e01b600052604160045260246000fdfe34825cf6daaa03da33da43317630988070c20f2379cb3745ccc8014fd48b98a9a2646970667358221220450f9a618ec36673ba571e5285c9e5d9870c031dbba18a9f9b255544a25936a664736f6c63430008060033",
  "linkReferences": {
    "contracts/libraries/LibOwnership.sol": {
      "LibOwnership": [
        {
          "length": 20,
          "start": 908
        },
        {
          "length": 20,
          "start": 1050
        }
      ]
    }
  },
  "deployedLinkReferences": {
    "contracts/libraries/LibOwnership.sol": {
      "LibOwnership": [
        {
          "length": 20,
          "start": 871
        },
        {
          "length": 20,
          "start": 1013
        }
      ]
    }
  }
}