{
  "_format": "hh-sol-artifact-1",
  "contractName": "PostFacet",
  "sourceName": "contracts/facets/PostFacet.sol",
  "abi": [
    {
      "anonymous": false,
      "inputs": [
        {
          "indexed": true,
          "internalType": "address",
          "name": "receiver",
          "type": "address"
        },
        {
          "indexed": false,
          "internalType": "uint256",
          "name": "value",
          "type": "uint256"
        }
      ],
      "name": "AmountReceived",
      "type": "event"
    },
    {
      "anonymous": false,
      "inputs": [
        {
          "indexed": true,
          "internalType": "bytes32",
          "name": "postId",
          "type": "bytes32"
        },
        {
          "indexed": true,
          "internalType": "address",
          "name": "createdBy",
          "type": "address"
        },
        {
          "indexed": false,
          "internalType": "uint256",
          "name": "value",
          "type": "uint256"
        },
        {
          "indexed": false,
          "internalType": "string",
          "name": "link",
          "type": "string"
        }
      ],
      "name": "PostCreated",
      "type": "event"
    },
    {
      "anonymous": false,
      "inputs": [
        {
          "indexed": true,
          "internalType": "bytes32",
          "name": "postId",
          "type": "bytes32"
        },
        {
          "indexed": true,
          "internalType": "bytes32",
          "name": "postTipId",
          "type": "bytes32"
        },
        {
          "indexed": true,
          "internalType": "address",
          "name": "createdBy",
          "type": "address"
        },
        {
          "indexed": false,
          "internalType": "uint256",
          "name": "value",
          "type": "uint256"
        }
      ],
      "name": "PostTipCreated",
      "type": "event"
    },
    {
      "inputs": [
        {
          "internalType": "string",
          "name": "postHash_",
          "type": "string"
        }
      ],
      "name": "createPost",
      "outputs": [
        {
          "internalType": "bytes32",
          "name": "",
          "type": "bytes32"
        }
      ],
      "stateMutability": "payable",
      "type": "function"
    },
    {
      "inputs": [
        {
          "internalType": "bytes32",
          "name": "postId_",
          "type": "bytes32"
        }
      ],
      "name": "createPostTip",
      "outputs": [],
      "stateMutability": "payable",
      "type": "function"
    },
    {
      "inputs": [
        {
          "internalType": "bytes32",
          "name": "postId_",
          "type": "bytes32"
        }
      ],
      "name": "getPost",
      "outputs": [
        {
          "internalType": "uint256",
          "name": "intialValue",
          "type": "uint256"
        },
        {
          "internalType": "uint256",
          "name": "tipsTotalValue",
          "type": "uint256"
        },
        {
          "internalType": "address",
          "name": "createdBy",
          "type": "address"
        },
        {
          "internalType": "uint256",
          "name": "createdTime",
          "type": "uint256"
        }
      ],
      "stateMutability": "view",
      "type": "function"
    },
    {
      "inputs": [
        {
          "internalType": "uint256",
          "name": "skip_",
          "type": "uint256"
        },
        {
          "internalType": "uint256",
          "name": "limit_",
          "type": "uint256"
        }
      ],
      "name": "getPostIds",
      "outputs": [
        {
          "internalType": "bytes32[]",
          "name": "",
          "type": "bytes32[]"
        },
        {
          "internalType": "uint256",
          "name": "",
          "type": "uint256"
        }
      ],
      "stateMutability": "view",
      "type": "function"
    },
    {
      "inputs": [],
      "name": "getPostMinimumBid",
      "outputs": [
        {
          "internalType": "uint256",
          "name": "",
          "type": "uint256"
        }
      ],
      "stateMutability": "view",
      "type": "function"
    },
    {
      "inputs": [
        {
          "internalType": "bytes32",
          "name": "postTipId_",
          "type": "bytes32"
        }
      ],
      "name": "getPostTip",
      "outputs": [
        {
          "internalType": "address",
          "name": "createdBy",
          "type": "address"
        },
        {
          "internalType": "uint256",
          "name": "value",
          "type": "uint256"
        },
        {
          "internalType": "uint256",
          "name": "createdTime",
          "type": "uint256"
        },
        {
          "internalType": "bytes32",
          "name": "postId",
          "type": "bytes32"
        }
      ],
      "stateMutability": "view",
      "type": "function"
    },
    {
      "inputs": [
        {
          "internalType": "uint256",
          "name": "skip_",
          "type": "uint256"
        },
        {
          "internalType": "uint256",
          "name": "limit_",
          "type": "uint256"
        }
      ],
      "name": "getPostTipIds",
      "outputs": [
        {
          "internalType": "bytes32[]",
          "name": "",
          "type": "bytes32[]"
        },
        {
          "internalType": "uint256",
          "name": "",
          "type": "uint256"
        }
      ],
      "stateMutability": "view",
      "type": "function"
    },
    {
      "inputs": [
        {
          "internalType": "bytes32",
          "name": "postId_",
          "type": "bytes32"
        },
        {
          "internalType": "uint256",
          "name": "skip_",
          "type": "uint256"
        },
        {
          "internalType": "uint256",
          "name": "limit_",
          "type": "uint256"
        }
      ],
      "name": "getTipIdsOnPost",
      "outputs": [
        {
          "internalType": "bytes32[]",
          "name": "",
          "type": "bytes32[]"
        },
        {
          "internalType": "uint256",
          "name": "",
          "type": "uint256"
        }
      ],
      "stateMutability": "view",
      "type": "function"
    },
    {
      "inputs": [
        {
          "internalType": "uint256",
          "name": "postMinimumBid_",
          "type": "uint256"
        },
        {
          "internalType": "string",
          "name": "baseURI_",
          "type": "string"
        }
      ],
      "name": "initPost",
      "outputs": [],
      "stateMutability": "nonpayable",
      "type": "function"
    },
    {
      "inputs": [
        {
          "internalType": "string",
          "name": "baseURI_",
          "type": "string"
        }
      ],
      "name": "setPostBaseURI",
      "outputs": [],
      "stateMutability": "nonpayable",
      "type": "function"
    },
    {
      "inputs": [
        {
          "internalType": "uint256",
          "name": "postMinimumBid_",
          "type": "uint256"
        }
      ],
      "name": "setPostMinimumBid",
      "outputs": [],
      "stateMutability": "nonpayable",
      "type": "function"
    },
    {
      "inputs": [
        {
          "internalType": "string",
          "name": "contentHash_",
          "type": "string"
        }
      ],
      "name": "uri",
      "outputs": [
        {
          "internalType": "string",
          "name": "",
          "type": "string"
        }
      ],
      "stateMutability": "view",
      "type": "function"
    },
    {
      "stateMutability": "payable",
      "type": "receive"
    }
  ],
  "bytecode": "0x608060405234801561001057600080fd5b506001600055611725806100256000396000f3fe6080604052600436106100ab5760003560e01c8063770a773e11610064578063770a773e1461021557806393e43bbe14610235578063a9a3aa8314610284578063af74361f14610297578063c7303c61146102b7578063f1968085146102ca57600080fd5b806308f1d635146100eb5780630de72b7e1461013a57806310f5ff3e1461016757806349e03502146101955780634d1ccb62146101b55780637425bc0c146101d757600080fd5b366100e65760405134815233907e36624afd4ac14e2ebe9b68a6ec0c6e4f6bf5bde2999a61e1fec085ca86697d9060200160405180910390a2005b600080fd5b3480156100f757600080fd5b5061010b6101063660046112a4565b6102ea565b604080516001600160a01b03909516855260208501939093529183015260608201526080015b60405180910390f35b34801561014657600080fd5b5061015a6101553660046112e9565b610354565b604051610131919061157a565b34801561017357600080fd5b5061018761018236600461136d565b610365565b604051610131929190611532565b3480156101a157600080fd5b506101876101b036600461136d565b61037e565b3480156101c157600080fd5b506101d56101d03660046112a4565b61038c565b005b3480156101e357600080fd5b507f34825cf6daaa03da33da43317630988070c20f2379cb3745ccc8014fd48b98aa545b604051908152602001610131565b34801561022157600080fd5b506101d56102303660046112e9565b61041a565b34801561024157600080fd5b506102556102503660046112a4565b610486565b604051610131949392919093845260208401929092526001600160a01b03166040830152606082015260800190565b6101d56102923660046112a4565b6104e3565b3480156102a357600080fd5b506101876102b23660046112bd565b61058b565b6102076102c53660046112e9565b6105a6565b3480156102d657600080fd5b506101d56102e5366004611326565b6106a7565b6000806000806103458560009081527f34825cf6daaa03da33da43317630988070c20f2379cb3745ccc8014fd48b98ad602052604090208054600182015460028301546003909301546001600160a01b039092169390929190565b93509350935093509193509193565b606061035f8261073d565b92915050565b60606000610373848461079a565b915091509250929050565b606060006103738484610819565b60405163695cef6560e01b81526000600482015273__$bb9d112070cfc0a1d6e6da2a36217b4d08$__9063695cef659060240160006040518083038186803b1580156103d757600080fd5b505af41580156103eb573d6000803e3d6000fd5b50505050610417817f34825cf6daaa03da33da43317630988070c20f2379cb3745ccc8014fd48b98aa55565b50565b60405163695cef6560e01b81526000600482015273__$bb9d112070cfc0a1d6e6da2a36217b4d08$__9063695cef659060240160006040518083038186803b15801561046557600080fd5b505af4158015610479573d6000803e3d6000fd5b505050506104178161088a565b6000806000806103458560009081527f34825cf6daaa03da33da43317630988070c20f2379cb3745ccc8014fd48b98ac60205260409020600181015460028201546003830154600590930154919390926001600160a01b03169190565b6000806104f18333346108d1565b915091506104ff8134610952565b336001600160a01b031682847fa7b9de4cae04f62223d95aba2f4ecdd05879f655bab52b8505b696ecf05f72743460405161053c91815260200190565b60405180910390a4806001600160a01b03167e36624afd4ac14e2ebe9b68a6ec0c6e4f6bf5bde2999a61e1fec085ca86697d3460405161057e91815260200190565b60405180910390a2505050565b6060600061059a8585856109c5565b91509150935093915050565b6000600260005414156106005760405162461bcd60e51b815260206004820152601f60248201527f5265656e7472616e637947756172643a207265656e7472616e742063616c6c0060448201526064015b60405180910390fd5b6002600090815580610613843334610a69565b91509150610622600034610952565b336001600160a01b0316827f3c860076dbb2474109ea1afc5f287966581081acee08ee7ec1d39cfdd52a0740348460405161065e92919061158d565b60405180910390a36040513481526000907e36624afd4ac14e2ebe9b68a6ec0c6e4f6bf5bde2999a61e1fec085ca86697d9060200160405180910390a250600160005592915050565b6000805160206116d0833981519152805460ff16156107085760405162461bcd60e51b815260206004820152601e60248201527f506f737446616365743a20416c726561647920696e697469616c697a6564000060448201526064016105f7565b610710610c14565b805460ff191660019081178255810183905581516107379060028301906020850190611144565b50505050565b6040516060906000805160206116d083398151915290610783907f34825cf6daaa03da33da43317630988070c20f2379cb3745ccc8014fd48b98ab908590602001611416565b604051602081830303815290604052915050919050565b60606000806000805160206116d0833981519152905061080d85858360060180548060200260200160405190810160405280929190818152602001828054801561080357602002820191906000526020600020905b8154815260200190600101908083116107ef575b5050505050610c20565b92509250509250929050565b60606000806000805160206116d0833981519152905061080d85858360050180548060200260200160405190810160405280929190818152602001828054801561080357602002820191906000526020600020908154815260200190600101908083116107ef575050505050610c20565b80516000805160206116d0833981519152906108cc907f34825cf6daaa03da33da43317630988070c20f2379cb3745ccc8014fd48b98ab906020850190611144565b505050565b60008381527f34825cf6daaa03da33da43317630988070c20f2379cb3745ccc8014fd48b98ac6020526040812081906000805160206116d08339815191529061091981610cf6565b61092285610d43565b61092d878787610d7e565b935061093a818587610e7c565b600301546001600160a01b0316915050935093915050565b6001600160a01b03821660009081527f793ba39717776526f812abdc4711d8c8f539f0d8595e4dc61cd8bbf5affeabc26020526040812080547f793ba39717776526f812abdc4711d8c8f539f0d8595e4dc61cd8bbf5affeabc1928492916109bb9084906115a6565b9091555050505050565b60008381527f34825cf6daaa03da33da43317630988070c20f2379cb3745ccc8014fd48b98ac602090815260408083206004018054825181850281018501909352808352606094936000805160206116d083398151915293610a5c938993899383018282801561080357602002820191906000526020600020908154815260200190600101908083116107ef575050505050610c20565b9250925050935093915050565b7f34825cf6daaa03da33da43317630988070c20f2379cb3745ccc8014fd48b98aa5460408051808201909152600681526530303430303360d01b60208201526000916060916000805160206116d083398151915291851015610ade5760405162461bcd60e51b81526004016105f7919061157a565b50604080516000815260208101909152610af78761073d565b9250828642604051602001610b0e939291906113d7565b60408051601f19818403018152828252805160209182012060e08401835286845283820189905260008484018190526001600160a01b038b166060860152608085018690524260a086015260c0850181905281815260038701835292909220835180519398509092610b839284920190611144565b5060208281015160018301556040830151600283015560608301516003830180546001600160a01b0319166001600160a01b0390921691909117905560808301518051610bd692600485019201906111c8565b5060a082015160058083019190915560c090920151600690910155919091018054600181018255600091825260209091200183905550935093915050565b610c1e6000610eb1565b565b60606000848351610c3191906115dd565b841115610c4857848351610c4591906115dd565b93505b8367ffffffffffffffff811115610c6157610c616116b9565b604051908082528060200260200182016040528015610c8a578160200160208202803683370190505b50915060005b84811015610cea5783610ca382886115a6565b81518110610cb357610cb36116a3565b6020026020010151838281518110610ccd57610ccd6116a3565b602090810291909101015280610ce281611672565b915050610c90565b508161059a85876115a6565b600381015460408051808201909152600681526530303430303160d01b6020820152906001600160a01b0316610d3f5760405162461bcd60e51b81526004016105f7919061157a565b5050565b60408051808201909152600681526530303430303360d01b602082015281610d3f5760405162461bcd60e51b81526004016105f7919061157a565b604080516020808201869052606085901b6bffffffffffffffffffffffff19168284015242605480840191909152835180840390910181526074909201835281519181019190912060008181527f34825cf6daaa03da33da43317630988070c20f2379cb3745ccc8014fd48b98ad90925291812090916000805160206116d083398151915291610e0d90610ebb565b604080516080810182526001600160a01b03968716815260208082019687524282840190815260608301998a52600085815260049690960190915291909320925183546001600160a01b0319169616959095178255925160018201559251600284015550915160039091015590565b80836002016000828254610e9091906115a6565b90915550505060049091018054600181018255600091825260209091200155565b6104178133610f02565b805460408051808201909152600681526518181a18181960d11b6020820152906001600160a01b031615610d3f5760405162461bcd60e51b81526004016105f7919061157a565b60008281527fe60be0110dc1792cd793dc6d2d18db752d6e49771db52ffb0dfa2892dbc86d2d602090815260408083206001600160a01b038516845290915290205460ff16610d3f57610f5f816001600160a01b03166014610fa1565b610f6a836020610fa1565b604051602001610f7b9291906114bd565b60408051601f198184030181529082905262461bcd60e51b82526105f79160040161157a565b60606000610fb08360026115be565b610fbb9060026115a6565b67ffffffffffffffff811115610fd357610fd36116b9565b6040519080825280601f01601f191660200182016040528015610ffd576020820181803683370190505b509050600360fc1b81600081518110611018576110186116a3565b60200101906001600160f81b031916908160001a905350600f60fb1b81600181518110611047576110476116a3565b60200101906001600160f81b031916908160001a905350600061106b8460026115be565b6110769060016115a6565b90505b60018111156110ee576f181899199a1a9b1b9c1cb0b131b232b360811b85600f16601081106110aa576110aa6116a3565b1a60f81b8282815181106110c0576110c06116a3565b60200101906001600160f81b031916908160001a90535060049490941c936110e781611620565b9050611079565b50831561113d5760405162461bcd60e51b815260206004820181905260248201527f537472696e67733a20686578206c656e67746820696e73756666696369656e7460448201526064016105f7565b9392505050565b82805461115090611637565b90600052602060002090601f01602090048101928261117257600085556111b8565b82601f1061118b57805160ff19168380011785556111b8565b828001600101855582156111b8579182015b828111156111b857825182559160200191906001019061119d565b506111c4929150611202565b5090565b8280548282559060005260206000209081019282156111b857916020028201828111156111b857825182559160200191906001019061119d565b5b808211156111c45760008155600101611203565b600082601f83011261122857600080fd5b813567ffffffffffffffff80821115611243576112436116b9565b604051601f8301601f19908116603f0116810190828211818310171561126b5761126b6116b9565b8160405283815286602085880101111561128457600080fd5b836020870160208301376000602085830101528094505050505092915050565b6000602082840312156112b657600080fd5b5035919050565b6000806000606084860312156112d257600080fd5b505081359360208301359350604090920135919050565b6000602082840312156112fb57600080fd5b813567ffffffffffffffff81111561131257600080fd5b61131e84828501611217565b949350505050565b6000806040838503121561133957600080fd5b82359150602083013567ffffffffffffffff81111561135757600080fd5b61136385828601611217565b9150509250929050565b6000806040838503121561138057600080fd5b50508035926020909101359150565b600081518084526113a78160208601602086016115f4565b601f01601f19169290920160200192915050565b600081516113cd8185602086016115f4565b9290920192915050565b600084516113e98184602089016115f4565b60609490941b6bffffffffffffffffffffffff191691909301908152601481019190915260340192915050565b600080845481600182811c91508083168061143257607f831692505b602080841082141561145257634e487b7160e01b86526022600452602486fd5b8180156114665760018114611477576114a4565b60ff198616895284890196506114a4565b60008b81526020902060005b8681101561149c5781548b820152908501908301611483565b505084890196505b5050505050506114b481856113bb565b95945050505050565b7f416363657373436f6e74726f6c3a206163636f756e74200000000000000000008152600083516114f58160178501602088016115f4565b7001034b99036b4b9b9b4b733903937b6329607d1b60179184019182015283516115268160288401602088016115f4565b01602801949350505050565b604080825283519082018190526000906020906060840190828701845b8281101561156b5781518452928401929084019060010161154f565b50505092019290925292915050565b60208152600061113d602083018461138f565b82815260406020820152600061131e604083018461138f565b600082198211156115b9576115b961168d565b500190565b60008160001904831182151516156115d8576115d861168d565b500290565b6000828210156115ef576115ef61168d565b500390565b60005b8381101561160f5781810151838201526020016115f7565b838111156107375750506000910152565b60008161162f5761162f61168d565b506000190190565b600181811c9082168061164b57607f821691505b6020821081141561166c57634e487b7160e01b600052602260045260246000fd5b50919050565b60006000198214156116865761168661168d565b5060010190565b634e487b7160e01b600052601160045260246000fd5b634e487b7160e01b600052603260045260246000fd5b634e487b7160e01b600052604160045260246000fdfe34825cf6daaa03da33da43317630988070c20f2379cb3745ccc8014fd48b98a9a2646970667358221220c91033af62838b6070966d8c690554e84d688af8050c2a579b5cc207cd3c118164736f6c63430008060033",
  "linkReferences": {
    "contracts/libraries/LibOwnership.sol": {
      "LibOwnership": [
        {
          "length": 20,
          "start": 967
        },
        {
          "length": 20,
          "start": 1109
        }
      ]
    }
  },
  "deployedLinkReferences": {
    "contracts/libraries/LibOwnership.sol": {
      "LibOwnership": [
        {
          "length": 20,
          "start": 930
        },
        {
          "length": 20,
          "start": 1072
        }
      ]
    }
  }
}