{
  "_format": "hh-sol-artifact-1",
  "contractName": "ReferralFacet",
  "sourceName": "contracts/facets/referralFacet.sol",
  "abi": [
    {
      "anonymous": false,
      "inputs": [
        {
          "indexed": true,
          "internalType": "address",
          "name": "minter",
          "type": "address"
        },
        {
          "indexed": true,
          "internalType": "address",
          "name": "comsumer",
          "type": "address"
        },
        {
          "indexed": false,
          "internalType": "uint256",
          "name": "referralCode",
          "type": "uint256"
        }
      ],
      "name": "ReferralActivated",
      "type": "event"
    },
    {
      "anonymous": false,
      "inputs": [
        {
          "indexed": true,
          "internalType": "address",
          "name": "minter",
          "type": "address"
        },
        {
          "indexed": true,
          "internalType": "address",
          "name": "comsumer",
          "type": "address"
        },
        {
          "indexed": false,
          "internalType": "uint256",
          "name": "referralCode",
          "type": "uint256"
        }
      ],
      "name": "ReferralDeActivated",
      "type": "event"
    },
    {
      "anonymous": false,
      "inputs": [
        {
          "indexed": true,
          "internalType": "address",
          "name": "minter",
          "type": "address"
        },
        {
          "indexed": false,
          "internalType": "uint256",
          "name": "referralCode",
          "type": "uint256"
        }
      ],
      "name": "ReferralMinted",
      "type": "event"
    },
    {
      "inputs": [
        {
          "internalType": "address",
          "name": "consumer_",
          "type": "address"
        },
        {
          "internalType": "uint256",
          "name": "referralCode_",
          "type": "uint256"
        }
      ],
      "name": "activateReferral",
      "outputs": [],
      "stateMutability": "nonpayable",
      "type": "function"
    },
    {
      "inputs": [
        {
          "internalType": "address",
          "name": "consumer_",
          "type": "address"
        }
      ],
      "name": "activeReferralCode",
      "outputs": [
        {
          "internalType": "uint256",
          "name": "",
          "type": "uint256"
        }
      ],
      "stateMutability": "view",
      "type": "function"
    },
    {
      "inputs": [],
      "name": "deactivateReferralCode",
      "outputs": [],
      "stateMutability": "nonpayable",
      "type": "function"
    },
    {
      "inputs": [],
      "name": "generateReferralCode",
      "outputs": [
        {
          "internalType": "uint256",
          "name": "",
          "type": "uint256"
        }
      ],
      "stateMutability": "nonpayable",
      "type": "function"
    },
    {
      "inputs": [
        {
          "internalType": "bytes32",
          "name": "hash_",
          "type": "bytes32"
        },
        {
          "internalType": "bytes",
          "name": "signature_",
          "type": "bytes"
        }
      ],
      "name": "generateReferralCodeFromSignature",
      "outputs": [
        {
          "internalType": "uint256",
          "name": "",
          "type": "uint256"
        }
      ],
      "stateMutability": "nonpayable",
      "type": "function"
    },
    {
      "inputs": [],
      "name": "getMaxReferralsLimit",
      "outputs": [
        {
          "internalType": "uint256",
          "name": "",
          "type": "uint256"
        }
      ],
      "stateMutability": "view",
      "type": "function"
    },
    {
      "inputs": [],
      "name": "getMaxReferralsLimitPerUser",
      "outputs": [
        {
          "internalType": "uint256",
          "name": "",
          "type": "uint256"
        }
      ],
      "stateMutability": "view",
      "type": "function"
    },
    {
      "inputs": [
        {
          "internalType": "uint256",
          "name": "referralCode_",
          "type": "uint256"
        }
      ],
      "name": "getReferral",
      "outputs": [
        {
          "internalType": "address",
          "name": "",
          "type": "address"
        },
        {
          "internalType": "address",
          "name": "",
          "type": "address"
        },
        {
          "internalType": "uint256",
          "name": "",
          "type": "uint256"
        }
      ],
      "stateMutability": "view",
      "type": "function"
    },
    {
      "inputs": [
        {
          "internalType": "address",
          "name": "minter_",
          "type": "address"
        }
      ],
      "name": "getReferralCodes",
      "outputs": [
        {
          "internalType": "uint256[]",
          "name": "",
          "type": "uint256[]"
        }
      ],
      "stateMutability": "view",
      "type": "function"
    },
    {
      "inputs": [],
      "name": "getReferralDefaultPercentage",
      "outputs": [
        {
          "internalType": "uint256",
          "name": "",
          "type": "uint256"
        }
      ],
      "stateMutability": "view",
      "type": "function"
    },
    {
      "inputs": [
        {
          "internalType": "uint256",
          "name": "maxReferralCodesPerUser_",
          "type": "uint256"
        },
        {
          "internalType": "uint256",
          "name": "maxReferralCodes_",
          "type": "uint256"
        }
      ],
      "name": "initReferral",
      "outputs": [],
      "stateMutability": "nonpayable",
      "type": "function"
    },
    {
      "inputs": [
        {
          "internalType": "address",
          "name": "consumer_",
          "type": "address"
        }
      ],
      "name": "isReference",
      "outputs": [
        {
          "internalType": "bool",
          "name": "",
          "type": "bool"
        }
      ],
      "stateMutability": "view",
      "type": "function"
    },
    {
      "inputs": [
        {
          "internalType": "uint256",
          "name": "defaultReferralCodeMinterFee_",
          "type": "uint256"
        }
      ],
      "name": "setReferralDefaultPercentage",
      "outputs": [],
      "stateMutability": "nonpayable",
      "type": "function"
    },
    {
      "stateMutability": "payable",
      "type": "receive"
    }
  ],
  "bytecode": "0x608060405234801561001057600080fd5b5061145f806100206000396000f3fe6080604052600436106100c65760003560e01c8063af6bcf801161007f578063bec4c8e311610059578063bec4c8e31461025a578063c56641191461028e578063dff3b19c146102bb578063f94759e2146102d057600080fd5b8063af6bcf80146101f5578063b0a2fc1b14610215578063b3bd87731461022a57600080fd5b80630c009ebd146100d25780631d4233bc1461010557806349db6ab314610139578063632b10471461015b578063723dfd341461018f5780638330d0d8146101af57600080fd5b366100cd57005b600080fd5b3480156100de57600080fd5b506100f26100ed366004611151565b6102f0565b6040519081526020015b60405180910390f35b34801561011157600080fd5b507fc2ed40c6b04b328b414ef4d27cbb948ed4b66f21ccca9e3e1cd1e98e856cdcef546100f2565b34801561014557600080fd5b5061015961015436600461120c565b61034a565b005b34801561016757600080fd5b507fc2ed40c6b04b328b414ef4d27cbb948ed4b66f21ccca9e3e1cd1e98e856cdcf2546100f2565b34801561019b57600080fd5b506101596101aa366004611127565b610378565b3480156101bb57600080fd5b506101cf6101ca36600461120c565b61055d565b604080516001600160a01b039485168152939092166020840152908201526060016100fc565b34801561020157600080fd5b506100f261021036600461110c565b61062e565b34801561022157600080fd5b506100f261063f565b34801561023657600080fd5b5061024a61024536600461110c565b610688565b60405190151581526020016100fc565b34801561026657600080fd5b507fc2ed40c6b04b328b414ef4d27cbb948ed4b66f21ccca9e3e1cd1e98e856cdcf1546100f2565b34801561029a57600080fd5b506102ae6102a936600461110c565b610693565b6040516100fc91906112bc565b3480156102c757600080fd5b50610159610733565b3480156102dc57600080fd5b506101596102eb366004611225565b61073e565b6000806102fd84846107d5565b9050600061030a826107f9565b60405181815290915033907f50f72e50f0960c26e454ae56bf1fce39256c33dbee010fce869bbb2e3d78caae9060200160405180910390a2949350505050565b61035460006109a2565b7fc2ed40c6b04b328b414ef4d27cbb948ed4b66f21ccca9e3e1cd1e98e856cdcef55565b6103a17f35a7846a2a701fff6f9d61a46ebff5da578c5dcee8bdf361c569f9ea4ee647716109a2565b60008181527fc2ed40c6b04b328b414ef4d27cbb948ed4b66f21ccca9e3e1cd1e98e856cdcf460209081526040918290208054835180850190945260068452650c664cac860760d31b9284019290925260008051602061140a8339815191529290916001600160a01b03166104325760405162461bcd60e51b81526004016104299190611300565b60405180910390fd5b50600181015460408051808201909152600681526563326564303760d01b6020820152906001600160a01b03161561047d5760405162461bcd60e51b81526004016104299190611300565b506001600160a01b0384166000908152600983016020908152604091829020548251808401909352600683526563326564303960d01b91830191909152156104d85760405162461bcd60e51b81526004016104299190611300565b506001600160a01b03848116600081815260098501602090815260408083208890558783526007870182529182902042600382015560010180546001600160a01b03191684179055845482518881529251939416927f170957824a1414f5ffd3f8f7abddd42613c1b3a0a22d5bdbf9e3e71114f249689281900390910190a350505050565b7fc2ed40c6b04b328b414ef4d27cbb948ed4b66f21ccca9e3e1cd1e98e856cdcee546040805180820190915260068152650c664cac860760d31b60208201526000918291829160008051602061140a833981519152919086106105d35760405162461bcd60e51b81526004016104299190611300565b5060009485526007016020908152604094859020855160808101875281546001600160a01b03908116808352600184015490911693820184905260028301549782018890526003909201546060909101529590949350915050565b6000610639826109af565b92915050565b60008061064b336107f9565b60405181815290915033907f50f72e50f0960c26e454ae56bf1fce39256c33dbee010fce869bbb2e3d78caae9060200160405180910390a2919050565b6000610639826109e9565b6001600160a01b03811660009081527fc2ed40c6b04b328b414ef4d27cbb948ed4b66f21ccca9e3e1cd1e98e856cdcf560209081526040808320805482518185028101850190935280835260609460008051602061140a83398151915294909392919083018282801561072557602002820191906000526020600020905b815481526020019060010190808311610711575b509398975050505050505050565b61073c336109fc565b565b60008051602061140a8339815191528054604080518082019091526006815265319932b2181960d11b60208201529060ff161561078e5760405162461bcd60e51b81526004016104299190611300565b50610797610aab565b805460ff1916600117815560c8600282015560048101839055600581018290556107c081610ab5565b624f1a00600382015560c86006909101555050565b60008060006107e48585610ad2565b915091506107f181610b42565b509392505050565b7fc2ed40c6b04b328b414ef4d27cbb948ed4b66f21ccca9e3e1cd1e98e856cdcf1546001600160a01b03821660009081527fc2ed40c6b04b328b414ef4d27cbb948ed4b66f21ccca9e3e1cd1e98e856cdcf560209081526040808320548151808301909252600682526518cc99590c0d60d21b92820192909252919260008051602061140a8339815191529291106108a45760405162461bcd60e51b81526004016104299190611300565b506001810154600582015460408051808201909152600681526563326564303360d01b60208201529082106108ec5760405162461bcd60e51b81526004016104299190611300565b506001600160a01b038416600090815260088301602090815260408220805460018101825590835291200181905561092382610ab5565b604080516080810182526001600160a01b03868116825260006020808401828152428587019081526060860184815288855260078a0190935295909220935184549084166001600160a01b03199182161785559151600185018054919094169216919091179091559151600282015590516003909101555b9392505050565b6109ac8133610cfd565b50565b6001600160a01b031660009081527fc2ed40c6b04b328b414ef4d27cbb948ed4b66f21ccca9e3e1cd1e98e856cdcf6602052604090205490565b60006109f4826109af565b151592915050565b6001600160a01b03811660009081527fc2ed40c6b04b328b414ef4d27cbb948ed4b66f21ccca9e3e1cd1e98e856cdcf6602052604090205460008051602061140a83398151915290610a4d81610da0565b6040518060400160405280600681526020016506332656431360d41b81525090610a8a5760405162461bcd60e51b81526004016104299190611300565b50506001600160a01b03909116600090815260099091016020526040812055565b61073c60006109a2565b6001816001016000828254610aca9190611333565b909155505050565b600080825160411415610b095760208301516040840151606085015160001a610afd87828585610e2e565b94509450505050610b3b565b825160401415610b335760208301516040840151610b28868383610f1b565b935093505050610b3b565b506000905060025b9250929050565b6000816004811115610b5657610b566113c7565b1415610b5f5750565b6001816004811115610b7357610b736113c7565b1415610bc15760405162461bcd60e51b815260206004820152601860248201527f45434453413a20696e76616c6964207369676e617475726500000000000000006044820152606401610429565b6002816004811115610bd557610bd56113c7565b1415610c235760405162461bcd60e51b815260206004820152601f60248201527f45434453413a20696e76616c6964207369676e6174757265206c656e677468006044820152606401610429565b6003816004811115610c3757610c376113c7565b1415610c905760405162461bcd60e51b815260206004820152602260248201527f45434453413a20696e76616c6964207369676e6174757265202773272076616c604482015261756560f01b6064820152608401610429565b6004816004811115610ca457610ca46113c7565b14156109ac5760405162461bcd60e51b815260206004820152602260248201527f45434453413a20696e76616c6964207369676e6174757265202776272076616c604482015261756560f01b6064820152608401610429565b60008281527fe60be0110dc1792cd793dc6d2d18db752d6e49771db52ffb0dfa2892dbc86d2d602090815260408083206001600160a01b038516845290915290205460ff16610d9c57610d5a816001600160a01b03166014610f54565b610d65836020610f54565b604051602001610d76929190611247565b60408051601f198184030181529082905262461bcd60e51b825261042991600401611300565b5050565b7fc2ed40c6b04b328b414ef4d27cbb948ed4b66f21ccca9e3e1cd1e98e856cdcf05460008281527fc2ed40c6b04b328b414ef4d27cbb948ed4b66f21ccca9e3e1cd1e98e856cdcf46020526040812060030154909160008051602061140a833981519152918391610e1091611333565b905042811015610e24575060009392505050565b5060019392505050565b6000807f7fffffffffffffffffffffffffffffff5d576e7357a4501ddfe92f46681b20a0831115610e655750600090506003610f12565b8460ff16601b14158015610e7d57508460ff16601c14155b15610e8e5750600090506004610f12565b6040805160008082526020820180845289905260ff881692820192909252606081018690526080810185905260019060a0016020604051602081039080840390855afa158015610ee2573d6000803e3d6000fd5b5050604051601f1901519150506001600160a01b038116610f0b57600060019250925050610f12565b9150600090505b94509492505050565b6000806001600160ff1b03831681610f3860ff86901c601b611333565b9050610f4687828885610e2e565b935093505050935093915050565b60606000610f6383600261134b565b610f6e906002611333565b67ffffffffffffffff811115610f8657610f866113f3565b6040519080825280601f01601f191660200182016040528015610fb0576020820181803683370190505b509050600360fc1b81600081518110610fcb57610fcb6113dd565b60200101906001600160f81b031916908160001a905350600f60fb1b81600181518110610ffa57610ffa6113dd565b60200101906001600160f81b031916908160001a905350600061101e84600261134b565b611029906001611333565b90505b60018111156110a1576f181899199a1a9b1b9c1cb0b131b232b360811b85600f166010811061105d5761105d6113dd565b1a60f81b828281518110611073576110736113dd565b60200101906001600160f81b031916908160001a90535060049490941c9361109a8161139a565b905061102c565b50831561099b5760405162461bcd60e51b815260206004820181905260248201527f537472696e67733a20686578206c656e67746820696e73756666696369656e746044820152606401610429565b80356001600160a01b038116811461110757600080fd5b919050565b60006020828403121561111e57600080fd5b61099b826110f0565b6000806040838503121561113a57600080fd5b611143836110f0565b946020939093013593505050565b6000806040838503121561116457600080fd5b82359150602083013567ffffffffffffffff8082111561118357600080fd5b818501915085601f83011261119757600080fd5b8135818111156111a9576111a96113f3565b604051601f8201601f19908116603f011681019083821181831017156111d1576111d16113f3565b816040528281528860208487010111156111ea57600080fd5b8260208601602083013760006020848301015280955050505050509250929050565b60006020828403121561121e57600080fd5b5035919050565b6000806040838503121561123857600080fd5b50508035926020909101359150565b7f416363657373436f6e74726f6c3a206163636f756e742000000000000000000081526000835161127f81601785016020880161136a565b7001034b99036b4b9b9b4b733903937b6329607d1b60179184019182015283516112b081602884016020880161136a565b01602801949350505050565b6020808252825182820181905260009190848201906040850190845b818110156112f4578351835292840192918401916001016112d8565b50909695505050505050565b602081526000825180602084015261131f81604085016020870161136a565b601f01601f19169190910160400192915050565b60008219821115611346576113466113b1565b500190565b6000816000190483118215151615611365576113656113b1565b500290565b60005b8381101561138557818101518382015260200161136d565b83811115611394576000848401525b50505050565b6000816113a9576113a96113b1565b506000190190565b634e487b7160e01b600052601160045260246000fd5b634e487b7160e01b600052602160045260246000fd5b634e487b7160e01b600052603260045260246000fd5b634e487b7160e01b600052604160045260246000fdfec2ed40c6b04b328b414ef4d27cbb948ed4b66f21ccca9e3e1cd1e98e856cdceda26469706673582212201e5aeba617621c52b55220a78d50b2d0dd8fb071c3d0d6ffc179094d8f44676a64736f6c63430008060033",
  "linkReferences": {},
  "deployedLinkReferences": {}
}