{
  "_format": "hh-sol-artifact-1",
  "contractName": "SessionFacet",
  "sourceName": "contracts/facets/SessionFacet.sol",
  "abi": [
    {
      "anonymous": false,
      "inputs": [
        {
          "indexed": true,
          "internalType": "address",
          "name": "receiver",
          "type": "address"
        },
        {
          "indexed": false,
          "internalType": "uint256",
          "name": "value",
          "type": "uint256"
        }
      ],
      "name": "AmountReceived",
      "type": "event"
    },
    {
      "anonymous": false,
      "inputs": [
        {
          "indexed": true,
          "internalType": "bytes32",
          "name": "sessionId",
          "type": "bytes32"
        },
        {
          "indexed": true,
          "internalType": "bytes32",
          "name": "messageId",
          "type": "bytes32"
        },
        {
          "indexed": false,
          "internalType": "uint256",
          "name": "rewardPerAMA",
          "type": "uint256"
        },
        {
          "indexed": false,
          "internalType": "uint256",
          "name": "rewardsLeft",
          "type": "uint256"
        }
      ],
      "name": "RewardDistributedOnAma",
      "type": "event"
    },
    {
      "anonymous": false,
      "inputs": [
        {
          "indexed": true,
          "internalType": "bytes32",
          "name": "sessionId",
          "type": "bytes32"
        },
        {
          "indexed": true,
          "internalType": "address",
          "name": "owner",
          "type": "address"
        },
        {
          "indexed": false,
          "internalType": "uint256",
          "name": "startTime",
          "type": "uint256"
        },
        {
          "indexed": false,
          "internalType": "uint256",
          "name": "endTime",
          "type": "uint256"
        },
        {
          "indexed": false,
          "internalType": "uint256",
          "name": "rewardPerAMA",
          "type": "uint256"
        },
        {
          "indexed": false,
          "internalType": "uint256",
          "name": "rewardPool",
          "type": "uint256"
        },
        {
          "indexed": false,
          "internalType": "string",
          "name": "link",
          "type": "string"
        }
      ],
      "name": "SessionCreated",
      "type": "event"
    },
    {
      "anonymous": false,
      "inputs": [
        {
          "indexed": true,
          "internalType": "bytes32",
          "name": "sessionId",
          "type": "bytes32"
        },
        {
          "indexed": false,
          "internalType": "uint256",
          "name": "newEndTime",
          "type": "uint256"
        },
        {
          "indexed": false,
          "internalType": "uint256",
          "name": "additionalTime",
          "type": "uint256"
        }
      ],
      "name": "SessionEndTimeUpdated",
      "type": "event"
    },
    {
      "anonymous": false,
      "inputs": [
        {
          "indexed": true,
          "internalType": "bytes32",
          "name": "sessionId",
          "type": "bytes32"
        },
        {
          "indexed": false,
          "internalType": "uint256",
          "name": "oldEndTime",
          "type": "uint256"
        },
        {
          "indexed": false,
          "internalType": "uint256",
          "name": "newTime",
          "type": "uint256"
        }
      ],
      "name": "SessionEndedBeforeTime",
      "type": "event"
    },
    {
      "anonymous": false,
      "inputs": [
        {
          "indexed": true,
          "internalType": "bytes32",
          "name": "sessionId",
          "type": "bytes32"
        },
        {
          "indexed": false,
          "internalType": "string",
          "name": "link",
          "type": "string"
        }
      ],
      "name": "SessionLinkUpdated",
      "type": "event"
    },
    {
      "anonymous": false,
      "inputs": [
        {
          "indexed": true,
          "internalType": "bytes32",
          "name": "sessionId",
          "type": "bytes32"
        },
        {
          "indexed": false,
          "internalType": "uint256",
          "name": "rewardLeft",
          "type": "uint256"
        }
      ],
      "name": "SessionRewardLeftClaimed",
      "type": "event"
    },
    {
      "anonymous": false,
      "inputs": [
        {
          "indexed": true,
          "internalType": "bytes32",
          "name": "sessionId",
          "type": "bytes32"
        },
        {
          "indexed": false,
          "internalType": "uint256",
          "name": "newRewardPool",
          "type": "uint256"
        },
        {
          "indexed": false,
          "internalType": "uint256",
          "name": "additionalFund",
          "type": "uint256"
        }
      ],
      "name": "SessionTopUp",
      "type": "event"
    },
    {
      "inputs": [
        {
          "internalType": "bytes32",
          "name": "sessionId_",
          "type": "bytes32"
        }
      ],
      "name": "claimRewardLeft",
      "outputs": [],
      "stateMutability": "nonpayable",
      "type": "function"
    },
    {
      "inputs": [
        {
          "internalType": "uint256",
          "name": "startTime_",
          "type": "uint256"
        },
        {
          "internalType": "uint256",
          "name": "endTime_",
          "type": "uint256"
        },
        {
          "internalType": "uint256",
          "name": "rewardPerAMA_",
          "type": "uint256"
        },
        {
          "internalType": "string",
          "name": "sessionHash_",
          "type": "string"
        }
      ],
      "name": "createSession",
      "outputs": [
        {
          "internalType": "bytes32",
          "name": "",
          "type": "bytes32"
        }
      ],
      "stateMutability": "payable",
      "type": "function"
    },
    {
      "inputs": [
        {
          "internalType": "bytes32",
          "name": "sessionId_",
          "type": "bytes32"
        },
        {
          "internalType": "bytes32",
          "name": "messageId_",
          "type": "bytes32"
        }
      ],
      "name": "deductRewardOnReply",
      "outputs": [],
      "stateMutability": "nonpayable",
      "type": "function"
    },
    {
      "inputs": [
        {
          "internalType": "bytes32",
          "name": "sessionId_",
          "type": "bytes32"
        }
      ],
      "name": "endSession",
      "outputs": [],
      "stateMutability": "nonpayable",
      "type": "function"
    },
    {
      "inputs": [
        {
          "internalType": "bytes32",
          "name": "sessionId_",
          "type": "bytes32"
        },
        {
          "internalType": "uint256",
          "name": "additionalTime_",
          "type": "uint256"
        }
      ],
      "name": "extendSession",
      "outputs": [],
      "stateMutability": "nonpayable",
      "type": "function"
    },
    {
      "inputs": [
        {
          "internalType": "uint256",
          "name": "minSessionDuration_",
          "type": "uint256"
        },
        {
          "internalType": "string",
          "name": "baseURI_",
          "type": "string"
        }
      ],
      "name": "initSession",
      "outputs": [],
      "stateMutability": "nonpayable",
      "type": "function"
    },
    {
      "inputs": [
        {
          "internalType": "bytes32",
          "name": "sessionId_",
          "type": "bytes32"
        }
      ],
      "name": "sessionRewardPerAma",
      "outputs": [
        {
          "internalType": "uint256",
          "name": "",
          "type": "uint256"
        }
      ],
      "stateMutability": "view",
      "type": "function"
    },
    {
      "inputs": [
        {
          "internalType": "string",
          "name": "baseURI_",
          "type": "string"
        }
      ],
      "name": "setSessionBaseURI",
      "outputs": [],
      "stateMutability": "nonpayable",
      "type": "function"
    },
    {
      "inputs": [
        {
          "internalType": "bytes32",
          "name": "sessionId_",
          "type": "bytes32"
        }
      ],
      "name": "topUpSession",
      "outputs": [],
      "stateMutability": "payable",
      "type": "function"
    },
    {
      "inputs": [
        {
          "internalType": "bytes32",
          "name": "sessionId_",
          "type": "bytes32"
        },
        {
          "internalType": "string",
          "name": "newHash_",
          "type": "string"
        }
      ],
      "name": "updateSessionLink",
      "outputs": [],
      "stateMutability": "nonpayable",
      "type": "function"
    },
    {
      "stateMutability": "payable",
      "type": "receive"
    }
  ],
  "bytecode": "0x608060405234801561001057600080fd5b506001600055612297806100256000396000f3fe6080604052600436106100955760003560e01c80639c115f1d116100595780639c115f1d1461013b5780639ce3efe61461015b578063cd1a56d61461017b578063de9ae1931461019b578063ef70ebd7146101bb57600080fd5b806327e63a8a146100a15780633d48041d146100b657806382170c97146100d657806389d69345146100f65780638ad2c85c1461011657600080fd5b3661009c57005b600080fd5b6100b46100af366004611e0e565b6101db565b005b3480156100c257600080fd5b506100b46100d1366004611e0e565b61022a565b3480156100e257600080fd5b506100b46100f1366004611e27565b610316565b34801561010257600080fd5b506100b4610111366004611e49565b6103ce565b610129610124366004611ecd565b610464565b60405190815260200160405180910390f35b34801561014757600080fd5b506100b4610156366004611e27565b6104d4565b34801561016757600080fd5b506100b4610176366004611e0e565b610525565b34801561018757600080fd5b506100b4610196366004611e49565b61056b565b3480156101a757600080fd5b506101296101b6366004611e0e565b6105aa565b3480156101c757600080fd5b506100b46101d6366004611e90565b6105bb565b60006101e8338334610652565b6040805182815234602082015291925083917fcde3f7d51e2fd1ec04872fe3f95f58c3dbed0c666d0a959ce8401b5981f8e3e491015b60405180910390a25050565b600260005414156102825760405162461bcd60e51b815260206004820152601f60248201527f5265656e7472616e637947756172643a207265656e7472616e742063616c6c0060448201526064015b60405180910390fd5b60026000908155610293338361091d565b905061029f3382610979565b817f8ef7807953f12282b133a0fd0cb017c57d3bc7042e15e2e1aead985f1fccbb76826040516102d191815260200190565b60405180910390a260405181815233907e36624afd4ac14e2ebe9b68a6ec0c6e4f6bf5bde2999a61e1fec085ca86697d9060200160405180910390a250506001600055565b600260005414156103695760405162461bcd60e51b815260206004820152601f60248201527f5265656e7472616e637947756172643a207265656e7472616e742063616c6c006044820152606401610279565b600260009081558061037b33856109ec565b9150915082847fc4ba5392e41dc94154eec6d076cab4cdec607af569e7e4249911bb439f78b3c584846040516103bb929190918252602082015260400190565b60405180910390a3505060016000555050565b600080516020612222833981519152805460ff161561042f5760405162461bcd60e51b815260206004820152601c60248201527f53657373696f6e3a20616c726561647920696e697469616c697a6564000000006044820152606401610279565b610437610b83565b805460ff19166001908117825560028201849055825161045e918301906020850190611ce8565b50505050565b60008080610476338888883489610b8f565b915091506104813390565b6001600160a01b0316827f82d6a48305f66bda9038a5374881d99bf4fb34253d9c28989b333d1da976ee9b89898934876040516104c29594939291906120dd565b60405180910390a35095945050505050565b60006104e1338484610eb0565b604080518281526020810185905291925084917fdba6ebf659a4a9b6952ddfe0cd9ce48879561f047e29a9bf399431d1153427ca91015b60405180910390a2505050565b6000610531338361105a565b6040805182815242602082015291925083917ff9add229cd8e5ec031a67cf4e08b03928893d62fa6266c0ea307255d0fae49d1910161021e565b600061057833848461109a565b9050827f4ea6c3b8ddccfa9a030c1b95901952d0adf147719dc41a7e04385a51902b5cb28260405161051891906120ca565b60006105b582611208565b92915050565b60405163695cef6560e01b81526000600482015273__$bb9d112070cfc0a1d6e6da2a36217b4d08$__9063695cef659060240160006040518083038186803b15801561060657600080fd5b505af415801561061a573d6000803e3d6000fd5b50505050600061063560008051602061222283398151915290565b825190915061064d9060018301906020850190611ce8565b505050565b600061065d83611236565b6000838152600080516020612242833981519152602090815260409182902082516101208101845281546001600160a01b031681526001820154928101929092526002810154928201929092526003820154606082015260048201546080820152600582015460a0820152600682015460c0820152600782015460ff16151560e08201526008820180546000805160206122228339815191529392610797929091849161010084019161070f906121a4565b80601f016020809104026020016040519081016040528092919081815260200182805461073b906121a4565b80156107885780601f1061075d57610100808354040283529160200191610788565b820191906000526020600020905b81548152906001019060200180831161076b57829003601f168201915b505050505081525050876112aa565b604080516101208101825282546001600160a01b03168152600183015460208201526002830154918101919091526003820154606082015260048201546080820152600582015460a0820152600682015460c0820152600782015460ff16151560e08201526008820180546108a09291849161010084019190610819906121a4565b80601f0160208091040260200160405190810160405280929190818152602001828054610845906121a4565b80156108925780601f1061086757610100808354040283529160200191610892565b820191906000526020600020905b81548152906001019060200180831161087557829003601f168201915b505050505081525050611300565b60408051808201909152600681526518189818189960d11b6020820152846108db5760405162461bcd60e51b815260040161027991906120ca565b50838160040160008282546108f09190612113565b925050819055508381600501600082825461090b9190612113565b90915550506004015495945050505050565b600061092882611236565b6000828152600080516020612242833981519152602052604090206000805160206122228339815191529061095d8186611348565b60078101805460ff191660011790556005015491505092915050565b6001600160a01b03821660009081527f793ba39717776526f812abdc4711d8c8f539f0d8595e4dc61cd8bbf5affeabc26020526040812080547f793ba39717776526f812abdc4711d8c8f539f0d8595e4dc61cd8bbf5affeabc1928492916109e2908490612113565b9091555050505050565b6000806109f883611236565b6000838152600080516020612242833981519152602090815260409182902082516101208101845281546001600160a01b031681526001820154928101929092526002810154928201929092526003820154606082015260048201546080820152600582015460a0820152600682015460c0820152600782015460ff16151560e08201526008820180546000805160206122228339815191529392610aaa929091849161010084019161070f906121a4565b604080516101208101825282546001600160a01b03168152600183015460208201526002830154918101919091526003820154606082015260048201546080820152600582015460a0820152600682015460c0820152600782015460ff16151560e0820152600882018054610b2c9291849161010084019190610819906121a4565b806003015481600501541015610b4d5760030154925060009150610b7c9050565b8060030154816005016000828254610b65919061214a565b909155505060038101546005909101549093509150505b9250929050565b610b8d6000611664565b565b60006060610b9c88611671565b60408051808201909152600681526518189818181b60d11b60208201529015610bd85760405162461bcd60e51b815260040161027991906120ca565b5060408051808201909152600681526530313030303760d01b602082015285610c145760405162461bcd60e51b815260040161027991906120ca565b5060408051808201909152600681526530313030303560d01b602082015285851015610c535760405162461bcd60e51b815260040161027991906120ca565b5060408051808201909152600681526530313030303360d01b602082015242881015610c925760405162461bcd60e51b815260040161027991906120ca565b507fb07a94881b82de8854879fe381b1f19e5b031791603453f25aeba961528ba5e55460008051602061222283398151915290610ccf9089612113565b8711604051806040016040528060068152602001650c0c4c0c0c0d60d21b81525090610d0e5760405162461bcd60e51b815260040161027991906120ca565b50835160408051808201909152600681526506062606060760d31b602082015290610d4c5760405162461bcd60e51b815260040161027991906120ca565b506000610d59858b611821565b90506000610d6686611856565b90506040518061012001604052808c6001600160a01b031681526020018b81526020018a81526020018981526020018881526020018881526020014281526020016000151581526020018281525083600301600084815260200190815260200160002060008201518160000160006101000a8154816001600160a01b0302191690836001600160a01b031602179055506020820151816001015560408201518160020155606082015181600301556080820151816004015560a0820151816005015560c0820151816006015560e08201518160070160006101000a81548160ff021916908315150217905550610100820151816008019080519060200190610e6f929190611ce8565b5050506001600160a01b039a909a16600090815260049290920160209081526040832080546001810182559084529220909101819055989650505050505050565b6000610ebb83611236565b6000838152600080516020612242833981519152602090815260409182902082516101208101845281546001600160a01b031681526001820154928101929092526002810154928201929092526003820154606082015260048201546080820152600582015460a0820152600682015460c0820152600782015460ff16151560e08201526008820180546000805160206122228339815191529392610f6d929091849161010084019161070f906121a4565b604080516101208101825282546001600160a01b03168152600183015460208201526002830154918101919091526003820154606082015260048201546080820152600582015460a0820152600682015460c0820152600782015460ff16151560e0820152600882018054610fef9291849161010084019190610819906121a4565b816002015484116040518060400160405280600681526020016530313030313560d01b815250906110335760405162461bcd60e51b815260040161027991906120ca565b50838160020160008282546110489190612113565b90915550506002015495945050505050565b600061106582611236565b60008281526000805160206122428339815191526020526040902061108a81856118b3565b6002018054429091559392505050565b60606110a583611236565b6000838152600080516020612242833981519152602090815260409182902082516101208101845281546001600160a01b031681526001820154928101929092526002810154928201929092526003820154606082015260048201546080820152600582015460a0820152600682015460c0820152600782015460ff16151560e08201526008820180546000805160206122228339815191529392611157929091849161010084019161070f906121a4565b428160020154106040518060400160405280600681526020016530313030313160d01b8152509061119b5760405162461bcd60e51b815260040161027991906120ca565b50835160408051808201909152600681526506062606060760d31b6020820152906111d95760405162461bcd60e51b815260040161027991906120ca565b5060006111e585611856565b80519091506111fd9060088401906020840190611ce8565b509695505050505050565b600061121382611236565b506000908152600080516020612242833981519152602052604090206003015490565b60008181526000805160206122428339815191526020908152604091829020548251808401909352600683526530313030303960d01b9183019190915260008051602061222283398151915291906001600160a01b031661064d5760405162461bcd60e51b815260040161027991906120ca565b806001600160a01b031682600001516001600160a01b0316146040518060400160405280600681526020016518189818181960d11b8152509061064d5760405162461bcd60e51b815260040161027991906120ca565b428160400151116040518060400160405280600681526020016530313030313160d01b815250906113445760405162461bcd60e51b815260040161027991906120ca565b5050565b604080516101208101825283546001600160a01b03168152600184015460208201526002840154918101919091526003830154606082015260048301546080820152600583015460a0820152600683015460c0820152600783015460ff16151560e082015260088301805461145292918591610100840191906113ca906121a4565b80601f01602080910402602001604051908101604052809291908181526020018280546113f6906121a4565b80156114435780601f1061141857610100808354040283529160200191611443565b820191906000526020600020905b81548152906001019060200180831161142657829003601f168201915b505050505081525050826112aa565b604080516101208101825283546001600160a01b03168152600184015460208201526002840154918101919091526003830154606082015260048301546080820152600583015460a0820152600683015460c0820152600783015460ff16151560e082015260088301805461155b92918591610100840191906114d4906121a4565b80601f0160208091040260200160405190810160405280929190818152602001828054611500906121a4565b801561154d5780601f106115225761010080835404028352916020019161154d565b820191906000526020600020905b81548152906001019060200180831161153057829003601f168201915b5050505050815250506119b7565b604080516101208101825283546001600160a01b03168152600184015460208201526002840154918101919091526003830154606082015260048301546080820152600583015460a0820152600683015460c0820152600783015460ff16151560e082015260088301805461134492918591610100840191906115dd906121a4565b80601f0160208091040260200160405190810160405280929190818152602001828054611609906121a4565b80156116565780601f1061162b57610100808354040283529160200191611656565b820191906000526020600020905b81548152906001019060200180831161163957829003601f168201915b5050505050815250506119f7565b61166e8133611a38565b50565b6000600080516020612222833981519152816116c1846001600160a01b031660009081527fb07a94881b82de8854879fe381b1f19e5b031791603453f25aeba961528ba5e7602052604090205490565b9050806116d2575060009392505050565b60006116e8856116e360018561214a565b611ad7565b600081815260038086016020908152604080842081516101208101835281546001600160a01b0316815260018201549381019390935260028101549183019190915291820154606082015260048201546080820152600582015460a0820152600682015460c0820152600782015460ff16151560e08201526008820180549495509293909261010084019161177c906121a4565b80601f01602080910402602001604051908101604052809291908181526020018280546117a8906121a4565b80156117f55780601f106117ca576101008083540402835291602001916117f5565b820191906000526020600020905b8154815290600101906020018083116117d857829003601f168201915b505050505081525050905042816040015111156118155750949350505050565b50600095945050505050565b600082824260405160200161183893929190611f6f565b60405160208183030381529060405280519060200120905092915050565b6040516060906000805160206122228339815191529061189c907fb07a94881b82de8854879fe381b1f19e5b031791603453f25aeba961528ba5e4908590602001611fae565b604051602081830303815290604052915050919050565b604080516101208101825283546001600160a01b03168152600184015460208201526002840154918101919091526003830154606082015260048301546080820152600583015460a0820152600683015460c0820152600783015460ff16151560e082015260088301805461193592918591610100840191906113ca906121a4565b604080516101208101825283546001600160a01b03168152600184015460208201526002840154918101919091526003830154606082015260048301546080820152600583015460a0820152600683015460c0820152600783015460ff16151560e08201526008830180546113449291859161010084019190610819906121a4565b6040808201518151808301909252600682526518189818181b60d11b602083015242116113445760405162461bcd60e51b815260040161027991906120ca565b60e08101516040805180820190915260068152650c0c4c0c0c4d60d21b602082015290156113445760405162461bcd60e51b815260040161027991906120ca565b60008281527fe60be0110dc1792cd793dc6d2d18db752d6e49771db52ffb0dfa2892dbc86d2d602090815260408083206001600160a01b038516845290915290205460ff1661134457611a95816001600160a01b03166014611b45565b611aa0836020611b45565b604051602001611ab1929190612055565b60408051601f198184030181529082905262461bcd60e51b8252610279916004016120ca565b6001600160a01b03821660009081527fb07a94881b82de8854879fe381b1f19e5b031791603453f25aeba961528ba5e7602052604081208054600080516020612222833981519152919084908110611b3157611b316121f5565b906000526020600020015491505092915050565b60606000611b5483600261212b565b611b5f906002612113565b67ffffffffffffffff811115611b7757611b7761220b565b6040519080825280601f01601f191660200182016040528015611ba1576020820181803683370190505b509050600360fc1b81600081518110611bbc57611bbc6121f5565b60200101906001600160f81b031916908160001a905350600f60fb1b81600181518110611beb57611beb6121f5565b60200101906001600160f81b031916908160001a9053506000611c0f84600261212b565b611c1a906001612113565b90505b6001811115611c92576f181899199a1a9b1b9c1cb0b131b232b360811b85600f1660108110611c4e57611c4e6121f5565b1a60f81b828281518110611c6457611c646121f5565b60200101906001600160f81b031916908160001a90535060049490941c93611c8b8161218d565b9050611c1d565b508315611ce15760405162461bcd60e51b815260206004820181905260248201527f537472696e67733a20686578206c656e67746820696e73756666696369656e746044820152606401610279565b9392505050565b828054611cf4906121a4565b90600052602060002090601f016020900481019282611d165760008555611d5c565b82601f10611d2f57805160ff1916838001178555611d5c565b82800160010185558215611d5c579182015b82811115611d5c578251825591602001919060010190611d41565b50611d68929150611d6c565b5090565b5b80821115611d685760008155600101611d6d565b600082601f830112611d9257600080fd5b813567ffffffffffffffff80821115611dad57611dad61220b565b604051601f8301601f19908116603f01168101908282118183101715611dd557611dd561220b565b81604052838152866020858801011115611dee57600080fd5b836020870160208301376000602085830101528094505050505092915050565b600060208284031215611e2057600080fd5b5035919050565b60008060408385031215611e3a57600080fd5b50508035926020909101359150565b60008060408385031215611e5c57600080fd5b82359150602083013567ffffffffffffffff811115611e7a57600080fd5b611e8685828601611d81565b9150509250929050565b600060208284031215611ea257600080fd5b813567ffffffffffffffff811115611eb957600080fd5b611ec584828501611d81565b949350505050565b60008060008060808587031215611ee357600080fd5b843593506020850135925060408501359150606085013567ffffffffffffffff811115611f0f57600080fd5b611f1b87828801611d81565b91505092959194509250565b60008151808452611f3f816020860160208601612161565b601f01601f19169290920160200192915050565b60008151611f65818560208601612161565b9290920192915050565b60008451611f81818460208901612161565b60609490941b6bffffffffffffffffffffffff191691909301908152601481019190915260340192915050565b600080845481600182811c915080831680611fca57607f831692505b6020808410821415611fea57634e487b7160e01b86526022600452602486fd5b818015611ffe576001811461200f5761203c565b60ff1986168952848901965061203c565b60008b81526020902060005b868110156120345781548b82015290850190830161201b565b505084890196505b50505050505061204c8185611f53565b95945050505050565b7f416363657373436f6e74726f6c3a206163636f756e742000000000000000000081526000835161208d816017850160208801612161565b7001034b99036b4b9b9b4b733903937b6329607d1b60179184019182015283516120be816028840160208801612161565b01602801949350505050565b602081526000611ce16020830184611f27565b85815284602082015283604082015282606082015260a06080820152600061210860a0830184611f27565b979650505050505050565b60008219821115612126576121266121df565b500190565b6000816000190483118215151615612145576121456121df565b500290565b60008282101561215c5761215c6121df565b500390565b60005b8381101561217c578181015183820152602001612164565b8381111561045e5750506000910152565b60008161219c5761219c6121df565b506000190190565b600181811c908216806121b857607f821691505b602082108114156121d957634e487b7160e01b600052602260045260246000fd5b50919050565b634e487b7160e01b600052601160045260246000fd5b634e487b7160e01b600052603260045260246000fd5b634e487b7160e01b600052604160045260246000fdfeb07a94881b82de8854879fe381b1f19e5b031791603453f25aeba961528ba5e3b07a94881b82de8854879fe381b1f19e5b031791603453f25aeba961528ba5e6a2646970667358221220c343819228a8c41bc8714920eae33da3778b721793e583b61ea0adede7491bb664736f6c63430008060033",
  "linkReferences": {
    "contracts/libraries/LibOwnership.sol": {
      "LibOwnership": [
        {
          "length": 20,
          "start": 1526
        }
      ]
    }
  },
  "deployedLinkReferences": {
    "contracts/libraries/LibOwnership.sol": {
      "LibOwnership": [
        {
          "length": 20,
          "start": 1489
        }
      ]
    }
  }
}