{
  "_format": "hh-sol-artifact-1",
  "contractName": "SessionFacet",
  "sourceName": "contracts/facets/SessionFacet.sol",
  "abi": [
    {
      "anonymous": false,
      "inputs": [
        {
          "indexed": true,
          "internalType": "address",
          "name": "receiver",
          "type": "address"
        },
        {
          "indexed": false,
          "internalType": "uint256",
          "name": "value",
          "type": "uint256"
        }
      ],
      "name": "AmountReceived",
      "type": "event"
    },
    {
      "anonymous": false,
      "inputs": [
        {
          "indexed": true,
          "internalType": "bytes32",
          "name": "sessionId",
          "type": "bytes32"
        },
        {
          "indexed": true,
          "internalType": "address",
          "name": "owner",
          "type": "address"
        },
        {
          "indexed": false,
          "internalType": "uint256",
          "name": "startTime",
          "type": "uint256"
        },
        {
          "indexed": false,
          "internalType": "uint256",
          "name": "endTime",
          "type": "uint256"
        },
        {
          "indexed": false,
          "internalType": "uint256",
          "name": "rewardPerAMA",
          "type": "uint256"
        },
        {
          "indexed": false,
          "internalType": "uint256",
          "name": "rewardPool",
          "type": "uint256"
        },
        {
          "indexed": false,
          "internalType": "string",
          "name": "link",
          "type": "string"
        }
      ],
      "name": "SessionCreated",
      "type": "event"
    },
    {
      "anonymous": false,
      "inputs": [
        {
          "indexed": true,
          "internalType": "bytes32",
          "name": "sessionId",
          "type": "bytes32"
        },
        {
          "indexed": false,
          "internalType": "uint256",
          "name": "newEndTime",
          "type": "uint256"
        },
        {
          "indexed": false,
          "internalType": "uint256",
          "name": "additionalTime",
          "type": "uint256"
        }
      ],
      "name": "SessionEndTimeUpdated",
      "type": "event"
    },
    {
      "anonymous": false,
      "inputs": [
        {
          "indexed": true,
          "internalType": "bytes32",
          "name": "sessionId",
          "type": "bytes32"
        },
        {
          "indexed": false,
          "internalType": "uint256",
          "name": "oldEndTime",
          "type": "uint256"
        },
        {
          "indexed": false,
          "internalType": "uint256",
          "name": "newTime",
          "type": "uint256"
        }
      ],
      "name": "SessionEndedBeforeTime",
      "type": "event"
    },
    {
      "anonymous": false,
      "inputs": [
        {
          "indexed": true,
          "internalType": "bytes32",
          "name": "sessionId",
          "type": "bytes32"
        },
        {
          "indexed": false,
          "internalType": "string",
          "name": "link",
          "type": "string"
        }
      ],
      "name": "SessionLinkUpdated",
      "type": "event"
    },
    {
      "anonymous": false,
      "inputs": [
        {
          "indexed": true,
          "internalType": "bytes32",
          "name": "sessionId",
          "type": "bytes32"
        },
        {
          "indexed": false,
          "internalType": "uint256",
          "name": "rewardLeft",
          "type": "uint256"
        }
      ],
      "name": "SessionRewardLeftClaimed",
      "type": "event"
    },
    {
      "anonymous": false,
      "inputs": [
        {
          "indexed": true,
          "internalType": "bytes32",
          "name": "sessionId",
          "type": "bytes32"
        },
        {
          "indexed": false,
          "internalType": "uint256",
          "name": "newRewardPool",
          "type": "uint256"
        },
        {
          "indexed": false,
          "internalType": "uint256",
          "name": "additionalFund",
          "type": "uint256"
        }
      ],
      "name": "SessionTopUp",
      "type": "event"
    },
    {
      "inputs": [
        {
          "internalType": "bytes32",
          "name": "sessionId_",
          "type": "bytes32"
        }
      ],
      "name": "claimRewardLeft",
      "outputs": [],
      "stateMutability": "nonpayable",
      "type": "function"
    },
    {
      "inputs": [
        {
          "internalType": "uint256",
          "name": "startTime_",
          "type": "uint256"
        },
        {
          "internalType": "uint256",
          "name": "endTime_",
          "type": "uint256"
        },
        {
          "internalType": "uint256",
          "name": "rewardPerAMA_",
          "type": "uint256"
        },
        {
          "internalType": "string",
          "name": "sessionHash_",
          "type": "string"
        }
      ],
      "name": "createSession",
      "outputs": [
        {
          "internalType": "bytes32",
          "name": "",
          "type": "bytes32"
        }
      ],
      "stateMutability": "payable",
      "type": "function"
    },
    {
      "inputs": [
        {
          "internalType": "bytes32",
          "name": "sessionId_",
          "type": "bytes32"
        }
      ],
      "name": "endSession",
      "outputs": [],
      "stateMutability": "nonpayable",
      "type": "function"
    },
    {
      "inputs": [
        {
          "internalType": "bytes32",
          "name": "sessionId_",
          "type": "bytes32"
        },
        {
          "internalType": "uint256",
          "name": "additionalTime_",
          "type": "uint256"
        }
      ],
      "name": "extendSession",
      "outputs": [],
      "stateMutability": "nonpayable",
      "type": "function"
    },
    {
      "inputs": [
        {
          "internalType": "uint256",
          "name": "minSessionDuration_",
          "type": "uint256"
        },
        {
          "internalType": "string",
          "name": "baseURI_",
          "type": "string"
        }
      ],
      "name": "initSession",
      "outputs": [],
      "stateMutability": "nonpayable",
      "type": "function"
    },
    {
      "inputs": [],
      "name": "isSessionLive",
      "outputs": [
        {
          "internalType": "bool",
          "name": "",
          "type": "bool"
        }
      ],
      "stateMutability": "view",
      "type": "function"
    },
    {
      "inputs": [
        {
          "internalType": "bytes32",
          "name": "sessionId_",
          "type": "bytes32"
        }
      ],
      "name": "sessionRewardPerAma",
      "outputs": [
        {
          "internalType": "uint256",
          "name": "",
          "type": "uint256"
        }
      ],
      "stateMutability": "view",
      "type": "function"
    },
    {
      "inputs": [
        {
          "internalType": "string",
          "name": "baseURI_",
          "type": "string"
        }
      ],
      "name": "setSessionBaseURI",
      "outputs": [],
      "stateMutability": "nonpayable",
      "type": "function"
    },
    {
      "inputs": [
        {
          "internalType": "bytes32",
          "name": "sessionId_",
          "type": "bytes32"
        }
      ],
      "name": "topUpSession",
      "outputs": [],
      "stateMutability": "payable",
      "type": "function"
    },
    {
      "inputs": [
        {
          "internalType": "bytes32",
          "name": "sessionId_",
          "type": "bytes32"
        },
        {
          "internalType": "string",
          "name": "newHash_",
          "type": "string"
        }
      ],
      "name": "updateSessionLink",
      "outputs": [],
      "stateMutability": "nonpayable",
      "type": "function"
    },
    {
      "stateMutability": "payable",
      "type": "receive"
    }
  ],
  "bytecode": "0x608060405234801561001057600080fd5b506001600055612069806100256000396000f3fe6080604052600436106100955760003560e01c80639c115f1d116100595780639c115f1d146101415780639ce3efe614610161578063cd1a56d614610181578063de9ae193146101a1578063ef70ebd7146101c157600080fd5b806327e63a8a146100a15780633d48041d146100b657806389d69345146100d65780638ad2c85c146100f657806392a290541461011c57600080fd5b3661009c57005b600080fd5b6100b46100af366004611be0565b6101e1565b005b3480156100c257600080fd5b506100b46100d1366004611be0565b610230565b3480156100e257600080fd5b506100b46100f1366004611bf9565b61031c565b610109610104366004611c9f565b6103b2565b6040519081526020015b60405180910390f35b34801561012857600080fd5b50610131610422565b6040519015158152602001610113565b34801561014d57600080fd5b506100b461015c366004611c40565b61043d565b34801561016d57600080fd5b506100b461017c366004611be0565b61048e565b34801561018d57600080fd5b506100b461019c366004611bf9565b6104d4565b3480156101ad57600080fd5b506101096101bc366004611be0565b610513565b3480156101cd57600080fd5b506100b46101dc366004611c62565b610524565b60006101ee3383346105bb565b6040805182815234602082015291925083917fcde3f7d51e2fd1ec04872fe3f95f58c3dbed0c666d0a959ce8401b5981f8e3e491015b60405180910390a25050565b600260005414156102885760405162461bcd60e51b815260206004820152601f60248201527f5265656e7472616e637947756172643a207265656e7472616e742063616c6c0060448201526064015b60405180910390fd5b600260009081556102993383610886565b90506102a533826108e2565b817f8ef7807953f12282b133a0fd0cb017c57d3bc7042e15e2e1aead985f1fccbb76826040516102d791815260200190565b60405180910390a260405181815233907e36624afd4ac14e2ebe9b68a6ec0c6e4f6bf5bde2999a61e1fec085ca86697d9060200160405180910390a250506001600055565b600080516020611ff4833981519152805460ff161561037d5760405162461bcd60e51b815260206004820152601c60248201527f53657373696f6e3a20616c726561647920696e697469616c697a656400000000604482015260640161027f565b610385610955565b805460ff1916600190811782556002820184905582516103ac918301906020850190611aba565b50505050565b600080806103c4338888883489610961565b915091506103cf3390565b6001600160a01b0316827f82d6a48305f66bda9038a5374881d99bf4fb34253d9c28989b333d1da976ee9b8989893487604051610410959493929190611eaf565b60405180910390a35095945050505050565b600061042d33610c82565b6104375750600090565b50600190565b600061044a338484610e32565b604080518281526020810185905291925084917fdba6ebf659a4a9b6952ddfe0cd9ce48879561f047e29a9bf399431d1153427ca91015b60405180910390a2505050565b600061049a3383610fdc565b6040805182815242602082015291925083917ff9add229cd8e5ec031a67cf4e08b03928893d62fa6266c0ea307255d0fae49d19101610224565b60006104e133848461101c565b9050827f4ea6c3b8ddccfa9a030c1b95901952d0adf147719dc41a7e04385a51902b5cb2826040516104819190611e9c565b600061051e8261118a565b92915050565b60405163695cef6560e01b81526000600482015273__$bb9d112070cfc0a1d6e6da2a36217b4d08$__9063695cef659060240160006040518083038186803b15801561056f57600080fd5b505af4158015610583573d6000803e3d6000fd5b50505050600061059e600080516020611ff483398151915290565b82519091506105b69060018301906020850190611aba565b505050565b60006105c6836111b8565b6000838152600080516020612014833981519152602090815260409182902082516101208101845281546001600160a01b031681526001820154928101929092526002810154928201929092526003820154606082015260048201546080820152600582015460a0820152600682015460c0820152600782015460ff16151560e0820152600882018054600080516020611ff48339815191529392610700929091849161010084019161067890611f76565b80601f01602080910402602001604051908101604052809291908181526020018280546106a490611f76565b80156106f15780601f106106c6576101008083540402835291602001916106f1565b820191906000526020600020905b8154815290600101906020018083116106d457829003601f168201915b5050505050815250508761122c565b604080516101208101825282546001600160a01b03168152600183015460208201526002830154918101919091526003820154606082015260048201546080820152600582015460a0820152600682015460c0820152600782015460ff16151560e0820152600882018054610809929184916101008401919061078290611f76565b80601f01602080910402602001604051908101604052809291908181526020018280546107ae90611f76565b80156107fb5780601f106107d0576101008083540402835291602001916107fb565b820191906000526020600020905b8154815290600101906020018083116107de57829003601f168201915b505050505081525050611282565b60408051808201909152600681526518189818189960d11b6020820152846108445760405162461bcd60e51b815260040161027f9190611e9c565b50838160040160008282546108599190611ee5565b92505081905550838160050160008282546108749190611ee5565b90915550506004015495945050505050565b6000610891826111b8565b600082815260008051602061201483398151915260205260409020600080516020611ff4833981519152906108c681866112ca565b60078101805460ff191660011790556005015491505092915050565b6001600160a01b03821660009081527f793ba39717776526f812abdc4711d8c8f539f0d8595e4dc61cd8bbf5affeabc26020526040812080547f793ba39717776526f812abdc4711d8c8f539f0d8595e4dc61cd8bbf5affeabc19284929161094b908490611ee5565b9091555050505050565b61095f60006115e6565b565b6000606061096e88610c82565b60408051808201909152600681526518189818181b60d11b602082015290156109aa5760405162461bcd60e51b815260040161027f9190611e9c565b5060408051808201909152600681526530313030303760d01b6020820152856109e65760405162461bcd60e51b815260040161027f9190611e9c565b5060408051808201909152600681526530313030303560d01b602082015285851015610a255760405162461bcd60e51b815260040161027f9190611e9c565b5060408051808201909152600681526530313030303360d01b602082015242881015610a645760405162461bcd60e51b815260040161027f9190611e9c565b507fb07a94881b82de8854879fe381b1f19e5b031791603453f25aeba961528ba5e554600080516020611ff483398151915290610aa19089611ee5565b8711604051806040016040528060068152602001650c0c4c0c0c0d60d21b81525090610ae05760405162461bcd60e51b815260040161027f9190611e9c565b50835160408051808201909152600681526506062606060760d31b602082015290610b1e5760405162461bcd60e51b815260040161027f9190611e9c565b506000610b2b858b6115f3565b90506000610b3886611628565b90506040518061012001604052808c6001600160a01b031681526020018b81526020018a81526020018981526020018881526020018881526020014281526020016000151581526020018281525083600301600084815260200190815260200160002060008201518160000160006101000a8154816001600160a01b0302191690836001600160a01b031602179055506020820151816001015560408201518160020155606082015181600301556080820151816004015560a0820151816005015560c0820151816006015560e08201518160070160006101000a81548160ff021916908315150217905550610100820151816008019080519060200190610c41929190611aba565b5050506001600160a01b039a909a16600090815260049290920160209081526040832080546001810182559084529220909101819055989650505050505050565b6000600080516020611ff483398151915281610cd2846001600160a01b031660009081527fb07a94881b82de8854879fe381b1f19e5b031791603453f25aeba961528ba5e7602052604090205490565b905080610ce3575060009392505050565b6000610cf985610cf4600185611f1c565b611685565b600081815260038086016020908152604080842081516101208101835281546001600160a01b0316815260018201549381019390935260028101549183019190915291820154606082015260048201546080820152600582015460a0820152600682015460c0820152600782015460ff16151560e082015260088201805494955092939092610100840191610d8d90611f76565b80601f0160208091040260200160405190810160405280929190818152602001828054610db990611f76565b8015610e065780601f10610ddb57610100808354040283529160200191610e06565b820191906000526020600020905b815481529060010190602001808311610de957829003601f168201915b50505050508152505090504281604001511115610e265750949350505050565b50600095945050505050565b6000610e3d836111b8565b6000838152600080516020612014833981519152602090815260409182902082516101208101845281546001600160a01b031681526001820154928101929092526002810154928201929092526003820154606082015260048201546080820152600582015460a0820152600682015460c0820152600782015460ff16151560e0820152600882018054600080516020611ff48339815191529392610eef929091849161010084019161067890611f76565b604080516101208101825282546001600160a01b03168152600183015460208201526002830154918101919091526003820154606082015260048201546080820152600582015460a0820152600682015460c0820152600782015460ff16151560e0820152600882018054610f71929184916101008401919061078290611f76565b816002015484116040518060400160405280600681526020016530313030313560d01b81525090610fb55760405162461bcd60e51b815260040161027f9190611e9c565b5083816002016000828254610fca9190611ee5565b90915550506002015495945050505050565b6000610fe7826111b8565b60008281526000805160206120148339815191526020526040902061100c81856116f3565b6002018054429091559392505050565b6060611027836111b8565b6000838152600080516020612014833981519152602090815260409182902082516101208101845281546001600160a01b031681526001820154928101929092526002810154928201929092526003820154606082015260048201546080820152600582015460a0820152600682015460c0820152600782015460ff16151560e0820152600882018054600080516020611ff483398151915293926110d9929091849161010084019161067890611f76565b428160020154106040518060400160405280600681526020016530313030313160d01b8152509061111d5760405162461bcd60e51b815260040161027f9190611e9c565b50835160408051808201909152600681526506062606060760d31b60208201529061115b5760405162461bcd60e51b815260040161027f9190611e9c565b50600061116785611628565b805190915061117f9060088401906020840190611aba565b509695505050505050565b6000611195826111b8565b506000908152600080516020612014833981519152602052604090206003015490565b60008181526000805160206120148339815191526020908152604091829020548251808401909352600683526530313030303960d01b91830191909152600080516020611ff483398151915291906001600160a01b03166105b65760405162461bcd60e51b815260040161027f9190611e9c565b806001600160a01b031682600001516001600160a01b0316146040518060400160405280600681526020016518189818181960d11b815250906105b65760405162461bcd60e51b815260040161027f9190611e9c565b428160400151116040518060400160405280600681526020016530313030313160d01b815250906112c65760405162461bcd60e51b815260040161027f9190611e9c565b5050565b604080516101208101825283546001600160a01b03168152600184015460208201526002840154918101919091526003830154606082015260048301546080820152600583015460a0820152600683015460c0820152600783015460ff16151560e08201526008830180546113d4929185916101008401919061134c90611f76565b80601f016020809104026020016040519081016040528092919081815260200182805461137890611f76565b80156113c55780601f1061139a576101008083540402835291602001916113c5565b820191906000526020600020905b8154815290600101906020018083116113a857829003601f168201915b5050505050815250508261122c565b604080516101208101825283546001600160a01b03168152600184015460208201526002840154918101919091526003830154606082015260048301546080820152600583015460a0820152600683015460c0820152600783015460ff16151560e08201526008830180546114dd929185916101008401919061145690611f76565b80601f016020809104026020016040519081016040528092919081815260200182805461148290611f76565b80156114cf5780601f106114a4576101008083540402835291602001916114cf565b820191906000526020600020905b8154815290600101906020018083116114b257829003601f168201915b5050505050815250506117f7565b604080516101208101825283546001600160a01b03168152600184015460208201526002840154918101919091526003830154606082015260048301546080820152600583015460a0820152600683015460c0820152600783015460ff16151560e08201526008830180546112c6929185916101008401919061155f90611f76565b80601f016020809104026020016040519081016040528092919081815260200182805461158b90611f76565b80156115d85780601f106115ad576101008083540402835291602001916115d8565b820191906000526020600020905b8154815290600101906020018083116115bb57829003601f168201915b505050505081525050611837565b6115f08133611878565b50565b600082824260405160200161160a93929190611d41565b60405160208183030381529060405280519060200120905092915050565b604051606090600080516020611ff48339815191529061166e907fb07a94881b82de8854879fe381b1f19e5b031791603453f25aeba961528ba5e4908590602001611d80565b604051602081830303815290604052915050919050565b6001600160a01b03821660009081527fb07a94881b82de8854879fe381b1f19e5b031791603453f25aeba961528ba5e7602052604081208054600080516020611ff48339815191529190849081106116df576116df611fc7565b906000526020600020015491505092915050565b604080516101208101825283546001600160a01b03168152600184015460208201526002840154918101919091526003830154606082015260048301546080820152600583015460a0820152600683015460c0820152600783015460ff16151560e0820152600883018054611775929185916101008401919061134c90611f76565b604080516101208101825283546001600160a01b03168152600184015460208201526002840154918101919091526003830154606082015260048301546080820152600583015460a0820152600683015460c0820152600783015460ff16151560e08201526008830180546112c6929185916101008401919061078290611f76565b6040808201518151808301909252600682526518189818181b60d11b602083015242116112c65760405162461bcd60e51b815260040161027f9190611e9c565b60e08101516040805180820190915260068152650c0c4c0c0c4d60d21b602082015290156112c65760405162461bcd60e51b815260040161027f9190611e9c565b60008281527fe60be0110dc1792cd793dc6d2d18db752d6e49771db52ffb0dfa2892dbc86d2d602090815260408083206001600160a01b038516845290915290205460ff166112c6576118d5816001600160a01b03166014611917565b6118e0836020611917565b6040516020016118f1929190611e27565b60408051601f198184030181529082905262461bcd60e51b825261027f91600401611e9c565b60606000611926836002611efd565b611931906002611ee5565b67ffffffffffffffff81111561194957611949611fdd565b6040519080825280601f01601f191660200182016040528015611973576020820181803683370190505b509050600360fc1b8160008151811061198e5761198e611fc7565b60200101906001600160f81b031916908160001a905350600f60fb1b816001815181106119bd576119bd611fc7565b60200101906001600160f81b031916908160001a90535060006119e1846002611efd565b6119ec906001611ee5565b90505b6001811115611a64576f181899199a1a9b1b9c1cb0b131b232b360811b85600f1660108110611a2057611a20611fc7565b1a60f81b828281518110611a3657611a36611fc7565b60200101906001600160f81b031916908160001a90535060049490941c93611a5d81611f5f565b90506119ef565b508315611ab35760405162461bcd60e51b815260206004820181905260248201527f537472696e67733a20686578206c656e67746820696e73756666696369656e74604482015260640161027f565b9392505050565b828054611ac690611f76565b90600052602060002090601f016020900481019282611ae85760008555611b2e565b82601f10611b0157805160ff1916838001178555611b2e565b82800160010185558215611b2e579182015b82811115611b2e578251825591602001919060010190611b13565b50611b3a929150611b3e565b5090565b5b80821115611b3a5760008155600101611b3f565b600082601f830112611b6457600080fd5b813567ffffffffffffffff80821115611b7f57611b7f611fdd565b604051601f8301601f19908116603f01168101908282118183101715611ba757611ba7611fdd565b81604052838152866020858801011115611bc057600080fd5b836020870160208301376000602085830101528094505050505092915050565b600060208284031215611bf257600080fd5b5035919050565b60008060408385031215611c0c57600080fd5b82359150602083013567ffffffffffffffff811115611c2a57600080fd5b611c3685828601611b53565b9150509250929050565b60008060408385031215611c5357600080fd5b50508035926020909101359150565b600060208284031215611c7457600080fd5b813567ffffffffffffffff811115611c8b57600080fd5b611c9784828501611b53565b949350505050565b60008060008060808587031215611cb557600080fd5b843593506020850135925060408501359150606085013567ffffffffffffffff811115611ce157600080fd5b611ced87828801611b53565b91505092959194509250565b60008151808452611d11816020860160208601611f33565b601f01601f19169290920160200192915050565b60008151611d37818560208601611f33565b9290920192915050565b60008451611d53818460208901611f33565b60609490941b6bffffffffffffffffffffffff191691909301908152601481019190915260340192915050565b600080845481600182811c915080831680611d9c57607f831692505b6020808410821415611dbc57634e487b7160e01b86526022600452602486fd5b818015611dd05760018114611de157611e0e565b60ff19861689528489019650611e0e565b60008b81526020902060005b86811015611e065781548b820152908501908301611ded565b505084890196505b505050505050611e1e8185611d25565b95945050505050565b7f416363657373436f6e74726f6c3a206163636f756e7420000000000000000000815260008351611e5f816017850160208801611f33565b7001034b99036b4b9b9b4b733903937b6329607d1b6017918401918201528351611e90816028840160208801611f33565b01602801949350505050565b602081526000611ab36020830184611cf9565b85815284602082015283604082015282606082015260a060808201526000611eda60a0830184611cf9565b979650505050505050565b60008219821115611ef857611ef8611fb1565b500190565b6000816000190483118215151615611f1757611f17611fb1565b500290565b600082821015611f2e57611f2e611fb1565b500390565b60005b83811015611f4e578181015183820152602001611f36565b838111156103ac5750506000910152565b600081611f6e57611f6e611fb1565b506000190190565b600181811c90821680611f8a57607f821691505b60208210811415611fab57634e487b7160e01b600052602260045260246000fd5b50919050565b634e487b7160e01b600052601160045260246000fd5b634e487b7160e01b600052603260045260246000fd5b634e487b7160e01b600052604160045260246000fdfeb07a94881b82de8854879fe381b1f19e5b031791603453f25aeba961528ba5e3b07a94881b82de8854879fe381b1f19e5b031791603453f25aeba961528ba5e6a264697066735822122065b48101210bcc36ee81d76f2bf5fa253c7b1dd57f410d8978e6fd2075d8be9a64736f6c63430008060033",
  "linkReferences": {
    "contracts/libraries/LibOwnership.sol": {
      "LibOwnership": [
        {
          "length": 20,
          "start": 1375
        }
      ]
    }
  },
  "deployedLinkReferences": {
    "contracts/libraries/LibOwnership.sol": {
      "LibOwnership": [
        {
          "length": 20,
          "start": 1338
        }
      ]
    }
  }
}