{
  "_format": "hh-sol-artifact-1",
  "contractName": "SessionFacet",
  "sourceName": "contracts/facets/SessionFacet.sol",
  "abi": [
    {
      "anonymous": false,
      "inputs": [
        {
          "indexed": true,
          "internalType": "address",
          "name": "receiver",
          "type": "address"
        },
        {
          "indexed": false,
          "internalType": "uint256",
          "name": "value",
          "type": "uint256"
        }
      ],
      "name": "AmountReceived",
      "type": "event"
    },
    {
      "anonymous": false,
      "inputs": [
        {
          "indexed": true,
          "internalType": "bytes32",
          "name": "sessionId",
          "type": "bytes32"
        },
        {
          "indexed": true,
          "internalType": "bytes32",
          "name": "messageId",
          "type": "bytes32"
        },
        {
          "indexed": false,
          "internalType": "uint256",
          "name": "rewardPerAMA",
          "type": "uint256"
        },
        {
          "indexed": false,
          "internalType": "uint256",
          "name": "rewardsLeft",
          "type": "uint256"
        }
      ],
      "name": "RewardDistributedOnAma",
      "type": "event"
    },
    {
      "anonymous": false,
      "inputs": [
        {
          "indexed": true,
          "internalType": "bytes32",
          "name": "sessionId",
          "type": "bytes32"
        },
        {
          "indexed": true,
          "internalType": "address",
          "name": "owner",
          "type": "address"
        },
        {
          "indexed": false,
          "internalType": "uint256",
          "name": "startTime",
          "type": "uint256"
        },
        {
          "indexed": false,
          "internalType": "uint256",
          "name": "endTime",
          "type": "uint256"
        },
        {
          "indexed": false,
          "internalType": "uint256",
          "name": "rewardPerAMA",
          "type": "uint256"
        },
        {
          "indexed": false,
          "internalType": "uint256",
          "name": "rewardPool",
          "type": "uint256"
        },
        {
          "indexed": false,
          "internalType": "string",
          "name": "link",
          "type": "string"
        }
      ],
      "name": "SessionCreated",
      "type": "event"
    },
    {
      "anonymous": false,
      "inputs": [
        {
          "indexed": true,
          "internalType": "bytes32",
          "name": "sessionId",
          "type": "bytes32"
        },
        {
          "indexed": false,
          "internalType": "uint256",
          "name": "newEndTime",
          "type": "uint256"
        },
        {
          "indexed": false,
          "internalType": "uint256",
          "name": "additionalTime",
          "type": "uint256"
        }
      ],
      "name": "SessionEndTimeUpdated",
      "type": "event"
    },
    {
      "anonymous": false,
      "inputs": [
        {
          "indexed": true,
          "internalType": "bytes32",
          "name": "sessionId",
          "type": "bytes32"
        },
        {
          "indexed": false,
          "internalType": "uint256",
          "name": "oldEndTime",
          "type": "uint256"
        },
        {
          "indexed": false,
          "internalType": "uint256",
          "name": "newTime",
          "type": "uint256"
        }
      ],
      "name": "SessionEndedBeforeTime",
      "type": "event"
    },
    {
      "anonymous": false,
      "inputs": [
        {
          "indexed": true,
          "internalType": "bytes32",
          "name": "sessionId",
          "type": "bytes32"
        },
        {
          "indexed": false,
          "internalType": "string",
          "name": "link",
          "type": "string"
        }
      ],
      "name": "SessionLinkUpdated",
      "type": "event"
    },
    {
      "anonymous": false,
      "inputs": [
        {
          "indexed": true,
          "internalType": "bytes32",
          "name": "sessionId",
          "type": "bytes32"
        },
        {
          "indexed": false,
          "internalType": "uint256",
          "name": "rewardLeft",
          "type": "uint256"
        }
      ],
      "name": "SessionRewardLeftClaimed",
      "type": "event"
    },
    {
      "anonymous": false,
      "inputs": [
        {
          "indexed": true,
          "internalType": "bytes32",
          "name": "sessionId",
          "type": "bytes32"
        },
        {
          "indexed": false,
          "internalType": "uint256",
          "name": "newRewardPool",
          "type": "uint256"
        },
        {
          "indexed": false,
          "internalType": "uint256",
          "name": "additionalFund",
          "type": "uint256"
        }
      ],
      "name": "SessionTopUp",
      "type": "event"
    },
    {
      "inputs": [
        {
          "internalType": "bytes32",
          "name": "sessionId_",
          "type": "bytes32"
        }
      ],
      "name": "claimRewardLeft",
      "outputs": [],
      "stateMutability": "nonpayable",
      "type": "function"
    },
    {
      "inputs": [
        {
          "internalType": "uint256",
          "name": "startTime_",
          "type": "uint256"
        },
        {
          "internalType": "uint256",
          "name": "endTime_",
          "type": "uint256"
        },
        {
          "internalType": "uint256",
          "name": "rewardPerAMA_",
          "type": "uint256"
        },
        {
          "internalType": "string",
          "name": "sessionHash_",
          "type": "string"
        }
      ],
      "name": "createSession",
      "outputs": [
        {
          "internalType": "bytes32",
          "name": "",
          "type": "bytes32"
        }
      ],
      "stateMutability": "payable",
      "type": "function"
    },
    {
      "inputs": [
        {
          "internalType": "bytes32",
          "name": "sessionId_",
          "type": "bytes32"
        },
        {
          "internalType": "bytes32",
          "name": "messageId_",
          "type": "bytes32"
        }
      ],
      "name": "deductRewardOnReply",
      "outputs": [],
      "stateMutability": "nonpayable",
      "type": "function"
    },
    {
      "inputs": [
        {
          "internalType": "bytes32",
          "name": "sessionId_",
          "type": "bytes32"
        }
      ],
      "name": "endSession",
      "outputs": [],
      "stateMutability": "nonpayable",
      "type": "function"
    },
    {
      "inputs": [
        {
          "internalType": "bytes32",
          "name": "sessionId_",
          "type": "bytes32"
        },
        {
          "internalType": "uint256",
          "name": "additionalTime_",
          "type": "uint256"
        }
      ],
      "name": "extendSession",
      "outputs": [],
      "stateMutability": "nonpayable",
      "type": "function"
    },
    {
      "inputs": [
        {
          "internalType": "uint256",
          "name": "minSessionDuration_",
          "type": "uint256"
        },
        {
          "internalType": "string",
          "name": "baseURI_",
          "type": "string"
        }
      ],
      "name": "initSession",
      "outputs": [],
      "stateMutability": "nonpayable",
      "type": "function"
    },
    {
      "inputs": [
        {
          "internalType": "bytes32",
          "name": "sessionId_",
          "type": "bytes32"
        }
      ],
      "name": "sessionRewardPerAma",
      "outputs": [
        {
          "internalType": "uint256",
          "name": "",
          "type": "uint256"
        }
      ],
      "stateMutability": "view",
      "type": "function"
    },
    {
      "inputs": [
        {
          "internalType": "string",
          "name": "baseURI_",
          "type": "string"
        }
      ],
      "name": "setSessionBaseURI",
      "outputs": [],
      "stateMutability": "nonpayable",
      "type": "function"
    },
    {
      "inputs": [
        {
          "internalType": "bytes32",
          "name": "sessionId_",
          "type": "bytes32"
        },
        {
          "internalType": "uint256",
          "name": "additionalFund_",
          "type": "uint256"
        }
      ],
      "name": "topUpSession",
      "outputs": [],
      "stateMutability": "nonpayable",
      "type": "function"
    },
    {
      "inputs": [
        {
          "internalType": "bytes32",
          "name": "sessionId_",
          "type": "bytes32"
        },
        {
          "internalType": "string",
          "name": "newHash_",
          "type": "string"
        }
      ],
      "name": "updateSessionLink",
      "outputs": [],
      "stateMutability": "nonpayable",
      "type": "function"
    },
    {
      "stateMutability": "payable",
      "type": "receive"
    }
  ],
  "bytecode": "0x608060405234801561001057600080fd5b5060016000556122a4806100256000396000f3fe6080604052600436106100955760003560e01c80639ce3efe6116100595780639ce3efe614610148578063cd1a56d614610168578063d94da45714610188578063de9ae193146101a8578063ef70ebd7146101c857600080fd5b80633d48041d146100a157806382170c97146100c357806389d69345146100e35780638ad2c85c146101035780639c115f1d1461012857600080fd5b3661009c57005b600080fd5b3480156100ad57600080fd5b506100c16100bc366004611e1b565b6101e8565b005b3480156100cf57600080fd5b506100c16100de366004611e34565b6102d4565b3480156100ef57600080fd5b506100c16100fe366004611e56565b61038c565b610116610111366004611eda565b610422565b60405190815260200160405180910390f35b34801561013457600080fd5b506100c1610143366004611e34565b610492565b34801561015457600080fd5b506100c1610163366004611e1b565b6104e3565b34801561017457600080fd5b506100c1610183366004611e56565b610530565b34801561019457600080fd5b506100c16101a3366004611e34565b61056f565b3480156101b457600080fd5b506101166101c3366004611e1b565b6105b7565b3480156101d457600080fd5b506100c16101e3366004611e9d565b6105c8565b600260005414156102405760405162461bcd60e51b815260206004820152601f60248201527f5265656e7472616e637947756172643a207265656e7472616e742063616c6c0060448201526064015b60405180910390fd5b60026000908155610251338361065f565b905061025d33826106bb565b817f8ef7807953f12282b133a0fd0cb017c57d3bc7042e15e2e1aead985f1fccbb768260405161028f91815260200190565b60405180910390a260405181815233907e36624afd4ac14e2ebe9b68a6ec0c6e4f6bf5bde2999a61e1fec085ca86697d9060200160405180910390a250506001600055565b600260005414156103275760405162461bcd60e51b815260206004820152601f60248201527f5265656e7472616e637947756172643a207265656e7472616e742063616c6c006044820152606401610237565b6002600090815580610339338561072e565b9150915082847fc4ba5392e41dc94154eec6d076cab4cdec607af569e7e4249911bb439f78b3c58484604051610379929190918252602082015260400190565b60405180910390a3505060016000555050565b60008051602061222f833981519152805460ff16156103ed5760405162461bcd60e51b815260206004820152601c60248201527f53657373696f6e3a20616c726561647920696e697469616c697a6564000000006044820152606401610237565b6103f56109d4565b805460ff19166001908117825560028201849055825161041c918301906020850190611cf5565b50505050565b600080806104343388888834896109e0565b9150915061043f3390565b6001600160a01b0316827f82d6a48305f66bda9038a5374881d99bf4fb34253d9c28989b333d1da976ee9b89898934876040516104809594939291906120ea565b60405180910390a35095945050505050565b600061049f338484610d01565b604080518281526020810185905291925084917fdba6ebf659a4a9b6952ddfe0cd9ce48879561f047e29a9bf399431d1153427ca91015b60405180910390a2505050565b60006104ef3383610eab565b6040805182815242602082015291925083917ff9add229cd8e5ec031a67cf4e08b03928893d62fa6266c0ea307255d0fae49d1910160405180910390a25050565b600061053d338484610eeb565b9050827f4ea6c3b8ddccfa9a030c1b95901952d0adf147719dc41a7e04385a51902b5cb2826040516104d691906120d7565b600061057c338484611059565b604080518281526020810185905291925084917fcde3f7d51e2fd1ec04872fe3f95f58c3dbed0c666d0a959ce8401b5981f8e3e491016104d6565b60006105c282611215565b92915050565b60405163695cef6560e01b81526000600482015273__$bb9d112070cfc0a1d6e6da2a36217b4d08$__9063695cef659060240160006040518083038186803b15801561061357600080fd5b505af4158015610627573d6000803e3d6000fd5b50505050600061064260008051602061222f83398151915290565b825190915061065a9060018301906020850190611cf5565b505050565b600061066a82611243565b600082815260008051602061224f8339815191526020526040902060008051602061222f8339815191529061069f81866112b7565b60078101805460ff191660011790556005015491505092915050565b6001600160a01b03821660009081527f793ba39717776526f812abdc4711d8c8f539f0d8595e4dc61cd8bbf5affeabc26020526040812080547f793ba39717776526f812abdc4711d8c8f539f0d8595e4dc61cd8bbf5affeabc192849291610724908490612120565b9091555050505050565b60008061073a83611243565b600083815260008051602061224f833981519152602090815260409182902082516101208101845281546001600160a01b031681526001820154928101929092526002810154928201929092526003820154606082015260048201546080820152600582015460a0820152600682015460c0820152600782015460ff16151560e082015260088201805460008051602061222f833981519152939261087492909184916101008401916107ec906121b1565b80601f0160208091040260200160405190810160405280929190818152602001828054610818906121b1565b80156108655780601f1061083a57610100808354040283529160200191610865565b820191906000526020600020905b81548152906001019060200180831161084857829003601f168201915b505050505081525050876115d7565b604080516101208101825282546001600160a01b03168152600183015460208201526002830154918101919091526003820154606082015260048201546080820152600582015460a0820152600682015460c0820152600782015460ff16151560e082015260088201805461097d92918491610100840191906108f6906121b1565b80601f0160208091040260200160405190810160405280929190818152602001828054610922906121b1565b801561096f5780601f106109445761010080835404028352916020019161096f565b820191906000526020600020905b81548152906001019060200180831161095257829003601f168201915b50505050508152505061162d565b80600301548160050154101561099e57600301549250600091506109cd9050565b80600301548160050160008282546109b69190612157565b909155505060038101546005909101549093509150505b9250929050565b6109de6000611671565b565b600060606109ed8861167e565b60408051808201909152600681526518189818181b60d11b60208201529015610a295760405162461bcd60e51b815260040161023791906120d7565b5060408051808201909152600681526530313030303760d01b602082015285610a655760405162461bcd60e51b815260040161023791906120d7565b5060408051808201909152600681526530313030303560d01b602082015285851015610aa45760405162461bcd60e51b815260040161023791906120d7565b5060408051808201909152600681526530313030303360d01b602082015242881015610ae35760405162461bcd60e51b815260040161023791906120d7565b507fb07a94881b82de8854879fe381b1f19e5b031791603453f25aeba961528ba5e55460008051602061222f83398151915290610b209089612120565b8711604051806040016040528060068152602001650c0c4c0c0c0d60d21b81525090610b5f5760405162461bcd60e51b815260040161023791906120d7565b50835160408051808201909152600681526506062606060760d31b602082015290610b9d5760405162461bcd60e51b815260040161023791906120d7565b506000610baa858b61182e565b90506000610bb786611863565b90506040518061012001604052808c6001600160a01b031681526020018b81526020018a81526020018981526020018881526020018881526020014281526020016000151581526020018281525083600301600084815260200190815260200160002060008201518160000160006101000a8154816001600160a01b0302191690836001600160a01b031602179055506020820151816001015560408201518160020155606082015181600301556080820151816004015560a0820151816005015560c0820151816006015560e08201518160070160006101000a81548160ff021916908315150217905550610100820151816008019080519060200190610cc0929190611cf5565b5050506001600160a01b039a909a16600090815260049290920160209081526040832080546001810182559084529220909101819055989650505050505050565b6000610d0c83611243565b600083815260008051602061224f833981519152602090815260409182902082516101208101845281546001600160a01b031681526001820154928101929092526002810154928201929092526003820154606082015260048201546080820152600582015460a0820152600682015460c0820152600782015460ff16151560e082015260088201805460008051602061222f8339815191529392610dbe92909184916101008401916107ec906121b1565b604080516101208101825282546001600160a01b03168152600183015460208201526002830154918101919091526003820154606082015260048201546080820152600582015460a0820152600682015460c0820152600782015460ff16151560e0820152600882018054610e4092918491610100840191906108f6906121b1565b816002015484116040518060400160405280600681526020016530313030313560d01b81525090610e845760405162461bcd60e51b815260040161023791906120d7565b5083816002016000828254610e999190612120565b90915550506002015495945050505050565b6000610eb682611243565b600082815260008051602061224f83398151915260205260409020610edb81856118c0565b6002018054429091559392505050565b6060610ef683611243565b600083815260008051602061224f833981519152602090815260409182902082516101208101845281546001600160a01b031681526001820154928101929092526002810154928201929092526003820154606082015260048201546080820152600582015460a0820152600682015460c0820152600782015460ff16151560e082015260088201805460008051602061222f8339815191529392610fa892909184916101008401916107ec906121b1565b428160020154106040518060400160405280600681526020016530313030313160d01b81525090610fec5760405162461bcd60e51b815260040161023791906120d7565b50835160408051808201909152600681526506062606060760d31b60208201529061102a5760405162461bcd60e51b815260040161023791906120d7565b50600061103685611863565b805190915061104e9060088401906020840190611cf5565b509695505050505050565b600061106483611243565b600083815260008051602061224f833981519152602090815260409182902082516101208101845281546001600160a01b031681526001820154928101929092526002810154928201929092526003820154606082015260048201546080820152600582015460a0820152600682015460c0820152600782015460ff16151560e082015260088201805460008051602061222f833981519152939261111692909184916101008401916107ec906121b1565b604080516101208101825282546001600160a01b03168152600183015460208201526002830154918101919091526003820154606082015260048201546080820152600582015460a0820152600682015460c0820152600782015460ff16151560e082015260088201805461119892918491610100840191906108f6906121b1565b60408051808201909152600681526518189818189960d11b6020820152846111d35760405162461bcd60e51b815260040161023791906120d7565b50838160040160008282546111e89190612120565b92505081905550838160050160008282546112039190612120565b90915550506004015495945050505050565b600061122082611243565b50600090815260008051602061224f833981519152602052604090206003015490565b600081815260008051602061224f8339815191526020908152604091829020548251808401909352600683526530313030303960d01b9183019190915260008051602061222f83398151915291906001600160a01b031661065a5760405162461bcd60e51b815260040161023791906120d7565b604080516101208101825283546001600160a01b03168152600184015460208201526002840154918101919091526003830154606082015260048301546080820152600583015460a0820152600683015460c0820152600783015460ff16151560e08201526008830180546113c19291859161010084019190611339906121b1565b80601f0160208091040260200160405190810160405280929190818152602001828054611365906121b1565b80156113b25780601f10611387576101008083540402835291602001916113b2565b820191906000526020600020905b81548152906001019060200180831161139557829003601f168201915b505050505081525050826115d7565b604080516101208101825283546001600160a01b03168152600184015460208201526002840154918101919091526003830154606082015260048301546080820152600583015460a0820152600683015460c0820152600783015460ff16151560e08201526008830180546114ca9291859161010084019190611443906121b1565b80601f016020809104026020016040519081016040528092919081815260200182805461146f906121b1565b80156114bc5780601f10611491576101008083540402835291602001916114bc565b820191906000526020600020905b81548152906001019060200180831161149f57829003601f168201915b5050505050815250506119c4565b604080516101208101825283546001600160a01b03168152600184015460208201526002840154918101919091526003830154606082015260048301546080820152600583015460a0820152600683015460c0820152600783015460ff16151560e08201526008830180546115d3929185916101008401919061154c906121b1565b80601f0160208091040260200160405190810160405280929190818152602001828054611578906121b1565b80156115c55780601f1061159a576101008083540402835291602001916115c5565b820191906000526020600020905b8154815290600101906020018083116115a857829003601f168201915b505050505081525050611a04565b5050565b806001600160a01b031682600001516001600160a01b0316146040518060400160405280600681526020016518189818181960d11b8152509061065a5760405162461bcd60e51b815260040161023791906120d7565b428160400151116040518060400160405280600681526020016530313030313160d01b815250906115d35760405162461bcd60e51b815260040161023791906120d7565b61167b8133611a45565b50565b600060008051602061222f833981519152816116ce846001600160a01b031660009081527fb07a94881b82de8854879fe381b1f19e5b031791603453f25aeba961528ba5e7602052604090205490565b9050806116df575060009392505050565b60006116f5856116f0600185612157565b611ae4565b600081815260038086016020908152604080842081516101208101835281546001600160a01b0316815260018201549381019390935260028101549183019190915291820154606082015260048201546080820152600582015460a0820152600682015460c0820152600782015460ff16151560e082015260088201805494955092939092610100840191611789906121b1565b80601f01602080910402602001604051908101604052809291908181526020018280546117b5906121b1565b80156118025780601f106117d757610100808354040283529160200191611802565b820191906000526020600020905b8154815290600101906020018083116117e557829003601f168201915b505050505081525050905042816040015111156118225750949350505050565b50600095945050505050565b600082824260405160200161184593929190611f7c565b60405160208183030381529060405280519060200120905092915050565b60405160609060008051602061222f833981519152906118a9907fb07a94881b82de8854879fe381b1f19e5b031791603453f25aeba961528ba5e4908590602001611fbb565b604051602081830303815290604052915050919050565b604080516101208101825283546001600160a01b03168152600184015460208201526002840154918101919091526003830154606082015260048301546080820152600583015460a0820152600683015460c0820152600783015460ff16151560e08201526008830180546119429291859161010084019190611339906121b1565b604080516101208101825283546001600160a01b03168152600184015460208201526002840154918101919091526003830154606082015260048301546080820152600583015460a0820152600683015460c0820152600783015460ff16151560e08201526008830180546115d392918591610100840191906108f6906121b1565b6040808201518151808301909252600682526518189818181b60d11b602083015242116115d35760405162461bcd60e51b815260040161023791906120d7565b60e08101516040805180820190915260068152650c0c4c0c0c4d60d21b602082015290156115d35760405162461bcd60e51b815260040161023791906120d7565b60008281527fe60be0110dc1792cd793dc6d2d18db752d6e49771db52ffb0dfa2892dbc86d2d602090815260408083206001600160a01b038516845290915290205460ff166115d357611aa2816001600160a01b03166014611b52565b611aad836020611b52565b604051602001611abe929190612062565b60408051601f198184030181529082905262461bcd60e51b8252610237916004016120d7565b6001600160a01b03821660009081527fb07a94881b82de8854879fe381b1f19e5b031791603453f25aeba961528ba5e760205260408120805460008051602061222f833981519152919084908110611b3e57611b3e612202565b906000526020600020015491505092915050565b60606000611b61836002612138565b611b6c906002612120565b67ffffffffffffffff811115611b8457611b84612218565b6040519080825280601f01601f191660200182016040528015611bae576020820181803683370190505b509050600360fc1b81600081518110611bc957611bc9612202565b60200101906001600160f81b031916908160001a905350600f60fb1b81600181518110611bf857611bf8612202565b60200101906001600160f81b031916908160001a9053506000611c1c846002612138565b611c27906001612120565b90505b6001811115611c9f576f181899199a1a9b1b9c1cb0b131b232b360811b85600f1660108110611c5b57611c5b612202565b1a60f81b828281518110611c7157611c71612202565b60200101906001600160f81b031916908160001a90535060049490941c93611c988161219a565b9050611c2a565b508315611cee5760405162461bcd60e51b815260206004820181905260248201527f537472696e67733a20686578206c656e67746820696e73756666696369656e746044820152606401610237565b9392505050565b828054611d01906121b1565b90600052602060002090601f016020900481019282611d235760008555611d69565b82601f10611d3c57805160ff1916838001178555611d69565b82800160010185558215611d69579182015b82811115611d69578251825591602001919060010190611d4e565b50611d75929150611d79565b5090565b5b80821115611d755760008155600101611d7a565b600082601f830112611d9f57600080fd5b813567ffffffffffffffff80821115611dba57611dba612218565b604051601f8301601f19908116603f01168101908282118183101715611de257611de2612218565b81604052838152866020858801011115611dfb57600080fd5b836020870160208301376000602085830101528094505050505092915050565b600060208284031215611e2d57600080fd5b5035919050565b60008060408385031215611e4757600080fd5b50508035926020909101359150565b60008060408385031215611e6957600080fd5b82359150602083013567ffffffffffffffff811115611e8757600080fd5b611e9385828601611d8e565b9150509250929050565b600060208284031215611eaf57600080fd5b813567ffffffffffffffff811115611ec657600080fd5b611ed284828501611d8e565b949350505050565b60008060008060808587031215611ef057600080fd5b843593506020850135925060408501359150606085013567ffffffffffffffff811115611f1c57600080fd5b611f2887828801611d8e565b91505092959194509250565b60008151808452611f4c81602086016020860161216e565b601f01601f19169290920160200192915050565b60008151611f7281856020860161216e565b9290920192915050565b60008451611f8e81846020890161216e565b60609490941b6bffffffffffffffffffffffff191691909301908152601481019190915260340192915050565b600080845481600182811c915080831680611fd757607f831692505b6020808410821415611ff757634e487b7160e01b86526022600452602486fd5b81801561200b576001811461201c57612049565b60ff19861689528489019650612049565b60008b81526020902060005b868110156120415781548b820152908501908301612028565b505084890196505b5050505050506120598185611f60565b95945050505050565b7f416363657373436f6e74726f6c3a206163636f756e742000000000000000000081526000835161209a81601785016020880161216e565b7001034b99036b4b9b9b4b733903937b6329607d1b60179184019182015283516120cb81602884016020880161216e565b01602801949350505050565b602081526000611cee6020830184611f34565b85815284602082015283604082015282606082015260a06080820152600061211560a0830184611f34565b979650505050505050565b60008219821115612133576121336121ec565b500190565b6000816000190483118215151615612152576121526121ec565b500290565b600082821015612169576121696121ec565b500390565b60005b83811015612189578181015183820152602001612171565b8381111561041c5750506000910152565b6000816121a9576121a96121ec565b506000190190565b600181811c908216806121c557607f821691505b602082108114156121e657634e487b7160e01b600052602260045260246000fd5b50919050565b634e487b7160e01b600052601160045260246000fd5b634e487b7160e01b600052603260045260246000fd5b634e487b7160e01b600052604160045260246000fdfeb07a94881b82de8854879fe381b1f19e5b031791603453f25aeba961528ba5e3b07a94881b82de8854879fe381b1f19e5b031791603453f25aeba961528ba5e6a2646970667358221220fb52e1a4389487859105392849cd6b00fe162c56546bd5225d3eb19bf40496c064736f6c63430008060033",
  "linkReferences": {
    "contracts/libraries/LibOwnership.sol": {
      "LibOwnership": [
        {
          "length": 20,
          "start": 1539
        }
      ]
    }
  },
  "deployedLinkReferences": {
    "contracts/libraries/LibOwnership.sol": {
      "LibOwnership": [
        {
          "length": 20,
          "start": 1502
        }
      ]
    }
  }
}