{
  "_format": "hh-sol-artifact-1",
  "contractName": "SessionFacet",
  "sourceName": "contracts/facets/SessionFacet.sol",
  "abi": [
    {
      "anonymous": false,
      "inputs": [
        {
          "indexed": true,
          "internalType": "address",
          "name": "receiver",
          "type": "address"
        },
        {
          "indexed": false,
          "internalType": "uint256",
          "name": "value",
          "type": "uint256"
        }
      ],
      "name": "AmountReceived",
      "type": "event"
    },
    {
      "anonymous": false,
      "inputs": [
        {
          "indexed": true,
          "internalType": "bytes32",
          "name": "sessionId",
          "type": "bytes32"
        },
        {
          "indexed": true,
          "internalType": "address",
          "name": "owner",
          "type": "address"
        },
        {
          "indexed": false,
          "internalType": "uint256",
          "name": "startTime",
          "type": "uint256"
        },
        {
          "indexed": false,
          "internalType": "uint256",
          "name": "endTime",
          "type": "uint256"
        },
        {
          "indexed": false,
          "internalType": "uint256",
          "name": "rewardPerAMA",
          "type": "uint256"
        },
        {
          "indexed": false,
          "internalType": "uint256",
          "name": "rewardPool",
          "type": "uint256"
        },
        {
          "indexed": false,
          "internalType": "string",
          "name": "link",
          "type": "string"
        }
      ],
      "name": "SessionCreated",
      "type": "event"
    },
    {
      "anonymous": false,
      "inputs": [
        {
          "indexed": true,
          "internalType": "bytes32",
          "name": "sessionId",
          "type": "bytes32"
        },
        {
          "indexed": false,
          "internalType": "uint256",
          "name": "newEndTime",
          "type": "uint256"
        },
        {
          "indexed": false,
          "internalType": "uint256",
          "name": "additionalTime",
          "type": "uint256"
        }
      ],
      "name": "SessionEndTimeUpdated",
      "type": "event"
    },
    {
      "anonymous": false,
      "inputs": [
        {
          "indexed": true,
          "internalType": "bytes32",
          "name": "sessionId",
          "type": "bytes32"
        },
        {
          "indexed": false,
          "internalType": "uint256",
          "name": "oldEndTime",
          "type": "uint256"
        },
        {
          "indexed": false,
          "internalType": "uint256",
          "name": "newTime",
          "type": "uint256"
        }
      ],
      "name": "SessionEndedBeforeTime",
      "type": "event"
    },
    {
      "anonymous": false,
      "inputs": [
        {
          "indexed": true,
          "internalType": "bytes32",
          "name": "sessionId",
          "type": "bytes32"
        },
        {
          "indexed": false,
          "internalType": "string",
          "name": "link",
          "type": "string"
        }
      ],
      "name": "SessionLinkUpdated",
      "type": "event"
    },
    {
      "anonymous": false,
      "inputs": [
        {
          "indexed": true,
          "internalType": "bytes32",
          "name": "sessionId",
          "type": "bytes32"
        },
        {
          "indexed": false,
          "internalType": "uint256",
          "name": "rewardLeft",
          "type": "uint256"
        }
      ],
      "name": "SessionRewardLeftClaimed",
      "type": "event"
    },
    {
      "anonymous": false,
      "inputs": [
        {
          "indexed": true,
          "internalType": "bytes32",
          "name": "sessionId",
          "type": "bytes32"
        },
        {
          "indexed": false,
          "internalType": "uint256",
          "name": "newRewardPool",
          "type": "uint256"
        },
        {
          "indexed": false,
          "internalType": "uint256",
          "name": "additionalFund",
          "type": "uint256"
        }
      ],
      "name": "SessionTopUp",
      "type": "event"
    },
    {
      "inputs": [
        {
          "internalType": "bytes",
          "name": "data_",
          "type": "bytes"
        },
        {
          "internalType": "bytes",
          "name": "signature_",
          "type": "bytes"
        }
      ],
      "name": "claimRewardLeft",
      "outputs": [],
      "stateMutability": "nonpayable",
      "type": "function"
    },
    {
      "inputs": [
        {
          "internalType": "bytes",
          "name": "data_",
          "type": "bytes"
        },
        {
          "internalType": "bytes",
          "name": "signature_",
          "type": "bytes"
        }
      ],
      "name": "createSession",
      "outputs": [
        {
          "internalType": "bytes32",
          "name": "",
          "type": "bytes32"
        }
      ],
      "stateMutability": "payable",
      "type": "function"
    },
    {
      "inputs": [
        {
          "internalType": "bytes",
          "name": "data_",
          "type": "bytes"
        },
        {
          "internalType": "bytes",
          "name": "signature_",
          "type": "bytes"
        }
      ],
      "name": "endSession",
      "outputs": [],
      "stateMutability": "nonpayable",
      "type": "function"
    },
    {
      "inputs": [
        {
          "internalType": "bytes",
          "name": "data_",
          "type": "bytes"
        },
        {
          "internalType": "bytes",
          "name": "signature_",
          "type": "bytes"
        }
      ],
      "name": "extendSession",
      "outputs": [],
      "stateMutability": "nonpayable",
      "type": "function"
    },
    {
      "inputs": [
        {
          "internalType": "uint256",
          "name": "minSessionDuration_",
          "type": "uint256"
        },
        {
          "internalType": "string",
          "name": "baseURI_",
          "type": "string"
        }
      ],
      "name": "initSession",
      "outputs": [],
      "stateMutability": "nonpayable",
      "type": "function"
    },
    {
      "inputs": [],
      "name": "isSessionLive",
      "outputs": [
        {
          "internalType": "bool",
          "name": "",
          "type": "bool"
        }
      ],
      "stateMutability": "view",
      "type": "function"
    },
    {
      "inputs": [
        {
          "internalType": "bytes32",
          "name": "sessionId_",
          "type": "bytes32"
        }
      ],
      "name": "sessionRewardPerAma",
      "outputs": [
        {
          "internalType": "uint256",
          "name": "",
          "type": "uint256"
        }
      ],
      "stateMutability": "view",
      "type": "function"
    },
    {
      "inputs": [
        {
          "internalType": "string",
          "name": "baseURI_",
          "type": "string"
        }
      ],
      "name": "setSessionBaseURI",
      "outputs": [],
      "stateMutability": "nonpayable",
      "type": "function"
    },
    {
      "inputs": [
        {
          "internalType": "bytes",
          "name": "data_",
          "type": "bytes"
        },
        {
          "internalType": "bytes",
          "name": "signature_",
          "type": "bytes"
        }
      ],
      "name": "topUpSession",
      "outputs": [],
      "stateMutability": "payable",
      "type": "function"
    },
    {
      "inputs": [
        {
          "internalType": "bytes",
          "name": "data_",
          "type": "bytes"
        },
        {
          "internalType": "bytes",
          "name": "signature_",
          "type": "bytes"
        }
      ],
      "name": "updateSessionLink",
      "outputs": [],
      "stateMutability": "nonpayable",
      "type": "function"
    },
    {
      "stateMutability": "payable",
      "type": "receive"
    }
  ],
  "bytecode": "0x608060405234801561001057600080fd5b50600160005561315e806100256000396000f3fe6080604052600436106100955760003560e01c806389d693451161005957806389d693451461013c57806392a290541461015c578063b0e7733014610181578063de9ae193146101a1578063ef70ebd7146101c157600080fd5b80633116651c146100a15780635820e82c146100c357806359ac381b146100e357806363284cf8146101095780636f2284f21461012957600080fd5b3661009c57005b600080fd5b3480156100ad57600080fd5b506100c16100bc366004612ca9565b6101e1565b005b3480156100cf57600080fd5b506100c16100de366004612ca9565b610295565b6100f66100f1366004612ca9565b610345565b6040519081526020015b60405180910390f35b34801561011557600080fd5b506100c1610124366004612ca9565b610473565b6100c1610137366004612ca9565b61057a565b34801561014857600080fd5b506100c1610157366004612d42565b610656565b34801561016857600080fd5b506101716106ec565b6040519015158152602001610100565b34801561018d57600080fd5b506100c161019c366004612ca9565b610707565b3480156101ad57600080fd5b506100f66101bc366004612c90565b61079f565b3480156101cd57600080fd5b506100c16101dc366004612d0d565b6107b0565b6000806000848060200190518101906101fa9190612b91565b92509250925060007f8a38c5f5a2a2dcdde7ba267d16e55ed925be9631517ed27c3d5d84fd5edcb26c8484848051906020012060405160200161025f94939291909384526001600160a01b039290921660208401526040830152606082015260800190565b604051602081830303815290604052805190602001209050610282848287610801565b61028d848484610923565b505050505050565b61029e81610970565b6000806000848060200190518101906102b79190612be8565b604080517f6a8d6e71056cb8c9e381f298f5632bb2c4ee8d76082ad032b2ee517f82ab9c8d60208201526001600160a01b038516918101919091526060810183905260808101829052929550909350915060009060a001604051602081830303815290604052805190602001209050610331848287610801565b61033c848484610a17565b61028d85610a5f565b600061035082610970565b6000806000806000808880602001905181019061036d9190612c1d565b8051602080830191909120604080517f08d3004809519c8068436e9be7ee8f86542d2a24f11ad794f35f975b0bb54f59818501526001600160a01b038a1681830152606081018990526080810188905260a0810187905260c0810186905260e080820193909352815180820390930183526101000190528051910120959b5093995091975095509350915061040387828b610801565b60408051808201909152600681526530313030313760d01b60208201523484146104495760405162461bcd60e51b81526004016104409190612f22565b60405180910390fd5b50600061045a883489898988610b23565b90506104658a610a5f565b9a9950505050505050505050565b600260005414156104c65760405162461bcd60e51b815260206004820152601f60248201527f5265656e7472616e637947756172643a207265656e7472616e742063616c6c006044820152606401610440565b60026000556104d481610970565b600080838060200190518101906104eb9190612b65565b604080517f6df6330615780055c74459ccb3d22ec98fa3a48eabdf4d21dd7545f3e9f0deb560208201526001600160a01b0384169181019190915260608101829052919350915060009060800160405160208183030381529060405280519060200120905061055b838286610801565b6105658383610c01565b61056e84610a5f565b50506001600055505050565b6000806000848060200190518101906105939190612be8565b604080517f4a0164eedb91ab2420f6dffb3992643dd903f3735a8f88bd205056b6eaad1ee160208201526001600160a01b038516918101919091526060810183905260808101829052929550909350915060009060a00160405160208183030381529060405280519060200120905061060d848287610801565b60408051808201909152600681526530313030313760d01b602082015234831461064a5760405162461bcd60e51b81526004016104409190612f22565b5061028d848484610cd7565b6000805160206130e9833981519152805460ff16156106b75760405162461bcd60e51b815260206004820152601c60248201527f53657373696f6e3a20616c726561647920696e697469616c697a6564000000006044820152606401610440565b6106bf610d1f565b805460ff1916600190811782556002820184905582516106e6918301906020850190612a0d565b50505050565b60006106f733610d2b565b6107015750600090565b50600190565b6000808380602001905181019061071e9190612b65565b604080517f231d433b442963169eec9576cb6f451bb14101ef2808eec2d1f228839c2e91c260208201526001600160a01b0384169181019190915260608101829052919350915060009060800160405160208183030381529060405280519060200120905061078e838286610801565b6107988383610edb565b5050505050565b60006107aa82610fa4565b92915050565b6107ba6000610fd2565b80516000805160206130e9833981519152906107fc907fb07a94881b82de8854879fe381b1f19e5b031791603453f25aeba961528ba5e4906020850190612a0d565b505050565b600061082b7f793ba39717776526f812abdc4711d8c8f539f0d8595e4dc61cd8bbf5affeabc25490565b60405161190160f01b6020820152602281019190915260428101849052606201604051602081830303815290604052805190602001209050600061086f8284610fdf565b9050806001600160a01b0316856001600160a01b0316146108d25760405162461bcd60e51b815260206004820152601d60248201527f4d7946756e6374696f6e3a20696e76616c6964207369676e61747572650000006044820152606401610440565b6001600160a01b0381166107985760405162461bcd60e51b815260206004820152601860248201527745434453413a20696e76616c6964207369676e617475726560401b6044820152606401610440565b6000610930848484611003565b9050827f4ea6c3b8ddccfa9a030c1b95901952d0adf147719dc41a7e04385a51902b5cb2826040516109629190612f22565b60405180910390a250505050565b6000816040516020016109839190612f22565b60405160208183030381529060405280519060200120905060006109c47f793ba39717776526f812abdc4711d8c8f539f0d8595e4dc61cd8bbf5affeabc190565b600083815260038201602052604090205490915060ff16156107fc5760405162461bcd60e51b815260206004820152600c60248201526b105b1c9958591e481d5cd95960a21b6044820152606401610440565b6000610a24848484611165565b604080518281526020810185905291925084917fdba6ebf659a4a9b6952ddfe0cd9ce48879561f047e29a9bf399431d1153427ca9101610962565b600081604051602001610a729190612f22565b6040516020818303038152906040528051906020012090506000610ab37f793ba39717776526f812abdc4711d8c8f539f0d8595e4dc61cd8bbf5affeabc190565b600083815260038201602052604090205490915060ff1615610b065760405162461bcd60e51b815260206004820152600c60248201526b105b1c9958591e481d5cd95960a21b6044820152606401610440565b600091825260030160205260409020805460ff1916600117905550565b600080606087610b9357610b39898888876111f3565b8092508193505050886001600160a01b0316827f82d6a48305f66bda9038a5374881d99bf4fb34253d9c28989b333d1da976ee9b8989898d87604051610b83959493929190612f35565b60405180910390a3509050610bf7565b610ba1898888888c8961149c565b8092508193505050886001600160a01b0316827f82d6a48305f66bda9038a5374881d99bf4fb34253d9c28989b333d1da976ee9b8989898d87604051610beb959493929190612f35565b60405180910390a35090505b9695505050505050565b6000610c0d83836117bd565b60408051808201909152600681526518189818189960d11b602082015290915081610c4b5760405162461bcd60e51b81526004016104409190612f22565b50610c568382611819565b826001600160a01b03167e36624afd4ac14e2ebe9b68a6ec0c6e4f6bf5bde2999a61e1fec085ca86697d82604051610c9091815260200190565b60405180910390a2817f8ef7807953f12282b133a0fd0cb017c57d3bc7042e15e2e1aead985f1fccbb7682604051610cca91815260200190565b60405180910390a2505050565b6000610ce484848461188c565b604080518281526020810185905291925084917fcde3f7d51e2fd1ec04872fe3f95f58c3dbed0c666d0a959ce8401b5981f8e3e49101610962565b610d296000610fd2565b565b60006000805160206130e983398151915281610d7b846001600160a01b031660009081527fb07a94881b82de8854879fe381b1f19e5b031791603453f25aeba961528ba5e7602052604090205490565b905080610d8c575060009392505050565b6000610da285610d9d600185612ffb565b61190e565b600081815260038086016020908152604080842081516101208101835281546001600160a01b0316815260018201549381019390935260028101549183019190915291820154606082015260048201546080820152600582015460a0820152600682015460c0820152600782015460ff16151560e082015260088201805494955092939092610100840191610e3690613055565b80601f0160208091040260200160405190810160405280929190818152602001828054610e6290613055565b8015610eaf5780601f10610e8457610100808354040283529160200191610eaf565b820191906000526020600020905b815481529060010190602001808311610e9257829003601f168201915b50505050508152505090504281604001511115610ecf5750949350505050565b50600095945050505050565b600080610ee8848461197c565b91509150610ef68482611819565b6040805183815242602082015284917ff9add229cd8e5ec031a67cf4e08b03928893d62fa6266c0ea307255d0fae49d1910160405180910390a2827f8ef7807953f12282b133a0fd0cb017c57d3bc7042e15e2e1aead985f1fccbb7682604051610f6291815260200190565b60405180910390a2836001600160a01b03167e36624afd4ac14e2ebe9b68a6ec0c6e4f6bf5bde2999a61e1fec085ca86697d8260405161096291815260200190565b6000610faf826119d9565b506000908152600080516020613109833981519152602052604090206003015490565b610fdc8133611a4d565b50565b6000806000610fee8585611af0565b91509150610ffb81611b5d565b509392505050565b606061100e836119d9565b6000838152600080516020613109833981519152602090815260409182902082516101208101845281546001600160a01b031681526001820154928101929092526002810154928201929092526003820154606082015260048201546080820152600582015460a0820152600682015460c0820152600782015460ff16151560e082015260088201805461113892918491610100840191906110af90613055565b80601f01602080910402602001604051908101604052809291908181526020018280546110db90613055565b80156111285780601f106110fd57610100808354040283529160200191611128565b820191906000526020600020905b81548152906001019060200180831161110b57829003601f168201915b5050505050815250508685611d13565b600061114384611d63565b805190915061115b9060088401906020840190612a0d565b5095945050505050565b6000611170836119d9565b6000838152600080516020613109833981519152602052604090207fb07a94881b82de8854879fe381b1f19e5b031791603453f25aeba961528ba5e5546000805160206130e983398151915291906111cd90829088908790611dc0565b838160020160008282546111e19190612fc4565b90915550506002015495945050505050565b6000606061120086610d2b565b60408051808201909152600681526518189818181b60d11b6020820152901561123c5760405162461bcd60e51b81526004016104409190612f22565b5060408051808201909152600681526530313030303360d01b60208201524286101561127b5760405162461bcd60e51b81526004016104409190612f22565b507fb07a94881b82de8854879fe381b1f19e5b031791603453f25aeba961528ba5e5546000805160206130e9833981519152906112b89087612fc4565b8511604051806040016040528060068152602001650c0c4c0c0c0d60d21b815250906112f75760405162461bcd60e51b81526004016104409190612f22565b50835160408051808201909152600681526506062606060760d31b6020820152906113355760405162461bcd60e51b81526004016104409190612f22565b5060006113428589612010565b9050600061134f86611d63565b90506040518061012001604052808a6001600160a01b031681526020018981526020018881526020016000815260200160008152602001600081526020014281526020016000151581526020018281525083600301600084815260200190815260200160002060008201518160000160006101000a8154816001600160a01b0302191690836001600160a01b031602179055506020820151816001015560408201518160020155606082015181600301556080820151816004015560a0820151816005015560c0820151816006015560e08201518160070160006101000a81548160ff02191690831515021790555061010082015181600801908051906020019061145b929190612a0d565b5050506001600160a01b0389166000908152600490930160209081526040842080546001810182559085529320909201819055925090505b94509492505050565b600060606114a988610d2b565b60408051808201909152600681526518189818181b60d11b602082015290156114e55760405162461bcd60e51b81526004016104409190612f22565b5060408051808201909152600681526530313030303760d01b6020820152856115215760405162461bcd60e51b81526004016104409190612f22565b5060408051808201909152600681526530313030303560d01b6020820152858510156115605760405162461bcd60e51b81526004016104409190612f22565b5060408051808201909152600681526530313030303360d01b60208201524288101561159f5760405162461bcd60e51b81526004016104409190612f22565b507fb07a94881b82de8854879fe381b1f19e5b031791603453f25aeba961528ba5e5546000805160206130e9833981519152906115dc9089612fc4565b8711604051806040016040528060068152602001650c0c4c0c0c0d60d21b8152509061161b5760405162461bcd60e51b81526004016104409190612f22565b50835160408051808201909152600681526506062606060760d31b6020820152906116595760405162461bcd60e51b81526004016104409190612f22565b506000611666858b612010565b9050600061167386611d63565b90506040518061012001604052808c6001600160a01b031681526020018b81526020018a81526020018981526020018881526020018881526020014281526020016000151581526020018281525083600301600084815260200190815260200160002060008201518160000160006101000a8154816001600160a01b0302191690836001600160a01b031602179055506020820151816001015560408201518160020155606082015181600301556080820151816004015560a0820151816005015560c0820151816006015560e08201518160070160006101000a81548160ff02191690831515021790555061010082015181600801908051906020019061177c929190612a0d565b5050506001600160a01b039a909a16600090815260049290920160209081526040832080546001810182559084529220909101819055989650505050505050565b60006117c8826119d9565b6000828152600080516020613109833981519152602052604090206000805160206130e9833981519152906117fd8186612045565b60078101805460ff191660011790556005015491505092915050565b6001600160a01b03821660009081527f793ba39717776526f812abdc4711d8c8f539f0d8595e4dc61cd8bbf5affeabc36020526040812080547f793ba39717776526f812abdc4711d8c8f539f0d8595e4dc61cd8bbf5affeabc192849291611882908490612fc4565b9091555050505050565b6000611897836119d9565b6000838152600080516020613109833981519152602052604090206000805160206130e9833981519152906118cd818786612361565b838160040160008282546118e19190612fc4565b92505081905550838160050160008282546118fc9190612fc4565b90915550506004015495945050505050565b6001600160a01b03821660009081527fb07a94881b82de8854879fe381b1f19e5b031791603453f25aeba961528ba5e76020526040812080546000805160206130e9833981519152919084908110611968576119686130bc565b906000526020600020015491505092915050565b600080611988836119d9565b6000838152600080516020613109833981519152602052604090206119ad8186612528565b6002810180546005830154429092556007909201805460ff1916600117905590925090505b9250929050565b60008181526000805160206131098339815191526020908152604091829020548251808401909352600683526530313030303960d01b918301919091526000805160206130e983398151915291906001600160a01b03166107fc5760405162461bcd60e51b81526004016104409190612f22565b60008281527fe60be0110dc1792cd793dc6d2d18db752d6e49771db52ffb0dfa2892dbc86d2d602090815260408083206001600160a01b038516845290915290205460ff16611aec57611aaa816001600160a01b0316601461262c565b611ab583602061262c565b604051602001611ac6929190612ead565b60408051601f198184030181529082905262461bcd60e51b825261044091600401612f22565b5050565b600080825160411415611b275760208301516040840151606085015160001a611b1b878285856127cf565b945094505050506119d2565b825160401415611b515760208301516040840151611b468683836128b9565b9350935050506119d2565b506000905060026119d2565b6000816004811115611b7157611b716130a6565b1415611b7a5750565b6001816004811115611b8e57611b8e6130a6565b1415611bd75760405162461bcd60e51b815260206004820152601860248201527745434453413a20696e76616c6964207369676e617475726560401b6044820152606401610440565b6002816004811115611beb57611beb6130a6565b1415611c395760405162461bcd60e51b815260206004820152601f60248201527f45434453413a20696e76616c6964207369676e6174757265206c656e677468006044820152606401610440565b6003816004811115611c4d57611c4d6130a6565b1415611ca65760405162461bcd60e51b815260206004820152602260248201527f45434453413a20696e76616c6964207369676e6174757265202773272076616c604482015261756560f01b6064820152608401610440565b6004816004811115611cba57611cba6130a6565b1415610fdc5760405162461bcd60e51b815260206004820152602260248201527f45434453413a20696e76616c6964207369676e6174757265202776272076616c604482015261756560f01b6064820152608401610440565b611d1d83836128f2565b611d2683612948565b805160408051808201909152600681526506062606060760d31b6020820152906106e65760405162461bcd60e51b81526004016104409190612f22565b6040516060906000805160206130e983398151915290611da9907fb07a94881b82de8854879fe381b1f19e5b031791603453f25aeba961528ba5e4908590602001612e06565b604051602081830303815290604052915050919050565b604080516101208101825285546001600160a01b03168152600186015460208201526002860154918101919091526003850154606082015260048501546080820152600585015460a0820152600685015460c0820152600785015460ff16151560e0820152600885018054611eca9291879161010084019190611e4290613055565b80601f0160208091040260200160405190810160405280929190818152602001828054611e6e90613055565b8015611ebb5780601f10611e9057610100808354040283529160200191611ebb565b820191906000526020600020905b815481529060010190602001808311611e9e57829003601f168201915b505050505081525050846128f2565b604080516101208101825285546001600160a01b03168152600186015460208201526002860154918101919091526003850154606082015260048501546080820152600585015460a0820152600685015460c0820152600785015460ff16151560e0820152600885018054611fd39291879161010084019190611f4c90613055565b80601f0160208091040260200160405190810160405280929190818152602001828054611f7890613055565b8015611fc55780601f10611f9a57610100808354040283529160200191611fc5565b820191906000526020600020905b815481529060010190602001808311611fa857829003601f168201915b505050505081525050612948565b60408051808201909152600681526530313030313560d01b60208201528183116107985760405162461bcd60e51b81526004016104409190612f22565b600082824260405160200161202793929190612dc7565b60405160208183030381529060405280519060200120905092915050565b604080516101208101825283546001600160a01b03168152600184015460208201526002840154918101919091526003830154606082015260048301546080820152600583015460a0820152600683015460c0820152600783015460ff16151560e082015260088301805461214f92918591610100840191906120c790613055565b80601f01602080910402602001604051908101604052809291908181526020018280546120f390613055565b80156121405780601f1061211557610100808354040283529160200191612140565b820191906000526020600020905b81548152906001019060200180831161212357829003601f168201915b505050505081525050826128f2565b604080516101208101825283546001600160a01b03168152600184015460208201526002840154918101919091526003830154606082015260048301546080820152600583015460a0820152600683015460c0820152600783015460ff16151560e082015260088301805461225892918591610100840191906121d190613055565b80601f01602080910402602001604051908101604052809291908181526020018280546121fd90613055565b801561224a5780601f1061221f5761010080835404028352916020019161224a565b820191906000526020600020905b81548152906001019060200180831161222d57829003601f168201915b50505050508152505061298c565b604080516101208101825283546001600160a01b03168152600184015460208201526002840154918101919091526003830154606082015260048301546080820152600583015460a0820152600683015460c0820152600783015460ff16151560e0820152600883018054611aec92918591610100840191906122da90613055565b80601f016020809104026020016040519081016040528092919081815260200182805461230690613055565b80156123535780601f1061232857610100808354040283529160200191612353565b820191906000526020600020905b81548152906001019060200180831161233657829003601f168201915b5050505050815250506129cc565b604080516101208101825284546001600160a01b03168152600185015460208201526002850154918101919091526003840154606082015260048401546080820152600584015460a0820152600684015460c0820152600784015460ff16151560e082015260088401805461246b92918691610100840191906123e390613055565b80601f016020809104026020016040519081016040528092919081815260200182805461240f90613055565b801561245c5780601f106124315761010080835404028352916020019161245c565b820191906000526020600020905b81548152906001019060200180831161243f57829003601f168201915b505050505081525050836128f2565b604080516101208101825284546001600160a01b03168152600185015460208201526002850154918101919091526003840154606082015260048401546080820152600584015460a0820152600684015460c0820152600784015460ff16151560e08201526008840180546124ed9291869161010084019190611f4c90613055565b60408051808201909152600681526518189818189960d11b6020820152816106e65760405162461bcd60e51b81526004016104409190612f22565b604080516101208101825283546001600160a01b03168152600184015460208201526002840154918101919091526003830154606082015260048301546080820152600583015460a0820152600683015460c0820152600783015460ff16151560e08201526008830180546125aa92918591610100840191906120c790613055565b604080516101208101825283546001600160a01b03168152600184015460208201526002840154918101919091526003830154606082015260048301546080820152600583015460a0820152600683015460c0820152600783015460ff16151560e0820152600883018054611aec9291859161010084019190611f4c90613055565b6060600061263b836002612fdc565b612646906002612fc4565b67ffffffffffffffff81111561265e5761265e6130d2565b6040519080825280601f01601f191660200182016040528015612688576020820181803683370190505b509050600360fc1b816000815181106126a3576126a36130bc565b60200101906001600160f81b031916908160001a905350600f60fb1b816001815181106126d2576126d26130bc565b60200101906001600160f81b031916908160001a90535060006126f6846002612fdc565b612701906001612fc4565b90505b6001811115612779576f181899199a1a9b1b9c1cb0b131b232b360811b85600f1660108110612735576127356130bc565b1a60f81b82828151811061274b5761274b6130bc565b60200101906001600160f81b031916908160001a90535060049490941c936127728161303e565b9050612704565b5083156127c85760405162461bcd60e51b815260206004820181905260248201527f537472696e67733a20686578206c656e67746820696e73756666696369656e746044820152606401610440565b9392505050565b6000807f7fffffffffffffffffffffffffffffff5d576e7357a4501ddfe92f46681b20a08311156128065750600090506003611493565b8460ff16601b1415801561281e57508460ff16601c14155b1561282f5750600090506004611493565b6040805160008082526020820180845289905260ff881692820192909252606081018690526080810185905260019060a0016020604051602081039080840390855afa158015612883573d6000803e3d6000fd5b5050604051601f1901519150506001600160a01b0381166128ac57600060019250925050611493565b9660009650945050505050565b6000806001600160ff1b038316816128d660ff86901c601b612fc4565b90506128e4878288856127cf565b935093505050935093915050565b806001600160a01b031682600001516001600160a01b0316146040518060400160405280600681526020016518189818181960d11b815250906107fc5760405162461bcd60e51b81526004016104409190612f22565b428160400151116040518060400160405280600681526020016530313030313160d01b81525090611aec5760405162461bcd60e51b81526004016104409190612f22565b6040808201518151808301909252600682526518189818181b60d11b60208301524211611aec5760405162461bcd60e51b81526004016104409190612f22565b60e08101516040805180820190915260068152650c0c4c0c0c4d60d21b60208201529015611aec5760405162461bcd60e51b81526004016104409190612f22565b828054612a1990613055565b90600052602060002090601f016020900481019282612a3b5760008555612a81565b82601f10612a5457805160ff1916838001178555612a81565b82800160010185558215612a81579182015b82811115612a81578251825591602001919060010190612a66565b50612a8d929150612a91565b5090565b5b80821115612a8d5760008155600101612a92565b80516001600160a01b0381168114612abd57600080fd5b919050565b600082601f830112612ad357600080fd5b8135612ae6612ae182612f9c565b612f6b565b818152846020838601011115612afb57600080fd5b816020850160208301376000918101602001919091529392505050565b600082601f830112612b2957600080fd5b8151612b37612ae182612f9c565b818152846020838601011115612b4c57600080fd5b612b5d826020830160208701613012565b949350505050565b60008060408385031215612b7857600080fd5b612b8183612aa6565b9150602083015190509250929050565b600080600060608486031215612ba657600080fd5b612baf84612aa6565b925060208401519150604084015167ffffffffffffffff811115612bd257600080fd5b612bde86828701612b18565b9150509250925092565b600080600060608486031215612bfd57600080fd5b612c0684612aa6565b925060208401519150604084015190509250925092565b60008060008060008060c08789031215612c3657600080fd5b612c3f87612aa6565b95506020870151945060408701519350606087015192506080870151915060a087015167ffffffffffffffff811115612c7757600080fd5b612c8389828a01612b18565b9150509295509295509295565b600060208284031215612ca257600080fd5b5035919050565b60008060408385031215612cbc57600080fd5b823567ffffffffffffffff80821115612cd457600080fd5b612ce086838701612ac2565b93506020850135915080821115612cf657600080fd5b50612d0385828601612ac2565b9150509250929050565b600060208284031215612d1f57600080fd5b813567ffffffffffffffff811115612d3657600080fd5b612b5d84828501612ac2565b60008060408385031215612d5557600080fd5b82359150602083013567ffffffffffffffff811115612d7357600080fd5b612d0385828601612ac2565b60008151808452612d97816020860160208601613012565b601f01601f19169290920160200192915050565b60008151612dbd818560208601613012565b9290920192915050565b60008451612dd9818460208901613012565b60609490941b6bffffffffffffffffffffffff191691909301908152601481019190915260340192915050565b600080845481600182811c915080831680612e2257607f831692505b6020808410821415612e4257634e487b7160e01b86526022600452602486fd5b818015612e565760018114612e6757612e94565b60ff19861689528489019650612e94565b60008b81526020902060005b86811015612e8c5781548b820152908501908301612e73565b505084890196505b505050505050612ea48185612dab565b95945050505050565b7f416363657373436f6e74726f6c3a206163636f756e7420000000000000000000815260008351612ee5816017850160208801613012565b7001034b99036b4b9b9b4b733903937b6329607d1b6017918401918201528351612f16816028840160208801613012565b01602801949350505050565b6020815260006127c86020830184612d7f565b85815284602082015283604082015282606082015260a060808201526000612f6060a0830184612d7f565b979650505050505050565b604051601f8201601f1916810167ffffffffffffffff81118282101715612f9457612f946130d2565b604052919050565b600067ffffffffffffffff821115612fb657612fb66130d2565b50601f01601f191660200190565b60008219821115612fd757612fd7613090565b500190565b6000816000190483118215151615612ff657612ff6613090565b500290565b60008282101561300d5761300d613090565b500390565b60005b8381101561302d578181015183820152602001613015565b838111156106e65750506000910152565b60008161304d5761304d613090565b506000190190565b600181811c9082168061306957607f821691505b6020821081141561308a57634e487b7160e01b600052602260045260246000fd5b50919050565b634e487b7160e01b600052601160045260246000fd5b634e487b7160e01b600052602160045260246000fd5b634e487b7160e01b600052603260045260246000fd5b634e487b7160e01b600052604160045260246000fdfeb07a94881b82de8854879fe381b1f19e5b031791603453f25aeba961528ba5e3b07a94881b82de8854879fe381b1f19e5b031791603453f25aeba961528ba5e6a2646970667358221220d1d890f40e494b5e269056fbef561b6f015c6c630d1247ed60b853b61fe8120c64736f6c63430008060033",
  "linkReferences": {},
  "deployedLinkReferences": {}
}