{
  "_format": "hh-sol-artifact-1",
  "contractName": "SessionFacet",
  "sourceName": "contracts/facets/SessionFacet.sol",
  "abi": [
    {
      "anonymous": false,
      "inputs": [
        {
          "indexed": true,
          "internalType": "address",
          "name": "receiver",
          "type": "address"
        },
        {
          "indexed": false,
          "internalType": "uint256",
          "name": "value",
          "type": "uint256"
        }
      ],
      "name": "AmountReceived",
      "type": "event"
    },
    {
      "anonymous": false,
      "inputs": [
        {
          "indexed": true,
          "internalType": "bytes32",
          "name": "sessionId",
          "type": "bytes32"
        },
        {
          "indexed": true,
          "internalType": "bytes32",
          "name": "messageId",
          "type": "bytes32"
        },
        {
          "indexed": false,
          "internalType": "uint256",
          "name": "rewardPerAMA",
          "type": "uint256"
        },
        {
          "indexed": false,
          "internalType": "uint256",
          "name": "rewardsLeft",
          "type": "uint256"
        }
      ],
      "name": "RewardDistributedOnAma",
      "type": "event"
    },
    {
      "anonymous": false,
      "inputs": [
        {
          "indexed": true,
          "internalType": "bytes32",
          "name": "sessionId",
          "type": "bytes32"
        },
        {
          "indexed": true,
          "internalType": "address",
          "name": "owner",
          "type": "address"
        },
        {
          "indexed": false,
          "internalType": "uint256",
          "name": "startTime",
          "type": "uint256"
        },
        {
          "indexed": false,
          "internalType": "uint256",
          "name": "endTime",
          "type": "uint256"
        },
        {
          "indexed": false,
          "internalType": "uint256",
          "name": "rewardPerAMA",
          "type": "uint256"
        },
        {
          "indexed": false,
          "internalType": "uint256",
          "name": "rewardPool",
          "type": "uint256"
        },
        {
          "indexed": false,
          "internalType": "string",
          "name": "link",
          "type": "string"
        }
      ],
      "name": "SessionCreated",
      "type": "event"
    },
    {
      "anonymous": false,
      "inputs": [
        {
          "indexed": true,
          "internalType": "bytes32",
          "name": "sessionId",
          "type": "bytes32"
        },
        {
          "indexed": false,
          "internalType": "uint256",
          "name": "newEndTime",
          "type": "uint256"
        },
        {
          "indexed": false,
          "internalType": "uint256",
          "name": "additionalTime",
          "type": "uint256"
        }
      ],
      "name": "SessionEndTimeUpdated",
      "type": "event"
    },
    {
      "anonymous": false,
      "inputs": [
        {
          "indexed": true,
          "internalType": "bytes32",
          "name": "sessionId",
          "type": "bytes32"
        },
        {
          "indexed": false,
          "internalType": "uint256",
          "name": "oldEndTime",
          "type": "uint256"
        },
        {
          "indexed": false,
          "internalType": "uint256",
          "name": "newTime",
          "type": "uint256"
        }
      ],
      "name": "SessionEndedBeforeTime",
      "type": "event"
    },
    {
      "anonymous": false,
      "inputs": [
        {
          "indexed": true,
          "internalType": "bytes32",
          "name": "sessionId",
          "type": "bytes32"
        },
        {
          "indexed": false,
          "internalType": "string",
          "name": "link",
          "type": "string"
        }
      ],
      "name": "SessionLinkUpdated",
      "type": "event"
    },
    {
      "anonymous": false,
      "inputs": [
        {
          "indexed": true,
          "internalType": "bytes32",
          "name": "sessionId",
          "type": "bytes32"
        },
        {
          "indexed": false,
          "internalType": "uint256",
          "name": "rewardLeft",
          "type": "uint256"
        }
      ],
      "name": "SessionRewardLeftClaimed",
      "type": "event"
    },
    {
      "anonymous": false,
      "inputs": [
        {
          "indexed": true,
          "internalType": "bytes32",
          "name": "sessionId",
          "type": "bytes32"
        },
        {
          "indexed": false,
          "internalType": "uint256",
          "name": "newRewardPool",
          "type": "uint256"
        },
        {
          "indexed": false,
          "internalType": "uint256",
          "name": "additionalFund",
          "type": "uint256"
        }
      ],
      "name": "SessionTopUp",
      "type": "event"
    },
    {
      "inputs": [
        {
          "internalType": "bytes32",
          "name": "sessionId_",
          "type": "bytes32"
        }
      ],
      "name": "claimRewardLeft",
      "outputs": [],
      "stateMutability": "nonpayable",
      "type": "function"
    },
    {
      "inputs": [
        {
          "internalType": "uint256",
          "name": "startTime_",
          "type": "uint256"
        },
        {
          "internalType": "uint256",
          "name": "endTime_",
          "type": "uint256"
        },
        {
          "internalType": "uint256",
          "name": "rewardPerAMA_",
          "type": "uint256"
        },
        {
          "internalType": "string",
          "name": "sessionHash_",
          "type": "string"
        }
      ],
      "name": "createSession",
      "outputs": [
        {
          "internalType": "bytes32",
          "name": "",
          "type": "bytes32"
        }
      ],
      "stateMutability": "payable",
      "type": "function"
    },
    {
      "inputs": [
        {
          "internalType": "bytes32",
          "name": "sessionId_",
          "type": "bytes32"
        },
        {
          "internalType": "bytes32",
          "name": "messageId_",
          "type": "bytes32"
        }
      ],
      "name": "deductRewardOnReply",
      "outputs": [],
      "stateMutability": "nonpayable",
      "type": "function"
    },
    {
      "inputs": [
        {
          "internalType": "bytes32",
          "name": "sessionId_",
          "type": "bytes32"
        }
      ],
      "name": "endSession",
      "outputs": [],
      "stateMutability": "nonpayable",
      "type": "function"
    },
    {
      "inputs": [
        {
          "internalType": "bytes32",
          "name": "sessionId_",
          "type": "bytes32"
        },
        {
          "internalType": "uint256",
          "name": "additionalTime_",
          "type": "uint256"
        }
      ],
      "name": "extendSession",
      "outputs": [],
      "stateMutability": "nonpayable",
      "type": "function"
    },
    {
      "inputs": [
        {
          "internalType": "uint256",
          "name": "minSessionDuration_",
          "type": "uint256"
        },
        {
          "internalType": "string",
          "name": "baseURI_",
          "type": "string"
        }
      ],
      "name": "initSession",
      "outputs": [],
      "stateMutability": "nonpayable",
      "type": "function"
    },
    {
      "inputs": [
        {
          "internalType": "bytes32",
          "name": "sessionId_",
          "type": "bytes32"
        }
      ],
      "name": "sessionRewardPerAma",
      "outputs": [
        {
          "internalType": "uint256",
          "name": "",
          "type": "uint256"
        }
      ],
      "stateMutability": "view",
      "type": "function"
    },
    {
      "inputs": [
        {
          "internalType": "string",
          "name": "baseURI_",
          "type": "string"
        }
      ],
      "name": "setSessionBaseURI",
      "outputs": [],
      "stateMutability": "nonpayable",
      "type": "function"
    },
    {
      "inputs": [
        {
          "internalType": "bytes32",
          "name": "sessionId_",
          "type": "bytes32"
        },
        {
          "internalType": "uint256",
          "name": "additionalFund_",
          "type": "uint256"
        }
      ],
      "name": "topUpSession",
      "outputs": [],
      "stateMutability": "nonpayable",
      "type": "function"
    },
    {
      "inputs": [
        {
          "internalType": "bytes32",
          "name": "sessionId_",
          "type": "bytes32"
        },
        {
          "internalType": "string",
          "name": "newHash_",
          "type": "string"
        }
      ],
      "name": "updateSessionLink",
      "outputs": [],
      "stateMutability": "nonpayable",
      "type": "function"
    },
    {
      "stateMutability": "payable",
      "type": "receive"
    }
  ],
  "bytecode": "0x608060405234801561001057600080fd5b50600160005561226b806100256000396000f3fe6080604052600436106100955760003560e01c80639ce3efe6116100595780639ce3efe614610148578063cd1a56d614610168578063d94da45714610188578063de9ae193146101a8578063ef70ebd7146101c857600080fd5b80633d48041d146100a157806382170c97146100c357806389d69345146100e35780638ad2c85c146101035780639c115f1d1461012857600080fd5b3661009c57005b600080fd5b3480156100ad57600080fd5b506100c16100bc366004611de2565b6101e8565b005b3480156100cf57600080fd5b506100c16100de366004611dfb565b6102a0565b3480156100ef57600080fd5b506100c16100fe366004611e1d565b610358565b610116610111366004611ea1565b6103ee565b60405190815260200160405180910390f35b34801561013457600080fd5b506100c1610143366004611dfb565b610459565b34801561015457600080fd5b506100c1610163366004611de2565b6104aa565b34801561017457600080fd5b506100c1610183366004611e1d565b6104f7565b34801561019457600080fd5b506100c16101a3366004611dfb565b610536565b3480156101b457600080fd5b506101166101c3366004611de2565b61057e565b3480156101d457600080fd5b506100c16101e3366004611e64565b61058f565b600260005414156102405760405162461bcd60e51b815260206004820152601f60248201527f5265656e7472616e637947756172643a207265656e7472616e742063616c6c0060448201526064015b60405180910390fd5b600260009081556102513383610626565b905061025d3382610682565b817f8ef7807953f12282b133a0fd0cb017c57d3bc7042e15e2e1aead985f1fccbb768260405161028f91815260200190565b60405180910390a250506001600055565b600260005414156102f35760405162461bcd60e51b815260206004820152601f60248201527f5265656e7472616e637947756172643a207265656e7472616e742063616c6c006044820152606401610237565b600260009081558061030533856106f5565b9150915082847fc4ba5392e41dc94154eec6d076cab4cdec607af569e7e4249911bb439f78b3c58484604051610345929190918252602082015260400190565b60405180910390a3505060016000555050565b6000805160206121f6833981519152805460ff16156103b95760405162461bcd60e51b815260206004820152601c60248201527f53657373696f6e3a20616c726561647920696e697469616c697a6564000000006044820152606401610237565b6103c161099b565b805460ff1916600190811782556002820184905582516103e8918301906020850190611cbc565b50505050565b60008060006104013388888834896109a7565b91509150336001600160a01b0316827f82d6a48305f66bda9038a5374881d99bf4fb34253d9c28989b333d1da976ee9b89898934876040516104479594939291906120b1565b60405180910390a35095945050505050565b6000610466338484610cc8565b604080518281526020810185905291925084917fdba6ebf659a4a9b6952ddfe0cd9ce48879561f047e29a9bf399431d1153427ca91015b60405180910390a2505050565b60006104b63383610e72565b6040805182815242602082015291925083917ff9add229cd8e5ec031a67cf4e08b03928893d62fa6266c0ea307255d0fae49d1910160405180910390a25050565b6000610504338484610eb2565b9050827f4ea6c3b8ddccfa9a030c1b95901952d0adf147719dc41a7e04385a51902b5cb28260405161049d919061209e565b6000610543338484611020565b604080518281526020810185905291925084917fcde3f7d51e2fd1ec04872fe3f95f58c3dbed0c666d0a959ce8401b5981f8e3e4910161049d565b6000610589826111dc565b92915050565b60405163695cef6560e01b81526000600482015273__$bb9d112070cfc0a1d6e6da2a36217b4d08$__9063695cef659060240160006040518083038186803b1580156105da57600080fd5b505af41580156105ee573d6000803e3d6000fd5b5050505060006106096000805160206121f683398151915290565b82519091506106219060018301906020850190611cbc565b505050565b60006106318261120a565b6000828152600080516020612216833981519152602052604090206000805160206121f683398151915290610666818661127e565b60078101805460ff191660011790556005015491505092915050565b6001600160a01b03821660009081527f793ba39717776526f812abdc4711d8c8f539f0d8595e4dc61cd8bbf5affeabc26020526040812080547f793ba39717776526f812abdc4711d8c8f539f0d8595e4dc61cd8bbf5affeabc1928492916106eb9084906120e7565b9091555050505050565b6000806107018361120a565b6000838152600080516020612216833981519152602090815260409182902082516101208101845281546001600160a01b031681526001820154928101929092526002810154928201929092526003820154606082015260048201546080820152600582015460a0820152600682015460c0820152600782015460ff16151560e08201526008820180546000805160206121f6833981519152939261083b92909184916101008401916107b390612178565b80601f01602080910402602001604051908101604052809291908181526020018280546107df90612178565b801561082c5780601f106108015761010080835404028352916020019161082c565b820191906000526020600020905b81548152906001019060200180831161080f57829003601f168201915b5050505050815250508761159e565b604080516101208101825282546001600160a01b03168152600183015460208201526002830154918101919091526003820154606082015260048201546080820152600582015460a0820152600682015460c0820152600782015460ff16151560e082015260088201805461094492918491610100840191906108bd90612178565b80601f01602080910402602001604051908101604052809291908181526020018280546108e990612178565b80156109365780601f1061090b57610100808354040283529160200191610936565b820191906000526020600020905b81548152906001019060200180831161091957829003601f168201915b5050505050815250506115f4565b80600301548160050154101561096557600301549250600091506109949050565b806003015481600501600082825461097d919061211e565b909155505060038101546005909101549093509150505b9250929050565b6109a56000611638565b565b600060606109b488611645565b60408051808201909152600681526518189818181b60d11b602082015290156109f05760405162461bcd60e51b8152600401610237919061209e565b5060408051808201909152600681526530313030303760d01b602082015285610a2c5760405162461bcd60e51b8152600401610237919061209e565b5060408051808201909152600681526530313030303560d01b602082015285851015610a6b5760405162461bcd60e51b8152600401610237919061209e565b5060408051808201909152600681526530313030303360d01b602082015242881015610aaa5760405162461bcd60e51b8152600401610237919061209e565b507fb07a94881b82de8854879fe381b1f19e5b031791603453f25aeba961528ba5e5546000805160206121f683398151915290610ae790896120e7565b8711604051806040016040528060068152602001650c0c4c0c0c0d60d21b81525090610b265760405162461bcd60e51b8152600401610237919061209e565b50835160408051808201909152600681526506062606060760d31b602082015290610b645760405162461bcd60e51b8152600401610237919061209e565b506000610b71858b6117f5565b90506000610b7e8661182a565b90506040518061012001604052808c6001600160a01b031681526020018b81526020018a81526020018981526020018881526020018881526020014281526020016000151581526020018281525083600301600084815260200190815260200160002060008201518160000160006101000a8154816001600160a01b0302191690836001600160a01b031602179055506020820151816001015560408201518160020155606082015181600301556080820151816004015560a0820151816005015560c0820151816006015560e08201518160070160006101000a81548160ff021916908315150217905550610100820151816008019080519060200190610c87929190611cbc565b5050506001600160a01b039a909a16600090815260049290920160209081526040832080546001810182559084529220909101819055989650505050505050565b6000610cd38361120a565b6000838152600080516020612216833981519152602090815260409182902082516101208101845281546001600160a01b031681526001820154928101929092526002810154928201929092526003820154606082015260048201546080820152600582015460a0820152600682015460c0820152600782015460ff16151560e08201526008820180546000805160206121f68339815191529392610d8592909184916101008401916107b390612178565b604080516101208101825282546001600160a01b03168152600183015460208201526002830154918101919091526003820154606082015260048201546080820152600582015460a0820152600682015460c0820152600782015460ff16151560e0820152600882018054610e0792918491610100840191906108bd90612178565b816002015484116040518060400160405280600681526020016530313030313560d01b81525090610e4b5760405162461bcd60e51b8152600401610237919061209e565b5083816002016000828254610e6091906120e7565b90915550506002015495945050505050565b6000610e7d8261120a565b600082815260008051602061221683398151915260205260409020610ea28185611887565b6002018054429091559392505050565b6060610ebd8361120a565b6000838152600080516020612216833981519152602090815260409182902082516101208101845281546001600160a01b031681526001820154928101929092526002810154928201929092526003820154606082015260048201546080820152600582015460a0820152600682015460c0820152600782015460ff16151560e08201526008820180546000805160206121f68339815191529392610f6f92909184916101008401916107b390612178565b428160020154106040518060400160405280600681526020016530313030313160d01b81525090610fb35760405162461bcd60e51b8152600401610237919061209e565b50835160408051808201909152600681526506062606060760d31b602082015290610ff15760405162461bcd60e51b8152600401610237919061209e565b506000610ffd8561182a565b80519091506110159060088401906020840190611cbc565b509695505050505050565b600061102b8361120a565b6000838152600080516020612216833981519152602090815260409182902082516101208101845281546001600160a01b031681526001820154928101929092526002810154928201929092526003820154606082015260048201546080820152600582015460a0820152600682015460c0820152600782015460ff16151560e08201526008820180546000805160206121f683398151915293926110dd92909184916101008401916107b390612178565b604080516101208101825282546001600160a01b03168152600183015460208201526002830154918101919091526003820154606082015260048201546080820152600582015460a0820152600682015460c0820152600782015460ff16151560e082015260088201805461115f92918491610100840191906108bd90612178565b60408051808201909152600681526518189818189960d11b60208201528461119a5760405162461bcd60e51b8152600401610237919061209e565b50838160040160008282546111af91906120e7565b92505081905550838160050160008282546111ca91906120e7565b90915550506004015495945050505050565b60006111e78261120a565b506000908152600080516020612216833981519152602052604090206003015490565b60008181526000805160206122168339815191526020908152604091829020548251808401909352600683526530313030303960d01b918301919091526000805160206121f683398151915291906001600160a01b03166106215760405162461bcd60e51b8152600401610237919061209e565b604080516101208101825283546001600160a01b03168152600184015460208201526002840154918101919091526003830154606082015260048301546080820152600583015460a0820152600683015460c0820152600783015460ff16151560e0820152600883018054611388929185916101008401919061130090612178565b80601f016020809104026020016040519081016040528092919081815260200182805461132c90612178565b80156113795780601f1061134e57610100808354040283529160200191611379565b820191906000526020600020905b81548152906001019060200180831161135c57829003601f168201915b5050505050815250508261159e565b604080516101208101825283546001600160a01b03168152600184015460208201526002840154918101919091526003830154606082015260048301546080820152600583015460a0820152600683015460c0820152600783015460ff16151560e0820152600883018054611491929185916101008401919061140a90612178565b80601f016020809104026020016040519081016040528092919081815260200182805461143690612178565b80156114835780601f1061145857610100808354040283529160200191611483565b820191906000526020600020905b81548152906001019060200180831161146657829003601f168201915b50505050508152505061198b565b604080516101208101825283546001600160a01b03168152600184015460208201526002840154918101919091526003830154606082015260048301546080820152600583015460a0820152600683015460c0820152600783015460ff16151560e082015260088301805461159a929185916101008401919061151390612178565b80601f016020809104026020016040519081016040528092919081815260200182805461153f90612178565b801561158c5780601f106115615761010080835404028352916020019161158c565b820191906000526020600020905b81548152906001019060200180831161156f57829003601f168201915b5050505050815250506119cb565b5050565b806001600160a01b031682600001516001600160a01b0316146040518060400160405280600681526020016518189818181960d11b815250906106215760405162461bcd60e51b8152600401610237919061209e565b428160400151116040518060400160405280600681526020016530313030313160d01b8152509061159a5760405162461bcd60e51b8152600401610237919061209e565b6116428133611a0c565b50565b60006000805160206121f683398151915281611695846001600160a01b031660009081527fb07a94881b82de8854879fe381b1f19e5b031791603453f25aeba961528ba5e7602052604090205490565b9050806116a6575060009392505050565b60006116bc856116b760018561211e565b611aab565b600081815260038086016020908152604080842081516101208101835281546001600160a01b0316815260018201549381019390935260028101549183019190915291820154606082015260048201546080820152600582015460a0820152600682015460c0820152600782015460ff16151560e08201526008820180549495509293909261010084019161175090612178565b80601f016020809104026020016040519081016040528092919081815260200182805461177c90612178565b80156117c95780601f1061179e576101008083540402835291602001916117c9565b820191906000526020600020905b8154815290600101906020018083116117ac57829003601f168201915b505050505081525050905042816040015111156117e95750949350505050565b50600095945050505050565b600082824260405160200161180c93929190611f43565b60405160208183030381529060405280519060200120905092915050565b6040516060906000805160206121f683398151915290611870907fb07a94881b82de8854879fe381b1f19e5b031791603453f25aeba961528ba5e4908590602001611f82565b604051602081830303815290604052915050919050565b604080516101208101825283546001600160a01b03168152600184015460208201526002840154918101919091526003830154606082015260048301546080820152600583015460a0820152600683015460c0820152600783015460ff16151560e0820152600883018054611909929185916101008401919061130090612178565b604080516101208101825283546001600160a01b03168152600184015460208201526002840154918101919091526003830154606082015260048301546080820152600583015460a0820152600683015460c0820152600783015460ff16151560e082015260088301805461159a92918591610100840191906108bd90612178565b6040808201518151808301909252600682526518189818181b60d11b6020830152421161159a5760405162461bcd60e51b8152600401610237919061209e565b60e08101516040805180820190915260068152650c0c4c0c0c4d60d21b6020820152901561159a5760405162461bcd60e51b8152600401610237919061209e565b60008281527fe60be0110dc1792cd793dc6d2d18db752d6e49771db52ffb0dfa2892dbc86d2d602090815260408083206001600160a01b038516845290915290205460ff1661159a57611a69816001600160a01b03166014611b19565b611a74836020611b19565b604051602001611a85929190612029565b60408051601f198184030181529082905262461bcd60e51b82526102379160040161209e565b6001600160a01b03821660009081527fb07a94881b82de8854879fe381b1f19e5b031791603453f25aeba961528ba5e76020526040812080546000805160206121f6833981519152919084908110611b0557611b056121c9565b906000526020600020015491505092915050565b60606000611b288360026120ff565b611b339060026120e7565b67ffffffffffffffff811115611b4b57611b4b6121df565b6040519080825280601f01601f191660200182016040528015611b75576020820181803683370190505b509050600360fc1b81600081518110611b9057611b906121c9565b60200101906001600160f81b031916908160001a905350600f60fb1b81600181518110611bbf57611bbf6121c9565b60200101906001600160f81b031916908160001a9053506000611be38460026120ff565b611bee9060016120e7565b90505b6001811115611c66576f181899199a1a9b1b9c1cb0b131b232b360811b85600f1660108110611c2257611c226121c9565b1a60f81b828281518110611c3857611c386121c9565b60200101906001600160f81b031916908160001a90535060049490941c93611c5f81612161565b9050611bf1565b508315611cb55760405162461bcd60e51b815260206004820181905260248201527f537472696e67733a20686578206c656e67746820696e73756666696369656e746044820152606401610237565b9392505050565b828054611cc890612178565b90600052602060002090601f016020900481019282611cea5760008555611d30565b82601f10611d0357805160ff1916838001178555611d30565b82800160010185558215611d30579182015b82811115611d30578251825591602001919060010190611d15565b50611d3c929150611d40565b5090565b5b80821115611d3c5760008155600101611d41565b600082601f830112611d6657600080fd5b813567ffffffffffffffff80821115611d8157611d816121df565b604051601f8301601f19908116603f01168101908282118183101715611da957611da96121df565b81604052838152866020858801011115611dc257600080fd5b836020870160208301376000602085830101528094505050505092915050565b600060208284031215611df457600080fd5b5035919050565b60008060408385031215611e0e57600080fd5b50508035926020909101359150565b60008060408385031215611e3057600080fd5b82359150602083013567ffffffffffffffff811115611e4e57600080fd5b611e5a85828601611d55565b9150509250929050565b600060208284031215611e7657600080fd5b813567ffffffffffffffff811115611e8d57600080fd5b611e9984828501611d55565b949350505050565b60008060008060808587031215611eb757600080fd5b843593506020850135925060408501359150606085013567ffffffffffffffff811115611ee357600080fd5b611eef87828801611d55565b91505092959194509250565b60008151808452611f13816020860160208601612135565b601f01601f19169290920160200192915050565b60008151611f39818560208601612135565b9290920192915050565b60008451611f55818460208901612135565b60609490941b6bffffffffffffffffffffffff191691909301908152601481019190915260340192915050565b600080845481600182811c915080831680611f9e57607f831692505b6020808410821415611fbe57634e487b7160e01b86526022600452602486fd5b818015611fd25760018114611fe357612010565b60ff19861689528489019650612010565b60008b81526020902060005b868110156120085781548b820152908501908301611fef565b505084890196505b5050505050506120208185611f27565b95945050505050565b7f416363657373436f6e74726f6c3a206163636f756e7420000000000000000000815260008351612061816017850160208801612135565b7001034b99036b4b9b9b4b733903937b6329607d1b6017918401918201528351612092816028840160208801612135565b01602801949350505050565b602081526000611cb56020830184611efb565b85815284602082015283604082015282606082015260a0608082015260006120dc60a0830184611efb565b979650505050505050565b600082198211156120fa576120fa6121b3565b500190565b6000816000190483118215151615612119576121196121b3565b500290565b600082821015612130576121306121b3565b500390565b60005b83811015612150578181015183820152602001612138565b838111156103e85750506000910152565b600081612170576121706121b3565b506000190190565b600181811c9082168061218c57607f821691505b602082108114156121ad57634e487b7160e01b600052602260045260246000fd5b50919050565b634e487b7160e01b600052601160045260246000fd5b634e487b7160e01b600052603260045260246000fd5b634e487b7160e01b600052604160045260246000fdfeb07a94881b82de8854879fe381b1f19e5b031791603453f25aeba961528ba5e3b07a94881b82de8854879fe381b1f19e5b031791603453f25aeba961528ba5e6a26469706673582212203385d873ac95d4f38409ff00eca0a534d1e71eb49964e5e30899f3305630b9af64736f6c63430008060033",
  "linkReferences": {
    "contracts/libraries/LibOwnership.sol": {
      "LibOwnership": [
        {
          "length": 20,
          "start": 1482
        }
      ]
    }
  },
  "deployedLinkReferences": {
    "contracts/libraries/LibOwnership.sol": {
      "LibOwnership": [
        {
          "length": 20,
          "start": 1445
        }
      ]
    }
  }
}