{
  "_format": "hh-sol-artifact-1",
  "contractName": "SubscriptionFacet",
  "sourceName": "contracts/facets/SubscriptionFacet.sol",
  "abi": [
    {
      "anonymous": false,
      "inputs": [
        {
          "indexed": true,
          "internalType": "address",
          "name": "account",
          "type": "address"
        },
        {
          "indexed": true,
          "internalType": "address",
          "name": "operator",
          "type": "address"
        },
        {
          "indexed": false,
          "internalType": "bool",
          "name": "approved",
          "type": "bool"
        }
      ],
      "name": "ApprovalForAll",
      "type": "event"
    },
    {
      "anonymous": false,
      "inputs": [
        {
          "indexed": true,
          "internalType": "address",
          "name": "operator",
          "type": "address"
        },
        {
          "indexed": true,
          "internalType": "address",
          "name": "from",
          "type": "address"
        },
        {
          "indexed": true,
          "internalType": "address",
          "name": "to",
          "type": "address"
        },
        {
          "indexed": false,
          "internalType": "uint256[]",
          "name": "ids",
          "type": "uint256[]"
        },
        {
          "indexed": false,
          "internalType": "uint256[]",
          "name": "values",
          "type": "uint256[]"
        }
      ],
      "name": "TransferBatch",
      "type": "event"
    },
    {
      "anonymous": false,
      "inputs": [
        {
          "indexed": true,
          "internalType": "address",
          "name": "operator",
          "type": "address"
        },
        {
          "indexed": true,
          "internalType": "address",
          "name": "from",
          "type": "address"
        },
        {
          "indexed": true,
          "internalType": "address",
          "name": "to",
          "type": "address"
        },
        {
          "indexed": false,
          "internalType": "uint256",
          "name": "id",
          "type": "uint256"
        },
        {
          "indexed": false,
          "internalType": "uint256",
          "name": "value",
          "type": "uint256"
        }
      ],
      "name": "TransferSingle",
      "type": "event"
    },
    {
      "anonymous": false,
      "inputs": [
        {
          "indexed": false,
          "internalType": "string",
          "name": "value",
          "type": "string"
        },
        {
          "indexed": true,
          "internalType": "uint256",
          "name": "id",
          "type": "uint256"
        }
      ],
      "name": "URI",
      "type": "event"
    },
    {
      "inputs": [
        {
          "internalType": "address",
          "name": "account",
          "type": "address"
        },
        {
          "internalType": "uint256",
          "name": "id",
          "type": "uint256"
        }
      ],
      "name": "balanceOf",
      "outputs": [
        {
          "internalType": "uint256",
          "name": "",
          "type": "uint256"
        }
      ],
      "stateMutability": "view",
      "type": "function"
    },
    {
      "inputs": [
        {
          "internalType": "address[]",
          "name": "accounts_",
          "type": "address[]"
        },
        {
          "internalType": "uint256[]",
          "name": "ids_",
          "type": "uint256[]"
        }
      ],
      "name": "balanceOfBatch",
      "outputs": [
        {
          "internalType": "uint256[]",
          "name": "",
          "type": "uint256[]"
        }
      ],
      "stateMutability": "view",
      "type": "function"
    },
    {
      "inputs": [
        {
          "internalType": "address",
          "name": "from_",
          "type": "address"
        },
        {
          "internalType": "uint256",
          "name": "id_",
          "type": "uint256"
        },
        {
          "internalType": "uint256",
          "name": "amount_",
          "type": "uint256"
        }
      ],
      "name": "burn",
      "outputs": [],
      "stateMutability": "nonpayable",
      "type": "function"
    },
    {
      "inputs": [
        {
          "internalType": "address",
          "name": "from_",
          "type": "address"
        },
        {
          "internalType": "uint256[]",
          "name": "ids_",
          "type": "uint256[]"
        },
        {
          "internalType": "uint256[]",
          "name": "amounts_",
          "type": "uint256[]"
        }
      ],
      "name": "burnBatch",
      "outputs": [],
      "stateMutability": "nonpayable",
      "type": "function"
    },
    {
      "inputs": [
        {
          "internalType": "string",
          "name": "baseURI_",
          "type": "string"
        }
      ],
      "name": "initSubscription",
      "outputs": [],
      "stateMutability": "nonpayable",
      "type": "function"
    },
    {
      "inputs": [
        {
          "internalType": "address",
          "name": "account",
          "type": "address"
        },
        {
          "internalType": "address",
          "name": "operator",
          "type": "address"
        }
      ],
      "name": "isApprovedForAll",
      "outputs": [
        {
          "internalType": "bool",
          "name": "",
          "type": "bool"
        }
      ],
      "stateMutability": "view",
      "type": "function"
    },
    {
      "inputs": [
        {
          "internalType": "address",
          "name": "to_",
          "type": "address"
        },
        {
          "internalType": "uint256",
          "name": "id_",
          "type": "uint256"
        },
        {
          "internalType": "uint256",
          "name": "amount_",
          "type": "uint256"
        },
        {
          "internalType": "bytes",
          "name": "data_",
          "type": "bytes"
        }
      ],
      "name": "mint",
      "outputs": [],
      "stateMutability": "nonpayable",
      "type": "function"
    },
    {
      "inputs": [
        {
          "internalType": "address",
          "name": "to_",
          "type": "address"
        },
        {
          "internalType": "uint256[]",
          "name": "ids_",
          "type": "uint256[]"
        },
        {
          "internalType": "uint256[]",
          "name": "amounts_",
          "type": "uint256[]"
        },
        {
          "internalType": "bytes",
          "name": "data_",
          "type": "bytes"
        }
      ],
      "name": "mintBatch",
      "outputs": [],
      "stateMutability": "nonpayable",
      "type": "function"
    },
    {
      "inputs": [
        {
          "internalType": "address",
          "name": "from",
          "type": "address"
        },
        {
          "internalType": "address",
          "name": "to",
          "type": "address"
        },
        {
          "internalType": "uint256[]",
          "name": "ids",
          "type": "uint256[]"
        },
        {
          "internalType": "uint256[]",
          "name": "amounts",
          "type": "uint256[]"
        },
        {
          "internalType": "bytes",
          "name": "data",
          "type": "bytes"
        }
      ],
      "name": "safeBatchTransferFrom",
      "outputs": [],
      "stateMutability": "nonpayable",
      "type": "function"
    },
    {
      "inputs": [
        {
          "internalType": "address",
          "name": "from",
          "type": "address"
        },
        {
          "internalType": "address",
          "name": "to",
          "type": "address"
        },
        {
          "internalType": "uint256",
          "name": "id",
          "type": "uint256"
        },
        {
          "internalType": "uint256",
          "name": "amount",
          "type": "uint256"
        },
        {
          "internalType": "bytes",
          "name": "data",
          "type": "bytes"
        }
      ],
      "name": "safeTransferFrom",
      "outputs": [],
      "stateMutability": "nonpayable",
      "type": "function"
    },
    {
      "inputs": [
        {
          "internalType": "address",
          "name": "operator_",
          "type": "address"
        },
        {
          "internalType": "bool",
          "name": "approved_",
          "type": "bool"
        }
      ],
      "name": "setApprovalForAll",
      "outputs": [],
      "stateMutability": "nonpayable",
      "type": "function"
    },
    {
      "inputs": [
        {
          "internalType": "string",
          "name": "newuri",
          "type": "string"
        }
      ],
      "name": "setSubscriptionBaseURI",
      "outputs": [],
      "stateMutability": "nonpayable",
      "type": "function"
    },
    {
      "inputs": [
        {
          "internalType": "bytes4",
          "name": "interfaceId",
          "type": "bytes4"
        }
      ],
      "name": "supportsInterface",
      "outputs": [
        {
          "internalType": "bool",
          "name": "",
          "type": "bool"
        }
      ],
      "stateMutability": "view",
      "type": "function"
    },
    {
      "inputs": [
        {
          "internalType": "uint256",
          "name": "",
          "type": "uint256"
        }
      ],
      "name": "uri",
      "outputs": [
        {
          "internalType": "string",
          "name": "",
          "type": "string"
        }
      ],
      "stateMutability": "view",
      "type": "function"
    }
  ],
  "bytecode": "0x608060405234801561001057600080fd5b50612321806100206000396000f3fe608060405234801561001057600080fd5b50600436106100e95760003560e01c80636b20c4541161008c578063b5aa8aea11610066578063b5aa8aea146101eb578063e985e9c5146101fe578063f242432a14610211578063f5298aca1461022457600080fd5b80636b20c454146101b2578063731133e9146101c5578063a22cb465146101d857600080fd5b80631f7fdffa116100c85780631f7fdffa146101575780632bdd4cbd1461016c5780632eb2c2d61461017f5780634e1273f41461019257600080fd5b8062fdd58e146100ee57806301ffc9a7146101145780630e89341c14610137575b600080fd5b6101016100fc366004611a83565b610237565b6040519081526020015b60405180910390f35b610127610122366004611c04565b6102b8565b604051901515815260200161010b565b61014a610145366004611c8e565b61030a565b60405161010b9190611e67565b61016a6101653660046119af565b610314565b005b61016a61017a366004611c3e565b61039a565b61016a61018d36600461182f565b610435565b6101a56101a0366004611b34565b61047a565b60405161010b9190611e26565b61016a6101c036600461193c565b6104e9565b61016a6101d3366004611ae0565b610564565b61016a6101e6366004611a47565b6105fc565b61016a6101f9366004611c3e565b61064d565b61012761020c3660046117fc565b610663565b61016a61021f3660046118d8565b61066f565b61016a610232366004611aad565b6106b4565b60006001600160a01b0383166102a75760405162461bcd60e51b815260206004820152602a60248201527f455243313135353a2061646472657373207a65726f206973206e6f742061207660448201526930b634b21037bbb732b960b11b60648201526084015b60405180910390fd5b6102b18383610741565b9392505050565b60006001600160e01b03198216636cdb3d1360e11b14806102e957506001600160e01b031982166303a24d0760e21b145b8061030457506301ffc9a760e01b6001600160e01b03198316145b92915050565b6060610304610787565b61031e600061084a565b3361032c8186868686610854565b846001600160a01b031660006001600160a01b0316826001600160a01b03167f4a39dc06d4c0dbc64b70af90fd698a233a518aa5d07e595d983b8c0526c8f7fb878760405161037c929190611e39565b60405180910390a461039381600087878787610948565b5050505050565b6000805160206122cc8339815191528054600160a01b900460ff16156104025760405162461bcd60e51b815260206004820152601960248201527f557365723a20616c726561647920696e697469616c697a656400000000000000604482015260640161029e565b61040a610ab3565b805460ff60a01b1916600160a01b17815581516104309060038301906020850190611653565b505050565b6001600160a01b03851633148061045157506104518533610abf565b61046d5760405162461bcd60e51b815260040161029e90611f06565b6103938585858585610b0c565b606081518351146104df5760405162461bcd60e51b815260206004820152602960248201527f455243313135353a206163636f756e747320616e6420696473206c656e677468604482015268040dad2e6dac2e8c6d60bb1b606482015260840161029e565b6102b18383610b80565b336104f681858585610c46565b60006001600160a01b0316846001600160a01b0316826001600160a01b03167f4a39dc06d4c0dbc64b70af90fd698a233a518aa5d07e595d983b8c0526c8f7fb8686604051610546929190611e39565b60405180910390a46040805160208101909152600090525b50505050565b61056e600061084a565b3360008061057f8388888888610d78565b91509150866001600160a01b031660006001600160a01b0316846001600160a01b03167fc3d58168c5ae7397731d063d5bbf3d657854427343f4c083240f7aacaa2d0f6289896040516105dc929190918252602082015260400190565b60405180910390a46105f383600089898989610e12565b50505050505050565b610607338383610edc565b60405181151581526001600160a01b0383169033907f17307eab39ab6107e8899845ad3d59bd9653f200f220920489ca2b5937696c319060200160405180910390a35050565b610657600061084a565b61066081610fa9565b50565b60006102b18383610abf565b6001600160a01b03851633148061068b575061068b8533610abf565b6106a75760405162461bcd60e51b815260040161029e90611f06565b6103938585858585610feb565b336000806106c483878787611079565b9150915060006001600160a01b0316866001600160a01b0316846001600160a01b03167fc3d58168c5ae7397731d063d5bbf3d657854427343f4c083240f7aacaa2d0f628888604051610721929190918252602082015260400190565b60405180910390a46040805160208101909152600090525b505050505050565b60009081527fa72eab47b108f974b79b398045065c1e6ba669aba8c70aa0a457d9cd58ba0418602090815260408083206001600160a01b03949094168352929052205490565b7fa72eab47b108f974b79b398045065c1e6ba669aba8c70aa0a457d9cd58ba041a80546060916000805160206122cc833981519152916107c69061214c565b80601f01602080910402602001604051908101604052809291908181526020018280546107f29061214c565b801561083f5780601f106108145761010080835404028352916020019161083f565b820191906000526020600020905b81548152906001019060200180831161082257829003601f168201915b505050505091505090565b6106608133611152565b6001600160a01b03841661087a5760405162461bcd60e51b815260040161029e9061206e565b815183511461089b5760405162461bcd60e51b815260040161029e90612026565b6000805160206122cc83398151915260005b84518110156105f3578381815181106108c8576108c86121e4565b60200260200101518260010160008784815181106108e8576108e86121e4565b602002602001015181526020019081526020016000206000886001600160a01b03166001600160a01b03168152602001908152602001600020600082825461093091906120d2565b90915550819050610940816121b3565b9150506108ad565b6001600160a01b0384163b156107395760405163bc197c8160e01b81526001600160a01b0385169063bc197c819061098c9089908990889088908890600401611d83565b602060405180830381600087803b1580156109a657600080fd5b505af19250505080156109d6575060408051601f3d908101601f191682019092526109d391810190611c21565b60015b610a83576109e2612210565b806308c379a01415610a1c57506109f761222c565b80610a025750610a1e565b8060405162461bcd60e51b815260040161029e9190611e67565b505b60405162461bcd60e51b815260206004820152603460248201527f455243313135353a207472616e7366657220746f206e6f6e2d455243313135356044820152732932b1b2b4bb32b91034b6b83632b6b2b73a32b960611b606482015260840161029e565b6001600160e01b0319811663bc197c8160e01b146105f35760405162461bcd60e51b815260040161029e90611e7a565b610abd600061084a565b565b6001600160a01b0391821660009081527fa72eab47b108f974b79b398045065c1e6ba669aba8c70aa0a457d9cd58ba04196020908152604080832093909416825291909152205460ff1690565b33610b1b8187878787876111f5565b846001600160a01b0316866001600160a01b0316826001600160a01b03167f4a39dc06d4c0dbc64b70af90fd698a233a518aa5d07e595d983b8c0526c8f7fb8787604051610b6a929190611e39565b60405180910390a4610739818787878787610948565b6060600083516001600160401b03811115610b9d57610b9d6121fa565b604051908082528060200260200182016040528015610bc6578160200160208202803683370190505b50905060005b8451811015610c3e57610c11858281518110610bea57610bea6121e4565b6020026020010151858381518110610c0457610c046121e4565b6020026020010151610741565b828281518110610c2357610c236121e4565b6020908102919091010152610c37816121b3565b9050610bcc565b509392505050565b6001600160a01b038316610c6c5760405162461bcd60e51b815260040161029e90611f99565b8051825114610c8d5760405162461bcd60e51b815260040161029e90612026565b60408051602081019091526000908190526000805160206122cc833981519152905b8351811015610739576000848281518110610ccc57610ccc6121e4565b602002602001015190506000848381518110610cea57610cea6121e4565b602090810291909101810151600084815260018701835260408082206001600160a01b038c168352909352919091205490915081811015610d3d5760405162461bcd60e51b815260040161029e90611ec2565b600092835260018501602090815260408085206001600160a01b038b1686529091529092209103905580610d70816121b3565b915050610caf565b6060806001600160a01b038616610da15760405162461bcd60e51b815260040161029e9061206e565b6000805160206122cc8339815191526000610dbb87611338565b90506000610dc887611338565b9050600088815260018401602090815260408083206001600160a01b038d16845290915281208054899290610dfe9084906120d2565b90915550919a909950975050505050505050565b6001600160a01b0384163b156107395760405163f23a6e6160e01b81526001600160a01b0385169063f23a6e6190610e569089908990889088908890600401611de1565b602060405180830381600087803b158015610e7057600080fd5b505af1925050508015610ea0575060408051601f3d908101601f19168201909252610e9d91810190611c21565b60015b610eac576109e2612210565b6001600160e01b0319811663f23a6e6160e01b146105f35760405162461bcd60e51b815260040161029e90611e7a565b816001600160a01b0316836001600160a01b03161415610f505760405162461bcd60e51b815260206004820152602960248201527f455243313135353a2073657474696e6720617070726f76616c20737461747573604482015268103337b91039b2b63360b91b606482015260840161029e565b6001600160a01b0392831660009081527fa72eab47b108f974b79b398045065c1e6ba669aba8c70aa0a457d9cd58ba04196020908152604080832094909516825292909252919020805460ff1916911515919091179055565b80516000805160206122cc83398151915290610430907fa72eab47b108f974b79b398045065c1e6ba669aba8c70aa0a457d9cd58ba041a906020850190611653565b33600080610ffd838989898989611383565b91509150866001600160a01b0316886001600160a01b0316846001600160a01b03167fc3d58168c5ae7397731d063d5bbf3d657854427343f4c083240f7aacaa2d0f628989604051611059929190918252602082015260400190565b60405180910390a461106f838989898989610e12565b5050505050505050565b6060806001600160a01b0385166110a25760405162461bcd60e51b815260040161029e90611f99565b6000805160206122cc83398151915260006110bc86611338565b905060006110c986611338565b60408051602080820183526000918290528a82526001870181528282206001600160a01b038d16835290522054909150868110156111195760405162461bcd60e51b815260040161029e90611ec2565b6000978852600193909301602090815260408089206001600160a01b039a909a1689529890529690952093900390925550909391925050565b60008281527fe60be0110dc1792cd793dc6d2d18db752d6e49771db52ffb0dfa2892dbc86d2d602090815260408083206001600160a01b038516845290915290205460ff166111f1576111af816001600160a01b031660146114b8565b6111ba8360206114b8565b6040516020016111cb929190611d0e565b60408051601f198184030181529082905262461bcd60e51b825261029e91600401611e67565b5050565b81518351146112165760405162461bcd60e51b815260040161029e90612026565b6001600160a01b03841661123c5760405162461bcd60e51b815260040161029e90611f54565b6000805160206122cc83398151915260005b845181101561106f57600085828151811061126b5761126b6121e4565b602002602001015190506000858381518110611289576112896121e4565b602090810291909101810151600084815260018701835260408082206001600160a01b038e1683529093529190912054909150818110156112dc5760405162461bcd60e51b815260040161029e90611fdc565b600083815260018601602090815260408083206001600160a01b038e8116855292528083208585039055908b1682528120805484929061131d9084906120d2565b9250508190555050505080611331906121b3565b905061124e565b60408051600180825281830190925260609160009190602080830190803683370190505090508281600081518110611372576113726121e4565b602090810291909101015292915050565b6060806001600160a01b0386166113ac5760405162461bcd60e51b815260040161029e90611f54565b6000805160206122cc83398151915260006113c687611338565b905060006113d387611338565b9050600088815260018401602090815260408083206001600160a01b038e1684529091529020548781101561141a5760405162461bcd60e51b815260040161029e90611fdc565b8781038460010160008b815260200190815260200160002060008d6001600160a01b03166001600160a01b0316815260200190815260200160002081905550878460010160008b815260200190815260200160002060008c6001600160a01b03166001600160a01b0316815260200190815260200160002060008282546114a191906120d2565b90915550929c919b50909950505050505050505050565b606060006114c78360026120ea565b6114d29060026120d2565b6001600160401b038111156114e9576114e96121fa565b6040519080825280601f01601f191660200182016040528015611513576020820181803683370190505b509050600360fc1b8160008151811061152e5761152e6121e4565b60200101906001600160f81b031916908160001a905350600f60fb1b8160018151811061155d5761155d6121e4565b60200101906001600160f81b031916908160001a90535060006115818460026120ea565b61158c9060016120d2565b90505b6001811115611604576f181899199a1a9b1b9c1cb0b131b232b360811b85600f16601081106115c0576115c06121e4565b1a60f81b8282815181106115d6576115d66121e4565b60200101906001600160f81b031916908160001a90535060049490941c936115fd81612135565b905061158f565b5083156102b15760405162461bcd60e51b815260206004820181905260248201527f537472696e67733a20686578206c656e67746820696e73756666696369656e74604482015260640161029e565b82805461165f9061214c565b90600052602060002090601f01602090048101928261168157600085556116c7565b82601f1061169a57805160ff19168380011785556116c7565b828001600101855582156116c7579182015b828111156116c75782518255916020019190600101906116ac565b506116d39291506116d7565b5090565b5b808211156116d357600081556001016116d8565b60006001600160401b03831115611705576117056121fa565b60405161171c601f8501601f191660200182612187565b80915083815284848401111561173157600080fd5b83836020830137600060208583010152509392505050565b80356001600160a01b038116811461176057600080fd5b919050565b600082601f83011261177657600080fd5b81356020611783826120af565b6040516117908282612187565b8381528281019150858301600585901b870184018810156117b057600080fd5b60005b858110156117cf578135845292840192908401906001016117b3565b5090979650505050505050565b600082601f8301126117ed57600080fd5b6102b1838335602085016116ec565b6000806040838503121561180f57600080fd5b61181883611749565b915061182660208401611749565b90509250929050565b600080600080600060a0868803121561184757600080fd5b61185086611749565b945061185e60208701611749565b935060408601356001600160401b038082111561187a57600080fd5b61188689838a01611765565b9450606088013591508082111561189c57600080fd5b6118a889838a01611765565b935060808801359150808211156118be57600080fd5b506118cb888289016117dc565b9150509295509295909350565b600080600080600060a086880312156118f057600080fd5b6118f986611749565b945061190760208701611749565b9350604086013592506060860135915060808601356001600160401b0381111561193057600080fd5b6118cb888289016117dc565b60008060006060848603121561195157600080fd5b61195a84611749565b925060208401356001600160401b038082111561197657600080fd5b61198287838801611765565b9350604086013591508082111561199857600080fd5b506119a586828701611765565b9150509250925092565b600080600080608085870312156119c557600080fd5b6119ce85611749565b935060208501356001600160401b03808211156119ea57600080fd5b6119f688838901611765565b94506040870135915080821115611a0c57600080fd5b611a1888838901611765565b93506060870135915080821115611a2e57600080fd5b50611a3b878288016117dc565b91505092959194509250565b60008060408385031215611a5a57600080fd5b611a6383611749565b915060208301358015158114611a7857600080fd5b809150509250929050565b60008060408385031215611a9657600080fd5b611a9f83611749565b946020939093013593505050565b600080600060608486031215611ac257600080fd5b611acb84611749565b95602085013595506040909401359392505050565b60008060008060808587031215611af657600080fd5b611aff85611749565b9350602085013592506040850135915060608501356001600160401b03811115611b2857600080fd5b611a3b878288016117dc565b60008060408385031215611b4757600080fd5b82356001600160401b0380821115611b5e57600080fd5b818501915085601f830112611b7257600080fd5b81356020611b7f826120af565b604051611b8c8282612187565b8381528281019150858301600585901b870184018b1015611bac57600080fd5b600096505b84871015611bd657611bc281611749565b835260019690960195918301918301611bb1565b5096505086013592505080821115611bed57600080fd5b50611bfa85828601611765565b9150509250929050565b600060208284031215611c1657600080fd5b81356102b1816122b5565b600060208284031215611c3357600080fd5b81516102b1816122b5565b600060208284031215611c5057600080fd5b81356001600160401b03811115611c6657600080fd5b8201601f81018413611c7757600080fd5b611c86848235602084016116ec565b949350505050565b600060208284031215611ca057600080fd5b5035919050565b600081518084526020808501945080840160005b83811015611cd757815187529582019590820190600101611cbb565b509495945050505050565b60008151808452611cfa816020860160208601612109565b601f01601f19169290920160200192915050565b7f416363657373436f6e74726f6c3a206163636f756e7420000000000000000000815260008351611d46816017850160208801612109565b7001034b99036b4b9b9b4b733903937b6329607d1b6017918401918201528351611d77816028840160208801612109565b01602801949350505050565b6001600160a01b0386811682528516602082015260a060408201819052600090611daf90830186611ca7565b8281036060840152611dc18186611ca7565b90508281036080840152611dd58185611ce2565b98975050505050505050565b6001600160a01b03868116825285166020820152604081018490526060810183905260a060808201819052600090611e1b90830184611ce2565b979650505050505050565b6020815260006102b16020830184611ca7565b604081526000611e4c6040830185611ca7565b8281036020840152611e5e8185611ca7565b95945050505050565b6020815260006102b16020830184611ce2565b60208082526028908201527f455243313135353a204552433131353552656365697665722072656a656374656040820152676420746f6b656e7360c01b606082015260800190565b60208082526024908201527f455243313135353a206275726e20616d6f756e7420657863656564732062616c604082015263616e636560e01b606082015260800190565b6020808252602e908201527f455243313135353a2063616c6c6572206973206e6f7420746f6b656e206f776e60408201526d195c881bdc88185c1c1c9bdd995960921b606082015260800190565b60208082526025908201527f455243313135353a207472616e7366657220746f20746865207a65726f206164604082015264647265737360d81b606082015260800190565b60208082526023908201527f455243313135353a206275726e2066726f6d20746865207a65726f206164647260408201526265737360e81b606082015260800190565b6020808252602a908201527f455243313135353a20696e73756666696369656e742062616c616e636520666f60408201526939103a3930b739b332b960b11b606082015260800190565b60208082526028908201527f455243313135353a2069647320616e6420616d6f756e7473206c656e677468206040820152670dad2e6dac2e8c6d60c31b606082015260800190565b60208082526021908201527f455243313135353a206d696e7420746f20746865207a65726f206164647265736040820152607360f81b606082015260800190565b60006001600160401b038211156120c8576120c86121fa565b5060051b60200190565b600082198211156120e5576120e56121ce565b500190565b6000816000190483118215151615612104576121046121ce565b500290565b60005b8381101561212457818101518382015260200161210c565b8381111561055e5750506000910152565b600081612144576121446121ce565b506000190190565b600181811c9082168061216057607f821691505b6020821081141561218157634e487b7160e01b600052602260045260246000fd5b50919050565b601f8201601f191681016001600160401b03811182821017156121ac576121ac6121fa565b6040525050565b60006000198214156121c7576121c76121ce565b5060010190565b634e487b7160e01b600052601160045260246000fd5b634e487b7160e01b600052603260045260246000fd5b634e487b7160e01b600052604160045260246000fd5b600060033d11156122295760046000803e5060005160e01c5b90565b600060443d101561223a5790565b6040516003193d81016004833e81513d6001600160401b03816024840111818411171561226957505050505090565b82850191508151818111156122815750505050505090565b843d870101602082850101111561229b5750505050505090565b6122aa60208286010187612187565b509095945050505050565b6001600160e01b03198116811461066057600080fdfea72eab47b108f974b79b398045065c1e6ba669aba8c70aa0a457d9cd58ba0417a264697066735822122094ec89ddf48bdbdbd9e004fa3d80544ecad211ce2f302021a99b2e8d8442747664736f6c63430008060033",
  "linkReferences": {},
  "deployedLinkReferences": {}
}