{
  "_format": "hh-sol-artifact-1",
  "contractName": "UserFacet",
  "sourceName": "contracts/facets/UserFacet.sol",
  "abi": [
    {
      "anonymous": false,
      "inputs": [
        {
          "indexed": true,
          "internalType": "address",
          "name": "blocker",
          "type": "address"
        },
        {
          "indexed": true,
          "internalType": "address",
          "name": "blocked",
          "type": "address"
        }
      ],
      "name": "Blocked",
      "type": "event"
    },
    {
      "anonymous": false,
      "inputs": [
        {
          "indexed": true,
          "internalType": "address",
          "name": "followed",
          "type": "address"
        },
        {
          "indexed": true,
          "internalType": "address",
          "name": "follower",
          "type": "address"
        }
      ],
      "name": "Follow",
      "type": "event"
    },
    {
      "anonymous": false,
      "inputs": [
        {
          "indexed": true,
          "internalType": "address",
          "name": "unblocker",
          "type": "address"
        },
        {
          "indexed": true,
          "internalType": "address",
          "name": "unblocked",
          "type": "address"
        }
      ],
      "name": "UnBlock",
      "type": "event"
    },
    {
      "anonymous": false,
      "inputs": [
        {
          "indexed": true,
          "internalType": "address",
          "name": "unfollowed",
          "type": "address"
        },
        {
          "indexed": true,
          "internalType": "address",
          "name": "unfollower",
          "type": "address"
        }
      ],
      "name": "UnFollow",
      "type": "event"
    },
    {
      "anonymous": false,
      "inputs": [
        {
          "indexed": true,
          "internalType": "address",
          "name": "unwhitelister",
          "type": "address"
        },
        {
          "indexed": true,
          "internalType": "address",
          "name": "unwhitelisted",
          "type": "address"
        }
      ],
      "name": "UnWhitelisted",
      "type": "event"
    },
    {
      "anonymous": false,
      "inputs": [
        {
          "indexed": true,
          "internalType": "address",
          "name": "whitelister",
          "type": "address"
        },
        {
          "indexed": true,
          "internalType": "address",
          "name": "whitelisted",
          "type": "address"
        }
      ],
      "name": "Whitelisted",
      "type": "event"
    },
    {
      "anonymous": false,
      "inputs": [
        {
          "indexed": true,
          "internalType": "address",
          "name": "user",
          "type": "address"
        },
        {
          "indexed": false,
          "internalType": "uint256",
          "name": "value",
          "type": "uint256"
        }
      ],
      "name": "Withdraw",
      "type": "event"
    },
    {
      "inputs": [
        {
          "internalType": "address",
          "name": "address_",
          "type": "address"
        }
      ],
      "name": "blockUser",
      "outputs": [],
      "stateMutability": "nonpayable",
      "type": "function"
    },
    {
      "inputs": [
        {
          "internalType": "address",
          "name": "blocked_",
          "type": "address"
        },
        {
          "internalType": "address",
          "name": "blocker_",
          "type": "address"
        }
      ],
      "name": "checkBlocked",
      "outputs": [
        {
          "internalType": "bool",
          "name": "",
          "type": "bool"
        }
      ],
      "stateMutability": "view",
      "type": "function"
    },
    {
      "inputs": [
        {
          "internalType": "address",
          "name": "sender_",
          "type": "address"
        },
        {
          "internalType": "address",
          "name": "recipient_",
          "type": "address"
        }
      ],
      "name": "checkFollower",
      "outputs": [
        {
          "internalType": "bool",
          "name": "",
          "type": "bool"
        }
      ],
      "stateMutability": "view",
      "type": "function"
    },
    {
      "inputs": [
        {
          "internalType": "address",
          "name": "whitelisted_",
          "type": "address"
        },
        {
          "internalType": "address",
          "name": "whitelister_",
          "type": "address"
        }
      ],
      "name": "checkWhitelist",
      "outputs": [
        {
          "internalType": "bool",
          "name": "",
          "type": "bool"
        }
      ],
      "stateMutability": "view",
      "type": "function"
    },
    {
      "inputs": [
        {
          "internalType": "address",
          "name": "address_",
          "type": "address"
        }
      ],
      "name": "followUser",
      "outputs": [],
      "stateMutability": "nonpayable",
      "type": "function"
    },
    {
      "inputs": [
        {
          "internalType": "address",
          "name": "_sender",
          "type": "address"
        },
        {
          "internalType": "address",
          "name": "_recipient",
          "type": "address"
        },
        {
          "internalType": "uint256",
          "name": "_messageType",
          "type": "uint256"
        }
      ],
      "name": "getUserMinimumBid",
      "outputs": [
        {
          "internalType": "uint256",
          "name": "",
          "type": "uint256"
        }
      ],
      "stateMutability": "view",
      "type": "function"
    },
    {
      "inputs": [
        {
          "internalType": "uint256",
          "name": "minimumBidByUser",
          "type": "uint256"
        },
        {
          "internalType": "uint256",
          "name": "_messageType",
          "type": "uint256"
        }
      ],
      "name": "setUserMinimumBid",
      "outputs": [],
      "stateMutability": "nonpayable",
      "type": "function"
    },
    {
      "inputs": [
        {
          "internalType": "address",
          "name": "address_",
          "type": "address"
        }
      ],
      "name": "unBlockUser",
      "outputs": [],
      "stateMutability": "nonpayable",
      "type": "function"
    },
    {
      "inputs": [
        {
          "internalType": "address",
          "name": "address_",
          "type": "address"
        }
      ],
      "name": "unWhitelistUser",
      "outputs": [],
      "stateMutability": "nonpayable",
      "type": "function"
    },
    {
      "inputs": [
        {
          "internalType": "address",
          "name": "address_",
          "type": "address"
        }
      ],
      "name": "unfollowUser",
      "outputs": [],
      "stateMutability": "nonpayable",
      "type": "function"
    },
    {
      "inputs": [
        {
          "internalType": "address",
          "name": "address_",
          "type": "address"
        }
      ],
      "name": "whitelistUser",
      "outputs": [],
      "stateMutability": "nonpayable",
      "type": "function"
    },
    {
      "stateMutability": "payable",
      "type": "receive"
    }
  ],
  "bytecode": "0x608060405234801561001057600080fd5b50610c31806100206000396000f3fe6080604052600436106100a05760003560e01c806362ed79811161006457806362ed79811461016357806365f898e11461018357806386b43d5c146101a3578063a70806f7146101d1578063dc1a0911146101f1578063f107cfcb1461021157600080fd5b8063190c69a2146100ac5780632c8d6fd6146100ce5780633da01325146101035780634a4c560d14610123578063584b51261461014357600080fd5b366100a757005b600080fd5b3480156100b857600080fd5b506100cc6100c7366004610aa4565b610231565b005b3480156100da57600080fd5b506100ee6100e9366004610abf565b6102f4565b60405190151581526020015b60405180910390f35b34801561010f57600080fd5b506100cc61011e366004610aa4565b610307565b34801561012f57600080fd5b506100cc61013e366004610aa4565b61034a565b34801561014f57600080fd5b506100ee61015e366004610abf565b61038d565b34801561016f57600080fd5b506100cc61017e366004610b2e565b6103ce565b34801561018f57600080fd5b506100cc61019e366004610aa4565b61048c565b3480156101af57600080fd5b506101c36101be366004610af2565b6104cf565b6040519081526020016100fa565b3480156101dd57600080fd5b506100cc6101ec366004610aa4565b610512565b3480156101fd57600080fd5b506100ee61020c366004610abf565b6105d5565b34801561021d57600080fd5b506100cc61022c366004610aa4565b6105e1565b73__$12e09585895387ce02ac6aed6be83b2468$__6304464951336040516001600160e01b031960e084901b1681526001600160a01b039182166004820152908416602482015260440160006040518083038186803b15801561029357600080fd5b505af41580156102a7573d6000803e3d6000fd5b50505050806001600160a01b03166102bc3390565b6001600160a01b03167fdc9ec6c8ca20e67e0cbecb5536d5c021046dd6a9a43b1b03d2b10235767d450260405160405180910390a350565b600061030083836106a4565b9392505050565b6103113382610701565b6040516001600160a01b0382169033907fc931b7e6f18c2a39bcd066690c46c7ba85186501c524faa844ac2c7213d1732590600090a350565b610354338261079d565b6040516001600160a01b0382169033907f6661a7108aecd07864384529117d96c319c1163e3010c01390f6b704726e07de90600090a350565b6001600160a01b038082166000908152600080516020610bdc8339815191526020908152604080832093861683526003909301905290812054600114610300565b600080516020610bbc8339815191527fe761a213764bd39775162bc4a0a407e0f1d3a0dc17b7e3c6caf96a032d7d3f6460018314156104715780600201548410156040518060400160405280600681526020016530303930303360d01b815250906104555760405162461bcd60e51b815260040161044c9190610b50565b60405180910390fd5b5050336000908152600191820160205260409020019190915550565b50336000908152600191909101602052604090209190915550565b610496338261087b565b6040516001600160a01b0382169033907f35672c674c91f8b0025681a1c8d11a4ca6583e909553290ecfb3d6578faa8bce90600090a350565b60006104db8484610957565b156104e857506000610300565b6001821415610501576104fa8361096f565b9050610300565b61050a836109ff565b949350505050565b73__$12e09585895387ce02ac6aed6be83b2468$__630c8273e6336040516001600160e01b031960e084901b1681526001600160a01b039182166004820152908416602482015260440160006040518083038186803b15801561057457600080fd5b505af4158015610588573d6000803e3d6000fd5b505050506105933390565b6001600160a01b0316816001600160a01b03167fbccc71dc7842b86291138666aa18e133ee6d41aa71e6d7c650debad1a057663560405160405180910390a350565b60006103008383610957565b73__$12e09585895387ce02ac6aed6be83b2468$__63f2b60562336040516001600160e01b031960e084901b1681526001600160a01b039182166004820152908416602482015260440160006040518083038186803b15801561064357600080fd5b505af4158015610657573d6000803e3d6000fd5b505050506106623390565b6001600160a01b0316816001600160a01b03167fe5dcccfe8e7890c6d4aa94d44c3b409fb6f023337f29c3308077c0c4068192c460405160405180910390a350565b6000600080516020610bbc83398151915260015b6001600160a01b0380851660009081526001840160209081526040808320938916835260049093019052205460ff1660028111156106f8576106f8610ba5565b14949350505050565b60408051808201909152600681526518181a98181b60d11b6020820152600080516020610bbc833981519152906001600160a01b03848116908416141561075b5760405162461bcd60e51b815260040161044c9190610b50565b506001600160a01b038084166000908152600183810160209081526040808420948716845260049094019052919020805460ff191682805b0217905550505050565b6001600160a01b038281166000908152600080516020610bdc833981519152602090815260408083209385168352600490930190522054600080516020610bbc8339815191529060019060ff1660028111156107fb576107fb610ba5565b14156040518060400160405280600681526020016518181a98181960d11b8152509061083a5760405162461bcd60e51b815260040161044c9190610b50565b506001600160a01b038084166000908152600180840160209081526040808420948716845260049094019052919020805460029260ff199091169083610793565b6001600160a01b038281166000908152600080516020610bdc833981519152602090815260408083209385168352600490930190522054600080516020610bbc8339815191529060019060ff1660028111156108d9576108d9610ba5565b146040518060400160405280600681526020016530303530303760d01b815250906109175760405162461bcd60e51b815260040161044c9190610b50565b506001600160a01b03808416600090815260018084016020908152604080842094871684526004909401905291812080549192909160ff19169083610793565b6000600080516020610bbc83398151915260026106b8565b6001600160a01b0381166000908152600080516020610bdc8339815191526020526040812060010154600080516020610bbc833981519152907fe761a213764bd39775162bc4a0a407e0f1d3a0dc17b7e3c6caf96a032d7d3f64906109d957600201549392505050565b506001600160a01b03909216600090815260019283016020526040902090910154919050565b6001600160a01b0381166000908152600080516020610bdc8339815191526020526040812054600080516020610bbc833981519152907fe761a213764bd39775162bc4a0a407e0f1d3a0dc17b7e3c6caf96a032d7d3f6490610a6657600101549392505050565b506001600160a01b039092166000908152600190920160205250604090205490565b80356001600160a01b0381168114610a9f57600080fd5b919050565b600060208284031215610ab657600080fd5b61030082610a88565b60008060408385031215610ad257600080fd5b610adb83610a88565b9150610ae960208401610a88565b90509250929050565b600080600060608486031215610b0757600080fd5b610b1084610a88565b9250610b1e60208501610a88565b9150604084013590509250925092565b60008060408385031215610b4157600080fd5b50508035926020909101359150565b600060208083528351808285015260005b81811015610b7d57858101830151858201604001528201610b61565b81811115610b8f576000604083870101525b50601f01601f1916929092016040019392505050565b634e487b7160e01b600052602160045260246000fdfe542a208c7d2fa3ea28f94718c04f12864ccbca69fd520e2dcf2a6b2bf2ea30f6542a208c7d2fa3ea28f94718c04f12864ccbca69fd520e2dcf2a6b2bf2ea30f7a26469706673582212204798b106c3b331f9742bc9be2e223290f800551611e2e58da3fd7baddf18741364736f6c63430008060033",
  "linkReferences": {
    "contracts/libraries/LibUser.sol": {
      "LibUser": [
        {
          "length": 20,
          "start": 595
        },
        {
          "length": 20,
          "start": 1332
        },
        {
          "length": 20,
          "start": 1539
        }
      ]
    }
  },
  "deployedLinkReferences": {
    "contracts/libraries/LibUser.sol": {
      "LibUser": [
        {
          "length": 20,
          "start": 563
        },
        {
          "length": 20,
          "start": 1300
        },
        {
          "length": 20,
          "start": 1507
        }
      ]
    }
  }
}