{
  "_format": "hh-sol-artifact-1",
  "contractName": "UserFacet",
  "sourceName": "contracts/facets/UserFacet.sol",
  "abi": [
    {
      "anonymous": false,
      "inputs": [
        {
          "indexed": false,
          "internalType": "address",
          "name": "receiver",
          "type": "address"
        },
        {
          "indexed": false,
          "internalType": "uint256",
          "name": "amount",
          "type": "uint256"
        }
      ],
      "name": "AmountReceived",
      "type": "event"
    },
    {
      "anonymous": false,
      "inputs": [
        {
          "indexed": true,
          "internalType": "address",
          "name": "blocker",
          "type": "address"
        },
        {
          "indexed": true,
          "internalType": "address",
          "name": "blocked",
          "type": "address"
        }
      ],
      "name": "Blocked",
      "type": "event"
    },
    {
      "anonymous": false,
      "inputs": [
        {
          "indexed": false,
          "internalType": "address",
          "name": "sender",
          "type": "address"
        },
        {
          "indexed": false,
          "internalType": "address",
          "name": "donationAddress",
          "type": "address"
        }
      ],
      "name": "DonationAddressChanged",
      "type": "event"
    },
    {
      "anonymous": false,
      "inputs": [
        {
          "indexed": true,
          "internalType": "address",
          "name": "followed",
          "type": "address"
        },
        {
          "indexed": true,
          "internalType": "address",
          "name": "follower",
          "type": "address"
        }
      ],
      "name": "Follow",
      "type": "event"
    },
    {
      "anonymous": false,
      "inputs": [
        {
          "indexed": true,
          "internalType": "address",
          "name": "user",
          "type": "address"
        }
      ],
      "name": "RegisterFiatUser",
      "type": "event"
    },
    {
      "anonymous": false,
      "inputs": [
        {
          "indexed": true,
          "internalType": "address",
          "name": "unblocker",
          "type": "address"
        },
        {
          "indexed": true,
          "internalType": "address",
          "name": "unblocked",
          "type": "address"
        }
      ],
      "name": "UnBlock",
      "type": "event"
    },
    {
      "anonymous": false,
      "inputs": [
        {
          "indexed": true,
          "internalType": "address",
          "name": "unfollowed",
          "type": "address"
        },
        {
          "indexed": true,
          "internalType": "address",
          "name": "unfollower",
          "type": "address"
        }
      ],
      "name": "UnFollow",
      "type": "event"
    },
    {
      "anonymous": false,
      "inputs": [
        {
          "indexed": true,
          "internalType": "address",
          "name": "unwhitelister",
          "type": "address"
        },
        {
          "indexed": true,
          "internalType": "address",
          "name": "unwhitelisted",
          "type": "address"
        }
      ],
      "name": "UnWhitelisted",
      "type": "event"
    },
    {
      "anonymous": false,
      "inputs": [
        {
          "indexed": false,
          "internalType": "address",
          "name": "sender",
          "type": "address"
        },
        {
          "indexed": false,
          "internalType": "address",
          "name": "receiver",
          "type": "address"
        },
        {
          "indexed": false,
          "internalType": "string",
          "name": "message",
          "type": "string"
        }
      ],
      "name": "UserValidation",
      "type": "event"
    },
    {
      "anonymous": false,
      "inputs": [
        {
          "indexed": true,
          "internalType": "address",
          "name": "whitelister",
          "type": "address"
        },
        {
          "indexed": true,
          "internalType": "address",
          "name": "whitelisted",
          "type": "address"
        }
      ],
      "name": "Whitelisted",
      "type": "event"
    },
    {
      "anonymous": false,
      "inputs": [
        {
          "indexed": true,
          "internalType": "address",
          "name": "user",
          "type": "address"
        },
        {
          "indexed": false,
          "internalType": "uint256",
          "name": "value",
          "type": "uint256"
        }
      ],
      "name": "Withdraw",
      "type": "event"
    },
    {
      "inputs": [
        {
          "internalType": "bytes",
          "name": "data_",
          "type": "bytes"
        },
        {
          "internalType": "bytes",
          "name": "signature_",
          "type": "bytes"
        }
      ],
      "name": "blockUser",
      "outputs": [],
      "stateMutability": "nonpayable",
      "type": "function"
    },
    {
      "inputs": [
        {
          "internalType": "address",
          "name": "blocked_",
          "type": "address"
        },
        {
          "internalType": "address",
          "name": "blocker_",
          "type": "address"
        }
      ],
      "name": "checkBlocked",
      "outputs": [
        {
          "internalType": "bool",
          "name": "",
          "type": "bool"
        }
      ],
      "stateMutability": "view",
      "type": "function"
    },
    {
      "inputs": [
        {
          "internalType": "address",
          "name": "address_",
          "type": "address"
        }
      ],
      "name": "checkFiatUser",
      "outputs": [
        {
          "internalType": "bool",
          "name": "",
          "type": "bool"
        }
      ],
      "stateMutability": "view",
      "type": "function"
    },
    {
      "inputs": [
        {
          "internalType": "address",
          "name": "sender_",
          "type": "address"
        },
        {
          "internalType": "address",
          "name": "recipient_",
          "type": "address"
        }
      ],
      "name": "checkFollower",
      "outputs": [
        {
          "internalType": "bool",
          "name": "",
          "type": "bool"
        }
      ],
      "stateMutability": "view",
      "type": "function"
    },
    {
      "inputs": [
        {
          "internalType": "address",
          "name": "whitelisted_",
          "type": "address"
        },
        {
          "internalType": "address",
          "name": "whitelister_",
          "type": "address"
        }
      ],
      "name": "checkWhitelist",
      "outputs": [
        {
          "internalType": "bool",
          "name": "",
          "type": "bool"
        }
      ],
      "stateMutability": "view",
      "type": "function"
    },
    {
      "inputs": [],
      "name": "disableFiatUsers",
      "outputs": [],
      "stateMutability": "nonpayable",
      "type": "function"
    },
    {
      "inputs": [],
      "name": "enableFiatUsers",
      "outputs": [],
      "stateMutability": "nonpayable",
      "type": "function"
    },
    {
      "inputs": [
        {
          "internalType": "bytes",
          "name": "data_",
          "type": "bytes"
        },
        {
          "internalType": "bytes",
          "name": "signature_",
          "type": "bytes"
        }
      ],
      "name": "followUser",
      "outputs": [],
      "stateMutability": "nonpayable",
      "type": "function"
    },
    {
      "inputs": [
        {
          "internalType": "address",
          "name": "sender_",
          "type": "address"
        },
        {
          "internalType": "address",
          "name": "recipient_",
          "type": "address"
        }
      ],
      "name": "getUserMinimumBid",
      "outputs": [
        {
          "internalType": "uint256",
          "name": "",
          "type": "uint256"
        }
      ],
      "stateMutability": "view",
      "type": "function"
    },
    {
      "inputs": [
        {
          "internalType": "bytes",
          "name": "data_",
          "type": "bytes"
        },
        {
          "internalType": "bytes",
          "name": "signature_",
          "type": "bytes"
        }
      ],
      "name": "provideValidation",
      "outputs": [],
      "stateMutability": "nonpayable",
      "type": "function"
    },
    {
      "inputs": [
        {
          "internalType": "bytes",
          "name": "data_",
          "type": "bytes"
        },
        {
          "internalType": "bytes",
          "name": "signature_",
          "type": "bytes"
        }
      ],
      "name": "registerFiatUser",
      "outputs": [],
      "stateMutability": "nonpayable",
      "type": "function"
    },
    {
      "inputs": [
        {
          "internalType": "bytes",
          "name": "data_",
          "type": "bytes"
        },
        {
          "internalType": "bytes",
          "name": "signature_",
          "type": "bytes"
        }
      ],
      "name": "setDonationAddress",
      "outputs": [],
      "stateMutability": "nonpayable",
      "type": "function"
    },
    {
      "inputs": [
        {
          "internalType": "bytes",
          "name": "data_",
          "type": "bytes"
        },
        {
          "internalType": "bytes",
          "name": "signature_",
          "type": "bytes"
        }
      ],
      "name": "setUserMinimumBid",
      "outputs": [],
      "stateMutability": "nonpayable",
      "type": "function"
    },
    {
      "inputs": [
        {
          "internalType": "bytes",
          "name": "data_",
          "type": "bytes"
        },
        {
          "internalType": "bytes",
          "name": "signature_",
          "type": "bytes"
        }
      ],
      "name": "unBlockUser",
      "outputs": [],
      "stateMutability": "nonpayable",
      "type": "function"
    },
    {
      "inputs": [
        {
          "internalType": "bytes",
          "name": "data_",
          "type": "bytes"
        },
        {
          "internalType": "bytes",
          "name": "signature_",
          "type": "bytes"
        }
      ],
      "name": "unFollowUser",
      "outputs": [],
      "stateMutability": "nonpayable",
      "type": "function"
    },
    {
      "inputs": [
        {
          "internalType": "bytes",
          "name": "data_",
          "type": "bytes"
        },
        {
          "internalType": "bytes",
          "name": "signature_",
          "type": "bytes"
        }
      ],
      "name": "unWhitelistUser",
      "outputs": [],
      "stateMutability": "nonpayable",
      "type": "function"
    },
    {
      "inputs": [
        {
          "internalType": "bytes",
          "name": "data_",
          "type": "bytes"
        },
        {
          "internalType": "bytes",
          "name": "signature_",
          "type": "bytes"
        }
      ],
      "name": "whitelistUser",
      "outputs": [],
      "stateMutability": "nonpayable",
      "type": "function"
    },
    {
      "stateMutability": "payable",
      "type": "receive"
    }
  ],
  "bytecode": "0x608060405234801561001057600080fd5b50611c55806100206000396000f3fe6080604052600436106101025760003560e01c806379a91a1d11610095578063aad9954b11610064578063aad9954b146102e0578063c8fa6223146102f5578063d6690d2214610315578063dc1a091114610335578063e43705fd1461035557600080fd5b806379a91a1d14610260578063a0d49a7514610280578063a3188f44146102a0578063a6560da0146102c057600080fd5b8063584b5126116100d1578063584b5126146101e05780635ab0298b14610200578063693a4da51461022057806375ba14581461024057600080fd5b80632c5f282c146101465780632c8d6fd614610179578063352e048d146101a957806355afa0d5146101cb57600080fd5b366101415760408051600081523460208201527e36624afd4ac14e2ebe9b68a6ec0c6e4f6bf5bde2999a61e1fec085ca86697d910160405180910390a1005b600080fd5b34801561015257600080fd5b506101666101613660046117d0565b610375565b6040519081526020015b60405180910390f35b34801561018557600080fd5b506101996101943660046117d0565b61038a565b6040519015158152602001610170565b3480156101b557600080fd5b506101c96101c4366004611809565b610396565b005b3480156101d757600080fd5b506101c9610400565b3480156101ec57600080fd5b506101996101fb3660046117d0565b61042b565b34801561020c57600080fd5b506101c961021b366004611809565b61046c565b34801561022c57600080fd5b506101c961023b366004611809565b6104ed565b34801561024c57600080fd5b506101c961025b366004611809565b610674565b34801561026c57600080fd5b506101c961027b366004611809565b6106d8565b34801561028c57600080fd5b506101c961029b366004611809565b6107a2565b3480156102ac57600080fd5b506101c96102bb366004611809565b610806565b3480156102cc57600080fd5b506101c96102db366004611809565b610888565b3480156102ec57600080fd5b506101c96108ec565b34801561030157600080fd5b506101c9610310366004611809565b610910565b34801561032157600080fd5b506101c9610330366004611809565b610a34565b34801561034157600080fd5b506101996103503660046117d0565b610b16565b34801561036157600080fd5b506101996103703660046117b3565b610b22565b60006103818383610b67565b90505b92915050565b60006103818383610bab565b6000806103a38484610c08565b915091506103b18282610cac565b806001600160a01b0316826001600160a01b03167fc931b7e6f18c2a39bcd066690c46c7ba85186501c524faa844ac2c7213d1732560405160405180910390a36103fa82610d48565b50505050565b61040a6000610d83565b6000600080516020611be0833981519152805461ff00191661010017905550565b6001600160a01b038082166000908152600080516020611c008339815191526020908152604080832093861683526002909301905290812054600114610381565b6000806104798484610c08565b6001600160a01b038181166000818152600080516020611c0083398151915260209081526040808320948716808452600290950190915280822082905551949650929450909290917fe5dcccfe8e7890c6d4aa94d44c3b409fb6f023337f29c3308077c0c4068192c491a36103fa82610d48565b60008083806020019051810190610504919061186d565b604080517f5695a4b20f4dde184b37227b51421152d83fbfd46cff3e8b5514ce6d1eb2f92360208201529081018390526001600160a01b03821660608201529193509150600090608001604051602081830303815290604052805190602001209050600061057d600080516020611be083398151915290565b805490915060ff6101009091041615156001146105e15760405162461bcd60e51b815260206004820152601d60248201527f46756e6374696f6e616c697479206e6f7420656e61626c65642079657400000060448201526064015b60405180910390fd5b6105ed83858488610d90565b6001600160a01b03831660009081527f542a208c7d2fa3ea28f94718c04f12864ccbca69fd520e2dcf2a6b2bf2ea30f860205260409020805460ff1916600117905561063883610d48565b6040516001600160a01b038416907fe3d974f9f1875acff26f1e9ec90e1938637a028a86824b4b70b4c09daf28ac7b90600090a2505050505050565b6000806106818484610c08565b9150915061068f8282610f87565b806001600160a01b0316826001600160a01b03167f35672c674c91f8b0025681a1c8d11a4ca6583e909553290ecfb3d6578faa8bce60405160405180910390a36103fa82610d48565b6000806000848060200190518101906106f1919061197d565b604080517ff2384beec469a5997f03f972a5df281300d83ac76d3a0d07434baa5ea64caf9660208201529081018490526001600160a01b038316606082015260808101829052929550909350915060009060a00160405160208183030381529060405280519060200120905061076983858388610d90565b6001600160a01b0383166000908152600080516020611c008339815191526020526040902082905561079a83610d48565b505050505050565b6000806107af8484610c08565b915091506107bd8282611063565b806001600160a01b0316826001600160a01b03167f6661a7108aecd07864384529117d96c319c1163e3010c01390f6b704726e07de60405160405180910390a36103fa82610d48565b6000806108138484610c08565b6001600160a01b038181166000818152600080516020611c008339815191526020908152604080832094871680845260029095019091528082206001905551949650929450909290917fbccc71dc7842b86291138666aa18e133ee6d41aa71e6d7c650debad1a057663591a36103fa82610d48565b6000806108958484610c08565b915091506108a38282611141565b806001600160a01b0316826001600160a01b03167fdc9ec6c8ca20e67e0cbecb5536d5c021046dd6a9a43b1b03d2b10235767d450260405160405180910390a36103fa82610d48565b6108f66000610d83565b600080516020611be0833981519152805461ff0019169055565b6000806000848060200190518101906109299190611892565b604080517f0252915b1b821c92e6b4e7b973718dc349a4a823a7429a388c00ba4d7770611760208201529081018490526001600160a01b03808416606083015282166080820152929550909350915060009060a0016040516020818303038152906040528051906020012090506109a283858388610d90565b6001600160a01b038084166000908152600080516020611c008339815191526020526040902060010180546001600160a01b0319169184169190911790556109e983610d48565b604080516001600160a01b038086168252841660208201527f7adec0078a1aa551307b5da076a364f92fa5758489865fcbe552804f5d936466910160405180910390a1505050505050565b60008060008085806020019051810190610a4e91906118d5565b8051602080830191909120604080517f98f19a54108e91e60c66b40e1ca5c87c0b4268b2ffa3b4ba7957ca6bcd9c8323818501528082018890526001600160a01b0387811660608301528616608082015260a0808201939093528151808203909301835260c0019052805191012093975091955093509150610ad284868389610d90565b7f8cb53ba58e6b58f4456b623f61a5b8776a23ac36733b731d50fd9e40ee39c0fc848484604051610b0593929190611a57565b60405180910390a150505050505050565b60006103818383611199565b6001600160a01b03811660009081527f542a208c7d2fa3ea28f94718c04f12864ccbca69fd520e2dcf2a6b2bf2ea30f8602052604081205460ff161515600114610384565b6000610b738383611199565b15610b8057506000610384565b506001600160a01b03166000908152600080516020611c008339815191526020526040902054919050565b6000600080516020611be083398151915260015b6001600160a01b0380851660009081526001840160209081526040808320938916835260039093019052205460ff166002811115610bff57610bff611b88565b14949350505050565b600080600080600086806020019051810190610c249190611892565b604080517fe010a6fc3235938d082ed94d0a974f1cfcc730c763fbe50fcab0aeb8d6c9c6f860208201529081018490526001600160a01b03808416606083015282166080820152929550909350915060009060a001604051602081830303815290604052805190602001209050610c9d8385838a610d90565b509093509150505b9250929050565b60408051808201909152600681526518181a98181b60d11b6020820152600080516020611be0833981519152906001600160a01b038481169084161415610d065760405162461bcd60e51b81526004016105d89190611a8c565b506001600160a01b038084166000908152600183810160209081526040808420948716845260039094019052919020805460ff191682805b0217905550505050565b6001600160a01b031660009081527f793ba39717776526f812abdc4711d8c8f539f0d8595e4dc61cd8bbf5affeabc460205260409020429055565b610d8d81336111b1565b50565b6000610dba7f793ba39717776526f812abdc4711d8c8f539f0d8595e4dc61cd8bbf5affeabc25490565b60405161190160f01b60208201526022810191909152604281018490526062016040516020818303038152906040528051906020012090506000610dfe8284611254565b9050806001600160a01b0316866001600160a01b031614610e615760405162461bcd60e51b815260206004820152601d60248201527f4d7946756e6374696f6e3a20696e76616c6964207369676e617475726500000060448201526064016105d8565b6001600160a01b038116610eb25760405162461bcd60e51b815260206004820152601860248201527745434453413a20696e76616c6964207369676e617475726560401b60448201526064016105d8565b7f793ba39717776526f812abdc4711d8c8f539f0d8595e4dc61cd8bbf5affeabc1610edf4261012c611af8565b8610610f215760405162461bcd60e51b8152602060048201526011602482015270151a5b595cdd185b5c08195e1c1a5c9959607a1b60448201526064016105d8565b6001600160a01b03871660009081526003820160205260409020548611610f7e5760405162461bcd60e51b815260206004820152601160248201527029ba30b632902a3930b739b0b1ba34b7b760791b60448201526064016105d8565b50505050505050565b6001600160a01b038281166000908152600080516020611c00833981519152602090815260408083209385168352600390930190522054600080516020611be08339815191529060019060ff166002811115610fe557610fe5611b88565b146040518060400160405280600681526020016530303530303760d01b815250906110235760405162461bcd60e51b81526004016105d89190611a8c565b506001600160a01b03808416600090815260018084016020908152604080842094871684526003909401905291812080549192909160ff19169083610d3e565b6001600160a01b038281166000908152600080516020611c00833981519152602090815260408083209385168352600390930190522054600080516020611be08339815191529060019060ff1660028111156110c1576110c1611b88565b14156040518060400160405280600681526020016518181a98181960d11b815250906111005760405162461bcd60e51b81526004016105d89190611a8c565b506001600160a01b038084166000908152600180840160209081526040808420948716845260039094019052919020805460029260ff199091169083610d3e565b6001600160a01b038281166000908152600080516020611c00833981519152602090815260408083209385168352600390930190529081208054600080516020611be083398151915292919060ff1916600183610d3e565b6000600080516020611be08339815191526002610bbf565b60008281527fe60be0110dc1792cd793dc6d2d18db752d6e49771db52ffb0dfa2892dbc86d2d602090815260408083206001600160a01b038516845290915290205460ff166112505761120e816001600160a01b03166014611278565b611219836020611278565b60405160200161122a9291906119e2565b60408051601f198184030181529082905262461bcd60e51b82526105d891600401611a8c565b5050565b60008060006112638585611414565b9150915061127081611481565b509392505050565b60606000611287836002611b10565b611292906002611af8565b67ffffffffffffffff8111156112aa576112aa611bb4565b6040519080825280601f01601f1916602001820160405280156112d4576020820181803683370190505b509050600360fc1b816000815181106112ef576112ef611b9e565b60200101906001600160f81b031916908160001a905350600f60fb1b8160018151811061131e5761131e611b9e565b60200101906001600160f81b031916908160001a9053506000611342846002611b10565b61134d906001611af8565b90505b60018111156113c5576f181899199a1a9b1b9c1cb0b131b232b360811b85600f166010811061138157611381611b9e565b1a60f81b82828151811061139757611397611b9e565b60200101906001600160f81b031916908160001a90535060049490941c936113be81611b5b565b9050611350565b5083156103815760405162461bcd60e51b815260206004820181905260248201527f537472696e67733a20686578206c656e67746820696e73756666696369656e7460448201526064016105d8565b60008082516041141561144b5760208301516040840151606085015160001a61143f87828585611637565b94509450505050610ca5565b825160401415611475576020830151604084015161146a868383611724565b935093505050610ca5565b50600090506002610ca5565b600081600481111561149557611495611b88565b141561149e5750565b60018160048111156114b2576114b2611b88565b14156114fb5760405162461bcd60e51b815260206004820152601860248201527745434453413a20696e76616c6964207369676e617475726560401b60448201526064016105d8565b600281600481111561150f5761150f611b88565b141561155d5760405162461bcd60e51b815260206004820152601f60248201527f45434453413a20696e76616c6964207369676e6174757265206c656e6774680060448201526064016105d8565b600381600481111561157157611571611b88565b14156115ca5760405162461bcd60e51b815260206004820152602260248201527f45434453413a20696e76616c6964207369676e6174757265202773272076616c604482015261756560f01b60648201526084016105d8565b60048160048111156115de576115de611b88565b1415610d8d5760405162461bcd60e51b815260206004820152602260248201527f45434453413a20696e76616c6964207369676e6174757265202776272076616c604482015261756560f01b60648201526084016105d8565b6000807f7fffffffffffffffffffffffffffffff5d576e7357a4501ddfe92f46681b20a083111561166e575060009050600361171b565b8460ff16601b1415801561168657508460ff16601c14155b15611697575060009050600461171b565b6040805160008082526020820180845289905260ff881692820192909252606081018690526080810185905260019060a0016020604051602081039080840390855afa1580156116eb573d6000803e3d6000fd5b5050604051601f1901519150506001600160a01b0381166117145760006001925092505061171b565b9150600090505b94509492505050565b6000806001600160ff1b0383168161174160ff86901c601b611af8565b905061174f87828885611637565b935093505050935093915050565b600082601f83011261176e57600080fd5b813561178161177c82611ad0565b611a9f565b81815284602083860101111561179657600080fd5b816020850160208301376000918101602001919091529392505050565b6000602082840312156117c557600080fd5b813561038181611bca565b600080604083850312156117e357600080fd5b82356117ee81611bca565b915060208301356117fe81611bca565b809150509250929050565b6000806040838503121561181c57600080fd5b823567ffffffffffffffff8082111561183457600080fd5b6118408683870161175d565b9350602085013591508082111561185657600080fd5b506118638582860161175d565b9150509250929050565b6000806040838503121561188057600080fd5b8251915060208301516117fe81611bca565b6000806000606084860312156118a757600080fd5b8351925060208401516118b981611bca565b60408501519092506118ca81611bca565b809150509250925092565b600080600080608085870312156118eb57600080fd5b8451935060208501516118fd81611bca565b604086015190935061190e81611bca565b606086015190925067ffffffffffffffff81111561192b57600080fd5b8501601f8101871361193c57600080fd5b805161194a61177c82611ad0565b81815288602083850101111561195f57600080fd5b611970826020830160208601611b2f565b9598949750929550505050565b60008060006060848603121561199257600080fd5b8351925060208401516119a481611bca565b80925050604084015190509250925092565b600081518084526119ce816020860160208601611b2f565b601f01601f19169290920160200192915050565b7f416363657373436f6e74726f6c3a206163636f756e7420000000000000000000815260008351611a1a816017850160208801611b2f565b7001034b99036b4b9b9b4b733903937b6329607d1b6017918401918201528351611a4b816028840160208801611b2f565b01602801949350505050565b6001600160a01b03848116825283166020820152606060408201819052600090611a83908301846119b6565b95945050505050565b60208152600061038160208301846119b6565b604051601f8201601f1916810167ffffffffffffffff81118282101715611ac857611ac8611bb4565b604052919050565b600067ffffffffffffffff821115611aea57611aea611bb4565b50601f01601f191660200190565b60008219821115611b0b57611b0b611b72565b500190565b6000816000190483118215151615611b2a57611b2a611b72565b500290565b60005b83811015611b4a578181015183820152602001611b32565b838111156103fa5750506000910152565b600081611b6a57611b6a611b72565b506000190190565b634e487b7160e01b600052601160045260246000fd5b634e487b7160e01b600052602160045260246000fd5b634e487b7160e01b600052603260045260246000fd5b634e487b7160e01b600052604160045260246000fd5b6001600160a01b0381168114610d8d57600080fdfe542a208c7d2fa3ea28f94718c04f12864ccbca69fd520e2dcf2a6b2bf2ea30f6542a208c7d2fa3ea28f94718c04f12864ccbca69fd520e2dcf2a6b2bf2ea30f7a2646970667358221220c39aa0b03dfb4cccddc916ead6ef7346d6e52b9fc1a29dd8dfeaef1fbe1fb1d964736f6c63430008060033",
  "linkReferences": {},
  "deployedLinkReferences": {}
}