{
  "_format": "hh-sol-artifact-1",
  "contractName": "UserFacet",
  "sourceName": "contracts/facets/UserFacet.sol",
  "abi": [
    {
      "anonymous": false,
      "inputs": [
        {
          "indexed": true,
          "internalType": "address",
          "name": "receiver",
          "type": "address"
        },
        {
          "indexed": false,
          "internalType": "uint256",
          "name": "value",
          "type": "uint256"
        }
      ],
      "name": "AmountReceived",
      "type": "event"
    },
    {
      "anonymous": false,
      "inputs": [
        {
          "indexed": true,
          "internalType": "address",
          "name": "blocker",
          "type": "address"
        },
        {
          "indexed": true,
          "internalType": "address",
          "name": "blocked",
          "type": "address"
        }
      ],
      "name": "Blocked",
      "type": "event"
    },
    {
      "anonymous": false,
      "inputs": [
        {
          "indexed": true,
          "internalType": "address",
          "name": "followed",
          "type": "address"
        },
        {
          "indexed": true,
          "internalType": "address",
          "name": "follower",
          "type": "address"
        }
      ],
      "name": "Follow",
      "type": "event"
    },
    {
      "anonymous": false,
      "inputs": [
        {
          "indexed": true,
          "internalType": "address",
          "name": "sender",
          "type": "address"
        },
        {
          "indexed": true,
          "internalType": "address",
          "name": "recipient",
          "type": "address"
        },
        {
          "indexed": false,
          "internalType": "uint256",
          "name": "value",
          "type": "uint256"
        }
      ],
      "name": "Transfer",
      "type": "event"
    },
    {
      "anonymous": false,
      "inputs": [
        {
          "indexed": true,
          "internalType": "address",
          "name": "unblocker",
          "type": "address"
        },
        {
          "indexed": true,
          "internalType": "address",
          "name": "unblocked",
          "type": "address"
        }
      ],
      "name": "UnBlock",
      "type": "event"
    },
    {
      "anonymous": false,
      "inputs": [
        {
          "indexed": true,
          "internalType": "address",
          "name": "unfollowed",
          "type": "address"
        },
        {
          "indexed": true,
          "internalType": "address",
          "name": "unfollower",
          "type": "address"
        }
      ],
      "name": "UnFollow",
      "type": "event"
    },
    {
      "anonymous": false,
      "inputs": [
        {
          "indexed": true,
          "internalType": "address",
          "name": "unwhitelister",
          "type": "address"
        },
        {
          "indexed": true,
          "internalType": "address",
          "name": "unwhitelisted",
          "type": "address"
        }
      ],
      "name": "UnWhitelisted",
      "type": "event"
    },
    {
      "anonymous": false,
      "inputs": [
        {
          "indexed": true,
          "internalType": "address",
          "name": "whitelister",
          "type": "address"
        },
        {
          "indexed": true,
          "internalType": "address",
          "name": "whitelisted",
          "type": "address"
        }
      ],
      "name": "Whitelisted",
      "type": "event"
    },
    {
      "anonymous": false,
      "inputs": [
        {
          "indexed": true,
          "internalType": "address",
          "name": "user",
          "type": "address"
        },
        {
          "indexed": false,
          "internalType": "uint256",
          "name": "value",
          "type": "uint256"
        }
      ],
      "name": "Withdraw",
      "type": "event"
    },
    {
      "inputs": [
        {
          "internalType": "address",
          "name": "address_",
          "type": "address"
        }
      ],
      "name": "blockUser",
      "outputs": [],
      "stateMutability": "nonpayable",
      "type": "function"
    },
    {
      "inputs": [
        {
          "internalType": "address",
          "name": "blocked_",
          "type": "address"
        },
        {
          "internalType": "address",
          "name": "blocker_",
          "type": "address"
        }
      ],
      "name": "checkBlocked",
      "outputs": [
        {
          "internalType": "bool",
          "name": "",
          "type": "bool"
        }
      ],
      "stateMutability": "view",
      "type": "function"
    },
    {
      "inputs": [
        {
          "internalType": "address",
          "name": "sender_",
          "type": "address"
        },
        {
          "internalType": "address",
          "name": "recipient_",
          "type": "address"
        }
      ],
      "name": "checkFollower",
      "outputs": [
        {
          "internalType": "bool",
          "name": "",
          "type": "bool"
        }
      ],
      "stateMutability": "view",
      "type": "function"
    },
    {
      "inputs": [
        {
          "internalType": "address",
          "name": "whitelisted_",
          "type": "address"
        },
        {
          "internalType": "address",
          "name": "whitelister_",
          "type": "address"
        }
      ],
      "name": "checkWhitelist",
      "outputs": [
        {
          "internalType": "bool",
          "name": "",
          "type": "bool"
        }
      ],
      "stateMutability": "view",
      "type": "function"
    },
    {
      "inputs": [
        {
          "internalType": "address",
          "name": "address_",
          "type": "address"
        }
      ],
      "name": "followUser",
      "outputs": [],
      "stateMutability": "nonpayable",
      "type": "function"
    },
    {
      "inputs": [
        {
          "internalType": "address",
          "name": "_sender",
          "type": "address"
        },
        {
          "internalType": "address",
          "name": "_recipient",
          "type": "address"
        },
        {
          "internalType": "uint256",
          "name": "_messageType",
          "type": "uint256"
        }
      ],
      "name": "getUserMinimumBid",
      "outputs": [
        {
          "internalType": "uint256",
          "name": "",
          "type": "uint256"
        }
      ],
      "stateMutability": "view",
      "type": "function"
    },
    {
      "inputs": [
        {
          "internalType": "uint256",
          "name": "minimumBidByUser",
          "type": "uint256"
        },
        {
          "internalType": "uint256",
          "name": "_messageType",
          "type": "uint256"
        }
      ],
      "name": "setUserMinimumBid",
      "outputs": [],
      "stateMutability": "nonpayable",
      "type": "function"
    },
    {
      "inputs": [
        {
          "internalType": "uint256",
          "name": "amount_",
          "type": "uint256"
        },
        {
          "internalType": "address",
          "name": "recipient_",
          "type": "address"
        }
      ],
      "name": "transfer",
      "outputs": [],
      "stateMutability": "nonpayable",
      "type": "function"
    },
    {
      "inputs": [
        {
          "internalType": "address",
          "name": "address_",
          "type": "address"
        }
      ],
      "name": "unBlockUser",
      "outputs": [],
      "stateMutability": "nonpayable",
      "type": "function"
    },
    {
      "inputs": [
        {
          "internalType": "address",
          "name": "address_",
          "type": "address"
        }
      ],
      "name": "unWhitelistUser",
      "outputs": [],
      "stateMutability": "nonpayable",
      "type": "function"
    },
    {
      "inputs": [
        {
          "internalType": "address",
          "name": "address_",
          "type": "address"
        }
      ],
      "name": "unfollowUser",
      "outputs": [],
      "stateMutability": "nonpayable",
      "type": "function"
    },
    {
      "inputs": [],
      "name": "userBalance",
      "outputs": [
        {
          "internalType": "uint256",
          "name": "",
          "type": "uint256"
        }
      ],
      "stateMutability": "view",
      "type": "function"
    },
    {
      "inputs": [
        {
          "internalType": "address",
          "name": "address_",
          "type": "address"
        }
      ],
      "name": "whitelistUser",
      "outputs": [],
      "stateMutability": "nonpayable",
      "type": "function"
    },
    {
      "inputs": [
        {
          "internalType": "uint256",
          "name": "_amount",
          "type": "uint256"
        }
      ],
      "name": "withdraw",
      "outputs": [],
      "stateMutability": "nonpayable",
      "type": "function"
    },
    {
      "stateMutability": "payable",
      "type": "receive"
    }
  ],
  "bytecode": "0x608060405234801561001057600080fd5b50600160005561118b806100256000396000f3fe6080604052600436106100e15760003560e01c806365f898e11161007f578063b7760c8f11610059578063b7760c8f14610252578063bf15276514610272578063dc1a091114610287578063f107cfcb146102a757600080fd5b806365f898e1146101e457806386b43d5c14610204578063a70806f71461023257600080fd5b80633da01325116100bb5780633da01325146101645780634a4c560d14610184578063584b5126146101a457806362ed7981146101c457600080fd5b8063190c69a2146100ed5780632c8d6fd61461010f5780632e1a7d4d1461014457600080fd5b366100e857005b600080fd5b3480156100f957600080fd5b5061010d610108366004610f9d565b6102c7565b005b34801561011b57600080fd5b5061012f61012a366004610fb8565b61038a565b60405190151581526020015b60405180910390f35b34801561015057600080fd5b5061010d61015f366004611027565b61039d565b34801561017057600080fd5b5061010d61017f366004610f9d565b6104fc565b34801561019057600080fd5b5061010d61019f366004610f9d565b61053f565b3480156101b057600080fd5b5061012f6101bf366004610fb8565b610582565b3480156101d057600080fd5b5061010d6101df366004611063565b6105c3565b3480156101f057600080fd5b5061010d6101ff366004610f9d565b610678565b34801561021057600080fd5b5061022461021f366004610feb565b6106bb565b60405190815260200161013b565b34801561023e57600080fd5b5061010d61024d366004610f9d565b6106fe565b34801561025e57600080fd5b5061010d61026d366004611040565b6107c1565b34801561027e57600080fd5b50610224610927565b34801561029357600080fd5b5061012f6102a2366004610fb8565b6109b0565b3480156102b357600080fd5b5061010d6102c2366004610f9d565b6109bc565b73__$12e09585895387ce02ac6aed6be83b2468$__6304464951336040516001600160e01b031960e084901b1681526001600160a01b039182166004820152908416602482015260440160006040518083038186803b15801561032957600080fd5b505af415801561033d573d6000803e3d6000fd5b50505050806001600160a01b03166103523390565b6001600160a01b03167fdc9ec6c8ca20e67e0cbecb5536d5c021046dd6a9a43b1b03d2b10235767d450260405160405180910390a350565b60006103968383610a7f565b9392505050565b600260005414156103f55760405162461bcd60e51b815260206004820152601f60248201527f5265656e7472616e637947756172643a207265656e7472616e742063616c6c0060448201526064015b60405180910390fd5b600260009081553381527f793ba39717776526f812abdc4711d8c8f539f0d8595e4dc61cd8bbf5affeabc260209081526040918290205482518084019093526006835265060606c6060760d31b918301919091527f793ba39717776526f812abdc4711d8c8f539f0d8595e4dc61cd8bbf5affeabc1919083111561048c5760405162461bcd60e51b81526004016103ec9190611085565b50336000908152600182016020526040812080548492906104ae9084906110da565b909155506104be90503383610adc565b60405182815233907f884edad9ce6fa2440d8a54cc123490eb96d2768479d49ff9c7366125a94243649060200160405180910390a250506001600055565b6105063382610bfa565b6040516001600160a01b0382169033907fc931b7e6f18c2a39bcd066690c46c7ba85186501c524faa844ac2c7213d1732590600090a350565b6105493382610c96565b6040516001600160a01b0382169033907f6661a7108aecd07864384529117d96c319c1163e3010c01390f6b704726e07de90600090a350565b6001600160a01b0380821660009081526000805160206111368339815191526020908152604080832093861683526003909301905290812054600114610396565b6000805160206111168339815191527fe761a213764bd39775162bc4a0a407e0f1d3a0dc17b7e3c6caf96a032d7d3f64600183141561065d5780600201548410156040518060400160405280600681526020016530303930303360d01b815250906106415760405162461bcd60e51b81526004016103ec9190611085565b5050336000908152600191820160205260409020019190915550565b50336000908152600191909101602052604090209190915550565b6106823382610d74565b6040516001600160a01b0382169033907f35672c674c91f8b0025681a1c8d11a4ca6583e909553290ecfb3d6578faa8bce90600090a350565b60006106c78484610e50565b156106d457506000610396565b60018214156106ed576106e683610e68565b9050610396565b6106f683610ef8565b949350505050565b73__$12e09585895387ce02ac6aed6be83b2468$__630c8273e6336040516001600160e01b031960e084901b1681526001600160a01b039182166004820152908416602482015260440160006040518083038186803b15801561076057600080fd5b505af4158015610774573d6000803e3d6000fd5b5050505061077f3390565b6001600160a01b0316816001600160a01b03167fbccc71dc7842b86291138666aa18e133ee6d41aa71e6d7c650debad1a057663560405160405180910390a350565b600260005414156108145760405162461bcd60e51b815260206004820152601f60248201527f5265656e7472616e637947756172643a207265656e7472616e742063616c6c0060448201526064016103ec565b600260009081553381527f793ba39717776526f812abdc4711d8c8f539f0d8595e4dc61cd8bbf5affeabc260209081526040918290205482518084019093526006835265060606c6060760d31b918301919091527f793ba39717776526f812abdc4711d8c8f539f0d8595e4dc61cd8bbf5affeabc191908411156108ab5760405162461bcd60e51b81526004016103ec9190611085565b50336000908152600182016020526040812080548592906108cd9084906110da565b909155506108dd90508284610adc565b6040518381526001600160a01b0383169033907fddf252ad1be2c89b69c2b068fc378daa952ba7f163c4a11628f55a4df523b3ef9060200160405180910390a35050600160005550565b3360009081527f3ef8d776de1d66b9e0815184ff4c3d8d9beb8581350184a439aea9719cb124ec60205260408120547f793ba39717776526f812abdc4711d8c8f539f0d8595e4dc61cd8bbf5affeabc19060ff161561099757600080805260019091016020526040902054919050565b3360009081526001919091016020526040902054919050565b60006103968383610e50565b73__$12e09585895387ce02ac6aed6be83b2468$__63f2b60562336040516001600160e01b031960e084901b1681526001600160a01b039182166004820152908416602482015260440160006040518083038186803b158015610a1e57600080fd5b505af4158015610a32573d6000803e3d6000fd5b50505050610a3d3390565b6001600160a01b0316816001600160a01b03167fe5dcccfe8e7890c6d4aa94d44c3b409fb6f023337f29c3308077c0c4068192c460405160405180910390a350565b600060008051602061111683398151915260015b6001600160a01b0380851660009081526001840160209081526040808320938916835260049093019052205460ff166002811115610ad357610ad36110ff565b14949350505050565b80471015610b2c5760405162461bcd60e51b815260206004820152601d60248201527f416464726573733a20696e73756666696369656e742062616c616e636500000060448201526064016103ec565b6000826001600160a01b03168260405160006040518083038185875af1925050503d8060008114610b79576040519150601f19603f3d011682016040523d82523d6000602084013e610b7e565b606091505b5050905080610bf55760405162461bcd60e51b815260206004820152603a60248201527f416464726573733a20756e61626c6520746f2073656e642076616c75652c207260448201527f6563697069656e74206d6179206861766520726576657274656400000000000060648201526084016103ec565b505050565b60408051808201909152600681526518181a98181b60d11b6020820152600080516020611116833981519152906001600160a01b038481169084161415610c545760405162461bcd60e51b81526004016103ec9190611085565b506001600160a01b038084166000908152600183810160209081526040808420948716845260049094019052919020805460ff191682805b0217905550505050565b6001600160a01b0382811660009081526000805160206111368339815191526020908152604080832093851683526004909301905220546000805160206111168339815191529060019060ff166002811115610cf457610cf46110ff565b14156040518060400160405280600681526020016518181a98181960d11b81525090610d335760405162461bcd60e51b81526004016103ec9190611085565b506001600160a01b038084166000908152600180840160209081526040808420948716845260049094019052919020805460029260ff199091169083610c8c565b6001600160a01b0382811660009081526000805160206111368339815191526020908152604080832093851683526004909301905220546000805160206111168339815191529060019060ff166002811115610dd257610dd26110ff565b146040518060400160405280600681526020016530303530303760d01b81525090610e105760405162461bcd60e51b81526004016103ec9190611085565b506001600160a01b03808416600090815260018084016020908152604080842094871684526004909401905291812080549192909160ff19169083610c8c565b60006000805160206111168339815191526002610a93565b6001600160a01b03811660009081526000805160206111368339815191526020526040812060010154600080516020611116833981519152907fe761a213764bd39775162bc4a0a407e0f1d3a0dc17b7e3c6caf96a032d7d3f6490610ed257600201549392505050565b506001600160a01b03909216600090815260019283016020526040902090910154919050565b6001600160a01b03811660009081526000805160206111368339815191526020526040812054600080516020611116833981519152907fe761a213764bd39775162bc4a0a407e0f1d3a0dc17b7e3c6caf96a032d7d3f6490610f5f57600101549392505050565b506001600160a01b039092166000908152600190920160205250604090205490565b80356001600160a01b0381168114610f9857600080fd5b919050565b600060208284031215610faf57600080fd5b61039682610f81565b60008060408385031215610fcb57600080fd5b610fd483610f81565b9150610fe260208401610f81565b90509250929050565b60008060006060848603121561100057600080fd5b61100984610f81565b925061101760208501610f81565b9150604084013590509250925092565b60006020828403121561103957600080fd5b5035919050565b6000806040838503121561105357600080fd5b82359150610fe260208401610f81565b6000806040838503121561107657600080fd5b50508035926020909101359150565b600060208083528351808285015260005b818110156110b257858101830151858201604001528201611096565b818111156110c4576000604083870101525b50601f01601f1916929092016040019392505050565b6000828210156110fa57634e487b7160e01b600052601160045260246000fd5b500390565b634e487b7160e01b600052602160045260246000fdfe542a208c7d2fa3ea28f94718c04f12864ccbca69fd520e2dcf2a6b2bf2ea30f6542a208c7d2fa3ea28f94718c04f12864ccbca69fd520e2dcf2a6b2bf2ea30f7a26469706673582212200d9caed544a5c4b66026995c143a5a8d5cf595be4aefcd0713cd40c5c342be1864736f6c63430008060033",
  "linkReferences": {
    "contracts/libraries/LibUser.sol": {
      "LibUser": [
        {
          "length": 20,
          "start": 750
        },
        {
          "length": 20,
          "start": 1829
        },
        {
          "length": 20,
          "start": 2531
        }
      ]
    }
  },
  "deployedLinkReferences": {
    "contracts/libraries/LibUser.sol": {
      "LibUser": [
        {
          "length": 20,
          "start": 713
        },
        {
          "length": 20,
          "start": 1792
        },
        {
          "length": 20,
          "start": 2494
        }
      ]
    }
  }
}